F0010000007721100001000080200863700013050500000000000000000201510070002001COPIN S.A.S                                       D000000109957700000000000000000000100010010000000000000000000000F0010000007721100120151007000101 00000000000000000000000000000000000000000000000000000000000000000000000000000000000000000000000000000000000000000N 00000000000NCONT   00    00000000000          00000000000000000000000000000000000000000000 000000000000000A000000000000000000000000000000000000000000000 000000000000000000000000000000000000000     00000000                                                                                                                        000000000000000000
F0010000007721100002000080200863700041450500000000000000000201510070002001COPIN S.A.S                                       C000000096520000000000000000000000100010010000000000000000000000F0010000007721100220151007000101 00000000000000000000000000000000000000000000000000000000000000000000000000000000000000000000000000000000000000000N 00000000000NCONT   00    00000000000          00000000000000000000000000000000000000000000 000000000000000A000000000000000000000000000000000000000000000 000000000000000000000000000000000000000     00000000                                                                                                                        000000000000000000
F0010000007721100003000080200863700042505000000000000000000201510070002001COPIN S.A.S                                       C000000013437700000000000000000000100010010000000000000000000000F0010000007721100320151007000101 00000000000000000000000000000000000000000000000000000000000000000000000000000000000000000000000000000000000000000N 00000000000NCONT   00    00000000000          00000000000000000000000000000000000000000000 000000000000000A000000000000000000000000000000000000000000000 000000000000000000000000000000000000000     00000000                                                                                                                        000000000000000000
F0010000007721100004000080200863700023658300000000000000000201510070002001COPIN S.A.S                                       C000000000772200000000000000000000100010010000000000000000000000F0010000007721100420151007000101 00000000000000000000000000000000000000000000000000000000000000000000000000000000000000000000000000000000000000000N 00000000000NCONT   00    00000000000          00000000000000000000000000000000000000000000 000000000000000A000000000000000000000000000000000000000000000 000000000000000000000000000000000000000     00000000                                                                                                                        000000000000000000
F0010000007721100005000080200863700013552100000000000000000201510070002001COPIN S.A.S                                       D000000000772200000000000000000000100010010000000000000000000000F0010000007721100520151007000101 00000000000000000000000000000000000000000000000000000000000000000000000000000000000000000000000000000000000000000N 00000000000NCONT   00    00000000000          00000000000000000000000000000000000000000000 000000000000000A000000000000000000000000000000000000000000000 000000000000000000000000000000000000000     00000000                                                                                                                        000000000000000000
F0010000007721200001000089011492400013050500000000000000000201510070002001AGE. CAUCHO SOL DE LA COSTA  SAS                  D000000106908200000000000000000000100010010000000000000000000000F0010000007721200120151007000101 00000000000000000000000000000000000000000000000000000000000000000000000000000000000000000000000000000000000000000N 00000000000NCONT   00    00000000000          00000000000000000000000000000000000000000000 000000000000000A000000000000000000000000000000000000000000000 000000000000000000000000000000000000000     00000000                                                                                                                        000000000000000000
F0010000007721200002000089011492400041450500000000000000000201510070002001AGE. CAUCHO SOL DE LA COSTA  SAS                  C000000064440000000000000000000000100010010000000000000000000000F0010000007721200220151007000101 00000000000000000000000000000000000000000000000000000000000000000000000000000000000000000000000000000000000000000N 00000000000NCONT   00    00000000000          00000000000000000000000000000000000000000000 000000000000000A000000000000000000000000000000000000000000000 000000000000000000000000000000000000000     00000000                                                                                                                        000000000000000000
F0010000007721200003000089011492400042505000000000000000000201510070002001AGE. CAUCHO SOL DE LA COSTA  SAS                  C000000042468200000000000000000000100010010000000000000000000000F0010000007721200320151007000101 00000000000000000000000000000000000000000000000000000000000000000000000000000000000000000000000000000000000000000N 00000000000NCONT   00    00000000000          00000000000000000000000000000000000000000000 000000000000000A000000000000000000000000000000000000000000000 000000000000000000000000000000000000000     00000000                                                                                                                        000000000000000000
F0010000007721200004000089011492400023658300000000000000000201510070002001AGE. CAUCHO SOL DE LA COSTA  SAS                  C000000000515500000000000000000000100010010000000000000000000000F0010000007721200420151007000101 00000000000000000000000000000000000000000000000000000000000000000000000000000000000000000000000000000000000000000N 00000000000NCONT   00    00000000000          00000000000000000000000000000000000000000000 000000000000000A000000000000000000000000000000000000000000000 000000000000000000000000000000000000000     00000000                                                                                                                        000000000000000000
F0010000007721200005000089011492400013552100000000000000000201510070002001AGE. CAUCHO SOL DE LA COSTA  SAS                  D000000000515500000000000000000000100010010000000000000000000000F0010000007721200520151007000101 00000000000000000000000000000000000000000000000000000000000000000000000000000000000000000000000000000000000000000N 00000000000NCONT   00    00000000000          00000000000000000000000000000000000000000000 000000000000000A000000000000000000000000000000000000000000000 000000000000000000000000000000000000000     00000000                                                                                                                        000000000000000000
F0010000007721300001000080002300200013050500000000000000000201510070002001DISREL S.A.                                       D000000032600000000000000000000000100010010000000000000000000000F0010000007721300120151007000101 00000000000000000000000000000000000000000000000000000000000000000000000000000000000000000000000000000000000000000N 00000000000NCONT   00    00000000000          00000000000000000000000000000000000000000000 000000000000000A000000000000000000000000000000000000000000000 000000000000000000000000000000000000000     00000000                                                                                                                        000000000000000000
F0010000007721300002000080002300200041450500000000000000000201510070002001DISREL S.A.                                       C000000026080000000000000000000000100010010000000000000000000000F0010000007721300220151007000101 00000000000000000000000000000000000000000000000000000000000000000000000000000000000000000000000000000000000000000N 00000000000NCONT   00    00000000000          00000000000000000000000000000000000000000000 000000000000000A000000000000000000000000000000000000000000000 000000000000000000000000000000000000000     00000000                                                                                                                        000000000000000000
F0010000007721300003000080002300200042505000000000000000000201510070002001DISREL S.A.                                       C000000006520000000000000000000000100010010000000000000000000000F0010000007721300320151007000101 00000000000000000000000000000000000000000000000000000000000000000000000000000000000000000000000000000000000000000N 00000000000NCONT   00    00000000000          00000000000000000000000000000000000000000000 000000000000000A000000000000000000000000000000000000000000000 000000000000000000000000000000000000000     00000000                                                                                                                        000000000000000000
F0010000007721300004000080002300200023658300000000000000000201510070002001DISREL S.A.                                       C000000000208600000000000000000000100010010000000000000000000000F0010000007721300420151007000101 00000000000000000000000000000000000000000000000000000000000000000000000000000000000000000000000000000000000000000N 00000000000NCONT   00    00000000000          00000000000000000000000000000000000000000000 000000000000000A000000000000000000000000000000000000000000000 000000000000000000000000000000000000000     00000000                                                                                                                        000000000000000000
F0010000007721300005000080002300200013552100000000000000000201510070002001DISREL S.A.                                       D000000000208600000000000000000000100010010000000000000000000000F0010000007721300520151007000101 00000000000000000000000000000000000000000000000000000000000000000000000000000000000000000000000000000000000000000N 00000000000NCONT   00    00000000000          00000000000000000000000000000000000000000000 000000000000000A000000000000000000000000000000000000000000000 000000000000000000000000000000000000000     00000000                                                                                                                        000000000000000000
F0010000007721400001000089010260300013050500000000000000000201510070002001FEDERICO OSORIO A. S.A.                           D000000073480200000000000000000000100010010000000000000000000000F0010000007721400120151007000101 00000000000000000000000000000000000000000000000000000000000000000000000000000000000000000000000000000000000000000N 00000000000NCONT   00    00000000000          00000000000000000000000000000000000000000000 000000000000000A000000000000000000000000000000000000000000000 000000000000000000000000000000000000000     00000000                                                                                                                        000000000000000000
F0010000007721400002000089010260300041450500000000000000000201510070002001FEDERICO OSORIO A. S.A.                           C000000064320000000000000000000000100010010000000000000000000000F0010000007721400220151007000101 00000000000000000000000000000000000000000000000000000000000000000000000000000000000000000000000000000000000000000N 00000000000NCONT   00    00000000000          00000000000000000000000000000000000000000000 000000000000000A000000000000000000000000000000000000000000000 000000000000000000000000000000000000000     00000000                                                                                                                        000000000000000000
F0010000007721400003000089010260300042505000000000000000000201510070002001FEDERICO OSORIO A. S.A.                           C000000009160200000000000000000000100010010000000000000000000000F0010000007721400320151007000101 00000000000000000000000000000000000000000000000000000000000000000000000000000000000000000000000000000000000000000N 00000000000NCONT   00    00000000000          00000000000000000000000000000000000000000000 000000000000000A000000000000000000000000000000000000000000000 000000000000000000000000000000000000000     00000000                                                                                                                        000000000000000000
F0010000007721400004000089010260300023658300000000000000000201510070002001FEDERICO OSORIO A. S.A.                           C000000000514600000000000000000000100010010000000000000000000000F0010000007721400420151007000101 00000000000000000000000000000000000000000000000000000000000000000000000000000000000000000000000000000000000000000N 00000000000NCONT   00    00000000000          00000000000000000000000000000000000000000000 000000000000000A000000000000000000000000000000000000000000000 000000000000000000000000000000000000000     00000000                                                                                                                        000000000000000000
F0010000007721400005000089010260300013552100000000000000000201510070002001FEDERICO OSORIO A. S.A.                           D000000000514600000000000000000000100010010000000000000000000000F0010000007721400520151007000101 00000000000000000000000000000000000000000000000000000000000000000000000000000000000000000000000000000000000000000N 00000000000NCONT   00    00000000000          00000000000000000000000000000000000000000000 000000000000000A000000000000000000000000000000000000000000000 000000000000000000000000000000000000000     00000000                                                                                                                        000000000000000000
F0010000007721500001000080023327700013050500000000000000000201510070002001DISINCO LTDA                                      D000000011571500000000000000000000100010010000000000000000000000F0010000007721500120151007000101 00000000000000000000000000000000000000000000000000000000000000000000000000000000000000000000000000000000000000000N 00000000000NCONT   00    00000000000          00000000000000000000000000000000000000000000 000000000000000A000000000000000000000000000000000000000000000 000000000000000000000000000000000000000     00000000                                                                                                                        000000000000000000
F0010000007721500002000080023327700041450500000000000000000201510070002001DISINCO LTDA                                      C000000011000000000000000000000000100010010000000000000000000000F0010000007721500220151007000101 00000000000000000000000000000000000000000000000000000000000000000000000000000000000000000000000000000000000000000N 00000000000NCONT   00    00000000000          00000000000000000000000000000000000000000000 000000000000000A000000000000000000000000000000000000000000000 000000000000000000000000000000000000000     00000000                                                                                                                        000000000000000000
F0010000007721500003000080023327700042505000000000000000000201510070002001DISINCO LTDA                                      C000000000571500000000000000000000100010010000000000000000000000F0010000007721500320151007000101 00000000000000000000000000000000000000000000000000000000000000000000000000000000000000000000000000000000000000000N 00000000000NCONT   00    00000000000          00000000000000000000000000000000000000000000 000000000000000A000000000000000000000000000000000000000000000 000000000000000000000000000000000000000     00000000                                                                                                                        000000000000000000
F0010000007721500004000080023327700023658300000000000000000201510070002001DISINCO LTDA                                      C000000000088000000000000000000000100010010000000000000000000000F0010000007721500420151007000101 00000000000000000000000000000000000000000000000000000000000000000000000000000000000000000000000000000000000000000N 00000000000NCONT   00    00000000000          00000000000000000000000000000000000000000000 000000000000000A000000000000000000000000000000000000000000000 000000000000000000000000000000000000000     00000000                                                                                                                        000000000000000000
F0010000007721500005000080023327700013552100000000000000000201510070002001DISINCO LTDA                                      D000000000088000000000000000000000100010010000000000000000000000F0010000007721500520151007000101 00000000000000000000000000000000000000000000000000000000000000000000000000000000000000000000000000000000000000000N 00000000000NCONT   00    00000000000          00000000000000000000000000000000000000000000 000000000000000A000000000000000000000000000000000000000000000 000000000000000000000000000000000000000     00000000                                                                                                                        000000000000000000
F0010000007721600001000000748239700013050500000000000000000201510070002001RAFAEL NAVARRO URIBE                              D000000074649100000000000000000000100010010000000000000000000000F0010000007721600120151007000101 00000000000000000000000000000000000000000000000000000000000000000000000000000000000000000000000000000000000000000N 00000000000NCONT   00    00000000000          00000000000000000000000000000000000000000000 000000000000000A000000000000000000000000000000000000000000000 000000000000000000000000000000000000000     00000000                                                                                                                        000000000000000000
F0010000007721600002000000748239700041450500000000000000000201510070002001RAFAEL NAVARRO URIBE                              C000000049650000000000000000000000100010010000000000000000000000F0010000007721600220151007000101 00000000000000000000000000000000000000000000000000000000000000000000000000000000000000000000000000000000000000000N 00000000000NCONT   00    00000000000          00000000000000000000000000000000000000000000 000000000000000A000000000000000000000000000000000000000000000 000000000000000000000000000000000000000     00000000                                                                                                                        000000000000000000
F0010000007721600003000000748239700042505000000000000000000201510070002001RAFAEL NAVARRO URIBE                              C000000024999100000000000000000000100010010000000000000000000000F0010000007721600320151007000101 00000000000000000000000000000000000000000000000000000000000000000000000000000000000000000000000000000000000000000N 00000000000NCONT   00    00000000000          00000000000000000000000000000000000000000000 000000000000000A000000000000000000000000000000000000000000000 000000000000000000000000000000000000000     00000000                                                                                                                        000000000000000000
F0010000007721600004000000748239700023658300000000000000000201510070002001RAFAEL NAVARRO URIBE                              C000000000397200000000000000000000100010010000000000000000000000F0010000007721600420151007000101 00000000000000000000000000000000000000000000000000000000000000000000000000000000000000000000000000000000000000000N 00000000000NCONT   00    00000000000          00000000000000000000000000000000000000000000 000000000000000A000000000000000000000000000000000000000000000 000000000000000000000000000000000000000     00000000                                                                                                                        000000000000000000
F0010000007721600005000000748239700013552100000000000000000201510070002001RAFAEL NAVARRO URIBE                              D000000000397200000000000000000000100010010000000000000000000000F0010000007721600520151007000101 00000000000000000000000000000000000000000000000000000000000000000000000000000000000000000000000000000000000000000N 00000000000NCONT   00    00000000000          00000000000000000000000000000000000000000000 000000000000000A000000000000000000000000000000000000000000000 000000000000000000000000000000000000000     00000000                                                                                                                        000000000000000000
F0010000007721700001000089080078800013050500000000000000000201510070002001SUMATEC S.A.                                      D000000136032400000000000000000000100010010000000000000000000000F0010000007721700120151007000101 00000000000000000000000000000000000000000000000000000000000000000000000000000000000000000000000000000000000000000N 00000000000NCONT   00    00000000000          00000000000000000000000000000000000000000000 000000000000000A000000000000000000000000000000000000000000000 000000000000000000000000000000000000000     00000000                                                                                                                        000000000000000000
F0010000007721700002000089080078800041450500000000000000000201510070002001SUMATEC S.A.                                      C000000126000000000000000000000000100010010000000000000000000000F0010000007721700220151007000101 00000000000000000000000000000000000000000000000000000000000000000000000000000000000000000000000000000000000000000N 00000000000NCONT   00    00000000000          00000000000000000000000000000000000000000000 000000000000000A000000000000000000000000000000000000000000000 000000000000000000000000000000000000000     00000000                                                                                                                        000000000000000000
F0010000007721700003000089080078800042505000000000000000000201510070002001SUMATEC S.A.                                      C000000010032400000000000000000000100010010000000000000000000000F0010000007721700320151007000101 00000000000000000000000000000000000000000000000000000000000000000000000000000000000000000000000000000000000000000N 00000000000NCONT   00    00000000000          00000000000000000000000000000000000000000000 000000000000000A000000000000000000000000000000000000000000000 000000000000000000000000000000000000000     00000000                                                                                                                        000000000000000000
F0010000007721700004000089080078800023658300000000000000000201510070002001SUMATEC S.A.                                      C000000001008000000000000000000000100010010000000000000000000000F0010000007721700420151007000101 00000000000000000000000000000000000000000000000000000000000000000000000000000000000000000000000000000000000000000N 00000000000NCONT   00    00000000000          00000000000000000000000000000000000000000000 000000000000000A000000000000000000000000000000000000000000000 000000000000000000000000000000000000000     00000000                                                                                                                        000000000000000000
F0010000007721700005000089080078800013552100000000000000000201510070002001SUMATEC S.A.                                      D000000001008000000000000000000000100010010000000000000000000000F0010000007721700520151007000101 00000000000000000000000000000000000000000000000000000000000000000000000000000000000000000000000000000000000000000N 00000000000NCONT   00    00000000000          00000000000000000000000000000000000000000000 000000000000000A000000000000000000000000000000000000000000000 000000000000000000000000000000000000000     00000000                                                                                                                        000000000000000000
F0010000007721800001000080016664500013050500000000000000000201510070002001TELAPLAS PANCER SAS                               D000000034136000000000000000000000100010010000000000000000000000F0010000007721800120151007000101 00000000000000000000000000000000000000000000000000000000000000000000000000000000000000000000000000000000000000000N 00000000000NCONT   00    00000000000          00000000000000000000000000000000000000000000 000000000000000A000000000000000000000000000000000000000000000 000000000000000000000000000000000000000     00000000                                                                                                                        000000000000000000
F0010000007721800002000080016664500041450500000000000000000201510070002001TELAPLAS PANCER SAS                               C000000027200000000000000000000000100010010000000000000000000000F0010000007721800220151007000101 00000000000000000000000000000000000000000000000000000000000000000000000000000000000000000000000000000000000000000N 00000000000NCONT   00    00000000000          00000000000000000000000000000000000000000000 000000000000000A000000000000000000000000000000000000000000000 000000000000000000000000000000000000000     00000000                                                                                                                        000000000000000000
F0010000007721800003000080016664500042505000000000000000000201510070002001TELAPLAS PANCER SAS                               C000000006936000000000000000000000100010010000000000000000000000F0010000007721800320151007000101 00000000000000000000000000000000000000000000000000000000000000000000000000000000000000000000000000000000000000000N 00000000000NCONT   00    00000000000          00000000000000000000000000000000000000000000 000000000000000A000000000000000000000000000000000000000000000 000000000000000000000000000000000000000     00000000                                                                                                                        000000000000000000
F0010000007721800004000080016664500023658300000000000000000201510070002001TELAPLAS PANCER SAS                               C000000000217600000000000000000000100010010000000000000000000000F0010000007721800420151007000101 00000000000000000000000000000000000000000000000000000000000000000000000000000000000000000000000000000000000000000N 00000000000NCONT   00    00000000000          00000000000000000000000000000000000000000000 000000000000000A000000000000000000000000000000000000000000000 000000000000000000000000000000000000000     00000000                                                                                                                        000000000000000000
F0010000007721800005000080016664500013552100000000000000000201510070002001TELAPLAS PANCER SAS                               D000000000217600000000000000000000100010010000000000000000000000F0010000007721800520151007000101 00000000000000000000000000000000000000000000000000000000000000000000000000000000000000000000000000000000000000000N 00000000000NCONT   00    00000000000          00000000000000000000000000000000000000000000 000000000000000A000000000000000000000000000000000000000000000 000000000000000000000000000000000000000     00000000                                                                                                                        000000000000000000
F0010000007721900001000090008711200013050500000000000000000201510070002001PACKAGING SUPPLIERS S.A.                          D000000053371700000000000000000000100010010000000000000000000000F0010000007721900120151007000101 00000000000000000000000000000000000000000000000000000000000000000000000000000000000000000000000000000000000000000N 00000000000NCONT   00    00000000000          00000000000000000000000000000000000000000000 000000000000000A000000000000000000000000000000000000000000000 000000000000000000000000000000000000000     00000000                                                                                                                        000000000000000000
F0010000007721900002000090008711200041450500000000000000000201510070002001PACKAGING SUPPLIERS S.A.                          C000000048436700000000000000000000100010010000000000000000000000F0010000007721900220151007000101 00000000000000000000000000000000000000000000000000000000000000000000000000000000000000000000000000000000000000000N 00000000000NCONT   00    00000000000          00000000000000000000000000000000000000000000 000000000000000A000000000000000000000000000000000000000000000 000000000000000000000000000000000000000     00000000                                                                                                                        000000000000000000
F0010000007721900003000090008711200042505000000000000000000201510070002001PACKAGING SUPPLIERS S.A.                          C000000004935000000000000000000000100010010000000000000000000000F0010000007721900320151007000101 00000000000000000000000000000000000000000000000000000000000000000000000000000000000000000000000000000000000000000N 00000000000NCONT   00    00000000000          00000000000000000000000000000000000000000000 000000000000000A000000000000000000000000000000000000000000000 000000000000000000000000000000000000000     00000000                                                                                                                        000000000000000000
F0010000007721900004000090008711200023658300000000000000000201510070002001PACKAGING SUPPLIERS S.A.                          C000000000387500000000000000000000100010010000000000000000000000F0010000007721900420151007000101 00000000000000000000000000000000000000000000000000000000000000000000000000000000000000000000000000000000000000000N 00000000000NCONT   00    00000000000          00000000000000000000000000000000000000000000 000000000000000A000000000000000000000000000000000000000000000 000000000000000000000000000000000000000     00000000                                                                                                                        000000000000000000
F0010000007721900005000090008711200013552100000000000000000201510070002001PACKAGING SUPPLIERS S.A.                          D000000000387500000000000000000000100010010000000000000000000000F0010000007721900520151007000101 00000000000000000000000000000000000000000000000000000000000000000000000000000000000000000000000000000000000000000N 00000000000NCONT   00    00000000000          00000000000000000000000000000000000000000000 000000000000000A000000000000000000000000000000000000000000000 000000000000000000000000000000000000000     00000000                                                                                                                        000000000000000000
F0010000007722000001000080016665600013050500000000000000000201510070002001SUMICAL DE ANTIOQUIA S.A.S                        D000000056714500000000000000000000100010010000000000000000000000F0010000007722000120151007000101 00000000000000000000000000000000000000000000000000000000000000000000000000000000000000000000000000000000000000000N 00000000000NCONT   00    00000000000          00000000000000000000000000000000000000000000 000000000000000A000000000000000000000000000000000000000000000 000000000000000000000000000000000000000     00000000                                                                                                                        000000000000000000
F0010000007722000002000080016665600041450500000000000000000201510070002001SUMICAL DE ANTIOQUIA S.A.S                        C000000048220000000000000000000000100010010000000000000000000000F0010000007722000220151007000101 00000000000000000000000000000000000000000000000000000000000000000000000000000000000000000000000000000000000000000N 00000000000NCONT   00    00000000000          00000000000000000000000000000000000000000000 000000000000000A000000000000000000000000000000000000000000000 000000000000000000000000000000000000000     00000000                                                                                                                        000000000000000000
F0010000007722000003000080016665600042505000000000000000000201510070002001SUMICAL DE ANTIOQUIA S.A.S                        C000000008494500000000000000000000100010010000000000000000000000F0010000007722000320151007000101 00000000000000000000000000000000000000000000000000000000000000000000000000000000000000000000000000000000000000000N 00000000000NCONT   00    00000000000          00000000000000000000000000000000000000000000 000000000000000A000000000000000000000000000000000000000000000 000000000000000000000000000000000000000     00000000                                                                                                                        000000000000000000
F0010000007722000004000080016665600023658300000000000000000201510070002001SUMICAL DE ANTIOQUIA S.A.S                        C000000000385800000000000000000000100010010000000000000000000000F0010000007722000420151007000101 00000000000000000000000000000000000000000000000000000000000000000000000000000000000000000000000000000000000000000N 00000000000NCONT   00    00000000000          00000000000000000000000000000000000000000000 000000000000000A000000000000000000000000000000000000000000000 000000000000000000000000000000000000000     00000000                                                                                                                        000000000000000000
F0010000007722000005000080016665600013552100000000000000000201510070002001SUMICAL DE ANTIOQUIA S.A.S                        D000000000385800000000000000000000100010010000000000000000000000F0010000007722000520151007000101 00000000000000000000000000000000000000000000000000000000000000000000000000000000000000000000000000000000000000000N 00000000000NCONT   00    00000000000          00000000000000000000000000000000000000000000 000000000000000A000000000000000000000000000000000000000000000 000000000000000000000000000000000000000     00000000                                                                                                                        000000000000000000
F0010000007722100001000090055568800013050500000000000000000201510070002001IMPORTADORA CRUZ Y BELTRAN                        D000000027500000000000000000000000100010010000000000000000000000F0010000007722100120151007000101 00000000000000000000000000000000000000000000000000000000000000000000000000000000000000000000000000000000000000000N 00000000000NCONT   00    00000000000          00000000000000000000000000000000000000000000 000000000000000A000000000000000000000000000000000000000000000 000000000000000000000000000000000000000     00000000                                                                                                                        000000000000000000
F0010000007722100002000090055568800041450500000000000000000201510070002001IMPORTADORA CRUZ Y BELTRAN                        C000000026900000000000000000000000100010010000000000000000000000F0010000007722100220151007000101 00000000000000000000000000000000000000000000000000000000000000000000000000000000000000000000000000000000000000000N 00000000000NCONT   00    00000000000          00000000000000000000000000000000000000000000 000000000000000A000000000000000000000000000000000000000000000 000000000000000000000000000000000000000     00000000                                                                                                                        000000000000000000
F0010000007722100003000090055568800042505000000000000000000201510070002001IMPORTADORA CRUZ Y BELTRAN                        C000000000600000000000000000000000100010010000000000000000000000F0010000007722100320151007000101 00000000000000000000000000000000000000000000000000000000000000000000000000000000000000000000000000000000000000000N 00000000000NCONT   00    00000000000          00000000000000000000000000000000000000000000 000000000000000A000000000000000000000000000000000000000000000 000000000000000000000000000000000000000     00000000                                                                                                                        000000000000000000
F0010000007722100004000090055568800023658300000000000000000201510070002001IMPORTADORA CRUZ Y BELTRAN                        C000000000215200000000000000000000100010010000000000000000000000F0010000007722100420151007000101 00000000000000000000000000000000000000000000000000000000000000000000000000000000000000000000000000000000000000000N 00000000000NCONT   00    00000000000          00000000000000000000000000000000000000000000 000000000000000A000000000000000000000000000000000000000000000 000000000000000000000000000000000000000     00000000                                                                                                                        000000000000000000
F0010000007722100005000090055568800013552100000000000000000201510070002001IMPORTADORA CRUZ Y BELTRAN                        D000000000215200000000000000000000100010010000000000000000000000F0010000007722100520151007000101 00000000000000000000000000000000000000000000000000000000000000000000000000000000000000000000000000000000000000000N 00000000000NCONT   00    00000000000          00000000000000000000000000000000000000000000 000000000000000A000000000000000000000000000000000000000000000 000000000000000000000000000000000000000     00000000                                                                                                                        000000000000000000
F0010000007722200001000089070997800013050500000000000000000201510070002001CENTRAL DE TORNILLOS                              D000000027520000000000000000000000100010010000000000000000000000F0010000007722200120151007000101 00000000000000000000000000000000000000000000000000000000000000000000000000000000000000000000000000000000000000000N 00000000000NCONT   00    00000000000          00000000000000000000000000000000000000000000 000000000000000A000000000000000000000000000000000000000000000 000000000000000000000000000000000000000     00000000                                                                                                                        000000000000000000
F0010000007722200002000089070997800041450500000000000000000201510070002001CENTRAL DE TORNILLOS                              C000000025920000000000000000000000100010010000000000000000000000F0010000007722200220151007000101 00000000000000000000000000000000000000000000000000000000000000000000000000000000000000000000000000000000000000000N 00000000000NCONT   00    00000000000          00000000000000000000000000000000000000000000 000000000000000A000000000000000000000000000000000000000000000 000000000000000000000000000000000000000     00000000                                                                                                                        000000000000000000
F0010000007722200003000089070997800042505000000000000000000201510070002001CENTRAL DE TORNILLOS                              C000000001600000000000000000000000100010010000000000000000000000F0010000007722200320151007000101 00000000000000000000000000000000000000000000000000000000000000000000000000000000000000000000000000000000000000000N 00000000000NCONT   00    00000000000          00000000000000000000000000000000000000000000 000000000000000A000000000000000000000000000000000000000000000 000000000000000000000000000000000000000     00000000                                                                                                                        000000000000000000
F0010000007722200004000089070997800023658300000000000000000201510070002001CENTRAL DE TORNILLOS                              C000000000207400000000000000000000100010010000000000000000000000F0010000007722200420151007000101 00000000000000000000000000000000000000000000000000000000000000000000000000000000000000000000000000000000000000000N 00000000000NCONT   00    00000000000          00000000000000000000000000000000000000000000 000000000000000A000000000000000000000000000000000000000000000 000000000000000000000000000000000000000     00000000                                                                                                                        000000000000000000
F0010000007722200005000089070997800013552100000000000000000201510070002001CENTRAL DE TORNILLOS                              D000000000207400000000000000000000100010010000000000000000000000F0010000007722200520151007000101 00000000000000000000000000000000000000000000000000000000000000000000000000000000000000000000000000000000000000000N 00000000000NCONT   00    00000000000          00000000000000000000000000000000000000000000 000000000000000A000000000000000000000000000000000000000000000 000000000000000000000000000000000000000     00000000                                                                                                                        000000000000000000
F0010000007722300001000000871714900013050500000000000000000201510070002001ROLNAN DE LA ROSA  INSIGNARES                     D000000073056300000000000000000000100010010000000000000000000000F0010000007722300120151007000101 00000000000000000000000000000000000000000000000000000000000000000000000000000000000000000000000000000000000000000N 00000000000NCONT   00    00000000000          00000000000000000000000000000000000000000000 000000000000000A000000000000000000000000000000000000000000000 000000000000000000000000000000000000000     00000000                                                                                                                        000000000000000000
F0010000007722300002000000871714900041450500000000000000000201510070002001ROLNAN DE LA ROSA  INSIGNARES                     C000000060428000000000000000000000100010010000000000000000000000F0010000007722300220151007000101 00000000000000000000000000000000000000000000000000000000000000000000000000000000000000000000000000000000000000000N 00000000000NCONT   00    00000000000          00000000000000000000000000000000000000000000 000000000000000A000000000000000000000000000000000000000000000 000000000000000000000000000000000000000     00000000                                                                                                                        000000000000000000
F0010000007722300003000000871714900042505000000000000000000201510070002001ROLNAN DE LA ROSA  INSIGNARES                     C000000012628300000000000000000000100010010000000000000000000000F0010000007722300320151007000101 00000000000000000000000000000000000000000000000000000000000000000000000000000000000000000000000000000000000000000N 00000000000NCONT   00    00000000000          00000000000000000000000000000000000000000000 000000000000000A000000000000000000000000000000000000000000000 000000000000000000000000000000000000000     00000000                                                                                                                        000000000000000000
F0010000007722300004000000871714900023658300000000000000000201510070002001ROLNAN DE LA ROSA  INSIGNARES                     C000000000483400000000000000000000100010010000000000000000000000F0010000007722300420151007000101 00000000000000000000000000000000000000000000000000000000000000000000000000000000000000000000000000000000000000000N 00000000000NCONT   00    00000000000          00000000000000000000000000000000000000000000 000000000000000A000000000000000000000000000000000000000000000 000000000000000000000000000000000000000     00000000                                                                                                                        000000000000000000
F0010000007722300005000000871714900013552100000000000000000201510070002001ROLNAN DE LA ROSA  INSIGNARES                     D000000000483400000000000000000000100010010000000000000000000000F0010000007722300520151007000101 00000000000000000000000000000000000000000000000000000000000000000000000000000000000000000000000000000000000000000N 00000000000NCONT   00    00000000000          00000000000000000000000000000000000000000000 000000000000000A000000000000000000000000000000000000000000000 000000000000000000000000000000000000000     00000000                                                                                                                        000000000000000000
F0010000007722500001000000376399500013050500000000000000000201510070002001FORDPLAST                                         D000000014950000000000000000000000100010010000000000000000000000F0010000007722500120151007000101 00000000000000000000000000000000000000000000000000000000000000000000000000000000000000000000000000000000000000000N 00000000000NCONT   00    00000000000          00000000000000000000000000000000000000000000 000000000000000A000000000000000000000000000000000000000000000 000000000000000000000000000000000000000     00000000                                                                                                                        000000000000000000
F0010000007722500002000000376399500041450500000000000000000201510070002001FORDPLAST                                         C000000013350000000000000000000000100010010000000000000000000000F0010000007722500220151007000101 00000000000000000000000000000000000000000000000000000000000000000000000000000000000000000000000000000000000000000N 00000000000NCONT   00    00000000000          00000000000000000000000000000000000000000000 000000000000000A000000000000000000000000000000000000000000000 000000000000000000000000000000000000000     00000000                                                                                                                        000000000000000000
F0010000007722500003000000376399500042505000000000000000000201510070002001FORDPLAST                                         C000000001600000000000000000000000100010010000000000000000000000F0010000007722500320151007000101 00000000000000000000000000000000000000000000000000000000000000000000000000000000000000000000000000000000000000000N 00000000000NCONT   00    00000000000          00000000000000000000000000000000000000000000 000000000000000A000000000000000000000000000000000000000000000 000000000000000000000000000000000000000     00000000                                                                                                                        000000000000000000
F0010000007722500004000000376399500023658300000000000000000201510070002001FORDPLAST                                         C000000000106800000000000000000000100010010000000000000000000000F0010000007722500420151007000101 00000000000000000000000000000000000000000000000000000000000000000000000000000000000000000000000000000000000000000N 00000000000NCONT   00    00000000000          00000000000000000000000000000000000000000000 000000000000000A000000000000000000000000000000000000000000000 000000000000000000000000000000000000000     00000000                                                                                                                        000000000000000000
F0010000007722500005000000376399500013552100000000000000000201510070002001FORDPLAST                                         D000000000106800000000000000000000100010010000000000000000000000F0010000007722500520151007000101 00000000000000000000000000000000000000000000000000000000000000000000000000000000000000000000000000000000000000000N 00000000000NCONT   00    00000000000          00000000000000000000000000000000000000000000 000000000000000A000000000000000000000000000000000000000000000 000000000000000000000000000000000000000     00000000                                                                                                                        000000000000000000
F0010000007722600001000083001155300013050500000000000000000201510070002001COMERCIALIZADORA RUBEN S LTDA                     D000000036622500000000000000000000100010010000000000000000000000F0010000007722600120151007000101 00000000000000000000000000000000000000000000000000000000000000000000000000000000000000000000000000000000000000000N 00000000000NCONT   00    00000000000          00000000000000000000000000000000000000000000 000000000000000A000000000000000000000000000000000000000000000 000000000000000000000000000000000000000     00000000                                                                                                                        000000000000000000
F0010000007722600002000083001155300041450500000000000000000201510070002001COMERCIALIZADORA RUBEN S LTDA                     C000000032821100000000000000000000100010010000000000000000000000F0010000007722600220151007000101 00000000000000000000000000000000000000000000000000000000000000000000000000000000000000000000000000000000000000000N 00000000000NCONT   00    00000000000          00000000000000000000000000000000000000000000 000000000000000A000000000000000000000000000000000000000000000 000000000000000000000000000000000000000     00000000                                                                                                                        000000000000000000
F0010000007722600003000083001155300042505000000000000000000201510070002001COMERCIALIZADORA RUBEN S LTDA                     C000000003801400000000000000000000100010010000000000000000000000F0010000007722600320151007000101 00000000000000000000000000000000000000000000000000000000000000000000000000000000000000000000000000000000000000000N 00000000000NCONT   00    00000000000          00000000000000000000000000000000000000000000 000000000000000A000000000000000000000000000000000000000000000 000000000000000000000000000000000000000     00000000                                                                                                                        000000000000000000
F0010000007722600004000083001155300023658300000000000000000201510070002001COMERCIALIZADORA RUBEN S LTDA                     C000000000262600000000000000000000100010010000000000000000000000F0010000007722600420151007000101 00000000000000000000000000000000000000000000000000000000000000000000000000000000000000000000000000000000000000000N 00000000000NCONT   00    00000000000          00000000000000000000000000000000000000000000 000000000000000A000000000000000000000000000000000000000000000 000000000000000000000000000000000000000     00000000                                                                                                                        000000000000000000
F0010000007722600005000083001155300013552100000000000000000201510070002001COMERCIALIZADORA RUBEN S LTDA                     D000000000262600000000000000000000100010010000000000000000000000F0010000007722600520151007000101 00000000000000000000000000000000000000000000000000000000000000000000000000000000000000000000000000000000000000000N 00000000000NCONT   00    00000000000          00000000000000000000000000000000000000000000 000000000000000A000000000000000000000000000000000000000000000 000000000000000000000000000000000000000     00000000                                                                                                                        000000000000000000
F0010000007722700001000080019113900013050500000000000000000201510070002001COMERCIAL NOVAPEL LTDA                            D000000059740000000000000000000000100010010000000000000000000000F0010000007722700120151007000101 00000000000000000000000000000000000000000000000000000000000000000000000000000000000000000000000000000000000000000N 00000000000NCONT   00    00000000000          00000000000000000000000000000000000000000000 000000000000000A000000000000000000000000000000000000000000000 000000000000000000000000000000000000000     00000000                                                                                                                        000000000000000000
F0010000007722700002000080019113900041450500000000000000000201510070002001COMERCIAL NOVAPEL LTDA                            C000000050000000000000000000000000100010010000000000000000000000F0010000007722700220151007000101 00000000000000000000000000000000000000000000000000000000000000000000000000000000000000000000000000000000000000000N 00000000000NCONT   00    00000000000          00000000000000000000000000000000000000000000 000000000000000A000000000000000000000000000000000000000000000 000000000000000000000000000000000000000     00000000                                                                                                                        000000000000000000
F0010000007722700003000080019113900042505000000000000000000201510070002001COMERCIAL NOVAPEL LTDA                            C000000009740000000000000000000000100010010000000000000000000000F0010000007722700320151007000101 00000000000000000000000000000000000000000000000000000000000000000000000000000000000000000000000000000000000000000N 00000000000NCONT   00    00000000000          00000000000000000000000000000000000000000000 000000000000000A000000000000000000000000000000000000000000000 000000000000000000000000000000000000000     00000000                                                                                                                        000000000000000000
F0010000007722700004000080019113900023658300000000000000000201510070002001COMERCIAL NOVAPEL LTDA                            C000000000400000000000000000000000100010010000000000000000000000F0010000007722700420151007000101 00000000000000000000000000000000000000000000000000000000000000000000000000000000000000000000000000000000000000000N 00000000000NCONT   00    00000000000          00000000000000000000000000000000000000000000 000000000000000A000000000000000000000000000000000000000000000 000000000000000000000000000000000000000     00000000                                                                                                                        000000000000000000
F0010000007722700005000080019113900013552100000000000000000201510070002001COMERCIAL NOVAPEL LTDA                            D000000000400000000000000000000000100010010000000000000000000000F0010000007722700520151007000101 00000000000000000000000000000000000000000000000000000000000000000000000000000000000000000000000000000000000000000N 00000000000NCONT   00    00000000000          00000000000000000000000000000000000000000000 000000000000000A000000000000000000000000000000000000000000000 000000000000000000000000000000000000000     00000000                                                                                                                        000000000000000000
F0010000007722800001000090059316900013050500000000000000000201510070002001DISTRIBUCIONES Y REPRESENTACIONES MANA            D000000001240000000000000000000000100010010000000000000000000000F0010000007722800120151007000101 00000000000000000000000000000000000000000000000000000000000000000000000000000000000000000000000000000000000000000N 00000000000NCONT   00    00000000000          00000000000000000000000000000000000000000000 000000000000000A000000000000000000000000000000000000000000000 000000000000000000000000000000000000000     00000000                                                                                                                        000000000000000000
F0010000007722800002000090059316900041450500000000000000000201510070002001DISTRIBUCIONES Y REPRESENTACIONES MANA            C000000000850000000000000000000000100010010000000000000000000000F0010000007722800220151007000101 00000000000000000000000000000000000000000000000000000000000000000000000000000000000000000000000000000000000000000N 00000000000NCONT   00    00000000000          00000000000000000000000000000000000000000000 000000000000000A000000000000000000000000000000000000000000000 000000000000000000000000000000000000000     00000000                                                                                                                        000000000000000000
F0010000007722800003000090059316900042505000000000000000000201510070002001DISTRIBUCIONES Y REPRESENTACIONES MANA            C000000000390000000000000000000000100010010000000000000000000000F0010000007722800320151007000101 00000000000000000000000000000000000000000000000000000000000000000000000000000000000000000000000000000000000000000N 00000000000NCONT   00    00000000000          00000000000000000000000000000000000000000000 000000000000000A000000000000000000000000000000000000000000000 000000000000000000000000000000000000000     00000000                                                                                                                        000000000000000000
F0010000007722800004000090059316900023658300000000000000000201510070002001DISTRIBUCIONES Y REPRESENTACIONES MANA            C000000000006800000000000000000000100010010000000000000000000000F0010000007722800420151007000101 00000000000000000000000000000000000000000000000000000000000000000000000000000000000000000000000000000000000000000N 00000000000NCONT   00    00000000000          00000000000000000000000000000000000000000000 000000000000000A000000000000000000000000000000000000000000000 000000000000000000000000000000000000000     00000000                                                                                                                        000000000000000000
F0010000007722800005000090059316900013552100000000000000000201510070002001DISTRIBUCIONES Y REPRESENTACIONES MANA            D000000000006800000000000000000000100010010000000000000000000000F0010000007722800520151007000101 00000000000000000000000000000000000000000000000000000000000000000000000000000000000000000000000000000000000000000N 00000000000NCONT   00    00000000000          00000000000000000000000000000000000000000000 000000000000000A000000000000000000000000000000000000000000000 000000000000000000000000000000000000000     00000000                                                                                                                        000000000000000000
F0010000007722900001000090013035500013050500000000000000000201510070002001FUJIAN SHAN S.A.                                  D000000017104000000000000000000000100010010000000000000000000000F0010000007722900120151007000101 00000000000000000000000000000000000000000000000000000000000000000000000000000000000000000000000000000000000000000N 00000000000NCONT   00    00000000000          00000000000000000000000000000000000000000000 000000000000000A000000000000000000000000000000000000000000000 000000000000000000000000000000000000000     00000000                                                                                                                        000000000000000000
F0010000007722900002000090013035500041450500000000000000000201510070002001FUJIAN SHAN S.A.                                  C000000016604000000000000000000000100010010000000000000000000000F0010000007722900220151007000101 00000000000000000000000000000000000000000000000000000000000000000000000000000000000000000000000000000000000000000N 00000000000NCONT   00    00000000000          00000000000000000000000000000000000000000000 000000000000000A000000000000000000000000000000000000000000000 000000000000000000000000000000000000000     00000000                                                                                                                        000000000000000000
F0010000007722900003000090013035500042505000000000000000000201510070002001FUJIAN SHAN S.A.                                  C000000000500000000000000000000000100010010000000000000000000000F0010000007722900320151007000101 00000000000000000000000000000000000000000000000000000000000000000000000000000000000000000000000000000000000000000N 00000000000NCONT   00    00000000000          00000000000000000000000000000000000000000000 000000000000000A000000000000000000000000000000000000000000000 000000000000000000000000000000000000000     00000000                                                                                                                        000000000000000000
F0010000007722900004000090013035500023658300000000000000000201510070002001FUJIAN SHAN S.A.                                  C000000000132800000000000000000000100010010000000000000000000000F0010000007722900420151007000101 00000000000000000000000000000000000000000000000000000000000000000000000000000000000000000000000000000000000000000N 00000000000NCONT   00    00000000000          00000000000000000000000000000000000000000000 000000000000000A000000000000000000000000000000000000000000000 000000000000000000000000000000000000000     00000000                                                                                                                        000000000000000000
F0010000007722900005000090013035500013552100000000000000000201510070002001FUJIAN SHAN S.A.                                  D000000000132800000000000000000000100010010000000000000000000000F0010000007722900520151007000101 00000000000000000000000000000000000000000000000000000000000000000000000000000000000000000000000000000000000000000N 00000000000NCONT   00    00000000000          00000000000000000000000000000000000000000000 000000000000000A000000000000000000000000000000000000000000000 000000000000000000000000000000000000000     00000000                                                                                                                        000000000000000000
F0010000007723000001000090060531100013050500000000000000000201510070002001RECUBRIMIENTOS ESENCIALES SAS                     D000000003440000000000000000000000100010010000000000000000000000F0010000007723000120151007000101 00000000000000000000000000000000000000000000000000000000000000000000000000000000000000000000000000000000000000000N 00000000000NCONT   00    00000000000          00000000000000000000000000000000000000000000 000000000000000A000000000000000000000000000000000000000000000 000000000000000000000000000000000000000     00000000                                                                                                                        000000000000000000
F0010000007723000002000090060531100041450500000000000000000201510070002001RECUBRIMIENTOS ESENCIALES SAS                     C000000002940000000000000000000000100010010000000000000000000000F0010000007723000220151007000101 00000000000000000000000000000000000000000000000000000000000000000000000000000000000000000000000000000000000000000N 00000000000NCONT   00    00000000000          00000000000000000000000000000000000000000000 000000000000000A000000000000000000000000000000000000000000000 000000000000000000000000000000000000000     00000000                                                                                                                        000000000000000000
F0010000007723000003000090060531100042505000000000000000000201510070002001RECUBRIMIENTOS ESENCIALES SAS                     C000000000500000000000000000000000100010010000000000000000000000F0010000007723000320151007000101 00000000000000000000000000000000000000000000000000000000000000000000000000000000000000000000000000000000000000000N 00000000000NCONT   00    00000000000          00000000000000000000000000000000000000000000 000000000000000A000000000000000000000000000000000000000000000 000000000000000000000000000000000000000     00000000                                                                                                                        000000000000000000
F0010000007723000004000090060531100023658300000000000000000201510070002001RECUBRIMIENTOS ESENCIALES SAS                     C000000000023500000000000000000000100010010000000000000000000000F0010000007723000420151007000101 00000000000000000000000000000000000000000000000000000000000000000000000000000000000000000000000000000000000000000N 00000000000NCONT   00    00000000000          00000000000000000000000000000000000000000000 000000000000000A000000000000000000000000000000000000000000000 000000000000000000000000000000000000000     00000000                                                                                                                        000000000000000000
F0010000007723000005000090060531100013552100000000000000000201510070002001RECUBRIMIENTOS ESENCIALES SAS                     D000000000023500000000000000000000100010010000000000000000000000F0010000007723000520151007000101 00000000000000000000000000000000000000000000000000000000000000000000000000000000000000000000000000000000000000000N 00000000000NCONT   00    00000000000          00000000000000000000000000000000000000000000 000000000000000A000000000000000000000000000000000000000000000 000000000000000000000000000000000000000     00000000                                                                                                                        000000000000000000
F0010000007723100001000090009800500013050500000000000000000201510070002001GLORIANT CHEMICAL DE COLOMBIA LTDA                D000000061203000000000000000000000100010010000000000000000000000F0010000007723100120151007000101 00000000000000000000000000000000000000000000000000000000000000000000000000000000000000000000000000000000000000000N 00000000000NCONT   00    00000000000          00000000000000000000000000000000000000000000 000000000000000A000000000000000000000000000000000000000000000 000000000000000000000000000000000000000     00000000                                                                                                                        000000000000000000
F0010000007723100002000090009800500041450500000000000000000201510070002001GLORIANT CHEMICAL DE COLOMBIA LTDA                C000000049860000000000000000000000100010010000000000000000000000F0010000007723100220151007000101 00000000000000000000000000000000000000000000000000000000000000000000000000000000000000000000000000000000000000000N 00000000000NCONT   00    00000000000          00000000000000000000000000000000000000000000 000000000000000A000000000000000000000000000000000000000000000 000000000000000000000000000000000000000     00000000                                                                                                                        000000000000000000
F0010000007723100003000090009800500042505000000000000000000201510070002001GLORIANT CHEMICAL DE COLOMBIA LTDA                C000000011343000000000000000000000100010010000000000000000000000F0010000007723100320151007000101 00000000000000000000000000000000000000000000000000000000000000000000000000000000000000000000000000000000000000000N 00000000000NCONT   00    00000000000          00000000000000000000000000000000000000000000 000000000000000A000000000000000000000000000000000000000000000 000000000000000000000000000000000000000     00000000                                                                                                                        000000000000000000
F0010000007723100004000090009800500023658300000000000000000201510070002001GLORIANT CHEMICAL DE COLOMBIA LTDA                C000000000398900000000000000000000100010010000000000000000000000F0010000007723100420151007000101 00000000000000000000000000000000000000000000000000000000000000000000000000000000000000000000000000000000000000000N 00000000000NCONT   00    00000000000          00000000000000000000000000000000000000000000 000000000000000A000000000000000000000000000000000000000000000 000000000000000000000000000000000000000     00000000                                                                                                                        000000000000000000
F0010000007723100005000090009800500013552100000000000000000201510070002001GLORIANT CHEMICAL DE COLOMBIA LTDA                D000000000398900000000000000000000100010010000000000000000000000F0010000007723100520151007000101 00000000000000000000000000000000000000000000000000000000000000000000000000000000000000000000000000000000000000000N 00000000000NCONT   00    00000000000          00000000000000000000000000000000000000000000 000000000000000A000000000000000000000000000000000000000000000 000000000000000000000000000000000000000     00000000                                                                                                                        000000000000000000
F0010000007723200001000089010526900013050500000000000000000201510070002001DISTRIBUCIONES CANAL Y CIA S.A.S                  D000000025653400000000000000000000100010010000000000000000000000F0010000007723200120151007000101 00000000000000000000000000000000000000000000000000000000000000000000000000000000000000000000000000000000000000000N 00000000000NCONT   00    00000000000          00000000000000000000000000000000000000000000 000000000000000A000000000000000000000000000000000000000000000 000000000000000000000000000000000000000     00000000                                                                                                                        000000000000000000
F0010000007723200002000089010526900041450500000000000000000201510070002001DISTRIBUCIONES CANAL Y CIA S.A.S                  C000000016610000000000000000000000100010010000000000000000000000F0010000007723200220151007000101 00000000000000000000000000000000000000000000000000000000000000000000000000000000000000000000000000000000000000000N 00000000000NCONT   00    00000000000          00000000000000000000000000000000000000000000 000000000000000A000000000000000000000000000000000000000000000 000000000000000000000000000000000000000     00000000                                                                                                                        000000000000000000
F0010000007723200003000089010526900042505000000000000000000201510070002001DISTRIBUCIONES CANAL Y CIA S.A.S                  C000000009043400000000000000000000100010010000000000000000000000F0010000007723200320151007000101 00000000000000000000000000000000000000000000000000000000000000000000000000000000000000000000000000000000000000000N 00000000000NCONT   00    00000000000          00000000000000000000000000000000000000000000 000000000000000A000000000000000000000000000000000000000000000 000000000000000000000000000000000000000     00000000                                                                                                                        000000000000000000
F0010000007723200004000089010526900023658300000000000000000201510070002001DISTRIBUCIONES CANAL Y CIA S.A.S                  C000000000132900000000000000000000100010010000000000000000000000F0010000007723200420151007000101 00000000000000000000000000000000000000000000000000000000000000000000000000000000000000000000000000000000000000000N 00000000000NCONT   00    00000000000          00000000000000000000000000000000000000000000 000000000000000A000000000000000000000000000000000000000000000 000000000000000000000000000000000000000     00000000                                                                                                                        000000000000000000
F0010000007723200005000089010526900013552100000000000000000201510070002001DISTRIBUCIONES CANAL Y CIA S.A.S                  D000000000132900000000000000000000100010010000000000000000000000F0010000007723200520151007000101 00000000000000000000000000000000000000000000000000000000000000000000000000000000000000000000000000000000000000000N 00000000000NCONT   00    00000000000          00000000000000000000000000000000000000000000 000000000000000A000000000000000000000000000000000000000000000 000000000000000000000000000000000000000     00000000                                                                                                                        000000000000000000
F0010000007723300001000090064982900013050500000000000000000201510070002001DISDIES S.A.S                                     D000000085866000000000000000000000100010010000000000000000000000F0010000007723300120151007000101 00000000000000000000000000000000000000000000000000000000000000000000000000000000000000000000000000000000000000000N 00000000000NCONT   00    00000000000          00000000000000000000000000000000000000000000 000000000000000A000000000000000000000000000000000000000000000 000000000000000000000000000000000000000     00000000                                                                                                                        000000000000000000
F0010000007723300002000090064982900041450500000000000000000201510070002001DISDIES S.A.S                                     C000000076822300000000000000000000100010010000000000000000000000F0010000007723300220151007000101 00000000000000000000000000000000000000000000000000000000000000000000000000000000000000000000000000000000000000000N 00000000000NCONT   00    00000000000          00000000000000000000000000000000000000000000 000000000000000A000000000000000000000000000000000000000000000 000000000000000000000000000000000000000     00000000                                                                                                                        000000000000000000
F0010000007723300003000090064982900042505000000000000000000201510070002001DISDIES S.A.S                                     C000000009043700000000000000000000100010010000000000000000000000F0010000007723300320151007000101 00000000000000000000000000000000000000000000000000000000000000000000000000000000000000000000000000000000000000000N 00000000000NCONT   00    00000000000          00000000000000000000000000000000000000000000 000000000000000A000000000000000000000000000000000000000000000 000000000000000000000000000000000000000     00000000                                                                                                                        000000000000000000
F0010000007723300004000090064982900023658300000000000000000201510070002001DISDIES S.A.S                                     C000000000614600000000000000000000100010010000000000000000000000F0010000007723300420151007000101 00000000000000000000000000000000000000000000000000000000000000000000000000000000000000000000000000000000000000000N 00000000000NCONT   00    00000000000          00000000000000000000000000000000000000000000 000000000000000A000000000000000000000000000000000000000000000 000000000000000000000000000000000000000     00000000                                                                                                                        000000000000000000
F0010000007723300005000090064982900013552100000000000000000201510070002001DISDIES S.A.S                                     D000000000614600000000000000000000100010010000000000000000000000F0010000007723300520151007000101 00000000000000000000000000000000000000000000000000000000000000000000000000000000000000000000000000000000000000000N 00000000000NCONT   00    00000000000          00000000000000000000000000000000000000000000 000000000000000A000000000000000000000000000000000000000000000 000000000000000000000000000000000000000     00000000                                                                                                                        000000000000000000
F0010000007723400001000002245670100013050500000000000000000201510070002001YOLANDA  TOBON                                    D000000018382800000000000000000000100010010000000000000000000000F0010000007723400120151007000101 00000000000000000000000000000000000000000000000000000000000000000000000000000000000000000000000000000000000000000N 00000000000NCONT   00    00000000000          00000000000000000000000000000000000000000000 000000000000000A000000000000000000000000000000000000000000000 000000000000000000000000000000000000000     00000000                                                                                                                        000000000000000000
F0010000007723400002000002245670100041450500000000000000000201510070002001YOLANDA  TOBON                                    C000000014160000000000000000000000100010010000000000000000000000F0010000007723400220151007000101 00000000000000000000000000000000000000000000000000000000000000000000000000000000000000000000000000000000000000000N 00000000000NCONT   00    00000000000          00000000000000000000000000000000000000000000 000000000000000A000000000000000000000000000000000000000000000 000000000000000000000000000000000000000     00000000                                                                                                                        000000000000000000
F0010000007723400003000002245670100042505000000000000000000201510070002001YOLANDA  TOBON                                    C000000004222800000000000000000000100010010000000000000000000000F0010000007723400320151007000101 00000000000000000000000000000000000000000000000000000000000000000000000000000000000000000000000000000000000000000N 00000000000NCONT   00    00000000000          00000000000000000000000000000000000000000000 000000000000000A000000000000000000000000000000000000000000000 000000000000000000000000000000000000000     00000000                                                                                                                        000000000000000000
F0010000007723400004000002245670100023658300000000000000000201510070002001YOLANDA  TOBON                                    C000000000113300000000000000000000100010010000000000000000000000F0010000007723400420151007000101 00000000000000000000000000000000000000000000000000000000000000000000000000000000000000000000000000000000000000000N 00000000000NCONT   00    00000000000          00000000000000000000000000000000000000000000 000000000000000A000000000000000000000000000000000000000000000 000000000000000000000000000000000000000     00000000                                                                                                                        000000000000000000
F0010000007723400005000002245670100013552100000000000000000201510070002001YOLANDA  TOBON                                    D000000000113300000000000000000000100010010000000000000000000000F0010000007723400520151007000101 00000000000000000000000000000000000000000000000000000000000000000000000000000000000000000000000000000000000000000N 00000000000NCONT   00    00000000000          00000000000000000000000000000000000000000000 000000000000000A000000000000000000000000000000000000000000000 000000000000000000000000000000000000000     00000000                                                                                                                        000000000000000000
F0010000007723500001000080022903500013050500000000000000000201510070002001TECNOGLASS S.A                                    D000000064044100000000000000000000100010010000000000000000000000F0010000007723500120151007000101 00000000000000000000000000000000000000000000000000000000000000000000000000000000000000000000000000000000000000000N 00000000000NCONT   00    00000000000          00000000000000000000000000000000000000000000 000000000000000A000000000000000000000000000000000000000000000 000000000000000000000000000000000000000     00000000                                                                                                                        000000000000000000
F0010000007723500002000080022903500041450500000000000000000201510070002001TECNOGLASS S.A                                    C000000055141800000000000000000000100010010000000000000000000000F0010000007723500220151007000101 00000000000000000000000000000000000000000000000000000000000000000000000000000000000000000000000000000000000000000N 00000000000NCONT   00    00000000000          00000000000000000000000000000000000000000000 000000000000000A000000000000000000000000000000000000000000000 000000000000000000000000000000000000000     00000000                                                                                                                        000000000000000000
F0010000007723500003000080022903500042505000000000000000000201510070002001TECNOGLASS S.A                                    C000000008902300000000000000000000100010010000000000000000000000F0010000007723500320151007000101 00000000000000000000000000000000000000000000000000000000000000000000000000000000000000000000000000000000000000000N 00000000000NCONT   00    00000000000          00000000000000000000000000000000000000000000 000000000000000A000000000000000000000000000000000000000000000 000000000000000000000000000000000000000     00000000                                                                                                                        000000000000000000
F0010000007723500004000080022903500023658300000000000000000201510070002001TECNOGLASS S.A                                    C000000000441100000000000000000000100010010000000000000000000000F0010000007723500420151007000101 00000000000000000000000000000000000000000000000000000000000000000000000000000000000000000000000000000000000000000N 00000000000NCONT   00    00000000000          00000000000000000000000000000000000000000000 000000000000000A000000000000000000000000000000000000000000000 000000000000000000000000000000000000000     00000000                                                                                                                        000000000000000000
F0010000007723500005000080022903500013552100000000000000000201510070002001TECNOGLASS S.A                                    D000000000441100000000000000000000100010010000000000000000000000F0010000007723500520151007000101 00000000000000000000000000000000000000000000000000000000000000000000000000000000000000000000000000000000000000000N 00000000000NCONT   00    00000000000          00000000000000000000000000000000000000000000 000000000000000A000000000000000000000000000000000000000000000 000000000000000000000000000000000000000     00000000                                                                                                                        000000000000000000
F0010000007723600001000080202094000013050500000000000000000201510070002001DISTRIB. OMAR ORREGO S.A.                         D000000046788300000000000000000000100010010000000000000000000000F0010000007723600120151007000101 00000000000000000000000000000000000000000000000000000000000000000000000000000000000000000000000000000000000000000N 00000000000NCONT   00    00000000000          00000000000000000000000000000000000000000000 000000000000000A000000000000000000000000000000000000000000000 000000000000000000000000000000000000000     00000000                                                                                                                        000000000000000000
F0010000007723600002000080202094000041450500000000000000000201510070002001DISTRIB. OMAR ORREGO S.A.                         C000000025230000000000000000000000100010010000000000000000000000F0010000007723600220151007000101 00000000000000000000000000000000000000000000000000000000000000000000000000000000000000000000000000000000000000000N 00000000000NCONT   00    00000000000          00000000000000000000000000000000000000000000 000000000000000A000000000000000000000000000000000000000000000 000000000000000000000000000000000000000     00000000                                                                                                                        000000000000000000
F0010000007723600003000080202094000042505000000000000000000201510070002001DISTRIB. OMAR ORREGO S.A.                         C000000021558300000000000000000000100010010000000000000000000000F0010000007723600320151007000101 00000000000000000000000000000000000000000000000000000000000000000000000000000000000000000000000000000000000000000N 00000000000NCONT   00    00000000000          00000000000000000000000000000000000000000000 000000000000000A000000000000000000000000000000000000000000000 000000000000000000000000000000000000000     00000000                                                                                                                        000000000000000000
F0010000007723600004000080202094000023658300000000000000000201510070002001DISTRIB. OMAR ORREGO S.A.                         C000000000201800000000000000000000100010010000000000000000000000F0010000007723600420151007000101 00000000000000000000000000000000000000000000000000000000000000000000000000000000000000000000000000000000000000000N 00000000000NCONT   00    00000000000          00000000000000000000000000000000000000000000 000000000000000A000000000000000000000000000000000000000000000 000000000000000000000000000000000000000     00000000                                                                                                                        000000000000000000
F0010000007723600005000080202094000013552100000000000000000201510070002001DISTRIB. OMAR ORREGO S.A.                         D000000000201800000000000000000000100010010000000000000000000000F0010000007723600520151007000101 00000000000000000000000000000000000000000000000000000000000000000000000000000000000000000000000000000000000000000N 00000000000NCONT   00    00000000000          00000000000000000000000000000000000000000000 000000000000000A000000000000000000000000000000000000000000000 000000000000000000000000000000000000000     00000000                                                                                                                        000000000000000000
F0010000007723700001000080202094000013050500000000000000000201510070002001DISTRIB. OMAR ORREGO S.A.                         D000000072327200000000000000000000100010010000000000000000000000F0010000007723700120151007000101 00000000000000000000000000000000000000000000000000000000000000000000000000000000000000000000000000000000000000000N 00000000000NCONT   00    00000000000          00000000000000000000000000000000000000000000 000000000000000A000000000000000000000000000000000000000000000 000000000000000000000000000000000000000     00000000                                                                                                                        000000000000000000
F0010000007723700002000080202094000041450500000000000000000201510070002001DISTRIB. OMAR ORREGO S.A.                         C000000052810000000000000000000000100010010000000000000000000000F0010000007723700220151007000101 00000000000000000000000000000000000000000000000000000000000000000000000000000000000000000000000000000000000000000N 00000000000NCONT   00    00000000000          00000000000000000000000000000000000000000000 000000000000000A000000000000000000000000000000000000000000000 000000000000000000000000000000000000000     00000000                                                                                                                        000000000000000000
F0010000007723700003000080202094000042505000000000000000000201510070002001DISTRIB. OMAR ORREGO S.A.                         C000000019517200000000000000000000100010010000000000000000000000F0010000007723700320151007000101 00000000000000000000000000000000000000000000000000000000000000000000000000000000000000000000000000000000000000000N 00000000000NCONT   00    00000000000          00000000000000000000000000000000000000000000 000000000000000A000000000000000000000000000000000000000000000 000000000000000000000000000000000000000     00000000                                                                                                                        000000000000000000
F0010000007723700004000080202094000023658300000000000000000201510070002001DISTRIB. OMAR ORREGO S.A.                         C000000000422500000000000000000000100010010000000000000000000000F0010000007723700420151007000101 00000000000000000000000000000000000000000000000000000000000000000000000000000000000000000000000000000000000000000N 00000000000NCONT   00    00000000000          00000000000000000000000000000000000000000000 000000000000000A000000000000000000000000000000000000000000000 000000000000000000000000000000000000000     00000000                                                                                                                        000000000000000000
F0010000007723700005000080202094000013552100000000000000000201510070002001DISTRIB. OMAR ORREGO S.A.                         D000000000422500000000000000000000100010010000000000000000000000F0010000007723700520151007000101 00000000000000000000000000000000000000000000000000000000000000000000000000000000000000000000000000000000000000000N 00000000000NCONT   00    00000000000          00000000000000000000000000000000000000000000 000000000000000A000000000000000000000000000000000000000000000 000000000000000000000000000000000000000     00000000                                                                                                                        000000000000000000
F0010000007723800001000080202094000013050500000000000000000201510070002001DISTRIB. OMAR ORREGO S.A.                         D000000064163100000000000000000000100010010000000000000000000000F0010000007723800120151007000101 00000000000000000000000000000000000000000000000000000000000000000000000000000000000000000000000000000000000000000N 00000000000NCONT   00    00000000000          00000000000000000000000000000000000000000000 000000000000000A000000000000000000000000000000000000000000000 000000000000000000000000000000000000000     00000000                                                                                                                        000000000000000000
F0010000007723800002000080202094000041450500000000000000000201510070002001DISTRIB. OMAR ORREGO S.A.                         C000000042430000000000000000000000100010010000000000000000000000F0010000007723800220151007000101 00000000000000000000000000000000000000000000000000000000000000000000000000000000000000000000000000000000000000000N 00000000000NCONT   00    00000000000          00000000000000000000000000000000000000000000 000000000000000A000000000000000000000000000000000000000000000 000000000000000000000000000000000000000     00000000                                                                                                                        000000000000000000
F0010000007723800003000080202094000042505000000000000000000201510070002001DISTRIB. OMAR ORREGO S.A.                         C000000021733100000000000000000000100010010000000000000000000000F0010000007723800320151007000101 00000000000000000000000000000000000000000000000000000000000000000000000000000000000000000000000000000000000000000N 00000000000NCONT   00    00000000000          00000000000000000000000000000000000000000000 000000000000000A000000000000000000000000000000000000000000000 000000000000000000000000000000000000000     00000000                                                                                                                        000000000000000000
F0010000007723800004000080202094000023658300000000000000000201510070002001DISTRIB. OMAR ORREGO S.A.                         C000000000339400000000000000000000100010010000000000000000000000F0010000007723800420151007000101 00000000000000000000000000000000000000000000000000000000000000000000000000000000000000000000000000000000000000000N 00000000000NCONT   00    00000000000          00000000000000000000000000000000000000000000 000000000000000A000000000000000000000000000000000000000000000 000000000000000000000000000000000000000     00000000                                                                                                                        000000000000000000
F0010000007723800005000080202094000013552100000000000000000201510070002001DISTRIB. OMAR ORREGO S.A.                         D000000000339400000000000000000000100010010000000000000000000000F0010000007723800520151007000101 00000000000000000000000000000000000000000000000000000000000000000000000000000000000000000000000000000000000000000N 00000000000NCONT   00    00000000000          00000000000000000000000000000000000000000000 000000000000000A000000000000000000000000000000000000000000000 000000000000000000000000000000000000000     00000000                                                                                                                        000000000000000000
F0010000007723900001000080202094000013050500000000000000000201510070002001DISTRIB. OMAR ORREGO S.A.                         D000000005663500000000000000000000100010010000000000000000000000F0010000007723900120151007000101 00000000000000000000000000000000000000000000000000000000000000000000000000000000000000000000000000000000000000000N 00000000000NCONT   00    00000000000          00000000000000000000000000000000000000000000 000000000000000A000000000000000000000000000000000000000000000 000000000000000000000000000000000000000     00000000                                                                                                                        000000000000000000
F0010000007723900002000080202094000041450500000000000000000201510070002001DISTRIB. OMAR ORREGO S.A.                         C000000004220000000000000000000000100010010000000000000000000000F0010000007723900220151007000101 00000000000000000000000000000000000000000000000000000000000000000000000000000000000000000000000000000000000000000N 00000000000NCONT   00    00000000000          00000000000000000000000000000000000000000000 000000000000000A000000000000000000000000000000000000000000000 000000000000000000000000000000000000000     00000000                                                                                                                        000000000000000000
F0010000007723900003000080202094000042505000000000000000000201510070002001DISTRIB. OMAR ORREGO S.A.                         C000000001443500000000000000000000100010010000000000000000000000F0010000007723900320151007000101 00000000000000000000000000000000000000000000000000000000000000000000000000000000000000000000000000000000000000000N 00000000000NCONT   00    00000000000          00000000000000000000000000000000000000000000 000000000000000A000000000000000000000000000000000000000000000 000000000000000000000000000000000000000     00000000                                                                                                                        000000000000000000
F0010000007723900004000080202094000023658300000000000000000201510070002001DISTRIB. OMAR ORREGO S.A.                         C000000000033800000000000000000000100010010000000000000000000000F0010000007723900420151007000101 00000000000000000000000000000000000000000000000000000000000000000000000000000000000000000000000000000000000000000N 00000000000NCONT   00    00000000000          00000000000000000000000000000000000000000000 000000000000000A000000000000000000000000000000000000000000000 000000000000000000000000000000000000000     00000000                                                                                                                        000000000000000000
F0010000007723900005000080202094000013552100000000000000000201510070002001DISTRIB. OMAR ORREGO S.A.                         D000000000033800000000000000000000100010010000000000000000000000F0010000007723900520151007000101 00000000000000000000000000000000000000000000000000000000000000000000000000000000000000000000000000000000000000000N 00000000000NCONT   00    00000000000          00000000000000000000000000000000000000000000 000000000000000A000000000000000000000000000000000000000000000 000000000000000000000000000000000000000     00000000                                                                                                                        000000000000000000
F0010000007724000001000080201112800013050500000000000000000201510070002001CANGURO INTERNATIONAL S.A.                        D000000344618800000000000000000000100010010000000000000000000000F0010000007724000120151007000101 00000000000000000000000000000000000000000000000000000000000000000000000000000000000000000000000000000000000000000N 00000000000NCONT   00    00000000000          00000000000000000000000000000000000000000000 000000000000000A000000000000000000000000000000000000000000000 000000000000000000000000000000000000000     00000000                                                                                                                        000000000000000000
F0010000007724000002000080201112800041450500000000000000000201510070002001CANGURO INTERNATIONAL S.A.                        C000000343123600000000000000000000100010010000000000000000000000F0010000007724000220151007000101 00000000000000000000000000000000000000000000000000000000000000000000000000000000000000000000000000000000000000000N 00000000000NCONT   00    00000000000          00000000000000000000000000000000000000000000 000000000000000A000000000000000000000000000000000000000000000 000000000000000000000000000000000000000     00000000                                                                                                                        000000000000000000
F0010000007724000003000080201112800042505000000000000000000201510070002001CANGURO INTERNATIONAL S.A.                        C000000001495200000000000000000000100010010000000000000000000000F0010000007724000320151007000101 00000000000000000000000000000000000000000000000000000000000000000000000000000000000000000000000000000000000000000N 00000000000NCONT   00    00000000000          00000000000000000000000000000000000000000000 000000000000000A000000000000000000000000000000000000000000000 000000000000000000000000000000000000000     00000000                                                                                                                        000000000000000000
F0010000007724000004000080201112800023658300000000000000000201510070002001CANGURO INTERNATIONAL S.A.                        C000000002745000000000000000000000100010010000000000000000000000F0010000007724000420151007000101 00000000000000000000000000000000000000000000000000000000000000000000000000000000000000000000000000000000000000000N 00000000000NCONT   00    00000000000          00000000000000000000000000000000000000000000 000000000000000A000000000000000000000000000000000000000000000 000000000000000000000000000000000000000     00000000                                                                                                                        000000000000000000
F0010000007724000005000080201112800013552100000000000000000201510070002001CANGURO INTERNATIONAL S.A.                        D000000002745000000000000000000000100010010000000000000000000000F0010000007724000520151007000101 00000000000000000000000000000000000000000000000000000000000000000000000000000000000000000000000000000000000000000N 00000000000NCONT   00    00000000000          00000000000000000000000000000000000000000000 000000000000000A000000000000000000000000000000000000000000000 000000000000000000000000000000000000000     00000000                                                                                                                        000000000000000000
F0010000007724100001000080201112800013050500000000000000000201510070002001CANGURO INTERNATIONAL S.A.                        D000000123549900000000000000000000100010010000000000000000000000F0010000007724100120151007000101 00000000000000000000000000000000000000000000000000000000000000000000000000000000000000000000000000000000000000000N 00000000000NCONT   00    00000000000          00000000000000000000000000000000000000000000 000000000000000A000000000000000000000000000000000000000000000 000000000000000000000000000000000000000     00000000                                                                                                                        000000000000000000
F0010000007724100002000080201112800041450500000000000000000201510070002001CANGURO INTERNATIONAL S.A.                        C000000123549900000000000000000000100010010000000000000000000000F0010000007724100220151007000101 00000000000000000000000000000000000000000000000000000000000000000000000000000000000000000000000000000000000000000N 00000000000NCONT   00    00000000000          00000000000000000000000000000000000000000000 000000000000000A000000000000000000000000000000000000000000000 000000000000000000000000000000000000000     00000000                                                                                                                        000000000000000000
