F0010000008361500001000090030902600011050500000000000000000201603090002001INVERSIONES MUNDICOPOR                            D000000002000000000000000000000000100010010000000000000000000000F0010000008361500120160309000101 00000000000000000000000000000000000000000000000000000000000000000000000000000000000000000000000000000000000000000N 00000000000NCONT   00    00000000000          00000000000000000000000000000000000000000000 000000000000000A000000000000000000000000000000000000000000000 000000000000000000000000000000000000000     00000000                                                                                                                        000000000000000000
F0010000008361500002000090030902600041450500000000000000000201603090002001INVERSIONES MUNDICOPOR                            C000000001900000000000000000000000100010010000000000000000000000F0010000008361500220160309000101 00000000000000000000000000000000000000000000000000000000000000000000000000000000000000000000000000000000000000000N 00000000000NCONT   00    00000000000          00000000000000000000000000000000000000000000 000000000000000A000000000000000000000000000000000000000000000 000000000000000000000000000000000000000     00000000                                                                                                                        000000000000000000
F0010000008361500003000090030902600042505000000000000000000201603090002001INVERSIONES MUNDICOPOR                            C000000000100000000000000000000000100010010000000000000000000000F0010000008361500320160309000101 00000000000000000000000000000000000000000000000000000000000000000000000000000000000000000000000000000000000000000N 00000000000NCONT   00    00000000000          00000000000000000000000000000000000000000000 000000000000000A000000000000000000000000000000000000000000000 000000000000000000000000000000000000000     00000000                                                                                                                        000000000000000000
F0010000008361500004000090030902600023658300000000000000000201603090002001INVERSIONES MUNDICOPOR                            C000000000015200000000000000000000100010010000000000000000000000F0010000008361500420160309000101 00000000000000000000000000000000000000000000000000000000000000000000000000000000000000000000000000000000000000000N 00000000000NCONT   00    00000000000          00000000000000000000000000000000000000000000 000000000000000A000000000000000000000000000000000000000000000 000000000000000000000000000000000000000     00000000                                                                                                                        000000000000000000
F0010000008361500005000090030902600013552100000000000000000201603090002001INVERSIONES MUNDICOPOR                            D000000000015200000000000000000000100010010000000000000000000000F0010000008361500520160309000101 00000000000000000000000000000000000000000000000000000000000000000000000000000000000000000000000000000000000000000N 00000000000NCONT   00    00000000000          00000000000000000000000000000000000000000000 000000000000000A000000000000000000000000000000000000000000000 000000000000000000000000000000000000000     00000000                                                                                                                        000000000000000000
F0010000008361600001000003900336900011050500000000000000000201603090002001LUISA FERNANDA BOLAñOS                           D000000002500000000000000000000000100010010000000000000000000000F0010000008361600120160309000101 00000000000000000000000000000000000000000000000000000000000000000000000000000000000000000000000000000000000000000N 00000000000NCONT   00    00000000000          00000000000000000000000000000000000000000000 000000000000000A000000000000000000000000000000000000000000000 000000000000000000000000000000000000000     00000000                                                                                                                        000000000000000000
F0010000008361600002000003900336900041450500000000000000000201603090002001LUISA FERNANDA BOLAñOS                           C000000002400000000000000000000000100010010000000000000000000000F0010000008361600220160309000101 00000000000000000000000000000000000000000000000000000000000000000000000000000000000000000000000000000000000000000N 00000000000NCONT   00    00000000000          00000000000000000000000000000000000000000000 000000000000000A000000000000000000000000000000000000000000000 000000000000000000000000000000000000000     00000000                                                                                                                        000000000000000000
F0010000008361600003000003900336900042505000000000000000000201603090002001LUISA FERNANDA BOLAñOS                           C000000000100000000000000000000000100010010000000000000000000000F0010000008361600320160309000101 00000000000000000000000000000000000000000000000000000000000000000000000000000000000000000000000000000000000000000N 00000000000NCONT   00    00000000000          00000000000000000000000000000000000000000000 000000000000000A000000000000000000000000000000000000000000000 000000000000000000000000000000000000000     00000000                                                                                                                        000000000000000000
F0010000008361600004000003900336900023658300000000000000000201603090002001LUISA FERNANDA BOLAñOS                           C000000000019200000000000000000000100010010000000000000000000000F0010000008361600420160309000101 00000000000000000000000000000000000000000000000000000000000000000000000000000000000000000000000000000000000000000N 00000000000NCONT   00    00000000000          00000000000000000000000000000000000000000000 000000000000000A000000000000000000000000000000000000000000000 000000000000000000000000000000000000000     00000000                                                                                                                        000000000000000000
F0010000008361600005000003900336900013552100000000000000000201603090002001LUISA FERNANDA BOLAñOS                           D000000000019200000000000000000000100010010000000000000000000000F0010000008361600520160309000101 00000000000000000000000000000000000000000000000000000000000000000000000000000000000000000000000000000000000000000N 00000000000NCONT   00    00000000000          00000000000000000000000000000000000000000000 000000000000000A000000000000000000000000000000000000000000000 000000000000000000000000000000000000000     00000000                                                                                                                        000000000000000000
F0010000008361700001000000871745700011050500000000000000000201603090002001CONFECCIONES ORO SPORT 33                         D000000001600000000000000000000000100010010000000000000000000000F0010000008361700120160309000101 00000000000000000000000000000000000000000000000000000000000000000000000000000000000000000000000000000000000000000N 00000000000NCONT   00    00000000000          00000000000000000000000000000000000000000000 000000000000000A000000000000000000000000000000000000000000000 000000000000000000000000000000000000000     00000000                                                                                                                        000000000000000000
F0010000008361700002000000871745700041450500000000000000000201603090002001CONFECCIONES ORO SPORT 33                         C000000001200000000000000000000000100010010000000000000000000000F0010000008361700220160309000101 00000000000000000000000000000000000000000000000000000000000000000000000000000000000000000000000000000000000000000N 00000000000NCONT   00    00000000000          00000000000000000000000000000000000000000000 000000000000000A000000000000000000000000000000000000000000000 000000000000000000000000000000000000000     00000000                                                                                                                        000000000000000000
F0010000008361700003000000871745700042505000000000000000000201603090002001CONFECCIONES ORO SPORT 33                         C000000000400000000000000000000000100010010000000000000000000000F0010000008361700320160309000101 00000000000000000000000000000000000000000000000000000000000000000000000000000000000000000000000000000000000000000N 00000000000NCONT   00    00000000000          00000000000000000000000000000000000000000000 000000000000000A000000000000000000000000000000000000000000000 000000000000000000000000000000000000000     00000000                                                                                                                        000000000000000000
F0010000008361700004000000871745700023658300000000000000000201603090002001CONFECCIONES ORO SPORT 33                         C000000000009600000000000000000000100010010000000000000000000000F0010000008361700420160309000101 00000000000000000000000000000000000000000000000000000000000000000000000000000000000000000000000000000000000000000N 00000000000NCONT   00    00000000000          00000000000000000000000000000000000000000000 000000000000000A000000000000000000000000000000000000000000000 000000000000000000000000000000000000000     00000000                                                                                                                        000000000000000000
F0010000008361700005000000871745700013552100000000000000000201603090002001CONFECCIONES ORO SPORT 33                         D000000000009600000000000000000000100010010000000000000000000000F0010000008361700520160309000101 00000000000000000000000000000000000000000000000000000000000000000000000000000000000000000000000000000000000000000N 00000000000NCONT   00    00000000000          00000000000000000000000000000000000000000000 000000000000000A000000000000000000000000000000000000000000000 000000000000000000000000000000000000000     00000000                                                                                                                        000000000000000000
F0010000008361800001000090020547900011050500000000000000000201603090002001COMERCIALIZADORA DAC DEL CARIBE S.A.S.            D000000007900000000000000000000000100010010000000000000000000000F0010000008361800120160309000101 00000000000000000000000000000000000000000000000000000000000000000000000000000000000000000000000000000000000000000N 00000000000NCONT   00    00000000000          00000000000000000000000000000000000000000000 000000000000000A000000000000000000000000000000000000000000000 000000000000000000000000000000000000000     00000000                                                                                                                        000000000000000000
F0010000008361800002000090020547900041450500000000000000000201603090002001COMERCIALIZADORA DAC DEL CARIBE S.A.S.            C000000006000000000000000000000000100010010000000000000000000000F0010000008361800220160309000101 00000000000000000000000000000000000000000000000000000000000000000000000000000000000000000000000000000000000000000N 00000000000NCONT   00    00000000000          00000000000000000000000000000000000000000000 000000000000000A000000000000000000000000000000000000000000000 000000000000000000000000000000000000000     00000000                                                                                                                        000000000000000000
F0010000008361800003000090020547900042505000000000000000000201603090002001COMERCIALIZADORA DAC DEL CARIBE S.A.S.            C000000001900000000000000000000000100010010000000000000000000000F0010000008361800320160309000101 00000000000000000000000000000000000000000000000000000000000000000000000000000000000000000000000000000000000000000N 00000000000NCONT   00    00000000000          00000000000000000000000000000000000000000000 000000000000000A000000000000000000000000000000000000000000000 000000000000000000000000000000000000000     00000000                                                                                                                        000000000000000000
F0010000008361800004000090020547900023658300000000000000000201603090002001COMERCIALIZADORA DAC DEL CARIBE S.A.S.            C000000000048000000000000000000000100010010000000000000000000000F0010000008361800420160309000101 00000000000000000000000000000000000000000000000000000000000000000000000000000000000000000000000000000000000000000N 00000000000NCONT   00    00000000000          00000000000000000000000000000000000000000000 000000000000000A000000000000000000000000000000000000000000000 000000000000000000000000000000000000000     00000000                                                                                                                        000000000000000000
F0010000008361800005000090020547900013552100000000000000000201603090002001COMERCIALIZADORA DAC DEL CARIBE S.A.S.            D000000000048000000000000000000000100010010000000000000000000000F0010000008361800520160309000101 00000000000000000000000000000000000000000000000000000000000000000000000000000000000000000000000000000000000000000N 00000000000NCONT   00    00000000000          00000000000000000000000000000000000000000000 000000000000000A000000000000000000000000000000000000000000000 000000000000000000000000000000000000000     00000000                                                                                                                        000000000000000000
F0010000008361900001000090020547900011050500000000000000000201603090002001COMERCIALIZADORA DAC DEL CARIBE S.A.S.            D000000003600000000000000000000000100010010000000000000000000000F0010000008361900120160309000101 00000000000000000000000000000000000000000000000000000000000000000000000000000000000000000000000000000000000000000N 00000000000NCONT   00    00000000000          00000000000000000000000000000000000000000000 000000000000000A000000000000000000000000000000000000000000000 000000000000000000000000000000000000000     00000000                                                                                                                        000000000000000000
F0010000008361900002000090020547900041450500000000000000000201603090002001COMERCIALIZADORA DAC DEL CARIBE S.A.S.            C000000003000000000000000000000000100010010000000000000000000000F0010000008361900220160309000101 00000000000000000000000000000000000000000000000000000000000000000000000000000000000000000000000000000000000000000N 00000000000NCONT   00    00000000000          00000000000000000000000000000000000000000000 000000000000000A000000000000000000000000000000000000000000000 000000000000000000000000000000000000000     00000000                                                                                                                        000000000000000000
F0010000008361900003000090020547900042505000000000000000000201603090002001COMERCIALIZADORA DAC DEL CARIBE S.A.S.            C000000000600000000000000000000000100010010000000000000000000000F0010000008361900320160309000101 00000000000000000000000000000000000000000000000000000000000000000000000000000000000000000000000000000000000000000N 00000000000NCONT   00    00000000000          00000000000000000000000000000000000000000000 000000000000000A000000000000000000000000000000000000000000000 000000000000000000000000000000000000000     00000000                                                                                                                        000000000000000000
F0010000008361900004000090020547900023658300000000000000000201603090002001COMERCIALIZADORA DAC DEL CARIBE S.A.S.            C000000000024000000000000000000000100010010000000000000000000000F0010000008361900420160309000101 00000000000000000000000000000000000000000000000000000000000000000000000000000000000000000000000000000000000000000N 00000000000NCONT   00    00000000000          00000000000000000000000000000000000000000000 000000000000000A000000000000000000000000000000000000000000000 000000000000000000000000000000000000000     00000000                                                                                                                        000000000000000000
F0010000008361900005000090020547900013552100000000000000000201603090002001COMERCIALIZADORA DAC DEL CARIBE S.A.S.            D000000000024000000000000000000000100010010000000000000000000000F0010000008361900520160309000101 00000000000000000000000000000000000000000000000000000000000000000000000000000000000000000000000000000000000000000N 00000000000NCONT   00    00000000000          00000000000000000000000000000000000000000000 000000000000000A000000000000000000000000000000000000000000000 000000000000000000000000000000000000000     00000000                                                                                                                        000000000000000000
F0010000008362000001000090020547900011050500000000000000000201603090002001COMERCIALIZADORA DAC DEL CARIBE S.A.S.            D000000003700000000000000000000000100010010000000000000000000000F0010000008362000120160309000101 00000000000000000000000000000000000000000000000000000000000000000000000000000000000000000000000000000000000000000N 00000000000NCONT   00    00000000000          00000000000000000000000000000000000000000000 000000000000000A000000000000000000000000000000000000000000000 000000000000000000000000000000000000000     00000000                                                                                                                        000000000000000000
F0010000008362000002000090020547900041450500000000000000000201603090002001COMERCIALIZADORA DAC DEL CARIBE S.A.S.            C000000003000000000000000000000000100010010000000000000000000000F0010000008362000220160309000101 00000000000000000000000000000000000000000000000000000000000000000000000000000000000000000000000000000000000000000N 00000000000NCONT   00    00000000000          00000000000000000000000000000000000000000000 000000000000000A000000000000000000000000000000000000000000000 000000000000000000000000000000000000000     00000000                                                                                                                        000000000000000000
F0010000008362000003000090020547900042505000000000000000000201603090002001COMERCIALIZADORA DAC DEL CARIBE S.A.S.            C000000000700000000000000000000000100010010000000000000000000000F0010000008362000320160309000101 00000000000000000000000000000000000000000000000000000000000000000000000000000000000000000000000000000000000000000N 00000000000NCONT   00    00000000000          00000000000000000000000000000000000000000000 000000000000000A000000000000000000000000000000000000000000000 000000000000000000000000000000000000000     00000000                                                                                                                        000000000000000000
F0010000008362000004000090020547900023658300000000000000000201603090002001COMERCIALIZADORA DAC DEL CARIBE S.A.S.            C000000000024000000000000000000000100010010000000000000000000000F0010000008362000420160309000101 00000000000000000000000000000000000000000000000000000000000000000000000000000000000000000000000000000000000000000N 00000000000NCONT   00    00000000000          00000000000000000000000000000000000000000000 000000000000000A000000000000000000000000000000000000000000000 000000000000000000000000000000000000000     00000000                                                                                                                        000000000000000000
F0010000008362000005000090020547900013552100000000000000000201603090002001COMERCIALIZADORA DAC DEL CARIBE S.A.S.            D000000000024000000000000000000000100010010000000000000000000000F0010000008362000520160309000101 00000000000000000000000000000000000000000000000000000000000000000000000000000000000000000000000000000000000000000N 00000000000NCONT   00    00000000000          00000000000000000000000000000000000000000000 000000000000000A000000000000000000000000000000000000000000000 000000000000000000000000000000000000000     00000000                                                                                                                        000000000000000000
F0010000008362100001000090020547900011050500000000000000000201603090002001COMERCIALIZADORA DAC DEL CARIBE S.A.S.            D000000003500000000000000000000000100010010000000000000000000000F0010000008362100120160309000101 00000000000000000000000000000000000000000000000000000000000000000000000000000000000000000000000000000000000000000N 00000000000NCONT   00    00000000000          00000000000000000000000000000000000000000000 000000000000000A000000000000000000000000000000000000000000000 000000000000000000000000000000000000000     00000000                                                                                                                        000000000000000000
F0010000008362100002000090020547900041450500000000000000000201603090002001COMERCIALIZADORA DAC DEL CARIBE S.A.S.            C000000003000000000000000000000000100010010000000000000000000000F0010000008362100220160309000101 00000000000000000000000000000000000000000000000000000000000000000000000000000000000000000000000000000000000000000N 00000000000NCONT   00    00000000000          00000000000000000000000000000000000000000000 000000000000000A000000000000000000000000000000000000000000000 000000000000000000000000000000000000000     00000000                                                                                                                        000000000000000000
F0010000008362100003000090020547900042505000000000000000000201603090002001COMERCIALIZADORA DAC DEL CARIBE S.A.S.            C000000000500000000000000000000000100010010000000000000000000000F0010000008362100320160309000101 00000000000000000000000000000000000000000000000000000000000000000000000000000000000000000000000000000000000000000N 00000000000NCONT   00    00000000000          00000000000000000000000000000000000000000000 000000000000000A000000000000000000000000000000000000000000000 000000000000000000000000000000000000000     00000000                                                                                                                        000000000000000000
F0010000008362100004000090020547900023658300000000000000000201603090002001COMERCIALIZADORA DAC DEL CARIBE S.A.S.            C000000000024000000000000000000000100010010000000000000000000000F0010000008362100420160309000101 00000000000000000000000000000000000000000000000000000000000000000000000000000000000000000000000000000000000000000N 00000000000NCONT   00    00000000000          00000000000000000000000000000000000000000000 000000000000000A000000000000000000000000000000000000000000000 000000000000000000000000000000000000000     00000000                                                                                                                        000000000000000000
F0010000008362100005000090020547900013552100000000000000000201603090002001COMERCIALIZADORA DAC DEL CARIBE S.A.S.            D000000000024000000000000000000000100010010000000000000000000000F0010000008362100520160309000101 00000000000000000000000000000000000000000000000000000000000000000000000000000000000000000000000000000000000000000N 00000000000NCONT   00    00000000000          00000000000000000000000000000000000000000000 000000000000000A000000000000000000000000000000000000000000000 000000000000000000000000000000000000000     00000000                                                                                                                        000000000000000000
F0010000008362200001000007204836000011050500000000000000000201603090002001EDGAR ALEXANDER CAMARGO CORONADO                  D000000001900000000000000000000000100010010000000000000000000000F0010000008362200120160309000101 00000000000000000000000000000000000000000000000000000000000000000000000000000000000000000000000000000000000000000N 00000000000NCONT   00    00000000000          00000000000000000000000000000000000000000000 000000000000000A000000000000000000000000000000000000000000000 000000000000000000000000000000000000000     00000000                                                                                                                        000000000000000000
F0010000008362200002000007204836000041450500000000000000000201603090002001EDGAR ALEXANDER CAMARGO CORONADO                  C000000001800000000000000000000000100010010000000000000000000000F0010000008362200220160309000101 00000000000000000000000000000000000000000000000000000000000000000000000000000000000000000000000000000000000000000N 00000000000NCONT   00    00000000000          00000000000000000000000000000000000000000000 000000000000000A000000000000000000000000000000000000000000000 000000000000000000000000000000000000000     00000000                                                                                                                        000000000000000000
F0010000008362200003000007204836000042505000000000000000000201603090002001EDGAR ALEXANDER CAMARGO CORONADO                  C000000000100000000000000000000000100010010000000000000000000000F0010000008362200320160309000101 00000000000000000000000000000000000000000000000000000000000000000000000000000000000000000000000000000000000000000N 00000000000NCONT   00    00000000000          00000000000000000000000000000000000000000000 000000000000000A000000000000000000000000000000000000000000000 000000000000000000000000000000000000000     00000000                                                                                                                        000000000000000000
F0010000008362200004000007204836000023658300000000000000000201603090002001EDGAR ALEXANDER CAMARGO CORONADO                  C000000000014400000000000000000000100010010000000000000000000000F0010000008362200420160309000101 00000000000000000000000000000000000000000000000000000000000000000000000000000000000000000000000000000000000000000N 00000000000NCONT   00    00000000000          00000000000000000000000000000000000000000000 000000000000000A000000000000000000000000000000000000000000000 000000000000000000000000000000000000000     00000000                                                                                                                        000000000000000000
F0010000008362200005000007204836000013552100000000000000000201603090002001EDGAR ALEXANDER CAMARGO CORONADO                  D000000000014400000000000000000000100010010000000000000000000000F0010000008362200520160309000101 00000000000000000000000000000000000000000000000000000000000000000000000000000000000000000000000000000000000000000N 00000000000NCONT   00    00000000000          00000000000000000000000000000000000000000000 000000000000000A000000000000000000000000000000000000000000000 000000000000000000000000000000000000000     00000000                                                                                                                        000000000000000000
F0010000008362300001000002245670100011050500000000000000000201603090002001YOLANDA  TOBON                                    D000000001750000000000000000000000100010010000000000000000000000F0010000008362300120160309000101 00000000000000000000000000000000000000000000000000000000000000000000000000000000000000000000000000000000000000000N 00000000000NCONT   00    00000000000          00000000000000000000000000000000000000000000 000000000000000A000000000000000000000000000000000000000000000 000000000000000000000000000000000000000     00000000                                                                                                                        000000000000000000
F0010000008362300002000002245670100041450500000000000000000201603090002001YOLANDA  TOBON                                    C000000001300000000000000000000000100010010000000000000000000000F0010000008362300220160309000101 00000000000000000000000000000000000000000000000000000000000000000000000000000000000000000000000000000000000000000N 00000000000NCONT   00    00000000000          00000000000000000000000000000000000000000000 000000000000000A000000000000000000000000000000000000000000000 000000000000000000000000000000000000000     00000000                                                                                                                        000000000000000000
F0010000008362300003000002245670100042505000000000000000000201603090002001YOLANDA  TOBON                                    C000000000450000000000000000000000100010010000000000000000000000F0010000008362300320160309000101 00000000000000000000000000000000000000000000000000000000000000000000000000000000000000000000000000000000000000000N 00000000000NCONT   00    00000000000          00000000000000000000000000000000000000000000 000000000000000A000000000000000000000000000000000000000000000 000000000000000000000000000000000000000     00000000                                                                                                                        000000000000000000
F0010000008362300004000002245670100023658300000000000000000201603090002001YOLANDA  TOBON                                    C000000000010400000000000000000000100010010000000000000000000000F0010000008362300420160309000101 00000000000000000000000000000000000000000000000000000000000000000000000000000000000000000000000000000000000000000N 00000000000NCONT   00    00000000000          00000000000000000000000000000000000000000000 000000000000000A000000000000000000000000000000000000000000000 000000000000000000000000000000000000000     00000000                                                                                                                        000000000000000000
F0010000008362300005000002245670100013552100000000000000000201603090002001YOLANDA  TOBON                                    D000000000010400000000000000000000100010010000000000000000000000F0010000008362300520160309000101 00000000000000000000000000000000000000000000000000000000000000000000000000000000000000000000000000000000000000000N 00000000000NCONT   00    00000000000          00000000000000000000000000000000000000000000 000000000000000A000000000000000000000000000000000000000000000 000000000000000000000000000000000000000     00000000                                                                                                                        000000000000000000
F0010000008362400001000090050144800011050500000000000000000201603090002001PLASTICOS JR ASOCIADOS SAS                        D000000002150000000000000000000000100010010000000000000000000000F0010000008362400120160309000101 00000000000000000000000000000000000000000000000000000000000000000000000000000000000000000000000000000000000000000N 00000000000NCONT   00    00000000000          00000000000000000000000000000000000000000000 000000000000000A000000000000000000000000000000000000000000000 000000000000000000000000000000000000000     00000000                                                                                                                        000000000000000000
F0010000008362400002000090050144800041450500000000000000000201603090002001PLASTICOS JR ASOCIADOS SAS                        C000000001900000000000000000000000100010010000000000000000000000F0010000008362400220160309000101 00000000000000000000000000000000000000000000000000000000000000000000000000000000000000000000000000000000000000000N 00000000000NCONT   00    00000000000          00000000000000000000000000000000000000000000 000000000000000A000000000000000000000000000000000000000000000 000000000000000000000000000000000000000     00000000                                                                                                                        000000000000000000
F0010000008362400003000090050144800042505000000000000000000201603090002001PLASTICOS JR ASOCIADOS SAS                        C000000000250000000000000000000000100010010000000000000000000000F0010000008362400320160309000101 00000000000000000000000000000000000000000000000000000000000000000000000000000000000000000000000000000000000000000N 00000000000NCONT   00    00000000000          00000000000000000000000000000000000000000000 000000000000000A000000000000000000000000000000000000000000000 000000000000000000000000000000000000000     00000000                                                                                                                        000000000000000000
F0010000008362400004000090050144800023658300000000000000000201603090002001PLASTICOS JR ASOCIADOS SAS                        C000000000015200000000000000000000100010010000000000000000000000F0010000008362400420160309000101 00000000000000000000000000000000000000000000000000000000000000000000000000000000000000000000000000000000000000000N 00000000000NCONT   00    00000000000          00000000000000000000000000000000000000000000 000000000000000A000000000000000000000000000000000000000000000 000000000000000000000000000000000000000     00000000                                                                                                                        000000000000000000
F0010000008362400005000090050144800013552100000000000000000201603090002001PLASTICOS JR ASOCIADOS SAS                        D000000000015200000000000000000000100010010000000000000000000000F0010000008362400520160309000101 00000000000000000000000000000000000000000000000000000000000000000000000000000000000000000000000000000000000000000N 00000000000NCONT   00    00000000000          00000000000000000000000000000000000000000000 000000000000000A000000000000000000000000000000000000000000000 000000000000000000000000000000000000000     00000000                                                                                                                        000000000000000000
F0010000008362500001000002245670100011050500000000000000000201603090002001YOLANDA  TOBON                                    D000000001550000000000000000000000100010010000000000000000000000F0010000008362500120160309000101 00000000000000000000000000000000000000000000000000000000000000000000000000000000000000000000000000000000000000000N 00000000000NCONT   00    00000000000          00000000000000000000000000000000000000000000 000000000000000A000000000000000000000000000000000000000000000 000000000000000000000000000000000000000     00000000                                                                                                                        000000000000000000
F0010000008362500002000002245670100041450500000000000000000201603090002001YOLANDA  TOBON                                    C000000001300000000000000000000000100010010000000000000000000000F0010000008362500220160309000101 00000000000000000000000000000000000000000000000000000000000000000000000000000000000000000000000000000000000000000N 00000000000NCONT   00    00000000000          00000000000000000000000000000000000000000000 000000000000000A000000000000000000000000000000000000000000000 000000000000000000000000000000000000000     00000000                                                                                                                        000000000000000000
F0010000008362500003000002245670100042505000000000000000000201603090002001YOLANDA  TOBON                                    C000000000250000000000000000000000100010010000000000000000000000F0010000008362500320160309000101 00000000000000000000000000000000000000000000000000000000000000000000000000000000000000000000000000000000000000000N 00000000000NCONT   00    00000000000          00000000000000000000000000000000000000000000 000000000000000A000000000000000000000000000000000000000000000 000000000000000000000000000000000000000     00000000                                                                                                                        000000000000000000
F0010000008362500004000002245670100023658300000000000000000201603090002001YOLANDA  TOBON                                    C000000000010400000000000000000000100010010000000000000000000000F0010000008362500420160309000101 00000000000000000000000000000000000000000000000000000000000000000000000000000000000000000000000000000000000000000N 00000000000NCONT   00    00000000000          00000000000000000000000000000000000000000000 000000000000000A000000000000000000000000000000000000000000000 000000000000000000000000000000000000000     00000000                                                                                                                        000000000000000000
F0010000008362500005000002245670100013552100000000000000000201603090002001YOLANDA  TOBON                                    D000000000010400000000000000000000100010010000000000000000000000F0010000008362500520160309000101 00000000000000000000000000000000000000000000000000000000000000000000000000000000000000000000000000000000000000000N 00000000000NCONT   00    00000000000          00000000000000000000000000000000000000000000 000000000000000A000000000000000000000000000000000000000000000 000000000000000000000000000000000000000     00000000                                                                                                                        000000000000000000
F0010000008362600001000002245670100011050500000000000000000201603090002001YOLANDA  TOBON                                    D000000004100000000000000000000000100010010000000000000000000000F0010000008362600120160309000101 00000000000000000000000000000000000000000000000000000000000000000000000000000000000000000000000000000000000000000N 00000000000NCONT   00    00000000000          00000000000000000000000000000000000000000000 000000000000000A000000000000000000000000000000000000000000000 000000000000000000000000000000000000000     00000000                                                                                                                        000000000000000000
F0010000008362600002000002245670100041450500000000000000000201603090002001YOLANDA  TOBON                                    C000000003000000000000000000000000100010010000000000000000000000F0010000008362600220160309000101 00000000000000000000000000000000000000000000000000000000000000000000000000000000000000000000000000000000000000000N 00000000000NCONT   00    00000000000          00000000000000000000000000000000000000000000 000000000000000A000000000000000000000000000000000000000000000 000000000000000000000000000000000000000     00000000                                                                                                                        000000000000000000
F0010000008362600003000002245670100042505000000000000000000201603090002001YOLANDA  TOBON                                    C000000001100000000000000000000000100010010000000000000000000000F0010000008362600320160309000101 00000000000000000000000000000000000000000000000000000000000000000000000000000000000000000000000000000000000000000N 00000000000NCONT   00    00000000000          00000000000000000000000000000000000000000000 000000000000000A000000000000000000000000000000000000000000000 000000000000000000000000000000000000000     00000000                                                                                                                        000000000000000000
F0010000008362600004000002245670100023658300000000000000000201603090002001YOLANDA  TOBON                                    C000000000024000000000000000000000100010010000000000000000000000F0010000008362600420160309000101 00000000000000000000000000000000000000000000000000000000000000000000000000000000000000000000000000000000000000000N 00000000000NCONT   00    00000000000          00000000000000000000000000000000000000000000 000000000000000A000000000000000000000000000000000000000000000 000000000000000000000000000000000000000     00000000                                                                                                                        000000000000000000
F0010000008362600005000002245670100013552100000000000000000201603090002001YOLANDA  TOBON                                    D000000000024000000000000000000000100010010000000000000000000000F0010000008362600520160309000101 00000000000000000000000000000000000000000000000000000000000000000000000000000000000000000000000000000000000000000N 00000000000NCONT   00    00000000000          00000000000000000000000000000000000000000000 000000000000000A000000000000000000000000000000000000000000000 000000000000000000000000000000000000000     00000000                                                                                                                        000000000000000000
F0010000008362700001000002245670100011050500000000000000000201603090002001YOLANDA  TOBON                                    D000000000500000000000000000000000100010010000000000000000000000F0010000008362700120160309000101 00000000000000000000000000000000000000000000000000000000000000000000000000000000000000000000000000000000000000000N 00000000000NCONT   00    00000000000          00000000000000000000000000000000000000000000 000000000000000A000000000000000000000000000000000000000000000 000000000000000000000000000000000000000     00000000                                                                                                                        000000000000000000
F0010000008362700002000002245670100041450500000000000000000201603090002001YOLANDA  TOBON                                    C000000000450000000000000000000000100010010000000000000000000000F0010000008362700220160309000101 00000000000000000000000000000000000000000000000000000000000000000000000000000000000000000000000000000000000000000N 00000000000NCONT   00    00000000000          00000000000000000000000000000000000000000000 000000000000000A000000000000000000000000000000000000000000000 000000000000000000000000000000000000000     00000000                                                                                                                        000000000000000000
F0010000008362700003000002245670100042505000000000000000000201603090002001YOLANDA  TOBON                                    C000000000050000000000000000000000100010010000000000000000000000F0010000008362700320160309000101 00000000000000000000000000000000000000000000000000000000000000000000000000000000000000000000000000000000000000000N 00000000000NCONT   00    00000000000          00000000000000000000000000000000000000000000 000000000000000A000000000000000000000000000000000000000000000 000000000000000000000000000000000000000     00000000                                                                                                                        000000000000000000
F0010000008362700004000002245670100023658300000000000000000201603090002001YOLANDA  TOBON                                    C000000000003600000000000000000000100010010000000000000000000000F0010000008362700420160309000101 00000000000000000000000000000000000000000000000000000000000000000000000000000000000000000000000000000000000000000N 00000000000NCONT   00    00000000000          00000000000000000000000000000000000000000000 000000000000000A000000000000000000000000000000000000000000000 000000000000000000000000000000000000000     00000000                                                                                                                        000000000000000000
F0010000008362700005000002245670100013552100000000000000000201603090002001YOLANDA  TOBON                                    D000000000003600000000000000000000100010010000000000000000000000F0010000008362700520160309000101 00000000000000000000000000000000000000000000000000000000000000000000000000000000000000000000000000000000000000000N 00000000000NCONT   00    00000000000          00000000000000000000000000000000000000000000 000000000000000A000000000000000000000000000000000000000000000 000000000000000000000000000000000000000     00000000                                                                                                                        000000000000000000
F0010000008362800001000090038852800011050500000000000000000201603090002001EL COMERCIO ELECTRICO DE LA CO                    D000000001170000000000000000000000100010010000000000000000000000F0010000008362800120160309000101 00000000000000000000000000000000000000000000000000000000000000000000000000000000000000000000000000000000000000000N 00000000000NCONT   00    00000000000          00000000000000000000000000000000000000000000 000000000000000A000000000000000000000000000000000000000000000 000000000000000000000000000000000000000     00000000                                                                                                                        000000000000000000
F0010000008362800002000090038852800041450500000000000000000201603090002001EL COMERCIO ELECTRICO DE LA CO                    C000000000970000000000000000000000100010010000000000000000000000F0010000008362800220160309000101 00000000000000000000000000000000000000000000000000000000000000000000000000000000000000000000000000000000000000000N 00000000000NCONT   00    00000000000          00000000000000000000000000000000000000000000 000000000000000A000000000000000000000000000000000000000000000 000000000000000000000000000000000000000     00000000                                                                                                                        000000000000000000
F0010000008362800003000090038852800042505000000000000000000201603090002001EL COMERCIO ELECTRICO DE LA CO                    C000000000200000000000000000000000100010010000000000000000000000F0010000008362800320160309000101 00000000000000000000000000000000000000000000000000000000000000000000000000000000000000000000000000000000000000000N 00000000000NCONT   00    00000000000          00000000000000000000000000000000000000000000 000000000000000A000000000000000000000000000000000000000000000 000000000000000000000000000000000000000     00000000                                                                                                                        000000000000000000
F0010000008362800004000090038852800023658300000000000000000201603090002001EL COMERCIO ELECTRICO DE LA CO                    C000000000007800000000000000000000100010010000000000000000000000F0010000008362800420160309000101 00000000000000000000000000000000000000000000000000000000000000000000000000000000000000000000000000000000000000000N 00000000000NCONT   00    00000000000          00000000000000000000000000000000000000000000 000000000000000A000000000000000000000000000000000000000000000 000000000000000000000000000000000000000     00000000                                                                                                                        000000000000000000
F0010000008362800005000090038852800013552100000000000000000201603090002001EL COMERCIO ELECTRICO DE LA CO                    D000000000007800000000000000000000100010010000000000000000000000F0010000008362800520160309000101 00000000000000000000000000000000000000000000000000000000000000000000000000000000000000000000000000000000000000000N 00000000000NCONT   00    00000000000          00000000000000000000000000000000000000000000 000000000000000A000000000000000000000000000000000000000000000 000000000000000000000000000000000000000     00000000                                                                                                                        000000000000000000
F0010000008362900001000086000061500011050500000000000000000201603090002001DISTRIBUIDORA CORDOBA                             D000000012700000000000000000000000100010010000000000000000000000F0010000008362900120160309000101 00000000000000000000000000000000000000000000000000000000000000000000000000000000000000000000000000000000000000000N 00000000000NCONT   00    00000000000          00000000000000000000000000000000000000000000 000000000000000A000000000000000000000000000000000000000000000 000000000000000000000000000000000000000     00000000                                                                                                                        000000000000000000
F0010000008362900002000086000061500041450500000000000000000201603090002001DISTRIBUIDORA CORDOBA                             C000000011400000000000000000000000100010010000000000000000000000F0010000008362900220160309000101 00000000000000000000000000000000000000000000000000000000000000000000000000000000000000000000000000000000000000000N 00000000000NCONT   00    00000000000          00000000000000000000000000000000000000000000 000000000000000A000000000000000000000000000000000000000000000 000000000000000000000000000000000000000     00000000                                                                                                                        000000000000000000
F0010000008362900003000086000061500042505000000000000000000201603090002001DISTRIBUIDORA CORDOBA                             C000000001300000000000000000000000100010010000000000000000000000F0010000008362900320160309000101 00000000000000000000000000000000000000000000000000000000000000000000000000000000000000000000000000000000000000000N 00000000000NCONT   00    00000000000          00000000000000000000000000000000000000000000 000000000000000A000000000000000000000000000000000000000000000 000000000000000000000000000000000000000     00000000                                                                                                                        000000000000000000
F0010000008362900004000086000061500023658300000000000000000201603090002001DISTRIBUIDORA CORDOBA                             C000000000091200000000000000000000100010010000000000000000000000F0010000008362900420160309000101 00000000000000000000000000000000000000000000000000000000000000000000000000000000000000000000000000000000000000000N 00000000000NCONT   00    00000000000          00000000000000000000000000000000000000000000 000000000000000A000000000000000000000000000000000000000000000 000000000000000000000000000000000000000     00000000                                                                                                                        000000000000000000
F0010000008362900005000086000061500013552100000000000000000201603090002001DISTRIBUIDORA CORDOBA                             D000000000091200000000000000000000100010010000000000000000000000F0010000008362900520160309000101 00000000000000000000000000000000000000000000000000000000000000000000000000000000000000000000000000000000000000000N 00000000000NCONT   00    00000000000          00000000000000000000000000000000000000000000 000000000000000A000000000000000000000000000000000000000000000 000000000000000000000000000000000000000     00000000                                                                                                                        000000000000000000
F0010000008363000001000000742399700011050500000000000000000201603090002001CACHARRERIA EL NUEVO CHADID                       D000000000950000000000000000000000100010010000000000000000000000F0010000008363000120160309000101 00000000000000000000000000000000000000000000000000000000000000000000000000000000000000000000000000000000000000000N 00000000000NCONT   00    00000000000          00000000000000000000000000000000000000000000 000000000000000A000000000000000000000000000000000000000000000 000000000000000000000000000000000000000     00000000                                                                                                                        000000000000000000
F0010000008363000002000000742399700041450500000000000000000201603090002001CACHARRERIA EL NUEVO CHADID                       C000000000850000000000000000000000100010010000000000000000000000F0010000008363000220160309000101 00000000000000000000000000000000000000000000000000000000000000000000000000000000000000000000000000000000000000000N 00000000000NCONT   00    00000000000          00000000000000000000000000000000000000000000 000000000000000A000000000000000000000000000000000000000000000 000000000000000000000000000000000000000     00000000                                                                                                                        000000000000000000
F0010000008363000003000000742399700042505000000000000000000201603090002001CACHARRERIA EL NUEVO CHADID                       C000000000100000000000000000000000100010010000000000000000000000F0010000008363000320160309000101 00000000000000000000000000000000000000000000000000000000000000000000000000000000000000000000000000000000000000000N 00000000000NCONT   00    00000000000          00000000000000000000000000000000000000000000 000000000000000A000000000000000000000000000000000000000000000 000000000000000000000000000000000000000     00000000                                                                                                                        000000000000000000
F0010000008363000004000000742399700023658300000000000000000201603090002001CACHARRERIA EL NUEVO CHADID                       C000000000006800000000000000000000100010010000000000000000000000F0010000008363000420160309000101 00000000000000000000000000000000000000000000000000000000000000000000000000000000000000000000000000000000000000000N 00000000000NCONT   00    00000000000          00000000000000000000000000000000000000000000 000000000000000A000000000000000000000000000000000000000000000 000000000000000000000000000000000000000     00000000                                                                                                                        000000000000000000
F0010000008363000005000000742399700013552100000000000000000201603090002001CACHARRERIA EL NUEVO CHADID                       D000000000006800000000000000000000100010010000000000000000000000F0010000008363000520160309000101 00000000000000000000000000000000000000000000000000000000000000000000000000000000000000000000000000000000000000000N 00000000000NCONT   00    00000000000          00000000000000000000000000000000000000000000 000000000000000A000000000000000000000000000000000000000000000 000000000000000000000000000000000000000     00000000                                                                                                                        000000000000000000
F0010000008363100001000000870907300011050500000000000000000201603090002001SURTIDOR FERRETERO                                D000000006700000000000000000000000100010010000000000000000000000F0010000008363100120160309000101 00000000000000000000000000000000000000000000000000000000000000000000000000000000000000000000000000000000000000000N 00000000000NCONT   00    00000000000          00000000000000000000000000000000000000000000 000000000000000A000000000000000000000000000000000000000000000 000000000000000000000000000000000000000     00000000                                                                                                                        000000000000000000
F0010000008363100002000000870907300041450500000000000000000201603090002001SURTIDOR FERRETERO                                C000000005040000000000000000000000100010010000000000000000000000F0010000008363100220160309000101 00000000000000000000000000000000000000000000000000000000000000000000000000000000000000000000000000000000000000000N 00000000000NCONT   00    00000000000          00000000000000000000000000000000000000000000 000000000000000A000000000000000000000000000000000000000000000 000000000000000000000000000000000000000     00000000                                                                                                                        000000000000000000
F0010000008363100003000000870907300042505000000000000000000201603090002001SURTIDOR FERRETERO                                C000000001660000000000000000000000100010010000000000000000000000F0010000008363100320160309000101 00000000000000000000000000000000000000000000000000000000000000000000000000000000000000000000000000000000000000000N 00000000000NCONT   00    00000000000          00000000000000000000000000000000000000000000 000000000000000A000000000000000000000000000000000000000000000 000000000000000000000000000000000000000     00000000                                                                                                                        000000000000000000
F0010000008363100004000000870907300023658300000000000000000201603090002001SURTIDOR FERRETERO                                C000000000040300000000000000000000100010010000000000000000000000F0010000008363100420160309000101 00000000000000000000000000000000000000000000000000000000000000000000000000000000000000000000000000000000000000000N 00000000000NCONT   00    00000000000          00000000000000000000000000000000000000000000 000000000000000A000000000000000000000000000000000000000000000 000000000000000000000000000000000000000     00000000                                                                                                                        000000000000000000
F0010000008363100005000000870907300013552100000000000000000201603090002001SURTIDOR FERRETERO                                D000000000040300000000000000000000100010010000000000000000000000F0010000008363100520160309000101 00000000000000000000000000000000000000000000000000000000000000000000000000000000000000000000000000000000000000000N 00000000000NCONT   00    00000000000          00000000000000000000000000000000000000000000 000000000000000A000000000000000000000000000000000000000000000 000000000000000000000000000000000000000     00000000                                                                                                                        000000000000000000
F0010000008363200001000006455049600011050500000000000000000201603090002001MANGUERAS Y RIEGOS DEL CARIBE                     D000000007000000000000000000000000100010010000000000000000000000F0010000008363200120160309000101 00000000000000000000000000000000000000000000000000000000000000000000000000000000000000000000000000000000000000000N 00000000000NCONT   00    00000000000          00000000000000000000000000000000000000000000 000000000000000A000000000000000000000000000000000000000000000 000000000000000000000000000000000000000     00000000                                                                                                                        000000000000000000
F0010000008363200002000006455049600041450500000000000000000201603090002001MANGUERAS Y RIEGOS DEL CARIBE                     C000000006500000000000000000000000100010010000000000000000000000F0010000008363200220160309000101 00000000000000000000000000000000000000000000000000000000000000000000000000000000000000000000000000000000000000000N 00000000000NCONT   00    00000000000          00000000000000000000000000000000000000000000 000000000000000A000000000000000000000000000000000000000000000 000000000000000000000000000000000000000     00000000                                                                                                                        000000000000000000
F0010000008363200003000006455049600042505000000000000000000201603090002001MANGUERAS Y RIEGOS DEL CARIBE                     C000000000500000000000000000000000100010010000000000000000000000F0010000008363200320160309000101 00000000000000000000000000000000000000000000000000000000000000000000000000000000000000000000000000000000000000000N 00000000000NCONT   00    00000000000          00000000000000000000000000000000000000000000 000000000000000A000000000000000000000000000000000000000000000 000000000000000000000000000000000000000     00000000                                                                                                                        000000000000000000
F0010000008363200004000006455049600023658300000000000000000201603090002001MANGUERAS Y RIEGOS DEL CARIBE                     C000000000052000000000000000000000100010010000000000000000000000F0010000008363200420160309000101 00000000000000000000000000000000000000000000000000000000000000000000000000000000000000000000000000000000000000000N 00000000000NCONT   00    00000000000          00000000000000000000000000000000000000000000 000000000000000A000000000000000000000000000000000000000000000 000000000000000000000000000000000000000     00000000                                                                                                                        000000000000000000
F0010000008363200005000006455049600013552100000000000000000201603090002001MANGUERAS Y RIEGOS DEL CARIBE                     D000000000052000000000000000000000100010010000000000000000000000F0010000008363200520160309000101 00000000000000000000000000000000000000000000000000000000000000000000000000000000000000000000000000000000000000000N 00000000000NCONT   00    00000000000          00000000000000000000000000000000000000000000 000000000000000A000000000000000000000000000000000000000000000 000000000000000000000000000000000000000     00000000                                                                                                                        000000000000000000
F0010000008363300001000090007142100011050500000000000000000201603090002001TODO BELLEZA Y MAX S.A.S                          D000000003450000000000000000000000100010010000000000000000000000F0010000008363300120160309000101 00000000000000000000000000000000000000000000000000000000000000000000000000000000000000000000000000000000000000000N 00000000000NCONT   00    00000000000          00000000000000000000000000000000000000000000 000000000000000A000000000000000000000000000000000000000000000 000000000000000000000000000000000000000     00000000                                                                                                                        000000000000000000
F0010000008363300002000090007142100041450500000000000000000201603090002001TODO BELLEZA Y MAX S.A.S                          C000000003300000000000000000000000100010010000000000000000000000F0010000008363300220160309000101 00000000000000000000000000000000000000000000000000000000000000000000000000000000000000000000000000000000000000000N 00000000000NCONT   00    00000000000          00000000000000000000000000000000000000000000 000000000000000A000000000000000000000000000000000000000000000 000000000000000000000000000000000000000     00000000                                                                                                                        000000000000000000
F0010000008363300003000090007142100042505000000000000000000201603090002001TODO BELLEZA Y MAX S.A.S                          C000000000150000000000000000000000100010010000000000000000000000F0010000008363300320160309000101 00000000000000000000000000000000000000000000000000000000000000000000000000000000000000000000000000000000000000000N 00000000000NCONT   00    00000000000          00000000000000000000000000000000000000000000 000000000000000A000000000000000000000000000000000000000000000 000000000000000000000000000000000000000     00000000                                                                                                                        000000000000000000
F0010000008363300004000090007142100023658300000000000000000201603090002001TODO BELLEZA Y MAX S.A.S                          C000000000026400000000000000000000100010010000000000000000000000F0010000008363300420160309000101 00000000000000000000000000000000000000000000000000000000000000000000000000000000000000000000000000000000000000000N 00000000000NCONT   00    00000000000          00000000000000000000000000000000000000000000 000000000000000A000000000000000000000000000000000000000000000 000000000000000000000000000000000000000     00000000                                                                                                                        000000000000000000
F0010000008363300005000090007142100013552100000000000000000201603090002001TODO BELLEZA Y MAX S.A.S                          D000000000026400000000000000000000100010010000000000000000000000F0010000008363300520160309000101 00000000000000000000000000000000000000000000000000000000000000000000000000000000000000000000000000000000000000000N 00000000000NCONT   00    00000000000          00000000000000000000000000000000000000000000 000000000000000A000000000000000000000000000000000000000000000 000000000000000000000000000000000000000     00000000                                                                                                                        000000000000000000
F0010000008363400001000007223972300011050500000000000000000201603090002001LUIS VALENCIA                                     D000000009600000000000000000000000100010010000000000000000000000F0010000008363400120160309000101 00000000000000000000000000000000000000000000000000000000000000000000000000000000000000000000000000000000000000000N 00000000000NCONT   00    00000000000          00000000000000000000000000000000000000000000 000000000000000A000000000000000000000000000000000000000000000 000000000000000000000000000000000000000     00000000                                                                                                                        000000000000000000
F0010000008363400002000007223972300041450500000000000000000201603090002001LUIS VALENCIA                                     C000000009000000000000000000000000100010010000000000000000000000F0010000008363400220160309000101 00000000000000000000000000000000000000000000000000000000000000000000000000000000000000000000000000000000000000000N 00000000000NCONT   00    00000000000          00000000000000000000000000000000000000000000 000000000000000A000000000000000000000000000000000000000000000 000000000000000000000000000000000000000     00000000                                                                                                                        000000000000000000
F0010000008363400003000007223972300042505000000000000000000201603090002001LUIS VALENCIA                                     C000000000600000000000000000000000100010010000000000000000000000F0010000008363400320160309000101 00000000000000000000000000000000000000000000000000000000000000000000000000000000000000000000000000000000000000000N 00000000000NCONT   00    00000000000          00000000000000000000000000000000000000000000 000000000000000A000000000000000000000000000000000000000000000 000000000000000000000000000000000000000     00000000                                                                                                                        000000000000000000
F0010000008363400004000007223972300023658300000000000000000201603090002001LUIS VALENCIA                                     C000000000072000000000000000000000100010010000000000000000000000F0010000008363400420160309000101 00000000000000000000000000000000000000000000000000000000000000000000000000000000000000000000000000000000000000000N 00000000000NCONT   00    00000000000          00000000000000000000000000000000000000000000 000000000000000A000000000000000000000000000000000000000000000 000000000000000000000000000000000000000     00000000                                                                                                                        000000000000000000
F0010000008363400005000007223972300013552100000000000000000201603090002001LUIS VALENCIA                                     D000000000072000000000000000000000100010010000000000000000000000F0010000008363400520160309000101 00000000000000000000000000000000000000000000000000000000000000000000000000000000000000000000000000000000000000000N 00000000000NCONT   00    00000000000          00000000000000000000000000000000000000000000 000000000000000A000000000000000000000000000000000000000000000 000000000000000000000000000000000000000     00000000                                                                                                                        000000000000000000
F0010000008363500001000114323267400011050500000000000000000201603090002001LA CASA DEL TEJIDO                                D000000001500000000000000000000000100010010000000000000000000000F0010000008363500120160309000101 00000000000000000000000000000000000000000000000000000000000000000000000000000000000000000000000000000000000000000N 00000000000NCONT   00    00000000000          00000000000000000000000000000000000000000000 000000000000000A000000000000000000000000000000000000000000000 000000000000000000000000000000000000000     00000000                                                                                                                        000000000000000000
F0010000008363500002000114323267400041450500000000000000000201603090002001LA CASA DEL TEJIDO                                C000000001000000000000000000000000100010010000000000000000000000F0010000008363500220160309000101 00000000000000000000000000000000000000000000000000000000000000000000000000000000000000000000000000000000000000000N 00000000000NCONT   00    00000000000          00000000000000000000000000000000000000000000 000000000000000A000000000000000000000000000000000000000000000 000000000000000000000000000000000000000     00000000                                                                                                                        000000000000000000
F0010000008363500003000114323267400042505000000000000000000201603090002001LA CASA DEL TEJIDO                                C000000000500000000000000000000000100010010000000000000000000000F0010000008363500320160309000101 00000000000000000000000000000000000000000000000000000000000000000000000000000000000000000000000000000000000000000N 00000000000NCONT   00    00000000000          00000000000000000000000000000000000000000000 000000000000000A000000000000000000000000000000000000000000000 000000000000000000000000000000000000000     00000000                                                                                                                        000000000000000000
F0010000008363500004000114323267400023658300000000000000000201603090002001LA CASA DEL TEJIDO                                C000000000008000000000000000000000100010010000000000000000000000F0010000008363500420160309000101 00000000000000000000000000000000000000000000000000000000000000000000000000000000000000000000000000000000000000000N 00000000000NCONT   00    00000000000          00000000000000000000000000000000000000000000 000000000000000A000000000000000000000000000000000000000000000 000000000000000000000000000000000000000     00000000                                                                                                                        000000000000000000
F0010000008363500005000114323267400013552100000000000000000201603090002001LA CASA DEL TEJIDO                                D000000000008000000000000000000000100010010000000000000000000000F0010000008363500520160309000101 00000000000000000000000000000000000000000000000000000000000000000000000000000000000000000000000000000000000000000N 00000000000NCONT   00    00000000000          00000000000000000000000000000000000000000000 000000000000000A000000000000000000000000000000000000000000000 000000000000000000000000000000000000000     00000000                                                                                                                        000000000000000000
F0010000008363600001000003314755400011050500000000000000000201603090002001RUMATEX DE COLOMBIA                               D000000001100000000000000000000000100010010000000000000000000000F0010000008363600120160309000101 00000000000000000000000000000000000000000000000000000000000000000000000000000000000000000000000000000000000000000N 00000000000NCONT   00    00000000000          00000000000000000000000000000000000000000000 000000000000000A000000000000000000000000000000000000000000000 000000000000000000000000000000000000000     00000000                                                                                                                        000000000000000000
F0010000008363600002000003314755400041450500000000000000000201603090002001RUMATEX DE COLOMBIA                               C000000000900000000000000000000000100010010000000000000000000000F0010000008363600220160309000101 00000000000000000000000000000000000000000000000000000000000000000000000000000000000000000000000000000000000000000N 00000000000NCONT   00    00000000000          00000000000000000000000000000000000000000000 000000000000000A000000000000000000000000000000000000000000000 000000000000000000000000000000000000000     00000000                                                                                                                        000000000000000000
F0010000008363600003000003314755400042505000000000000000000201603090002001RUMATEX DE COLOMBIA                               C000000000200000000000000000000000100010010000000000000000000000F0010000008363600320160309000101 00000000000000000000000000000000000000000000000000000000000000000000000000000000000000000000000000000000000000000N 00000000000NCONT   00    00000000000          00000000000000000000000000000000000000000000 000000000000000A000000000000000000000000000000000000000000000 000000000000000000000000000000000000000     00000000                                                                                                                        000000000000000000
F0010000008363600004000003314755400023658300000000000000000201603090002001RUMATEX DE COLOMBIA                               C000000000007200000000000000000000100010010000000000000000000000F0010000008363600420160309000101 00000000000000000000000000000000000000000000000000000000000000000000000000000000000000000000000000000000000000000N 00000000000NCONT   00    00000000000          00000000000000000000000000000000000000000000 000000000000000A000000000000000000000000000000000000000000000 000000000000000000000000000000000000000     00000000                                                                                                                        000000000000000000
F0010000008363600005000003314755400013552100000000000000000201603090002001RUMATEX DE COLOMBIA                               D000000000007200000000000000000000100010010000000000000000000000F0010000008363600520160309000101 00000000000000000000000000000000000000000000000000000000000000000000000000000000000000000000000000000000000000000N 00000000000NCONT   00    00000000000          00000000000000000000000000000000000000000000 000000000000000A000000000000000000000000000000000000000000000 000000000000000000000000000000000000000     00000000                                                                                                                        000000000000000000
F0010000008363700001000000431178400011050500000000000000000201603090002001EFRAIN ALVAREZ                                    D000000000460000000000000000000000100010010000000000000000000000F0010000008363700120160309000101 00000000000000000000000000000000000000000000000000000000000000000000000000000000000000000000000000000000000000000N 00000000000NCONT   00    00000000000          00000000000000000000000000000000000000000000 000000000000000A000000000000000000000000000000000000000000000 000000000000000000000000000000000000000     00000000                                                                                                                        000000000000000000
F0010000008363700002000000431178400041450500000000000000000201603090002001EFRAIN ALVAREZ                                    C000000000410000000000000000000000100010010000000000000000000000F0010000008363700220160309000101 00000000000000000000000000000000000000000000000000000000000000000000000000000000000000000000000000000000000000000N 00000000000NCONT   00    00000000000          00000000000000000000000000000000000000000000 000000000000000A000000000000000000000000000000000000000000000 000000000000000000000000000000000000000     00000000                                                                                                                        000000000000000000
F0010000008363700003000000431178400042505000000000000000000201603090002001EFRAIN ALVAREZ                                    C000000000050000000000000000000000100010010000000000000000000000F0010000008363700320160309000101 00000000000000000000000000000000000000000000000000000000000000000000000000000000000000000000000000000000000000000N 00000000000NCONT   00    00000000000          00000000000000000000000000000000000000000000 000000000000000A000000000000000000000000000000000000000000000 000000000000000000000000000000000000000     00000000                                                                                                                        000000000000000000
F0010000008363700004000000431178400023658300000000000000000201603090002001EFRAIN ALVAREZ                                    C000000000003300000000000000000000100010010000000000000000000000F0010000008363700420160309000101 00000000000000000000000000000000000000000000000000000000000000000000000000000000000000000000000000000000000000000N 00000000000NCONT   00    00000000000          00000000000000000000000000000000000000000000 000000000000000A000000000000000000000000000000000000000000000 000000000000000000000000000000000000000     00000000                                                                                                                        000000000000000000
F0010000008363700005000000431178400013552100000000000000000201603090002001EFRAIN ALVAREZ                                    D000000000003300000000000000000000100010010000000000000000000000F0010000008363700520160309000101 00000000000000000000000000000000000000000000000000000000000000000000000000000000000000000000000000000000000000000N 00000000000NCONT   00    00000000000          00000000000000000000000000000000000000000000 000000000000000A000000000000000000000000000000000000000000000 000000000000000000000000000000000000000     00000000                                                                                                                        000000000000000000
F0010000008363800001000000431178400011050500000000000000000201603090002001EFRAIN ALVAREZ                                    D000000000460000000000000000000000100010010000000000000000000000F0010000008363800120160309000101 00000000000000000000000000000000000000000000000000000000000000000000000000000000000000000000000000000000000000000N 00000000000NCONT   00    00000000000          00000000000000000000000000000000000000000000 000000000000000A000000000000000000000000000000000000000000000 000000000000000000000000000000000000000     00000000                                                                                                                        000000000000000000
F0010000008363800002000000431178400041450500000000000000000201603090002001EFRAIN ALVAREZ                                    C000000000410000000000000000000000100010010000000000000000000000F0010000008363800220160309000101 00000000000000000000000000000000000000000000000000000000000000000000000000000000000000000000000000000000000000000N 00000000000NCONT   00    00000000000          00000000000000000000000000000000000000000000 000000000000000A000000000000000000000000000000000000000000000 000000000000000000000000000000000000000     00000000                                                                                                                        000000000000000000
F0010000008363800003000000431178400042505000000000000000000201603090002001EFRAIN ALVAREZ                                    C000000000050000000000000000000000100010010000000000000000000000F0010000008363800320160309000101 00000000000000000000000000000000000000000000000000000000000000000000000000000000000000000000000000000000000000000N 00000000000NCONT   00    00000000000          00000000000000000000000000000000000000000000 000000000000000A000000000000000000000000000000000000000000000 000000000000000000000000000000000000000     00000000                                                                                                                        000000000000000000
F0010000008363800004000000431178400023658300000000000000000201603090002001EFRAIN ALVAREZ                                    C000000000003300000000000000000000100010010000000000000000000000F0010000008363800420160309000101 00000000000000000000000000000000000000000000000000000000000000000000000000000000000000000000000000000000000000000N 00000000000NCONT   00    00000000000          00000000000000000000000000000000000000000000 000000000000000A000000000000000000000000000000000000000000000 000000000000000000000000000000000000000     00000000                                                                                                                        000000000000000000
F0010000008363800005000000431178400013552100000000000000000201603090002001EFRAIN ALVAREZ                                    D000000000003300000000000000000000100010010000000000000000000000F0010000008363800520160309000101 00000000000000000000000000000000000000000000000000000000000000000000000000000000000000000000000000000000000000000N 00000000000NCONT   00    00000000000          00000000000000000000000000000000000000000000 000000000000000A000000000000000000000000000000000000000000000 000000000000000000000000000000000000000     00000000                                                                                                                        000000000000000000
F0010000008363900001000000431178400011050500000000000000000201603090002001EFRAIN ALVAREZ                                    D000000000870000000000000000000000100010010000000000000000000000F0010000008363900120160309000101 00000000000000000000000000000000000000000000000000000000000000000000000000000000000000000000000000000000000000000N 00000000000NCONT   00    00000000000          00000000000000000000000000000000000000000000 000000000000000A000000000000000000000000000000000000000000000 000000000000000000000000000000000000000     00000000                                                                                                                        000000000000000000
F0010000008363900002000000431178400041450500000000000000000201603090002001EFRAIN ALVAREZ                                    C000000000820000000000000000000000100010010000000000000000000000F0010000008363900220160309000101 00000000000000000000000000000000000000000000000000000000000000000000000000000000000000000000000000000000000000000N 00000000000NCONT   00    00000000000          00000000000000000000000000000000000000000000 000000000000000A000000000000000000000000000000000000000000000 000000000000000000000000000000000000000     00000000                                                                                                                        000000000000000000
F0010000008363900003000000431178400042505000000000000000000201603090002001EFRAIN ALVAREZ                                    C000000000050000000000000000000000100010010000000000000000000000F0010000008363900320160309000101 00000000000000000000000000000000000000000000000000000000000000000000000000000000000000000000000000000000000000000N 00000000000NCONT   00    00000000000          00000000000000000000000000000000000000000000 000000000000000A000000000000000000000000000000000000000000000 000000000000000000000000000000000000000     00000000                                                                                                                        000000000000000000
F0010000008363900004000000431178400023658300000000000000000201603090002001EFRAIN ALVAREZ                                    C000000000006600000000000000000000100010010000000000000000000000F0010000008363900420160309000101 00000000000000000000000000000000000000000000000000000000000000000000000000000000000000000000000000000000000000000N 00000000000NCONT   00    00000000000          00000000000000000000000000000000000000000000 000000000000000A000000000000000000000000000000000000000000000 000000000000000000000000000000000000000     00000000                                                                                                                        000000000000000000
F0010000008363900005000000431178400013552100000000000000000201603090002001EFRAIN ALVAREZ                                    D000000000006600000000000000000000100010010000000000000000000000F0010000008363900520160309000101 00000000000000000000000000000000000000000000000000000000000000000000000000000000000000000000000000000000000000000N 00000000000NCONT   00    00000000000          00000000000000000000000000000000000000000000 000000000000000A000000000000000000000000000000000000000000000 000000000000000000000000000000000000000     00000000                                                                                                                        000000000000000000
F0010000008364000001000004175790100011050500000000000000000201603090002001ROSIRIS FERIA HOYOS  (COSM. SHILLER)              D000000001300000000000000000000000100010010000000000000000000000F0010000008364000120160309000101 00000000000000000000000000000000000000000000000000000000000000000000000000000000000000000000000000000000000000000N 00000000000NCONT   00    00000000000          00000000000000000000000000000000000000000000 000000000000000A000000000000000000000000000000000000000000000 000000000000000000000000000000000000000     00000000                                                                                                                        000000000000000000
F0010000008364000002000004175790100041450500000000000000000201603090002001ROSIRIS FERIA HOYOS  (COSM. SHILLER)              C000000001200000000000000000000000100010010000000000000000000000F0010000008364000220160309000101 00000000000000000000000000000000000000000000000000000000000000000000000000000000000000000000000000000000000000000N 00000000000NCONT   00    00000000000          00000000000000000000000000000000000000000000 000000000000000A000000000000000000000000000000000000000000000 000000000000000000000000000000000000000     00000000                                                                                                                        000000000000000000
F0010000008364000003000004175790100042505000000000000000000201603090002001ROSIRIS FERIA HOYOS  (COSM. SHILLER)              C000000000100000000000000000000000100010010000000000000000000000F0010000008364000320160309000101 00000000000000000000000000000000000000000000000000000000000000000000000000000000000000000000000000000000000000000N 00000000000NCONT   00    00000000000          00000000000000000000000000000000000000000000 000000000000000A000000000000000000000000000000000000000000000 000000000000000000000000000000000000000     00000000                                                                                                                        000000000000000000
F0010000008364000004000004175790100023658300000000000000000201603090002001ROSIRIS FERIA HOYOS  (COSM. SHILLER)              C000000000009600000000000000000000100010010000000000000000000000F0010000008364000420160309000101 00000000000000000000000000000000000000000000000000000000000000000000000000000000000000000000000000000000000000000N 00000000000NCONT   00    00000000000          00000000000000000000000000000000000000000000 000000000000000A000000000000000000000000000000000000000000000 000000000000000000000000000000000000000     00000000                                                                                                                        000000000000000000
F0010000008364000005000004175790100013552100000000000000000201603090002001ROSIRIS FERIA HOYOS  (COSM. SHILLER)              D000000000009600000000000000000000100010010000000000000000000000F0010000008364000520160309000101 00000000000000000000000000000000000000000000000000000000000000000000000000000000000000000000000000000000000000000N 00000000000NCONT   00    00000000000          00000000000000000000000000000000000000000000 000000000000000A000000000000000000000000000000000000000000000 000000000000000000000000000000000000000     00000000                                                                                                                        000000000000000000
