F0010000008252000001000000860054200011050500000000000000000201602140002001HENRY DE LA HOZ                                   D000000003400000000000000000000000100010010000000000000000000000F0010000008252000120160214000101 00000000000000000000000000000000000000000000000000000000000000000000000000000000000000000000000000000000000000000N 00000000000NCONT   00    00000000000          00000000000000000000000000000000000000000000 000000000000000A000000000000000000000000000000000000000000000 000000000000000000000000000000000000000     00000000                                                                                                                        000000000000000000
F0010000008252000002000000860054200041450500000000000000000201602140002001HENRY DE LA HOZ                                   C000000003000000000000000000000000100010010000000000000000000000F0010000008252000220160214000101 00000000000000000000000000000000000000000000000000000000000000000000000000000000000000000000000000000000000000000N 00000000000NCONT   00    00000000000          00000000000000000000000000000000000000000000 000000000000000A000000000000000000000000000000000000000000000 000000000000000000000000000000000000000     00000000                                                                                                                        000000000000000000
F0010000008252000003000000860054200042505000000000000000000201602140002001HENRY DE LA HOZ                                   C000000000400000000000000000000000100010010000000000000000000000F0010000008252000320160214000101 00000000000000000000000000000000000000000000000000000000000000000000000000000000000000000000000000000000000000000N 00000000000NCONT   00    00000000000          00000000000000000000000000000000000000000000 000000000000000A000000000000000000000000000000000000000000000 000000000000000000000000000000000000000     00000000                                                                                                                        000000000000000000
F0010000008252000004000000860054200023658300000000000000000201602140002001HENRY DE LA HOZ                                   C000000000024000000000000000000000100010010000000000000000000000F0010000008252000420160214000101 00000000000000000000000000000000000000000000000000000000000000000000000000000000000000000000000000000000000000000N 00000000000NCONT   00    00000000000          00000000000000000000000000000000000000000000 000000000000000A000000000000000000000000000000000000000000000 000000000000000000000000000000000000000     00000000                                                                                                                        000000000000000000
F0010000008252000005000000860054200013552100000000000000000201602140002001HENRY DE LA HOZ                                   D000000000024000000000000000000000100010010000000000000000000000F0010000008252000520160214000101 00000000000000000000000000000000000000000000000000000000000000000000000000000000000000000000000000000000000000000N 00000000000NCONT   00    00000000000          00000000000000000000000000000000000000000000 000000000000000A000000000000000000000000000000000000000000000 000000000000000000000000000000000000000     00000000                                                                                                                        000000000000000000
F0010000008252100001000009120302700011050500000000000000000201602140002001CALZADO REY ESTEBAN                               D000000001600000000000000000000000100010010000000000000000000000F0010000008252100120160214000101 00000000000000000000000000000000000000000000000000000000000000000000000000000000000000000000000000000000000000000N 00000000000NCONT   00    00000000000          00000000000000000000000000000000000000000000 000000000000000A000000000000000000000000000000000000000000000 000000000000000000000000000000000000000     00000000                                                                                                                        000000000000000000
F0010000008252100002000009120302700041450500000000000000000201602140002001CALZADO REY ESTEBAN                               C000000001200000000000000000000000100010010000000000000000000000F0010000008252100220160214000101 00000000000000000000000000000000000000000000000000000000000000000000000000000000000000000000000000000000000000000N 00000000000NCONT   00    00000000000          00000000000000000000000000000000000000000000 000000000000000A000000000000000000000000000000000000000000000 000000000000000000000000000000000000000     00000000                                                                                                                        000000000000000000
F0010000008252100003000009120302700042505000000000000000000201602140002001CALZADO REY ESTEBAN                               C000000000400000000000000000000000100010010000000000000000000000F0010000008252100320160214000101 00000000000000000000000000000000000000000000000000000000000000000000000000000000000000000000000000000000000000000N 00000000000NCONT   00    00000000000          00000000000000000000000000000000000000000000 000000000000000A000000000000000000000000000000000000000000000 000000000000000000000000000000000000000     00000000                                                                                                                        000000000000000000
F0010000008252100004000009120302700023658300000000000000000201602140002001CALZADO REY ESTEBAN                               C000000000009600000000000000000000100010010000000000000000000000F0010000008252100420160214000101 00000000000000000000000000000000000000000000000000000000000000000000000000000000000000000000000000000000000000000N 00000000000NCONT   00    00000000000          00000000000000000000000000000000000000000000 000000000000000A000000000000000000000000000000000000000000000 000000000000000000000000000000000000000     00000000                                                                                                                        000000000000000000
F0010000008252100005000009120302700013552100000000000000000201602140002001CALZADO REY ESTEBAN                               D000000000009600000000000000000000100010010000000000000000000000F0010000008252100520160214000101 00000000000000000000000000000000000000000000000000000000000000000000000000000000000000000000000000000000000000000N 00000000000NCONT   00    00000000000          00000000000000000000000000000000000000000000 000000000000000A000000000000000000000000000000000000000000000 000000000000000000000000000000000000000     00000000                                                                                                                        000000000000000000
F0010000008252200001000000860054200011050500000000000000000201602140002001HENRY DE LA HOZ                                   D000000001400000000000000000000000100010010000000000000000000000F0010000008252200120160214000101 00000000000000000000000000000000000000000000000000000000000000000000000000000000000000000000000000000000000000000N 00000000000NCONT   00    00000000000          00000000000000000000000000000000000000000000 000000000000000A000000000000000000000000000000000000000000000 000000000000000000000000000000000000000     00000000                                                                                                                        000000000000000000
F0010000008252200002000000860054200041450500000000000000000201602140002001HENRY DE LA HOZ                                   C000000001200000000000000000000000100010010000000000000000000000F0010000008252200220160214000101 00000000000000000000000000000000000000000000000000000000000000000000000000000000000000000000000000000000000000000N 00000000000NCONT   00    00000000000          00000000000000000000000000000000000000000000 000000000000000A000000000000000000000000000000000000000000000 000000000000000000000000000000000000000     00000000                                                                                                                        000000000000000000
F0010000008252200003000000860054200042505000000000000000000201602140002001HENRY DE LA HOZ                                   C000000000200000000000000000000000100010010000000000000000000000F0010000008252200320160214000101 00000000000000000000000000000000000000000000000000000000000000000000000000000000000000000000000000000000000000000N 00000000000NCONT   00    00000000000          00000000000000000000000000000000000000000000 000000000000000A000000000000000000000000000000000000000000000 000000000000000000000000000000000000000     00000000                                                                                                                        000000000000000000
F0010000008252200004000000860054200023658300000000000000000201602140002001HENRY DE LA HOZ                                   C000000000009600000000000000000000100010010000000000000000000000F0010000008252200420160214000101 00000000000000000000000000000000000000000000000000000000000000000000000000000000000000000000000000000000000000000N 00000000000NCONT   00    00000000000          00000000000000000000000000000000000000000000 000000000000000A000000000000000000000000000000000000000000000 000000000000000000000000000000000000000     00000000                                                                                                                        000000000000000000
F0010000008252200005000000860054200013552100000000000000000201602140002001HENRY DE LA HOZ                                   D000000000009600000000000000000000100010010000000000000000000000F0010000008252200520160214000101 00000000000000000000000000000000000000000000000000000000000000000000000000000000000000000000000000000000000000000N 00000000000NCONT   00    00000000000          00000000000000000000000000000000000000000000 000000000000000A000000000000000000000000000000000000000000000 000000000000000000000000000000000000000     00000000                                                                                                                        000000000000000000
F0010000008252300001000003319910700011050500000000000000000201602140002001LUZ DARY JIMENEZ MARTINEZ                         D000000001100000000000000000000000100010010000000000000000000000F0010000008252300120160214000101 00000000000000000000000000000000000000000000000000000000000000000000000000000000000000000000000000000000000000000N 00000000000NCONT   00    00000000000          00000000000000000000000000000000000000000000 000000000000000A000000000000000000000000000000000000000000000 000000000000000000000000000000000000000     00000000                                                                                                                        000000000000000000
F0010000008252300002000003319910700041450500000000000000000201602140002001LUZ DARY JIMENEZ MARTINEZ                         C000000001000000000000000000000000100010010000000000000000000000F0010000008252300220160214000101 00000000000000000000000000000000000000000000000000000000000000000000000000000000000000000000000000000000000000000N 00000000000NCONT   00    00000000000          00000000000000000000000000000000000000000000 000000000000000A000000000000000000000000000000000000000000000 000000000000000000000000000000000000000     00000000                                                                                                                        000000000000000000
F0010000008252300003000003319910700042505000000000000000000201602140002001LUZ DARY JIMENEZ MARTINEZ                         C000000000100000000000000000000000100010010000000000000000000000F0010000008252300320160214000101 00000000000000000000000000000000000000000000000000000000000000000000000000000000000000000000000000000000000000000N 00000000000NCONT   00    00000000000          00000000000000000000000000000000000000000000 000000000000000A000000000000000000000000000000000000000000000 000000000000000000000000000000000000000     00000000                                                                                                                        000000000000000000
F0010000008252300004000003319910700023658300000000000000000201602140002001LUZ DARY JIMENEZ MARTINEZ                         C000000000008000000000000000000000100010010000000000000000000000F0010000008252300420160214000101 00000000000000000000000000000000000000000000000000000000000000000000000000000000000000000000000000000000000000000N 00000000000NCONT   00    00000000000          00000000000000000000000000000000000000000000 000000000000000A000000000000000000000000000000000000000000000 000000000000000000000000000000000000000     00000000                                                                                                                        000000000000000000
F0010000008252300005000003319910700013552100000000000000000201602140002001LUZ DARY JIMENEZ MARTINEZ                         D000000000008000000000000000000000100010010000000000000000000000F0010000008252300520160214000101 00000000000000000000000000000000000000000000000000000000000000000000000000000000000000000000000000000000000000000N 00000000000NCONT   00    00000000000          00000000000000000000000000000000000000000000 000000000000000A000000000000000000000000000000000000000000000 000000000000000000000000000000000000000     00000000                                                                                                                        000000000000000000
F0010000008252400001000007934219000011050500000000000000000201602140002001CANDELEC ILUMINACIONE                             D000000002100000000000000000000000100010010000000000000000000000F0010000008252400120160214000101 00000000000000000000000000000000000000000000000000000000000000000000000000000000000000000000000000000000000000000N 00000000000NCONT   00    00000000000          00000000000000000000000000000000000000000000 000000000000000A000000000000000000000000000000000000000000000 000000000000000000000000000000000000000     00000000                                                                                                                        000000000000000000
F0010000008252400002000007934219000041450500000000000000000201602140002001CANDELEC ILUMINACIONE                             C000000002000000000000000000000000100010010000000000000000000000F0010000008252400220160214000101 00000000000000000000000000000000000000000000000000000000000000000000000000000000000000000000000000000000000000000N 00000000000NCONT   00    00000000000          00000000000000000000000000000000000000000000 000000000000000A000000000000000000000000000000000000000000000 000000000000000000000000000000000000000     00000000                                                                                                                        000000000000000000
F0010000008252400003000007934219000042505000000000000000000201602140002001CANDELEC ILUMINACIONE                             C000000000100000000000000000000000100010010000000000000000000000F0010000008252400320160214000101 00000000000000000000000000000000000000000000000000000000000000000000000000000000000000000000000000000000000000000N 00000000000NCONT   00    00000000000          00000000000000000000000000000000000000000000 000000000000000A000000000000000000000000000000000000000000000 000000000000000000000000000000000000000     00000000                                                                                                                        000000000000000000
F0010000008252400004000007934219000023658300000000000000000201602140002001CANDELEC ILUMINACIONE                             C000000000016000000000000000000000100010010000000000000000000000F0010000008252400420160214000101 00000000000000000000000000000000000000000000000000000000000000000000000000000000000000000000000000000000000000000N 00000000000NCONT   00    00000000000          00000000000000000000000000000000000000000000 000000000000000A000000000000000000000000000000000000000000000 000000000000000000000000000000000000000     00000000                                                                                                                        000000000000000000
F0010000008252400005000007934219000013552100000000000000000201602140002001CANDELEC ILUMINACIONE                             D000000000016000000000000000000000100010010000000000000000000000F0010000008252400520160214000101 00000000000000000000000000000000000000000000000000000000000000000000000000000000000000000000000000000000000000000N 00000000000NCONT   00    00000000000          00000000000000000000000000000000000000000000 000000000000000A000000000000000000000000000000000000000000000 000000000000000000000000000000000000000     00000000                                                                                                                        000000000000000000
