F0010000007384400001000083011391400013050500000000000000000201507230002001INSTITUCIONAL STAR SERVICES LTDA                  D000000001160000000000000000000000100010010000000000000000000000F0010000007384400120150723000101 00000000000000000000000000000000000000000000000000000000000000000000000000000000000000000000000000000000000000000N 00000000000NCONT   00    00000000000          00000000000000000000000000000000000000000000 000000000000000A000000000000000000000000000000000000000000000 000000000000000000000000000000000000000     00000000                                                                                                                        000000000000000000
F0010000007384400002000083011391400041450500000000000000000201507230002001INSTITUCIONAL STAR SERVICES LTDA                  C000000000960000000000000000000000100010010000000000000000000000F0010000007384400220150723000101 00000000000000000000000000000000000000000000000000000000000000000000000000000000000000000000000000000000000000000N 00000000000NCONT   00    00000000000          00000000000000000000000000000000000000000000 000000000000000A000000000000000000000000000000000000000000000 000000000000000000000000000000000000000     00000000                                                                                                                        000000000000000000
F0010000007384400003000083011391400042505000000000000000000201507230002001INSTITUCIONAL STAR SERVICES LTDA                  C000000000200000000000000000000000100010010000000000000000000000F0010000007384400320150723000101 00000000000000000000000000000000000000000000000000000000000000000000000000000000000000000000000000000000000000000N 00000000000NCONT   00    00000000000          00000000000000000000000000000000000000000000 000000000000000A000000000000000000000000000000000000000000000 000000000000000000000000000000000000000     00000000                                                                                                                        000000000000000000
F0010000007384400004000083011391400023658300000000000000000201507230002001INSTITUCIONAL STAR SERVICES LTDA                  C000000000007700000000000000000000100010010000000000000000000000F0010000007384400420150723000101 00000000000000000000000000000000000000000000000000000000000000000000000000000000000000000000000000000000000000000N 00000000000NCONT   00    00000000000          00000000000000000000000000000000000000000000 000000000000000A000000000000000000000000000000000000000000000 000000000000000000000000000000000000000     00000000                                                                                                                        000000000000000000
F0010000007384400005000083011391400013552100000000000000000201507230002001INSTITUCIONAL STAR SERVICES LTDA                  D000000000007700000000000000000000100010010000000000000000000000F0010000007384400520150723000101 00000000000000000000000000000000000000000000000000000000000000000000000000000000000000000000000000000000000000000N 00000000000NCONT   00    00000000000          00000000000000000000000000000000000000000000 000000000000000A000000000000000000000000000000000000000000000 000000000000000000000000000000000000000     00000000                                                                                                                        000000000000000000
F0010000007384500001000000871714900013050500000000000000000201507230002001ROLNAN DE LA ROSA  INSIGNARES                     D000000053960000000000000000000000100010010000000000000000000000F0010000007384500120150723000101 00000000000000000000000000000000000000000000000000000000000000000000000000000000000000000000000000000000000000000N 00000000000NCONT   00    00000000000          00000000000000000000000000000000000000000000 000000000000000A000000000000000000000000000000000000000000000 000000000000000000000000000000000000000     00000000                                                                                                                        000000000000000000
F0010000007384500002000000871714900041450500000000000000000201507230002001ROLNAN DE LA ROSA  INSIGNARES                     C000000044444600000000000000000000100010010000000000000000000000F0010000007384500220150723000101 00000000000000000000000000000000000000000000000000000000000000000000000000000000000000000000000000000000000000000N 00000000000NCONT   00    00000000000          00000000000000000000000000000000000000000000 000000000000000A000000000000000000000000000000000000000000000 000000000000000000000000000000000000000     00000000                                                                                                                        000000000000000000
F0010000007384500003000000871714900042505000000000000000000201507230002001ROLNAN DE LA ROSA  INSIGNARES                     C000000009515400000000000000000000100010010000000000000000000000F0010000007384500320150723000101 00000000000000000000000000000000000000000000000000000000000000000000000000000000000000000000000000000000000000000N 00000000000NCONT   00    00000000000          00000000000000000000000000000000000000000000 000000000000000A000000000000000000000000000000000000000000000 000000000000000000000000000000000000000     00000000                                                                                                                        000000000000000000
F0010000007384500004000000871714900023658300000000000000000201507230002001ROLNAN DE LA ROSA  INSIGNARES                     C000000000355600000000000000000000100010010000000000000000000000F0010000007384500420150723000101 00000000000000000000000000000000000000000000000000000000000000000000000000000000000000000000000000000000000000000N 00000000000NCONT   00    00000000000          00000000000000000000000000000000000000000000 000000000000000A000000000000000000000000000000000000000000000 000000000000000000000000000000000000000     00000000                                                                                                                        000000000000000000
F0010000007384500005000000871714900013552100000000000000000201507230002001ROLNAN DE LA ROSA  INSIGNARES                     D000000000355600000000000000000000100010010000000000000000000000F0010000007384500520150723000101 00000000000000000000000000000000000000000000000000000000000000000000000000000000000000000000000000000000000000000N 00000000000NCONT   00    00000000000          00000000000000000000000000000000000000000000 000000000000000A000000000000000000000000000000000000000000000 000000000000000000000000000000000000000     00000000                                                                                                                        000000000000000000
F0010000007384600001000089010260300013050500000000000000000201507230002001FEDERICO OSORIO A. S.A.                           D000000082250700000000000000000000100010010000000000000000000000F0010000007384600120150723000101 00000000000000000000000000000000000000000000000000000000000000000000000000000000000000000000000000000000000000000N 00000000000NCONT   00    00000000000          00000000000000000000000000000000000000000000 000000000000000A000000000000000000000000000000000000000000000 000000000000000000000000000000000000000     00000000                                                                                                                        000000000000000000
F0010000007384600002000089010260300041450500000000000000000201507230002001FEDERICO OSORIO A. S.A.                           C000000077860000000000000000000000100010010000000000000000000000F0010000007384600220150723000101 00000000000000000000000000000000000000000000000000000000000000000000000000000000000000000000000000000000000000000N 00000000000NCONT   00    00000000000          00000000000000000000000000000000000000000000 000000000000000A000000000000000000000000000000000000000000000 000000000000000000000000000000000000000     00000000                                                                                                                        000000000000000000
F0010000007384600003000089010260300042505000000000000000000201507230002001FEDERICO OSORIO A. S.A.                           C000000004390700000000000000000000100010010000000000000000000000F0010000007384600320150723000101 00000000000000000000000000000000000000000000000000000000000000000000000000000000000000000000000000000000000000000N 00000000000NCONT   00    00000000000          00000000000000000000000000000000000000000000 000000000000000A000000000000000000000000000000000000000000000 000000000000000000000000000000000000000     00000000                                                                                                                        000000000000000000
F0010000007384600004000089010260300023658300000000000000000201507230002001FEDERICO OSORIO A. S.A.                           C000000000622900000000000000000000100010010000000000000000000000F0010000007384600420150723000101 00000000000000000000000000000000000000000000000000000000000000000000000000000000000000000000000000000000000000000N 00000000000NCONT   00    00000000000          00000000000000000000000000000000000000000000 000000000000000A000000000000000000000000000000000000000000000 000000000000000000000000000000000000000     00000000                                                                                                                        000000000000000000
F0010000007384600005000089010260300013552100000000000000000201507230002001FEDERICO OSORIO A. S.A.                           D000000000622900000000000000000000100010010000000000000000000000F0010000007384600520150723000101 00000000000000000000000000000000000000000000000000000000000000000000000000000000000000000000000000000000000000000N 00000000000NCONT   00    00000000000          00000000000000000000000000000000000000000000 000000000000000A000000000000000000000000000000000000000000000 000000000000000000000000000000000000000     00000000                                                                                                                        000000000000000000
F0010000007384800001000080019113900013050500000000000000000201507230002001COMERCIAL NOVAPEL LTDA                            D000000005200000000000000000000000100010010000000000000000000000F0010000007384800120150723000101 00000000000000000000000000000000000000000000000000000000000000000000000000000000000000000000000000000000000000000N 00000000000NCONT   00    00000000000          00000000000000000000000000000000000000000000 000000000000000A000000000000000000000000000000000000000000000 000000000000000000000000000000000000000     00000000                                                                                                                        000000000000000000
F0010000007384800002000080019113900041450500000000000000000201507230002001COMERCIAL NOVAPEL LTDA                            C000000004600000000000000000000000100010010000000000000000000000F0010000007384800220150723000101 00000000000000000000000000000000000000000000000000000000000000000000000000000000000000000000000000000000000000000N 00000000000NCONT   00    00000000000          00000000000000000000000000000000000000000000 000000000000000A000000000000000000000000000000000000000000000 000000000000000000000000000000000000000     00000000                                                                                                                        000000000000000000
F0010000007384800003000080019113900042505000000000000000000201507230002001COMERCIAL NOVAPEL LTDA                            C000000000600000000000000000000000100010010000000000000000000000F0010000007384800320150723000101 00000000000000000000000000000000000000000000000000000000000000000000000000000000000000000000000000000000000000000N 00000000000NCONT   00    00000000000          00000000000000000000000000000000000000000000 000000000000000A000000000000000000000000000000000000000000000 000000000000000000000000000000000000000     00000000                                                                                                                        000000000000000000
F0010000007384800004000080019113900023658300000000000000000201507230002001COMERCIAL NOVAPEL LTDA                            C000000000036800000000000000000000100010010000000000000000000000F0010000007384800420150723000101 00000000000000000000000000000000000000000000000000000000000000000000000000000000000000000000000000000000000000000N 00000000000NCONT   00    00000000000          00000000000000000000000000000000000000000000 000000000000000A000000000000000000000000000000000000000000000 000000000000000000000000000000000000000     00000000                                                                                                                        000000000000000000
F0010000007384800005000080019113900013552100000000000000000201507230002001COMERCIAL NOVAPEL LTDA                            D000000000036800000000000000000000100010010000000000000000000000F0010000007384800520150723000101 00000000000000000000000000000000000000000000000000000000000000000000000000000000000000000000000000000000000000000N 00000000000NCONT   00    00000000000          00000000000000000000000000000000000000000000 000000000000000A000000000000000000000000000000000000000000000 000000000000000000000000000000000000000     00000000                                                                                                                        000000000000000000
F0010000007384900001000089011492400013050500000000000000000201507230002001AGE. CAUCHO SOL DE LA COSTA  SAS                  D000000081002200000000000000000000100010010000000000000000000000F0010000007384900120150723000101 00000000000000000000000000000000000000000000000000000000000000000000000000000000000000000000000000000000000000000N 00000000000NCONT   00    00000000000          00000000000000000000000000000000000000000000 000000000000000A000000000000000000000000000000000000000000000 000000000000000000000000000000000000000     00000000                                                                                                                        000000000000000000
F0010000007384900002000089011492400041450500000000000000000201507230002001AGE. CAUCHO SOL DE LA COSTA  SAS                  C000000047880000000000000000000000100010010000000000000000000000F0010000007384900220150723000101 00000000000000000000000000000000000000000000000000000000000000000000000000000000000000000000000000000000000000000N 00000000000NCONT   00    00000000000          00000000000000000000000000000000000000000000 000000000000000A000000000000000000000000000000000000000000000 000000000000000000000000000000000000000     00000000                                                                                                                        000000000000000000
F0010000007384900003000089011492400042505000000000000000000201507230002001AGE. CAUCHO SOL DE LA COSTA  SAS                  C000000033122200000000000000000000100010010000000000000000000000F0010000007384900320150723000101 00000000000000000000000000000000000000000000000000000000000000000000000000000000000000000000000000000000000000000N 00000000000NCONT   00    00000000000          00000000000000000000000000000000000000000000 000000000000000A000000000000000000000000000000000000000000000 000000000000000000000000000000000000000     00000000                                                                                                                        000000000000000000
F0010000007384900004000089011492400023658300000000000000000201507230002001AGE. CAUCHO SOL DE LA COSTA  SAS                  C000000000383000000000000000000000100010010000000000000000000000F0010000007384900420150723000101 00000000000000000000000000000000000000000000000000000000000000000000000000000000000000000000000000000000000000000N 00000000000NCONT   00    00000000000          00000000000000000000000000000000000000000000 000000000000000A000000000000000000000000000000000000000000000 000000000000000000000000000000000000000     00000000                                                                                                                        000000000000000000
F0010000007384900005000089011492400013552100000000000000000201507230002001AGE. CAUCHO SOL DE LA COSTA  SAS                  D000000000383000000000000000000000100010010000000000000000000000F0010000007384900520150723000101 00000000000000000000000000000000000000000000000000000000000000000000000000000000000000000000000000000000000000000N 00000000000NCONT   00    00000000000          00000000000000000000000000000000000000000000 000000000000000A000000000000000000000000000000000000000000000 000000000000000000000000000000000000000     00000000                                                                                                                        000000000000000000
F0010000007385000001000080202094000013050500000000000000000201507230002001DISTRIB. OMAR ORREGO S.A.                         D000000056742000000000000000000000100010010000000000000000000000F0010000007385000120150723000101 00000000000000000000000000000000000000000000000000000000000000000000000000000000000000000000000000000000000000000N 00000000000NCONT   00    00000000000          00000000000000000000000000000000000000000000 000000000000000A000000000000000000000000000000000000000000000 000000000000000000000000000000000000000     00000000                                                                                                                        000000000000000000
F0010000007385000002000080202094000041450500000000000000000201507230002001DISTRIB. OMAR ORREGO S.A.                         C000000030850000000000000000000000100010010000000000000000000000F0010000007385000220150723000101 00000000000000000000000000000000000000000000000000000000000000000000000000000000000000000000000000000000000000000N 00000000000NCONT   00    00000000000          00000000000000000000000000000000000000000000 000000000000000A000000000000000000000000000000000000000000000 000000000000000000000000000000000000000     00000000                                                                                                                        000000000000000000
F0010000007385000003000080202094000042505000000000000000000201507230002001DISTRIB. OMAR ORREGO S.A.                         C000000025892000000000000000000000100010010000000000000000000000F0010000007385000320150723000101 00000000000000000000000000000000000000000000000000000000000000000000000000000000000000000000000000000000000000000N 00000000000NCONT   00    00000000000          00000000000000000000000000000000000000000000 000000000000000A000000000000000000000000000000000000000000000 000000000000000000000000000000000000000     00000000                                                                                                                        000000000000000000
F0010000007385000004000080202094000023658300000000000000000201507230002001DISTRIB. OMAR ORREGO S.A.                         C000000000246800000000000000000000100010010000000000000000000000F0010000007385000420150723000101 00000000000000000000000000000000000000000000000000000000000000000000000000000000000000000000000000000000000000000N 00000000000NCONT   00    00000000000          00000000000000000000000000000000000000000000 000000000000000A000000000000000000000000000000000000000000000 000000000000000000000000000000000000000     00000000                                                                                                                        000000000000000000
F0010000007385000005000080202094000013552100000000000000000201507230002001DISTRIB. OMAR ORREGO S.A.                         D000000000246800000000000000000000100010010000000000000000000000F0010000007385000520150723000101 00000000000000000000000000000000000000000000000000000000000000000000000000000000000000000000000000000000000000000N 00000000000NCONT   00    00000000000          00000000000000000000000000000000000000000000 000000000000000A000000000000000000000000000000000000000000000 000000000000000000000000000000000000000     00000000                                                                                                                        000000000000000000
F0010000007385100001000090002525100013050500000000000000000201507230002001VINILOS Y PEGANTES                                D000000004254700000000000000000000100010010000000000000000000000F0010000007385100120150723000101 00000000000000000000000000000000000000000000000000000000000000000000000000000000000000000000000000000000000000000N 00000000000NCONT   00    00000000000          00000000000000000000000000000000000000000000 000000000000000A000000000000000000000000000000000000000000000 000000000000000000000000000000000000000     00000000                                                                                                                        000000000000000000
F0010000007385100002000090002525100041450500000000000000000201507230002001VINILOS Y PEGANTES                                C000000003960000000000000000000000100010010000000000000000000000F0010000007385100220150723000101 00000000000000000000000000000000000000000000000000000000000000000000000000000000000000000000000000000000000000000N 00000000000NCONT   00    00000000000          00000000000000000000000000000000000000000000 000000000000000A000000000000000000000000000000000000000000000 000000000000000000000000000000000000000     00000000                                                                                                                        000000000000000000
F0010000007385100003000090002525100042505000000000000000000201507230002001VINILOS Y PEGANTES                                C000000000294700000000000000000000100010010000000000000000000000F0010000007385100320150723000101 00000000000000000000000000000000000000000000000000000000000000000000000000000000000000000000000000000000000000000N 00000000000NCONT   00    00000000000          00000000000000000000000000000000000000000000 000000000000000A000000000000000000000000000000000000000000000 000000000000000000000000000000000000000     00000000                                                                                                                        000000000000000000
F0010000007385100004000090002525100023658300000000000000000201507230002001VINILOS Y PEGANTES                                C000000000031700000000000000000000100010010000000000000000000000F0010000007385100420150723000101 00000000000000000000000000000000000000000000000000000000000000000000000000000000000000000000000000000000000000000N 00000000000NCONT   00    00000000000          00000000000000000000000000000000000000000000 000000000000000A000000000000000000000000000000000000000000000 000000000000000000000000000000000000000     00000000                                                                                                                        000000000000000000
F0010000007385100005000090002525100013552100000000000000000201507230002001VINILOS Y PEGANTES                                D000000000031700000000000000000000100010010000000000000000000000F0010000007385100520150723000101 00000000000000000000000000000000000000000000000000000000000000000000000000000000000000000000000000000000000000000N 00000000000NCONT   00    00000000000          00000000000000000000000000000000000000000000 000000000000000A000000000000000000000000000000000000000000000 000000000000000000000000000000000000000     00000000                                                                                                                        000000000000000000
F0010000007385200001000000876579700013050500000000000000000201507230002001JOSE LUIS MUÑOZ                                  D000000004100000000000000000000000100010010000000000000000000000F0010000007385200120150723000101 00000000000000000000000000000000000000000000000000000000000000000000000000000000000000000000000000000000000000000N 00000000000NCONT   00    00000000000          00000000000000000000000000000000000000000000 000000000000000A000000000000000000000000000000000000000000000 000000000000000000000000000000000000000     00000000                                                                                                                        000000000000000000
F0010000007385200002000000876579700041450500000000000000000201507230002001JOSE LUIS MUÑOZ                                  C000000003800000000000000000000000100010010000000000000000000000F0010000007385200220150723000101 00000000000000000000000000000000000000000000000000000000000000000000000000000000000000000000000000000000000000000N 00000000000NCONT   00    00000000000          00000000000000000000000000000000000000000000 000000000000000A000000000000000000000000000000000000000000000 000000000000000000000000000000000000000     00000000                                                                                                                        000000000000000000
F0010000007385200003000000876579700042505000000000000000000201507230002001JOSE LUIS MUÑOZ                                  C000000000300000000000000000000000100010010000000000000000000000F0010000007385200320150723000101 00000000000000000000000000000000000000000000000000000000000000000000000000000000000000000000000000000000000000000N 00000000000NCONT   00    00000000000          00000000000000000000000000000000000000000000 000000000000000A000000000000000000000000000000000000000000000 000000000000000000000000000000000000000     00000000                                                                                                                        000000000000000000
F0010000007385200004000000876579700023658300000000000000000201507230002001JOSE LUIS MUÑOZ                                  C000000000030400000000000000000000100010010000000000000000000000F0010000007385200420150723000101 00000000000000000000000000000000000000000000000000000000000000000000000000000000000000000000000000000000000000000N 00000000000NCONT   00    00000000000          00000000000000000000000000000000000000000000 000000000000000A000000000000000000000000000000000000000000000 000000000000000000000000000000000000000     00000000                                                                                                                        000000000000000000
F0010000007385200005000000876579700013552100000000000000000201507230002001JOSE LUIS MUÑOZ                                  D000000000030400000000000000000000100010010000000000000000000000F0010000007385200520150723000101 00000000000000000000000000000000000000000000000000000000000000000000000000000000000000000000000000000000000000000N 00000000000NCONT   00    00000000000          00000000000000000000000000000000000000000000 000000000000000A000000000000000000000000000000000000000000000 000000000000000000000000000000000000000     00000000                                                                                                                        000000000000000000
F0010000007385300001000007215983800013050500000000000000000201507230002001INDUSTRIA  LAFERBE                                D000000002735000000000000000000000100010010000000000000000000000F0010000007385300120150723000101 00000000000000000000000000000000000000000000000000000000000000000000000000000000000000000000000000000000000000000N 00000000000NCONT   00    00000000000          00000000000000000000000000000000000000000000 000000000000000A000000000000000000000000000000000000000000000 000000000000000000000000000000000000000     00000000                                                                                                                        000000000000000000
F0010000007385300002000007215983800041450500000000000000000201507230002001INDUSTRIA  LAFERBE                                C000000002410000000000000000000000100010010000000000000000000000F0010000007385300220150723000101 00000000000000000000000000000000000000000000000000000000000000000000000000000000000000000000000000000000000000000N 00000000000NCONT   00    00000000000          00000000000000000000000000000000000000000000 000000000000000A000000000000000000000000000000000000000000000 000000000000000000000000000000000000000     00000000                                                                                                                        000000000000000000
F0010000007385300003000007215983800042505000000000000000000201507230002001INDUSTRIA  LAFERBE                                C000000000325000000000000000000000100010010000000000000000000000F0010000007385300320150723000101 00000000000000000000000000000000000000000000000000000000000000000000000000000000000000000000000000000000000000000N 00000000000NCONT   00    00000000000          00000000000000000000000000000000000000000000 000000000000000A000000000000000000000000000000000000000000000 000000000000000000000000000000000000000     00000000                                                                                                                        000000000000000000
F0010000007385300004000007215983800023658300000000000000000201507230002001INDUSTRIA  LAFERBE                                C000000000019300000000000000000000100010010000000000000000000000F0010000007385300420150723000101 00000000000000000000000000000000000000000000000000000000000000000000000000000000000000000000000000000000000000000N 00000000000NCONT   00    00000000000          00000000000000000000000000000000000000000000 000000000000000A000000000000000000000000000000000000000000000 000000000000000000000000000000000000000     00000000                                                                                                                        000000000000000000
F0010000007385300005000007215983800013552100000000000000000201507230002001INDUSTRIA  LAFERBE                                D000000000019300000000000000000000100010010000000000000000000000F0010000007385300520150723000101 00000000000000000000000000000000000000000000000000000000000000000000000000000000000000000000000000000000000000000N 00000000000NCONT   00    00000000000          00000000000000000000000000000000000000000000 000000000000000A000000000000000000000000000000000000000000000 000000000000000000000000000000000000000     00000000                                                                                                                        000000000000000000
F0010000007385400001000090073498600011050500000000000000000201507230002001VALTAC S.A.S                                      D000000001800000000000000000000000100010010000000000000000000000F0010000007385400120150723000101 00000000000000000000000000000000000000000000000000000000000000000000000000000000000000000000000000000000000000000N 00000000000NCONT   00    00000000000          00000000000000000000000000000000000000000000 000000000000000A000000000000000000000000000000000000000000000 000000000000000000000000000000000000000     00000000                                                                                                                        000000000000000000
F0010000007385400002000090073498600041450500000000000000000201507230002001VALTAC S.A.S                                      C000000001600000000000000000000000100010010000000000000000000000F0010000007385400220150723000101 00000000000000000000000000000000000000000000000000000000000000000000000000000000000000000000000000000000000000000N 00000000000NCONT   00    00000000000          00000000000000000000000000000000000000000000 000000000000000A000000000000000000000000000000000000000000000 000000000000000000000000000000000000000     00000000                                                                                                                        000000000000000000
F0010000007385400003000090073498600042505000000000000000000201507230002001VALTAC S.A.S                                      C000000000200000000000000000000000100010010000000000000000000000F0010000007385400320150723000101 00000000000000000000000000000000000000000000000000000000000000000000000000000000000000000000000000000000000000000N 00000000000NCONT   00    00000000000          00000000000000000000000000000000000000000000 000000000000000A000000000000000000000000000000000000000000000 000000000000000000000000000000000000000     00000000                                                                                                                        000000000000000000
F0010000007385400004000090073498600023658300000000000000000201507230002001VALTAC S.A.S                                      C000000000012800000000000000000000100010010000000000000000000000F0010000007385400420150723000101 00000000000000000000000000000000000000000000000000000000000000000000000000000000000000000000000000000000000000000N 00000000000NCONT   00    00000000000          00000000000000000000000000000000000000000000 000000000000000A000000000000000000000000000000000000000000000 000000000000000000000000000000000000000     00000000                                                                                                                        000000000000000000
F0010000007385400005000090073498600013552100000000000000000201507230002001VALTAC S.A.S                                      D000000000012800000000000000000000100010010000000000000000000000F0010000007385400520150723000101 00000000000000000000000000000000000000000000000000000000000000000000000000000000000000000000000000000000000000000N 00000000000NCONT   00    00000000000          00000000000000000000000000000000000000000000 000000000000000A000000000000000000000000000000000000000000000 000000000000000000000000000000000000000     00000000                                                                                                                        000000000000000000
F0010000007385500001000000869805000011050500000000000000000201507230002001WILLMAN RAMBAL                                    D000000001100000000000000000000000100010010000000000000000000000F0010000007385500120150723000101 00000000000000000000000000000000000000000000000000000000000000000000000000000000000000000000000000000000000000000N 00000000000NCONT   00    00000000000          00000000000000000000000000000000000000000000 000000000000000A000000000000000000000000000000000000000000000 000000000000000000000000000000000000000     00000000                                                                                                                        000000000000000000
F0010000007385500002000000869805000041450500000000000000000201507230002001WILLMAN RAMBAL                                    C000000001000000000000000000000000100010010000000000000000000000F0010000007385500220150723000101 00000000000000000000000000000000000000000000000000000000000000000000000000000000000000000000000000000000000000000N 00000000000NCONT   00    00000000000          00000000000000000000000000000000000000000000 000000000000000A000000000000000000000000000000000000000000000 000000000000000000000000000000000000000     00000000                                                                                                                        000000000000000000
F0010000007385500003000000869805000042505000000000000000000201507230002001WILLMAN RAMBAL                                    C000000000100000000000000000000000100010010000000000000000000000F0010000007385500320150723000101 00000000000000000000000000000000000000000000000000000000000000000000000000000000000000000000000000000000000000000N 00000000000NCONT   00    00000000000          00000000000000000000000000000000000000000000 000000000000000A000000000000000000000000000000000000000000000 000000000000000000000000000000000000000     00000000                                                                                                                        000000000000000000
F0010000007385500004000000869805000023658300000000000000000201507230002001WILLMAN RAMBAL                                    C000000000008000000000000000000000100010010000000000000000000000F0010000007385500420150723000101 00000000000000000000000000000000000000000000000000000000000000000000000000000000000000000000000000000000000000000N 00000000000NCONT   00    00000000000          00000000000000000000000000000000000000000000 000000000000000A000000000000000000000000000000000000000000000 000000000000000000000000000000000000000     00000000                                                                                                                        000000000000000000
F0010000007385500005000000869805000013552100000000000000000201507230002001WILLMAN RAMBAL                                    D000000000008000000000000000000000100010010000000000000000000000F0010000007385500520150723000101 00000000000000000000000000000000000000000000000000000000000000000000000000000000000000000000000000000000000000000N 00000000000NCONT   00    00000000000          00000000000000000000000000000000000000000000 000000000000000A000000000000000000000000000000000000000000000 000000000000000000000000000000000000000     00000000                                                                                                                        000000000000000000
F0010000007385600001000005525050200011050500000000000000000201507230002001PLASTICOS  DE LA COSTA                            D000000002250000000000000000000000100010010000000000000000000000F0010000007385600120150723000101 00000000000000000000000000000000000000000000000000000000000000000000000000000000000000000000000000000000000000000N 00000000000NCONT   00    00000000000          00000000000000000000000000000000000000000000 000000000000000A000000000000000000000000000000000000000000000 000000000000000000000000000000000000000     00000000                                                                                                                        000000000000000000
F0010000007385600002000005525050200041450500000000000000000201507230002001PLASTICOS  DE LA COSTA                            C000000002150000000000000000000000100010010000000000000000000000F0010000007385600220150723000101 00000000000000000000000000000000000000000000000000000000000000000000000000000000000000000000000000000000000000000N 00000000000NCONT   00    00000000000          00000000000000000000000000000000000000000000 000000000000000A000000000000000000000000000000000000000000000 000000000000000000000000000000000000000     00000000                                                                                                                        000000000000000000
F0010000007385600003000005525050200042505000000000000000000201507230002001PLASTICOS  DE LA COSTA                            C000000000100000000000000000000000100010010000000000000000000000F0010000007385600320150723000101 00000000000000000000000000000000000000000000000000000000000000000000000000000000000000000000000000000000000000000N 00000000000NCONT   00    00000000000          00000000000000000000000000000000000000000000 000000000000000A000000000000000000000000000000000000000000000 000000000000000000000000000000000000000     00000000                                                                                                                        000000000000000000
F0010000007385600004000005525050200023658300000000000000000201507230002001PLASTICOS  DE LA COSTA                            C000000000017200000000000000000000100010010000000000000000000000F0010000007385600420150723000101 00000000000000000000000000000000000000000000000000000000000000000000000000000000000000000000000000000000000000000N 00000000000NCONT   00    00000000000          00000000000000000000000000000000000000000000 000000000000000A000000000000000000000000000000000000000000000 000000000000000000000000000000000000000     00000000                                                                                                                        000000000000000000
F0010000007385600005000005525050200013552100000000000000000201507230002001PLASTICOS  DE LA COSTA                            D000000000017200000000000000000000100010010000000000000000000000F0010000007385600520150723000101 00000000000000000000000000000000000000000000000000000000000000000000000000000000000000000000000000000000000000000N 00000000000NCONT   00    00000000000          00000000000000000000000000000000000000000000 000000000000000A000000000000000000000000000000000000000000000 000000000000000000000000000000000000000     00000000                                                                                                                        000000000000000000
F0010000007385700001000001502923600011050500000000000000000201507230002001ALCIDES MARTINEZ MARTINEZ                         D000000001300000000000000000000000100010010000000000000000000000F0010000007385700120150723000101 00000000000000000000000000000000000000000000000000000000000000000000000000000000000000000000000000000000000000000N 00000000000NCONT   00    00000000000          00000000000000000000000000000000000000000000 000000000000000A000000000000000000000000000000000000000000000 000000000000000000000000000000000000000     00000000                                                                                                                        000000000000000000
F0010000007385700002000001502923600041450500000000000000000201507230002001ALCIDES MARTINEZ MARTINEZ                         C000000000900000000000000000000000100010010000000000000000000000F0010000007385700220150723000101 00000000000000000000000000000000000000000000000000000000000000000000000000000000000000000000000000000000000000000N 00000000000NCONT   00    00000000000          00000000000000000000000000000000000000000000 000000000000000A000000000000000000000000000000000000000000000 000000000000000000000000000000000000000     00000000                                                                                                                        000000000000000000
F0010000007385700003000001502923600042505000000000000000000201507230002001ALCIDES MARTINEZ MARTINEZ                         C000000000400000000000000000000000100010010000000000000000000000F0010000007385700320150723000101 00000000000000000000000000000000000000000000000000000000000000000000000000000000000000000000000000000000000000000N 00000000000NCONT   00    00000000000          00000000000000000000000000000000000000000000 000000000000000A000000000000000000000000000000000000000000000 000000000000000000000000000000000000000     00000000                                                                                                                        000000000000000000
F0010000007385700004000001502923600023658300000000000000000201507230002001ALCIDES MARTINEZ MARTINEZ                         C000000000007200000000000000000000100010010000000000000000000000F0010000007385700420150723000101 00000000000000000000000000000000000000000000000000000000000000000000000000000000000000000000000000000000000000000N 00000000000NCONT   00    00000000000          00000000000000000000000000000000000000000000 000000000000000A000000000000000000000000000000000000000000000 000000000000000000000000000000000000000     00000000                                                                                                                        000000000000000000
F0010000007385700005000001502923600013552100000000000000000201507230002001ALCIDES MARTINEZ MARTINEZ                         D000000000007200000000000000000000100010010000000000000000000000F0010000007385700520150723000101 00000000000000000000000000000000000000000000000000000000000000000000000000000000000000000000000000000000000000000N 00000000000NCONT   00    00000000000          00000000000000000000000000000000000000000000 000000000000000A000000000000000000000000000000000000000000000 000000000000000000000000000000000000000     00000000                                                                                                                        000000000000000000
F0010000007385800001000007213133300011050500000000000000000201507230002001ALVARO ALBERTO FANDIÑO GOMEZ                     D000000001000000000000000000000000100010010000000000000000000000F0010000007385800120150723000101 00000000000000000000000000000000000000000000000000000000000000000000000000000000000000000000000000000000000000000N 00000000000NCONT   00    00000000000          00000000000000000000000000000000000000000000 000000000000000A000000000000000000000000000000000000000000000 000000000000000000000000000000000000000     00000000                                                                                                                        000000000000000000
F0010000007385800002000007213133300041450500000000000000000201507230002001ALVARO ALBERTO FANDIÑO GOMEZ                     C000000000900000000000000000000000100010010000000000000000000000F0010000007385800220150723000101 00000000000000000000000000000000000000000000000000000000000000000000000000000000000000000000000000000000000000000N 00000000000NCONT   00    00000000000          00000000000000000000000000000000000000000000 000000000000000A000000000000000000000000000000000000000000000 000000000000000000000000000000000000000     00000000                                                                                                                        000000000000000000
F0010000007385800003000007213133300042505000000000000000000201507230002001ALVARO ALBERTO FANDIÑO GOMEZ                     C000000000100000000000000000000000100010010000000000000000000000F0010000007385800320150723000101 00000000000000000000000000000000000000000000000000000000000000000000000000000000000000000000000000000000000000000N 00000000000NCONT   00    00000000000          00000000000000000000000000000000000000000000 000000000000000A000000000000000000000000000000000000000000000 000000000000000000000000000000000000000     00000000                                                                                                                        000000000000000000
F0010000007385800004000007213133300023658300000000000000000201507230002001ALVARO ALBERTO FANDIÑO GOMEZ                     C000000000007200000000000000000000100010010000000000000000000000F0010000007385800420150723000101 00000000000000000000000000000000000000000000000000000000000000000000000000000000000000000000000000000000000000000N 00000000000NCONT   00    00000000000          00000000000000000000000000000000000000000000 000000000000000A000000000000000000000000000000000000000000000 000000000000000000000000000000000000000     00000000                                                                                                                        000000000000000000
F0010000007385800005000007213133300013552100000000000000000201507230002001ALVARO ALBERTO FANDIÑO GOMEZ                     D000000000007200000000000000000000100010010000000000000000000000F0010000007385800520150723000101 00000000000000000000000000000000000000000000000000000000000000000000000000000000000000000000000000000000000000000N 00000000000NCONT   00    00000000000          00000000000000000000000000000000000000000000 000000000000000A000000000000000000000000000000000000000000000 000000000000000000000000000000000000000     00000000                                                                                                                        000000000000000000
F0010000007385900001000090052543100011050500000000000000000201507230002001SECRET COLOR SAS                                  D000000000850000000000000000000000100010010000000000000000000000F0010000007385900120150723000101 00000000000000000000000000000000000000000000000000000000000000000000000000000000000000000000000000000000000000000N 00000000000NCONT   00    00000000000          00000000000000000000000000000000000000000000 000000000000000A000000000000000000000000000000000000000000000 000000000000000000000000000000000000000     00000000                                                                                                                        000000000000000000
F0010000007385900002000090052543100041450500000000000000000201507230002001SECRET COLOR SAS                                  C000000000800000000000000000000000100010010000000000000000000000F0010000007385900220150723000101 00000000000000000000000000000000000000000000000000000000000000000000000000000000000000000000000000000000000000000N 00000000000NCONT   00    00000000000          00000000000000000000000000000000000000000000 000000000000000A000000000000000000000000000000000000000000000 000000000000000000000000000000000000000     00000000                                                                                                                        000000000000000000
F0010000007385900003000090052543100042505000000000000000000201507230002001SECRET COLOR SAS                                  C000000000050000000000000000000000100010010000000000000000000000F0010000007385900320150723000101 00000000000000000000000000000000000000000000000000000000000000000000000000000000000000000000000000000000000000000N 00000000000NCONT   00    00000000000          00000000000000000000000000000000000000000000 000000000000000A000000000000000000000000000000000000000000000 000000000000000000000000000000000000000     00000000                                                                                                                        000000000000000000
F0010000007385900004000090052543100023658300000000000000000201507230002001SECRET COLOR SAS                                  C000000000006400000000000000000000100010010000000000000000000000F0010000007385900420150723000101 00000000000000000000000000000000000000000000000000000000000000000000000000000000000000000000000000000000000000000N 00000000000NCONT   00    00000000000          00000000000000000000000000000000000000000000 000000000000000A000000000000000000000000000000000000000000000 000000000000000000000000000000000000000     00000000                                                                                                                        000000000000000000
F0010000007385900005000090052543100013552100000000000000000201507230002001SECRET COLOR SAS                                  D000000000006400000000000000000000100010010000000000000000000000F0010000007385900520150723000101 00000000000000000000000000000000000000000000000000000000000000000000000000000000000000000000000000000000000000000N 00000000000NCONT   00    00000000000          00000000000000000000000000000000000000000000 000000000000000A000000000000000000000000000000000000000000000 000000000000000000000000000000000000000     00000000                                                                                                                        000000000000000000
F0010000007386000001000090052543100011050500000000000000000201507230002001SECRET COLOR SAS                                  D000000000850000000000000000000000100010010000000000000000000000F0010000007386000120150723000101 00000000000000000000000000000000000000000000000000000000000000000000000000000000000000000000000000000000000000000N 00000000000NCONT   00    00000000000          00000000000000000000000000000000000000000000 000000000000000A000000000000000000000000000000000000000000000 000000000000000000000000000000000000000     00000000                                                                                                                        000000000000000000
F0010000007386000002000090052543100041450500000000000000000201507230002001SECRET COLOR SAS                                  C000000000800000000000000000000000100010010000000000000000000000F0010000007386000220150723000101 00000000000000000000000000000000000000000000000000000000000000000000000000000000000000000000000000000000000000000N 00000000000NCONT   00    00000000000          00000000000000000000000000000000000000000000 000000000000000A000000000000000000000000000000000000000000000 000000000000000000000000000000000000000     00000000                                                                                                                        000000000000000000
F0010000007386000003000090052543100042505000000000000000000201507230002001SECRET COLOR SAS                                  C000000000050000000000000000000000100010010000000000000000000000F0010000007386000320150723000101 00000000000000000000000000000000000000000000000000000000000000000000000000000000000000000000000000000000000000000N 00000000000NCONT   00    00000000000          00000000000000000000000000000000000000000000 000000000000000A000000000000000000000000000000000000000000000 000000000000000000000000000000000000000     00000000                                                                                                                        000000000000000000
F0010000007386000004000090052543100023658300000000000000000201507230002001SECRET COLOR SAS                                  C000000000006400000000000000000000100010010000000000000000000000F0010000007386000420150723000101 00000000000000000000000000000000000000000000000000000000000000000000000000000000000000000000000000000000000000000N 00000000000NCONT   00    00000000000          00000000000000000000000000000000000000000000 000000000000000A000000000000000000000000000000000000000000000 000000000000000000000000000000000000000     00000000                                                                                                                        000000000000000000
F0010000007386000005000090052543100013552100000000000000000201507230002001SECRET COLOR SAS                                  D000000000006400000000000000000000100010010000000000000000000000F0010000007386000520150723000101 00000000000000000000000000000000000000000000000000000000000000000000000000000000000000000000000000000000000000000N 00000000000NCONT   00    00000000000          00000000000000000000000000000000000000000000 000000000000000A000000000000000000000000000000000000000000000 000000000000000000000000000000000000000     00000000                                                                                                                        000000000000000000
F0010000007386100001000090052543100011050500000000000000000201507230002001SECRET COLOR SAS                                  D000000000850000000000000000000000100010010000000000000000000000F0010000007386100120150723000101 00000000000000000000000000000000000000000000000000000000000000000000000000000000000000000000000000000000000000000N 00000000000NCONT   00    00000000000          00000000000000000000000000000000000000000000 000000000000000A000000000000000000000000000000000000000000000 000000000000000000000000000000000000000     00000000                                                                                                                        000000000000000000
F0010000007386100002000090052543100041450500000000000000000201507230002001SECRET COLOR SAS                                  C000000000800000000000000000000000100010010000000000000000000000F0010000007386100220150723000101 00000000000000000000000000000000000000000000000000000000000000000000000000000000000000000000000000000000000000000N 00000000000NCONT   00    00000000000          00000000000000000000000000000000000000000000 000000000000000A000000000000000000000000000000000000000000000 000000000000000000000000000000000000000     00000000                                                                                                                        000000000000000000
F0010000007386100003000090052543100042505000000000000000000201507230002001SECRET COLOR SAS                                  C000000000050000000000000000000000100010010000000000000000000000F0010000007386100320150723000101 00000000000000000000000000000000000000000000000000000000000000000000000000000000000000000000000000000000000000000N 00000000000NCONT   00    00000000000          00000000000000000000000000000000000000000000 000000000000000A000000000000000000000000000000000000000000000 000000000000000000000000000000000000000     00000000                                                                                                                        000000000000000000
F0010000007386100004000090052543100023658300000000000000000201507230002001SECRET COLOR SAS                                  C000000000006400000000000000000000100010010000000000000000000000F0010000007386100420150723000101 00000000000000000000000000000000000000000000000000000000000000000000000000000000000000000000000000000000000000000N 00000000000NCONT   00    00000000000          00000000000000000000000000000000000000000000 000000000000000A000000000000000000000000000000000000000000000 000000000000000000000000000000000000000     00000000                                                                                                                        000000000000000000
F0010000007386100005000090052543100013552100000000000000000201507230002001SECRET COLOR SAS                                  D000000000006400000000000000000000100010010000000000000000000000F0010000007386100520150723000101 00000000000000000000000000000000000000000000000000000000000000000000000000000000000000000000000000000000000000000N 00000000000NCONT   00    00000000000          00000000000000000000000000000000000000000000 000000000000000A000000000000000000000000000000000000000000000 000000000000000000000000000000000000000     00000000                                                                                                                        000000000000000000
F0010000007386200001000000908086400011050500000000000000000201507230002001JOSE DEL CRISTO SANES FERNANDEZ                   D000000005500000000000000000000000100010010000000000000000000000F0010000007386200120150723000101 00000000000000000000000000000000000000000000000000000000000000000000000000000000000000000000000000000000000000000N 00000000000NCONT   00    00000000000          00000000000000000000000000000000000000000000 000000000000000A000000000000000000000000000000000000000000000 000000000000000000000000000000000000000     00000000                                                                                                                        000000000000000000
F0010000007386200002000000908086400041450500000000000000000201507230002001JOSE DEL CRISTO SANES FERNANDEZ                   C000000004500000000000000000000000100010010000000000000000000000F0010000007386200220150723000101 00000000000000000000000000000000000000000000000000000000000000000000000000000000000000000000000000000000000000000N 00000000000NCONT   00    00000000000          00000000000000000000000000000000000000000000 000000000000000A000000000000000000000000000000000000000000000 000000000000000000000000000000000000000     00000000                                                                                                                        000000000000000000
F0010000007386200003000000908086400042505000000000000000000201507230002001JOSE DEL CRISTO SANES FERNANDEZ                   C000000001000000000000000000000000100010010000000000000000000000F0010000007386200320150723000101 00000000000000000000000000000000000000000000000000000000000000000000000000000000000000000000000000000000000000000N 00000000000NCONT   00    00000000000          00000000000000000000000000000000000000000000 000000000000000A000000000000000000000000000000000000000000000 000000000000000000000000000000000000000     00000000                                                                                                                        000000000000000000
F0010000007386200004000000908086400023658300000000000000000201507230002001JOSE DEL CRISTO SANES FERNANDEZ                   C000000000036000000000000000000000100010010000000000000000000000F0010000007386200420150723000101 00000000000000000000000000000000000000000000000000000000000000000000000000000000000000000000000000000000000000000N 00000000000NCONT   00    00000000000          00000000000000000000000000000000000000000000 000000000000000A000000000000000000000000000000000000000000000 000000000000000000000000000000000000000     00000000                                                                                                                        000000000000000000
F0010000007386200005000000908086400013552100000000000000000201507230002001JOSE DEL CRISTO SANES FERNANDEZ                   D000000000036000000000000000000000100010010000000000000000000000F0010000007386200520150723000101 00000000000000000000000000000000000000000000000000000000000000000000000000000000000000000000000000000000000000000N 00000000000NCONT   00    00000000000          00000000000000000000000000000000000000000000 000000000000000A000000000000000000000000000000000000000000000 000000000000000000000000000000000000000     00000000                                                                                                                        000000000000000000
F0010000007386300001000090037881900011050500000000000000000201507230002001COMERCIALIZADORA RACOPI S.A.S                     D000000001960000000000000000000000100010010000000000000000000000F0010000007386300120150723000101 00000000000000000000000000000000000000000000000000000000000000000000000000000000000000000000000000000000000000000N 00000000000NCONT   00    00000000000          00000000000000000000000000000000000000000000 000000000000000A000000000000000000000000000000000000000000000 000000000000000000000000000000000000000     00000000                                                                                                                        000000000000000000
F0010000007386300002000090037881900041450500000000000000000201507230002001COMERCIALIZADORA RACOPI S.A.S                     C000000001460000000000000000000000100010010000000000000000000000F0010000007386300220150723000101 00000000000000000000000000000000000000000000000000000000000000000000000000000000000000000000000000000000000000000N 00000000000NCONT   00    00000000000          00000000000000000000000000000000000000000000 000000000000000A000000000000000000000000000000000000000000000 000000000000000000000000000000000000000     00000000                                                                                                                        000000000000000000
F0010000007386300003000090037881900042505000000000000000000201507230002001COMERCIALIZADORA RACOPI S.A.S                     C000000000500000000000000000000000100010010000000000000000000000F0010000007386300320150723000101 00000000000000000000000000000000000000000000000000000000000000000000000000000000000000000000000000000000000000000N 00000000000NCONT   00    00000000000          00000000000000000000000000000000000000000000 000000000000000A000000000000000000000000000000000000000000000 000000000000000000000000000000000000000     00000000                                                                                                                        000000000000000000
F0010000007386300004000090037881900023658300000000000000000201507230002001COMERCIALIZADORA RACOPI S.A.S                     C000000000011700000000000000000000100010010000000000000000000000F0010000007386300420150723000101 00000000000000000000000000000000000000000000000000000000000000000000000000000000000000000000000000000000000000000N 00000000000NCONT   00    00000000000          00000000000000000000000000000000000000000000 000000000000000A000000000000000000000000000000000000000000000 000000000000000000000000000000000000000     00000000                                                                                                                        000000000000000000
F0010000007386300005000090037881900013552100000000000000000201507230002001COMERCIALIZADORA RACOPI S.A.S                     D000000000011700000000000000000000100010010000000000000000000000F0010000007386300520150723000101 00000000000000000000000000000000000000000000000000000000000000000000000000000000000000000000000000000000000000000N 00000000000NCONT   00    00000000000          00000000000000000000000000000000000000000000 000000000000000A000000000000000000000000000000000000000000000 000000000000000000000000000000000000000     00000000                                                                                                                        000000000000000000
F0010000007386400001000090037881900011050500000000000000000201507230002001COMERCIALIZADORA RACOPI S.A.S                     D000000002040000000000000000000000100010010000000000000000000000F0010000007386400120150723000101 00000000000000000000000000000000000000000000000000000000000000000000000000000000000000000000000000000000000000000N 00000000000NCONT   00    00000000000          00000000000000000000000000000000000000000000 000000000000000A000000000000000000000000000000000000000000000 000000000000000000000000000000000000000     00000000                                                                                                                        000000000000000000
F0010000007386400002000090037881900041450500000000000000000201507230002001COMERCIALIZADORA RACOPI S.A.S                     C000000001540000000000000000000000100010010000000000000000000000F0010000007386400220150723000101 00000000000000000000000000000000000000000000000000000000000000000000000000000000000000000000000000000000000000000N 00000000000NCONT   00    00000000000          00000000000000000000000000000000000000000000 000000000000000A000000000000000000000000000000000000000000000 000000000000000000000000000000000000000     00000000                                                                                                                        000000000000000000
F0010000007386400003000090037881900042505000000000000000000201507230002001COMERCIALIZADORA RACOPI S.A.S                     C000000000500000000000000000000000100010010000000000000000000000F0010000007386400320150723000101 00000000000000000000000000000000000000000000000000000000000000000000000000000000000000000000000000000000000000000N 00000000000NCONT   00    00000000000          00000000000000000000000000000000000000000000 000000000000000A000000000000000000000000000000000000000000000 000000000000000000000000000000000000000     00000000                                                                                                                        000000000000000000
F0010000007386400004000090037881900023658300000000000000000201507230002001COMERCIALIZADORA RACOPI S.A.S                     C000000000012300000000000000000000100010010000000000000000000000F0010000007386400420150723000101 00000000000000000000000000000000000000000000000000000000000000000000000000000000000000000000000000000000000000000N 00000000000NCONT   00    00000000000          00000000000000000000000000000000000000000000 000000000000000A000000000000000000000000000000000000000000000 000000000000000000000000000000000000000     00000000                                                                                                                        000000000000000000
F0010000007386400005000090037881900013552100000000000000000201507230002001COMERCIALIZADORA RACOPI S.A.S                     D000000000012300000000000000000000100010010000000000000000000000F0010000007386400520150723000101 00000000000000000000000000000000000000000000000000000000000000000000000000000000000000000000000000000000000000000N 00000000000NCONT   00    00000000000          00000000000000000000000000000000000000000000 000000000000000A000000000000000000000000000000000000000000000 000000000000000000000000000000000000000     00000000                                                                                                                        000000000000000000
F0010000007386500001000090034602400011050500000000000000000201507230002001PRODUCTOS NACIONALES PARAFINICOS LA CUSTODIA S.A.SD000000001300000000000000000000000100010010000000000000000000000F0010000007386500120150723000101 00000000000000000000000000000000000000000000000000000000000000000000000000000000000000000000000000000000000000000N 00000000000NCONT   00    00000000000          00000000000000000000000000000000000000000000 000000000000000A000000000000000000000000000000000000000000000 000000000000000000000000000000000000000     00000000                                                                                                                        000000000000000000
F0010000007386500002000090034602400041450500000000000000000201507230002001PRODUCTOS NACIONALES PARAFINICOS LA CUSTODIA S.A.SC000000001200000000000000000000000100010010000000000000000000000F0010000007386500220150723000101 00000000000000000000000000000000000000000000000000000000000000000000000000000000000000000000000000000000000000000N 00000000000NCONT   00    00000000000          00000000000000000000000000000000000000000000 000000000000000A000000000000000000000000000000000000000000000 000000000000000000000000000000000000000     00000000                                                                                                                        000000000000000000
F0010000007386500003000090034602400042505000000000000000000201507230002001PRODUCTOS NACIONALES PARAFINICOS LA CUSTODIA S.A.SC000000000100000000000000000000000100010010000000000000000000000F0010000007386500320150723000101 00000000000000000000000000000000000000000000000000000000000000000000000000000000000000000000000000000000000000000N 00000000000NCONT   00    00000000000          00000000000000000000000000000000000000000000 000000000000000A000000000000000000000000000000000000000000000 000000000000000000000000000000000000000     00000000                                                                                                                        000000000000000000
F0010000007386500004000090034602400023658300000000000000000201507230002001PRODUCTOS NACIONALES PARAFINICOS LA CUSTODIA S.A.SC000000000009600000000000000000000100010010000000000000000000000F0010000007386500420150723000101 00000000000000000000000000000000000000000000000000000000000000000000000000000000000000000000000000000000000000000N 00000000000NCONT   00    00000000000          00000000000000000000000000000000000000000000 000000000000000A000000000000000000000000000000000000000000000 000000000000000000000000000000000000000     00000000                                                                                                                        000000000000000000
F0010000007386500005000090034602400013552100000000000000000201507230002001PRODUCTOS NACIONALES PARAFINICOS LA CUSTODIA S.A.SD000000000009600000000000000000000100010010000000000000000000000F0010000007386500520150723000101 00000000000000000000000000000000000000000000000000000000000000000000000000000000000000000000000000000000000000000N 00000000000NCONT   00    00000000000          00000000000000000000000000000000000000000000 000000000000000A000000000000000000000000000000000000000000000 000000000000000000000000000000000000000     00000000                                                                                                                        000000000000000000
F0010000007386600001000090034602400011050500000000000000000201507230002001PRODUCTOS NACIONALES PARAFINICOS LA CUSTODIA S.A.SD000000002000000000000000000000000100010010000000000000000000000F0010000007386600120150723000101 00000000000000000000000000000000000000000000000000000000000000000000000000000000000000000000000000000000000000000N 00000000000NCONT   00    00000000000          00000000000000000000000000000000000000000000 000000000000000A000000000000000000000000000000000000000000000 000000000000000000000000000000000000000     00000000                                                                                                                        000000000000000000
F0010000007386600002000090034602400041450500000000000000000201507230002001PRODUCTOS NACIONALES PARAFINICOS LA CUSTODIA S.A.SC000000001800000000000000000000000100010010000000000000000000000F0010000007386600220150723000101 00000000000000000000000000000000000000000000000000000000000000000000000000000000000000000000000000000000000000000N 00000000000NCONT   00    00000000000          00000000000000000000000000000000000000000000 000000000000000A000000000000000000000000000000000000000000000 000000000000000000000000000000000000000     00000000                                                                                                                        000000000000000000
F0010000007386600003000090034602400042505000000000000000000201507230002001PRODUCTOS NACIONALES PARAFINICOS LA CUSTODIA S.A.SC000000000200000000000000000000000100010010000000000000000000000F0010000007386600320150723000101 00000000000000000000000000000000000000000000000000000000000000000000000000000000000000000000000000000000000000000N 00000000000NCONT   00    00000000000          00000000000000000000000000000000000000000000 000000000000000A000000000000000000000000000000000000000000000 000000000000000000000000000000000000000     00000000                                                                                                                        000000000000000000
F0010000007386600004000090034602400023658300000000000000000201507230002001PRODUCTOS NACIONALES PARAFINICOS LA CUSTODIA S.A.SC000000000014400000000000000000000100010010000000000000000000000F0010000007386600420150723000101 00000000000000000000000000000000000000000000000000000000000000000000000000000000000000000000000000000000000000000N 00000000000NCONT   00    00000000000          00000000000000000000000000000000000000000000 000000000000000A000000000000000000000000000000000000000000000 000000000000000000000000000000000000000     00000000                                                                                                                        000000000000000000
F0010000007386600005000090034602400013552100000000000000000201507230002001PRODUCTOS NACIONALES PARAFINICOS LA CUSTODIA S.A.SD000000000014400000000000000000000100010010000000000000000000000F0010000007386600520150723000101 00000000000000000000000000000000000000000000000000000000000000000000000000000000000000000000000000000000000000000N 00000000000NCONT   00    00000000000          00000000000000000000000000000000000000000000 000000000000000A000000000000000000000000000000000000000000000 000000000000000000000000000000000000000     00000000                                                                                                                        000000000000000000
F0010000007386700001000080201490100011050500000000000000000201507230002001COMERCIALIZADORA PAITILLA                         D000000004100000000000000000000000100010010000000000000000000000F0010000007386700120150723000101 00000000000000000000000000000000000000000000000000000000000000000000000000000000000000000000000000000000000000000N 00000000000NCONT   00    00000000000          00000000000000000000000000000000000000000000 000000000000000A000000000000000000000000000000000000000000000 000000000000000000000000000000000000000     00000000                                                                                                                        000000000000000000
F0010000007386700002000080201490100041450500000000000000000201507230002001COMERCIALIZADORA PAITILLA                         C000000003600000000000000000000000100010010000000000000000000000F0010000007386700220150723000101 00000000000000000000000000000000000000000000000000000000000000000000000000000000000000000000000000000000000000000N 00000000000NCONT   00    00000000000          00000000000000000000000000000000000000000000 000000000000000A000000000000000000000000000000000000000000000 000000000000000000000000000000000000000     00000000                                                                                                                        000000000000000000
F0010000007386700003000080201490100042505000000000000000000201507230002001COMERCIALIZADORA PAITILLA                         C000000000500000000000000000000000100010010000000000000000000000F0010000007386700320150723000101 00000000000000000000000000000000000000000000000000000000000000000000000000000000000000000000000000000000000000000N 00000000000NCONT   00    00000000000          00000000000000000000000000000000000000000000 000000000000000A000000000000000000000000000000000000000000000 000000000000000000000000000000000000000     00000000                                                                                                                        000000000000000000
F0010000007386700004000080201490100023658300000000000000000201507230002001COMERCIALIZADORA PAITILLA                         C000000000028800000000000000000000100010010000000000000000000000F0010000007386700420150723000101 00000000000000000000000000000000000000000000000000000000000000000000000000000000000000000000000000000000000000000N 00000000000NCONT   00    00000000000          00000000000000000000000000000000000000000000 000000000000000A000000000000000000000000000000000000000000000 000000000000000000000000000000000000000     00000000                                                                                                                        000000000000000000
F0010000007386700005000080201490100013552100000000000000000201507230002001COMERCIALIZADORA PAITILLA                         D000000000028800000000000000000000100010010000000000000000000000F0010000007386700520150723000101 00000000000000000000000000000000000000000000000000000000000000000000000000000000000000000000000000000000000000000N 00000000000NCONT   00    00000000000          00000000000000000000000000000000000000000000 000000000000000A000000000000000000000000000000000000000000000 000000000000000000000000000000000000000     00000000                                                                                                                        000000000000000000
F0010000007386800001000002245670100011050500000000000000000201507230002001YOLANDA  TOBON                                    D000000011700000000000000000000000100010010000000000000000000000F0010000007386800120150723000101 00000000000000000000000000000000000000000000000000000000000000000000000000000000000000000000000000000000000000000N 00000000000NCONT   00    00000000000          00000000000000000000000000000000000000000000 000000000000000A000000000000000000000000000000000000000000000 000000000000000000000000000000000000000     00000000                                                                                                                        000000000000000000
F0010000007386800002000002245670100041450500000000000000000201507230002001YOLANDA  TOBON                                    C000000010000000000000000000000000100010010000000000000000000000F0010000007386800220150723000101 00000000000000000000000000000000000000000000000000000000000000000000000000000000000000000000000000000000000000000N 00000000000NCONT   00    00000000000          00000000000000000000000000000000000000000000 000000000000000A000000000000000000000000000000000000000000000 000000000000000000000000000000000000000     00000000                                                                                                                        000000000000000000
F0010000007386800003000002245670100042505000000000000000000201507230002001YOLANDA  TOBON                                    C000000001700000000000000000000000100010010000000000000000000000F0010000007386800320150723000101 00000000000000000000000000000000000000000000000000000000000000000000000000000000000000000000000000000000000000000N 00000000000NCONT   00    00000000000          00000000000000000000000000000000000000000000 000000000000000A000000000000000000000000000000000000000000000 000000000000000000000000000000000000000     00000000                                                                                                                        000000000000000000
F0010000007386800004000002245670100023658300000000000000000201507230002001YOLANDA  TOBON                                    C000000000080000000000000000000000100010010000000000000000000000F0010000007386800420150723000101 00000000000000000000000000000000000000000000000000000000000000000000000000000000000000000000000000000000000000000N 00000000000NCONT   00    00000000000          00000000000000000000000000000000000000000000 000000000000000A000000000000000000000000000000000000000000000 000000000000000000000000000000000000000     00000000                                                                                                                        000000000000000000
F0010000007386800005000002245670100013552100000000000000000201507230002001YOLANDA  TOBON                                    D000000000080000000000000000000000100010010000000000000000000000F0010000007386800520150723000101 00000000000000000000000000000000000000000000000000000000000000000000000000000000000000000000000000000000000000000N 00000000000NCONT   00    00000000000          00000000000000000000000000000000000000000000 000000000000000A000000000000000000000000000000000000000000000 000000000000000000000000000000000000000     00000000                                                                                                                        000000000000000000
F0010000007386900001000086000061500011050500000000000000000201507230002001DISTRIBUIDORA CORDOBA                             D000000004200000000000000000000000100010010000000000000000000000F0010000007386900120150723000101 00000000000000000000000000000000000000000000000000000000000000000000000000000000000000000000000000000000000000000N 00000000000NCONT   00    00000000000          00000000000000000000000000000000000000000000 000000000000000A000000000000000000000000000000000000000000000 000000000000000000000000000000000000000     00000000                                                                                                                        000000000000000000
F0010000007386900002000086000061500041450500000000000000000201507230002001DISTRIBUIDORA CORDOBA                             C000000003400000000000000000000000100010010000000000000000000000F0010000007386900220150723000101 00000000000000000000000000000000000000000000000000000000000000000000000000000000000000000000000000000000000000000N 00000000000NCONT   00    00000000000          00000000000000000000000000000000000000000000 000000000000000A000000000000000000000000000000000000000000000 000000000000000000000000000000000000000     00000000                                                                                                                        000000000000000000
F0010000007386900003000086000061500042505000000000000000000201507230002001DISTRIBUIDORA CORDOBA                             C000000000800000000000000000000000100010010000000000000000000000F0010000007386900320150723000101 00000000000000000000000000000000000000000000000000000000000000000000000000000000000000000000000000000000000000000N 00000000000NCONT   00    00000000000          00000000000000000000000000000000000000000000 000000000000000A000000000000000000000000000000000000000000000 000000000000000000000000000000000000000     00000000                                                                                                                        000000000000000000
F0010000007386900004000086000061500023658300000000000000000201507230002001DISTRIBUIDORA CORDOBA                             C000000000027200000000000000000000100010010000000000000000000000F0010000007386900420150723000101 00000000000000000000000000000000000000000000000000000000000000000000000000000000000000000000000000000000000000000N 00000000000NCONT   00    00000000000          00000000000000000000000000000000000000000000 000000000000000A000000000000000000000000000000000000000000000 000000000000000000000000000000000000000     00000000                                                                                                                        000000000000000000
F0010000007386900005000086000061500013552100000000000000000201507230002001DISTRIBUIDORA CORDOBA                             D000000000027200000000000000000000100010010000000000000000000000F0010000007386900520150723000101 00000000000000000000000000000000000000000000000000000000000000000000000000000000000000000000000000000000000000000N 00000000000NCONT   00    00000000000          00000000000000000000000000000000000000000000 000000000000000A000000000000000000000000000000000000000000000 000000000000000000000000000000000000000     00000000                                                                                                                        000000000000000000
F0010000007387000001000080012418800011050500000000000000000201507230002001DISTRITEC S.A.S                                   D000000004400000000000000000000000100010010000000000000000000000F0010000007387000120150723000101 00000000000000000000000000000000000000000000000000000000000000000000000000000000000000000000000000000000000000000N 00000000000NCONT   00    00000000000          00000000000000000000000000000000000000000000 000000000000000A000000000000000000000000000000000000000000000 000000000000000000000000000000000000000     00000000                                                                                                                        000000000000000000
F0010000007387000002000080012418800041450500000000000000000201507230002001DISTRITEC S.A.S                                   C000000004250000000000000000000000100010010000000000000000000000F0010000007387000220150723000101 00000000000000000000000000000000000000000000000000000000000000000000000000000000000000000000000000000000000000000N 00000000000NCONT   00    00000000000          00000000000000000000000000000000000000000000 000000000000000A000000000000000000000000000000000000000000000 000000000000000000000000000000000000000     00000000                                                                                                                        000000000000000000
F0010000007387000003000080012418800042505000000000000000000201507230002001DISTRITEC S.A.S                                   C000000000150000000000000000000000100010010000000000000000000000F0010000007387000320150723000101 00000000000000000000000000000000000000000000000000000000000000000000000000000000000000000000000000000000000000000N 00000000000NCONT   00    00000000000          00000000000000000000000000000000000000000000 000000000000000A000000000000000000000000000000000000000000000 000000000000000000000000000000000000000     00000000                                                                                                                        000000000000000000
F0010000007387000004000080012418800023658300000000000000000201507230002001DISTRITEC S.A.S                                   C000000000034000000000000000000000100010010000000000000000000000F0010000007387000420150723000101 00000000000000000000000000000000000000000000000000000000000000000000000000000000000000000000000000000000000000000N 00000000000NCONT   00    00000000000          00000000000000000000000000000000000000000000 000000000000000A000000000000000000000000000000000000000000000 000000000000000000000000000000000000000     00000000                                                                                                                        000000000000000000
F0010000007387000005000080012418800013552100000000000000000201507230002001DISTRITEC S.A.S                                   D000000000034000000000000000000000100010010000000000000000000000F0010000007387000520150723000101 00000000000000000000000000000000000000000000000000000000000000000000000000000000000000000000000000000000000000000N 00000000000NCONT   00    00000000000          00000000000000000000000000000000000000000000 000000000000000A000000000000000000000000000000000000000000000 000000000000000000000000000000000000000     00000000                                                                                                                        000000000000000000
F0010000007387100001000080012418800011050500000000000000000201507230002001DISTRITEC S.A.S                                   D000000001000000000000000000000000100010010000000000000000000000F0010000007387100120150723000101 00000000000000000000000000000000000000000000000000000000000000000000000000000000000000000000000000000000000000000N 00000000000NCONT   00    00000000000          00000000000000000000000000000000000000000000 000000000000000A000000000000000000000000000000000000000000000 000000000000000000000000000000000000000     00000000                                                                                                                        000000000000000000
F0010000007387100002000080012418800041450500000000000000000201507230002001DISTRITEC S.A.S                                   C000000000900000000000000000000000100010010000000000000000000000F0010000007387100220150723000101 00000000000000000000000000000000000000000000000000000000000000000000000000000000000000000000000000000000000000000N 00000000000NCONT   00    00000000000          00000000000000000000000000000000000000000000 000000000000000A000000000000000000000000000000000000000000000 000000000000000000000000000000000000000     00000000                                                                                                                        000000000000000000
F0010000007387100003000080012418800042505000000000000000000201507230002001DISTRITEC S.A.S                                   C000000000100000000000000000000000100010010000000000000000000000F0010000007387100320150723000101 00000000000000000000000000000000000000000000000000000000000000000000000000000000000000000000000000000000000000000N 00000000000NCONT   00    00000000000          00000000000000000000000000000000000000000000 000000000000000A000000000000000000000000000000000000000000000 000000000000000000000000000000000000000     00000000                                                                                                                        000000000000000000
F0010000007387100004000080012418800023658300000000000000000201507230002001DISTRITEC S.A.S                                   C000000000007200000000000000000000100010010000000000000000000000F0010000007387100420150723000101 00000000000000000000000000000000000000000000000000000000000000000000000000000000000000000000000000000000000000000N 00000000000NCONT   00    00000000000          00000000000000000000000000000000000000000000 000000000000000A000000000000000000000000000000000000000000000 000000000000000000000000000000000000000     00000000                                                                                                                        000000000000000000
F0010000007387100005000080012418800013552100000000000000000201507230002001DISTRITEC S.A.S                                   D000000000007200000000000000000000100010010000000000000000000000F0010000007387100520150723000101 00000000000000000000000000000000000000000000000000000000000000000000000000000000000000000000000000000000000000000N 00000000000NCONT   00    00000000000          00000000000000000000000000000000000000000000 000000000000000A000000000000000000000000000000000000000000000 000000000000000000000000000000000000000     00000000                                                                                                                        000000000000000000
F0010000007387200001000080202350700011050500000000000000000201507230002001CONNY DE LA COSTA SAS                             D000000001200000000000000000000000100010010000000000000000000000F0010000007387200120150723000101 00000000000000000000000000000000000000000000000000000000000000000000000000000000000000000000000000000000000000000N 00000000000NCONT   00    00000000000          00000000000000000000000000000000000000000000 000000000000000A000000000000000000000000000000000000000000000 000000000000000000000000000000000000000     00000000                                                                                                                        000000000000000000
F0010000007387200002000080202350700041450500000000000000000201507230002001CONNY DE LA COSTA SAS                             C000000001000000000000000000000000100010010000000000000000000000F0010000007387200220150723000101 00000000000000000000000000000000000000000000000000000000000000000000000000000000000000000000000000000000000000000N 00000000000NCONT   00    00000000000          00000000000000000000000000000000000000000000 000000000000000A000000000000000000000000000000000000000000000 000000000000000000000000000000000000000     00000000                                                                                                                        000000000000000000
F0010000007387200003000080202350700042505000000000000000000201507230002001CONNY DE LA COSTA SAS                             C000000000200000000000000000000000100010010000000000000000000000F0010000007387200320150723000101 00000000000000000000000000000000000000000000000000000000000000000000000000000000000000000000000000000000000000000N 00000000000NCONT   00    00000000000          00000000000000000000000000000000000000000000 000000000000000A000000000000000000000000000000000000000000000 000000000000000000000000000000000000000     00000000                                                                                                                        000000000000000000
F0010000007387200004000080202350700023658300000000000000000201507230002001CONNY DE LA COSTA SAS                             C000000000008000000000000000000000100010010000000000000000000000F0010000007387200420150723000101 00000000000000000000000000000000000000000000000000000000000000000000000000000000000000000000000000000000000000000N 00000000000NCONT   00    00000000000          00000000000000000000000000000000000000000000 000000000000000A000000000000000000000000000000000000000000000 000000000000000000000000000000000000000     00000000                                                                                                                        000000000000000000
F0010000007387200005000080202350700013552100000000000000000201507230002001CONNY DE LA COSTA SAS                             D000000000008000000000000000000000100010010000000000000000000000F0010000007387200520150723000101 00000000000000000000000000000000000000000000000000000000000000000000000000000000000000000000000000000000000000000N 00000000000NCONT   00    00000000000          00000000000000000000000000000000000000000000 000000000000000A000000000000000000000000000000000000000000000 000000000000000000000000000000000000000     00000000                                                                                                                        000000000000000000
F0010000007387300001000107252647100011050500000000000000000201507230002001JHON BYRON DUQUE DONADO (BODEGA JHONIFER)         D000000001100000000000000000000000100010010000000000000000000000F0010000007387300120150723000101 00000000000000000000000000000000000000000000000000000000000000000000000000000000000000000000000000000000000000000N 00000000000NCONT   00    00000000000          00000000000000000000000000000000000000000000 000000000000000A000000000000000000000000000000000000000000000 000000000000000000000000000000000000000     00000000                                                                                                                        000000000000000000
F0010000007387300002000107252647100041450500000000000000000201507230002001JHON BYRON DUQUE DONADO (BODEGA JHONIFER)         C000000000900000000000000000000000100010010000000000000000000000F0010000007387300220150723000101 00000000000000000000000000000000000000000000000000000000000000000000000000000000000000000000000000000000000000000N 00000000000NCONT   00    00000000000          00000000000000000000000000000000000000000000 000000000000000A000000000000000000000000000000000000000000000 000000000000000000000000000000000000000     00000000                                                                                                                        000000000000000000
F0010000007387300003000107252647100042505000000000000000000201507230002001JHON BYRON DUQUE DONADO (BODEGA JHONIFER)         C000000000200000000000000000000000100010010000000000000000000000F0010000007387300320150723000101 00000000000000000000000000000000000000000000000000000000000000000000000000000000000000000000000000000000000000000N 00000000000NCONT   00    00000000000          00000000000000000000000000000000000000000000 000000000000000A000000000000000000000000000000000000000000000 000000000000000000000000000000000000000     00000000                                                                                                                        000000000000000000
F0010000007387300004000107252647100023658300000000000000000201507230002001JHON BYRON DUQUE DONADO (BODEGA JHONIFER)         C000000000007200000000000000000000100010010000000000000000000000F0010000007387300420150723000101 00000000000000000000000000000000000000000000000000000000000000000000000000000000000000000000000000000000000000000N 00000000000NCONT   00    00000000000          00000000000000000000000000000000000000000000 000000000000000A000000000000000000000000000000000000000000000 000000000000000000000000000000000000000     00000000                                                                                                                        000000000000000000
F0010000007387300005000107252647100013552100000000000000000201507230002001JHON BYRON DUQUE DONADO (BODEGA JHONIFER)         D000000000007200000000000000000000100010010000000000000000000000F0010000007387300520150723000101 00000000000000000000000000000000000000000000000000000000000000000000000000000000000000000000000000000000000000000N 00000000000NCONT   00    00000000000          00000000000000000000000000000000000000000000 000000000000000A000000000000000000000000000000000000000000000 000000000000000000000000000000000000000     00000000                                                                                                                        000000000000000000
F0010000007387400001000000880264000011050500000000000000000201507230002001ARLEY GOMEZ                                       D000000002100000000000000000000000100010010000000000000000000000F0010000007387400120150723000101 00000000000000000000000000000000000000000000000000000000000000000000000000000000000000000000000000000000000000000N 00000000000NCONT   00    00000000000          00000000000000000000000000000000000000000000 000000000000000A000000000000000000000000000000000000000000000 000000000000000000000000000000000000000     00000000                                                                                                                        000000000000000000
F0010000007387400002000000880264000041450500000000000000000201507230002001ARLEY GOMEZ                                       C000000001800000000000000000000000100010010000000000000000000000F0010000007387400220150723000101 00000000000000000000000000000000000000000000000000000000000000000000000000000000000000000000000000000000000000000N 00000000000NCONT   00    00000000000          00000000000000000000000000000000000000000000 000000000000000A000000000000000000000000000000000000000000000 000000000000000000000000000000000000000     00000000                                                                                                                        000000000000000000
