F0010000009991000001000090067091400011050500000000000000000201703310002001COMERCIALIZADORA ESCOBAR ORTIZ                    D000000002900000000000000000000000100010010000000000000000000000F0010000009991000120170331000101 00000000000000000000000000000000000000000000000000000000000000000000000000000000000000000000000000000000000000000N 00000000000NCONT   00    00000000000          00000000000000000000000000000000000000000000 000000000000000A000000000000000000000000000000000000000000000 000000000000000000000000000000000000000     00000000                                                                                                                        000000000000000000
F0010000009991000002000090067091400041450500000000000000000201703310002001COMERCIALIZADORA ESCOBAR ORTIZ                    C000000002400000000000000000000000100010010000000000000000000000F0010000009991000220170331000101 00000000000000000000000000000000000000000000000000000000000000000000000000000000000000000000000000000000000000000N 00000000000NCONT   00    00000000000          00000000000000000000000000000000000000000000 000000000000000A000000000000000000000000000000000000000000000 000000000000000000000000000000000000000     00000000                                                                                                                        000000000000000000
F0010000009991000003000090067091400042505000000000000000000201703310002001COMERCIALIZADORA ESCOBAR ORTIZ                    C000000000500000000000000000000000100010010000000000000000000000F0010000009991000320170331000101 00000000000000000000000000000000000000000000000000000000000000000000000000000000000000000000000000000000000000000N 00000000000NCONT   00    00000000000          00000000000000000000000000000000000000000000 000000000000000A000000000000000000000000000000000000000000000 000000000000000000000000000000000000000     00000000                                                                                                                        000000000000000000
F0010000009991000004000090067091400023658300000000000000000201703310002001COMERCIALIZADORA ESCOBAR ORTIZ                    C000000000019200000000000000000000100010010000000000000000000000F0010000009991000420170331000101 00000000000000000000000000000000000000000000000000000000000000000000000000000000000000000000000000000000000000000N 00000000000NCONT   00    00000000000          00000000000000000000000000000000000000000000 000000000000000A000000000000000000000000000000000000000000000 000000000000000000000000000000000000000     00000000                                                                                                                        000000000000000000
F0010000009991000005000090067091400013552100000000000000000201703310002001COMERCIALIZADORA ESCOBAR ORTIZ                    D000000000019200000000000000000000100010010000000000000000000000F0010000009991000520170331000101 00000000000000000000000000000000000000000000000000000000000000000000000000000000000000000000000000000000000000000N 00000000000NCONT   00    00000000000          00000000000000000000000000000000000000000000 000000000000000A000000000000000000000000000000000000000000000 000000000000000000000000000000000000000     00000000                                                                                                                        000000000000000000
F0010000009991100001000007218448100011050500000000000000000201703310002001MARIANO SARABIA                                   D000000001660000000000000000000000100010010000000000000000000000F0010000009991100120170331000101 00000000000000000000000000000000000000000000000000000000000000000000000000000000000000000000000000000000000000000N 00000000000NCONT   00    00000000000          00000000000000000000000000000000000000000000 000000000000000A000000000000000000000000000000000000000000000 000000000000000000000000000000000000000     00000000                                                                                                                        000000000000000000
F0010000009991100002000007218448100041450500000000000000000201703310002001MARIANO SARABIA                                   C000000001000000000000000000000000100010010000000000000000000000F0010000009991100220170331000101 00000000000000000000000000000000000000000000000000000000000000000000000000000000000000000000000000000000000000000N 00000000000NCONT   00    00000000000          00000000000000000000000000000000000000000000 000000000000000A000000000000000000000000000000000000000000000 000000000000000000000000000000000000000     00000000                                                                                                                        000000000000000000
F0010000009991100003000007218448100042505000000000000000000201703310002001MARIANO SARABIA                                   C000000000660000000000000000000000100010010000000000000000000000F0010000009991100320170331000101 00000000000000000000000000000000000000000000000000000000000000000000000000000000000000000000000000000000000000000N 00000000000NCONT   00    00000000000          00000000000000000000000000000000000000000000 000000000000000A000000000000000000000000000000000000000000000 000000000000000000000000000000000000000     00000000                                                                                                                        000000000000000000
F0010000009991100004000007218448100023658300000000000000000201703310002001MARIANO SARABIA                                   C000000000008000000000000000000000100010010000000000000000000000F0010000009991100420170331000101 00000000000000000000000000000000000000000000000000000000000000000000000000000000000000000000000000000000000000000N 00000000000NCONT   00    00000000000          00000000000000000000000000000000000000000000 000000000000000A000000000000000000000000000000000000000000000 000000000000000000000000000000000000000     00000000                                                                                                                        000000000000000000
F0010000009991100005000007218448100013552100000000000000000201703310002001MARIANO SARABIA                                   D000000000008000000000000000000000100010010000000000000000000000F0010000009991100520170331000101 00000000000000000000000000000000000000000000000000000000000000000000000000000000000000000000000000000000000000000N 00000000000NCONT   00    00000000000          00000000000000000000000000000000000000000000 000000000000000A000000000000000000000000000000000000000000000 000000000000000000000000000000000000000     00000000                                                                                                                        000000000000000000
F0010000009991200001000007218448100011050500000000000000000201703310002001MARIANO SARABIA                                   D000000002300000000000000000000000100010010000000000000000000000F0010000009991200120170331000101 00000000000000000000000000000000000000000000000000000000000000000000000000000000000000000000000000000000000000000N 00000000000NCONT   00    00000000000          00000000000000000000000000000000000000000000 000000000000000A000000000000000000000000000000000000000000000 000000000000000000000000000000000000000     00000000                                                                                                                        000000000000000000
F0010000009991200002000007218448100041450500000000000000000201703310002001MARIANO SARABIA                                   C000000001200000000000000000000000100010010000000000000000000000F0010000009991200220170331000101 00000000000000000000000000000000000000000000000000000000000000000000000000000000000000000000000000000000000000000N 00000000000NCONT   00    00000000000          00000000000000000000000000000000000000000000 000000000000000A000000000000000000000000000000000000000000000 000000000000000000000000000000000000000     00000000                                                                                                                        000000000000000000
F0010000009991200003000007218448100042505000000000000000000201703310002001MARIANO SARABIA                                   C000000001100000000000000000000000100010010000000000000000000000F0010000009991200320170331000101 00000000000000000000000000000000000000000000000000000000000000000000000000000000000000000000000000000000000000000N 00000000000NCONT   00    00000000000          00000000000000000000000000000000000000000000 000000000000000A000000000000000000000000000000000000000000000 000000000000000000000000000000000000000     00000000                                                                                                                        000000000000000000
F0010000009991200004000007218448100023658300000000000000000201703310002001MARIANO SARABIA                                   C000000000009600000000000000000000100010010000000000000000000000F0010000009991200420170331000101 00000000000000000000000000000000000000000000000000000000000000000000000000000000000000000000000000000000000000000N 00000000000NCONT   00    00000000000          00000000000000000000000000000000000000000000 000000000000000A000000000000000000000000000000000000000000000 000000000000000000000000000000000000000     00000000                                                                                                                        000000000000000000
F0010000009991200005000007218448100013552100000000000000000201703310002001MARIANO SARABIA                                   D000000000009600000000000000000000100010010000000000000000000000F0010000009991200520170331000101 00000000000000000000000000000000000000000000000000000000000000000000000000000000000000000000000000000000000000000N 00000000000NCONT   00    00000000000          00000000000000000000000000000000000000000000 000000000000000A000000000000000000000000000000000000000000000 000000000000000000000000000000000000000     00000000                                                                                                                        000000000000000000
F0010000009991300001000007218448100011050500000000000000000201703310002001MARIANO SARABIA                                   D000000001800000000000000000000000100010010000000000000000000000F0010000009991300120170331000101 00000000000000000000000000000000000000000000000000000000000000000000000000000000000000000000000000000000000000000N 00000000000NCONT   00    00000000000          00000000000000000000000000000000000000000000 000000000000000A000000000000000000000000000000000000000000000 000000000000000000000000000000000000000     00000000                                                                                                                        000000000000000000
F0010000009991300002000007218448100041450500000000000000000201703310002001MARIANO SARABIA                                   C000000001250000000000000000000000100010010000000000000000000000F0010000009991300220170331000101 00000000000000000000000000000000000000000000000000000000000000000000000000000000000000000000000000000000000000000N 00000000000NCONT   00    00000000000          00000000000000000000000000000000000000000000 000000000000000A000000000000000000000000000000000000000000000 000000000000000000000000000000000000000     00000000                                                                                                                        000000000000000000
F0010000009991300003000007218448100042505000000000000000000201703310002001MARIANO SARABIA                                   C000000000550000000000000000000000100010010000000000000000000000F0010000009991300320170331000101 00000000000000000000000000000000000000000000000000000000000000000000000000000000000000000000000000000000000000000N 00000000000NCONT   00    00000000000          00000000000000000000000000000000000000000000 000000000000000A000000000000000000000000000000000000000000000 000000000000000000000000000000000000000     00000000                                                                                                                        000000000000000000
F0010000009991300004000007218448100023658300000000000000000201703310002001MARIANO SARABIA                                   C000000000010000000000000000000000100010010000000000000000000000F0010000009991300420170331000101 00000000000000000000000000000000000000000000000000000000000000000000000000000000000000000000000000000000000000000N 00000000000NCONT   00    00000000000          00000000000000000000000000000000000000000000 000000000000000A000000000000000000000000000000000000000000000 000000000000000000000000000000000000000     00000000                                                                                                                        000000000000000000
F0010000009991300005000007218448100013552100000000000000000201703310002001MARIANO SARABIA                                   D000000000010000000000000000000000100010010000000000000000000000F0010000009991300520170331000101 00000000000000000000000000000000000000000000000000000000000000000000000000000000000000000000000000000000000000000N 00000000000NCONT   00    00000000000          00000000000000000000000000000000000000000000 000000000000000A000000000000000000000000000000000000000000000 000000000000000000000000000000000000000     00000000                                                                                                                        000000000000000000
F0010000009991400001000081102758700013050500000000000000000201703310002001C.I. ABRACOL S.A EMA                              D000000077919000000000000000000000100010010000000000000000000000F0010000009991400120170331000101 00000000000000000000000000000000000000000000000000000000000000000000000000000000000000000000000000000000000000000N 00000000000NCONT   00    00000000000          00000000000000000000000000000000000000000000 000000000000000A000000000000000000000000000000000000000000000 000000000000000000000000000000000000000     00000000                                                                                                                        000000000000000000
F0010000009991400002000081102758700041450500000000000000000201703310002001C.I. ABRACOL S.A EMA                              C000000077800000000000000000000000100010010000000000000000000000F0010000009991400220170331000101 00000000000000000000000000000000000000000000000000000000000000000000000000000000000000000000000000000000000000000N 00000000000NCONT   00    00000000000          00000000000000000000000000000000000000000000 000000000000000A000000000000000000000000000000000000000000000 000000000000000000000000000000000000000     00000000                                                                                                                        000000000000000000
F0010000009991400003000081102758700041750100000000000000000201703310002001C.I. ABRACOL S.A EMA                              D000000002334000000000000000000000100010010000000000000000000000F0010000009991400320170331000101 00000000000000000000000000000000000000000000000000000000000000000000000000000000000000000000000000000000000000000N 00000000000NCONT   00    00000000000          00000000000000000000000000000000000000000000 000000000000000A000000000000000000000000000000000000000000000 000000000000000000000000000000000000000     00000000                                                                                                                        000000000000000000
F0010000009991400004000081102758700042505000000000000000000201703310002001C.I. ABRACOL S.A EMA                              C000000002453000000000000000000000100010010000000000000000000000F0010000009991400420170331000101 00000000000000000000000000000000000000000000000000000000000000000000000000000000000000000000000000000000000000000N 00000000000NCONT   00    00000000000          00000000000000000000000000000000000000000000 000000000000000A000000000000000000000000000000000000000000000 000000000000000000000000000000000000000     00000000                                                                                                                        000000000000000000
F0010000009991400005000081102758700023658300000000000000000201703310002001C.I. ABRACOL S.A EMA                              C000000000622400000000000000000000100010010000000000000000000000F0010000009991400520170331000101 00000000000000000000000000000000000000000000000000000000000000000000000000000000000000000000000000000000000000000N 00000000000NCONT   00    00000000000          00000000000000000000000000000000000000000000 000000000000000A000000000000000000000000000000000000000000000 000000000000000000000000000000000000000     00000000                                                                                                                        000000000000000000
F0010000009991400006000081102758700013552100000000000000000201703310002001C.I. ABRACOL S.A EMA                              D000000000622400000000000000000000100010010000000000000000000000F0010000009991400620170331000101 00000000000000000000000000000000000000000000000000000000000000000000000000000000000000000000000000000000000000000N 00000000000NCONT   00    00000000000          00000000000000000000000000000000000000000000 000000000000000A000000000000000000000000000000000000000000000 000000000000000000000000000000000000000     00000000                                                                                                                        000000000000000000
F0010000009991500001000090070882400011050500000000000000000201703310002001FERRESOLDAR DEL CARIBE S.A.S                      D000000001800000000000000000000000100010010000000000000000000000F0010000009991500120170331000101 00000000000000000000000000000000000000000000000000000000000000000000000000000000000000000000000000000000000000000N 00000000000NCONT   00    00000000000          00000000000000000000000000000000000000000000 000000000000000A000000000000000000000000000000000000000000000 000000000000000000000000000000000000000     00000000                                                                                                                        000000000000000000
F0010000009991500002000090070882400041450500000000000000000201703310002001FERRESOLDAR DEL CARIBE S.A.S                      C000000001600000000000000000000000100010010000000000000000000000F0010000009991500220170331000101 00000000000000000000000000000000000000000000000000000000000000000000000000000000000000000000000000000000000000000N 00000000000NCONT   00    00000000000          00000000000000000000000000000000000000000000 000000000000000A000000000000000000000000000000000000000000000 000000000000000000000000000000000000000     00000000                                                                                                                        000000000000000000
F0010000009991500003000090070882400042505000000000000000000201703310002001FERRESOLDAR DEL CARIBE S.A.S                      C000000000200000000000000000000000100010010000000000000000000000F0010000009991500320170331000101 00000000000000000000000000000000000000000000000000000000000000000000000000000000000000000000000000000000000000000N 00000000000NCONT   00    00000000000          00000000000000000000000000000000000000000000 000000000000000A000000000000000000000000000000000000000000000 000000000000000000000000000000000000000     00000000                                                                                                                        000000000000000000
F0010000009991500004000090070882400023658300000000000000000201703310002001FERRESOLDAR DEL CARIBE S.A.S                      C000000000012800000000000000000000100010010000000000000000000000F0010000009991500420170331000101 00000000000000000000000000000000000000000000000000000000000000000000000000000000000000000000000000000000000000000N 00000000000NCONT   00    00000000000          00000000000000000000000000000000000000000000 000000000000000A000000000000000000000000000000000000000000000 000000000000000000000000000000000000000     00000000                                                                                                                        000000000000000000
F0010000009991500005000090070882400013552100000000000000000201703310002001FERRESOLDAR DEL CARIBE S.A.S                      D000000000012800000000000000000000100010010000000000000000000000F0010000009991500520170331000101 00000000000000000000000000000000000000000000000000000000000000000000000000000000000000000000000000000000000000000N 00000000000NCONT   00    00000000000          00000000000000000000000000000000000000000000 000000000000000A000000000000000000000000000000000000000000000 000000000000000000000000000000000000000     00000000                                                                                                                        000000000000000000
F0010000009991600001000090070882400011050500000000000000000201703310002001FERRESOLDAR DEL CARIBE S.A.S                      D000000002200000000000000000000000100010010000000000000000000000F0010000009991600120170331000101 00000000000000000000000000000000000000000000000000000000000000000000000000000000000000000000000000000000000000000N 00000000000NCONT   00    00000000000          00000000000000000000000000000000000000000000 000000000000000A000000000000000000000000000000000000000000000 000000000000000000000000000000000000000     00000000                                                                                                                        000000000000000000
F0010000009991600002000090070882400041450500000000000000000201703310002001FERRESOLDAR DEL CARIBE S.A.S                      C000000001950000000000000000000000100010010000000000000000000000F0010000009991600220170331000101 00000000000000000000000000000000000000000000000000000000000000000000000000000000000000000000000000000000000000000N 00000000000NCONT   00    00000000000          00000000000000000000000000000000000000000000 000000000000000A000000000000000000000000000000000000000000000 000000000000000000000000000000000000000     00000000                                                                                                                        000000000000000000
F0010000009991600003000090070882400042505000000000000000000201703310002001FERRESOLDAR DEL CARIBE S.A.S                      C000000000250000000000000000000000100010010000000000000000000000F0010000009991600320170331000101 00000000000000000000000000000000000000000000000000000000000000000000000000000000000000000000000000000000000000000N 00000000000NCONT   00    00000000000          00000000000000000000000000000000000000000000 000000000000000A000000000000000000000000000000000000000000000 000000000000000000000000000000000000000     00000000                                                                                                                        000000000000000000
F0010000009991600004000090070882400023658300000000000000000201703310002001FERRESOLDAR DEL CARIBE S.A.S                      C000000000015600000000000000000000100010010000000000000000000000F0010000009991600420170331000101 00000000000000000000000000000000000000000000000000000000000000000000000000000000000000000000000000000000000000000N 00000000000NCONT   00    00000000000          00000000000000000000000000000000000000000000 000000000000000A000000000000000000000000000000000000000000000 000000000000000000000000000000000000000     00000000                                                                                                                        000000000000000000
F0010000009991600005000090070882400013552100000000000000000201703310002001FERRESOLDAR DEL CARIBE S.A.S                      D000000000015600000000000000000000100010010000000000000000000000F0010000009991600520170331000101 00000000000000000000000000000000000000000000000000000000000000000000000000000000000000000000000000000000000000000N 00000000000NCONT   00    00000000000          00000000000000000000000000000000000000000000 000000000000000A000000000000000000000000000000000000000000000 000000000000000000000000000000000000000     00000000                                                                                                                        000000000000000000
F0010000009991700001000007213133300011050500000000000000000201703310002001ALVARO ALBERTO FANDIÑO GOMEZ                     D000000001100000000000000000000000100010010000000000000000000000F0010000009991700120170331000101 00000000000000000000000000000000000000000000000000000000000000000000000000000000000000000000000000000000000000000N 00000000000NCONT   00    00000000000          00000000000000000000000000000000000000000000 000000000000000A000000000000000000000000000000000000000000000 000000000000000000000000000000000000000     00000000                                                                                                                        000000000000000000
F0010000009991700002000007213133300041450500000000000000000201703310002001ALVARO ALBERTO FANDIÑO GOMEZ                     C000000001000000000000000000000000100010010000000000000000000000F0010000009991700220170331000101 00000000000000000000000000000000000000000000000000000000000000000000000000000000000000000000000000000000000000000N 00000000000NCONT   00    00000000000          00000000000000000000000000000000000000000000 000000000000000A000000000000000000000000000000000000000000000 000000000000000000000000000000000000000     00000000                                                                                                                        000000000000000000
F0010000009991700003000007213133300042505000000000000000000201703310002001ALVARO ALBERTO FANDIÑO GOMEZ                     C000000000100000000000000000000000100010010000000000000000000000F0010000009991700320170331000101 00000000000000000000000000000000000000000000000000000000000000000000000000000000000000000000000000000000000000000N 00000000000NCONT   00    00000000000          00000000000000000000000000000000000000000000 000000000000000A000000000000000000000000000000000000000000000 000000000000000000000000000000000000000     00000000                                                                                                                        000000000000000000
F0010000009991700004000007213133300023658300000000000000000201703310002001ALVARO ALBERTO FANDIÑO GOMEZ                     C000000000008000000000000000000000100010010000000000000000000000F0010000009991700420170331000101 00000000000000000000000000000000000000000000000000000000000000000000000000000000000000000000000000000000000000000N 00000000000NCONT   00    00000000000          00000000000000000000000000000000000000000000 000000000000000A000000000000000000000000000000000000000000000 000000000000000000000000000000000000000     00000000                                                                                                                        000000000000000000
F0010000009991700005000007213133300013552100000000000000000201703310002001ALVARO ALBERTO FANDIÑO GOMEZ                     D000000000008000000000000000000000100010010000000000000000000000F0010000009991700520170331000101 00000000000000000000000000000000000000000000000000000000000000000000000000000000000000000000000000000000000000000N 00000000000NCONT   00    00000000000          00000000000000000000000000000000000000000000 000000000000000A000000000000000000000000000000000000000000000 000000000000000000000000000000000000000     00000000                                                                                                                        000000000000000000
F0010000009991800001000000744496800011050500000000000000000201703310002001TOMAS SANCHEZ                                     D000000001100000000000000000000000100010010000000000000000000000F0010000009991800120170331000101 00000000000000000000000000000000000000000000000000000000000000000000000000000000000000000000000000000000000000000N 00000000000NCONT   00    00000000000          00000000000000000000000000000000000000000000 000000000000000A000000000000000000000000000000000000000000000 000000000000000000000000000000000000000     00000000                                                                                                                        000000000000000000
F0010000009991800002000000744496800041450500000000000000000201703310002001TOMAS SANCHEZ                                     C000000001000000000000000000000000100010010000000000000000000000F0010000009991800220170331000101 00000000000000000000000000000000000000000000000000000000000000000000000000000000000000000000000000000000000000000N 00000000000NCONT   00    00000000000          00000000000000000000000000000000000000000000 000000000000000A000000000000000000000000000000000000000000000 000000000000000000000000000000000000000     00000000                                                                                                                        000000000000000000
F0010000009991800003000000744496800042505000000000000000000201703310002001TOMAS SANCHEZ                                     C000000000100000000000000000000000100010010000000000000000000000F0010000009991800320170331000101 00000000000000000000000000000000000000000000000000000000000000000000000000000000000000000000000000000000000000000N 00000000000NCONT   00    00000000000          00000000000000000000000000000000000000000000 000000000000000A000000000000000000000000000000000000000000000 000000000000000000000000000000000000000     00000000                                                                                                                        000000000000000000
F0010000009991800004000000744496800023658300000000000000000201703310002001TOMAS SANCHEZ                                     C000000000008000000000000000000000100010010000000000000000000000F0010000009991800420170331000101 00000000000000000000000000000000000000000000000000000000000000000000000000000000000000000000000000000000000000000N 00000000000NCONT   00    00000000000          00000000000000000000000000000000000000000000 000000000000000A000000000000000000000000000000000000000000000 000000000000000000000000000000000000000     00000000                                                                                                                        000000000000000000
F0010000009991800005000000744496800013552100000000000000000201703310002001TOMAS SANCHEZ                                     D000000000008000000000000000000000100010010000000000000000000000F0010000009991800520170331000101 00000000000000000000000000000000000000000000000000000000000000000000000000000000000000000000000000000000000000000N 00000000000NCONT   00    00000000000          00000000000000000000000000000000000000000000 000000000000000A000000000000000000000000000000000000000000000 000000000000000000000000000000000000000     00000000                                                                                                                        000000000000000000
F0010000009991900001000007213653800011050500000000000000000201703310002001VICTOR ECHAVEZ                                    D000000001300000000000000000000000100010010000000000000000000000F0010000009991900120170331000101 00000000000000000000000000000000000000000000000000000000000000000000000000000000000000000000000000000000000000000N 00000000000NCONT   00    00000000000          00000000000000000000000000000000000000000000 000000000000000A000000000000000000000000000000000000000000000 000000000000000000000000000000000000000     00000000                                                                                                                        000000000000000000
F0010000009991900002000007213653800041450500000000000000000201703310002001VICTOR ECHAVEZ                                    C000000001000000000000000000000000100010010000000000000000000000F0010000009991900220170331000101 00000000000000000000000000000000000000000000000000000000000000000000000000000000000000000000000000000000000000000N 00000000000NCONT   00    00000000000          00000000000000000000000000000000000000000000 000000000000000A000000000000000000000000000000000000000000000 000000000000000000000000000000000000000     00000000                                                                                                                        000000000000000000
F0010000009991900003000007213653800042505000000000000000000201703310002001VICTOR ECHAVEZ                                    C000000000300000000000000000000000100010010000000000000000000000F0010000009991900320170331000101 00000000000000000000000000000000000000000000000000000000000000000000000000000000000000000000000000000000000000000N 00000000000NCONT   00    00000000000          00000000000000000000000000000000000000000000 000000000000000A000000000000000000000000000000000000000000000 000000000000000000000000000000000000000     00000000                                                                                                                        000000000000000000
F0010000009991900004000007213653800023658300000000000000000201703310002001VICTOR ECHAVEZ                                    C000000000008000000000000000000000100010010000000000000000000000F0010000009991900420170331000101 00000000000000000000000000000000000000000000000000000000000000000000000000000000000000000000000000000000000000000N 00000000000NCONT   00    00000000000          00000000000000000000000000000000000000000000 000000000000000A000000000000000000000000000000000000000000000 000000000000000000000000000000000000000     00000000                                                                                                                        000000000000000000
F0010000009991900005000007213653800013552100000000000000000201703310002001VICTOR ECHAVEZ                                    D000000000008000000000000000000000100010010000000000000000000000F0010000009991900520170331000101 00000000000000000000000000000000000000000000000000000000000000000000000000000000000000000000000000000000000000000N 00000000000NCONT   00    00000000000          00000000000000000000000000000000000000000000 000000000000000A000000000000000000000000000000000000000000000 000000000000000000000000000000000000000     00000000                                                                                                                        000000000000000000
F0010000009992000001000007213653800011050500000000000000000201703310002001VICTOR ECHAVEZ                                    D000000009000000000000000000000000100010010000000000000000000000F0010000009992000120170331000101 00000000000000000000000000000000000000000000000000000000000000000000000000000000000000000000000000000000000000000N 00000000000NCONT   00    00000000000          00000000000000000000000000000000000000000000 000000000000000A000000000000000000000000000000000000000000000 000000000000000000000000000000000000000     00000000                                                                                                                        000000000000000000
F0010000009992000002000007213653800041450500000000000000000201703310002001VICTOR ECHAVEZ                                    C000000007000000000000000000000000100010010000000000000000000000F0010000009992000220170331000101 00000000000000000000000000000000000000000000000000000000000000000000000000000000000000000000000000000000000000000N 00000000000NCONT   00    00000000000          00000000000000000000000000000000000000000000 000000000000000A000000000000000000000000000000000000000000000 000000000000000000000000000000000000000     00000000                                                                                                                        000000000000000000
F0010000009992000003000007213653800042505000000000000000000201703310002001VICTOR ECHAVEZ                                    C000000002000000000000000000000000100010010000000000000000000000F0010000009992000320170331000101 00000000000000000000000000000000000000000000000000000000000000000000000000000000000000000000000000000000000000000N 00000000000NCONT   00    00000000000          00000000000000000000000000000000000000000000 000000000000000A000000000000000000000000000000000000000000000 000000000000000000000000000000000000000     00000000                                                                                                                        000000000000000000
F0010000009992000004000007213653800023658300000000000000000201703310002001VICTOR ECHAVEZ                                    C000000000056000000000000000000000100010010000000000000000000000F0010000009992000420170331000101 00000000000000000000000000000000000000000000000000000000000000000000000000000000000000000000000000000000000000000N 00000000000NCONT   00    00000000000          00000000000000000000000000000000000000000000 000000000000000A000000000000000000000000000000000000000000000 000000000000000000000000000000000000000     00000000                                                                                                                        000000000000000000
F0010000009992000005000007213653800013552100000000000000000201703310002001VICTOR ECHAVEZ                                    D000000000056000000000000000000000100010010000000000000000000000F0010000009992000520170331000101 00000000000000000000000000000000000000000000000000000000000000000000000000000000000000000000000000000000000000000N 00000000000NCONT   00    00000000000          00000000000000000000000000000000000000000000 000000000000000A000000000000000000000000000000000000000000000 000000000000000000000000000000000000000     00000000                                                                                                                        000000000000000000
F0010000009992100001000007213653800011050500000000000000000201703310002001VICTOR ECHAVEZ                                    D000000001300000000000000000000000100010010000000000000000000000F0010000009992100120170331000101 00000000000000000000000000000000000000000000000000000000000000000000000000000000000000000000000000000000000000000N 00000000000NCONT   00    00000000000          00000000000000000000000000000000000000000000 000000000000000A000000000000000000000000000000000000000000000 000000000000000000000000000000000000000     00000000                                                                                                                        000000000000000000
F0010000009992100002000007213653800041450500000000000000000201703310002001VICTOR ECHAVEZ                                    C000000001000000000000000000000000100010010000000000000000000000F0010000009992100220170331000101 00000000000000000000000000000000000000000000000000000000000000000000000000000000000000000000000000000000000000000N 00000000000NCONT   00    00000000000          00000000000000000000000000000000000000000000 000000000000000A000000000000000000000000000000000000000000000 000000000000000000000000000000000000000     00000000                                                                                                                        000000000000000000
F0010000009992100003000007213653800042505000000000000000000201703310002001VICTOR ECHAVEZ                                    C000000000300000000000000000000000100010010000000000000000000000F0010000009992100320170331000101 00000000000000000000000000000000000000000000000000000000000000000000000000000000000000000000000000000000000000000N 00000000000NCONT   00    00000000000          00000000000000000000000000000000000000000000 000000000000000A000000000000000000000000000000000000000000000 000000000000000000000000000000000000000     00000000                                                                                                                        000000000000000000
F0010000009992100004000007213653800023658300000000000000000201703310002001VICTOR ECHAVEZ                                    C000000000008000000000000000000000100010010000000000000000000000F0010000009992100420170331000101 00000000000000000000000000000000000000000000000000000000000000000000000000000000000000000000000000000000000000000N 00000000000NCONT   00    00000000000          00000000000000000000000000000000000000000000 000000000000000A000000000000000000000000000000000000000000000 000000000000000000000000000000000000000     00000000                                                                                                                        000000000000000000
F0010000009992100005000007213653800013552100000000000000000201703310002001VICTOR ECHAVEZ                                    D000000000008000000000000000000000100010010000000000000000000000F0010000009992100520170331000101 00000000000000000000000000000000000000000000000000000000000000000000000000000000000000000000000000000000000000000N 00000000000NCONT   00    00000000000          00000000000000000000000000000000000000000000 000000000000000A000000000000000000000000000000000000000000000 000000000000000000000000000000000000000     00000000                                                                                                                        000000000000000000
F0010000009992200001000090072516300011050500000000000000000201703310002001COMERCIALIZADORA GARCIA Y MELENDEZ                D000000001100000000000000000000000100010010000000000000000000000F0010000009992200120170331000101 00000000000000000000000000000000000000000000000000000000000000000000000000000000000000000000000000000000000000000N 00000000000NCONT   00    00000000000          00000000000000000000000000000000000000000000 000000000000000A000000000000000000000000000000000000000000000 000000000000000000000000000000000000000     00000000                                                                                                                        000000000000000000
F0010000009992200002000090072516300041450500000000000000000201703310002001COMERCIALIZADORA GARCIA Y MELENDEZ                C000000001000000000000000000000000100010010000000000000000000000F0010000009992200220170331000101 00000000000000000000000000000000000000000000000000000000000000000000000000000000000000000000000000000000000000000N 00000000000NCONT   00    00000000000          00000000000000000000000000000000000000000000 000000000000000A000000000000000000000000000000000000000000000 000000000000000000000000000000000000000     00000000                                                                                                                        000000000000000000
F0010000009992200003000090072516300042505000000000000000000201703310002001COMERCIALIZADORA GARCIA Y MELENDEZ                C000000000100000000000000000000000100010010000000000000000000000F0010000009992200320170331000101 00000000000000000000000000000000000000000000000000000000000000000000000000000000000000000000000000000000000000000N 00000000000NCONT   00    00000000000          00000000000000000000000000000000000000000000 000000000000000A000000000000000000000000000000000000000000000 000000000000000000000000000000000000000     00000000                                                                                                                        000000000000000000
F0010000009992200004000090072516300023658300000000000000000201703310002001COMERCIALIZADORA GARCIA Y MELENDEZ                C000000000008000000000000000000000100010010000000000000000000000F0010000009992200420170331000101 00000000000000000000000000000000000000000000000000000000000000000000000000000000000000000000000000000000000000000N 00000000000NCONT   00    00000000000          00000000000000000000000000000000000000000000 000000000000000A000000000000000000000000000000000000000000000 000000000000000000000000000000000000000     00000000                                                                                                                        000000000000000000
F0010000009992200005000090072516300013552100000000000000000201703310002001COMERCIALIZADORA GARCIA Y MELENDEZ                D000000000008000000000000000000000100010010000000000000000000000F0010000009992200520170331000101 00000000000000000000000000000000000000000000000000000000000000000000000000000000000000000000000000000000000000000N 00000000000NCONT   00    00000000000          00000000000000000000000000000000000000000000 000000000000000A000000000000000000000000000000000000000000000 000000000000000000000000000000000000000     00000000                                                                                                                        000000000000000000
F0010000009992300001000000870907300011050500000000000000000201703310002001SURTIDOR FERRETERO                                D000000004751000000000000000000000100010010000000000000000000000F0010000009992300120170331000101 00000000000000000000000000000000000000000000000000000000000000000000000000000000000000000000000000000000000000000N 00000000000NCONT   00    00000000000          00000000000000000000000000000000000000000000 000000000000000A000000000000000000000000000000000000000000000 000000000000000000000000000000000000000     00000000                                                                                                                        000000000000000000
F0010000009992300002000000870907300041450500000000000000000201703310002001SURTIDOR FERRETERO                                C000000003360000000000000000000000100010010000000000000000000000F0010000009992300220170331000101 00000000000000000000000000000000000000000000000000000000000000000000000000000000000000000000000000000000000000000N 00000000000NCONT   00    00000000000          00000000000000000000000000000000000000000000 000000000000000A000000000000000000000000000000000000000000000 000000000000000000000000000000000000000     00000000                                                                                                                        000000000000000000
F0010000009992300003000000870907300042505000000000000000000201703310002001SURTIDOR FERRETERO                                C000000001391000000000000000000000100010010000000000000000000000F0010000009992300320170331000101 00000000000000000000000000000000000000000000000000000000000000000000000000000000000000000000000000000000000000000N 00000000000NCONT   00    00000000000          00000000000000000000000000000000000000000000 000000000000000A000000000000000000000000000000000000000000000 000000000000000000000000000000000000000     00000000                                                                                                                        000000000000000000
F0010000009992300004000000870907300023658300000000000000000201703310002001SURTIDOR FERRETERO                                C000000000026900000000000000000000100010010000000000000000000000F0010000009992300420170331000101 00000000000000000000000000000000000000000000000000000000000000000000000000000000000000000000000000000000000000000N 00000000000NCONT   00    00000000000          00000000000000000000000000000000000000000000 000000000000000A000000000000000000000000000000000000000000000 000000000000000000000000000000000000000     00000000                                                                                                                        000000000000000000
F0010000009992300005000000870907300013552100000000000000000201703310002001SURTIDOR FERRETERO                                D000000000026900000000000000000000100010010000000000000000000000F0010000009992300520170331000101 00000000000000000000000000000000000000000000000000000000000000000000000000000000000000000000000000000000000000000N 00000000000NCONT   00    00000000000          00000000000000000000000000000000000000000000 000000000000000A000000000000000000000000000000000000000000000 000000000000000000000000000000000000000     00000000                                                                                                                        000000000000000000
F0010000009992400001000090063628300011050500000000000000000201703310002001INVERSIONES RADELCA S.A.S.                        D000000003600000000000000000000000100010010000000000000000000000F0010000009992400120170331000101 00000000000000000000000000000000000000000000000000000000000000000000000000000000000000000000000000000000000000000N 00000000000NCONT   00    00000000000          00000000000000000000000000000000000000000000 000000000000000A000000000000000000000000000000000000000000000 000000000000000000000000000000000000000     00000000                                                                                                                        000000000000000000
F0010000009992400002000090063628300041450500000000000000000201703310002001INVERSIONES RADELCA S.A.S.                        C000000003000000000000000000000000100010010000000000000000000000F0010000009992400220170331000101 00000000000000000000000000000000000000000000000000000000000000000000000000000000000000000000000000000000000000000N 00000000000NCONT   00    00000000000          00000000000000000000000000000000000000000000 000000000000000A000000000000000000000000000000000000000000000 000000000000000000000000000000000000000     00000000                                                                                                                        000000000000000000
F0010000009992400003000090063628300042505000000000000000000201703310002001INVERSIONES RADELCA S.A.S.                        C000000000600000000000000000000000100010010000000000000000000000F0010000009992400320170331000101 00000000000000000000000000000000000000000000000000000000000000000000000000000000000000000000000000000000000000000N 00000000000NCONT   00    00000000000          00000000000000000000000000000000000000000000 000000000000000A000000000000000000000000000000000000000000000 000000000000000000000000000000000000000     00000000                                                                                                                        000000000000000000
F0010000009992400004000090063628300023658300000000000000000201703310002001INVERSIONES RADELCA S.A.S.                        C000000000024000000000000000000000100010010000000000000000000000F0010000009992400420170331000101 00000000000000000000000000000000000000000000000000000000000000000000000000000000000000000000000000000000000000000N 00000000000NCONT   00    00000000000          00000000000000000000000000000000000000000000 000000000000000A000000000000000000000000000000000000000000000 000000000000000000000000000000000000000     00000000                                                                                                                        000000000000000000
F0010000009992400005000090063628300013552100000000000000000201703310002001INVERSIONES RADELCA S.A.S.                        D000000000024000000000000000000000100010010000000000000000000000F0010000009992400520170331000101 00000000000000000000000000000000000000000000000000000000000000000000000000000000000000000000000000000000000000000N 00000000000NCONT   00    00000000000          00000000000000000000000000000000000000000000 000000000000000A000000000000000000000000000000000000000000000 000000000000000000000000000000000000000     00000000                                                                                                                        000000000000000000
F0010000009992500001000090063628300011050500000000000000000201703310002001INVERSIONES RADELCA S.A.S.                        D000000005100000000000000000000000100010010000000000000000000000F0010000009992500120170331000101 00000000000000000000000000000000000000000000000000000000000000000000000000000000000000000000000000000000000000000N 00000000000NCONT   00    00000000000          00000000000000000000000000000000000000000000 000000000000000A000000000000000000000000000000000000000000000 000000000000000000000000000000000000000     00000000                                                                                                                        000000000000000000
F0010000009992500002000090063628300041450500000000000000000201703310002001INVERSIONES RADELCA S.A.S.                        C000000004500000000000000000000000100010010000000000000000000000F0010000009992500220170331000101 00000000000000000000000000000000000000000000000000000000000000000000000000000000000000000000000000000000000000000N 00000000000NCONT   00    00000000000          00000000000000000000000000000000000000000000 000000000000000A000000000000000000000000000000000000000000000 000000000000000000000000000000000000000     00000000                                                                                                                        000000000000000000
F0010000009992500003000090063628300042505000000000000000000201703310002001INVERSIONES RADELCA S.A.S.                        C000000000600000000000000000000000100010010000000000000000000000F0010000009992500320170331000101 00000000000000000000000000000000000000000000000000000000000000000000000000000000000000000000000000000000000000000N 00000000000NCONT   00    00000000000          00000000000000000000000000000000000000000000 000000000000000A000000000000000000000000000000000000000000000 000000000000000000000000000000000000000     00000000                                                                                                                        000000000000000000
F0010000009992500004000090063628300023658300000000000000000201703310002001INVERSIONES RADELCA S.A.S.                        C000000000036000000000000000000000100010010000000000000000000000F0010000009992500420170331000101 00000000000000000000000000000000000000000000000000000000000000000000000000000000000000000000000000000000000000000N 00000000000NCONT   00    00000000000          00000000000000000000000000000000000000000000 000000000000000A000000000000000000000000000000000000000000000 000000000000000000000000000000000000000     00000000                                                                                                                        000000000000000000
F0010000009992500005000090063628300013552100000000000000000201703310002001INVERSIONES RADELCA S.A.S.                        D000000000036000000000000000000000100010010000000000000000000000F0010000009992500520170331000101 00000000000000000000000000000000000000000000000000000000000000000000000000000000000000000000000000000000000000000N 00000000000NCONT   00    00000000000          00000000000000000000000000000000000000000000 000000000000000A000000000000000000000000000000000000000000000 000000000000000000000000000000000000000     00000000                                                                                                                        000000000000000000
F0010000009992600001000001022529300011050500000000000000000201703310002001ALBERTO ALVAREZ ISAZA                             D000000000350000000000000000000000100010010000000000000000000000F0010000009992600120170331000101 00000000000000000000000000000000000000000000000000000000000000000000000000000000000000000000000000000000000000000N 00000000000NCONT   00    00000000000          00000000000000000000000000000000000000000000 000000000000000A000000000000000000000000000000000000000000000 000000000000000000000000000000000000000     00000000                                                                                                                        000000000000000000
F0010000009992600002000001022529300041450500000000000000000201703310002001ALBERTO ALVAREZ ISAZA                             C000000000350000000000000000000000100010010000000000000000000000F0010000009992600220170331000101 00000000000000000000000000000000000000000000000000000000000000000000000000000000000000000000000000000000000000000N 00000000000NCONT   00    00000000000          00000000000000000000000000000000000000000000 000000000000000A000000000000000000000000000000000000000000000 000000000000000000000000000000000000000     00000000                                                                                                                        000000000000000000
F0010000009992600003000001022529300042505000000000000000000201703310002001ALBERTO ALVAREZ ISAZA                             C000000000000000000000000000000000100010010000000000000000000000F0010000009992600320170331000101 00000000000000000000000000000000000000000000000000000000000000000000000000000000000000000000000000000000000000000N 00000000000NCONT   00    00000000000          00000000000000000000000000000000000000000000 000000000000000A000000000000000000000000000000000000000000000 000000000000000000000000000000000000000     00000000                                                                                                                        000000000000000000
F0010000009992600004000001022529300023658300000000000000000201703310002001ALBERTO ALVAREZ ISAZA                             C000000000002800000000000000000000100010010000000000000000000000F0010000009992600420170331000101 00000000000000000000000000000000000000000000000000000000000000000000000000000000000000000000000000000000000000000N 00000000000NCONT   00    00000000000          00000000000000000000000000000000000000000000 000000000000000A000000000000000000000000000000000000000000000 000000000000000000000000000000000000000     00000000                                                                                                                        000000000000000000
F0010000009992600005000001022529300013552100000000000000000201703310002001ALBERTO ALVAREZ ISAZA                             D000000000002800000000000000000000100010010000000000000000000000F0010000009992600520170331000101 00000000000000000000000000000000000000000000000000000000000000000000000000000000000000000000000000000000000000000N 00000000000NCONT   00    00000000000          00000000000000000000000000000000000000000000 000000000000000A000000000000000000000000000000000000000000000 000000000000000000000000000000000000000     00000000                                                                                                                        000000000000000000
F0010000009992700001000000742399700011050500000000000000000201703310002001CACHARRERIA EL NUEVO CHADID                       D000000033300000000000000000000000100010010000000000000000000000F0010000009992700120170331000101 00000000000000000000000000000000000000000000000000000000000000000000000000000000000000000000000000000000000000000N 00000000000NCONT   00    00000000000          00000000000000000000000000000000000000000000 000000000000000A000000000000000000000000000000000000000000000 000000000000000000000000000000000000000     00000000                                                                                                                        000000000000000000
F0010000009992700002000000742399700041450500000000000000000201703310002001CACHARRERIA EL NUEVO CHADID                       C000000027300000000000000000000000100010010000000000000000000000F0010000009992700220170331000101 00000000000000000000000000000000000000000000000000000000000000000000000000000000000000000000000000000000000000000N 00000000000NCONT   00    00000000000          00000000000000000000000000000000000000000000 000000000000000A000000000000000000000000000000000000000000000 000000000000000000000000000000000000000     00000000                                                                                                                        000000000000000000
F0010000009992700003000000742399700042505000000000000000000201703310002001CACHARRERIA EL NUEVO CHADID                       C000000006000000000000000000000000100010010000000000000000000000F0010000009992700320170331000101 00000000000000000000000000000000000000000000000000000000000000000000000000000000000000000000000000000000000000000N 00000000000NCONT   00    00000000000          00000000000000000000000000000000000000000000 000000000000000A000000000000000000000000000000000000000000000 000000000000000000000000000000000000000     00000000                                                                                                                        000000000000000000
F0010000009992700004000000742399700023658300000000000000000201703310002001CACHARRERIA EL NUEVO CHADID                       C000000000218400000000000000000000100010010000000000000000000000F0010000009992700420170331000101 00000000000000000000000000000000000000000000000000000000000000000000000000000000000000000000000000000000000000000N 00000000000NCONT   00    00000000000          00000000000000000000000000000000000000000000 000000000000000A000000000000000000000000000000000000000000000 000000000000000000000000000000000000000     00000000                                                                                                                        000000000000000000
F0010000009992700005000000742399700013552100000000000000000201703310002001CACHARRERIA EL NUEVO CHADID                       D000000000218400000000000000000000100010010000000000000000000000F0010000009992700520170331000101 00000000000000000000000000000000000000000000000000000000000000000000000000000000000000000000000000000000000000000N 00000000000NCONT   00    00000000000          00000000000000000000000000000000000000000000 000000000000000A000000000000000000000000000000000000000000000 000000000000000000000000000000000000000     00000000                                                                                                                        000000000000000000
F0010000009992800001000090013859100011050500000000000000000201703310002001ALUMARKET BARRANQUILLA S.A.S.                     D000000002120000000000000000000000100010010000000000000000000000F0010000009992800120170331000101 00000000000000000000000000000000000000000000000000000000000000000000000000000000000000000000000000000000000000000N 00000000000NCONT   00    00000000000          00000000000000000000000000000000000000000000 000000000000000A000000000000000000000000000000000000000000000 000000000000000000000000000000000000000     00000000                                                                                                                        000000000000000000
F0010000009992800002000090013859100041450500000000000000000201703310002001ALUMARKET BARRANQUILLA S.A.S.                     C000000001920000000000000000000000100010010000000000000000000000F0010000009992800220170331000101 00000000000000000000000000000000000000000000000000000000000000000000000000000000000000000000000000000000000000000N 00000000000NCONT   00    00000000000          00000000000000000000000000000000000000000000 000000000000000A000000000000000000000000000000000000000000000 000000000000000000000000000000000000000     00000000                                                                                                                        000000000000000000
F0010000009992800003000090013859100042505000000000000000000201703310002001ALUMARKET BARRANQUILLA S.A.S.                     C000000000200000000000000000000000100010010000000000000000000000F0010000009992800320170331000101 00000000000000000000000000000000000000000000000000000000000000000000000000000000000000000000000000000000000000000N 00000000000NCONT   00    00000000000          00000000000000000000000000000000000000000000 000000000000000A000000000000000000000000000000000000000000000 000000000000000000000000000000000000000     00000000                                                                                                                        000000000000000000
F0010000009992800004000090013859100023658300000000000000000201703310002001ALUMARKET BARRANQUILLA S.A.S.                     C000000000015400000000000000000000100010010000000000000000000000F0010000009992800420170331000101 00000000000000000000000000000000000000000000000000000000000000000000000000000000000000000000000000000000000000000N 00000000000NCONT   00    00000000000          00000000000000000000000000000000000000000000 000000000000000A000000000000000000000000000000000000000000000 000000000000000000000000000000000000000     00000000                                                                                                                        000000000000000000
F0010000009992800005000090013859100013552100000000000000000201703310002001ALUMARKET BARRANQUILLA S.A.S.                     D000000000015400000000000000000000100010010000000000000000000000F0010000009992800520170331000101 00000000000000000000000000000000000000000000000000000000000000000000000000000000000000000000000000000000000000000N 00000000000NCONT   00    00000000000          00000000000000000000000000000000000000000000 000000000000000A000000000000000000000000000000000000000000000 000000000000000000000000000000000000000     00000000                                                                                                                        000000000000000000
F0010000009992900001000000742399700011050500000000000000000201703310002001CACHARRERIA EL NUEVO CHADID                       D000000001080000000000000000000000100010010000000000000000000000F0010000009992900120170331000101 00000000000000000000000000000000000000000000000000000000000000000000000000000000000000000000000000000000000000000N 00000000000NCONT   00    00000000000          00000000000000000000000000000000000000000000 000000000000000A000000000000000000000000000000000000000000000 000000000000000000000000000000000000000     00000000                                                                                                                        000000000000000000
F0010000009992900002000000742399700041450500000000000000000201703310002001CACHARRERIA EL NUEVO CHADID                       C000000000900000000000000000000000100010010000000000000000000000F0010000009992900220170331000101 00000000000000000000000000000000000000000000000000000000000000000000000000000000000000000000000000000000000000000N 00000000000NCONT   00    00000000000          00000000000000000000000000000000000000000000 000000000000000A000000000000000000000000000000000000000000000 000000000000000000000000000000000000000     00000000                                                                                                                        000000000000000000
F0010000009992900003000000742399700042505000000000000000000201703310002001CACHARRERIA EL NUEVO CHADID                       C000000000180000000000000000000000100010010000000000000000000000F0010000009992900320170331000101 00000000000000000000000000000000000000000000000000000000000000000000000000000000000000000000000000000000000000000N 00000000000NCONT   00    00000000000          00000000000000000000000000000000000000000000 000000000000000A000000000000000000000000000000000000000000000 000000000000000000000000000000000000000     00000000                                                                                                                        000000000000000000
F0010000009992900004000000742399700023658300000000000000000201703310002001CACHARRERIA EL NUEVO CHADID                       C000000000007200000000000000000000100010010000000000000000000000F0010000009992900420170331000101 00000000000000000000000000000000000000000000000000000000000000000000000000000000000000000000000000000000000000000N 00000000000NCONT   00    00000000000          00000000000000000000000000000000000000000000 000000000000000A000000000000000000000000000000000000000000000 000000000000000000000000000000000000000     00000000                                                                                                                        000000000000000000
F0010000009992900005000000742399700013552100000000000000000201703310002001CACHARRERIA EL NUEVO CHADID                       D000000000007200000000000000000000100010010000000000000000000000F0010000009992900520170331000101 00000000000000000000000000000000000000000000000000000000000000000000000000000000000000000000000000000000000000000N 00000000000NCONT   00    00000000000          00000000000000000000000000000000000000000000 000000000000000A000000000000000000000000000000000000000000000 000000000000000000000000000000000000000     00000000                                                                                                                        000000000000000000
F0010000009993000001000090061985600011050500000000000000000201703310002001COMERCIALIZADORA PATRY SAS                        D000000020000000000000000000000000100010010000000000000000000000F0010000009993000120170331000101 00000000000000000000000000000000000000000000000000000000000000000000000000000000000000000000000000000000000000000N 00000000000NCONT   00    00000000000          00000000000000000000000000000000000000000000 000000000000000A000000000000000000000000000000000000000000000 000000000000000000000000000000000000000     00000000                                                                                                                        000000000000000000
F0010000009993000002000090061985600041450500000000000000000201703310002001COMERCIALIZADORA PATRY SAS                        C000000019000000000000000000000000100010010000000000000000000000F0010000009993000220170331000101 00000000000000000000000000000000000000000000000000000000000000000000000000000000000000000000000000000000000000000N 00000000000NCONT   00    00000000000          00000000000000000000000000000000000000000000 000000000000000A000000000000000000000000000000000000000000000 000000000000000000000000000000000000000     00000000                                                                                                                        000000000000000000
F0010000009993000003000090061985600042505000000000000000000201703310002001COMERCIALIZADORA PATRY SAS                        C000000001000000000000000000000000100010010000000000000000000000F0010000009993000320170331000101 00000000000000000000000000000000000000000000000000000000000000000000000000000000000000000000000000000000000000000N 00000000000NCONT   00    00000000000          00000000000000000000000000000000000000000000 000000000000000A000000000000000000000000000000000000000000000 000000000000000000000000000000000000000     00000000                                                                                                                        000000000000000000
F0010000009993000004000090061985600023658300000000000000000201703310002001COMERCIALIZADORA PATRY SAS                        C000000000152000000000000000000000100010010000000000000000000000F0010000009993000420170331000101 00000000000000000000000000000000000000000000000000000000000000000000000000000000000000000000000000000000000000000N 00000000000NCONT   00    00000000000          00000000000000000000000000000000000000000000 000000000000000A000000000000000000000000000000000000000000000 000000000000000000000000000000000000000     00000000                                                                                                                        000000000000000000
F0010000009993000005000090061985600013552100000000000000000201703310002001COMERCIALIZADORA PATRY SAS                        D000000000152000000000000000000000100010010000000000000000000000F0010000009993000520170331000101 00000000000000000000000000000000000000000000000000000000000000000000000000000000000000000000000000000000000000000N 00000000000NCONT   00    00000000000          00000000000000000000000000000000000000000000 000000000000000A000000000000000000000000000000000000000000000 000000000000000000000000000000000000000     00000000                                                                                                                        000000000000000000
F0010000009993100001000086003979400011050500000000000000000201703310002001CALYPSO BARRANQUILLA LTDA                         D000000000940000000000000000000000100010010000000000000000000000F0010000009993100120170331000101 00000000000000000000000000000000000000000000000000000000000000000000000000000000000000000000000000000000000000000N 00000000000NCONT   00    00000000000          00000000000000000000000000000000000000000000 000000000000000A000000000000000000000000000000000000000000000 000000000000000000000000000000000000000     00000000                                                                                                                        000000000000000000
F0010000009993100002000086003979400041450500000000000000000201703310002001CALYPSO BARRANQUILLA LTDA                         C000000000660000000000000000000000100010010000000000000000000000F0010000009993100220170331000101 00000000000000000000000000000000000000000000000000000000000000000000000000000000000000000000000000000000000000000N 00000000000NCONT   00    00000000000          00000000000000000000000000000000000000000000 000000000000000A000000000000000000000000000000000000000000000 000000000000000000000000000000000000000     00000000                                                                                                                        000000000000000000
F0010000009993100003000086003979400042505000000000000000000201703310002001CALYPSO BARRANQUILLA LTDA                         C000000000280000000000000000000000100010010000000000000000000000F0010000009993100320170331000101 00000000000000000000000000000000000000000000000000000000000000000000000000000000000000000000000000000000000000000N 00000000000NCONT   00    00000000000          00000000000000000000000000000000000000000000 000000000000000A000000000000000000000000000000000000000000000 000000000000000000000000000000000000000     00000000                                                                                                                        000000000000000000
F0010000009993100004000086003979400023658300000000000000000201703310002001CALYPSO BARRANQUILLA LTDA                         C000000000005300000000000000000000100010010000000000000000000000F0010000009993100420170331000101 00000000000000000000000000000000000000000000000000000000000000000000000000000000000000000000000000000000000000000N 00000000000NCONT   00    00000000000          00000000000000000000000000000000000000000000 000000000000000A000000000000000000000000000000000000000000000 000000000000000000000000000000000000000     00000000                                                                                                                        000000000000000000
F0010000009993100005000086003979400013552100000000000000000201703310002001CALYPSO BARRANQUILLA LTDA                         D000000000005300000000000000000000100010010000000000000000000000F0010000009993100520170331000101 00000000000000000000000000000000000000000000000000000000000000000000000000000000000000000000000000000000000000000N 00000000000NCONT   00    00000000000          00000000000000000000000000000000000000000000 000000000000000A000000000000000000000000000000000000000000000 000000000000000000000000000000000000000     00000000                                                                                                                        000000000000000000
F0010000009993200001000080202350700011050500000000000000000201703310002001CONNY DE LA COSTA SAS                             D000000001250000000000000000000000100010010000000000000000000000F0010000009993200120170331000101 00000000000000000000000000000000000000000000000000000000000000000000000000000000000000000000000000000000000000000N 00000000000NCONT   00    00000000000          00000000000000000000000000000000000000000000 000000000000000A000000000000000000000000000000000000000000000 000000000000000000000000000000000000000     00000000                                                                                                                        000000000000000000
F0010000009993200002000080202350700041450500000000000000000201703310002001CONNY DE LA COSTA SAS                             C000000001200000000000000000000000100010010000000000000000000000F0010000009993200220170331000101 00000000000000000000000000000000000000000000000000000000000000000000000000000000000000000000000000000000000000000N 00000000000NCONT   00    00000000000          00000000000000000000000000000000000000000000 000000000000000A000000000000000000000000000000000000000000000 000000000000000000000000000000000000000     00000000                                                                                                                        000000000000000000
F0010000009993200003000080202350700042505000000000000000000201703310002001CONNY DE LA COSTA SAS                             C000000000050000000000000000000000100010010000000000000000000000F0010000009993200320170331000101 00000000000000000000000000000000000000000000000000000000000000000000000000000000000000000000000000000000000000000N 00000000000NCONT   00    00000000000          00000000000000000000000000000000000000000000 000000000000000A000000000000000000000000000000000000000000000 000000000000000000000000000000000000000     00000000                                                                                                                        000000000000000000
F0010000009993200004000080202350700023658300000000000000000201703310002001CONNY DE LA COSTA SAS                             C000000000009600000000000000000000100010010000000000000000000000F0010000009993200420170331000101 00000000000000000000000000000000000000000000000000000000000000000000000000000000000000000000000000000000000000000N 00000000000NCONT   00    00000000000          00000000000000000000000000000000000000000000 000000000000000A000000000000000000000000000000000000000000000 000000000000000000000000000000000000000     00000000                                                                                                                        000000000000000000
F0010000009993200005000080202350700013552100000000000000000201703310002001CONNY DE LA COSTA SAS                             D000000000009600000000000000000000100010010000000000000000000000F0010000009993200520170331000101 00000000000000000000000000000000000000000000000000000000000000000000000000000000000000000000000000000000000000000N 00000000000NCONT   00    00000000000          00000000000000000000000000000000000000000000 000000000000000A000000000000000000000000000000000000000000000 000000000000000000000000000000000000000     00000000                                                                                                                        000000000000000000
F0010000009993300001000090037881900011050500000000000000000201703310002001COMERCIALIZADORA RACOPI S.A.S                     D000000002160000000000000000000000100010010000000000000000000000F0010000009993300120170331000101 00000000000000000000000000000000000000000000000000000000000000000000000000000000000000000000000000000000000000000N 00000000000NCONT   00    00000000000          00000000000000000000000000000000000000000000 000000000000000A000000000000000000000000000000000000000000000 000000000000000000000000000000000000000     00000000                                                                                                                        000000000000000000
F0010000009993300002000090037881900041450500000000000000000201703310002001COMERCIALIZADORA RACOPI S.A.S                     C000000001860000000000000000000000100010010000000000000000000000F0010000009993300220170331000101 00000000000000000000000000000000000000000000000000000000000000000000000000000000000000000000000000000000000000000N 00000000000NCONT   00    00000000000          00000000000000000000000000000000000000000000 000000000000000A000000000000000000000000000000000000000000000 000000000000000000000000000000000000000     00000000                                                                                                                        000000000000000000
F0010000009993300003000090037881900042505000000000000000000201703310002001COMERCIALIZADORA RACOPI S.A.S                     C000000000300000000000000000000000100010010000000000000000000000F0010000009993300320170331000101 00000000000000000000000000000000000000000000000000000000000000000000000000000000000000000000000000000000000000000N 00000000000NCONT   00    00000000000          00000000000000000000000000000000000000000000 000000000000000A000000000000000000000000000000000000000000000 000000000000000000000000000000000000000     00000000                                                                                                                        000000000000000000
F0010000009993300004000090037881900023658300000000000000000201703310002001COMERCIALIZADORA RACOPI S.A.S                     C000000000014900000000000000000000100010010000000000000000000000F0010000009993300420170331000101 00000000000000000000000000000000000000000000000000000000000000000000000000000000000000000000000000000000000000000N 00000000000NCONT   00    00000000000          00000000000000000000000000000000000000000000 000000000000000A000000000000000000000000000000000000000000000 000000000000000000000000000000000000000     00000000                                                                                                                        000000000000000000
F0010000009993300005000090037881900013552100000000000000000201703310002001COMERCIALIZADORA RACOPI S.A.S                     D000000000014900000000000000000000100010010000000000000000000000F0010000009993300520170331000101 00000000000000000000000000000000000000000000000000000000000000000000000000000000000000000000000000000000000000000N 00000000000NCONT   00    00000000000          00000000000000000000000000000000000000000000 000000000000000A000000000000000000000000000000000000000000000 000000000000000000000000000000000000000     00000000                                                                                                                        000000000000000000
F0010000009993400001000080202350700011050500000000000000000201703310002001CONNY DE LA COSTA SAS                             D000000001250000000000000000000000100010010000000000000000000000F0010000009993400120170331000101 00000000000000000000000000000000000000000000000000000000000000000000000000000000000000000000000000000000000000000N 00000000000NCONT   00    00000000000          00000000000000000000000000000000000000000000 000000000000000A000000000000000000000000000000000000000000000 000000000000000000000000000000000000000     00000000                                                                                                                        000000000000000000
F0010000009993400002000080202350700041450500000000000000000201703310002001CONNY DE LA COSTA SAS                             C000000001200000000000000000000000100010010000000000000000000000F0010000009993400220170331000101 00000000000000000000000000000000000000000000000000000000000000000000000000000000000000000000000000000000000000000N 00000000000NCONT   00    00000000000          00000000000000000000000000000000000000000000 000000000000000A000000000000000000000000000000000000000000000 000000000000000000000000000000000000000     00000000                                                                                                                        000000000000000000
F0010000009993400003000080202350700042505000000000000000000201703310002001CONNY DE LA COSTA SAS                             C000000000050000000000000000000000100010010000000000000000000000F0010000009993400320170331000101 00000000000000000000000000000000000000000000000000000000000000000000000000000000000000000000000000000000000000000N 00000000000NCONT   00    00000000000          00000000000000000000000000000000000000000000 000000000000000A000000000000000000000000000000000000000000000 000000000000000000000000000000000000000     00000000                                                                                                                        000000000000000000
F0010000009993400004000080202350700023658300000000000000000201703310002001CONNY DE LA COSTA SAS                             C000000000009600000000000000000000100010010000000000000000000000F0010000009993400420170331000101 00000000000000000000000000000000000000000000000000000000000000000000000000000000000000000000000000000000000000000N 00000000000NCONT   00    00000000000          00000000000000000000000000000000000000000000 000000000000000A000000000000000000000000000000000000000000000 000000000000000000000000000000000000000     00000000                                                                                                                        000000000000000000
F0010000009993400005000080202350700013552100000000000000000201703310002001CONNY DE LA COSTA SAS                             D000000000009600000000000000000000100010010000000000000000000000F0010000009993400520170331000101 00000000000000000000000000000000000000000000000000000000000000000000000000000000000000000000000000000000000000000N 00000000000NCONT   00    00000000000          00000000000000000000000000000000000000000000 000000000000000A000000000000000000000000000000000000000000000 000000000000000000000000000000000000000     00000000                                                                                                                        000000000000000000
F0010000009993500001000090007142100011050500000000000000000201703310002001TODO BELLEZA Y MAX S.A.S                          D000000002540000000000000000000000100010010000000000000000000000F0010000009993500120170331000101 00000000000000000000000000000000000000000000000000000000000000000000000000000000000000000000000000000000000000000N 00000000000NCONT   00    00000000000          00000000000000000000000000000000000000000000 000000000000000A000000000000000000000000000000000000000000000 000000000000000000000000000000000000000     00000000                                                                                                                        000000000000000000
F0010000009993500002000090007142100041450500000000000000000201703310002001TODO BELLEZA Y MAX S.A.S                          C000000002490000000000000000000000100010010000000000000000000000F0010000009993500220170331000101 00000000000000000000000000000000000000000000000000000000000000000000000000000000000000000000000000000000000000000N 00000000000NCONT   00    00000000000          00000000000000000000000000000000000000000000 000000000000000A000000000000000000000000000000000000000000000 000000000000000000000000000000000000000     00000000                                                                                                                        000000000000000000
F0010000009993500003000090007142100042505000000000000000000201703310002001TODO BELLEZA Y MAX S.A.S                          C000000000050000000000000000000000100010010000000000000000000000F0010000009993500320170331000101 00000000000000000000000000000000000000000000000000000000000000000000000000000000000000000000000000000000000000000N 00000000000NCONT   00    00000000000          00000000000000000000000000000000000000000000 000000000000000A000000000000000000000000000000000000000000000 000000000000000000000000000000000000000     00000000                                                                                                                        000000000000000000
F0010000009993500004000090007142100023658300000000000000000201703310002001TODO BELLEZA Y MAX S.A.S                          C000000000019900000000000000000000100010010000000000000000000000F0010000009993500420170331000101 00000000000000000000000000000000000000000000000000000000000000000000000000000000000000000000000000000000000000000N 00000000000NCONT   00    00000000000          00000000000000000000000000000000000000000000 000000000000000A000000000000000000000000000000000000000000000 000000000000000000000000000000000000000     00000000                                                                                                                        000000000000000000
F0010000009993500005000090007142100013552100000000000000000201703310002001TODO BELLEZA Y MAX S.A.S                          D000000000019900000000000000000000100010010000000000000000000000F0010000009993500520170331000101 00000000000000000000000000000000000000000000000000000000000000000000000000000000000000000000000000000000000000000N 00000000000NCONT   00    00000000000          00000000000000000000000000000000000000000000 000000000000000A000000000000000000000000000000000000000000000 000000000000000000000000000000000000000     00000000                                                                                                                        000000000000000000
F0010000009993600001000090007142100011050500000000000000000201703310002001TODO BELLEZA Y MAX S.A.S                          D000000006840000000000000000000000100010010000000000000000000000F0010000009993600120170331000101 00000000000000000000000000000000000000000000000000000000000000000000000000000000000000000000000000000000000000000N 00000000000NCONT   00    00000000000          00000000000000000000000000000000000000000000 000000000000000A000000000000000000000000000000000000000000000 000000000000000000000000000000000000000     00000000                                                                                                                        000000000000000000
F0010000009993600002000090007142100041450500000000000000000201703310002001TODO BELLEZA Y MAX S.A.S                          C000000006640000000000000000000000100010010000000000000000000000F0010000009993600220170331000101 00000000000000000000000000000000000000000000000000000000000000000000000000000000000000000000000000000000000000000N 00000000000NCONT   00    00000000000          00000000000000000000000000000000000000000000 000000000000000A000000000000000000000000000000000000000000000 000000000000000000000000000000000000000     00000000                                                                                                                        000000000000000000
F0010000009993600003000090007142100042505000000000000000000201703310002001TODO BELLEZA Y MAX S.A.S                          C000000000200000000000000000000000100010010000000000000000000000F0010000009993600320170331000101 00000000000000000000000000000000000000000000000000000000000000000000000000000000000000000000000000000000000000000N 00000000000NCONT   00    00000000000          00000000000000000000000000000000000000000000 000000000000000A000000000000000000000000000000000000000000000 000000000000000000000000000000000000000     00000000                                                                                                                        000000000000000000
F0010000009993600004000090007142100023658300000000000000000201703310002001TODO BELLEZA Y MAX S.A.S                          C000000000053100000000000000000000100010010000000000000000000000F0010000009993600420170331000101 00000000000000000000000000000000000000000000000000000000000000000000000000000000000000000000000000000000000000000N 00000000000NCONT   00    00000000000          00000000000000000000000000000000000000000000 000000000000000A000000000000000000000000000000000000000000000 000000000000000000000000000000000000000     00000000                                                                                                                        000000000000000000
F0010000009993600005000090007142100013552100000000000000000201703310002001TODO BELLEZA Y MAX S.A.S                          D000000000053100000000000000000000100010010000000000000000000000F0010000009993600520170331000101 00000000000000000000000000000000000000000000000000000000000000000000000000000000000000000000000000000000000000000N 00000000000NCONT   00    00000000000          00000000000000000000000000000000000000000000 000000000000000A000000000000000000000000000000000000000000000 000000000000000000000000000000000000000     00000000                                                                                                                        000000000000000000
F0010000009993700001000090087846000011050500000000000000000201703310002001INTERCOMERCIAL SAS                                D000000003500000000000000000000000100010010000000000000000000000F0010000009993700120170331000101 00000000000000000000000000000000000000000000000000000000000000000000000000000000000000000000000000000000000000000N 00000000000NCONT   00    00000000000          00000000000000000000000000000000000000000000 000000000000000A000000000000000000000000000000000000000000000 000000000000000000000000000000000000000     00000000                                                                                                                        000000000000000000
F0010000009993700002000090087846000041450500000000000000000201703310002001INTERCOMERCIAL SAS                                C000000003400000000000000000000000100010010000000000000000000000F0010000009993700220170331000101 00000000000000000000000000000000000000000000000000000000000000000000000000000000000000000000000000000000000000000N 00000000000NCONT   00    00000000000          00000000000000000000000000000000000000000000 000000000000000A000000000000000000000000000000000000000000000 000000000000000000000000000000000000000     00000000                                                                                                                        000000000000000000
F0010000009993700003000090087846000042505000000000000000000201703310002001INTERCOMERCIAL SAS                                C000000000100000000000000000000000100010010000000000000000000000F0010000009993700320170331000101 00000000000000000000000000000000000000000000000000000000000000000000000000000000000000000000000000000000000000000N 00000000000NCONT   00    00000000000          00000000000000000000000000000000000000000000 000000000000000A000000000000000000000000000000000000000000000 000000000000000000000000000000000000000     00000000                                                                                                                        000000000000000000
F0010000009993700004000090087846000023658300000000000000000201703310002001INTERCOMERCIAL SAS                                C000000000027200000000000000000000100010010000000000000000000000F0010000009993700420170331000101 00000000000000000000000000000000000000000000000000000000000000000000000000000000000000000000000000000000000000000N 00000000000NCONT   00    00000000000          00000000000000000000000000000000000000000000 000000000000000A000000000000000000000000000000000000000000000 000000000000000000000000000000000000000     00000000                                                                                                                        000000000000000000
F0010000009993700005000090087846000013552100000000000000000201703310002001INTERCOMERCIAL SAS                                D000000000027200000000000000000000100010010000000000000000000000F0010000009993700520170331000101 00000000000000000000000000000000000000000000000000000000000000000000000000000000000000000000000000000000000000000N 00000000000NCONT   00    00000000000          00000000000000000000000000000000000000000000 000000000000000A000000000000000000000000000000000000000000000 000000000000000000000000000000000000000     00000000                                                                                                                        000000000000000000
F0010000009993800001000090087846000011050500000000000000000201703310002001INTERCOMERCIAL SAS                                D000000003500000000000000000000000100010010000000000000000000000F0010000009993800120170331000101 00000000000000000000000000000000000000000000000000000000000000000000000000000000000000000000000000000000000000000N 00000000000NCONT   00    00000000000          00000000000000000000000000000000000000000000 000000000000000A000000000000000000000000000000000000000000000 000000000000000000000000000000000000000     00000000                                                                                                                        000000000000000000
F0010000009993800002000090087846000041450500000000000000000201703310002001INTERCOMERCIAL SAS                                C000000003400000000000000000000000100010010000000000000000000000F0010000009993800220170331000101 00000000000000000000000000000000000000000000000000000000000000000000000000000000000000000000000000000000000000000N 00000000000NCONT   00    00000000000          00000000000000000000000000000000000000000000 000000000000000A000000000000000000000000000000000000000000000 000000000000000000000000000000000000000     00000000                                                                                                                        000000000000000000
F0010000009993800003000090087846000042505000000000000000000201703310002001INTERCOMERCIAL SAS                                C000000000100000000000000000000000100010010000000000000000000000F0010000009993800320170331000101 00000000000000000000000000000000000000000000000000000000000000000000000000000000000000000000000000000000000000000N 00000000000NCONT   00    00000000000          00000000000000000000000000000000000000000000 000000000000000A000000000000000000000000000000000000000000000 000000000000000000000000000000000000000     00000000                                                                                                                        000000000000000000
F0010000009993800004000090087846000023658300000000000000000201703310002001INTERCOMERCIAL SAS                                C000000000027200000000000000000000100010010000000000000000000000F0010000009993800420170331000101 00000000000000000000000000000000000000000000000000000000000000000000000000000000000000000000000000000000000000000N 00000000000NCONT   00    00000000000          00000000000000000000000000000000000000000000 000000000000000A000000000000000000000000000000000000000000000 000000000000000000000000000000000000000     00000000                                                                                                                        000000000000000000
F0010000009993800005000090087846000013552100000000000000000201703310002001INTERCOMERCIAL SAS                                D000000000027200000000000000000000100010010000000000000000000000F0010000009993800520170331000101 00000000000000000000000000000000000000000000000000000000000000000000000000000000000000000000000000000000000000000N 00000000000NCONT   00    00000000000          00000000000000000000000000000000000000000000 000000000000000A000000000000000000000000000000000000000000000 000000000000000000000000000000000000000     00000000                                                                                                                        000000000000000000
F0010000009993900001000001022529300011050500000000000000000201703310002001ALBERTO ALVAREZ ISAZA                             D000000001921200000000000000000000100010010000000000000000000000F0010000009993900120170331000101 00000000000000000000000000000000000000000000000000000000000000000000000000000000000000000000000000000000000000000N 00000000000NCONT   00    00000000000          00000000000000000000000000000000000000000000 000000000000000A000000000000000000000000000000000000000000000 000000000000000000000000000000000000000     00000000                                                                                                                        000000000000000000
