F0010000008427300001000090027500500011050500000000000000000201603300002001MULTIALUMINIOS LA 30 SAS                          D000000002000000000000000000000000100010010000000000000000000000F0010000008427300120160330000101 00000000000000000000000000000000000000000000000000000000000000000000000000000000000000000000000000000000000000000N 00000000000NCONT   00    00000000000          00000000000000000000000000000000000000000000 000000000000000A000000000000000000000000000000000000000000000 000000000000000000000000000000000000000     00000000                                                                                                                        000000000000000000
F0010000008427300002000090027500500041450500000000000000000201603300002001MULTIALUMINIOS LA 30 SAS                          C000000001800000000000000000000000100010010000000000000000000000F0010000008427300220160330000101 00000000000000000000000000000000000000000000000000000000000000000000000000000000000000000000000000000000000000000N 00000000000NCONT   00    00000000000          00000000000000000000000000000000000000000000 000000000000000A000000000000000000000000000000000000000000000 000000000000000000000000000000000000000     00000000                                                                                                                        000000000000000000
F0010000008427300003000090027500500042505000000000000000000201603300002001MULTIALUMINIOS LA 30 SAS                          C000000000200000000000000000000000100010010000000000000000000000F0010000008427300320160330000101 00000000000000000000000000000000000000000000000000000000000000000000000000000000000000000000000000000000000000000N 00000000000NCONT   00    00000000000          00000000000000000000000000000000000000000000 000000000000000A000000000000000000000000000000000000000000000 000000000000000000000000000000000000000     00000000                                                                                                                        000000000000000000
F0010000008427300004000090027500500023658300000000000000000201603300002001MULTIALUMINIOS LA 30 SAS                          C000000000014400000000000000000000100010010000000000000000000000F0010000008427300420160330000101 00000000000000000000000000000000000000000000000000000000000000000000000000000000000000000000000000000000000000000N 00000000000NCONT   00    00000000000          00000000000000000000000000000000000000000000 000000000000000A000000000000000000000000000000000000000000000 000000000000000000000000000000000000000     00000000                                                                                                                        000000000000000000
F0010000008427300005000090027500500013552100000000000000000201603300002001MULTIALUMINIOS LA 30 SAS                          D000000000014400000000000000000000100010010000000000000000000000F0010000008427300520160330000101 00000000000000000000000000000000000000000000000000000000000000000000000000000000000000000000000000000000000000000N 00000000000NCONT   00    00000000000          00000000000000000000000000000000000000000000 000000000000000A000000000000000000000000000000000000000000000 000000000000000000000000000000000000000     00000000                                                                                                                        000000000000000000
F0010000008427400001000090020547900011050500000000000000000201603300002001COMERCIALIZADORA DAC DEL CARIBE S.A.S.            D000000003700000000000000000000000100010010000000000000000000000F0010000008427400120160330000101 00000000000000000000000000000000000000000000000000000000000000000000000000000000000000000000000000000000000000000N 00000000000NCONT   00    00000000000          00000000000000000000000000000000000000000000 000000000000000A000000000000000000000000000000000000000000000 000000000000000000000000000000000000000     00000000                                                                                                                        000000000000000000
F0010000008427400002000090020547900041450500000000000000000201603300002001COMERCIALIZADORA DAC DEL CARIBE S.A.S.            C000000002600000000000000000000000100010010000000000000000000000F0010000008427400220160330000101 00000000000000000000000000000000000000000000000000000000000000000000000000000000000000000000000000000000000000000N 00000000000NCONT   00    00000000000          00000000000000000000000000000000000000000000 000000000000000A000000000000000000000000000000000000000000000 000000000000000000000000000000000000000     00000000                                                                                                                        000000000000000000
F0010000008427400003000090020547900042505000000000000000000201603300002001COMERCIALIZADORA DAC DEL CARIBE S.A.S.            C000000001100000000000000000000000100010010000000000000000000000F0010000008427400320160330000101 00000000000000000000000000000000000000000000000000000000000000000000000000000000000000000000000000000000000000000N 00000000000NCONT   00    00000000000          00000000000000000000000000000000000000000000 000000000000000A000000000000000000000000000000000000000000000 000000000000000000000000000000000000000     00000000                                                                                                                        000000000000000000
F0010000008427400004000090020547900023658300000000000000000201603300002001COMERCIALIZADORA DAC DEL CARIBE S.A.S.            C000000000020800000000000000000000100010010000000000000000000000F0010000008427400420160330000101 00000000000000000000000000000000000000000000000000000000000000000000000000000000000000000000000000000000000000000N 00000000000NCONT   00    00000000000          00000000000000000000000000000000000000000000 000000000000000A000000000000000000000000000000000000000000000 000000000000000000000000000000000000000     00000000                                                                                                                        000000000000000000
F0010000008427400005000090020547900013552100000000000000000201603300002001COMERCIALIZADORA DAC DEL CARIBE S.A.S.            D000000000020800000000000000000000100010010000000000000000000000F0010000008427400520160330000101 00000000000000000000000000000000000000000000000000000000000000000000000000000000000000000000000000000000000000000N 00000000000NCONT   00    00000000000          00000000000000000000000000000000000000000000 000000000000000A000000000000000000000000000000000000000000000 000000000000000000000000000000000000000     00000000                                                                                                                        000000000000000000
F0010000008427500001000090047878200011050500000000000000000201603300002001GRUMAD SAS                                        D000000011500000000000000000000000100010010000000000000000000000F0010000008427500120160330000101 00000000000000000000000000000000000000000000000000000000000000000000000000000000000000000000000000000000000000000N 00000000000NCONT   00    00000000000          00000000000000000000000000000000000000000000 000000000000000A000000000000000000000000000000000000000000000 000000000000000000000000000000000000000     00000000                                                                                                                        000000000000000000
F0010000008427500002000090047878200041450500000000000000000201603300002001GRUMAD SAS                                        C000000010000000000000000000000000100010010000000000000000000000F0010000008427500220160330000101 00000000000000000000000000000000000000000000000000000000000000000000000000000000000000000000000000000000000000000N 00000000000NCONT   00    00000000000          00000000000000000000000000000000000000000000 000000000000000A000000000000000000000000000000000000000000000 000000000000000000000000000000000000000     00000000                                                                                                                        000000000000000000
F0010000008427500003000090047878200042505000000000000000000201603300002001GRUMAD SAS                                        C000000001500000000000000000000000100010010000000000000000000000F0010000008427500320160330000101 00000000000000000000000000000000000000000000000000000000000000000000000000000000000000000000000000000000000000000N 00000000000NCONT   00    00000000000          00000000000000000000000000000000000000000000 000000000000000A000000000000000000000000000000000000000000000 000000000000000000000000000000000000000     00000000                                                                                                                        000000000000000000
F0010000008427500004000090047878200023658300000000000000000201603300002001GRUMAD SAS                                        C000000000080000000000000000000000100010010000000000000000000000F0010000008427500420160330000101 00000000000000000000000000000000000000000000000000000000000000000000000000000000000000000000000000000000000000000N 00000000000NCONT   00    00000000000          00000000000000000000000000000000000000000000 000000000000000A000000000000000000000000000000000000000000000 000000000000000000000000000000000000000     00000000                                                                                                                        000000000000000000
F0010000008427500005000090047878200013552100000000000000000201603300002001GRUMAD SAS                                        D000000000080000000000000000000000100010010000000000000000000000F0010000008427500520160330000101 00000000000000000000000000000000000000000000000000000000000000000000000000000000000000000000000000000000000000000N 00000000000NCONT   00    00000000000          00000000000000000000000000000000000000000000 000000000000000A000000000000000000000000000000000000000000000 000000000000000000000000000000000000000     00000000                                                                                                                        000000000000000000
F0010000008427600001000090047878200011050500000000000000000201603300002001GRUMAD SAS                                        D000000019000000000000000000000000100010010000000000000000000000F0010000008427600120160330000101 00000000000000000000000000000000000000000000000000000000000000000000000000000000000000000000000000000000000000000N 00000000000NCONT   00    00000000000          00000000000000000000000000000000000000000000 000000000000000A000000000000000000000000000000000000000000000 000000000000000000000000000000000000000     00000000                                                                                                                        000000000000000000
F0010000008427600002000090047878200041450500000000000000000201603300002001GRUMAD SAS                                        C000000017500000000000000000000000100010010000000000000000000000F0010000008427600220160330000101 00000000000000000000000000000000000000000000000000000000000000000000000000000000000000000000000000000000000000000N 00000000000NCONT   00    00000000000          00000000000000000000000000000000000000000000 000000000000000A000000000000000000000000000000000000000000000 000000000000000000000000000000000000000     00000000                                                                                                                        000000000000000000
F0010000008427600003000090047878200042505000000000000000000201603300002001GRUMAD SAS                                        C000000001500000000000000000000000100010010000000000000000000000F0010000008427600320160330000101 00000000000000000000000000000000000000000000000000000000000000000000000000000000000000000000000000000000000000000N 00000000000NCONT   00    00000000000          00000000000000000000000000000000000000000000 000000000000000A000000000000000000000000000000000000000000000 000000000000000000000000000000000000000     00000000                                                                                                                        000000000000000000
F0010000008427600004000090047878200023658300000000000000000201603300002001GRUMAD SAS                                        C000000000140000000000000000000000100010010000000000000000000000F0010000008427600420160330000101 00000000000000000000000000000000000000000000000000000000000000000000000000000000000000000000000000000000000000000N 00000000000NCONT   00    00000000000          00000000000000000000000000000000000000000000 000000000000000A000000000000000000000000000000000000000000000 000000000000000000000000000000000000000     00000000                                                                                                                        000000000000000000
F0010000008427600005000090047878200013552100000000000000000201603300002001GRUMAD SAS                                        D000000000140000000000000000000000100010010000000000000000000000F0010000008427600520160330000101 00000000000000000000000000000000000000000000000000000000000000000000000000000000000000000000000000000000000000000N 00000000000NCONT   00    00000000000          00000000000000000000000000000000000000000000 000000000000000A000000000000000000000000000000000000000000000 000000000000000000000000000000000000000     00000000                                                                                                                        000000000000000000
F0010000008427700001000003319910700011050500000000000000000201603300002001LUZ DARY JIMENEZ MARTINEZ                         D000000001100000000000000000000000100010010000000000000000000000F0010000008427700120160330000101 00000000000000000000000000000000000000000000000000000000000000000000000000000000000000000000000000000000000000000N 00000000000NCONT   00    00000000000          00000000000000000000000000000000000000000000 000000000000000A000000000000000000000000000000000000000000000 000000000000000000000000000000000000000     00000000                                                                                                                        000000000000000000
F0010000008427700002000003319910700041450500000000000000000201603300002001LUZ DARY JIMENEZ MARTINEZ                         C000000001000000000000000000000000100010010000000000000000000000F0010000008427700220160330000101 00000000000000000000000000000000000000000000000000000000000000000000000000000000000000000000000000000000000000000N 00000000000NCONT   00    00000000000          00000000000000000000000000000000000000000000 000000000000000A000000000000000000000000000000000000000000000 000000000000000000000000000000000000000     00000000                                                                                                                        000000000000000000
F0010000008427700003000003319910700042505000000000000000000201603300002001LUZ DARY JIMENEZ MARTINEZ                         C000000000100000000000000000000000100010010000000000000000000000F0010000008427700320160330000101 00000000000000000000000000000000000000000000000000000000000000000000000000000000000000000000000000000000000000000N 00000000000NCONT   00    00000000000          00000000000000000000000000000000000000000000 000000000000000A000000000000000000000000000000000000000000000 000000000000000000000000000000000000000     00000000                                                                                                                        000000000000000000
F0010000008427700004000003319910700023658300000000000000000201603300002001LUZ DARY JIMENEZ MARTINEZ                         C000000000008000000000000000000000100010010000000000000000000000F0010000008427700420160330000101 00000000000000000000000000000000000000000000000000000000000000000000000000000000000000000000000000000000000000000N 00000000000NCONT   00    00000000000          00000000000000000000000000000000000000000000 000000000000000A000000000000000000000000000000000000000000000 000000000000000000000000000000000000000     00000000                                                                                                                        000000000000000000
F0010000008427700005000003319910700013552100000000000000000201603300002001LUZ DARY JIMENEZ MARTINEZ                         D000000000008000000000000000000000100010010000000000000000000000F0010000008427700520160330000101 00000000000000000000000000000000000000000000000000000000000000000000000000000000000000000000000000000000000000000N 00000000000NCONT   00    00000000000          00000000000000000000000000000000000000000000 000000000000000A000000000000000000000000000000000000000000000 000000000000000000000000000000000000000     00000000                                                                                                                        000000000000000000
F0010000008427800001000007904689600011050500000000000000000201603300002001VICTOR MANUEL BOCANEGRA RAMIREZ                   D000000001000000000000000000000000100010010000000000000000000000F0010000008427800120160330000101 00000000000000000000000000000000000000000000000000000000000000000000000000000000000000000000000000000000000000000N 00000000000NCONT   00    00000000000          00000000000000000000000000000000000000000000 000000000000000A000000000000000000000000000000000000000000000 000000000000000000000000000000000000000     00000000                                                                                                                        000000000000000000
F0010000008427800002000007904689600041450500000000000000000201603300002001VICTOR MANUEL BOCANEGRA RAMIREZ                   C000000000900000000000000000000000100010010000000000000000000000F0010000008427800220160330000101 00000000000000000000000000000000000000000000000000000000000000000000000000000000000000000000000000000000000000000N 00000000000NCONT   00    00000000000          00000000000000000000000000000000000000000000 000000000000000A000000000000000000000000000000000000000000000 000000000000000000000000000000000000000     00000000                                                                                                                        000000000000000000
F0010000008427800003000007904689600042505000000000000000000201603300002001VICTOR MANUEL BOCANEGRA RAMIREZ                   C000000000100000000000000000000000100010010000000000000000000000F0010000008427800320160330000101 00000000000000000000000000000000000000000000000000000000000000000000000000000000000000000000000000000000000000000N 00000000000NCONT   00    00000000000          00000000000000000000000000000000000000000000 000000000000000A000000000000000000000000000000000000000000000 000000000000000000000000000000000000000     00000000                                                                                                                        000000000000000000
F0010000008427800004000007904689600023658300000000000000000201603300002001VICTOR MANUEL BOCANEGRA RAMIREZ                   C000000000007200000000000000000000100010010000000000000000000000F0010000008427800420160330000101 00000000000000000000000000000000000000000000000000000000000000000000000000000000000000000000000000000000000000000N 00000000000NCONT   00    00000000000          00000000000000000000000000000000000000000000 000000000000000A000000000000000000000000000000000000000000000 000000000000000000000000000000000000000     00000000                                                                                                                        000000000000000000
F0010000008427800005000007904689600013552100000000000000000201603300002001VICTOR MANUEL BOCANEGRA RAMIREZ                   D000000000007200000000000000000000100010010000000000000000000000F0010000008427800520160330000101 00000000000000000000000000000000000000000000000000000000000000000000000000000000000000000000000000000000000000000N 00000000000NCONT   00    00000000000          00000000000000000000000000000000000000000000 000000000000000A000000000000000000000000000000000000000000000 000000000000000000000000000000000000000     00000000                                                                                                                        000000000000000000
F0010000008427900001000007904689600011050500000000000000000201603300002001VICTOR MANUEL BOCANEGRA RAMIREZ                   D000000002000000000000000000000000100010010000000000000000000000F0010000008427900120160330000101 00000000000000000000000000000000000000000000000000000000000000000000000000000000000000000000000000000000000000000N 00000000000NCONT   00    00000000000          00000000000000000000000000000000000000000000 000000000000000A000000000000000000000000000000000000000000000 000000000000000000000000000000000000000     00000000                                                                                                                        000000000000000000
F0010000008427900002000007904689600041450500000000000000000201603300002001VICTOR MANUEL BOCANEGRA RAMIREZ                   C000000001800000000000000000000000100010010000000000000000000000F0010000008427900220160330000101 00000000000000000000000000000000000000000000000000000000000000000000000000000000000000000000000000000000000000000N 00000000000NCONT   00    00000000000          00000000000000000000000000000000000000000000 000000000000000A000000000000000000000000000000000000000000000 000000000000000000000000000000000000000     00000000                                                                                                                        000000000000000000
F0010000008427900003000007904689600042505000000000000000000201603300002001VICTOR MANUEL BOCANEGRA RAMIREZ                   C000000000200000000000000000000000100010010000000000000000000000F0010000008427900320160330000101 00000000000000000000000000000000000000000000000000000000000000000000000000000000000000000000000000000000000000000N 00000000000NCONT   00    00000000000          00000000000000000000000000000000000000000000 000000000000000A000000000000000000000000000000000000000000000 000000000000000000000000000000000000000     00000000                                                                                                                        000000000000000000
F0010000008427900004000007904689600023658300000000000000000201603300002001VICTOR MANUEL BOCANEGRA RAMIREZ                   C000000000014400000000000000000000100010010000000000000000000000F0010000008427900420160330000101 00000000000000000000000000000000000000000000000000000000000000000000000000000000000000000000000000000000000000000N 00000000000NCONT   00    00000000000          00000000000000000000000000000000000000000000 000000000000000A000000000000000000000000000000000000000000000 000000000000000000000000000000000000000     00000000                                                                                                                        000000000000000000
F0010000008427900005000007904689600013552100000000000000000201603300002001VICTOR MANUEL BOCANEGRA RAMIREZ                   D000000000014400000000000000000000100010010000000000000000000000F0010000008427900520160330000101 00000000000000000000000000000000000000000000000000000000000000000000000000000000000000000000000000000000000000000N 00000000000NCONT   00    00000000000          00000000000000000000000000000000000000000000 000000000000000A000000000000000000000000000000000000000000000 000000000000000000000000000000000000000     00000000                                                                                                                        000000000000000000
F0010000008428000001000000744496800011050500000000000000000201603300002001TOMAS SANCHEZ                                     D000000004900000000000000000000000100010010000000000000000000000F0010000008428000120160330000101 00000000000000000000000000000000000000000000000000000000000000000000000000000000000000000000000000000000000000000N 00000000000NCONT   00    00000000000          00000000000000000000000000000000000000000000 000000000000000A000000000000000000000000000000000000000000000 000000000000000000000000000000000000000     00000000                                                                                                                        000000000000000000
F0010000008428000002000000744496800041450500000000000000000201603300002001TOMAS SANCHEZ                                     C000000004500000000000000000000000100010010000000000000000000000F0010000008428000220160330000101 00000000000000000000000000000000000000000000000000000000000000000000000000000000000000000000000000000000000000000N 00000000000NCONT   00    00000000000          00000000000000000000000000000000000000000000 000000000000000A000000000000000000000000000000000000000000000 000000000000000000000000000000000000000     00000000                                                                                                                        000000000000000000
F0010000008428000003000000744496800042505000000000000000000201603300002001TOMAS SANCHEZ                                     C000000000400000000000000000000000100010010000000000000000000000F0010000008428000320160330000101 00000000000000000000000000000000000000000000000000000000000000000000000000000000000000000000000000000000000000000N 00000000000NCONT   00    00000000000          00000000000000000000000000000000000000000000 000000000000000A000000000000000000000000000000000000000000000 000000000000000000000000000000000000000     00000000                                                                                                                        000000000000000000
F0010000008428000004000000744496800023658300000000000000000201603300002001TOMAS SANCHEZ                                     C000000000036000000000000000000000100010010000000000000000000000F0010000008428000420160330000101 00000000000000000000000000000000000000000000000000000000000000000000000000000000000000000000000000000000000000000N 00000000000NCONT   00    00000000000          00000000000000000000000000000000000000000000 000000000000000A000000000000000000000000000000000000000000000 000000000000000000000000000000000000000     00000000                                                                                                                        000000000000000000
F0010000008428000005000000744496800013552100000000000000000201603300002001TOMAS SANCHEZ                                     D000000000036000000000000000000000100010010000000000000000000000F0010000008428000520160330000101 00000000000000000000000000000000000000000000000000000000000000000000000000000000000000000000000000000000000000000N 00000000000NCONT   00    00000000000          00000000000000000000000000000000000000000000 000000000000000A000000000000000000000000000000000000000000000 000000000000000000000000000000000000000     00000000                                                                                                                        000000000000000000
F0010000008428100001000007229328500011050500000000000000000201603300002001PV ELECTRIC   DEL CARIBE                          D000000012000000000000000000000000100010010000000000000000000000F0010000008428100120160330000101 00000000000000000000000000000000000000000000000000000000000000000000000000000000000000000000000000000000000000000N 00000000000NCONT   00    00000000000          00000000000000000000000000000000000000000000 000000000000000A000000000000000000000000000000000000000000000 000000000000000000000000000000000000000     00000000                                                                                                                        000000000000000000
F0010000008428100002000007229328500041450500000000000000000201603300002001PV ELECTRIC   DEL CARIBE                          C000000010400000000000000000000000100010010000000000000000000000F0010000008428100220160330000101 00000000000000000000000000000000000000000000000000000000000000000000000000000000000000000000000000000000000000000N 00000000000NCONT   00    00000000000          00000000000000000000000000000000000000000000 000000000000000A000000000000000000000000000000000000000000000 000000000000000000000000000000000000000     00000000                                                                                                                        000000000000000000
F0010000008428100003000007229328500042505000000000000000000201603300002001PV ELECTRIC   DEL CARIBE                          C000000001600000000000000000000000100010010000000000000000000000F0010000008428100320160330000101 00000000000000000000000000000000000000000000000000000000000000000000000000000000000000000000000000000000000000000N 00000000000NCONT   00    00000000000          00000000000000000000000000000000000000000000 000000000000000A000000000000000000000000000000000000000000000 000000000000000000000000000000000000000     00000000                                                                                                                        000000000000000000
F0010000008428100004000007229328500023658300000000000000000201603300002001PV ELECTRIC   DEL CARIBE                          C000000000083200000000000000000000100010010000000000000000000000F0010000008428100420160330000101 00000000000000000000000000000000000000000000000000000000000000000000000000000000000000000000000000000000000000000N 00000000000NCONT   00    00000000000          00000000000000000000000000000000000000000000 000000000000000A000000000000000000000000000000000000000000000 000000000000000000000000000000000000000     00000000                                                                                                                        000000000000000000
F0010000008428100005000007229328500013552100000000000000000201603300002001PV ELECTRIC   DEL CARIBE                          D000000000083200000000000000000000100010010000000000000000000000F0010000008428100520160330000101 00000000000000000000000000000000000000000000000000000000000000000000000000000000000000000000000000000000000000000N 00000000000NCONT   00    00000000000          00000000000000000000000000000000000000000000 000000000000000A000000000000000000000000000000000000000000000 000000000000000000000000000000000000000     00000000                                                                                                                        000000000000000000
F0010000008428200001000080201703900011050500000000000000000201603300002001MUNDIAL CHEMICAL LTDA                             D000000003700000000000000000000000100010010000000000000000000000F0010000008428200120160330000101 00000000000000000000000000000000000000000000000000000000000000000000000000000000000000000000000000000000000000000N 00000000000NCONT   00    00000000000          00000000000000000000000000000000000000000000 000000000000000A000000000000000000000000000000000000000000000 000000000000000000000000000000000000000     00000000                                                                                                                        000000000000000000
F0010000008428200002000080201703900041450500000000000000000201603300002001MUNDIAL CHEMICAL LTDA                             C000000002800000000000000000000000100010010000000000000000000000F0010000008428200220160330000101 00000000000000000000000000000000000000000000000000000000000000000000000000000000000000000000000000000000000000000N 00000000000NCONT   00    00000000000          00000000000000000000000000000000000000000000 000000000000000A000000000000000000000000000000000000000000000 000000000000000000000000000000000000000     00000000                                                                                                                        000000000000000000
F0010000008428200003000080201703900042505000000000000000000201603300002001MUNDIAL CHEMICAL LTDA                             C000000000900000000000000000000000100010010000000000000000000000F0010000008428200320160330000101 00000000000000000000000000000000000000000000000000000000000000000000000000000000000000000000000000000000000000000N 00000000000NCONT   00    00000000000          00000000000000000000000000000000000000000000 000000000000000A000000000000000000000000000000000000000000000 000000000000000000000000000000000000000     00000000                                                                                                                        000000000000000000
F0010000008428200004000080201703900023658300000000000000000201603300002001MUNDIAL CHEMICAL LTDA                             C000000000022400000000000000000000100010010000000000000000000000F0010000008428200420160330000101 00000000000000000000000000000000000000000000000000000000000000000000000000000000000000000000000000000000000000000N 00000000000NCONT   00    00000000000          00000000000000000000000000000000000000000000 000000000000000A000000000000000000000000000000000000000000000 000000000000000000000000000000000000000     00000000                                                                                                                        000000000000000000
F0010000008428200005000080201703900013552100000000000000000201603300002001MUNDIAL CHEMICAL LTDA                             D000000000022400000000000000000000100010010000000000000000000000F0010000008428200520160330000101 00000000000000000000000000000000000000000000000000000000000000000000000000000000000000000000000000000000000000000N 00000000000NCONT   00    00000000000          00000000000000000000000000000000000000000000 000000000000000A000000000000000000000000000000000000000000000 000000000000000000000000000000000000000     00000000                                                                                                                        000000000000000000
F0010000008428300001000080201703900011050500000000000000000201603300002001MUNDIAL CHEMICAL LTDA                             D000000003300000000000000000000000100010010000000000000000000000F0010000008428300120160330000101 00000000000000000000000000000000000000000000000000000000000000000000000000000000000000000000000000000000000000000N 00000000000NCONT   00    00000000000          00000000000000000000000000000000000000000000 000000000000000A000000000000000000000000000000000000000000000 000000000000000000000000000000000000000     00000000                                                                                                                        000000000000000000
F0010000008428300002000080201703900041450500000000000000000201603300002001MUNDIAL CHEMICAL LTDA                             C000000002600000000000000000000000100010010000000000000000000000F0010000008428300220160330000101 00000000000000000000000000000000000000000000000000000000000000000000000000000000000000000000000000000000000000000N 00000000000NCONT   00    00000000000          00000000000000000000000000000000000000000000 000000000000000A000000000000000000000000000000000000000000000 000000000000000000000000000000000000000     00000000                                                                                                                        000000000000000000
F0010000008428300003000080201703900042505000000000000000000201603300002001MUNDIAL CHEMICAL LTDA                             C000000000700000000000000000000000100010010000000000000000000000F0010000008428300320160330000101 00000000000000000000000000000000000000000000000000000000000000000000000000000000000000000000000000000000000000000N 00000000000NCONT   00    00000000000          00000000000000000000000000000000000000000000 000000000000000A000000000000000000000000000000000000000000000 000000000000000000000000000000000000000     00000000                                                                                                                        000000000000000000
F0010000008428300004000080201703900023658300000000000000000201603300002001MUNDIAL CHEMICAL LTDA                             C000000000020800000000000000000000100010010000000000000000000000F0010000008428300420160330000101 00000000000000000000000000000000000000000000000000000000000000000000000000000000000000000000000000000000000000000N 00000000000NCONT   00    00000000000          00000000000000000000000000000000000000000000 000000000000000A000000000000000000000000000000000000000000000 000000000000000000000000000000000000000     00000000                                                                                                                        000000000000000000
F0010000008428300005000080201703900013552100000000000000000201603300002001MUNDIAL CHEMICAL LTDA                             D000000000020800000000000000000000100010010000000000000000000000F0010000008428300520160330000101 00000000000000000000000000000000000000000000000000000000000000000000000000000000000000000000000000000000000000000N 00000000000NCONT   00    00000000000          00000000000000000000000000000000000000000000 000000000000000A000000000000000000000000000000000000000000000 000000000000000000000000000000000000000     00000000                                                                                                                        000000000000000000
F0010000008428400001000003262315300011050500000000000000000201603300002001LIDA BARRIOS                                      D000000001100000000000000000000000100010010000000000000000000000F0010000008428400120160330000101 00000000000000000000000000000000000000000000000000000000000000000000000000000000000000000000000000000000000000000N 00000000000NCONT   00    00000000000          00000000000000000000000000000000000000000000 000000000000000A000000000000000000000000000000000000000000000 000000000000000000000000000000000000000     00000000                                                                                                                        000000000000000000
F0010000008428400002000003262315300041450500000000000000000201603300002001LIDA BARRIOS                                      C000000000800000000000000000000000100010010000000000000000000000F0010000008428400220160330000101 00000000000000000000000000000000000000000000000000000000000000000000000000000000000000000000000000000000000000000N 00000000000NCONT   00    00000000000          00000000000000000000000000000000000000000000 000000000000000A000000000000000000000000000000000000000000000 000000000000000000000000000000000000000     00000000                                                                                                                        000000000000000000
F0010000008428400003000003262315300042505000000000000000000201603300002001LIDA BARRIOS                                      C000000000300000000000000000000000100010010000000000000000000000F0010000008428400320160330000101 00000000000000000000000000000000000000000000000000000000000000000000000000000000000000000000000000000000000000000N 00000000000NCONT   00    00000000000          00000000000000000000000000000000000000000000 000000000000000A000000000000000000000000000000000000000000000 000000000000000000000000000000000000000     00000000                                                                                                                        000000000000000000
F0010000008428400004000003262315300023658300000000000000000201603300002001LIDA BARRIOS                                      C000000000006400000000000000000000100010010000000000000000000000F0010000008428400420160330000101 00000000000000000000000000000000000000000000000000000000000000000000000000000000000000000000000000000000000000000N 00000000000NCONT   00    00000000000          00000000000000000000000000000000000000000000 000000000000000A000000000000000000000000000000000000000000000 000000000000000000000000000000000000000     00000000                                                                                                                        000000000000000000
F0010000008428400005000003262315300013552100000000000000000201603300002001LIDA BARRIOS                                      D000000000006400000000000000000000100010010000000000000000000000F0010000008428400520160330000101 00000000000000000000000000000000000000000000000000000000000000000000000000000000000000000000000000000000000000000N 00000000000NCONT   00    00000000000          00000000000000000000000000000000000000000000 000000000000000A000000000000000000000000000000000000000000000 000000000000000000000000000000000000000     00000000                                                                                                                        000000000000000000
F0010000008428500001000012390001700011050500000000000000000201603300002001LILIANA HERNANDEZ                                 D000000001100000000000000000000000100010010000000000000000000000F0010000008428500120160330000101 00000000000000000000000000000000000000000000000000000000000000000000000000000000000000000000000000000000000000000N 00000000000NCONT   00    00000000000          00000000000000000000000000000000000000000000 000000000000000A000000000000000000000000000000000000000000000 000000000000000000000000000000000000000     00000000                                                                                                                        000000000000000000
F0010000008428500002000012390001700041450500000000000000000201603300002001LILIANA HERNANDEZ                                 C000000000800000000000000000000000100010010000000000000000000000F0010000008428500220160330000101 00000000000000000000000000000000000000000000000000000000000000000000000000000000000000000000000000000000000000000N 00000000000NCONT   00    00000000000          00000000000000000000000000000000000000000000 000000000000000A000000000000000000000000000000000000000000000 000000000000000000000000000000000000000     00000000                                                                                                                        000000000000000000
F0010000008428500003000012390001700042505000000000000000000201603300002001LILIANA HERNANDEZ                                 C000000000300000000000000000000000100010010000000000000000000000F0010000008428500320160330000101 00000000000000000000000000000000000000000000000000000000000000000000000000000000000000000000000000000000000000000N 00000000000NCONT   00    00000000000          00000000000000000000000000000000000000000000 000000000000000A000000000000000000000000000000000000000000000 000000000000000000000000000000000000000     00000000                                                                                                                        000000000000000000
F0010000008428500004000012390001700023658300000000000000000201603300002001LILIANA HERNANDEZ                                 C000000000006400000000000000000000100010010000000000000000000000F0010000008428500420160330000101 00000000000000000000000000000000000000000000000000000000000000000000000000000000000000000000000000000000000000000N 00000000000NCONT   00    00000000000          00000000000000000000000000000000000000000000 000000000000000A000000000000000000000000000000000000000000000 000000000000000000000000000000000000000     00000000                                                                                                                        000000000000000000
F0010000008428500005000012390001700013552100000000000000000201603300002001LILIANA HERNANDEZ                                 D000000000006400000000000000000000100010010000000000000000000000F0010000008428500520160330000101 00000000000000000000000000000000000000000000000000000000000000000000000000000000000000000000000000000000000000000N 00000000000NCONT   00    00000000000          00000000000000000000000000000000000000000000 000000000000000A000000000000000000000000000000000000000000000 000000000000000000000000000000000000000     00000000                                                                                                                        000000000000000000
F0010000008428600001000080202350700011050500000000000000000201603300002001CONNY DE LA COSTA SAS                             D000000002300000000000000000000000100010010000000000000000000000F0010000008428600120160330000101 00000000000000000000000000000000000000000000000000000000000000000000000000000000000000000000000000000000000000000N 00000000000NCONT   00    00000000000          00000000000000000000000000000000000000000000 000000000000000A000000000000000000000000000000000000000000000 000000000000000000000000000000000000000     00000000                                                                                                                        000000000000000000
F0010000008428600002000080202350700041450500000000000000000201603300002001CONNY DE LA COSTA SAS                             C000000002200000000000000000000000100010010000000000000000000000F0010000008428600220160330000101 00000000000000000000000000000000000000000000000000000000000000000000000000000000000000000000000000000000000000000N 00000000000NCONT   00    00000000000          00000000000000000000000000000000000000000000 000000000000000A000000000000000000000000000000000000000000000 000000000000000000000000000000000000000     00000000                                                                                                                        000000000000000000
F0010000008428600003000080202350700042505000000000000000000201603300002001CONNY DE LA COSTA SAS                             C000000000100000000000000000000000100010010000000000000000000000F0010000008428600320160330000101 00000000000000000000000000000000000000000000000000000000000000000000000000000000000000000000000000000000000000000N 00000000000NCONT   00    00000000000          00000000000000000000000000000000000000000000 000000000000000A000000000000000000000000000000000000000000000 000000000000000000000000000000000000000     00000000                                                                                                                        000000000000000000
F0010000008428600004000080202350700023658300000000000000000201603300002001CONNY DE LA COSTA SAS                             C000000000017600000000000000000000100010010000000000000000000000F0010000008428600420160330000101 00000000000000000000000000000000000000000000000000000000000000000000000000000000000000000000000000000000000000000N 00000000000NCONT   00    00000000000          00000000000000000000000000000000000000000000 000000000000000A000000000000000000000000000000000000000000000 000000000000000000000000000000000000000     00000000                                                                                                                        000000000000000000
F0010000008428600005000080202350700013552100000000000000000201603300002001CONNY DE LA COSTA SAS                             D000000000017600000000000000000000100010010000000000000000000000F0010000008428600520160330000101 00000000000000000000000000000000000000000000000000000000000000000000000000000000000000000000000000000000000000000N 00000000000NCONT   00    00000000000          00000000000000000000000000000000000000000000 000000000000000A000000000000000000000000000000000000000000000 000000000000000000000000000000000000000     00000000                                                                                                                        000000000000000000
F0010000008428700001000090061985600011050500000000000000000201603300002001COMERCIALIZADORA PATRY SAS                        D000000002900000000000000000000000100010010000000000000000000000F0010000008428700120160330000101 00000000000000000000000000000000000000000000000000000000000000000000000000000000000000000000000000000000000000000N 00000000000NCONT   00    00000000000          00000000000000000000000000000000000000000000 000000000000000A000000000000000000000000000000000000000000000 000000000000000000000000000000000000000     00000000                                                                                                                        000000000000000000
F0010000008428700002000090061985600041450500000000000000000201603300002001COMERCIALIZADORA PATRY SAS                        C000000002400000000000000000000000100010010000000000000000000000F0010000008428700220160330000101 00000000000000000000000000000000000000000000000000000000000000000000000000000000000000000000000000000000000000000N 00000000000NCONT   00    00000000000          00000000000000000000000000000000000000000000 000000000000000A000000000000000000000000000000000000000000000 000000000000000000000000000000000000000     00000000                                                                                                                        000000000000000000
F0010000008428700003000090061985600042505000000000000000000201603300002001COMERCIALIZADORA PATRY SAS                        C000000000500000000000000000000000100010010000000000000000000000F0010000008428700320160330000101 00000000000000000000000000000000000000000000000000000000000000000000000000000000000000000000000000000000000000000N 00000000000NCONT   00    00000000000          00000000000000000000000000000000000000000000 000000000000000A000000000000000000000000000000000000000000000 000000000000000000000000000000000000000     00000000                                                                                                                        000000000000000000
F0010000008428700004000090061985600023658300000000000000000201603300002001COMERCIALIZADORA PATRY SAS                        C000000000019200000000000000000000100010010000000000000000000000F0010000008428700420160330000101 00000000000000000000000000000000000000000000000000000000000000000000000000000000000000000000000000000000000000000N 00000000000NCONT   00    00000000000          00000000000000000000000000000000000000000000 000000000000000A000000000000000000000000000000000000000000000 000000000000000000000000000000000000000     00000000                                                                                                                        000000000000000000
F0010000008428700005000090061985600013552100000000000000000201603300002001COMERCIALIZADORA PATRY SAS                        D000000000019200000000000000000000100010010000000000000000000000F0010000008428700520160330000101 00000000000000000000000000000000000000000000000000000000000000000000000000000000000000000000000000000000000000000N 00000000000NCONT   00    00000000000          00000000000000000000000000000000000000000000 000000000000000A000000000000000000000000000000000000000000000 000000000000000000000000000000000000000     00000000                                                                                                                        000000000000000000
F0010000008428800001000012390001700011050500000000000000000201603300002001LILIANA HERNANDEZ                                 D000000002000000000000000000000000100010010000000000000000000000F0010000008428800120160330000101 00000000000000000000000000000000000000000000000000000000000000000000000000000000000000000000000000000000000000000N 00000000000NCONT   00    00000000000          00000000000000000000000000000000000000000000 000000000000000A000000000000000000000000000000000000000000000 000000000000000000000000000000000000000     00000000                                                                                                                        000000000000000000
F0010000008428800002000012390001700041450500000000000000000201603300002001LILIANA HERNANDEZ                                 C000000001600000000000000000000000100010010000000000000000000000F0010000008428800220160330000101 00000000000000000000000000000000000000000000000000000000000000000000000000000000000000000000000000000000000000000N 00000000000NCONT   00    00000000000          00000000000000000000000000000000000000000000 000000000000000A000000000000000000000000000000000000000000000 000000000000000000000000000000000000000     00000000                                                                                                                        000000000000000000
F0010000008428800003000012390001700042505000000000000000000201603300002001LILIANA HERNANDEZ                                 C000000000400000000000000000000000100010010000000000000000000000F0010000008428800320160330000101 00000000000000000000000000000000000000000000000000000000000000000000000000000000000000000000000000000000000000000N 00000000000NCONT   00    00000000000          00000000000000000000000000000000000000000000 000000000000000A000000000000000000000000000000000000000000000 000000000000000000000000000000000000000     00000000                                                                                                                        000000000000000000
F0010000008428800004000012390001700023658300000000000000000201603300002001LILIANA HERNANDEZ                                 C000000000012800000000000000000000100010010000000000000000000000F0010000008428800420160330000101 00000000000000000000000000000000000000000000000000000000000000000000000000000000000000000000000000000000000000000N 00000000000NCONT   00    00000000000          00000000000000000000000000000000000000000000 000000000000000A000000000000000000000000000000000000000000000 000000000000000000000000000000000000000     00000000                                                                                                                        000000000000000000
F0010000008428800005000012390001700013552100000000000000000201603300002001LILIANA HERNANDEZ                                 D000000000012800000000000000000000100010010000000000000000000000F0010000008428800520160330000101 00000000000000000000000000000000000000000000000000000000000000000000000000000000000000000000000000000000000000000N 00000000000NCONT   00    00000000000          00000000000000000000000000000000000000000000 000000000000000A000000000000000000000000000000000000000000000 000000000000000000000000000000000000000     00000000                                                                                                                        000000000000000000
F0010000008428900001000001325248300011050500000000000000000201603300002001DISTRIBUIDORA DE LUBRICANTES LA 37                D000000007700000000000000000000000100010010000000000000000000000F0010000008428900120160330000101 00000000000000000000000000000000000000000000000000000000000000000000000000000000000000000000000000000000000000000N 00000000000NCONT   00    00000000000          00000000000000000000000000000000000000000000 000000000000000A000000000000000000000000000000000000000000000 000000000000000000000000000000000000000     00000000                                                                                                                        000000000000000000
F0010000008428900002000001325248300041450500000000000000000201603300002001DISTRIBUIDORA DE LUBRICANTES LA 37                C000000007000000000000000000000000100010010000000000000000000000F0010000008428900220160330000101 00000000000000000000000000000000000000000000000000000000000000000000000000000000000000000000000000000000000000000N 00000000000NCONT   00    00000000000          00000000000000000000000000000000000000000000 000000000000000A000000000000000000000000000000000000000000000 000000000000000000000000000000000000000     00000000                                                                                                                        000000000000000000
F0010000008428900003000001325248300042505000000000000000000201603300002001DISTRIBUIDORA DE LUBRICANTES LA 37                C000000000700000000000000000000000100010010000000000000000000000F0010000008428900320160330000101 00000000000000000000000000000000000000000000000000000000000000000000000000000000000000000000000000000000000000000N 00000000000NCONT   00    00000000000          00000000000000000000000000000000000000000000 000000000000000A000000000000000000000000000000000000000000000 000000000000000000000000000000000000000     00000000                                                                                                                        000000000000000000
F0010000008428900004000001325248300023658300000000000000000201603300002001DISTRIBUIDORA DE LUBRICANTES LA 37                C000000000056000000000000000000000100010010000000000000000000000F0010000008428900420160330000101 00000000000000000000000000000000000000000000000000000000000000000000000000000000000000000000000000000000000000000N 00000000000NCONT   00    00000000000          00000000000000000000000000000000000000000000 000000000000000A000000000000000000000000000000000000000000000 000000000000000000000000000000000000000     00000000                                                                                                                        000000000000000000
F0010000008428900005000001325248300013552100000000000000000201603300002001DISTRIBUIDORA DE LUBRICANTES LA 37                D000000000056000000000000000000000100010010000000000000000000000F0010000008428900520160330000101 00000000000000000000000000000000000000000000000000000000000000000000000000000000000000000000000000000000000000000N 00000000000NCONT   00    00000000000          00000000000000000000000000000000000000000000 000000000000000A000000000000000000000000000000000000000000000 000000000000000000000000000000000000000     00000000                                                                                                                        000000000000000000
F0010000008429000001000090050144800011050500000000000000000201603300002001PLASTICOS JR ASOCIADOS SAS                        D000000008600000000000000000000000100010010000000000000000000000F0010000008429000120160330000101 00000000000000000000000000000000000000000000000000000000000000000000000000000000000000000000000000000000000000000N 00000000000NCONT   00    00000000000          00000000000000000000000000000000000000000000 000000000000000A000000000000000000000000000000000000000000000 000000000000000000000000000000000000000     00000000                                                                                                                        000000000000000000
F0010000008429000002000090050144800041450500000000000000000201603300002001PLASTICOS JR ASOCIADOS SAS                        C000000007600000000000000000000000100010010000000000000000000000F0010000008429000220160330000101 00000000000000000000000000000000000000000000000000000000000000000000000000000000000000000000000000000000000000000N 00000000000NCONT   00    00000000000          00000000000000000000000000000000000000000000 000000000000000A000000000000000000000000000000000000000000000 000000000000000000000000000000000000000     00000000                                                                                                                        000000000000000000
F0010000008429000003000090050144800042505000000000000000000201603300002001PLASTICOS JR ASOCIADOS SAS                        C000000001000000000000000000000000100010010000000000000000000000F0010000008429000320160330000101 00000000000000000000000000000000000000000000000000000000000000000000000000000000000000000000000000000000000000000N 00000000000NCONT   00    00000000000          00000000000000000000000000000000000000000000 000000000000000A000000000000000000000000000000000000000000000 000000000000000000000000000000000000000     00000000                                                                                                                        000000000000000000
F0010000008429000004000090050144800023658300000000000000000201603300002001PLASTICOS JR ASOCIADOS SAS                        C000000000060800000000000000000000100010010000000000000000000000F0010000008429000420160330000101 00000000000000000000000000000000000000000000000000000000000000000000000000000000000000000000000000000000000000000N 00000000000NCONT   00    00000000000          00000000000000000000000000000000000000000000 000000000000000A000000000000000000000000000000000000000000000 000000000000000000000000000000000000000     00000000                                                                                                                        000000000000000000
F0010000008429000005000090050144800013552100000000000000000201603300002001PLASTICOS JR ASOCIADOS SAS                        D000000000060800000000000000000000100010010000000000000000000000F0010000008429000520160330000101 00000000000000000000000000000000000000000000000000000000000000000000000000000000000000000000000000000000000000000N 00000000000NCONT   00    00000000000          00000000000000000000000000000000000000000000 000000000000000A000000000000000000000000000000000000000000000 000000000000000000000000000000000000000     00000000                                                                                                                        000000000000000000
F0010000008429100001000090050144800011050500000000000000000201603300002001PLASTICOS JR ASOCIADOS SAS                        D000000001050000000000000000000000100010010000000000000000000000F0010000008429100120160330000101 00000000000000000000000000000000000000000000000000000000000000000000000000000000000000000000000000000000000000000N 00000000000NCONT   00    00000000000          00000000000000000000000000000000000000000000 000000000000000A000000000000000000000000000000000000000000000 000000000000000000000000000000000000000     00000000                                                                                                                        000000000000000000
F0010000008429100002000090050144800041450500000000000000000201603300002001PLASTICOS JR ASOCIADOS SAS                        C000000000950000000000000000000000100010010000000000000000000000F0010000008429100220160330000101 00000000000000000000000000000000000000000000000000000000000000000000000000000000000000000000000000000000000000000N 00000000000NCONT   00    00000000000          00000000000000000000000000000000000000000000 000000000000000A000000000000000000000000000000000000000000000 000000000000000000000000000000000000000     00000000                                                                                                                        000000000000000000
F0010000008429100003000090050144800042505000000000000000000201603300002001PLASTICOS JR ASOCIADOS SAS                        C000000000100000000000000000000000100010010000000000000000000000F0010000008429100320160330000101 00000000000000000000000000000000000000000000000000000000000000000000000000000000000000000000000000000000000000000N 00000000000NCONT   00    00000000000          00000000000000000000000000000000000000000000 000000000000000A000000000000000000000000000000000000000000000 000000000000000000000000000000000000000     00000000                                                                                                                        000000000000000000
F0010000008429100004000090050144800023658300000000000000000201603300002001PLASTICOS JR ASOCIADOS SAS                        C000000000007600000000000000000000100010010000000000000000000000F0010000008429100420160330000101 00000000000000000000000000000000000000000000000000000000000000000000000000000000000000000000000000000000000000000N 00000000000NCONT   00    00000000000          00000000000000000000000000000000000000000000 000000000000000A000000000000000000000000000000000000000000000 000000000000000000000000000000000000000     00000000                                                                                                                        000000000000000000
F0010000008429100005000090050144800013552100000000000000000201603300002001PLASTICOS JR ASOCIADOS SAS                        D000000000007600000000000000000000100010010000000000000000000000F0010000008429100520160330000101 00000000000000000000000000000000000000000000000000000000000000000000000000000000000000000000000000000000000000000N 00000000000NCONT   00    00000000000          00000000000000000000000000000000000000000000 000000000000000A000000000000000000000000000000000000000000000 000000000000000000000000000000000000000     00000000                                                                                                                        000000000000000000
F0010000008429200001000000870907300011050500000000000000000201603300002001SURTIDOR FERRETERO                                D000000005400000000000000000000000100010010000000000000000000000F0010000008429200120160330000101 00000000000000000000000000000000000000000000000000000000000000000000000000000000000000000000000000000000000000000N 00000000000NCONT   00    00000000000          00000000000000000000000000000000000000000000 000000000000000A000000000000000000000000000000000000000000000 000000000000000000000000000000000000000     00000000                                                                                                                        000000000000000000
F0010000008429200002000000870907300041450500000000000000000201603300002001SURTIDOR FERRETERO                                C000000003400000000000000000000000100010010000000000000000000000F0010000008429200220160330000101 00000000000000000000000000000000000000000000000000000000000000000000000000000000000000000000000000000000000000000N 00000000000NCONT   00    00000000000          00000000000000000000000000000000000000000000 000000000000000A000000000000000000000000000000000000000000000 000000000000000000000000000000000000000     00000000                                                                                                                        000000000000000000
F0010000008429200003000000870907300042505000000000000000000201603300002001SURTIDOR FERRETERO                                C000000002000000000000000000000000100010010000000000000000000000F0010000008429200320160330000101 00000000000000000000000000000000000000000000000000000000000000000000000000000000000000000000000000000000000000000N 00000000000NCONT   00    00000000000          00000000000000000000000000000000000000000000 000000000000000A000000000000000000000000000000000000000000000 000000000000000000000000000000000000000     00000000                                                                                                                        000000000000000000
F0010000008429200004000000870907300023658300000000000000000201603300002001SURTIDOR FERRETERO                                C000000000027200000000000000000000100010010000000000000000000000F0010000008429200420160330000101 00000000000000000000000000000000000000000000000000000000000000000000000000000000000000000000000000000000000000000N 00000000000NCONT   00    00000000000          00000000000000000000000000000000000000000000 000000000000000A000000000000000000000000000000000000000000000 000000000000000000000000000000000000000     00000000                                                                                                                        000000000000000000
F0010000008429200005000000870907300013552100000000000000000201603300002001SURTIDOR FERRETERO                                D000000000027200000000000000000000100010010000000000000000000000F0010000008429200520160330000101 00000000000000000000000000000000000000000000000000000000000000000000000000000000000000000000000000000000000000000N 00000000000NCONT   00    00000000000          00000000000000000000000000000000000000000000 000000000000000A000000000000000000000000000000000000000000000 000000000000000000000000000000000000000     00000000                                                                                                                        000000000000000000
F0010000008429300001000000431178400011050500000000000000000201603300002001EFRAIN ALVAREZ                                    D000000003390000000000000000000000100010010000000000000000000000F0010000008429300120160330000101 00000000000000000000000000000000000000000000000000000000000000000000000000000000000000000000000000000000000000000N 00000000000NCONT   00    00000000000          00000000000000000000000000000000000000000000 000000000000000A000000000000000000000000000000000000000000000 000000000000000000000000000000000000000     00000000                                                                                                                        000000000000000000
F0010000008429300002000000431178400041450500000000000000000201603300002001EFRAIN ALVAREZ                                    C000000003240000000000000000000000100010010000000000000000000000F0010000008429300220160330000101 00000000000000000000000000000000000000000000000000000000000000000000000000000000000000000000000000000000000000000N 00000000000NCONT   00    00000000000          00000000000000000000000000000000000000000000 000000000000000A000000000000000000000000000000000000000000000 000000000000000000000000000000000000000     00000000                                                                                                                        000000000000000000
F0010000008429300003000000431178400042505000000000000000000201603300002001EFRAIN ALVAREZ                                    C000000000150000000000000000000000100010010000000000000000000000F0010000008429300320160330000101 00000000000000000000000000000000000000000000000000000000000000000000000000000000000000000000000000000000000000000N 00000000000NCONT   00    00000000000          00000000000000000000000000000000000000000000 000000000000000A000000000000000000000000000000000000000000000 000000000000000000000000000000000000000     00000000                                                                                                                        000000000000000000
F0010000008429300004000000431178400023658300000000000000000201603300002001EFRAIN ALVAREZ                                    C000000000025900000000000000000000100010010000000000000000000000F0010000008429300420160330000101 00000000000000000000000000000000000000000000000000000000000000000000000000000000000000000000000000000000000000000N 00000000000NCONT   00    00000000000          00000000000000000000000000000000000000000000 000000000000000A000000000000000000000000000000000000000000000 000000000000000000000000000000000000000     00000000                                                                                                                        000000000000000000
F0010000008429300005000000431178400013552100000000000000000201603300002001EFRAIN ALVAREZ                                    D000000000025900000000000000000000100010010000000000000000000000F0010000008429300520160330000101 00000000000000000000000000000000000000000000000000000000000000000000000000000000000000000000000000000000000000000N 00000000000NCONT   00    00000000000          00000000000000000000000000000000000000000000 000000000000000A000000000000000000000000000000000000000000000 000000000000000000000000000000000000000     00000000                                                                                                                        000000000000000000
F0010000008429400001000000431178400011050500000000000000000201603300002001EFRAIN ALVAREZ                                    D000000002990000000000000000000000100010010000000000000000000000F0010000008429400120160330000101 00000000000000000000000000000000000000000000000000000000000000000000000000000000000000000000000000000000000000000N 00000000000NCONT   00    00000000000          00000000000000000000000000000000000000000000 000000000000000A000000000000000000000000000000000000000000000 000000000000000000000000000000000000000     00000000                                                                                                                        000000000000000000
F0010000008429400002000000431178400041450500000000000000000201603300002001EFRAIN ALVAREZ                                    C000000002840000000000000000000000100010010000000000000000000000F0010000008429400220160330000101 00000000000000000000000000000000000000000000000000000000000000000000000000000000000000000000000000000000000000000N 00000000000NCONT   00    00000000000          00000000000000000000000000000000000000000000 000000000000000A000000000000000000000000000000000000000000000 000000000000000000000000000000000000000     00000000                                                                                                                        000000000000000000
F0010000008429400003000000431178400042505000000000000000000201603300002001EFRAIN ALVAREZ                                    C000000000150000000000000000000000100010010000000000000000000000F0010000008429400320160330000101 00000000000000000000000000000000000000000000000000000000000000000000000000000000000000000000000000000000000000000N 00000000000NCONT   00    00000000000          00000000000000000000000000000000000000000000 000000000000000A000000000000000000000000000000000000000000000 000000000000000000000000000000000000000     00000000                                                                                                                        000000000000000000
F0010000008429400004000000431178400023658300000000000000000201603300002001EFRAIN ALVAREZ                                    C000000000022700000000000000000000100010010000000000000000000000F0010000008429400420160330000101 00000000000000000000000000000000000000000000000000000000000000000000000000000000000000000000000000000000000000000N 00000000000NCONT   00    00000000000          00000000000000000000000000000000000000000000 000000000000000A000000000000000000000000000000000000000000000 000000000000000000000000000000000000000     00000000                                                                                                                        000000000000000000
F0010000008429400005000000431178400013552100000000000000000201603300002001EFRAIN ALVAREZ                                    D000000000022700000000000000000000100010010000000000000000000000F0010000008429400520160330000101 00000000000000000000000000000000000000000000000000000000000000000000000000000000000000000000000000000000000000000N 00000000000NCONT   00    00000000000          00000000000000000000000000000000000000000000 000000000000000A000000000000000000000000000000000000000000000 000000000000000000000000000000000000000     00000000                                                                                                                        000000000000000000
F0010000008429500001000000431178400011050500000000000000000201603300002001EFRAIN ALVAREZ                                    D000000001045000000000000000000000100010010000000000000000000000F0010000008429500120160330000101 00000000000000000000000000000000000000000000000000000000000000000000000000000000000000000000000000000000000000000N 00000000000NCONT   00    00000000000          00000000000000000000000000000000000000000000 000000000000000A000000000000000000000000000000000000000000000 000000000000000000000000000000000000000     00000000                                                                                                                        000000000000000000
F0010000008429500002000000431178400041450500000000000000000201603300002001EFRAIN ALVAREZ                                    C000000000920000000000000000000000100010010000000000000000000000F0010000008429500220160330000101 00000000000000000000000000000000000000000000000000000000000000000000000000000000000000000000000000000000000000000N 00000000000NCONT   00    00000000000          00000000000000000000000000000000000000000000 000000000000000A000000000000000000000000000000000000000000000 000000000000000000000000000000000000000     00000000                                                                                                                        000000000000000000
F0010000008429500003000000431178400042505000000000000000000201603300002001EFRAIN ALVAREZ                                    C000000000125000000000000000000000100010010000000000000000000000F0010000008429500320160330000101 00000000000000000000000000000000000000000000000000000000000000000000000000000000000000000000000000000000000000000N 00000000000NCONT   00    00000000000          00000000000000000000000000000000000000000000 000000000000000A000000000000000000000000000000000000000000000 000000000000000000000000000000000000000     00000000                                                                                                                        000000000000000000
F0010000008429500004000000431178400023658300000000000000000201603300002001EFRAIN ALVAREZ                                    C000000000007400000000000000000000100010010000000000000000000000F0010000008429500420160330000101 00000000000000000000000000000000000000000000000000000000000000000000000000000000000000000000000000000000000000000N 00000000000NCONT   00    00000000000          00000000000000000000000000000000000000000000 000000000000000A000000000000000000000000000000000000000000000 000000000000000000000000000000000000000     00000000                                                                                                                        000000000000000000
F0010000008429500005000000431178400013552100000000000000000201603300002001EFRAIN ALVAREZ                                    D000000000007400000000000000000000100010010000000000000000000000F0010000008429500520160330000101 00000000000000000000000000000000000000000000000000000000000000000000000000000000000000000000000000000000000000000N 00000000000NCONT   00    00000000000          00000000000000000000000000000000000000000000 000000000000000A000000000000000000000000000000000000000000000 000000000000000000000000000000000000000     00000000                                                                                                                        000000000000000000
F0010000008429600001000000431178400011050500000000000000000201603300002001EFRAIN ALVAREZ                                    D000000001000000000000000000000000100010010000000000000000000000F0010000008429600120160330000101 00000000000000000000000000000000000000000000000000000000000000000000000000000000000000000000000000000000000000000N 00000000000NCONT   00    00000000000          00000000000000000000000000000000000000000000 000000000000000A000000000000000000000000000000000000000000000 000000000000000000000000000000000000000     00000000                                                                                                                        000000000000000000
F0010000008429600002000000431178400041450500000000000000000201603300002001EFRAIN ALVAREZ                                    C000000000920000000000000000000000100010010000000000000000000000F0010000008429600220160330000101 00000000000000000000000000000000000000000000000000000000000000000000000000000000000000000000000000000000000000000N 00000000000NCONT   00    00000000000          00000000000000000000000000000000000000000000 000000000000000A000000000000000000000000000000000000000000000 000000000000000000000000000000000000000     00000000                                                                                                                        000000000000000000
F0010000008429600003000000431178400042505000000000000000000201603300002001EFRAIN ALVAREZ                                    C000000000080000000000000000000000100010010000000000000000000000F0010000008429600320160330000101 00000000000000000000000000000000000000000000000000000000000000000000000000000000000000000000000000000000000000000N 00000000000NCONT   00    00000000000          00000000000000000000000000000000000000000000 000000000000000A000000000000000000000000000000000000000000000 000000000000000000000000000000000000000     00000000                                                                                                                        000000000000000000
F0010000008429600004000000431178400023658300000000000000000201603300002001EFRAIN ALVAREZ                                    C000000000007400000000000000000000100010010000000000000000000000F0010000008429600420160330000101 00000000000000000000000000000000000000000000000000000000000000000000000000000000000000000000000000000000000000000N 00000000000NCONT   00    00000000000          00000000000000000000000000000000000000000000 000000000000000A000000000000000000000000000000000000000000000 000000000000000000000000000000000000000     00000000                                                                                                                        000000000000000000
F0010000008429600005000000431178400013552100000000000000000201603300002001EFRAIN ALVAREZ                                    D000000000007400000000000000000000100010010000000000000000000000F0010000008429600520160330000101 00000000000000000000000000000000000000000000000000000000000000000000000000000000000000000000000000000000000000000N 00000000000NCONT   00    00000000000          00000000000000000000000000000000000000000000 000000000000000A000000000000000000000000000000000000000000000 000000000000000000000000000000000000000     00000000                                                                                                                        000000000000000000
F0010000008429700001000000431178400011050500000000000000000201603300002001EFRAIN ALVAREZ                                    D000000001000000000000000000000000100010010000000000000000000000F0010000008429700120160330000101 00000000000000000000000000000000000000000000000000000000000000000000000000000000000000000000000000000000000000000N 00000000000NCONT   00    00000000000          00000000000000000000000000000000000000000000 000000000000000A000000000000000000000000000000000000000000000 000000000000000000000000000000000000000     00000000                                                                                                                        000000000000000000
F0010000008429700002000000431178400041450500000000000000000201603300002001EFRAIN ALVAREZ                                    C000000000920000000000000000000000100010010000000000000000000000F0010000008429700220160330000101 00000000000000000000000000000000000000000000000000000000000000000000000000000000000000000000000000000000000000000N 00000000000NCONT   00    00000000000          00000000000000000000000000000000000000000000 000000000000000A000000000000000000000000000000000000000000000 000000000000000000000000000000000000000     00000000                                                                                                                        000000000000000000
F0010000008429700003000000431178400042505000000000000000000201603300002001EFRAIN ALVAREZ                                    C000000000080000000000000000000000100010010000000000000000000000F0010000008429700320160330000101 00000000000000000000000000000000000000000000000000000000000000000000000000000000000000000000000000000000000000000N 00000000000NCONT   00    00000000000          00000000000000000000000000000000000000000000 000000000000000A000000000000000000000000000000000000000000000 000000000000000000000000000000000000000     00000000                                                                                                                        000000000000000000
F0010000008429700004000000431178400023658300000000000000000201603300002001EFRAIN ALVAREZ                                    C000000000007400000000000000000000100010010000000000000000000000F0010000008429700420160330000101 00000000000000000000000000000000000000000000000000000000000000000000000000000000000000000000000000000000000000000N 00000000000NCONT   00    00000000000          00000000000000000000000000000000000000000000 000000000000000A000000000000000000000000000000000000000000000 000000000000000000000000000000000000000     00000000                                                                                                                        000000000000000000
F0010000008429700005000000431178400013552100000000000000000201603300002001EFRAIN ALVAREZ                                    D000000000007400000000000000000000100010010000000000000000000000F0010000008429700520160330000101 00000000000000000000000000000000000000000000000000000000000000000000000000000000000000000000000000000000000000000N 00000000000NCONT   00    00000000000          00000000000000000000000000000000000000000000 000000000000000A000000000000000000000000000000000000000000000 000000000000000000000000000000000000000     00000000                                                                                                                        000000000000000000
F0010000008429800001000000431178400011050500000000000000000201603300002001EFRAIN ALVAREZ                                    D000000000970000000000000000000000100010010000000000000000000000F0010000008429800120160330000101 00000000000000000000000000000000000000000000000000000000000000000000000000000000000000000000000000000000000000000N 00000000000NCONT   00    00000000000          00000000000000000000000000000000000000000000 000000000000000A000000000000000000000000000000000000000000000 000000000000000000000000000000000000000     00000000                                                                                                                        000000000000000000
F0010000008429800002000000431178400041450500000000000000000201603300002001EFRAIN ALVAREZ                                    C000000000920000000000000000000000100010010000000000000000000000F0010000008429800220160330000101 00000000000000000000000000000000000000000000000000000000000000000000000000000000000000000000000000000000000000000N 00000000000NCONT   00    00000000000          00000000000000000000000000000000000000000000 000000000000000A000000000000000000000000000000000000000000000 000000000000000000000000000000000000000     00000000                                                                                                                        000000000000000000
F0010000008429800003000000431178400042505000000000000000000201603300002001EFRAIN ALVAREZ                                    C000000000050000000000000000000000100010010000000000000000000000F0010000008429800320160330000101 00000000000000000000000000000000000000000000000000000000000000000000000000000000000000000000000000000000000000000N 00000000000NCONT   00    00000000000          00000000000000000000000000000000000000000000 000000000000000A000000000000000000000000000000000000000000000 000000000000000000000000000000000000000     00000000                                                                                                                        000000000000000000
F0010000008429800004000000431178400023658300000000000000000201603300002001EFRAIN ALVAREZ                                    C000000000007400000000000000000000100010010000000000000000000000F0010000008429800420160330000101 00000000000000000000000000000000000000000000000000000000000000000000000000000000000000000000000000000000000000000N 00000000000NCONT   00    00000000000          00000000000000000000000000000000000000000000 000000000000000A000000000000000000000000000000000000000000000 000000000000000000000000000000000000000     00000000                                                                                                                        000000000000000000
F0010000008429800005000000431178400013552100000000000000000201603300002001EFRAIN ALVAREZ                                    D000000000007400000000000000000000100010010000000000000000000000F0010000008429800520160330000101 00000000000000000000000000000000000000000000000000000000000000000000000000000000000000000000000000000000000000000N 00000000000NCONT   00    00000000000          00000000000000000000000000000000000000000000 000000000000000A000000000000000000000000000000000000000000000 000000000000000000000000000000000000000     00000000                                                                                                                        000000000000000000
F0010000008429900001000003314755400011050500000000000000000201603300002001DISTRIBUCIONES RUMA                               D000000001500000000000000000000000100010010000000000000000000000F0010000008429900120160330000101 00000000000000000000000000000000000000000000000000000000000000000000000000000000000000000000000000000000000000000N 00000000000NCONT   00    00000000000          00000000000000000000000000000000000000000000 000000000000000A000000000000000000000000000000000000000000000 000000000000000000000000000000000000000     00000000                                                                                                                        000000000000000000
F0010000008429900002000003314755400041450500000000000000000201603300002001DISTRIBUCIONES RUMA                               C000000001400000000000000000000000100010010000000000000000000000F0010000008429900220160330000101 00000000000000000000000000000000000000000000000000000000000000000000000000000000000000000000000000000000000000000N 00000000000NCONT   00    00000000000          00000000000000000000000000000000000000000000 000000000000000A000000000000000000000000000000000000000000000 000000000000000000000000000000000000000     00000000                                                                                                                        000000000000000000
F0010000008429900003000003314755400042505000000000000000000201603300002001DISTRIBUCIONES RUMA                               C000000000100000000000000000000000100010010000000000000000000000F0010000008429900320160330000101 00000000000000000000000000000000000000000000000000000000000000000000000000000000000000000000000000000000000000000N 00000000000NCONT   00    00000000000          00000000000000000000000000000000000000000000 000000000000000A000000000000000000000000000000000000000000000 000000000000000000000000000000000000000     00000000                                                                                                                        000000000000000000
F0010000008429900004000003314755400023658300000000000000000201603300002001DISTRIBUCIONES RUMA                               C000000000011200000000000000000000100010010000000000000000000000F0010000008429900420160330000101 00000000000000000000000000000000000000000000000000000000000000000000000000000000000000000000000000000000000000000N 00000000000NCONT   00    00000000000          00000000000000000000000000000000000000000000 000000000000000A000000000000000000000000000000000000000000000 000000000000000000000000000000000000000     00000000                                                                                                                        000000000000000000
F0010000008429900005000003314755400013552100000000000000000201603300002001DISTRIBUCIONES RUMA                               D000000000011200000000000000000000100010010000000000000000000000F0010000008429900520160330000101 00000000000000000000000000000000000000000000000000000000000000000000000000000000000000000000000000000000000000000N 00000000000NCONT   00    00000000000          00000000000000000000000000000000000000000000 000000000000000A000000000000000000000000000000000000000000000 000000000000000000000000000000000000000     00000000                                                                                                                        000000000000000000
F0010000008430000001000003314755400011050500000000000000000201603300002001RUMATEX DE COLOMBIA                               D000000001200000000000000000000000100010010000000000000000000000F0010000008430000120160330000101 00000000000000000000000000000000000000000000000000000000000000000000000000000000000000000000000000000000000000000N 00000000000NCONT   00    00000000000          00000000000000000000000000000000000000000000 000000000000000A000000000000000000000000000000000000000000000 000000000000000000000000000000000000000     00000000                                                                                                                        000000000000000000
F0010000008430000002000003314755400041450500000000000000000201603300002001RUMATEX DE COLOMBIA                               C000000000900000000000000000000000100010010000000000000000000000F0010000008430000220160330000101 00000000000000000000000000000000000000000000000000000000000000000000000000000000000000000000000000000000000000000N 00000000000NCONT   00    00000000000          00000000000000000000000000000000000000000000 000000000000000A000000000000000000000000000000000000000000000 000000000000000000000000000000000000000     00000000                                                                                                                        000000000000000000
F0010000008430000003000003314755400042505000000000000000000201603300002001RUMATEX DE COLOMBIA                               C000000000300000000000000000000000100010010000000000000000000000F0010000008430000320160330000101 00000000000000000000000000000000000000000000000000000000000000000000000000000000000000000000000000000000000000000N 00000000000NCONT   00    00000000000          00000000000000000000000000000000000000000000 000000000000000A000000000000000000000000000000000000000000000 000000000000000000000000000000000000000     00000000                                                                                                                        000000000000000000
F0010000008430000004000003314755400023658300000000000000000201603300002001RUMATEX DE COLOMBIA                               C000000000007200000000000000000000100010010000000000000000000000F0010000008430000420160330000101 00000000000000000000000000000000000000000000000000000000000000000000000000000000000000000000000000000000000000000N 00000000000NCONT   00    00000000000          00000000000000000000000000000000000000000000 000000000000000A000000000000000000000000000000000000000000000 000000000000000000000000000000000000000     00000000                                                                                                                        000000000000000000
F0010000008430000005000003314755400013552100000000000000000201603300002001RUMATEX DE COLOMBIA                               D000000000007200000000000000000000100010010000000000000000000000F0010000008430000520160330000101 00000000000000000000000000000000000000000000000000000000000000000000000000000000000000000000000000000000000000000N 00000000000NCONT   00    00000000000          00000000000000000000000000000000000000000000 000000000000000A000000000000000000000000000000000000000000000 000000000000000000000000000000000000000     00000000                                                                                                                        000000000000000000
F0010000008430100001000003314755400011050500000000000000000201603300002001RUMATEX DE COLOMBIA                               D000000001200000000000000000000000100010010000000000000000000000F0010000008430100120160330000101 00000000000000000000000000000000000000000000000000000000000000000000000000000000000000000000000000000000000000000N 00000000000NCONT   00    00000000000          00000000000000000000000000000000000000000000 000000000000000A000000000000000000000000000000000000000000000 000000000000000000000000000000000000000     00000000                                                                                                                        000000000000000000
F0010000008430100002000003314755400041450500000000000000000201603300002001RUMATEX DE COLOMBIA                               C000000000900000000000000000000000100010010000000000000000000000F0010000008430100220160330000101 00000000000000000000000000000000000000000000000000000000000000000000000000000000000000000000000000000000000000000N 00000000000NCONT   00    00000000000          00000000000000000000000000000000000000000000 000000000000000A000000000000000000000000000000000000000000000 000000000000000000000000000000000000000     00000000                                                                                                                        000000000000000000
F0010000008430100003000003314755400042505000000000000000000201603300002001RUMATEX DE COLOMBIA                               C000000000300000000000000000000000100010010000000000000000000000F0010000008430100320160330000101 00000000000000000000000000000000000000000000000000000000000000000000000000000000000000000000000000000000000000000N 00000000000NCONT   00    00000000000          00000000000000000000000000000000000000000000 000000000000000A000000000000000000000000000000000000000000000 000000000000000000000000000000000000000     00000000                                                                                                                        000000000000000000
F0010000008430100004000003314755400023658300000000000000000201603300002001RUMATEX DE COLOMBIA                               C000000000007200000000000000000000100010010000000000000000000000F0010000008430100420160330000101 00000000000000000000000000000000000000000000000000000000000000000000000000000000000000000000000000000000000000000N 00000000000NCONT   00    00000000000          00000000000000000000000000000000000000000000 000000000000000A000000000000000000000000000000000000000000000 000000000000000000000000000000000000000     00000000                                                                                                                        000000000000000000
F0010000008430100005000003314755400013552100000000000000000201603300002001RUMATEX DE COLOMBIA                               D000000000007200000000000000000000100010010000000000000000000000F0010000008430100520160330000101 00000000000000000000000000000000000000000000000000000000000000000000000000000000000000000000000000000000000000000N 00000000000NCONT   00    00000000000          00000000000000000000000000000000000000000000 000000000000000A000000000000000000000000000000000000000000000 000000000000000000000000000000000000000     00000000                                                                                                                        000000000000000000
F0010000008430200001000007200023300011050500000000000000000201603300002001WILLIAM ORTEGA                                    D000000003100000000000000000000000100010010000000000000000000000F0010000008430200120160330000101 00000000000000000000000000000000000000000000000000000000000000000000000000000000000000000000000000000000000000000N 00000000000NCONT   00    00000000000          00000000000000000000000000000000000000000000 000000000000000A000000000000000000000000000000000000000000000 000000000000000000000000000000000000000     00000000                                                                                                                        000000000000000000
F0010000008430200002000007200023300041450500000000000000000201603300002001WILLIAM ORTEGA                                    C000000002600000000000000000000000100010010000000000000000000000F0010000008430200220160330000101 00000000000000000000000000000000000000000000000000000000000000000000000000000000000000000000000000000000000000000N 00000000000NCONT   00    00000000000          00000000000000000000000000000000000000000000 000000000000000A000000000000000000000000000000000000000000000 000000000000000000000000000000000000000     00000000                                                                                                                        000000000000000000
