F0010000010885300001000003269375300011050500000000000000000201712260002001ROSALY SANCHEZ DUQUE                              D000000001400000000000000000000000100010010000000000000000000000F0010000010885300120171226000101 00000000000000000000000000000000000000000000000000000000000000000000000000000000000000000000000000000000000000000N 00000000000NCONT   00    00000000000          00000000000000000000000000000000000000000000 000000000000000A000000000000000000000000000000000000000000000 000000000000000000000000000000000000000     00000000                                                                                                                        000000000000000000
F0010000010885300002000003269375300041450500000000000000000201712260002001ROSALY SANCHEZ DUQUE                              C000000001300000000000000000000000100010010000000000000000000000F0010000010885300220171226000101 00000000000000000000000000000000000000000000000000000000000000000000000000000000000000000000000000000000000000000N 00000000000NCONT   00    00000000000          00000000000000000000000000000000000000000000 000000000000000A000000000000000000000000000000000000000000000 000000000000000000000000000000000000000     00000000                                                                                                                        000000000000000000
F0010000010885300003000003269375300042505000000000000000000201712260002001ROSALY SANCHEZ DUQUE                              C000000000100000000000000000000000100010010000000000000000000000F0010000010885300320171226000101 00000000000000000000000000000000000000000000000000000000000000000000000000000000000000000000000000000000000000000N 00000000000NCONT   00    00000000000          00000000000000000000000000000000000000000000 000000000000000A000000000000000000000000000000000000000000000 000000000000000000000000000000000000000     00000000                                                                                                                        000000000000000000
F0010000010885300004000003269375300023658300000000000000000201712260002001ROSALY SANCHEZ DUQUE                              C000000000000000000000000000000000100010010000000000000000000000F0010000010885300420171226000101 00000000000000000000000000000000000000000000000000000000000000000000000000000000000000000000000000000000000000000N 00000000000NCONT   00    00000000000          00000000000000000000000000000000000000000000 000000000000000A000000000000000000000000000000000000000000000 000000000000000000000000000000000000000     00000000                                                                                                                        000000000000000000
F0010000010885300005000003269375300013552100000000000000000201712260002001ROSALY SANCHEZ DUQUE                              D000000000000000000000000000000000100010010000000000000000000000F0010000010885300520171226000101 00000000000000000000000000000000000000000000000000000000000000000000000000000000000000000000000000000000000000000N 00000000000NCONT   00    00000000000          00000000000000000000000000000000000000000000 000000000000000A000000000000000000000000000000000000000000000 000000000000000000000000000000000000000     00000000                                                                                                                        000000000000000000
F0010000010885400001000000745492100011050500000000000000000201712260002001DARIO CABARCAS ..                                 D000000002000000000000000000000000100010010000000000000000000000F0010000010885400120171226000101 00000000000000000000000000000000000000000000000000000000000000000000000000000000000000000000000000000000000000000N 00000000000NCONT   00    00000000000          00000000000000000000000000000000000000000000 000000000000000A000000000000000000000000000000000000000000000 000000000000000000000000000000000000000     00000000                                                                                                                        000000000000000000
F0010000010885400002000000745492100041450500000000000000000201712260002001DARIO CABARCAS ..                                 C000000001600000000000000000000000100010010000000000000000000000F0010000010885400220171226000101 00000000000000000000000000000000000000000000000000000000000000000000000000000000000000000000000000000000000000000N 00000000000NCONT   00    00000000000          00000000000000000000000000000000000000000000 000000000000000A000000000000000000000000000000000000000000000 000000000000000000000000000000000000000     00000000                                                                                                                        000000000000000000
F0010000010885400003000000745492100042505000000000000000000201712260002001DARIO CABARCAS ..                                 C000000000400000000000000000000000100010010000000000000000000000F0010000010885400320171226000101 00000000000000000000000000000000000000000000000000000000000000000000000000000000000000000000000000000000000000000N 00000000000NCONT   00    00000000000          00000000000000000000000000000000000000000000 000000000000000A000000000000000000000000000000000000000000000 000000000000000000000000000000000000000     00000000                                                                                                                        000000000000000000
F0010000010885400004000000745492100023658300000000000000000201712260002001DARIO CABARCAS ..                                 C000000000000000000000000000000000100010010000000000000000000000F0010000010885400420171226000101 00000000000000000000000000000000000000000000000000000000000000000000000000000000000000000000000000000000000000000N 00000000000NCONT   00    00000000000          00000000000000000000000000000000000000000000 000000000000000A000000000000000000000000000000000000000000000 000000000000000000000000000000000000000     00000000                                                                                                                        000000000000000000
F0010000010885400005000000745492100013552100000000000000000201712260002001DARIO CABARCAS ..                                 D000000000000000000000000000000000100010010000000000000000000000F0010000010885400520171226000101 00000000000000000000000000000000000000000000000000000000000000000000000000000000000000000000000000000000000000000N 00000000000NCONT   00    00000000000          00000000000000000000000000000000000000000000 000000000000000A000000000000000000000000000000000000000000000 000000000000000000000000000000000000000     00000000                                                                                                                        000000000000000000
F0010000010885500001000080201411900011050500000000000000000201712260002001PLASTISERVICIOS S DE H                            D000000001400000000000000000000000100010010000000000000000000000F0010000010885500120171226000101 00000000000000000000000000000000000000000000000000000000000000000000000000000000000000000000000000000000000000000N 00000000000NCONT   00    00000000000          00000000000000000000000000000000000000000000 000000000000000A000000000000000000000000000000000000000000000 000000000000000000000000000000000000000     00000000                                                                                                                        000000000000000000
F0010000010885500002000080201411900041450500000000000000000201712260002001PLASTISERVICIOS S DE H                            C000000001100000000000000000000000100010010000000000000000000000F0010000010885500220171226000101 00000000000000000000000000000000000000000000000000000000000000000000000000000000000000000000000000000000000000000N 00000000000NCONT   00    00000000000          00000000000000000000000000000000000000000000 000000000000000A000000000000000000000000000000000000000000000 000000000000000000000000000000000000000     00000000                                                                                                                        000000000000000000
F0010000010885500003000080201411900042505000000000000000000201712260002001PLASTISERVICIOS S DE H                            C000000000300000000000000000000000100010010000000000000000000000F0010000010885500320171226000101 00000000000000000000000000000000000000000000000000000000000000000000000000000000000000000000000000000000000000000N 00000000000NCONT   00    00000000000          00000000000000000000000000000000000000000000 000000000000000A000000000000000000000000000000000000000000000 000000000000000000000000000000000000000     00000000                                                                                                                        000000000000000000
F0010000010885500004000080201411900023658300000000000000000201712260002001PLASTISERVICIOS S DE H                            C000000000000000000000000000000000100010010000000000000000000000F0010000010885500420171226000101 00000000000000000000000000000000000000000000000000000000000000000000000000000000000000000000000000000000000000000N 00000000000NCONT   00    00000000000          00000000000000000000000000000000000000000000 000000000000000A000000000000000000000000000000000000000000000 000000000000000000000000000000000000000     00000000                                                                                                                        000000000000000000
F0010000010885500005000080201411900013552100000000000000000201712260002001PLASTISERVICIOS S DE H                            D000000000000000000000000000000000100010010000000000000000000000F0010000010885500520171226000101 00000000000000000000000000000000000000000000000000000000000000000000000000000000000000000000000000000000000000000N 00000000000NCONT   00    00000000000          00000000000000000000000000000000000000000000 000000000000000A000000000000000000000000000000000000000000000 000000000000000000000000000000000000000     00000000                                                                                                                        000000000000000000
F0010000010885600001000080201411900011050500000000000000000201712260002001PLASTISERVICIOS S DE H                            D000000005000000000000000000000000100010010000000000000000000000F0010000010885600120171226000101 00000000000000000000000000000000000000000000000000000000000000000000000000000000000000000000000000000000000000000N 00000000000NCONT   00    00000000000          00000000000000000000000000000000000000000000 000000000000000A000000000000000000000000000000000000000000000 000000000000000000000000000000000000000     00000000                                                                                                                        000000000000000000
F0010000010885600002000080201411900041450500000000000000000201712260002001PLASTISERVICIOS S DE H                            C000000004400000000000000000000000100010010000000000000000000000F0010000010885600220171226000101 00000000000000000000000000000000000000000000000000000000000000000000000000000000000000000000000000000000000000000N 00000000000NCONT   00    00000000000          00000000000000000000000000000000000000000000 000000000000000A000000000000000000000000000000000000000000000 000000000000000000000000000000000000000     00000000                                                                                                                        000000000000000000
F0010000010885600003000080201411900042505000000000000000000201712260002001PLASTISERVICIOS S DE H                            C000000000600000000000000000000000100010010000000000000000000000F0010000010885600320171226000101 00000000000000000000000000000000000000000000000000000000000000000000000000000000000000000000000000000000000000000N 00000000000NCONT   00    00000000000          00000000000000000000000000000000000000000000 000000000000000A000000000000000000000000000000000000000000000 000000000000000000000000000000000000000     00000000                                                                                                                        000000000000000000
F0010000010885600004000080201411900023658300000000000000000201712260002001PLASTISERVICIOS S DE H                            C000000000000000000000000000000000100010010000000000000000000000F0010000010885600420171226000101 00000000000000000000000000000000000000000000000000000000000000000000000000000000000000000000000000000000000000000N 00000000000NCONT   00    00000000000          00000000000000000000000000000000000000000000 000000000000000A000000000000000000000000000000000000000000000 000000000000000000000000000000000000000     00000000                                                                                                                        000000000000000000
F0010000010885600005000080201411900013552100000000000000000201712260002001PLASTISERVICIOS S DE H                            D000000000000000000000000000000000100010010000000000000000000000F0010000010885600520171226000101 00000000000000000000000000000000000000000000000000000000000000000000000000000000000000000000000000000000000000000N 00000000000NCONT   00    00000000000          00000000000000000000000000000000000000000000 000000000000000A000000000000000000000000000000000000000000000 000000000000000000000000000000000000000     00000000                                                                                                                        000000000000000000
F0010000010885700001000080201411900011050500000000000000000201712260002001PLASTISERVICIOS S DE H                            D000000003200000000000000000000000100010010000000000000000000000F0010000010885700120171226000101 00000000000000000000000000000000000000000000000000000000000000000000000000000000000000000000000000000000000000000N 00000000000NCONT   00    00000000000          00000000000000000000000000000000000000000000 000000000000000A000000000000000000000000000000000000000000000 000000000000000000000000000000000000000     00000000                                                                                                                        000000000000000000
F0010000010885700002000080201411900041450500000000000000000201712260002001PLASTISERVICIOS S DE H                            C000000002200000000000000000000000100010010000000000000000000000F0010000010885700220171226000101 00000000000000000000000000000000000000000000000000000000000000000000000000000000000000000000000000000000000000000N 00000000000NCONT   00    00000000000          00000000000000000000000000000000000000000000 000000000000000A000000000000000000000000000000000000000000000 000000000000000000000000000000000000000     00000000                                                                                                                        000000000000000000
F0010000010885700003000080201411900042505000000000000000000201712260002001PLASTISERVICIOS S DE H                            C000000001000000000000000000000000100010010000000000000000000000F0010000010885700320171226000101 00000000000000000000000000000000000000000000000000000000000000000000000000000000000000000000000000000000000000000N 00000000000NCONT   00    00000000000          00000000000000000000000000000000000000000000 000000000000000A000000000000000000000000000000000000000000000 000000000000000000000000000000000000000     00000000                                                                                                                        000000000000000000
F0010000010885700004000080201411900023658300000000000000000201712260002001PLASTISERVICIOS S DE H                            C000000000000000000000000000000000100010010000000000000000000000F0010000010885700420171226000101 00000000000000000000000000000000000000000000000000000000000000000000000000000000000000000000000000000000000000000N 00000000000NCONT   00    00000000000          00000000000000000000000000000000000000000000 000000000000000A000000000000000000000000000000000000000000000 000000000000000000000000000000000000000     00000000                                                                                                                        000000000000000000
F0010000010885700005000080201411900013552100000000000000000201712260002001PLASTISERVICIOS S DE H                            D000000000000000000000000000000000100010010000000000000000000000F0010000010885700520171226000101 00000000000000000000000000000000000000000000000000000000000000000000000000000000000000000000000000000000000000000N 00000000000NCONT   00    00000000000          00000000000000000000000000000000000000000000 000000000000000A000000000000000000000000000000000000000000000 000000000000000000000000000000000000000     00000000                                                                                                                        000000000000000000
F0010000010885800001000080201411900011050500000000000000000201712260002001PLASTISERVICIOS S DE H                            D000000005400000000000000000000000100010010000000000000000000000F0010000010885800120171226000101 00000000000000000000000000000000000000000000000000000000000000000000000000000000000000000000000000000000000000000N 00000000000NCONT   00    00000000000          00000000000000000000000000000000000000000000 000000000000000A000000000000000000000000000000000000000000000 000000000000000000000000000000000000000     00000000                                                                                                                        000000000000000000
F0010000010885800002000080201411900041450500000000000000000201712260002001PLASTISERVICIOS S DE H                            C000000004400000000000000000000000100010010000000000000000000000F0010000010885800220171226000101 00000000000000000000000000000000000000000000000000000000000000000000000000000000000000000000000000000000000000000N 00000000000NCONT   00    00000000000          00000000000000000000000000000000000000000000 000000000000000A000000000000000000000000000000000000000000000 000000000000000000000000000000000000000     00000000                                                                                                                        000000000000000000
F0010000010885800003000080201411900042505000000000000000000201712260002001PLASTISERVICIOS S DE H                            C000000001000000000000000000000000100010010000000000000000000000F0010000010885800320171226000101 00000000000000000000000000000000000000000000000000000000000000000000000000000000000000000000000000000000000000000N 00000000000NCONT   00    00000000000          00000000000000000000000000000000000000000000 000000000000000A000000000000000000000000000000000000000000000 000000000000000000000000000000000000000     00000000                                                                                                                        000000000000000000
F0010000010885800004000080201411900023658300000000000000000201712260002001PLASTISERVICIOS S DE H                            C000000000000000000000000000000000100010010000000000000000000000F0010000010885800420171226000101 00000000000000000000000000000000000000000000000000000000000000000000000000000000000000000000000000000000000000000N 00000000000NCONT   00    00000000000          00000000000000000000000000000000000000000000 000000000000000A000000000000000000000000000000000000000000000 000000000000000000000000000000000000000     00000000                                                                                                                        000000000000000000
F0010000010885800005000080201411900013552100000000000000000201712260002001PLASTISERVICIOS S DE H                            D000000000000000000000000000000000100010010000000000000000000000F0010000010885800520171226000101 00000000000000000000000000000000000000000000000000000000000000000000000000000000000000000000000000000000000000000N 00000000000NCONT   00    00000000000          00000000000000000000000000000000000000000000 000000000000000A000000000000000000000000000000000000000000000 000000000000000000000000000000000000000     00000000                                                                                                                        000000000000000000
F0010000010885900001000000856527900011050500000000000000000201712260002001CESAR AUGUSTO MIER BUELVAS                        D000000001300000000000000000000000100010010000000000000000000000F0010000010885900120171226000101 00000000000000000000000000000000000000000000000000000000000000000000000000000000000000000000000000000000000000000N 00000000000NCONT   00    00000000000          00000000000000000000000000000000000000000000 000000000000000A000000000000000000000000000000000000000000000 000000000000000000000000000000000000000     00000000                                                                                                                        000000000000000000
F0010000010885900002000000856527900041450500000000000000000201712260002001CESAR AUGUSTO MIER BUELVAS                        C000000001200000000000000000000000100010010000000000000000000000F0010000010885900220171226000101 00000000000000000000000000000000000000000000000000000000000000000000000000000000000000000000000000000000000000000N 00000000000NCONT   00    00000000000          00000000000000000000000000000000000000000000 000000000000000A000000000000000000000000000000000000000000000 000000000000000000000000000000000000000     00000000                                                                                                                        000000000000000000
F0010000010885900003000000856527900042505000000000000000000201712260002001CESAR AUGUSTO MIER BUELVAS                        C000000000100000000000000000000000100010010000000000000000000000F0010000010885900320171226000101 00000000000000000000000000000000000000000000000000000000000000000000000000000000000000000000000000000000000000000N 00000000000NCONT   00    00000000000          00000000000000000000000000000000000000000000 000000000000000A000000000000000000000000000000000000000000000 000000000000000000000000000000000000000     00000000                                                                                                                        000000000000000000
F0010000010885900004000000856527900023658300000000000000000201712260002001CESAR AUGUSTO MIER BUELVAS                        C000000000000000000000000000000000100010010000000000000000000000F0010000010885900420171226000101 00000000000000000000000000000000000000000000000000000000000000000000000000000000000000000000000000000000000000000N 00000000000NCONT   00    00000000000          00000000000000000000000000000000000000000000 000000000000000A000000000000000000000000000000000000000000000 000000000000000000000000000000000000000     00000000                                                                                                                        000000000000000000
F0010000010885900005000000856527900013552100000000000000000201712260002001CESAR AUGUSTO MIER BUELVAS                        D000000000000000000000000000000000100010010000000000000000000000F0010000010885900520171226000101 00000000000000000000000000000000000000000000000000000000000000000000000000000000000000000000000000000000000000000N 00000000000NCONT   00    00000000000          00000000000000000000000000000000000000000000 000000000000000A000000000000000000000000000000000000000000000 000000000000000000000000000000000000000     00000000                                                                                                                        000000000000000000
F0010000010886000001000090027500500011050500000000000000000201712260002001MULTIALUMINIOS LA 30 SAS                          D000000006300000000000000000000000100010010000000000000000000000F0010000010886000120171226000101 00000000000000000000000000000000000000000000000000000000000000000000000000000000000000000000000000000000000000000N 00000000000NCONT   00    00000000000          00000000000000000000000000000000000000000000 000000000000000A000000000000000000000000000000000000000000000 000000000000000000000000000000000000000     00000000                                                                                                                        000000000000000000
F0010000010886000002000090027500500041450500000000000000000201712260002001MULTIALUMINIOS LA 30 SAS                          C000000004850000000000000000000000100010010000000000000000000000F0010000010886000220171226000101 00000000000000000000000000000000000000000000000000000000000000000000000000000000000000000000000000000000000000000N 00000000000NCONT   00    00000000000          00000000000000000000000000000000000000000000 000000000000000A000000000000000000000000000000000000000000000 000000000000000000000000000000000000000     00000000                                                                                                                        000000000000000000
F0010000010886000003000090027500500042505000000000000000000201712260002001MULTIALUMINIOS LA 30 SAS                          C000000001450000000000000000000000100010010000000000000000000000F0010000010886000320171226000101 00000000000000000000000000000000000000000000000000000000000000000000000000000000000000000000000000000000000000000N 00000000000NCONT   00    00000000000          00000000000000000000000000000000000000000000 000000000000000A000000000000000000000000000000000000000000000 000000000000000000000000000000000000000     00000000                                                                                                                        000000000000000000
F0010000010886000004000090027500500023658300000000000000000201712260002001MULTIALUMINIOS LA 30 SAS                          C000000000000000000000000000000000100010010000000000000000000000F0010000010886000420171226000101 00000000000000000000000000000000000000000000000000000000000000000000000000000000000000000000000000000000000000000N 00000000000NCONT   00    00000000000          00000000000000000000000000000000000000000000 000000000000000A000000000000000000000000000000000000000000000 000000000000000000000000000000000000000     00000000                                                                                                                        000000000000000000
F0010000010886000005000090027500500013552100000000000000000201712260002001MULTIALUMINIOS LA 30 SAS                          D000000000000000000000000000000000100010010000000000000000000000F0010000010886000520171226000101 00000000000000000000000000000000000000000000000000000000000000000000000000000000000000000000000000000000000000000N 00000000000NCONT   00    00000000000          00000000000000000000000000000000000000000000 000000000000000A000000000000000000000000000000000000000000000 000000000000000000000000000000000000000     00000000                                                                                                                        000000000000000000
F0010000010886100001000090027500500011050500000000000000000201712260002001MULTIALUMINIOS LA 30 SAS                          D000000006600000000000000000000000100010010000000000000000000000F0010000010886100120171226000101 00000000000000000000000000000000000000000000000000000000000000000000000000000000000000000000000000000000000000000N 00000000000NCONT   00    00000000000          00000000000000000000000000000000000000000000 000000000000000A000000000000000000000000000000000000000000000 000000000000000000000000000000000000000     00000000                                                                                                                        000000000000000000
F0010000010886100002000090027500500041450500000000000000000201712260002001MULTIALUMINIOS LA 30 SAS                          C000000005550000000000000000000000100010010000000000000000000000F0010000010886100220171226000101 00000000000000000000000000000000000000000000000000000000000000000000000000000000000000000000000000000000000000000N 00000000000NCONT   00    00000000000          00000000000000000000000000000000000000000000 000000000000000A000000000000000000000000000000000000000000000 000000000000000000000000000000000000000     00000000                                                                                                                        000000000000000000
F0010000010886100003000090027500500042505000000000000000000201712260002001MULTIALUMINIOS LA 30 SAS                          C000000001050000000000000000000000100010010000000000000000000000F0010000010886100320171226000101 00000000000000000000000000000000000000000000000000000000000000000000000000000000000000000000000000000000000000000N 00000000000NCONT   00    00000000000          00000000000000000000000000000000000000000000 000000000000000A000000000000000000000000000000000000000000000 000000000000000000000000000000000000000     00000000                                                                                                                        000000000000000000
F0010000010886100004000090027500500023658300000000000000000201712260002001MULTIALUMINIOS LA 30 SAS                          C000000000000000000000000000000000100010010000000000000000000000F0010000010886100420171226000101 00000000000000000000000000000000000000000000000000000000000000000000000000000000000000000000000000000000000000000N 00000000000NCONT   00    00000000000          00000000000000000000000000000000000000000000 000000000000000A000000000000000000000000000000000000000000000 000000000000000000000000000000000000000     00000000                                                                                                                        000000000000000000
F0010000010886100005000090027500500013552100000000000000000201712260002001MULTIALUMINIOS LA 30 SAS                          D000000000000000000000000000000000100010010000000000000000000000F0010000010886100520171226000101 00000000000000000000000000000000000000000000000000000000000000000000000000000000000000000000000000000000000000000N 00000000000NCONT   00    00000000000          00000000000000000000000000000000000000000000 000000000000000A000000000000000000000000000000000000000000000 000000000000000000000000000000000000000     00000000                                                                                                                        000000000000000000
F0010000010886200001000004175790100011050500000000000000000201712260002001ROSIRIS FERIA HOYOS  (COSM. SHILLER)              D000000000650000000000000000000000100010010000000000000000000000F0010000010886200120171226000101 00000000000000000000000000000000000000000000000000000000000000000000000000000000000000000000000000000000000000000N 00000000000NCONT   00    00000000000          00000000000000000000000000000000000000000000 000000000000000A000000000000000000000000000000000000000000000 000000000000000000000000000000000000000     00000000                                                                                                                        000000000000000000
F0010000010886200002000004175790100041450500000000000000000201712260002001ROSIRIS FERIA HOYOS  (COSM. SHILLER)              C000000000300000000000000000000000100010010000000000000000000000F0010000010886200220171226000101 00000000000000000000000000000000000000000000000000000000000000000000000000000000000000000000000000000000000000000N 00000000000NCONT   00    00000000000          00000000000000000000000000000000000000000000 000000000000000A000000000000000000000000000000000000000000000 000000000000000000000000000000000000000     00000000                                                                                                                        000000000000000000
F0010000010886200003000004175790100042505000000000000000000201712260002001ROSIRIS FERIA HOYOS  (COSM. SHILLER)              C000000000350000000000000000000000100010010000000000000000000000F0010000010886200320171226000101 00000000000000000000000000000000000000000000000000000000000000000000000000000000000000000000000000000000000000000N 00000000000NCONT   00    00000000000          00000000000000000000000000000000000000000000 000000000000000A000000000000000000000000000000000000000000000 000000000000000000000000000000000000000     00000000                                                                                                                        000000000000000000
F0010000010886200004000004175790100023658300000000000000000201712260002001ROSIRIS FERIA HOYOS  (COSM. SHILLER)              C000000000000000000000000000000000100010010000000000000000000000F0010000010886200420171226000101 00000000000000000000000000000000000000000000000000000000000000000000000000000000000000000000000000000000000000000N 00000000000NCONT   00    00000000000          00000000000000000000000000000000000000000000 000000000000000A000000000000000000000000000000000000000000000 000000000000000000000000000000000000000     00000000                                                                                                                        000000000000000000
F0010000010886200005000004175790100013552100000000000000000201712260002001ROSIRIS FERIA HOYOS  (COSM. SHILLER)              D000000000000000000000000000000000100010010000000000000000000000F0010000010886200520171226000101 00000000000000000000000000000000000000000000000000000000000000000000000000000000000000000000000000000000000000000N 00000000000NCONT   00    00000000000          00000000000000000000000000000000000000000000 000000000000000A000000000000000000000000000000000000000000000 000000000000000000000000000000000000000     00000000                                                                                                                        000000000000000000
F0010000010886300001000007200023300011050500000000000000000201712260002001WILLIAM ORTEGA                                    D000000001040000000000000000000000100010010000000000000000000000F0010000010886300120171226000101 00000000000000000000000000000000000000000000000000000000000000000000000000000000000000000000000000000000000000000N 00000000000NCONT   00    00000000000          00000000000000000000000000000000000000000000 000000000000000A000000000000000000000000000000000000000000000 000000000000000000000000000000000000000     00000000                                                                                                                        000000000000000000
F0010000010886300002000007200023300041450500000000000000000201712260002001WILLIAM ORTEGA                                    C000000000850000000000000000000000100010010000000000000000000000F0010000010886300220171226000101 00000000000000000000000000000000000000000000000000000000000000000000000000000000000000000000000000000000000000000N 00000000000NCONT   00    00000000000          00000000000000000000000000000000000000000000 000000000000000A000000000000000000000000000000000000000000000 000000000000000000000000000000000000000     00000000                                                                                                                        000000000000000000
F0010000010886300003000007200023300042505000000000000000000201712260002001WILLIAM ORTEGA                                    C000000000190000000000000000000000100010010000000000000000000000F0010000010886300320171226000101 00000000000000000000000000000000000000000000000000000000000000000000000000000000000000000000000000000000000000000N 00000000000NCONT   00    00000000000          00000000000000000000000000000000000000000000 000000000000000A000000000000000000000000000000000000000000000 000000000000000000000000000000000000000     00000000                                                                                                                        000000000000000000
F0010000010886300004000007200023300023658300000000000000000201712260002001WILLIAM ORTEGA                                    C000000000000000000000000000000000100010010000000000000000000000F0010000010886300420171226000101 00000000000000000000000000000000000000000000000000000000000000000000000000000000000000000000000000000000000000000N 00000000000NCONT   00    00000000000          00000000000000000000000000000000000000000000 000000000000000A000000000000000000000000000000000000000000000 000000000000000000000000000000000000000     00000000                                                                                                                        000000000000000000
F0010000010886300005000007200023300013552100000000000000000201712260002001WILLIAM ORTEGA                                    D000000000000000000000000000000000100010010000000000000000000000F0010000010886300520171226000101 00000000000000000000000000000000000000000000000000000000000000000000000000000000000000000000000000000000000000000N 00000000000NCONT   00    00000000000          00000000000000000000000000000000000000000000 000000000000000A000000000000000000000000000000000000000000000 000000000000000000000000000000000000000     00000000                                                                                                                        000000000000000000
F0010000010886400001000007200023300011050500000000000000000201712260002001WILLIAM ORTEGA                                    D000000001010000000000000000000000100010010000000000000000000000F0010000010886400120171226000101 00000000000000000000000000000000000000000000000000000000000000000000000000000000000000000000000000000000000000000N 00000000000NCONT   00    00000000000          00000000000000000000000000000000000000000000 000000000000000A000000000000000000000000000000000000000000000 000000000000000000000000000000000000000     00000000                                                                                                                        000000000000000000
F0010000010886400002000007200023300041450500000000000000000201712260002001WILLIAM ORTEGA                                    C000000000850000000000000000000000100010010000000000000000000000F0010000010886400220171226000101 00000000000000000000000000000000000000000000000000000000000000000000000000000000000000000000000000000000000000000N 00000000000NCONT   00    00000000000          00000000000000000000000000000000000000000000 000000000000000A000000000000000000000000000000000000000000000 000000000000000000000000000000000000000     00000000                                                                                                                        000000000000000000
F0010000010886400003000007200023300042505000000000000000000201712260002001WILLIAM ORTEGA                                    C000000000160000000000000000000000100010010000000000000000000000F0010000010886400320171226000101 00000000000000000000000000000000000000000000000000000000000000000000000000000000000000000000000000000000000000000N 00000000000NCONT   00    00000000000          00000000000000000000000000000000000000000000 000000000000000A000000000000000000000000000000000000000000000 000000000000000000000000000000000000000     00000000                                                                                                                        000000000000000000
F0010000010886400004000007200023300023658300000000000000000201712260002001WILLIAM ORTEGA                                    C000000000000000000000000000000000100010010000000000000000000000F0010000010886400420171226000101 00000000000000000000000000000000000000000000000000000000000000000000000000000000000000000000000000000000000000000N 00000000000NCONT   00    00000000000          00000000000000000000000000000000000000000000 000000000000000A000000000000000000000000000000000000000000000 000000000000000000000000000000000000000     00000000                                                                                                                        000000000000000000
F0010000010886400005000007200023300013552100000000000000000201712260002001WILLIAM ORTEGA                                    D000000000000000000000000000000000100010010000000000000000000000F0010000010886400520171226000101 00000000000000000000000000000000000000000000000000000000000000000000000000000000000000000000000000000000000000000N 00000000000NCONT   00    00000000000          00000000000000000000000000000000000000000000 000000000000000A000000000000000000000000000000000000000000000 000000000000000000000000000000000000000     00000000                                                                                                                        000000000000000000
F0010000010886500001000007200023300011050500000000000000000201712260002001WILLIAM ORTEGA                                    D000000002000000000000000000000000100010010000000000000000000000F0010000010886500120171226000101 00000000000000000000000000000000000000000000000000000000000000000000000000000000000000000000000000000000000000000N 00000000000NCONT   00    00000000000          00000000000000000000000000000000000000000000 000000000000000A000000000000000000000000000000000000000000000 000000000000000000000000000000000000000     00000000                                                                                                                        000000000000000000
F0010000010886500002000007200023300041450500000000000000000201712260002001WILLIAM ORTEGA                                    C000000001700000000000000000000000100010010000000000000000000000F0010000010886500220171226000101 00000000000000000000000000000000000000000000000000000000000000000000000000000000000000000000000000000000000000000N 00000000000NCONT   00    00000000000          00000000000000000000000000000000000000000000 000000000000000A000000000000000000000000000000000000000000000 000000000000000000000000000000000000000     00000000                                                                                                                        000000000000000000
F0010000010886500003000007200023300042505000000000000000000201712260002001WILLIAM ORTEGA                                    C000000000300000000000000000000000100010010000000000000000000000F0010000010886500320171226000101 00000000000000000000000000000000000000000000000000000000000000000000000000000000000000000000000000000000000000000N 00000000000NCONT   00    00000000000          00000000000000000000000000000000000000000000 000000000000000A000000000000000000000000000000000000000000000 000000000000000000000000000000000000000     00000000                                                                                                                        000000000000000000
F0010000010886500004000007200023300023658300000000000000000201712260002001WILLIAM ORTEGA                                    C000000000000000000000000000000000100010010000000000000000000000F0010000010886500420171226000101 00000000000000000000000000000000000000000000000000000000000000000000000000000000000000000000000000000000000000000N 00000000000NCONT   00    00000000000          00000000000000000000000000000000000000000000 000000000000000A000000000000000000000000000000000000000000000 000000000000000000000000000000000000000     00000000                                                                                                                        000000000000000000
F0010000010886500005000007200023300013552100000000000000000201712260002001WILLIAM ORTEGA                                    D000000000000000000000000000000000100010010000000000000000000000F0010000010886500520171226000101 00000000000000000000000000000000000000000000000000000000000000000000000000000000000000000000000000000000000000000N 00000000000NCONT   00    00000000000          00000000000000000000000000000000000000000000 000000000000000A000000000000000000000000000000000000000000000 000000000000000000000000000000000000000     00000000                                                                                                                        000000000000000000
F0010000010886600001000000880264000011050500000000000000000201712260002001ARLEY GOMEZ                                       D000000002800000000000000000000000100010010000000000000000000000F0010000010886600120171226000101 00000000000000000000000000000000000000000000000000000000000000000000000000000000000000000000000000000000000000000N 00000000000NCONT   00    00000000000          00000000000000000000000000000000000000000000 000000000000000A000000000000000000000000000000000000000000000 000000000000000000000000000000000000000     00000000                                                                                                                        000000000000000000
F0010000010886600002000000880264000041450500000000000000000201712260002001ARLEY GOMEZ                                       C000000002200000000000000000000000100010010000000000000000000000F0010000010886600220171226000101 00000000000000000000000000000000000000000000000000000000000000000000000000000000000000000000000000000000000000000N 00000000000NCONT   00    00000000000          00000000000000000000000000000000000000000000 000000000000000A000000000000000000000000000000000000000000000 000000000000000000000000000000000000000     00000000                                                                                                                        000000000000000000
F0010000010886600003000000880264000042505000000000000000000201712260002001ARLEY GOMEZ                                       C000000000600000000000000000000000100010010000000000000000000000F0010000010886600320171226000101 00000000000000000000000000000000000000000000000000000000000000000000000000000000000000000000000000000000000000000N 00000000000NCONT   00    00000000000          00000000000000000000000000000000000000000000 000000000000000A000000000000000000000000000000000000000000000 000000000000000000000000000000000000000     00000000                                                                                                                        000000000000000000
F0010000010886600004000000880264000023658300000000000000000201712260002001ARLEY GOMEZ                                       C000000000000000000000000000000000100010010000000000000000000000F0010000010886600420171226000101 00000000000000000000000000000000000000000000000000000000000000000000000000000000000000000000000000000000000000000N 00000000000NCONT   00    00000000000          00000000000000000000000000000000000000000000 000000000000000A000000000000000000000000000000000000000000000 000000000000000000000000000000000000000     00000000                                                                                                                        000000000000000000
F0010000010886600005000000880264000013552100000000000000000201712260002001ARLEY GOMEZ                                       D000000000000000000000000000000000100010010000000000000000000000F0010000010886600520171226000101 00000000000000000000000000000000000000000000000000000000000000000000000000000000000000000000000000000000000000000N 00000000000NCONT   00    00000000000          00000000000000000000000000000000000000000000 000000000000000A000000000000000000000000000000000000000000000 000000000000000000000000000000000000000     00000000                                                                                                                        000000000000000000
F0010000010886700001000090061985600011050500000000000000000201712260002001COMERCIALIZADORA PATRY SAS                        D000000001300000000000000000000000100010010000000000000000000000F0010000010886700120171226000101 00000000000000000000000000000000000000000000000000000000000000000000000000000000000000000000000000000000000000000N 00000000000NCONT   00    00000000000          00000000000000000000000000000000000000000000 000000000000000A000000000000000000000000000000000000000000000 000000000000000000000000000000000000000     00000000                                                                                                                        000000000000000000
F0010000010886700002000090061985600041450500000000000000000201712260002001COMERCIALIZADORA PATRY SAS                        C000000001100000000000000000000000100010010000000000000000000000F0010000010886700220171226000101 00000000000000000000000000000000000000000000000000000000000000000000000000000000000000000000000000000000000000000N 00000000000NCONT   00    00000000000          00000000000000000000000000000000000000000000 000000000000000A000000000000000000000000000000000000000000000 000000000000000000000000000000000000000     00000000                                                                                                                        000000000000000000
F0010000010886700003000090061985600042505000000000000000000201712260002001COMERCIALIZADORA PATRY SAS                        C000000000200000000000000000000000100010010000000000000000000000F0010000010886700320171226000101 00000000000000000000000000000000000000000000000000000000000000000000000000000000000000000000000000000000000000000N 00000000000NCONT   00    00000000000          00000000000000000000000000000000000000000000 000000000000000A000000000000000000000000000000000000000000000 000000000000000000000000000000000000000     00000000                                                                                                                        000000000000000000
F0010000010886700004000090061985600023658300000000000000000201712260002001COMERCIALIZADORA PATRY SAS                        C000000000000000000000000000000000100010010000000000000000000000F0010000010886700420171226000101 00000000000000000000000000000000000000000000000000000000000000000000000000000000000000000000000000000000000000000N 00000000000NCONT   00    00000000000          00000000000000000000000000000000000000000000 000000000000000A000000000000000000000000000000000000000000000 000000000000000000000000000000000000000     00000000                                                                                                                        000000000000000000
F0010000010886700005000090061985600013552100000000000000000201712260002001COMERCIALIZADORA PATRY SAS                        D000000000000000000000000000000000100010010000000000000000000000F0010000010886700520171226000101 00000000000000000000000000000000000000000000000000000000000000000000000000000000000000000000000000000000000000000N 00000000000NCONT   00    00000000000          00000000000000000000000000000000000000000000 000000000000000A000000000000000000000000000000000000000000000 000000000000000000000000000000000000000     00000000                                                                                                                        000000000000000000
F0010000010886800001000002245670100011050500000000000000000201712260002001YOLANDA  TOBON                                    D000000003434500000000000000000000100010010000000000000000000000F0010000010886800120171226000101 00000000000000000000000000000000000000000000000000000000000000000000000000000000000000000000000000000000000000000N 00000000000NCONT   00    00000000000          00000000000000000000000000000000000000000000 000000000000000A000000000000000000000000000000000000000000000 000000000000000000000000000000000000000     00000000                                                                                                                        000000000000000000
F0010000010886800002000002245670100041450500000000000000000201712260002001YOLANDA  TOBON                                    C000000002710000000000000000000000100010010000000000000000000000F0010000010886800220171226000101 00000000000000000000000000000000000000000000000000000000000000000000000000000000000000000000000000000000000000000N 00000000000NCONT   00    00000000000          00000000000000000000000000000000000000000000 000000000000000A000000000000000000000000000000000000000000000 000000000000000000000000000000000000000     00000000                                                                                                                        000000000000000000
F0010000010886800003000002245670100042505000000000000000000201712260002001YOLANDA  TOBON                                    C000000000724500000000000000000000100010010000000000000000000000F0010000010886800320171226000101 00000000000000000000000000000000000000000000000000000000000000000000000000000000000000000000000000000000000000000N 00000000000NCONT   00    00000000000          00000000000000000000000000000000000000000000 000000000000000A000000000000000000000000000000000000000000000 000000000000000000000000000000000000000     00000000                                                                                                                        000000000000000000
F0010000010886800004000002245670100023658300000000000000000201712260002001YOLANDA  TOBON                                    C000000000000000000000000000000000100010010000000000000000000000F0010000010886800420171226000101 00000000000000000000000000000000000000000000000000000000000000000000000000000000000000000000000000000000000000000N 00000000000NCONT   00    00000000000          00000000000000000000000000000000000000000000 000000000000000A000000000000000000000000000000000000000000000 000000000000000000000000000000000000000     00000000                                                                                                                        000000000000000000
F0010000010886800005000002245670100013552100000000000000000201712260002001YOLANDA  TOBON                                    D000000000000000000000000000000000100010010000000000000000000000F0010000010886800520171226000101 00000000000000000000000000000000000000000000000000000000000000000000000000000000000000000000000000000000000000000N 00000000000NCONT   00    00000000000          00000000000000000000000000000000000000000000 000000000000000A000000000000000000000000000000000000000000000 000000000000000000000000000000000000000     00000000                                                                                                                        000000000000000000
F0010000010886900001000002245670100011050500000000000000000201712260002001YOLANDA  TOBON                                    D000000005368500000000000000000000100010010000000000000000000000F0010000010886900120171226000101 00000000000000000000000000000000000000000000000000000000000000000000000000000000000000000000000000000000000000000N 00000000000NCONT   00    00000000000          00000000000000000000000000000000000000000000 000000000000000A000000000000000000000000000000000000000000000 000000000000000000000000000000000000000     00000000                                                                                                                        000000000000000000
F0010000010886900002000002245670100041450500000000000000000201712260002001YOLANDA  TOBON                                    C000000004720000000000000000000000100010010000000000000000000000F0010000010886900220171226000101 00000000000000000000000000000000000000000000000000000000000000000000000000000000000000000000000000000000000000000N 00000000000NCONT   00    00000000000          00000000000000000000000000000000000000000000 000000000000000A000000000000000000000000000000000000000000000 000000000000000000000000000000000000000     00000000                                                                                                                        000000000000000000
F0010000010886900003000002245670100042505000000000000000000201712260002001YOLANDA  TOBON                                    C000000000648500000000000000000000100010010000000000000000000000F0010000010886900320171226000101 00000000000000000000000000000000000000000000000000000000000000000000000000000000000000000000000000000000000000000N 00000000000NCONT   00    00000000000          00000000000000000000000000000000000000000000 000000000000000A000000000000000000000000000000000000000000000 000000000000000000000000000000000000000     00000000                                                                                                                        000000000000000000
F0010000010886900004000002245670100023658300000000000000000201712260002001YOLANDA  TOBON                                    C000000000000000000000000000000000100010010000000000000000000000F0010000010886900420171226000101 00000000000000000000000000000000000000000000000000000000000000000000000000000000000000000000000000000000000000000N 00000000000NCONT   00    00000000000          00000000000000000000000000000000000000000000 000000000000000A000000000000000000000000000000000000000000000 000000000000000000000000000000000000000     00000000                                                                                                                        000000000000000000
F0010000010886900005000002245670100013552100000000000000000201712260002001YOLANDA  TOBON                                    D000000000000000000000000000000000100010010000000000000000000000F0010000010886900520171226000101 00000000000000000000000000000000000000000000000000000000000000000000000000000000000000000000000000000000000000000N 00000000000NCONT   00    00000000000          00000000000000000000000000000000000000000000 000000000000000A000000000000000000000000000000000000000000000 000000000000000000000000000000000000000     00000000                                                                                                                        000000000000000000
F0010000010887000001000007213653800011050500000000000000000201712260002001VICTOR ECHAVEZ                                    D000000001400000000000000000000000100010010000000000000000000000F0010000010887000120171226000101 00000000000000000000000000000000000000000000000000000000000000000000000000000000000000000000000000000000000000000N 00000000000NCONT   00    00000000000          00000000000000000000000000000000000000000000 000000000000000A000000000000000000000000000000000000000000000 000000000000000000000000000000000000000     00000000                                                                                                                        000000000000000000
F0010000010887000002000007213653800041450500000000000000000201712260002001VICTOR ECHAVEZ                                    C000000001100000000000000000000000100010010000000000000000000000F0010000010887000220171226000101 00000000000000000000000000000000000000000000000000000000000000000000000000000000000000000000000000000000000000000N 00000000000NCONT   00    00000000000          00000000000000000000000000000000000000000000 000000000000000A000000000000000000000000000000000000000000000 000000000000000000000000000000000000000     00000000                                                                                                                        000000000000000000
F0010000010887000003000007213653800042505000000000000000000201712260002001VICTOR ECHAVEZ                                    C000000000300000000000000000000000100010010000000000000000000000F0010000010887000320171226000101 00000000000000000000000000000000000000000000000000000000000000000000000000000000000000000000000000000000000000000N 00000000000NCONT   00    00000000000          00000000000000000000000000000000000000000000 000000000000000A000000000000000000000000000000000000000000000 000000000000000000000000000000000000000     00000000                                                                                                                        000000000000000000
F0010000010887000004000007213653800023658300000000000000000201712260002001VICTOR ECHAVEZ                                    C000000000000000000000000000000000100010010000000000000000000000F0010000010887000420171226000101 00000000000000000000000000000000000000000000000000000000000000000000000000000000000000000000000000000000000000000N 00000000000NCONT   00    00000000000          00000000000000000000000000000000000000000000 000000000000000A000000000000000000000000000000000000000000000 000000000000000000000000000000000000000     00000000                                                                                                                        000000000000000000
F0010000010887000005000007213653800013552100000000000000000201712260002001VICTOR ECHAVEZ                                    D000000000000000000000000000000000100010010000000000000000000000F0010000010887000520171226000101 00000000000000000000000000000000000000000000000000000000000000000000000000000000000000000000000000000000000000000N 00000000000NCONT   00    00000000000          00000000000000000000000000000000000000000000 000000000000000A000000000000000000000000000000000000000000000 000000000000000000000000000000000000000     00000000                                                                                                                        000000000000000000
F0010000010887100001000007213653800011050500000000000000000201712260002001VICTOR ECHAVEZ                                    D000000002000000000000000000000000100010010000000000000000000000F0010000010887100120171226000101 00000000000000000000000000000000000000000000000000000000000000000000000000000000000000000000000000000000000000000N 00000000000NCONT   00    00000000000          00000000000000000000000000000000000000000000 000000000000000A000000000000000000000000000000000000000000000 000000000000000000000000000000000000000     00000000                                                                                                                        000000000000000000
F0010000010887100002000007213653800041450500000000000000000201712260002001VICTOR ECHAVEZ                                    C000000001300000000000000000000000100010010000000000000000000000F0010000010887100220171226000101 00000000000000000000000000000000000000000000000000000000000000000000000000000000000000000000000000000000000000000N 00000000000NCONT   00    00000000000          00000000000000000000000000000000000000000000 000000000000000A000000000000000000000000000000000000000000000 000000000000000000000000000000000000000     00000000                                                                                                                        000000000000000000
F0010000010887100003000007213653800042505000000000000000000201712260002001VICTOR ECHAVEZ                                    C000000000700000000000000000000000100010010000000000000000000000F0010000010887100320171226000101 00000000000000000000000000000000000000000000000000000000000000000000000000000000000000000000000000000000000000000N 00000000000NCONT   00    00000000000          00000000000000000000000000000000000000000000 000000000000000A000000000000000000000000000000000000000000000 000000000000000000000000000000000000000     00000000                                                                                                                        000000000000000000
F0010000010887100004000007213653800023658300000000000000000201712260002001VICTOR ECHAVEZ                                    C000000000000000000000000000000000100010010000000000000000000000F0010000010887100420171226000101 00000000000000000000000000000000000000000000000000000000000000000000000000000000000000000000000000000000000000000N 00000000000NCONT   00    00000000000          00000000000000000000000000000000000000000000 000000000000000A000000000000000000000000000000000000000000000 000000000000000000000000000000000000000     00000000                                                                                                                        000000000000000000
F0010000010887100005000007213653800013552100000000000000000201712260002001VICTOR ECHAVEZ                                    D000000000000000000000000000000000100010010000000000000000000000F0010000010887100520171226000101 00000000000000000000000000000000000000000000000000000000000000000000000000000000000000000000000000000000000000000N 00000000000NCONT   00    00000000000          00000000000000000000000000000000000000000000 000000000000000A000000000000000000000000000000000000000000000 000000000000000000000000000000000000000     00000000                                                                                                                        000000000000000000
F0010000010887200001000007213653800011050500000000000000000201712260002001VICTOR ECHAVEZ                                    D000000001300000000000000000000000100010010000000000000000000000F0010000010887200120171226000101 00000000000000000000000000000000000000000000000000000000000000000000000000000000000000000000000000000000000000000N 00000000000NCONT   00    00000000000          00000000000000000000000000000000000000000000 000000000000000A000000000000000000000000000000000000000000000 000000000000000000000000000000000000000     00000000                                                                                                                        000000000000000000
F0010000010887200002000007213653800041450500000000000000000201712260002001VICTOR ECHAVEZ                                    C000000001100000000000000000000000100010010000000000000000000000F0010000010887200220171226000101 00000000000000000000000000000000000000000000000000000000000000000000000000000000000000000000000000000000000000000N 00000000000NCONT   00    00000000000          00000000000000000000000000000000000000000000 000000000000000A000000000000000000000000000000000000000000000 000000000000000000000000000000000000000     00000000                                                                                                                        000000000000000000
F0010000010887200003000007213653800042505000000000000000000201712260002001VICTOR ECHAVEZ                                    C000000000200000000000000000000000100010010000000000000000000000F0010000010887200320171226000101 00000000000000000000000000000000000000000000000000000000000000000000000000000000000000000000000000000000000000000N 00000000000NCONT   00    00000000000          00000000000000000000000000000000000000000000 000000000000000A000000000000000000000000000000000000000000000 000000000000000000000000000000000000000     00000000                                                                                                                        000000000000000000
F0010000010887200004000007213653800023658300000000000000000201712260002001VICTOR ECHAVEZ                                    C000000000000000000000000000000000100010010000000000000000000000F0010000010887200420171226000101 00000000000000000000000000000000000000000000000000000000000000000000000000000000000000000000000000000000000000000N 00000000000NCONT   00    00000000000          00000000000000000000000000000000000000000000 000000000000000A000000000000000000000000000000000000000000000 000000000000000000000000000000000000000     00000000                                                                                                                        000000000000000000
F0010000010887200005000007213653800013552100000000000000000201712260002001VICTOR ECHAVEZ                                    D000000000000000000000000000000000100010010000000000000000000000F0010000010887200520171226000101 00000000000000000000000000000000000000000000000000000000000000000000000000000000000000000000000000000000000000000N 00000000000NCONT   00    00000000000          00000000000000000000000000000000000000000000 000000000000000A000000000000000000000000000000000000000000000 000000000000000000000000000000000000000     00000000                                                                                                                        000000000000000000
F0010000010887300001000080202435000011050500000000000000000201712260002001DISTRIBUIDORA MACEA SAS                           D000000002450000000000000000000000100010010000000000000000000000F0010000010887300120171226000101 00000000000000000000000000000000000000000000000000000000000000000000000000000000000000000000000000000000000000000N 00000000000NCONT   00    00000000000          00000000000000000000000000000000000000000000 000000000000000A000000000000000000000000000000000000000000000 000000000000000000000000000000000000000     00000000                                                                                                                        000000000000000000
F0010000010887300002000080202435000041450500000000000000000201712260002001DISTRIBUIDORA MACEA SAS                           C000000002200000000000000000000000100010010000000000000000000000F0010000010887300220171226000101 00000000000000000000000000000000000000000000000000000000000000000000000000000000000000000000000000000000000000000N 00000000000NCONT   00    00000000000          00000000000000000000000000000000000000000000 000000000000000A000000000000000000000000000000000000000000000 000000000000000000000000000000000000000     00000000                                                                                                                        000000000000000000
F0010000010887300003000080202435000042505000000000000000000201712260002001DISTRIBUIDORA MACEA SAS                           C000000000250000000000000000000000100010010000000000000000000000F0010000010887300320171226000101 00000000000000000000000000000000000000000000000000000000000000000000000000000000000000000000000000000000000000000N 00000000000NCONT   00    00000000000          00000000000000000000000000000000000000000000 000000000000000A000000000000000000000000000000000000000000000 000000000000000000000000000000000000000     00000000                                                                                                                        000000000000000000
F0010000010887300004000080202435000023658300000000000000000201712260002001DISTRIBUIDORA MACEA SAS                           C000000000000000000000000000000000100010010000000000000000000000F0010000010887300420171226000101 00000000000000000000000000000000000000000000000000000000000000000000000000000000000000000000000000000000000000000N 00000000000NCONT   00    00000000000          00000000000000000000000000000000000000000000 000000000000000A000000000000000000000000000000000000000000000 000000000000000000000000000000000000000     00000000                                                                                                                        000000000000000000
F0010000010887300005000080202435000013552100000000000000000201712260002001DISTRIBUIDORA MACEA SAS                           D000000000000000000000000000000000100010010000000000000000000000F0010000010887300520171226000101 00000000000000000000000000000000000000000000000000000000000000000000000000000000000000000000000000000000000000000N 00000000000NCONT   00    00000000000          00000000000000000000000000000000000000000000 000000000000000A000000000000000000000000000000000000000000000 000000000000000000000000000000000000000     00000000                                                                                                                        000000000000000000
F0010000010887400001000000856905200011050500000000000000000201712260002001SUELAS Y MATERIALES BARRANQUILL                   D000000005630000000000000000000000100010010000000000000000000000F0010000010887400120171226000101 00000000000000000000000000000000000000000000000000000000000000000000000000000000000000000000000000000000000000000N 00000000000NCONT   00    00000000000          00000000000000000000000000000000000000000000 000000000000000A000000000000000000000000000000000000000000000 000000000000000000000000000000000000000     00000000                                                                                                                        000000000000000000
F0010000010887400002000000856905200041450500000000000000000201712260002001SUELAS Y MATERIALES BARRANQUILL                   C000000005130000000000000000000000100010010000000000000000000000F0010000010887400220171226000101 00000000000000000000000000000000000000000000000000000000000000000000000000000000000000000000000000000000000000000N 00000000000NCONT   00    00000000000          00000000000000000000000000000000000000000000 000000000000000A000000000000000000000000000000000000000000000 000000000000000000000000000000000000000     00000000                                                                                                                        000000000000000000
F0010000010887400003000000856905200042505000000000000000000201712260002001SUELAS Y MATERIALES BARRANQUILL                   C000000000500000000000000000000000100010010000000000000000000000F0010000010887400320171226000101 00000000000000000000000000000000000000000000000000000000000000000000000000000000000000000000000000000000000000000N 00000000000NCONT   00    00000000000          00000000000000000000000000000000000000000000 000000000000000A000000000000000000000000000000000000000000000 000000000000000000000000000000000000000     00000000                                                                                                                        000000000000000000
F0010000010887400004000000856905200023658300000000000000000201712260002001SUELAS Y MATERIALES BARRANQUILL                   C000000000000000000000000000000000100010010000000000000000000000F0010000010887400420171226000101 00000000000000000000000000000000000000000000000000000000000000000000000000000000000000000000000000000000000000000N 00000000000NCONT   00    00000000000          00000000000000000000000000000000000000000000 000000000000000A000000000000000000000000000000000000000000000 000000000000000000000000000000000000000     00000000                                                                                                                        000000000000000000
F0010000010887400005000000856905200013552100000000000000000201712260002001SUELAS Y MATERIALES BARRANQUILL                   D000000000000000000000000000000000100010010000000000000000000000F0010000010887400520171226000101 00000000000000000000000000000000000000000000000000000000000000000000000000000000000000000000000000000000000000000N 00000000000NCONT   00    00000000000          00000000000000000000000000000000000000000000 000000000000000A000000000000000000000000000000000000000000000 000000000000000000000000000000000000000     00000000                                                                                                                        000000000000000000
F0010000010887500001000090067091400011050500000000000000000201712260002001COMERCIALIZADORA ESCOBAR ORTIZ                    D000000003170000000000000000000000100010010000000000000000000000F0010000010887500120171226000101 00000000000000000000000000000000000000000000000000000000000000000000000000000000000000000000000000000000000000000N 00000000000NCONT   00    00000000000          00000000000000000000000000000000000000000000 000000000000000A000000000000000000000000000000000000000000000 000000000000000000000000000000000000000     00000000                                                                                                                        000000000000000000
F0010000010887500002000090067091400041450500000000000000000201712260002001COMERCIALIZADORA ESCOBAR ORTIZ                    C000000002400000000000000000000000100010010000000000000000000000F0010000010887500220171226000101 00000000000000000000000000000000000000000000000000000000000000000000000000000000000000000000000000000000000000000N 00000000000NCONT   00    00000000000          00000000000000000000000000000000000000000000 000000000000000A000000000000000000000000000000000000000000000 000000000000000000000000000000000000000     00000000                                                                                                                        000000000000000000
F0010000010887500003000090067091400042505000000000000000000201712260002001COMERCIALIZADORA ESCOBAR ORTIZ                    C000000000770000000000000000000000100010010000000000000000000000F0010000010887500320171226000101 00000000000000000000000000000000000000000000000000000000000000000000000000000000000000000000000000000000000000000N 00000000000NCONT   00    00000000000          00000000000000000000000000000000000000000000 000000000000000A000000000000000000000000000000000000000000000 000000000000000000000000000000000000000     00000000                                                                                                                        000000000000000000
F0010000010887500004000090067091400023658300000000000000000201712260002001COMERCIALIZADORA ESCOBAR ORTIZ                    C000000000000000000000000000000000100010010000000000000000000000F0010000010887500420171226000101 00000000000000000000000000000000000000000000000000000000000000000000000000000000000000000000000000000000000000000N 00000000000NCONT   00    00000000000          00000000000000000000000000000000000000000000 000000000000000A000000000000000000000000000000000000000000000 000000000000000000000000000000000000000     00000000                                                                                                                        000000000000000000
F0010000010887500005000090067091400013552100000000000000000201712260002001COMERCIALIZADORA ESCOBAR ORTIZ                    D000000000000000000000000000000000100010010000000000000000000000F0010000010887500520171226000101 00000000000000000000000000000000000000000000000000000000000000000000000000000000000000000000000000000000000000000N 00000000000NCONT   00    00000000000          00000000000000000000000000000000000000000000 000000000000000A000000000000000000000000000000000000000000000 000000000000000000000000000000000000000     00000000                                                                                                                        000000000000000000
F0010000010887600001000003319910700011050500000000000000000201712260002001LUZ DARY JIMENEZ MARTINEZ                         D000000001200000000000000000000000100010010000000000000000000000F0010000010887600120171226000101 00000000000000000000000000000000000000000000000000000000000000000000000000000000000000000000000000000000000000000N 00000000000NCONT   00    00000000000          00000000000000000000000000000000000000000000 000000000000000A000000000000000000000000000000000000000000000 000000000000000000000000000000000000000     00000000                                                                                                                        000000000000000000
F0010000010887600002000003319910700041450500000000000000000201712260002001LUZ DARY JIMENEZ MARTINEZ                         C000000001100000000000000000000000100010010000000000000000000000F0010000010887600220171226000101 00000000000000000000000000000000000000000000000000000000000000000000000000000000000000000000000000000000000000000N 00000000000NCONT   00    00000000000          00000000000000000000000000000000000000000000 000000000000000A000000000000000000000000000000000000000000000 000000000000000000000000000000000000000     00000000                                                                                                                        000000000000000000
F0010000010887600003000003319910700042505000000000000000000201712260002001LUZ DARY JIMENEZ MARTINEZ                         C000000000100000000000000000000000100010010000000000000000000000F0010000010887600320171226000101 00000000000000000000000000000000000000000000000000000000000000000000000000000000000000000000000000000000000000000N 00000000000NCONT   00    00000000000          00000000000000000000000000000000000000000000 000000000000000A000000000000000000000000000000000000000000000 000000000000000000000000000000000000000     00000000                                                                                                                        000000000000000000
F0010000010887600004000003319910700023658300000000000000000201712260002001LUZ DARY JIMENEZ MARTINEZ                         C000000000000000000000000000000000100010010000000000000000000000F0010000010887600420171226000101 00000000000000000000000000000000000000000000000000000000000000000000000000000000000000000000000000000000000000000N 00000000000NCONT   00    00000000000          00000000000000000000000000000000000000000000 000000000000000A000000000000000000000000000000000000000000000 000000000000000000000000000000000000000     00000000                                                                                                                        000000000000000000
F0010000010887600005000003319910700013552100000000000000000201712260002001LUZ DARY JIMENEZ MARTINEZ                         D000000000000000000000000000000000100010010000000000000000000000F0010000010887600520171226000101 00000000000000000000000000000000000000000000000000000000000000000000000000000000000000000000000000000000000000000N 00000000000NCONT   00    00000000000          00000000000000000000000000000000000000000000 000000000000000A000000000000000000000000000000000000000000000 000000000000000000000000000000000000000     00000000                                                                                                                        000000000000000000
F0010000010887700001000003319910700011050500000000000000000201712260002001LUZ DARY JIMENEZ MARTINEZ                         D000000003400000000000000000000000100010010000000000000000000000F0010000010887700120171226000101 00000000000000000000000000000000000000000000000000000000000000000000000000000000000000000000000000000000000000000N 00000000000NCONT   00    00000000000          00000000000000000000000000000000000000000000 000000000000000A000000000000000000000000000000000000000000000 000000000000000000000000000000000000000     00000000                                                                                                                        000000000000000000
F0010000010887700002000003319910700041450500000000000000000201712260002001LUZ DARY JIMENEZ MARTINEZ                         C000000003300000000000000000000000100010010000000000000000000000F0010000010887700220171226000101 00000000000000000000000000000000000000000000000000000000000000000000000000000000000000000000000000000000000000000N 00000000000NCONT   00    00000000000          00000000000000000000000000000000000000000000 000000000000000A000000000000000000000000000000000000000000000 000000000000000000000000000000000000000     00000000                                                                                                                        000000000000000000
F0010000010887700003000003319910700042505000000000000000000201712260002001LUZ DARY JIMENEZ MARTINEZ                         C000000000100000000000000000000000100010010000000000000000000000F0010000010887700320171226000101 00000000000000000000000000000000000000000000000000000000000000000000000000000000000000000000000000000000000000000N 00000000000NCONT   00    00000000000          00000000000000000000000000000000000000000000 000000000000000A000000000000000000000000000000000000000000000 000000000000000000000000000000000000000     00000000                                                                                                                        000000000000000000
F0010000010887700004000003319910700023658300000000000000000201712260002001LUZ DARY JIMENEZ MARTINEZ                         C000000000000000000000000000000000100010010000000000000000000000F0010000010887700420171226000101 00000000000000000000000000000000000000000000000000000000000000000000000000000000000000000000000000000000000000000N 00000000000NCONT   00    00000000000          00000000000000000000000000000000000000000000 000000000000000A000000000000000000000000000000000000000000000 000000000000000000000000000000000000000     00000000                                                                                                                        000000000000000000
F0010000010887700005000003319910700013552100000000000000000201712260002001LUZ DARY JIMENEZ MARTINEZ                         D000000000000000000000000000000000100010010000000000000000000000F0010000010887700520171226000101 00000000000000000000000000000000000000000000000000000000000000000000000000000000000000000000000000000000000000000N 00000000000NCONT   00    00000000000          00000000000000000000000000000000000000000000 000000000000000A000000000000000000000000000000000000000000000 000000000000000000000000000000000000000     00000000                                                                                                                        000000000000000000
F0010000010887800001000080023327700011050500000000000000000201712260002001DISINCO LTDA                                      D000000002750000000000000000000000100010010000000000000000000000F0010000010887800120171226000101 00000000000000000000000000000000000000000000000000000000000000000000000000000000000000000000000000000000000000000N 00000000000NCONT   00    00000000000          00000000000000000000000000000000000000000000 000000000000000A000000000000000000000000000000000000000000000 000000000000000000000000000000000000000     00000000                                                                                                                        000000000000000000
F0010000010887800002000080023327700041450500000000000000000201712260002001DISINCO LTDA                                      C000000002660000000000000000000000100010010000000000000000000000F0010000010887800220171226000101 00000000000000000000000000000000000000000000000000000000000000000000000000000000000000000000000000000000000000000N 00000000000NCONT   00    00000000000          00000000000000000000000000000000000000000000 000000000000000A000000000000000000000000000000000000000000000 000000000000000000000000000000000000000     00000000                                                                                                                        000000000000000000
F0010000010887800003000080023327700042505000000000000000000201712260002001DISINCO LTDA                                      C000000000090000000000000000000000100010010000000000000000000000F0010000010887800320171226000101 00000000000000000000000000000000000000000000000000000000000000000000000000000000000000000000000000000000000000000N 00000000000NCONT   00    00000000000          00000000000000000000000000000000000000000000 000000000000000A000000000000000000000000000000000000000000000 000000000000000000000000000000000000000     00000000                                                                                                                        000000000000000000
F0010000010887800004000080023327700023658300000000000000000201712260002001DISINCO LTDA                                      C000000000000000000000000000000000100010010000000000000000000000F0010000010887800420171226000101 00000000000000000000000000000000000000000000000000000000000000000000000000000000000000000000000000000000000000000N 00000000000NCONT   00    00000000000          00000000000000000000000000000000000000000000 000000000000000A000000000000000000000000000000000000000000000 000000000000000000000000000000000000000     00000000                                                                                                                        000000000000000000
F0010000010887800005000080023327700013552100000000000000000201712260002001DISINCO LTDA                                      D000000000000000000000000000000000100010010000000000000000000000F0010000010887800520171226000101 00000000000000000000000000000000000000000000000000000000000000000000000000000000000000000000000000000000000000000N 00000000000NCONT   00    00000000000          00000000000000000000000000000000000000000000 000000000000000A000000000000000000000000000000000000000000000 000000000000000000000000000000000000000     00000000                                                                                                                        000000000000000000
F0010000010887900001000089011078600011050500000000000000000201712260002001DIST. NUEVO MUNDO S.A.S.                          D000000001540000000000000000000000100010010000000000000000000000F0010000010887900120171226000101 00000000000000000000000000000000000000000000000000000000000000000000000000000000000000000000000000000000000000000N 00000000000NCONT   00    00000000000          00000000000000000000000000000000000000000000 000000000000000A000000000000000000000000000000000000000000000 000000000000000000000000000000000000000     00000000                                                                                                                        000000000000000000
F0010000010887900002000089011078600041450500000000000000000201712260002001DIST. NUEVO MUNDO S.A.S.                          C000000001260000000000000000000000100010010000000000000000000000F0010000010887900220171226000101 00000000000000000000000000000000000000000000000000000000000000000000000000000000000000000000000000000000000000000N 00000000000NCONT   00    00000000000          00000000000000000000000000000000000000000000 000000000000000A000000000000000000000000000000000000000000000 000000000000000000000000000000000000000     00000000                                                                                                                        000000000000000000
F0010000010887900003000089011078600042505000000000000000000201712260002001DIST. NUEVO MUNDO S.A.S.                          C000000000280000000000000000000000100010010000000000000000000000F0010000010887900320171226000101 00000000000000000000000000000000000000000000000000000000000000000000000000000000000000000000000000000000000000000N 00000000000NCONT   00    00000000000          00000000000000000000000000000000000000000000 000000000000000A000000000000000000000000000000000000000000000 000000000000000000000000000000000000000     00000000                                                                                                                        000000000000000000
F0010000010887900004000089011078600023658300000000000000000201712260002001DIST. NUEVO MUNDO S.A.S.                          C000000000000000000000000000000000100010010000000000000000000000F0010000010887900420171226000101 00000000000000000000000000000000000000000000000000000000000000000000000000000000000000000000000000000000000000000N 00000000000NCONT   00    00000000000          00000000000000000000000000000000000000000000 000000000000000A000000000000000000000000000000000000000000000 000000000000000000000000000000000000000     00000000                                                                                                                        000000000000000000
F0010000010887900005000089011078600013552100000000000000000201712260002001DIST. NUEVO MUNDO S.A.S.                          D000000000000000000000000000000000100010010000000000000000000000F0010000010887900520171226000101 00000000000000000000000000000000000000000000000000000000000000000000000000000000000000000000000000000000000000000N 00000000000NCONT   00    00000000000          00000000000000000000000000000000000000000000 000000000000000A000000000000000000000000000000000000000000000 000000000000000000000000000000000000000     00000000                                                                                                                        000000000000000000
F0010000010888000001000089011078600011050500000000000000000201712260002001DIST. NUEVO MUNDO S.A.S.                          D000000001870000000000000000000000100010010000000000000000000000F0010000010888000120171226000101 00000000000000000000000000000000000000000000000000000000000000000000000000000000000000000000000000000000000000000N 00000000000NCONT   00    00000000000          00000000000000000000000000000000000000000000 000000000000000A000000000000000000000000000000000000000000000 000000000000000000000000000000000000000     00000000                                                                                                                        000000000000000000
F0010000010888000002000089011078600041450500000000000000000201712260002001DIST. NUEVO MUNDO S.A.S.                          C000000001590000000000000000000000100010010000000000000000000000F0010000010888000220171226000101 00000000000000000000000000000000000000000000000000000000000000000000000000000000000000000000000000000000000000000N 00000000000NCONT   00    00000000000          00000000000000000000000000000000000000000000 000000000000000A000000000000000000000000000000000000000000000 000000000000000000000000000000000000000     00000000                                                                                                                        000000000000000000
F0010000010888000003000089011078600042505000000000000000000201712260002001DIST. NUEVO MUNDO S.A.S.                          C000000000280000000000000000000000100010010000000000000000000000F0010000010888000320171226000101 00000000000000000000000000000000000000000000000000000000000000000000000000000000000000000000000000000000000000000N 00000000000NCONT   00    00000000000          00000000000000000000000000000000000000000000 000000000000000A000000000000000000000000000000000000000000000 000000000000000000000000000000000000000     00000000                                                                                                                        000000000000000000
F0010000010888000004000089011078600023658300000000000000000201712260002001DIST. NUEVO MUNDO S.A.S.                          C000000000000000000000000000000000100010010000000000000000000000F0010000010888000420171226000101 00000000000000000000000000000000000000000000000000000000000000000000000000000000000000000000000000000000000000000N 00000000000NCONT   00    00000000000          00000000000000000000000000000000000000000000 000000000000000A000000000000000000000000000000000000000000000 000000000000000000000000000000000000000     00000000                                                                                                                        000000000000000000
F0010000010888000005000089011078600013552100000000000000000201712260002001DIST. NUEVO MUNDO S.A.S.                          D000000000000000000000000000000000100010010000000000000000000000F0010000010888000520171226000101 00000000000000000000000000000000000000000000000000000000000000000000000000000000000000000000000000000000000000000N 00000000000NCONT   00    00000000000          00000000000000000000000000000000000000000000 000000000000000A000000000000000000000000000000000000000000000 000000000000000000000000000000000000000     00000000                                                                                                                        000000000000000000
F0010000010888100001000080012418800011050500000000000000000201712260002001DISTRITEC S.A.S                                   D000000001400000000000000000000000100010010000000000000000000000F0010000010888100120171226000101 00000000000000000000000000000000000000000000000000000000000000000000000000000000000000000000000000000000000000000N 00000000000NCONT   00    00000000000          00000000000000000000000000000000000000000000 000000000000000A000000000000000000000000000000000000000000000 000000000000000000000000000000000000000     00000000                                                                                                                        000000000000000000
F0010000010888100002000080012418800041450500000000000000000201712260002001DISTRITEC S.A.S                                   C000000001300000000000000000000000100010010000000000000000000000F0010000010888100220171226000101 00000000000000000000000000000000000000000000000000000000000000000000000000000000000000000000000000000000000000000N 00000000000NCONT   00    00000000000          00000000000000000000000000000000000000000000 000000000000000A000000000000000000000000000000000000000000000 000000000000000000000000000000000000000     00000000                                                                                                                        000000000000000000
F0010000010888100003000080012418800042505000000000000000000201712260002001DISTRITEC S.A.S                                   C000000000100000000000000000000000100010010000000000000000000000F0010000010888100320171226000101 00000000000000000000000000000000000000000000000000000000000000000000000000000000000000000000000000000000000000000N 00000000000NCONT   00    00000000000          00000000000000000000000000000000000000000000 000000000000000A000000000000000000000000000000000000000000000 000000000000000000000000000000000000000     00000000                                                                                                                        000000000000000000
F0010000010888100004000080012418800023658300000000000000000201712260002001DISTRITEC S.A.S                                   C000000000000000000000000000000000100010010000000000000000000000F0010000010888100420171226000101 00000000000000000000000000000000000000000000000000000000000000000000000000000000000000000000000000000000000000000N 00000000000NCONT   00    00000000000          00000000000000000000000000000000000000000000 000000000000000A000000000000000000000000000000000000000000000 000000000000000000000000000000000000000     00000000                                                                                                                        000000000000000000
F0010000010888100005000080012418800013552100000000000000000201712260002001DISTRITEC S.A.S                                   D000000000000000000000000000000000100010010000000000000000000000F0010000010888100520171226000101 00000000000000000000000000000000000000000000000000000000000000000000000000000000000000000000000000000000000000000N 00000000000NCONT   00    00000000000          00000000000000000000000000000000000000000000 000000000000000A000000000000000000000000000000000000000000000 000000000000000000000000000000000000000     00000000                                                                                                                        000000000000000000
F0010000010888200001000000866531000011050500000000000000000201712260002001CLAUDIO RAFAEL DE JESUS LLINAS MOLINA             D000000001600000000000000000000000100010010000000000000000000000F0010000010888200120171226000101 00000000000000000000000000000000000000000000000000000000000000000000000000000000000000000000000000000000000000000N 00000000000NCONT   00    00000000000          00000000000000000000000000000000000000000000 000000000000000A000000000000000000000000000000000000000000000 000000000000000000000000000000000000000     00000000                                                                                                                        000000000000000000
F0010000010888200002000000866531000041450500000000000000000201712260002001CLAUDIO RAFAEL DE JESUS LLINAS MOLINA             C000000001300000000000000000000000100010010000000000000000000000F0010000010888200220171226000101 00000000000000000000000000000000000000000000000000000000000000000000000000000000000000000000000000000000000000000N 00000000000NCONT   00    00000000000          00000000000000000000000000000000000000000000 000000000000000A000000000000000000000000000000000000000000000 000000000000000000000000000000000000000     00000000                                                                                                                        000000000000000000
