F0010000007865900001000080201112800013050500000000000000000201511090002001CANGURO INTERNATIONAL S.A.                        D000000006882400000000000000000000100010010000000000000000000000F0010000007865900120151109000101 00000000000000000000000000000000000000000000000000000000000000000000000000000000000000000000000000000000000000000N 00000000000NCONT   00    00000000000          00000000000000000000000000000000000000000000 000000000000000A000000000000000000000000000000000000000000000 000000000000000000000000000000000000000     00000000                                                                                                                        000000000000000000
F0010000007865900002000080201112800041450500000000000000000201511090002001CANGURO INTERNATIONAL S.A.                        C000000006882400000000000000000000100010010000000000000000000000F0010000007865900220151109000101 00000000000000000000000000000000000000000000000000000000000000000000000000000000000000000000000000000000000000000N 00000000000NCONT   00    00000000000          00000000000000000000000000000000000000000000 000000000000000A000000000000000000000000000000000000000000000 000000000000000000000000000000000000000     00000000                                                                                                                        000000000000000000
F0010000007865900003000080201112800042505000000000000000000201511090002001CANGURO INTERNATIONAL S.A.                        C000000000000000000000000000000000100010010000000000000000000000F0010000007865900320151109000101 00000000000000000000000000000000000000000000000000000000000000000000000000000000000000000000000000000000000000000N 00000000000NCONT   00    00000000000          00000000000000000000000000000000000000000000 000000000000000A000000000000000000000000000000000000000000000 000000000000000000000000000000000000000     00000000                                                                                                                        000000000000000000
F0010000007865900004000080201112800023658300000000000000000201511090002001CANGURO INTERNATIONAL S.A.                        C000000000055100000000000000000000100010010000000000000000000000F0010000007865900420151109000101 00000000000000000000000000000000000000000000000000000000000000000000000000000000000000000000000000000000000000000N 00000000000NCONT   00    00000000000          00000000000000000000000000000000000000000000 000000000000000A000000000000000000000000000000000000000000000 000000000000000000000000000000000000000     00000000                                                                                                                        000000000000000000
F0010000007865900005000080201112800013552100000000000000000201511090002001CANGURO INTERNATIONAL S.A.                        D000000000055100000000000000000000100010010000000000000000000000F0010000007865900520151109000101 00000000000000000000000000000000000000000000000000000000000000000000000000000000000000000000000000000000000000000N 00000000000NCONT   00    00000000000          00000000000000000000000000000000000000000000 000000000000000A000000000000000000000000000000000000000000000 000000000000000000000000000000000000000     00000000                                                                                                                        000000000000000000
F0010000007866000001000007225583900011050500000000000000000201511090002001JORGE LUIS NIÑO BLANCO                           D000000004000000000000000000000000100010010000000000000000000000F0010000007866000120151109000101 00000000000000000000000000000000000000000000000000000000000000000000000000000000000000000000000000000000000000000N 00000000000NCONT   00    00000000000          00000000000000000000000000000000000000000000 000000000000000A000000000000000000000000000000000000000000000 000000000000000000000000000000000000000     00000000                                                                                                                        000000000000000000
F0010000007866000002000007225583900041450500000000000000000201511090002001JORGE LUIS NIÑO BLANCO                           C000000003500000000000000000000000100010010000000000000000000000F0010000007866000220151109000101 00000000000000000000000000000000000000000000000000000000000000000000000000000000000000000000000000000000000000000N 00000000000NCONT   00    00000000000          00000000000000000000000000000000000000000000 000000000000000A000000000000000000000000000000000000000000000 000000000000000000000000000000000000000     00000000                                                                                                                        000000000000000000
F0010000007866000003000007225583900042505000000000000000000201511090002001JORGE LUIS NIÑO BLANCO                           C000000000500000000000000000000000100010010000000000000000000000F0010000007866000320151109000101 00000000000000000000000000000000000000000000000000000000000000000000000000000000000000000000000000000000000000000N 00000000000NCONT   00    00000000000          00000000000000000000000000000000000000000000 000000000000000A000000000000000000000000000000000000000000000 000000000000000000000000000000000000000     00000000                                                                                                                        000000000000000000
F0010000007866000004000007225583900023658300000000000000000201511090002001JORGE LUIS NIÑO BLANCO                           C000000000028000000000000000000000100010010000000000000000000000F0010000007866000420151109000101 00000000000000000000000000000000000000000000000000000000000000000000000000000000000000000000000000000000000000000N 00000000000NCONT   00    00000000000          00000000000000000000000000000000000000000000 000000000000000A000000000000000000000000000000000000000000000 000000000000000000000000000000000000000     00000000                                                                                                                        000000000000000000
F0010000007866000005000007225583900013552100000000000000000201511090002001JORGE LUIS NIÑO BLANCO                           D000000000028000000000000000000000100010010000000000000000000000F0010000007866000520151109000101 00000000000000000000000000000000000000000000000000000000000000000000000000000000000000000000000000000000000000000N 00000000000NCONT   00    00000000000          00000000000000000000000000000000000000000000 000000000000000A000000000000000000000000000000000000000000000 000000000000000000000000000000000000000     00000000                                                                                                                        000000000000000000
F0010000007866100001000083008772100011050500000000000000000201511090002001ILUMEC SAS                                        D000000002600000000000000000000000100010010000000000000000000000F0010000007866100120151109000101 00000000000000000000000000000000000000000000000000000000000000000000000000000000000000000000000000000000000000000N 00000000000NCONT   00    00000000000          00000000000000000000000000000000000000000000 000000000000000A000000000000000000000000000000000000000000000 000000000000000000000000000000000000000     00000000                                                                                                                        000000000000000000
F0010000007866100002000083008772100041450500000000000000000201511090002001ILUMEC SAS                                        C000000001600000000000000000000000100010010000000000000000000000F0010000007866100220151109000101 00000000000000000000000000000000000000000000000000000000000000000000000000000000000000000000000000000000000000000N 00000000000NCONT   00    00000000000          00000000000000000000000000000000000000000000 000000000000000A000000000000000000000000000000000000000000000 000000000000000000000000000000000000000     00000000                                                                                                                        000000000000000000
F0010000007866100003000083008772100042505000000000000000000201511090002001ILUMEC SAS                                        C000000001000000000000000000000000100010010000000000000000000000F0010000007866100320151109000101 00000000000000000000000000000000000000000000000000000000000000000000000000000000000000000000000000000000000000000N 00000000000NCONT   00    00000000000          00000000000000000000000000000000000000000000 000000000000000A000000000000000000000000000000000000000000000 000000000000000000000000000000000000000     00000000                                                                                                                        000000000000000000
F0010000007866100004000083008772100023658300000000000000000201511090002001ILUMEC SAS                                        C000000000012800000000000000000000100010010000000000000000000000F0010000007866100420151109000101 00000000000000000000000000000000000000000000000000000000000000000000000000000000000000000000000000000000000000000N 00000000000NCONT   00    00000000000          00000000000000000000000000000000000000000000 000000000000000A000000000000000000000000000000000000000000000 000000000000000000000000000000000000000     00000000                                                                                                                        000000000000000000
F0010000007866100005000083008772100013552100000000000000000201511090002001ILUMEC SAS                                        D000000000012800000000000000000000100010010000000000000000000000F0010000007866100520151109000101 00000000000000000000000000000000000000000000000000000000000000000000000000000000000000000000000000000000000000000N 00000000000NCONT   00    00000000000          00000000000000000000000000000000000000000000 000000000000000A000000000000000000000000000000000000000000000 000000000000000000000000000000000000000     00000000                                                                                                                        000000000000000000
F0010000007866200001000007225219800011050500000000000000000201511090002001MAURICIO ALVAREZ VARELO                           D000000008000000000000000000000000100010010000000000000000000000F0010000007866200120151109000101 00000000000000000000000000000000000000000000000000000000000000000000000000000000000000000000000000000000000000000N 00000000000NCONT   00    00000000000          00000000000000000000000000000000000000000000 000000000000000A000000000000000000000000000000000000000000000 000000000000000000000000000000000000000     00000000                                                                                                                        000000000000000000
F0010000007866200002000007225219800041450500000000000000000201511090002001MAURICIO ALVAREZ VARELO                           C000000006000000000000000000000000100010010000000000000000000000F0010000007866200220151109000101 00000000000000000000000000000000000000000000000000000000000000000000000000000000000000000000000000000000000000000N 00000000000NCONT   00    00000000000          00000000000000000000000000000000000000000000 000000000000000A000000000000000000000000000000000000000000000 000000000000000000000000000000000000000     00000000                                                                                                                        000000000000000000
F0010000007866200003000007225219800042505000000000000000000201511090002001MAURICIO ALVAREZ VARELO                           C000000002000000000000000000000000100010010000000000000000000000F0010000007866200320151109000101 00000000000000000000000000000000000000000000000000000000000000000000000000000000000000000000000000000000000000000N 00000000000NCONT   00    00000000000          00000000000000000000000000000000000000000000 000000000000000A000000000000000000000000000000000000000000000 000000000000000000000000000000000000000     00000000                                                                                                                        000000000000000000
F0010000007866200004000007225219800023658300000000000000000201511090002001MAURICIO ALVAREZ VARELO                           C000000000048000000000000000000000100010010000000000000000000000F0010000007866200420151109000101 00000000000000000000000000000000000000000000000000000000000000000000000000000000000000000000000000000000000000000N 00000000000NCONT   00    00000000000          00000000000000000000000000000000000000000000 000000000000000A000000000000000000000000000000000000000000000 000000000000000000000000000000000000000     00000000                                                                                                                        000000000000000000
F0010000007866200005000007225219800013552100000000000000000201511090002001MAURICIO ALVAREZ VARELO                           D000000000048000000000000000000000100010010000000000000000000000F0010000007866200520151109000101 00000000000000000000000000000000000000000000000000000000000000000000000000000000000000000000000000000000000000000N 00000000000NCONT   00    00000000000          00000000000000000000000000000000000000000000 000000000000000A000000000000000000000000000000000000000000000 000000000000000000000000000000000000000     00000000                                                                                                                        000000000000000000
F0010000007866300001000080202486100011050500000000000000000201511090002001DISTRIBUIDORA RAMBAL LTDA                         D000000001500000000000000000000000100010010000000000000000000000F0010000007866300120151109000101 00000000000000000000000000000000000000000000000000000000000000000000000000000000000000000000000000000000000000000N 00000000000NCONT   00    00000000000          00000000000000000000000000000000000000000000 000000000000000A000000000000000000000000000000000000000000000 000000000000000000000000000000000000000     00000000                                                                                                                        000000000000000000
F0010000007866300002000080202486100041450500000000000000000201511090002001DISTRIBUIDORA RAMBAL LTDA                         C000000001400000000000000000000000100010010000000000000000000000F0010000007866300220151109000101 00000000000000000000000000000000000000000000000000000000000000000000000000000000000000000000000000000000000000000N 00000000000NCONT   00    00000000000          00000000000000000000000000000000000000000000 000000000000000A000000000000000000000000000000000000000000000 000000000000000000000000000000000000000     00000000                                                                                                                        000000000000000000
F0010000007866300003000080202486100042505000000000000000000201511090002001DISTRIBUIDORA RAMBAL LTDA                         C000000000100000000000000000000000100010010000000000000000000000F0010000007866300320151109000101 00000000000000000000000000000000000000000000000000000000000000000000000000000000000000000000000000000000000000000N 00000000000NCONT   00    00000000000          00000000000000000000000000000000000000000000 000000000000000A000000000000000000000000000000000000000000000 000000000000000000000000000000000000000     00000000                                                                                                                        000000000000000000
F0010000007866300004000080202486100023658300000000000000000201511090002001DISTRIBUIDORA RAMBAL LTDA                         C000000000011200000000000000000000100010010000000000000000000000F0010000007866300420151109000101 00000000000000000000000000000000000000000000000000000000000000000000000000000000000000000000000000000000000000000N 00000000000NCONT   00    00000000000          00000000000000000000000000000000000000000000 000000000000000A000000000000000000000000000000000000000000000 000000000000000000000000000000000000000     00000000                                                                                                                        000000000000000000
F0010000007866300005000080202486100013552100000000000000000201511090002001DISTRIBUIDORA RAMBAL LTDA                         D000000000011200000000000000000000100010010000000000000000000000F0010000007866300520151109000101 00000000000000000000000000000000000000000000000000000000000000000000000000000000000000000000000000000000000000000N 00000000000NCONT   00    00000000000          00000000000000000000000000000000000000000000 000000000000000A000000000000000000000000000000000000000000000 000000000000000000000000000000000000000     00000000                                                                                                                        000000000000000000
F0010000007866400001000090064474900011050500000000000000000201511090002001CENTRO ARTE PAPERIA SAS                           D000000001000000000000000000000000100010010000000000000000000000F0010000007866400120151109000101 00000000000000000000000000000000000000000000000000000000000000000000000000000000000000000000000000000000000000000N 00000000000NCONT   00    00000000000          00000000000000000000000000000000000000000000 000000000000000A000000000000000000000000000000000000000000000 000000000000000000000000000000000000000     00000000                                                                                                                        000000000000000000
F0010000007866400002000090064474900041450500000000000000000201511090002001CENTRO ARTE PAPERIA SAS                           C000000000900000000000000000000000100010010000000000000000000000F0010000007866400220151109000101 00000000000000000000000000000000000000000000000000000000000000000000000000000000000000000000000000000000000000000N 00000000000NCONT   00    00000000000          00000000000000000000000000000000000000000000 000000000000000A000000000000000000000000000000000000000000000 000000000000000000000000000000000000000     00000000                                                                                                                        000000000000000000
F0010000007866400003000090064474900042505000000000000000000201511090002001CENTRO ARTE PAPERIA SAS                           C000000000100000000000000000000000100010010000000000000000000000F0010000007866400320151109000101 00000000000000000000000000000000000000000000000000000000000000000000000000000000000000000000000000000000000000000N 00000000000NCONT   00    00000000000          00000000000000000000000000000000000000000000 000000000000000A000000000000000000000000000000000000000000000 000000000000000000000000000000000000000     00000000                                                                                                                        000000000000000000
F0010000007866400004000090064474900023658300000000000000000201511090002001CENTRO ARTE PAPERIA SAS                           C000000000007200000000000000000000100010010000000000000000000000F0010000007866400420151109000101 00000000000000000000000000000000000000000000000000000000000000000000000000000000000000000000000000000000000000000N 00000000000NCONT   00    00000000000          00000000000000000000000000000000000000000000 000000000000000A000000000000000000000000000000000000000000000 000000000000000000000000000000000000000     00000000                                                                                                                        000000000000000000
F0010000007866400005000090064474900013552100000000000000000201511090002001CENTRO ARTE PAPERIA SAS                           D000000000007200000000000000000000100010010000000000000000000000F0010000007866400520151109000101 00000000000000000000000000000000000000000000000000000000000000000000000000000000000000000000000000000000000000000N 00000000000NCONT   00    00000000000          00000000000000000000000000000000000000000000 000000000000000A000000000000000000000000000000000000000000000 000000000000000000000000000000000000000     00000000                                                                                                                        000000000000000000
F0010000007866500001000090064474900011050500000000000000000201511090002001CENTRO ARTE PAPERIA SAS                           D000000001900000000000000000000000100010010000000000000000000000F0010000007866500120151109000101 00000000000000000000000000000000000000000000000000000000000000000000000000000000000000000000000000000000000000000N 00000000000NCONT   00    00000000000          00000000000000000000000000000000000000000000 000000000000000A000000000000000000000000000000000000000000000 000000000000000000000000000000000000000     00000000                                                                                                                        000000000000000000
F0010000007866500002000090064474900041450500000000000000000201511090002001CENTRO ARTE PAPERIA SAS                           C000000001800000000000000000000000100010010000000000000000000000F0010000007866500220151109000101 00000000000000000000000000000000000000000000000000000000000000000000000000000000000000000000000000000000000000000N 00000000000NCONT   00    00000000000          00000000000000000000000000000000000000000000 000000000000000A000000000000000000000000000000000000000000000 000000000000000000000000000000000000000     00000000                                                                                                                        000000000000000000
F0010000007866500003000090064474900042505000000000000000000201511090002001CENTRO ARTE PAPERIA SAS                           C000000000100000000000000000000000100010010000000000000000000000F0010000007866500320151109000101 00000000000000000000000000000000000000000000000000000000000000000000000000000000000000000000000000000000000000000N 00000000000NCONT   00    00000000000          00000000000000000000000000000000000000000000 000000000000000A000000000000000000000000000000000000000000000 000000000000000000000000000000000000000     00000000                                                                                                                        000000000000000000
F0010000007866500004000090064474900023658300000000000000000201511090002001CENTRO ARTE PAPERIA SAS                           C000000000014400000000000000000000100010010000000000000000000000F0010000007866500420151109000101 00000000000000000000000000000000000000000000000000000000000000000000000000000000000000000000000000000000000000000N 00000000000NCONT   00    00000000000          00000000000000000000000000000000000000000000 000000000000000A000000000000000000000000000000000000000000000 000000000000000000000000000000000000000     00000000                                                                                                                        000000000000000000
F0010000007866500005000090064474900013552100000000000000000201511090002001CENTRO ARTE PAPERIA SAS                           D000000000014400000000000000000000100010010000000000000000000000F0010000007866500520151109000101 00000000000000000000000000000000000000000000000000000000000000000000000000000000000000000000000000000000000000000N 00000000000NCONT   00    00000000000          00000000000000000000000000000000000000000000 000000000000000A000000000000000000000000000000000000000000000 000000000000000000000000000000000000000     00000000                                                                                                                        000000000000000000
F0010000007866600001000090064474900011050500000000000000000201511090002001CENTRO ARTE PAPERIA SAS                           D000000001300000000000000000000000100010010000000000000000000000F0010000007866600120151109000101 00000000000000000000000000000000000000000000000000000000000000000000000000000000000000000000000000000000000000000N 00000000000NCONT   00    00000000000          00000000000000000000000000000000000000000000 000000000000000A000000000000000000000000000000000000000000000 000000000000000000000000000000000000000     00000000                                                                                                                        000000000000000000
F0010000007866600002000090064474900041450500000000000000000201511090002001CENTRO ARTE PAPERIA SAS                           C000000001200000000000000000000000100010010000000000000000000000F0010000007866600220151109000101 00000000000000000000000000000000000000000000000000000000000000000000000000000000000000000000000000000000000000000N 00000000000NCONT   00    00000000000          00000000000000000000000000000000000000000000 000000000000000A000000000000000000000000000000000000000000000 000000000000000000000000000000000000000     00000000                                                                                                                        000000000000000000
F0010000007866600003000090064474900042505000000000000000000201511090002001CENTRO ARTE PAPERIA SAS                           C000000000100000000000000000000000100010010000000000000000000000F0010000007866600320151109000101 00000000000000000000000000000000000000000000000000000000000000000000000000000000000000000000000000000000000000000N 00000000000NCONT   00    00000000000          00000000000000000000000000000000000000000000 000000000000000A000000000000000000000000000000000000000000000 000000000000000000000000000000000000000     00000000                                                                                                                        000000000000000000
F0010000007866600004000090064474900023658300000000000000000201511090002001CENTRO ARTE PAPERIA SAS                           C000000000009600000000000000000000100010010000000000000000000000F0010000007866600420151109000101 00000000000000000000000000000000000000000000000000000000000000000000000000000000000000000000000000000000000000000N 00000000000NCONT   00    00000000000          00000000000000000000000000000000000000000000 000000000000000A000000000000000000000000000000000000000000000 000000000000000000000000000000000000000     00000000                                                                                                                        000000000000000000
F0010000007866600005000090064474900013552100000000000000000201511090002001CENTRO ARTE PAPERIA SAS                           D000000000009600000000000000000000100010010000000000000000000000F0010000007866600520151109000101 00000000000000000000000000000000000000000000000000000000000000000000000000000000000000000000000000000000000000000N 00000000000NCONT   00    00000000000          00000000000000000000000000000000000000000000 000000000000000A000000000000000000000000000000000000000000000 000000000000000000000000000000000000000     00000000                                                                                                                        000000000000000000
F0010000007866700001000090064474900011050500000000000000000201511090002001CENTRO ARTE PAPERIA SAS                           D000000001300000000000000000000000100010010000000000000000000000F0010000007866700120151109000101 00000000000000000000000000000000000000000000000000000000000000000000000000000000000000000000000000000000000000000N 00000000000NCONT   00    00000000000          00000000000000000000000000000000000000000000 000000000000000A000000000000000000000000000000000000000000000 000000000000000000000000000000000000000     00000000                                                                                                                        000000000000000000
F0010000007866700002000090064474900041450500000000000000000201511090002001CENTRO ARTE PAPERIA SAS                           C000000001200000000000000000000000100010010000000000000000000000F0010000007866700220151109000101 00000000000000000000000000000000000000000000000000000000000000000000000000000000000000000000000000000000000000000N 00000000000NCONT   00    00000000000          00000000000000000000000000000000000000000000 000000000000000A000000000000000000000000000000000000000000000 000000000000000000000000000000000000000     00000000                                                                                                                        000000000000000000
F0010000007866700003000090064474900042505000000000000000000201511090002001CENTRO ARTE PAPERIA SAS                           C000000000100000000000000000000000100010010000000000000000000000F0010000007866700320151109000101 00000000000000000000000000000000000000000000000000000000000000000000000000000000000000000000000000000000000000000N 00000000000NCONT   00    00000000000          00000000000000000000000000000000000000000000 000000000000000A000000000000000000000000000000000000000000000 000000000000000000000000000000000000000     00000000                                                                                                                        000000000000000000
F0010000007866700004000090064474900023658300000000000000000201511090002001CENTRO ARTE PAPERIA SAS                           C000000000009600000000000000000000100010010000000000000000000000F0010000007866700420151109000101 00000000000000000000000000000000000000000000000000000000000000000000000000000000000000000000000000000000000000000N 00000000000NCONT   00    00000000000          00000000000000000000000000000000000000000000 000000000000000A000000000000000000000000000000000000000000000 000000000000000000000000000000000000000     00000000                                                                                                                        000000000000000000
F0010000007866700005000090064474900013552100000000000000000201511090002001CENTRO ARTE PAPERIA SAS                           D000000000009600000000000000000000100010010000000000000000000000F0010000007866700520151109000101 00000000000000000000000000000000000000000000000000000000000000000000000000000000000000000000000000000000000000000N 00000000000NCONT   00    00000000000          00000000000000000000000000000000000000000000 000000000000000A000000000000000000000000000000000000000000000 000000000000000000000000000000000000000     00000000                                                                                                                        000000000000000000
F0010000007866800001000090064474900011050500000000000000000201511090002001CENTRO ARTE PAPERIA SAS                           D000000003800000000000000000000000100010010000000000000000000000F0010000007866800120151109000101 00000000000000000000000000000000000000000000000000000000000000000000000000000000000000000000000000000000000000000N 00000000000NCONT   00    00000000000          00000000000000000000000000000000000000000000 000000000000000A000000000000000000000000000000000000000000000 000000000000000000000000000000000000000     00000000                                                                                                                        000000000000000000
F0010000007866800002000090064474900041450500000000000000000201511090002001CENTRO ARTE PAPERIA SAS                           C000000003600000000000000000000000100010010000000000000000000000F0010000007866800220151109000101 00000000000000000000000000000000000000000000000000000000000000000000000000000000000000000000000000000000000000000N 00000000000NCONT   00    00000000000          00000000000000000000000000000000000000000000 000000000000000A000000000000000000000000000000000000000000000 000000000000000000000000000000000000000     00000000                                                                                                                        000000000000000000
F0010000007866800003000090064474900042505000000000000000000201511090002001CENTRO ARTE PAPERIA SAS                           C000000000200000000000000000000000100010010000000000000000000000F0010000007866800320151109000101 00000000000000000000000000000000000000000000000000000000000000000000000000000000000000000000000000000000000000000N 00000000000NCONT   00    00000000000          00000000000000000000000000000000000000000000 000000000000000A000000000000000000000000000000000000000000000 000000000000000000000000000000000000000     00000000                                                                                                                        000000000000000000
F0010000007866800004000090064474900023658300000000000000000201511090002001CENTRO ARTE PAPERIA SAS                           C000000000028800000000000000000000100010010000000000000000000000F0010000007866800420151109000101 00000000000000000000000000000000000000000000000000000000000000000000000000000000000000000000000000000000000000000N 00000000000NCONT   00    00000000000          00000000000000000000000000000000000000000000 000000000000000A000000000000000000000000000000000000000000000 000000000000000000000000000000000000000     00000000                                                                                                                        000000000000000000
F0010000007866800005000090064474900013552100000000000000000201511090002001CENTRO ARTE PAPERIA SAS                           D000000000028800000000000000000000100010010000000000000000000000F0010000007866800520151109000101 00000000000000000000000000000000000000000000000000000000000000000000000000000000000000000000000000000000000000000N 00000000000NCONT   00    00000000000          00000000000000000000000000000000000000000000 000000000000000A000000000000000000000000000000000000000000000 000000000000000000000000000000000000000     00000000                                                                                                                        000000000000000000
F0010000007866900001000090064474900011050500000000000000000201511090002001CENTRO ARTE PAPERIA SAS                           D000000001300000000000000000000000100010010000000000000000000000F0010000007866900120151109000101 00000000000000000000000000000000000000000000000000000000000000000000000000000000000000000000000000000000000000000N 00000000000NCONT   00    00000000000          00000000000000000000000000000000000000000000 000000000000000A000000000000000000000000000000000000000000000 000000000000000000000000000000000000000     00000000                                                                                                                        000000000000000000
F0010000007866900002000090064474900041450500000000000000000201511090002001CENTRO ARTE PAPERIA SAS                           C000000001200000000000000000000000100010010000000000000000000000F0010000007866900220151109000101 00000000000000000000000000000000000000000000000000000000000000000000000000000000000000000000000000000000000000000N 00000000000NCONT   00    00000000000          00000000000000000000000000000000000000000000 000000000000000A000000000000000000000000000000000000000000000 000000000000000000000000000000000000000     00000000                                                                                                                        000000000000000000
F0010000007866900003000090064474900042505000000000000000000201511090002001CENTRO ARTE PAPERIA SAS                           C000000000100000000000000000000000100010010000000000000000000000F0010000007866900320151109000101 00000000000000000000000000000000000000000000000000000000000000000000000000000000000000000000000000000000000000000N 00000000000NCONT   00    00000000000          00000000000000000000000000000000000000000000 000000000000000A000000000000000000000000000000000000000000000 000000000000000000000000000000000000000     00000000                                                                                                                        000000000000000000
F0010000007866900004000090064474900023658300000000000000000201511090002001CENTRO ARTE PAPERIA SAS                           C000000000009600000000000000000000100010010000000000000000000000F0010000007866900420151109000101 00000000000000000000000000000000000000000000000000000000000000000000000000000000000000000000000000000000000000000N 00000000000NCONT   00    00000000000          00000000000000000000000000000000000000000000 000000000000000A000000000000000000000000000000000000000000000 000000000000000000000000000000000000000     00000000                                                                                                                        000000000000000000
F0010000007866900005000090064474900013552100000000000000000201511090002001CENTRO ARTE PAPERIA SAS                           D000000000009600000000000000000000100010010000000000000000000000F0010000007866900520151109000101 00000000000000000000000000000000000000000000000000000000000000000000000000000000000000000000000000000000000000000N 00000000000NCONT   00    00000000000          00000000000000000000000000000000000000000000 000000000000000A000000000000000000000000000000000000000000000 000000000000000000000000000000000000000     00000000                                                                                                                        000000000000000000
F0010000007867000001000000872671800011050500000000000000000201511090002001RUBEN ARENAS PARRA                                D000000007200000000000000000000000100010010000000000000000000000F0010000007867000120151109000101 00000000000000000000000000000000000000000000000000000000000000000000000000000000000000000000000000000000000000000N 00000000000NCONT   00    00000000000          00000000000000000000000000000000000000000000 000000000000000A000000000000000000000000000000000000000000000 000000000000000000000000000000000000000     00000000                                                                                                                        000000000000000000
F0010000007867000002000000872671800041450500000000000000000201511090002001RUBEN ARENAS PARRA                                C000000004800000000000000000000000100010010000000000000000000000F0010000007867000220151109000101 00000000000000000000000000000000000000000000000000000000000000000000000000000000000000000000000000000000000000000N 00000000000NCONT   00    00000000000          00000000000000000000000000000000000000000000 000000000000000A000000000000000000000000000000000000000000000 000000000000000000000000000000000000000     00000000                                                                                                                        000000000000000000
F0010000007867000003000000872671800042505000000000000000000201511090002001RUBEN ARENAS PARRA                                C000000002400000000000000000000000100010010000000000000000000000F0010000007867000320151109000101 00000000000000000000000000000000000000000000000000000000000000000000000000000000000000000000000000000000000000000N 00000000000NCONT   00    00000000000          00000000000000000000000000000000000000000000 000000000000000A000000000000000000000000000000000000000000000 000000000000000000000000000000000000000     00000000                                                                                                                        000000000000000000
F0010000007867000004000000872671800023658300000000000000000201511090002001RUBEN ARENAS PARRA                                C000000000038400000000000000000000100010010000000000000000000000F0010000007867000420151109000101 00000000000000000000000000000000000000000000000000000000000000000000000000000000000000000000000000000000000000000N 00000000000NCONT   00    00000000000          00000000000000000000000000000000000000000000 000000000000000A000000000000000000000000000000000000000000000 000000000000000000000000000000000000000     00000000                                                                                                                        000000000000000000
F0010000007867000005000000872671800013552100000000000000000201511090002001RUBEN ARENAS PARRA                                D000000000038400000000000000000000100010010000000000000000000000F0010000007867000520151109000101 00000000000000000000000000000000000000000000000000000000000000000000000000000000000000000000000000000000000000000N 00000000000NCONT   00    00000000000          00000000000000000000000000000000000000000000 000000000000000A000000000000000000000000000000000000000000000 000000000000000000000000000000000000000     00000000                                                                                                                        000000000000000000
F0010000007867100001000000872671800011050500000000000000000201511090002001RUBEN ARENAS PARRA                                D000000003800000000000000000000000100010010000000000000000000000F0010000007867100120151109000101 00000000000000000000000000000000000000000000000000000000000000000000000000000000000000000000000000000000000000000N 00000000000NCONT   00    00000000000          00000000000000000000000000000000000000000000 000000000000000A000000000000000000000000000000000000000000000 000000000000000000000000000000000000000     00000000                                                                                                                        000000000000000000
F0010000007867100002000000872671800041450500000000000000000201511090002001RUBEN ARENAS PARRA                                C000000002400000000000000000000000100010010000000000000000000000F0010000007867100220151109000101 00000000000000000000000000000000000000000000000000000000000000000000000000000000000000000000000000000000000000000N 00000000000NCONT   00    00000000000          00000000000000000000000000000000000000000000 000000000000000A000000000000000000000000000000000000000000000 000000000000000000000000000000000000000     00000000                                                                                                                        000000000000000000
F0010000007867100003000000872671800042505000000000000000000201511090002001RUBEN ARENAS PARRA                                C000000001400000000000000000000000100010010000000000000000000000F0010000007867100320151109000101 00000000000000000000000000000000000000000000000000000000000000000000000000000000000000000000000000000000000000000N 00000000000NCONT   00    00000000000          00000000000000000000000000000000000000000000 000000000000000A000000000000000000000000000000000000000000000 000000000000000000000000000000000000000     00000000                                                                                                                        000000000000000000
F0010000007867100004000000872671800023658300000000000000000201511090002001RUBEN ARENAS PARRA                                C000000000019200000000000000000000100010010000000000000000000000F0010000007867100420151109000101 00000000000000000000000000000000000000000000000000000000000000000000000000000000000000000000000000000000000000000N 00000000000NCONT   00    00000000000          00000000000000000000000000000000000000000000 000000000000000A000000000000000000000000000000000000000000000 000000000000000000000000000000000000000     00000000                                                                                                                        000000000000000000
F0010000007867100005000000872671800013552100000000000000000201511090002001RUBEN ARENAS PARRA                                D000000000019200000000000000000000100010010000000000000000000000F0010000007867100520151109000101 00000000000000000000000000000000000000000000000000000000000000000000000000000000000000000000000000000000000000000N 00000000000NCONT   00    00000000000          00000000000000000000000000000000000000000000 000000000000000A000000000000000000000000000000000000000000000 000000000000000000000000000000000000000     00000000                                                                                                                        000000000000000000
F0010000007867200001000090034602400011050500000000000000000201511090002001PRODUCTOS NACIONALES PARAFINICOS LA CUSTODIA S.A.SD000000001000000000000000000000000100010010000000000000000000000F0010000007867200120151109000101 00000000000000000000000000000000000000000000000000000000000000000000000000000000000000000000000000000000000000000N 00000000000NCONT   00    00000000000          00000000000000000000000000000000000000000000 000000000000000A000000000000000000000000000000000000000000000 000000000000000000000000000000000000000     00000000                                                                                                                        000000000000000000
F0010000007867200002000090034602400041450500000000000000000201511090002001PRODUCTOS NACIONALES PARAFINICOS LA CUSTODIA S.A.SC000000000900000000000000000000000100010010000000000000000000000F0010000007867200220151109000101 00000000000000000000000000000000000000000000000000000000000000000000000000000000000000000000000000000000000000000N 00000000000NCONT   00    00000000000          00000000000000000000000000000000000000000000 000000000000000A000000000000000000000000000000000000000000000 000000000000000000000000000000000000000     00000000                                                                                                                        000000000000000000
F0010000007867200003000090034602400042505000000000000000000201511090002001PRODUCTOS NACIONALES PARAFINICOS LA CUSTODIA S.A.SC000000000100000000000000000000000100010010000000000000000000000F0010000007867200320151109000101 00000000000000000000000000000000000000000000000000000000000000000000000000000000000000000000000000000000000000000N 00000000000NCONT   00    00000000000          00000000000000000000000000000000000000000000 000000000000000A000000000000000000000000000000000000000000000 000000000000000000000000000000000000000     00000000                                                                                                                        000000000000000000
F0010000007867200004000090034602400023658300000000000000000201511090002001PRODUCTOS NACIONALES PARAFINICOS LA CUSTODIA S.A.SC000000000007200000000000000000000100010010000000000000000000000F0010000007867200420151109000101 00000000000000000000000000000000000000000000000000000000000000000000000000000000000000000000000000000000000000000N 00000000000NCONT   00    00000000000          00000000000000000000000000000000000000000000 000000000000000A000000000000000000000000000000000000000000000 000000000000000000000000000000000000000     00000000                                                                                                                        000000000000000000
F0010000007867200005000090034602400013552100000000000000000201511090002001PRODUCTOS NACIONALES PARAFINICOS LA CUSTODIA S.A.SD000000000007200000000000000000000100010010000000000000000000000F0010000007867200520151109000101 00000000000000000000000000000000000000000000000000000000000000000000000000000000000000000000000000000000000000000N 00000000000NCONT   00    00000000000          00000000000000000000000000000000000000000000 000000000000000A000000000000000000000000000000000000000000000 000000000000000000000000000000000000000     00000000                                                                                                                        000000000000000000
F0010000007867300001000090052543100011050500000000000000000201511090002001SECRET COLOR SAS                                  D000000000900000000000000000000000100010010000000000000000000000F0010000007867300120151109000101 00000000000000000000000000000000000000000000000000000000000000000000000000000000000000000000000000000000000000000N 00000000000NCONT   00    00000000000          00000000000000000000000000000000000000000000 000000000000000A000000000000000000000000000000000000000000000 000000000000000000000000000000000000000     00000000                                                                                                                        000000000000000000
F0010000007867300002000090052543100041450500000000000000000201511090002001SECRET COLOR SAS                                  C000000000800000000000000000000000100010010000000000000000000000F0010000007867300220151109000101 00000000000000000000000000000000000000000000000000000000000000000000000000000000000000000000000000000000000000000N 00000000000NCONT   00    00000000000          00000000000000000000000000000000000000000000 000000000000000A000000000000000000000000000000000000000000000 000000000000000000000000000000000000000     00000000                                                                                                                        000000000000000000
F0010000007867300003000090052543100042505000000000000000000201511090002001SECRET COLOR SAS                                  C000000000100000000000000000000000100010010000000000000000000000F0010000007867300320151109000101 00000000000000000000000000000000000000000000000000000000000000000000000000000000000000000000000000000000000000000N 00000000000NCONT   00    00000000000          00000000000000000000000000000000000000000000 000000000000000A000000000000000000000000000000000000000000000 000000000000000000000000000000000000000     00000000                                                                                                                        000000000000000000
F0010000007867300004000090052543100023658300000000000000000201511090002001SECRET COLOR SAS                                  C000000000006400000000000000000000100010010000000000000000000000F0010000007867300420151109000101 00000000000000000000000000000000000000000000000000000000000000000000000000000000000000000000000000000000000000000N 00000000000NCONT   00    00000000000          00000000000000000000000000000000000000000000 000000000000000A000000000000000000000000000000000000000000000 000000000000000000000000000000000000000     00000000                                                                                                                        000000000000000000
F0010000007867300005000090052543100013552100000000000000000201511090002001SECRET COLOR SAS                                  D000000000006400000000000000000000100010010000000000000000000000F0010000007867300520151109000101 00000000000000000000000000000000000000000000000000000000000000000000000000000000000000000000000000000000000000000N 00000000000NCONT   00    00000000000          00000000000000000000000000000000000000000000 000000000000000A000000000000000000000000000000000000000000000 000000000000000000000000000000000000000     00000000                                                                                                                        000000000000000000
F0010000007867400001000090052543100011050500000000000000000201511090002001SECRET COLOR SAS                                  D000000000900000000000000000000000100010010000000000000000000000F0010000007867400120151109000101 00000000000000000000000000000000000000000000000000000000000000000000000000000000000000000000000000000000000000000N 00000000000NCONT   00    00000000000          00000000000000000000000000000000000000000000 000000000000000A000000000000000000000000000000000000000000000 000000000000000000000000000000000000000     00000000                                                                                                                        000000000000000000
F0010000007867400002000090052543100041450500000000000000000201511090002001SECRET COLOR SAS                                  C000000000800000000000000000000000100010010000000000000000000000F0010000007867400220151109000101 00000000000000000000000000000000000000000000000000000000000000000000000000000000000000000000000000000000000000000N 00000000000NCONT   00    00000000000          00000000000000000000000000000000000000000000 000000000000000A000000000000000000000000000000000000000000000 000000000000000000000000000000000000000     00000000                                                                                                                        000000000000000000
F0010000007867400003000090052543100042505000000000000000000201511090002001SECRET COLOR SAS                                  C000000000100000000000000000000000100010010000000000000000000000F0010000007867400320151109000101 00000000000000000000000000000000000000000000000000000000000000000000000000000000000000000000000000000000000000000N 00000000000NCONT   00    00000000000          00000000000000000000000000000000000000000000 000000000000000A000000000000000000000000000000000000000000000 000000000000000000000000000000000000000     00000000                                                                                                                        000000000000000000
F0010000007867400004000090052543100023658300000000000000000201511090002001SECRET COLOR SAS                                  C000000000006400000000000000000000100010010000000000000000000000F0010000007867400420151109000101 00000000000000000000000000000000000000000000000000000000000000000000000000000000000000000000000000000000000000000N 00000000000NCONT   00    00000000000          00000000000000000000000000000000000000000000 000000000000000A000000000000000000000000000000000000000000000 000000000000000000000000000000000000000     00000000                                                                                                                        000000000000000000
F0010000007867400005000090052543100013552100000000000000000201511090002001SECRET COLOR SAS                                  D000000000006400000000000000000000100010010000000000000000000000F0010000007867400520151109000101 00000000000000000000000000000000000000000000000000000000000000000000000000000000000000000000000000000000000000000N 00000000000NCONT   00    00000000000          00000000000000000000000000000000000000000000 000000000000000A000000000000000000000000000000000000000000000 000000000000000000000000000000000000000     00000000                                                                                                                        000000000000000000
F0010000007867500001000090052543100011050500000000000000000201511090002001SECRET COLOR SAS                                  D000000000900000000000000000000000100010010000000000000000000000F0010000007867500120151109000101 00000000000000000000000000000000000000000000000000000000000000000000000000000000000000000000000000000000000000000N 00000000000NCONT   00    00000000000          00000000000000000000000000000000000000000000 000000000000000A000000000000000000000000000000000000000000000 000000000000000000000000000000000000000     00000000                                                                                                                        000000000000000000
F0010000007867500002000090052543100041450500000000000000000201511090002001SECRET COLOR SAS                                  C000000000800000000000000000000000100010010000000000000000000000F0010000007867500220151109000101 00000000000000000000000000000000000000000000000000000000000000000000000000000000000000000000000000000000000000000N 00000000000NCONT   00    00000000000          00000000000000000000000000000000000000000000 000000000000000A000000000000000000000000000000000000000000000 000000000000000000000000000000000000000     00000000                                                                                                                        000000000000000000
F0010000007867500003000090052543100042505000000000000000000201511090002001SECRET COLOR SAS                                  C000000000100000000000000000000000100010010000000000000000000000F0010000007867500320151109000101 00000000000000000000000000000000000000000000000000000000000000000000000000000000000000000000000000000000000000000N 00000000000NCONT   00    00000000000          00000000000000000000000000000000000000000000 000000000000000A000000000000000000000000000000000000000000000 000000000000000000000000000000000000000     00000000                                                                                                                        000000000000000000
F0010000007867500004000090052543100023658300000000000000000201511090002001SECRET COLOR SAS                                  C000000000006400000000000000000000100010010000000000000000000000F0010000007867500420151109000101 00000000000000000000000000000000000000000000000000000000000000000000000000000000000000000000000000000000000000000N 00000000000NCONT   00    00000000000          00000000000000000000000000000000000000000000 000000000000000A000000000000000000000000000000000000000000000 000000000000000000000000000000000000000     00000000                                                                                                                        000000000000000000
F0010000007867500005000090052543100013552100000000000000000201511090002001SECRET COLOR SAS                                  D000000000006400000000000000000000100010010000000000000000000000F0010000007867500520151109000101 00000000000000000000000000000000000000000000000000000000000000000000000000000000000000000000000000000000000000000N 00000000000NCONT   00    00000000000          00000000000000000000000000000000000000000000 000000000000000A000000000000000000000000000000000000000000000 000000000000000000000000000000000000000     00000000                                                                                                                        000000000000000000
F0010000007867600001000090052543100011050500000000000000000201511090002001SECRET COLOR SAS                                  D000000000900000000000000000000000100010010000000000000000000000F0010000007867600120151109000101 00000000000000000000000000000000000000000000000000000000000000000000000000000000000000000000000000000000000000000N 00000000000NCONT   00    00000000000          00000000000000000000000000000000000000000000 000000000000000A000000000000000000000000000000000000000000000 000000000000000000000000000000000000000     00000000                                                                                                                        000000000000000000
F0010000007867600002000090052543100041450500000000000000000201511090002001SECRET COLOR SAS                                  C000000000800000000000000000000000100010010000000000000000000000F0010000007867600220151109000101 00000000000000000000000000000000000000000000000000000000000000000000000000000000000000000000000000000000000000000N 00000000000NCONT   00    00000000000          00000000000000000000000000000000000000000000 000000000000000A000000000000000000000000000000000000000000000 000000000000000000000000000000000000000     00000000                                                                                                                        000000000000000000
F0010000007867600003000090052543100042505000000000000000000201511090002001SECRET COLOR SAS                                  C000000000100000000000000000000000100010010000000000000000000000F0010000007867600320151109000101 00000000000000000000000000000000000000000000000000000000000000000000000000000000000000000000000000000000000000000N 00000000000NCONT   00    00000000000          00000000000000000000000000000000000000000000 000000000000000A000000000000000000000000000000000000000000000 000000000000000000000000000000000000000     00000000                                                                                                                        000000000000000000
F0010000007867600004000090052543100023658300000000000000000201511090002001SECRET COLOR SAS                                  C000000000006400000000000000000000100010010000000000000000000000F0010000007867600420151109000101 00000000000000000000000000000000000000000000000000000000000000000000000000000000000000000000000000000000000000000N 00000000000NCONT   00    00000000000          00000000000000000000000000000000000000000000 000000000000000A000000000000000000000000000000000000000000000 000000000000000000000000000000000000000     00000000                                                                                                                        000000000000000000
F0010000007867600005000090052543100013552100000000000000000201511090002001SECRET COLOR SAS                                  D000000000006400000000000000000000100010010000000000000000000000F0010000007867600520151109000101 00000000000000000000000000000000000000000000000000000000000000000000000000000000000000000000000000000000000000000N 00000000000NCONT   00    00000000000          00000000000000000000000000000000000000000000 000000000000000A000000000000000000000000000000000000000000000 000000000000000000000000000000000000000     00000000                                                                                                                        000000000000000000
F0010000007867700001000090052543100011050500000000000000000201511090002001SECRET COLOR SAS                                  D000000000900000000000000000000000100010010000000000000000000000F0010000007867700120151109000101 00000000000000000000000000000000000000000000000000000000000000000000000000000000000000000000000000000000000000000N 00000000000NCONT   00    00000000000          00000000000000000000000000000000000000000000 000000000000000A000000000000000000000000000000000000000000000 000000000000000000000000000000000000000     00000000                                                                                                                        000000000000000000
F0010000007867700002000090052543100041450500000000000000000201511090002001SECRET COLOR SAS                                  C000000000800000000000000000000000100010010000000000000000000000F0010000007867700220151109000101 00000000000000000000000000000000000000000000000000000000000000000000000000000000000000000000000000000000000000000N 00000000000NCONT   00    00000000000          00000000000000000000000000000000000000000000 000000000000000A000000000000000000000000000000000000000000000 000000000000000000000000000000000000000     00000000                                                                                                                        000000000000000000
F0010000007867700003000090052543100042505000000000000000000201511090002001SECRET COLOR SAS                                  C000000000100000000000000000000000100010010000000000000000000000F0010000007867700320151109000101 00000000000000000000000000000000000000000000000000000000000000000000000000000000000000000000000000000000000000000N 00000000000NCONT   00    00000000000          00000000000000000000000000000000000000000000 000000000000000A000000000000000000000000000000000000000000000 000000000000000000000000000000000000000     00000000                                                                                                                        000000000000000000
F0010000007867700004000090052543100023658300000000000000000201511090002001SECRET COLOR SAS                                  C000000000006400000000000000000000100010010000000000000000000000F0010000007867700420151109000101 00000000000000000000000000000000000000000000000000000000000000000000000000000000000000000000000000000000000000000N 00000000000NCONT   00    00000000000          00000000000000000000000000000000000000000000 000000000000000A000000000000000000000000000000000000000000000 000000000000000000000000000000000000000     00000000                                                                                                                        000000000000000000
F0010000007867700005000090052543100013552100000000000000000201511090002001SECRET COLOR SAS                                  D000000000006400000000000000000000100010010000000000000000000000F0010000007867700520151109000101 00000000000000000000000000000000000000000000000000000000000000000000000000000000000000000000000000000000000000000N 00000000000NCONT   00    00000000000          00000000000000000000000000000000000000000000 000000000000000A000000000000000000000000000000000000000000000 000000000000000000000000000000000000000     00000000                                                                                                                        000000000000000000
F0010000007867800001000090052543100011050500000000000000000201511090002001SECRET COLOR SAS                                  D000000000900000000000000000000000100010010000000000000000000000F0010000007867800120151109000101 00000000000000000000000000000000000000000000000000000000000000000000000000000000000000000000000000000000000000000N 00000000000NCONT   00    00000000000          00000000000000000000000000000000000000000000 000000000000000A000000000000000000000000000000000000000000000 000000000000000000000000000000000000000     00000000                                                                                                                        000000000000000000
F0010000007867800002000090052543100041450500000000000000000201511090002001SECRET COLOR SAS                                  C000000000800000000000000000000000100010010000000000000000000000F0010000007867800220151109000101 00000000000000000000000000000000000000000000000000000000000000000000000000000000000000000000000000000000000000000N 00000000000NCONT   00    00000000000          00000000000000000000000000000000000000000000 000000000000000A000000000000000000000000000000000000000000000 000000000000000000000000000000000000000     00000000                                                                                                                        000000000000000000
F0010000007867800003000090052543100042505000000000000000000201511090002001SECRET COLOR SAS                                  C000000000100000000000000000000000100010010000000000000000000000F0010000007867800320151109000101 00000000000000000000000000000000000000000000000000000000000000000000000000000000000000000000000000000000000000000N 00000000000NCONT   00    00000000000          00000000000000000000000000000000000000000000 000000000000000A000000000000000000000000000000000000000000000 000000000000000000000000000000000000000     00000000                                                                                                                        000000000000000000
F0010000007867800004000090052543100023658300000000000000000201511090002001SECRET COLOR SAS                                  C000000000006400000000000000000000100010010000000000000000000000F0010000007867800420151109000101 00000000000000000000000000000000000000000000000000000000000000000000000000000000000000000000000000000000000000000N 00000000000NCONT   00    00000000000          00000000000000000000000000000000000000000000 000000000000000A000000000000000000000000000000000000000000000 000000000000000000000000000000000000000     00000000                                                                                                                        000000000000000000
F0010000007867800005000090052543100013552100000000000000000201511090002001SECRET COLOR SAS                                  D000000000006400000000000000000000100010010000000000000000000000F0010000007867800520151109000101 00000000000000000000000000000000000000000000000000000000000000000000000000000000000000000000000000000000000000000N 00000000000NCONT   00    00000000000          00000000000000000000000000000000000000000000 000000000000000A000000000000000000000000000000000000000000000 000000000000000000000000000000000000000     00000000                                                                                                                        000000000000000000
F0010000007867900001000090052543100011050500000000000000000201511090002001SECRET COLOR SAS                                  D000000000900000000000000000000000100010010000000000000000000000F0010000007867900120151109000101 00000000000000000000000000000000000000000000000000000000000000000000000000000000000000000000000000000000000000000N 00000000000NCONT   00    00000000000          00000000000000000000000000000000000000000000 000000000000000A000000000000000000000000000000000000000000000 000000000000000000000000000000000000000     00000000                                                                                                                        000000000000000000
F0010000007867900002000090052543100041450500000000000000000201511090002001SECRET COLOR SAS                                  C000000000800000000000000000000000100010010000000000000000000000F0010000007867900220151109000101 00000000000000000000000000000000000000000000000000000000000000000000000000000000000000000000000000000000000000000N 00000000000NCONT   00    00000000000          00000000000000000000000000000000000000000000 000000000000000A000000000000000000000000000000000000000000000 000000000000000000000000000000000000000     00000000                                                                                                                        000000000000000000
F0010000007867900003000090052543100042505000000000000000000201511090002001SECRET COLOR SAS                                  C000000000100000000000000000000000100010010000000000000000000000F0010000007867900320151109000101 00000000000000000000000000000000000000000000000000000000000000000000000000000000000000000000000000000000000000000N 00000000000NCONT   00    00000000000          00000000000000000000000000000000000000000000 000000000000000A000000000000000000000000000000000000000000000 000000000000000000000000000000000000000     00000000                                                                                                                        000000000000000000
F0010000007867900004000090052543100023658300000000000000000201511090002001SECRET COLOR SAS                                  C000000000006400000000000000000000100010010000000000000000000000F0010000007867900420151109000101 00000000000000000000000000000000000000000000000000000000000000000000000000000000000000000000000000000000000000000N 00000000000NCONT   00    00000000000          00000000000000000000000000000000000000000000 000000000000000A000000000000000000000000000000000000000000000 000000000000000000000000000000000000000     00000000                                                                                                                        000000000000000000
F0010000007867900005000090052543100013552100000000000000000201511090002001SECRET COLOR SAS                                  D000000000006400000000000000000000100010010000000000000000000000F0010000007867900520151109000101 00000000000000000000000000000000000000000000000000000000000000000000000000000000000000000000000000000000000000000N 00000000000NCONT   00    00000000000          00000000000000000000000000000000000000000000 000000000000000A000000000000000000000000000000000000000000000 000000000000000000000000000000000000000     00000000                                                                                                                        000000000000000000
F0010000007868000001000090052543100011050500000000000000000201511090002001SECRET COLOR SAS                                  D000000000900000000000000000000000100010010000000000000000000000F0010000007868000120151109000101 00000000000000000000000000000000000000000000000000000000000000000000000000000000000000000000000000000000000000000N 00000000000NCONT   00    00000000000          00000000000000000000000000000000000000000000 000000000000000A000000000000000000000000000000000000000000000 000000000000000000000000000000000000000     00000000                                                                                                                        000000000000000000
F0010000007868000002000090052543100041450500000000000000000201511090002001SECRET COLOR SAS                                  C000000000800000000000000000000000100010010000000000000000000000F0010000007868000220151109000101 00000000000000000000000000000000000000000000000000000000000000000000000000000000000000000000000000000000000000000N 00000000000NCONT   00    00000000000          00000000000000000000000000000000000000000000 000000000000000A000000000000000000000000000000000000000000000 000000000000000000000000000000000000000     00000000                                                                                                                        000000000000000000
F0010000007868000003000090052543100042505000000000000000000201511090002001SECRET COLOR SAS                                  C000000000100000000000000000000000100010010000000000000000000000F0010000007868000320151109000101 00000000000000000000000000000000000000000000000000000000000000000000000000000000000000000000000000000000000000000N 00000000000NCONT   00    00000000000          00000000000000000000000000000000000000000000 000000000000000A000000000000000000000000000000000000000000000 000000000000000000000000000000000000000     00000000                                                                                                                        000000000000000000
F0010000007868000004000090052543100023658300000000000000000201511090002001SECRET COLOR SAS                                  C000000000006400000000000000000000100010010000000000000000000000F0010000007868000420151109000101 00000000000000000000000000000000000000000000000000000000000000000000000000000000000000000000000000000000000000000N 00000000000NCONT   00    00000000000          00000000000000000000000000000000000000000000 000000000000000A000000000000000000000000000000000000000000000 000000000000000000000000000000000000000     00000000                                                                                                                        000000000000000000
F0010000007868000005000090052543100013552100000000000000000201511090002001SECRET COLOR SAS                                  D000000000006400000000000000000000100010010000000000000000000000F0010000007868000520151109000101 00000000000000000000000000000000000000000000000000000000000000000000000000000000000000000000000000000000000000000N 00000000000NCONT   00    00000000000          00000000000000000000000000000000000000000000 000000000000000A000000000000000000000000000000000000000000000 000000000000000000000000000000000000000     00000000                                                                                                                        000000000000000000
F0010000007868100001000090052543100011050500000000000000000201511090002001SECRET COLOR SAS                                  D000000000900000000000000000000000100010010000000000000000000000F0010000007868100120151109000101 00000000000000000000000000000000000000000000000000000000000000000000000000000000000000000000000000000000000000000N 00000000000NCONT   00    00000000000          00000000000000000000000000000000000000000000 000000000000000A000000000000000000000000000000000000000000000 000000000000000000000000000000000000000     00000000                                                                                                                        000000000000000000
F0010000007868100002000090052543100041450500000000000000000201511090002001SECRET COLOR SAS                                  C000000000800000000000000000000000100010010000000000000000000000F0010000007868100220151109000101 00000000000000000000000000000000000000000000000000000000000000000000000000000000000000000000000000000000000000000N 00000000000NCONT   00    00000000000          00000000000000000000000000000000000000000000 000000000000000A000000000000000000000000000000000000000000000 000000000000000000000000000000000000000     00000000                                                                                                                        000000000000000000
F0010000007868100003000090052543100042505000000000000000000201511090002001SECRET COLOR SAS                                  C000000000100000000000000000000000100010010000000000000000000000F0010000007868100320151109000101 00000000000000000000000000000000000000000000000000000000000000000000000000000000000000000000000000000000000000000N 00000000000NCONT   00    00000000000          00000000000000000000000000000000000000000000 000000000000000A000000000000000000000000000000000000000000000 000000000000000000000000000000000000000     00000000                                                                                                                        000000000000000000
F0010000007868100004000090052543100023658300000000000000000201511090002001SECRET COLOR SAS                                  C000000000006400000000000000000000100010010000000000000000000000F0010000007868100420151109000101 00000000000000000000000000000000000000000000000000000000000000000000000000000000000000000000000000000000000000000N 00000000000NCONT   00    00000000000          00000000000000000000000000000000000000000000 000000000000000A000000000000000000000000000000000000000000000 000000000000000000000000000000000000000     00000000                                                                                                                        000000000000000000
F0010000007868100005000090052543100013552100000000000000000201511090002001SECRET COLOR SAS                                  D000000000006400000000000000000000100010010000000000000000000000F0010000007868100520151109000101 00000000000000000000000000000000000000000000000000000000000000000000000000000000000000000000000000000000000000000N 00000000000NCONT   00    00000000000          00000000000000000000000000000000000000000000 000000000000000A000000000000000000000000000000000000000000000 000000000000000000000000000000000000000     00000000                                                                                                                        000000000000000000
F0010000007868200001000090050144800011050500000000000000000201511090002001PLASTICOS JR ASOCIADOS SAS                        D000000005170000000000000000000000100010010000000000000000000000F0010000007868200120151109000101 00000000000000000000000000000000000000000000000000000000000000000000000000000000000000000000000000000000000000000N 00000000000NCONT   00    00000000000          00000000000000000000000000000000000000000000 000000000000000A000000000000000000000000000000000000000000000 000000000000000000000000000000000000000     00000000                                                                                                                        000000000000000000
F0010000007868200002000090050144800041450500000000000000000201511090002001PLASTICOS JR ASOCIADOS SAS                        C000000004300000000000000000000000100010010000000000000000000000F0010000007868200220151109000101 00000000000000000000000000000000000000000000000000000000000000000000000000000000000000000000000000000000000000000N 00000000000NCONT   00    00000000000          00000000000000000000000000000000000000000000 000000000000000A000000000000000000000000000000000000000000000 000000000000000000000000000000000000000     00000000                                                                                                                        000000000000000000
F0010000007868200003000090050144800042505000000000000000000201511090002001PLASTICOS JR ASOCIADOS SAS                        C000000000870000000000000000000000100010010000000000000000000000F0010000007868200320151109000101 00000000000000000000000000000000000000000000000000000000000000000000000000000000000000000000000000000000000000000N 00000000000NCONT   00    00000000000          00000000000000000000000000000000000000000000 000000000000000A000000000000000000000000000000000000000000000 000000000000000000000000000000000000000     00000000                                                                                                                        000000000000000000
F0010000007868200004000090050144800023658300000000000000000201511090002001PLASTICOS JR ASOCIADOS SAS                        C000000000034400000000000000000000100010010000000000000000000000F0010000007868200420151109000101 00000000000000000000000000000000000000000000000000000000000000000000000000000000000000000000000000000000000000000N 00000000000NCONT   00    00000000000          00000000000000000000000000000000000000000000 000000000000000A000000000000000000000000000000000000000000000 000000000000000000000000000000000000000     00000000                                                                                                                        000000000000000000
F0010000007868200005000090050144800013552100000000000000000201511090002001PLASTICOS JR ASOCIADOS SAS                        D000000000034400000000000000000000100010010000000000000000000000F0010000007868200520151109000101 00000000000000000000000000000000000000000000000000000000000000000000000000000000000000000000000000000000000000000N 00000000000NCONT   00    00000000000          00000000000000000000000000000000000000000000 000000000000000A000000000000000000000000000000000000000000000 000000000000000000000000000000000000000     00000000                                                                                                                        000000000000000000
F0010000007868300001000090015305700011050500000000000000000201511090002001PLASTICOS Y SERVICIOS BARRANQUILLA EU             D000000009500000000000000000000000100010010000000000000000000000F0010000007868300120151109000101 00000000000000000000000000000000000000000000000000000000000000000000000000000000000000000000000000000000000000000N 00000000000NCONT   00    00000000000          00000000000000000000000000000000000000000000 000000000000000A000000000000000000000000000000000000000000000 000000000000000000000000000000000000000     00000000                                                                                                                        000000000000000000
F0010000007868300002000090015305700041450500000000000000000201511090002001PLASTICOS Y SERVICIOS BARRANQUILLA EU             C000000007800000000000000000000000100010010000000000000000000000F0010000007868300220151109000101 00000000000000000000000000000000000000000000000000000000000000000000000000000000000000000000000000000000000000000N 00000000000NCONT   00    00000000000          00000000000000000000000000000000000000000000 000000000000000A000000000000000000000000000000000000000000000 000000000000000000000000000000000000000     00000000                                                                                                                        000000000000000000
F0010000007868300003000090015305700042505000000000000000000201511090002001PLASTICOS Y SERVICIOS BARRANQUILLA EU             C000000001700000000000000000000000100010010000000000000000000000F0010000007868300320151109000101 00000000000000000000000000000000000000000000000000000000000000000000000000000000000000000000000000000000000000000N 00000000000NCONT   00    00000000000          00000000000000000000000000000000000000000000 000000000000000A000000000000000000000000000000000000000000000 000000000000000000000000000000000000000     00000000                                                                                                                        000000000000000000
F0010000007868300004000090015305700023658300000000000000000201511090002001PLASTICOS Y SERVICIOS BARRANQUILLA EU             C000000000062400000000000000000000100010010000000000000000000000F0010000007868300420151109000101 00000000000000000000000000000000000000000000000000000000000000000000000000000000000000000000000000000000000000000N 00000000000NCONT   00    00000000000          00000000000000000000000000000000000000000000 000000000000000A000000000000000000000000000000000000000000000 000000000000000000000000000000000000000     00000000                                                                                                                        000000000000000000
F0010000007868300005000090015305700013552100000000000000000201511090002001PLASTICOS Y SERVICIOS BARRANQUILLA EU             D000000000062400000000000000000000100010010000000000000000000000F0010000007868300520151109000101 00000000000000000000000000000000000000000000000000000000000000000000000000000000000000000000000000000000000000000N 00000000000NCONT   00    00000000000          00000000000000000000000000000000000000000000 000000000000000A000000000000000000000000000000000000000000000 000000000000000000000000000000000000000     00000000                                                                                                                        000000000000000000
F0010000007868400001000000431178400011050500000000000000000201511090002001EFRAIN ALVAREZ                                    D000000001820000000000000000000000100010010000000000000000000000F0010000007868400120151109000101 00000000000000000000000000000000000000000000000000000000000000000000000000000000000000000000000000000000000000000N 00000000000NCONT   00    00000000000          00000000000000000000000000000000000000000000 000000000000000A000000000000000000000000000000000000000000000 000000000000000000000000000000000000000     00000000                                                                                                                        000000000000000000
F0010000007868400002000000431178400041450500000000000000000201511090002001EFRAIN ALVAREZ                                    C000000001720000000000000000000000100010010000000000000000000000F0010000007868400220151109000101 00000000000000000000000000000000000000000000000000000000000000000000000000000000000000000000000000000000000000000N 00000000000NCONT   00    00000000000          00000000000000000000000000000000000000000000 000000000000000A000000000000000000000000000000000000000000000 000000000000000000000000000000000000000     00000000                                                                                                                        000000000000000000
F0010000007868400003000000431178400042505000000000000000000201511090002001EFRAIN ALVAREZ                                    C000000000100000000000000000000000100010010000000000000000000000F0010000007868400320151109000101 00000000000000000000000000000000000000000000000000000000000000000000000000000000000000000000000000000000000000000N 00000000000NCONT   00    00000000000          00000000000000000000000000000000000000000000 000000000000000A000000000000000000000000000000000000000000000 000000000000000000000000000000000000000     00000000                                                                                                                        000000000000000000
F0010000007868400004000000431178400023658300000000000000000201511090002001EFRAIN ALVAREZ                                    C000000000013800000000000000000000100010010000000000000000000000F0010000007868400420151109000101 00000000000000000000000000000000000000000000000000000000000000000000000000000000000000000000000000000000000000000N 00000000000NCONT   00    00000000000          00000000000000000000000000000000000000000000 000000000000000A000000000000000000000000000000000000000000000 000000000000000000000000000000000000000     00000000                                                                                                                        000000000000000000
F0010000007868400005000000431178400013552100000000000000000201511090002001EFRAIN ALVAREZ                                    D000000000013800000000000000000000100010010000000000000000000000F0010000007868400520151109000101 00000000000000000000000000000000000000000000000000000000000000000000000000000000000000000000000000000000000000000N 00000000000NCONT   00    00000000000          00000000000000000000000000000000000000000000 000000000000000A000000000000000000000000000000000000000000000 000000000000000000000000000000000000000     00000000                                                                                                                        000000000000000000
F0010000007868500001000000431178400011050500000000000000000201511090002001EFRAIN ALVAREZ                                    D000000001240000000000000000000000100010010000000000000000000000F0010000007868500120151109000101 00000000000000000000000000000000000000000000000000000000000000000000000000000000000000000000000000000000000000000N 00000000000NCONT   00    00000000000          00000000000000000000000000000000000000000000 000000000000000A000000000000000000000000000000000000000000000 000000000000000000000000000000000000000     00000000                                                                                                                        000000000000000000
F0010000007868500002000000431178400041450500000000000000000201511090002001EFRAIN ALVAREZ                                    C000000001190000000000000000000000100010010000000000000000000000F0010000007868500220151109000101 00000000000000000000000000000000000000000000000000000000000000000000000000000000000000000000000000000000000000000N 00000000000NCONT   00    00000000000          00000000000000000000000000000000000000000000 000000000000000A000000000000000000000000000000000000000000000 000000000000000000000000000000000000000     00000000                                                                                                                        000000000000000000
F0010000007868500003000000431178400042505000000000000000000201511090002001EFRAIN ALVAREZ                                    C000000000050000000000000000000000100010010000000000000000000000F0010000007868500320151109000101 00000000000000000000000000000000000000000000000000000000000000000000000000000000000000000000000000000000000000000N 00000000000NCONT   00    00000000000          00000000000000000000000000000000000000000000 000000000000000A000000000000000000000000000000000000000000000 000000000000000000000000000000000000000     00000000                                                                                                                        000000000000000000
F0010000007868500004000000431178400023658300000000000000000201511090002001EFRAIN ALVAREZ                                    C000000000009500000000000000000000100010010000000000000000000000F0010000007868500420151109000101 00000000000000000000000000000000000000000000000000000000000000000000000000000000000000000000000000000000000000000N 00000000000NCONT   00    00000000000          00000000000000000000000000000000000000000000 000000000000000A000000000000000000000000000000000000000000000 000000000000000000000000000000000000000     00000000                                                                                                                        000000000000000000
F0010000007868500005000000431178400013552100000000000000000201511090002001EFRAIN ALVAREZ                                    D000000000009500000000000000000000100010010000000000000000000000F0010000007868500520151109000101 00000000000000000000000000000000000000000000000000000000000000000000000000000000000000000000000000000000000000000N 00000000000NCONT   00    00000000000          00000000000000000000000000000000000000000000 000000000000000A000000000000000000000000000000000000000000000 000000000000000000000000000000000000000     00000000                                                                                                                        000000000000000000
F0010000007868600001000000431178400011050500000000000000000201511090002001EFRAIN ALVAREZ                                    D000000001560000000000000000000000100010010000000000000000000000F0010000007868600120151109000101 00000000000000000000000000000000000000000000000000000000000000000000000000000000000000000000000000000000000000000N 00000000000NCONT   00    00000000000          00000000000000000000000000000000000000000000 000000000000000A000000000000000000000000000000000000000000000 000000000000000000000000000000000000000     00000000                                                                                                                        000000000000000000
F0010000007868600002000000431178400041450500000000000000000201511090002001EFRAIN ALVAREZ                                    C000000001510000000000000000000000100010010000000000000000000000F0010000007868600220151109000101 00000000000000000000000000000000000000000000000000000000000000000000000000000000000000000000000000000000000000000N 00000000000NCONT   00    00000000000          00000000000000000000000000000000000000000000 000000000000000A000000000000000000000000000000000000000000000 000000000000000000000000000000000000000     00000000                                                                                                                        000000000000000000
F0010000007868600003000000431178400042505000000000000000000201511090002001EFRAIN ALVAREZ                                    C000000000050000000000000000000000100010010000000000000000000000F0010000007868600320151109000101 00000000000000000000000000000000000000000000000000000000000000000000000000000000000000000000000000000000000000000N 00000000000NCONT   00    00000000000          00000000000000000000000000000000000000000000 000000000000000A000000000000000000000000000000000000000000000 000000000000000000000000000000000000000     00000000                                                                                                                        000000000000000000
F0010000007868600004000000431178400023658300000000000000000201511090002001EFRAIN ALVAREZ                                    C000000000012100000000000000000000100010010000000000000000000000F0010000007868600420151109000101 00000000000000000000000000000000000000000000000000000000000000000000000000000000000000000000000000000000000000000N 00000000000NCONT   00    00000000000          00000000000000000000000000000000000000000000 000000000000000A000000000000000000000000000000000000000000000 000000000000000000000000000000000000000     00000000                                                                                                                        000000000000000000
F0010000007868600005000000431178400013552100000000000000000201511090002001EFRAIN ALVAREZ                                    D000000000012100000000000000000000100010010000000000000000000000F0010000007868600520151109000101 00000000000000000000000000000000000000000000000000000000000000000000000000000000000000000000000000000000000000000N 00000000000NCONT   00    00000000000          00000000000000000000000000000000000000000000 000000000000000A000000000000000000000000000000000000000000000 000000000000000000000000000000000000000     00000000                                                                                                                        000000000000000000
F0010000007868700001000000431178400011050500000000000000000201511090002001EFRAIN ALVAREZ                                    D000000001240000000000000000000000100010010000000000000000000000F0010000007868700120151109000101 00000000000000000000000000000000000000000000000000000000000000000000000000000000000000000000000000000000000000000N 00000000000NCONT   00    00000000000          00000000000000000000000000000000000000000000 000000000000000A000000000000000000000000000000000000000000000 000000000000000000000000000000000000000     00000000                                                                                                                        000000000000000000
F0010000007868700002000000431178400041450500000000000000000201511090002001EFRAIN ALVAREZ                                    C000000001190000000000000000000000100010010000000000000000000000F0010000007868700220151109000101 00000000000000000000000000000000000000000000000000000000000000000000000000000000000000000000000000000000000000000N 00000000000NCONT   00    00000000000          00000000000000000000000000000000000000000000 000000000000000A000000000000000000000000000000000000000000000 000000000000000000000000000000000000000     00000000                                                                                                                        000000000000000000
F0010000007868700003000000431178400042505000000000000000000201511090002001EFRAIN ALVAREZ                                    C000000000050000000000000000000000100010010000000000000000000000F0010000007868700320151109000101 00000000000000000000000000000000000000000000000000000000000000000000000000000000000000000000000000000000000000000N 00000000000NCONT   00    00000000000          00000000000000000000000000000000000000000000 000000000000000A000000000000000000000000000000000000000000000 000000000000000000000000000000000000000     00000000                                                                                                                        000000000000000000
F0010000007868700004000000431178400023658300000000000000000201511090002001EFRAIN ALVAREZ                                    C000000000009500000000000000000000100010010000000000000000000000F0010000007868700420151109000101 00000000000000000000000000000000000000000000000000000000000000000000000000000000000000000000000000000000000000000N 00000000000NCONT   00    00000000000          00000000000000000000000000000000000000000000 000000000000000A000000000000000000000000000000000000000000000 000000000000000000000000000000000000000     00000000                                                                                                                        000000000000000000
F0010000007868700005000000431178400013552100000000000000000201511090002001EFRAIN ALVAREZ                                    D000000000009500000000000000000000100010010000000000000000000000F0010000007868700520151109000101 00000000000000000000000000000000000000000000000000000000000000000000000000000000000000000000000000000000000000000N 00000000000NCONT   00    00000000000          00000000000000000000000000000000000000000000 000000000000000A000000000000000000000000000000000000000000000 000000000000000000000000000000000000000     00000000                                                                                                                        000000000000000000
F0010000007868800001000000431178400011050500000000000000000201511090002001EFRAIN ALVAREZ                                    D000000001560000000000000000000000100010010000000000000000000000F0010000007868800120151109000101 00000000000000000000000000000000000000000000000000000000000000000000000000000000000000000000000000000000000000000N 00000000000NCONT   00    00000000000          00000000000000000000000000000000000000000000 000000000000000A000000000000000000000000000000000000000000000 000000000000000000000000000000000000000     00000000                                                                                                                        000000000000000000
F0010000007868800002000000431178400041450500000000000000000201511090002001EFRAIN ALVAREZ                                    C000000001510000000000000000000000100010010000000000000000000000F0010000007868800220151109000101 00000000000000000000000000000000000000000000000000000000000000000000000000000000000000000000000000000000000000000N 00000000000NCONT   00    00000000000          00000000000000000000000000000000000000000000 000000000000000A000000000000000000000000000000000000000000000 000000000000000000000000000000000000000     00000000                                                                                                                        000000000000000000
