F0010000010288600001000007127017300011050500000000000000000201709020002001JUAN DIEGO ECHAVARRIA LOAIZA                      D000000001341900000000000000000000100010010000000000000000000000F0010000010288600120170902000101 00000000000000000000000000000000000000000000000000000000000000000000000000000000000000000000000000000000000000000N 00000000000NCONT   00    00000000000          00000000000000000000000000000000000000000000 000000000000000A000000000000000000000000000000000000000000000 000000000000000000000000000000000000000     00000000                                                                                                                        000000000000000000
F0010000010288600002000007127017300041450500000000000000000201709020002001JUAN DIEGO ECHAVARRIA LOAIZA                      C000000001000000000000000000000000100010010000000000000000000000F0010000010288600220170902000101 00000000000000000000000000000000000000000000000000000000000000000000000000000000000000000000000000000000000000000N 00000000000NCONT   00    00000000000          00000000000000000000000000000000000000000000 000000000000000A000000000000000000000000000000000000000000000 000000000000000000000000000000000000000     00000000                                                                                                                        000000000000000000
F0010000010288600003000007127017300042505000000000000000000201709020002001JUAN DIEGO ECHAVARRIA LOAIZA                      C000000000341900000000000000000000100010010000000000000000000000F0010000010288600320170902000101 00000000000000000000000000000000000000000000000000000000000000000000000000000000000000000000000000000000000000000N 00000000000NCONT   00    00000000000          00000000000000000000000000000000000000000000 000000000000000A000000000000000000000000000000000000000000000 000000000000000000000000000000000000000     00000000                                                                                                                        000000000000000000
F0010000010288600004000007127017300023658300000000000000000201709020002001JUAN DIEGO ECHAVARRIA LOAIZA                      C000000000000000000000000000000000100010010000000000000000000000F0010000010288600420170902000101 00000000000000000000000000000000000000000000000000000000000000000000000000000000000000000000000000000000000000000N 00000000000NCONT   00    00000000000          00000000000000000000000000000000000000000000 000000000000000A000000000000000000000000000000000000000000000 000000000000000000000000000000000000000     00000000                                                                                                                        000000000000000000
F0010000010288600005000007127017300013552100000000000000000201709020002001JUAN DIEGO ECHAVARRIA LOAIZA                      D000000000000000000000000000000000100010010000000000000000000000F0010000010288600520170902000101 00000000000000000000000000000000000000000000000000000000000000000000000000000000000000000000000000000000000000000N 00000000000NCONT   00    00000000000          00000000000000000000000000000000000000000000 000000000000000A000000000000000000000000000000000000000000000 000000000000000000000000000000000000000     00000000                                                                                                                        000000000000000000
F0010000010288700001000090029584600011050500000000000000000201709020002001TQM DISTRIBUCIONES SAS                            D000000001700000000000000000000000100010010000000000000000000000F0010000010288700120170902000101 00000000000000000000000000000000000000000000000000000000000000000000000000000000000000000000000000000000000000000N 00000000000NCONT   00    00000000000          00000000000000000000000000000000000000000000 000000000000000A000000000000000000000000000000000000000000000 000000000000000000000000000000000000000     00000000                                                                                                                        000000000000000000
F0010000010288700002000090029584600041450500000000000000000201709020002001TQM DISTRIBUCIONES SAS                            C000000001400000000000000000000000100010010000000000000000000000F0010000010288700220170902000101 00000000000000000000000000000000000000000000000000000000000000000000000000000000000000000000000000000000000000000N 00000000000NCONT   00    00000000000          00000000000000000000000000000000000000000000 000000000000000A000000000000000000000000000000000000000000000 000000000000000000000000000000000000000     00000000                                                                                                                        000000000000000000
F0010000010288700003000090029584600042505000000000000000000201709020002001TQM DISTRIBUCIONES SAS                            C000000000300000000000000000000000100010010000000000000000000000F0010000010288700320170902000101 00000000000000000000000000000000000000000000000000000000000000000000000000000000000000000000000000000000000000000N 00000000000NCONT   00    00000000000          00000000000000000000000000000000000000000000 000000000000000A000000000000000000000000000000000000000000000 000000000000000000000000000000000000000     00000000                                                                                                                        000000000000000000
F0010000010288700004000090029584600023658300000000000000000201709020002001TQM DISTRIBUCIONES SAS                            C000000000000000000000000000000000100010010000000000000000000000F0010000010288700420170902000101 00000000000000000000000000000000000000000000000000000000000000000000000000000000000000000000000000000000000000000N 00000000000NCONT   00    00000000000          00000000000000000000000000000000000000000000 000000000000000A000000000000000000000000000000000000000000000 000000000000000000000000000000000000000     00000000                                                                                                                        000000000000000000
F0010000010288700005000090029584600013552100000000000000000201709020002001TQM DISTRIBUCIONES SAS                            D000000000000000000000000000000000100010010000000000000000000000F0010000010288700520170902000101 00000000000000000000000000000000000000000000000000000000000000000000000000000000000000000000000000000000000000000N 00000000000NCONT   00    00000000000          00000000000000000000000000000000000000000000 000000000000000A000000000000000000000000000000000000000000000 000000000000000000000000000000000000000     00000000                                                                                                                        000000000000000000
F0010000010288800001000007200690400011050500000000000000000201709020002001JANNER MANUEL HERAZO                              D000000003000000000000000000000000100010010000000000000000000000F0010000010288800120170902000101 00000000000000000000000000000000000000000000000000000000000000000000000000000000000000000000000000000000000000000N 00000000000NCONT   00    00000000000          00000000000000000000000000000000000000000000 000000000000000A000000000000000000000000000000000000000000000 000000000000000000000000000000000000000     00000000                                                                                                                        000000000000000000
F0010000010288800002000007200690400041450500000000000000000201709020002001JANNER MANUEL HERAZO                              C000000002400000000000000000000000100010010000000000000000000000F0010000010288800220170902000101 00000000000000000000000000000000000000000000000000000000000000000000000000000000000000000000000000000000000000000N 00000000000NCONT   00    00000000000          00000000000000000000000000000000000000000000 000000000000000A000000000000000000000000000000000000000000000 000000000000000000000000000000000000000     00000000                                                                                                                        000000000000000000
F0010000010288800003000007200690400042505000000000000000000201709020002001JANNER MANUEL HERAZO                              C000000000600000000000000000000000100010010000000000000000000000F0010000010288800320170902000101 00000000000000000000000000000000000000000000000000000000000000000000000000000000000000000000000000000000000000000N 00000000000NCONT   00    00000000000          00000000000000000000000000000000000000000000 000000000000000A000000000000000000000000000000000000000000000 000000000000000000000000000000000000000     00000000                                                                                                                        000000000000000000
F0010000010288800004000007200690400023658300000000000000000201709020002001JANNER MANUEL HERAZO                              C000000000000000000000000000000000100010010000000000000000000000F0010000010288800420170902000101 00000000000000000000000000000000000000000000000000000000000000000000000000000000000000000000000000000000000000000N 00000000000NCONT   00    00000000000          00000000000000000000000000000000000000000000 000000000000000A000000000000000000000000000000000000000000000 000000000000000000000000000000000000000     00000000                                                                                                                        000000000000000000
F0010000010288800005000007200690400013552100000000000000000201709020002001JANNER MANUEL HERAZO                              D000000000000000000000000000000000100010010000000000000000000000F0010000010288800520170902000101 00000000000000000000000000000000000000000000000000000000000000000000000000000000000000000000000000000000000000000N 00000000000NCONT   00    00000000000          00000000000000000000000000000000000000000000 000000000000000A000000000000000000000000000000000000000000000 000000000000000000000000000000000000000     00000000                                                                                                                        000000000000000000
F0010000010288900001000001022529300011050500000000000000000201709020002001ALBERTO ALVAREZ ISAZA                             D000000002640000000000000000000000100010010000000000000000000000F0010000010288900120170902000101 00000000000000000000000000000000000000000000000000000000000000000000000000000000000000000000000000000000000000000N 00000000000NCONT   00    00000000000          00000000000000000000000000000000000000000000 000000000000000A000000000000000000000000000000000000000000000 000000000000000000000000000000000000000     00000000                                                                                                                        000000000000000000
F0010000010288900002000001022529300041450500000000000000000201709020002001ALBERTO ALVAREZ ISAZA                             C000000002640000000000000000000000100010010000000000000000000000F0010000010288900220170902000101 00000000000000000000000000000000000000000000000000000000000000000000000000000000000000000000000000000000000000000N 00000000000NCONT   00    00000000000          00000000000000000000000000000000000000000000 000000000000000A000000000000000000000000000000000000000000000 000000000000000000000000000000000000000     00000000                                                                                                                        000000000000000000
F0010000010288900003000001022529300042505000000000000000000201709020002001ALBERTO ALVAREZ ISAZA                             C000000000000000000000000000000000100010010000000000000000000000F0010000010288900320170902000101 00000000000000000000000000000000000000000000000000000000000000000000000000000000000000000000000000000000000000000N 00000000000NCONT   00    00000000000          00000000000000000000000000000000000000000000 000000000000000A000000000000000000000000000000000000000000000 000000000000000000000000000000000000000     00000000                                                                                                                        000000000000000000
F0010000010288900004000001022529300023658300000000000000000201709020002001ALBERTO ALVAREZ ISAZA                             C000000000000000000000000000000000100010010000000000000000000000F0010000010288900420170902000101 00000000000000000000000000000000000000000000000000000000000000000000000000000000000000000000000000000000000000000N 00000000000NCONT   00    00000000000          00000000000000000000000000000000000000000000 000000000000000A000000000000000000000000000000000000000000000 000000000000000000000000000000000000000     00000000                                                                                                                        000000000000000000
F0010000010288900005000001022529300013552100000000000000000201709020002001ALBERTO ALVAREZ ISAZA                             D000000000000000000000000000000000100010010000000000000000000000F0010000010288900520170902000101 00000000000000000000000000000000000000000000000000000000000000000000000000000000000000000000000000000000000000000N 00000000000NCONT   00    00000000000          00000000000000000000000000000000000000000000 000000000000000A000000000000000000000000000000000000000000000 000000000000000000000000000000000000000     00000000                                                                                                                        000000000000000000
F0010000010289000001000004175790100011050500000000000000000201709020002001ROSIRIS FERIA HOYOS  (COSM. SHILLER)              D000000001300000000000000000000000100010010000000000000000000000F0010000010289000120170902000101 00000000000000000000000000000000000000000000000000000000000000000000000000000000000000000000000000000000000000000N 00000000000NCONT   00    00000000000          00000000000000000000000000000000000000000000 000000000000000A000000000000000000000000000000000000000000000 000000000000000000000000000000000000000     00000000                                                                                                                        000000000000000000
F0010000010289000002000004175790100041450500000000000000000201709020002001ROSIRIS FERIA HOYOS  (COSM. SHILLER)              C000000001200000000000000000000000100010010000000000000000000000F0010000010289000220170902000101 00000000000000000000000000000000000000000000000000000000000000000000000000000000000000000000000000000000000000000N 00000000000NCONT   00    00000000000          00000000000000000000000000000000000000000000 000000000000000A000000000000000000000000000000000000000000000 000000000000000000000000000000000000000     00000000                                                                                                                        000000000000000000
F0010000010289000003000004175790100042505000000000000000000201709020002001ROSIRIS FERIA HOYOS  (COSM. SHILLER)              C000000000100000000000000000000000100010010000000000000000000000F0010000010289000320170902000101 00000000000000000000000000000000000000000000000000000000000000000000000000000000000000000000000000000000000000000N 00000000000NCONT   00    00000000000          00000000000000000000000000000000000000000000 000000000000000A000000000000000000000000000000000000000000000 000000000000000000000000000000000000000     00000000                                                                                                                        000000000000000000
F0010000010289000004000004175790100023658300000000000000000201709020002001ROSIRIS FERIA HOYOS  (COSM. SHILLER)              C000000000000000000000000000000000100010010000000000000000000000F0010000010289000420170902000101 00000000000000000000000000000000000000000000000000000000000000000000000000000000000000000000000000000000000000000N 00000000000NCONT   00    00000000000          00000000000000000000000000000000000000000000 000000000000000A000000000000000000000000000000000000000000000 000000000000000000000000000000000000000     00000000                                                                                                                        000000000000000000
F0010000010289000005000004175790100013552100000000000000000201709020002001ROSIRIS FERIA HOYOS  (COSM. SHILLER)              D000000000000000000000000000000000100010010000000000000000000000F0010000010289000520170902000101 00000000000000000000000000000000000000000000000000000000000000000000000000000000000000000000000000000000000000000N 00000000000NCONT   00    00000000000          00000000000000000000000000000000000000000000 000000000000000A000000000000000000000000000000000000000000000 000000000000000000000000000000000000000     00000000                                                                                                                        000000000000000000
F0010000010289100001000004175790100011050500000000000000000201709020002001ROSIRIS FERIA HOYOS  (COSM. SHILLER)              D000000001200000000000000000000000100010010000000000000000000000F0010000010289100120170902000101 00000000000000000000000000000000000000000000000000000000000000000000000000000000000000000000000000000000000000000N 00000000000NCONT   00    00000000000          00000000000000000000000000000000000000000000 000000000000000A000000000000000000000000000000000000000000000 000000000000000000000000000000000000000     00000000                                                                                                                        000000000000000000
F0010000010289100002000004175790100041450500000000000000000201709020002001ROSIRIS FERIA HOYOS  (COSM. SHILLER)              C000000001100000000000000000000000100010010000000000000000000000F0010000010289100220170902000101 00000000000000000000000000000000000000000000000000000000000000000000000000000000000000000000000000000000000000000N 00000000000NCONT   00    00000000000          00000000000000000000000000000000000000000000 000000000000000A000000000000000000000000000000000000000000000 000000000000000000000000000000000000000     00000000                                                                                                                        000000000000000000
F0010000010289100003000004175790100042505000000000000000000201709020002001ROSIRIS FERIA HOYOS  (COSM. SHILLER)              C000000000100000000000000000000000100010010000000000000000000000F0010000010289100320170902000101 00000000000000000000000000000000000000000000000000000000000000000000000000000000000000000000000000000000000000000N 00000000000NCONT   00    00000000000          00000000000000000000000000000000000000000000 000000000000000A000000000000000000000000000000000000000000000 000000000000000000000000000000000000000     00000000                                                                                                                        000000000000000000
F0010000010289100004000004175790100023658300000000000000000201709020002001ROSIRIS FERIA HOYOS  (COSM. SHILLER)              C000000000000000000000000000000000100010010000000000000000000000F0010000010289100420170902000101 00000000000000000000000000000000000000000000000000000000000000000000000000000000000000000000000000000000000000000N 00000000000NCONT   00    00000000000          00000000000000000000000000000000000000000000 000000000000000A000000000000000000000000000000000000000000000 000000000000000000000000000000000000000     00000000                                                                                                                        000000000000000000
F0010000010289100005000004175790100013552100000000000000000201709020002001ROSIRIS FERIA HOYOS  (COSM. SHILLER)              D000000000000000000000000000000000100010010000000000000000000000F0010000010289100520170902000101 00000000000000000000000000000000000000000000000000000000000000000000000000000000000000000000000000000000000000000N 00000000000NCONT   00    00000000000          00000000000000000000000000000000000000000000 000000000000000A000000000000000000000000000000000000000000000 000000000000000000000000000000000000000     00000000                                                                                                                        000000000000000000
F0010000010289200001000000431178400011050500000000000000000201709020002001EFRAIN ALVAREZ                                    D000000002040000000000000000000000100010010000000000000000000000F0010000010289200120170902000101 00000000000000000000000000000000000000000000000000000000000000000000000000000000000000000000000000000000000000000N 00000000000NCONT   00    00000000000          00000000000000000000000000000000000000000000 000000000000000A000000000000000000000000000000000000000000000 000000000000000000000000000000000000000     00000000                                                                                                                        000000000000000000
F0010000010289200002000000431178400041450500000000000000000201709020002001EFRAIN ALVAREZ                                    C000000001940000000000000000000000100010010000000000000000000000F0010000010289200220170902000101 00000000000000000000000000000000000000000000000000000000000000000000000000000000000000000000000000000000000000000N 00000000000NCONT   00    00000000000          00000000000000000000000000000000000000000000 000000000000000A000000000000000000000000000000000000000000000 000000000000000000000000000000000000000     00000000                                                                                                                        000000000000000000
F0010000010289200003000000431178400042505000000000000000000201709020002001EFRAIN ALVAREZ                                    C000000000100000000000000000000000100010010000000000000000000000F0010000010289200320170902000101 00000000000000000000000000000000000000000000000000000000000000000000000000000000000000000000000000000000000000000N 00000000000NCONT   00    00000000000          00000000000000000000000000000000000000000000 000000000000000A000000000000000000000000000000000000000000000 000000000000000000000000000000000000000     00000000                                                                                                                        000000000000000000
F0010000010289200004000000431178400023658300000000000000000201709020002001EFRAIN ALVAREZ                                    C000000000000000000000000000000000100010010000000000000000000000F0010000010289200420170902000101 00000000000000000000000000000000000000000000000000000000000000000000000000000000000000000000000000000000000000000N 00000000000NCONT   00    00000000000          00000000000000000000000000000000000000000000 000000000000000A000000000000000000000000000000000000000000000 000000000000000000000000000000000000000     00000000                                                                                                                        000000000000000000
F0010000010289200005000000431178400013552100000000000000000201709020002001EFRAIN ALVAREZ                                    D000000000000000000000000000000000100010010000000000000000000000F0010000010289200520170902000101 00000000000000000000000000000000000000000000000000000000000000000000000000000000000000000000000000000000000000000N 00000000000NCONT   00    00000000000          00000000000000000000000000000000000000000000 000000000000000A000000000000000000000000000000000000000000000 000000000000000000000000000000000000000     00000000                                                                                                                        000000000000000000
F0010000010289300001000001719393900011050500000000000000000201709020002001JAIRO BASTIDAS RAMIREZ                            D000000002820000000000000000000000100010010000000000000000000000F0010000010289300120170902000101 00000000000000000000000000000000000000000000000000000000000000000000000000000000000000000000000000000000000000000N 00000000000NCONT   00    00000000000          00000000000000000000000000000000000000000000 000000000000000A000000000000000000000000000000000000000000000 000000000000000000000000000000000000000     00000000                                                                                                                        000000000000000000
F0010000010289300002000001719393900041450500000000000000000201709020002001JAIRO BASTIDAS RAMIREZ                            C000000002600000000000000000000000100010010000000000000000000000F0010000010289300220170902000101 00000000000000000000000000000000000000000000000000000000000000000000000000000000000000000000000000000000000000000N 00000000000NCONT   00    00000000000          00000000000000000000000000000000000000000000 000000000000000A000000000000000000000000000000000000000000000 000000000000000000000000000000000000000     00000000                                                                                                                        000000000000000000
F0010000010289300003000001719393900042505000000000000000000201709020002001JAIRO BASTIDAS RAMIREZ                            C000000000220000000000000000000000100010010000000000000000000000F0010000010289300320170902000101 00000000000000000000000000000000000000000000000000000000000000000000000000000000000000000000000000000000000000000N 00000000000NCONT   00    00000000000          00000000000000000000000000000000000000000000 000000000000000A000000000000000000000000000000000000000000000 000000000000000000000000000000000000000     00000000                                                                                                                        000000000000000000
F0010000010289300004000001719393900023658300000000000000000201709020002001JAIRO BASTIDAS RAMIREZ                            C000000000000000000000000000000000100010010000000000000000000000F0010000010289300420170902000101 00000000000000000000000000000000000000000000000000000000000000000000000000000000000000000000000000000000000000000N 00000000000NCONT   00    00000000000          00000000000000000000000000000000000000000000 000000000000000A000000000000000000000000000000000000000000000 000000000000000000000000000000000000000     00000000                                                                                                                        000000000000000000
F0010000010289300005000001719393900013552100000000000000000201709020002001JAIRO BASTIDAS RAMIREZ                            D000000000000000000000000000000000100010010000000000000000000000F0010000010289300520170902000101 00000000000000000000000000000000000000000000000000000000000000000000000000000000000000000000000000000000000000000N 00000000000NCONT   00    00000000000          00000000000000000000000000000000000000000000 000000000000000A000000000000000000000000000000000000000000000 000000000000000000000000000000000000000     00000000                                                                                                                        000000000000000000
F0010000010289400001000090087846000011050500000000000000000201709020002001INTERCOMERCIAL SAS                                D000000001600000000000000000000000100010010000000000000000000000F0010000010289400120170902000101 00000000000000000000000000000000000000000000000000000000000000000000000000000000000000000000000000000000000000000N 00000000000NCONT   00    00000000000          00000000000000000000000000000000000000000000 000000000000000A000000000000000000000000000000000000000000000 000000000000000000000000000000000000000     00000000                                                                                                                        000000000000000000
F0010000010289400002000090087846000041450500000000000000000201709020002001INTERCOMERCIAL SAS                                C000000001500000000000000000000000100010010000000000000000000000F0010000010289400220170902000101 00000000000000000000000000000000000000000000000000000000000000000000000000000000000000000000000000000000000000000N 00000000000NCONT   00    00000000000          00000000000000000000000000000000000000000000 000000000000000A000000000000000000000000000000000000000000000 000000000000000000000000000000000000000     00000000                                                                                                                        000000000000000000
F0010000010289400003000090087846000042505000000000000000000201709020002001INTERCOMERCIAL SAS                                C000000000100000000000000000000000100010010000000000000000000000F0010000010289400320170902000101 00000000000000000000000000000000000000000000000000000000000000000000000000000000000000000000000000000000000000000N 00000000000NCONT   00    00000000000          00000000000000000000000000000000000000000000 000000000000000A000000000000000000000000000000000000000000000 000000000000000000000000000000000000000     00000000                                                                                                                        000000000000000000
F0010000010289400004000090087846000023658300000000000000000201709020002001INTERCOMERCIAL SAS                                C000000000000000000000000000000000100010010000000000000000000000F0010000010289400420170902000101 00000000000000000000000000000000000000000000000000000000000000000000000000000000000000000000000000000000000000000N 00000000000NCONT   00    00000000000          00000000000000000000000000000000000000000000 000000000000000A000000000000000000000000000000000000000000000 000000000000000000000000000000000000000     00000000                                                                                                                        000000000000000000
F0010000010289400005000090087846000013552100000000000000000201709020002001INTERCOMERCIAL SAS                                D000000000000000000000000000000000100010010000000000000000000000F0010000010289400520170902000101 00000000000000000000000000000000000000000000000000000000000000000000000000000000000000000000000000000000000000000N 00000000000NCONT   00    00000000000          00000000000000000000000000000000000000000000 000000000000000A000000000000000000000000000000000000000000000 000000000000000000000000000000000000000     00000000                                                                                                                        000000000000000000
F0010000010289500001000090087846000011050500000000000000000201709020002001INTERCOMERCIAL SAS                                D000000001600000000000000000000000100010010000000000000000000000F0010000010289500120170902000101 00000000000000000000000000000000000000000000000000000000000000000000000000000000000000000000000000000000000000000N 00000000000NCONT   00    00000000000          00000000000000000000000000000000000000000000 000000000000000A000000000000000000000000000000000000000000000 000000000000000000000000000000000000000     00000000                                                                                                                        000000000000000000
F0010000010289500002000090087846000041450500000000000000000201709020002001INTERCOMERCIAL SAS                                C000000001500000000000000000000000100010010000000000000000000000F0010000010289500220170902000101 00000000000000000000000000000000000000000000000000000000000000000000000000000000000000000000000000000000000000000N 00000000000NCONT   00    00000000000          00000000000000000000000000000000000000000000 000000000000000A000000000000000000000000000000000000000000000 000000000000000000000000000000000000000     00000000                                                                                                                        000000000000000000
F0010000010289500003000090087846000042505000000000000000000201709020002001INTERCOMERCIAL SAS                                C000000000100000000000000000000000100010010000000000000000000000F0010000010289500320170902000101 00000000000000000000000000000000000000000000000000000000000000000000000000000000000000000000000000000000000000000N 00000000000NCONT   00    00000000000          00000000000000000000000000000000000000000000 000000000000000A000000000000000000000000000000000000000000000 000000000000000000000000000000000000000     00000000                                                                                                                        000000000000000000
F0010000010289500004000090087846000023658300000000000000000201709020002001INTERCOMERCIAL SAS                                C000000000000000000000000000000000100010010000000000000000000000F0010000010289500420170902000101 00000000000000000000000000000000000000000000000000000000000000000000000000000000000000000000000000000000000000000N 00000000000NCONT   00    00000000000          00000000000000000000000000000000000000000000 000000000000000A000000000000000000000000000000000000000000000 000000000000000000000000000000000000000     00000000                                                                                                                        000000000000000000
F0010000010289500005000090087846000013552100000000000000000201709020002001INTERCOMERCIAL SAS                                D000000000000000000000000000000000100010010000000000000000000000F0010000010289500520170902000101 00000000000000000000000000000000000000000000000000000000000000000000000000000000000000000000000000000000000000000N 00000000000NCONT   00    00000000000          00000000000000000000000000000000000000000000 000000000000000A000000000000000000000000000000000000000000000 000000000000000000000000000000000000000     00000000                                                                                                                        000000000000000000
F0010000010289600001000090087846000011050500000000000000000201709020002001INTERCOMERCIAL SAS                                D000000001800000000000000000000000100010010000000000000000000000F0010000010289600120170902000101 00000000000000000000000000000000000000000000000000000000000000000000000000000000000000000000000000000000000000000N 00000000000NCONT   00    00000000000          00000000000000000000000000000000000000000000 000000000000000A000000000000000000000000000000000000000000000 000000000000000000000000000000000000000     00000000                                                                                                                        000000000000000000
F0010000010289600002000090087846000041450500000000000000000201709020002001INTERCOMERCIAL SAS                                C000000001700000000000000000000000100010010000000000000000000000F0010000010289600220170902000101 00000000000000000000000000000000000000000000000000000000000000000000000000000000000000000000000000000000000000000N 00000000000NCONT   00    00000000000          00000000000000000000000000000000000000000000 000000000000000A000000000000000000000000000000000000000000000 000000000000000000000000000000000000000     00000000                                                                                                                        000000000000000000
F0010000010289600003000090087846000042505000000000000000000201709020002001INTERCOMERCIAL SAS                                C000000000100000000000000000000000100010010000000000000000000000F0010000010289600320170902000101 00000000000000000000000000000000000000000000000000000000000000000000000000000000000000000000000000000000000000000N 00000000000NCONT   00    00000000000          00000000000000000000000000000000000000000000 000000000000000A000000000000000000000000000000000000000000000 000000000000000000000000000000000000000     00000000                                                                                                                        000000000000000000
F0010000010289600004000090087846000023658300000000000000000201709020002001INTERCOMERCIAL SAS                                C000000000000000000000000000000000100010010000000000000000000000F0010000010289600420170902000101 00000000000000000000000000000000000000000000000000000000000000000000000000000000000000000000000000000000000000000N 00000000000NCONT   00    00000000000          00000000000000000000000000000000000000000000 000000000000000A000000000000000000000000000000000000000000000 000000000000000000000000000000000000000     00000000                                                                                                                        000000000000000000
F0010000010289600005000090087846000013552100000000000000000201709020002001INTERCOMERCIAL SAS                                D000000000000000000000000000000000100010010000000000000000000000F0010000010289600520170902000101 00000000000000000000000000000000000000000000000000000000000000000000000000000000000000000000000000000000000000000N 00000000000NCONT   00    00000000000          00000000000000000000000000000000000000000000 000000000000000A000000000000000000000000000000000000000000000 000000000000000000000000000000000000000     00000000                                                                                                                        000000000000000000
F0010000010289700001000090087846000011050500000000000000000201709020002001INTERCOMERCIAL SAS                                D000000001800000000000000000000000100010010000000000000000000000F0010000010289700120170902000101 00000000000000000000000000000000000000000000000000000000000000000000000000000000000000000000000000000000000000000N 00000000000NCONT   00    00000000000          00000000000000000000000000000000000000000000 000000000000000A000000000000000000000000000000000000000000000 000000000000000000000000000000000000000     00000000                                                                                                                        000000000000000000
F0010000010289700002000090087846000041450500000000000000000201709020002001INTERCOMERCIAL SAS                                C000000001700000000000000000000000100010010000000000000000000000F0010000010289700220170902000101 00000000000000000000000000000000000000000000000000000000000000000000000000000000000000000000000000000000000000000N 00000000000NCONT   00    00000000000          00000000000000000000000000000000000000000000 000000000000000A000000000000000000000000000000000000000000000 000000000000000000000000000000000000000     00000000                                                                                                                        000000000000000000
F0010000010289700003000090087846000042505000000000000000000201709020002001INTERCOMERCIAL SAS                                C000000000100000000000000000000000100010010000000000000000000000F0010000010289700320170902000101 00000000000000000000000000000000000000000000000000000000000000000000000000000000000000000000000000000000000000000N 00000000000NCONT   00    00000000000          00000000000000000000000000000000000000000000 000000000000000A000000000000000000000000000000000000000000000 000000000000000000000000000000000000000     00000000                                                                                                                        000000000000000000
F0010000010289700004000090087846000023658300000000000000000201709020002001INTERCOMERCIAL SAS                                C000000000000000000000000000000000100010010000000000000000000000F0010000010289700420170902000101 00000000000000000000000000000000000000000000000000000000000000000000000000000000000000000000000000000000000000000N 00000000000NCONT   00    00000000000          00000000000000000000000000000000000000000000 000000000000000A000000000000000000000000000000000000000000000 000000000000000000000000000000000000000     00000000                                                                                                                        000000000000000000
F0010000010289700005000090087846000013552100000000000000000201709020002001INTERCOMERCIAL SAS                                D000000000000000000000000000000000100010010000000000000000000000F0010000010289700520170902000101 00000000000000000000000000000000000000000000000000000000000000000000000000000000000000000000000000000000000000000N 00000000000NCONT   00    00000000000          00000000000000000000000000000000000000000000 000000000000000A000000000000000000000000000000000000000000000 000000000000000000000000000000000000000     00000000                                                                                                                        000000000000000000
F0010000010289800001000090087846000011050500000000000000000201709020002001INTERCOMERCIAL SAS                                D000000001600000000000000000000000100010010000000000000000000000F0010000010289800120170902000101 00000000000000000000000000000000000000000000000000000000000000000000000000000000000000000000000000000000000000000N 00000000000NCONT   00    00000000000          00000000000000000000000000000000000000000000 000000000000000A000000000000000000000000000000000000000000000 000000000000000000000000000000000000000     00000000                                                                                                                        000000000000000000
F0010000010289800002000090087846000041450500000000000000000201709020002001INTERCOMERCIAL SAS                                C000000001500000000000000000000000100010010000000000000000000000F0010000010289800220170902000101 00000000000000000000000000000000000000000000000000000000000000000000000000000000000000000000000000000000000000000N 00000000000NCONT   00    00000000000          00000000000000000000000000000000000000000000 000000000000000A000000000000000000000000000000000000000000000 000000000000000000000000000000000000000     00000000                                                                                                                        000000000000000000
F0010000010289800003000090087846000042505000000000000000000201709020002001INTERCOMERCIAL SAS                                C000000000100000000000000000000000100010010000000000000000000000F0010000010289800320170902000101 00000000000000000000000000000000000000000000000000000000000000000000000000000000000000000000000000000000000000000N 00000000000NCONT   00    00000000000          00000000000000000000000000000000000000000000 000000000000000A000000000000000000000000000000000000000000000 000000000000000000000000000000000000000     00000000                                                                                                                        000000000000000000
F0010000010289800004000090087846000023658300000000000000000201709020002001INTERCOMERCIAL SAS                                C000000000000000000000000000000000100010010000000000000000000000F0010000010289800420170902000101 00000000000000000000000000000000000000000000000000000000000000000000000000000000000000000000000000000000000000000N 00000000000NCONT   00    00000000000          00000000000000000000000000000000000000000000 000000000000000A000000000000000000000000000000000000000000000 000000000000000000000000000000000000000     00000000                                                                                                                        000000000000000000
F0010000010289800005000090087846000013552100000000000000000201709020002001INTERCOMERCIAL SAS                                D000000000000000000000000000000000100010010000000000000000000000F0010000010289800520170902000101 00000000000000000000000000000000000000000000000000000000000000000000000000000000000000000000000000000000000000000N 00000000000NCONT   00    00000000000          00000000000000000000000000000000000000000000 000000000000000A000000000000000000000000000000000000000000000 000000000000000000000000000000000000000     00000000                                                                                                                        000000000000000000
F0010000010289900001000002245670100011050500000000000000000201709020002001YOLANDA  TOBON                                    D000000002344000000000000000000000100010010000000000000000000000F0010000010289900120170902000101 00000000000000000000000000000000000000000000000000000000000000000000000000000000000000000000000000000000000000000N 00000000000NCONT   00    00000000000          00000000000000000000000000000000000000000000 000000000000000A000000000000000000000000000000000000000000000 000000000000000000000000000000000000000     00000000                                                                                                                        000000000000000000
F0010000010289900002000002245670100041450500000000000000000201709020002001YOLANDA  TOBON                                    C000000002050000000000000000000000100010010000000000000000000000F0010000010289900220170902000101 00000000000000000000000000000000000000000000000000000000000000000000000000000000000000000000000000000000000000000N 00000000000NCONT   00    00000000000          00000000000000000000000000000000000000000000 000000000000000A000000000000000000000000000000000000000000000 000000000000000000000000000000000000000     00000000                                                                                                                        000000000000000000
F0010000010289900003000002245670100042505000000000000000000201709020002001YOLANDA  TOBON                                    C000000000294000000000000000000000100010010000000000000000000000F0010000010289900320170902000101 00000000000000000000000000000000000000000000000000000000000000000000000000000000000000000000000000000000000000000N 00000000000NCONT   00    00000000000          00000000000000000000000000000000000000000000 000000000000000A000000000000000000000000000000000000000000000 000000000000000000000000000000000000000     00000000                                                                                                                        000000000000000000
F0010000010289900004000002245670100023658300000000000000000201709020002001YOLANDA  TOBON                                    C000000000000000000000000000000000100010010000000000000000000000F0010000010289900420170902000101 00000000000000000000000000000000000000000000000000000000000000000000000000000000000000000000000000000000000000000N 00000000000NCONT   00    00000000000          00000000000000000000000000000000000000000000 000000000000000A000000000000000000000000000000000000000000000 000000000000000000000000000000000000000     00000000                                                                                                                        000000000000000000
F0010000010289900005000002245670100013552100000000000000000201709020002001YOLANDA  TOBON                                    D000000000000000000000000000000000100010010000000000000000000000F0010000010289900520170902000101 00000000000000000000000000000000000000000000000000000000000000000000000000000000000000000000000000000000000000000N 00000000000NCONT   00    00000000000          00000000000000000000000000000000000000000000 000000000000000A000000000000000000000000000000000000000000000 000000000000000000000000000000000000000     00000000                                                                                                                        000000000000000000
F0010000010290000001000007213653800011050500000000000000000201709020002001VICTOR ECHAVEZ                                    D000000004100000000000000000000000100010010000000000000000000000F0010000010290000120170902000101 00000000000000000000000000000000000000000000000000000000000000000000000000000000000000000000000000000000000000000N 00000000000NCONT   00    00000000000          00000000000000000000000000000000000000000000 000000000000000A000000000000000000000000000000000000000000000 000000000000000000000000000000000000000     00000000                                                                                                                        000000000000000000
F0010000010290000002000007213653800041450500000000000000000201709020002001VICTOR ECHAVEZ                                    C000000002600000000000000000000000100010010000000000000000000000F0010000010290000220170902000101 00000000000000000000000000000000000000000000000000000000000000000000000000000000000000000000000000000000000000000N 00000000000NCONT   00    00000000000          00000000000000000000000000000000000000000000 000000000000000A000000000000000000000000000000000000000000000 000000000000000000000000000000000000000     00000000                                                                                                                        000000000000000000
F0010000010290000003000007213653800042505000000000000000000201709020002001VICTOR ECHAVEZ                                    C000000001500000000000000000000000100010010000000000000000000000F0010000010290000320170902000101 00000000000000000000000000000000000000000000000000000000000000000000000000000000000000000000000000000000000000000N 00000000000NCONT   00    00000000000          00000000000000000000000000000000000000000000 000000000000000A000000000000000000000000000000000000000000000 000000000000000000000000000000000000000     00000000                                                                                                                        000000000000000000
F0010000010290000004000007213653800023658300000000000000000201709020002001VICTOR ECHAVEZ                                    C000000000000000000000000000000000100010010000000000000000000000F0010000010290000420170902000101 00000000000000000000000000000000000000000000000000000000000000000000000000000000000000000000000000000000000000000N 00000000000NCONT   00    00000000000          00000000000000000000000000000000000000000000 000000000000000A000000000000000000000000000000000000000000000 000000000000000000000000000000000000000     00000000                                                                                                                        000000000000000000
F0010000010290000005000007213653800013552100000000000000000201709020002001VICTOR ECHAVEZ                                    D000000000000000000000000000000000100010010000000000000000000000F0010000010290000520170902000101 00000000000000000000000000000000000000000000000000000000000000000000000000000000000000000000000000000000000000000N 00000000000NCONT   00    00000000000          00000000000000000000000000000000000000000000 000000000000000A000000000000000000000000000000000000000000000 000000000000000000000000000000000000000     00000000                                                                                                                        000000000000000000
F0010000010290100001000007213653800011050500000000000000000201709020002001VICTOR ECHAVEZ                                    D000000001300000000000000000000000100010010000000000000000000000F0010000010290100120170902000101 00000000000000000000000000000000000000000000000000000000000000000000000000000000000000000000000000000000000000000N 00000000000NCONT   00    00000000000          00000000000000000000000000000000000000000000 000000000000000A000000000000000000000000000000000000000000000 000000000000000000000000000000000000000     00000000                                                                                                                        000000000000000000
F0010000010290100002000007213653800041450500000000000000000201709020002001VICTOR ECHAVEZ                                    C000000001100000000000000000000000100010010000000000000000000000F0010000010290100220170902000101 00000000000000000000000000000000000000000000000000000000000000000000000000000000000000000000000000000000000000000N 00000000000NCONT   00    00000000000          00000000000000000000000000000000000000000000 000000000000000A000000000000000000000000000000000000000000000 000000000000000000000000000000000000000     00000000                                                                                                                        000000000000000000
F0010000010290100003000007213653800042505000000000000000000201709020002001VICTOR ECHAVEZ                                    C000000000200000000000000000000000100010010000000000000000000000F0010000010290100320170902000101 00000000000000000000000000000000000000000000000000000000000000000000000000000000000000000000000000000000000000000N 00000000000NCONT   00    00000000000          00000000000000000000000000000000000000000000 000000000000000A000000000000000000000000000000000000000000000 000000000000000000000000000000000000000     00000000                                                                                                                        000000000000000000
F0010000010290100004000007213653800023658300000000000000000201709020002001VICTOR ECHAVEZ                                    C000000000000000000000000000000000100010010000000000000000000000F0010000010290100420170902000101 00000000000000000000000000000000000000000000000000000000000000000000000000000000000000000000000000000000000000000N 00000000000NCONT   00    00000000000          00000000000000000000000000000000000000000000 000000000000000A000000000000000000000000000000000000000000000 000000000000000000000000000000000000000     00000000                                                                                                                        000000000000000000
F0010000010290100005000007213653800013552100000000000000000201709020002001VICTOR ECHAVEZ                                    D000000000000000000000000000000000100010010000000000000000000000F0010000010290100520170902000101 00000000000000000000000000000000000000000000000000000000000000000000000000000000000000000000000000000000000000000N 00000000000NCONT   00    00000000000          00000000000000000000000000000000000000000000 000000000000000A000000000000000000000000000000000000000000000 000000000000000000000000000000000000000     00000000                                                                                                                        000000000000000000
F0010000010290200001000007213653800011050500000000000000000201709020002001VICTOR ECHAVEZ                                    D000000004300000000000000000000000100010010000000000000000000000F0010000010290200120170902000101 00000000000000000000000000000000000000000000000000000000000000000000000000000000000000000000000000000000000000000N 00000000000NCONT   00    00000000000          00000000000000000000000000000000000000000000 000000000000000A000000000000000000000000000000000000000000000 000000000000000000000000000000000000000     00000000                                                                                                                        000000000000000000
F0010000010290200002000007213653800041450500000000000000000201709020002001VICTOR ECHAVEZ                                    C000000003300000000000000000000000100010010000000000000000000000F0010000010290200220170902000101 00000000000000000000000000000000000000000000000000000000000000000000000000000000000000000000000000000000000000000N 00000000000NCONT   00    00000000000          00000000000000000000000000000000000000000000 000000000000000A000000000000000000000000000000000000000000000 000000000000000000000000000000000000000     00000000                                                                                                                        000000000000000000
F0010000010290200003000007213653800042505000000000000000000201709020002001VICTOR ECHAVEZ                                    C000000001000000000000000000000000100010010000000000000000000000F0010000010290200320170902000101 00000000000000000000000000000000000000000000000000000000000000000000000000000000000000000000000000000000000000000N 00000000000NCONT   00    00000000000          00000000000000000000000000000000000000000000 000000000000000A000000000000000000000000000000000000000000000 000000000000000000000000000000000000000     00000000                                                                                                                        000000000000000000
F0010000010290200004000007213653800023658300000000000000000201709020002001VICTOR ECHAVEZ                                    C000000000000000000000000000000000100010010000000000000000000000F0010000010290200420170902000101 00000000000000000000000000000000000000000000000000000000000000000000000000000000000000000000000000000000000000000N 00000000000NCONT   00    00000000000          00000000000000000000000000000000000000000000 000000000000000A000000000000000000000000000000000000000000000 000000000000000000000000000000000000000     00000000                                                                                                                        000000000000000000
F0010000010290200005000007213653800013552100000000000000000201709020002001VICTOR ECHAVEZ                                    D000000000000000000000000000000000100010010000000000000000000000F0010000010290200520170902000101 00000000000000000000000000000000000000000000000000000000000000000000000000000000000000000000000000000000000000000N 00000000000NCONT   00    00000000000          00000000000000000000000000000000000000000000 000000000000000A000000000000000000000000000000000000000000000 000000000000000000000000000000000000000     00000000                                                                                                                        000000000000000000
F0010000010290300001000007213653800011050500000000000000000201709020002001VICTOR ECHAVEZ                                    D000000008100000000000000000000000100010010000000000000000000000F0010000010290300120170902000101 00000000000000000000000000000000000000000000000000000000000000000000000000000000000000000000000000000000000000000N 00000000000NCONT   00    00000000000          00000000000000000000000000000000000000000000 000000000000000A000000000000000000000000000000000000000000000 000000000000000000000000000000000000000     00000000                                                                                                                        000000000000000000
F0010000010290300002000007213653800041450500000000000000000201709020002001VICTOR ECHAVEZ                                    C000000006500000000000000000000000100010010000000000000000000000F0010000010290300220170902000101 00000000000000000000000000000000000000000000000000000000000000000000000000000000000000000000000000000000000000000N 00000000000NCONT   00    00000000000          00000000000000000000000000000000000000000000 000000000000000A000000000000000000000000000000000000000000000 000000000000000000000000000000000000000     00000000                                                                                                                        000000000000000000
F0010000010290300003000007213653800042505000000000000000000201709020002001VICTOR ECHAVEZ                                    C000000001600000000000000000000000100010010000000000000000000000F0010000010290300320170902000101 00000000000000000000000000000000000000000000000000000000000000000000000000000000000000000000000000000000000000000N 00000000000NCONT   00    00000000000          00000000000000000000000000000000000000000000 000000000000000A000000000000000000000000000000000000000000000 000000000000000000000000000000000000000     00000000                                                                                                                        000000000000000000
F0010000010290300004000007213653800023658300000000000000000201709020002001VICTOR ECHAVEZ                                    C000000000000000000000000000000000100010010000000000000000000000F0010000010290300420170902000101 00000000000000000000000000000000000000000000000000000000000000000000000000000000000000000000000000000000000000000N 00000000000NCONT   00    00000000000          00000000000000000000000000000000000000000000 000000000000000A000000000000000000000000000000000000000000000 000000000000000000000000000000000000000     00000000                                                                                                                        000000000000000000
F0010000010290300005000007213653800013552100000000000000000201709020002001VICTOR ECHAVEZ                                    D000000000000000000000000000000000100010010000000000000000000000F0010000010290300520170902000101 00000000000000000000000000000000000000000000000000000000000000000000000000000000000000000000000000000000000000000N 00000000000NCONT   00    00000000000          00000000000000000000000000000000000000000000 000000000000000A000000000000000000000000000000000000000000000 000000000000000000000000000000000000000     00000000                                                                                                                        000000000000000000
F0010000010290400001000090067091400011050500000000000000000201709020002001COMERCIALIZADORA ESCOBAR ORTIZ                    D000000000872000000000000000000000100010010000000000000000000000F0010000010290400120170902000101 00000000000000000000000000000000000000000000000000000000000000000000000000000000000000000000000000000000000000000N 00000000000NCONT   00    00000000000          00000000000000000000000000000000000000000000 000000000000000A000000000000000000000000000000000000000000000 000000000000000000000000000000000000000     00000000                                                                                                                        000000000000000000
F0010000010290400002000090067091400041450500000000000000000201709020002001COMERCIALIZADORA ESCOBAR ORTIZ                    C000000000350000000000000000000000100010010000000000000000000000F0010000010290400220170902000101 00000000000000000000000000000000000000000000000000000000000000000000000000000000000000000000000000000000000000000N 00000000000NCONT   00    00000000000          00000000000000000000000000000000000000000000 000000000000000A000000000000000000000000000000000000000000000 000000000000000000000000000000000000000     00000000                                                                                                                        000000000000000000
F0010000010290400003000090067091400042505000000000000000000201709020002001COMERCIALIZADORA ESCOBAR ORTIZ                    C000000000522000000000000000000000100010010000000000000000000000F0010000010290400320170902000101 00000000000000000000000000000000000000000000000000000000000000000000000000000000000000000000000000000000000000000N 00000000000NCONT   00    00000000000          00000000000000000000000000000000000000000000 000000000000000A000000000000000000000000000000000000000000000 000000000000000000000000000000000000000     00000000                                                                                                                        000000000000000000
F0010000010290400004000090067091400023658300000000000000000201709020002001COMERCIALIZADORA ESCOBAR ORTIZ                    C000000000000000000000000000000000100010010000000000000000000000F0010000010290400420170902000101 00000000000000000000000000000000000000000000000000000000000000000000000000000000000000000000000000000000000000000N 00000000000NCONT   00    00000000000          00000000000000000000000000000000000000000000 000000000000000A000000000000000000000000000000000000000000000 000000000000000000000000000000000000000     00000000                                                                                                                        000000000000000000
F0010000010290400005000090067091400013552100000000000000000201709020002001COMERCIALIZADORA ESCOBAR ORTIZ                    D000000000000000000000000000000000100010010000000000000000000000F0010000010290400520170902000101 00000000000000000000000000000000000000000000000000000000000000000000000000000000000000000000000000000000000000000N 00000000000NCONT   00    00000000000          00000000000000000000000000000000000000000000 000000000000000A000000000000000000000000000000000000000000000 000000000000000000000000000000000000000     00000000                                                                                                                        000000000000000000
F0010000010290500001000090067091400011050500000000000000000201709020002001COMERCIALIZADORA ESCOBAR ORTIZ                    D000000001680000000000000000000000100010010000000000000000000000F0010000010290500120170902000101 00000000000000000000000000000000000000000000000000000000000000000000000000000000000000000000000000000000000000000N 00000000000NCONT   00    00000000000          00000000000000000000000000000000000000000000 000000000000000A000000000000000000000000000000000000000000000 000000000000000000000000000000000000000     00000000                                                                                                                        000000000000000000
F0010000010290500002000090067091400041450500000000000000000201709020002001COMERCIALIZADORA ESCOBAR ORTIZ                    C000000001100000000000000000000000100010010000000000000000000000F0010000010290500220170902000101 00000000000000000000000000000000000000000000000000000000000000000000000000000000000000000000000000000000000000000N 00000000000NCONT   00    00000000000          00000000000000000000000000000000000000000000 000000000000000A000000000000000000000000000000000000000000000 000000000000000000000000000000000000000     00000000                                                                                                                        000000000000000000
F0010000010290500003000090067091400042505000000000000000000201709020002001COMERCIALIZADORA ESCOBAR ORTIZ                    C000000000580000000000000000000000100010010000000000000000000000F0010000010290500320170902000101 00000000000000000000000000000000000000000000000000000000000000000000000000000000000000000000000000000000000000000N 00000000000NCONT   00    00000000000          00000000000000000000000000000000000000000000 000000000000000A000000000000000000000000000000000000000000000 000000000000000000000000000000000000000     00000000                                                                                                                        000000000000000000
F0010000010290500004000090067091400023658300000000000000000201709020002001COMERCIALIZADORA ESCOBAR ORTIZ                    C000000000000000000000000000000000100010010000000000000000000000F0010000010290500420170902000101 00000000000000000000000000000000000000000000000000000000000000000000000000000000000000000000000000000000000000000N 00000000000NCONT   00    00000000000          00000000000000000000000000000000000000000000 000000000000000A000000000000000000000000000000000000000000000 000000000000000000000000000000000000000     00000000                                                                                                                        000000000000000000
F0010000010290500005000090067091400013552100000000000000000201709020002001COMERCIALIZADORA ESCOBAR ORTIZ                    D000000000000000000000000000000000100010010000000000000000000000F0010000010290500520170902000101 00000000000000000000000000000000000000000000000000000000000000000000000000000000000000000000000000000000000000000N 00000000000NCONT   00    00000000000          00000000000000000000000000000000000000000000 000000000000000A000000000000000000000000000000000000000000000 000000000000000000000000000000000000000     00000000                                                                                                                        000000000000000000
F0010000010290600001000090067091400011050500000000000000000201709020002001COMERCIALIZADORA ESCOBAR ORTIZ                    D000000001868000000000000000000000100010010000000000000000000000F0010000010290600120170902000101 00000000000000000000000000000000000000000000000000000000000000000000000000000000000000000000000000000000000000000N 00000000000NCONT   00    00000000000          00000000000000000000000000000000000000000000 000000000000000A000000000000000000000000000000000000000000000 000000000000000000000000000000000000000     00000000                                                                                                                        000000000000000000
F0010000010290600002000090067091400041450500000000000000000201709020002001COMERCIALIZADORA ESCOBAR ORTIZ                    C000000001100000000000000000000000100010010000000000000000000000F0010000010290600220170902000101 00000000000000000000000000000000000000000000000000000000000000000000000000000000000000000000000000000000000000000N 00000000000NCONT   00    00000000000          00000000000000000000000000000000000000000000 000000000000000A000000000000000000000000000000000000000000000 000000000000000000000000000000000000000     00000000                                                                                                                        000000000000000000
F0010000010290600003000090067091400042505000000000000000000201709020002001COMERCIALIZADORA ESCOBAR ORTIZ                    C000000000768000000000000000000000100010010000000000000000000000F0010000010290600320170902000101 00000000000000000000000000000000000000000000000000000000000000000000000000000000000000000000000000000000000000000N 00000000000NCONT   00    00000000000          00000000000000000000000000000000000000000000 000000000000000A000000000000000000000000000000000000000000000 000000000000000000000000000000000000000     00000000                                                                                                                        000000000000000000
F0010000010290600004000090067091400023658300000000000000000201709020002001COMERCIALIZADORA ESCOBAR ORTIZ                    C000000000000000000000000000000000100010010000000000000000000000F0010000010290600420170902000101 00000000000000000000000000000000000000000000000000000000000000000000000000000000000000000000000000000000000000000N 00000000000NCONT   00    00000000000          00000000000000000000000000000000000000000000 000000000000000A000000000000000000000000000000000000000000000 000000000000000000000000000000000000000     00000000                                                                                                                        000000000000000000
F0010000010290600005000090067091400013552100000000000000000201709020002001COMERCIALIZADORA ESCOBAR ORTIZ                    D000000000000000000000000000000000100010010000000000000000000000F0010000010290600520170902000101 00000000000000000000000000000000000000000000000000000000000000000000000000000000000000000000000000000000000000000N 00000000000NCONT   00    00000000000          00000000000000000000000000000000000000000000 000000000000000A000000000000000000000000000000000000000000000 000000000000000000000000000000000000000     00000000                                                                                                                        000000000000000000
F0010000010290700001000090067091400011050500000000000000000201709020002001COMERCIALIZADORA ESCOBAR ORTIZ                    D000000002223000000000000000000000100010010000000000000000000000F0010000010290700120170902000101 00000000000000000000000000000000000000000000000000000000000000000000000000000000000000000000000000000000000000000N 00000000000NCONT   00    00000000000          00000000000000000000000000000000000000000000 000000000000000A000000000000000000000000000000000000000000000 000000000000000000000000000000000000000     00000000                                                                                                                        000000000000000000
F0010000010290700002000090067091400041450500000000000000000201709020002001COMERCIALIZADORA ESCOBAR ORTIZ                    C000000001500000000000000000000000100010010000000000000000000000F0010000010290700220170902000101 00000000000000000000000000000000000000000000000000000000000000000000000000000000000000000000000000000000000000000N 00000000000NCONT   00    00000000000          00000000000000000000000000000000000000000000 000000000000000A000000000000000000000000000000000000000000000 000000000000000000000000000000000000000     00000000                                                                                                                        000000000000000000
F0010000010290700003000090067091400042505000000000000000000201709020002001COMERCIALIZADORA ESCOBAR ORTIZ                    C000000000723000000000000000000000100010010000000000000000000000F0010000010290700320170902000101 00000000000000000000000000000000000000000000000000000000000000000000000000000000000000000000000000000000000000000N 00000000000NCONT   00    00000000000          00000000000000000000000000000000000000000000 000000000000000A000000000000000000000000000000000000000000000 000000000000000000000000000000000000000     00000000                                                                                                                        000000000000000000
F0010000010290700004000090067091400023658300000000000000000201709020002001COMERCIALIZADORA ESCOBAR ORTIZ                    C000000000000000000000000000000000100010010000000000000000000000F0010000010290700420170902000101 00000000000000000000000000000000000000000000000000000000000000000000000000000000000000000000000000000000000000000N 00000000000NCONT   00    00000000000          00000000000000000000000000000000000000000000 000000000000000A000000000000000000000000000000000000000000000 000000000000000000000000000000000000000     00000000                                                                                                                        000000000000000000
F0010000010290700005000090067091400013552100000000000000000201709020002001COMERCIALIZADORA ESCOBAR ORTIZ                    D000000000000000000000000000000000100010010000000000000000000000F0010000010290700520170902000101 00000000000000000000000000000000000000000000000000000000000000000000000000000000000000000000000000000000000000000N 00000000000NCONT   00    00000000000          00000000000000000000000000000000000000000000 000000000000000A000000000000000000000000000000000000000000000 000000000000000000000000000000000000000     00000000                                                                                                                        000000000000000000
F0010000010290800001000090000859400011050500000000000000000201709020002001COMERCIAL JOTACE LTDA                             D000000003030000000000000000000000100010010000000000000000000000F0010000010290800120170902000101 00000000000000000000000000000000000000000000000000000000000000000000000000000000000000000000000000000000000000000N 00000000000NCONT   00    00000000000          00000000000000000000000000000000000000000000 000000000000000A000000000000000000000000000000000000000000000 000000000000000000000000000000000000000     00000000                                                                                                                        000000000000000000
F0010000010290800002000090000859400041450500000000000000000201709020002001COMERCIAL JOTACE LTDA                             C000000002600000000000000000000000100010010000000000000000000000F0010000010290800220170902000101 00000000000000000000000000000000000000000000000000000000000000000000000000000000000000000000000000000000000000000N 00000000000NCONT   00    00000000000          00000000000000000000000000000000000000000000 000000000000000A000000000000000000000000000000000000000000000 000000000000000000000000000000000000000     00000000                                                                                                                        000000000000000000
F0010000010290800003000090000859400042505000000000000000000201709020002001COMERCIAL JOTACE LTDA                             C000000000430000000000000000000000100010010000000000000000000000F0010000010290800320170902000101 00000000000000000000000000000000000000000000000000000000000000000000000000000000000000000000000000000000000000000N 00000000000NCONT   00    00000000000          00000000000000000000000000000000000000000000 000000000000000A000000000000000000000000000000000000000000000 000000000000000000000000000000000000000     00000000                                                                                                                        000000000000000000
F0010000010290800004000090000859400023658300000000000000000201709020002001COMERCIAL JOTACE LTDA                             C000000000000000000000000000000000100010010000000000000000000000F0010000010290800420170902000101 00000000000000000000000000000000000000000000000000000000000000000000000000000000000000000000000000000000000000000N 00000000000NCONT   00    00000000000          00000000000000000000000000000000000000000000 000000000000000A000000000000000000000000000000000000000000000 000000000000000000000000000000000000000     00000000                                                                                                                        000000000000000000
F0010000010290800005000090000859400013552100000000000000000201709020002001COMERCIAL JOTACE LTDA                             D000000000000000000000000000000000100010010000000000000000000000F0010000010290800520170902000101 00000000000000000000000000000000000000000000000000000000000000000000000000000000000000000000000000000000000000000N 00000000000NCONT   00    00000000000          00000000000000000000000000000000000000000000 000000000000000A000000000000000000000000000000000000000000000 000000000000000000000000000000000000000     00000000                                                                                                                        000000000000000000
F0010000010290900001000090000859400011050500000000000000000201709020002001COMERCIAL JOTACE LTDA                             D000000002013600000000000000000000100010010000000000000000000000F0010000010290900120170902000101 00000000000000000000000000000000000000000000000000000000000000000000000000000000000000000000000000000000000000000N 00000000000NCONT   00    00000000000          00000000000000000000000000000000000000000000 000000000000000A000000000000000000000000000000000000000000000 000000000000000000000000000000000000000     00000000                                                                                                                        000000000000000000
F0010000010290900002000090000859400041450500000000000000000201709020002001COMERCIAL JOTACE LTDA                             C000000001800000000000000000000000100010010000000000000000000000F0010000010290900220170902000101 00000000000000000000000000000000000000000000000000000000000000000000000000000000000000000000000000000000000000000N 00000000000NCONT   00    00000000000          00000000000000000000000000000000000000000000 000000000000000A000000000000000000000000000000000000000000000 000000000000000000000000000000000000000     00000000                                                                                                                        000000000000000000
F0010000010290900003000090000859400042505000000000000000000201709020002001COMERCIAL JOTACE LTDA                             C000000000213600000000000000000000100010010000000000000000000000F0010000010290900320170902000101 00000000000000000000000000000000000000000000000000000000000000000000000000000000000000000000000000000000000000000N 00000000000NCONT   00    00000000000          00000000000000000000000000000000000000000000 000000000000000A000000000000000000000000000000000000000000000 000000000000000000000000000000000000000     00000000                                                                                                                        000000000000000000
F0010000010290900004000090000859400023658300000000000000000201709020002001COMERCIAL JOTACE LTDA                             C000000000000000000000000000000000100010010000000000000000000000F0010000010290900420170902000101 00000000000000000000000000000000000000000000000000000000000000000000000000000000000000000000000000000000000000000N 00000000000NCONT   00    00000000000          00000000000000000000000000000000000000000000 000000000000000A000000000000000000000000000000000000000000000 000000000000000000000000000000000000000     00000000                                                                                                                        000000000000000000
F0010000010290900005000090000859400013552100000000000000000201709020002001COMERCIAL JOTACE LTDA                             D000000000000000000000000000000000100010010000000000000000000000F0010000010290900520170902000101 00000000000000000000000000000000000000000000000000000000000000000000000000000000000000000000000000000000000000000N 00000000000NCONT   00    00000000000          00000000000000000000000000000000000000000000 000000000000000A000000000000000000000000000000000000000000000 000000000000000000000000000000000000000     00000000                                                                                                                        000000000000000000
F0010000010291000001000090000859400011050500000000000000000201709020002001COMERCIAL JOTACE LTDA                             D000000001958900000000000000000000100010010000000000000000000000F0010000010291000120170902000101 00000000000000000000000000000000000000000000000000000000000000000000000000000000000000000000000000000000000000000N 00000000000NCONT   00    00000000000          00000000000000000000000000000000000000000000 000000000000000A000000000000000000000000000000000000000000000 000000000000000000000000000000000000000     00000000                                                                                                                        000000000000000000
F0010000010291000002000090000859400041450500000000000000000201709020002001COMERCIAL JOTACE LTDA                             C000000001800000000000000000000000100010010000000000000000000000F0010000010291000220170902000101 00000000000000000000000000000000000000000000000000000000000000000000000000000000000000000000000000000000000000000N 00000000000NCONT   00    00000000000          00000000000000000000000000000000000000000000 000000000000000A000000000000000000000000000000000000000000000 000000000000000000000000000000000000000     00000000                                                                                                                        000000000000000000
F0010000010291000003000090000859400042505000000000000000000201709020002001COMERCIAL JOTACE LTDA                             C000000000158900000000000000000000100010010000000000000000000000F0010000010291000320170902000101 00000000000000000000000000000000000000000000000000000000000000000000000000000000000000000000000000000000000000000N 00000000000NCONT   00    00000000000          00000000000000000000000000000000000000000000 000000000000000A000000000000000000000000000000000000000000000 000000000000000000000000000000000000000     00000000                                                                                                                        000000000000000000
F0010000010291000004000090000859400023658300000000000000000201709020002001COMERCIAL JOTACE LTDA                             C000000000000000000000000000000000100010010000000000000000000000F0010000010291000420170902000101 00000000000000000000000000000000000000000000000000000000000000000000000000000000000000000000000000000000000000000N 00000000000NCONT   00    00000000000          00000000000000000000000000000000000000000000 000000000000000A000000000000000000000000000000000000000000000 000000000000000000000000000000000000000     00000000                                                                                                                        000000000000000000
F0010000010291000005000090000859400013552100000000000000000201709020002001COMERCIAL JOTACE LTDA                             D000000000000000000000000000000000100010010000000000000000000000F0010000010291000520170902000101 00000000000000000000000000000000000000000000000000000000000000000000000000000000000000000000000000000000000000000N 00000000000NCONT   00    00000000000          00000000000000000000000000000000000000000000 000000000000000A000000000000000000000000000000000000000000000 000000000000000000000000000000000000000     00000000                                                                                                                        000000000000000000
F0010000010291100001000090000859400011050500000000000000000201709020002001COMERCIAL JOTACE LTDA                             D000000001898000000000000000000000100010010000000000000000000000F0010000010291100120170902000101 00000000000000000000000000000000000000000000000000000000000000000000000000000000000000000000000000000000000000000N 00000000000NCONT   00    00000000000          00000000000000000000000000000000000000000000 000000000000000A000000000000000000000000000000000000000000000 000000000000000000000000000000000000000     00000000                                                                                                                        000000000000000000
F0010000010291100002000090000859400041450500000000000000000201709020002001COMERCIAL JOTACE LTDA                             C000000001800000000000000000000000100010010000000000000000000000F0010000010291100220170902000101 00000000000000000000000000000000000000000000000000000000000000000000000000000000000000000000000000000000000000000N 00000000000NCONT   00    00000000000          00000000000000000000000000000000000000000000 000000000000000A000000000000000000000000000000000000000000000 000000000000000000000000000000000000000     00000000                                                                                                                        000000000000000000
F0010000010291100003000090000859400042505000000000000000000201709020002001COMERCIAL JOTACE LTDA                             C000000000098000000000000000000000100010010000000000000000000000F0010000010291100320170902000101 00000000000000000000000000000000000000000000000000000000000000000000000000000000000000000000000000000000000000000N 00000000000NCONT   00    00000000000          00000000000000000000000000000000000000000000 000000000000000A000000000000000000000000000000000000000000000 000000000000000000000000000000000000000     00000000                                                                                                                        000000000000000000
F0010000010291100004000090000859400023658300000000000000000201709020002001COMERCIAL JOTACE LTDA                             C000000000000000000000000000000000100010010000000000000000000000F0010000010291100420170902000101 00000000000000000000000000000000000000000000000000000000000000000000000000000000000000000000000000000000000000000N 00000000000NCONT   00    00000000000          00000000000000000000000000000000000000000000 000000000000000A000000000000000000000000000000000000000000000 000000000000000000000000000000000000000     00000000                                                                                                                        000000000000000000
F0010000010291100005000090000859400013552100000000000000000201709020002001COMERCIAL JOTACE LTDA                             D000000000000000000000000000000000100010010000000000000000000000F0010000010291100520170902000101 00000000000000000000000000000000000000000000000000000000000000000000000000000000000000000000000000000000000000000N 00000000000NCONT   00    00000000000          00000000000000000000000000000000000000000000 000000000000000A000000000000000000000000000000000000000000000 000000000000000000000000000000000000000     00000000                                                                                                                        000000000000000000
F0010000010291200001000090000859400011050500000000000000000201709020002001COMERCIAL JOTACE LTDA                             D000000002023900000000000000000000100010010000000000000000000000F0010000010291200120170902000101 00000000000000000000000000000000000000000000000000000000000000000000000000000000000000000000000000000000000000000N 00000000000NCONT   00    00000000000          00000000000000000000000000000000000000000000 000000000000000A000000000000000000000000000000000000000000000 000000000000000000000000000000000000000     00000000                                                                                                                        000000000000000000
F0010000010291200002000090000859400041450500000000000000000201709020002001COMERCIAL JOTACE LTDA                             C000000002000000000000000000000000100010010000000000000000000000F0010000010291200220170902000101 00000000000000000000000000000000000000000000000000000000000000000000000000000000000000000000000000000000000000000N 00000000000NCONT   00    00000000000          00000000000000000000000000000000000000000000 000000000000000A000000000000000000000000000000000000000000000 000000000000000000000000000000000000000     00000000                                                                                                                        000000000000000000
F0010000010291200003000090000859400042505000000000000000000201709020002001COMERCIAL JOTACE LTDA                             C000000000023900000000000000000000100010010000000000000000000000F0010000010291200320170902000101 00000000000000000000000000000000000000000000000000000000000000000000000000000000000000000000000000000000000000000N 00000000000NCONT   00    00000000000          00000000000000000000000000000000000000000000 000000000000000A000000000000000000000000000000000000000000000 000000000000000000000000000000000000000     00000000                                                                                                                        000000000000000000
F0010000010291200004000090000859400023658300000000000000000201709020002001COMERCIAL JOTACE LTDA                             C000000000000000000000000000000000100010010000000000000000000000F0010000010291200420170902000101 00000000000000000000000000000000000000000000000000000000000000000000000000000000000000000000000000000000000000000N 00000000000NCONT   00    00000000000          00000000000000000000000000000000000000000000 000000000000000A000000000000000000000000000000000000000000000 000000000000000000000000000000000000000     00000000                                                                                                                        000000000000000000
F0010000010291200005000090000859400013552100000000000000000201709020002001COMERCIAL JOTACE LTDA                             D000000000000000000000000000000000100010010000000000000000000000F0010000010291200520170902000101 00000000000000000000000000000000000000000000000000000000000000000000000000000000000000000000000000000000000000000N 00000000000NCONT   00    00000000000          00000000000000000000000000000000000000000000 000000000000000A000000000000000000000000000000000000000000000 000000000000000000000000000000000000000     00000000                                                                                                                        000000000000000000
F0010000010291300001000007136848800011050500000000000000000201709020002001LEON ESTEBAN  HENAO ORTEGA                        D000000002100000000000000000000000100010010000000000000000000000F0010000010291300120170902000101 00000000000000000000000000000000000000000000000000000000000000000000000000000000000000000000000000000000000000000N 00000000000NCONT   00    00000000000          00000000000000000000000000000000000000000000 000000000000000A000000000000000000000000000000000000000000000 000000000000000000000000000000000000000     00000000                                                                                                                        000000000000000000
F0010000010291300002000007136848800041450500000000000000000201709020002001LEON ESTEBAN  HENAO ORTEGA                        C000000001300000000000000000000000100010010000000000000000000000F0010000010291300220170902000101 00000000000000000000000000000000000000000000000000000000000000000000000000000000000000000000000000000000000000000N 00000000000NCONT   00    00000000000          00000000000000000000000000000000000000000000 000000000000000A000000000000000000000000000000000000000000000 000000000000000000000000000000000000000     00000000                                                                                                                        000000000000000000
F0010000010291300003000007136848800042505000000000000000000201709020002001LEON ESTEBAN  HENAO ORTEGA                        C000000000800000000000000000000000100010010000000000000000000000F0010000010291300320170902000101 00000000000000000000000000000000000000000000000000000000000000000000000000000000000000000000000000000000000000000N 00000000000NCONT   00    00000000000          00000000000000000000000000000000000000000000 000000000000000A000000000000000000000000000000000000000000000 000000000000000000000000000000000000000     00000000                                                                                                                        000000000000000000
F0010000010291300004000007136848800023658300000000000000000201709020002001LEON ESTEBAN  HENAO ORTEGA                        C000000000000000000000000000000000100010010000000000000000000000F0010000010291300420170902000101 00000000000000000000000000000000000000000000000000000000000000000000000000000000000000000000000000000000000000000N 00000000000NCONT   00    00000000000          00000000000000000000000000000000000000000000 000000000000000A000000000000000000000000000000000000000000000 000000000000000000000000000000000000000     00000000                                                                                                                        000000000000000000
F0010000010291300005000007136848800013552100000000000000000201709020002001LEON ESTEBAN  HENAO ORTEGA                        D000000000000000000000000000000000100010010000000000000000000000F0010000010291300520170902000101 00000000000000000000000000000000000000000000000000000000000000000000000000000000000000000000000000000000000000000N 00000000000NCONT   00    00000000000          00000000000000000000000000000000000000000000 000000000000000A000000000000000000000000000000000000000000000 000000000000000000000000000000000000000     00000000                                                                                                                        000000000000000000
F0010000010291400001000000746524800011050500000000000000000201709020002001GUILLERMO BURGOS                                  D000000001300000000000000000000000100010010000000000000000000000F0010000010291400120170902000101 00000000000000000000000000000000000000000000000000000000000000000000000000000000000000000000000000000000000000000N 00000000000NCONT   00    00000000000          00000000000000000000000000000000000000000000 000000000000000A000000000000000000000000000000000000000000000 000000000000000000000000000000000000000     00000000                                                                                                                        000000000000000000
F0010000010291400002000000746524800041450500000000000000000201709020002001GUILLERMO BURGOS                                  C000000001200000000000000000000000100010010000000000000000000000F0010000010291400220170902000101 00000000000000000000000000000000000000000000000000000000000000000000000000000000000000000000000000000000000000000N 00000000000NCONT   00    00000000000          00000000000000000000000000000000000000000000 000000000000000A000000000000000000000000000000000000000000000 000000000000000000000000000000000000000     00000000                                                                                                                        000000000000000000
F0010000010291400003000000746524800042505000000000000000000201709020002001GUILLERMO BURGOS                                  C000000000100000000000000000000000100010010000000000000000000000F0010000010291400320170902000101 00000000000000000000000000000000000000000000000000000000000000000000000000000000000000000000000000000000000000000N 00000000000NCONT   00    00000000000          00000000000000000000000000000000000000000000 000000000000000A000000000000000000000000000000000000000000000 000000000000000000000000000000000000000     00000000                                                                                                                        000000000000000000
F0010000010291400004000000746524800023658300000000000000000201709020002001GUILLERMO BURGOS                                  C000000000000000000000000000000000100010010000000000000000000000F0010000010291400420170902000101 00000000000000000000000000000000000000000000000000000000000000000000000000000000000000000000000000000000000000000N 00000000000NCONT   00    00000000000          00000000000000000000000000000000000000000000 000000000000000A000000000000000000000000000000000000000000000 000000000000000000000000000000000000000     00000000                                                                                                                        000000000000000000
F0010000010291400005000000746524800013552100000000000000000201709020002001GUILLERMO BURGOS                                  D000000000000000000000000000000000100010010000000000000000000000F0010000010291400520170902000101 00000000000000000000000000000000000000000000000000000000000000000000000000000000000000000000000000000000000000000N 00000000000NCONT   00    00000000000          00000000000000000000000000000000000000000000 000000000000000A000000000000000000000000000000000000000000000 000000000000000000000000000000000000000     00000000                                                                                                                        000000000000000000
F0010000010291500001000000746524800011050500000000000000000201709020002001GUILLERMO BURGOS                                  D000000001300000000000000000000000100010010000000000000000000000F0010000010291500120170902000101 00000000000000000000000000000000000000000000000000000000000000000000000000000000000000000000000000000000000000000N 00000000000NCONT   00    00000000000          00000000000000000000000000000000000000000000 000000000000000A000000000000000000000000000000000000000000000 000000000000000000000000000000000000000     00000000                                                                                                                        000000000000000000
F0010000010291500002000000746524800041450500000000000000000201709020002001GUILLERMO BURGOS                                  C000000001200000000000000000000000100010010000000000000000000000F0010000010291500220170902000101 00000000000000000000000000000000000000000000000000000000000000000000000000000000000000000000000000000000000000000N 00000000000NCONT   00    00000000000          00000000000000000000000000000000000000000000 000000000000000A000000000000000000000000000000000000000000000 000000000000000000000000000000000000000     00000000                                                                                                                        000000000000000000
