F0010000007939400001000086003365300011050500000000000000000201511250002001IMPOFER                                           D000000011500000000000000000000000100010010000000000000000000000F0010000007939400120151125000101 00000000000000000000000000000000000000000000000000000000000000000000000000000000000000000000000000000000000000000N 00000000000NCONT   00    00000000000          00000000000000000000000000000000000000000000 000000000000000A000000000000000000000000000000000000000000000 000000000000000000000000000000000000000     00000000                                                                                                                        000000000000000000
F0010000007939400002000086003365300041450500000000000000000201511250002001IMPOFER                                           C000000010800000000000000000000000100010010000000000000000000000F0010000007939400220151125000101 00000000000000000000000000000000000000000000000000000000000000000000000000000000000000000000000000000000000000000N 00000000000NCONT   00    00000000000          00000000000000000000000000000000000000000000 000000000000000A000000000000000000000000000000000000000000000 000000000000000000000000000000000000000     00000000                                                                                                                        000000000000000000
F0010000007939400003000086003365300042505000000000000000000201511250002001IMPOFER                                           C000000000700000000000000000000000100010010000000000000000000000F0010000007939400320151125000101 00000000000000000000000000000000000000000000000000000000000000000000000000000000000000000000000000000000000000000N 00000000000NCONT   00    00000000000          00000000000000000000000000000000000000000000 000000000000000A000000000000000000000000000000000000000000000 000000000000000000000000000000000000000     00000000                                                                                                                        000000000000000000
F0010000007939400004000086003365300023658300000000000000000201511250002001IMPOFER                                           C000000000086400000000000000000000100010010000000000000000000000F0010000007939400420151125000101 00000000000000000000000000000000000000000000000000000000000000000000000000000000000000000000000000000000000000000N 00000000000NCONT   00    00000000000          00000000000000000000000000000000000000000000 000000000000000A000000000000000000000000000000000000000000000 000000000000000000000000000000000000000     00000000                                                                                                                        000000000000000000
F0010000007939400005000086003365300013552100000000000000000201511250002001IMPOFER                                           D000000000086400000000000000000000100010010000000000000000000000F0010000007939400520151125000101 00000000000000000000000000000000000000000000000000000000000000000000000000000000000000000000000000000000000000000N 00000000000NCONT   00    00000000000          00000000000000000000000000000000000000000000 000000000000000A000000000000000000000000000000000000000000000 000000000000000000000000000000000000000     00000000                                                                                                                        000000000000000000
F0010000007939500001000089010272700013050500000000000000000201511250002001ALFONSOEME S.A.                                   D000000033413800000000000000000000100010010000000000000000000000F0010000007939500120151125000101 00000000000000000000000000000000000000000000000000000000000000000000000000000000000000000000000000000000000000000N 00000000000NCONT   00    00000000000          00000000000000000000000000000000000000000000 000000000000000A000000000000000000000000000000000000000000000 000000000000000000000000000000000000000     00000000                                                                                                                        000000000000000000
F0010000007939500002000089010272700041450500000000000000000201511250002001ALFONSOEME S.A.                                   C000000034015300000000000000000000100010010000000000000000000000F0010000007939500220151125000101 00000000000000000000000000000000000000000000000000000000000000000000000000000000000000000000000000000000000000000N 00000000000NCONT   00    00000000000          00000000000000000000000000000000000000000000 000000000000000A000000000000000000000000000000000000000000000 000000000000000000000000000000000000000     00000000                                                                                                                        000000000000000000
F0010000007939500003000089010272700041750100000000000000000201511250002001ALFONSOEME S.A.                                   D000000003401500000000000000000000100010010000000000000000000000F0010000007939500320151125000101 00000000000000000000000000000000000000000000000000000000000000000000000000000000000000000000000000000000000000000N 00000000000NCONT   00    00000000000          00000000000000000000000000000000000000000000 000000000000000A000000000000000000000000000000000000000000000 000000000000000000000000000000000000000     00000000                                                                                                                        000000000000000000
F0010000007939500004000089010272700042505000000000000000000201511250002001ALFONSOEME S.A.                                   C000000002800000000000000000000000100010010000000000000000000000F0010000007939500420151125000101 00000000000000000000000000000000000000000000000000000000000000000000000000000000000000000000000000000000000000000N 00000000000NCONT   00    00000000000          00000000000000000000000000000000000000000000 000000000000000A000000000000000000000000000000000000000000000 000000000000000000000000000000000000000     00000000                                                                                                                        000000000000000000
F0010000007939500005000089010272700023658300000000000000000201511250002001ALFONSOEME S.A.                                   C000000000272100000000000000000000100010010000000000000000000000F0010000007939500520151125000101 00000000000000000000000000000000000000000000000000000000000000000000000000000000000000000000000000000000000000000N 00000000000NCONT   00    00000000000          00000000000000000000000000000000000000000000 000000000000000A000000000000000000000000000000000000000000000 000000000000000000000000000000000000000     00000000                                                                                                                        000000000000000000
F0010000007939500006000089010272700013552100000000000000000201511250002001ALFONSOEME S.A.                                   D000000000272100000000000000000000100010010000000000000000000000F0010000007939500620151125000101 00000000000000000000000000000000000000000000000000000000000000000000000000000000000000000000000000000000000000000N 00000000000NCONT   00    00000000000          00000000000000000000000000000000000000000000 000000000000000A000000000000000000000000000000000000000000000 000000000000000000000000000000000000000     00000000                                                                                                                        000000000000000000
F0010000007939600001000089010272700013050500000000000000000201511250002001ALFONSOEME S.A.                                   D000000025603200000000000000000000100010010000000000000000000000F0010000007939600120151125000101 00000000000000000000000000000000000000000000000000000000000000000000000000000000000000000000000000000000000000000N 00000000000NCONT   00    00000000000          00000000000000000000000000000000000000000000 000000000000000A000000000000000000000000000000000000000000000 000000000000000000000000000000000000000     00000000                                                                                                                        000000000000000000
F0010000007939600002000089010272700041450500000000000000000201511250002001ALFONSOEME S.A.                                   C000000025248000000000000000000000100010010000000000000000000000F0010000007939600220151125000101 00000000000000000000000000000000000000000000000000000000000000000000000000000000000000000000000000000000000000000N 00000000000NCONT   00    00000000000          00000000000000000000000000000000000000000000 000000000000000A000000000000000000000000000000000000000000000 000000000000000000000000000000000000000     00000000                                                                                                                        000000000000000000
F0010000007939600003000089010272700041750100000000000000000201511250002001ALFONSOEME S.A.                                   D000000002524800000000000000000000100010010000000000000000000000F0010000007939600320151125000101 00000000000000000000000000000000000000000000000000000000000000000000000000000000000000000000000000000000000000000N 00000000000NCONT   00    00000000000          00000000000000000000000000000000000000000000 000000000000000A000000000000000000000000000000000000000000000 000000000000000000000000000000000000000     00000000                                                                                                                        000000000000000000
F0010000007939600004000089010272700042505000000000000000000201511250002001ALFONSOEME S.A.                                   C000000002880000000000000000000000100010010000000000000000000000F0010000007939600420151125000101 00000000000000000000000000000000000000000000000000000000000000000000000000000000000000000000000000000000000000000N 00000000000NCONT   00    00000000000          00000000000000000000000000000000000000000000 000000000000000A000000000000000000000000000000000000000000000 000000000000000000000000000000000000000     00000000                                                                                                                        000000000000000000
F0010000007939600005000089010272700023658300000000000000000201511250002001ALFONSOEME S.A.                                   C000000000202000000000000000000000100010010000000000000000000000F0010000007939600520151125000101 00000000000000000000000000000000000000000000000000000000000000000000000000000000000000000000000000000000000000000N 00000000000NCONT   00    00000000000          00000000000000000000000000000000000000000000 000000000000000A000000000000000000000000000000000000000000000 000000000000000000000000000000000000000     00000000                                                                                                                        000000000000000000
F0010000007939600006000089010272700013552100000000000000000201511250002001ALFONSOEME S.A.                                   D000000000202000000000000000000000100010010000000000000000000000F0010000007939600620151125000101 00000000000000000000000000000000000000000000000000000000000000000000000000000000000000000000000000000000000000000N 00000000000NCONT   00    00000000000          00000000000000000000000000000000000000000000 000000000000000A000000000000000000000000000000000000000000000 000000000000000000000000000000000000000     00000000                                                                                                                        000000000000000000
F0010000007939700001000089031248700011050500000000000000000201511250002001DISTRIBUIDORA CALIPLASTICOS LTDA                  D000000002050000000000000000000000100010010000000000000000000000F0010000007939700120151125000101 00000000000000000000000000000000000000000000000000000000000000000000000000000000000000000000000000000000000000000N 00000000000NCONT   00    00000000000          00000000000000000000000000000000000000000000 000000000000000A000000000000000000000000000000000000000000000 000000000000000000000000000000000000000     00000000                                                                                                                        000000000000000000
F0010000007939700002000089031248700041450500000000000000000201511250002001DISTRIBUIDORA CALIPLASTICOS LTDA                  C000000001800000000000000000000000100010010000000000000000000000F0010000007939700220151125000101 00000000000000000000000000000000000000000000000000000000000000000000000000000000000000000000000000000000000000000N 00000000000NCONT   00    00000000000          00000000000000000000000000000000000000000000 000000000000000A000000000000000000000000000000000000000000000 000000000000000000000000000000000000000     00000000                                                                                                                        000000000000000000
F0010000007939700003000089031248700042505000000000000000000201511250002001DISTRIBUIDORA CALIPLASTICOS LTDA                  C000000000250000000000000000000000100010010000000000000000000000F0010000007939700320151125000101 00000000000000000000000000000000000000000000000000000000000000000000000000000000000000000000000000000000000000000N 00000000000NCONT   00    00000000000          00000000000000000000000000000000000000000000 000000000000000A000000000000000000000000000000000000000000000 000000000000000000000000000000000000000     00000000                                                                                                                        000000000000000000
F0010000007939700004000089031248700023658300000000000000000201511250002001DISTRIBUIDORA CALIPLASTICOS LTDA                  C000000000014400000000000000000000100010010000000000000000000000F0010000007939700420151125000101 00000000000000000000000000000000000000000000000000000000000000000000000000000000000000000000000000000000000000000N 00000000000NCONT   00    00000000000          00000000000000000000000000000000000000000000 000000000000000A000000000000000000000000000000000000000000000 000000000000000000000000000000000000000     00000000                                                                                                                        000000000000000000
F0010000007939700005000089031248700013552100000000000000000201511250002001DISTRIBUIDORA CALIPLASTICOS LTDA                  D000000000014400000000000000000000100010010000000000000000000000F0010000007939700520151125000101 00000000000000000000000000000000000000000000000000000000000000000000000000000000000000000000000000000000000000000N 00000000000NCONT   00    00000000000          00000000000000000000000000000000000000000000 000000000000000A000000000000000000000000000000000000000000000 000000000000000000000000000000000000000     00000000                                                                                                                        000000000000000000
F0010000007939800001000089010272700013050500000000000000000201511250002001ALFONSOEME S.A.                                   D000000013300000000000000000000000100010010000000000000000000000F0010000007939800120151125000101 00000000000000000000000000000000000000000000000000000000000000000000000000000000000000000000000000000000000000000N 00000000000NCONT   00    00000000000          00000000000000000000000000000000000000000000 000000000000000A000000000000000000000000000000000000000000000 000000000000000000000000000000000000000     00000000                                                                                                                        000000000000000000
F0010000007939800002000089010272700041450500000000000000000201511250002001ALFONSOEME S.A.                                   C000000013800000000000000000000000100010010000000000000000000000F0010000007939800220151125000101 00000000000000000000000000000000000000000000000000000000000000000000000000000000000000000000000000000000000000000N 00000000000NCONT   00    00000000000          00000000000000000000000000000000000000000000 000000000000000A000000000000000000000000000000000000000000000 000000000000000000000000000000000000000     00000000                                                                                                                        000000000000000000
F0010000007939800003000089010272700041750100000000000000000201511250002001ALFONSOEME S.A.                                   D000000001380000000000000000000000100010010000000000000000000000F0010000007939800320151125000101 00000000000000000000000000000000000000000000000000000000000000000000000000000000000000000000000000000000000000000N 00000000000NCONT   00    00000000000          00000000000000000000000000000000000000000000 000000000000000A000000000000000000000000000000000000000000000 000000000000000000000000000000000000000     00000000                                                                                                                        000000000000000000
F0010000007939800004000089010272700042505000000000000000000201511250002001ALFONSOEME S.A.                                   C000000000880000000000000000000000100010010000000000000000000000F0010000007939800420151125000101 00000000000000000000000000000000000000000000000000000000000000000000000000000000000000000000000000000000000000000N 00000000000NCONT   00    00000000000          00000000000000000000000000000000000000000000 000000000000000A000000000000000000000000000000000000000000000 000000000000000000000000000000000000000     00000000                                                                                                                        000000000000000000
F0010000007939800005000089010272700023658300000000000000000201511250002001ALFONSOEME S.A.                                   C000000000110400000000000000000000100010010000000000000000000000F0010000007939800520151125000101 00000000000000000000000000000000000000000000000000000000000000000000000000000000000000000000000000000000000000000N 00000000000NCONT   00    00000000000          00000000000000000000000000000000000000000000 000000000000000A000000000000000000000000000000000000000000000 000000000000000000000000000000000000000     00000000                                                                                                                        000000000000000000
F0010000007939800006000089010272700013552100000000000000000201511250002001ALFONSOEME S.A.                                   D000000000110400000000000000000000100010010000000000000000000000F0010000007939800620151125000101 00000000000000000000000000000000000000000000000000000000000000000000000000000000000000000000000000000000000000000N 00000000000NCONT   00    00000000000          00000000000000000000000000000000000000000000 000000000000000A000000000000000000000000000000000000000000000 000000000000000000000000000000000000000     00000000                                                                                                                        000000000000000000
F0010000007939900001000004175790100013050500000000000000000201511250002001ROSIRIS FERIA HOYOS  (COSM. SHILLER)              D000000014820000000000000000000000100010010000000000000000000000F0010000007939900120151125000101 00000000000000000000000000000000000000000000000000000000000000000000000000000000000000000000000000000000000000000N 00000000000NCONT   00    00000000000          00000000000000000000000000000000000000000000 000000000000000A000000000000000000000000000000000000000000000 000000000000000000000000000000000000000     00000000                                                                                                                        000000000000000000
F0010000007939900002000004175790100041450500000000000000000201511250002001ROSIRIS FERIA HOYOS  (COSM. SHILLER)              C000000012420000000000000000000000100010010000000000000000000000F0010000007939900220151125000101 00000000000000000000000000000000000000000000000000000000000000000000000000000000000000000000000000000000000000000N 00000000000NCONT   00    00000000000          00000000000000000000000000000000000000000000 000000000000000A000000000000000000000000000000000000000000000 000000000000000000000000000000000000000     00000000                                                                                                                        000000000000000000
F0010000007939900003000004175790100042505000000000000000000201511250002001ROSIRIS FERIA HOYOS  (COSM. SHILLER)              C000000002400000000000000000000000100010010000000000000000000000F0010000007939900320151125000101 00000000000000000000000000000000000000000000000000000000000000000000000000000000000000000000000000000000000000000N 00000000000NCONT   00    00000000000          00000000000000000000000000000000000000000000 000000000000000A000000000000000000000000000000000000000000000 000000000000000000000000000000000000000     00000000                                                                                                                        000000000000000000
F0010000007939900004000004175790100023658300000000000000000201511250002001ROSIRIS FERIA HOYOS  (COSM. SHILLER)              C000000000099400000000000000000000100010010000000000000000000000F0010000007939900420151125000101 00000000000000000000000000000000000000000000000000000000000000000000000000000000000000000000000000000000000000000N 00000000000NCONT   00    00000000000          00000000000000000000000000000000000000000000 000000000000000A000000000000000000000000000000000000000000000 000000000000000000000000000000000000000     00000000                                                                                                                        000000000000000000
F0010000007939900005000004175790100013552100000000000000000201511250002001ROSIRIS FERIA HOYOS  (COSM. SHILLER)              D000000000099400000000000000000000100010010000000000000000000000F0010000007939900520151125000101 00000000000000000000000000000000000000000000000000000000000000000000000000000000000000000000000000000000000000000N 00000000000NCONT   00    00000000000          00000000000000000000000000000000000000000000 000000000000000A000000000000000000000000000000000000000000000 000000000000000000000000000000000000000     00000000                                                                                                                        000000000000000000
F0010000007940000001000007215896800013050500000000000000000201511250002001EDDIER CIRO                                       D000000083619800000000000000000000100010010000000000000000000000F0010000007940000120151125000101 00000000000000000000000000000000000000000000000000000000000000000000000000000000000000000000000000000000000000000N 00000000000NCONT   00    00000000000          00000000000000000000000000000000000000000000 000000000000000A000000000000000000000000000000000000000000000 000000000000000000000000000000000000000     00000000                                                                                                                        000000000000000000
F0010000007940000002000007215896800041450500000000000000000201511250002001EDDIER CIRO                                       C000000061160000000000000000000000100010010000000000000000000000F0010000007940000220151125000101 00000000000000000000000000000000000000000000000000000000000000000000000000000000000000000000000000000000000000000N 00000000000NCONT   00    00000000000          00000000000000000000000000000000000000000000 000000000000000A000000000000000000000000000000000000000000000 000000000000000000000000000000000000000     00000000                                                                                                                        000000000000000000
F0010000007940000003000007215896800042505000000000000000000201511250002001EDDIER CIRO                                       C000000022459800000000000000000000100010010000000000000000000000F0010000007940000320151125000101 00000000000000000000000000000000000000000000000000000000000000000000000000000000000000000000000000000000000000000N 00000000000NCONT   00    00000000000          00000000000000000000000000000000000000000000 000000000000000A000000000000000000000000000000000000000000000 000000000000000000000000000000000000000     00000000                                                                                                                        000000000000000000
F0010000007940000004000007215896800023658300000000000000000201511250002001EDDIER CIRO                                       C000000000489300000000000000000000100010010000000000000000000000F0010000007940000420151125000101 00000000000000000000000000000000000000000000000000000000000000000000000000000000000000000000000000000000000000000N 00000000000NCONT   00    00000000000          00000000000000000000000000000000000000000000 000000000000000A000000000000000000000000000000000000000000000 000000000000000000000000000000000000000     00000000                                                                                                                        000000000000000000
F0010000007940000005000007215896800013552100000000000000000201511250002001EDDIER CIRO                                       D000000000489300000000000000000000100010010000000000000000000000F0010000007940000520151125000101 00000000000000000000000000000000000000000000000000000000000000000000000000000000000000000000000000000000000000000N 00000000000NCONT   00    00000000000          00000000000000000000000000000000000000000000 000000000000000A000000000000000000000000000000000000000000000 000000000000000000000000000000000000000     00000000                                                                                                                        000000000000000000
F0010000007940100001000080202132300013050500000000000000000201511250002001SUM Y SERV DE LA COSTA LTDA                       D000000042910000000000000000000000100010010000000000000000000000F0010000007940100120151125000101 00000000000000000000000000000000000000000000000000000000000000000000000000000000000000000000000000000000000000000N 00000000000NCONT   00    00000000000          00000000000000000000000000000000000000000000 000000000000000A000000000000000000000000000000000000000000000 000000000000000000000000000000000000000     00000000                                                                                                                        000000000000000000
F0010000007940100002000080202132300041450500000000000000000201511250002001SUM Y SERV DE LA COSTA LTDA                       C000000040620000000000000000000000100010010000000000000000000000F0010000007940100220151125000101 00000000000000000000000000000000000000000000000000000000000000000000000000000000000000000000000000000000000000000N 00000000000NCONT   00    00000000000          00000000000000000000000000000000000000000000 000000000000000A000000000000000000000000000000000000000000000 000000000000000000000000000000000000000     00000000                                                                                                                        000000000000000000
F0010000007940100003000080202132300042505000000000000000000201511250002001SUM Y SERV DE LA COSTA LTDA                       C000000002290000000000000000000000100010010000000000000000000000F0010000007940100320151125000101 00000000000000000000000000000000000000000000000000000000000000000000000000000000000000000000000000000000000000000N 00000000000NCONT   00    00000000000          00000000000000000000000000000000000000000000 000000000000000A000000000000000000000000000000000000000000000 000000000000000000000000000000000000000     00000000                                                                                                                        000000000000000000
F0010000007940100004000080202132300023658300000000000000000201511250002001SUM Y SERV DE LA COSTA LTDA                       C000000000325000000000000000000000100010010000000000000000000000F0010000007940100420151125000101 00000000000000000000000000000000000000000000000000000000000000000000000000000000000000000000000000000000000000000N 00000000000NCONT   00    00000000000          00000000000000000000000000000000000000000000 000000000000000A000000000000000000000000000000000000000000000 000000000000000000000000000000000000000     00000000                                                                                                                        000000000000000000
F0010000007940100005000080202132300013552100000000000000000201511250002001SUM Y SERV DE LA COSTA LTDA                       D000000000325000000000000000000000100010010000000000000000000000F0010000007940100520151125000101 00000000000000000000000000000000000000000000000000000000000000000000000000000000000000000000000000000000000000000N 00000000000NCONT   00    00000000000          00000000000000000000000000000000000000000000 000000000000000A000000000000000000000000000000000000000000000 000000000000000000000000000000000000000     00000000                                                                                                                        000000000000000000
F0010000007940200001000090020547900011050500000000000000000201511250002001COMERCIALIZADORA DAC DEL CARIBE S.A.S.            D000000000600000000000000000000000100010010000000000000000000000F0010000007940200120151125000101 00000000000000000000000000000000000000000000000000000000000000000000000000000000000000000000000000000000000000000N 00000000000NCONT   00    00000000000          00000000000000000000000000000000000000000000 000000000000000A000000000000000000000000000000000000000000000 000000000000000000000000000000000000000     00000000                                                                                                                        000000000000000000
F0010000007940200002000090020547900041450500000000000000000201511250002001COMERCIALIZADORA DAC DEL CARIBE S.A.S.            C000000000600000000000000000000000100010010000000000000000000000F0010000007940200220151125000101 00000000000000000000000000000000000000000000000000000000000000000000000000000000000000000000000000000000000000000N 00000000000NCONT   00    00000000000          00000000000000000000000000000000000000000000 000000000000000A000000000000000000000000000000000000000000000 000000000000000000000000000000000000000     00000000                                                                                                                        000000000000000000
F0010000007940200003000090020547900042505000000000000000000201511250002001COMERCIALIZADORA DAC DEL CARIBE S.A.S.            C000000000000000000000000000000000100010010000000000000000000000F0010000007940200320151125000101 00000000000000000000000000000000000000000000000000000000000000000000000000000000000000000000000000000000000000000N 00000000000NCONT   00    00000000000          00000000000000000000000000000000000000000000 000000000000000A000000000000000000000000000000000000000000000 000000000000000000000000000000000000000     00000000                                                                                                                        000000000000000000
F0010000007940200004000090020547900023658300000000000000000201511250002001COMERCIALIZADORA DAC DEL CARIBE S.A.S.            C000000000004800000000000000000000100010010000000000000000000000F0010000007940200420151125000101 00000000000000000000000000000000000000000000000000000000000000000000000000000000000000000000000000000000000000000N 00000000000NCONT   00    00000000000          00000000000000000000000000000000000000000000 000000000000000A000000000000000000000000000000000000000000000 000000000000000000000000000000000000000     00000000                                                                                                                        000000000000000000
F0010000007940200005000090020547900013552100000000000000000201511250002001COMERCIALIZADORA DAC DEL CARIBE S.A.S.            D000000000004800000000000000000000100010010000000000000000000000F0010000007940200520151125000101 00000000000000000000000000000000000000000000000000000000000000000000000000000000000000000000000000000000000000000N 00000000000NCONT   00    00000000000          00000000000000000000000000000000000000000000 000000000000000A000000000000000000000000000000000000000000000 000000000000000000000000000000000000000     00000000                                                                                                                        000000000000000000
F0010000007940300001000089011033000011050500000000000000000201511250002001INDUSTRIAS CRUZ & CAÑON LTDA                     D000000005000000000000000000000000100010010000000000000000000000F0010000007940300120151125000101 00000000000000000000000000000000000000000000000000000000000000000000000000000000000000000000000000000000000000000N 00000000000NCONT   00    00000000000          00000000000000000000000000000000000000000000 000000000000000A000000000000000000000000000000000000000000000 000000000000000000000000000000000000000     00000000                                                                                                                        000000000000000000
F0010000007940300002000089011033000041450500000000000000000201511250002001INDUSTRIAS CRUZ & CAÑON LTDA                     C000000004600000000000000000000000100010010000000000000000000000F0010000007940300220151125000101 00000000000000000000000000000000000000000000000000000000000000000000000000000000000000000000000000000000000000000N 00000000000NCONT   00    00000000000          00000000000000000000000000000000000000000000 000000000000000A000000000000000000000000000000000000000000000 000000000000000000000000000000000000000     00000000                                                                                                                        000000000000000000
F0010000007940300003000089011033000042505000000000000000000201511250002001INDUSTRIAS CRUZ & CAÑON LTDA                     C000000000400000000000000000000000100010010000000000000000000000F0010000007940300320151125000101 00000000000000000000000000000000000000000000000000000000000000000000000000000000000000000000000000000000000000000N 00000000000NCONT   00    00000000000          00000000000000000000000000000000000000000000 000000000000000A000000000000000000000000000000000000000000000 000000000000000000000000000000000000000     00000000                                                                                                                        000000000000000000
F0010000007940300004000089011033000023658300000000000000000201511250002001INDUSTRIAS CRUZ & CAÑON LTDA                     C000000000036800000000000000000000100010010000000000000000000000F0010000007940300420151125000101 00000000000000000000000000000000000000000000000000000000000000000000000000000000000000000000000000000000000000000N 00000000000NCONT   00    00000000000          00000000000000000000000000000000000000000000 000000000000000A000000000000000000000000000000000000000000000 000000000000000000000000000000000000000     00000000                                                                                                                        000000000000000000
F0010000007940300005000089011033000013552100000000000000000201511250002001INDUSTRIAS CRUZ & CAÑON LTDA                     D000000000036800000000000000000000100010010000000000000000000000F0010000007940300520151125000101 00000000000000000000000000000000000000000000000000000000000000000000000000000000000000000000000000000000000000000N 00000000000NCONT   00    00000000000          00000000000000000000000000000000000000000000 000000000000000A000000000000000000000000000000000000000000000 000000000000000000000000000000000000000     00000000                                                                                                                        000000000000000000
F0010000007940400001000089031248700013050500000000000000000201511250002001DISTRIBUIDORA CALIPLASTICOS LTDA                  D000000062525400000000000000000000100010010000000000000000000000F0010000007940400120151125000101 00000000000000000000000000000000000000000000000000000000000000000000000000000000000000000000000000000000000000000N 00000000000NCONT   00    00000000000          00000000000000000000000000000000000000000000 000000000000000A000000000000000000000000000000000000000000000 000000000000000000000000000000000000000     00000000                                                                                                                        000000000000000000
F0010000007940400002000089031248700041450500000000000000000201511250002001DISTRIBUIDORA CALIPLASTICOS LTDA                  C000000059580400000000000000000000100010010000000000000000000000F0010000007940400220151125000101 00000000000000000000000000000000000000000000000000000000000000000000000000000000000000000000000000000000000000000N 00000000000NCONT   00    00000000000          00000000000000000000000000000000000000000000 000000000000000A000000000000000000000000000000000000000000000 000000000000000000000000000000000000000     00000000                                                                                                                        000000000000000000
F0010000007940400003000089031248700042505000000000000000000201511250002001DISTRIBUIDORA CALIPLASTICOS LTDA                  C000000002945000000000000000000000100010010000000000000000000000F0010000007940400320151125000101 00000000000000000000000000000000000000000000000000000000000000000000000000000000000000000000000000000000000000000N 00000000000NCONT   00    00000000000          00000000000000000000000000000000000000000000 000000000000000A000000000000000000000000000000000000000000000 000000000000000000000000000000000000000     00000000                                                                                                                        000000000000000000
F0010000007940400004000089031248700023658300000000000000000201511250002001DISTRIBUIDORA CALIPLASTICOS LTDA                  C000000000476600000000000000000000100010010000000000000000000000F0010000007940400420151125000101 00000000000000000000000000000000000000000000000000000000000000000000000000000000000000000000000000000000000000000N 00000000000NCONT   00    00000000000          00000000000000000000000000000000000000000000 000000000000000A000000000000000000000000000000000000000000000 000000000000000000000000000000000000000     00000000                                                                                                                        000000000000000000
F0010000007940400005000089031248700013552100000000000000000201511250002001DISTRIBUIDORA CALIPLASTICOS LTDA                  D000000000476600000000000000000000100010010000000000000000000000F0010000007940400520151125000101 00000000000000000000000000000000000000000000000000000000000000000000000000000000000000000000000000000000000000000N 00000000000NCONT   00    00000000000          00000000000000000000000000000000000000000000 000000000000000A000000000000000000000000000000000000000000000 000000000000000000000000000000000000000     00000000                                                                                                                        000000000000000000
F0010000007940500001000090040631000013050500000000000000000201511250002001BEINEX SAS                                        D000000010755000000000000000000000100010010000000000000000000000F0010000007940500120151125000101 00000000000000000000000000000000000000000000000000000000000000000000000000000000000000000000000000000000000000000N 00000000000NCONT   00    00000000000          00000000000000000000000000000000000000000000 000000000000000A000000000000000000000000000000000000000000000 000000000000000000000000000000000000000     00000000                                                                                                                        000000000000000000
F0010000007940500002000090040631000041450500000000000000000201511250002001BEINEX SAS                                        C000000008300000000000000000000000100010010000000000000000000000F0010000007940500220151125000101 00000000000000000000000000000000000000000000000000000000000000000000000000000000000000000000000000000000000000000N 00000000000NCONT   00    00000000000          00000000000000000000000000000000000000000000 000000000000000A000000000000000000000000000000000000000000000 000000000000000000000000000000000000000     00000000                                                                                                                        000000000000000000
F0010000007940500003000090040631000042505000000000000000000201511250002001BEINEX SAS                                        C000000002455000000000000000000000100010010000000000000000000000F0010000007940500320151125000101 00000000000000000000000000000000000000000000000000000000000000000000000000000000000000000000000000000000000000000N 00000000000NCONT   00    00000000000          00000000000000000000000000000000000000000000 000000000000000A000000000000000000000000000000000000000000000 000000000000000000000000000000000000000     00000000                                                                                                                        000000000000000000
F0010000007940500004000090040631000023658300000000000000000201511250002001BEINEX SAS                                        C000000000066400000000000000000000100010010000000000000000000000F0010000007940500420151125000101 00000000000000000000000000000000000000000000000000000000000000000000000000000000000000000000000000000000000000000N 00000000000NCONT   00    00000000000          00000000000000000000000000000000000000000000 000000000000000A000000000000000000000000000000000000000000000 000000000000000000000000000000000000000     00000000                                                                                                                        000000000000000000
F0010000007940500005000090040631000013552100000000000000000201511250002001BEINEX SAS                                        D000000000066400000000000000000000100010010000000000000000000000F0010000007940500520151125000101 00000000000000000000000000000000000000000000000000000000000000000000000000000000000000000000000000000000000000000N 00000000000NCONT   00    00000000000          00000000000000000000000000000000000000000000 000000000000000A000000000000000000000000000000000000000000000 000000000000000000000000000000000000000     00000000                                                                                                                        000000000000000000
F0010000007940600001000080200962900013050500000000000000000201511250002001ACERO & MALLAS S.A.S.                             D000000028284200000000000000000000100010010000000000000000000000F0010000007940600120151125000101 00000000000000000000000000000000000000000000000000000000000000000000000000000000000000000000000000000000000000000N 00000000000NCONT   00    00000000000          00000000000000000000000000000000000000000000 000000000000000A000000000000000000000000000000000000000000000 000000000000000000000000000000000000000     00000000                                                                                                                        000000000000000000
F0010000007940600002000080200962900041450500000000000000000201511250002001ACERO & MALLAS S.A.S.                             C000000026464200000000000000000000100010010000000000000000000000F0010000007940600220151125000101 00000000000000000000000000000000000000000000000000000000000000000000000000000000000000000000000000000000000000000N 00000000000NCONT   00    00000000000          00000000000000000000000000000000000000000000 000000000000000A000000000000000000000000000000000000000000000 000000000000000000000000000000000000000     00000000                                                                                                                        000000000000000000
F0010000007940600003000080200962900042505000000000000000000201511250002001ACERO & MALLAS S.A.S.                             C000000001820000000000000000000000100010010000000000000000000000F0010000007940600320151125000101 00000000000000000000000000000000000000000000000000000000000000000000000000000000000000000000000000000000000000000N 00000000000NCONT   00    00000000000          00000000000000000000000000000000000000000000 000000000000000A000000000000000000000000000000000000000000000 000000000000000000000000000000000000000     00000000                                                                                                                        000000000000000000
F0010000007940600004000080200962900023658300000000000000000201511250002001ACERO & MALLAS S.A.S.                             C000000000211700000000000000000000100010010000000000000000000000F0010000007940600420151125000101 00000000000000000000000000000000000000000000000000000000000000000000000000000000000000000000000000000000000000000N 00000000000NCONT   00    00000000000          00000000000000000000000000000000000000000000 000000000000000A000000000000000000000000000000000000000000000 000000000000000000000000000000000000000     00000000                                                                                                                        000000000000000000
F0010000007940600005000080200962900013552100000000000000000201511250002001ACERO & MALLAS S.A.S.                             D000000000211700000000000000000000100010010000000000000000000000F0010000007940600520151125000101 00000000000000000000000000000000000000000000000000000000000000000000000000000000000000000000000000000000000000000N 00000000000NCONT   00    00000000000          00000000000000000000000000000000000000000000 000000000000000A000000000000000000000000000000000000000000000 000000000000000000000000000000000000000     00000000                                                                                                                        000000000000000000
F0010000007940700001000090036991700013050500000000000000000201511250002001DELTA INTERNACIONAL  S.A.S                        D000000005000000000000000000000000100010010000000000000000000000F0010000007940700120151125000101 00000000000000000000000000000000000000000000000000000000000000000000000000000000000000000000000000000000000000000N 00000000000NCONT   00    00000000000          00000000000000000000000000000000000000000000 000000000000000A000000000000000000000000000000000000000000000 000000000000000000000000000000000000000     00000000                                                                                                                        000000000000000000
F0010000007940700002000090036991700041450500000000000000000201511250002001DELTA INTERNACIONAL  S.A.S                        C000000004500000000000000000000000100010010000000000000000000000F0010000007940700220151125000101 00000000000000000000000000000000000000000000000000000000000000000000000000000000000000000000000000000000000000000N 00000000000NCONT   00    00000000000          00000000000000000000000000000000000000000000 000000000000000A000000000000000000000000000000000000000000000 000000000000000000000000000000000000000     00000000                                                                                                                        000000000000000000
F0010000007940700003000090036991700042505000000000000000000201511250002001DELTA INTERNACIONAL  S.A.S                        C000000000500000000000000000000000100010010000000000000000000000F0010000007940700320151125000101 00000000000000000000000000000000000000000000000000000000000000000000000000000000000000000000000000000000000000000N 00000000000NCONT   00    00000000000          00000000000000000000000000000000000000000000 000000000000000A000000000000000000000000000000000000000000000 000000000000000000000000000000000000000     00000000                                                                                                                        000000000000000000
F0010000007940700004000090036991700023658300000000000000000201511250002001DELTA INTERNACIONAL  S.A.S                        C000000000036000000000000000000000100010010000000000000000000000F0010000007940700420151125000101 00000000000000000000000000000000000000000000000000000000000000000000000000000000000000000000000000000000000000000N 00000000000NCONT   00    00000000000          00000000000000000000000000000000000000000000 000000000000000A000000000000000000000000000000000000000000000 000000000000000000000000000000000000000     00000000                                                                                                                        000000000000000000
F0010000007940700005000090036991700013552100000000000000000201511250002001DELTA INTERNACIONAL  S.A.S                        D000000000036000000000000000000000100010010000000000000000000000F0010000007940700520151125000101 00000000000000000000000000000000000000000000000000000000000000000000000000000000000000000000000000000000000000000N 00000000000NCONT   00    00000000000          00000000000000000000000000000000000000000000 000000000000000A000000000000000000000000000000000000000000000 000000000000000000000000000000000000000     00000000                                                                                                                        000000000000000000
F0010000007940800001000080201492700013050500000000000000000201511250002001ASOVITER URBANIZACION LUNA DEL RIO II             D000000026000000000000000000000000100010010000000000000000000000F0010000007940800120151125000101 00000000000000000000000000000000000000000000000000000000000000000000000000000000000000000000000000000000000000000N 00000000000NCONT   00    00000000000          00000000000000000000000000000000000000000000 000000000000000A000000000000000000000000000000000000000000000 000000000000000000000000000000000000000     00000000                                                                                                                        000000000000000000
F0010000007940800002000080201492700041450500000000000000000201511250002001ASOVITER URBANIZACION LUNA DEL RIO II             C000000022500000000000000000000000100010010000000000000000000000F0010000007940800220151125000101 00000000000000000000000000000000000000000000000000000000000000000000000000000000000000000000000000000000000000000N 00000000000NCONT   00    00000000000          00000000000000000000000000000000000000000000 000000000000000A000000000000000000000000000000000000000000000 000000000000000000000000000000000000000     00000000                                                                                                                        000000000000000000
F0010000007940800003000080201492700042505000000000000000000201511250002001ASOVITER URBANIZACION LUNA DEL RIO II             C000000003500000000000000000000000100010010000000000000000000000F0010000007940800320151125000101 00000000000000000000000000000000000000000000000000000000000000000000000000000000000000000000000000000000000000000N 00000000000NCONT   00    00000000000          00000000000000000000000000000000000000000000 000000000000000A000000000000000000000000000000000000000000000 000000000000000000000000000000000000000     00000000                                                                                                                        000000000000000000
F0010000007940800004000080201492700023658300000000000000000201511250002001ASOVITER URBANIZACION LUNA DEL RIO II             C000000000180000000000000000000000100010010000000000000000000000F0010000007940800420151125000101 00000000000000000000000000000000000000000000000000000000000000000000000000000000000000000000000000000000000000000N 00000000000NCONT   00    00000000000          00000000000000000000000000000000000000000000 000000000000000A000000000000000000000000000000000000000000000 000000000000000000000000000000000000000     00000000                                                                                                                        000000000000000000
F0010000007940800005000080201492700013552100000000000000000201511250002001ASOVITER URBANIZACION LUNA DEL RIO II             D000000000180000000000000000000000100010010000000000000000000000F0010000007940800520151125000101 00000000000000000000000000000000000000000000000000000000000000000000000000000000000000000000000000000000000000000N 00000000000NCONT   00    00000000000          00000000000000000000000000000000000000000000 000000000000000A000000000000000000000000000000000000000000000 000000000000000000000000000000000000000     00000000                                                                                                                        000000000000000000
F0010000007940900001000090050863700013050500000000000000000201511250002001COMERCIALIZADORA PERFECT SAS                      D000000010725000000000000000000000100010010000000000000000000000F0010000007940900120151125000101 00000000000000000000000000000000000000000000000000000000000000000000000000000000000000000000000000000000000000000N 00000000000NCONT   00    00000000000          00000000000000000000000000000000000000000000 000000000000000A000000000000000000000000000000000000000000000 000000000000000000000000000000000000000     00000000                                                                                                                        000000000000000000
F0010000007940900002000090050863700041450500000000000000000201511250002001COMERCIALIZADORA PERFECT SAS                      C000000006850000000000000000000000100010010000000000000000000000F0010000007940900220151125000101 00000000000000000000000000000000000000000000000000000000000000000000000000000000000000000000000000000000000000000N 00000000000NCONT   00    00000000000          00000000000000000000000000000000000000000000 000000000000000A000000000000000000000000000000000000000000000 000000000000000000000000000000000000000     00000000                                                                                                                        000000000000000000
F0010000007940900003000090050863700042505000000000000000000201511250002001COMERCIALIZADORA PERFECT SAS                      C000000003875000000000000000000000100010010000000000000000000000F0010000007940900320151125000101 00000000000000000000000000000000000000000000000000000000000000000000000000000000000000000000000000000000000000000N 00000000000NCONT   00    00000000000          00000000000000000000000000000000000000000000 000000000000000A000000000000000000000000000000000000000000000 000000000000000000000000000000000000000     00000000                                                                                                                        000000000000000000
F0010000007940900004000090050863700023658300000000000000000201511250002001COMERCIALIZADORA PERFECT SAS                      C000000000054800000000000000000000100010010000000000000000000000F0010000007940900420151125000101 00000000000000000000000000000000000000000000000000000000000000000000000000000000000000000000000000000000000000000N 00000000000NCONT   00    00000000000          00000000000000000000000000000000000000000000 000000000000000A000000000000000000000000000000000000000000000 000000000000000000000000000000000000000     00000000                                                                                                                        000000000000000000
F0010000007940900005000090050863700013552100000000000000000201511250002001COMERCIALIZADORA PERFECT SAS                      D000000000054800000000000000000000100010010000000000000000000000F0010000007940900520151125000101 00000000000000000000000000000000000000000000000000000000000000000000000000000000000000000000000000000000000000000N 00000000000NCONT   00    00000000000          00000000000000000000000000000000000000000000 000000000000000A000000000000000000000000000000000000000000000 000000000000000000000000000000000000000     00000000                                                                                                                        000000000000000000
F0010000007941000001000089011719700013050500000000000000000201511250002001REP. MUNERA GALARZA LTDA (FRANCISCO MUNERA)       D000000004865000000000000000000000100010010000000000000000000000F0010000007941000120151125000101 00000000000000000000000000000000000000000000000000000000000000000000000000000000000000000000000000000000000000000N 00000000000NCONT   00    00000000000          00000000000000000000000000000000000000000000 000000000000000A000000000000000000000000000000000000000000000 000000000000000000000000000000000000000     00000000                                                                                                                        000000000000000000
F0010000007941000002000089011719700041450500000000000000000201511250002001REP. MUNERA GALARZA LTDA (FRANCISCO MUNERA)       C000000003730000000000000000000000100010010000000000000000000000F0010000007941000220151125000101 00000000000000000000000000000000000000000000000000000000000000000000000000000000000000000000000000000000000000000N 00000000000NCONT   00    00000000000          00000000000000000000000000000000000000000000 000000000000000A000000000000000000000000000000000000000000000 000000000000000000000000000000000000000     00000000                                                                                                                        000000000000000000
F0010000007941000003000089011719700042505000000000000000000201511250002001REP. MUNERA GALARZA LTDA (FRANCISCO MUNERA)       C000000001135000000000000000000000100010010000000000000000000000F0010000007941000320151125000101 00000000000000000000000000000000000000000000000000000000000000000000000000000000000000000000000000000000000000000N 00000000000NCONT   00    00000000000          00000000000000000000000000000000000000000000 000000000000000A000000000000000000000000000000000000000000000 000000000000000000000000000000000000000     00000000                                                                                                                        000000000000000000
F0010000007941000004000089011719700023658300000000000000000201511250002001REP. MUNERA GALARZA LTDA (FRANCISCO MUNERA)       C000000000029800000000000000000000100010010000000000000000000000F0010000007941000420151125000101 00000000000000000000000000000000000000000000000000000000000000000000000000000000000000000000000000000000000000000N 00000000000NCONT   00    00000000000          00000000000000000000000000000000000000000000 000000000000000A000000000000000000000000000000000000000000000 000000000000000000000000000000000000000     00000000                                                                                                                        000000000000000000
F0010000007941000005000089011719700013552100000000000000000201511250002001REP. MUNERA GALARZA LTDA (FRANCISCO MUNERA)       D000000000029800000000000000000000100010010000000000000000000000F0010000007941000520151125000101 00000000000000000000000000000000000000000000000000000000000000000000000000000000000000000000000000000000000000000N 00000000000NCONT   00    00000000000          00000000000000000000000000000000000000000000 000000000000000A000000000000000000000000000000000000000000000 000000000000000000000000000000000000000     00000000                                                                                                                        000000000000000000
F0010000007941100001000090010880700013050500000000000000000201511250002001PROELECTRICAS DE BARRANQUILLA LTDA                D000000002790000000000000000000000100010010000000000000000000000F0010000007941100120151125000101 00000000000000000000000000000000000000000000000000000000000000000000000000000000000000000000000000000000000000000N 00000000000NCONT   00    00000000000          00000000000000000000000000000000000000000000 000000000000000A000000000000000000000000000000000000000000000 000000000000000000000000000000000000000     00000000                                                                                                                        000000000000000000
F0010000007941100002000090010880700041450500000000000000000201511250002001PROELECTRICAS DE BARRANQUILLA LTDA                C000000002640000000000000000000000100010010000000000000000000000F0010000007941100220151125000101 00000000000000000000000000000000000000000000000000000000000000000000000000000000000000000000000000000000000000000N 00000000000NCONT   00    00000000000          00000000000000000000000000000000000000000000 000000000000000A000000000000000000000000000000000000000000000 000000000000000000000000000000000000000     00000000                                                                                                                        000000000000000000
F0010000007941100003000090010880700042505000000000000000000201511250002001PROELECTRICAS DE BARRANQUILLA LTDA                C000000000150000000000000000000000100010010000000000000000000000F0010000007941100320151125000101 00000000000000000000000000000000000000000000000000000000000000000000000000000000000000000000000000000000000000000N 00000000000NCONT   00    00000000000          00000000000000000000000000000000000000000000 000000000000000A000000000000000000000000000000000000000000000 000000000000000000000000000000000000000     00000000                                                                                                                        000000000000000000
F0010000007941100004000090010880700023658300000000000000000201511250002001PROELECTRICAS DE BARRANQUILLA LTDA                C000000000021100000000000000000000100010010000000000000000000000F0010000007941100420151125000101 00000000000000000000000000000000000000000000000000000000000000000000000000000000000000000000000000000000000000000N 00000000000NCONT   00    00000000000          00000000000000000000000000000000000000000000 000000000000000A000000000000000000000000000000000000000000000 000000000000000000000000000000000000000     00000000                                                                                                                        000000000000000000
F0010000007941100005000090010880700013552100000000000000000201511250002001PROELECTRICAS DE BARRANQUILLA LTDA                D000000000021100000000000000000000100010010000000000000000000000F0010000007941100520151125000101 00000000000000000000000000000000000000000000000000000000000000000000000000000000000000000000000000000000000000000N 00000000000NCONT   00    00000000000          00000000000000000000000000000000000000000000 000000000000000A000000000000000000000000000000000000000000000 000000000000000000000000000000000000000     00000000                                                                                                                        000000000000000000
F0010000007941200001000080201127600013050500000000000000000201511250002001ELECTRICOS DEL RUIZ S.A.S.                        D000000015713700000000000000000000100010010000000000000000000000F0010000007941200120151125000101 00000000000000000000000000000000000000000000000000000000000000000000000000000000000000000000000000000000000000000N 00000000000NCONT   00    00000000000          00000000000000000000000000000000000000000000 000000000000000A000000000000000000000000000000000000000000000 000000000000000000000000000000000000000     00000000                                                                                                                        000000000000000000
F0010000007941200002000080201127600041450500000000000000000201511250002001ELECTRICOS DEL RUIZ S.A.S.                        C000000010280000000000000000000000100010010000000000000000000000F0010000007941200220151125000101 00000000000000000000000000000000000000000000000000000000000000000000000000000000000000000000000000000000000000000N 00000000000NCONT   00    00000000000          00000000000000000000000000000000000000000000 000000000000000A000000000000000000000000000000000000000000000 000000000000000000000000000000000000000     00000000                                                                                                                        000000000000000000
F0010000007941200003000080201127600042505000000000000000000201511250002001ELECTRICOS DEL RUIZ S.A.S.                        C000000005433700000000000000000000100010010000000000000000000000F0010000007941200320151125000101 00000000000000000000000000000000000000000000000000000000000000000000000000000000000000000000000000000000000000000N 00000000000NCONT   00    00000000000          00000000000000000000000000000000000000000000 000000000000000A000000000000000000000000000000000000000000000 000000000000000000000000000000000000000     00000000                                                                                                                        000000000000000000
F0010000007941200004000080201127600023658300000000000000000201511250002001ELECTRICOS DEL RUIZ S.A.S.                        C000000000082200000000000000000000100010010000000000000000000000F0010000007941200420151125000101 00000000000000000000000000000000000000000000000000000000000000000000000000000000000000000000000000000000000000000N 00000000000NCONT   00    00000000000          00000000000000000000000000000000000000000000 000000000000000A000000000000000000000000000000000000000000000 000000000000000000000000000000000000000     00000000                                                                                                                        000000000000000000
F0010000007941200005000080201127600013552100000000000000000201511250002001ELECTRICOS DEL RUIZ S.A.S.                        D000000000082200000000000000000000100010010000000000000000000000F0010000007941200520151125000101 00000000000000000000000000000000000000000000000000000000000000000000000000000000000000000000000000000000000000000N 00000000000NCONT   00    00000000000          00000000000000000000000000000000000000000000 000000000000000A000000000000000000000000000000000000000000000 000000000000000000000000000000000000000     00000000                                                                                                                        000000000000000000
F0010000007941300001000090001973700013050500000000000000000201511250002001DISTRIBUIDORA Y PAPELERIA VENEPLAS LTDA           D000000014550000000000000000000000100010010000000000000000000000F0010000007941300120151125000101 00000000000000000000000000000000000000000000000000000000000000000000000000000000000000000000000000000000000000000N 00000000000NCONT   00    00000000000          00000000000000000000000000000000000000000000 000000000000000A000000000000000000000000000000000000000000000 000000000000000000000000000000000000000     00000000                                                                                                                        000000000000000000
F0010000007941300002000090001973700041450500000000000000000201511250002001DISTRIBUIDORA Y PAPELERIA VENEPLAS LTDA           C000000014000000000000000000000000100010010000000000000000000000F0010000007941300220151125000101 00000000000000000000000000000000000000000000000000000000000000000000000000000000000000000000000000000000000000000N 00000000000NCONT   00    00000000000          00000000000000000000000000000000000000000000 000000000000000A000000000000000000000000000000000000000000000 000000000000000000000000000000000000000     00000000                                                                                                                        000000000000000000
F0010000007941300003000090001973700042505000000000000000000201511250002001DISTRIBUIDORA Y PAPELERIA VENEPLAS LTDA           C000000000550000000000000000000000100010010000000000000000000000F0010000007941300320151125000101 00000000000000000000000000000000000000000000000000000000000000000000000000000000000000000000000000000000000000000N 00000000000NCONT   00    00000000000          00000000000000000000000000000000000000000000 000000000000000A000000000000000000000000000000000000000000000 000000000000000000000000000000000000000     00000000                                                                                                                        000000000000000000
F0010000007941300004000090001973700023658300000000000000000201511250002001DISTRIBUIDORA Y PAPELERIA VENEPLAS LTDA           C000000000112000000000000000000000100010010000000000000000000000F0010000007941300420151125000101 00000000000000000000000000000000000000000000000000000000000000000000000000000000000000000000000000000000000000000N 00000000000NCONT   00    00000000000          00000000000000000000000000000000000000000000 000000000000000A000000000000000000000000000000000000000000000 000000000000000000000000000000000000000     00000000                                                                                                                        000000000000000000
F0010000007941300005000090001973700013552100000000000000000201511250002001DISTRIBUIDORA Y PAPELERIA VENEPLAS LTDA           D000000000112000000000000000000000100010010000000000000000000000F0010000007941300520151125000101 00000000000000000000000000000000000000000000000000000000000000000000000000000000000000000000000000000000000000000N 00000000000NCONT   00    00000000000          00000000000000000000000000000000000000000000 000000000000000A000000000000000000000000000000000000000000000 000000000000000000000000000000000000000     00000000                                                                                                                        000000000000000000
F0010000007941400001000007215902600013050500000000000000000201511250002001KRISS LORENA BLANCO  (BANTEX)                     D000000012580000000000000000000000100010010000000000000000000000F0010000007941400120151125000101 00000000000000000000000000000000000000000000000000000000000000000000000000000000000000000000000000000000000000000N 00000000000NCONT   00    00000000000          00000000000000000000000000000000000000000000 000000000000000A000000000000000000000000000000000000000000000 000000000000000000000000000000000000000     00000000                                                                                                                        000000000000000000
F0010000007941400002000007215902600041450500000000000000000201511250002001KRISS LORENA BLANCO  (BANTEX)                     C000000010180000000000000000000000100010010000000000000000000000F0010000007941400220151125000101 00000000000000000000000000000000000000000000000000000000000000000000000000000000000000000000000000000000000000000N 00000000000NCONT   00    00000000000          00000000000000000000000000000000000000000000 000000000000000A000000000000000000000000000000000000000000000 000000000000000000000000000000000000000     00000000                                                                                                                        000000000000000000
F0010000007941400003000007215902600042505000000000000000000201511250002001KRISS LORENA BLANCO  (BANTEX)                     C000000002400000000000000000000000100010010000000000000000000000F0010000007941400320151125000101 00000000000000000000000000000000000000000000000000000000000000000000000000000000000000000000000000000000000000000N 00000000000NCONT   00    00000000000          00000000000000000000000000000000000000000000 000000000000000A000000000000000000000000000000000000000000000 000000000000000000000000000000000000000     00000000                                                                                                                        000000000000000000
F0010000007941400004000007215902600023658300000000000000000201511250002001KRISS LORENA BLANCO  (BANTEX)                     C000000000081400000000000000000000100010010000000000000000000000F0010000007941400420151125000101 00000000000000000000000000000000000000000000000000000000000000000000000000000000000000000000000000000000000000000N 00000000000NCONT   00    00000000000          00000000000000000000000000000000000000000000 000000000000000A000000000000000000000000000000000000000000000 000000000000000000000000000000000000000     00000000                                                                                                                        000000000000000000
F0010000007941400005000007215902600013552100000000000000000201511250002001KRISS LORENA BLANCO  (BANTEX)                     D000000000081400000000000000000000100010010000000000000000000000F0010000007941400520151125000101 00000000000000000000000000000000000000000000000000000000000000000000000000000000000000000000000000000000000000000N 00000000000NCONT   00    00000000000          00000000000000000000000000000000000000000000 000000000000000A000000000000000000000000000000000000000000000 000000000000000000000000000000000000000     00000000                                                                                                                        000000000000000000
F0010000007941500001000086003979400013050500000000000000000201511250002001CALYPSO BARRANQUILLA LTDA                         D000000042807900000000000000000000100010010000000000000000000000F0010000007941500120151125000101 00000000000000000000000000000000000000000000000000000000000000000000000000000000000000000000000000000000000000000N 00000000000NCONT   00    00000000000          00000000000000000000000000000000000000000000 000000000000000A000000000000000000000000000000000000000000000 000000000000000000000000000000000000000     00000000                                                                                                                        000000000000000000
F0010000007941500002000086003979400041450500000000000000000201511250002001CALYPSO BARRANQUILLA LTDA                         C000000040120000000000000000000000100010010000000000000000000000F0010000007941500220151125000101 00000000000000000000000000000000000000000000000000000000000000000000000000000000000000000000000000000000000000000N 00000000000NCONT   00    00000000000          00000000000000000000000000000000000000000000 000000000000000A000000000000000000000000000000000000000000000 000000000000000000000000000000000000000     00000000                                                                                                                        000000000000000000
F0010000007941500003000086003979400042505000000000000000000201511250002001CALYPSO BARRANQUILLA LTDA                         C000000002687900000000000000000000100010010000000000000000000000F0010000007941500320151125000101 00000000000000000000000000000000000000000000000000000000000000000000000000000000000000000000000000000000000000000N 00000000000NCONT   00    00000000000          00000000000000000000000000000000000000000000 000000000000000A000000000000000000000000000000000000000000000 000000000000000000000000000000000000000     00000000                                                                                                                        000000000000000000
F0010000007941500004000086003979400023658300000000000000000201511250002001CALYPSO BARRANQUILLA LTDA                         C000000000321000000000000000000000100010010000000000000000000000F0010000007941500420151125000101 00000000000000000000000000000000000000000000000000000000000000000000000000000000000000000000000000000000000000000N 00000000000NCONT   00    00000000000          00000000000000000000000000000000000000000000 000000000000000A000000000000000000000000000000000000000000000 000000000000000000000000000000000000000     00000000                                                                                                                        000000000000000000
F0010000007941500005000086003979400013552100000000000000000201511250002001CALYPSO BARRANQUILLA LTDA                         D000000000321000000000000000000000100010010000000000000000000000F0010000007941500520151125000101 00000000000000000000000000000000000000000000000000000000000000000000000000000000000000000000000000000000000000000N 00000000000NCONT   00    00000000000          00000000000000000000000000000000000000000000 000000000000000A000000000000000000000000000000000000000000000 000000000000000000000000000000000000000     00000000                                                                                                                        000000000000000000
F0010000007941600001000080001063400013050500000000000000000201511250002001PRODUCTOS JULIAO SAS                              D000000017719400000000000000000000100010010000000000000000000000F0010000007941600120151125000101 00000000000000000000000000000000000000000000000000000000000000000000000000000000000000000000000000000000000000000N 00000000000NCONT   00    00000000000          00000000000000000000000000000000000000000000 000000000000000A000000000000000000000000000000000000000000000 000000000000000000000000000000000000000     00000000                                                                                                                        000000000000000000
F0010000007941600002000080001063400041450500000000000000000201511250002001PRODUCTOS JULIAO SAS                              C000000016800000000000000000000000100010010000000000000000000000F0010000007941600220151125000101 00000000000000000000000000000000000000000000000000000000000000000000000000000000000000000000000000000000000000000N 00000000000NCONT   00    00000000000          00000000000000000000000000000000000000000000 000000000000000A000000000000000000000000000000000000000000000 000000000000000000000000000000000000000     00000000                                                                                                                        000000000000000000
F0010000007941600003000080001063400042505000000000000000000201511250002001PRODUCTOS JULIAO SAS                              C000000000919400000000000000000000100010010000000000000000000000F0010000007941600320151125000101 00000000000000000000000000000000000000000000000000000000000000000000000000000000000000000000000000000000000000000N 00000000000NCONT   00    00000000000          00000000000000000000000000000000000000000000 000000000000000A000000000000000000000000000000000000000000000 000000000000000000000000000000000000000     00000000                                                                                                                        000000000000000000
F0010000007941600004000080001063400023658300000000000000000201511250002001PRODUCTOS JULIAO SAS                              C000000000134400000000000000000000100010010000000000000000000000F0010000007941600420151125000101 00000000000000000000000000000000000000000000000000000000000000000000000000000000000000000000000000000000000000000N 00000000000NCONT   00    00000000000          00000000000000000000000000000000000000000000 000000000000000A000000000000000000000000000000000000000000000 000000000000000000000000000000000000000     00000000                                                                                                                        000000000000000000
F0010000007941600005000080001063400013552100000000000000000201511250002001PRODUCTOS JULIAO SAS                              D000000000134400000000000000000000100010010000000000000000000000F0010000007941600520151125000101 00000000000000000000000000000000000000000000000000000000000000000000000000000000000000000000000000000000000000000N 00000000000NCONT   00    00000000000          00000000000000000000000000000000000000000000 000000000000000A000000000000000000000000000000000000000000000 000000000000000000000000000000000000000     00000000                                                                                                                        000000000000000000
F0010000007941700001000090038852800013050500000000000000000201511250002001EL COMERCIO ELECTRICO DE LA CO                    D000000019260000000000000000000000100010010000000000000000000000F0010000007941700120151125000101 00000000000000000000000000000000000000000000000000000000000000000000000000000000000000000000000000000000000000000N 00000000000NCONT   00    00000000000          00000000000000000000000000000000000000000000 000000000000000A000000000000000000000000000000000000000000000 000000000000000000000000000000000000000     00000000                                                                                                                        000000000000000000
F0010000007941700002000090038852800041450500000000000000000201511250002001EL COMERCIO ELECTRICO DE LA CO                    C000000013560000000000000000000000100010010000000000000000000000F0010000007941700220151125000101 00000000000000000000000000000000000000000000000000000000000000000000000000000000000000000000000000000000000000000N 00000000000NCONT   00    00000000000          00000000000000000000000000000000000000000000 000000000000000A000000000000000000000000000000000000000000000 000000000000000000000000000000000000000     00000000                                                                                                                        000000000000000000
F0010000007941700003000090038852800042505000000000000000000201511250002001EL COMERCIO ELECTRICO DE LA CO                    C000000005700000000000000000000000100010010000000000000000000000F0010000007941700320151125000101 00000000000000000000000000000000000000000000000000000000000000000000000000000000000000000000000000000000000000000N 00000000000NCONT   00    00000000000          00000000000000000000000000000000000000000000 000000000000000A000000000000000000000000000000000000000000000 000000000000000000000000000000000000000     00000000                                                                                                                        000000000000000000
F0010000007941700004000090038852800023658300000000000000000201511250002001EL COMERCIO ELECTRICO DE LA CO                    C000000000108500000000000000000000100010010000000000000000000000F0010000007941700420151125000101 00000000000000000000000000000000000000000000000000000000000000000000000000000000000000000000000000000000000000000N 00000000000NCONT   00    00000000000          00000000000000000000000000000000000000000000 000000000000000A000000000000000000000000000000000000000000000 000000000000000000000000000000000000000     00000000                                                                                                                        000000000000000000
F0010000007941700005000090038852800013552100000000000000000201511250002001EL COMERCIO ELECTRICO DE LA CO                    D000000000108500000000000000000000100010010000000000000000000000F0010000007941700520151125000101 00000000000000000000000000000000000000000000000000000000000000000000000000000000000000000000000000000000000000000N 00000000000NCONT   00    00000000000          00000000000000000000000000000000000000000000 000000000000000A000000000000000000000000000000000000000000000 000000000000000000000000000000000000000     00000000                                                                                                                        000000000000000000
F0010000007941800001000090014415700013050500000000000000000201511250002001CORDELES Y EXTRUIDOS DE COLOMBIA S.A.S.           D000000013122200000000000000000000100010010000000000000000000000F0010000007941800120151125000101 00000000000000000000000000000000000000000000000000000000000000000000000000000000000000000000000000000000000000000N 00000000000NCONT   00    00000000000          00000000000000000000000000000000000000000000 000000000000000A000000000000000000000000000000000000000000000 000000000000000000000000000000000000000     00000000                                                                                                                        000000000000000000
F0010000007941800002000090014415700041450500000000000000000201511250002001CORDELES Y EXTRUIDOS DE COLOMBIA S.A.S.           C000000011719500000000000000000000100010010000000000000000000000F0010000007941800220151125000101 00000000000000000000000000000000000000000000000000000000000000000000000000000000000000000000000000000000000000000N 00000000000NCONT   00    00000000000          00000000000000000000000000000000000000000000 000000000000000A000000000000000000000000000000000000000000000 000000000000000000000000000000000000000     00000000                                                                                                                        000000000000000000
F0010000007941800003000090014415700042505000000000000000000201511250002001CORDELES Y EXTRUIDOS DE COLOMBIA S.A.S.           C000000001402700000000000000000000100010010000000000000000000000F0010000007941800320151125000101 00000000000000000000000000000000000000000000000000000000000000000000000000000000000000000000000000000000000000000N 00000000000NCONT   00    00000000000          00000000000000000000000000000000000000000000 000000000000000A000000000000000000000000000000000000000000000 000000000000000000000000000000000000000     00000000                                                                                                                        000000000000000000
F0010000007941800004000090014415700023658300000000000000000201511250002001CORDELES Y EXTRUIDOS DE COLOMBIA S.A.S.           C000000000093800000000000000000000100010010000000000000000000000F0010000007941800420151125000101 00000000000000000000000000000000000000000000000000000000000000000000000000000000000000000000000000000000000000000N 00000000000NCONT   00    00000000000          00000000000000000000000000000000000000000000 000000000000000A000000000000000000000000000000000000000000000 000000000000000000000000000000000000000     00000000                                                                                                                        000000000000000000
F0010000007941800005000090014415700013552100000000000000000201511250002001CORDELES Y EXTRUIDOS DE COLOMBIA S.A.S.           D000000000093800000000000000000000100010010000000000000000000000F0010000007941800520151125000101 00000000000000000000000000000000000000000000000000000000000000000000000000000000000000000000000000000000000000000N 00000000000NCONT   00    00000000000          00000000000000000000000000000000000000000000 000000000000000A000000000000000000000000000000000000000000000 000000000000000000000000000000000000000     00000000                                                                                                                        000000000000000000
F0010000007941900001000003264509600013050500000000000000000201511250002001ROSA E. AGAMEZ                                    D000000007450000000000000000000000100010010000000000000000000000F0010000007941900120151125000101 00000000000000000000000000000000000000000000000000000000000000000000000000000000000000000000000000000000000000000N 00000000000NCONT   00    00000000000          00000000000000000000000000000000000000000000 000000000000000A000000000000000000000000000000000000000000000 000000000000000000000000000000000000000     00000000                                                                                                                        000000000000000000
F0010000007941900002000003264509600041450500000000000000000201511250002001ROSA E. AGAMEZ                                    C000000005130000000000000000000000100010010000000000000000000000F0010000007941900220151125000101 00000000000000000000000000000000000000000000000000000000000000000000000000000000000000000000000000000000000000000N 00000000000NCONT   00    00000000000          00000000000000000000000000000000000000000000 000000000000000A000000000000000000000000000000000000000000000 000000000000000000000000000000000000000     00000000                                                                                                                        000000000000000000
F0010000007941900003000003264509600042505000000000000000000201511250002001ROSA E. AGAMEZ                                    C000000002320000000000000000000000100010010000000000000000000000F0010000007941900320151125000101 00000000000000000000000000000000000000000000000000000000000000000000000000000000000000000000000000000000000000000N 00000000000NCONT   00    00000000000          00000000000000000000000000000000000000000000 000000000000000A000000000000000000000000000000000000000000000 000000000000000000000000000000000000000     00000000                                                                                                                        000000000000000000
F0010000007941900004000003264509600023658300000000000000000201511250002001ROSA E. AGAMEZ                                    C000000000041000000000000000000000100010010000000000000000000000F0010000007941900420151125000101 00000000000000000000000000000000000000000000000000000000000000000000000000000000000000000000000000000000000000000N 00000000000NCONT   00    00000000000          00000000000000000000000000000000000000000000 000000000000000A000000000000000000000000000000000000000000000 000000000000000000000000000000000000000     00000000                                                                                                                        000000000000000000
F0010000007941900005000003264509600013552100000000000000000201511250002001ROSA E. AGAMEZ                                    D000000000041000000000000000000000100010010000000000000000000000F0010000007941900520151125000101 00000000000000000000000000000000000000000000000000000000000000000000000000000000000000000000000000000000000000000N 00000000000NCONT   00    00000000000          00000000000000000000000000000000000000000000 000000000000000A000000000000000000000000000000000000000000000 000000000000000000000000000000000000000     00000000                                                                                                                        000000000000000000
F0010000007942000001000002245670100013050500000000000000000201511250002001YOLANDA  TOBON                                    D000000065876800000000000000000000100010010000000000000000000000F0010000007942000120151125000101 00000000000000000000000000000000000000000000000000000000000000000000000000000000000000000000000000000000000000000N 00000000000NCONT   00    00000000000          00000000000000000000000000000000000000000000 000000000000000A000000000000000000000000000000000000000000000 000000000000000000000000000000000000000     00000000                                                                                                                        000000000000000000
F0010000007942000002000002245670100041450500000000000000000201511250002001YOLANDA  TOBON                                    C000000049640000000000000000000000100010010000000000000000000000F0010000007942000220151125000101 00000000000000000000000000000000000000000000000000000000000000000000000000000000000000000000000000000000000000000N 00000000000NCONT   00    00000000000          00000000000000000000000000000000000000000000 000000000000000A000000000000000000000000000000000000000000000 000000000000000000000000000000000000000     00000000                                                                                                                        000000000000000000
F0010000007942000003000002245670100042505000000000000000000201511250002001YOLANDA  TOBON                                    C000000016236800000000000000000000100010010000000000000000000000F0010000007942000320151125000101 00000000000000000000000000000000000000000000000000000000000000000000000000000000000000000000000000000000000000000N 00000000000NCONT   00    00000000000          00000000000000000000000000000000000000000000 000000000000000A000000000000000000000000000000000000000000000 000000000000000000000000000000000000000     00000000                                                                                                                        000000000000000000
F0010000007942000004000002245670100023658300000000000000000201511250002001YOLANDA  TOBON                                    C000000000397100000000000000000000100010010000000000000000000000F0010000007942000420151125000101 00000000000000000000000000000000000000000000000000000000000000000000000000000000000000000000000000000000000000000N 00000000000NCONT   00    00000000000          00000000000000000000000000000000000000000000 000000000000000A000000000000000000000000000000000000000000000 000000000000000000000000000000000000000     00000000                                                                                                                        000000000000000000
F0010000007942000005000002245670100013552100000000000000000201511250002001YOLANDA  TOBON                                    D000000000397100000000000000000000100010010000000000000000000000F0010000007942000520151125000101 00000000000000000000000000000000000000000000000000000000000000000000000000000000000000000000000000000000000000000N 00000000000NCONT   00    00000000000          00000000000000000000000000000000000000000000 000000000000000A000000000000000000000000000000000000000000000 000000000000000000000000000000000000000     00000000                                                                                                                        000000000000000000
F0010000007942200001000089011492400013050500000000000000000201511250002001AGE. CAUCHO SOL DE LA COSTA  SAS                  D000000163551500000000000000000000100010010000000000000000000000F0010000007942200120151125000101 00000000000000000000000000000000000000000000000000000000000000000000000000000000000000000000000000000000000000000N 00000000000NCONT   00    00000000000          00000000000000000000000000000000000000000000 000000000000000A000000000000000000000000000000000000000000000 000000000000000000000000000000000000000     00000000                                                                                                                        000000000000000000
F0010000007942200002000089011492400041450500000000000000000201511250002001AGE. CAUCHO SOL DE LA COSTA  SAS                  C000000093250000000000000000000000100010010000000000000000000000F0010000007942200220151125000101 00000000000000000000000000000000000000000000000000000000000000000000000000000000000000000000000000000000000000000N 00000000000NCONT   00    00000000000          00000000000000000000000000000000000000000000 000000000000000A000000000000000000000000000000000000000000000 000000000000000000000000000000000000000     00000000                                                                                                                        000000000000000000
F0010000007942200003000089011492400042505000000000000000000201511250002001AGE. CAUCHO SOL DE LA COSTA  SAS                  C000000070301500000000000000000000100010010000000000000000000000F0010000007942200320151125000101 00000000000000000000000000000000000000000000000000000000000000000000000000000000000000000000000000000000000000000N 00000000000NCONT   00    00000000000          00000000000000000000000000000000000000000000 000000000000000A000000000000000000000000000000000000000000000 000000000000000000000000000000000000000     00000000                                                                                                                        000000000000000000
F0010000007942200004000089011492400023658300000000000000000201511250002001AGE. CAUCHO SOL DE LA COSTA  SAS                  C000000000746000000000000000000000100010010000000000000000000000F0010000007942200420151125000101 00000000000000000000000000000000000000000000000000000000000000000000000000000000000000000000000000000000000000000N 00000000000NCONT   00    00000000000          00000000000000000000000000000000000000000000 000000000000000A000000000000000000000000000000000000000000000 000000000000000000000000000000000000000     00000000                                                                                                                        000000000000000000
F0010000007942200005000089011492400013552100000000000000000201511250002001AGE. CAUCHO SOL DE LA COSTA  SAS                  D000000000746000000000000000000000100010010000000000000000000000F0010000007942200520151125000101 00000000000000000000000000000000000000000000000000000000000000000000000000000000000000000000000000000000000000000N 00000000000NCONT   00    00000000000          00000000000000000000000000000000000000000000 000000000000000A000000000000000000000000000000000000000000000 000000000000000000000000000000000000000     00000000                                                                                                                        000000000000000000
F0010000007942300001000007225583900011050500000000000000000201511250002001JORGE LUIS NIÑO BLANCO                           D000000007300000000000000000000000100010010000000000000000000000F0010000007942300120151125000101 00000000000000000000000000000000000000000000000000000000000000000000000000000000000000000000000000000000000000000N 00000000000NCONT   00    00000000000          00000000000000000000000000000000000000000000 000000000000000A000000000000000000000000000000000000000000000 000000000000000000000000000000000000000     00000000                                                                                                                        000000000000000000
F0010000007942300002000007225583900041450500000000000000000201511250002001JORGE LUIS NIÑO BLANCO                           C000000007000000000000000000000000100010010000000000000000000000F0010000007942300220151125000101 00000000000000000000000000000000000000000000000000000000000000000000000000000000000000000000000000000000000000000N 00000000000NCONT   00    00000000000          00000000000000000000000000000000000000000000 000000000000000A000000000000000000000000000000000000000000000 000000000000000000000000000000000000000     00000000                                                                                                                        000000000000000000
F0010000007942300003000007225583900042505000000000000000000201511250002001JORGE LUIS NIÑO BLANCO                           C000000000300000000000000000000000100010010000000000000000000000F0010000007942300320151125000101 00000000000000000000000000000000000000000000000000000000000000000000000000000000000000000000000000000000000000000N 00000000000NCONT   00    00000000000          00000000000000000000000000000000000000000000 000000000000000A000000000000000000000000000000000000000000000 000000000000000000000000000000000000000     00000000                                                                                                                        000000000000000000
F0010000007942300004000007225583900023658300000000000000000201511250002001JORGE LUIS NIÑO BLANCO                           C000000000056000000000000000000000100010010000000000000000000000F0010000007942300420151125000101 00000000000000000000000000000000000000000000000000000000000000000000000000000000000000000000000000000000000000000N 00000000000NCONT   00    00000000000          00000000000000000000000000000000000000000000 000000000000000A000000000000000000000000000000000000000000000 000000000000000000000000000000000000000     00000000                                                                                                                        000000000000000000
