F0010000006064500001000086000089600013050500000000000000000201407230002001SIKA COLOMBIA S.A.                                D000000086041800000000000000000000100010010000000000000000000000F0010000006064500120140723000101 00000000000000000000000000000000000000000000000000000000000000000000000000000000000000000000000000000000000000000N 00000000000NCONT   00    00000000000          00000000000000000000000000000000000000000000 000000000000000A000000000000000000000000000000000000000000000 000000000000000000000000000000000000000     00000000                                                                                                                        000000000000000000
F0010000006064500002000086000089600041450500000000000000000201407230002001SIKA COLOMBIA S.A.                                C000000082027200000000000000000000100010010000000000000000000000F0010000006064500220140723000101 00000000000000000000000000000000000000000000000000000000000000000000000000000000000000000000000000000000000000000N 00000000000NCONT   00    00000000000          00000000000000000000000000000000000000000000 000000000000000A000000000000000000000000000000000000000000000 000000000000000000000000000000000000000     00000000                                                                                                                        000000000000000000
F0010000006064500003000086000089600042505000000000000000000201407230002001SIKA COLOMBIA S.A.                                C000000004014600000000000000000000100010010000000000000000000000F0010000006064500320140723000101 00000000000000000000000000000000000000000000000000000000000000000000000000000000000000000000000000000000000000000N 00000000000NCONT   00    00000000000          00000000000000000000000000000000000000000000 000000000000000A000000000000000000000000000000000000000000000 000000000000000000000000000000000000000     00000000                                                                                                                        000000000000000000
F0010000006064500004000086000089600023658300000000000000000201407230002001SIKA COLOMBIA S.A.                                C000000000656200000000000000000000100010010000000000000000000000F0010000006064500420140723000101 00000000000000000000000000000000000000000000000000000000000000000000000000000000000000000000000000000000000000000N 00000000000NCONT   00    00000000000          00000000000000000000000000000000000000000000 000000000000000A000000000000000000000000000000000000000000000 000000000000000000000000000000000000000     00000000                                                                                                                        000000000000000000
F0010000006064500005000086000089600013552100000000000000000201407230002001SIKA COLOMBIA S.A.                                D000000000656200000000000000000000100010010000000000000000000000F0010000006064500520140723000101 00000000000000000000000000000000000000000000000000000000000000000000000000000000000000000000000000000000000000000N 00000000000NCONT   00    00000000000          00000000000000000000000000000000000000000000 000000000000000A000000000000000000000000000000000000000000000 000000000000000000000000000000000000000     00000000                                                                                                                        000000000000000000
F0010000006064600001000090051494400011050500000000000000000201407230002001MUNDINOX SAS                                      D000000004000000000000000000000000100010010000000000000000000000F0010000006064600120140723000101 00000000000000000000000000000000000000000000000000000000000000000000000000000000000000000000000000000000000000000N 00000000000NCONT   00    00000000000          00000000000000000000000000000000000000000000 000000000000000A000000000000000000000000000000000000000000000 000000000000000000000000000000000000000     00000000                                                                                                                        000000000000000000
F0010000006064600002000090051494400041450500000000000000000201407230002001MUNDINOX SAS                                      C000000003500000000000000000000000100010010000000000000000000000F0010000006064600220140723000101 00000000000000000000000000000000000000000000000000000000000000000000000000000000000000000000000000000000000000000N 00000000000NCONT   00    00000000000          00000000000000000000000000000000000000000000 000000000000000A000000000000000000000000000000000000000000000 000000000000000000000000000000000000000     00000000                                                                                                                        000000000000000000
F0010000006064600003000090051494400042505000000000000000000201407230002001MUNDINOX SAS                                      C000000000500000000000000000000000100010010000000000000000000000F0010000006064600320140723000101 00000000000000000000000000000000000000000000000000000000000000000000000000000000000000000000000000000000000000000N 00000000000NCONT   00    00000000000          00000000000000000000000000000000000000000000 000000000000000A000000000000000000000000000000000000000000000 000000000000000000000000000000000000000     00000000                                                                                                                        000000000000000000
F0010000006064600004000090051494400023658300000000000000000201407230002001MUNDINOX SAS                                      C000000000028000000000000000000000100010010000000000000000000000F0010000006064600420140723000101 00000000000000000000000000000000000000000000000000000000000000000000000000000000000000000000000000000000000000000N 00000000000NCONT   00    00000000000          00000000000000000000000000000000000000000000 000000000000000A000000000000000000000000000000000000000000000 000000000000000000000000000000000000000     00000000                                                                                                                        000000000000000000
F0010000006064600005000090051494400013552100000000000000000201407230002001MUNDINOX SAS                                      D000000000028000000000000000000000100010010000000000000000000000F0010000006064600520140723000101 00000000000000000000000000000000000000000000000000000000000000000000000000000000000000000000000000000000000000000N 00000000000NCONT   00    00000000000          00000000000000000000000000000000000000000000 000000000000000A000000000000000000000000000000000000000000000 000000000000000000000000000000000000000     00000000                                                                                                                        000000000000000000
F0010000006064700001000090055180500011050500000000000000000201407230002001LAMINAS Y SUELAS DE COLOMBIA S.A.S                D000000012000000000000000000000000100010010000000000000000000000F0010000006064700120140723000101 00000000000000000000000000000000000000000000000000000000000000000000000000000000000000000000000000000000000000000N 00000000000NCONT   00    00000000000          00000000000000000000000000000000000000000000 000000000000000A000000000000000000000000000000000000000000000 000000000000000000000000000000000000000     00000000                                                                                                                        000000000000000000
F0010000006064700002000090055180500041450500000000000000000201407230002001LAMINAS Y SUELAS DE COLOMBIA S.A.S                C000000010000000000000000000000000100010010000000000000000000000F0010000006064700220140723000101 00000000000000000000000000000000000000000000000000000000000000000000000000000000000000000000000000000000000000000N 00000000000NCONT   00    00000000000          00000000000000000000000000000000000000000000 000000000000000A000000000000000000000000000000000000000000000 000000000000000000000000000000000000000     00000000                                                                                                                        000000000000000000
F0010000006064700003000090055180500042505000000000000000000201407230002001LAMINAS Y SUELAS DE COLOMBIA S.A.S                C000000002000000000000000000000000100010010000000000000000000000F0010000006064700320140723000101 00000000000000000000000000000000000000000000000000000000000000000000000000000000000000000000000000000000000000000N 00000000000NCONT   00    00000000000          00000000000000000000000000000000000000000000 000000000000000A000000000000000000000000000000000000000000000 000000000000000000000000000000000000000     00000000                                                                                                                        000000000000000000
F0010000006064700004000090055180500023658300000000000000000201407230002001LAMINAS Y SUELAS DE COLOMBIA S.A.S                C000000000080000000000000000000000100010010000000000000000000000F0010000006064700420140723000101 00000000000000000000000000000000000000000000000000000000000000000000000000000000000000000000000000000000000000000N 00000000000NCONT   00    00000000000          00000000000000000000000000000000000000000000 000000000000000A000000000000000000000000000000000000000000000 000000000000000000000000000000000000000     00000000                                                                                                                        000000000000000000
F0010000006064700005000090055180500013552100000000000000000201407230002001LAMINAS Y SUELAS DE COLOMBIA S.A.S                D000000000080000000000000000000000100010010000000000000000000000F0010000006064700520140723000101 00000000000000000000000000000000000000000000000000000000000000000000000000000000000000000000000000000000000000000N 00000000000NCONT   00    00000000000          00000000000000000000000000000000000000000000 000000000000000A000000000000000000000000000000000000000000000 000000000000000000000000000000000000000     00000000                                                                                                                        000000000000000000
F0010000006064800001000080201703900011050500000000000000000201407230002001MUNDIAL CHEMICAL LTDA                             D000000003800000000000000000000000100010010000000000000000000000F0010000006064800120140723000101 00000000000000000000000000000000000000000000000000000000000000000000000000000000000000000000000000000000000000000N 00000000000NCONT   00    00000000000          00000000000000000000000000000000000000000000 000000000000000A000000000000000000000000000000000000000000000 000000000000000000000000000000000000000     00000000                                                                                                                        000000000000000000
F0010000006064800002000080201703900041450500000000000000000201407230002001MUNDIAL CHEMICAL LTDA                             C000000003320000000000000000000000100010010000000000000000000000F0010000006064800220140723000101 00000000000000000000000000000000000000000000000000000000000000000000000000000000000000000000000000000000000000000N 00000000000NCONT   00    00000000000          00000000000000000000000000000000000000000000 000000000000000A000000000000000000000000000000000000000000000 000000000000000000000000000000000000000     00000000                                                                                                                        000000000000000000
F0010000006064800003000080201703900042505000000000000000000201407230002001MUNDIAL CHEMICAL LTDA                             C000000000480000000000000000000000100010010000000000000000000000F0010000006064800320140723000101 00000000000000000000000000000000000000000000000000000000000000000000000000000000000000000000000000000000000000000N 00000000000NCONT   00    00000000000          00000000000000000000000000000000000000000000 000000000000000A000000000000000000000000000000000000000000000 000000000000000000000000000000000000000     00000000                                                                                                                        000000000000000000
F0010000006064800004000080201703900023658300000000000000000201407230002001MUNDIAL CHEMICAL LTDA                             C000000000026600000000000000000000100010010000000000000000000000F0010000006064800420140723000101 00000000000000000000000000000000000000000000000000000000000000000000000000000000000000000000000000000000000000000N 00000000000NCONT   00    00000000000          00000000000000000000000000000000000000000000 000000000000000A000000000000000000000000000000000000000000000 000000000000000000000000000000000000000     00000000                                                                                                                        000000000000000000
F0010000006064800005000080201703900013552100000000000000000201407230002001MUNDIAL CHEMICAL LTDA                             D000000000026600000000000000000000100010010000000000000000000000F0010000006064800520140723000101 00000000000000000000000000000000000000000000000000000000000000000000000000000000000000000000000000000000000000000N 00000000000NCONT   00    00000000000          00000000000000000000000000000000000000000000 000000000000000A000000000000000000000000000000000000000000000 000000000000000000000000000000000000000     00000000                                                                                                                        000000000000000000
F0010000006064900001000080013437100011050500000000000000000201407230002001CORTEACEROS SA                                    D000000010000000000000000000000000100010010000000000000000000000F0010000006064900120140723000101 00000000000000000000000000000000000000000000000000000000000000000000000000000000000000000000000000000000000000000N 00000000000NCONT   00    00000000000          00000000000000000000000000000000000000000000 000000000000000A000000000000000000000000000000000000000000000 000000000000000000000000000000000000000     00000000                                                                                                                        000000000000000000
F0010000006064900002000080013437100041450500000000000000000201407230002001CORTEACEROS SA                                    C000000009500000000000000000000000100010010000000000000000000000F0010000006064900220140723000101 00000000000000000000000000000000000000000000000000000000000000000000000000000000000000000000000000000000000000000N 00000000000NCONT   00    00000000000          00000000000000000000000000000000000000000000 000000000000000A000000000000000000000000000000000000000000000 000000000000000000000000000000000000000     00000000                                                                                                                        000000000000000000
F0010000006064900003000080013437100042505000000000000000000201407230002001CORTEACEROS SA                                    C000000000500000000000000000000000100010010000000000000000000000F0010000006064900320140723000101 00000000000000000000000000000000000000000000000000000000000000000000000000000000000000000000000000000000000000000N 00000000000NCONT   00    00000000000          00000000000000000000000000000000000000000000 000000000000000A000000000000000000000000000000000000000000000 000000000000000000000000000000000000000     00000000                                                                                                                        000000000000000000
F0010000006064900004000080013437100023658300000000000000000201407230002001CORTEACEROS SA                                    C000000000076000000000000000000000100010010000000000000000000000F0010000006064900420140723000101 00000000000000000000000000000000000000000000000000000000000000000000000000000000000000000000000000000000000000000N 00000000000NCONT   00    00000000000          00000000000000000000000000000000000000000000 000000000000000A000000000000000000000000000000000000000000000 000000000000000000000000000000000000000     00000000                                                                                                                        000000000000000000
F0010000006064900005000080013437100013552100000000000000000201407230002001CORTEACEROS SA                                    D000000000076000000000000000000000100010010000000000000000000000F0010000006064900520140723000101 00000000000000000000000000000000000000000000000000000000000000000000000000000000000000000000000000000000000000000N 00000000000NCONT   00    00000000000          00000000000000000000000000000000000000000000 000000000000000A000000000000000000000000000000000000000000000 000000000000000000000000000000000000000     00000000                                                                                                                        000000000000000000
F0010000006065000001000080013087700011050500000000000000000201407230002001MUNDIAL DE METALES LTDA                           D000000005200000000000000000000000100010010000000000000000000000F0010000006065000120140723000101 00000000000000000000000000000000000000000000000000000000000000000000000000000000000000000000000000000000000000000N 00000000000NCONT   00    00000000000          00000000000000000000000000000000000000000000 000000000000000A000000000000000000000000000000000000000000000 000000000000000000000000000000000000000     00000000                                                                                                                        000000000000000000
F0010000006065000002000080013087700041450500000000000000000201407230002001MUNDIAL DE METALES LTDA                           C000000004400000000000000000000000100010010000000000000000000000F0010000006065000220140723000101 00000000000000000000000000000000000000000000000000000000000000000000000000000000000000000000000000000000000000000N 00000000000NCONT   00    00000000000          00000000000000000000000000000000000000000000 000000000000000A000000000000000000000000000000000000000000000 000000000000000000000000000000000000000     00000000                                                                                                                        000000000000000000
F0010000006065000003000080013087700042505000000000000000000201407230002001MUNDIAL DE METALES LTDA                           C000000000800000000000000000000000100010010000000000000000000000F0010000006065000320140723000101 00000000000000000000000000000000000000000000000000000000000000000000000000000000000000000000000000000000000000000N 00000000000NCONT   00    00000000000          00000000000000000000000000000000000000000000 000000000000000A000000000000000000000000000000000000000000000 000000000000000000000000000000000000000     00000000                                                                                                                        000000000000000000
F0010000006065000004000080013087700023658300000000000000000201407230002001MUNDIAL DE METALES LTDA                           C000000000035200000000000000000000100010010000000000000000000000F0010000006065000420140723000101 00000000000000000000000000000000000000000000000000000000000000000000000000000000000000000000000000000000000000000N 00000000000NCONT   00    00000000000          00000000000000000000000000000000000000000000 000000000000000A000000000000000000000000000000000000000000000 000000000000000000000000000000000000000     00000000                                                                                                                        000000000000000000
F0010000006065000005000080013087700013552100000000000000000201407230002001MUNDIAL DE METALES LTDA                           D000000000035200000000000000000000100010010000000000000000000000F0010000006065000520140723000101 00000000000000000000000000000000000000000000000000000000000000000000000000000000000000000000000000000000000000000N 00000000000NCONT   00    00000000000          00000000000000000000000000000000000000000000 000000000000000A000000000000000000000000000000000000000000000 000000000000000000000000000000000000000     00000000                                                                                                                        000000000000000000
F0010000006065100001000086000061500011050500000000000000000201407230002001DISTRIBUIDORA CORDOBA                             D000000003900000000000000000000000100010010000000000000000000000F0010000006065100120140723000101 00000000000000000000000000000000000000000000000000000000000000000000000000000000000000000000000000000000000000000N 00000000000NCONT   00    00000000000          00000000000000000000000000000000000000000000 000000000000000A000000000000000000000000000000000000000000000 000000000000000000000000000000000000000     00000000                                                                                                                        000000000000000000
F0010000006065100002000086000061500041450500000000000000000201407230002001DISTRIBUIDORA CORDOBA                             C000000003400000000000000000000000100010010000000000000000000000F0010000006065100220140723000101 00000000000000000000000000000000000000000000000000000000000000000000000000000000000000000000000000000000000000000N 00000000000NCONT   00    00000000000          00000000000000000000000000000000000000000000 000000000000000A000000000000000000000000000000000000000000000 000000000000000000000000000000000000000     00000000                                                                                                                        000000000000000000
F0010000006065100003000086000061500042505000000000000000000201407230002001DISTRIBUIDORA CORDOBA                             C000000000500000000000000000000000100010010000000000000000000000F0010000006065100320140723000101 00000000000000000000000000000000000000000000000000000000000000000000000000000000000000000000000000000000000000000N 00000000000NCONT   00    00000000000          00000000000000000000000000000000000000000000 000000000000000A000000000000000000000000000000000000000000000 000000000000000000000000000000000000000     00000000                                                                                                                        000000000000000000
F0010000006065100004000086000061500023658300000000000000000201407230002001DISTRIBUIDORA CORDOBA                             C000000000027200000000000000000000100010010000000000000000000000F0010000006065100420140723000101 00000000000000000000000000000000000000000000000000000000000000000000000000000000000000000000000000000000000000000N 00000000000NCONT   00    00000000000          00000000000000000000000000000000000000000000 000000000000000A000000000000000000000000000000000000000000000 000000000000000000000000000000000000000     00000000                                                                                                                        000000000000000000
F0010000006065100005000086000061500013552100000000000000000201407230002001DISTRIBUIDORA CORDOBA                             D000000000027200000000000000000000100010010000000000000000000000F0010000006065100520140723000101 00000000000000000000000000000000000000000000000000000000000000000000000000000000000000000000000000000000000000000N 00000000000NCONT   00    00000000000          00000000000000000000000000000000000000000000 000000000000000A000000000000000000000000000000000000000000000 000000000000000000000000000000000000000     00000000                                                                                                                        000000000000000000
F0010000006065200001000080202350700011050500000000000000000201407230002001CONNY DE LA COSTA SAS                             D000000001000000000000000000000000100010010000000000000000000000F0010000006065200120140723000101 00000000000000000000000000000000000000000000000000000000000000000000000000000000000000000000000000000000000000000N 00000000000NCONT   00    00000000000          00000000000000000000000000000000000000000000 000000000000000A000000000000000000000000000000000000000000000 000000000000000000000000000000000000000     00000000                                                                                                                        000000000000000000
F0010000006065200002000080202350700041450500000000000000000201407230002001CONNY DE LA COSTA SAS                             C000000000800000000000000000000000100010010000000000000000000000F0010000006065200220140723000101 00000000000000000000000000000000000000000000000000000000000000000000000000000000000000000000000000000000000000000N 00000000000NCONT   00    00000000000          00000000000000000000000000000000000000000000 000000000000000A000000000000000000000000000000000000000000000 000000000000000000000000000000000000000     00000000                                                                                                                        000000000000000000
F0010000006065200003000080202350700042505000000000000000000201407230002001CONNY DE LA COSTA SAS                             C000000000200000000000000000000000100010010000000000000000000000F0010000006065200320140723000101 00000000000000000000000000000000000000000000000000000000000000000000000000000000000000000000000000000000000000000N 00000000000NCONT   00    00000000000          00000000000000000000000000000000000000000000 000000000000000A000000000000000000000000000000000000000000000 000000000000000000000000000000000000000     00000000                                                                                                                        000000000000000000
F0010000006065200004000080202350700023658300000000000000000201407230002001CONNY DE LA COSTA SAS                             C000000000006400000000000000000000100010010000000000000000000000F0010000006065200420140723000101 00000000000000000000000000000000000000000000000000000000000000000000000000000000000000000000000000000000000000000N 00000000000NCONT   00    00000000000          00000000000000000000000000000000000000000000 000000000000000A000000000000000000000000000000000000000000000 000000000000000000000000000000000000000     00000000                                                                                                                        000000000000000000
F0010000006065200005000080202350700013552100000000000000000201407230002001CONNY DE LA COSTA SAS                             D000000000006400000000000000000000100010010000000000000000000000F0010000006065200520140723000101 00000000000000000000000000000000000000000000000000000000000000000000000000000000000000000000000000000000000000000N 00000000000NCONT   00    00000000000          00000000000000000000000000000000000000000000 000000000000000A000000000000000000000000000000000000000000000 000000000000000000000000000000000000000     00000000                                                                                                                        000000000000000000
F0010000006065300001000080202350700011050500000000000000000201407230002001CONNY DE LA COSTA SAS                             D000000001100000000000000000000000100010010000000000000000000000F0010000006065300120140723000101 00000000000000000000000000000000000000000000000000000000000000000000000000000000000000000000000000000000000000000N 00000000000NCONT   00    00000000000          00000000000000000000000000000000000000000000 000000000000000A000000000000000000000000000000000000000000000 000000000000000000000000000000000000000     00000000                                                                                                                        000000000000000000
F0010000006065300002000080202350700041450500000000000000000201407230002001CONNY DE LA COSTA SAS                             C000000000750000000000000000000000100010010000000000000000000000F0010000006065300220140723000101 00000000000000000000000000000000000000000000000000000000000000000000000000000000000000000000000000000000000000000N 00000000000NCONT   00    00000000000          00000000000000000000000000000000000000000000 000000000000000A000000000000000000000000000000000000000000000 000000000000000000000000000000000000000     00000000                                                                                                                        000000000000000000
F0010000006065300003000080202350700042505000000000000000000201407230002001CONNY DE LA COSTA SAS                             C000000000350000000000000000000000100010010000000000000000000000F0010000006065300320140723000101 00000000000000000000000000000000000000000000000000000000000000000000000000000000000000000000000000000000000000000N 00000000000NCONT   00    00000000000          00000000000000000000000000000000000000000000 000000000000000A000000000000000000000000000000000000000000000 000000000000000000000000000000000000000     00000000                                                                                                                        000000000000000000
F0010000006065300004000080202350700023658300000000000000000201407230002001CONNY DE LA COSTA SAS                             C000000000006000000000000000000000100010010000000000000000000000F0010000006065300420140723000101 00000000000000000000000000000000000000000000000000000000000000000000000000000000000000000000000000000000000000000N 00000000000NCONT   00    00000000000          00000000000000000000000000000000000000000000 000000000000000A000000000000000000000000000000000000000000000 000000000000000000000000000000000000000     00000000                                                                                                                        000000000000000000
F0010000006065300005000080202350700013552100000000000000000201407230002001CONNY DE LA COSTA SAS                             D000000000006000000000000000000000100010010000000000000000000000F0010000006065300520140723000101 00000000000000000000000000000000000000000000000000000000000000000000000000000000000000000000000000000000000000000N 00000000000NCONT   00    00000000000          00000000000000000000000000000000000000000000 000000000000000A000000000000000000000000000000000000000000000 000000000000000000000000000000000000000     00000000                                                                                                                        000000000000000000
F0010000006065400001000003263562600011050500000000000000000201407230002001LOCAL 50 - MERCEDES ARAGUREN DE CHADID (MANUEL CHAD000000005500000000000000000000000100010010000000000000000000000F0010000006065400120140723000101 00000000000000000000000000000000000000000000000000000000000000000000000000000000000000000000000000000000000000000N 00000000000NCONT   00    00000000000          00000000000000000000000000000000000000000000 000000000000000A000000000000000000000000000000000000000000000 000000000000000000000000000000000000000     00000000                                                                                                                        000000000000000000
F0010000006065400002000003263562600041450500000000000000000201407230002001LOCAL 50 - MERCEDES ARAGUREN DE CHADID (MANUEL CHAC000000005200000000000000000000000100010010000000000000000000000F0010000006065400220140723000101 00000000000000000000000000000000000000000000000000000000000000000000000000000000000000000000000000000000000000000N 00000000000NCONT   00    00000000000          00000000000000000000000000000000000000000000 000000000000000A000000000000000000000000000000000000000000000 000000000000000000000000000000000000000     00000000                                                                                                                        000000000000000000
F0010000006065400003000003263562600042505000000000000000000201407230002001LOCAL 50 - MERCEDES ARAGUREN DE CHADID (MANUEL CHAC000000000300000000000000000000000100010010000000000000000000000F0010000006065400320140723000101 00000000000000000000000000000000000000000000000000000000000000000000000000000000000000000000000000000000000000000N 00000000000NCONT   00    00000000000          00000000000000000000000000000000000000000000 000000000000000A000000000000000000000000000000000000000000000 000000000000000000000000000000000000000     00000000                                                                                                                        000000000000000000
F0010000006065400004000003263562600023658300000000000000000201407230002001LOCAL 50 - MERCEDES ARAGUREN DE CHADID (MANUEL CHAC000000000041600000000000000000000100010010000000000000000000000F0010000006065400420140723000101 00000000000000000000000000000000000000000000000000000000000000000000000000000000000000000000000000000000000000000N 00000000000NCONT   00    00000000000          00000000000000000000000000000000000000000000 000000000000000A000000000000000000000000000000000000000000000 000000000000000000000000000000000000000     00000000                                                                                                                        000000000000000000
F0010000006065400005000003263562600013552100000000000000000201407230002001LOCAL 50 - MERCEDES ARAGUREN DE CHADID (MANUEL CHAD000000000041600000000000000000000100010010000000000000000000000F0010000006065400520140723000101 00000000000000000000000000000000000000000000000000000000000000000000000000000000000000000000000000000000000000000N 00000000000NCONT   00    00000000000          00000000000000000000000000000000000000000000 000000000000000A000000000000000000000000000000000000000000000 000000000000000000000000000000000000000     00000000                                                                                                                        000000000000000000
F0010000006065500001000090050144800011050500000000000000000201407230002001PLASTICOS JR ASOCIADOS SAS                        D000000003200000000000000000000000100010010000000000000000000000F0010000006065500120140723000101 00000000000000000000000000000000000000000000000000000000000000000000000000000000000000000000000000000000000000000N 00000000000NCONT   00    00000000000          00000000000000000000000000000000000000000000 000000000000000A000000000000000000000000000000000000000000000 000000000000000000000000000000000000000     00000000                                                                                                                        000000000000000000
F0010000006065500002000090050144800041450500000000000000000201407230002001PLASTICOS JR ASOCIADOS SAS                        C000000003000000000000000000000000100010010000000000000000000000F0010000006065500220140723000101 00000000000000000000000000000000000000000000000000000000000000000000000000000000000000000000000000000000000000000N 00000000000NCONT   00    00000000000          00000000000000000000000000000000000000000000 000000000000000A000000000000000000000000000000000000000000000 000000000000000000000000000000000000000     00000000                                                                                                                        000000000000000000
F0010000006065500003000090050144800042505000000000000000000201407230002001PLASTICOS JR ASOCIADOS SAS                        C000000000200000000000000000000000100010010000000000000000000000F0010000006065500320140723000101 00000000000000000000000000000000000000000000000000000000000000000000000000000000000000000000000000000000000000000N 00000000000NCONT   00    00000000000          00000000000000000000000000000000000000000000 000000000000000A000000000000000000000000000000000000000000000 000000000000000000000000000000000000000     00000000                                                                                                                        000000000000000000
F0010000006065500004000090050144800023658300000000000000000201407230002001PLASTICOS JR ASOCIADOS SAS                        C000000000024000000000000000000000100010010000000000000000000000F0010000006065500420140723000101 00000000000000000000000000000000000000000000000000000000000000000000000000000000000000000000000000000000000000000N 00000000000NCONT   00    00000000000          00000000000000000000000000000000000000000000 000000000000000A000000000000000000000000000000000000000000000 000000000000000000000000000000000000000     00000000                                                                                                                        000000000000000000
F0010000006065500005000090050144800013552100000000000000000201407230002001PLASTICOS JR ASOCIADOS SAS                        D000000000024000000000000000000000100010010000000000000000000000F0010000006065500520140723000101 00000000000000000000000000000000000000000000000000000000000000000000000000000000000000000000000000000000000000000N 00000000000NCONT   00    00000000000          00000000000000000000000000000000000000000000 000000000000000A000000000000000000000000000000000000000000000 000000000000000000000000000000000000000     00000000                                                                                                                        000000000000000000
F0010000006065600001000002245670100011050500000000000000000201407230002001YOLANDA  TOBON                                    D000000004400000000000000000000000100010010000000000000000000000F0010000006065600120140723000101 00000000000000000000000000000000000000000000000000000000000000000000000000000000000000000000000000000000000000000N 00000000000NCONT   00    00000000000          00000000000000000000000000000000000000000000 000000000000000A000000000000000000000000000000000000000000000 000000000000000000000000000000000000000     00000000                                                                                                                        000000000000000000
F0010000006065600002000002245670100041450500000000000000000201407230002001YOLANDA  TOBON                                    C000000003500000000000000000000000100010010000000000000000000000F0010000006065600220140723000101 00000000000000000000000000000000000000000000000000000000000000000000000000000000000000000000000000000000000000000N 00000000000NCONT   00    00000000000          00000000000000000000000000000000000000000000 000000000000000A000000000000000000000000000000000000000000000 000000000000000000000000000000000000000     00000000                                                                                                                        000000000000000000
F0010000006065600003000002245670100042505000000000000000000201407230002001YOLANDA  TOBON                                    C000000000900000000000000000000000100010010000000000000000000000F0010000006065600320140723000101 00000000000000000000000000000000000000000000000000000000000000000000000000000000000000000000000000000000000000000N 00000000000NCONT   00    00000000000          00000000000000000000000000000000000000000000 000000000000000A000000000000000000000000000000000000000000000 000000000000000000000000000000000000000     00000000                                                                                                                        000000000000000000
F0010000006065600004000002245670100023658300000000000000000201407230002001YOLANDA  TOBON                                    C000000000028000000000000000000000100010010000000000000000000000F0010000006065600420140723000101 00000000000000000000000000000000000000000000000000000000000000000000000000000000000000000000000000000000000000000N 00000000000NCONT   00    00000000000          00000000000000000000000000000000000000000000 000000000000000A000000000000000000000000000000000000000000000 000000000000000000000000000000000000000     00000000                                                                                                                        000000000000000000
F0010000006065600005000002245670100013552100000000000000000201407230002001YOLANDA  TOBON                                    D000000000028000000000000000000000100010010000000000000000000000F0010000006065600520140723000101 00000000000000000000000000000000000000000000000000000000000000000000000000000000000000000000000000000000000000000N 00000000000NCONT   00    00000000000          00000000000000000000000000000000000000000000 000000000000000A000000000000000000000000000000000000000000000 000000000000000000000000000000000000000     00000000                                                                                                                        000000000000000000
F0010000006065700001000090027633800011050500000000000000000201407230002001MALLAS Y CERRAMIENTOS DEL ATLANTICO LTDA          D000000003000000000000000000000000100010010000000000000000000000F0010000006065700120140723000101 00000000000000000000000000000000000000000000000000000000000000000000000000000000000000000000000000000000000000000N 00000000000NCONT   00    00000000000          00000000000000000000000000000000000000000000 000000000000000A000000000000000000000000000000000000000000000 000000000000000000000000000000000000000     00000000                                                                                                                        000000000000000000
F0010000006065700002000090027633800041450500000000000000000201407230002001MALLAS Y CERRAMIENTOS DEL ATLANTICO LTDA          C000000002800000000000000000000000100010010000000000000000000000F0010000006065700220140723000101 00000000000000000000000000000000000000000000000000000000000000000000000000000000000000000000000000000000000000000N 00000000000NCONT   00    00000000000          00000000000000000000000000000000000000000000 000000000000000A000000000000000000000000000000000000000000000 000000000000000000000000000000000000000     00000000                                                                                                                        000000000000000000
F0010000006065700003000090027633800042505000000000000000000201407230002001MALLAS Y CERRAMIENTOS DEL ATLANTICO LTDA          C000000000200000000000000000000000100010010000000000000000000000F0010000006065700320140723000101 00000000000000000000000000000000000000000000000000000000000000000000000000000000000000000000000000000000000000000N 00000000000NCONT   00    00000000000          00000000000000000000000000000000000000000000 000000000000000A000000000000000000000000000000000000000000000 000000000000000000000000000000000000000     00000000                                                                                                                        000000000000000000
F0010000006065700004000090027633800023658300000000000000000201407230002001MALLAS Y CERRAMIENTOS DEL ATLANTICO LTDA          C000000000022400000000000000000000100010010000000000000000000000F0010000006065700420140723000101 00000000000000000000000000000000000000000000000000000000000000000000000000000000000000000000000000000000000000000N 00000000000NCONT   00    00000000000          00000000000000000000000000000000000000000000 000000000000000A000000000000000000000000000000000000000000000 000000000000000000000000000000000000000     00000000                                                                                                                        000000000000000000
F0010000006065700005000090027633800013552100000000000000000201407230002001MALLAS Y CERRAMIENTOS DEL ATLANTICO LTDA          D000000000022400000000000000000000100010010000000000000000000000F0010000006065700520140723000101 00000000000000000000000000000000000000000000000000000000000000000000000000000000000000000000000000000000000000000N 00000000000NCONT   00    00000000000          00000000000000000000000000000000000000000000 000000000000000A000000000000000000000000000000000000000000000 000000000000000000000000000000000000000     00000000                                                                                                                        000000000000000000
F0010000006065800001000000871573200011050500000000000000000201407230002001ACCESORIAS ARQUITECTONI KJ                        D000000004200000000000000000000000100010010000000000000000000000F0010000006065800120140723000101 00000000000000000000000000000000000000000000000000000000000000000000000000000000000000000000000000000000000000000N 00000000000NCONT   00    00000000000          00000000000000000000000000000000000000000000 000000000000000A000000000000000000000000000000000000000000000 000000000000000000000000000000000000000     00000000                                                                                                                        000000000000000000
F0010000006065800002000000871573200041450500000000000000000201407230002001ACCESORIAS ARQUITECTONI KJ                        C000000002400000000000000000000000100010010000000000000000000000F0010000006065800220140723000101 00000000000000000000000000000000000000000000000000000000000000000000000000000000000000000000000000000000000000000N 00000000000NCONT   00    00000000000          00000000000000000000000000000000000000000000 000000000000000A000000000000000000000000000000000000000000000 000000000000000000000000000000000000000     00000000                                                                                                                        000000000000000000
F0010000006065800003000000871573200042505000000000000000000201407230002001ACCESORIAS ARQUITECTONI KJ                        C000000001800000000000000000000000100010010000000000000000000000F0010000006065800320140723000101 00000000000000000000000000000000000000000000000000000000000000000000000000000000000000000000000000000000000000000N 00000000000NCONT   00    00000000000          00000000000000000000000000000000000000000000 000000000000000A000000000000000000000000000000000000000000000 000000000000000000000000000000000000000     00000000                                                                                                                        000000000000000000
F0010000006065800004000000871573200023658300000000000000000201407230002001ACCESORIAS ARQUITECTONI KJ                        C000000000019200000000000000000000100010010000000000000000000000F0010000006065800420140723000101 00000000000000000000000000000000000000000000000000000000000000000000000000000000000000000000000000000000000000000N 00000000000NCONT   00    00000000000          00000000000000000000000000000000000000000000 000000000000000A000000000000000000000000000000000000000000000 000000000000000000000000000000000000000     00000000                                                                                                                        000000000000000000
F0010000006065800005000000871573200013552100000000000000000201407230002001ACCESORIAS ARQUITECTONI KJ                        D000000000019200000000000000000000100010010000000000000000000000F0010000006065800520140723000101 00000000000000000000000000000000000000000000000000000000000000000000000000000000000000000000000000000000000000000N 00000000000NCONT   00    00000000000          00000000000000000000000000000000000000000000 000000000000000A000000000000000000000000000000000000000000000 000000000000000000000000000000000000000     00000000                                                                                                                        000000000000000000
F0010000006065900001000000871573200011050500000000000000000201407230002001ACCESORIAS ARQUITECTONI KJ                        D000000003500000000000000000000000100010010000000000000000000000F0010000006065900120140723000101 00000000000000000000000000000000000000000000000000000000000000000000000000000000000000000000000000000000000000000N 00000000000NCONT   00    00000000000          00000000000000000000000000000000000000000000 000000000000000A000000000000000000000000000000000000000000000 000000000000000000000000000000000000000     00000000                                                                                                                        000000000000000000
F0010000006065900002000000871573200041450500000000000000000201407230002001ACCESORIAS ARQUITECTONI KJ                        C000000002000000000000000000000000100010010000000000000000000000F0010000006065900220140723000101 00000000000000000000000000000000000000000000000000000000000000000000000000000000000000000000000000000000000000000N 00000000000NCONT   00    00000000000          00000000000000000000000000000000000000000000 000000000000000A000000000000000000000000000000000000000000000 000000000000000000000000000000000000000     00000000                                                                                                                        000000000000000000
F0010000006065900003000000871573200042505000000000000000000201407230002001ACCESORIAS ARQUITECTONI KJ                        C000000001500000000000000000000000100010010000000000000000000000F0010000006065900320140723000101 00000000000000000000000000000000000000000000000000000000000000000000000000000000000000000000000000000000000000000N 00000000000NCONT   00    00000000000          00000000000000000000000000000000000000000000 000000000000000A000000000000000000000000000000000000000000000 000000000000000000000000000000000000000     00000000                                                                                                                        000000000000000000
F0010000006065900004000000871573200023658300000000000000000201407230002001ACCESORIAS ARQUITECTONI KJ                        C000000000016000000000000000000000100010010000000000000000000000F0010000006065900420140723000101 00000000000000000000000000000000000000000000000000000000000000000000000000000000000000000000000000000000000000000N 00000000000NCONT   00    00000000000          00000000000000000000000000000000000000000000 000000000000000A000000000000000000000000000000000000000000000 000000000000000000000000000000000000000     00000000                                                                                                                        000000000000000000
F0010000006065900005000000871573200013552100000000000000000201407230002001ACCESORIAS ARQUITECTONI KJ                        D000000000016000000000000000000000100010010000000000000000000000F0010000006065900520140723000101 00000000000000000000000000000000000000000000000000000000000000000000000000000000000000000000000000000000000000000N 00000000000NCONT   00    00000000000          00000000000000000000000000000000000000000000 000000000000000A000000000000000000000000000000000000000000000 000000000000000000000000000000000000000     00000000                                                                                                                        000000000000000000
F0010000006066000001000007200023300011050500000000000000000201407230002001WILLIAM ORTEGA                                    D000000004400000000000000000000000100010010000000000000000000000F0010000006066000120140723000101 00000000000000000000000000000000000000000000000000000000000000000000000000000000000000000000000000000000000000000N 00000000000NCONT   00    00000000000          00000000000000000000000000000000000000000000 000000000000000A000000000000000000000000000000000000000000000 000000000000000000000000000000000000000     00000000                                                                                                                        000000000000000000
F0010000006066000002000007200023300041450500000000000000000201407230002001WILLIAM ORTEGA                                    C000000004000000000000000000000000100010010000000000000000000000F0010000006066000220140723000101 00000000000000000000000000000000000000000000000000000000000000000000000000000000000000000000000000000000000000000N 00000000000NCONT   00    00000000000          00000000000000000000000000000000000000000000 000000000000000A000000000000000000000000000000000000000000000 000000000000000000000000000000000000000     00000000                                                                                                                        000000000000000000
F0010000006066000003000007200023300042505000000000000000000201407230002001WILLIAM ORTEGA                                    C000000000400000000000000000000000100010010000000000000000000000F0010000006066000320140723000101 00000000000000000000000000000000000000000000000000000000000000000000000000000000000000000000000000000000000000000N 00000000000NCONT   00    00000000000          00000000000000000000000000000000000000000000 000000000000000A000000000000000000000000000000000000000000000 000000000000000000000000000000000000000     00000000                                                                                                                        000000000000000000
F0010000006066000004000007200023300023658300000000000000000201407230002001WILLIAM ORTEGA                                    C000000000032000000000000000000000100010010000000000000000000000F0010000006066000420140723000101 00000000000000000000000000000000000000000000000000000000000000000000000000000000000000000000000000000000000000000N 00000000000NCONT   00    00000000000          00000000000000000000000000000000000000000000 000000000000000A000000000000000000000000000000000000000000000 000000000000000000000000000000000000000     00000000                                                                                                                        000000000000000000
F0010000006066000005000007200023300013552100000000000000000201407230002001WILLIAM ORTEGA                                    D000000000032000000000000000000000100010010000000000000000000000F0010000006066000520140723000101 00000000000000000000000000000000000000000000000000000000000000000000000000000000000000000000000000000000000000000N 00000000000NCONT   00    00000000000          00000000000000000000000000000000000000000000 000000000000000A000000000000000000000000000000000000000000000 000000000000000000000000000000000000000     00000000                                                                                                                        000000000000000000
F0010000006066100001000007200023300011050500000000000000000201407230002001WILLIAM ORTEGA                                    D000000004500000000000000000000000100010010000000000000000000000F0010000006066100120140723000101 00000000000000000000000000000000000000000000000000000000000000000000000000000000000000000000000000000000000000000N 00000000000NCONT   00    00000000000          00000000000000000000000000000000000000000000 000000000000000A000000000000000000000000000000000000000000000 000000000000000000000000000000000000000     00000000                                                                                                                        000000000000000000
F0010000006066100002000007200023300041450500000000000000000201407230002001WILLIAM ORTEGA                                    C000000004000000000000000000000000100010010000000000000000000000F0010000006066100220140723000101 00000000000000000000000000000000000000000000000000000000000000000000000000000000000000000000000000000000000000000N 00000000000NCONT   00    00000000000          00000000000000000000000000000000000000000000 000000000000000A000000000000000000000000000000000000000000000 000000000000000000000000000000000000000     00000000                                                                                                                        000000000000000000
F0010000006066100003000007200023300042505000000000000000000201407230002001WILLIAM ORTEGA                                    C000000000500000000000000000000000100010010000000000000000000000F0010000006066100320140723000101 00000000000000000000000000000000000000000000000000000000000000000000000000000000000000000000000000000000000000000N 00000000000NCONT   00    00000000000          00000000000000000000000000000000000000000000 000000000000000A000000000000000000000000000000000000000000000 000000000000000000000000000000000000000     00000000                                                                                                                        000000000000000000
F0010000006066100004000007200023300023658300000000000000000201407230002001WILLIAM ORTEGA                                    C000000000032000000000000000000000100010010000000000000000000000F0010000006066100420140723000101 00000000000000000000000000000000000000000000000000000000000000000000000000000000000000000000000000000000000000000N 00000000000NCONT   00    00000000000          00000000000000000000000000000000000000000000 000000000000000A000000000000000000000000000000000000000000000 000000000000000000000000000000000000000     00000000                                                                                                                        000000000000000000
F0010000006066100005000007200023300013552100000000000000000201407230002001WILLIAM ORTEGA                                    D000000000032000000000000000000000100010010000000000000000000000F0010000006066100520140723000101 00000000000000000000000000000000000000000000000000000000000000000000000000000000000000000000000000000000000000000N 00000000000NCONT   00    00000000000          00000000000000000000000000000000000000000000 000000000000000A000000000000000000000000000000000000000000000 000000000000000000000000000000000000000     00000000                                                                                                                        000000000000000000
F0010000006066200001000007200023300011050500000000000000000201407230002001WILLIAM ORTEGA                                    D000000001100000000000000000000000100010010000000000000000000000F0010000006066200120140723000101 00000000000000000000000000000000000000000000000000000000000000000000000000000000000000000000000000000000000000000N 00000000000NCONT   00    00000000000          00000000000000000000000000000000000000000000 000000000000000A000000000000000000000000000000000000000000000 000000000000000000000000000000000000000     00000000                                                                                                                        000000000000000000
F0010000006066200002000007200023300041450500000000000000000201407230002001WILLIAM ORTEGA                                    C000000001000000000000000000000000100010010000000000000000000000F0010000006066200220140723000101 00000000000000000000000000000000000000000000000000000000000000000000000000000000000000000000000000000000000000000N 00000000000NCONT   00    00000000000          00000000000000000000000000000000000000000000 000000000000000A000000000000000000000000000000000000000000000 000000000000000000000000000000000000000     00000000                                                                                                                        000000000000000000
F0010000006066200003000007200023300042505000000000000000000201407230002001WILLIAM ORTEGA                                    C000000000100000000000000000000000100010010000000000000000000000F0010000006066200320140723000101 00000000000000000000000000000000000000000000000000000000000000000000000000000000000000000000000000000000000000000N 00000000000NCONT   00    00000000000          00000000000000000000000000000000000000000000 000000000000000A000000000000000000000000000000000000000000000 000000000000000000000000000000000000000     00000000                                                                                                                        000000000000000000
F0010000006066200004000007200023300023658300000000000000000201407230002001WILLIAM ORTEGA                                    C000000000008000000000000000000000100010010000000000000000000000F0010000006066200420140723000101 00000000000000000000000000000000000000000000000000000000000000000000000000000000000000000000000000000000000000000N 00000000000NCONT   00    00000000000          00000000000000000000000000000000000000000000 000000000000000A000000000000000000000000000000000000000000000 000000000000000000000000000000000000000     00000000                                                                                                                        000000000000000000
F0010000006066200005000007200023300013552100000000000000000201407230002001WILLIAM ORTEGA                                    D000000000008000000000000000000000100010010000000000000000000000F0010000006066200520140723000101 00000000000000000000000000000000000000000000000000000000000000000000000000000000000000000000000000000000000000000N 00000000000NCONT   00    00000000000          00000000000000000000000000000000000000000000 000000000000000A000000000000000000000000000000000000000000000 000000000000000000000000000000000000000     00000000                                                                                                                        000000000000000000
F0010000006066300001000080201703900011050500000000000000000201407230002001MUNDIAL CHEMICAL LTDA                             D000000002060000000000000000000000100010010000000000000000000000F0010000006066300120140723000101 00000000000000000000000000000000000000000000000000000000000000000000000000000000000000000000000000000000000000000N 00000000000NCONT   00    00000000000          00000000000000000000000000000000000000000000 000000000000000A000000000000000000000000000000000000000000000 000000000000000000000000000000000000000     00000000                                                                                                                        000000000000000000
F0010000006066300002000080201703900041450500000000000000000201407230002001MUNDIAL CHEMICAL LTDA                             C000000001640000000000000000000000100010010000000000000000000000F0010000006066300220140723000101 00000000000000000000000000000000000000000000000000000000000000000000000000000000000000000000000000000000000000000N 00000000000NCONT   00    00000000000          00000000000000000000000000000000000000000000 000000000000000A000000000000000000000000000000000000000000000 000000000000000000000000000000000000000     00000000                                                                                                                        000000000000000000
F0010000006066300003000080201703900042505000000000000000000201407230002001MUNDIAL CHEMICAL LTDA                             C000000000420000000000000000000000100010010000000000000000000000F0010000006066300320140723000101 00000000000000000000000000000000000000000000000000000000000000000000000000000000000000000000000000000000000000000N 00000000000NCONT   00    00000000000          00000000000000000000000000000000000000000000 000000000000000A000000000000000000000000000000000000000000000 000000000000000000000000000000000000000     00000000                                                                                                                        000000000000000000
F0010000006066300004000080201703900023658300000000000000000201407230002001MUNDIAL CHEMICAL LTDA                             C000000000013100000000000000000000100010010000000000000000000000F0010000006066300420140723000101 00000000000000000000000000000000000000000000000000000000000000000000000000000000000000000000000000000000000000000N 00000000000NCONT   00    00000000000          00000000000000000000000000000000000000000000 000000000000000A000000000000000000000000000000000000000000000 000000000000000000000000000000000000000     00000000                                                                                                                        000000000000000000
F0010000006066300005000080201703900013552100000000000000000201407230002001MUNDIAL CHEMICAL LTDA                             D000000000013100000000000000000000100010010000000000000000000000F0010000006066300520140723000101 00000000000000000000000000000000000000000000000000000000000000000000000000000000000000000000000000000000000000000N 00000000000NCONT   00    00000000000          00000000000000000000000000000000000000000000 000000000000000A000000000000000000000000000000000000000000000 000000000000000000000000000000000000000     00000000                                                                                                                        000000000000000000
F0010000006066400001000000431178400011050500000000000000000201407230002001EFRAIN ALVAREZ                                    D000000000950000000000000000000000100010010000000000000000000000F0010000006066400120140723000101 00000000000000000000000000000000000000000000000000000000000000000000000000000000000000000000000000000000000000000N 00000000000NCONT   00    00000000000          00000000000000000000000000000000000000000000 000000000000000A000000000000000000000000000000000000000000000 000000000000000000000000000000000000000     00000000                                                                                                                        000000000000000000
F0010000006066400002000000431178400041450500000000000000000201407230002001EFRAIN ALVAREZ                                    C000000000850000000000000000000000100010010000000000000000000000F0010000006066400220140723000101 00000000000000000000000000000000000000000000000000000000000000000000000000000000000000000000000000000000000000000N 00000000000NCONT   00    00000000000          00000000000000000000000000000000000000000000 000000000000000A000000000000000000000000000000000000000000000 000000000000000000000000000000000000000     00000000                                                                                                                        000000000000000000
F0010000006066400003000000431178400042505000000000000000000201407230002001EFRAIN ALVAREZ                                    C000000000100000000000000000000000100010010000000000000000000000F0010000006066400320140723000101 00000000000000000000000000000000000000000000000000000000000000000000000000000000000000000000000000000000000000000N 00000000000NCONT   00    00000000000          00000000000000000000000000000000000000000000 000000000000000A000000000000000000000000000000000000000000000 000000000000000000000000000000000000000     00000000                                                                                                                        000000000000000000
F0010000006066400004000000431178400023658300000000000000000201407230002001EFRAIN ALVAREZ                                    C000000000006800000000000000000000100010010000000000000000000000F0010000006066400420140723000101 00000000000000000000000000000000000000000000000000000000000000000000000000000000000000000000000000000000000000000N 00000000000NCONT   00    00000000000          00000000000000000000000000000000000000000000 000000000000000A000000000000000000000000000000000000000000000 000000000000000000000000000000000000000     00000000                                                                                                                        000000000000000000
F0010000006066400005000000431178400013552100000000000000000201407230002001EFRAIN ALVAREZ                                    D000000000006800000000000000000000100010010000000000000000000000F0010000006066400520140723000101 00000000000000000000000000000000000000000000000000000000000000000000000000000000000000000000000000000000000000000N 00000000000NCONT   00    00000000000          00000000000000000000000000000000000000000000 000000000000000A000000000000000000000000000000000000000000000 000000000000000000000000000000000000000     00000000                                                                                                                        000000000000000000
F0010000006066500001000080014190300011050500000000000000000201407230002001QUIMINSA LTDA                                     D000000001020000000000000000000000100010010000000000000000000000F0010000006066500120140723000101 00000000000000000000000000000000000000000000000000000000000000000000000000000000000000000000000000000000000000000N 00000000000NCONT   00    00000000000          00000000000000000000000000000000000000000000 000000000000000A000000000000000000000000000000000000000000000 000000000000000000000000000000000000000     00000000                                                                                                                        000000000000000000
F0010000006066500002000080014190300041450500000000000000000201407230002001QUIMINSA LTDA                                     C000000000830000000000000000000000100010010000000000000000000000F0010000006066500220140723000101 00000000000000000000000000000000000000000000000000000000000000000000000000000000000000000000000000000000000000000N 00000000000NCONT   00    00000000000          00000000000000000000000000000000000000000000 000000000000000A000000000000000000000000000000000000000000000 000000000000000000000000000000000000000     00000000                                                                                                                        000000000000000000
F0010000006066500003000080014190300042505000000000000000000201407230002001QUIMINSA LTDA                                     C000000000190000000000000000000000100010010000000000000000000000F0010000006066500320140723000101 00000000000000000000000000000000000000000000000000000000000000000000000000000000000000000000000000000000000000000N 00000000000NCONT   00    00000000000          00000000000000000000000000000000000000000000 000000000000000A000000000000000000000000000000000000000000000 000000000000000000000000000000000000000     00000000                                                                                                                        000000000000000000
F0010000006066500004000080014190300023658300000000000000000201407230002001QUIMINSA LTDA                                     C000000000006600000000000000000000100010010000000000000000000000F0010000006066500420140723000101 00000000000000000000000000000000000000000000000000000000000000000000000000000000000000000000000000000000000000000N 00000000000NCONT   00    00000000000          00000000000000000000000000000000000000000000 000000000000000A000000000000000000000000000000000000000000000 000000000000000000000000000000000000000     00000000                                                                                                                        000000000000000000
F0010000006066500005000080014190300013552100000000000000000201407230002001QUIMINSA LTDA                                     D000000000006600000000000000000000100010010000000000000000000000F0010000006066500520140723000101 00000000000000000000000000000000000000000000000000000000000000000000000000000000000000000000000000000000000000000N 00000000000NCONT   00    00000000000          00000000000000000000000000000000000000000000 000000000000000A000000000000000000000000000000000000000000000 000000000000000000000000000000000000000     00000000                                                                                                                        000000000000000000
F0010000006066600001000000431178400011050500000000000000000201407230002001EFRAIN ALVAREZ                                    D000000001800000000000000000000000100010010000000000000000000000F0010000006066600120140723000101 00000000000000000000000000000000000000000000000000000000000000000000000000000000000000000000000000000000000000000N 00000000000NCONT   00    00000000000          00000000000000000000000000000000000000000000 000000000000000A000000000000000000000000000000000000000000000 000000000000000000000000000000000000000     00000000                                                                                                                        000000000000000000
F0010000006066600002000000431178400041450500000000000000000201407230002001EFRAIN ALVAREZ                                    C000000001700000000000000000000000100010010000000000000000000000F0010000006066600220140723000101 00000000000000000000000000000000000000000000000000000000000000000000000000000000000000000000000000000000000000000N 00000000000NCONT   00    00000000000          00000000000000000000000000000000000000000000 000000000000000A000000000000000000000000000000000000000000000 000000000000000000000000000000000000000     00000000                                                                                                                        000000000000000000
F0010000006066600003000000431178400042505000000000000000000201407230002001EFRAIN ALVAREZ                                    C000000000100000000000000000000000100010010000000000000000000000F0010000006066600320140723000101 00000000000000000000000000000000000000000000000000000000000000000000000000000000000000000000000000000000000000000N 00000000000NCONT   00    00000000000          00000000000000000000000000000000000000000000 000000000000000A000000000000000000000000000000000000000000000 000000000000000000000000000000000000000     00000000                                                                                                                        000000000000000000
F0010000006066600004000000431178400023658300000000000000000201407230002001EFRAIN ALVAREZ                                    C000000000013600000000000000000000100010010000000000000000000000F0010000006066600420140723000101 00000000000000000000000000000000000000000000000000000000000000000000000000000000000000000000000000000000000000000N 00000000000NCONT   00    00000000000          00000000000000000000000000000000000000000000 000000000000000A000000000000000000000000000000000000000000000 000000000000000000000000000000000000000     00000000                                                                                                                        000000000000000000
F0010000006066600005000000431178400013552100000000000000000201407230002001EFRAIN ALVAREZ                                    D000000000013600000000000000000000100010010000000000000000000000F0010000006066600520140723000101 00000000000000000000000000000000000000000000000000000000000000000000000000000000000000000000000000000000000000000N 00000000000NCONT   00    00000000000          00000000000000000000000000000000000000000000 000000000000000A000000000000000000000000000000000000000000000 000000000000000000000000000000000000000     00000000                                                                                                                        000000000000000000
F0010000006066700001000000431178400011050500000000000000000201407230002001EFRAIN ALVAREZ                                    D000000000900000000000000000000000100010010000000000000000000000F0010000006066700120140723000101 00000000000000000000000000000000000000000000000000000000000000000000000000000000000000000000000000000000000000000N 00000000000NCONT   00    00000000000          00000000000000000000000000000000000000000000 000000000000000A000000000000000000000000000000000000000000000 000000000000000000000000000000000000000     00000000                                                                                                                        000000000000000000
F0010000006066700002000000431178400041450500000000000000000201407230002001EFRAIN ALVAREZ                                    C000000000850000000000000000000000100010010000000000000000000000F0010000006066700220140723000101 00000000000000000000000000000000000000000000000000000000000000000000000000000000000000000000000000000000000000000N 00000000000NCONT   00    00000000000          00000000000000000000000000000000000000000000 000000000000000A000000000000000000000000000000000000000000000 000000000000000000000000000000000000000     00000000                                                                                                                        000000000000000000
F0010000006066700003000000431178400042505000000000000000000201407230002001EFRAIN ALVAREZ                                    C000000000050000000000000000000000100010010000000000000000000000F0010000006066700320140723000101 00000000000000000000000000000000000000000000000000000000000000000000000000000000000000000000000000000000000000000N 00000000000NCONT   00    00000000000          00000000000000000000000000000000000000000000 000000000000000A000000000000000000000000000000000000000000000 000000000000000000000000000000000000000     00000000                                                                                                                        000000000000000000
F0010000006066700004000000431178400023658300000000000000000201407230002001EFRAIN ALVAREZ                                    C000000000006800000000000000000000100010010000000000000000000000F0010000006066700420140723000101 00000000000000000000000000000000000000000000000000000000000000000000000000000000000000000000000000000000000000000N 00000000000NCONT   00    00000000000          00000000000000000000000000000000000000000000 000000000000000A000000000000000000000000000000000000000000000 000000000000000000000000000000000000000     00000000                                                                                                                        000000000000000000
F0010000006066700005000000431178400013552100000000000000000201407230002001EFRAIN ALVAREZ                                    D000000000006800000000000000000000100010010000000000000000000000F0010000006066700520140723000101 00000000000000000000000000000000000000000000000000000000000000000000000000000000000000000000000000000000000000000N 00000000000NCONT   00    00000000000          00000000000000000000000000000000000000000000 000000000000000A000000000000000000000000000000000000000000000 000000000000000000000000000000000000000     00000000                                                                                                                        000000000000000000
F0010000006066800001000000431178400011050500000000000000000201407230002001EFRAIN ALVAREZ                                    D000000000400000000000000000000000100010010000000000000000000000F0010000006066800120140723000101 00000000000000000000000000000000000000000000000000000000000000000000000000000000000000000000000000000000000000000N 00000000000NCONT   00    00000000000          00000000000000000000000000000000000000000000 000000000000000A000000000000000000000000000000000000000000000 000000000000000000000000000000000000000     00000000                                                                                                                        000000000000000000
F0010000006066800002000000431178400041450500000000000000000201407230002001EFRAIN ALVAREZ                                    C000000000350000000000000000000000100010010000000000000000000000F0010000006066800220140723000101 00000000000000000000000000000000000000000000000000000000000000000000000000000000000000000000000000000000000000000N 00000000000NCONT   00    00000000000          00000000000000000000000000000000000000000000 000000000000000A000000000000000000000000000000000000000000000 000000000000000000000000000000000000000     00000000                                                                                                                        000000000000000000
F0010000006066800003000000431178400042505000000000000000000201407230002001EFRAIN ALVAREZ                                    C000000000050000000000000000000000100010010000000000000000000000F0010000006066800320140723000101 00000000000000000000000000000000000000000000000000000000000000000000000000000000000000000000000000000000000000000N 00000000000NCONT   00    00000000000          00000000000000000000000000000000000000000000 000000000000000A000000000000000000000000000000000000000000000 000000000000000000000000000000000000000     00000000                                                                                                                        000000000000000000
F0010000006066800004000000431178400023658300000000000000000201407230002001EFRAIN ALVAREZ                                    C000000000002800000000000000000000100010010000000000000000000000F0010000006066800420140723000101 00000000000000000000000000000000000000000000000000000000000000000000000000000000000000000000000000000000000000000N 00000000000NCONT   00    00000000000          00000000000000000000000000000000000000000000 000000000000000A000000000000000000000000000000000000000000000 000000000000000000000000000000000000000     00000000                                                                                                                        000000000000000000
F0010000006066800005000000431178400013552100000000000000000201407230002001EFRAIN ALVAREZ                                    D000000000002800000000000000000000100010010000000000000000000000F0010000006066800520140723000101 00000000000000000000000000000000000000000000000000000000000000000000000000000000000000000000000000000000000000000N 00000000000NCONT   00    00000000000          00000000000000000000000000000000000000000000 000000000000000A000000000000000000000000000000000000000000000 000000000000000000000000000000000000000     00000000                                                                                                                        000000000000000000
F0010000006066900001000000431178400011050500000000000000000201407230002001EFRAIN ALVAREZ                                    D000000000400000000000000000000000100010010000000000000000000000F0010000006066900120140723000101 00000000000000000000000000000000000000000000000000000000000000000000000000000000000000000000000000000000000000000N 00000000000NCONT   00    00000000000          00000000000000000000000000000000000000000000 000000000000000A000000000000000000000000000000000000000000000 000000000000000000000000000000000000000     00000000                                                                                                                        000000000000000000
F0010000006066900002000000431178400041450500000000000000000201407230002001EFRAIN ALVAREZ                                    C000000000350000000000000000000000100010010000000000000000000000F0010000006066900220140723000101 00000000000000000000000000000000000000000000000000000000000000000000000000000000000000000000000000000000000000000N 00000000000NCONT   00    00000000000          00000000000000000000000000000000000000000000 000000000000000A000000000000000000000000000000000000000000000 000000000000000000000000000000000000000     00000000                                                                                                                        000000000000000000
F0010000006066900003000000431178400042505000000000000000000201407230002001EFRAIN ALVAREZ                                    C000000000050000000000000000000000100010010000000000000000000000F0010000006066900320140723000101 00000000000000000000000000000000000000000000000000000000000000000000000000000000000000000000000000000000000000000N 00000000000NCONT   00    00000000000          00000000000000000000000000000000000000000000 000000000000000A000000000000000000000000000000000000000000000 000000000000000000000000000000000000000     00000000                                                                                                                        000000000000000000
F0010000006066900004000000431178400023658300000000000000000201407230002001EFRAIN ALVAREZ                                    C000000000002800000000000000000000100010010000000000000000000000F0010000006066900420140723000101 00000000000000000000000000000000000000000000000000000000000000000000000000000000000000000000000000000000000000000N 00000000000NCONT   00    00000000000          00000000000000000000000000000000000000000000 000000000000000A000000000000000000000000000000000000000000000 000000000000000000000000000000000000000     00000000                                                                                                                        000000000000000000
F0010000006066900005000000431178400013552100000000000000000201407230002001EFRAIN ALVAREZ                                    D000000000002800000000000000000000100010010000000000000000000000F0010000006066900520140723000101 00000000000000000000000000000000000000000000000000000000000000000000000000000000000000000000000000000000000000000N 00000000000NCONT   00    00000000000          00000000000000000000000000000000000000000000 000000000000000A000000000000000000000000000000000000000000000 000000000000000000000000000000000000000     00000000                                                                                                                        000000000000000000
F0010000006067000001000000431178400011050500000000000000000201407230002001EFRAIN ALVAREZ                                    D000000000400000000000000000000000100010010000000000000000000000F0010000006067000120140723000101 00000000000000000000000000000000000000000000000000000000000000000000000000000000000000000000000000000000000000000N 00000000000NCONT   00    00000000000          00000000000000000000000000000000000000000000 000000000000000A000000000000000000000000000000000000000000000 000000000000000000000000000000000000000     00000000                                                                                                                        000000000000000000
F0010000006067000002000000431178400041450500000000000000000201407230002001EFRAIN ALVAREZ                                    C000000000350000000000000000000000100010010000000000000000000000F0010000006067000220140723000101 00000000000000000000000000000000000000000000000000000000000000000000000000000000000000000000000000000000000000000N 00000000000NCONT   00    00000000000          00000000000000000000000000000000000000000000 000000000000000A000000000000000000000000000000000000000000000 000000000000000000000000000000000000000     00000000                                                                                                                        000000000000000000
F0010000006067000003000000431178400042505000000000000000000201407230002001EFRAIN ALVAREZ                                    C000000000050000000000000000000000100010010000000000000000000000F0010000006067000320140723000101 00000000000000000000000000000000000000000000000000000000000000000000000000000000000000000000000000000000000000000N 00000000000NCONT   00    00000000000          00000000000000000000000000000000000000000000 000000000000000A000000000000000000000000000000000000000000000 000000000000000000000000000000000000000     00000000                                                                                                                        000000000000000000
F0010000006067000004000000431178400023658300000000000000000201407230002001EFRAIN ALVAREZ                                    C000000000002800000000000000000000100010010000000000000000000000F0010000006067000420140723000101 00000000000000000000000000000000000000000000000000000000000000000000000000000000000000000000000000000000000000000N 00000000000NCONT   00    00000000000          00000000000000000000000000000000000000000000 000000000000000A000000000000000000000000000000000000000000000 000000000000000000000000000000000000000     00000000                                                                                                                        000000000000000000
F0010000006067000005000000431178400013552100000000000000000201407230002001EFRAIN ALVAREZ                                    D000000000002800000000000000000000100010010000000000000000000000F0010000006067000520140723000101 00000000000000000000000000000000000000000000000000000000000000000000000000000000000000000000000000000000000000000N 00000000000NCONT   00    00000000000          00000000000000000000000000000000000000000000 000000000000000A000000000000000000000000000000000000000000000 000000000000000000000000000000000000000     00000000                                                                                                                        000000000000000000
F0010000006067100001000000431178400011050500000000000000000201407230002001EFRAIN ALVAREZ                                    D000000002800000000000000000000000100010010000000000000000000000F0010000006067100120140723000101 00000000000000000000000000000000000000000000000000000000000000000000000000000000000000000000000000000000000000000N 00000000000NCONT   00    00000000000          00000000000000000000000000000000000000000000 000000000000000A000000000000000000000000000000000000000000000 000000000000000000000000000000000000000     00000000                                                                                                                        000000000000000000
F0010000006067100002000000431178400041450500000000000000000201407230002001EFRAIN ALVAREZ                                    C000000002600000000000000000000000100010010000000000000000000000F0010000006067100220140723000101 00000000000000000000000000000000000000000000000000000000000000000000000000000000000000000000000000000000000000000N 00000000000NCONT   00    00000000000          00000000000000000000000000000000000000000000 000000000000000A000000000000000000000000000000000000000000000 000000000000000000000000000000000000000     00000000                                                                                                                        000000000000000000
F0010000006067100003000000431178400042505000000000000000000201407230002001EFRAIN ALVAREZ                                    C000000000200000000000000000000000100010010000000000000000000000F0010000006067100320140723000101 00000000000000000000000000000000000000000000000000000000000000000000000000000000000000000000000000000000000000000N 00000000000NCONT   00    00000000000          00000000000000000000000000000000000000000000 000000000000000A000000000000000000000000000000000000000000000 000000000000000000000000000000000000000     00000000                                                                                                                        000000000000000000
F0010000006067100004000000431178400023658300000000000000000201407230002001EFRAIN ALVAREZ                                    C000000000020800000000000000000000100010010000000000000000000000F0010000006067100420140723000101 00000000000000000000000000000000000000000000000000000000000000000000000000000000000000000000000000000000000000000N 00000000000NCONT   00    00000000000          00000000000000000000000000000000000000000000 000000000000000A000000000000000000000000000000000000000000000 000000000000000000000000000000000000000     00000000                                                                                                                        000000000000000000
F0010000006067100005000000431178400013552100000000000000000201407230002001EFRAIN ALVAREZ                                    D000000000020800000000000000000000100010010000000000000000000000F0010000006067100520140723000101 00000000000000000000000000000000000000000000000000000000000000000000000000000000000000000000000000000000000000000N 00000000000NCONT   00    00000000000          00000000000000000000000000000000000000000000 000000000000000A000000000000000000000000000000000000000000000 000000000000000000000000000000000000000     00000000                                                                                                                        000000000000000000
F0010000006067200001000090072516300011050500000000000000000201407230002001COM. GARCIA Y MELENDEZ                            D000000002800000000000000000000000100010010000000000000000000000F0010000006067200120140723000101 00000000000000000000000000000000000000000000000000000000000000000000000000000000000000000000000000000000000000000N 00000000000NCONT   00    00000000000          00000000000000000000000000000000000000000000 000000000000000A000000000000000000000000000000000000000000000 000000000000000000000000000000000000000     00000000                                                                                                                        000000000000000000
F0010000006067200002000090072516300041450500000000000000000201407230002001COM. GARCIA Y MELENDEZ                            C000000002400000000000000000000000100010010000000000000000000000F0010000006067200220140723000101 00000000000000000000000000000000000000000000000000000000000000000000000000000000000000000000000000000000000000000N 00000000000NCONT   00    00000000000          00000000000000000000000000000000000000000000 000000000000000A000000000000000000000000000000000000000000000 000000000000000000000000000000000000000     00000000                                                                                                                        000000000000000000
F0010000006067200003000090072516300042505000000000000000000201407230002001COM. GARCIA Y MELENDEZ                            C000000000400000000000000000000000100010010000000000000000000000F0010000006067200320140723000101 00000000000000000000000000000000000000000000000000000000000000000000000000000000000000000000000000000000000000000N 00000000000NCONT   00    00000000000          00000000000000000000000000000000000000000000 000000000000000A000000000000000000000000000000000000000000000 000000000000000000000000000000000000000     00000000                                                                                                                        000000000000000000
F0010000006067200004000090072516300023658300000000000000000201407230002001COM. GARCIA Y MELENDEZ                            C000000000019200000000000000000000100010010000000000000000000000F0010000006067200420140723000101 00000000000000000000000000000000000000000000000000000000000000000000000000000000000000000000000000000000000000000N 00000000000NCONT   00    00000000000          00000000000000000000000000000000000000000000 000000000000000A000000000000000000000000000000000000000000000 000000000000000000000000000000000000000     00000000                                                                                                                        000000000000000000
F0010000006067200005000090072516300013552100000000000000000201407230002001COM. GARCIA Y MELENDEZ                            D000000000019200000000000000000000100010010000000000000000000000F0010000006067200520140723000101 00000000000000000000000000000000000000000000000000000000000000000000000000000000000000000000000000000000000000000N 00000000000NCONT   00    00000000000          00000000000000000000000000000000000000000000 000000000000000A000000000000000000000000000000000000000000000 000000000000000000000000000000000000000     00000000                                                                                                                        000000000000000000
F0010000006067300001000007229328500011050500000000000000000201407230002001PV ELECTRIC   DEL CARIBE                          D000000001150000000000000000000000100010010000000000000000000000F0010000006067300120140723000101 00000000000000000000000000000000000000000000000000000000000000000000000000000000000000000000000000000000000000000N 00000000000NCONT   00    00000000000          00000000000000000000000000000000000000000000 000000000000000A000000000000000000000000000000000000000000000 000000000000000000000000000000000000000     00000000                                                                                                                        000000000000000000
F0010000006067300002000007229328500041450500000000000000000201407230002001PV ELECTRIC   DEL CARIBE                          C000000000950000000000000000000000100010010000000000000000000000F0010000006067300220140723000101 00000000000000000000000000000000000000000000000000000000000000000000000000000000000000000000000000000000000000000N 00000000000NCONT   00    00000000000          00000000000000000000000000000000000000000000 000000000000000A000000000000000000000000000000000000000000000 000000000000000000000000000000000000000     00000000                                                                                                                        000000000000000000
F0010000006067300003000007229328500042505000000000000000000201407230002001PV ELECTRIC   DEL CARIBE                          C000000000200000000000000000000000100010010000000000000000000000F0010000006067300320140723000101 00000000000000000000000000000000000000000000000000000000000000000000000000000000000000000000000000000000000000000N 00000000000NCONT   00    00000000000          00000000000000000000000000000000000000000000 000000000000000A000000000000000000000000000000000000000000000 000000000000000000000000000000000000000     00000000                                                                                                                        000000000000000000
F0010000006067300004000007229328500023658300000000000000000201407230002001PV ELECTRIC   DEL CARIBE                          C000000000007600000000000000000000100010010000000000000000000000F0010000006067300420140723000101 00000000000000000000000000000000000000000000000000000000000000000000000000000000000000000000000000000000000000000N 00000000000NCONT   00    00000000000          00000000000000000000000000000000000000000000 000000000000000A000000000000000000000000000000000000000000000 000000000000000000000000000000000000000     00000000                                                                                                                        000000000000000000
F0010000006067300005000007229328500013552100000000000000000201407230002001PV ELECTRIC   DEL CARIBE                          D000000000007600000000000000000000100010010000000000000000000000F0010000006067300520140723000101 00000000000000000000000000000000000000000000000000000000000000000000000000000000000000000000000000000000000000000N 00000000000NCONT   00    00000000000          00000000000000000000000000000000000000000000 000000000000000A000000000000000000000000000000000000000000000 000000000000000000000000000000000000000     00000000                                                                                                                        000000000000000000
F0010000006067400001000000000000000011050500000000000000000201407230002001PEDRO GUERRERO                                    D000000040150000000000000000000000100010010000000000000000000000F0010000006067400120140723000101 00000000000000000000000000000000000000000000000000000000000000000000000000000000000000000000000000000000000000000N 00000000000NCONT   00    00000000000          00000000000000000000000000000000000000000000 000000000000000A000000000000000000000000000000000000000000000 000000000000000000000000000000000000000     00000000                                                                                                                        000000000000000000
F0010000006067400002000000000000000041450500000000000000000201407230002001PEDRO GUERRERO                                    C000000033150000000000000000000000100010010000000000000000000000F0010000006067400220140723000101 00000000000000000000000000000000000000000000000000000000000000000000000000000000000000000000000000000000000000000N 00000000000NCONT   00    00000000000          00000000000000000000000000000000000000000000 000000000000000A000000000000000000000000000000000000000000000 000000000000000000000000000000000000000     00000000                                                                                                                        000000000000000000
