F0010000008055600001000080201411900011050500000000000000000201512170002001PLASTISERVICIOS S DE H                            D000000001700000000000000000000000100010010000000000000000000000F0010000008055600120151217000101 00000000000000000000000000000000000000000000000000000000000000000000000000000000000000000000000000000000000000000N 00000000000NCONT   00    00000000000          00000000000000000000000000000000000000000000 000000000000000A000000000000000000000000000000000000000000000 000000000000000000000000000000000000000     00000000                                                                                                                        000000000000000000
F0010000008055600002000080201411900041450500000000000000000201512170002001PLASTISERVICIOS S DE H                            C000000001500000000000000000000000100010010000000000000000000000F0010000008055600220151217000101 00000000000000000000000000000000000000000000000000000000000000000000000000000000000000000000000000000000000000000N 00000000000NCONT   00    00000000000          00000000000000000000000000000000000000000000 000000000000000A000000000000000000000000000000000000000000000 000000000000000000000000000000000000000     00000000                                                                                                                        000000000000000000
F0010000008055600003000080201411900042505000000000000000000201512170002001PLASTISERVICIOS S DE H                            C000000000200000000000000000000000100010010000000000000000000000F0010000008055600320151217000101 00000000000000000000000000000000000000000000000000000000000000000000000000000000000000000000000000000000000000000N 00000000000NCONT   00    00000000000          00000000000000000000000000000000000000000000 000000000000000A000000000000000000000000000000000000000000000 000000000000000000000000000000000000000     00000000                                                                                                                        000000000000000000
F0010000008055600004000080201411900023658300000000000000000201512170002001PLASTISERVICIOS S DE H                            C000000000012000000000000000000000100010010000000000000000000000F0010000008055600420151217000101 00000000000000000000000000000000000000000000000000000000000000000000000000000000000000000000000000000000000000000N 00000000000NCONT   00    00000000000          00000000000000000000000000000000000000000000 000000000000000A000000000000000000000000000000000000000000000 000000000000000000000000000000000000000     00000000                                                                                                                        000000000000000000
F0010000008055600005000080201411900013552100000000000000000201512170002001PLASTISERVICIOS S DE H                            D000000000012000000000000000000000100010010000000000000000000000F0010000008055600520151217000101 00000000000000000000000000000000000000000000000000000000000000000000000000000000000000000000000000000000000000000N 00000000000NCONT   00    00000000000          00000000000000000000000000000000000000000000 000000000000000A000000000000000000000000000000000000000000000 000000000000000000000000000000000000000     00000000                                                                                                                        000000000000000000
F0010000008055700001000089011078600013050500000000000000000201512170002001DIST. NUEVO MUNDO S.A.S.                          D000000012175400000000000000000000100010010000000000000000000000F0010000008055700120151217000101 00000000000000000000000000000000000000000000000000000000000000000000000000000000000000000000000000000000000000000N 00000000000NCONT   00    00000000000          00000000000000000000000000000000000000000000 000000000000000A000000000000000000000000000000000000000000000 000000000000000000000000000000000000000     00000000                                                                                                                        000000000000000000
F0010000008055700002000089011078600041450500000000000000000201512170002001DIST. NUEVO MUNDO S.A.S.                          C000000011479400000000000000000000100010010000000000000000000000F0010000008055700220151217000101 00000000000000000000000000000000000000000000000000000000000000000000000000000000000000000000000000000000000000000N 00000000000NCONT   00    00000000000          00000000000000000000000000000000000000000000 000000000000000A000000000000000000000000000000000000000000000 000000000000000000000000000000000000000     00000000                                                                                                                        000000000000000000
F0010000008055700003000089011078600042505000000000000000000201512170002001DIST. NUEVO MUNDO S.A.S.                          C000000000696000000000000000000000100010010000000000000000000000F0010000008055700320151217000101 00000000000000000000000000000000000000000000000000000000000000000000000000000000000000000000000000000000000000000N 00000000000NCONT   00    00000000000          00000000000000000000000000000000000000000000 000000000000000A000000000000000000000000000000000000000000000 000000000000000000000000000000000000000     00000000                                                                                                                        000000000000000000
F0010000008055700004000089011078600023658300000000000000000201512170002001DIST. NUEVO MUNDO S.A.S.                          C000000000091800000000000000000000100010010000000000000000000000F0010000008055700420151217000101 00000000000000000000000000000000000000000000000000000000000000000000000000000000000000000000000000000000000000000N 00000000000NCONT   00    00000000000          00000000000000000000000000000000000000000000 000000000000000A000000000000000000000000000000000000000000000 000000000000000000000000000000000000000     00000000                                                                                                                        000000000000000000
F0010000008055700005000089011078600013552100000000000000000201512170002001DIST. NUEVO MUNDO S.A.S.                          D000000000091800000000000000000000100010010000000000000000000000F0010000008055700520151217000101 00000000000000000000000000000000000000000000000000000000000000000000000000000000000000000000000000000000000000000N 00000000000NCONT   00    00000000000          00000000000000000000000000000000000000000000 000000000000000A000000000000000000000000000000000000000000000 000000000000000000000000000000000000000     00000000                                                                                                                        000000000000000000
F0010000008055800001000086003979400013050500000000000000000201512170002001CALYPSO BARRANQUILLA LTDA                         D000000030460100000000000000000000100010010000000000000000000000F0010000008055800120151217000101 00000000000000000000000000000000000000000000000000000000000000000000000000000000000000000000000000000000000000000N 00000000000NCONT   00    00000000000          00000000000000000000000000000000000000000000 000000000000000A000000000000000000000000000000000000000000000 000000000000000000000000000000000000000     00000000                                                                                                                        000000000000000000
F0010000008055800002000086003979400041450500000000000000000201512170002001CALYPSO BARRANQUILLA LTDA                         C000000027460000000000000000000000100010010000000000000000000000F0010000008055800220151217000101 00000000000000000000000000000000000000000000000000000000000000000000000000000000000000000000000000000000000000000N 00000000000NCONT   00    00000000000          00000000000000000000000000000000000000000000 000000000000000A000000000000000000000000000000000000000000000 000000000000000000000000000000000000000     00000000                                                                                                                        000000000000000000
F0010000008055800003000086003979400042505000000000000000000201512170002001CALYPSO BARRANQUILLA LTDA                         C000000003000100000000000000000000100010010000000000000000000000F0010000008055800320151217000101 00000000000000000000000000000000000000000000000000000000000000000000000000000000000000000000000000000000000000000N 00000000000NCONT   00    00000000000          00000000000000000000000000000000000000000000 000000000000000A000000000000000000000000000000000000000000000 000000000000000000000000000000000000000     00000000                                                                                                                        000000000000000000
F0010000008055800004000086003979400023658300000000000000000201512170002001CALYPSO BARRANQUILLA LTDA                         C000000000219700000000000000000000100010010000000000000000000000F0010000008055800420151217000101 00000000000000000000000000000000000000000000000000000000000000000000000000000000000000000000000000000000000000000N 00000000000NCONT   00    00000000000          00000000000000000000000000000000000000000000 000000000000000A000000000000000000000000000000000000000000000 000000000000000000000000000000000000000     00000000                                                                                                                        000000000000000000
F0010000008055800005000086003979400013552100000000000000000201512170002001CALYPSO BARRANQUILLA LTDA                         D000000000219700000000000000000000100010010000000000000000000000F0010000008055800520151217000101 00000000000000000000000000000000000000000000000000000000000000000000000000000000000000000000000000000000000000000N 00000000000NCONT   00    00000000000          00000000000000000000000000000000000000000000 000000000000000A000000000000000000000000000000000000000000000 000000000000000000000000000000000000000     00000000                                                                                                                        000000000000000000
F0010000008055900001000090044920600013050500000000000000000201512170002001QUATRO CARIBE SAS                                 D000000014780000000000000000000000100010010000000000000000000000F0010000008055900120151217000101 00000000000000000000000000000000000000000000000000000000000000000000000000000000000000000000000000000000000000000N 00000000000NCONT   00    00000000000          00000000000000000000000000000000000000000000 000000000000000A000000000000000000000000000000000000000000000 000000000000000000000000000000000000000     00000000                                                                                                                        000000000000000000
F0010000008055900002000090044920600041450500000000000000000201512170002001QUATRO CARIBE SAS                                 C000000012730000000000000000000000100010010000000000000000000000F0010000008055900220151217000101 00000000000000000000000000000000000000000000000000000000000000000000000000000000000000000000000000000000000000000N 00000000000NCONT   00    00000000000          00000000000000000000000000000000000000000000 000000000000000A000000000000000000000000000000000000000000000 000000000000000000000000000000000000000     00000000                                                                                                                        000000000000000000
F0010000008055900003000090044920600042505000000000000000000201512170002001QUATRO CARIBE SAS                                 C000000002050000000000000000000000100010010000000000000000000000F0010000008055900320151217000101 00000000000000000000000000000000000000000000000000000000000000000000000000000000000000000000000000000000000000000N 00000000000NCONT   00    00000000000          00000000000000000000000000000000000000000000 000000000000000A000000000000000000000000000000000000000000000 000000000000000000000000000000000000000     00000000                                                                                                                        000000000000000000
F0010000008055900004000090044920600023658300000000000000000201512170002001QUATRO CARIBE SAS                                 C000000000101800000000000000000000100010010000000000000000000000F0010000008055900420151217000101 00000000000000000000000000000000000000000000000000000000000000000000000000000000000000000000000000000000000000000N 00000000000NCONT   00    00000000000          00000000000000000000000000000000000000000000 000000000000000A000000000000000000000000000000000000000000000 000000000000000000000000000000000000000     00000000                                                                                                                        000000000000000000
F0010000008055900005000090044920600013552100000000000000000201512170002001QUATRO CARIBE SAS                                 D000000000101800000000000000000000100010010000000000000000000000F0010000008055900520151217000101 00000000000000000000000000000000000000000000000000000000000000000000000000000000000000000000000000000000000000000N 00000000000NCONT   00    00000000000          00000000000000000000000000000000000000000000 000000000000000A000000000000000000000000000000000000000000000 000000000000000000000000000000000000000     00000000                                                                                                                        000000000000000000
F0010000008056000001000001719393900013050500000000000000000201512170002001JAIRO BASTIDAS RAMIREZ                            D000000012650000000000000000000000100010010000000000000000000000F0010000008056000120151217000101 00000000000000000000000000000000000000000000000000000000000000000000000000000000000000000000000000000000000000000N 00000000000NCONT   00    00000000000          00000000000000000000000000000000000000000000 000000000000000A000000000000000000000000000000000000000000000 000000000000000000000000000000000000000     00000000                                                                                                                        000000000000000000
F0010000008056000002000001719393900041450500000000000000000201512170002001JAIRO BASTIDAS RAMIREZ                            C000000011380000000000000000000000100010010000000000000000000000F0010000008056000220151217000101 00000000000000000000000000000000000000000000000000000000000000000000000000000000000000000000000000000000000000000N 00000000000NCONT   00    00000000000          00000000000000000000000000000000000000000000 000000000000000A000000000000000000000000000000000000000000000 000000000000000000000000000000000000000     00000000                                                                                                                        000000000000000000
F0010000008056000003000001719393900042505000000000000000000201512170002001JAIRO BASTIDAS RAMIREZ                            C000000001270000000000000000000000100010010000000000000000000000F0010000008056000320151217000101 00000000000000000000000000000000000000000000000000000000000000000000000000000000000000000000000000000000000000000N 00000000000NCONT   00    00000000000          00000000000000000000000000000000000000000000 000000000000000A000000000000000000000000000000000000000000000 000000000000000000000000000000000000000     00000000                                                                                                                        000000000000000000
F0010000008056000004000001719393900023658300000000000000000201512170002001JAIRO BASTIDAS RAMIREZ                            C000000000091000000000000000000000100010010000000000000000000000F0010000008056000420151217000101 00000000000000000000000000000000000000000000000000000000000000000000000000000000000000000000000000000000000000000N 00000000000NCONT   00    00000000000          00000000000000000000000000000000000000000000 000000000000000A000000000000000000000000000000000000000000000 000000000000000000000000000000000000000     00000000                                                                                                                        000000000000000000
F0010000008056000005000001719393900013552100000000000000000201512170002001JAIRO BASTIDAS RAMIREZ                            D000000000091000000000000000000000100010010000000000000000000000F0010000008056000520151217000101 00000000000000000000000000000000000000000000000000000000000000000000000000000000000000000000000000000000000000000N 00000000000NCONT   00    00000000000          00000000000000000000000000000000000000000000 000000000000000A000000000000000000000000000000000000000000000 000000000000000000000000000000000000000     00000000                                                                                                                        000000000000000000
F0010000008056100001000004175790100013050500000000000000000201512170002001ROSIRIS FERIA HOYOS  (COSM. SHILLER)              D000000005200000000000000000000000100010010000000000000000000000F0010000008056100120151217000101 00000000000000000000000000000000000000000000000000000000000000000000000000000000000000000000000000000000000000000N 00000000000NCONT   00    00000000000          00000000000000000000000000000000000000000000 000000000000000A000000000000000000000000000000000000000000000 000000000000000000000000000000000000000     00000000                                                                                                                        000000000000000000
F0010000008056100002000004175790100041450500000000000000000201512170002001ROSIRIS FERIA HOYOS  (COSM. SHILLER)              C000000004500000000000000000000000100010010000000000000000000000F0010000008056100220151217000101 00000000000000000000000000000000000000000000000000000000000000000000000000000000000000000000000000000000000000000N 00000000000NCONT   00    00000000000          00000000000000000000000000000000000000000000 000000000000000A000000000000000000000000000000000000000000000 000000000000000000000000000000000000000     00000000                                                                                                                        000000000000000000
F0010000008056100003000004175790100042505000000000000000000201512170002001ROSIRIS FERIA HOYOS  (COSM. SHILLER)              C000000000700000000000000000000000100010010000000000000000000000F0010000008056100320151217000101 00000000000000000000000000000000000000000000000000000000000000000000000000000000000000000000000000000000000000000N 00000000000NCONT   00    00000000000          00000000000000000000000000000000000000000000 000000000000000A000000000000000000000000000000000000000000000 000000000000000000000000000000000000000     00000000                                                                                                                        000000000000000000
F0010000008056100004000004175790100023658300000000000000000201512170002001ROSIRIS FERIA HOYOS  (COSM. SHILLER)              C000000000036000000000000000000000100010010000000000000000000000F0010000008056100420151217000101 00000000000000000000000000000000000000000000000000000000000000000000000000000000000000000000000000000000000000000N 00000000000NCONT   00    00000000000          00000000000000000000000000000000000000000000 000000000000000A000000000000000000000000000000000000000000000 000000000000000000000000000000000000000     00000000                                                                                                                        000000000000000000
F0010000008056100005000004175790100013552100000000000000000201512170002001ROSIRIS FERIA HOYOS  (COSM. SHILLER)              D000000000036000000000000000000000100010010000000000000000000000F0010000008056100520151217000101 00000000000000000000000000000000000000000000000000000000000000000000000000000000000000000000000000000000000000000N 00000000000NCONT   00    00000000000          00000000000000000000000000000000000000000000 000000000000000A000000000000000000000000000000000000000000000 000000000000000000000000000000000000000     00000000                                                                                                                        000000000000000000
F0010000008056200001000000431178400013050500000000000000000201512170002001EFRAIN ALVAREZ                                    D000000002655000000000000000000000100010010000000000000000000000F0010000008056200120151217000101 00000000000000000000000000000000000000000000000000000000000000000000000000000000000000000000000000000000000000000N 00000000000NCONT   00    00000000000          00000000000000000000000000000000000000000000 000000000000000A000000000000000000000000000000000000000000000 000000000000000000000000000000000000000     00000000                                                                                                                        000000000000000000
F0010000008056200002000000431178400041450500000000000000000201512170002001EFRAIN ALVAREZ                                    C000000002380000000000000000000000100010010000000000000000000000F0010000008056200220151217000101 00000000000000000000000000000000000000000000000000000000000000000000000000000000000000000000000000000000000000000N 00000000000NCONT   00    00000000000          00000000000000000000000000000000000000000000 000000000000000A000000000000000000000000000000000000000000000 000000000000000000000000000000000000000     00000000                                                                                                                        000000000000000000
F0010000008056200003000000431178400042505000000000000000000201512170002001EFRAIN ALVAREZ                                    C000000000275000000000000000000000100010010000000000000000000000F0010000008056200320151217000101 00000000000000000000000000000000000000000000000000000000000000000000000000000000000000000000000000000000000000000N 00000000000NCONT   00    00000000000          00000000000000000000000000000000000000000000 000000000000000A000000000000000000000000000000000000000000000 000000000000000000000000000000000000000     00000000                                                                                                                        000000000000000000
F0010000008056200004000000431178400023658300000000000000000201512170002001EFRAIN ALVAREZ                                    C000000000019000000000000000000000100010010000000000000000000000F0010000008056200420151217000101 00000000000000000000000000000000000000000000000000000000000000000000000000000000000000000000000000000000000000000N 00000000000NCONT   00    00000000000          00000000000000000000000000000000000000000000 000000000000000A000000000000000000000000000000000000000000000 000000000000000000000000000000000000000     00000000                                                                                                                        000000000000000000
F0010000008056200005000000431178400013552100000000000000000201512170002001EFRAIN ALVAREZ                                    D000000000019000000000000000000000100010010000000000000000000000F0010000008056200520151217000101 00000000000000000000000000000000000000000000000000000000000000000000000000000000000000000000000000000000000000000N 00000000000NCONT   00    00000000000          00000000000000000000000000000000000000000000 000000000000000A000000000000000000000000000000000000000000000 000000000000000000000000000000000000000     00000000                                                                                                                        000000000000000000
F0010000008056300001000089031248700013050500000000000000000201512170002001DISTRIBUIDORA CALIPLASTICOS LTDA                  D000000037060900000000000000000000100010010000000000000000000000F0010000008056300120151217000101 00000000000000000000000000000000000000000000000000000000000000000000000000000000000000000000000000000000000000000N 00000000000NCONT   00    00000000000          00000000000000000000000000000000000000000000 000000000000000A000000000000000000000000000000000000000000000 000000000000000000000000000000000000000     00000000                                                                                                                        000000000000000000
F0010000008056300002000089031248700041450500000000000000000201512170002001DISTRIBUIDORA CALIPLASTICOS LTDA                  C000000036050900000000000000000000100010010000000000000000000000F0010000008056300220151217000101 00000000000000000000000000000000000000000000000000000000000000000000000000000000000000000000000000000000000000000N 00000000000NCONT   00    00000000000          00000000000000000000000000000000000000000000 000000000000000A000000000000000000000000000000000000000000000 000000000000000000000000000000000000000     00000000                                                                                                                        000000000000000000
F0010000008056300003000089031248700042505000000000000000000201512170002001DISTRIBUIDORA CALIPLASTICOS LTDA                  C000000001010000000000000000000000100010010000000000000000000000F0010000008056300320151217000101 00000000000000000000000000000000000000000000000000000000000000000000000000000000000000000000000000000000000000000N 00000000000NCONT   00    00000000000          00000000000000000000000000000000000000000000 000000000000000A000000000000000000000000000000000000000000000 000000000000000000000000000000000000000     00000000                                                                                                                        000000000000000000
F0010000008056300004000089031248700023658300000000000000000201512170002001DISTRIBUIDORA CALIPLASTICOS LTDA                  C000000000288400000000000000000000100010010000000000000000000000F0010000008056300420151217000101 00000000000000000000000000000000000000000000000000000000000000000000000000000000000000000000000000000000000000000N 00000000000NCONT   00    00000000000          00000000000000000000000000000000000000000000 000000000000000A000000000000000000000000000000000000000000000 000000000000000000000000000000000000000     00000000                                                                                                                        000000000000000000
F0010000008056300005000089031248700013552100000000000000000201512170002001DISTRIBUIDORA CALIPLASTICOS LTDA                  D000000000288400000000000000000000100010010000000000000000000000F0010000008056300520151217000101 00000000000000000000000000000000000000000000000000000000000000000000000000000000000000000000000000000000000000000N 00000000000NCONT   00    00000000000          00000000000000000000000000000000000000000000 000000000000000A000000000000000000000000000000000000000000000 000000000000000000000000000000000000000     00000000                                                                                                                        000000000000000000
F0010000008056400001000007215896800013050500000000000000000201512170002001EDDIER CIRO                                       D000000014146400000000000000000000100010010000000000000000000000F0010000008056400120151217000101 00000000000000000000000000000000000000000000000000000000000000000000000000000000000000000000000000000000000000000N 00000000000NCONT   00    00000000000          00000000000000000000000000000000000000000000 000000000000000A000000000000000000000000000000000000000000000 000000000000000000000000000000000000000     00000000                                                                                                                        000000000000000000
F0010000008056400002000007215896800041450500000000000000000201512170002001EDDIER CIRO                                       C000000011760000000000000000000000100010010000000000000000000000F0010000008056400220151217000101 00000000000000000000000000000000000000000000000000000000000000000000000000000000000000000000000000000000000000000N 00000000000NCONT   00    00000000000          00000000000000000000000000000000000000000000 000000000000000A000000000000000000000000000000000000000000000 000000000000000000000000000000000000000     00000000                                                                                                                        000000000000000000
F0010000008056400003000007215896800042505000000000000000000201512170002001EDDIER CIRO                                       C000000002386400000000000000000000100010010000000000000000000000F0010000008056400320151217000101 00000000000000000000000000000000000000000000000000000000000000000000000000000000000000000000000000000000000000000N 00000000000NCONT   00    00000000000          00000000000000000000000000000000000000000000 000000000000000A000000000000000000000000000000000000000000000 000000000000000000000000000000000000000     00000000                                                                                                                        000000000000000000
F0010000008056400004000007215896800023658300000000000000000201512170002001EDDIER CIRO                                       C000000000094100000000000000000000100010010000000000000000000000F0010000008056400420151217000101 00000000000000000000000000000000000000000000000000000000000000000000000000000000000000000000000000000000000000000N 00000000000NCONT   00    00000000000          00000000000000000000000000000000000000000000 000000000000000A000000000000000000000000000000000000000000000 000000000000000000000000000000000000000     00000000                                                                                                                        000000000000000000
F0010000008056400005000007215896800013552100000000000000000201512170002001EDDIER CIRO                                       D000000000094100000000000000000000100010010000000000000000000000F0010000008056400520151217000101 00000000000000000000000000000000000000000000000000000000000000000000000000000000000000000000000000000000000000000N 00000000000NCONT   00    00000000000          00000000000000000000000000000000000000000000 000000000000000A000000000000000000000000000000000000000000000 000000000000000000000000000000000000000     00000000                                                                                                                        000000000000000000
F0010000008056500001000090013324200013050500000000000000000201512170002001PLASTICOHEN E.U                                   D000000035000000000000000000000000100010010000000000000000000000F0010000008056500120151217000101 00000000000000000000000000000000000000000000000000000000000000000000000000000000000000000000000000000000000000000N 00000000000NCONT   00    00000000000          00000000000000000000000000000000000000000000 000000000000000A000000000000000000000000000000000000000000000 000000000000000000000000000000000000000     00000000                                                                                                                        000000000000000000
F0010000008056500002000090013324200041450500000000000000000201512170002001PLASTICOHEN E.U                                   C000000033000000000000000000000000100010010000000000000000000000F0010000008056500220151217000101 00000000000000000000000000000000000000000000000000000000000000000000000000000000000000000000000000000000000000000N 00000000000NCONT   00    00000000000          00000000000000000000000000000000000000000000 000000000000000A000000000000000000000000000000000000000000000 000000000000000000000000000000000000000     00000000                                                                                                                        000000000000000000
F0010000008056500003000090013324200042505000000000000000000201512170002001PLASTICOHEN E.U                                   C000000002000000000000000000000000100010010000000000000000000000F0010000008056500320151217000101 00000000000000000000000000000000000000000000000000000000000000000000000000000000000000000000000000000000000000000N 00000000000NCONT   00    00000000000          00000000000000000000000000000000000000000000 000000000000000A000000000000000000000000000000000000000000000 000000000000000000000000000000000000000     00000000                                                                                                                        000000000000000000
F0010000008056500004000090013324200023658300000000000000000201512170002001PLASTICOHEN E.U                                   C000000000264000000000000000000000100010010000000000000000000000F0010000008056500420151217000101 00000000000000000000000000000000000000000000000000000000000000000000000000000000000000000000000000000000000000000N 00000000000NCONT   00    00000000000          00000000000000000000000000000000000000000000 000000000000000A000000000000000000000000000000000000000000000 000000000000000000000000000000000000000     00000000                                                                                                                        000000000000000000
F0010000008056500005000090013324200013552100000000000000000201512170002001PLASTICOHEN E.U                                   D000000000264000000000000000000000100010010000000000000000000000F0010000008056500520151217000101 00000000000000000000000000000000000000000000000000000000000000000000000000000000000000000000000000000000000000000N 00000000000NCONT   00    00000000000          00000000000000000000000000000000000000000000 000000000000000A000000000000000000000000000000000000000000000 000000000000000000000000000000000000000     00000000                                                                                                                        000000000000000000
F0010000008056600001000080001063400013050500000000000000000201512170002001PRODUCTOS JULIAO SAS                              D000000039597200000000000000000000100010010000000000000000000000F0010000008056600120151217000101 00000000000000000000000000000000000000000000000000000000000000000000000000000000000000000000000000000000000000000N 00000000000NCONT   00    00000000000          00000000000000000000000000000000000000000000 000000000000000A000000000000000000000000000000000000000000000 000000000000000000000000000000000000000     00000000                                                                                                                        000000000000000000
F0010000008056600002000080001063400041450500000000000000000201512170002001PRODUCTOS JULIAO SAS                              C000000037800000000000000000000000100010010000000000000000000000F0010000008056600220151217000101 00000000000000000000000000000000000000000000000000000000000000000000000000000000000000000000000000000000000000000N 00000000000NCONT   00    00000000000          00000000000000000000000000000000000000000000 000000000000000A000000000000000000000000000000000000000000000 000000000000000000000000000000000000000     00000000                                                                                                                        000000000000000000
F0010000008056600003000080001063400042505000000000000000000201512170002001PRODUCTOS JULIAO SAS                              C000000001797200000000000000000000100010010000000000000000000000F0010000008056600320151217000101 00000000000000000000000000000000000000000000000000000000000000000000000000000000000000000000000000000000000000000N 00000000000NCONT   00    00000000000          00000000000000000000000000000000000000000000 000000000000000A000000000000000000000000000000000000000000000 000000000000000000000000000000000000000     00000000                                                                                                                        000000000000000000
F0010000008056600004000080001063400023658300000000000000000201512170002001PRODUCTOS JULIAO SAS                              C000000000302400000000000000000000100010010000000000000000000000F0010000008056600420151217000101 00000000000000000000000000000000000000000000000000000000000000000000000000000000000000000000000000000000000000000N 00000000000NCONT   00    00000000000          00000000000000000000000000000000000000000000 000000000000000A000000000000000000000000000000000000000000000 000000000000000000000000000000000000000     00000000                                                                                                                        000000000000000000
F0010000008056600005000080001063400013552100000000000000000201512170002001PRODUCTOS JULIAO SAS                              D000000000302400000000000000000000100010010000000000000000000000F0010000008056600520151217000101 00000000000000000000000000000000000000000000000000000000000000000000000000000000000000000000000000000000000000000N 00000000000NCONT   00    00000000000          00000000000000000000000000000000000000000000 000000000000000A000000000000000000000000000000000000000000000 000000000000000000000000000000000000000     00000000                                                                                                                        000000000000000000
F0010000008056700001000080000083500013050500000000000000000201512170002001ALIPAR Y CIA LTDA                                 D000000008200000000000000000000000100010010000000000000000000000F0010000008056700120151217000101 00000000000000000000000000000000000000000000000000000000000000000000000000000000000000000000000000000000000000000N 00000000000NCONT   00    00000000000          00000000000000000000000000000000000000000000 000000000000000A000000000000000000000000000000000000000000000 000000000000000000000000000000000000000     00000000                                                                                                                        000000000000000000
F0010000008056700002000080000083500041450500000000000000000201512170002001ALIPAR Y CIA LTDA                                 C000000007000000000000000000000000100010010000000000000000000000F0010000008056700220151217000101 00000000000000000000000000000000000000000000000000000000000000000000000000000000000000000000000000000000000000000N 00000000000NCONT   00    00000000000          00000000000000000000000000000000000000000000 000000000000000A000000000000000000000000000000000000000000000 000000000000000000000000000000000000000     00000000                                                                                                                        000000000000000000
F0010000008056700003000080000083500042505000000000000000000201512170002001ALIPAR Y CIA LTDA                                 C000000001200000000000000000000000100010010000000000000000000000F0010000008056700320151217000101 00000000000000000000000000000000000000000000000000000000000000000000000000000000000000000000000000000000000000000N 00000000000NCONT   00    00000000000          00000000000000000000000000000000000000000000 000000000000000A000000000000000000000000000000000000000000000 000000000000000000000000000000000000000     00000000                                                                                                                        000000000000000000
F0010000008056700004000080000083500023658300000000000000000201512170002001ALIPAR Y CIA LTDA                                 C000000000056000000000000000000000100010010000000000000000000000F0010000008056700420151217000101 00000000000000000000000000000000000000000000000000000000000000000000000000000000000000000000000000000000000000000N 00000000000NCONT   00    00000000000          00000000000000000000000000000000000000000000 000000000000000A000000000000000000000000000000000000000000000 000000000000000000000000000000000000000     00000000                                                                                                                        000000000000000000
F0010000008056700005000080000083500013552100000000000000000201512170002001ALIPAR Y CIA LTDA                                 D000000000056000000000000000000000100010010000000000000000000000F0010000008056700520151217000101 00000000000000000000000000000000000000000000000000000000000000000000000000000000000000000000000000000000000000000N 00000000000NCONT   00    00000000000          00000000000000000000000000000000000000000000 000000000000000A000000000000000000000000000000000000000000000 000000000000000000000000000000000000000     00000000                                                                                                                        000000000000000000
F0010000008056800001000080202132300013050500000000000000000201512170002001SUM Y SERV DE LA COSTA LTDA                       D000000009480000000000000000000000100010010000000000000000000000F0010000008056800120151217000101 00000000000000000000000000000000000000000000000000000000000000000000000000000000000000000000000000000000000000000N 00000000000NCONT   00    00000000000          00000000000000000000000000000000000000000000 000000000000000A000000000000000000000000000000000000000000000 000000000000000000000000000000000000000     00000000                                                                                                                        000000000000000000
F0010000008056800002000080202132300041450500000000000000000201512170002001SUM Y SERV DE LA COSTA LTDA                       C000000009040000000000000000000000100010010000000000000000000000F0010000008056800220151217000101 00000000000000000000000000000000000000000000000000000000000000000000000000000000000000000000000000000000000000000N 00000000000NCONT   00    00000000000          00000000000000000000000000000000000000000000 000000000000000A000000000000000000000000000000000000000000000 000000000000000000000000000000000000000     00000000                                                                                                                        000000000000000000
F0010000008056800003000080202132300042505000000000000000000201512170002001SUM Y SERV DE LA COSTA LTDA                       C000000000440000000000000000000000100010010000000000000000000000F0010000008056800320151217000101 00000000000000000000000000000000000000000000000000000000000000000000000000000000000000000000000000000000000000000N 00000000000NCONT   00    00000000000          00000000000000000000000000000000000000000000 000000000000000A000000000000000000000000000000000000000000000 000000000000000000000000000000000000000     00000000                                                                                                                        000000000000000000
F0010000008056800004000080202132300023658300000000000000000201512170002001SUM Y SERV DE LA COSTA LTDA                       C000000000072300000000000000000000100010010000000000000000000000F0010000008056800420151217000101 00000000000000000000000000000000000000000000000000000000000000000000000000000000000000000000000000000000000000000N 00000000000NCONT   00    00000000000          00000000000000000000000000000000000000000000 000000000000000A000000000000000000000000000000000000000000000 000000000000000000000000000000000000000     00000000                                                                                                                        000000000000000000
F0010000008056800005000080202132300013552100000000000000000201512170002001SUM Y SERV DE LA COSTA LTDA                       D000000000072300000000000000000000100010010000000000000000000000F0010000008056800520151217000101 00000000000000000000000000000000000000000000000000000000000000000000000000000000000000000000000000000000000000000N 00000000000NCONT   00    00000000000          00000000000000000000000000000000000000000000 000000000000000A000000000000000000000000000000000000000000000 000000000000000000000000000000000000000     00000000                                                                                                                        000000000000000000
F0010000008056900001000089010272700013050500000000000000000201512170002001ALFONSOEME S.A.                                   D000000026388000000000000000000000100010010000000000000000000000F0010000008056900120151217000101 00000000000000000000000000000000000000000000000000000000000000000000000000000000000000000000000000000000000000000N 00000000000NCONT   00    00000000000          00000000000000000000000000000000000000000000 000000000000000A000000000000000000000000000000000000000000000 000000000000000000000000000000000000000     00000000                                                                                                                        000000000000000000
F0010000008056900002000089010272700041450500000000000000000201512170002001ALFONSOEME S.A.                                   C000000027720000000000000000000000100010010000000000000000000000F0010000008056900220151217000101 00000000000000000000000000000000000000000000000000000000000000000000000000000000000000000000000000000000000000000N 00000000000NCONT   00    00000000000          00000000000000000000000000000000000000000000 000000000000000A000000000000000000000000000000000000000000000 000000000000000000000000000000000000000     00000000                                                                                                                        000000000000000000
F0010000008056900003000089010272700041750100000000000000000201512170002001ALFONSOEME S.A.                                   D000000002772000000000000000000000100010010000000000000000000000F0010000008056900320151217000101 00000000000000000000000000000000000000000000000000000000000000000000000000000000000000000000000000000000000000000N 00000000000NCONT   00    00000000000          00000000000000000000000000000000000000000000 000000000000000A000000000000000000000000000000000000000000000 000000000000000000000000000000000000000     00000000                                                                                                                        000000000000000000
F0010000008056900004000089010272700042505000000000000000000201512170002001ALFONSOEME S.A.                                   C000000001440000000000000000000000100010010000000000000000000000F0010000008056900420151217000101 00000000000000000000000000000000000000000000000000000000000000000000000000000000000000000000000000000000000000000N 00000000000NCONT   00    00000000000          00000000000000000000000000000000000000000000 000000000000000A000000000000000000000000000000000000000000000 000000000000000000000000000000000000000     00000000                                                                                                                        000000000000000000
F0010000008056900005000089010272700023658300000000000000000201512170002001ALFONSOEME S.A.                                   C000000000221800000000000000000000100010010000000000000000000000F0010000008056900520151217000101 00000000000000000000000000000000000000000000000000000000000000000000000000000000000000000000000000000000000000000N 00000000000NCONT   00    00000000000          00000000000000000000000000000000000000000000 000000000000000A000000000000000000000000000000000000000000000 000000000000000000000000000000000000000     00000000                                                                                                                        000000000000000000
F0010000008056900006000089010272700013552100000000000000000201512170002001ALFONSOEME S.A.                                   D000000000221800000000000000000000100010010000000000000000000000F0010000008056900620151217000101 00000000000000000000000000000000000000000000000000000000000000000000000000000000000000000000000000000000000000000N 00000000000NCONT   00    00000000000          00000000000000000000000000000000000000000000 000000000000000A000000000000000000000000000000000000000000000 000000000000000000000000000000000000000     00000000                                                                                                                        000000000000000000
F0010000008057000001000090040631000013050500000000000000000201512170002001BEINEX SAS                                        D000000010500000000000000000000000100010010000000000000000000000F0010000008057000120151217000101 00000000000000000000000000000000000000000000000000000000000000000000000000000000000000000000000000000000000000000N 00000000000NCONT   00    00000000000          00000000000000000000000000000000000000000000 000000000000000A000000000000000000000000000000000000000000000 000000000000000000000000000000000000000     00000000                                                                                                                        000000000000000000
F0010000008057000002000090040631000041450500000000000000000201512170002001BEINEX SAS                                        C000000010200000000000000000000000100010010000000000000000000000F0010000008057000220151217000101 00000000000000000000000000000000000000000000000000000000000000000000000000000000000000000000000000000000000000000N 00000000000NCONT   00    00000000000          00000000000000000000000000000000000000000000 000000000000000A000000000000000000000000000000000000000000000 000000000000000000000000000000000000000     00000000                                                                                                                        000000000000000000
F0010000008057000003000090040631000042505000000000000000000201512170002001BEINEX SAS                                        C000000000300000000000000000000000100010010000000000000000000000F0010000008057000320151217000101 00000000000000000000000000000000000000000000000000000000000000000000000000000000000000000000000000000000000000000N 00000000000NCONT   00    00000000000          00000000000000000000000000000000000000000000 000000000000000A000000000000000000000000000000000000000000000 000000000000000000000000000000000000000     00000000                                                                                                                        000000000000000000
F0010000008057000004000090040631000023658300000000000000000201512170002001BEINEX SAS                                        C000000000081600000000000000000000100010010000000000000000000000F0010000008057000420151217000101 00000000000000000000000000000000000000000000000000000000000000000000000000000000000000000000000000000000000000000N 00000000000NCONT   00    00000000000          00000000000000000000000000000000000000000000 000000000000000A000000000000000000000000000000000000000000000 000000000000000000000000000000000000000     00000000                                                                                                                        000000000000000000
F0010000008057000005000090040631000013552100000000000000000201512170002001BEINEX SAS                                        D000000000081600000000000000000000100010010000000000000000000000F0010000008057000520151217000101 00000000000000000000000000000000000000000000000000000000000000000000000000000000000000000000000000000000000000000N 00000000000NCONT   00    00000000000          00000000000000000000000000000000000000000000 000000000000000A000000000000000000000000000000000000000000000 000000000000000000000000000000000000000     00000000                                                                                                                        000000000000000000
F0010000008057100001000000870907300013050500000000000000000201512170002001SURTIDOR FERRETERO                                D000000041860400000000000000000000100010010000000000000000000000F0010000008057100120151217000101 00000000000000000000000000000000000000000000000000000000000000000000000000000000000000000000000000000000000000000N 00000000000NCONT   00    00000000000          00000000000000000000000000000000000000000000 000000000000000A000000000000000000000000000000000000000000000 000000000000000000000000000000000000000     00000000                                                                                                                        000000000000000000
F0010000008057100002000000870907300041450500000000000000000201512170002001SURTIDOR FERRETERO                                C000000034360000000000000000000000100010010000000000000000000000F0010000008057100220151217000101 00000000000000000000000000000000000000000000000000000000000000000000000000000000000000000000000000000000000000000N 00000000000NCONT   00    00000000000          00000000000000000000000000000000000000000000 000000000000000A000000000000000000000000000000000000000000000 000000000000000000000000000000000000000     00000000                                                                                                                        000000000000000000
F0010000008057100003000000870907300041750100000000000000000201512170002001SURTIDOR FERRETERO                                D000000003436000000000000000000000100010010000000000000000000000F0010000008057100320151217000101 00000000000000000000000000000000000000000000000000000000000000000000000000000000000000000000000000000000000000000N 00000000000NCONT   00    00000000000          00000000000000000000000000000000000000000000 000000000000000A000000000000000000000000000000000000000000000 000000000000000000000000000000000000000     00000000                                                                                                                        000000000000000000
F0010000008057100004000000870907300042505000000000000000000201512170002001SURTIDOR FERRETERO                                C000000010936400000000000000000000100010010000000000000000000000F0010000008057100420151217000101 00000000000000000000000000000000000000000000000000000000000000000000000000000000000000000000000000000000000000000N 00000000000NCONT   00    00000000000          00000000000000000000000000000000000000000000 000000000000000A000000000000000000000000000000000000000000000 000000000000000000000000000000000000000     00000000                                                                                                                        000000000000000000
F0010000008057100005000000870907300023658300000000000000000201512170002001SURTIDOR FERRETERO                                C000000000274900000000000000000000100010010000000000000000000000F0010000008057100520151217000101 00000000000000000000000000000000000000000000000000000000000000000000000000000000000000000000000000000000000000000N 00000000000NCONT   00    00000000000          00000000000000000000000000000000000000000000 000000000000000A000000000000000000000000000000000000000000000 000000000000000000000000000000000000000     00000000                                                                                                                        000000000000000000
F0010000008057100006000000870907300013552100000000000000000201512170002001SURTIDOR FERRETERO                                D000000000274900000000000000000000100010010000000000000000000000F0010000008057100620151217000101 00000000000000000000000000000000000000000000000000000000000000000000000000000000000000000000000000000000000000000N 00000000000NCONT   00    00000000000          00000000000000000000000000000000000000000000 000000000000000A000000000000000000000000000000000000000000000 000000000000000000000000000000000000000     00000000                                                                                                                        000000000000000000
F0010000008057200001000089010952800013050500000000000000000201512170002001IND. LITOGRAF. BOSTON S.A.S.                      D000000013810000000000000000000000100010010000000000000000000000F0010000008057200120151217000101 00000000000000000000000000000000000000000000000000000000000000000000000000000000000000000000000000000000000000000N 00000000000NCONT   00    00000000000          00000000000000000000000000000000000000000000 000000000000000A000000000000000000000000000000000000000000000 000000000000000000000000000000000000000     00000000                                                                                                                        000000000000000000
F0010000008057200002000089010952800041450500000000000000000201512170002001IND. LITOGRAF. BOSTON S.A.S.                      C000000011510000000000000000000000100010010000000000000000000000F0010000008057200220151217000101 00000000000000000000000000000000000000000000000000000000000000000000000000000000000000000000000000000000000000000N 00000000000NCONT   00    00000000000          00000000000000000000000000000000000000000000 000000000000000A000000000000000000000000000000000000000000000 000000000000000000000000000000000000000     00000000                                                                                                                        000000000000000000
F0010000008057200003000089010952800042505000000000000000000201512170002001IND. LITOGRAF. BOSTON S.A.S.                      C000000002300000000000000000000000100010010000000000000000000000F0010000008057200320151217000101 00000000000000000000000000000000000000000000000000000000000000000000000000000000000000000000000000000000000000000N 00000000000NCONT   00    00000000000          00000000000000000000000000000000000000000000 000000000000000A000000000000000000000000000000000000000000000 000000000000000000000000000000000000000     00000000                                                                                                                        000000000000000000
F0010000008057200004000089010952800023658300000000000000000201512170002001IND. LITOGRAF. BOSTON S.A.S.                      C000000000092100000000000000000000100010010000000000000000000000F0010000008057200420151217000101 00000000000000000000000000000000000000000000000000000000000000000000000000000000000000000000000000000000000000000N 00000000000NCONT   00    00000000000          00000000000000000000000000000000000000000000 000000000000000A000000000000000000000000000000000000000000000 000000000000000000000000000000000000000     00000000                                                                                                                        000000000000000000
F0010000008057200005000089010952800013552100000000000000000201512170002001IND. LITOGRAF. BOSTON S.A.S.                      D000000000092100000000000000000000100010010000000000000000000000F0010000008057200520151217000101 00000000000000000000000000000000000000000000000000000000000000000000000000000000000000000000000000000000000000000N 00000000000NCONT   00    00000000000          00000000000000000000000000000000000000000000 000000000000000A000000000000000000000000000000000000000000000 000000000000000000000000000000000000000     00000000                                                                                                                        000000000000000000
F0010000008057300001000090050863700013050500000000000000000201512170002001COMERCIALIZADORA PERFECT SAS                      D000000009550000000000000000000000100010010000000000000000000000F0010000008057300120151217000101 00000000000000000000000000000000000000000000000000000000000000000000000000000000000000000000000000000000000000000N 00000000000NCONT   00    00000000000          00000000000000000000000000000000000000000000 000000000000000A000000000000000000000000000000000000000000000 000000000000000000000000000000000000000     00000000                                                                                                                        000000000000000000
F0010000008057300002000090050863700041450500000000000000000201512170002001COMERCIALIZADORA PERFECT SAS                      C000000005500000000000000000000000100010010000000000000000000000F0010000008057300220151217000101 00000000000000000000000000000000000000000000000000000000000000000000000000000000000000000000000000000000000000000N 00000000000NCONT   00    00000000000          00000000000000000000000000000000000000000000 000000000000000A000000000000000000000000000000000000000000000 000000000000000000000000000000000000000     00000000                                                                                                                        000000000000000000
F0010000008057300003000090050863700042505000000000000000000201512170002001COMERCIALIZADORA PERFECT SAS                      C000000004050000000000000000000000100010010000000000000000000000F0010000008057300320151217000101 00000000000000000000000000000000000000000000000000000000000000000000000000000000000000000000000000000000000000000N 00000000000NCONT   00    00000000000          00000000000000000000000000000000000000000000 000000000000000A000000000000000000000000000000000000000000000 000000000000000000000000000000000000000     00000000                                                                                                                        000000000000000000
F0010000008057300004000090050863700023658300000000000000000201512170002001COMERCIALIZADORA PERFECT SAS                      C000000000044000000000000000000000100010010000000000000000000000F0010000008057300420151217000101 00000000000000000000000000000000000000000000000000000000000000000000000000000000000000000000000000000000000000000N 00000000000NCONT   00    00000000000          00000000000000000000000000000000000000000000 000000000000000A000000000000000000000000000000000000000000000 000000000000000000000000000000000000000     00000000                                                                                                                        000000000000000000
F0010000008057300005000090050863700013552100000000000000000201512170002001COMERCIALIZADORA PERFECT SAS                      D000000000044000000000000000000000100010010000000000000000000000F0010000008057300520151217000101 00000000000000000000000000000000000000000000000000000000000000000000000000000000000000000000000000000000000000000N 00000000000NCONT   00    00000000000          00000000000000000000000000000000000000000000 000000000000000A000000000000000000000000000000000000000000000 000000000000000000000000000000000000000     00000000                                                                                                                        000000000000000000
F0010000008057400001000003265780700013050500000000000000000201512170002001ZUNILDA GUERRERO                                  D000000006000000000000000000000000100010010000000000000000000000F0010000008057400120151217000101 00000000000000000000000000000000000000000000000000000000000000000000000000000000000000000000000000000000000000000N 00000000000NCONT   00    00000000000          00000000000000000000000000000000000000000000 000000000000000A000000000000000000000000000000000000000000000 000000000000000000000000000000000000000     00000000                                                                                                                        000000000000000000
F0010000008057400002000003265780700041450500000000000000000201512170002001ZUNILDA GUERRERO                                  C000000004000000000000000000000000100010010000000000000000000000F0010000008057400220151217000101 00000000000000000000000000000000000000000000000000000000000000000000000000000000000000000000000000000000000000000N 00000000000NCONT   00    00000000000          00000000000000000000000000000000000000000000 000000000000000A000000000000000000000000000000000000000000000 000000000000000000000000000000000000000     00000000                                                                                                                        000000000000000000
F0010000008057400003000003265780700042505000000000000000000201512170002001ZUNILDA GUERRERO                                  C000000002000000000000000000000000100010010000000000000000000000F0010000008057400320151217000101 00000000000000000000000000000000000000000000000000000000000000000000000000000000000000000000000000000000000000000N 00000000000NCONT   00    00000000000          00000000000000000000000000000000000000000000 000000000000000A000000000000000000000000000000000000000000000 000000000000000000000000000000000000000     00000000                                                                                                                        000000000000000000
F0010000008057400004000003265780700023658300000000000000000201512170002001ZUNILDA GUERRERO                                  C000000000032000000000000000000000100010010000000000000000000000F0010000008057400420151217000101 00000000000000000000000000000000000000000000000000000000000000000000000000000000000000000000000000000000000000000N 00000000000NCONT   00    00000000000          00000000000000000000000000000000000000000000 000000000000000A000000000000000000000000000000000000000000000 000000000000000000000000000000000000000     00000000                                                                                                                        000000000000000000
F0010000008057400005000003265780700013552100000000000000000201512170002001ZUNILDA GUERRERO                                  D000000000032000000000000000000000100010010000000000000000000000F0010000008057400520151217000101 00000000000000000000000000000000000000000000000000000000000000000000000000000000000000000000000000000000000000000N 00000000000NCONT   00    00000000000          00000000000000000000000000000000000000000000 000000000000000A000000000000000000000000000000000000000000000 000000000000000000000000000000000000000     00000000                                                                                                                        000000000000000000
F0010000008057500001000001022529300013050500000000000000000201512170002001ALBERTO ALVAREZ ISAZA                             D000000003150000000000000000000000100010010000000000000000000000F0010000008057500120151217000101 00000000000000000000000000000000000000000000000000000000000000000000000000000000000000000000000000000000000000000N 00000000000NCONT   00    00000000000          00000000000000000000000000000000000000000000 000000000000000A000000000000000000000000000000000000000000000 000000000000000000000000000000000000000     00000000                                                                                                                        000000000000000000
F0010000008057500002000001022529300041450500000000000000000201512170002001ALBERTO ALVAREZ ISAZA                             C000000003150000000000000000000000100010010000000000000000000000F0010000008057500220151217000101 00000000000000000000000000000000000000000000000000000000000000000000000000000000000000000000000000000000000000000N 00000000000NCONT   00    00000000000          00000000000000000000000000000000000000000000 000000000000000A000000000000000000000000000000000000000000000 000000000000000000000000000000000000000     00000000                                                                                                                        000000000000000000
F0010000008057500003000001022529300042505000000000000000000201512170002001ALBERTO ALVAREZ ISAZA                             C000000000000000000000000000000000100010010000000000000000000000F0010000008057500320151217000101 00000000000000000000000000000000000000000000000000000000000000000000000000000000000000000000000000000000000000000N 00000000000NCONT   00    00000000000          00000000000000000000000000000000000000000000 000000000000000A000000000000000000000000000000000000000000000 000000000000000000000000000000000000000     00000000                                                                                                                        000000000000000000
F0010000008057500004000001022529300023658300000000000000000201512170002001ALBERTO ALVAREZ ISAZA                             C000000000025200000000000000000000100010010000000000000000000000F0010000008057500420151217000101 00000000000000000000000000000000000000000000000000000000000000000000000000000000000000000000000000000000000000000N 00000000000NCONT   00    00000000000          00000000000000000000000000000000000000000000 000000000000000A000000000000000000000000000000000000000000000 000000000000000000000000000000000000000     00000000                                                                                                                        000000000000000000
F0010000008057500005000001022529300013552100000000000000000201512170002001ALBERTO ALVAREZ ISAZA                             D000000000025200000000000000000000100010010000000000000000000000F0010000008057500520151217000101 00000000000000000000000000000000000000000000000000000000000000000000000000000000000000000000000000000000000000000N 00000000000NCONT   00    00000000000          00000000000000000000000000000000000000000000 000000000000000A000000000000000000000000000000000000000000000 000000000000000000000000000000000000000     00000000                                                                                                                        000000000000000000
F0010000008057600001000090007142100013050500000000000000000201512170002001TODO BELLEZA Y MAX S.A.S                          D000000002120000000000000000000000100010010000000000000000000000F0010000008057600120151217000101 00000000000000000000000000000000000000000000000000000000000000000000000000000000000000000000000000000000000000000N 00000000000NCONT   00    00000000000          00000000000000000000000000000000000000000000 000000000000000A000000000000000000000000000000000000000000000 000000000000000000000000000000000000000     00000000                                                                                                                        000000000000000000
F0010000008057600002000090007142100041450500000000000000000201512170002001TODO BELLEZA Y MAX S.A.S                          C000000001920000000000000000000000100010010000000000000000000000F0010000008057600220151217000101 00000000000000000000000000000000000000000000000000000000000000000000000000000000000000000000000000000000000000000N 00000000000NCONT   00    00000000000          00000000000000000000000000000000000000000000 000000000000000A000000000000000000000000000000000000000000000 000000000000000000000000000000000000000     00000000                                                                                                                        000000000000000000
F0010000008057600003000090007142100042505000000000000000000201512170002001TODO BELLEZA Y MAX S.A.S                          C000000000200000000000000000000000100010010000000000000000000000F0010000008057600320151217000101 00000000000000000000000000000000000000000000000000000000000000000000000000000000000000000000000000000000000000000N 00000000000NCONT   00    00000000000          00000000000000000000000000000000000000000000 000000000000000A000000000000000000000000000000000000000000000 000000000000000000000000000000000000000     00000000                                                                                                                        000000000000000000
F0010000008057600004000090007142100023658300000000000000000201512170002001TODO BELLEZA Y MAX S.A.S                          C000000000015400000000000000000000100010010000000000000000000000F0010000008057600420151217000101 00000000000000000000000000000000000000000000000000000000000000000000000000000000000000000000000000000000000000000N 00000000000NCONT   00    00000000000          00000000000000000000000000000000000000000000 000000000000000A000000000000000000000000000000000000000000000 000000000000000000000000000000000000000     00000000                                                                                                                        000000000000000000
F0010000008057600005000090007142100013552100000000000000000201512170002001TODO BELLEZA Y MAX S.A.S                          D000000000015400000000000000000000100010010000000000000000000000F0010000008057600520151217000101 00000000000000000000000000000000000000000000000000000000000000000000000000000000000000000000000000000000000000000N 00000000000NCONT   00    00000000000          00000000000000000000000000000000000000000000 000000000000000A000000000000000000000000000000000000000000000 000000000000000000000000000000000000000     00000000                                                                                                                        000000000000000000
F0010000008057700001000089030195100013050500000000000000000201512170002001LIBRERIA NACIONAL S.A.                            D000000012640000000000000000000000100010010000000000000000000000F0010000008057700120151217000101 00000000000000000000000000000000000000000000000000000000000000000000000000000000000000000000000000000000000000000N 00000000000NCONT   00    00000000000          00000000000000000000000000000000000000000000 000000000000000A000000000000000000000000000000000000000000000 000000000000000000000000000000000000000     00000000                                                                                                                        000000000000000000
F0010000008057700002000089030195100041450500000000000000000201512170002001LIBRERIA NACIONAL S.A.                            C000000010140000000000000000000000100010010000000000000000000000F0010000008057700220151217000101 00000000000000000000000000000000000000000000000000000000000000000000000000000000000000000000000000000000000000000N 00000000000NCONT   00    00000000000          00000000000000000000000000000000000000000000 000000000000000A000000000000000000000000000000000000000000000 000000000000000000000000000000000000000     00000000                                                                                                                        000000000000000000
F0010000008057700003000089030195100042505000000000000000000201512170002001LIBRERIA NACIONAL S.A.                            C000000002500000000000000000000000100010010000000000000000000000F0010000008057700320151217000101 00000000000000000000000000000000000000000000000000000000000000000000000000000000000000000000000000000000000000000N 00000000000NCONT   00    00000000000          00000000000000000000000000000000000000000000 000000000000000A000000000000000000000000000000000000000000000 000000000000000000000000000000000000000     00000000                                                                                                                        000000000000000000
F0010000008057700004000089030195100023658300000000000000000201512170002001LIBRERIA NACIONAL S.A.                            C000000000081100000000000000000000100010010000000000000000000000F0010000008057700420151217000101 00000000000000000000000000000000000000000000000000000000000000000000000000000000000000000000000000000000000000000N 00000000000NCONT   00    00000000000          00000000000000000000000000000000000000000000 000000000000000A000000000000000000000000000000000000000000000 000000000000000000000000000000000000000     00000000                                                                                                                        000000000000000000
F0010000008057700005000089030195100013552100000000000000000201512170002001LIBRERIA NACIONAL S.A.                            D000000000081100000000000000000000100010010000000000000000000000F0010000008057700520151217000101 00000000000000000000000000000000000000000000000000000000000000000000000000000000000000000000000000000000000000000N 00000000000NCONT   00    00000000000          00000000000000000000000000000000000000000000 000000000000000A000000000000000000000000000000000000000000000 000000000000000000000000000000000000000     00000000                                                                                                                        000000000000000000
F0010000008057800001000080200250700013050500000000000000000201512170002001ETICOL SAS                                        D000000016050000000000000000000000100010010000000000000000000000F0010000008057800120151217000101 00000000000000000000000000000000000000000000000000000000000000000000000000000000000000000000000000000000000000000N 00000000000NCONT   00    00000000000          00000000000000000000000000000000000000000000 000000000000000A000000000000000000000000000000000000000000000 000000000000000000000000000000000000000     00000000                                                                                                                        000000000000000000
F0010000008057800002000080200250700041450500000000000000000201512170002001ETICOL SAS                                        C000000015550000000000000000000000100010010000000000000000000000F0010000008057800220151217000101 00000000000000000000000000000000000000000000000000000000000000000000000000000000000000000000000000000000000000000N 00000000000NCONT   00    00000000000          00000000000000000000000000000000000000000000 000000000000000A000000000000000000000000000000000000000000000 000000000000000000000000000000000000000     00000000                                                                                                                        000000000000000000
F0010000008057800003000080200250700042505000000000000000000201512170002001ETICOL SAS                                        C000000000500000000000000000000000100010010000000000000000000000F0010000008057800320151217000101 00000000000000000000000000000000000000000000000000000000000000000000000000000000000000000000000000000000000000000N 00000000000NCONT   00    00000000000          00000000000000000000000000000000000000000000 000000000000000A000000000000000000000000000000000000000000000 000000000000000000000000000000000000000     00000000                                                                                                                        000000000000000000
F0010000008057800004000080200250700023658300000000000000000201512170002001ETICOL SAS                                        C000000000124400000000000000000000100010010000000000000000000000F0010000008057800420151217000101 00000000000000000000000000000000000000000000000000000000000000000000000000000000000000000000000000000000000000000N 00000000000NCONT   00    00000000000          00000000000000000000000000000000000000000000 000000000000000A000000000000000000000000000000000000000000000 000000000000000000000000000000000000000     00000000                                                                                                                        000000000000000000
F0010000008057800005000080200250700013552100000000000000000201512170002001ETICOL SAS                                        D000000000124400000000000000000000100010010000000000000000000000F0010000008057800520151217000101 00000000000000000000000000000000000000000000000000000000000000000000000000000000000000000000000000000000000000000N 00000000000NCONT   00    00000000000          00000000000000000000000000000000000000000000 000000000000000A000000000000000000000000000000000000000000000 000000000000000000000000000000000000000     00000000                                                                                                                        000000000000000000
F0010000008057900001000080016664500013050500000000000000000201512170002001TELAPLAS PANCER SAS                               D000000006871000000000000000000000100010010000000000000000000000F0010000008057900120151217000101 00000000000000000000000000000000000000000000000000000000000000000000000000000000000000000000000000000000000000000N 00000000000NCONT   00    00000000000          00000000000000000000000000000000000000000000 000000000000000A000000000000000000000000000000000000000000000 000000000000000000000000000000000000000     00000000                                                                                                                        000000000000000000
F0010000008057900002000080016664500041450500000000000000000201512170002001TELAPLAS PANCER SAS                               C000000005970000000000000000000000100010010000000000000000000000F0010000008057900220151217000101 00000000000000000000000000000000000000000000000000000000000000000000000000000000000000000000000000000000000000000N 00000000000NCONT   00    00000000000          00000000000000000000000000000000000000000000 000000000000000A000000000000000000000000000000000000000000000 000000000000000000000000000000000000000     00000000                                                                                                                        000000000000000000
F0010000008057900003000080016664500042505000000000000000000201512170002001TELAPLAS PANCER SAS                               C000000000901000000000000000000000100010010000000000000000000000F0010000008057900320151217000101 00000000000000000000000000000000000000000000000000000000000000000000000000000000000000000000000000000000000000000N 00000000000NCONT   00    00000000000          00000000000000000000000000000000000000000000 000000000000000A000000000000000000000000000000000000000000000 000000000000000000000000000000000000000     00000000                                                                                                                        000000000000000000
F0010000008057900004000080016664500023658300000000000000000201512170002001TELAPLAS PANCER SAS                               C000000000047800000000000000000000100010010000000000000000000000F0010000008057900420151217000101 00000000000000000000000000000000000000000000000000000000000000000000000000000000000000000000000000000000000000000N 00000000000NCONT   00    00000000000          00000000000000000000000000000000000000000000 000000000000000A000000000000000000000000000000000000000000000 000000000000000000000000000000000000000     00000000                                                                                                                        000000000000000000
F0010000008057900005000080016664500013552100000000000000000201512170002001TELAPLAS PANCER SAS                               D000000000047800000000000000000000100010010000000000000000000000F0010000008057900520151217000101 00000000000000000000000000000000000000000000000000000000000000000000000000000000000000000000000000000000000000000N 00000000000NCONT   00    00000000000          00000000000000000000000000000000000000000000 000000000000000A000000000000000000000000000000000000000000000 000000000000000000000000000000000000000     00000000                                                                                                                        000000000000000000
F0010000008058000001000089011492400013050500000000000000000201512170002001AGE. CAUCHO SOL DE LA COSTA  SAS                  D000000033621900000000000000000000100010010000000000000000000000F0010000008058000120151217000101 00000000000000000000000000000000000000000000000000000000000000000000000000000000000000000000000000000000000000000N 00000000000NCONT   00    00000000000          00000000000000000000000000000000000000000000 000000000000000A000000000000000000000000000000000000000000000 000000000000000000000000000000000000000     00000000                                                                                                                        000000000000000000
F0010000008058000002000089011492400041450500000000000000000201512170002001AGE. CAUCHO SOL DE LA COSTA  SAS                  C000000023160000000000000000000000100010010000000000000000000000F0010000008058000220151217000101 00000000000000000000000000000000000000000000000000000000000000000000000000000000000000000000000000000000000000000N 00000000000NCONT   00    00000000000          00000000000000000000000000000000000000000000 000000000000000A000000000000000000000000000000000000000000000 000000000000000000000000000000000000000     00000000                                                                                                                        000000000000000000
F0010000008058000003000089011492400042505000000000000000000201512170002001AGE. CAUCHO SOL DE LA COSTA  SAS                  C000000010461900000000000000000000100010010000000000000000000000F0010000008058000320151217000101 00000000000000000000000000000000000000000000000000000000000000000000000000000000000000000000000000000000000000000N 00000000000NCONT   00    00000000000          00000000000000000000000000000000000000000000 000000000000000A000000000000000000000000000000000000000000000 000000000000000000000000000000000000000     00000000                                                                                                                        000000000000000000
F0010000008058000004000089011492400023658300000000000000000201512170002001AGE. CAUCHO SOL DE LA COSTA  SAS                  C000000000185300000000000000000000100010010000000000000000000000F0010000008058000420151217000101 00000000000000000000000000000000000000000000000000000000000000000000000000000000000000000000000000000000000000000N 00000000000NCONT   00    00000000000          00000000000000000000000000000000000000000000 000000000000000A000000000000000000000000000000000000000000000 000000000000000000000000000000000000000     00000000                                                                                                                        000000000000000000
F0010000008058000005000089011492400013552100000000000000000201512170002001AGE. CAUCHO SOL DE LA COSTA  SAS                  D000000000185300000000000000000000100010010000000000000000000000F0010000008058000520151217000101 00000000000000000000000000000000000000000000000000000000000000000000000000000000000000000000000000000000000000000N 00000000000NCONT   00    00000000000          00000000000000000000000000000000000000000000 000000000000000A000000000000000000000000000000000000000000000 000000000000000000000000000000000000000     00000000                                                                                                                        000000000000000000
F0010000008058100001000089010260300013050500000000000000000201512170002001FEDERICO OSORIO A. S.A.                           D000000092691500000000000000000000100010010000000000000000000000F0010000008058100120151217000101 00000000000000000000000000000000000000000000000000000000000000000000000000000000000000000000000000000000000000000N 00000000000NCONT   00    00000000000          00000000000000000000000000000000000000000000 000000000000000A000000000000000000000000000000000000000000000 000000000000000000000000000000000000000     00000000                                                                                                                        000000000000000000
F0010000008058100002000089010260300041450500000000000000000201512170002001FEDERICO OSORIO A. S.A.                           C000000086040000000000000000000000100010010000000000000000000000F0010000008058100220151217000101 00000000000000000000000000000000000000000000000000000000000000000000000000000000000000000000000000000000000000000N 00000000000NCONT   00    00000000000          00000000000000000000000000000000000000000000 000000000000000A000000000000000000000000000000000000000000000 000000000000000000000000000000000000000     00000000                                                                                                                        000000000000000000
F0010000008058100003000089010260300042505000000000000000000201512170002001FEDERICO OSORIO A. S.A.                           C000000006651500000000000000000000100010010000000000000000000000F0010000008058100320151217000101 00000000000000000000000000000000000000000000000000000000000000000000000000000000000000000000000000000000000000000N 00000000000NCONT   00    00000000000          00000000000000000000000000000000000000000000 000000000000000A000000000000000000000000000000000000000000000 000000000000000000000000000000000000000     00000000                                                                                                                        000000000000000000
F0010000008058100004000089010260300023658300000000000000000201512170002001FEDERICO OSORIO A. S.A.                           C000000000688300000000000000000000100010010000000000000000000000F0010000008058100420151217000101 00000000000000000000000000000000000000000000000000000000000000000000000000000000000000000000000000000000000000000N 00000000000NCONT   00    00000000000          00000000000000000000000000000000000000000000 000000000000000A000000000000000000000000000000000000000000000 000000000000000000000000000000000000000     00000000                                                                                                                        000000000000000000
F0010000008058100005000089010260300013552100000000000000000201512170002001FEDERICO OSORIO A. S.A.                           D000000000688300000000000000000000100010010000000000000000000000F0010000008058100520151217000101 00000000000000000000000000000000000000000000000000000000000000000000000000000000000000000000000000000000000000000N 00000000000NCONT   00    00000000000          00000000000000000000000000000000000000000000 000000000000000A000000000000000000000000000000000000000000000 000000000000000000000000000000000000000     00000000                                                                                                                        000000000000000000
F0010000008058200001000090064982900013050500000000000000000201512170002001DISDIES S.A.S                                     D000000010715200000000000000000000100010010000000000000000000000F0010000008058200120151217000101 00000000000000000000000000000000000000000000000000000000000000000000000000000000000000000000000000000000000000000N 00000000000NCONT   00    00000000000          00000000000000000000000000000000000000000000 000000000000000A000000000000000000000000000000000000000000000 000000000000000000000000000000000000000     00000000                                                                                                                        000000000000000000
F0010000008058200002000090064982900041450500000000000000000201512170002001DISDIES S.A.S                                     C000000008722000000000000000000000100010010000000000000000000000F0010000008058200220151217000101 00000000000000000000000000000000000000000000000000000000000000000000000000000000000000000000000000000000000000000N 00000000000NCONT   00    00000000000          00000000000000000000000000000000000000000000 000000000000000A000000000000000000000000000000000000000000000 000000000000000000000000000000000000000     00000000                                                                                                                        000000000000000000
F0010000008058200003000090064982900042505000000000000000000201512170002001DISDIES S.A.S                                     C000000001993200000000000000000000100010010000000000000000000000F0010000008058200320151217000101 00000000000000000000000000000000000000000000000000000000000000000000000000000000000000000000000000000000000000000N 00000000000NCONT   00    00000000000          00000000000000000000000000000000000000000000 000000000000000A000000000000000000000000000000000000000000000 000000000000000000000000000000000000000     00000000                                                                                                                        000000000000000000
F0010000008058200004000090064982900023658300000000000000000201512170002001DISDIES S.A.S                                     C000000000069800000000000000000000100010010000000000000000000000F0010000008058200420151217000101 00000000000000000000000000000000000000000000000000000000000000000000000000000000000000000000000000000000000000000N 00000000000NCONT   00    00000000000          00000000000000000000000000000000000000000000 000000000000000A000000000000000000000000000000000000000000000 000000000000000000000000000000000000000     00000000                                                                                                                        000000000000000000
F0010000008058200005000090064982900013552100000000000000000201512170002001DISDIES S.A.S                                     D000000000069800000000000000000000100010010000000000000000000000F0010000008058200520151217000101 00000000000000000000000000000000000000000000000000000000000000000000000000000000000000000000000000000000000000000N 00000000000NCONT   00    00000000000          00000000000000000000000000000000000000000000 000000000000000A000000000000000000000000000000000000000000000 000000000000000000000000000000000000000     00000000                                                                                                                        000000000000000000
F0010000008058300001000089080078800013050500000000000000000201512170002001SUMATEC S.A.                                      D000000018731700000000000000000000100010010000000000000000000000F0010000008058300120151217000101 00000000000000000000000000000000000000000000000000000000000000000000000000000000000000000000000000000000000000000N 00000000000NCONT   00    00000000000          00000000000000000000000000000000000000000000 000000000000000A000000000000000000000000000000000000000000000 000000000000000000000000000000000000000     00000000                                                                                                                        000000000000000000
F0010000008058300002000089080078800041450500000000000000000201512170002001SUMATEC S.A.                                      C000000016940000000000000000000000100010010000000000000000000000F0010000008058300220151217000101 00000000000000000000000000000000000000000000000000000000000000000000000000000000000000000000000000000000000000000N 00000000000NCONT   00    00000000000          00000000000000000000000000000000000000000000 000000000000000A000000000000000000000000000000000000000000000 000000000000000000000000000000000000000     00000000                                                                                                                        000000000000000000
F0010000008058300003000089080078800042505000000000000000000201512170002001SUMATEC S.A.                                      C000000001791700000000000000000000100010010000000000000000000000F0010000008058300320151217000101 00000000000000000000000000000000000000000000000000000000000000000000000000000000000000000000000000000000000000000N 00000000000NCONT   00    00000000000          00000000000000000000000000000000000000000000 000000000000000A000000000000000000000000000000000000000000000 000000000000000000000000000000000000000     00000000                                                                                                                        000000000000000000
F0010000008058300004000089080078800023658300000000000000000201512170002001SUMATEC S.A.                                      C000000000135500000000000000000000100010010000000000000000000000F0010000008058300420151217000101 00000000000000000000000000000000000000000000000000000000000000000000000000000000000000000000000000000000000000000N 00000000000NCONT   00    00000000000          00000000000000000000000000000000000000000000 000000000000000A000000000000000000000000000000000000000000000 000000000000000000000000000000000000000     00000000                                                                                                                        000000000000000000
F0010000008058300005000089080078800013552100000000000000000201512170002001SUMATEC S.A.                                      D000000000135500000000000000000000100010010000000000000000000000F0010000008058300520151217000101 00000000000000000000000000000000000000000000000000000000000000000000000000000000000000000000000000000000000000000N 00000000000NCONT   00    00000000000          00000000000000000000000000000000000000000000 000000000000000A000000000000000000000000000000000000000000000 000000000000000000000000000000000000000     00000000                                                                                                                        000000000000000000
F0010000008058400001000080201703900013050500000000000000000201512170002001MUNDIAL CHEMICAL LTDA                             D000000007262500000000000000000000100010010000000000000000000000F0010000008058400120151217000101 00000000000000000000000000000000000000000000000000000000000000000000000000000000000000000000000000000000000000000N 00000000000NCONT   00    00000000000          00000000000000000000000000000000000000000000 000000000000000A000000000000000000000000000000000000000000000 000000000000000000000000000000000000000     00000000                                                                                                                        000000000000000000
F0010000008058400002000080201703900041450500000000000000000201512170002001MUNDIAL CHEMICAL LTDA                             C000000006925000000000000000000000100010010000000000000000000000F0010000008058400220151217000101 00000000000000000000000000000000000000000000000000000000000000000000000000000000000000000000000000000000000000000N 00000000000NCONT   00    00000000000          00000000000000000000000000000000000000000000 000000000000000A000000000000000000000000000000000000000000000 000000000000000000000000000000000000000     00000000                                                                                                                        000000000000000000
F0010000008058400003000080201703900042505000000000000000000201512170002001MUNDIAL CHEMICAL LTDA                             C000000000337500000000000000000000100010010000000000000000000000F0010000008058400320151217000101 00000000000000000000000000000000000000000000000000000000000000000000000000000000000000000000000000000000000000000N 00000000000NCONT   00    00000000000          00000000000000000000000000000000000000000000 000000000000000A000000000000000000000000000000000000000000000 000000000000000000000000000000000000000     00000000                                                                                                                        000000000000000000
F0010000008058400004000080201703900023658300000000000000000201512170002001MUNDIAL CHEMICAL LTDA                             C000000000055400000000000000000000100010010000000000000000000000F0010000008058400420151217000101 00000000000000000000000000000000000000000000000000000000000000000000000000000000000000000000000000000000000000000N 00000000000NCONT   00    00000000000          00000000000000000000000000000000000000000000 000000000000000A000000000000000000000000000000000000000000000 000000000000000000000000000000000000000     00000000                                                                                                                        000000000000000000
F0010000008058400005000080201703900013552100000000000000000201512170002001MUNDIAL CHEMICAL LTDA                             D000000000055400000000000000000000100010010000000000000000000000F0010000008058400520151217000101 00000000000000000000000000000000000000000000000000000000000000000000000000000000000000000000000000000000000000000N 00000000000NCONT   00    00000000000          00000000000000000000000000000000000000000000 000000000000000A000000000000000000000000000000000000000000000 000000000000000000000000000000000000000     00000000                                                                                                                        000000000000000000
