F0010000005992300001000000872487800011050500000000000000000201407060002001CALIXTO CORREA PINTO                              D000000006500000000000000000000000100010010000000000000000000000F0010000005992300120140706000101 00000000000000000000000000000000000000000000000000000000000000000000000000000000000000000000000000000000000000000N 00000000000NCONT   00    00000000000          00000000000000000000000000000000000000000000 000000000000000A000000000000000000000000000000000000000000000 000000000000000000000000000000000000000     00000000                                                                                                                        000000000000000000
F0010000005992300002000000872487800041450500000000000000000201407060002001CALIXTO CORREA PINTO                              C000000006000000000000000000000000100010010000000000000000000000F0010000005992300220140706000101 00000000000000000000000000000000000000000000000000000000000000000000000000000000000000000000000000000000000000000N 00000000000NCONT   00    00000000000          00000000000000000000000000000000000000000000 000000000000000A000000000000000000000000000000000000000000000 000000000000000000000000000000000000000     00000000                                                                                                                        000000000000000000
F0010000005992300003000000872487800042505000000000000000000201407060002001CALIXTO CORREA PINTO                              C000000000500000000000000000000000100010010000000000000000000000F0010000005992300320140706000101 00000000000000000000000000000000000000000000000000000000000000000000000000000000000000000000000000000000000000000N 00000000000NCONT   00    00000000000          00000000000000000000000000000000000000000000 000000000000000A000000000000000000000000000000000000000000000 000000000000000000000000000000000000000     00000000                                                                                                                        000000000000000000
F0010000005992300004000000872487800023658300000000000000000201407060002001CALIXTO CORREA PINTO                              C000000000048000000000000000000000100010010000000000000000000000F0010000005992300420140706000101 00000000000000000000000000000000000000000000000000000000000000000000000000000000000000000000000000000000000000000N 00000000000NCONT   00    00000000000          00000000000000000000000000000000000000000000 000000000000000A000000000000000000000000000000000000000000000 000000000000000000000000000000000000000     00000000                                                                                                                        000000000000000000
F0010000005992300005000000872487800013552100000000000000000201407060002001CALIXTO CORREA PINTO                              D000000000048000000000000000000000100010010000000000000000000000F0010000005992300520140706000101 00000000000000000000000000000000000000000000000000000000000000000000000000000000000000000000000000000000000000000N 00000000000NCONT   00    00000000000          00000000000000000000000000000000000000000000 000000000000000A000000000000000000000000000000000000000000000 000000000000000000000000000000000000000     00000000                                                                                                                        000000000000000000
F0010000005992400001000000871745700011050500000000000000000201407060002001CONFECCIONES ORO SPORT 33                         D000000001700000000000000000000000100010010000000000000000000000F0010000005992400120140706000101 00000000000000000000000000000000000000000000000000000000000000000000000000000000000000000000000000000000000000000N 00000000000NCONT   00    00000000000          00000000000000000000000000000000000000000000 000000000000000A000000000000000000000000000000000000000000000 000000000000000000000000000000000000000     00000000                                                                                                                        000000000000000000
F0010000005992400002000000871745700041450500000000000000000201407060002001CONFECCIONES ORO SPORT 33                         C000000001200000000000000000000000100010010000000000000000000000F0010000005992400220140706000101 00000000000000000000000000000000000000000000000000000000000000000000000000000000000000000000000000000000000000000N 00000000000NCONT   00    00000000000          00000000000000000000000000000000000000000000 000000000000000A000000000000000000000000000000000000000000000 000000000000000000000000000000000000000     00000000                                                                                                                        000000000000000000
F0010000005992400003000000871745700042505000000000000000000201407060002001CONFECCIONES ORO SPORT 33                         C000000000500000000000000000000000100010010000000000000000000000F0010000005992400320140706000101 00000000000000000000000000000000000000000000000000000000000000000000000000000000000000000000000000000000000000000N 00000000000NCONT   00    00000000000          00000000000000000000000000000000000000000000 000000000000000A000000000000000000000000000000000000000000000 000000000000000000000000000000000000000     00000000                                                                                                                        000000000000000000
F0010000005992400004000000871745700023658300000000000000000201407060002001CONFECCIONES ORO SPORT 33                         C000000000009600000000000000000000100010010000000000000000000000F0010000005992400420140706000101 00000000000000000000000000000000000000000000000000000000000000000000000000000000000000000000000000000000000000000N 00000000000NCONT   00    00000000000          00000000000000000000000000000000000000000000 000000000000000A000000000000000000000000000000000000000000000 000000000000000000000000000000000000000     00000000                                                                                                                        000000000000000000
F0010000005992400005000000871745700013552100000000000000000201407060002001CONFECCIONES ORO SPORT 33                         D000000000009600000000000000000000100010010000000000000000000000F0010000005992400520140706000101 00000000000000000000000000000000000000000000000000000000000000000000000000000000000000000000000000000000000000000N 00000000000NCONT   00    00000000000          00000000000000000000000000000000000000000000 000000000000000A000000000000000000000000000000000000000000000 000000000000000000000000000000000000000     00000000                                                                                                                        000000000000000000
