F0010000006337400001000089040474000011050500000000000000000201410010002001INSA LTDA                                         D000000008200000000000000000000000100010010000000000000000000000F0010000006337400120141001000101 00000000000000000000000000000000000000000000000000000000000000000000000000000000000000000000000000000000000000000N 00000000000NCONT   00    00000000000          00000000000000000000000000000000000000000000 000000000000000A000000000000000000000000000000000000000000000 000000000000000000000000000000000000000     00000000                                                                                                                        000000000000000000
F0010000006337400002000089040474000041450500000000000000000201410010002001INSA LTDA                                         C000000007000000000000000000000000100010010000000000000000000000F0010000006337400220141001000101 00000000000000000000000000000000000000000000000000000000000000000000000000000000000000000000000000000000000000000N 00000000000NCONT   00    00000000000          00000000000000000000000000000000000000000000 000000000000000A000000000000000000000000000000000000000000000 000000000000000000000000000000000000000     00000000                                                                                                                        000000000000000000
F0010000006337400003000089040474000042505000000000000000000201410010002001INSA LTDA                                         C000000001200000000000000000000000100010010000000000000000000000F0010000006337400320141001000101 00000000000000000000000000000000000000000000000000000000000000000000000000000000000000000000000000000000000000000N 00000000000NCONT   00    00000000000          00000000000000000000000000000000000000000000 000000000000000A000000000000000000000000000000000000000000000 000000000000000000000000000000000000000     00000000                                                                                                                        000000000000000000
F0010000006337400004000089040474000023658300000000000000000201410010002001INSA LTDA                                         C000000000056000000000000000000000100010010000000000000000000000F0010000006337400420141001000101 00000000000000000000000000000000000000000000000000000000000000000000000000000000000000000000000000000000000000000N 00000000000NCONT   00    00000000000          00000000000000000000000000000000000000000000 000000000000000A000000000000000000000000000000000000000000000 000000000000000000000000000000000000000     00000000                                                                                                                        000000000000000000
F0010000006337400005000089040474000013552100000000000000000201410010002001INSA LTDA                                         D000000000056000000000000000000000100010010000000000000000000000F0010000006337400520141001000101 00000000000000000000000000000000000000000000000000000000000000000000000000000000000000000000000000000000000000000N 00000000000NCONT   00    00000000000          00000000000000000000000000000000000000000000 000000000000000A000000000000000000000000000000000000000000000 000000000000000000000000000000000000000     00000000                                                                                                                        000000000000000000
F0010000006337500001000090013035500013050500000000000000000201410010002001FUJIAN SHAN S.A.                                  D000000071298400000000000000000000100010010000000000000000000000F0010000006337500120141001000101 00000000000000000000000000000000000000000000000000000000000000000000000000000000000000000000000000000000000000000N 00000000000NCONT   00    00000000000          00000000000000000000000000000000000000000000 000000000000000A000000000000000000000000000000000000000000000 000000000000000000000000000000000000000     00000000                                                                                                                        000000000000000000
F0010000006337500002000090013035500041450500000000000000000201410010002001FUJIAN SHAN S.A.                                  C000000069298400000000000000000000100010010000000000000000000000F0010000006337500220141001000101 00000000000000000000000000000000000000000000000000000000000000000000000000000000000000000000000000000000000000000N 00000000000NCONT   00    00000000000          00000000000000000000000000000000000000000000 000000000000000A000000000000000000000000000000000000000000000 000000000000000000000000000000000000000     00000000                                                                                                                        000000000000000000
F0010000006337500003000090013035500042505000000000000000000201410010002001FUJIAN SHAN S.A.                                  C000000002000000000000000000000000100010010000000000000000000000F0010000006337500320141001000101 00000000000000000000000000000000000000000000000000000000000000000000000000000000000000000000000000000000000000000N 00000000000NCONT   00    00000000000          00000000000000000000000000000000000000000000 000000000000000A000000000000000000000000000000000000000000000 000000000000000000000000000000000000000     00000000                                                                                                                        000000000000000000
F0010000006337500004000090013035500023658300000000000000000201410010002001FUJIAN SHAN S.A.                                  C000000000554400000000000000000000100010010000000000000000000000F0010000006337500420141001000101 00000000000000000000000000000000000000000000000000000000000000000000000000000000000000000000000000000000000000000N 00000000000NCONT   00    00000000000          00000000000000000000000000000000000000000000 000000000000000A000000000000000000000000000000000000000000000 000000000000000000000000000000000000000     00000000                                                                                                                        000000000000000000
F0010000006337500005000090013035500013552100000000000000000201410010002001FUJIAN SHAN S.A.                                  D000000000554400000000000000000000100010010000000000000000000000F0010000006337500520141001000101 00000000000000000000000000000000000000000000000000000000000000000000000000000000000000000000000000000000000000000N 00000000000NCONT   00    00000000000          00000000000000000000000000000000000000000000 000000000000000A000000000000000000000000000000000000000000000 000000000000000000000000000000000000000     00000000                                                                                                                        000000000000000000
F0010000006337600001000086000089600013050500000000000000000201410010002001SIKA COLOMBIA S.A.                                D000000003660600000000000000000000100010010000000000000000000000F0010000006337600120141001000101 00000000000000000000000000000000000000000000000000000000000000000000000000000000000000000000000000000000000000000N 00000000000NCONT   00    00000000000          00000000000000000000000000000000000000000000 000000000000000A000000000000000000000000000000000000000000000 000000000000000000000000000000000000000     00000000                                                                                                                        000000000000000000
F0010000006337600002000086000089600041450500000000000000000201410010002001SIKA COLOMBIA S.A.                                C000000003600000000000000000000000100010010000000000000000000000F0010000006337600220141001000101 00000000000000000000000000000000000000000000000000000000000000000000000000000000000000000000000000000000000000000N 00000000000NCONT   00    00000000000          00000000000000000000000000000000000000000000 000000000000000A000000000000000000000000000000000000000000000 000000000000000000000000000000000000000     00000000                                                                                                                        000000000000000000
F0010000006337600003000086000089600042505000000000000000000201410010002001SIKA COLOMBIA S.A.                                C000000000060600000000000000000000100010010000000000000000000000F0010000006337600320141001000101 00000000000000000000000000000000000000000000000000000000000000000000000000000000000000000000000000000000000000000N 00000000000NCONT   00    00000000000          00000000000000000000000000000000000000000000 000000000000000A000000000000000000000000000000000000000000000 000000000000000000000000000000000000000     00000000                                                                                                                        000000000000000000
F0010000006337600004000086000089600023658300000000000000000201410010002001SIKA COLOMBIA S.A.                                C000000000028800000000000000000000100010010000000000000000000000F0010000006337600420141001000101 00000000000000000000000000000000000000000000000000000000000000000000000000000000000000000000000000000000000000000N 00000000000NCONT   00    00000000000          00000000000000000000000000000000000000000000 000000000000000A000000000000000000000000000000000000000000000 000000000000000000000000000000000000000     00000000                                                                                                                        000000000000000000
F0010000006337600005000086000089600013552100000000000000000201410010002001SIKA COLOMBIA S.A.                                D000000000028800000000000000000000100010010000000000000000000000F0010000006337600520141001000101 00000000000000000000000000000000000000000000000000000000000000000000000000000000000000000000000000000000000000000N 00000000000NCONT   00    00000000000          00000000000000000000000000000000000000000000 000000000000000A000000000000000000000000000000000000000000000 000000000000000000000000000000000000000     00000000                                                                                                                        000000000000000000
F0010000006337700001000086000089600013050500000000000000000201410010002001SIKA COLOMBIA S.A.                                D000000049760300000000000000000000100010010000000000000000000000F0010000006337700120141001000101 00000000000000000000000000000000000000000000000000000000000000000000000000000000000000000000000000000000000000000N 00000000000NCONT   00    00000000000          00000000000000000000000000000000000000000000 000000000000000A000000000000000000000000000000000000000000000 000000000000000000000000000000000000000     00000000                                                                                                                        000000000000000000
F0010000006337700002000086000089600041450500000000000000000201410010002001SIKA COLOMBIA S.A.                                C000000048000000000000000000000000100010010000000000000000000000F0010000006337700220141001000101 00000000000000000000000000000000000000000000000000000000000000000000000000000000000000000000000000000000000000000N 00000000000NCONT   00    00000000000          00000000000000000000000000000000000000000000 000000000000000A000000000000000000000000000000000000000000000 000000000000000000000000000000000000000     00000000                                                                                                                        000000000000000000
F0010000006337700003000086000089600042505000000000000000000201410010002001SIKA COLOMBIA S.A.                                C000000001760300000000000000000000100010010000000000000000000000F0010000006337700320141001000101 00000000000000000000000000000000000000000000000000000000000000000000000000000000000000000000000000000000000000000N 00000000000NCONT   00    00000000000          00000000000000000000000000000000000000000000 000000000000000A000000000000000000000000000000000000000000000 000000000000000000000000000000000000000     00000000                                                                                                                        000000000000000000
F0010000006337700004000086000089600023658300000000000000000201410010002001SIKA COLOMBIA S.A.                                C000000000384000000000000000000000100010010000000000000000000000F0010000006337700420141001000101 00000000000000000000000000000000000000000000000000000000000000000000000000000000000000000000000000000000000000000N 00000000000NCONT   00    00000000000          00000000000000000000000000000000000000000000 000000000000000A000000000000000000000000000000000000000000000 000000000000000000000000000000000000000     00000000                                                                                                                        000000000000000000
F0010000006337700005000086000089600013552100000000000000000201410010002001SIKA COLOMBIA S.A.                                D000000000384000000000000000000000100010010000000000000000000000F0010000006337700520141001000101 00000000000000000000000000000000000000000000000000000000000000000000000000000000000000000000000000000000000000000N 00000000000NCONT   00    00000000000          00000000000000000000000000000000000000000000 000000000000000A000000000000000000000000000000000000000000000 000000000000000000000000000000000000000     00000000                                                                                                                        000000000000000000
F0010000006337800001000086000089600013050500000000000000000201410010002001SIKA COLOMBIA S.A.                                D000000017688900000000000000000000100010010000000000000000000000F0010000006337800120141001000101 00000000000000000000000000000000000000000000000000000000000000000000000000000000000000000000000000000000000000000N 00000000000NCONT   00    00000000000          00000000000000000000000000000000000000000000 000000000000000A000000000000000000000000000000000000000000000 000000000000000000000000000000000000000     00000000                                                                                                                        000000000000000000
F0010000006337800002000086000089600041450500000000000000000201410010002001SIKA COLOMBIA S.A.                                C000000017600000000000000000000000100010010000000000000000000000F0010000006337800220141001000101 00000000000000000000000000000000000000000000000000000000000000000000000000000000000000000000000000000000000000000N 00000000000NCONT   00    00000000000          00000000000000000000000000000000000000000000 000000000000000A000000000000000000000000000000000000000000000 000000000000000000000000000000000000000     00000000                                                                                                                        000000000000000000
F0010000006337800003000086000089600042505000000000000000000201410010002001SIKA COLOMBIA S.A.                                C000000000088900000000000000000000100010010000000000000000000000F0010000006337800320141001000101 00000000000000000000000000000000000000000000000000000000000000000000000000000000000000000000000000000000000000000N 00000000000NCONT   00    00000000000          00000000000000000000000000000000000000000000 000000000000000A000000000000000000000000000000000000000000000 000000000000000000000000000000000000000     00000000                                                                                                                        000000000000000000
F0010000006337800004000086000089600023658300000000000000000201410010002001SIKA COLOMBIA S.A.                                C000000000140800000000000000000000100010010000000000000000000000F0010000006337800420141001000101 00000000000000000000000000000000000000000000000000000000000000000000000000000000000000000000000000000000000000000N 00000000000NCONT   00    00000000000          00000000000000000000000000000000000000000000 000000000000000A000000000000000000000000000000000000000000000 000000000000000000000000000000000000000     00000000                                                                                                                        000000000000000000
F0010000006337800005000086000089600013552100000000000000000201410010002001SIKA COLOMBIA S.A.                                D000000000140800000000000000000000100010010000000000000000000000F0010000006337800520141001000101 00000000000000000000000000000000000000000000000000000000000000000000000000000000000000000000000000000000000000000N 00000000000NCONT   00    00000000000          00000000000000000000000000000000000000000000 000000000000000A000000000000000000000000000000000000000000000 000000000000000000000000000000000000000     00000000                                                                                                                        000000000000000000
F0010000006337900001000086000089600013050500000000000000000201410010002001SIKA COLOMBIA S.A.                                D000000053720200000000000000000000100010010000000000000000000000F0010000006337900120141001000101 00000000000000000000000000000000000000000000000000000000000000000000000000000000000000000000000000000000000000000N 00000000000NCONT   00    00000000000          00000000000000000000000000000000000000000000 000000000000000A000000000000000000000000000000000000000000000 000000000000000000000000000000000000000     00000000                                                                                                                        000000000000000000
F0010000006337900002000086000089600041450500000000000000000201410010002001SIKA COLOMBIA S.A.                                C000000042175100000000000000000000100010010000000000000000000000F0010000006337900220141001000101 00000000000000000000000000000000000000000000000000000000000000000000000000000000000000000000000000000000000000000N 00000000000NCONT   00    00000000000          00000000000000000000000000000000000000000000 000000000000000A000000000000000000000000000000000000000000000 000000000000000000000000000000000000000     00000000                                                                                                                        000000000000000000
F0010000006337900003000086000089600042505000000000000000000201410010002001SIKA COLOMBIA S.A.                                C000000011545100000000000000000000100010010000000000000000000000F0010000006337900320141001000101 00000000000000000000000000000000000000000000000000000000000000000000000000000000000000000000000000000000000000000N 00000000000NCONT   00    00000000000          00000000000000000000000000000000000000000000 000000000000000A000000000000000000000000000000000000000000000 000000000000000000000000000000000000000     00000000                                                                                                                        000000000000000000
F0010000006337900004000086000089600023658300000000000000000201410010002001SIKA COLOMBIA S.A.                                C000000000337400000000000000000000100010010000000000000000000000F0010000006337900420141001000101 00000000000000000000000000000000000000000000000000000000000000000000000000000000000000000000000000000000000000000N 00000000000NCONT   00    00000000000          00000000000000000000000000000000000000000000 000000000000000A000000000000000000000000000000000000000000000 000000000000000000000000000000000000000     00000000                                                                                                                        000000000000000000
F0010000006337900005000086000089600013552100000000000000000201410010002001SIKA COLOMBIA S.A.                                D000000000337400000000000000000000100010010000000000000000000000F0010000006337900520141001000101 00000000000000000000000000000000000000000000000000000000000000000000000000000000000000000000000000000000000000000N 00000000000NCONT   00    00000000000          00000000000000000000000000000000000000000000 000000000000000A000000000000000000000000000000000000000000000 000000000000000000000000000000000000000     00000000                                                                                                                        000000000000000000
F0010000006338000001000086000089600013050500000000000000000201410010002001SIKA COLOMBIA S.A.                                D000000060362000000000000000000000100010010000000000000000000000F0010000006338000120141001000101 00000000000000000000000000000000000000000000000000000000000000000000000000000000000000000000000000000000000000000N 00000000000NCONT   00    00000000000          00000000000000000000000000000000000000000000 000000000000000A000000000000000000000000000000000000000000000 000000000000000000000000000000000000000     00000000                                                                                                                        000000000000000000
F0010000006338000002000086000089600041450500000000000000000201410010002001SIKA COLOMBIA S.A.                                C000000058000000000000000000000000100010010000000000000000000000F0010000006338000220141001000101 00000000000000000000000000000000000000000000000000000000000000000000000000000000000000000000000000000000000000000N 00000000000NCONT   00    00000000000          00000000000000000000000000000000000000000000 000000000000000A000000000000000000000000000000000000000000000 000000000000000000000000000000000000000     00000000                                                                                                                        000000000000000000
F0010000006338000003000086000089600042505000000000000000000201410010002001SIKA COLOMBIA S.A.                                C000000002362000000000000000000000100010010000000000000000000000F0010000006338000320141001000101 00000000000000000000000000000000000000000000000000000000000000000000000000000000000000000000000000000000000000000N 00000000000NCONT   00    00000000000          00000000000000000000000000000000000000000000 000000000000000A000000000000000000000000000000000000000000000 000000000000000000000000000000000000000     00000000                                                                                                                        000000000000000000
F0010000006338000004000086000089600023658300000000000000000201410010002001SIKA COLOMBIA S.A.                                C000000000464000000000000000000000100010010000000000000000000000F0010000006338000420141001000101 00000000000000000000000000000000000000000000000000000000000000000000000000000000000000000000000000000000000000000N 00000000000NCONT   00    00000000000          00000000000000000000000000000000000000000000 000000000000000A000000000000000000000000000000000000000000000 000000000000000000000000000000000000000     00000000                                                                                                                        000000000000000000
F0010000006338000005000086000089600013552100000000000000000201410010002001SIKA COLOMBIA S.A.                                D000000000464000000000000000000000100010010000000000000000000000F0010000006338000520141001000101 00000000000000000000000000000000000000000000000000000000000000000000000000000000000000000000000000000000000000000N 00000000000NCONT   00    00000000000          00000000000000000000000000000000000000000000 000000000000000A000000000000000000000000000000000000000000000 000000000000000000000000000000000000000     00000000                                                                                                                        000000000000000000
F0010000006338100001000086000089600013050500000000000000000201410010002001SIKA COLOMBIA S.A.                                D000000051383900000000000000000000100010010000000000000000000000F0010000006338100120141001000101 00000000000000000000000000000000000000000000000000000000000000000000000000000000000000000000000000000000000000000N 00000000000NCONT   00    00000000000          00000000000000000000000000000000000000000000 000000000000000A000000000000000000000000000000000000000000000 000000000000000000000000000000000000000     00000000                                                                                                                        000000000000000000
F0010000006338100002000086000089600041450500000000000000000201410010002001SIKA COLOMBIA S.A.                                C000000047265000000000000000000000100010010000000000000000000000F0010000006338100220141001000101 00000000000000000000000000000000000000000000000000000000000000000000000000000000000000000000000000000000000000000N 00000000000NCONT   00    00000000000          00000000000000000000000000000000000000000000 000000000000000A000000000000000000000000000000000000000000000 000000000000000000000000000000000000000     00000000                                                                                                                        000000000000000000
F0010000006338100003000086000089600042505000000000000000000201410010002001SIKA COLOMBIA S.A.                                C000000004118900000000000000000000100010010000000000000000000000F0010000006338100320141001000101 00000000000000000000000000000000000000000000000000000000000000000000000000000000000000000000000000000000000000000N 00000000000NCONT   00    00000000000          00000000000000000000000000000000000000000000 000000000000000A000000000000000000000000000000000000000000000 000000000000000000000000000000000000000     00000000                                                                                                                        000000000000000000
F0010000006338100004000086000089600023658300000000000000000201410010002001SIKA COLOMBIA S.A.                                C000000000378100000000000000000000100010010000000000000000000000F0010000006338100420141001000101 00000000000000000000000000000000000000000000000000000000000000000000000000000000000000000000000000000000000000000N 00000000000NCONT   00    00000000000          00000000000000000000000000000000000000000000 000000000000000A000000000000000000000000000000000000000000000 000000000000000000000000000000000000000     00000000                                                                                                                        000000000000000000
F0010000006338100005000086000089600013552100000000000000000201410010002001SIKA COLOMBIA S.A.                                D000000000378100000000000000000000100010010000000000000000000000F0010000006338100520141001000101 00000000000000000000000000000000000000000000000000000000000000000000000000000000000000000000000000000000000000000N 00000000000NCONT   00    00000000000          00000000000000000000000000000000000000000000 000000000000000A000000000000000000000000000000000000000000000 000000000000000000000000000000000000000     00000000                                                                                                                        000000000000000000
F0010000006338200001000081102758700013050500000000000000000201410010002001C.I. ABRACOL S.A EMA                              D000000063073700000000000000000000100010010000000000000000000000F0010000006338200120141001000101 00000000000000000000000000000000000000000000000000000000000000000000000000000000000000000000000000000000000000000N 00000000000NCONT   00    00000000000          00000000000000000000000000000000000000000000 000000000000000A000000000000000000000000000000000000000000000 000000000000000000000000000000000000000     00000000                                                                                                                        000000000000000000
F0010000006338200002000081102758700041450500000000000000000201410010002001C.I. ABRACOL S.A EMA                              C000000040260000000000000000000000100010010000000000000000000000F0010000006338200220141001000101 00000000000000000000000000000000000000000000000000000000000000000000000000000000000000000000000000000000000000000N 00000000000NCONT   00    00000000000          00000000000000000000000000000000000000000000 000000000000000A000000000000000000000000000000000000000000000 000000000000000000000000000000000000000     00000000                                                                                                                        000000000000000000
F0010000006338200003000081102758700041750100000000000000000201410010002001C.I. ABRACOL S.A EMA                              D000000001207800000000000000000000100010010000000000000000000000F0010000006338200320141001000101 00000000000000000000000000000000000000000000000000000000000000000000000000000000000000000000000000000000000000000N 00000000000NCONT   00    00000000000          00000000000000000000000000000000000000000000 000000000000000A000000000000000000000000000000000000000000000 000000000000000000000000000000000000000     00000000                                                                                                                        000000000000000000
F0010000006338200004000081102758700042505000000000000000000201410010002001C.I. ABRACOL S.A EMA                              C000000024021500000000000000000000100010010000000000000000000000F0010000006338200420141001000101 00000000000000000000000000000000000000000000000000000000000000000000000000000000000000000000000000000000000000000N 00000000000NCONT   00    00000000000          00000000000000000000000000000000000000000000 000000000000000A000000000000000000000000000000000000000000000 000000000000000000000000000000000000000     00000000                                                                                                                        000000000000000000
F0010000006338200005000081102758700023658300000000000000000201410010002001C.I. ABRACOL S.A EMA                              C000000000322100000000000000000000100010010000000000000000000000F0010000006338200520141001000101 00000000000000000000000000000000000000000000000000000000000000000000000000000000000000000000000000000000000000000N 00000000000NCONT   00    00000000000          00000000000000000000000000000000000000000000 000000000000000A000000000000000000000000000000000000000000000 000000000000000000000000000000000000000     00000000                                                                                                                        000000000000000000
F0010000006338200006000081102758700013552100000000000000000201410010002001C.I. ABRACOL S.A EMA                              D000000000322100000000000000000000100010010000000000000000000000F0010000006338200620141001000101 00000000000000000000000000000000000000000000000000000000000000000000000000000000000000000000000000000000000000000N 00000000000NCONT   00    00000000000          00000000000000000000000000000000000000000000 000000000000000A000000000000000000000000000000000000000000000 000000000000000000000000000000000000000     00000000                                                                                                                        000000000000000000
F0010000006338300001000081102758700013050500000000000000000201410010002001C.I. ABRACOL S.A EMA                              D000000079341200000000000000000000100010010000000000000000000000F0010000006338300120141001000101 00000000000000000000000000000000000000000000000000000000000000000000000000000000000000000000000000000000000000000N 00000000000NCONT   00    00000000000          00000000000000000000000000000000000000000000 000000000000000A000000000000000000000000000000000000000000000 000000000000000000000000000000000000000     00000000                                                                                                                        000000000000000000
F0010000006338300002000081102758700041450500000000000000000201410010002001C.I. ABRACOL S.A EMA                              C000000051150000000000000000000000100010010000000000000000000000F0010000006338300220141001000101 00000000000000000000000000000000000000000000000000000000000000000000000000000000000000000000000000000000000000000N 00000000000NCONT   00    00000000000          00000000000000000000000000000000000000000000 000000000000000A000000000000000000000000000000000000000000000 000000000000000000000000000000000000000     00000000                                                                                                                        000000000000000000
F0010000006338300003000081102758700041750100000000000000000201410010002001C.I. ABRACOL S.A EMA                              D000000001534500000000000000000000100010010000000000000000000000F0010000006338300320141001000101 00000000000000000000000000000000000000000000000000000000000000000000000000000000000000000000000000000000000000000N 00000000000NCONT   00    00000000000          00000000000000000000000000000000000000000000 000000000000000A000000000000000000000000000000000000000000000 000000000000000000000000000000000000000     00000000                                                                                                                        000000000000000000
F0010000006338300004000081102758700042505000000000000000000201410010002001C.I. ABRACOL S.A EMA                              C000000029725700000000000000000000100010010000000000000000000000F0010000006338300420141001000101 00000000000000000000000000000000000000000000000000000000000000000000000000000000000000000000000000000000000000000N 00000000000NCONT   00    00000000000          00000000000000000000000000000000000000000000 000000000000000A000000000000000000000000000000000000000000000 000000000000000000000000000000000000000     00000000                                                                                                                        000000000000000000
F0010000006338300005000081102758700023658300000000000000000201410010002001C.I. ABRACOL S.A EMA                              C000000000409200000000000000000000100010010000000000000000000000F0010000006338300520141001000101 00000000000000000000000000000000000000000000000000000000000000000000000000000000000000000000000000000000000000000N 00000000000NCONT   00    00000000000          00000000000000000000000000000000000000000000 000000000000000A000000000000000000000000000000000000000000000 000000000000000000000000000000000000000     00000000                                                                                                                        000000000000000000
F0010000006338300006000081102758700013552100000000000000000201410010002001C.I. ABRACOL S.A EMA                              D000000000409200000000000000000000100010010000000000000000000000F0010000006338300620141001000101 00000000000000000000000000000000000000000000000000000000000000000000000000000000000000000000000000000000000000000N 00000000000NCONT   00    00000000000          00000000000000000000000000000000000000000000 000000000000000A000000000000000000000000000000000000000000000 000000000000000000000000000000000000000     00000000                                                                                                                        000000000000000000
F0010000006338400001000081102758700013050500000000000000000201410010002001C.I. ABRACOL S.A EMA                              D000000124242600000000000000000000100010010000000000000000000000F0010000006338400120141001000101 00000000000000000000000000000000000000000000000000000000000000000000000000000000000000000000000000000000000000000N 00000000000NCONT   00    00000000000          00000000000000000000000000000000000000000000 000000000000000A000000000000000000000000000000000000000000000 000000000000000000000000000000000000000     00000000                                                                                                                        000000000000000000
F0010000006338400002000081102758700041450500000000000000000201410010002001C.I. ABRACOL S.A EMA                              C000000078950000000000000000000000100010010000000000000000000000F0010000006338400220141001000101 00000000000000000000000000000000000000000000000000000000000000000000000000000000000000000000000000000000000000000N 00000000000NCONT   00    00000000000          00000000000000000000000000000000000000000000 000000000000000A000000000000000000000000000000000000000000000 000000000000000000000000000000000000000     00000000                                                                                                                        000000000000000000
F0010000006338400003000081102758700041750100000000000000000201410010002001C.I. ABRACOL S.A EMA                              D000000002368500000000000000000000100010010000000000000000000000F0010000006338400320141001000101 00000000000000000000000000000000000000000000000000000000000000000000000000000000000000000000000000000000000000000N 00000000000NCONT   00    00000000000          00000000000000000000000000000000000000000000 000000000000000A000000000000000000000000000000000000000000000 000000000000000000000000000000000000000     00000000                                                                                                                        000000000000000000
F0010000006338400004000081102758700042505000000000000000000201410010002001C.I. ABRACOL S.A EMA                              C000000047661100000000000000000000100010010000000000000000000000F0010000006338400420141001000101 00000000000000000000000000000000000000000000000000000000000000000000000000000000000000000000000000000000000000000N 00000000000NCONT   00    00000000000          00000000000000000000000000000000000000000000 000000000000000A000000000000000000000000000000000000000000000 000000000000000000000000000000000000000     00000000                                                                                                                        000000000000000000
F0010000006338400005000081102758700023658300000000000000000201410010002001C.I. ABRACOL S.A EMA                              C000000000631600000000000000000000100010010000000000000000000000F0010000006338400520141001000101 00000000000000000000000000000000000000000000000000000000000000000000000000000000000000000000000000000000000000000N 00000000000NCONT   00    00000000000          00000000000000000000000000000000000000000000 000000000000000A000000000000000000000000000000000000000000000 000000000000000000000000000000000000000     00000000                                                                                                                        000000000000000000
F0010000006338400006000081102758700013552100000000000000000201410010002001C.I. ABRACOL S.A EMA                              D000000000631600000000000000000000100010010000000000000000000000F0010000006338400620141001000101 00000000000000000000000000000000000000000000000000000000000000000000000000000000000000000000000000000000000000000N 00000000000NCONT   00    00000000000          00000000000000000000000000000000000000000000 000000000000000A000000000000000000000000000000000000000000000 000000000000000000000000000000000000000     00000000                                                                                                                        000000000000000000
F0010000006338500001000081102758700013050500000000000000000201410010002001C.I. ABRACOL S.A EMA                              D000000056175700000000000000000000100010010000000000000000000000F0010000006338500120141001000101 00000000000000000000000000000000000000000000000000000000000000000000000000000000000000000000000000000000000000000N 00000000000NCONT   00    00000000000          00000000000000000000000000000000000000000000 000000000000000A000000000000000000000000000000000000000000000 000000000000000000000000000000000000000     00000000                                                                                                                        000000000000000000
F0010000006338500002000081102758700041450500000000000000000201410010002001C.I. ABRACOL S.A EMA                              C000000039880000000000000000000000100010010000000000000000000000F0010000006338500220141001000101 00000000000000000000000000000000000000000000000000000000000000000000000000000000000000000000000000000000000000000N 00000000000NCONT   00    00000000000          00000000000000000000000000000000000000000000 000000000000000A000000000000000000000000000000000000000000000 000000000000000000000000000000000000000     00000000                                                                                                                        000000000000000000
F0010000006338500003000081102758700041750100000000000000000201410010002001C.I. ABRACOL S.A EMA                              D000000001196400000000000000000000100010010000000000000000000000F0010000006338500320141001000101 00000000000000000000000000000000000000000000000000000000000000000000000000000000000000000000000000000000000000000N 00000000000NCONT   00    00000000000          00000000000000000000000000000000000000000000 000000000000000A000000000000000000000000000000000000000000000 000000000000000000000000000000000000000     00000000                                                                                                                        000000000000000000
F0010000006338500004000081102758700042505000000000000000000201410010002001C.I. ABRACOL S.A EMA                              C000000017492100000000000000000000100010010000000000000000000000F0010000006338500420141001000101 00000000000000000000000000000000000000000000000000000000000000000000000000000000000000000000000000000000000000000N 00000000000NCONT   00    00000000000          00000000000000000000000000000000000000000000 000000000000000A000000000000000000000000000000000000000000000 000000000000000000000000000000000000000     00000000                                                                                                                        000000000000000000
F0010000006338500005000081102758700023658300000000000000000201410010002001C.I. ABRACOL S.A EMA                              C000000000319000000000000000000000100010010000000000000000000000F0010000006338500520141001000101 00000000000000000000000000000000000000000000000000000000000000000000000000000000000000000000000000000000000000000N 00000000000NCONT   00    00000000000          00000000000000000000000000000000000000000000 000000000000000A000000000000000000000000000000000000000000000 000000000000000000000000000000000000000     00000000                                                                                                                        000000000000000000
F0010000006338500006000081102758700013552100000000000000000201410010002001C.I. ABRACOL S.A EMA                              D000000000319000000000000000000000100010010000000000000000000000F0010000006338500620141001000101 00000000000000000000000000000000000000000000000000000000000000000000000000000000000000000000000000000000000000000N 00000000000NCONT   00    00000000000          00000000000000000000000000000000000000000000 000000000000000A000000000000000000000000000000000000000000000 000000000000000000000000000000000000000     00000000                                                                                                                        000000000000000000
F0010000006338600001000081102758700013050500000000000000000201410010002001C.I. ABRACOL S.A EMA                              D000000061394400000000000000000000100010010000000000000000000000F0010000006338600120141001000101 00000000000000000000000000000000000000000000000000000000000000000000000000000000000000000000000000000000000000000N 00000000000NCONT   00    00000000000          00000000000000000000000000000000000000000000 000000000000000A000000000000000000000000000000000000000000000 000000000000000000000000000000000000000     00000000                                                                                                                        000000000000000000
F0010000006338600002000081102758700041450500000000000000000201410010002001C.I. ABRACOL S.A EMA                              C000000036220000000000000000000000100010010000000000000000000000F0010000006338600220141001000101 00000000000000000000000000000000000000000000000000000000000000000000000000000000000000000000000000000000000000000N 00000000000NCONT   00    00000000000          00000000000000000000000000000000000000000000 000000000000000A000000000000000000000000000000000000000000000 000000000000000000000000000000000000000     00000000                                                                                                                        000000000000000000
F0010000006338600003000081102758700041750100000000000000000201410010002001C.I. ABRACOL S.A EMA                              D000000001086600000000000000000000100010010000000000000000000000F0010000006338600320141001000101 00000000000000000000000000000000000000000000000000000000000000000000000000000000000000000000000000000000000000000N 00000000000NCONT   00    00000000000          00000000000000000000000000000000000000000000 000000000000000A000000000000000000000000000000000000000000000 000000000000000000000000000000000000000     00000000                                                                                                                        000000000000000000
F0010000006338600004000081102758700042505000000000000000000201410010002001C.I. ABRACOL S.A EMA                              C000000026261000000000000000000000100010010000000000000000000000F0010000006338600420141001000101 00000000000000000000000000000000000000000000000000000000000000000000000000000000000000000000000000000000000000000N 00000000000NCONT   00    00000000000          00000000000000000000000000000000000000000000 000000000000000A000000000000000000000000000000000000000000000 000000000000000000000000000000000000000     00000000                                                                                                                        000000000000000000
F0010000006338600005000081102758700023658300000000000000000201410010002001C.I. ABRACOL S.A EMA                              C000000000289800000000000000000000100010010000000000000000000000F0010000006338600520141001000101 00000000000000000000000000000000000000000000000000000000000000000000000000000000000000000000000000000000000000000N 00000000000NCONT   00    00000000000          00000000000000000000000000000000000000000000 000000000000000A000000000000000000000000000000000000000000000 000000000000000000000000000000000000000     00000000                                                                                                                        000000000000000000
F0010000006338600006000081102758700013552100000000000000000201410010002001C.I. ABRACOL S.A EMA                              D000000000289800000000000000000000100010010000000000000000000000F0010000006338600620141001000101 00000000000000000000000000000000000000000000000000000000000000000000000000000000000000000000000000000000000000000N 00000000000NCONT   00    00000000000          00000000000000000000000000000000000000000000 000000000000000A000000000000000000000000000000000000000000000 000000000000000000000000000000000000000     00000000                                                                                                                        000000000000000000
F0010000006338700001000081102758700013050500000000000000000201410010002001C.I. ABRACOL S.A EMA                              D000000016205000000000000000000000100010010000000000000000000000F0010000006338700120141001000101 00000000000000000000000000000000000000000000000000000000000000000000000000000000000000000000000000000000000000000N 00000000000NCONT   00    00000000000          00000000000000000000000000000000000000000000 000000000000000A000000000000000000000000000000000000000000000 000000000000000000000000000000000000000     00000000                                                                                                                        000000000000000000
F0010000006338700002000081102758700041450500000000000000000201410010002001C.I. ABRACOL S.A EMA                              C000000009587900000000000000000000100010010000000000000000000000F0010000006338700220141001000101 00000000000000000000000000000000000000000000000000000000000000000000000000000000000000000000000000000000000000000N 00000000000NCONT   00    00000000000          00000000000000000000000000000000000000000000 000000000000000A000000000000000000000000000000000000000000000 000000000000000000000000000000000000000     00000000                                                                                                                        000000000000000000
F0010000006338700003000081102758700041750100000000000000000201410010002001C.I. ABRACOL S.A EMA                              D000000000287600000000000000000000100010010000000000000000000000F0010000006338700320141001000101 00000000000000000000000000000000000000000000000000000000000000000000000000000000000000000000000000000000000000000N 00000000000NCONT   00    00000000000          00000000000000000000000000000000000000000000 000000000000000A000000000000000000000000000000000000000000000 000000000000000000000000000000000000000     00000000                                                                                                                        000000000000000000
F0010000006338700004000081102758700042505000000000000000000201410010002001C.I. ABRACOL S.A EMA                              C000000006904700000000000000000000100010010000000000000000000000F0010000006338700420141001000101 00000000000000000000000000000000000000000000000000000000000000000000000000000000000000000000000000000000000000000N 00000000000NCONT   00    00000000000          00000000000000000000000000000000000000000000 000000000000000A000000000000000000000000000000000000000000000 000000000000000000000000000000000000000     00000000                                                                                                                        000000000000000000
F0010000006338700005000081102758700023658300000000000000000201410010002001C.I. ABRACOL S.A EMA                              C000000000076700000000000000000000100010010000000000000000000000F0010000006338700520141001000101 00000000000000000000000000000000000000000000000000000000000000000000000000000000000000000000000000000000000000000N 00000000000NCONT   00    00000000000          00000000000000000000000000000000000000000000 000000000000000A000000000000000000000000000000000000000000000 000000000000000000000000000000000000000     00000000                                                                                                                        000000000000000000
F0010000006338700006000081102758700013552100000000000000000201410010002001C.I. ABRACOL S.A EMA                              D000000000076700000000000000000000100010010000000000000000000000F0010000006338700620141001000101 00000000000000000000000000000000000000000000000000000000000000000000000000000000000000000000000000000000000000000N 00000000000NCONT   00    00000000000          00000000000000000000000000000000000000000000 000000000000000A000000000000000000000000000000000000000000000 000000000000000000000000000000000000000     00000000                                                                                                                        000000000000000000
F0010000006338800001000086000089600013050500000000000000000201410010002001SIKA COLOMBIA S.A.                                D000000058115600000000000000000000100010010000000000000000000000F0010000006338800120141001000101 00000000000000000000000000000000000000000000000000000000000000000000000000000000000000000000000000000000000000000N 00000000000NCONT   00    00000000000          00000000000000000000000000000000000000000000 000000000000000A000000000000000000000000000000000000000000000 000000000000000000000000000000000000000     00000000                                                                                                                        000000000000000000
F0010000006338800002000086000089600041450500000000000000000201410010002001SIKA COLOMBIA S.A.                                C000000052865900000000000000000000100010010000000000000000000000F0010000006338800220141001000101 00000000000000000000000000000000000000000000000000000000000000000000000000000000000000000000000000000000000000000N 00000000000NCONT   00    00000000000          00000000000000000000000000000000000000000000 000000000000000A000000000000000000000000000000000000000000000 000000000000000000000000000000000000000     00000000                                                                                                                        000000000000000000
F0010000006338800003000086000089600042505000000000000000000201410010002001SIKA COLOMBIA S.A.                                C000000005249700000000000000000000100010010000000000000000000000F0010000006338800320141001000101 00000000000000000000000000000000000000000000000000000000000000000000000000000000000000000000000000000000000000000N 00000000000NCONT   00    00000000000          00000000000000000000000000000000000000000000 000000000000000A000000000000000000000000000000000000000000000 000000000000000000000000000000000000000     00000000                                                                                                                        000000000000000000
F0010000006338800004000086000089600023658300000000000000000201410010002001SIKA COLOMBIA S.A.                                C000000000422900000000000000000000100010010000000000000000000000F0010000006338800420141001000101 00000000000000000000000000000000000000000000000000000000000000000000000000000000000000000000000000000000000000000N 00000000000NCONT   00    00000000000          00000000000000000000000000000000000000000000 000000000000000A000000000000000000000000000000000000000000000 000000000000000000000000000000000000000     00000000                                                                                                                        000000000000000000
F0010000006338800005000086000089600013552100000000000000000201410010002001SIKA COLOMBIA S.A.                                D000000000422900000000000000000000100010010000000000000000000000F0010000006338800520141001000101 00000000000000000000000000000000000000000000000000000000000000000000000000000000000000000000000000000000000000000N 00000000000NCONT   00    00000000000          00000000000000000000000000000000000000000000 000000000000000A000000000000000000000000000000000000000000000 000000000000000000000000000000000000000     00000000                                                                                                                        000000000000000000
F0010000006338900001000086000089600013050500000000000000000201410010002001SIKA COLOMBIA S.A.                                D000000149720700000000000000000000100010010000000000000000000000F0010000006338900120141001000101 00000000000000000000000000000000000000000000000000000000000000000000000000000000000000000000000000000000000000000N 00000000000NCONT   00    00000000000          00000000000000000000000000000000000000000000 000000000000000A000000000000000000000000000000000000000000000 000000000000000000000000000000000000000     00000000                                                                                                                        000000000000000000
F0010000006338900002000086000089600041450500000000000000000201410010002001SIKA COLOMBIA S.A.                                C000000137395700000000000000000000100010010000000000000000000000F0010000006338900220141001000101 00000000000000000000000000000000000000000000000000000000000000000000000000000000000000000000000000000000000000000N 00000000000NCONT   00    00000000000          00000000000000000000000000000000000000000000 000000000000000A000000000000000000000000000000000000000000000 000000000000000000000000000000000000000     00000000                                                                                                                        000000000000000000
F0010000006338900003000086000089600042505000000000000000000201410010002001SIKA COLOMBIA S.A.                                C000000012325000000000000000000000100010010000000000000000000000F0010000006338900320141001000101 00000000000000000000000000000000000000000000000000000000000000000000000000000000000000000000000000000000000000000N 00000000000NCONT   00    00000000000          00000000000000000000000000000000000000000000 000000000000000A000000000000000000000000000000000000000000000 000000000000000000000000000000000000000     00000000                                                                                                                        000000000000000000
F0010000006338900004000086000089600023658300000000000000000201410010002001SIKA COLOMBIA S.A.                                C000000001099200000000000000000000100010010000000000000000000000F0010000006338900420141001000101 00000000000000000000000000000000000000000000000000000000000000000000000000000000000000000000000000000000000000000N 00000000000NCONT   00    00000000000          00000000000000000000000000000000000000000000 000000000000000A000000000000000000000000000000000000000000000 000000000000000000000000000000000000000     00000000                                                                                                                        000000000000000000
F0010000006338900005000086000089600013552100000000000000000201410010002001SIKA COLOMBIA S.A.                                D000000001099200000000000000000000100010010000000000000000000000F0010000006338900520141001000101 00000000000000000000000000000000000000000000000000000000000000000000000000000000000000000000000000000000000000000N 00000000000NCONT   00    00000000000          00000000000000000000000000000000000000000000 000000000000000A000000000000000000000000000000000000000000000 000000000000000000000000000000000000000     00000000                                                                                                                        000000000000000000
F0010000006339000001000080200503400013050500000000000000000201410010002001INGEQUIMICA LTDA                                  D000000032336200000000000000000000100010010000000000000000000000F0010000006339000120141001000101 00000000000000000000000000000000000000000000000000000000000000000000000000000000000000000000000000000000000000000N 00000000000NCONT   00    00000000000          00000000000000000000000000000000000000000000 000000000000000A000000000000000000000000000000000000000000000 000000000000000000000000000000000000000     00000000                                                                                                                        000000000000000000
F0010000006339000002000080200503400041450500000000000000000201410010002001INGEQUIMICA LTDA                                  C000000028000000000000000000000000100010010000000000000000000000F0010000006339000220141001000101 00000000000000000000000000000000000000000000000000000000000000000000000000000000000000000000000000000000000000000N 00000000000NCONT   00    00000000000          00000000000000000000000000000000000000000000 000000000000000A000000000000000000000000000000000000000000000 000000000000000000000000000000000000000     00000000                                                                                                                        000000000000000000
F0010000006339000003000080200503400042505000000000000000000201410010002001INGEQUIMICA LTDA                                  C000000004336200000000000000000000100010010000000000000000000000F0010000006339000320141001000101 00000000000000000000000000000000000000000000000000000000000000000000000000000000000000000000000000000000000000000N 00000000000NCONT   00    00000000000          00000000000000000000000000000000000000000000 000000000000000A000000000000000000000000000000000000000000000 000000000000000000000000000000000000000     00000000                                                                                                                        000000000000000000
F0010000006339000004000080200503400023658300000000000000000201410010002001INGEQUIMICA LTDA                                  C000000000224000000000000000000000100010010000000000000000000000F0010000006339000420141001000101 00000000000000000000000000000000000000000000000000000000000000000000000000000000000000000000000000000000000000000N 00000000000NCONT   00    00000000000          00000000000000000000000000000000000000000000 000000000000000A000000000000000000000000000000000000000000000 000000000000000000000000000000000000000     00000000                                                                                                                        000000000000000000
F0010000006339000005000080200503400013552100000000000000000201410010002001INGEQUIMICA LTDA                                  D000000000224000000000000000000000100010010000000000000000000000F0010000006339000520141001000101 00000000000000000000000000000000000000000000000000000000000000000000000000000000000000000000000000000000000000000N 00000000000NCONT   00    00000000000          00000000000000000000000000000000000000000000 000000000000000A000000000000000000000000000000000000000000000 000000000000000000000000000000000000000     00000000                                                                                                                        000000000000000000
F0010000006339100001000090035510100013050500000000000000000201410010002001GRAINGER COLOMBIA S.A.S.                          D000000009951700000000000000000000100010010000000000000000000000F0010000006339100120141001000101 00000000000000000000000000000000000000000000000000000000000000000000000000000000000000000000000000000000000000000N 00000000000NCONT   00    00000000000          00000000000000000000000000000000000000000000 000000000000000A000000000000000000000000000000000000000000000 000000000000000000000000000000000000000     00000000                                                                                                                        000000000000000000
F0010000006339100002000090035510100041450500000000000000000201410010002001GRAINGER COLOMBIA S.A.S.                          C000000007931800000000000000000000100010010000000000000000000000F0010000006339100220141001000101 00000000000000000000000000000000000000000000000000000000000000000000000000000000000000000000000000000000000000000N 00000000000NCONT   00    00000000000          00000000000000000000000000000000000000000000 000000000000000A000000000000000000000000000000000000000000000 000000000000000000000000000000000000000     00000000                                                                                                                        000000000000000000
F0010000006339100003000090035510100042505000000000000000000201410010002001GRAINGER COLOMBIA S.A.S.                          C000000002019900000000000000000000100010010000000000000000000000F0010000006339100320141001000101 00000000000000000000000000000000000000000000000000000000000000000000000000000000000000000000000000000000000000000N 00000000000NCONT   00    00000000000          00000000000000000000000000000000000000000000 000000000000000A000000000000000000000000000000000000000000000 000000000000000000000000000000000000000     00000000                                                                                                                        000000000000000000
F0010000006339100004000090035510100023658300000000000000000201410010002001GRAINGER COLOMBIA S.A.S.                          C000000000063500000000000000000000100010010000000000000000000000F0010000006339100420141001000101 00000000000000000000000000000000000000000000000000000000000000000000000000000000000000000000000000000000000000000N 00000000000NCONT   00    00000000000          00000000000000000000000000000000000000000000 000000000000000A000000000000000000000000000000000000000000000 000000000000000000000000000000000000000     00000000                                                                                                                        000000000000000000
F0010000006339100005000090035510100013552100000000000000000201410010002001GRAINGER COLOMBIA S.A.S.                          D000000000063500000000000000000000100010010000000000000000000000F0010000006339100520141001000101 00000000000000000000000000000000000000000000000000000000000000000000000000000000000000000000000000000000000000000N 00000000000NCONT   00    00000000000          00000000000000000000000000000000000000000000 000000000000000A000000000000000000000000000000000000000000000 000000000000000000000000000000000000000     00000000                                                                                                                        000000000000000000
F0010000006339200001000003207718300011050500000000000000000201410010002001GILMA RAMIREZ                                     D000000003500000000000000000000000100010010000000000000000000000F0010000006339200120141001000101 00000000000000000000000000000000000000000000000000000000000000000000000000000000000000000000000000000000000000000N 00000000000NCONT   00    00000000000          00000000000000000000000000000000000000000000 000000000000000A000000000000000000000000000000000000000000000 000000000000000000000000000000000000000     00000000                                                                                                                        000000000000000000
F0010000006339200002000003207718300041450500000000000000000201410010002001GILMA RAMIREZ                                     C000000002700000000000000000000000100010010000000000000000000000F0010000006339200220141001000101 00000000000000000000000000000000000000000000000000000000000000000000000000000000000000000000000000000000000000000N 00000000000NCONT   00    00000000000          00000000000000000000000000000000000000000000 000000000000000A000000000000000000000000000000000000000000000 000000000000000000000000000000000000000     00000000                                                                                                                        000000000000000000
F0010000006339200003000003207718300042505000000000000000000201410010002001GILMA RAMIREZ                                     C000000000800000000000000000000000100010010000000000000000000000F0010000006339200320141001000101 00000000000000000000000000000000000000000000000000000000000000000000000000000000000000000000000000000000000000000N 00000000000NCONT   00    00000000000          00000000000000000000000000000000000000000000 000000000000000A000000000000000000000000000000000000000000000 000000000000000000000000000000000000000     00000000                                                                                                                        000000000000000000
F0010000006339200004000003207718300023658300000000000000000201410010002001GILMA RAMIREZ                                     C000000000021600000000000000000000100010010000000000000000000000F0010000006339200420141001000101 00000000000000000000000000000000000000000000000000000000000000000000000000000000000000000000000000000000000000000N 00000000000NCONT   00    00000000000          00000000000000000000000000000000000000000000 000000000000000A000000000000000000000000000000000000000000000 000000000000000000000000000000000000000     00000000                                                                                                                        000000000000000000
F0010000006339200005000003207718300013552100000000000000000201410010002001GILMA RAMIREZ                                     D000000000021600000000000000000000100010010000000000000000000000F0010000006339200520141001000101 00000000000000000000000000000000000000000000000000000000000000000000000000000000000000000000000000000000000000000N 00000000000NCONT   00    00000000000          00000000000000000000000000000000000000000000 000000000000000A000000000000000000000000000000000000000000000 000000000000000000000000000000000000000     00000000                                                                                                                        000000000000000000
F0010000006339300001000000870053600011050500000000000000000201410010002001FARID ARRIETA                                     D000000001000000000000000000000000100010010000000000000000000000F0010000006339300120141001000101 00000000000000000000000000000000000000000000000000000000000000000000000000000000000000000000000000000000000000000N 00000000000NCONT   00    00000000000          00000000000000000000000000000000000000000000 000000000000000A000000000000000000000000000000000000000000000 000000000000000000000000000000000000000     00000000                                                                                                                        000000000000000000
F0010000006339300002000000870053600041450500000000000000000201410010002001FARID ARRIETA                                     C000000000900000000000000000000000100010010000000000000000000000F0010000006339300220141001000101 00000000000000000000000000000000000000000000000000000000000000000000000000000000000000000000000000000000000000000N 00000000000NCONT   00    00000000000          00000000000000000000000000000000000000000000 000000000000000A000000000000000000000000000000000000000000000 000000000000000000000000000000000000000     00000000                                                                                                                        000000000000000000
F0010000006339300003000000870053600042505000000000000000000201410010002001FARID ARRIETA                                     C000000000100000000000000000000000100010010000000000000000000000F0010000006339300320141001000101 00000000000000000000000000000000000000000000000000000000000000000000000000000000000000000000000000000000000000000N 00000000000NCONT   00    00000000000          00000000000000000000000000000000000000000000 000000000000000A000000000000000000000000000000000000000000000 000000000000000000000000000000000000000     00000000                                                                                                                        000000000000000000
F0010000006339300004000000870053600023658300000000000000000201410010002001FARID ARRIETA                                     C000000000007200000000000000000000100010010000000000000000000000F0010000006339300420141001000101 00000000000000000000000000000000000000000000000000000000000000000000000000000000000000000000000000000000000000000N 00000000000NCONT   00    00000000000          00000000000000000000000000000000000000000000 000000000000000A000000000000000000000000000000000000000000000 000000000000000000000000000000000000000     00000000                                                                                                                        000000000000000000
F0010000006339300005000000870053600013552100000000000000000201410010002001FARID ARRIETA                                     D000000000007200000000000000000000100010010000000000000000000000F0010000006339300520141001000101 00000000000000000000000000000000000000000000000000000000000000000000000000000000000000000000000000000000000000000N 00000000000NCONT   00    00000000000          00000000000000000000000000000000000000000000 000000000000000A000000000000000000000000000000000000000000000 000000000000000000000000000000000000000     00000000                                                                                                                        000000000000000000
F0010000006339400001000086006706200011050500000000000000000201410010002001FERROALUMINIOS S.A.S.                             D000000002500000000000000000000000100010010000000000000000000000F0010000006339400120141001000101 00000000000000000000000000000000000000000000000000000000000000000000000000000000000000000000000000000000000000000N 00000000000NCONT   00    00000000000          00000000000000000000000000000000000000000000 000000000000000A000000000000000000000000000000000000000000000 000000000000000000000000000000000000000     00000000                                                                                                                        000000000000000000
F0010000006339400002000086006706200041450500000000000000000201410010002001FERROALUMINIOS S.A.S.                             C000000002400000000000000000000000100010010000000000000000000000F0010000006339400220141001000101 00000000000000000000000000000000000000000000000000000000000000000000000000000000000000000000000000000000000000000N 00000000000NCONT   00    00000000000          00000000000000000000000000000000000000000000 000000000000000A000000000000000000000000000000000000000000000 000000000000000000000000000000000000000     00000000                                                                                                                        000000000000000000
F0010000006339400003000086006706200042505000000000000000000201410010002001FERROALUMINIOS S.A.S.                             C000000000100000000000000000000000100010010000000000000000000000F0010000006339400320141001000101 00000000000000000000000000000000000000000000000000000000000000000000000000000000000000000000000000000000000000000N 00000000000NCONT   00    00000000000          00000000000000000000000000000000000000000000 000000000000000A000000000000000000000000000000000000000000000 000000000000000000000000000000000000000     00000000                                                                                                                        000000000000000000
F0010000006339400004000086006706200023658300000000000000000201410010002001FERROALUMINIOS S.A.S.                             C000000000019200000000000000000000100010010000000000000000000000F0010000006339400420141001000101 00000000000000000000000000000000000000000000000000000000000000000000000000000000000000000000000000000000000000000N 00000000000NCONT   00    00000000000          00000000000000000000000000000000000000000000 000000000000000A000000000000000000000000000000000000000000000 000000000000000000000000000000000000000     00000000                                                                                                                        000000000000000000
F0010000006339400005000086006706200013552100000000000000000201410010002001FERROALUMINIOS S.A.S.                             D000000000019200000000000000000000100010010000000000000000000000F0010000006339400520141001000101 00000000000000000000000000000000000000000000000000000000000000000000000000000000000000000000000000000000000000000N 00000000000NCONT   00    00000000000          00000000000000000000000000000000000000000000 000000000000000A000000000000000000000000000000000000000000000 000000000000000000000000000000000000000     00000000                                                                                                                        000000000000000000
F0010000006339500001000000742399700011050500000000000000000201410010002001CACHARRERIA EL NUEVO CHADID                       D000000003400000000000000000000000100010010000000000000000000000F0010000006339500120141001000101 00000000000000000000000000000000000000000000000000000000000000000000000000000000000000000000000000000000000000000N 00000000000NCONT   00    00000000000          00000000000000000000000000000000000000000000 000000000000000A000000000000000000000000000000000000000000000 000000000000000000000000000000000000000     00000000                                                                                                                        000000000000000000
F0010000006339500002000000742399700041450500000000000000000201410010002001CACHARRERIA EL NUEVO CHADID                       C000000003000000000000000000000000100010010000000000000000000000F0010000006339500220141001000101 00000000000000000000000000000000000000000000000000000000000000000000000000000000000000000000000000000000000000000N 00000000000NCONT   00    00000000000          00000000000000000000000000000000000000000000 000000000000000A000000000000000000000000000000000000000000000 000000000000000000000000000000000000000     00000000                                                                                                                        000000000000000000
F0010000006339500003000000742399700042505000000000000000000201410010002001CACHARRERIA EL NUEVO CHADID                       C000000000400000000000000000000000100010010000000000000000000000F0010000006339500320141001000101 00000000000000000000000000000000000000000000000000000000000000000000000000000000000000000000000000000000000000000N 00000000000NCONT   00    00000000000          00000000000000000000000000000000000000000000 000000000000000A000000000000000000000000000000000000000000000 000000000000000000000000000000000000000     00000000                                                                                                                        000000000000000000
F0010000006339500004000000742399700023658300000000000000000201410010002001CACHARRERIA EL NUEVO CHADID                       C000000000024000000000000000000000100010010000000000000000000000F0010000006339500420141001000101 00000000000000000000000000000000000000000000000000000000000000000000000000000000000000000000000000000000000000000N 00000000000NCONT   00    00000000000          00000000000000000000000000000000000000000000 000000000000000A000000000000000000000000000000000000000000000 000000000000000000000000000000000000000     00000000                                                                                                                        000000000000000000
F0010000006339500005000000742399700013552100000000000000000201410010002001CACHARRERIA EL NUEVO CHADID                       D000000000024000000000000000000000100010010000000000000000000000F0010000006339500520141001000101 00000000000000000000000000000000000000000000000000000000000000000000000000000000000000000000000000000000000000000N 00000000000NCONT   00    00000000000          00000000000000000000000000000000000000000000 000000000000000A000000000000000000000000000000000000000000000 000000000000000000000000000000000000000     00000000                                                                                                                        000000000000000000
F0010000006339600001000004175790100011050500000000000000000201410010002001ROSIRIS FERIA HOYOS  (COSM. SHILLER)              D000000001200000000000000000000000100010010000000000000000000000F0010000006339600120141001000101 00000000000000000000000000000000000000000000000000000000000000000000000000000000000000000000000000000000000000000N 00000000000NCONT   00    00000000000          00000000000000000000000000000000000000000000 000000000000000A000000000000000000000000000000000000000000000 000000000000000000000000000000000000000     00000000                                                                                                                        000000000000000000
F0010000006339600002000004175790100041450500000000000000000201410010002001ROSIRIS FERIA HOYOS  (COSM. SHILLER)              C000000001100000000000000000000000100010010000000000000000000000F0010000006339600220141001000101 00000000000000000000000000000000000000000000000000000000000000000000000000000000000000000000000000000000000000000N 00000000000NCONT   00    00000000000          00000000000000000000000000000000000000000000 000000000000000A000000000000000000000000000000000000000000000 000000000000000000000000000000000000000     00000000                                                                                                                        000000000000000000
F0010000006339600003000004175790100042505000000000000000000201410010002001ROSIRIS FERIA HOYOS  (COSM. SHILLER)              C000000000100000000000000000000000100010010000000000000000000000F0010000006339600320141001000101 00000000000000000000000000000000000000000000000000000000000000000000000000000000000000000000000000000000000000000N 00000000000NCONT   00    00000000000          00000000000000000000000000000000000000000000 000000000000000A000000000000000000000000000000000000000000000 000000000000000000000000000000000000000     00000000                                                                                                                        000000000000000000
F0010000006339600004000004175790100023658300000000000000000201410010002001ROSIRIS FERIA HOYOS  (COSM. SHILLER)              C000000000008800000000000000000000100010010000000000000000000000F0010000006339600420141001000101 00000000000000000000000000000000000000000000000000000000000000000000000000000000000000000000000000000000000000000N 00000000000NCONT   00    00000000000          00000000000000000000000000000000000000000000 000000000000000A000000000000000000000000000000000000000000000 000000000000000000000000000000000000000     00000000                                                                                                                        000000000000000000
F0010000006339600005000004175790100013552100000000000000000201410010002001ROSIRIS FERIA HOYOS  (COSM. SHILLER)              D000000000008800000000000000000000100010010000000000000000000000F0010000006339600520141001000101 00000000000000000000000000000000000000000000000000000000000000000000000000000000000000000000000000000000000000000N 00000000000NCONT   00    00000000000          00000000000000000000000000000000000000000000 000000000000000A000000000000000000000000000000000000000000000 000000000000000000000000000000000000000     00000000                                                                                                                        000000000000000000
F0010000006339700001000007200023300011050500000000000000000201410010002001COMERCIALIZADORA ORTEGA                           D000000003000000000000000000000000100010010000000000000000000000F0010000006339700120141001000101 00000000000000000000000000000000000000000000000000000000000000000000000000000000000000000000000000000000000000000N 00000000000NCONT   00    00000000000          00000000000000000000000000000000000000000000 000000000000000A000000000000000000000000000000000000000000000 000000000000000000000000000000000000000     00000000                                                                                                                        000000000000000000
F0010000006339700002000007200023300041450500000000000000000201410010002001COMERCIALIZADORA ORTEGA                           C000000002600000000000000000000000100010010000000000000000000000F0010000006339700220141001000101 00000000000000000000000000000000000000000000000000000000000000000000000000000000000000000000000000000000000000000N 00000000000NCONT   00    00000000000          00000000000000000000000000000000000000000000 000000000000000A000000000000000000000000000000000000000000000 000000000000000000000000000000000000000     00000000                                                                                                                        000000000000000000
F0010000006339700003000007200023300042505000000000000000000201410010002001COMERCIALIZADORA ORTEGA                           C000000000400000000000000000000000100010010000000000000000000000F0010000006339700320141001000101 00000000000000000000000000000000000000000000000000000000000000000000000000000000000000000000000000000000000000000N 00000000000NCONT   00    00000000000          00000000000000000000000000000000000000000000 000000000000000A000000000000000000000000000000000000000000000 000000000000000000000000000000000000000     00000000                                                                                                                        000000000000000000
F0010000006339700004000007200023300023658300000000000000000201410010002001COMERCIALIZADORA ORTEGA                           C000000000020800000000000000000000100010010000000000000000000000F0010000006339700420141001000101 00000000000000000000000000000000000000000000000000000000000000000000000000000000000000000000000000000000000000000N 00000000000NCONT   00    00000000000          00000000000000000000000000000000000000000000 000000000000000A000000000000000000000000000000000000000000000 000000000000000000000000000000000000000     00000000                                                                                                                        000000000000000000
F0010000006339700005000007200023300013552100000000000000000201410010002001COMERCIALIZADORA ORTEGA                           D000000000020800000000000000000000100010010000000000000000000000F0010000006339700520141001000101 00000000000000000000000000000000000000000000000000000000000000000000000000000000000000000000000000000000000000000N 00000000000NCONT   00    00000000000          00000000000000000000000000000000000000000000 000000000000000A000000000000000000000000000000000000000000000 000000000000000000000000000000000000000     00000000                                                                                                                        000000000000000000
F0010000006339800001000007200023300011050500000000000000000201410010002001COMERCIALIZADORA ORTEGA                           D000000001200000000000000000000000100010010000000000000000000000F0010000006339800120141001000101 00000000000000000000000000000000000000000000000000000000000000000000000000000000000000000000000000000000000000000N 00000000000NCONT   00    00000000000          00000000000000000000000000000000000000000000 000000000000000A000000000000000000000000000000000000000000000 000000000000000000000000000000000000000     00000000                                                                                                                        000000000000000000
F0010000006339800002000007200023300041450500000000000000000201410010002001COMERCIALIZADORA ORTEGA                           C000000001000000000000000000000000100010010000000000000000000000F0010000006339800220141001000101 00000000000000000000000000000000000000000000000000000000000000000000000000000000000000000000000000000000000000000N 00000000000NCONT   00    00000000000          00000000000000000000000000000000000000000000 000000000000000A000000000000000000000000000000000000000000000 000000000000000000000000000000000000000     00000000                                                                                                                        000000000000000000
F0010000006339800003000007200023300042505000000000000000000201410010002001COMERCIALIZADORA ORTEGA                           C000000000200000000000000000000000100010010000000000000000000000F0010000006339800320141001000101 00000000000000000000000000000000000000000000000000000000000000000000000000000000000000000000000000000000000000000N 00000000000NCONT   00    00000000000          00000000000000000000000000000000000000000000 000000000000000A000000000000000000000000000000000000000000000 000000000000000000000000000000000000000     00000000                                                                                                                        000000000000000000
F0010000006339800004000007200023300023658300000000000000000201410010002001COMERCIALIZADORA ORTEGA                           C000000000008000000000000000000000100010010000000000000000000000F0010000006339800420141001000101 00000000000000000000000000000000000000000000000000000000000000000000000000000000000000000000000000000000000000000N 00000000000NCONT   00    00000000000          00000000000000000000000000000000000000000000 000000000000000A000000000000000000000000000000000000000000000 000000000000000000000000000000000000000     00000000                                                                                                                        000000000000000000
F0010000006339800005000007200023300013552100000000000000000201410010002001COMERCIALIZADORA ORTEGA                           D000000000008000000000000000000000100010010000000000000000000000F0010000006339800520141001000101 00000000000000000000000000000000000000000000000000000000000000000000000000000000000000000000000000000000000000000N 00000000000NCONT   00    00000000000          00000000000000000000000000000000000000000000 000000000000000A000000000000000000000000000000000000000000000 000000000000000000000000000000000000000     00000000                                                                                                                        000000000000000000
F0010000006339900001000007200023300011050500000000000000000201410010002001WILLIAM ORTEGA                                    D000000001500000000000000000000000100010010000000000000000000000F0010000006339900120141001000101 00000000000000000000000000000000000000000000000000000000000000000000000000000000000000000000000000000000000000000N 00000000000NCONT   00    00000000000          00000000000000000000000000000000000000000000 000000000000000A000000000000000000000000000000000000000000000 000000000000000000000000000000000000000     00000000                                                                                                                        000000000000000000
F0010000006339900002000007200023300041450500000000000000000201410010002001WILLIAM ORTEGA                                    C000000001300000000000000000000000100010010000000000000000000000F0010000006339900220141001000101 00000000000000000000000000000000000000000000000000000000000000000000000000000000000000000000000000000000000000000N 00000000000NCONT   00    00000000000          00000000000000000000000000000000000000000000 000000000000000A000000000000000000000000000000000000000000000 000000000000000000000000000000000000000     00000000                                                                                                                        000000000000000000
F0010000006339900003000007200023300042505000000000000000000201410010002001WILLIAM ORTEGA                                    C000000000200000000000000000000000100010010000000000000000000000F0010000006339900320141001000101 00000000000000000000000000000000000000000000000000000000000000000000000000000000000000000000000000000000000000000N 00000000000NCONT   00    00000000000          00000000000000000000000000000000000000000000 000000000000000A000000000000000000000000000000000000000000000 000000000000000000000000000000000000000     00000000                                                                                                                        000000000000000000
F0010000006339900004000007200023300023658300000000000000000201410010002001WILLIAM ORTEGA                                    C000000000010400000000000000000000100010010000000000000000000000F0010000006339900420141001000101 00000000000000000000000000000000000000000000000000000000000000000000000000000000000000000000000000000000000000000N 00000000000NCONT   00    00000000000          00000000000000000000000000000000000000000000 000000000000000A000000000000000000000000000000000000000000000 000000000000000000000000000000000000000     00000000                                                                                                                        000000000000000000
F0010000006339900005000007200023300013552100000000000000000201410010002001WILLIAM ORTEGA                                    D000000000010400000000000000000000100010010000000000000000000000F0010000006339900520141001000101 00000000000000000000000000000000000000000000000000000000000000000000000000000000000000000000000000000000000000000N 00000000000NCONT   00    00000000000          00000000000000000000000000000000000000000000 000000000000000A000000000000000000000000000000000000000000000 000000000000000000000000000000000000000     00000000                                                                                                                        000000000000000000
F0010000006340000001000080201783900011050500000000000000000201410010002001DURAN ACEVEDO Y CIA SAS                           D000000004000000000000000000000000100010010000000000000000000000F0010000006340000120141001000101 00000000000000000000000000000000000000000000000000000000000000000000000000000000000000000000000000000000000000000N 00000000000NCONT   00    00000000000          00000000000000000000000000000000000000000000 000000000000000A000000000000000000000000000000000000000000000 000000000000000000000000000000000000000     00000000                                                                                                                        000000000000000000
F0010000006340000002000080201783900041450500000000000000000201410010002001DURAN ACEVEDO Y CIA SAS                           C000000003750000000000000000000000100010010000000000000000000000F0010000006340000220141001000101 00000000000000000000000000000000000000000000000000000000000000000000000000000000000000000000000000000000000000000N 00000000000NCONT   00    00000000000          00000000000000000000000000000000000000000000 000000000000000A000000000000000000000000000000000000000000000 000000000000000000000000000000000000000     00000000                                                                                                                        000000000000000000
F0010000006340000003000080201783900042505000000000000000000201410010002001DURAN ACEVEDO Y CIA SAS                           C000000000250000000000000000000000100010010000000000000000000000F0010000006340000320141001000101 00000000000000000000000000000000000000000000000000000000000000000000000000000000000000000000000000000000000000000N 00000000000NCONT   00    00000000000          00000000000000000000000000000000000000000000 000000000000000A000000000000000000000000000000000000000000000 000000000000000000000000000000000000000     00000000                                                                                                                        000000000000000000
F0010000006340000004000080201783900023658300000000000000000201410010002001DURAN ACEVEDO Y CIA SAS                           C000000000030000000000000000000000100010010000000000000000000000F0010000006340000420141001000101 00000000000000000000000000000000000000000000000000000000000000000000000000000000000000000000000000000000000000000N 00000000000NCONT   00    00000000000          00000000000000000000000000000000000000000000 000000000000000A000000000000000000000000000000000000000000000 000000000000000000000000000000000000000     00000000                                                                                                                        000000000000000000
F0010000006340000005000080201783900013552100000000000000000201410010002001DURAN ACEVEDO Y CIA SAS                           D000000000030000000000000000000000100010010000000000000000000000F0010000006340000520141001000101 00000000000000000000000000000000000000000000000000000000000000000000000000000000000000000000000000000000000000000N 00000000000NCONT   00    00000000000          00000000000000000000000000000000000000000000 000000000000000A000000000000000000000000000000000000000000000 000000000000000000000000000000000000000     00000000                                                                                                                        000000000000000000
F0010000006340100001000007200023300011050500000000000000000201410010002001COMERCIALIZADORA ORTEGA                           D000000002200000000000000000000000100010010000000000000000000000F0010000006340100120141001000101 00000000000000000000000000000000000000000000000000000000000000000000000000000000000000000000000000000000000000000N 00000000000NCONT   00    00000000000          00000000000000000000000000000000000000000000 000000000000000A000000000000000000000000000000000000000000000 000000000000000000000000000000000000000     00000000                                                                                                                        000000000000000000
F0010000006340100002000007200023300041450500000000000000000201410010002001COMERCIALIZADORA ORTEGA                           C000000002000000000000000000000000100010010000000000000000000000F0010000006340100220141001000101 00000000000000000000000000000000000000000000000000000000000000000000000000000000000000000000000000000000000000000N 00000000000NCONT   00    00000000000          00000000000000000000000000000000000000000000 000000000000000A000000000000000000000000000000000000000000000 000000000000000000000000000000000000000     00000000                                                                                                                        000000000000000000
F0010000006340100003000007200023300042505000000000000000000201410010002001COMERCIALIZADORA ORTEGA                           C000000000200000000000000000000000100010010000000000000000000000F0010000006340100320141001000101 00000000000000000000000000000000000000000000000000000000000000000000000000000000000000000000000000000000000000000N 00000000000NCONT   00    00000000000          00000000000000000000000000000000000000000000 000000000000000A000000000000000000000000000000000000000000000 000000000000000000000000000000000000000     00000000                                                                                                                        000000000000000000
F0010000006340100004000007200023300023658300000000000000000201410010002001COMERCIALIZADORA ORTEGA                           C000000000016000000000000000000000100010010000000000000000000000F0010000006340100420141001000101 00000000000000000000000000000000000000000000000000000000000000000000000000000000000000000000000000000000000000000N 00000000000NCONT   00    00000000000          00000000000000000000000000000000000000000000 000000000000000A000000000000000000000000000000000000000000000 000000000000000000000000000000000000000     00000000                                                                                                                        000000000000000000
F0010000006340100005000007200023300013552100000000000000000201410010002001COMERCIALIZADORA ORTEGA                           D000000000016000000000000000000000100010010000000000000000000000F0010000006340100520141001000101 00000000000000000000000000000000000000000000000000000000000000000000000000000000000000000000000000000000000000000N 00000000000NCONT   00    00000000000          00000000000000000000000000000000000000000000 000000000000000A000000000000000000000000000000000000000000000 000000000000000000000000000000000000000     00000000                                                                                                                        000000000000000000
F0010000006340200001000007200023300011050500000000000000000201410010002001COMERCIALIZADORA ORTEGA                           D000000001200000000000000000000000100010010000000000000000000000F0010000006340200120141001000101 00000000000000000000000000000000000000000000000000000000000000000000000000000000000000000000000000000000000000000N 00000000000NCONT   00    00000000000          00000000000000000000000000000000000000000000 000000000000000A000000000000000000000000000000000000000000000 000000000000000000000000000000000000000     00000000                                                                                                                        000000000000000000
