F0010000005930400001000081103864800011050500000000000000000201406170002001SAECO                                             D000000082500000000000000000000000100010010000000000000000000000F0010000005930400120140617000101 00000000000000000000000000000000000000000000000000000000000000000000000000000000000000000000000000000000000000000N 00000000000NCONT   00    00000000000          00000000000000000000000000000000000000000000 000000000000000A000000000000000000000000000000000000000000000 000000000000000000000000000000000000000     00000000                                                                                                                        000000000000000000
F0010000005930400002000081103864800041450500000000000000000201406170002001SAECO                                             C000000080000000000000000000000000100010010000000000000000000000F0010000005930400220140617000101 00000000000000000000000000000000000000000000000000000000000000000000000000000000000000000000000000000000000000000N 00000000000NCONT   00    00000000000          00000000000000000000000000000000000000000000 000000000000000A000000000000000000000000000000000000000000000 000000000000000000000000000000000000000     00000000                                                                                                                        000000000000000000
F0010000005930400003000081103864800042505000000000000000000201406170002001SAECO                                             C000000002500000000000000000000000100010010000000000000000000000F0010000005930400320140617000101 00000000000000000000000000000000000000000000000000000000000000000000000000000000000000000000000000000000000000000N 00000000000NCONT   00    00000000000          00000000000000000000000000000000000000000000 000000000000000A000000000000000000000000000000000000000000000 000000000000000000000000000000000000000     00000000                                                                                                                        000000000000000000
F0010000005930400004000081103864800023658300000000000000000201406170002001SAECO                                             C000000000640000000000000000000000100010010000000000000000000000F0010000005930400420140617000101 00000000000000000000000000000000000000000000000000000000000000000000000000000000000000000000000000000000000000000N 00000000000NCONT   00    00000000000          00000000000000000000000000000000000000000000 000000000000000A000000000000000000000000000000000000000000000 000000000000000000000000000000000000000     00000000                                                                                                                        000000000000000000
F0010000005930400005000081103864800013552100000000000000000201406170002001SAECO                                             D000000000640000000000000000000000100010010000000000000000000000F0010000005930400520140617000101 00000000000000000000000000000000000000000000000000000000000000000000000000000000000000000000000000000000000000000N 00000000000NCONT   00    00000000000          00000000000000000000000000000000000000000000 000000000000000A000000000000000000000000000000000000000000000 000000000000000000000000000000000000000     00000000                                                                                                                        000000000000000000
F0010000005930500001000080016665600013050500000000000000000201406170002001SUMICAL DE ANTIOQUIA S.A.S                        D000000033933700000000000000000000100010010000000000000000000000F0010000005930500120140617000101 00000000000000000000000000000000000000000000000000000000000000000000000000000000000000000000000000000000000000000N 00000000000NCONT   00    00000000000          00000000000000000000000000000000000000000000 000000000000000A000000000000000000000000000000000000000000000 000000000000000000000000000000000000000     00000000                                                                                                                        000000000000000000
F0010000005930500002000080016665600041450500000000000000000201406170002001SUMICAL DE ANTIOQUIA S.A.S                        C000000027710000000000000000000000100010010000000000000000000000F0010000005930500220140617000101 00000000000000000000000000000000000000000000000000000000000000000000000000000000000000000000000000000000000000000N 00000000000NCONT   00    00000000000          00000000000000000000000000000000000000000000 000000000000000A000000000000000000000000000000000000000000000 000000000000000000000000000000000000000     00000000                                                                                                                        000000000000000000
F0010000005930500003000080016665600042505000000000000000000201406170002001SUMICAL DE ANTIOQUIA S.A.S                        C000000006223700000000000000000000100010010000000000000000000000F0010000005930500320140617000101 00000000000000000000000000000000000000000000000000000000000000000000000000000000000000000000000000000000000000000N 00000000000NCONT   00    00000000000          00000000000000000000000000000000000000000000 000000000000000A000000000000000000000000000000000000000000000 000000000000000000000000000000000000000     00000000                                                                                                                        000000000000000000
F0010000005930500004000080016665600023658300000000000000000201406170002001SUMICAL DE ANTIOQUIA S.A.S                        C000000000221700000000000000000000100010010000000000000000000000F0010000005930500420140617000101 00000000000000000000000000000000000000000000000000000000000000000000000000000000000000000000000000000000000000000N 00000000000NCONT   00    00000000000          00000000000000000000000000000000000000000000 000000000000000A000000000000000000000000000000000000000000000 000000000000000000000000000000000000000     00000000                                                                                                                        000000000000000000
F0010000005930500005000080016665600013552100000000000000000201406170002001SUMICAL DE ANTIOQUIA S.A.S                        D000000000221700000000000000000000100010010000000000000000000000F0010000005930500520140617000101 00000000000000000000000000000000000000000000000000000000000000000000000000000000000000000000000000000000000000000N 00000000000NCONT   00    00000000000          00000000000000000000000000000000000000000000 000000000000000A000000000000000000000000000000000000000000000 000000000000000000000000000000000000000     00000000                                                                                                                        000000000000000000
F0010000005930600001000089070997800013050500000000000000000201406170002001CENTRAL DE TORNILLOS                              D000000007780000000000000000000000100010010000000000000000000000F0010000005930600120140617000101 00000000000000000000000000000000000000000000000000000000000000000000000000000000000000000000000000000000000000000N 00000000000NCONT   00    00000000000          00000000000000000000000000000000000000000000 000000000000000A000000000000000000000000000000000000000000000 000000000000000000000000000000000000000     00000000                                                                                                                        000000000000000000
F0010000005930600002000089070997800041450500000000000000000201406170002001CENTRAL DE TORNILLOS                              C000000006980000000000000000000000100010010000000000000000000000F0010000005930600220140617000101 00000000000000000000000000000000000000000000000000000000000000000000000000000000000000000000000000000000000000000N 00000000000NCONT   00    00000000000          00000000000000000000000000000000000000000000 000000000000000A000000000000000000000000000000000000000000000 000000000000000000000000000000000000000     00000000                                                                                                                        000000000000000000
F0010000005930600003000089070997800042505000000000000000000201406170002001CENTRAL DE TORNILLOS                              C000000000800000000000000000000000100010010000000000000000000000F0010000005930600320140617000101 00000000000000000000000000000000000000000000000000000000000000000000000000000000000000000000000000000000000000000N 00000000000NCONT   00    00000000000          00000000000000000000000000000000000000000000 000000000000000A000000000000000000000000000000000000000000000 000000000000000000000000000000000000000     00000000                                                                                                                        000000000000000000
F0010000005930600004000089070997800023658300000000000000000201406170002001CENTRAL DE TORNILLOS                              C000000000055800000000000000000000100010010000000000000000000000F0010000005930600420140617000101 00000000000000000000000000000000000000000000000000000000000000000000000000000000000000000000000000000000000000000N 00000000000NCONT   00    00000000000          00000000000000000000000000000000000000000000 000000000000000A000000000000000000000000000000000000000000000 000000000000000000000000000000000000000     00000000                                                                                                                        000000000000000000
F0010000005930600005000089070997800013552100000000000000000201406170002001CENTRAL DE TORNILLOS                              D000000000055800000000000000000000100010010000000000000000000000F0010000005930600520140617000101 00000000000000000000000000000000000000000000000000000000000000000000000000000000000000000000000000000000000000000N 00000000000NCONT   00    00000000000          00000000000000000000000000000000000000000000 000000000000000A000000000000000000000000000000000000000000000 000000000000000000000000000000000000000     00000000                                                                                                                        000000000000000000
F0010000005930700001000080016664500013050500000000000000000201406170002001TELAPLAS PANCER SAS                               D000000035727000000000000000000000100010010000000000000000000000F0010000005930700120140617000101 00000000000000000000000000000000000000000000000000000000000000000000000000000000000000000000000000000000000000000N 00000000000NCONT   00    00000000000          00000000000000000000000000000000000000000000 000000000000000A000000000000000000000000000000000000000000000 000000000000000000000000000000000000000     00000000                                                                                                                        000000000000000000
F0010000005930700002000080016664500041450500000000000000000201406170002001TELAPLAS PANCER SAS                               C000000029400000000000000000000000100010010000000000000000000000F0010000005930700220140617000101 00000000000000000000000000000000000000000000000000000000000000000000000000000000000000000000000000000000000000000N 00000000000NCONT   00    00000000000          00000000000000000000000000000000000000000000 000000000000000A000000000000000000000000000000000000000000000 000000000000000000000000000000000000000     00000000                                                                                                                        000000000000000000
F0010000005930700003000080016664500042505000000000000000000201406170002001TELAPLAS PANCER SAS                               C000000006327000000000000000000000100010010000000000000000000000F0010000005930700320140617000101 00000000000000000000000000000000000000000000000000000000000000000000000000000000000000000000000000000000000000000N 00000000000NCONT   00    00000000000          00000000000000000000000000000000000000000000 000000000000000A000000000000000000000000000000000000000000000 000000000000000000000000000000000000000     00000000                                                                                                                        000000000000000000
F0010000005930700004000080016664500023658300000000000000000201406170002001TELAPLAS PANCER SAS                               C000000000235200000000000000000000100010010000000000000000000000F0010000005930700420140617000101 00000000000000000000000000000000000000000000000000000000000000000000000000000000000000000000000000000000000000000N 00000000000NCONT   00    00000000000          00000000000000000000000000000000000000000000 000000000000000A000000000000000000000000000000000000000000000 000000000000000000000000000000000000000     00000000                                                                                                                        000000000000000000
F0010000005930700005000080016664500013552100000000000000000201406170002001TELAPLAS PANCER SAS                               D000000000235200000000000000000000100010010000000000000000000000F0010000005930700520140617000101 00000000000000000000000000000000000000000000000000000000000000000000000000000000000000000000000000000000000000000N 00000000000NCONT   00    00000000000          00000000000000000000000000000000000000000000 000000000000000A000000000000000000000000000000000000000000000 000000000000000000000000000000000000000     00000000                                                                                                                        000000000000000000
F0010000005930800001000002258669400013050500000000000000000201406170002001YURY PAOLA  SANTAMARIA ..                         D000000009201500000000000000000000100010010000000000000000000000F0010000005930800120140617000101 00000000000000000000000000000000000000000000000000000000000000000000000000000000000000000000000000000000000000000N 00000000000NCONT   00    00000000000          00000000000000000000000000000000000000000000 000000000000000A000000000000000000000000000000000000000000000 000000000000000000000000000000000000000     00000000                                                                                                                        000000000000000000
F0010000005930800002000002258669400041450500000000000000000201406170002001YURY PAOLA  SANTAMARIA ..                         C000000007590000000000000000000000100010010000000000000000000000F0010000005930800220140617000101 00000000000000000000000000000000000000000000000000000000000000000000000000000000000000000000000000000000000000000N 00000000000NCONT   00    00000000000          00000000000000000000000000000000000000000000 000000000000000A000000000000000000000000000000000000000000000 000000000000000000000000000000000000000     00000000                                                                                                                        000000000000000000
F0010000005930800003000002258669400042505000000000000000000201406170002001YURY PAOLA  SANTAMARIA ..                         C000000001611500000000000000000000100010010000000000000000000000F0010000005930800320140617000101 00000000000000000000000000000000000000000000000000000000000000000000000000000000000000000000000000000000000000000N 00000000000NCONT   00    00000000000          00000000000000000000000000000000000000000000 000000000000000A000000000000000000000000000000000000000000000 000000000000000000000000000000000000000     00000000                                                                                                                        000000000000000000
F0010000005930800004000002258669400023658300000000000000000201406170002001YURY PAOLA  SANTAMARIA ..                         C000000000060700000000000000000000100010010000000000000000000000F0010000005930800420140617000101 00000000000000000000000000000000000000000000000000000000000000000000000000000000000000000000000000000000000000000N 00000000000NCONT   00    00000000000          00000000000000000000000000000000000000000000 000000000000000A000000000000000000000000000000000000000000000 000000000000000000000000000000000000000     00000000                                                                                                                        000000000000000000
F0010000005930800005000002258669400013552100000000000000000201406170002001YURY PAOLA  SANTAMARIA ..                         D000000000060700000000000000000000100010010000000000000000000000F0010000005930800520140617000101 00000000000000000000000000000000000000000000000000000000000000000000000000000000000000000000000000000000000000000N 00000000000NCONT   00    00000000000          00000000000000000000000000000000000000000000 000000000000000A000000000000000000000000000000000000000000000 000000000000000000000000000000000000000     00000000                                                                                                                        000000000000000000
F0010000005930900001000086053108300013050500000000000000000201406170002001EL PALACIO DEL ALUMINIO  LTDA                     D000000023454400000000000000000000100010010000000000000000000000F0010000005930900120140617000101 00000000000000000000000000000000000000000000000000000000000000000000000000000000000000000000000000000000000000000N 00000000000NCONT   00    00000000000          00000000000000000000000000000000000000000000 000000000000000A000000000000000000000000000000000000000000000 000000000000000000000000000000000000000     00000000                                                                                                                        000000000000000000
F0010000005930900002000086053108300041450500000000000000000201406170002001EL PALACIO DEL ALUMINIO  LTDA                     C000000020350000000000000000000000100010010000000000000000000000F0010000005930900220140617000101 00000000000000000000000000000000000000000000000000000000000000000000000000000000000000000000000000000000000000000N 00000000000NCONT   00    00000000000          00000000000000000000000000000000000000000000 000000000000000A000000000000000000000000000000000000000000000 000000000000000000000000000000000000000     00000000                                                                                                                        000000000000000000
F0010000005930900003000086053108300042505000000000000000000201406170002001EL PALACIO DEL ALUMINIO  LTDA                     C000000003104400000000000000000000100010010000000000000000000000F0010000005930900320140617000101 00000000000000000000000000000000000000000000000000000000000000000000000000000000000000000000000000000000000000000N 00000000000NCONT   00    00000000000          00000000000000000000000000000000000000000000 000000000000000A000000000000000000000000000000000000000000000 000000000000000000000000000000000000000     00000000                                                                                                                        000000000000000000
F0010000005930900004000086053108300023658300000000000000000201406170002001EL PALACIO DEL ALUMINIO  LTDA                     C000000000162800000000000000000000100010010000000000000000000000F0010000005930900420140617000101 00000000000000000000000000000000000000000000000000000000000000000000000000000000000000000000000000000000000000000N 00000000000NCONT   00    00000000000          00000000000000000000000000000000000000000000 000000000000000A000000000000000000000000000000000000000000000 000000000000000000000000000000000000000     00000000                                                                                                                        000000000000000000
F0010000005930900005000086053108300013552100000000000000000201406170002001EL PALACIO DEL ALUMINIO  LTDA                     D000000000162800000000000000000000100010010000000000000000000000F0010000005930900520140617000101 00000000000000000000000000000000000000000000000000000000000000000000000000000000000000000000000000000000000000000N 00000000000NCONT   00    00000000000          00000000000000000000000000000000000000000000 000000000000000A000000000000000000000000000000000000000000000 000000000000000000000000000000000000000     00000000                                                                                                                        000000000000000000
F0010000005931000001000080201601700013050500000000000000000201406170002001PLASTICOS SUPERIOR S.A.                           D000000016665000000000000000000000100010010000000000000000000000F0010000005931000120140617000101 00000000000000000000000000000000000000000000000000000000000000000000000000000000000000000000000000000000000000000N 00000000000NCONT   00    00000000000          00000000000000000000000000000000000000000000 000000000000000A000000000000000000000000000000000000000000000 000000000000000000000000000000000000000     00000000                                                                                                                        000000000000000000
F0010000005931000002000080201601700041450500000000000000000201406170002001PLASTICOS SUPERIOR S.A.                           C000000011880000000000000000000000100010010000000000000000000000F0010000005931000220140617000101 00000000000000000000000000000000000000000000000000000000000000000000000000000000000000000000000000000000000000000N 00000000000NCONT   00    00000000000          00000000000000000000000000000000000000000000 000000000000000A000000000000000000000000000000000000000000000 000000000000000000000000000000000000000     00000000                                                                                                                        000000000000000000
F0010000005931000003000080201601700042505000000000000000000201406170002001PLASTICOS SUPERIOR S.A.                           C000000004785000000000000000000000100010010000000000000000000000F0010000005931000320140617000101 00000000000000000000000000000000000000000000000000000000000000000000000000000000000000000000000000000000000000000N 00000000000NCONT   00    00000000000          00000000000000000000000000000000000000000000 000000000000000A000000000000000000000000000000000000000000000 000000000000000000000000000000000000000     00000000                                                                                                                        000000000000000000
F0010000005931000004000080201601700023658300000000000000000201406170002001PLASTICOS SUPERIOR S.A.                           C000000000095000000000000000000000100010010000000000000000000000F0010000005931000420140617000101 00000000000000000000000000000000000000000000000000000000000000000000000000000000000000000000000000000000000000000N 00000000000NCONT   00    00000000000          00000000000000000000000000000000000000000000 000000000000000A000000000000000000000000000000000000000000000 000000000000000000000000000000000000000     00000000                                                                                                                        000000000000000000
F0010000005931000005000080201601700013552100000000000000000201406170002001PLASTICOS SUPERIOR S.A.                           D000000000095000000000000000000000100010010000000000000000000000F0010000005931000520140617000101 00000000000000000000000000000000000000000000000000000000000000000000000000000000000000000000000000000000000000000N 00000000000NCONT   00    00000000000          00000000000000000000000000000000000000000000 000000000000000A000000000000000000000000000000000000000000000 000000000000000000000000000000000000000     00000000                                                                                                                        000000000000000000
F0010000005931100001000089011758300013050500000000000000000201406170002001GARCILLANTAS BARRANQUILLA S.A.                    D000000041880000000000000000000000100010010000000000000000000000F0010000005931100120140617000101 00000000000000000000000000000000000000000000000000000000000000000000000000000000000000000000000000000000000000000N 00000000000NCONT   00    00000000000          00000000000000000000000000000000000000000000 000000000000000A000000000000000000000000000000000000000000000 000000000000000000000000000000000000000     00000000                                                                                                                        000000000000000000
F0010000005931100002000089011758300041450500000000000000000201406170002001GARCILLANTAS BARRANQUILLA S.A.                    C000000025280000000000000000000000100010010000000000000000000000F0010000005931100220140617000101 00000000000000000000000000000000000000000000000000000000000000000000000000000000000000000000000000000000000000000N 00000000000NCONT   00    00000000000          00000000000000000000000000000000000000000000 000000000000000A000000000000000000000000000000000000000000000 000000000000000000000000000000000000000     00000000                                                                                                                        000000000000000000
F0010000005931100003000089011758300042505000000000000000000201406170002001GARCILLANTAS BARRANQUILLA S.A.                    C000000016600000000000000000000000100010010000000000000000000000F0010000005931100320140617000101 00000000000000000000000000000000000000000000000000000000000000000000000000000000000000000000000000000000000000000N 00000000000NCONT   00    00000000000          00000000000000000000000000000000000000000000 000000000000000A000000000000000000000000000000000000000000000 000000000000000000000000000000000000000     00000000                                                                                                                        000000000000000000
F0010000005931100004000089011758300023658300000000000000000201406170002001GARCILLANTAS BARRANQUILLA S.A.                    C000000000202200000000000000000000100010010000000000000000000000F0010000005931100420140617000101 00000000000000000000000000000000000000000000000000000000000000000000000000000000000000000000000000000000000000000N 00000000000NCONT   00    00000000000          00000000000000000000000000000000000000000000 000000000000000A000000000000000000000000000000000000000000000 000000000000000000000000000000000000000     00000000                                                                                                                        000000000000000000
F0010000005931100005000089011758300013552100000000000000000201406170002001GARCILLANTAS BARRANQUILLA S.A.                    D000000000202200000000000000000000100010010000000000000000000000F0010000005931100520140617000101 00000000000000000000000000000000000000000000000000000000000000000000000000000000000000000000000000000000000000000N 00000000000NCONT   00    00000000000          00000000000000000000000000000000000000000000 000000000000000A000000000000000000000000000000000000000000000 000000000000000000000000000000000000000     00000000                                                                                                                        000000000000000000
F0010000005931200001000080200225800013050500000000000000000201406170002001PERF. TECNICOS DE LA COSTA S.A.S                  D000000066216700000000000000000000100010010000000000000000000000F0010000005931200120140617000101 00000000000000000000000000000000000000000000000000000000000000000000000000000000000000000000000000000000000000000N 00000000000NCONT   00    00000000000          00000000000000000000000000000000000000000000 000000000000000A000000000000000000000000000000000000000000000 000000000000000000000000000000000000000     00000000                                                                                                                        000000000000000000
F0010000005931200002000080200225800041450500000000000000000201406170002001PERF. TECNICOS DE LA COSTA S.A.S                  C000000056233200000000000000000000100010010000000000000000000000F0010000005931200220140617000101 00000000000000000000000000000000000000000000000000000000000000000000000000000000000000000000000000000000000000000N 00000000000NCONT   00    00000000000          00000000000000000000000000000000000000000000 000000000000000A000000000000000000000000000000000000000000000 000000000000000000000000000000000000000     00000000                                                                                                                        000000000000000000
F0010000005931200003000080200225800042505000000000000000000201406170002001PERF. TECNICOS DE LA COSTA S.A.S                  C000000009983500000000000000000000100010010000000000000000000000F0010000005931200320140617000101 00000000000000000000000000000000000000000000000000000000000000000000000000000000000000000000000000000000000000000N 00000000000NCONT   00    00000000000          00000000000000000000000000000000000000000000 000000000000000A000000000000000000000000000000000000000000000 000000000000000000000000000000000000000     00000000                                                                                                                        000000000000000000
F0010000005931200004000080200225800023658300000000000000000201406170002001PERF. TECNICOS DE LA COSTA S.A.S                  C000000000449900000000000000000000100010010000000000000000000000F0010000005931200420140617000101 00000000000000000000000000000000000000000000000000000000000000000000000000000000000000000000000000000000000000000N 00000000000NCONT   00    00000000000          00000000000000000000000000000000000000000000 000000000000000A000000000000000000000000000000000000000000000 000000000000000000000000000000000000000     00000000                                                                                                                        000000000000000000
F0010000005931200005000080200225800013552100000000000000000201406170002001PERF. TECNICOS DE LA COSTA S.A.S                  D000000000449900000000000000000000100010010000000000000000000000F0010000005931200520140617000101 00000000000000000000000000000000000000000000000000000000000000000000000000000000000000000000000000000000000000000N 00000000000NCONT   00    00000000000          00000000000000000000000000000000000000000000 000000000000000A000000000000000000000000000000000000000000000 000000000000000000000000000000000000000     00000000                                                                                                                        000000000000000000
F0010000005931300001000089010260300013050500000000000000000201406170002001FEDERICO OSORIO A. S.A.                           D000000077775300000000000000000000100010010000000000000000000000F0010000005931300120140617000101 00000000000000000000000000000000000000000000000000000000000000000000000000000000000000000000000000000000000000000N 00000000000NCONT   00    00000000000          00000000000000000000000000000000000000000000 000000000000000A000000000000000000000000000000000000000000000 000000000000000000000000000000000000000     00000000                                                                                                                        000000000000000000
F0010000005931300002000089010260300041450500000000000000000201406170002001FEDERICO OSORIO A. S.A.                           C000000072320000000000000000000000100010010000000000000000000000F0010000005931300220140617000101 00000000000000000000000000000000000000000000000000000000000000000000000000000000000000000000000000000000000000000N 00000000000NCONT   00    00000000000          00000000000000000000000000000000000000000000 000000000000000A000000000000000000000000000000000000000000000 000000000000000000000000000000000000000     00000000                                                                                                                        000000000000000000
F0010000005931300003000089010260300042505000000000000000000201406170002001FEDERICO OSORIO A. S.A.                           C000000005455300000000000000000000100010010000000000000000000000F0010000005931300320140617000101 00000000000000000000000000000000000000000000000000000000000000000000000000000000000000000000000000000000000000000N 00000000000NCONT   00    00000000000          00000000000000000000000000000000000000000000 000000000000000A000000000000000000000000000000000000000000000 000000000000000000000000000000000000000     00000000                                                                                                                        000000000000000000
F0010000005931300004000089010260300023658300000000000000000201406170002001FEDERICO OSORIO A. S.A.                           C000000000578600000000000000000000100010010000000000000000000000F0010000005931300420140617000101 00000000000000000000000000000000000000000000000000000000000000000000000000000000000000000000000000000000000000000N 00000000000NCONT   00    00000000000          00000000000000000000000000000000000000000000 000000000000000A000000000000000000000000000000000000000000000 000000000000000000000000000000000000000     00000000                                                                                                                        000000000000000000
F0010000005931300005000089010260300013552100000000000000000201406170002001FEDERICO OSORIO A. S.A.                           D000000000578600000000000000000000100010010000000000000000000000F0010000005931300520140617000101 00000000000000000000000000000000000000000000000000000000000000000000000000000000000000000000000000000000000000000N 00000000000NCONT   00    00000000000          00000000000000000000000000000000000000000000 000000000000000A000000000000000000000000000000000000000000000 000000000000000000000000000000000000000     00000000                                                                                                                        000000000000000000
F0010000005931400001000080201112800013050500000000000000000201406170002001CANGURO INTERNATIONAL S.A.                        D000000139755200000000000000000000100010010000000000000000000000F0010000005931400120140617000101 00000000000000000000000000000000000000000000000000000000000000000000000000000000000000000000000000000000000000000N 00000000000NCONT   00    00000000000          00000000000000000000000000000000000000000000 000000000000000A000000000000000000000000000000000000000000000 000000000000000000000000000000000000000     00000000                                                                                                                        000000000000000000
F0010000005931400002000080201112800041450500000000000000000201406170002001CANGURO INTERNATIONAL S.A.                        C000000139000200000000000000000000100010010000000000000000000000F0010000005931400220140617000101 00000000000000000000000000000000000000000000000000000000000000000000000000000000000000000000000000000000000000000N 00000000000NCONT   00    00000000000          00000000000000000000000000000000000000000000 000000000000000A000000000000000000000000000000000000000000000 000000000000000000000000000000000000000     00000000                                                                                                                        000000000000000000
F0010000005931400003000080201112800042505000000000000000000201406170002001CANGURO INTERNATIONAL S.A.                        C000000000755000000000000000000000100010010000000000000000000000F0010000005931400320140617000101 00000000000000000000000000000000000000000000000000000000000000000000000000000000000000000000000000000000000000000N 00000000000NCONT   00    00000000000          00000000000000000000000000000000000000000000 000000000000000A000000000000000000000000000000000000000000000 000000000000000000000000000000000000000     00000000                                                                                                                        000000000000000000
F0010000005931400004000080201112800023658300000000000000000201406170002001CANGURO INTERNATIONAL S.A.                        C000000001112000000000000000000000100010010000000000000000000000F0010000005931400420140617000101 00000000000000000000000000000000000000000000000000000000000000000000000000000000000000000000000000000000000000000N 00000000000NCONT   00    00000000000          00000000000000000000000000000000000000000000 000000000000000A000000000000000000000000000000000000000000000 000000000000000000000000000000000000000     00000000                                                                                                                        000000000000000000
F0010000005931400005000080201112800013552100000000000000000201406170002001CANGURO INTERNATIONAL S.A.                        D000000001112000000000000000000000100010010000000000000000000000F0010000005931400520140617000101 00000000000000000000000000000000000000000000000000000000000000000000000000000000000000000000000000000000000000000N 00000000000NCONT   00    00000000000          00000000000000000000000000000000000000000000 000000000000000A000000000000000000000000000000000000000000000 000000000000000000000000000000000000000     00000000                                                                                                                        000000000000000000
F0010000005931500001000080201112800013050500000000000000000201406170002001CANGURO INTERNATIONAL S.A.                        D000000021762700000000000000000000100010010000000000000000000000F0010000005931500120140617000101 00000000000000000000000000000000000000000000000000000000000000000000000000000000000000000000000000000000000000000N 00000000000NCONT   00    00000000000          00000000000000000000000000000000000000000000 000000000000000A000000000000000000000000000000000000000000000 000000000000000000000000000000000000000     00000000                                                                                                                        000000000000000000
F0010000005931500002000080201112800041450500000000000000000201406170002001CANGURO INTERNATIONAL S.A.                        C000000019663300000000000000000000100010010000000000000000000000F0010000005931500220140617000101 00000000000000000000000000000000000000000000000000000000000000000000000000000000000000000000000000000000000000000N 00000000000NCONT   00    00000000000          00000000000000000000000000000000000000000000 000000000000000A000000000000000000000000000000000000000000000 000000000000000000000000000000000000000     00000000                                                                                                                        000000000000000000
F0010000005931500003000080201112800042505000000000000000000201406170002001CANGURO INTERNATIONAL S.A.                        C000000002099400000000000000000000100010010000000000000000000000F0010000005931500320140617000101 00000000000000000000000000000000000000000000000000000000000000000000000000000000000000000000000000000000000000000N 00000000000NCONT   00    00000000000          00000000000000000000000000000000000000000000 000000000000000A000000000000000000000000000000000000000000000 000000000000000000000000000000000000000     00000000                                                                                                                        000000000000000000
F0010000005931500004000080201112800023658300000000000000000201406170002001CANGURO INTERNATIONAL S.A.                        C000000000157300000000000000000000100010010000000000000000000000F0010000005931500420140617000101 00000000000000000000000000000000000000000000000000000000000000000000000000000000000000000000000000000000000000000N 00000000000NCONT   00    00000000000          00000000000000000000000000000000000000000000 000000000000000A000000000000000000000000000000000000000000000 000000000000000000000000000000000000000     00000000                                                                                                                        000000000000000000
F0010000005931500005000080201112800013552100000000000000000201406170002001CANGURO INTERNATIONAL S.A.                        D000000000157300000000000000000000100010010000000000000000000000F0010000005931500520140617000101 00000000000000000000000000000000000000000000000000000000000000000000000000000000000000000000000000000000000000000N 00000000000NCONT   00    00000000000          00000000000000000000000000000000000000000000 000000000000000A000000000000000000000000000000000000000000000 000000000000000000000000000000000000000     00000000                                                                                                                        000000000000000000
F0010000005931600001000080202094000013050500000000000000000201406170002001DISTRIB. OMAR ORREGO S.A.                         D000000074328200000000000000000000100010010000000000000000000000F0010000005931600120140617000101 00000000000000000000000000000000000000000000000000000000000000000000000000000000000000000000000000000000000000000N 00000000000NCONT   00    00000000000          00000000000000000000000000000000000000000000 000000000000000A000000000000000000000000000000000000000000000 000000000000000000000000000000000000000     00000000                                                                                                                        000000000000000000
F0010000005931600002000080202094000041450500000000000000000201406170002001DISTRIB. OMAR ORREGO S.A.                         C000000048710000000000000000000000100010010000000000000000000000F0010000005931600220140617000101 00000000000000000000000000000000000000000000000000000000000000000000000000000000000000000000000000000000000000000N 00000000000NCONT   00    00000000000          00000000000000000000000000000000000000000000 000000000000000A000000000000000000000000000000000000000000000 000000000000000000000000000000000000000     00000000                                                                                                                        000000000000000000
F0010000005931600003000080202094000042505000000000000000000201406170002001DISTRIB. OMAR ORREGO S.A.                         C000000025618200000000000000000000100010010000000000000000000000F0010000005931600320140617000101 00000000000000000000000000000000000000000000000000000000000000000000000000000000000000000000000000000000000000000N 00000000000NCONT   00    00000000000          00000000000000000000000000000000000000000000 000000000000000A000000000000000000000000000000000000000000000 000000000000000000000000000000000000000     00000000                                                                                                                        000000000000000000
F0010000005931600004000080202094000023658300000000000000000201406170002001DISTRIB. OMAR ORREGO S.A.                         C000000000389700000000000000000000100010010000000000000000000000F0010000005931600420140617000101 00000000000000000000000000000000000000000000000000000000000000000000000000000000000000000000000000000000000000000N 00000000000NCONT   00    00000000000          00000000000000000000000000000000000000000000 000000000000000A000000000000000000000000000000000000000000000 000000000000000000000000000000000000000     00000000                                                                                                                        000000000000000000
F0010000005931600005000080202094000013552100000000000000000201406170002001DISTRIB. OMAR ORREGO S.A.                         D000000000389700000000000000000000100010010000000000000000000000F0010000005931600520140617000101 00000000000000000000000000000000000000000000000000000000000000000000000000000000000000000000000000000000000000000N 00000000000NCONT   00    00000000000          00000000000000000000000000000000000000000000 000000000000000A000000000000000000000000000000000000000000000 000000000000000000000000000000000000000     00000000                                                                                                                        000000000000000000
F0010000005931700001000080202094000013050500000000000000000201406170002001DISTRIB. OMAR ORREGO S.A.                         D000000046819400000000000000000000100010010000000000000000000000F0010000005931700120140617000101 00000000000000000000000000000000000000000000000000000000000000000000000000000000000000000000000000000000000000000N 00000000000NCONT   00    00000000000          00000000000000000000000000000000000000000000 000000000000000A000000000000000000000000000000000000000000000 000000000000000000000000000000000000000     00000000                                                                                                                        000000000000000000
F0010000005931700002000080202094000041450500000000000000000201406170002001DISTRIB. OMAR ORREGO S.A.                         C000000033910000000000000000000000100010010000000000000000000000F0010000005931700220140617000101 00000000000000000000000000000000000000000000000000000000000000000000000000000000000000000000000000000000000000000N 00000000000NCONT   00    00000000000          00000000000000000000000000000000000000000000 000000000000000A000000000000000000000000000000000000000000000 000000000000000000000000000000000000000     00000000                                                                                                                        000000000000000000
F0010000005931700003000080202094000042505000000000000000000201406170002001DISTRIB. OMAR ORREGO S.A.                         C000000012909400000000000000000000100010010000000000000000000000F0010000005931700320140617000101 00000000000000000000000000000000000000000000000000000000000000000000000000000000000000000000000000000000000000000N 00000000000NCONT   00    00000000000          00000000000000000000000000000000000000000000 000000000000000A000000000000000000000000000000000000000000000 000000000000000000000000000000000000000     00000000                                                                                                                        000000000000000000
F0010000005931700004000080202094000023658300000000000000000201406170002001DISTRIB. OMAR ORREGO S.A.                         C000000000271300000000000000000000100010010000000000000000000000F0010000005931700420140617000101 00000000000000000000000000000000000000000000000000000000000000000000000000000000000000000000000000000000000000000N 00000000000NCONT   00    00000000000          00000000000000000000000000000000000000000000 000000000000000A000000000000000000000000000000000000000000000 000000000000000000000000000000000000000     00000000                                                                                                                        000000000000000000
F0010000005931700005000080202094000013552100000000000000000201406170002001DISTRIB. OMAR ORREGO S.A.                         D000000000271300000000000000000000100010010000000000000000000000F0010000005931700520140617000101 00000000000000000000000000000000000000000000000000000000000000000000000000000000000000000000000000000000000000000N 00000000000NCONT   00    00000000000          00000000000000000000000000000000000000000000 000000000000000A000000000000000000000000000000000000000000000 000000000000000000000000000000000000000     00000000                                                                                                                        000000000000000000
F0010000005931800001000080202094000013050500000000000000000201406170002001DISTRIB. OMAR ORREGO S.A.                         D000000003689900000000000000000000100010010000000000000000000000F0010000005931800120140617000101 00000000000000000000000000000000000000000000000000000000000000000000000000000000000000000000000000000000000000000N 00000000000NCONT   00    00000000000          00000000000000000000000000000000000000000000 000000000000000A000000000000000000000000000000000000000000000 000000000000000000000000000000000000000     00000000                                                                                                                        000000000000000000
F0010000005931800002000080202094000041450500000000000000000201406170002001DISTRIB. OMAR ORREGO S.A.                         C000000002430000000000000000000000100010010000000000000000000000F0010000005931800220140617000101 00000000000000000000000000000000000000000000000000000000000000000000000000000000000000000000000000000000000000000N 00000000000NCONT   00    00000000000          00000000000000000000000000000000000000000000 000000000000000A000000000000000000000000000000000000000000000 000000000000000000000000000000000000000     00000000                                                                                                                        000000000000000000
F0010000005931800003000080202094000042505000000000000000000201406170002001DISTRIB. OMAR ORREGO S.A.                         C000000001259900000000000000000000100010010000000000000000000000F0010000005931800320140617000101 00000000000000000000000000000000000000000000000000000000000000000000000000000000000000000000000000000000000000000N 00000000000NCONT   00    00000000000          00000000000000000000000000000000000000000000 000000000000000A000000000000000000000000000000000000000000000 000000000000000000000000000000000000000     00000000                                                                                                                        000000000000000000
F0010000005931800004000080202094000023658300000000000000000201406170002001DISTRIB. OMAR ORREGO S.A.                         C000000000019400000000000000000000100010010000000000000000000000F0010000005931800420140617000101 00000000000000000000000000000000000000000000000000000000000000000000000000000000000000000000000000000000000000000N 00000000000NCONT   00    00000000000          00000000000000000000000000000000000000000000 000000000000000A000000000000000000000000000000000000000000000 000000000000000000000000000000000000000     00000000                                                                                                                        000000000000000000
F0010000005931800005000080202094000013552100000000000000000201406170002001DISTRIB. OMAR ORREGO S.A.                         D000000000019400000000000000000000100010010000000000000000000000F0010000005931800520140617000101 00000000000000000000000000000000000000000000000000000000000000000000000000000000000000000000000000000000000000000N 00000000000NCONT   00    00000000000          00000000000000000000000000000000000000000000 000000000000000A000000000000000000000000000000000000000000000 000000000000000000000000000000000000000     00000000                                                                                                                        000000000000000000
F0010000005931900001000003900336900011050500000000000000000201406170002001LUISA FERNANDA BOLAOS                           D000000005831000000000000000000000100010010000000000000000000000F0010000005931900120140617000101 00000000000000000000000000000000000000000000000000000000000000000000000000000000000000000000000000000000000000000N 00000000000NCONT   00    00000000000          00000000000000000000000000000000000000000000 000000000000000A000000000000000000000000000000000000000000000 000000000000000000000000000000000000000     00000000                                                                                                                        000000000000000000
F0010000005931900002000003900336900041450500000000000000000201406170002001LUISA FERNANDA BOLAOS                           C000000005200000000000000000000000100010010000000000000000000000F0010000005931900220140617000101 00000000000000000000000000000000000000000000000000000000000000000000000000000000000000000000000000000000000000000N 00000000000NCONT   00    00000000000          00000000000000000000000000000000000000000000 000000000000000A000000000000000000000000000000000000000000000 000000000000000000000000000000000000000     00000000                                                                                                                        000000000000000000
F0010000005931900003000003900336900042505000000000000000000201406170002001LUISA FERNANDA BOLAOS                           C000000000631000000000000000000000100010010000000000000000000000F0010000005931900320140617000101 00000000000000000000000000000000000000000000000000000000000000000000000000000000000000000000000000000000000000000N 00000000000NCONT   00    00000000000          00000000000000000000000000000000000000000000 000000000000000A000000000000000000000000000000000000000000000 000000000000000000000000000000000000000     00000000                                                                                                                        000000000000000000
F0010000005931900004000003900336900023658300000000000000000201406170002001LUISA FERNANDA BOLAOS                           C000000000041600000000000000000000100010010000000000000000000000F0010000005931900420140617000101 00000000000000000000000000000000000000000000000000000000000000000000000000000000000000000000000000000000000000000N 00000000000NCONT   00    00000000000          00000000000000000000000000000000000000000000 000000000000000A000000000000000000000000000000000000000000000 000000000000000000000000000000000000000     00000000                                                                                                                        000000000000000000
F0010000005931900005000003900336900013552100000000000000000201406170002001LUISA FERNANDA BOLAOS                           D000000000041600000000000000000000100010010000000000000000000000F0010000005931900520140617000101 00000000000000000000000000000000000000000000000000000000000000000000000000000000000000000000000000000000000000000N 00000000000NCONT   00    00000000000          00000000000000000000000000000000000000000000 000000000000000A000000000000000000000000000000000000000000000 000000000000000000000000000000000000000     00000000                                                                                                                        000000000000000000
F0010000005932000001000007200023300011050500000000000000000201406170002001WILLIAM ORTEGA                                    D000000001500000000000000000000000100010010000000000000000000000F0010000005932000120140617000101 00000000000000000000000000000000000000000000000000000000000000000000000000000000000000000000000000000000000000000N 00000000000NCONT   00    00000000000          00000000000000000000000000000000000000000000 000000000000000A000000000000000000000000000000000000000000000 000000000000000000000000000000000000000     00000000                                                                                                                        000000000000000000
F0010000005932000002000007200023300041450500000000000000000201406170002001WILLIAM ORTEGA                                    C000000001300000000000000000000000100010010000000000000000000000F0010000005932000220140617000101 00000000000000000000000000000000000000000000000000000000000000000000000000000000000000000000000000000000000000000N 00000000000NCONT   00    00000000000          00000000000000000000000000000000000000000000 000000000000000A000000000000000000000000000000000000000000000 000000000000000000000000000000000000000     00000000                                                                                                                        000000000000000000
F0010000005932000003000007200023300042505000000000000000000201406170002001WILLIAM ORTEGA                                    C000000000200000000000000000000000100010010000000000000000000000F0010000005932000320140617000101 00000000000000000000000000000000000000000000000000000000000000000000000000000000000000000000000000000000000000000N 00000000000NCONT   00    00000000000          00000000000000000000000000000000000000000000 000000000000000A000000000000000000000000000000000000000000000 000000000000000000000000000000000000000     00000000                                                                                                                        000000000000000000
F0010000005932000004000007200023300023658300000000000000000201406170002001WILLIAM ORTEGA                                    C000000000010400000000000000000000100010010000000000000000000000F0010000005932000420140617000101 00000000000000000000000000000000000000000000000000000000000000000000000000000000000000000000000000000000000000000N 00000000000NCONT   00    00000000000          00000000000000000000000000000000000000000000 000000000000000A000000000000000000000000000000000000000000000 000000000000000000000000000000000000000     00000000                                                                                                                        000000000000000000
F0010000005932000005000007200023300013552100000000000000000201406170002001WILLIAM ORTEGA                                    D000000000010400000000000000000000100010010000000000000000000000F0010000005932000520140617000101 00000000000000000000000000000000000000000000000000000000000000000000000000000000000000000000000000000000000000000N 00000000000NCONT   00    00000000000          00000000000000000000000000000000000000000000 000000000000000A000000000000000000000000000000000000000000000 000000000000000000000000000000000000000     00000000                                                                                                                        000000000000000000
F0010000005932100001000007200023300011050500000000000000000201406170002001WILLIAM ORTEGA                                    D000000002100000000000000000000000100010010000000000000000000000F0010000005932100120140617000101 00000000000000000000000000000000000000000000000000000000000000000000000000000000000000000000000000000000000000000N 00000000000NCONT   00    00000000000          00000000000000000000000000000000000000000000 000000000000000A000000000000000000000000000000000000000000000 000000000000000000000000000000000000000     00000000                                                                                                                        000000000000000000
F0010000005932100002000007200023300041450500000000000000000201406170002001WILLIAM ORTEGA                                    C000000001300000000000000000000000100010010000000000000000000000F0010000005932100220140617000101 00000000000000000000000000000000000000000000000000000000000000000000000000000000000000000000000000000000000000000N 00000000000NCONT   00    00000000000          00000000000000000000000000000000000000000000 000000000000000A000000000000000000000000000000000000000000000 000000000000000000000000000000000000000     00000000                                                                                                                        000000000000000000
F0010000005932100003000007200023300042505000000000000000000201406170002001WILLIAM ORTEGA                                    C000000000800000000000000000000000100010010000000000000000000000F0010000005932100320140617000101 00000000000000000000000000000000000000000000000000000000000000000000000000000000000000000000000000000000000000000N 00000000000NCONT   00    00000000000          00000000000000000000000000000000000000000000 000000000000000A000000000000000000000000000000000000000000000 000000000000000000000000000000000000000     00000000                                                                                                                        000000000000000000
F0010000005932100004000007200023300023658300000000000000000201406170002001WILLIAM ORTEGA                                    C000000000010400000000000000000000100010010000000000000000000000F0010000005932100420140617000101 00000000000000000000000000000000000000000000000000000000000000000000000000000000000000000000000000000000000000000N 00000000000NCONT   00    00000000000          00000000000000000000000000000000000000000000 000000000000000A000000000000000000000000000000000000000000000 000000000000000000000000000000000000000     00000000                                                                                                                        000000000000000000
F0010000005932100005000007200023300013552100000000000000000201406170002001WILLIAM ORTEGA                                    D000000000010400000000000000000000100010010000000000000000000000F0010000005932100520140617000101 00000000000000000000000000000000000000000000000000000000000000000000000000000000000000000000000000000000000000000N 00000000000NCONT   00    00000000000          00000000000000000000000000000000000000000000 000000000000000A000000000000000000000000000000000000000000000 000000000000000000000000000000000000000     00000000                                                                                                                        000000000000000000
F0010000005932200001000007200023300011050500000000000000000201406170002001WILLIAM ORTEGA                                    D000000001500000000000000000000000100010010000000000000000000000F0010000005932200120140617000101 00000000000000000000000000000000000000000000000000000000000000000000000000000000000000000000000000000000000000000N 00000000000NCONT   00    00000000000          00000000000000000000000000000000000000000000 000000000000000A000000000000000000000000000000000000000000000 000000000000000000000000000000000000000     00000000                                                                                                                        000000000000000000
F0010000005932200002000007200023300041450500000000000000000201406170002001WILLIAM ORTEGA                                    C000000001300000000000000000000000100010010000000000000000000000F0010000005932200220140617000101 00000000000000000000000000000000000000000000000000000000000000000000000000000000000000000000000000000000000000000N 00000000000NCONT   00    00000000000          00000000000000000000000000000000000000000000 000000000000000A000000000000000000000000000000000000000000000 000000000000000000000000000000000000000     00000000                                                                                                                        000000000000000000
F0010000005932200003000007200023300042505000000000000000000201406170002001WILLIAM ORTEGA                                    C000000000200000000000000000000000100010010000000000000000000000F0010000005932200320140617000101 00000000000000000000000000000000000000000000000000000000000000000000000000000000000000000000000000000000000000000N 00000000000NCONT   00    00000000000          00000000000000000000000000000000000000000000 000000000000000A000000000000000000000000000000000000000000000 000000000000000000000000000000000000000     00000000                                                                                                                        000000000000000000
F0010000005932200004000007200023300023658300000000000000000201406170002001WILLIAM ORTEGA                                    C000000000010400000000000000000000100010010000000000000000000000F0010000005932200420140617000101 00000000000000000000000000000000000000000000000000000000000000000000000000000000000000000000000000000000000000000N 00000000000NCONT   00    00000000000          00000000000000000000000000000000000000000000 000000000000000A000000000000000000000000000000000000000000000 000000000000000000000000000000000000000     00000000                                                                                                                        000000000000000000
F0010000005932200005000007200023300013552100000000000000000201406170002001WILLIAM ORTEGA                                    D000000000010400000000000000000000100010010000000000000000000000F0010000005932200520140617000101 00000000000000000000000000000000000000000000000000000000000000000000000000000000000000000000000000000000000000000N 00000000000NCONT   00    00000000000          00000000000000000000000000000000000000000000 000000000000000A000000000000000000000000000000000000000000000 000000000000000000000000000000000000000     00000000                                                                                                                        000000000000000000
F0010000005932300001000000431178400011050500000000000000000201406170002001EFRAIN ALVAREZ                                    D000000001250000000000000000000000100010010000000000000000000000F0010000005932300120140617000101 00000000000000000000000000000000000000000000000000000000000000000000000000000000000000000000000000000000000000000N 00000000000NCONT   00    00000000000          00000000000000000000000000000000000000000000 000000000000000A000000000000000000000000000000000000000000000 000000000000000000000000000000000000000     00000000                                                                                                                        000000000000000000
F0010000005932300002000000431178400041450500000000000000000201406170002001EFRAIN ALVAREZ                                    C000000001200000000000000000000000100010010000000000000000000000F0010000005932300220140617000101 00000000000000000000000000000000000000000000000000000000000000000000000000000000000000000000000000000000000000000N 00000000000NCONT   00    00000000000          00000000000000000000000000000000000000000000 000000000000000A000000000000000000000000000000000000000000000 000000000000000000000000000000000000000     00000000                                                                                                                        000000000000000000
F0010000005932300003000000431178400042505000000000000000000201406170002001EFRAIN ALVAREZ                                    C000000000050000000000000000000000100010010000000000000000000000F0010000005932300320140617000101 00000000000000000000000000000000000000000000000000000000000000000000000000000000000000000000000000000000000000000N 00000000000NCONT   00    00000000000          00000000000000000000000000000000000000000000 000000000000000A000000000000000000000000000000000000000000000 000000000000000000000000000000000000000     00000000                                                                                                                        000000000000000000
F0010000005932300004000000431178400023658300000000000000000201406170002001EFRAIN ALVAREZ                                    C000000000009600000000000000000000100010010000000000000000000000F0010000005932300420140617000101 00000000000000000000000000000000000000000000000000000000000000000000000000000000000000000000000000000000000000000N 00000000000NCONT   00    00000000000          00000000000000000000000000000000000000000000 000000000000000A000000000000000000000000000000000000000000000 000000000000000000000000000000000000000     00000000                                                                                                                        000000000000000000
F0010000005932300005000000431178400013552100000000000000000201406170002001EFRAIN ALVAREZ                                    D000000000009600000000000000000000100010010000000000000000000000F0010000005932300520140617000101 00000000000000000000000000000000000000000000000000000000000000000000000000000000000000000000000000000000000000000N 00000000000NCONT   00    00000000000          00000000000000000000000000000000000000000000 000000000000000A000000000000000000000000000000000000000000000 000000000000000000000000000000000000000     00000000                                                                                                                        000000000000000000
F0010000005932400001000000431178400011050500000000000000000201406170002001EFRAIN ALVAREZ                                    D000000000800000000000000000000000100010010000000000000000000000F0010000005932400120140617000101 00000000000000000000000000000000000000000000000000000000000000000000000000000000000000000000000000000000000000000N 00000000000NCONT   00    00000000000          00000000000000000000000000000000000000000000 000000000000000A000000000000000000000000000000000000000000000 000000000000000000000000000000000000000     00000000                                                                                                                        000000000000000000
F0010000005932400002000000431178400041450500000000000000000201406170002001EFRAIN ALVAREZ                                    C000000000700000000000000000000000100010010000000000000000000000F0010000005932400220140617000101 00000000000000000000000000000000000000000000000000000000000000000000000000000000000000000000000000000000000000000N 00000000000NCONT   00    00000000000          00000000000000000000000000000000000000000000 000000000000000A000000000000000000000000000000000000000000000 000000000000000000000000000000000000000     00000000                                                                                                                        000000000000000000
F0010000005932400003000000431178400042505000000000000000000201406170002001EFRAIN ALVAREZ                                    C000000000100000000000000000000000100010010000000000000000000000F0010000005932400320140617000101 00000000000000000000000000000000000000000000000000000000000000000000000000000000000000000000000000000000000000000N 00000000000NCONT   00    00000000000          00000000000000000000000000000000000000000000 000000000000000A000000000000000000000000000000000000000000000 000000000000000000000000000000000000000     00000000                                                                                                                        000000000000000000
F0010000005932400004000000431178400023658300000000000000000201406170002001EFRAIN ALVAREZ                                    C000000000005600000000000000000000100010010000000000000000000000F0010000005932400420140617000101 00000000000000000000000000000000000000000000000000000000000000000000000000000000000000000000000000000000000000000N 00000000000NCONT   00    00000000000          00000000000000000000000000000000000000000000 000000000000000A000000000000000000000000000000000000000000000 000000000000000000000000000000000000000     00000000                                                                                                                        000000000000000000
F0010000005932400005000000431178400013552100000000000000000201406170002001EFRAIN ALVAREZ                                    D000000000005600000000000000000000100010010000000000000000000000F0010000005932400520140617000101 00000000000000000000000000000000000000000000000000000000000000000000000000000000000000000000000000000000000000000N 00000000000NCONT   00    00000000000          00000000000000000000000000000000000000000000 000000000000000A000000000000000000000000000000000000000000000 000000000000000000000000000000000000000     00000000                                                                                                                        000000000000000000
F0010000005932500001000000431178400011050500000000000000000201406170002001EFRAIN ALVAREZ                                    D000000002800000000000000000000000100010010000000000000000000000F0010000005932500120140617000101 00000000000000000000000000000000000000000000000000000000000000000000000000000000000000000000000000000000000000000N 00000000000NCONT   00    00000000000          00000000000000000000000000000000000000000000 000000000000000A000000000000000000000000000000000000000000000 000000000000000000000000000000000000000     00000000                                                                                                                        000000000000000000
F0010000005932500002000000431178400041450500000000000000000201406170002001EFRAIN ALVAREZ                                    C000000002550000000000000000000000100010010000000000000000000000F0010000005932500220140617000101 00000000000000000000000000000000000000000000000000000000000000000000000000000000000000000000000000000000000000000N 00000000000NCONT   00    00000000000          00000000000000000000000000000000000000000000 000000000000000A000000000000000000000000000000000000000000000 000000000000000000000000000000000000000     00000000                                                                                                                        000000000000000000
F0010000005932500003000000431178400042505000000000000000000201406170002001EFRAIN ALVAREZ                                    C000000000250000000000000000000000100010010000000000000000000000F0010000005932500320140617000101 00000000000000000000000000000000000000000000000000000000000000000000000000000000000000000000000000000000000000000N 00000000000NCONT   00    00000000000          00000000000000000000000000000000000000000000 000000000000000A000000000000000000000000000000000000000000000 000000000000000000000000000000000000000     00000000                                                                                                                        000000000000000000
F0010000005932500004000000431178400023658300000000000000000201406170002001EFRAIN ALVAREZ                                    C000000000020400000000000000000000100010010000000000000000000000F0010000005932500420140617000101 00000000000000000000000000000000000000000000000000000000000000000000000000000000000000000000000000000000000000000N 00000000000NCONT   00    00000000000          00000000000000000000000000000000000000000000 000000000000000A000000000000000000000000000000000000000000000 000000000000000000000000000000000000000     00000000                                                                                                                        000000000000000000
F0010000005932500005000000431178400013552100000000000000000201406170002001EFRAIN ALVAREZ                                    D000000000020400000000000000000000100010010000000000000000000000F0010000005932500520140617000101 00000000000000000000000000000000000000000000000000000000000000000000000000000000000000000000000000000000000000000N 00000000000NCONT   00    00000000000          00000000000000000000000000000000000000000000 000000000000000A000000000000000000000000000000000000000000000 000000000000000000000000000000000000000     00000000                                                                                                                        000000000000000000
F0010000005932600001000080200516200011050500000000000000000201406170002001SANTOUR SAS                                       D000000008200000000000000000000000100010010000000000000000000000F0010000005932600120140617000101 00000000000000000000000000000000000000000000000000000000000000000000000000000000000000000000000000000000000000000N 00000000000NCONT   00    00000000000          00000000000000000000000000000000000000000000 000000000000000A000000000000000000000000000000000000000000000 000000000000000000000000000000000000000     00000000                                                                                                                        000000000000000000
F0010000005932600002000080200516200041450500000000000000000201406170002001SANTOUR SAS                                       C000000007000000000000000000000000100010010000000000000000000000F0010000005932600220140617000101 00000000000000000000000000000000000000000000000000000000000000000000000000000000000000000000000000000000000000000N 00000000000NCONT   00    00000000000          00000000000000000000000000000000000000000000 000000000000000A000000000000000000000000000000000000000000000 000000000000000000000000000000000000000     00000000                                                                                                                        000000000000000000
F0010000005932600003000080200516200042505000000000000000000201406170002001SANTOUR SAS                                       C000000001200000000000000000000000100010010000000000000000000000F0010000005932600320140617000101 00000000000000000000000000000000000000000000000000000000000000000000000000000000000000000000000000000000000000000N 00000000000NCONT   00    00000000000          00000000000000000000000000000000000000000000 000000000000000A000000000000000000000000000000000000000000000 000000000000000000000000000000000000000     00000000                                                                                                                        000000000000000000
F0010000005932600004000080200516200023658300000000000000000201406170002001SANTOUR SAS                                       C000000000056000000000000000000000100010010000000000000000000000F0010000005932600420140617000101 00000000000000000000000000000000000000000000000000000000000000000000000000000000000000000000000000000000000000000N 00000000000NCONT   00    00000000000          00000000000000000000000000000000000000000000 000000000000000A000000000000000000000000000000000000000000000 000000000000000000000000000000000000000     00000000                                                                                                                        000000000000000000
F0010000005932600005000080200516200013552100000000000000000201406170002001SANTOUR SAS                                       D000000000056000000000000000000000100010010000000000000000000000F0010000005932600520140617000101 00000000000000000000000000000000000000000000000000000000000000000000000000000000000000000000000000000000000000000N 00000000000NCONT   00    00000000000          00000000000000000000000000000000000000000000 000000000000000A000000000000000000000000000000000000000000000 000000000000000000000000000000000000000     00000000                                                                                                                        000000000000000000
F0010000005932700001000000870907300011050500000000000000000201406170002001SURTIDOR FERRETERO                                D000000002800000000000000000000000100010010000000000000000000000F0010000005932700120140617000101 00000000000000000000000000000000000000000000000000000000000000000000000000000000000000000000000000000000000000000N 00000000000NCONT   00    00000000000          00000000000000000000000000000000000000000000 000000000000000A000000000000000000000000000000000000000000000 000000000000000000000000000000000000000     00000000                                                                                                                        000000000000000000
F0010000005932700002000000870907300041450500000000000000000201406170002001SURTIDOR FERRETERO                                C000000001500000000000000000000000100010010000000000000000000000F0010000005932700220140617000101 00000000000000000000000000000000000000000000000000000000000000000000000000000000000000000000000000000000000000000N 00000000000NCONT   00    00000000000          00000000000000000000000000000000000000000000 000000000000000A000000000000000000000000000000000000000000000 000000000000000000000000000000000000000     00000000                                                                                                                        000000000000000000
F0010000005932700003000000870907300042505000000000000000000201406170002001SURTIDOR FERRETERO                                C000000001300000000000000000000000100010010000000000000000000000F0010000005932700320140617000101 00000000000000000000000000000000000000000000000000000000000000000000000000000000000000000000000000000000000000000N 00000000000NCONT   00    00000000000          00000000000000000000000000000000000000000000 000000000000000A000000000000000000000000000000000000000000000 000000000000000000000000000000000000000     00000000                                                                                                                        000000000000000000
F0010000005932700004000000870907300023658300000000000000000201406170002001SURTIDOR FERRETERO                                C000000000012000000000000000000000100010010000000000000000000000F0010000005932700420140617000101 00000000000000000000000000000000000000000000000000000000000000000000000000000000000000000000000000000000000000000N 00000000000NCONT   00    00000000000          00000000000000000000000000000000000000000000 000000000000000A000000000000000000000000000000000000000000000 000000000000000000000000000000000000000     00000000                                                                                                                        000000000000000000
F0010000005932700005000000870907300013552100000000000000000201406170002001SURTIDOR FERRETERO                                D000000000012000000000000000000000100010010000000000000000000000F0010000005932700520140617000101 00000000000000000000000000000000000000000000000000000000000000000000000000000000000000000000000000000000000000000N 00000000000NCONT   00    00000000000          00000000000000000000000000000000000000000000 000000000000000A000000000000000000000000000000000000000000000 000000000000000000000000000000000000000     00000000                                                                                                                        000000000000000000
F0010000005932800001000090020547900011050500000000000000000201406170002001DAC DEL CARIBE S.A.S.                             D000000001100000000000000000000000100010010000000000000000000000F0010000005932800120140617000101 00000000000000000000000000000000000000000000000000000000000000000000000000000000000000000000000000000000000000000N 00000000000NCONT   00    00000000000          00000000000000000000000000000000000000000000 000000000000000A000000000000000000000000000000000000000000000 000000000000000000000000000000000000000     00000000                                                                                                                        000000000000000000
F0010000005932800002000090020547900041450500000000000000000201406170002001DAC DEL CARIBE S.A.S.                             C000000000900000000000000000000000100010010000000000000000000000F0010000005932800220140617000101 00000000000000000000000000000000000000000000000000000000000000000000000000000000000000000000000000000000000000000N 00000000000NCONT   00    00000000000          00000000000000000000000000000000000000000000 000000000000000A000000000000000000000000000000000000000000000 000000000000000000000000000000000000000     00000000                                                                                                                        000000000000000000
F0010000005932800003000090020547900042505000000000000000000201406170002001DAC DEL CARIBE S.A.S.                             C000000000200000000000000000000000100010010000000000000000000000F0010000005932800320140617000101 00000000000000000000000000000000000000000000000000000000000000000000000000000000000000000000000000000000000000000N 00000000000NCONT   00    00000000000          00000000000000000000000000000000000000000000 000000000000000A000000000000000000000000000000000000000000000 000000000000000000000000000000000000000     00000000                                                                                                                        000000000000000000
F0010000005932800004000090020547900023658300000000000000000201406170002001DAC DEL CARIBE S.A.S.                             C000000000007200000000000000000000100010010000000000000000000000F0010000005932800420140617000101 00000000000000000000000000000000000000000000000000000000000000000000000000000000000000000000000000000000000000000N 00000000000NCONT   00    00000000000          00000000000000000000000000000000000000000000 000000000000000A000000000000000000000000000000000000000000000 000000000000000000000000000000000000000     00000000                                                                                                                        000000000000000000
F0010000005932800005000090020547900013552100000000000000000201406170002001DAC DEL CARIBE S.A.S.                             D000000000007200000000000000000000100010010000000000000000000000F0010000005932800520140617000101 00000000000000000000000000000000000000000000000000000000000000000000000000000000000000000000000000000000000000000N 00000000000NCONT   00    00000000000          00000000000000000000000000000000000000000000 000000000000000A000000000000000000000000000000000000000000000 000000000000000000000000000000000000000     00000000                                                                                                                        000000000000000000
F0010000005932900001000090020547900011050500000000000000000201406170002001DAC DEL CARIBE S.A.S.                             D000000001200000000000000000000000100010010000000000000000000000F0010000005932900120140617000101 00000000000000000000000000000000000000000000000000000000000000000000000000000000000000000000000000000000000000000N 00000000000NCONT   00    00000000000          00000000000000000000000000000000000000000000 000000000000000A000000000000000000000000000000000000000000000 000000000000000000000000000000000000000     00000000                                                                                                                        000000000000000000
F0010000005932900002000090020547900041450500000000000000000201406170002001DAC DEL CARIBE S.A.S.                             C000000000900000000000000000000000100010010000000000000000000000F0010000005932900220140617000101 00000000000000000000000000000000000000000000000000000000000000000000000000000000000000000000000000000000000000000N 00000000000NCONT   00    00000000000          00000000000000000000000000000000000000000000 000000000000000A000000000000000000000000000000000000000000000 000000000000000000000000000000000000000     00000000                                                                                                                        000000000000000000
F0010000005932900003000090020547900042505000000000000000000201406170002001DAC DEL CARIBE S.A.S.                             C000000000300000000000000000000000100010010000000000000000000000F0010000005932900320140617000101 00000000000000000000000000000000000000000000000000000000000000000000000000000000000000000000000000000000000000000N 00000000000NCONT   00    00000000000          00000000000000000000000000000000000000000000 000000000000000A000000000000000000000000000000000000000000000 000000000000000000000000000000000000000     00000000                                                                                                                        000000000000000000
F0010000005932900004000090020547900023658300000000000000000201406170002001DAC DEL CARIBE S.A.S.                             C000000000007200000000000000000000100010010000000000000000000000F0010000005932900420140617000101 00000000000000000000000000000000000000000000000000000000000000000000000000000000000000000000000000000000000000000N 00000000000NCONT   00    00000000000          00000000000000000000000000000000000000000000 000000000000000A000000000000000000000000000000000000000000000 000000000000000000000000000000000000000     00000000                                                                                                                        000000000000000000
F0010000005932900005000090020547900013552100000000000000000201406170002001DAC DEL CARIBE S.A.S.                             D000000000007200000000000000000000100010010000000000000000000000F0010000005932900520140617000101 00000000000000000000000000000000000000000000000000000000000000000000000000000000000000000000000000000000000000000N 00000000000NCONT   00    00000000000          00000000000000000000000000000000000000000000 000000000000000A000000000000000000000000000000000000000000000 000000000000000000000000000000000000000     00000000                                                                                                                        000000000000000000
F0010000005933000001000090020547900011050500000000000000000201406170002001DAC DEL CARIBE S.A.S.                             D000000002400000000000000000000000100010010000000000000000000000F0010000005933000120140617000101 00000000000000000000000000000000000000000000000000000000000000000000000000000000000000000000000000000000000000000N 00000000000NCONT   00    00000000000          00000000000000000000000000000000000000000000 000000000000000A000000000000000000000000000000000000000000000 000000000000000000000000000000000000000     00000000                                                                                                                        000000000000000000
F0010000005933000002000090020547900041450500000000000000000201406170002001DAC DEL CARIBE S.A.S.                             C000000001800000000000000000000000100010010000000000000000000000F0010000005933000220140617000101 00000000000000000000000000000000000000000000000000000000000000000000000000000000000000000000000000000000000000000N 00000000000NCONT   00    00000000000          00000000000000000000000000000000000000000000 000000000000000A000000000000000000000000000000000000000000000 000000000000000000000000000000000000000     00000000                                                                                                                        000000000000000000
F0010000005933000003000090020547900042505000000000000000000201406170002001DAC DEL CARIBE S.A.S.                             C000000000600000000000000000000000100010010000000000000000000000F0010000005933000320140617000101 00000000000000000000000000000000000000000000000000000000000000000000000000000000000000000000000000000000000000000N 00000000000NCONT   00    00000000000          00000000000000000000000000000000000000000000 000000000000000A000000000000000000000000000000000000000000000 000000000000000000000000000000000000000     00000000                                                                                                                        000000000000000000
F0010000005933000004000090020547900023658300000000000000000201406170002001DAC DEL CARIBE S.A.S.                             C000000000014400000000000000000000100010010000000000000000000000F0010000005933000420140617000101 00000000000000000000000000000000000000000000000000000000000000000000000000000000000000000000000000000000000000000N 00000000000NCONT   00    00000000000          00000000000000000000000000000000000000000000 000000000000000A000000000000000000000000000000000000000000000 000000000000000000000000000000000000000     00000000                                                                                                                        000000000000000000
F0010000005933000005000090020547900013552100000000000000000201406170002001DAC DEL CARIBE S.A.S.                             D000000000014400000000000000000000100010010000000000000000000000F0010000005933000520140617000101 00000000000000000000000000000000000000000000000000000000000000000000000000000000000000000000000000000000000000000N 00000000000NCONT   00    00000000000          00000000000000000000000000000000000000000000 000000000000000A000000000000000000000000000000000000000000000 000000000000000000000000000000000000000     00000000                                                                                                                        000000000000000000
F0010000005933100001000000871573200011050500000000000000000201406170002001ACCESORIAS ARQUITECTONI KJ                        D000000002500000000000000000000000100010010000000000000000000000F0010000005933100120140617000101 00000000000000000000000000000000000000000000000000000000000000000000000000000000000000000000000000000000000000000N 00000000000NCONT   00    00000000000          00000000000000000000000000000000000000000000 000000000000000A000000000000000000000000000000000000000000000 000000000000000000000000000000000000000     00000000                                                                                                                        000000000000000000
F0010000005933100002000000871573200041450500000000000000000201406170002001ACCESORIAS ARQUITECTONI KJ                        C000000001150000000000000000000000100010010000000000000000000000F0010000005933100220140617000101 00000000000000000000000000000000000000000000000000000000000000000000000000000000000000000000000000000000000000000N 00000000000NCONT   00    00000000000          00000000000000000000000000000000000000000000 000000000000000A000000000000000000000000000000000000000000000 000000000000000000000000000000000000000     00000000                                                                                                                        000000000000000000
F0010000005933100003000000871573200042505000000000000000000201406170002001ACCESORIAS ARQUITECTONI KJ                        C000000001350000000000000000000000100010010000000000000000000000F0010000005933100320140617000101 00000000000000000000000000000000000000000000000000000000000000000000000000000000000000000000000000000000000000000N 00000000000NCONT   00    00000000000          00000000000000000000000000000000000000000000 000000000000000A000000000000000000000000000000000000000000000 000000000000000000000000000000000000000     00000000                                                                                                                        000000000000000000
F0010000005933100004000000871573200023658300000000000000000201406170002001ACCESORIAS ARQUITECTONI KJ                        C000000000009200000000000000000000100010010000000000000000000000F0010000005933100420140617000101 00000000000000000000000000000000000000000000000000000000000000000000000000000000000000000000000000000000000000000N 00000000000NCONT   00    00000000000          00000000000000000000000000000000000000000000 000000000000000A000000000000000000000000000000000000000000000 000000000000000000000000000000000000000     00000000                                                                                                                        000000000000000000
F0010000005933100005000000871573200013552100000000000000000201406170002001ACCESORIAS ARQUITECTONI KJ                        D000000000009200000000000000000000100010010000000000000000000000F0010000005933100520140617000101 00000000000000000000000000000000000000000000000000000000000000000000000000000000000000000000000000000000000000000N 00000000000NCONT   00    00000000000          00000000000000000000000000000000000000000000 000000000000000A000000000000000000000000000000000000000000000 000000000000000000000000000000000000000     00000000                                                                                                                        000000000000000000
F0010000005933200001000090020547900011050500000000000000000201406170002001DAC DEL CARIBE S.A.S.                             D000000002800000000000000000000000100010010000000000000000000000F0010000005933200120140617000101 00000000000000000000000000000000000000000000000000000000000000000000000000000000000000000000000000000000000000000N 00000000000NCONT   00    00000000000          00000000000000000000000000000000000000000000 000000000000000A000000000000000000000000000000000000000000000 000000000000000000000000000000000000000     00000000                                                                                                                        000000000000000000
F0010000005933200002000090020547900041450500000000000000000201406170002001DAC DEL CARIBE S.A.S.                             C000000002400000000000000000000000100010010000000000000000000000F0010000005933200220140617000101 00000000000000000000000000000000000000000000000000000000000000000000000000000000000000000000000000000000000000000N 00000000000NCONT   00    00000000000          00000000000000000000000000000000000000000000 000000000000000A000000000000000000000000000000000000000000000 000000000000000000000000000000000000000     00000000                                                                                                                        000000000000000000
F0010000005933200003000090020547900042505000000000000000000201406170002001DAC DEL CARIBE S.A.S.                             C000000000400000000000000000000000100010010000000000000000000000F0010000005933200320140617000101 00000000000000000000000000000000000000000000000000000000000000000000000000000000000000000000000000000000000000000N 00000000000NCONT   00    00000000000          00000000000000000000000000000000000000000000 000000000000000A000000000000000000000000000000000000000000000 000000000000000000000000000000000000000     00000000                                                                                                                        000000000000000000
F0010000005933200004000090020547900023658300000000000000000201406170002001DAC DEL CARIBE S.A.S.                             C000000000019200000000000000000000100010010000000000000000000000F0010000005933200420140617000101 00000000000000000000000000000000000000000000000000000000000000000000000000000000000000000000000000000000000000000N 00000000000NCONT   00    00000000000          00000000000000000000000000000000000000000000 000000000000000A000000000000000000000000000000000000000000000 000000000000000000000000000000000000000     00000000                                                                                                                        000000000000000000
F0010000005933200005000090020547900013552100000000000000000201406170002001DAC DEL CARIBE S.A.S.                             D000000000019200000000000000000000100010010000000000000000000000F0010000005933200520140617000101 00000000000000000000000000000000000000000000000000000000000000000000000000000000000000000000000000000000000000000N 00000000000NCONT   00    00000000000          00000000000000000000000000000000000000000000 000000000000000A000000000000000000000000000000000000000000000 000000000000000000000000000000000000000     00000000                                                                                                                        000000000000000000
F0010000005933300001000090020547900011050500000000000000000201406170002001DAC DEL CARIBE S.A.S.                             D000000001100000000000000000000000100010010000000000000000000000F0010000005933300120140617000101 00000000000000000000000000000000000000000000000000000000000000000000000000000000000000000000000000000000000000000N 00000000000NCONT   00    00000000000          00000000000000000000000000000000000000000000 000000000000000A000000000000000000000000000000000000000000000 000000000000000000000000000000000000000     00000000                                                                                                                        000000000000000000
F0010000005933300002000090020547900041450500000000000000000201406170002001DAC DEL CARIBE S.A.S.                             C000000000900000000000000000000000100010010000000000000000000000F0010000005933300220140617000101 00000000000000000000000000000000000000000000000000000000000000000000000000000000000000000000000000000000000000000N 00000000000NCONT   00    00000000000          00000000000000000000000000000000000000000000 000000000000000A000000000000000000000000000000000000000000000 000000000000000000000000000000000000000     00000000                                                                                                                        000000000000000000
