F0010000006637500001000090073498600011050500000000000000000201412160002001VALTAC DEL CARIBE LTDA                            D000000001000000000000000000000000100010010000000000000000000000F0010000006637500120141216000101 00000000000000000000000000000000000000000000000000000000000000000000000000000000000000000000000000000000000000000N 00000000000NCONT   00    00000000000          00000000000000000000000000000000000000000000 000000000000000A000000000000000000000000000000000000000000000 000000000000000000000000000000000000000     00000000                                                                                                                        000000000000000000
F0010000006637500002000090073498600041450500000000000000000201412160002001VALTAC DEL CARIBE LTDA                            C000000000900000000000000000000000100010010000000000000000000000F0010000006637500220141216000101 00000000000000000000000000000000000000000000000000000000000000000000000000000000000000000000000000000000000000000N 00000000000NCONT   00    00000000000          00000000000000000000000000000000000000000000 000000000000000A000000000000000000000000000000000000000000000 000000000000000000000000000000000000000     00000000                                                                                                                        000000000000000000
F0010000006637500003000090073498600042505000000000000000000201412160002001VALTAC DEL CARIBE LTDA                            C000000000100000000000000000000000100010010000000000000000000000F0010000006637500320141216000101 00000000000000000000000000000000000000000000000000000000000000000000000000000000000000000000000000000000000000000N 00000000000NCONT   00    00000000000          00000000000000000000000000000000000000000000 000000000000000A000000000000000000000000000000000000000000000 000000000000000000000000000000000000000     00000000                                                                                                                        000000000000000000
F0010000006637500004000090073498600023658300000000000000000201412160002001VALTAC DEL CARIBE LTDA                            C000000000007200000000000000000000100010010000000000000000000000F0010000006637500420141216000101 00000000000000000000000000000000000000000000000000000000000000000000000000000000000000000000000000000000000000000N 00000000000NCONT   00    00000000000          00000000000000000000000000000000000000000000 000000000000000A000000000000000000000000000000000000000000000 000000000000000000000000000000000000000     00000000                                                                                                                        000000000000000000
F0010000006637500005000090073498600013552100000000000000000201412160002001VALTAC DEL CARIBE LTDA                            D000000000007200000000000000000000100010010000000000000000000000F0010000006637500520141216000101 00000000000000000000000000000000000000000000000000000000000000000000000000000000000000000000000000000000000000000N 00000000000NCONT   00    00000000000          00000000000000000000000000000000000000000000 000000000000000A000000000000000000000000000000000000000000000 000000000000000000000000000000000000000     00000000                                                                                                                        000000000000000000
F0010000006637600001000007221007700011050500000000000000000201412160002001LEANDRO POLO                                      D000000001500000000000000000000000100010010000000000000000000000F0010000006637600120141216000101 00000000000000000000000000000000000000000000000000000000000000000000000000000000000000000000000000000000000000000N 00000000000NCONT   00    00000000000          00000000000000000000000000000000000000000000 000000000000000A000000000000000000000000000000000000000000000 000000000000000000000000000000000000000     00000000                                                                                                                        000000000000000000
F0010000006637600002000007221007700041450500000000000000000201412160002001LEANDRO POLO                                      C000000001400000000000000000000000100010010000000000000000000000F0010000006637600220141216000101 00000000000000000000000000000000000000000000000000000000000000000000000000000000000000000000000000000000000000000N 00000000000NCONT   00    00000000000          00000000000000000000000000000000000000000000 000000000000000A000000000000000000000000000000000000000000000 000000000000000000000000000000000000000     00000000                                                                                                                        000000000000000000
F0010000006637600003000007221007700042505000000000000000000201412160002001LEANDRO POLO                                      C000000000100000000000000000000000100010010000000000000000000000F0010000006637600320141216000101 00000000000000000000000000000000000000000000000000000000000000000000000000000000000000000000000000000000000000000N 00000000000NCONT   00    00000000000          00000000000000000000000000000000000000000000 000000000000000A000000000000000000000000000000000000000000000 000000000000000000000000000000000000000     00000000                                                                                                                        000000000000000000
F0010000006637600004000007221007700023658300000000000000000201412160002001LEANDRO POLO                                      C000000000011200000000000000000000100010010000000000000000000000F0010000006637600420141216000101 00000000000000000000000000000000000000000000000000000000000000000000000000000000000000000000000000000000000000000N 00000000000NCONT   00    00000000000          00000000000000000000000000000000000000000000 000000000000000A000000000000000000000000000000000000000000000 000000000000000000000000000000000000000     00000000                                                                                                                        000000000000000000
F0010000006637600005000007221007700013552100000000000000000201412160002001LEANDRO POLO                                      D000000000011200000000000000000000100010010000000000000000000000F0010000006637600520141216000101 00000000000000000000000000000000000000000000000000000000000000000000000000000000000000000000000000000000000000000N 00000000000NCONT   00    00000000000          00000000000000000000000000000000000000000000 000000000000000A000000000000000000000000000000000000000000000 000000000000000000000000000000000000000     00000000                                                                                                                        000000000000000000
F0010000006637700001000090020547900011050500000000000000000201412160002001DAC DEL CARIBE S.A.S.                             D000000003400000000000000000000000100010010000000000000000000000F0010000006637700120141216000101 00000000000000000000000000000000000000000000000000000000000000000000000000000000000000000000000000000000000000000N 00000000000NCONT   00    00000000000          00000000000000000000000000000000000000000000 000000000000000A000000000000000000000000000000000000000000000 000000000000000000000000000000000000000     00000000                                                                                                                        000000000000000000
F0010000006637700002000090020547900041450500000000000000000201412160002001DAC DEL CARIBE S.A.S.                             C000000002400000000000000000000000100010010000000000000000000000F0010000006637700220141216000101 00000000000000000000000000000000000000000000000000000000000000000000000000000000000000000000000000000000000000000N 00000000000NCONT   00    00000000000          00000000000000000000000000000000000000000000 000000000000000A000000000000000000000000000000000000000000000 000000000000000000000000000000000000000     00000000                                                                                                                        000000000000000000
F0010000006637700003000090020547900042505000000000000000000201412160002001DAC DEL CARIBE S.A.S.                             C000000001000000000000000000000000100010010000000000000000000000F0010000006637700320141216000101 00000000000000000000000000000000000000000000000000000000000000000000000000000000000000000000000000000000000000000N 00000000000NCONT   00    00000000000          00000000000000000000000000000000000000000000 000000000000000A000000000000000000000000000000000000000000000 000000000000000000000000000000000000000     00000000                                                                                                                        000000000000000000
F0010000006637700004000090020547900023658300000000000000000201412160002001DAC DEL CARIBE S.A.S.                             C000000000019200000000000000000000100010010000000000000000000000F0010000006637700420141216000101 00000000000000000000000000000000000000000000000000000000000000000000000000000000000000000000000000000000000000000N 00000000000NCONT   00    00000000000          00000000000000000000000000000000000000000000 000000000000000A000000000000000000000000000000000000000000000 000000000000000000000000000000000000000     00000000                                                                                                                        000000000000000000
F0010000006637700005000090020547900013552100000000000000000201412160002001DAC DEL CARIBE S.A.S.                             D000000000019200000000000000000000100010010000000000000000000000F0010000006637700520141216000101 00000000000000000000000000000000000000000000000000000000000000000000000000000000000000000000000000000000000000000N 00000000000NCONT   00    00000000000          00000000000000000000000000000000000000000000 000000000000000A000000000000000000000000000000000000000000000 000000000000000000000000000000000000000     00000000                                                                                                                        000000000000000000
F0010000006637800001000090020547900011050500000000000000000201412160002001DAC DEL CARIBE S.A.S.                             D000000005000000000000000000000000100010010000000000000000000000F0010000006637800120141216000101 00000000000000000000000000000000000000000000000000000000000000000000000000000000000000000000000000000000000000000N 00000000000NCONT   00    00000000000          00000000000000000000000000000000000000000000 000000000000000A000000000000000000000000000000000000000000000 000000000000000000000000000000000000000     00000000                                                                                                                        000000000000000000
F0010000006637800002000090020547900041450500000000000000000201412160002001DAC DEL CARIBE S.A.S.                             C000000003900000000000000000000000100010010000000000000000000000F0010000006637800220141216000101 00000000000000000000000000000000000000000000000000000000000000000000000000000000000000000000000000000000000000000N 00000000000NCONT   00    00000000000          00000000000000000000000000000000000000000000 000000000000000A000000000000000000000000000000000000000000000 000000000000000000000000000000000000000     00000000                                                                                                                        000000000000000000
F0010000006637800003000090020547900042505000000000000000000201412160002001DAC DEL CARIBE S.A.S.                             C000000001100000000000000000000000100010010000000000000000000000F0010000006637800320141216000101 00000000000000000000000000000000000000000000000000000000000000000000000000000000000000000000000000000000000000000N 00000000000NCONT   00    00000000000          00000000000000000000000000000000000000000000 000000000000000A000000000000000000000000000000000000000000000 000000000000000000000000000000000000000     00000000                                                                                                                        000000000000000000
F0010000006637800004000090020547900023658300000000000000000201412160002001DAC DEL CARIBE S.A.S.                             C000000000031200000000000000000000100010010000000000000000000000F0010000006637800420141216000101 00000000000000000000000000000000000000000000000000000000000000000000000000000000000000000000000000000000000000000N 00000000000NCONT   00    00000000000          00000000000000000000000000000000000000000000 000000000000000A000000000000000000000000000000000000000000000 000000000000000000000000000000000000000     00000000                                                                                                                        000000000000000000
F0010000006637800005000090020547900013552100000000000000000201412160002001DAC DEL CARIBE S.A.S.                             D000000000031200000000000000000000100010010000000000000000000000F0010000006637800520141216000101 00000000000000000000000000000000000000000000000000000000000000000000000000000000000000000000000000000000000000000N 00000000000NCONT   00    00000000000          00000000000000000000000000000000000000000000 000000000000000A000000000000000000000000000000000000000000000 000000000000000000000000000000000000000     00000000                                                                                                                        000000000000000000
F0010000006637900001000114081940500011050500000000000000000201412160002001JOAQUIN BALLESTAS POLO                            D000000004500000000000000000000000100010010000000000000000000000F0010000006637900120141216000101 00000000000000000000000000000000000000000000000000000000000000000000000000000000000000000000000000000000000000000N 00000000000NCONT   00    00000000000          00000000000000000000000000000000000000000000 000000000000000A000000000000000000000000000000000000000000000 000000000000000000000000000000000000000     00000000                                                                                                                        000000000000000000
F0010000006637900002000114081940500041450500000000000000000201412160002001JOAQUIN BALLESTAS POLO                            C000000003600000000000000000000000100010010000000000000000000000F0010000006637900220141216000101 00000000000000000000000000000000000000000000000000000000000000000000000000000000000000000000000000000000000000000N 00000000000NCONT   00    00000000000          00000000000000000000000000000000000000000000 000000000000000A000000000000000000000000000000000000000000000 000000000000000000000000000000000000000     00000000                                                                                                                        000000000000000000
F0010000006637900003000114081940500042505000000000000000000201412160002001JOAQUIN BALLESTAS POLO                            C000000000900000000000000000000000100010010000000000000000000000F0010000006637900320141216000101 00000000000000000000000000000000000000000000000000000000000000000000000000000000000000000000000000000000000000000N 00000000000NCONT   00    00000000000          00000000000000000000000000000000000000000000 000000000000000A000000000000000000000000000000000000000000000 000000000000000000000000000000000000000     00000000                                                                                                                        000000000000000000
F0010000006637900004000114081940500023658300000000000000000201412160002001JOAQUIN BALLESTAS POLO                            C000000000028800000000000000000000100010010000000000000000000000F0010000006637900420141216000101 00000000000000000000000000000000000000000000000000000000000000000000000000000000000000000000000000000000000000000N 00000000000NCONT   00    00000000000          00000000000000000000000000000000000000000000 000000000000000A000000000000000000000000000000000000000000000 000000000000000000000000000000000000000     00000000                                                                                                                        000000000000000000
F0010000006637900005000114081940500013552100000000000000000201412160002001JOAQUIN BALLESTAS POLO                            D000000000028800000000000000000000100010010000000000000000000000F0010000006637900520141216000101 00000000000000000000000000000000000000000000000000000000000000000000000000000000000000000000000000000000000000000N 00000000000NCONT   00    00000000000          00000000000000000000000000000000000000000000 000000000000000A000000000000000000000000000000000000000000000 000000000000000000000000000000000000000     00000000                                                                                                                        000000000000000000
F0010000006638100001000090059316900013050500000000000000000201412160002001DISTRIBUCIONES Y REPRESENTACIONES MANA            D000000001946000000000000000000000100010010000000000000000000000F0010000006638100120141216000101 00000000000000000000000000000000000000000000000000000000000000000000000000000000000000000000000000000000000000000N 00000000000NCONT   00    00000000000          00000000000000000000000000000000000000000000 000000000000000A000000000000000000000000000000000000000000000 000000000000000000000000000000000000000     00000000                                                                                                                        000000000000000000
F0010000006638100002000090059316900041450500000000000000000201412160002001DISTRIBUCIONES Y REPRESENTACIONES MANA            C000000001700000000000000000000000100010010000000000000000000000F0010000006638100220141216000101 00000000000000000000000000000000000000000000000000000000000000000000000000000000000000000000000000000000000000000N 00000000000NCONT   00    00000000000          00000000000000000000000000000000000000000000 000000000000000A000000000000000000000000000000000000000000000 000000000000000000000000000000000000000     00000000                                                                                                                        000000000000000000
F0010000006638100003000090059316900042505000000000000000000201412160002001DISTRIBUCIONES Y REPRESENTACIONES MANA            C000000000246000000000000000000000100010010000000000000000000000F0010000006638100320141216000101 00000000000000000000000000000000000000000000000000000000000000000000000000000000000000000000000000000000000000000N 00000000000NCONT   00    00000000000          00000000000000000000000000000000000000000000 000000000000000A000000000000000000000000000000000000000000000 000000000000000000000000000000000000000     00000000                                                                                                                        000000000000000000
F0010000006638100004000090059316900023658300000000000000000201412160002001DISTRIBUCIONES Y REPRESENTACIONES MANA            C000000000013600000000000000000000100010010000000000000000000000F0010000006638100420141216000101 00000000000000000000000000000000000000000000000000000000000000000000000000000000000000000000000000000000000000000N 00000000000NCONT   00    00000000000          00000000000000000000000000000000000000000000 000000000000000A000000000000000000000000000000000000000000000 000000000000000000000000000000000000000     00000000                                                                                                                        000000000000000000
F0010000006638100005000090059316900013552100000000000000000201412160002001DISTRIBUCIONES Y REPRESENTACIONES MANA            D000000000013600000000000000000000100010010000000000000000000000F0010000006638100520141216000101 00000000000000000000000000000000000000000000000000000000000000000000000000000000000000000000000000000000000000000N 00000000000NCONT   00    00000000000          00000000000000000000000000000000000000000000 000000000000000A000000000000000000000000000000000000000000000 000000000000000000000000000000000000000     00000000                                                                                                                        000000000000000000
F0010000006638200001000089070997800013050500000000000000000201412160002001CENTRAL DE TORNILLOS                              D000000007250000000000000000000000100010010000000000000000000000F0010000006638200120141216000101 00000000000000000000000000000000000000000000000000000000000000000000000000000000000000000000000000000000000000000N 00000000000NCONT   00    00000000000          00000000000000000000000000000000000000000000 000000000000000A000000000000000000000000000000000000000000000 000000000000000000000000000000000000000     00000000                                                                                                                        000000000000000000
F0010000006638200002000089070997800041450500000000000000000201412160002001CENTRAL DE TORNILLOS                              C000000006750000000000000000000000100010010000000000000000000000F0010000006638200220141216000101 00000000000000000000000000000000000000000000000000000000000000000000000000000000000000000000000000000000000000000N 00000000000NCONT   00    00000000000          00000000000000000000000000000000000000000000 000000000000000A000000000000000000000000000000000000000000000 000000000000000000000000000000000000000     00000000                                                                                                                        000000000000000000
F0010000006638200003000089070997800042505000000000000000000201412160002001CENTRAL DE TORNILLOS                              C000000000500000000000000000000000100010010000000000000000000000F0010000006638200320141216000101 00000000000000000000000000000000000000000000000000000000000000000000000000000000000000000000000000000000000000000N 00000000000NCONT   00    00000000000          00000000000000000000000000000000000000000000 000000000000000A000000000000000000000000000000000000000000000 000000000000000000000000000000000000000     00000000                                                                                                                        000000000000000000
F0010000006638200004000089070997800023658300000000000000000201412160002001CENTRAL DE TORNILLOS                              C000000000054000000000000000000000100010010000000000000000000000F0010000006638200420141216000101 00000000000000000000000000000000000000000000000000000000000000000000000000000000000000000000000000000000000000000N 00000000000NCONT   00    00000000000          00000000000000000000000000000000000000000000 000000000000000A000000000000000000000000000000000000000000000 000000000000000000000000000000000000000     00000000                                                                                                                        000000000000000000
F0010000006638200005000089070997800013552100000000000000000201412160002001CENTRAL DE TORNILLOS                              D000000000054000000000000000000000100010010000000000000000000000F0010000006638200520141216000101 00000000000000000000000000000000000000000000000000000000000000000000000000000000000000000000000000000000000000000N 00000000000NCONT   00    00000000000          00000000000000000000000000000000000000000000 000000000000000A000000000000000000000000000000000000000000000 000000000000000000000000000000000000000     00000000                                                                                                                        000000000000000000
F0010000006638300001000083001155300013050500000000000000000201412160002001COMERCIALIZADORA RUBEN S LTDA                     D000000036253000000000000000000000100010010000000000000000000000F0010000006638300120141216000101 00000000000000000000000000000000000000000000000000000000000000000000000000000000000000000000000000000000000000000N 00000000000NCONT   00    00000000000          00000000000000000000000000000000000000000000 000000000000000A000000000000000000000000000000000000000000000 000000000000000000000000000000000000000     00000000                                                                                                                        000000000000000000
F0010000006638300002000083001155300041450500000000000000000201412160002001COMERCIALIZADORA RUBEN S LTDA                     C000000032697200000000000000000000100010010000000000000000000000F0010000006638300220141216000101 00000000000000000000000000000000000000000000000000000000000000000000000000000000000000000000000000000000000000000N 00000000000NCONT   00    00000000000          00000000000000000000000000000000000000000000 000000000000000A000000000000000000000000000000000000000000000 000000000000000000000000000000000000000     00000000                                                                                                                        000000000000000000
F0010000006638300003000083001155300042505000000000000000000201412160002001COMERCIALIZADORA RUBEN S LTDA                     C000000003555800000000000000000000100010010000000000000000000000F0010000006638300320141216000101 00000000000000000000000000000000000000000000000000000000000000000000000000000000000000000000000000000000000000000N 00000000000NCONT   00    00000000000          00000000000000000000000000000000000000000000 000000000000000A000000000000000000000000000000000000000000000 000000000000000000000000000000000000000     00000000                                                                                                                        000000000000000000
F0010000006638300004000083001155300023658300000000000000000201412160002001COMERCIALIZADORA RUBEN S LTDA                     C000000000261600000000000000000000100010010000000000000000000000F0010000006638300420141216000101 00000000000000000000000000000000000000000000000000000000000000000000000000000000000000000000000000000000000000000N 00000000000NCONT   00    00000000000          00000000000000000000000000000000000000000000 000000000000000A000000000000000000000000000000000000000000000 000000000000000000000000000000000000000     00000000                                                                                                                        000000000000000000
F0010000006638300005000083001155300013552100000000000000000201412160002001COMERCIALIZADORA RUBEN S LTDA                     D000000000261600000000000000000000100010010000000000000000000000F0010000006638300520141216000101 00000000000000000000000000000000000000000000000000000000000000000000000000000000000000000000000000000000000000000N 00000000000NCONT   00    00000000000          00000000000000000000000000000000000000000000 000000000000000A000000000000000000000000000000000000000000000 000000000000000000000000000000000000000     00000000                                                                                                                        000000000000000000
F0010000006638400001000086000490200013050500000000000000000201412160002001PROV. DE PAPELES ANDINA S.A.                      D000000006035500000000000000000000100010010000000000000000000000F0010000006638400120141216000101 00000000000000000000000000000000000000000000000000000000000000000000000000000000000000000000000000000000000000000N 00000000000NCONT   00    00000000000          00000000000000000000000000000000000000000000 000000000000000A000000000000000000000000000000000000000000000 000000000000000000000000000000000000000     00000000                                                                                                                        000000000000000000
F0010000006638400002000086000490200041450500000000000000000201412160002001PROV. DE PAPELES ANDINA S.A.                      C000000005478600000000000000000000100010010000000000000000000000F0010000006638400220141216000101 00000000000000000000000000000000000000000000000000000000000000000000000000000000000000000000000000000000000000000N 00000000000NCONT   00    00000000000          00000000000000000000000000000000000000000000 000000000000000A000000000000000000000000000000000000000000000 000000000000000000000000000000000000000     00000000                                                                                                                        000000000000000000
F0010000006638400003000086000490200042505000000000000000000201412160002001PROV. DE PAPELES ANDINA S.A.                      C000000000556900000000000000000000100010010000000000000000000000F0010000006638400320141216000101 00000000000000000000000000000000000000000000000000000000000000000000000000000000000000000000000000000000000000000N 00000000000NCONT   00    00000000000          00000000000000000000000000000000000000000000 000000000000000A000000000000000000000000000000000000000000000 000000000000000000000000000000000000000     00000000                                                                                                                        000000000000000000
F0010000006638400004000086000490200023658300000000000000000201412160002001PROV. DE PAPELES ANDINA S.A.                      C000000000043800000000000000000000100010010000000000000000000000F0010000006638400420141216000101 00000000000000000000000000000000000000000000000000000000000000000000000000000000000000000000000000000000000000000N 00000000000NCONT   00    00000000000          00000000000000000000000000000000000000000000 000000000000000A000000000000000000000000000000000000000000000 000000000000000000000000000000000000000     00000000                                                                                                                        000000000000000000
F0010000006638400005000086000490200013552100000000000000000201412160002001PROV. DE PAPELES ANDINA S.A.                      D000000000043800000000000000000000100010010000000000000000000000F0010000006638400520141216000101 00000000000000000000000000000000000000000000000000000000000000000000000000000000000000000000000000000000000000000N 00000000000NCONT   00    00000000000          00000000000000000000000000000000000000000000 000000000000000A000000000000000000000000000000000000000000000 000000000000000000000000000000000000000     00000000                                                                                                                        000000000000000000
F0010000006638500001000089190114700013050500000000000000000201412160002001SUPAPEL S.A.S                                     D000000000425500000000000000000000100010010000000000000000000000F0010000006638500120141216000101 00000000000000000000000000000000000000000000000000000000000000000000000000000000000000000000000000000000000000000N 00000000000NCONT   00    00000000000          00000000000000000000000000000000000000000000 000000000000000A000000000000000000000000000000000000000000000 000000000000000000000000000000000000000     00000000                                                                                                                        000000000000000000
F0010000006638500002000089190114700041450500000000000000000201412160002001SUPAPEL S.A.S                                     C000000000369900000000000000000000100010010000000000000000000000F0010000006638500220141216000101 00000000000000000000000000000000000000000000000000000000000000000000000000000000000000000000000000000000000000000N 00000000000NCONT   00    00000000000          00000000000000000000000000000000000000000000 000000000000000A000000000000000000000000000000000000000000000 000000000000000000000000000000000000000     00000000                                                                                                                        000000000000000000
F0010000006638500003000089190114700042505000000000000000000201412160002001SUPAPEL S.A.S                                     C000000000055600000000000000000000100010010000000000000000000000F0010000006638500320141216000101 00000000000000000000000000000000000000000000000000000000000000000000000000000000000000000000000000000000000000000N 00000000000NCONT   00    00000000000          00000000000000000000000000000000000000000000 000000000000000A000000000000000000000000000000000000000000000 000000000000000000000000000000000000000     00000000                                                                                                                        000000000000000000
F0010000006638500004000089190114700023658300000000000000000201412160002001SUPAPEL S.A.S                                     C000000000003000000000000000000000100010010000000000000000000000F0010000006638500420141216000101 00000000000000000000000000000000000000000000000000000000000000000000000000000000000000000000000000000000000000000N 00000000000NCONT   00    00000000000          00000000000000000000000000000000000000000000 000000000000000A000000000000000000000000000000000000000000000 000000000000000000000000000000000000000     00000000                                                                                                                        000000000000000000
F0010000006638500005000089190114700013552100000000000000000201412160002001SUPAPEL S.A.S                                     D000000000003000000000000000000000100010010000000000000000000000F0010000006638500520141216000101 00000000000000000000000000000000000000000000000000000000000000000000000000000000000000000000000000000000000000000N 00000000000NCONT   00    00000000000          00000000000000000000000000000000000000000000 000000000000000A000000000000000000000000000000000000000000000 000000000000000000000000000000000000000     00000000                                                                                                                        000000000000000000
F0010000006638600001000080200049600011050500000000000000000201412160002001FAMAPAN DEL CARIBE                                D000000010000000000000000000000000100010010000000000000000000000F0010000006638600120141216000101 00000000000000000000000000000000000000000000000000000000000000000000000000000000000000000000000000000000000000000N 00000000000NCONT   00    00000000000          00000000000000000000000000000000000000000000 000000000000000A000000000000000000000000000000000000000000000 000000000000000000000000000000000000000     00000000                                                                                                                        000000000000000000
F0010000006638600002000080200049600041450500000000000000000201412160002001FAMAPAN DEL CARIBE                                C000000009350000000000000000000000100010010000000000000000000000F0010000006638600220141216000101 00000000000000000000000000000000000000000000000000000000000000000000000000000000000000000000000000000000000000000N 00000000000NCONT   00    00000000000          00000000000000000000000000000000000000000000 000000000000000A000000000000000000000000000000000000000000000 000000000000000000000000000000000000000     00000000                                                                                                                        000000000000000000
F0010000006638600003000080200049600042505000000000000000000201412160002001FAMAPAN DEL CARIBE                                C000000000650000000000000000000000100010010000000000000000000000F0010000006638600320141216000101 00000000000000000000000000000000000000000000000000000000000000000000000000000000000000000000000000000000000000000N 00000000000NCONT   00    00000000000          00000000000000000000000000000000000000000000 000000000000000A000000000000000000000000000000000000000000000 000000000000000000000000000000000000000     00000000                                                                                                                        000000000000000000
F0010000006638600004000080200049600023658300000000000000000201412160002001FAMAPAN DEL CARIBE                                C000000000074800000000000000000000100010010000000000000000000000F0010000006638600420141216000101 00000000000000000000000000000000000000000000000000000000000000000000000000000000000000000000000000000000000000000N 00000000000NCONT   00    00000000000          00000000000000000000000000000000000000000000 000000000000000A000000000000000000000000000000000000000000000 000000000000000000000000000000000000000     00000000                                                                                                                        000000000000000000
F0010000006638600005000080200049600013552100000000000000000201412160002001FAMAPAN DEL CARIBE                                D000000000074800000000000000000000100010010000000000000000000000F0010000006638600520141216000101 00000000000000000000000000000000000000000000000000000000000000000000000000000000000000000000000000000000000000000N 00000000000NCONT   00    00000000000          00000000000000000000000000000000000000000000 000000000000000A000000000000000000000000000000000000000000000 000000000000000000000000000000000000000     00000000                                                                                                                        000000000000000000
F0010000006638700001000080016664500013050500000000000000000201412160002001TELAPLAS PANCER SAS                               D000000031249000000000000000000000100010010000000000000000000000F0010000006638700120141216000101 00000000000000000000000000000000000000000000000000000000000000000000000000000000000000000000000000000000000000000N 00000000000NCONT   00    00000000000          00000000000000000000000000000000000000000000 000000000000000A000000000000000000000000000000000000000000000 000000000000000000000000000000000000000     00000000                                                                                                                        000000000000000000
F0010000006638700002000080016664500041450500000000000000000201412160002001TELAPLAS PANCER SAS                               C000000025820000000000000000000000100010010000000000000000000000F0010000006638700220141216000101 00000000000000000000000000000000000000000000000000000000000000000000000000000000000000000000000000000000000000000N 00000000000NCONT   00    00000000000          00000000000000000000000000000000000000000000 000000000000000A000000000000000000000000000000000000000000000 000000000000000000000000000000000000000     00000000                                                                                                                        000000000000000000
F0010000006638700003000080016664500042505000000000000000000201412160002001TELAPLAS PANCER SAS                               C000000005429000000000000000000000100010010000000000000000000000F0010000006638700320141216000101 00000000000000000000000000000000000000000000000000000000000000000000000000000000000000000000000000000000000000000N 00000000000NCONT   00    00000000000          00000000000000000000000000000000000000000000 000000000000000A000000000000000000000000000000000000000000000 000000000000000000000000000000000000000     00000000                                                                                                                        000000000000000000
F0010000006638700004000080016664500023658300000000000000000201412160002001TELAPLAS PANCER SAS                               C000000000206600000000000000000000100010010000000000000000000000F0010000006638700420141216000101 00000000000000000000000000000000000000000000000000000000000000000000000000000000000000000000000000000000000000000N 00000000000NCONT   00    00000000000          00000000000000000000000000000000000000000000 000000000000000A000000000000000000000000000000000000000000000 000000000000000000000000000000000000000     00000000                                                                                                                        000000000000000000
F0010000006638700005000080016664500013552100000000000000000201412160002001TELAPLAS PANCER SAS                               D000000000206600000000000000000000100010010000000000000000000000F0010000006638700520141216000101 00000000000000000000000000000000000000000000000000000000000000000000000000000000000000000000000000000000000000000N 00000000000NCONT   00    00000000000          00000000000000000000000000000000000000000000 000000000000000A000000000000000000000000000000000000000000000 000000000000000000000000000000000000000     00000000                                                                                                                        000000000000000000
F0010000006638800001000090008711200013050500000000000000000201412160002001PACKAGING SUPPLIERS S.A.                          D000000088512000000000000000000000100010010000000000000000000000F0010000006638800120141216000101 00000000000000000000000000000000000000000000000000000000000000000000000000000000000000000000000000000000000000000N 00000000000NCONT   00    00000000000          00000000000000000000000000000000000000000000 000000000000000A000000000000000000000000000000000000000000000 000000000000000000000000000000000000000     00000000                                                                                                                        000000000000000000
F0010000006638800002000090008711200041450500000000000000000201412160002001PACKAGING SUPPLIERS S.A.                          C000000083831800000000000000000000100010010000000000000000000000F0010000006638800220141216000101 00000000000000000000000000000000000000000000000000000000000000000000000000000000000000000000000000000000000000000N 00000000000NCONT   00    00000000000          00000000000000000000000000000000000000000000 000000000000000A000000000000000000000000000000000000000000000 000000000000000000000000000000000000000     00000000                                                                                                                        000000000000000000
F0010000006638800003000090008711200042505000000000000000000201412160002001PACKAGING SUPPLIERS S.A.                          C000000004680200000000000000000000100010010000000000000000000000F0010000006638800320141216000101 00000000000000000000000000000000000000000000000000000000000000000000000000000000000000000000000000000000000000000N 00000000000NCONT   00    00000000000          00000000000000000000000000000000000000000000 000000000000000A000000000000000000000000000000000000000000000 000000000000000000000000000000000000000     00000000                                                                                                                        000000000000000000
F0010000006638800004000090008711200023658300000000000000000201412160002001PACKAGING SUPPLIERS S.A.                          C000000000670700000000000000000000100010010000000000000000000000F0010000006638800420141216000101 00000000000000000000000000000000000000000000000000000000000000000000000000000000000000000000000000000000000000000N 00000000000NCONT   00    00000000000          00000000000000000000000000000000000000000000 000000000000000A000000000000000000000000000000000000000000000 000000000000000000000000000000000000000     00000000                                                                                                                        000000000000000000
F0010000006638800005000090008711200013552100000000000000000201412160002001PACKAGING SUPPLIERS S.A.                          D000000000670700000000000000000000100010010000000000000000000000F0010000006638800520141216000101 00000000000000000000000000000000000000000000000000000000000000000000000000000000000000000000000000000000000000000N 00000000000NCONT   00    00000000000          00000000000000000000000000000000000000000000 000000000000000A000000000000000000000000000000000000000000000 000000000000000000000000000000000000000     00000000                                                                                                                        000000000000000000
F0010000006638900001000000376399500013050500000000000000000201412160002001FORDPLAST                                         D000000012930000000000000000000000100010010000000000000000000000F0010000006638900120141216000101 00000000000000000000000000000000000000000000000000000000000000000000000000000000000000000000000000000000000000000N 00000000000NCONT   00    00000000000          00000000000000000000000000000000000000000000 000000000000000A000000000000000000000000000000000000000000000 000000000000000000000000000000000000000     00000000                                                                                                                        000000000000000000
F0010000006638900002000000376399500041450500000000000000000201412160002001FORDPLAST                                         C000000010230000000000000000000000100010010000000000000000000000F0010000006638900220141216000101 00000000000000000000000000000000000000000000000000000000000000000000000000000000000000000000000000000000000000000N 00000000000NCONT   00    00000000000          00000000000000000000000000000000000000000000 000000000000000A000000000000000000000000000000000000000000000 000000000000000000000000000000000000000     00000000                                                                                                                        000000000000000000
F0010000006638900003000000376399500042505000000000000000000201412160002001FORDPLAST                                         C000000002700000000000000000000000100010010000000000000000000000F0010000006638900320141216000101 00000000000000000000000000000000000000000000000000000000000000000000000000000000000000000000000000000000000000000N 00000000000NCONT   00    00000000000          00000000000000000000000000000000000000000000 000000000000000A000000000000000000000000000000000000000000000 000000000000000000000000000000000000000     00000000                                                                                                                        000000000000000000
F0010000006638900004000000376399500023658300000000000000000201412160002001FORDPLAST                                         C000000000081800000000000000000000100010010000000000000000000000F0010000006638900420141216000101 00000000000000000000000000000000000000000000000000000000000000000000000000000000000000000000000000000000000000000N 00000000000NCONT   00    00000000000          00000000000000000000000000000000000000000000 000000000000000A000000000000000000000000000000000000000000000 000000000000000000000000000000000000000     00000000                                                                                                                        000000000000000000
F0010000006638900005000000376399500013552100000000000000000201412160002001FORDPLAST                                         D000000000081800000000000000000000100010010000000000000000000000F0010000006638900520141216000101 00000000000000000000000000000000000000000000000000000000000000000000000000000000000000000000000000000000000000000N 00000000000NCONT   00    00000000000          00000000000000000000000000000000000000000000 000000000000000A000000000000000000000000000000000000000000000 000000000000000000000000000000000000000     00000000                                                                                                                        000000000000000000
F0010000006639000001000089093802000013050500000000000000000201412160002001INPROQUIM SAS                                     D000000024490400000000000000000000100010010000000000000000000000F0010000006639000120141216000101 00000000000000000000000000000000000000000000000000000000000000000000000000000000000000000000000000000000000000000N 00000000000NCONT   00    00000000000          00000000000000000000000000000000000000000000 000000000000000A000000000000000000000000000000000000000000000 000000000000000000000000000000000000000     00000000                                                                                                                        000000000000000000
F0010000006639000002000089093802000041450500000000000000000201412160002001INPROQUIM SAS                                     C000000021200000000000000000000000100010010000000000000000000000F0010000006639000220141216000101 00000000000000000000000000000000000000000000000000000000000000000000000000000000000000000000000000000000000000000N 00000000000NCONT   00    00000000000          00000000000000000000000000000000000000000000 000000000000000A000000000000000000000000000000000000000000000 000000000000000000000000000000000000000     00000000                                                                                                                        000000000000000000
F0010000006639000003000089093802000042505000000000000000000201412160002001INPROQUIM SAS                                     C000000003290400000000000000000000100010010000000000000000000000F0010000006639000320141216000101 00000000000000000000000000000000000000000000000000000000000000000000000000000000000000000000000000000000000000000N 00000000000NCONT   00    00000000000          00000000000000000000000000000000000000000000 000000000000000A000000000000000000000000000000000000000000000 000000000000000000000000000000000000000     00000000                                                                                                                        000000000000000000
F0010000006639000004000089093802000023658300000000000000000201412160002001INPROQUIM SAS                                     C000000000169600000000000000000000100010010000000000000000000000F0010000006639000420141216000101 00000000000000000000000000000000000000000000000000000000000000000000000000000000000000000000000000000000000000000N 00000000000NCONT   00    00000000000          00000000000000000000000000000000000000000000 000000000000000A000000000000000000000000000000000000000000000 000000000000000000000000000000000000000     00000000                                                                                                                        000000000000000000
F0010000006639000005000089093802000013552100000000000000000201412160002001INPROQUIM SAS                                     D000000000169600000000000000000000100010010000000000000000000000F0010000006639000520141216000101 00000000000000000000000000000000000000000000000000000000000000000000000000000000000000000000000000000000000000000N 00000000000NCONT   00    00000000000          00000000000000000000000000000000000000000000 000000000000000A000000000000000000000000000000000000000000000 000000000000000000000000000000000000000     00000000                                                                                                                        000000000000000000
F0010000006639100001000086052221300013050500000000000000000201412160002001TROFORMAS S.A                                     D000000003500000000000000000000000100010010000000000000000000000F0010000006639100120141216000101 00000000000000000000000000000000000000000000000000000000000000000000000000000000000000000000000000000000000000000N 00000000000NCONT   00    00000000000          00000000000000000000000000000000000000000000 000000000000000A000000000000000000000000000000000000000000000 000000000000000000000000000000000000000     00000000                                                                                                                        000000000000000000
F0010000006639100002000086052221300041450500000000000000000201412160002001TROFORMAS S.A                                     C000000003000000000000000000000000100010010000000000000000000000F0010000006639100220141216000101 00000000000000000000000000000000000000000000000000000000000000000000000000000000000000000000000000000000000000000N 00000000000NCONT   00    00000000000          00000000000000000000000000000000000000000000 000000000000000A000000000000000000000000000000000000000000000 000000000000000000000000000000000000000     00000000                                                                                                                        000000000000000000
F0010000006639100003000086052221300042505000000000000000000201412160002001TROFORMAS S.A                                     C000000000500000000000000000000000100010010000000000000000000000F0010000006639100320141216000101 00000000000000000000000000000000000000000000000000000000000000000000000000000000000000000000000000000000000000000N 00000000000NCONT   00    00000000000          00000000000000000000000000000000000000000000 000000000000000A000000000000000000000000000000000000000000000 000000000000000000000000000000000000000     00000000                                                                                                                        000000000000000000
F0010000006639100004000086052221300023658300000000000000000201412160002001TROFORMAS S.A                                     C000000000024000000000000000000000100010010000000000000000000000F0010000006639100420141216000101 00000000000000000000000000000000000000000000000000000000000000000000000000000000000000000000000000000000000000000N 00000000000NCONT   00    00000000000          00000000000000000000000000000000000000000000 000000000000000A000000000000000000000000000000000000000000000 000000000000000000000000000000000000000     00000000                                                                                                                        000000000000000000
F0010000006639100005000086052221300013552100000000000000000201412160002001TROFORMAS S.A                                     D000000000024000000000000000000000100010010000000000000000000000F0010000006639100520141216000101 00000000000000000000000000000000000000000000000000000000000000000000000000000000000000000000000000000000000000000N 00000000000NCONT   00    00000000000          00000000000000000000000000000000000000000000 000000000000000A000000000000000000000000000000000000000000000 000000000000000000000000000000000000000     00000000                                                                                                                        000000000000000000
F0010000006639200001000090064982900013050500000000000000000201412160002001DISDIES S.A.S                                     D000000036068500000000000000000000100010010000000000000000000000F0010000006639200120141216000101 00000000000000000000000000000000000000000000000000000000000000000000000000000000000000000000000000000000000000000N 00000000000NCONT   00    00000000000          00000000000000000000000000000000000000000000 000000000000000A000000000000000000000000000000000000000000000 000000000000000000000000000000000000000     00000000                                                                                                                        000000000000000000
F0010000006639200002000090064982900041450500000000000000000201412160002001DISDIES S.A.S                                     C000000031988500000000000000000000100010010000000000000000000000F0010000006639200220141216000101 00000000000000000000000000000000000000000000000000000000000000000000000000000000000000000000000000000000000000000N 00000000000NCONT   00    00000000000          00000000000000000000000000000000000000000000 000000000000000A000000000000000000000000000000000000000000000 000000000000000000000000000000000000000     00000000                                                                                                                        000000000000000000
F0010000006639200003000090064982900042505000000000000000000201412160002001DISDIES S.A.S                                     C000000004080000000000000000000000100010010000000000000000000000F0010000006639200320141216000101 00000000000000000000000000000000000000000000000000000000000000000000000000000000000000000000000000000000000000000N 00000000000NCONT   00    00000000000          00000000000000000000000000000000000000000000 000000000000000A000000000000000000000000000000000000000000000 000000000000000000000000000000000000000     00000000                                                                                                                        000000000000000000
F0010000006639200004000090064982900023658300000000000000000201412160002001DISDIES S.A.S                                     C000000000255900000000000000000000100010010000000000000000000000F0010000006639200420141216000101 00000000000000000000000000000000000000000000000000000000000000000000000000000000000000000000000000000000000000000N 00000000000NCONT   00    00000000000          00000000000000000000000000000000000000000000 000000000000000A000000000000000000000000000000000000000000000 000000000000000000000000000000000000000     00000000                                                                                                                        000000000000000000
F0010000006639200005000090064982900013552100000000000000000201412160002001DISDIES S.A.S                                     D000000000255900000000000000000000100010010000000000000000000000F0010000006639200520141216000101 00000000000000000000000000000000000000000000000000000000000000000000000000000000000000000000000000000000000000000N 00000000000NCONT   00    00000000000          00000000000000000000000000000000000000000000 000000000000000A000000000000000000000000000000000000000000000 000000000000000000000000000000000000000     00000000                                                                                                                        000000000000000000
F0010000006639300001000090044443800013050500000000000000000201412160002001DISTRIBUCIONES UFRE S.A.S.                        D000000001550000000000000000000000100010010000000000000000000000F0010000006639300120141216000101 00000000000000000000000000000000000000000000000000000000000000000000000000000000000000000000000000000000000000000N 00000000000NCONT   00    00000000000          00000000000000000000000000000000000000000000 000000000000000A000000000000000000000000000000000000000000000 000000000000000000000000000000000000000     00000000                                                                                                                        000000000000000000
F0010000006639300002000090044443800041450500000000000000000201412160002001DISTRIBUCIONES UFRE S.A.S.                        C000000000800000000000000000000000100010010000000000000000000000F0010000006639300220141216000101 00000000000000000000000000000000000000000000000000000000000000000000000000000000000000000000000000000000000000000N 00000000000NCONT   00    00000000000          00000000000000000000000000000000000000000000 000000000000000A000000000000000000000000000000000000000000000 000000000000000000000000000000000000000     00000000                                                                                                                        000000000000000000
F0010000006639300003000090044443800042505000000000000000000201412160002001DISTRIBUCIONES UFRE S.A.S.                        C000000000750000000000000000000000100010010000000000000000000000F0010000006639300320141216000101 00000000000000000000000000000000000000000000000000000000000000000000000000000000000000000000000000000000000000000N 00000000000NCONT   00    00000000000          00000000000000000000000000000000000000000000 000000000000000A000000000000000000000000000000000000000000000 000000000000000000000000000000000000000     00000000                                                                                                                        000000000000000000
F0010000006639300004000090044443800023658300000000000000000201412160002001DISTRIBUCIONES UFRE S.A.S.                        C000000000006400000000000000000000100010010000000000000000000000F0010000006639300420141216000101 00000000000000000000000000000000000000000000000000000000000000000000000000000000000000000000000000000000000000000N 00000000000NCONT   00    00000000000          00000000000000000000000000000000000000000000 000000000000000A000000000000000000000000000000000000000000000 000000000000000000000000000000000000000     00000000                                                                                                                        000000000000000000
F0010000006639300005000090044443800013552100000000000000000201412160002001DISTRIBUCIONES UFRE S.A.S.                        D000000000006400000000000000000000100010010000000000000000000000F0010000006639300520141216000101 00000000000000000000000000000000000000000000000000000000000000000000000000000000000000000000000000000000000000000N 00000000000NCONT   00    00000000000          00000000000000000000000000000000000000000000 000000000000000A000000000000000000000000000000000000000000000 000000000000000000000000000000000000000     00000000                                                                                                                        000000000000000000
F0010000006639400001000089010526900013050500000000000000000201412160002001DISTRIBUCIONES CANAL Y CIA S.A.S                  D000000029565900000000000000000000100010010000000000000000000000F0010000006639400120141216000101 00000000000000000000000000000000000000000000000000000000000000000000000000000000000000000000000000000000000000000N 00000000000NCONT   00    00000000000          00000000000000000000000000000000000000000000 000000000000000A000000000000000000000000000000000000000000000 000000000000000000000000000000000000000     00000000                                                                                                                        000000000000000000
F0010000006639400002000089010526900041450500000000000000000201412160002001DISTRIBUCIONES CANAL Y CIA S.A.S                  C000000019880000000000000000000000100010010000000000000000000000F0010000006639400220141216000101 00000000000000000000000000000000000000000000000000000000000000000000000000000000000000000000000000000000000000000N 00000000000NCONT   00    00000000000          00000000000000000000000000000000000000000000 000000000000000A000000000000000000000000000000000000000000000 000000000000000000000000000000000000000     00000000                                                                                                                        000000000000000000
F0010000006639400003000089010526900042505000000000000000000201412160002001DISTRIBUCIONES CANAL Y CIA S.A.S                  C000000009685900000000000000000000100010010000000000000000000000F0010000006639400320141216000101 00000000000000000000000000000000000000000000000000000000000000000000000000000000000000000000000000000000000000000N 00000000000NCONT   00    00000000000          00000000000000000000000000000000000000000000 000000000000000A000000000000000000000000000000000000000000000 000000000000000000000000000000000000000     00000000                                                                                                                        000000000000000000
F0010000006639400004000089010526900023658300000000000000000201412160002001DISTRIBUCIONES CANAL Y CIA S.A.S                  C000000000159000000000000000000000100010010000000000000000000000F0010000006639400420141216000101 00000000000000000000000000000000000000000000000000000000000000000000000000000000000000000000000000000000000000000N 00000000000NCONT   00    00000000000          00000000000000000000000000000000000000000000 000000000000000A000000000000000000000000000000000000000000000 000000000000000000000000000000000000000     00000000                                                                                                                        000000000000000000
F0010000006639400005000089010526900013552100000000000000000201412160002001DISTRIBUCIONES CANAL Y CIA S.A.S                  D000000000159000000000000000000000100010010000000000000000000000F0010000006639400520141216000101 00000000000000000000000000000000000000000000000000000000000000000000000000000000000000000000000000000000000000000N 00000000000NCONT   00    00000000000          00000000000000000000000000000000000000000000 000000000000000A000000000000000000000000000000000000000000000 000000000000000000000000000000000000000     00000000                                                                                                                        000000000000000000
F0010000006639500001000080002300200013050500000000000000000201412160002001DISREL S.A.                                       D000000022550000000000000000000000100010010000000000000000000000F0010000006639500120141216000101 00000000000000000000000000000000000000000000000000000000000000000000000000000000000000000000000000000000000000000N 00000000000NCONT   00    00000000000          00000000000000000000000000000000000000000000 000000000000000A000000000000000000000000000000000000000000000 000000000000000000000000000000000000000     00000000                                                                                                                        000000000000000000
F0010000006639500002000080002300200041450500000000000000000201412160002001DISREL S.A.                                       C000000018600000000000000000000000100010010000000000000000000000F0010000006639500220141216000101 00000000000000000000000000000000000000000000000000000000000000000000000000000000000000000000000000000000000000000N 00000000000NCONT   00    00000000000          00000000000000000000000000000000000000000000 000000000000000A000000000000000000000000000000000000000000000 000000000000000000000000000000000000000     00000000                                                                                                                        000000000000000000
F0010000006639500003000080002300200042505000000000000000000201412160002001DISREL S.A.                                       C000000003950000000000000000000000100010010000000000000000000000F0010000006639500320141216000101 00000000000000000000000000000000000000000000000000000000000000000000000000000000000000000000000000000000000000000N 00000000000NCONT   00    00000000000          00000000000000000000000000000000000000000000 000000000000000A000000000000000000000000000000000000000000000 000000000000000000000000000000000000000     00000000                                                                                                                        000000000000000000
F0010000006639500004000080002300200023658300000000000000000201412160002001DISREL S.A.                                       C000000000148800000000000000000000100010010000000000000000000000F0010000006639500420141216000101 00000000000000000000000000000000000000000000000000000000000000000000000000000000000000000000000000000000000000000N 00000000000NCONT   00    00000000000          00000000000000000000000000000000000000000000 000000000000000A000000000000000000000000000000000000000000000 000000000000000000000000000000000000000     00000000                                                                                                                        000000000000000000
F0010000006639500005000080002300200013552100000000000000000201412160002001DISREL S.A.                                       D000000000148800000000000000000000100010010000000000000000000000F0010000006639500520141216000101 00000000000000000000000000000000000000000000000000000000000000000000000000000000000000000000000000000000000000000N 00000000000NCONT   00    00000000000          00000000000000000000000000000000000000000000 000000000000000A000000000000000000000000000000000000000000000 000000000000000000000000000000000000000     00000000                                                                                                                        000000000000000000
F0010000006639600001000002258669400013050500000000000000000201412160002001YURY PAOLA  SANTAMARIA ..                         D000000007145000000000000000000000100010010000000000000000000000F0010000006639600120141216000101 00000000000000000000000000000000000000000000000000000000000000000000000000000000000000000000000000000000000000000N 00000000000NCONT   00    00000000000          00000000000000000000000000000000000000000000 000000000000000A000000000000000000000000000000000000000000000 000000000000000000000000000000000000000     00000000                                                                                                                        000000000000000000
F0010000006639600002000002258669400041450500000000000000000201412160002001YURY PAOLA  SANTAMARIA ..                         C000000005730000000000000000000000100010010000000000000000000000F0010000006639600220141216000101 00000000000000000000000000000000000000000000000000000000000000000000000000000000000000000000000000000000000000000N 00000000000NCONT   00    00000000000          00000000000000000000000000000000000000000000 000000000000000A000000000000000000000000000000000000000000000 000000000000000000000000000000000000000     00000000                                                                                                                        000000000000000000
F0010000006639600003000002258669400042505000000000000000000201412160002001YURY PAOLA  SANTAMARIA ..                         C000000001415000000000000000000000100010010000000000000000000000F0010000006639600320141216000101 00000000000000000000000000000000000000000000000000000000000000000000000000000000000000000000000000000000000000000N 00000000000NCONT   00    00000000000          00000000000000000000000000000000000000000000 000000000000000A000000000000000000000000000000000000000000000 000000000000000000000000000000000000000     00000000                                                                                                                        000000000000000000
F0010000006639600004000002258669400023658300000000000000000201412160002001YURY PAOLA  SANTAMARIA ..                         C000000000045800000000000000000000100010010000000000000000000000F0010000006639600420141216000101 00000000000000000000000000000000000000000000000000000000000000000000000000000000000000000000000000000000000000000N 00000000000NCONT   00    00000000000          00000000000000000000000000000000000000000000 000000000000000A000000000000000000000000000000000000000000000 000000000000000000000000000000000000000     00000000                                                                                                                        000000000000000000
F0010000006639600005000002258669400013552100000000000000000201412160002001YURY PAOLA  SANTAMARIA ..                         D000000000045800000000000000000000100010010000000000000000000000F0010000006639600520141216000101 00000000000000000000000000000000000000000000000000000000000000000000000000000000000000000000000000000000000000000N 00000000000NCONT   00    00000000000          00000000000000000000000000000000000000000000 000000000000000A000000000000000000000000000000000000000000000 000000000000000000000000000000000000000     00000000                                                                                                                        000000000000000000
F0010000006639700001000090048173700013050500000000000000000201412160002001ESPECIALIDADES QUIMICAS DEL NORTE SAS             D000000013522900000000000000000000100010010000000000000000000000F0010000006639700120141216000101 00000000000000000000000000000000000000000000000000000000000000000000000000000000000000000000000000000000000000000N 00000000000NCONT   00    00000000000          00000000000000000000000000000000000000000000 000000000000000A000000000000000000000000000000000000000000000 000000000000000000000000000000000000000     00000000                                                                                                                        000000000000000000
F0010000006639700002000090048173700041450500000000000000000201412160002001ESPECIALIDADES QUIMICAS DEL NORTE SAS             C000000012320000000000000000000000100010010000000000000000000000F0010000006639700220141216000101 00000000000000000000000000000000000000000000000000000000000000000000000000000000000000000000000000000000000000000N 00000000000NCONT   00    00000000000          00000000000000000000000000000000000000000000 000000000000000A000000000000000000000000000000000000000000000 000000000000000000000000000000000000000     00000000                                                                                                                        000000000000000000
F0010000006639700003000090048173700042505000000000000000000201412160002001ESPECIALIDADES QUIMICAS DEL NORTE SAS             C000000001202900000000000000000000100010010000000000000000000000F0010000006639700320141216000101 00000000000000000000000000000000000000000000000000000000000000000000000000000000000000000000000000000000000000000N 00000000000NCONT   00    00000000000          00000000000000000000000000000000000000000000 000000000000000A000000000000000000000000000000000000000000000 000000000000000000000000000000000000000     00000000                                                                                                                        000000000000000000
F0010000006639700004000090048173700023658300000000000000000201412160002001ESPECIALIDADES QUIMICAS DEL NORTE SAS             C000000000098600000000000000000000100010010000000000000000000000F0010000006639700420141216000101 00000000000000000000000000000000000000000000000000000000000000000000000000000000000000000000000000000000000000000N 00000000000NCONT   00    00000000000          00000000000000000000000000000000000000000000 000000000000000A000000000000000000000000000000000000000000000 000000000000000000000000000000000000000     00000000                                                                                                                        000000000000000000
F0010000006639700005000090048173700013552100000000000000000201412160002001ESPECIALIDADES QUIMICAS DEL NORTE SAS             D000000000098600000000000000000000100010010000000000000000000000F0010000006639700520141216000101 00000000000000000000000000000000000000000000000000000000000000000000000000000000000000000000000000000000000000000N 00000000000NCONT   00    00000000000          00000000000000000000000000000000000000000000 000000000000000A000000000000000000000000000000000000000000000 000000000000000000000000000000000000000     00000000                                                                                                                        000000000000000000
F0010000006639800001000007215983800013050500000000000000000201412160002001INDUSTRIA  LAFERBE                                D000000001930000000000000000000000100010010000000000000000000000F0010000006639800120141216000101 00000000000000000000000000000000000000000000000000000000000000000000000000000000000000000000000000000000000000000N 00000000000NCONT   00    00000000000          00000000000000000000000000000000000000000000 000000000000000A000000000000000000000000000000000000000000000 000000000000000000000000000000000000000     00000000                                                                                                                        000000000000000000
F0010000006639800002000007215983800041450500000000000000000201412160002001INDUSTRIA  LAFERBE                                C000000001130000000000000000000000100010010000000000000000000000F0010000006639800220141216000101 00000000000000000000000000000000000000000000000000000000000000000000000000000000000000000000000000000000000000000N 00000000000NCONT   00    00000000000          00000000000000000000000000000000000000000000 000000000000000A000000000000000000000000000000000000000000000 000000000000000000000000000000000000000     00000000                                                                                                                        000000000000000000
F0010000006639800003000007215983800042505000000000000000000201412160002001INDUSTRIA  LAFERBE                                C000000000800000000000000000000000100010010000000000000000000000F0010000006639800320141216000101 00000000000000000000000000000000000000000000000000000000000000000000000000000000000000000000000000000000000000000N 00000000000NCONT   00    00000000000          00000000000000000000000000000000000000000000 000000000000000A000000000000000000000000000000000000000000000 000000000000000000000000000000000000000     00000000                                                                                                                        000000000000000000
F0010000006639800004000007215983800023658300000000000000000201412160002001INDUSTRIA  LAFERBE                                C000000000009000000000000000000000100010010000000000000000000000F0010000006639800420141216000101 00000000000000000000000000000000000000000000000000000000000000000000000000000000000000000000000000000000000000000N 00000000000NCONT   00    00000000000          00000000000000000000000000000000000000000000 000000000000000A000000000000000000000000000000000000000000000 000000000000000000000000000000000000000     00000000                                                                                                                        000000000000000000
F0010000006639800005000007215983800013552100000000000000000201412160002001INDUSTRIA  LAFERBE                                D000000000009000000000000000000000100010010000000000000000000000F0010000006639800520141216000101 00000000000000000000000000000000000000000000000000000000000000000000000000000000000000000000000000000000000000000N 00000000000NCONT   00    00000000000          00000000000000000000000000000000000000000000 000000000000000A000000000000000000000000000000000000000000000 000000000000000000000000000000000000000     00000000                                                                                                                        000000000000000000
F0010000006639900001000080200069100013050500000000000000000201412160002001PEGANTES Y PINTURAS ATLAS LTDA                    D000000003431800000000000000000000100010010000000000000000000000F0010000006639900120141216000101 00000000000000000000000000000000000000000000000000000000000000000000000000000000000000000000000000000000000000000N 00000000000NCONT   00    00000000000          00000000000000000000000000000000000000000000 000000000000000A000000000000000000000000000000000000000000000 000000000000000000000000000000000000000     00000000                                                                                                                        000000000000000000
F0010000006639900002000080200069100041450500000000000000000201412160002001PEGANTES Y PINTURAS ATLAS LTDA                    C000000003000000000000000000000000100010010000000000000000000000F0010000006639900220141216000101 00000000000000000000000000000000000000000000000000000000000000000000000000000000000000000000000000000000000000000N 00000000000NCONT   00    00000000000          00000000000000000000000000000000000000000000 000000000000000A000000000000000000000000000000000000000000000 000000000000000000000000000000000000000     00000000                                                                                                                        000000000000000000
F0010000006639900003000080200069100042505000000000000000000201412160002001PEGANTES Y PINTURAS ATLAS LTDA                    C000000000431800000000000000000000100010010000000000000000000000F0010000006639900320141216000101 00000000000000000000000000000000000000000000000000000000000000000000000000000000000000000000000000000000000000000N 00000000000NCONT   00    00000000000          00000000000000000000000000000000000000000000 000000000000000A000000000000000000000000000000000000000000000 000000000000000000000000000000000000000     00000000                                                                                                                        000000000000000000
F0010000006639900004000080200069100023658300000000000000000201412160002001PEGANTES Y PINTURAS ATLAS LTDA                    C000000000024000000000000000000000100010010000000000000000000000F0010000006639900420141216000101 00000000000000000000000000000000000000000000000000000000000000000000000000000000000000000000000000000000000000000N 00000000000NCONT   00    00000000000          00000000000000000000000000000000000000000000 000000000000000A000000000000000000000000000000000000000000000 000000000000000000000000000000000000000     00000000                                                                                                                        000000000000000000
F0010000006639900005000080200069100013552100000000000000000201412160002001PEGANTES Y PINTURAS ATLAS LTDA                    D000000000024000000000000000000000100010010000000000000000000000F0010000006639900520141216000101 00000000000000000000000000000000000000000000000000000000000000000000000000000000000000000000000000000000000000000N 00000000000NCONT   00    00000000000          00000000000000000000000000000000000000000000 000000000000000A000000000000000000000000000000000000000000000 000000000000000000000000000000000000000     00000000                                                                                                                        000000000000000000
F0010000006640000001000090013035500013050500000000000000000201412160002001FUJIAN SHAN S.A.                                  D000000056949700000000000000000000100010010000000000000000000000F0010000006640000120141216000101 00000000000000000000000000000000000000000000000000000000000000000000000000000000000000000000000000000000000000000N 00000000000NCONT   00    00000000000          00000000000000000000000000000000000000000000 000000000000000A000000000000000000000000000000000000000000000 000000000000000000000000000000000000000     00000000                                                                                                                        000000000000000000
F0010000006640000002000090013035500041450500000000000000000201412160002001FUJIAN SHAN S.A.                                  C000000055449700000000000000000000100010010000000000000000000000F0010000006640000220141216000101 00000000000000000000000000000000000000000000000000000000000000000000000000000000000000000000000000000000000000000N 00000000000NCONT   00    00000000000          00000000000000000000000000000000000000000000 000000000000000A000000000000000000000000000000000000000000000 000000000000000000000000000000000000000     00000000                                                                                                                        000000000000000000
F0010000006640000003000090013035500042505000000000000000000201412160002001FUJIAN SHAN S.A.                                  C000000001500000000000000000000000100010010000000000000000000000F0010000006640000320141216000101 00000000000000000000000000000000000000000000000000000000000000000000000000000000000000000000000000000000000000000N 00000000000NCONT   00    00000000000          00000000000000000000000000000000000000000000 000000000000000A000000000000000000000000000000000000000000000 000000000000000000000000000000000000000     00000000                                                                                                                        000000000000000000
F0010000006640000004000090013035500023658300000000000000000201412160002001FUJIAN SHAN S.A.                                  C000000000443600000000000000000000100010010000000000000000000000F0010000006640000420141216000101 00000000000000000000000000000000000000000000000000000000000000000000000000000000000000000000000000000000000000000N 00000000000NCONT   00    00000000000          00000000000000000000000000000000000000000000 000000000000000A000000000000000000000000000000000000000000000 000000000000000000000000000000000000000     00000000                                                                                                                        000000000000000000
F0010000006640000005000090013035500013552100000000000000000201412160002001FUJIAN SHAN S.A.                                  D000000000443600000000000000000000100010010000000000000000000000F0010000006640000520141216000101 00000000000000000000000000000000000000000000000000000000000000000000000000000000000000000000000000000000000000000N 00000000000NCONT   00    00000000000          00000000000000000000000000000000000000000000 000000000000000A000000000000000000000000000000000000000000000 000000000000000000000000000000000000000     00000000                                                                                                                        000000000000000000
F0010000006640100001000080019113900013050500000000000000000201412160002001COMERCIAL NOVAPEL LTDA                            D000000064950000000000000000000000100010010000000000000000000000F0010000006640100120141216000101 00000000000000000000000000000000000000000000000000000000000000000000000000000000000000000000000000000000000000000N 00000000000NCONT   00    00000000000          00000000000000000000000000000000000000000000 000000000000000A000000000000000000000000000000000000000000000 000000000000000000000000000000000000000     00000000                                                                                                                        000000000000000000
F0010000006640100002000080019113900041450500000000000000000201412160002001COMERCIAL NOVAPEL LTDA                            C000000060000000000000000000000000100010010000000000000000000000F0010000006640100220141216000101 00000000000000000000000000000000000000000000000000000000000000000000000000000000000000000000000000000000000000000N 00000000000NCONT   00    00000000000          00000000000000000000000000000000000000000000 000000000000000A000000000000000000000000000000000000000000000 000000000000000000000000000000000000000     00000000                                                                                                                        000000000000000000
F0010000006640100003000080019113900042505000000000000000000201412160002001COMERCIAL NOVAPEL LTDA                            C000000004950000000000000000000000100010010000000000000000000000F0010000006640100320141216000101 00000000000000000000000000000000000000000000000000000000000000000000000000000000000000000000000000000000000000000N 00000000000NCONT   00    00000000000          00000000000000000000000000000000000000000000 000000000000000A000000000000000000000000000000000000000000000 000000000000000000000000000000000000000     00000000                                                                                                                        000000000000000000
F0010000006640100004000080019113900023658300000000000000000201412160002001COMERCIAL NOVAPEL LTDA                            C000000000480000000000000000000000100010010000000000000000000000F0010000006640100420141216000101 00000000000000000000000000000000000000000000000000000000000000000000000000000000000000000000000000000000000000000N 00000000000NCONT   00    00000000000          00000000000000000000000000000000000000000000 000000000000000A000000000000000000000000000000000000000000000 000000000000000000000000000000000000000     00000000                                                                                                                        000000000000000000
F0010000006640100005000080019113900013552100000000000000000201412160002001COMERCIAL NOVAPEL LTDA                            D000000000480000000000000000000000100010010000000000000000000000F0010000006640100520141216000101 00000000000000000000000000000000000000000000000000000000000000000000000000000000000000000000000000000000000000000N 00000000000NCONT   00    00000000000          00000000000000000000000000000000000000000000 000000000000000A000000000000000000000000000000000000000000000 000000000000000000000000000000000000000     00000000                                                                                                                        000000000000000000
F0010000006640200001000090031658200013050500000000000000000201412160002001ABAOS S.A.S.                                      D000000011638700000000000000000000100010010000000000000000000000F0010000006640200120141216000101 00000000000000000000000000000000000000000000000000000000000000000000000000000000000000000000000000000000000000000N 00000000000NCONT   00    00000000000          00000000000000000000000000000000000000000000 000000000000000A000000000000000000000000000000000000000000000 000000000000000000000000000000000000000     00000000                                                                                                                        000000000000000000
F0010000006640200002000090031658200041450500000000000000000201412160002001ABAOS S.A.S.                                      C000000009800000000000000000000000100010010000000000000000000000F0010000006640200220141216000101 00000000000000000000000000000000000000000000000000000000000000000000000000000000000000000000000000000000000000000N 00000000000NCONT   00    00000000000          00000000000000000000000000000000000000000000 000000000000000A000000000000000000000000000000000000000000000 000000000000000000000000000000000000000     00000000                                                                                                                        000000000000000000
F0010000006640200003000090031658200042505000000000000000000201412160002001ABAOS S.A.S.                                      C000000001838700000000000000000000100010010000000000000000000000F0010000006640200320141216000101 00000000000000000000000000000000000000000000000000000000000000000000000000000000000000000000000000000000000000000N 00000000000NCONT   00    00000000000          00000000000000000000000000000000000000000000 000000000000000A000000000000000000000000000000000000000000000 000000000000000000000000000000000000000     00000000                                                                                                                        000000000000000000
F0010000006640200004000090031658200023658300000000000000000201412160002001ABAOS S.A.S.                                      C000000000078400000000000000000000100010010000000000000000000000F0010000006640200420141216000101 00000000000000000000000000000000000000000000000000000000000000000000000000000000000000000000000000000000000000000N 00000000000NCONT   00    00000000000          00000000000000000000000000000000000000000000 000000000000000A000000000000000000000000000000000000000000000 000000000000000000000000000000000000000     00000000                                                                                                                        000000000000000000
F0010000006640200005000090031658200013552100000000000000000201412160002001ABAOS S.A.S.                                      D000000000078400000000000000000000100010010000000000000000000000F0010000006640200520141216000101 00000000000000000000000000000000000000000000000000000000000000000000000000000000000000000000000000000000000000000N 00000000000NCONT   00    00000000000          00000000000000000000000000000000000000000000 000000000000000A000000000000000000000000000000000000000000000 000000000000000000000000000000000000000     00000000                                                                                                                        000000000000000000
F0010000006640300001000002257933700013050500000000000000000201412160002001ROSA MARGARITA  PUCCINI SU HERRAMIENTAS Y ELECTRICD000000002741600000000000000000000100010010000000000000000000000F0010000006640300120141216000101 00000000000000000000000000000000000000000000000000000000000000000000000000000000000000000000000000000000000000000N 00000000000NCONT   00    00000000000          00000000000000000000000000000000000000000000 000000000000000A000000000000000000000000000000000000000000000 000000000000000000000000000000000000000     00000000                                                                                                                        000000000000000000
F0010000006640300002000002257933700041450500000000000000000201412160002001ROSA MARGARITA  PUCCINI SU HERRAMIENTAS Y ELECTRICC000000002280000000000000000000000100010010000000000000000000000F0010000006640300220141216000101 00000000000000000000000000000000000000000000000000000000000000000000000000000000000000000000000000000000000000000N 00000000000NCONT   00    00000000000          00000000000000000000000000000000000000000000 000000000000000A000000000000000000000000000000000000000000000 000000000000000000000000000000000000000     00000000                                                                                                                        000000000000000000
F0010000006640300003000002257933700042505000000000000000000201412160002001ROSA MARGARITA  PUCCINI SU HERRAMIENTAS Y ELECTRICC000000000461600000000000000000000100010010000000000000000000000F0010000006640300320141216000101 00000000000000000000000000000000000000000000000000000000000000000000000000000000000000000000000000000000000000000N 00000000000NCONT   00    00000000000          00000000000000000000000000000000000000000000 000000000000000A000000000000000000000000000000000000000000000 000000000000000000000000000000000000000     00000000                                                                                                                        000000000000000000
F0010000006640300004000002257933700023658300000000000000000201412160002001ROSA MARGARITA  PUCCINI SU HERRAMIENTAS Y ELECTRICC000000000018200000000000000000000100010010000000000000000000000F0010000006640300420141216000101 00000000000000000000000000000000000000000000000000000000000000000000000000000000000000000000000000000000000000000N 00000000000NCONT   00    00000000000          00000000000000000000000000000000000000000000 000000000000000A000000000000000000000000000000000000000000000 000000000000000000000000000000000000000     00000000                                                                                                                        000000000000000000
F0010000006640300005000002257933700013552100000000000000000201412160002001ROSA MARGARITA  PUCCINI SU HERRAMIENTAS Y ELECTRICD000000000018200000000000000000000100010010000000000000000000000F0010000006640300520141216000101 00000000000000000000000000000000000000000000000000000000000000000000000000000000000000000000000000000000000000000N 00000000000NCONT   00    00000000000          00000000000000000000000000000000000000000000 000000000000000A000000000000000000000000000000000000000000000 000000000000000000000000000000000000000     00000000                                                                                                                        000000000000000000
F0010000006640400001000090009800500013050500000000000000000201412160002001GLORIANT CHEMICAL DE COLOMBIA LTDA                D000000011485000000000000000000000100010010000000000000000000000F0010000006640400120141216000101 00000000000000000000000000000000000000000000000000000000000000000000000000000000000000000000000000000000000000000N 00000000000NCONT   00    00000000000          00000000000000000000000000000000000000000000 000000000000000A000000000000000000000000000000000000000000000 000000000000000000000000000000000000000     00000000                                                                                                                        000000000000000000
F0010000006640400002000090009800500041450500000000000000000201412160002001GLORIANT CHEMICAL DE COLOMBIA LTDA                C000000008440000000000000000000000100010010000000000000000000000F0010000006640400220141216000101 00000000000000000000000000000000000000000000000000000000000000000000000000000000000000000000000000000000000000000N 00000000000NCONT   00    00000000000          00000000000000000000000000000000000000000000 000000000000000A000000000000000000000000000000000000000000000 000000000000000000000000000000000000000     00000000                                                                                                                        000000000000000000
F0010000006640400003000090009800500042505000000000000000000201412160002001GLORIANT CHEMICAL DE COLOMBIA LTDA                C000000003045000000000000000000000100010010000000000000000000000F0010000006640400320141216000101 00000000000000000000000000000000000000000000000000000000000000000000000000000000000000000000000000000000000000000N 00000000000NCONT   00    00000000000          00000000000000000000000000000000000000000000 000000000000000A000000000000000000000000000000000000000000000 000000000000000000000000000000000000000     00000000                                                                                                                        000000000000000000
F0010000006640400004000090009800500023658300000000000000000201412160002001GLORIANT CHEMICAL DE COLOMBIA LTDA                C000000000067500000000000000000000100010010000000000000000000000F0010000006640400420141216000101 00000000000000000000000000000000000000000000000000000000000000000000000000000000000000000000000000000000000000000N 00000000000NCONT   00    00000000000          00000000000000000000000000000000000000000000 000000000000000A000000000000000000000000000000000000000000000 000000000000000000000000000000000000000     00000000                                                                                                                        000000000000000000
F0010000006640400005000090009800500013552100000000000000000201412160002001GLORIANT CHEMICAL DE COLOMBIA LTDA                D000000000067500000000000000000000100010010000000000000000000000F0010000006640400520141216000101 00000000000000000000000000000000000000000000000000000000000000000000000000000000000000000000000000000000000000000N 00000000000NCONT   00    00000000000          00000000000000000000000000000000000000000000 000000000000000A000000000000000000000000000000000000000000000 000000000000000000000000000000000000000     00000000                                                                                                                        000000000000000000
F0010000006640500001000080016665600013050500000000000000000201412160002001SUMICAL DE ANTIOQUIA S.A.S                        D000000026081500000000000000000000100010010000000000000000000000F0010000006640500120141216000101 00000000000000000000000000000000000000000000000000000000000000000000000000000000000000000000000000000000000000000N 00000000000NCONT   00    00000000000          00000000000000000000000000000000000000000000 000000000000000A000000000000000000000000000000000000000000000 000000000000000000000000000000000000000     00000000                                                                                                                        000000000000000000
F0010000006640500002000080016665600041450500000000000000000201412160002001SUMICAL DE ANTIOQUIA S.A.S                        C000000020710000000000000000000000100010010000000000000000000000F0010000006640500220141216000101 00000000000000000000000000000000000000000000000000000000000000000000000000000000000000000000000000000000000000000N 00000000000NCONT   00    00000000000          00000000000000000000000000000000000000000000 000000000000000A000000000000000000000000000000000000000000000 000000000000000000000000000000000000000     00000000                                                                                                                        000000000000000000
