F0010000010452300001000101420257300011050500000000000000000201710050002001BREYNER CALLE -CTRO CIAL CARIBE PLAZA             D000000031000000000000000000000000100010010000000000000000000000F0010000010452300120171005000101 00000000000000000000000000000000000000000000000000000000000000000000000000000000000000000000000000000000000000000N 00000000000NCONT   00    00000000000          00000000000000000000000000000000000000000000 000000000000000A000000000000000000000000000000000000000000000 000000000000000000000000000000000000000     00000000                                                                                                                        000000000000000000
F0010000010452300002000101420257300041450500000000000000000201710050002001BREYNER CALLE -CTRO CIAL CARIBE PLAZA             C000000030000000000000000000000000100010010000000000000000000000F0010000010452300220171005000101 00000000000000000000000000000000000000000000000000000000000000000000000000000000000000000000000000000000000000000N 00000000000NCONT   00    00000000000          00000000000000000000000000000000000000000000 000000000000000A000000000000000000000000000000000000000000000 000000000000000000000000000000000000000     00000000                                                                                                                        000000000000000000
F0010000010452300003000101420257300042505000000000000000000201710050002001BREYNER CALLE -CTRO CIAL CARIBE PLAZA             C000000001000000000000000000000000100010010000000000000000000000F0010000010452300320171005000101 00000000000000000000000000000000000000000000000000000000000000000000000000000000000000000000000000000000000000000N 00000000000NCONT   00    00000000000          00000000000000000000000000000000000000000000 000000000000000A000000000000000000000000000000000000000000000 000000000000000000000000000000000000000     00000000                                                                                                                        000000000000000000
F0010000010452300004000101420257300023658300000000000000000201710050002001BREYNER CALLE -CTRO CIAL CARIBE PLAZA             C000000000000000000000000000000000100010010000000000000000000000F0010000010452300420171005000101 00000000000000000000000000000000000000000000000000000000000000000000000000000000000000000000000000000000000000000N 00000000000NCONT   00    00000000000          00000000000000000000000000000000000000000000 000000000000000A000000000000000000000000000000000000000000000 000000000000000000000000000000000000000     00000000                                                                                                                        000000000000000000
F0010000010452300005000101420257300013552100000000000000000201710050002001BREYNER CALLE -CTRO CIAL CARIBE PLAZA             D000000000000000000000000000000000100010010000000000000000000000F0010000010452300520171005000101 00000000000000000000000000000000000000000000000000000000000000000000000000000000000000000000000000000000000000000N 00000000000NCONT   00    00000000000          00000000000000000000000000000000000000000000 000000000000000A000000000000000000000000000000000000000000000 000000000000000000000000000000000000000     00000000                                                                                                                        000000000000000000
F0010000010452400001000007215902600011050500000000000000000201710050002001KRISS LORENA BLANCO  (BANTEX)                     D000000001200000000000000000000000100010010000000000000000000000F0010000010452400120171005000101 00000000000000000000000000000000000000000000000000000000000000000000000000000000000000000000000000000000000000000N 00000000000NCONT   00    00000000000          00000000000000000000000000000000000000000000 000000000000000A000000000000000000000000000000000000000000000 000000000000000000000000000000000000000     00000000                                                                                                                        000000000000000000
F0010000010452400002000007215902600041450500000000000000000201710050002001KRISS LORENA BLANCO  (BANTEX)                     C000000001100000000000000000000000100010010000000000000000000000F0010000010452400220171005000101 00000000000000000000000000000000000000000000000000000000000000000000000000000000000000000000000000000000000000000N 00000000000NCONT   00    00000000000          00000000000000000000000000000000000000000000 000000000000000A000000000000000000000000000000000000000000000 000000000000000000000000000000000000000     00000000                                                                                                                        000000000000000000
F0010000010452400003000007215902600042505000000000000000000201710050002001KRISS LORENA BLANCO  (BANTEX)                     C000000000100000000000000000000000100010010000000000000000000000F0010000010452400320171005000101 00000000000000000000000000000000000000000000000000000000000000000000000000000000000000000000000000000000000000000N 00000000000NCONT   00    00000000000          00000000000000000000000000000000000000000000 000000000000000A000000000000000000000000000000000000000000000 000000000000000000000000000000000000000     00000000                                                                                                                        000000000000000000
F0010000010452400004000007215902600023658300000000000000000201710050002001KRISS LORENA BLANCO  (BANTEX)                     C000000000000000000000000000000000100010010000000000000000000000F0010000010452400420171005000101 00000000000000000000000000000000000000000000000000000000000000000000000000000000000000000000000000000000000000000N 00000000000NCONT   00    00000000000          00000000000000000000000000000000000000000000 000000000000000A000000000000000000000000000000000000000000000 000000000000000000000000000000000000000     00000000                                                                                                                        000000000000000000
F0010000010452400005000007215902600013552100000000000000000201710050002001KRISS LORENA BLANCO  (BANTEX)                     D000000000000000000000000000000000100010010000000000000000000000F0010000010452400520171005000101 00000000000000000000000000000000000000000000000000000000000000000000000000000000000000000000000000000000000000000N 00000000000NCONT   00    00000000000          00000000000000000000000000000000000000000000 000000000000000A000000000000000000000000000000000000000000000 000000000000000000000000000000000000000     00000000                                                                                                                        000000000000000000
F0010000010452500001000003207718300011050500000000000000000201710050002001MARIA GILMA RAMIREZ GARCIA                        D000000005000000000000000000000000100010010000000000000000000000F0010000010452500120171005000101 00000000000000000000000000000000000000000000000000000000000000000000000000000000000000000000000000000000000000000N 00000000000NCONT   00    00000000000          00000000000000000000000000000000000000000000 000000000000000A000000000000000000000000000000000000000000000 000000000000000000000000000000000000000     00000000                                                                                                                        000000000000000000
F0010000010452500002000003207718300041450500000000000000000201710050002001MARIA GILMA RAMIREZ GARCIA                        C000000004400000000000000000000000100010010000000000000000000000F0010000010452500220171005000101 00000000000000000000000000000000000000000000000000000000000000000000000000000000000000000000000000000000000000000N 00000000000NCONT   00    00000000000          00000000000000000000000000000000000000000000 000000000000000A000000000000000000000000000000000000000000000 000000000000000000000000000000000000000     00000000                                                                                                                        000000000000000000
F0010000010452500003000003207718300042505000000000000000000201710050002001MARIA GILMA RAMIREZ GARCIA                        C000000000600000000000000000000000100010010000000000000000000000F0010000010452500320171005000101 00000000000000000000000000000000000000000000000000000000000000000000000000000000000000000000000000000000000000000N 00000000000NCONT   00    00000000000          00000000000000000000000000000000000000000000 000000000000000A000000000000000000000000000000000000000000000 000000000000000000000000000000000000000     00000000                                                                                                                        000000000000000000
F0010000010452500004000003207718300023658300000000000000000201710050002001MARIA GILMA RAMIREZ GARCIA                        C000000000000000000000000000000000100010010000000000000000000000F0010000010452500420171005000101 00000000000000000000000000000000000000000000000000000000000000000000000000000000000000000000000000000000000000000N 00000000000NCONT   00    00000000000          00000000000000000000000000000000000000000000 000000000000000A000000000000000000000000000000000000000000000 000000000000000000000000000000000000000     00000000                                                                                                                        000000000000000000
F0010000010452500005000003207718300013552100000000000000000201710050002001MARIA GILMA RAMIREZ GARCIA                        D000000000000000000000000000000000100010010000000000000000000000F0010000010452500520171005000101 00000000000000000000000000000000000000000000000000000000000000000000000000000000000000000000000000000000000000000N 00000000000NCONT   00    00000000000          00000000000000000000000000000000000000000000 000000000000000A000000000000000000000000000000000000000000000 000000000000000000000000000000000000000     00000000                                                                                                                        000000000000000000
F0010000010452600001000000741472600011050500000000000000000201710050002001ISMAEL ALVAREZ                                    D000000004000000000000000000000000100010010000000000000000000000F0010000010452600120171005000101 00000000000000000000000000000000000000000000000000000000000000000000000000000000000000000000000000000000000000000N 00000000000NCONT   00    00000000000          00000000000000000000000000000000000000000000 000000000000000A000000000000000000000000000000000000000000000 000000000000000000000000000000000000000     00000000                                                                                                                        000000000000000000
F0010000010452600002000000741472600041450500000000000000000201710050002001ISMAEL ALVAREZ                                    C000000003700000000000000000000000100010010000000000000000000000F0010000010452600220171005000101 00000000000000000000000000000000000000000000000000000000000000000000000000000000000000000000000000000000000000000N 00000000000NCONT   00    00000000000          00000000000000000000000000000000000000000000 000000000000000A000000000000000000000000000000000000000000000 000000000000000000000000000000000000000     00000000                                                                                                                        000000000000000000
F0010000010452600003000000741472600042505000000000000000000201710050002001ISMAEL ALVAREZ                                    C000000000300000000000000000000000100010010000000000000000000000F0010000010452600320171005000101 00000000000000000000000000000000000000000000000000000000000000000000000000000000000000000000000000000000000000000N 00000000000NCONT   00    00000000000          00000000000000000000000000000000000000000000 000000000000000A000000000000000000000000000000000000000000000 000000000000000000000000000000000000000     00000000                                                                                                                        000000000000000000
F0010000010452600004000000741472600023658300000000000000000201710050002001ISMAEL ALVAREZ                                    C000000000000000000000000000000000100010010000000000000000000000F0010000010452600420171005000101 00000000000000000000000000000000000000000000000000000000000000000000000000000000000000000000000000000000000000000N 00000000000NCONT   00    00000000000          00000000000000000000000000000000000000000000 000000000000000A000000000000000000000000000000000000000000000 000000000000000000000000000000000000000     00000000                                                                                                                        000000000000000000
F0010000010452600005000000741472600013552100000000000000000201710050002001ISMAEL ALVAREZ                                    D000000000000000000000000000000000100010010000000000000000000000F0010000010452600520171005000101 00000000000000000000000000000000000000000000000000000000000000000000000000000000000000000000000000000000000000000N 00000000000NCONT   00    00000000000          00000000000000000000000000000000000000000000 000000000000000A000000000000000000000000000000000000000000000 000000000000000000000000000000000000000     00000000                                                                                                                        000000000000000000
F0010000010452700001000090024483300011050500000000000000000201710050002001COSMETICOS A-GUZ SAS                              D000000002600000000000000000000000100010010000000000000000000000F0010000010452700120171005000101 00000000000000000000000000000000000000000000000000000000000000000000000000000000000000000000000000000000000000000N 00000000000NCONT   00    00000000000          00000000000000000000000000000000000000000000 000000000000000A000000000000000000000000000000000000000000000 000000000000000000000000000000000000000     00000000                                                                                                                        000000000000000000
F0010000010452700002000090024483300041450500000000000000000201710050002001COSMETICOS A-GUZ SAS                              C000000002200000000000000000000000100010010000000000000000000000F0010000010452700220171005000101 00000000000000000000000000000000000000000000000000000000000000000000000000000000000000000000000000000000000000000N 00000000000NCONT   00    00000000000          00000000000000000000000000000000000000000000 000000000000000A000000000000000000000000000000000000000000000 000000000000000000000000000000000000000     00000000                                                                                                                        000000000000000000
F0010000010452700003000090024483300042505000000000000000000201710050002001COSMETICOS A-GUZ SAS                              C000000000400000000000000000000000100010010000000000000000000000F0010000010452700320171005000101 00000000000000000000000000000000000000000000000000000000000000000000000000000000000000000000000000000000000000000N 00000000000NCONT   00    00000000000          00000000000000000000000000000000000000000000 000000000000000A000000000000000000000000000000000000000000000 000000000000000000000000000000000000000     00000000                                                                                                                        000000000000000000
F0010000010452700004000090024483300023658300000000000000000201710050002001COSMETICOS A-GUZ SAS                              C000000000000000000000000000000000100010010000000000000000000000F0010000010452700420171005000101 00000000000000000000000000000000000000000000000000000000000000000000000000000000000000000000000000000000000000000N 00000000000NCONT   00    00000000000          00000000000000000000000000000000000000000000 000000000000000A000000000000000000000000000000000000000000000 000000000000000000000000000000000000000     00000000                                                                                                                        000000000000000000
F0010000010452700005000090024483300013552100000000000000000201710050002001COSMETICOS A-GUZ SAS                              D000000000000000000000000000000000100010010000000000000000000000F0010000010452700520171005000101 00000000000000000000000000000000000000000000000000000000000000000000000000000000000000000000000000000000000000000N 00000000000NCONT   00    00000000000          00000000000000000000000000000000000000000000 000000000000000A000000000000000000000000000000000000000000000 000000000000000000000000000000000000000     00000000                                                                                                                        000000000000000000
F0010000010452800001000090071760000011050500000000000000000201710050002001REFRIGERAR INGENIEROS SAS                         D000000001700000000000000000000000100010010000000000000000000000F0010000010452800120171005000101 00000000000000000000000000000000000000000000000000000000000000000000000000000000000000000000000000000000000000000N 00000000000NCONT   00    00000000000          00000000000000000000000000000000000000000000 000000000000000A000000000000000000000000000000000000000000000 000000000000000000000000000000000000000     00000000                                                                                                                        000000000000000000
F0010000010452800002000090071760000041450500000000000000000201710050002001REFRIGERAR INGENIEROS SAS                         C000000001450000000000000000000000100010010000000000000000000000F0010000010452800220171005000101 00000000000000000000000000000000000000000000000000000000000000000000000000000000000000000000000000000000000000000N 00000000000NCONT   00    00000000000          00000000000000000000000000000000000000000000 000000000000000A000000000000000000000000000000000000000000000 000000000000000000000000000000000000000     00000000                                                                                                                        000000000000000000
F0010000010452800003000090071760000042505000000000000000000201710050002001REFRIGERAR INGENIEROS SAS                         C000000000250000000000000000000000100010010000000000000000000000F0010000010452800320171005000101 00000000000000000000000000000000000000000000000000000000000000000000000000000000000000000000000000000000000000000N 00000000000NCONT   00    00000000000          00000000000000000000000000000000000000000000 000000000000000A000000000000000000000000000000000000000000000 000000000000000000000000000000000000000     00000000                                                                                                                        000000000000000000
F0010000010452800004000090071760000023658300000000000000000201710050002001REFRIGERAR INGENIEROS SAS                         C000000000000000000000000000000000100010010000000000000000000000F0010000010452800420171005000101 00000000000000000000000000000000000000000000000000000000000000000000000000000000000000000000000000000000000000000N 00000000000NCONT   00    00000000000          00000000000000000000000000000000000000000000 000000000000000A000000000000000000000000000000000000000000000 000000000000000000000000000000000000000     00000000                                                                                                                        000000000000000000
F0010000010452800005000090071760000013552100000000000000000201710050002001REFRIGERAR INGENIEROS SAS                         D000000000000000000000000000000000100010010000000000000000000000F0010000010452800520171005000101 00000000000000000000000000000000000000000000000000000000000000000000000000000000000000000000000000000000000000000N 00000000000NCONT   00    00000000000          00000000000000000000000000000000000000000000 000000000000000A000000000000000000000000000000000000000000000 000000000000000000000000000000000000000     00000000                                                                                                                        000000000000000000
F0010000010452900001000007807730000011050500000000000000000201710050002001ONALBIS MARTINEZ                                  D000000004500000000000000000000000100010010000000000000000000000F0010000010452900120171005000101 00000000000000000000000000000000000000000000000000000000000000000000000000000000000000000000000000000000000000000N 00000000000NCONT   00    00000000000          00000000000000000000000000000000000000000000 000000000000000A000000000000000000000000000000000000000000000 000000000000000000000000000000000000000     00000000                                                                                                                        000000000000000000
F0010000010452900002000007807730000041450500000000000000000201710050002001ONALBIS MARTINEZ                                  C000000003000000000000000000000000100010010000000000000000000000F0010000010452900220171005000101 00000000000000000000000000000000000000000000000000000000000000000000000000000000000000000000000000000000000000000N 00000000000NCONT   00    00000000000          00000000000000000000000000000000000000000000 000000000000000A000000000000000000000000000000000000000000000 000000000000000000000000000000000000000     00000000                                                                                                                        000000000000000000
F0010000010452900003000007807730000042505000000000000000000201710050002001ONALBIS MARTINEZ                                  C000000001500000000000000000000000100010010000000000000000000000F0010000010452900320171005000101 00000000000000000000000000000000000000000000000000000000000000000000000000000000000000000000000000000000000000000N 00000000000NCONT   00    00000000000          00000000000000000000000000000000000000000000 000000000000000A000000000000000000000000000000000000000000000 000000000000000000000000000000000000000     00000000                                                                                                                        000000000000000000
F0010000010452900004000007807730000023658300000000000000000201710050002001ONALBIS MARTINEZ                                  C000000000000000000000000000000000100010010000000000000000000000F0010000010452900420171005000101 00000000000000000000000000000000000000000000000000000000000000000000000000000000000000000000000000000000000000000N 00000000000NCONT   00    00000000000          00000000000000000000000000000000000000000000 000000000000000A000000000000000000000000000000000000000000000 000000000000000000000000000000000000000     00000000                                                                                                                        000000000000000000
F0010000010452900005000007807730000013552100000000000000000201710050002001ONALBIS MARTINEZ                                  D000000000000000000000000000000000100010010000000000000000000000F0010000010452900520171005000101 00000000000000000000000000000000000000000000000000000000000000000000000000000000000000000000000000000000000000000N 00000000000NCONT   00    00000000000          00000000000000000000000000000000000000000000 000000000000000A000000000000000000000000000000000000000000000 000000000000000000000000000000000000000     00000000                                                                                                                        000000000000000000
F0010000010453000001000000746524800011050500000000000000000201710050002001GUILLERMO BURGOS                                  D000000003500000000000000000000000100010010000000000000000000000F0010000010453000120171005000101 00000000000000000000000000000000000000000000000000000000000000000000000000000000000000000000000000000000000000000N 00000000000NCONT   00    00000000000          00000000000000000000000000000000000000000000 000000000000000A000000000000000000000000000000000000000000000 000000000000000000000000000000000000000     00000000                                                                                                                        000000000000000000
F0010000010453000002000000746524800041450500000000000000000201710050002001GUILLERMO BURGOS                                  C000000003400000000000000000000000100010010000000000000000000000F0010000010453000220171005000101 00000000000000000000000000000000000000000000000000000000000000000000000000000000000000000000000000000000000000000N 00000000000NCONT   00    00000000000          00000000000000000000000000000000000000000000 000000000000000A000000000000000000000000000000000000000000000 000000000000000000000000000000000000000     00000000                                                                                                                        000000000000000000
F0010000010453000003000000746524800042505000000000000000000201710050002001GUILLERMO BURGOS                                  C000000000100000000000000000000000100010010000000000000000000000F0010000010453000320171005000101 00000000000000000000000000000000000000000000000000000000000000000000000000000000000000000000000000000000000000000N 00000000000NCONT   00    00000000000          00000000000000000000000000000000000000000000 000000000000000A000000000000000000000000000000000000000000000 000000000000000000000000000000000000000     00000000                                                                                                                        000000000000000000
F0010000010453000004000000746524800023658300000000000000000201710050002001GUILLERMO BURGOS                                  C000000000000000000000000000000000100010010000000000000000000000F0010000010453000420171005000101 00000000000000000000000000000000000000000000000000000000000000000000000000000000000000000000000000000000000000000N 00000000000NCONT   00    00000000000          00000000000000000000000000000000000000000000 000000000000000A000000000000000000000000000000000000000000000 000000000000000000000000000000000000000     00000000                                                                                                                        000000000000000000
F0010000010453000005000000746524800013552100000000000000000201710050002001GUILLERMO BURGOS                                  D000000000000000000000000000000000100010010000000000000000000000F0010000010453000520171005000101 00000000000000000000000000000000000000000000000000000000000000000000000000000000000000000000000000000000000000000N 00000000000NCONT   00    00000000000          00000000000000000000000000000000000000000000 000000000000000A000000000000000000000000000000000000000000000 000000000000000000000000000000000000000     00000000                                                                                                                        000000000000000000
F0010000010453100001000000856527900011050500000000000000000201710050002001CESAR AUGUSTO MIER BUELVAS                        D000000001200000000000000000000000100010010000000000000000000000F0010000010453100120171005000101 00000000000000000000000000000000000000000000000000000000000000000000000000000000000000000000000000000000000000000N 00000000000NCONT   00    00000000000          00000000000000000000000000000000000000000000 000000000000000A000000000000000000000000000000000000000000000 000000000000000000000000000000000000000     00000000                                                                                                                        000000000000000000
F0010000010453100002000000856527900041450500000000000000000201710050002001CESAR AUGUSTO MIER BUELVAS                        C000000001100000000000000000000000100010010000000000000000000000F0010000010453100220171005000101 00000000000000000000000000000000000000000000000000000000000000000000000000000000000000000000000000000000000000000N 00000000000NCONT   00    00000000000          00000000000000000000000000000000000000000000 000000000000000A000000000000000000000000000000000000000000000 000000000000000000000000000000000000000     00000000                                                                                                                        000000000000000000
F0010000010453100003000000856527900042505000000000000000000201710050002001CESAR AUGUSTO MIER BUELVAS                        C000000000100000000000000000000000100010010000000000000000000000F0010000010453100320171005000101 00000000000000000000000000000000000000000000000000000000000000000000000000000000000000000000000000000000000000000N 00000000000NCONT   00    00000000000          00000000000000000000000000000000000000000000 000000000000000A000000000000000000000000000000000000000000000 000000000000000000000000000000000000000     00000000                                                                                                                        000000000000000000
F0010000010453100004000000856527900023658300000000000000000201710050002001CESAR AUGUSTO MIER BUELVAS                        C000000000000000000000000000000000100010010000000000000000000000F0010000010453100420171005000101 00000000000000000000000000000000000000000000000000000000000000000000000000000000000000000000000000000000000000000N 00000000000NCONT   00    00000000000          00000000000000000000000000000000000000000000 000000000000000A000000000000000000000000000000000000000000000 000000000000000000000000000000000000000     00000000                                                                                                                        000000000000000000
F0010000010453100005000000856527900013552100000000000000000201710050002001CESAR AUGUSTO MIER BUELVAS                        D000000000000000000000000000000000100010010000000000000000000000F0010000010453100520171005000101 00000000000000000000000000000000000000000000000000000000000000000000000000000000000000000000000000000000000000000N 00000000000NCONT   00    00000000000          00000000000000000000000000000000000000000000 000000000000000A000000000000000000000000000000000000000000000 000000000000000000000000000000000000000     00000000                                                                                                                        000000000000000000
F0010000010453200001000000856527900011050500000000000000000201710050002001CESAR AUGUSTO MIER BUELVAS                        D000000001200000000000000000000000100010010000000000000000000000F0010000010453200120171005000101 00000000000000000000000000000000000000000000000000000000000000000000000000000000000000000000000000000000000000000N 00000000000NCONT   00    00000000000          00000000000000000000000000000000000000000000 000000000000000A000000000000000000000000000000000000000000000 000000000000000000000000000000000000000     00000000                                                                                                                        000000000000000000
F0010000010453200002000000856527900041450500000000000000000201710050002001CESAR AUGUSTO MIER BUELVAS                        C000000001100000000000000000000000100010010000000000000000000000F0010000010453200220171005000101 00000000000000000000000000000000000000000000000000000000000000000000000000000000000000000000000000000000000000000N 00000000000NCONT   00    00000000000          00000000000000000000000000000000000000000000 000000000000000A000000000000000000000000000000000000000000000 000000000000000000000000000000000000000     00000000                                                                                                                        000000000000000000
F0010000010453200003000000856527900042505000000000000000000201710050002001CESAR AUGUSTO MIER BUELVAS                        C000000000100000000000000000000000100010010000000000000000000000F0010000010453200320171005000101 00000000000000000000000000000000000000000000000000000000000000000000000000000000000000000000000000000000000000000N 00000000000NCONT   00    00000000000          00000000000000000000000000000000000000000000 000000000000000A000000000000000000000000000000000000000000000 000000000000000000000000000000000000000     00000000                                                                                                                        000000000000000000
F0010000010453200004000000856527900023658300000000000000000201710050002001CESAR AUGUSTO MIER BUELVAS                        C000000000000000000000000000000000100010010000000000000000000000F0010000010453200420171005000101 00000000000000000000000000000000000000000000000000000000000000000000000000000000000000000000000000000000000000000N 00000000000NCONT   00    00000000000          00000000000000000000000000000000000000000000 000000000000000A000000000000000000000000000000000000000000000 000000000000000000000000000000000000000     00000000                                                                                                                        000000000000000000
F0010000010453200005000000856527900013552100000000000000000201710050002001CESAR AUGUSTO MIER BUELVAS                        D000000000000000000000000000000000100010010000000000000000000000F0010000010453200520171005000101 00000000000000000000000000000000000000000000000000000000000000000000000000000000000000000000000000000000000000000N 00000000000NCONT   00    00000000000          00000000000000000000000000000000000000000000 000000000000000A000000000000000000000000000000000000000000000 000000000000000000000000000000000000000     00000000                                                                                                                        000000000000000000
F0010000010453300001000083008772100011050500000000000000000201710050002001ILUMEC SAS                                        D000000001090000000000000000000000100010010000000000000000000000F0010000010453300120171005000101 00000000000000000000000000000000000000000000000000000000000000000000000000000000000000000000000000000000000000000N 00000000000NCONT   00    00000000000          00000000000000000000000000000000000000000000 000000000000000A000000000000000000000000000000000000000000000 000000000000000000000000000000000000000     00000000                                                                                                                        000000000000000000
F0010000010453300002000083008772100041450500000000000000000201710050002001ILUMEC SAS                                        C000000000950000000000000000000000100010010000000000000000000000F0010000010453300220171005000101 00000000000000000000000000000000000000000000000000000000000000000000000000000000000000000000000000000000000000000N 00000000000NCONT   00    00000000000          00000000000000000000000000000000000000000000 000000000000000A000000000000000000000000000000000000000000000 000000000000000000000000000000000000000     00000000                                                                                                                        000000000000000000
F0010000010453300003000083008772100042505000000000000000000201710050002001ILUMEC SAS                                        C000000000140000000000000000000000100010010000000000000000000000F0010000010453300320171005000101 00000000000000000000000000000000000000000000000000000000000000000000000000000000000000000000000000000000000000000N 00000000000NCONT   00    00000000000          00000000000000000000000000000000000000000000 000000000000000A000000000000000000000000000000000000000000000 000000000000000000000000000000000000000     00000000                                                                                                                        000000000000000000
F0010000010453300004000083008772100023658300000000000000000201710050002001ILUMEC SAS                                        C000000000000000000000000000000000100010010000000000000000000000F0010000010453300420171005000101 00000000000000000000000000000000000000000000000000000000000000000000000000000000000000000000000000000000000000000N 00000000000NCONT   00    00000000000          00000000000000000000000000000000000000000000 000000000000000A000000000000000000000000000000000000000000000 000000000000000000000000000000000000000     00000000                                                                                                                        000000000000000000
F0010000010453300005000083008772100013552100000000000000000201710050002001ILUMEC SAS                                        D000000000000000000000000000000000100010010000000000000000000000F0010000010453300520171005000101 00000000000000000000000000000000000000000000000000000000000000000000000000000000000000000000000000000000000000000N 00000000000NCONT   00    00000000000          00000000000000000000000000000000000000000000 000000000000000A000000000000000000000000000000000000000000000 000000000000000000000000000000000000000     00000000                                                                                                                        000000000000000000
F0010000010453400001000002245670100011050500000000000000000201710050002001YOLANDA  TOBON                                    D000000008500000000000000000000000100010010000000000000000000000F0010000010453400120171005000101 00000000000000000000000000000000000000000000000000000000000000000000000000000000000000000000000000000000000000000N 00000000000NCONT   00    00000000000          00000000000000000000000000000000000000000000 000000000000000A000000000000000000000000000000000000000000000 000000000000000000000000000000000000000     00000000                                                                                                                        000000000000000000
F0010000010453400002000002245670100041450500000000000000000201710050002001YOLANDA  TOBON                                    C000000007500000000000000000000000100010010000000000000000000000F0010000010453400220171005000101 00000000000000000000000000000000000000000000000000000000000000000000000000000000000000000000000000000000000000000N 00000000000NCONT   00    00000000000          00000000000000000000000000000000000000000000 000000000000000A000000000000000000000000000000000000000000000 000000000000000000000000000000000000000     00000000                                                                                                                        000000000000000000
F0010000010453400003000002245670100042505000000000000000000201710050002001YOLANDA  TOBON                                    C000000001000000000000000000000000100010010000000000000000000000F0010000010453400320171005000101 00000000000000000000000000000000000000000000000000000000000000000000000000000000000000000000000000000000000000000N 00000000000NCONT   00    00000000000          00000000000000000000000000000000000000000000 000000000000000A000000000000000000000000000000000000000000000 000000000000000000000000000000000000000     00000000                                                                                                                        000000000000000000
F0010000010453400004000002245670100023658300000000000000000201710050002001YOLANDA  TOBON                                    C000000000000000000000000000000000100010010000000000000000000000F0010000010453400420171005000101 00000000000000000000000000000000000000000000000000000000000000000000000000000000000000000000000000000000000000000N 00000000000NCONT   00    00000000000          00000000000000000000000000000000000000000000 000000000000000A000000000000000000000000000000000000000000000 000000000000000000000000000000000000000     00000000                                                                                                                        000000000000000000
F0010000010453400005000002245670100013552100000000000000000201710050002001YOLANDA  TOBON                                    D000000000000000000000000000000000100010010000000000000000000000F0010000010453400520171005000101 00000000000000000000000000000000000000000000000000000000000000000000000000000000000000000000000000000000000000000N 00000000000NCONT   00    00000000000          00000000000000000000000000000000000000000000 000000000000000A000000000000000000000000000000000000000000000 000000000000000000000000000000000000000     00000000                                                                                                                        000000000000000000
F0010000010453500001000002245670100011050500000000000000000201710050002001YOLANDA  TOBON                                    D000000003121200000000000000000000100010010000000000000000000000F0010000010453500120171005000101 00000000000000000000000000000000000000000000000000000000000000000000000000000000000000000000000000000000000000000N 00000000000NCONT   00    00000000000          00000000000000000000000000000000000000000000 000000000000000A000000000000000000000000000000000000000000000 000000000000000000000000000000000000000     00000000                                                                                                                        000000000000000000
F0010000010453500002000002245670100041450500000000000000000201710050002001YOLANDA  TOBON                                    C000000002640000000000000000000000100010010000000000000000000000F0010000010453500220171005000101 00000000000000000000000000000000000000000000000000000000000000000000000000000000000000000000000000000000000000000N 00000000000NCONT   00    00000000000          00000000000000000000000000000000000000000000 000000000000000A000000000000000000000000000000000000000000000 000000000000000000000000000000000000000     00000000                                                                                                                        000000000000000000
F0010000010453500003000002245670100042505000000000000000000201710050002001YOLANDA  TOBON                                    C000000000481200000000000000000000100010010000000000000000000000F0010000010453500320171005000101 00000000000000000000000000000000000000000000000000000000000000000000000000000000000000000000000000000000000000000N 00000000000NCONT   00    00000000000          00000000000000000000000000000000000000000000 000000000000000A000000000000000000000000000000000000000000000 000000000000000000000000000000000000000     00000000                                                                                                                        000000000000000000
F0010000010453500004000002245670100023658300000000000000000201710050002001YOLANDA  TOBON                                    C000000000000000000000000000000000100010010000000000000000000000F0010000010453500420171005000101 00000000000000000000000000000000000000000000000000000000000000000000000000000000000000000000000000000000000000000N 00000000000NCONT   00    00000000000          00000000000000000000000000000000000000000000 000000000000000A000000000000000000000000000000000000000000000 000000000000000000000000000000000000000     00000000                                                                                                                        000000000000000000
F0010000010453500005000002245670100013552100000000000000000201710050002001YOLANDA  TOBON                                    D000000000000000000000000000000000100010010000000000000000000000F0010000010453500520171005000101 00000000000000000000000000000000000000000000000000000000000000000000000000000000000000000000000000000000000000000N 00000000000NCONT   00    00000000000          00000000000000000000000000000000000000000000 000000000000000A000000000000000000000000000000000000000000000 000000000000000000000000000000000000000     00000000                                                                                                                        000000000000000000
F0010000010453600001000000742399700011050500000000000000000201710050002001CACHARRERIA EL NUEVO CHADID                       D000000009650000000000000000000000100010010000000000000000000000F0010000010453600120171005000101 00000000000000000000000000000000000000000000000000000000000000000000000000000000000000000000000000000000000000000N 00000000000NCONT   00    00000000000          00000000000000000000000000000000000000000000 000000000000000A000000000000000000000000000000000000000000000 000000000000000000000000000000000000000     00000000                                                                                                                        000000000000000000
F0010000010453600002000000742399700041450500000000000000000201710050002001CACHARRERIA EL NUEVO CHADID                       C000000007650000000000000000000000100010010000000000000000000000F0010000010453600220171005000101 00000000000000000000000000000000000000000000000000000000000000000000000000000000000000000000000000000000000000000N 00000000000NCONT   00    00000000000          00000000000000000000000000000000000000000000 000000000000000A000000000000000000000000000000000000000000000 000000000000000000000000000000000000000     00000000                                                                                                                        000000000000000000
F0010000010453600003000000742399700042505000000000000000000201710050002001CACHARRERIA EL NUEVO CHADID                       C000000002000000000000000000000000100010010000000000000000000000F0010000010453600320171005000101 00000000000000000000000000000000000000000000000000000000000000000000000000000000000000000000000000000000000000000N 00000000000NCONT   00    00000000000          00000000000000000000000000000000000000000000 000000000000000A000000000000000000000000000000000000000000000 000000000000000000000000000000000000000     00000000                                                                                                                        000000000000000000
F0010000010453600004000000742399700023658300000000000000000201710050002001CACHARRERIA EL NUEVO CHADID                       C000000000000000000000000000000000100010010000000000000000000000F0010000010453600420171005000101 00000000000000000000000000000000000000000000000000000000000000000000000000000000000000000000000000000000000000000N 00000000000NCONT   00    00000000000          00000000000000000000000000000000000000000000 000000000000000A000000000000000000000000000000000000000000000 000000000000000000000000000000000000000     00000000                                                                                                                        000000000000000000
F0010000010453600005000000742399700013552100000000000000000201710050002001CACHARRERIA EL NUEVO CHADID                       D000000000000000000000000000000000100010010000000000000000000000F0010000010453600520171005000101 00000000000000000000000000000000000000000000000000000000000000000000000000000000000000000000000000000000000000000N 00000000000NCONT   00    00000000000          00000000000000000000000000000000000000000000 000000000000000A000000000000000000000000000000000000000000000 000000000000000000000000000000000000000     00000000                                                                                                                        000000000000000000
F0010000010453700001000080200594400011050500000000000000000201710050002001NOVEDADES JOTA JOTA                               D000000001500000000000000000000000100010010000000000000000000000F0010000010453700120171005000101 00000000000000000000000000000000000000000000000000000000000000000000000000000000000000000000000000000000000000000N 00000000000NCONT   00    00000000000          00000000000000000000000000000000000000000000 000000000000000A000000000000000000000000000000000000000000000 000000000000000000000000000000000000000     00000000                                                                                                                        000000000000000000
F0010000010453700002000080200594400041450500000000000000000201710050002001NOVEDADES JOTA JOTA                               C000000001100000000000000000000000100010010000000000000000000000F0010000010453700220171005000101 00000000000000000000000000000000000000000000000000000000000000000000000000000000000000000000000000000000000000000N 00000000000NCONT   00    00000000000          00000000000000000000000000000000000000000000 000000000000000A000000000000000000000000000000000000000000000 000000000000000000000000000000000000000     00000000                                                                                                                        000000000000000000
F0010000010453700003000080200594400042505000000000000000000201710050002001NOVEDADES JOTA JOTA                               C000000000400000000000000000000000100010010000000000000000000000F0010000010453700320171005000101 00000000000000000000000000000000000000000000000000000000000000000000000000000000000000000000000000000000000000000N 00000000000NCONT   00    00000000000          00000000000000000000000000000000000000000000 000000000000000A000000000000000000000000000000000000000000000 000000000000000000000000000000000000000     00000000                                                                                                                        000000000000000000
F0010000010453700004000080200594400023658300000000000000000201710050002001NOVEDADES JOTA JOTA                               C000000000000000000000000000000000100010010000000000000000000000F0010000010453700420171005000101 00000000000000000000000000000000000000000000000000000000000000000000000000000000000000000000000000000000000000000N 00000000000NCONT   00    00000000000          00000000000000000000000000000000000000000000 000000000000000A000000000000000000000000000000000000000000000 000000000000000000000000000000000000000     00000000                                                                                                                        000000000000000000
F0010000010453700005000080200594400013552100000000000000000201710050002001NOVEDADES JOTA JOTA                               D000000000000000000000000000000000100010010000000000000000000000F0010000010453700520171005000101 00000000000000000000000000000000000000000000000000000000000000000000000000000000000000000000000000000000000000000N 00000000000NCONT   00    00000000000          00000000000000000000000000000000000000000000 000000000000000A000000000000000000000000000000000000000000000 000000000000000000000000000000000000000     00000000                                                                                                                        000000000000000000
F0010000010453800001000007225511500011050500000000000000000201710050002001MAIGEL CHADID                                     D000000007000000000000000000000000100010010000000000000000000000F0010000010453800120171005000101 00000000000000000000000000000000000000000000000000000000000000000000000000000000000000000000000000000000000000000N 00000000000NCONT   00    00000000000          00000000000000000000000000000000000000000000 000000000000000A000000000000000000000000000000000000000000000 000000000000000000000000000000000000000     00000000                                                                                                                        000000000000000000
F0010000010453800002000007225511500041450500000000000000000201710050002001MAIGEL CHADID                                     C000000005500000000000000000000000100010010000000000000000000000F0010000010453800220171005000101 00000000000000000000000000000000000000000000000000000000000000000000000000000000000000000000000000000000000000000N 00000000000NCONT   00    00000000000          00000000000000000000000000000000000000000000 000000000000000A000000000000000000000000000000000000000000000 000000000000000000000000000000000000000     00000000                                                                                                                        000000000000000000
F0010000010453800003000007225511500042505000000000000000000201710050002001MAIGEL CHADID                                     C000000001500000000000000000000000100010010000000000000000000000F0010000010453800320171005000101 00000000000000000000000000000000000000000000000000000000000000000000000000000000000000000000000000000000000000000N 00000000000NCONT   00    00000000000          00000000000000000000000000000000000000000000 000000000000000A000000000000000000000000000000000000000000000 000000000000000000000000000000000000000     00000000                                                                                                                        000000000000000000
F0010000010453800004000007225511500023658300000000000000000201710050002001MAIGEL CHADID                                     C000000000000000000000000000000000100010010000000000000000000000F0010000010453800420171005000101 00000000000000000000000000000000000000000000000000000000000000000000000000000000000000000000000000000000000000000N 00000000000NCONT   00    00000000000          00000000000000000000000000000000000000000000 000000000000000A000000000000000000000000000000000000000000000 000000000000000000000000000000000000000     00000000                                                                                                                        000000000000000000
F0010000010453800005000007225511500013552100000000000000000201710050002001MAIGEL CHADID                                     D000000000000000000000000000000000100010010000000000000000000000F0010000010453800520171005000101 00000000000000000000000000000000000000000000000000000000000000000000000000000000000000000000000000000000000000000N 00000000000NCONT   00    00000000000          00000000000000000000000000000000000000000000 000000000000000A000000000000000000000000000000000000000000000 000000000000000000000000000000000000000     00000000                                                                                                                        000000000000000000
F0010000010453900001000007213653800011050500000000000000000201710050002001VICTOR ECHAVEZ                                    D000000003100000000000000000000000100010010000000000000000000000F0010000010453900120171005000101 00000000000000000000000000000000000000000000000000000000000000000000000000000000000000000000000000000000000000000N 00000000000NCONT   00    00000000000          00000000000000000000000000000000000000000000 000000000000000A000000000000000000000000000000000000000000000 000000000000000000000000000000000000000     00000000                                                                                                                        000000000000000000
F0010000010453900002000007213653800041450500000000000000000201710050002001VICTOR ECHAVEZ                                    C000000002200000000000000000000000100010010000000000000000000000F0010000010453900220171005000101 00000000000000000000000000000000000000000000000000000000000000000000000000000000000000000000000000000000000000000N 00000000000NCONT   00    00000000000          00000000000000000000000000000000000000000000 000000000000000A000000000000000000000000000000000000000000000 000000000000000000000000000000000000000     00000000                                                                                                                        000000000000000000
F0010000010453900003000007213653800042505000000000000000000201710050002001VICTOR ECHAVEZ                                    C000000000900000000000000000000000100010010000000000000000000000F0010000010453900320171005000101 00000000000000000000000000000000000000000000000000000000000000000000000000000000000000000000000000000000000000000N 00000000000NCONT   00    00000000000          00000000000000000000000000000000000000000000 000000000000000A000000000000000000000000000000000000000000000 000000000000000000000000000000000000000     00000000                                                                                                                        000000000000000000
F0010000010453900004000007213653800023658300000000000000000201710050002001VICTOR ECHAVEZ                                    C000000000000000000000000000000000100010010000000000000000000000F0010000010453900420171005000101 00000000000000000000000000000000000000000000000000000000000000000000000000000000000000000000000000000000000000000N 00000000000NCONT   00    00000000000          00000000000000000000000000000000000000000000 000000000000000A000000000000000000000000000000000000000000000 000000000000000000000000000000000000000     00000000                                                                                                                        000000000000000000
F0010000010453900005000007213653800013552100000000000000000201710050002001VICTOR ECHAVEZ                                    D000000000000000000000000000000000100010010000000000000000000000F0010000010453900520171005000101 00000000000000000000000000000000000000000000000000000000000000000000000000000000000000000000000000000000000000000N 00000000000NCONT   00    00000000000          00000000000000000000000000000000000000000000 000000000000000A000000000000000000000000000000000000000000000 000000000000000000000000000000000000000     00000000                                                                                                                        000000000000000000
F0010000010454000001000007217361800011050500000000000000000201710050002001EDGARDO RAFAEL ALGARIN VARGAS / DISTRIBUIDORES Y RD000000001400000000000000000000000100010010000000000000000000000F0010000010454000120171005000101 00000000000000000000000000000000000000000000000000000000000000000000000000000000000000000000000000000000000000000N 00000000000NCONT   00    00000000000          00000000000000000000000000000000000000000000 000000000000000A000000000000000000000000000000000000000000000 000000000000000000000000000000000000000     00000000                                                                                                                        000000000000000000
F0010000010454000002000007217361800041450500000000000000000201710050002001EDGARDO RAFAEL ALGARIN VARGAS / DISTRIBUIDORES Y RC000000001300000000000000000000000100010010000000000000000000000F0010000010454000220171005000101 00000000000000000000000000000000000000000000000000000000000000000000000000000000000000000000000000000000000000000N 00000000000NCONT   00    00000000000          00000000000000000000000000000000000000000000 000000000000000A000000000000000000000000000000000000000000000 000000000000000000000000000000000000000     00000000                                                                                                                        000000000000000000
F0010000010454000003000007217361800042505000000000000000000201710050002001EDGARDO RAFAEL ALGARIN VARGAS / DISTRIBUIDORES Y RC000000000100000000000000000000000100010010000000000000000000000F0010000010454000320171005000101 00000000000000000000000000000000000000000000000000000000000000000000000000000000000000000000000000000000000000000N 00000000000NCONT   00    00000000000          00000000000000000000000000000000000000000000 000000000000000A000000000000000000000000000000000000000000000 000000000000000000000000000000000000000     00000000                                                                                                                        000000000000000000
F0010000010454000004000007217361800023658300000000000000000201710050002001EDGARDO RAFAEL ALGARIN VARGAS / DISTRIBUIDORES Y RC000000000000000000000000000000000100010010000000000000000000000F0010000010454000420171005000101 00000000000000000000000000000000000000000000000000000000000000000000000000000000000000000000000000000000000000000N 00000000000NCONT   00    00000000000          00000000000000000000000000000000000000000000 000000000000000A000000000000000000000000000000000000000000000 000000000000000000000000000000000000000     00000000                                                                                                                        000000000000000000
F0010000010454000005000007217361800013552100000000000000000201710050002001EDGARDO RAFAEL ALGARIN VARGAS / DISTRIBUIDORES Y RD000000000000000000000000000000000100010010000000000000000000000F0010000010454000520171005000101 00000000000000000000000000000000000000000000000000000000000000000000000000000000000000000000000000000000000000000N 00000000000NCONT   00    00000000000          00000000000000000000000000000000000000000000 000000000000000A000000000000000000000000000000000000000000000 000000000000000000000000000000000000000     00000000                                                                                                                        000000000000000000
F0010000010454100001000090067091400011050500000000000000000201710050002001COMERCIALIZADORA ESCOBAR ORTIZ                    D000000004600000000000000000000000100010010000000000000000000000F0010000010454100120171005000101 00000000000000000000000000000000000000000000000000000000000000000000000000000000000000000000000000000000000000000N 00000000000NCONT   00    00000000000          00000000000000000000000000000000000000000000 000000000000000A000000000000000000000000000000000000000000000 000000000000000000000000000000000000000     00000000                                                                                                                        000000000000000000
F0010000010454100002000090067091400041450500000000000000000201710050002001COMERCIALIZADORA ESCOBAR ORTIZ                    C000000003300000000000000000000000100010010000000000000000000000F0010000010454100220171005000101 00000000000000000000000000000000000000000000000000000000000000000000000000000000000000000000000000000000000000000N 00000000000NCONT   00    00000000000          00000000000000000000000000000000000000000000 000000000000000A000000000000000000000000000000000000000000000 000000000000000000000000000000000000000     00000000                                                                                                                        000000000000000000
F0010000010454100003000090067091400042505000000000000000000201710050002001COMERCIALIZADORA ESCOBAR ORTIZ                    C000000001300000000000000000000000100010010000000000000000000000F0010000010454100320171005000101 00000000000000000000000000000000000000000000000000000000000000000000000000000000000000000000000000000000000000000N 00000000000NCONT   00    00000000000          00000000000000000000000000000000000000000000 000000000000000A000000000000000000000000000000000000000000000 000000000000000000000000000000000000000     00000000                                                                                                                        000000000000000000
F0010000010454100004000090067091400023658300000000000000000201710050002001COMERCIALIZADORA ESCOBAR ORTIZ                    C000000000000000000000000000000000100010010000000000000000000000F0010000010454100420171005000101 00000000000000000000000000000000000000000000000000000000000000000000000000000000000000000000000000000000000000000N 00000000000NCONT   00    00000000000          00000000000000000000000000000000000000000000 000000000000000A000000000000000000000000000000000000000000000 000000000000000000000000000000000000000     00000000                                                                                                                        000000000000000000
F0010000010454100005000090067091400013552100000000000000000201710050002001COMERCIALIZADORA ESCOBAR ORTIZ                    D000000000000000000000000000000000100010010000000000000000000000F0010000010454100520171005000101 00000000000000000000000000000000000000000000000000000000000000000000000000000000000000000000000000000000000000000N 00000000000NCONT   00    00000000000          00000000000000000000000000000000000000000000 000000000000000A000000000000000000000000000000000000000000000 000000000000000000000000000000000000000     00000000                                                                                                                        000000000000000000
F0010000010454200001000090067091400011050500000000000000000201710050002001COMERCIALIZADORA ESCOBAR ORTIZ                    D000000008000000000000000000000000100010010000000000000000000000F0010000010454200120171005000101 00000000000000000000000000000000000000000000000000000000000000000000000000000000000000000000000000000000000000000N 00000000000NCONT   00    00000000000          00000000000000000000000000000000000000000000 000000000000000A000000000000000000000000000000000000000000000 000000000000000000000000000000000000000     00000000                                                                                                                        000000000000000000
F0010000010454200002000090067091400041450500000000000000000201710050002001COMERCIALIZADORA ESCOBAR ORTIZ                    C000000005500000000000000000000000100010010000000000000000000000F0010000010454200220171005000101 00000000000000000000000000000000000000000000000000000000000000000000000000000000000000000000000000000000000000000N 00000000000NCONT   00    00000000000          00000000000000000000000000000000000000000000 000000000000000A000000000000000000000000000000000000000000000 000000000000000000000000000000000000000     00000000                                                                                                                        000000000000000000
F0010000010454200003000090067091400042505000000000000000000201710050002001COMERCIALIZADORA ESCOBAR ORTIZ                    C000000002500000000000000000000000100010010000000000000000000000F0010000010454200320171005000101 00000000000000000000000000000000000000000000000000000000000000000000000000000000000000000000000000000000000000000N 00000000000NCONT   00    00000000000          00000000000000000000000000000000000000000000 000000000000000A000000000000000000000000000000000000000000000 000000000000000000000000000000000000000     00000000                                                                                                                        000000000000000000
F0010000010454200004000090067091400023658300000000000000000201710050002001COMERCIALIZADORA ESCOBAR ORTIZ                    C000000000000000000000000000000000100010010000000000000000000000F0010000010454200420171005000101 00000000000000000000000000000000000000000000000000000000000000000000000000000000000000000000000000000000000000000N 00000000000NCONT   00    00000000000          00000000000000000000000000000000000000000000 000000000000000A000000000000000000000000000000000000000000000 000000000000000000000000000000000000000     00000000                                                                                                                        000000000000000000
F0010000010454200005000090067091400013552100000000000000000201710050002001COMERCIALIZADORA ESCOBAR ORTIZ                    D000000000000000000000000000000000100010010000000000000000000000F0010000010454200520171005000101 00000000000000000000000000000000000000000000000000000000000000000000000000000000000000000000000000000000000000000N 00000000000NCONT   00    00000000000          00000000000000000000000000000000000000000000 000000000000000A000000000000000000000000000000000000000000000 000000000000000000000000000000000000000     00000000                                                                                                                        000000000000000000
F0010000010454300001000090067091400011050500000000000000000201710050002001COMERCIALIZADORA ESCOBAR ORTIZ                    D000000004100000000000000000000000100010010000000000000000000000F0010000010454300120171005000101 00000000000000000000000000000000000000000000000000000000000000000000000000000000000000000000000000000000000000000N 00000000000NCONT   00    00000000000          00000000000000000000000000000000000000000000 000000000000000A000000000000000000000000000000000000000000000 000000000000000000000000000000000000000     00000000                                                                                                                        000000000000000000
F0010000010454300002000090067091400041450500000000000000000201710050002001COMERCIALIZADORA ESCOBAR ORTIZ                    C000000002200000000000000000000000100010010000000000000000000000F0010000010454300220171005000101 00000000000000000000000000000000000000000000000000000000000000000000000000000000000000000000000000000000000000000N 00000000000NCONT   00    00000000000          00000000000000000000000000000000000000000000 000000000000000A000000000000000000000000000000000000000000000 000000000000000000000000000000000000000     00000000                                                                                                                        000000000000000000
F0010000010454300003000090067091400042505000000000000000000201710050002001COMERCIALIZADORA ESCOBAR ORTIZ                    C000000001900000000000000000000000100010010000000000000000000000F0010000010454300320171005000101 00000000000000000000000000000000000000000000000000000000000000000000000000000000000000000000000000000000000000000N 00000000000NCONT   00    00000000000          00000000000000000000000000000000000000000000 000000000000000A000000000000000000000000000000000000000000000 000000000000000000000000000000000000000     00000000                                                                                                                        000000000000000000
F0010000010454300004000090067091400023658300000000000000000201710050002001COMERCIALIZADORA ESCOBAR ORTIZ                    C000000000000000000000000000000000100010010000000000000000000000F0010000010454300420171005000101 00000000000000000000000000000000000000000000000000000000000000000000000000000000000000000000000000000000000000000N 00000000000NCONT   00    00000000000          00000000000000000000000000000000000000000000 000000000000000A000000000000000000000000000000000000000000000 000000000000000000000000000000000000000     00000000                                                                                                                        000000000000000000
F0010000010454300005000090067091400013552100000000000000000201710050002001COMERCIALIZADORA ESCOBAR ORTIZ                    D000000000000000000000000000000000100010010000000000000000000000F0010000010454300520171005000101 00000000000000000000000000000000000000000000000000000000000000000000000000000000000000000000000000000000000000000N 00000000000NCONT   00    00000000000          00000000000000000000000000000000000000000000 000000000000000A000000000000000000000000000000000000000000000 000000000000000000000000000000000000000     00000000                                                                                                                        000000000000000000
F0010000010454400001000090067091400011050500000000000000000201710050002001COMERCIALIZADORA ESCOBAR ORTIZ                    D000000003400000000000000000000000100010010000000000000000000000F0010000010454400120171005000101 00000000000000000000000000000000000000000000000000000000000000000000000000000000000000000000000000000000000000000N 00000000000NCONT   00    00000000000          00000000000000000000000000000000000000000000 000000000000000A000000000000000000000000000000000000000000000 000000000000000000000000000000000000000     00000000                                                                                                                        000000000000000000
F0010000010454400002000090067091400041450500000000000000000201710050002001COMERCIALIZADORA ESCOBAR ORTIZ                    C000000002200000000000000000000000100010010000000000000000000000F0010000010454400220171005000101 00000000000000000000000000000000000000000000000000000000000000000000000000000000000000000000000000000000000000000N 00000000000NCONT   00    00000000000          00000000000000000000000000000000000000000000 000000000000000A000000000000000000000000000000000000000000000 000000000000000000000000000000000000000     00000000                                                                                                                        000000000000000000
F0010000010454400003000090067091400042505000000000000000000201710050002001COMERCIALIZADORA ESCOBAR ORTIZ                    C000000001200000000000000000000000100010010000000000000000000000F0010000010454400320171005000101 00000000000000000000000000000000000000000000000000000000000000000000000000000000000000000000000000000000000000000N 00000000000NCONT   00    00000000000          00000000000000000000000000000000000000000000 000000000000000A000000000000000000000000000000000000000000000 000000000000000000000000000000000000000     00000000                                                                                                                        000000000000000000
F0010000010454400004000090067091400023658300000000000000000201710050002001COMERCIALIZADORA ESCOBAR ORTIZ                    C000000000000000000000000000000000100010010000000000000000000000F0010000010454400420171005000101 00000000000000000000000000000000000000000000000000000000000000000000000000000000000000000000000000000000000000000N 00000000000NCONT   00    00000000000          00000000000000000000000000000000000000000000 000000000000000A000000000000000000000000000000000000000000000 000000000000000000000000000000000000000     00000000                                                                                                                        000000000000000000
F0010000010454400005000090067091400013552100000000000000000201710050002001COMERCIALIZADORA ESCOBAR ORTIZ                    D000000000000000000000000000000000100010010000000000000000000000F0010000010454400520171005000101 00000000000000000000000000000000000000000000000000000000000000000000000000000000000000000000000000000000000000000N 00000000000NCONT   00    00000000000          00000000000000000000000000000000000000000000 000000000000000A000000000000000000000000000000000000000000000 000000000000000000000000000000000000000     00000000                                                                                                                        000000000000000000
F0010000010454500001000090067091400011050500000000000000000201710050002001COMERCIALIZADORA ESCOBAR ORTIZ                    D000000003500000000000000000000000100010010000000000000000000000F0010000010454500120171005000101 00000000000000000000000000000000000000000000000000000000000000000000000000000000000000000000000000000000000000000N 00000000000NCONT   00    00000000000          00000000000000000000000000000000000000000000 000000000000000A000000000000000000000000000000000000000000000 000000000000000000000000000000000000000     00000000                                                                                                                        000000000000000000
F0010000010454500002000090067091400041450500000000000000000201710050002001COMERCIALIZADORA ESCOBAR ORTIZ                    C000000002200000000000000000000000100010010000000000000000000000F0010000010454500220171005000101 00000000000000000000000000000000000000000000000000000000000000000000000000000000000000000000000000000000000000000N 00000000000NCONT   00    00000000000          00000000000000000000000000000000000000000000 000000000000000A000000000000000000000000000000000000000000000 000000000000000000000000000000000000000     00000000                                                                                                                        000000000000000000
F0010000010454500003000090067091400042505000000000000000000201710050002001COMERCIALIZADORA ESCOBAR ORTIZ                    C000000001300000000000000000000000100010010000000000000000000000F0010000010454500320171005000101 00000000000000000000000000000000000000000000000000000000000000000000000000000000000000000000000000000000000000000N 00000000000NCONT   00    00000000000          00000000000000000000000000000000000000000000 000000000000000A000000000000000000000000000000000000000000000 000000000000000000000000000000000000000     00000000                                                                                                                        000000000000000000
F0010000010454500004000090067091400023658300000000000000000201710050002001COMERCIALIZADORA ESCOBAR ORTIZ                    C000000000000000000000000000000000100010010000000000000000000000F0010000010454500420171005000101 00000000000000000000000000000000000000000000000000000000000000000000000000000000000000000000000000000000000000000N 00000000000NCONT   00    00000000000          00000000000000000000000000000000000000000000 000000000000000A000000000000000000000000000000000000000000000 000000000000000000000000000000000000000     00000000                                                                                                                        000000000000000000
F0010000010454500005000090067091400013552100000000000000000201710050002001COMERCIALIZADORA ESCOBAR ORTIZ                    D000000000000000000000000000000000100010010000000000000000000000F0010000010454500520171005000101 00000000000000000000000000000000000000000000000000000000000000000000000000000000000000000000000000000000000000000N 00000000000NCONT   00    00000000000          00000000000000000000000000000000000000000000 000000000000000A000000000000000000000000000000000000000000000 000000000000000000000000000000000000000     00000000                                                                                                                        000000000000000000
F0010000010454600001000090067091400011050500000000000000000201710050002001COMERCIALIZADORA ESCOBAR ORTIZ                    D000000002800000000000000000000000100010010000000000000000000000F0010000010454600120171005000101 00000000000000000000000000000000000000000000000000000000000000000000000000000000000000000000000000000000000000000N 00000000000NCONT   00    00000000000          00000000000000000000000000000000000000000000 000000000000000A000000000000000000000000000000000000000000000 000000000000000000000000000000000000000     00000000                                                                                                                        000000000000000000
F0010000010454600002000090067091400041450500000000000000000201710050002001COMERCIALIZADORA ESCOBAR ORTIZ                    C000000002200000000000000000000000100010010000000000000000000000F0010000010454600220171005000101 00000000000000000000000000000000000000000000000000000000000000000000000000000000000000000000000000000000000000000N 00000000000NCONT   00    00000000000          00000000000000000000000000000000000000000000 000000000000000A000000000000000000000000000000000000000000000 000000000000000000000000000000000000000     00000000                                                                                                                        000000000000000000
F0010000010454600003000090067091400042505000000000000000000201710050002001COMERCIALIZADORA ESCOBAR ORTIZ                    C000000000600000000000000000000000100010010000000000000000000000F0010000010454600320171005000101 00000000000000000000000000000000000000000000000000000000000000000000000000000000000000000000000000000000000000000N 00000000000NCONT   00    00000000000          00000000000000000000000000000000000000000000 000000000000000A000000000000000000000000000000000000000000000 000000000000000000000000000000000000000     00000000                                                                                                                        000000000000000000
F0010000010454600004000090067091400023658300000000000000000201710050002001COMERCIALIZADORA ESCOBAR ORTIZ                    C000000000000000000000000000000000100010010000000000000000000000F0010000010454600420171005000101 00000000000000000000000000000000000000000000000000000000000000000000000000000000000000000000000000000000000000000N 00000000000NCONT   00    00000000000          00000000000000000000000000000000000000000000 000000000000000A000000000000000000000000000000000000000000000 000000000000000000000000000000000000000     00000000                                                                                                                        000000000000000000
F0010000010454600005000090067091400013552100000000000000000201710050002001COMERCIALIZADORA ESCOBAR ORTIZ                    D000000000000000000000000000000000100010010000000000000000000000F0010000010454600520171005000101 00000000000000000000000000000000000000000000000000000000000000000000000000000000000000000000000000000000000000000N 00000000000NCONT   00    00000000000          00000000000000000000000000000000000000000000 000000000000000A000000000000000000000000000000000000000000000 000000000000000000000000000000000000000     00000000                                                                                                                        000000000000000000
F0010000010454700001000090067091400011050500000000000000000201710050002001COMERCIALIZADORA ESCOBAR ORTIZ                    D000000001600000000000000000000000100010010000000000000000000000F0010000010454700120171005000101 00000000000000000000000000000000000000000000000000000000000000000000000000000000000000000000000000000000000000000N 00000000000NCONT   00    00000000000          00000000000000000000000000000000000000000000 000000000000000A000000000000000000000000000000000000000000000 000000000000000000000000000000000000000     00000000                                                                                                                        000000000000000000
F0010000010454700002000090067091400041450500000000000000000201710050002001COMERCIALIZADORA ESCOBAR ORTIZ                    C000000001100000000000000000000000100010010000000000000000000000F0010000010454700220171005000101 00000000000000000000000000000000000000000000000000000000000000000000000000000000000000000000000000000000000000000N 00000000000NCONT   00    00000000000          00000000000000000000000000000000000000000000 000000000000000A000000000000000000000000000000000000000000000 000000000000000000000000000000000000000     00000000                                                                                                                        000000000000000000
F0010000010454700003000090067091400042505000000000000000000201710050002001COMERCIALIZADORA ESCOBAR ORTIZ                    C000000000500000000000000000000000100010010000000000000000000000F0010000010454700320171005000101 00000000000000000000000000000000000000000000000000000000000000000000000000000000000000000000000000000000000000000N 00000000000NCONT   00    00000000000          00000000000000000000000000000000000000000000 000000000000000A000000000000000000000000000000000000000000000 000000000000000000000000000000000000000     00000000                                                                                                                        000000000000000000
F0010000010454700004000090067091400023658300000000000000000201710050002001COMERCIALIZADORA ESCOBAR ORTIZ                    C000000000000000000000000000000000100010010000000000000000000000F0010000010454700420171005000101 00000000000000000000000000000000000000000000000000000000000000000000000000000000000000000000000000000000000000000N 00000000000NCONT   00    00000000000          00000000000000000000000000000000000000000000 000000000000000A000000000000000000000000000000000000000000000 000000000000000000000000000000000000000     00000000                                                                                                                        000000000000000000
F0010000010454700005000090067091400013552100000000000000000201710050002001COMERCIALIZADORA ESCOBAR ORTIZ                    D000000000000000000000000000000000100010010000000000000000000000F0010000010454700520171005000101 00000000000000000000000000000000000000000000000000000000000000000000000000000000000000000000000000000000000000000N 00000000000NCONT   00    00000000000          00000000000000000000000000000000000000000000 000000000000000A000000000000000000000000000000000000000000000 000000000000000000000000000000000000000     00000000                                                                                                                        000000000000000000
F0010000010454800001000090067091400011050500000000000000000201710050002001COMERCIALIZADORA ESCOBAR ORTIZ                    D000000001300000000000000000000000100010010000000000000000000000F0010000010454800120171005000101 00000000000000000000000000000000000000000000000000000000000000000000000000000000000000000000000000000000000000000N 00000000000NCONT   00    00000000000          00000000000000000000000000000000000000000000 000000000000000A000000000000000000000000000000000000000000000 000000000000000000000000000000000000000     00000000                                                                                                                        000000000000000000
F0010000010454800002000090067091400041450500000000000000000201710050002001COMERCIALIZADORA ESCOBAR ORTIZ                    C000000001100000000000000000000000100010010000000000000000000000F0010000010454800220171005000101 00000000000000000000000000000000000000000000000000000000000000000000000000000000000000000000000000000000000000000N 00000000000NCONT   00    00000000000          00000000000000000000000000000000000000000000 000000000000000A000000000000000000000000000000000000000000000 000000000000000000000000000000000000000     00000000                                                                                                                        000000000000000000
F0010000010454800003000090067091400042505000000000000000000201710050002001COMERCIALIZADORA ESCOBAR ORTIZ                    C000000000200000000000000000000000100010010000000000000000000000F0010000010454800320171005000101 00000000000000000000000000000000000000000000000000000000000000000000000000000000000000000000000000000000000000000N 00000000000NCONT   00    00000000000          00000000000000000000000000000000000000000000 000000000000000A000000000000000000000000000000000000000000000 000000000000000000000000000000000000000     00000000                                                                                                                        000000000000000000
F0010000010454800004000090067091400023658300000000000000000201710050002001COMERCIALIZADORA ESCOBAR ORTIZ                    C000000000000000000000000000000000100010010000000000000000000000F0010000010454800420171005000101 00000000000000000000000000000000000000000000000000000000000000000000000000000000000000000000000000000000000000000N 00000000000NCONT   00    00000000000          00000000000000000000000000000000000000000000 000000000000000A000000000000000000000000000000000000000000000 000000000000000000000000000000000000000     00000000                                                                                                                        000000000000000000
F0010000010454800005000090067091400013552100000000000000000201710050002001COMERCIALIZADORA ESCOBAR ORTIZ                    D000000000000000000000000000000000100010010000000000000000000000F0010000010454800520171005000101 00000000000000000000000000000000000000000000000000000000000000000000000000000000000000000000000000000000000000000N 00000000000NCONT   00    00000000000          00000000000000000000000000000000000000000000 000000000000000A000000000000000000000000000000000000000000000 000000000000000000000000000000000000000     00000000                                                                                                                        000000000000000000
F0010000010454900001000090067091400011050500000000000000000201710050002001COMERCIALIZADORA ESCOBAR ORTIZ                    D000000001600000000000000000000000100010010000000000000000000000F0010000010454900120171005000101 00000000000000000000000000000000000000000000000000000000000000000000000000000000000000000000000000000000000000000N 00000000000NCONT   00    00000000000          00000000000000000000000000000000000000000000 000000000000000A000000000000000000000000000000000000000000000 000000000000000000000000000000000000000     00000000                                                                                                                        000000000000000000
F0010000010454900002000090067091400041450500000000000000000201710050002001COMERCIALIZADORA ESCOBAR ORTIZ                    C000000001100000000000000000000000100010010000000000000000000000F0010000010454900220171005000101 00000000000000000000000000000000000000000000000000000000000000000000000000000000000000000000000000000000000000000N 00000000000NCONT   00    00000000000          00000000000000000000000000000000000000000000 000000000000000A000000000000000000000000000000000000000000000 000000000000000000000000000000000000000     00000000                                                                                                                        000000000000000000
F0010000010454900003000090067091400042505000000000000000000201710050002001COMERCIALIZADORA ESCOBAR ORTIZ                    C000000000500000000000000000000000100010010000000000000000000000F0010000010454900320171005000101 00000000000000000000000000000000000000000000000000000000000000000000000000000000000000000000000000000000000000000N 00000000000NCONT   00    00000000000          00000000000000000000000000000000000000000000 000000000000000A000000000000000000000000000000000000000000000 000000000000000000000000000000000000000     00000000                                                                                                                        000000000000000000
F0010000010454900004000090067091400023658300000000000000000201710050002001COMERCIALIZADORA ESCOBAR ORTIZ                    C000000000000000000000000000000000100010010000000000000000000000F0010000010454900420171005000101 00000000000000000000000000000000000000000000000000000000000000000000000000000000000000000000000000000000000000000N 00000000000NCONT   00    00000000000          00000000000000000000000000000000000000000000 000000000000000A000000000000000000000000000000000000000000000 000000000000000000000000000000000000000     00000000                                                                                                                        000000000000000000
F0010000010454900005000090067091400013552100000000000000000201710050002001COMERCIALIZADORA ESCOBAR ORTIZ                    D000000000000000000000000000000000100010010000000000000000000000F0010000010454900520171005000101 00000000000000000000000000000000000000000000000000000000000000000000000000000000000000000000000000000000000000000N 00000000000NCONT   00    00000000000          00000000000000000000000000000000000000000000 000000000000000A000000000000000000000000000000000000000000000 000000000000000000000000000000000000000     00000000                                                                                                                        000000000000000000
F0010000010455000001000090067091400011050500000000000000000201710050002001COMERCIALIZADORA ESCOBAR ORTIZ                    D000000002100000000000000000000000100010010000000000000000000000F0010000010455000120171005000101 00000000000000000000000000000000000000000000000000000000000000000000000000000000000000000000000000000000000000000N 00000000000NCONT   00    00000000000          00000000000000000000000000000000000000000000 000000000000000A000000000000000000000000000000000000000000000 000000000000000000000000000000000000000     00000000                                                                                                                        000000000000000000
F0010000010455000002000090067091400041450500000000000000000201710050002001COMERCIALIZADORA ESCOBAR ORTIZ                    C000000001100000000000000000000000100010010000000000000000000000F0010000010455000220171005000101 00000000000000000000000000000000000000000000000000000000000000000000000000000000000000000000000000000000000000000N 00000000000NCONT   00    00000000000          00000000000000000000000000000000000000000000 000000000000000A000000000000000000000000000000000000000000000 000000000000000000000000000000000000000     00000000                                                                                                                        000000000000000000
F0010000010455000003000090067091400042505000000000000000000201710050002001COMERCIALIZADORA ESCOBAR ORTIZ                    C000000001000000000000000000000000100010010000000000000000000000F0010000010455000320171005000101 00000000000000000000000000000000000000000000000000000000000000000000000000000000000000000000000000000000000000000N 00000000000NCONT   00    00000000000          00000000000000000000000000000000000000000000 000000000000000A000000000000000000000000000000000000000000000 000000000000000000000000000000000000000     00000000                                                                                                                        000000000000000000
F0010000010455000004000090067091400023658300000000000000000201710050002001COMERCIALIZADORA ESCOBAR ORTIZ                    C000000000000000000000000000000000100010010000000000000000000000F0010000010455000420171005000101 00000000000000000000000000000000000000000000000000000000000000000000000000000000000000000000000000000000000000000N 00000000000NCONT   00    00000000000          00000000000000000000000000000000000000000000 000000000000000A000000000000000000000000000000000000000000000 000000000000000000000000000000000000000     00000000                                                                                                                        000000000000000000
F0010000010455000005000090067091400013552100000000000000000201710050002001COMERCIALIZADORA ESCOBAR ORTIZ                    D000000000000000000000000000000000100010010000000000000000000000F0010000010455000520171005000101 00000000000000000000000000000000000000000000000000000000000000000000000000000000000000000000000000000000000000000N 00000000000NCONT   00    00000000000          00000000000000000000000000000000000000000000 000000000000000A000000000000000000000000000000000000000000000 000000000000000000000000000000000000000     00000000                                                                                                                        000000000000000000
F0010000010455100001000090067091400011050500000000000000000201710050002001COMERCIALIZADORA ESCOBAR ORTIZ                    D000000003200000000000000000000000100010010000000000000000000000F0010000010455100120171005000101 00000000000000000000000000000000000000000000000000000000000000000000000000000000000000000000000000000000000000000N 00000000000NCONT   00    00000000000          00000000000000000000000000000000000000000000 000000000000000A000000000000000000000000000000000000000000000 000000000000000000000000000000000000000     00000000                                                                                                                        000000000000000000
F0010000010455100002000090067091400041450500000000000000000201710050002001COMERCIALIZADORA ESCOBAR ORTIZ                    C000000002200000000000000000000000100010010000000000000000000000F0010000010455100220171005000101 00000000000000000000000000000000000000000000000000000000000000000000000000000000000000000000000000000000000000000N 00000000000NCONT   00    00000000000          00000000000000000000000000000000000000000000 000000000000000A000000000000000000000000000000000000000000000 000000000000000000000000000000000000000     00000000                                                                                                                        000000000000000000
F0010000010455100003000090067091400042505000000000000000000201710050002001COMERCIALIZADORA ESCOBAR ORTIZ                    C000000001000000000000000000000000100010010000000000000000000000F0010000010455100320171005000101 00000000000000000000000000000000000000000000000000000000000000000000000000000000000000000000000000000000000000000N 00000000000NCONT   00    00000000000          00000000000000000000000000000000000000000000 000000000000000A000000000000000000000000000000000000000000000 000000000000000000000000000000000000000     00000000                                                                                                                        000000000000000000
F0010000010455100004000090067091400023658300000000000000000201710050002001COMERCIALIZADORA ESCOBAR ORTIZ                    C000000000000000000000000000000000100010010000000000000000000000F0010000010455100420171005000101 00000000000000000000000000000000000000000000000000000000000000000000000000000000000000000000000000000000000000000N 00000000000NCONT   00    00000000000          00000000000000000000000000000000000000000000 000000000000000A000000000000000000000000000000000000000000000 000000000000000000000000000000000000000     00000000                                                                                                                        000000000000000000
F0010000010455100005000090067091400013552100000000000000000201710050002001COMERCIALIZADORA ESCOBAR ORTIZ                    D000000000000000000000000000000000100010010000000000000000000000F0010000010455100520171005000101 00000000000000000000000000000000000000000000000000000000000000000000000000000000000000000000000000000000000000000N 00000000000NCONT   00    00000000000          00000000000000000000000000000000000000000000 000000000000000A000000000000000000000000000000000000000000000 000000000000000000000000000000000000000     00000000                                                                                                                        000000000000000000
F0010000010455200001000090067091400011050500000000000000000201710050002001COMERCIALIZADORA ESCOBAR ORTIZ                    D000000001700000000000000000000000100010010000000000000000000000F0010000010455200120171005000101 00000000000000000000000000000000000000000000000000000000000000000000000000000000000000000000000000000000000000000N 00000000000NCONT   00    00000000000          00000000000000000000000000000000000000000000 000000000000000A000000000000000000000000000000000000000000000 000000000000000000000000000000000000000     00000000                                                                                                                        000000000000000000
F0010000010455200002000090067091400041450500000000000000000201710050002001COMERCIALIZADORA ESCOBAR ORTIZ                    C000000001100000000000000000000000100010010000000000000000000000F0010000010455200220171005000101 00000000000000000000000000000000000000000000000000000000000000000000000000000000000000000000000000000000000000000N 00000000000NCONT   00    00000000000          00000000000000000000000000000000000000000000 000000000000000A000000000000000000000000000000000000000000000 000000000000000000000000000000000000000     00000000                                                                                                                        000000000000000000
