F0010000008364100001000007213847800011050500000000000000000201603100002001ALEJANDRO MEZA ALVAREZ                            D000000004000000000000000000000000100010010000000000000000000000F0010000008364100120160310000101 00000000000000000000000000000000000000000000000000000000000000000000000000000000000000000000000000000000000000000N 00000000000NCONT   00    00000000000          00000000000000000000000000000000000000000000 000000000000000A000000000000000000000000000000000000000000000 000000000000000000000000000000000000000     00000000                                                                                                                        000000000000000000
F0010000008364100002000007213847800041450500000000000000000201603100002001ALEJANDRO MEZA ALVAREZ                            C000000003700000000000000000000000100010010000000000000000000000F0010000008364100220160310000101 00000000000000000000000000000000000000000000000000000000000000000000000000000000000000000000000000000000000000000N 00000000000NCONT   00    00000000000          00000000000000000000000000000000000000000000 000000000000000A000000000000000000000000000000000000000000000 000000000000000000000000000000000000000     00000000                                                                                                                        000000000000000000
F0010000008364100003000007213847800042505000000000000000000201603100002001ALEJANDRO MEZA ALVAREZ                            C000000000300000000000000000000000100010010000000000000000000000F0010000008364100320160310000101 00000000000000000000000000000000000000000000000000000000000000000000000000000000000000000000000000000000000000000N 00000000000NCONT   00    00000000000          00000000000000000000000000000000000000000000 000000000000000A000000000000000000000000000000000000000000000 000000000000000000000000000000000000000     00000000                                                                                                                        000000000000000000
F0010000008364100004000007213847800023658300000000000000000201603100002001ALEJANDRO MEZA ALVAREZ                            C000000000029600000000000000000000100010010000000000000000000000F0010000008364100420160310000101 00000000000000000000000000000000000000000000000000000000000000000000000000000000000000000000000000000000000000000N 00000000000NCONT   00    00000000000          00000000000000000000000000000000000000000000 000000000000000A000000000000000000000000000000000000000000000 000000000000000000000000000000000000000     00000000                                                                                                                        000000000000000000
F0010000008364100005000007213847800013552100000000000000000201603100002001ALEJANDRO MEZA ALVAREZ                            D000000000029600000000000000000000100010010000000000000000000000F0010000008364100520160310000101 00000000000000000000000000000000000000000000000000000000000000000000000000000000000000000000000000000000000000000N 00000000000NCONT   00    00000000000          00000000000000000000000000000000000000000000 000000000000000A000000000000000000000000000000000000000000000 000000000000000000000000000000000000000     00000000                                                                                                                        000000000000000000
F0010000008364200001000080202132300013050500000000000000000201603100002001SUM Y SERV DE LA COSTA LTDA                       D000000025390000000000000000000000100010010000000000000000000000F0010000008364200120160310000101 00000000000000000000000000000000000000000000000000000000000000000000000000000000000000000000000000000000000000000N 00000000000NCONT   00    00000000000          00000000000000000000000000000000000000000000 000000000000000A000000000000000000000000000000000000000000000 000000000000000000000000000000000000000     00000000                                                                                                                        000000000000000000
F0010000008364200002000080202132300041450500000000000000000201603100002001SUM Y SERV DE LA COSTA LTDA                       C000000024120000000000000000000000100010010000000000000000000000F0010000008364200220160310000101 00000000000000000000000000000000000000000000000000000000000000000000000000000000000000000000000000000000000000000N 00000000000NCONT   00    00000000000          00000000000000000000000000000000000000000000 000000000000000A000000000000000000000000000000000000000000000 000000000000000000000000000000000000000     00000000                                                                                                                        000000000000000000
F0010000008364200003000080202132300042505000000000000000000201603100002001SUM Y SERV DE LA COSTA LTDA                       C000000001270000000000000000000000100010010000000000000000000000F0010000008364200320160310000101 00000000000000000000000000000000000000000000000000000000000000000000000000000000000000000000000000000000000000000N 00000000000NCONT   00    00000000000          00000000000000000000000000000000000000000000 000000000000000A000000000000000000000000000000000000000000000 000000000000000000000000000000000000000     00000000                                                                                                                        000000000000000000
F0010000008364200004000080202132300023658300000000000000000201603100002001SUM Y SERV DE LA COSTA LTDA                       C000000000193000000000000000000000100010010000000000000000000000F0010000008364200420160310000101 00000000000000000000000000000000000000000000000000000000000000000000000000000000000000000000000000000000000000000N 00000000000NCONT   00    00000000000          00000000000000000000000000000000000000000000 000000000000000A000000000000000000000000000000000000000000000 000000000000000000000000000000000000000     00000000                                                                                                                        000000000000000000
F0010000008364200005000080202132300013552100000000000000000201603100002001SUM Y SERV DE LA COSTA LTDA                       D000000000193000000000000000000000100010010000000000000000000000F0010000008364200520160310000101 00000000000000000000000000000000000000000000000000000000000000000000000000000000000000000000000000000000000000000N 00000000000NCONT   00    00000000000          00000000000000000000000000000000000000000000 000000000000000A000000000000000000000000000000000000000000000 000000000000000000000000000000000000000     00000000                                                                                                                        000000000000000000
F0010000008364300001000089031248700013050500000000000000000201603100002001DISTRIBUIDORA CALIPLASTICOS LTDA                  D000000058370200000000000000000000100010010000000000000000000000F0010000008364300120160310000101 00000000000000000000000000000000000000000000000000000000000000000000000000000000000000000000000000000000000000000N 00000000000NCONT   00    00000000000          00000000000000000000000000000000000000000000 000000000000000A000000000000000000000000000000000000000000000 000000000000000000000000000000000000000     00000000                                                                                                                        000000000000000000
F0010000008364300002000089031248700041450500000000000000000201603100002001DISTRIBUIDORA CALIPLASTICOS LTDA                  C000000057455200000000000000000000100010010000000000000000000000F0010000008364300220160310000101 00000000000000000000000000000000000000000000000000000000000000000000000000000000000000000000000000000000000000000N 00000000000NCONT   00    00000000000          00000000000000000000000000000000000000000000 000000000000000A000000000000000000000000000000000000000000000 000000000000000000000000000000000000000     00000000                                                                                                                        000000000000000000
F0010000008364300003000089031248700042505000000000000000000201603100002001DISTRIBUIDORA CALIPLASTICOS LTDA                  C000000000915000000000000000000000100010010000000000000000000000F0010000008364300320160310000101 00000000000000000000000000000000000000000000000000000000000000000000000000000000000000000000000000000000000000000N 00000000000NCONT   00    00000000000          00000000000000000000000000000000000000000000 000000000000000A000000000000000000000000000000000000000000000 000000000000000000000000000000000000000     00000000                                                                                                                        000000000000000000
F0010000008364300004000089031248700023658300000000000000000201603100002001DISTRIBUIDORA CALIPLASTICOS LTDA                  C000000000459600000000000000000000100010010000000000000000000000F0010000008364300420160310000101 00000000000000000000000000000000000000000000000000000000000000000000000000000000000000000000000000000000000000000N 00000000000NCONT   00    00000000000          00000000000000000000000000000000000000000000 000000000000000A000000000000000000000000000000000000000000000 000000000000000000000000000000000000000     00000000                                                                                                                        000000000000000000
F0010000008364300005000089031248700013552100000000000000000201603100002001DISTRIBUIDORA CALIPLASTICOS LTDA                  D000000000459600000000000000000000100010010000000000000000000000F0010000008364300520160310000101 00000000000000000000000000000000000000000000000000000000000000000000000000000000000000000000000000000000000000000N 00000000000NCONT   00    00000000000          00000000000000000000000000000000000000000000 000000000000000A000000000000000000000000000000000000000000000 000000000000000000000000000000000000000     00000000                                                                                                                        000000000000000000
F0010000008364400001000090044920600013050500000000000000000201603100002001QUATRO CARIBE SAS                                 D000000041800000000000000000000000100010010000000000000000000000F0010000008364400120160310000101 00000000000000000000000000000000000000000000000000000000000000000000000000000000000000000000000000000000000000000N 00000000000NCONT   00    00000000000          00000000000000000000000000000000000000000000 000000000000000A000000000000000000000000000000000000000000000 000000000000000000000000000000000000000     00000000                                                                                                                        000000000000000000
F0010000008364400002000090044920600041450500000000000000000201603100002001QUATRO CARIBE SAS                                 C000000036550000000000000000000000100010010000000000000000000000F0010000008364400220160310000101 00000000000000000000000000000000000000000000000000000000000000000000000000000000000000000000000000000000000000000N 00000000000NCONT   00    00000000000          00000000000000000000000000000000000000000000 000000000000000A000000000000000000000000000000000000000000000 000000000000000000000000000000000000000     00000000                                                                                                                        000000000000000000
F0010000008364400003000090044920600042505000000000000000000201603100002001QUATRO CARIBE SAS                                 C000000005250000000000000000000000100010010000000000000000000000F0010000008364400320160310000101 00000000000000000000000000000000000000000000000000000000000000000000000000000000000000000000000000000000000000000N 00000000000NCONT   00    00000000000          00000000000000000000000000000000000000000000 000000000000000A000000000000000000000000000000000000000000000 000000000000000000000000000000000000000     00000000                                                                                                                        000000000000000000
F0010000008364400004000090044920600023658300000000000000000201603100002001QUATRO CARIBE SAS                                 C000000000292400000000000000000000100010010000000000000000000000F0010000008364400420160310000101 00000000000000000000000000000000000000000000000000000000000000000000000000000000000000000000000000000000000000000N 00000000000NCONT   00    00000000000          00000000000000000000000000000000000000000000 000000000000000A000000000000000000000000000000000000000000000 000000000000000000000000000000000000000     00000000                                                                                                                        000000000000000000
F0010000008364400005000090044920600013552100000000000000000201603100002001QUATRO CARIBE SAS                                 D000000000292400000000000000000000100010010000000000000000000000F0010000008364400520160310000101 00000000000000000000000000000000000000000000000000000000000000000000000000000000000000000000000000000000000000000N 00000000000NCONT   00    00000000000          00000000000000000000000000000000000000000000 000000000000000A000000000000000000000000000000000000000000000 000000000000000000000000000000000000000     00000000                                                                                                                        000000000000000000
F0010000008364500001000083001155300013050500000000000000000201603100002001COMERCIALIZADORA RUBEN S LTDA                     D000000025404400000000000000000000100010010000000000000000000000F0010000008364500120160310000101 00000000000000000000000000000000000000000000000000000000000000000000000000000000000000000000000000000000000000000N 00000000000NCONT   00    00000000000          00000000000000000000000000000000000000000000 000000000000000A000000000000000000000000000000000000000000000 000000000000000000000000000000000000000     00000000                                                                                                                        000000000000000000
F0010000008364500002000083001155300041450500000000000000000201603100002001COMERCIALIZADORA RUBEN S LTDA                     C000000023180700000000000000000000100010010000000000000000000000F0010000008364500220160310000101 00000000000000000000000000000000000000000000000000000000000000000000000000000000000000000000000000000000000000000N 00000000000NCONT   00    00000000000          00000000000000000000000000000000000000000000 000000000000000A000000000000000000000000000000000000000000000 000000000000000000000000000000000000000     00000000                                                                                                                        000000000000000000
F0010000008364500003000083001155300042505000000000000000000201603100002001COMERCIALIZADORA RUBEN S LTDA                     C000000002223700000000000000000000100010010000000000000000000000F0010000008364500320160310000101 00000000000000000000000000000000000000000000000000000000000000000000000000000000000000000000000000000000000000000N 00000000000NCONT   00    00000000000          00000000000000000000000000000000000000000000 000000000000000A000000000000000000000000000000000000000000000 000000000000000000000000000000000000000     00000000                                                                                                                        000000000000000000
F0010000008364500004000083001155300023658300000000000000000201603100002001COMERCIALIZADORA RUBEN S LTDA                     C000000000185400000000000000000000100010010000000000000000000000F0010000008364500420160310000101 00000000000000000000000000000000000000000000000000000000000000000000000000000000000000000000000000000000000000000N 00000000000NCONT   00    00000000000          00000000000000000000000000000000000000000000 000000000000000A000000000000000000000000000000000000000000000 000000000000000000000000000000000000000     00000000                                                                                                                        000000000000000000
F0010000008364500005000083001155300013552100000000000000000201603100002001COMERCIALIZADORA RUBEN S LTDA                     D000000000185400000000000000000000100010010000000000000000000000F0010000008364500520160310000101 00000000000000000000000000000000000000000000000000000000000000000000000000000000000000000000000000000000000000000N 00000000000NCONT   00    00000000000          00000000000000000000000000000000000000000000 000000000000000A000000000000000000000000000000000000000000000 000000000000000000000000000000000000000     00000000                                                                                                                        000000000000000000
F0010000008364600001000000871714900013050500000000000000000201603100002001ROLNAN DE LA ROSA  INSIGNARES                     D000000027603000000000000000000000100010010000000000000000000000F0010000008364600120160310000101 00000000000000000000000000000000000000000000000000000000000000000000000000000000000000000000000000000000000000000N 00000000000NCONT   00    00000000000          00000000000000000000000000000000000000000000 000000000000000A000000000000000000000000000000000000000000000 000000000000000000000000000000000000000     00000000                                                                                                                        000000000000000000
F0010000008364600002000000871714900041450500000000000000000201603100002001ROLNAN DE LA ROSA  INSIGNARES                     C000000022747500000000000000000000100010010000000000000000000000F0010000008364600220160310000101 00000000000000000000000000000000000000000000000000000000000000000000000000000000000000000000000000000000000000000N 00000000000NCONT   00    00000000000          00000000000000000000000000000000000000000000 000000000000000A000000000000000000000000000000000000000000000 000000000000000000000000000000000000000     00000000                                                                                                                        000000000000000000
F0010000008364600003000000871714900042505000000000000000000201603100002001ROLNAN DE LA ROSA  INSIGNARES                     C000000004855500000000000000000000100010010000000000000000000000F0010000008364600320160310000101 00000000000000000000000000000000000000000000000000000000000000000000000000000000000000000000000000000000000000000N 00000000000NCONT   00    00000000000          00000000000000000000000000000000000000000000 000000000000000A000000000000000000000000000000000000000000000 000000000000000000000000000000000000000     00000000                                                                                                                        000000000000000000
F0010000008364600004000000871714900023658300000000000000000201603100002001ROLNAN DE LA ROSA  INSIGNARES                     C000000000182000000000000000000000100010010000000000000000000000F0010000008364600420160310000101 00000000000000000000000000000000000000000000000000000000000000000000000000000000000000000000000000000000000000000N 00000000000NCONT   00    00000000000          00000000000000000000000000000000000000000000 000000000000000A000000000000000000000000000000000000000000000 000000000000000000000000000000000000000     00000000                                                                                                                        000000000000000000
F0010000008364600005000000871714900013552100000000000000000201603100002001ROLNAN DE LA ROSA  INSIGNARES                     D000000000182000000000000000000000100010010000000000000000000000F0010000008364600520160310000101 00000000000000000000000000000000000000000000000000000000000000000000000000000000000000000000000000000000000000000N 00000000000NCONT   00    00000000000          00000000000000000000000000000000000000000000 000000000000000A000000000000000000000000000000000000000000000 000000000000000000000000000000000000000     00000000                                                                                                                        000000000000000000
F0010000008364700001000007229328500013050500000000000000000201603100002001PV ELECTRIC   DEL CARIBE                          D000000029400000000000000000000000100010010000000000000000000000F0010000008364700120160310000101 00000000000000000000000000000000000000000000000000000000000000000000000000000000000000000000000000000000000000000N 00000000000NCONT   00    00000000000          00000000000000000000000000000000000000000000 000000000000000A000000000000000000000000000000000000000000000 000000000000000000000000000000000000000     00000000                                                                                                                        000000000000000000
F0010000008364700002000007229328500041450500000000000000000201603100002001PV ELECTRIC   DEL CARIBE                          C000000027000000000000000000000000100010010000000000000000000000F0010000008364700220160310000101 00000000000000000000000000000000000000000000000000000000000000000000000000000000000000000000000000000000000000000N 00000000000NCONT   00    00000000000          00000000000000000000000000000000000000000000 000000000000000A000000000000000000000000000000000000000000000 000000000000000000000000000000000000000     00000000                                                                                                                        000000000000000000
F0010000008364700003000007229328500042505000000000000000000201603100002001PV ELECTRIC   DEL CARIBE                          C000000002400000000000000000000000100010010000000000000000000000F0010000008364700320160310000101 00000000000000000000000000000000000000000000000000000000000000000000000000000000000000000000000000000000000000000N 00000000000NCONT   00    00000000000          00000000000000000000000000000000000000000000 000000000000000A000000000000000000000000000000000000000000000 000000000000000000000000000000000000000     00000000                                                                                                                        000000000000000000
F0010000008364700004000007229328500023658300000000000000000201603100002001PV ELECTRIC   DEL CARIBE                          C000000000216000000000000000000000100010010000000000000000000000F0010000008364700420160310000101 00000000000000000000000000000000000000000000000000000000000000000000000000000000000000000000000000000000000000000N 00000000000NCONT   00    00000000000          00000000000000000000000000000000000000000000 000000000000000A000000000000000000000000000000000000000000000 000000000000000000000000000000000000000     00000000                                                                                                                        000000000000000000
F0010000008364700005000007229328500013552100000000000000000201603100002001PV ELECTRIC   DEL CARIBE                          D000000000216000000000000000000000100010010000000000000000000000F0010000008364700520160310000101 00000000000000000000000000000000000000000000000000000000000000000000000000000000000000000000000000000000000000000N 00000000000NCONT   00    00000000000          00000000000000000000000000000000000000000000 000000000000000A000000000000000000000000000000000000000000000 000000000000000000000000000000000000000     00000000                                                                                                                        000000000000000000
F0010000008364800001000080002300200013050500000000000000000201603100002001DISREL S.A.                                       D000000030850000000000000000000000100010010000000000000000000000F0010000008364800120160310000101 00000000000000000000000000000000000000000000000000000000000000000000000000000000000000000000000000000000000000000N 00000000000NCONT   00    00000000000          00000000000000000000000000000000000000000000 000000000000000A000000000000000000000000000000000000000000000 000000000000000000000000000000000000000     00000000                                                                                                                        000000000000000000
F0010000008364800002000080002300200041450500000000000000000201603100002001DISREL S.A.                                       C000000026100000000000000000000000100010010000000000000000000000F0010000008364800220160310000101 00000000000000000000000000000000000000000000000000000000000000000000000000000000000000000000000000000000000000000N 00000000000NCONT   00    00000000000          00000000000000000000000000000000000000000000 000000000000000A000000000000000000000000000000000000000000000 000000000000000000000000000000000000000     00000000                                                                                                                        000000000000000000
F0010000008364800003000080002300200042505000000000000000000201603100002001DISREL S.A.                                       C000000004750000000000000000000000100010010000000000000000000000F0010000008364800320160310000101 00000000000000000000000000000000000000000000000000000000000000000000000000000000000000000000000000000000000000000N 00000000000NCONT   00    00000000000          00000000000000000000000000000000000000000000 000000000000000A000000000000000000000000000000000000000000000 000000000000000000000000000000000000000     00000000                                                                                                                        000000000000000000
F0010000008364800004000080002300200023658300000000000000000201603100002001DISREL S.A.                                       C000000000208800000000000000000000100010010000000000000000000000F0010000008364800420160310000101 00000000000000000000000000000000000000000000000000000000000000000000000000000000000000000000000000000000000000000N 00000000000NCONT   00    00000000000          00000000000000000000000000000000000000000000 000000000000000A000000000000000000000000000000000000000000000 000000000000000000000000000000000000000     00000000                                                                                                                        000000000000000000
F0010000008364800005000080002300200013552100000000000000000201603100002001DISREL S.A.                                       D000000000208800000000000000000000100010010000000000000000000000F0010000008364800520160310000101 00000000000000000000000000000000000000000000000000000000000000000000000000000000000000000000000000000000000000000N 00000000000NCONT   00    00000000000          00000000000000000000000000000000000000000000 000000000000000A000000000000000000000000000000000000000000000 000000000000000000000000000000000000000     00000000                                                                                                                        000000000000000000
F0010000008364900001000083007900600013050500000000000000000201603100002001EXPRESO ANDINO DE CARGA SA                        D000000014900000000000000000000000100010010000000000000000000000F0010000008364900120160310000101 00000000000000000000000000000000000000000000000000000000000000000000000000000000000000000000000000000000000000000N 00000000000NCONT   00    00000000000          00000000000000000000000000000000000000000000 000000000000000A000000000000000000000000000000000000000000000 000000000000000000000000000000000000000     00000000                                                                                                                        000000000000000000
F0010000008364900002000083007900600041450500000000000000000201603100002001EXPRESO ANDINO DE CARGA SA                        C000000014700000000000000000000000100010010000000000000000000000F0010000008364900220160310000101 00000000000000000000000000000000000000000000000000000000000000000000000000000000000000000000000000000000000000000N 00000000000NCONT   00    00000000000          00000000000000000000000000000000000000000000 000000000000000A000000000000000000000000000000000000000000000 000000000000000000000000000000000000000     00000000                                                                                                                        000000000000000000
F0010000008364900003000083007900600042505000000000000000000201603100002001EXPRESO ANDINO DE CARGA SA                        C000000000200000000000000000000000100010010000000000000000000000F0010000008364900320160310000101 00000000000000000000000000000000000000000000000000000000000000000000000000000000000000000000000000000000000000000N 00000000000NCONT   00    00000000000          00000000000000000000000000000000000000000000 000000000000000A000000000000000000000000000000000000000000000 000000000000000000000000000000000000000     00000000                                                                                                                        000000000000000000
F0010000008364900004000083007900600023658300000000000000000201603100002001EXPRESO ANDINO DE CARGA SA                        C000000000117600000000000000000000100010010000000000000000000000F0010000008364900420160310000101 00000000000000000000000000000000000000000000000000000000000000000000000000000000000000000000000000000000000000000N 00000000000NCONT   00    00000000000          00000000000000000000000000000000000000000000 000000000000000A000000000000000000000000000000000000000000000 000000000000000000000000000000000000000     00000000                                                                                                                        000000000000000000
F0010000008364900005000083007900600013552100000000000000000201603100002001EXPRESO ANDINO DE CARGA SA                        D000000000117600000000000000000000100010010000000000000000000000F0010000008364900520160310000101 00000000000000000000000000000000000000000000000000000000000000000000000000000000000000000000000000000000000000000N 00000000000NCONT   00    00000000000          00000000000000000000000000000000000000000000 000000000000000A000000000000000000000000000000000000000000000 000000000000000000000000000000000000000     00000000                                                                                                                        000000000000000000
F0010000008365100001000089011492400013050500000000000000000201603100002001AGE. CAUCHO SOL DE LA COSTA  SAS                  D000000102596200000000000000000000100010010000000000000000000000F0010000008365100120160310000101 00000000000000000000000000000000000000000000000000000000000000000000000000000000000000000000000000000000000000000N 00000000000NCONT   00    00000000000          00000000000000000000000000000000000000000000 000000000000000A000000000000000000000000000000000000000000000 000000000000000000000000000000000000000     00000000                                                                                                                        000000000000000000
F0010000008365100002000089011492400041450500000000000000000201603100002001AGE. CAUCHO SOL DE LA COSTA  SAS                  C000000058920000000000000000000000100010010000000000000000000000F0010000008365100220160310000101 00000000000000000000000000000000000000000000000000000000000000000000000000000000000000000000000000000000000000000N 00000000000NCONT   00    00000000000          00000000000000000000000000000000000000000000 000000000000000A000000000000000000000000000000000000000000000 000000000000000000000000000000000000000     00000000                                                                                                                        000000000000000000
F0010000008365100003000089011492400042505000000000000000000201603100002001AGE. CAUCHO SOL DE LA COSTA  SAS                  C000000043676200000000000000000000100010010000000000000000000000F0010000008365100320160310000101 00000000000000000000000000000000000000000000000000000000000000000000000000000000000000000000000000000000000000000N 00000000000NCONT   00    00000000000          00000000000000000000000000000000000000000000 000000000000000A000000000000000000000000000000000000000000000 000000000000000000000000000000000000000     00000000                                                                                                                        000000000000000000
F0010000008365100004000089011492400023658300000000000000000201603100002001AGE. CAUCHO SOL DE LA COSTA  SAS                  C000000000471400000000000000000000100010010000000000000000000000F0010000008365100420160310000101 00000000000000000000000000000000000000000000000000000000000000000000000000000000000000000000000000000000000000000N 00000000000NCONT   00    00000000000          00000000000000000000000000000000000000000000 000000000000000A000000000000000000000000000000000000000000000 000000000000000000000000000000000000000     00000000                                                                                                                        000000000000000000
F0010000008365100005000089011492400013552100000000000000000201603100002001AGE. CAUCHO SOL DE LA COSTA  SAS                  D000000000471400000000000000000000100010010000000000000000000000F0010000008365100520160310000101 00000000000000000000000000000000000000000000000000000000000000000000000000000000000000000000000000000000000000000N 00000000000NCONT   00    00000000000          00000000000000000000000000000000000000000000 000000000000000A000000000000000000000000000000000000000000000 000000000000000000000000000000000000000     00000000                                                                                                                        000000000000000000
F0010000008365200001000089011492400013050500000000000000000201603100002001AGE. CAUCHO SOL DE LA COSTA  SAS                  D000000031606100000000000000000000100010010000000000000000000000F0010000008365200120160310000101 00000000000000000000000000000000000000000000000000000000000000000000000000000000000000000000000000000000000000000N 00000000000NCONT   00    00000000000          00000000000000000000000000000000000000000000 000000000000000A000000000000000000000000000000000000000000000 000000000000000000000000000000000000000     00000000                                                                                                                        000000000000000000
F0010000008365200002000089011492400041450500000000000000000201603100002001AGE. CAUCHO SOL DE LA COSTA  SAS                  C000000019700000000000000000000000100010010000000000000000000000F0010000008365200220160310000101 00000000000000000000000000000000000000000000000000000000000000000000000000000000000000000000000000000000000000000N 00000000000NCONT   00    00000000000          00000000000000000000000000000000000000000000 000000000000000A000000000000000000000000000000000000000000000 000000000000000000000000000000000000000     00000000                                                                                                                        000000000000000000
F0010000008365200003000089011492400042505000000000000000000201603100002001AGE. CAUCHO SOL DE LA COSTA  SAS                  C000000011906100000000000000000000100010010000000000000000000000F0010000008365200320160310000101 00000000000000000000000000000000000000000000000000000000000000000000000000000000000000000000000000000000000000000N 00000000000NCONT   00    00000000000          00000000000000000000000000000000000000000000 000000000000000A000000000000000000000000000000000000000000000 000000000000000000000000000000000000000     00000000                                                                                                                        000000000000000000
F0010000008365200004000089011492400023658300000000000000000201603100002001AGE. CAUCHO SOL DE LA COSTA  SAS                  C000000000157600000000000000000000100010010000000000000000000000F0010000008365200420160310000101 00000000000000000000000000000000000000000000000000000000000000000000000000000000000000000000000000000000000000000N 00000000000NCONT   00    00000000000          00000000000000000000000000000000000000000000 000000000000000A000000000000000000000000000000000000000000000 000000000000000000000000000000000000000     00000000                                                                                                                        000000000000000000
F0010000008365200005000089011492400013552100000000000000000201603100002001AGE. CAUCHO SOL DE LA COSTA  SAS                  D000000000157600000000000000000000100010010000000000000000000000F0010000008365200520160310000101 00000000000000000000000000000000000000000000000000000000000000000000000000000000000000000000000000000000000000000N 00000000000NCONT   00    00000000000          00000000000000000000000000000000000000000000 000000000000000A000000000000000000000000000000000000000000000 000000000000000000000000000000000000000     00000000                                                                                                                        000000000000000000
F0010000008365300001000080202094000013050500000000000000000201603100002001DISTRIB. OMAR ORREGO S.A.                         D000000051342800000000000000000000100010010000000000000000000000F0010000008365300120160310000101 00000000000000000000000000000000000000000000000000000000000000000000000000000000000000000000000000000000000000000N 00000000000NCONT   00    00000000000          00000000000000000000000000000000000000000000 000000000000000A000000000000000000000000000000000000000000000 000000000000000000000000000000000000000     00000000                                                                                                                        000000000000000000
F0010000008365300002000080202094000041450500000000000000000201603100002001DISTRIB. OMAR ORREGO S.A.                         C000000032210000000000000000000000100010010000000000000000000000F0010000008365300220160310000101 00000000000000000000000000000000000000000000000000000000000000000000000000000000000000000000000000000000000000000N 00000000000NCONT   00    00000000000          00000000000000000000000000000000000000000000 000000000000000A000000000000000000000000000000000000000000000 000000000000000000000000000000000000000     00000000                                                                                                                        000000000000000000
F0010000008365300003000080202094000042505000000000000000000201603100002001DISTRIB. OMAR ORREGO S.A.                         C000000019132800000000000000000000100010010000000000000000000000F0010000008365300320160310000101 00000000000000000000000000000000000000000000000000000000000000000000000000000000000000000000000000000000000000000N 00000000000NCONT   00    00000000000          00000000000000000000000000000000000000000000 000000000000000A000000000000000000000000000000000000000000000 000000000000000000000000000000000000000     00000000                                                                                                                        000000000000000000
F0010000008365300004000080202094000023658300000000000000000201603100002001DISTRIB. OMAR ORREGO S.A.                         C000000000257700000000000000000000100010010000000000000000000000F0010000008365300420160310000101 00000000000000000000000000000000000000000000000000000000000000000000000000000000000000000000000000000000000000000N 00000000000NCONT   00    00000000000          00000000000000000000000000000000000000000000 000000000000000A000000000000000000000000000000000000000000000 000000000000000000000000000000000000000     00000000                                                                                                                        000000000000000000
F0010000008365300005000080202094000013552100000000000000000201603100002001DISTRIB. OMAR ORREGO S.A.                         D000000000257700000000000000000000100010010000000000000000000000F0010000008365300520160310000101 00000000000000000000000000000000000000000000000000000000000000000000000000000000000000000000000000000000000000000N 00000000000NCONT   00    00000000000          00000000000000000000000000000000000000000000 000000000000000A000000000000000000000000000000000000000000000 000000000000000000000000000000000000000     00000000                                                                                                                        000000000000000000
F0010000008365400001000080202094000013050500000000000000000201603100002001DISTRIB. OMAR ORREGO S.A.                         D000000023507100000000000000000000100010010000000000000000000000F0010000008365400120160310000101 00000000000000000000000000000000000000000000000000000000000000000000000000000000000000000000000000000000000000000N 00000000000NCONT   00    00000000000          00000000000000000000000000000000000000000000 000000000000000A000000000000000000000000000000000000000000000 000000000000000000000000000000000000000     00000000                                                                                                                        000000000000000000
F0010000008365400002000080202094000041450500000000000000000201603100002001DISTRIB. OMAR ORREGO S.A.                         C000000014380000000000000000000000100010010000000000000000000000F0010000008365400220160310000101 00000000000000000000000000000000000000000000000000000000000000000000000000000000000000000000000000000000000000000N 00000000000NCONT   00    00000000000          00000000000000000000000000000000000000000000 000000000000000A000000000000000000000000000000000000000000000 000000000000000000000000000000000000000     00000000                                                                                                                        000000000000000000
F0010000008365400003000080202094000042505000000000000000000201603100002001DISTRIB. OMAR ORREGO S.A.                         C000000009127100000000000000000000100010010000000000000000000000F0010000008365400320160310000101 00000000000000000000000000000000000000000000000000000000000000000000000000000000000000000000000000000000000000000N 00000000000NCONT   00    00000000000          00000000000000000000000000000000000000000000 000000000000000A000000000000000000000000000000000000000000000 000000000000000000000000000000000000000     00000000                                                                                                                        000000000000000000
F0010000008365400004000080202094000023658300000000000000000201603100002001DISTRIB. OMAR ORREGO S.A.                         C000000000115000000000000000000000100010010000000000000000000000F0010000008365400420160310000101 00000000000000000000000000000000000000000000000000000000000000000000000000000000000000000000000000000000000000000N 00000000000NCONT   00    00000000000          00000000000000000000000000000000000000000000 000000000000000A000000000000000000000000000000000000000000000 000000000000000000000000000000000000000     00000000                                                                                                                        000000000000000000
F0010000008365400005000080202094000013552100000000000000000201603100002001DISTRIB. OMAR ORREGO S.A.                         D000000000115000000000000000000000100010010000000000000000000000F0010000008365400520160310000101 00000000000000000000000000000000000000000000000000000000000000000000000000000000000000000000000000000000000000000N 00000000000NCONT   00    00000000000          00000000000000000000000000000000000000000000 000000000000000A000000000000000000000000000000000000000000000 000000000000000000000000000000000000000     00000000                                                                                                                        000000000000000000
F0010000008365500001000090071760000011050500000000000000000201603100002001REFRIGERAR INGENIEROS SAS                         D000000003000000000000000000000000100010010000000000000000000000F0010000008365500120160310000101 00000000000000000000000000000000000000000000000000000000000000000000000000000000000000000000000000000000000000000N 00000000000NCONT   00    00000000000          00000000000000000000000000000000000000000000 000000000000000A000000000000000000000000000000000000000000000 000000000000000000000000000000000000000     00000000                                                                                                                        000000000000000000
F0010000008365500002000090071760000041450500000000000000000201603100002001REFRIGERAR INGENIEROS SAS                         C000000002500000000000000000000000100010010000000000000000000000F0010000008365500220160310000101 00000000000000000000000000000000000000000000000000000000000000000000000000000000000000000000000000000000000000000N 00000000000NCONT   00    00000000000          00000000000000000000000000000000000000000000 000000000000000A000000000000000000000000000000000000000000000 000000000000000000000000000000000000000     00000000                                                                                                                        000000000000000000
F0010000008365500003000090071760000042505000000000000000000201603100002001REFRIGERAR INGENIEROS SAS                         C000000000500000000000000000000000100010010000000000000000000000F0010000008365500320160310000101 00000000000000000000000000000000000000000000000000000000000000000000000000000000000000000000000000000000000000000N 00000000000NCONT   00    00000000000          00000000000000000000000000000000000000000000 000000000000000A000000000000000000000000000000000000000000000 000000000000000000000000000000000000000     00000000                                                                                                                        000000000000000000
F0010000008365500004000090071760000023658300000000000000000201603100002001REFRIGERAR INGENIEROS SAS                         C000000000020000000000000000000000100010010000000000000000000000F0010000008365500420160310000101 00000000000000000000000000000000000000000000000000000000000000000000000000000000000000000000000000000000000000000N 00000000000NCONT   00    00000000000          00000000000000000000000000000000000000000000 000000000000000A000000000000000000000000000000000000000000000 000000000000000000000000000000000000000     00000000                                                                                                                        000000000000000000
F0010000008365500005000090071760000013552100000000000000000201603100002001REFRIGERAR INGENIEROS SAS                         D000000000020000000000000000000000100010010000000000000000000000F0010000008365500520160310000101 00000000000000000000000000000000000000000000000000000000000000000000000000000000000000000000000000000000000000000N 00000000000NCONT   00    00000000000          00000000000000000000000000000000000000000000 000000000000000A000000000000000000000000000000000000000000000 000000000000000000000000000000000000000     00000000                                                                                                                        000000000000000000
F0010000008365600001000080201411900011050500000000000000000201603100002001PLASTISERVICIOS S DE H                            D000000007600000000000000000000000100010010000000000000000000000F0010000008365600120160310000101 00000000000000000000000000000000000000000000000000000000000000000000000000000000000000000000000000000000000000000N 00000000000NCONT   00    00000000000          00000000000000000000000000000000000000000000 000000000000000A000000000000000000000000000000000000000000000 000000000000000000000000000000000000000     00000000                                                                                                                        000000000000000000
F0010000008365600002000080201411900041450500000000000000000201603100002001PLASTISERVICIOS S DE H                            C000000006000000000000000000000000100010010000000000000000000000F0010000008365600220160310000101 00000000000000000000000000000000000000000000000000000000000000000000000000000000000000000000000000000000000000000N 00000000000NCONT   00    00000000000          00000000000000000000000000000000000000000000 000000000000000A000000000000000000000000000000000000000000000 000000000000000000000000000000000000000     00000000                                                                                                                        000000000000000000
F0010000008365600003000080201411900042505000000000000000000201603100002001PLASTISERVICIOS S DE H                            C000000001600000000000000000000000100010010000000000000000000000F0010000008365600320160310000101 00000000000000000000000000000000000000000000000000000000000000000000000000000000000000000000000000000000000000000N 00000000000NCONT   00    00000000000          00000000000000000000000000000000000000000000 000000000000000A000000000000000000000000000000000000000000000 000000000000000000000000000000000000000     00000000                                                                                                                        000000000000000000
F0010000008365600004000080201411900023658300000000000000000201603100002001PLASTISERVICIOS S DE H                            C000000000048000000000000000000000100010010000000000000000000000F0010000008365600420160310000101 00000000000000000000000000000000000000000000000000000000000000000000000000000000000000000000000000000000000000000N 00000000000NCONT   00    00000000000          00000000000000000000000000000000000000000000 000000000000000A000000000000000000000000000000000000000000000 000000000000000000000000000000000000000     00000000                                                                                                                        000000000000000000
F0010000008365600005000080201411900013552100000000000000000201603100002001PLASTISERVICIOS S DE H                            D000000000048000000000000000000000100010010000000000000000000000F0010000008365600520160310000101 00000000000000000000000000000000000000000000000000000000000000000000000000000000000000000000000000000000000000000N 00000000000NCONT   00    00000000000          00000000000000000000000000000000000000000000 000000000000000A000000000000000000000000000000000000000000000 000000000000000000000000000000000000000     00000000                                                                                                                        000000000000000000
F0010000008365700001000080201411900011050500000000000000000201603100002001PLASTISERVICIOS S DE H                            D000000001100000000000000000000000100010010000000000000000000000F0010000008365700120160310000101 00000000000000000000000000000000000000000000000000000000000000000000000000000000000000000000000000000000000000000N 00000000000NCONT   00    00000000000          00000000000000000000000000000000000000000000 000000000000000A000000000000000000000000000000000000000000000 000000000000000000000000000000000000000     00000000                                                                                                                        000000000000000000
F0010000008365700002000080201411900041450500000000000000000201603100002001PLASTISERVICIOS S DE H                            C000000000980000000000000000000000100010010000000000000000000000F0010000008365700220160310000101 00000000000000000000000000000000000000000000000000000000000000000000000000000000000000000000000000000000000000000N 00000000000NCONT   00    00000000000          00000000000000000000000000000000000000000000 000000000000000A000000000000000000000000000000000000000000000 000000000000000000000000000000000000000     00000000                                                                                                                        000000000000000000
F0010000008365700003000080201411900042505000000000000000000201603100002001PLASTISERVICIOS S DE H                            C000000000120000000000000000000000100010010000000000000000000000F0010000008365700320160310000101 00000000000000000000000000000000000000000000000000000000000000000000000000000000000000000000000000000000000000000N 00000000000NCONT   00    00000000000          00000000000000000000000000000000000000000000 000000000000000A000000000000000000000000000000000000000000000 000000000000000000000000000000000000000     00000000                                                                                                                        000000000000000000
F0010000008365700004000080201411900023658300000000000000000201603100002001PLASTISERVICIOS S DE H                            C000000000007800000000000000000000100010010000000000000000000000F0010000008365700420160310000101 00000000000000000000000000000000000000000000000000000000000000000000000000000000000000000000000000000000000000000N 00000000000NCONT   00    00000000000          00000000000000000000000000000000000000000000 000000000000000A000000000000000000000000000000000000000000000 000000000000000000000000000000000000000     00000000                                                                                                                        000000000000000000
F0010000008365700005000080201411900013552100000000000000000201603100002001PLASTISERVICIOS S DE H                            D000000000007800000000000000000000100010010000000000000000000000F0010000008365700520160310000101 00000000000000000000000000000000000000000000000000000000000000000000000000000000000000000000000000000000000000000N 00000000000NCONT   00    00000000000          00000000000000000000000000000000000000000000 000000000000000A000000000000000000000000000000000000000000000 000000000000000000000000000000000000000     00000000                                                                                                                        000000000000000000
F0010000008365800001000000868846900011050500000000000000000201603100002001NICOLAS DE LA HOZ SAUCEDO                         D000000001400000000000000000000000100010010000000000000000000000F0010000008365800120160310000101 00000000000000000000000000000000000000000000000000000000000000000000000000000000000000000000000000000000000000000N 00000000000NCONT   00    00000000000          00000000000000000000000000000000000000000000 000000000000000A000000000000000000000000000000000000000000000 000000000000000000000000000000000000000     00000000                                                                                                                        000000000000000000
F0010000008365800002000000868846900041450500000000000000000201603100002001NICOLAS DE LA HOZ SAUCEDO                         C000000001000000000000000000000000100010010000000000000000000000F0010000008365800220160310000101 00000000000000000000000000000000000000000000000000000000000000000000000000000000000000000000000000000000000000000N 00000000000NCONT   00    00000000000          00000000000000000000000000000000000000000000 000000000000000A000000000000000000000000000000000000000000000 000000000000000000000000000000000000000     00000000                                                                                                                        000000000000000000
F0010000008365800003000000868846900042505000000000000000000201603100002001NICOLAS DE LA HOZ SAUCEDO                         C000000000400000000000000000000000100010010000000000000000000000F0010000008365800320160310000101 00000000000000000000000000000000000000000000000000000000000000000000000000000000000000000000000000000000000000000N 00000000000NCONT   00    00000000000          00000000000000000000000000000000000000000000 000000000000000A000000000000000000000000000000000000000000000 000000000000000000000000000000000000000     00000000                                                                                                                        000000000000000000
F0010000008365800004000000868846900023658300000000000000000201603100002001NICOLAS DE LA HOZ SAUCEDO                         C000000000008000000000000000000000100010010000000000000000000000F0010000008365800420160310000101 00000000000000000000000000000000000000000000000000000000000000000000000000000000000000000000000000000000000000000N 00000000000NCONT   00    00000000000          00000000000000000000000000000000000000000000 000000000000000A000000000000000000000000000000000000000000000 000000000000000000000000000000000000000     00000000                                                                                                                        000000000000000000
F0010000008365800005000000868846900013552100000000000000000201603100002001NICOLAS DE LA HOZ SAUCEDO                         D000000000008000000000000000000000100010010000000000000000000000F0010000008365800520160310000101 00000000000000000000000000000000000000000000000000000000000000000000000000000000000000000000000000000000000000000N 00000000000NCONT   00    00000000000          00000000000000000000000000000000000000000000 000000000000000A000000000000000000000000000000000000000000000 000000000000000000000000000000000000000     00000000                                                                                                                        000000000000000000
F0010000008365900001000080201112800011050500000000000000000201603100002001CANGURO INTERNATIONAL S.A.                        D000000024000000000000000000000000100010010000000000000000000000F0010000008365900120160310000101 00000000000000000000000000000000000000000000000000000000000000000000000000000000000000000000000000000000000000000N 00000000000NCONT   00    00000000000          00000000000000000000000000000000000000000000 000000000000000A000000000000000000000000000000000000000000000 000000000000000000000000000000000000000     00000000                                                                                                                        000000000000000000
F0010000008365900002000080201112800041450500000000000000000201603100002001CANGURO INTERNATIONAL S.A.                        C000000020000000000000000000000000100010010000000000000000000000F0010000008365900220160310000101 00000000000000000000000000000000000000000000000000000000000000000000000000000000000000000000000000000000000000000N 00000000000NCONT   00    00000000000          00000000000000000000000000000000000000000000 000000000000000A000000000000000000000000000000000000000000000 000000000000000000000000000000000000000     00000000                                                                                                                        000000000000000000
F0010000008365900003000080201112800042505000000000000000000201603100002001CANGURO INTERNATIONAL S.A.                        C000000004000000000000000000000000100010010000000000000000000000F0010000008365900320160310000101 00000000000000000000000000000000000000000000000000000000000000000000000000000000000000000000000000000000000000000N 00000000000NCONT   00    00000000000          00000000000000000000000000000000000000000000 000000000000000A000000000000000000000000000000000000000000000 000000000000000000000000000000000000000     00000000                                                                                                                        000000000000000000
F0010000008365900004000080201112800023658300000000000000000201603100002001CANGURO INTERNATIONAL S.A.                        C000000000160000000000000000000000100010010000000000000000000000F0010000008365900420160310000101 00000000000000000000000000000000000000000000000000000000000000000000000000000000000000000000000000000000000000000N 00000000000NCONT   00    00000000000          00000000000000000000000000000000000000000000 000000000000000A000000000000000000000000000000000000000000000 000000000000000000000000000000000000000     00000000                                                                                                                        000000000000000000
F0010000008365900005000080201112800013552100000000000000000201603100002001CANGURO INTERNATIONAL S.A.                        D000000000160000000000000000000000100010010000000000000000000000F0010000008365900520160310000101 00000000000000000000000000000000000000000000000000000000000000000000000000000000000000000000000000000000000000000N 00000000000NCONT   00    00000000000          00000000000000000000000000000000000000000000 000000000000000A000000000000000000000000000000000000000000000 000000000000000000000000000000000000000     00000000                                                                                                                        000000000000000000
F0010000008366000001000000431178400011050500000000000000000201603100002001EFRAIN ALVAREZ                                    D000000002090000000000000000000000100010010000000000000000000000F0010000008366000120160310000101 00000000000000000000000000000000000000000000000000000000000000000000000000000000000000000000000000000000000000000N 00000000000NCONT   00    00000000000          00000000000000000000000000000000000000000000 000000000000000A000000000000000000000000000000000000000000000 000000000000000000000000000000000000000     00000000                                                                                                                        000000000000000000
F0010000008366000002000000431178400041450500000000000000000201603100002001EFRAIN ALVAREZ                                    C000000001840000000000000000000000100010010000000000000000000000F0010000008366000220160310000101 00000000000000000000000000000000000000000000000000000000000000000000000000000000000000000000000000000000000000000N 00000000000NCONT   00    00000000000          00000000000000000000000000000000000000000000 000000000000000A000000000000000000000000000000000000000000000 000000000000000000000000000000000000000     00000000                                                                                                                        000000000000000000
F0010000008366000003000000431178400042505000000000000000000201603100002001EFRAIN ALVAREZ                                    C000000000250000000000000000000000100010010000000000000000000000F0010000008366000320160310000101 00000000000000000000000000000000000000000000000000000000000000000000000000000000000000000000000000000000000000000N 00000000000NCONT   00    00000000000          00000000000000000000000000000000000000000000 000000000000000A000000000000000000000000000000000000000000000 000000000000000000000000000000000000000     00000000                                                                                                                        000000000000000000
F0010000008366000004000000431178400023658300000000000000000201603100002001EFRAIN ALVAREZ                                    C000000000014700000000000000000000100010010000000000000000000000F0010000008366000420160310000101 00000000000000000000000000000000000000000000000000000000000000000000000000000000000000000000000000000000000000000N 00000000000NCONT   00    00000000000          00000000000000000000000000000000000000000000 000000000000000A000000000000000000000000000000000000000000000 000000000000000000000000000000000000000     00000000                                                                                                                        000000000000000000
F0010000008366000005000000431178400013552100000000000000000201603100002001EFRAIN ALVAREZ                                    D000000000014700000000000000000000100010010000000000000000000000F0010000008366000520160310000101 00000000000000000000000000000000000000000000000000000000000000000000000000000000000000000000000000000000000000000N 00000000000NCONT   00    00000000000          00000000000000000000000000000000000000000000 000000000000000A000000000000000000000000000000000000000000000 000000000000000000000000000000000000000     00000000                                                                                                                        000000000000000000
F0010000008366100001000000431178400011050500000000000000000201603100002001EFRAIN ALVAREZ                                    D000000000970000000000000000000000100010010000000000000000000000F0010000008366100120160310000101 00000000000000000000000000000000000000000000000000000000000000000000000000000000000000000000000000000000000000000N 00000000000NCONT   00    00000000000          00000000000000000000000000000000000000000000 000000000000000A000000000000000000000000000000000000000000000 000000000000000000000000000000000000000     00000000                                                                                                                        000000000000000000
F0010000008366100002000000431178400041450500000000000000000201603100002001EFRAIN ALVAREZ                                    C000000000920000000000000000000000100010010000000000000000000000F0010000008366100220160310000101 00000000000000000000000000000000000000000000000000000000000000000000000000000000000000000000000000000000000000000N 00000000000NCONT   00    00000000000          00000000000000000000000000000000000000000000 000000000000000A000000000000000000000000000000000000000000000 000000000000000000000000000000000000000     00000000                                                                                                                        000000000000000000
F0010000008366100003000000431178400042505000000000000000000201603100002001EFRAIN ALVAREZ                                    C000000000050000000000000000000000100010010000000000000000000000F0010000008366100320160310000101 00000000000000000000000000000000000000000000000000000000000000000000000000000000000000000000000000000000000000000N 00000000000NCONT   00    00000000000          00000000000000000000000000000000000000000000 000000000000000A000000000000000000000000000000000000000000000 000000000000000000000000000000000000000     00000000                                                                                                                        000000000000000000
F0010000008366100004000000431178400023658300000000000000000201603100002001EFRAIN ALVAREZ                                    C000000000007400000000000000000000100010010000000000000000000000F0010000008366100420160310000101 00000000000000000000000000000000000000000000000000000000000000000000000000000000000000000000000000000000000000000N 00000000000NCONT   00    00000000000          00000000000000000000000000000000000000000000 000000000000000A000000000000000000000000000000000000000000000 000000000000000000000000000000000000000     00000000                                                                                                                        000000000000000000
F0010000008366100005000000431178400013552100000000000000000201603100002001EFRAIN ALVAREZ                                    D000000000007400000000000000000000100010010000000000000000000000F0010000008366100520160310000101 00000000000000000000000000000000000000000000000000000000000000000000000000000000000000000000000000000000000000000N 00000000000NCONT   00    00000000000          00000000000000000000000000000000000000000000 000000000000000A000000000000000000000000000000000000000000000 000000000000000000000000000000000000000     00000000                                                                                                                        000000000000000000
F0010000008366200001000000431178400011050500000000000000000201603100002001EFRAIN ALVAREZ                                    D000000010200000000000000000000000100010010000000000000000000000F0010000008366200120160310000101 00000000000000000000000000000000000000000000000000000000000000000000000000000000000000000000000000000000000000000N 00000000000NCONT   00    00000000000          00000000000000000000000000000000000000000000 000000000000000A000000000000000000000000000000000000000000000 000000000000000000000000000000000000000     00000000                                                                                                                        000000000000000000
F0010000008366200002000000431178400041450500000000000000000201603100002001EFRAIN ALVAREZ                                    C000000009850000000000000000000000100010010000000000000000000000F0010000008366200220160310000101 00000000000000000000000000000000000000000000000000000000000000000000000000000000000000000000000000000000000000000N 00000000000NCONT   00    00000000000          00000000000000000000000000000000000000000000 000000000000000A000000000000000000000000000000000000000000000 000000000000000000000000000000000000000     00000000                                                                                                                        000000000000000000
F0010000008366200003000000431178400042505000000000000000000201603100002001EFRAIN ALVAREZ                                    C000000000350000000000000000000000100010010000000000000000000000F0010000008366200320160310000101 00000000000000000000000000000000000000000000000000000000000000000000000000000000000000000000000000000000000000000N 00000000000NCONT   00    00000000000          00000000000000000000000000000000000000000000 000000000000000A000000000000000000000000000000000000000000000 000000000000000000000000000000000000000     00000000                                                                                                                        000000000000000000
F0010000008366200004000000431178400023658300000000000000000201603100002001EFRAIN ALVAREZ                                    C000000000078800000000000000000000100010010000000000000000000000F0010000008366200420160310000101 00000000000000000000000000000000000000000000000000000000000000000000000000000000000000000000000000000000000000000N 00000000000NCONT   00    00000000000          00000000000000000000000000000000000000000000 000000000000000A000000000000000000000000000000000000000000000 000000000000000000000000000000000000000     00000000                                                                                                                        000000000000000000
F0010000008366200005000000431178400013552100000000000000000201603100002001EFRAIN ALVAREZ                                    D000000000078800000000000000000000100010010000000000000000000000F0010000008366200520160310000101 00000000000000000000000000000000000000000000000000000000000000000000000000000000000000000000000000000000000000000N 00000000000NCONT   00    00000000000          00000000000000000000000000000000000000000000 000000000000000A000000000000000000000000000000000000000000000 000000000000000000000000000000000000000     00000000                                                                                                                        000000000000000000
F0010000008366300001000000431178400011050500000000000000000201603100002001EFRAIN ALVAREZ                                    D000000002910000000000000000000000100010010000000000000000000000F0010000008366300120160310000101 00000000000000000000000000000000000000000000000000000000000000000000000000000000000000000000000000000000000000000N 00000000000NCONT   00    00000000000          00000000000000000000000000000000000000000000 000000000000000A000000000000000000000000000000000000000000000 000000000000000000000000000000000000000     00000000                                                                                                                        000000000000000000
F0010000008366300002000000431178400041450500000000000000000201603100002001EFRAIN ALVAREZ                                    C000000002760000000000000000000000100010010000000000000000000000F0010000008366300220160310000101 00000000000000000000000000000000000000000000000000000000000000000000000000000000000000000000000000000000000000000N 00000000000NCONT   00    00000000000          00000000000000000000000000000000000000000000 000000000000000A000000000000000000000000000000000000000000000 000000000000000000000000000000000000000     00000000                                                                                                                        000000000000000000
F0010000008366300003000000431178400042505000000000000000000201603100002001EFRAIN ALVAREZ                                    C000000000150000000000000000000000100010010000000000000000000000F0010000008366300320160310000101 00000000000000000000000000000000000000000000000000000000000000000000000000000000000000000000000000000000000000000N 00000000000NCONT   00    00000000000          00000000000000000000000000000000000000000000 000000000000000A000000000000000000000000000000000000000000000 000000000000000000000000000000000000000     00000000                                                                                                                        000000000000000000
F0010000008366300004000000431178400023658300000000000000000201603100002001EFRAIN ALVAREZ                                    C000000000022100000000000000000000100010010000000000000000000000F0010000008366300420160310000101 00000000000000000000000000000000000000000000000000000000000000000000000000000000000000000000000000000000000000000N 00000000000NCONT   00    00000000000          00000000000000000000000000000000000000000000 000000000000000A000000000000000000000000000000000000000000000 000000000000000000000000000000000000000     00000000                                                                                                                        000000000000000000
F0010000008366300005000000431178400013552100000000000000000201603100002001EFRAIN ALVAREZ                                    D000000000022100000000000000000000100010010000000000000000000000F0010000008366300520160310000101 00000000000000000000000000000000000000000000000000000000000000000000000000000000000000000000000000000000000000000N 00000000000NCONT   00    00000000000          00000000000000000000000000000000000000000000 000000000000000A000000000000000000000000000000000000000000000 000000000000000000000000000000000000000     00000000                                                                                                                        000000000000000000
F0010000008366400001000000431178400011050500000000000000000201603100002001EFRAIN ALVAREZ                                    D000000002640000000000000000000000100010010000000000000000000000F0010000008366400120160310000101 00000000000000000000000000000000000000000000000000000000000000000000000000000000000000000000000000000000000000000N 00000000000NCONT   00    00000000000          00000000000000000000000000000000000000000000 000000000000000A000000000000000000000000000000000000000000000 000000000000000000000000000000000000000     00000000                                                                                                                        000000000000000000
F0010000008366400002000000431178400041450500000000000000000201603100002001EFRAIN ALVAREZ                                    C000000002540000000000000000000000100010010000000000000000000000F0010000008366400220160310000101 00000000000000000000000000000000000000000000000000000000000000000000000000000000000000000000000000000000000000000N 00000000000NCONT   00    00000000000          00000000000000000000000000000000000000000000 000000000000000A000000000000000000000000000000000000000000000 000000000000000000000000000000000000000     00000000                                                                                                                        000000000000000000
F0010000008366400003000000431178400042505000000000000000000201603100002001EFRAIN ALVAREZ                                    C000000000100000000000000000000000100010010000000000000000000000F0010000008366400320160310000101 00000000000000000000000000000000000000000000000000000000000000000000000000000000000000000000000000000000000000000N 00000000000NCONT   00    00000000000          00000000000000000000000000000000000000000000 000000000000000A000000000000000000000000000000000000000000000 000000000000000000000000000000000000000     00000000                                                                                                                        000000000000000000
F0010000008366400004000000431178400023658300000000000000000201603100002001EFRAIN ALVAREZ                                    C000000000020300000000000000000000100010010000000000000000000000F0010000008366400420160310000101 00000000000000000000000000000000000000000000000000000000000000000000000000000000000000000000000000000000000000000N 00000000000NCONT   00    00000000000          00000000000000000000000000000000000000000000 000000000000000A000000000000000000000000000000000000000000000 000000000000000000000000000000000000000     00000000                                                                                                                        000000000000000000
F0010000008366400005000000431178400013552100000000000000000201603100002001EFRAIN ALVAREZ                                    D000000000020300000000000000000000100010010000000000000000000000F0010000008366400520160310000101 00000000000000000000000000000000000000000000000000000000000000000000000000000000000000000000000000000000000000000N 00000000000NCONT   00    00000000000          00000000000000000000000000000000000000000000 000000000000000A000000000000000000000000000000000000000000000 000000000000000000000000000000000000000     00000000                                                                                                                        000000000000000000
F0010000008366500001000000431178400011050500000000000000000201603100002001EFRAIN ALVAREZ                                    D000000001940000000000000000000000100010010000000000000000000000F0010000008366500120160310000101 00000000000000000000000000000000000000000000000000000000000000000000000000000000000000000000000000000000000000000N 00000000000NCONT   00    00000000000          00000000000000000000000000000000000000000000 000000000000000A000000000000000000000000000000000000000000000 000000000000000000000000000000000000000     00000000                                                                                                                        000000000000000000
F0010000008366500002000000431178400041450500000000000000000201603100002001EFRAIN ALVAREZ                                    C000000001840000000000000000000000100010010000000000000000000000F0010000008366500220160310000101 00000000000000000000000000000000000000000000000000000000000000000000000000000000000000000000000000000000000000000N 00000000000NCONT   00    00000000000          00000000000000000000000000000000000000000000 000000000000000A000000000000000000000000000000000000000000000 000000000000000000000000000000000000000     00000000                                                                                                                        000000000000000000
F0010000008366500003000000431178400042505000000000000000000201603100002001EFRAIN ALVAREZ                                    C000000000100000000000000000000000100010010000000000000000000000F0010000008366500320160310000101 00000000000000000000000000000000000000000000000000000000000000000000000000000000000000000000000000000000000000000N 00000000000NCONT   00    00000000000          00000000000000000000000000000000000000000000 000000000000000A000000000000000000000000000000000000000000000 000000000000000000000000000000000000000     00000000                                                                                                                        000000000000000000
F0010000008366500004000000431178400023658300000000000000000201603100002001EFRAIN ALVAREZ                                    C000000000014700000000000000000000100010010000000000000000000000F0010000008366500420160310000101 00000000000000000000000000000000000000000000000000000000000000000000000000000000000000000000000000000000000000000N 00000000000NCONT   00    00000000000          00000000000000000000000000000000000000000000 000000000000000A000000000000000000000000000000000000000000000 000000000000000000000000000000000000000     00000000                                                                                                                        000000000000000000
F0010000008366500005000000431178400013552100000000000000000201603100002001EFRAIN ALVAREZ                                    D000000000014700000000000000000000100010010000000000000000000000F0010000008366500520160310000101 00000000000000000000000000000000000000000000000000000000000000000000000000000000000000000000000000000000000000000N 00000000000NCONT   00    00000000000          00000000000000000000000000000000000000000000 000000000000000A000000000000000000000000000000000000000000000 000000000000000000000000000000000000000     00000000                                                                                                                        000000000000000000
F0010000008366600001000000431178400011050500000000000000000201603100002001EFRAIN ALVAREZ                                    D000000000970000000000000000000000100010010000000000000000000000F0010000008366600120160310000101 00000000000000000000000000000000000000000000000000000000000000000000000000000000000000000000000000000000000000000N 00000000000NCONT   00    00000000000          00000000000000000000000000000000000000000000 000000000000000A000000000000000000000000000000000000000000000 000000000000000000000000000000000000000     00000000                                                                                                                        000000000000000000
F0010000008366600002000000431178400041450500000000000000000201603100002001EFRAIN ALVAREZ                                    C000000000920000000000000000000000100010010000000000000000000000F0010000008366600220160310000101 00000000000000000000000000000000000000000000000000000000000000000000000000000000000000000000000000000000000000000N 00000000000NCONT   00    00000000000          00000000000000000000000000000000000000000000 000000000000000A000000000000000000000000000000000000000000000 000000000000000000000000000000000000000     00000000                                                                                                                        000000000000000000
F0010000008366600003000000431178400042505000000000000000000201603100002001EFRAIN ALVAREZ                                    C000000000050000000000000000000000100010010000000000000000000000F0010000008366600320160310000101 00000000000000000000000000000000000000000000000000000000000000000000000000000000000000000000000000000000000000000N 00000000000NCONT   00    00000000000          00000000000000000000000000000000000000000000 000000000000000A000000000000000000000000000000000000000000000 000000000000000000000000000000000000000     00000000                                                                                                                        000000000000000000
F0010000008366600004000000431178400023658300000000000000000201603100002001EFRAIN ALVAREZ                                    C000000000007400000000000000000000100010010000000000000000000000F0010000008366600420160310000101 00000000000000000000000000000000000000000000000000000000000000000000000000000000000000000000000000000000000000000N 00000000000NCONT   00    00000000000          00000000000000000000000000000000000000000000 000000000000000A000000000000000000000000000000000000000000000 000000000000000000000000000000000000000     00000000                                                                                                                        000000000000000000
F0010000008366600005000000431178400013552100000000000000000201603100002001EFRAIN ALVAREZ                                    D000000000007400000000000000000000100010010000000000000000000000F0010000008366600520160310000101 00000000000000000000000000000000000000000000000000000000000000000000000000000000000000000000000000000000000000000N 00000000000NCONT   00    00000000000          00000000000000000000000000000000000000000000 000000000000000A000000000000000000000000000000000000000000000 000000000000000000000000000000000000000     00000000                                                                                                                        000000000000000000
F0010000008366700001000090013324200011050500000000000000000201603100002001PLASTICOHEN E.U                                   D000000013665600000000000000000000100010010000000000000000000000F0010000008366700120160310000101 00000000000000000000000000000000000000000000000000000000000000000000000000000000000000000000000000000000000000000N 00000000000NCONT   00    00000000000          00000000000000000000000000000000000000000000 000000000000000A000000000000000000000000000000000000000000000 000000000000000000000000000000000000000     00000000                                                                                                                        000000000000000000
F0010000008366700002000090013324200041450500000000000000000201603100002001PLASTICOHEN E.U                                   C000000011665600000000000000000000100010010000000000000000000000F0010000008366700220160310000101 00000000000000000000000000000000000000000000000000000000000000000000000000000000000000000000000000000000000000000N 00000000000NCONT   00    00000000000          00000000000000000000000000000000000000000000 000000000000000A000000000000000000000000000000000000000000000 000000000000000000000000000000000000000     00000000                                                                                                                        000000000000000000
F0010000008366700003000090013324200042505000000000000000000201603100002001PLASTICOHEN E.U                                   C000000002000000000000000000000000100010010000000000000000000000F0010000008366700320160310000101 00000000000000000000000000000000000000000000000000000000000000000000000000000000000000000000000000000000000000000N 00000000000NCONT   00    00000000000          00000000000000000000000000000000000000000000 000000000000000A000000000000000000000000000000000000000000000 000000000000000000000000000000000000000     00000000                                                                                                                        000000000000000000
F0010000008366700004000090013324200023658300000000000000000201603100002001PLASTICOHEN E.U                                   C000000000093300000000000000000000100010010000000000000000000000F0010000008366700420160310000101 00000000000000000000000000000000000000000000000000000000000000000000000000000000000000000000000000000000000000000N 00000000000NCONT   00    00000000000          00000000000000000000000000000000000000000000 000000000000000A000000000000000000000000000000000000000000000 000000000000000000000000000000000000000     00000000                                                                                                                        000000000000000000
F0010000008366700005000090013324200013552100000000000000000201603100002001PLASTICOHEN E.U                                   D000000000093300000000000000000000100010010000000000000000000000F0010000008366700520160310000101 00000000000000000000000000000000000000000000000000000000000000000000000000000000000000000000000000000000000000000N 00000000000NCONT   00    00000000000          00000000000000000000000000000000000000000000 000000000000000A000000000000000000000000000000000000000000000 000000000000000000000000000000000000000     00000000                                                                                                                        000000000000000000
F0010000008366800001000090034602400011050500000000000000000201603100002001PRODUCTOS NACIONALES PARAFINICOS LA CUSTODIA S.A.SD000000001100000000000000000000000100010010000000000000000000000F0010000008366800120160310000101 00000000000000000000000000000000000000000000000000000000000000000000000000000000000000000000000000000000000000000N 00000000000NCONT   00    00000000000          00000000000000000000000000000000000000000000 000000000000000A000000000000000000000000000000000000000000000 000000000000000000000000000000000000000     00000000                                                                                                                        000000000000000000
F0010000008366800002000090034602400041450500000000000000000201603100002001PRODUCTOS NACIONALES PARAFINICOS LA CUSTODIA S.A.SC000000001000000000000000000000000100010010000000000000000000000F0010000008366800220160310000101 00000000000000000000000000000000000000000000000000000000000000000000000000000000000000000000000000000000000000000N 00000000000NCONT   00    00000000000          00000000000000000000000000000000000000000000 000000000000000A000000000000000000000000000000000000000000000 000000000000000000000000000000000000000     00000000                                                                                                                        000000000000000000
F0010000008366800003000090034602400042505000000000000000000201603100002001PRODUCTOS NACIONALES PARAFINICOS LA CUSTODIA S.A.SC000000000100000000000000000000000100010010000000000000000000000F0010000008366800320160310000101 00000000000000000000000000000000000000000000000000000000000000000000000000000000000000000000000000000000000000000N 00000000000NCONT   00    00000000000          00000000000000000000000000000000000000000000 000000000000000A000000000000000000000000000000000000000000000 000000000000000000000000000000000000000     00000000                                                                                                                        000000000000000000
F0010000008366800004000090034602400023658300000000000000000201603100002001PRODUCTOS NACIONALES PARAFINICOS LA CUSTODIA S.A.SC000000000008000000000000000000000100010010000000000000000000000F0010000008366800420160310000101 00000000000000000000000000000000000000000000000000000000000000000000000000000000000000000000000000000000000000000N 00000000000NCONT   00    00000000000          00000000000000000000000000000000000000000000 000000000000000A000000000000000000000000000000000000000000000 000000000000000000000000000000000000000     00000000                                                                                                                        000000000000000000
F0010000008366800005000090034602400013552100000000000000000201603100002001PRODUCTOS NACIONALES PARAFINICOS LA CUSTODIA S.A.SD000000000008000000000000000000000100010010000000000000000000000F0010000008366800520160310000101 00000000000000000000000000000000000000000000000000000000000000000000000000000000000000000000000000000000000000000N 00000000000NCONT   00    00000000000          00000000000000000000000000000000000000000000 000000000000000A000000000000000000000000000000000000000000000 000000000000000000000000000000000000000     00000000                                                                                                                        000000000000000000
F0010000008366900001000090034602400011050500000000000000000201603100002001PRODUCTOS NACIONALES PARAFINICOS LA CUSTODIA S.A.SD000000001050000000000000000000000100010010000000000000000000000F0010000008366900120160310000101 00000000000000000000000000000000000000000000000000000000000000000000000000000000000000000000000000000000000000000N 00000000000NCONT   00    00000000000          00000000000000000000000000000000000000000000 000000000000000A000000000000000000000000000000000000000000000 000000000000000000000000000000000000000     00000000                                                                                                                        000000000000000000
F0010000008366900002000090034602400041450500000000000000000201603100002001PRODUCTOS NACIONALES PARAFINICOS LA CUSTODIA S.A.SC000000000950000000000000000000000100010010000000000000000000000F0010000008366900220160310000101 00000000000000000000000000000000000000000000000000000000000000000000000000000000000000000000000000000000000000000N 00000000000NCONT   00    00000000000          00000000000000000000000000000000000000000000 000000000000000A000000000000000000000000000000000000000000000 000000000000000000000000000000000000000     00000000                                                                                                                        000000000000000000
F0010000008366900003000090034602400042505000000000000000000201603100002001PRODUCTOS NACIONALES PARAFINICOS LA CUSTODIA S.A.SC000000000100000000000000000000000100010010000000000000000000000F0010000008366900320160310000101 00000000000000000000000000000000000000000000000000000000000000000000000000000000000000000000000000000000000000000N 00000000000NCONT   00    00000000000          00000000000000000000000000000000000000000000 000000000000000A000000000000000000000000000000000000000000000 000000000000000000000000000000000000000     00000000                                                                                                                        000000000000000000
F0010000008366900004000090034602400023658300000000000000000201603100002001PRODUCTOS NACIONALES PARAFINICOS LA CUSTODIA S.A.SC000000000007600000000000000000000100010010000000000000000000000F0010000008366900420160310000101 00000000000000000000000000000000000000000000000000000000000000000000000000000000000000000000000000000000000000000N 00000000000NCONT   00    00000000000          00000000000000000000000000000000000000000000 000000000000000A000000000000000000000000000000000000000000000 000000000000000000000000000000000000000     00000000                                                                                                                        000000000000000000
F0010000008366900005000090034602400013552100000000000000000201603100002001PRODUCTOS NACIONALES PARAFINICOS LA CUSTODIA S.A.SD000000000007600000000000000000000100010010000000000000000000000F0010000008366900520160310000101 00000000000000000000000000000000000000000000000000000000000000000000000000000000000000000000000000000000000000000N 00000000000NCONT   00    00000000000          00000000000000000000000000000000000000000000 000000000000000A000000000000000000000000000000000000000000000 000000000000000000000000000000000000000     00000000                                                                                                                        000000000000000000
F0010000008367000001000080202094000011050500000000000000000201603100002001DISTRIB. OMAR ORREGO S.A.                         D000000002000000000000000000000000100010010000000000000000000000F0010000008367000120160310000101 00000000000000000000000000000000000000000000000000000000000000000000000000000000000000000000000000000000000000000N 00000000000NCONT   00    00000000000          00000000000000000000000000000000000000000000 000000000000000A000000000000000000000000000000000000000000000 000000000000000000000000000000000000000     00000000                                                                                                                        000000000000000000
F0010000008367000002000080202094000041450500000000000000000201603100002001DISTRIB. OMAR ORREGO S.A.                         C000000001900000000000000000000000100010010000000000000000000000F0010000008367000220160310000101 00000000000000000000000000000000000000000000000000000000000000000000000000000000000000000000000000000000000000000N 00000000000NCONT   00    00000000000          00000000000000000000000000000000000000000000 000000000000000A000000000000000000000000000000000000000000000 000000000000000000000000000000000000000     00000000                                                                                                                        000000000000000000
F0010000008367000003000080202094000042505000000000000000000201603100002001DISTRIB. OMAR ORREGO S.A.                         C000000000100000000000000000000000100010010000000000000000000000F0010000008367000320160310000101 00000000000000000000000000000000000000000000000000000000000000000000000000000000000000000000000000000000000000000N 00000000000NCONT   00    00000000000          00000000000000000000000000000000000000000000 000000000000000A000000000000000000000000000000000000000000000 000000000000000000000000000000000000000     00000000                                                                                                                        000000000000000000
F0010000008367000004000080202094000023658300000000000000000201603100002001DISTRIB. OMAR ORREGO S.A.                         C000000000015200000000000000000000100010010000000000000000000000F0010000008367000420160310000101 00000000000000000000000000000000000000000000000000000000000000000000000000000000000000000000000000000000000000000N 00000000000NCONT   00    00000000000          00000000000000000000000000000000000000000000 000000000000000A000000000000000000000000000000000000000000000 000000000000000000000000000000000000000     00000000                                                                                                                        000000000000000000
F0010000008367000005000080202094000013552100000000000000000201603100002001DISTRIB. OMAR ORREGO S.A.                         D000000000015200000000000000000000100010010000000000000000000000F0010000008367000520160310000101 00000000000000000000000000000000000000000000000000000000000000000000000000000000000000000000000000000000000000000N 00000000000NCONT   00    00000000000          00000000000000000000000000000000000000000000 000000000000000A000000000000000000000000000000000000000000000 000000000000000000000000000000000000000     00000000                                                                                                                        000000000000000000
F0010000008367100001000090034602400011050500000000000000000201603100002001PRODUCTOS NACIONALES PARAFINICOS LA CUSTODIA S.A.SD000000002100000000000000000000000100010010000000000000000000000F0010000008367100120160310000101 00000000000000000000000000000000000000000000000000000000000000000000000000000000000000000000000000000000000000000N 00000000000NCONT   00    00000000000          00000000000000000000000000000000000000000000 000000000000000A000000000000000000000000000000000000000000000 000000000000000000000000000000000000000     00000000                                                                                                                        000000000000000000
F0010000008367100002000090034602400041450500000000000000000201603100002001PRODUCTOS NACIONALES PARAFINICOS LA CUSTODIA S.A.SC000000001900000000000000000000000100010010000000000000000000000F0010000008367100220160310000101 00000000000000000000000000000000000000000000000000000000000000000000000000000000000000000000000000000000000000000N 00000000000NCONT   00    00000000000          00000000000000000000000000000000000000000000 000000000000000A000000000000000000000000000000000000000000000 000000000000000000000000000000000000000     00000000                                                                                                                        000000000000000000
