F0010000007488300001000090052543100011050500000000000000000201508160002001SECRET COLOR SAS                                  D000000000850000000000000000000000100010010000000000000000000000F0010000007488300120150816000101 00000000000000000000000000000000000000000000000000000000000000000000000000000000000000000000000000000000000000000N 00000000000NCONT   00    00000000000          00000000000000000000000000000000000000000000 000000000000000A000000000000000000000000000000000000000000000 000000000000000000000000000000000000000     00000000                                                                                                                        000000000000000000
F0010000007488300002000090052543100041450500000000000000000201508160002001SECRET COLOR SAS                                  C000000000750000000000000000000000100010010000000000000000000000F0010000007488300220150816000101 00000000000000000000000000000000000000000000000000000000000000000000000000000000000000000000000000000000000000000N 00000000000NCONT   00    00000000000          00000000000000000000000000000000000000000000 000000000000000A000000000000000000000000000000000000000000000 000000000000000000000000000000000000000     00000000                                                                                                                        000000000000000000
F0010000007488300003000090052543100042505000000000000000000201508160002001SECRET COLOR SAS                                  C000000000100000000000000000000000100010010000000000000000000000F0010000007488300320150816000101 00000000000000000000000000000000000000000000000000000000000000000000000000000000000000000000000000000000000000000N 00000000000NCONT   00    00000000000          00000000000000000000000000000000000000000000 000000000000000A000000000000000000000000000000000000000000000 000000000000000000000000000000000000000     00000000                                                                                                                        000000000000000000
F0010000007488300004000090052543100023658300000000000000000201508160002001SECRET COLOR SAS                                  C000000000006000000000000000000000100010010000000000000000000000F0010000007488300420150816000101 00000000000000000000000000000000000000000000000000000000000000000000000000000000000000000000000000000000000000000N 00000000000NCONT   00    00000000000          00000000000000000000000000000000000000000000 000000000000000A000000000000000000000000000000000000000000000 000000000000000000000000000000000000000     00000000                                                                                                                        000000000000000000
F0010000007488300005000090052543100013552100000000000000000201508160002001SECRET COLOR SAS                                  D000000000006000000000000000000000100010010000000000000000000000F0010000007488300520150816000101 00000000000000000000000000000000000000000000000000000000000000000000000000000000000000000000000000000000000000000N 00000000000NCONT   00    00000000000          00000000000000000000000000000000000000000000 000000000000000A000000000000000000000000000000000000000000000 000000000000000000000000000000000000000     00000000                                                                                                                        000000000000000000
