F0010000008259000001000007213618800011050500000000000000000201602160002001JAIME LOGREIRA                                    D000000001280000000000000000000000100010010000000000000000000000F0010000008259000120160216000101 00000000000000000000000000000000000000000000000000000000000000000000000000000000000000000000000000000000000000000N 00000000000NCONT   00    00000000000          00000000000000000000000000000000000000000000 000000000000000A000000000000000000000000000000000000000000000 000000000000000000000000000000000000000     00000000                                                                                                                        000000000000000000
F0010000008259000002000007213618800041450500000000000000000201602160002001JAIME LOGREIRA                                    C000000001030000000000000000000000100010010000000000000000000000F0010000008259000220160216000101 00000000000000000000000000000000000000000000000000000000000000000000000000000000000000000000000000000000000000000N 00000000000NCONT   00    00000000000          00000000000000000000000000000000000000000000 000000000000000A000000000000000000000000000000000000000000000 000000000000000000000000000000000000000     00000000                                                                                                                        000000000000000000
F0010000008259000003000007213618800042505000000000000000000201602160002001JAIME LOGREIRA                                    C000000000250000000000000000000000100010010000000000000000000000F0010000008259000320160216000101 00000000000000000000000000000000000000000000000000000000000000000000000000000000000000000000000000000000000000000N 00000000000NCONT   00    00000000000          00000000000000000000000000000000000000000000 000000000000000A000000000000000000000000000000000000000000000 000000000000000000000000000000000000000     00000000                                                                                                                        000000000000000000
F0010000008259000004000007213618800023658300000000000000000201602160002001JAIME LOGREIRA                                    C000000000008200000000000000000000100010010000000000000000000000F0010000008259000420160216000101 00000000000000000000000000000000000000000000000000000000000000000000000000000000000000000000000000000000000000000N 00000000000NCONT   00    00000000000          00000000000000000000000000000000000000000000 000000000000000A000000000000000000000000000000000000000000000 000000000000000000000000000000000000000     00000000                                                                                                                        000000000000000000
F0010000008259000005000007213618800013552100000000000000000201602160002001JAIME LOGREIRA                                    D000000000008200000000000000000000100010010000000000000000000000F0010000008259000520160216000101 00000000000000000000000000000000000000000000000000000000000000000000000000000000000000000000000000000000000000000N 00000000000NCONT   00    00000000000          00000000000000000000000000000000000000000000 000000000000000A000000000000000000000000000000000000000000000 000000000000000000000000000000000000000     00000000                                                                                                                        000000000000000000
F0010000008259100001000007213618800011050500000000000000000201602160002001JAIME LOGREIRA                                    D000000000913000000000000000000000100010010000000000000000000000F0010000008259100120160216000101 00000000000000000000000000000000000000000000000000000000000000000000000000000000000000000000000000000000000000000N 00000000000NCONT   00    00000000000          00000000000000000000000000000000000000000000 000000000000000A000000000000000000000000000000000000000000000 000000000000000000000000000000000000000     00000000                                                                                                                        000000000000000000
F0010000008259100002000007213618800041450500000000000000000201602160002001JAIME LOGREIRA                                    C000000000800000000000000000000000100010010000000000000000000000F0010000008259100220160216000101 00000000000000000000000000000000000000000000000000000000000000000000000000000000000000000000000000000000000000000N 00000000000NCONT   00    00000000000          00000000000000000000000000000000000000000000 000000000000000A000000000000000000000000000000000000000000000 000000000000000000000000000000000000000     00000000                                                                                                                        000000000000000000
F0010000008259100003000007213618800042505000000000000000000201602160002001JAIME LOGREIRA                                    C000000000113000000000000000000000100010010000000000000000000000F0010000008259100320160216000101 00000000000000000000000000000000000000000000000000000000000000000000000000000000000000000000000000000000000000000N 00000000000NCONT   00    00000000000          00000000000000000000000000000000000000000000 000000000000000A000000000000000000000000000000000000000000000 000000000000000000000000000000000000000     00000000                                                                                                                        000000000000000000
F0010000008259100004000007213618800023658300000000000000000201602160002001JAIME LOGREIRA                                    C000000000006400000000000000000000100010010000000000000000000000F0010000008259100420160216000101 00000000000000000000000000000000000000000000000000000000000000000000000000000000000000000000000000000000000000000N 00000000000NCONT   00    00000000000          00000000000000000000000000000000000000000000 000000000000000A000000000000000000000000000000000000000000000 000000000000000000000000000000000000000     00000000                                                                                                                        000000000000000000
F0010000008259100005000007213618800013552100000000000000000201602160002001JAIME LOGREIRA                                    D000000000006400000000000000000000100010010000000000000000000000F0010000008259100520160216000101 00000000000000000000000000000000000000000000000000000000000000000000000000000000000000000000000000000000000000000N 00000000000NCONT   00    00000000000          00000000000000000000000000000000000000000000 000000000000000A000000000000000000000000000000000000000000000 000000000000000000000000000000000000000     00000000                                                                                                                        000000000000000000
F0010000008259200001000083008772100013050500000000000000000201602160002001ILUMEC SAS                                        D000000018950000000000000000000000100010010000000000000000000000F0010000008259200120160216000101 00000000000000000000000000000000000000000000000000000000000000000000000000000000000000000000000000000000000000000N 00000000000NCONT   00    00000000000          00000000000000000000000000000000000000000000 000000000000000A000000000000000000000000000000000000000000000 000000000000000000000000000000000000000     00000000                                                                                                                        000000000000000000
F0010000008259200002000083008772100041450500000000000000000201602160002001ILUMEC SAS                                        C000000013300000000000000000000000100010010000000000000000000000F0010000008259200220160216000101 00000000000000000000000000000000000000000000000000000000000000000000000000000000000000000000000000000000000000000N 00000000000NCONT   00    00000000000          00000000000000000000000000000000000000000000 000000000000000A000000000000000000000000000000000000000000000 000000000000000000000000000000000000000     00000000                                                                                                                        000000000000000000
F0010000008259200003000083008772100042505000000000000000000201602160002001ILUMEC SAS                                        C000000005650000000000000000000000100010010000000000000000000000F0010000008259200320160216000101 00000000000000000000000000000000000000000000000000000000000000000000000000000000000000000000000000000000000000000N 00000000000NCONT   00    00000000000          00000000000000000000000000000000000000000000 000000000000000A000000000000000000000000000000000000000000000 000000000000000000000000000000000000000     00000000                                                                                                                        000000000000000000
F0010000008259200004000083008772100023658300000000000000000201602160002001ILUMEC SAS                                        C000000000106400000000000000000000100010010000000000000000000000F0010000008259200420160216000101 00000000000000000000000000000000000000000000000000000000000000000000000000000000000000000000000000000000000000000N 00000000000NCONT   00    00000000000          00000000000000000000000000000000000000000000 000000000000000A000000000000000000000000000000000000000000000 000000000000000000000000000000000000000     00000000                                                                                                                        000000000000000000
F0010000008259200005000083008772100013552100000000000000000201602160002001ILUMEC SAS                                        D000000000106400000000000000000000100010010000000000000000000000F0010000008259200520160216000101 00000000000000000000000000000000000000000000000000000000000000000000000000000000000000000000000000000000000000000N 00000000000NCONT   00    00000000000          00000000000000000000000000000000000000000000 000000000000000A000000000000000000000000000000000000000000000 000000000000000000000000000000000000000     00000000                                                                                                                        000000000000000000
F0010000008259300001000090037881900013050500000000000000000201602160002001COMERCIALIZADORA RACOPI S.A.S                     D000000004130000000000000000000000100010010000000000000000000000F0010000008259300120160216000101 00000000000000000000000000000000000000000000000000000000000000000000000000000000000000000000000000000000000000000N 00000000000NCONT   00    00000000000          00000000000000000000000000000000000000000000 000000000000000A000000000000000000000000000000000000000000000 000000000000000000000000000000000000000     00000000                                                                                                                        000000000000000000
F0010000008259300002000090037881900041450500000000000000000201602160002001COMERCIALIZADORA RACOPI S.A.S                     C000000003130000000000000000000000100010010000000000000000000000F0010000008259300220160216000101 00000000000000000000000000000000000000000000000000000000000000000000000000000000000000000000000000000000000000000N 00000000000NCONT   00    00000000000          00000000000000000000000000000000000000000000 000000000000000A000000000000000000000000000000000000000000000 000000000000000000000000000000000000000     00000000                                                                                                                        000000000000000000
F0010000008259300003000090037881900042505000000000000000000201602160002001COMERCIALIZADORA RACOPI S.A.S                     C000000001000000000000000000000000100010010000000000000000000000F0010000008259300320160216000101 00000000000000000000000000000000000000000000000000000000000000000000000000000000000000000000000000000000000000000N 00000000000NCONT   00    00000000000          00000000000000000000000000000000000000000000 000000000000000A000000000000000000000000000000000000000000000 000000000000000000000000000000000000000     00000000                                                                                                                        000000000000000000
F0010000008259300004000090037881900023658300000000000000000201602160002001COMERCIALIZADORA RACOPI S.A.S                     C000000000025000000000000000000000100010010000000000000000000000F0010000008259300420160216000101 00000000000000000000000000000000000000000000000000000000000000000000000000000000000000000000000000000000000000000N 00000000000NCONT   00    00000000000          00000000000000000000000000000000000000000000 000000000000000A000000000000000000000000000000000000000000000 000000000000000000000000000000000000000     00000000                                                                                                                        000000000000000000
F0010000008259300005000090037881900013552100000000000000000201602160002001COMERCIALIZADORA RACOPI S.A.S                     D000000000025000000000000000000000100010010000000000000000000000F0010000008259300520160216000101 00000000000000000000000000000000000000000000000000000000000000000000000000000000000000000000000000000000000000000N 00000000000NCONT   00    00000000000          00000000000000000000000000000000000000000000 000000000000000A000000000000000000000000000000000000000000000 000000000000000000000000000000000000000     00000000                                                                                                                        000000000000000000
F0010000008259400001000007215902600013050500000000000000000201602160002001KRISS LORENA BLANCO  (BANTEX)                     D000000020280000000000000000000000100010010000000000000000000000F0010000008259400120160216000101 00000000000000000000000000000000000000000000000000000000000000000000000000000000000000000000000000000000000000000N 00000000000NCONT   00    00000000000          00000000000000000000000000000000000000000000 000000000000000A000000000000000000000000000000000000000000000 000000000000000000000000000000000000000     00000000                                                                                                                        000000000000000000
F0010000008259400002000007215902600041450500000000000000000201602160002001KRISS LORENA BLANCO  (BANTEX)                     C000000017980000000000000000000000100010010000000000000000000000F0010000008259400220160216000101 00000000000000000000000000000000000000000000000000000000000000000000000000000000000000000000000000000000000000000N 00000000000NCONT   00    00000000000          00000000000000000000000000000000000000000000 000000000000000A000000000000000000000000000000000000000000000 000000000000000000000000000000000000000     00000000                                                                                                                        000000000000000000
F0010000008259400003000007215902600042505000000000000000000201602160002001KRISS LORENA BLANCO  (BANTEX)                     C000000002300000000000000000000000100010010000000000000000000000F0010000008259400320160216000101 00000000000000000000000000000000000000000000000000000000000000000000000000000000000000000000000000000000000000000N 00000000000NCONT   00    00000000000          00000000000000000000000000000000000000000000 000000000000000A000000000000000000000000000000000000000000000 000000000000000000000000000000000000000     00000000                                                                                                                        000000000000000000
F0010000008259400004000007215902600023658300000000000000000201602160002001KRISS LORENA BLANCO  (BANTEX)                     C000000000143800000000000000000000100010010000000000000000000000F0010000008259400420160216000101 00000000000000000000000000000000000000000000000000000000000000000000000000000000000000000000000000000000000000000N 00000000000NCONT   00    00000000000          00000000000000000000000000000000000000000000 000000000000000A000000000000000000000000000000000000000000000 000000000000000000000000000000000000000     00000000                                                                                                                        000000000000000000
F0010000008259400005000007215902600013552100000000000000000201602160002001KRISS LORENA BLANCO  (BANTEX)                     D000000000143800000000000000000000100010010000000000000000000000F0010000008259400520160216000101 00000000000000000000000000000000000000000000000000000000000000000000000000000000000000000000000000000000000000000N 00000000000NCONT   00    00000000000          00000000000000000000000000000000000000000000 000000000000000A000000000000000000000000000000000000000000000 000000000000000000000000000000000000000     00000000                                                                                                                        000000000000000000
F0010000008259500001000089010952800013050500000000000000000201602160002001IND. LITOGRAF. BOSTON S.A.S.                      D000000091500000000000000000000000100010010000000000000000000000F0010000008259500120160216000101 00000000000000000000000000000000000000000000000000000000000000000000000000000000000000000000000000000000000000000N 00000000000NCONT   00    00000000000          00000000000000000000000000000000000000000000 000000000000000A000000000000000000000000000000000000000000000 000000000000000000000000000000000000000     00000000                                                                                                                        000000000000000000
F0010000008259500002000089010952800041450500000000000000000201602160002001IND. LITOGRAF. BOSTON S.A.S.                      C000000077350000000000000000000000100010010000000000000000000000F0010000008259500220160216000101 00000000000000000000000000000000000000000000000000000000000000000000000000000000000000000000000000000000000000000N 00000000000NCONT   00    00000000000          00000000000000000000000000000000000000000000 000000000000000A000000000000000000000000000000000000000000000 000000000000000000000000000000000000000     00000000                                                                                                                        000000000000000000
F0010000008259500003000089010952800042505000000000000000000201602160002001IND. LITOGRAF. BOSTON S.A.S.                      C000000014150000000000000000000000100010010000000000000000000000F0010000008259500320160216000101 00000000000000000000000000000000000000000000000000000000000000000000000000000000000000000000000000000000000000000N 00000000000NCONT   00    00000000000          00000000000000000000000000000000000000000000 000000000000000A000000000000000000000000000000000000000000000 000000000000000000000000000000000000000     00000000                                                                                                                        000000000000000000
F0010000008259500004000089010952800023658300000000000000000201602160002001IND. LITOGRAF. BOSTON S.A.S.                      C000000000618800000000000000000000100010010000000000000000000000F0010000008259500420160216000101 00000000000000000000000000000000000000000000000000000000000000000000000000000000000000000000000000000000000000000N 00000000000NCONT   00    00000000000          00000000000000000000000000000000000000000000 000000000000000A000000000000000000000000000000000000000000000 000000000000000000000000000000000000000     00000000                                                                                                                        000000000000000000
F0010000008259500005000089010952800013552100000000000000000201602160002001IND. LITOGRAF. BOSTON S.A.S.                      D000000000618800000000000000000000100010010000000000000000000000F0010000008259500520160216000101 00000000000000000000000000000000000000000000000000000000000000000000000000000000000000000000000000000000000000000N 00000000000NCONT   00    00000000000          00000000000000000000000000000000000000000000 000000000000000A000000000000000000000000000000000000000000000 000000000000000000000000000000000000000     00000000                                                                                                                        000000000000000000
F0010000008259600001000090020547900011050500000000000000000201602160002001COMERCIALIZADORA DAC DEL CARIBE S.A.S.            D000000003900000000000000000000000100010010000000000000000000000F0010000008259600120160216000101 00000000000000000000000000000000000000000000000000000000000000000000000000000000000000000000000000000000000000000N 00000000000NCONT   00    00000000000          00000000000000000000000000000000000000000000 000000000000000A000000000000000000000000000000000000000000000 000000000000000000000000000000000000000     00000000                                                                                                                        000000000000000000
F0010000008259600002000090020547900041450500000000000000000201602160002001COMERCIALIZADORA DAC DEL CARIBE S.A.S.            C000000003050000000000000000000000100010010000000000000000000000F0010000008259600220160216000101 00000000000000000000000000000000000000000000000000000000000000000000000000000000000000000000000000000000000000000N 00000000000NCONT   00    00000000000          00000000000000000000000000000000000000000000 000000000000000A000000000000000000000000000000000000000000000 000000000000000000000000000000000000000     00000000                                                                                                                        000000000000000000
F0010000008259600003000090020547900042505000000000000000000201602160002001COMERCIALIZADORA DAC DEL CARIBE S.A.S.            C000000000850000000000000000000000100010010000000000000000000000F0010000008259600320160216000101 00000000000000000000000000000000000000000000000000000000000000000000000000000000000000000000000000000000000000000N 00000000000NCONT   00    00000000000          00000000000000000000000000000000000000000000 000000000000000A000000000000000000000000000000000000000000000 000000000000000000000000000000000000000     00000000                                                                                                                        000000000000000000
F0010000008259600004000090020547900023658300000000000000000201602160002001COMERCIALIZADORA DAC DEL CARIBE S.A.S.            C000000000024400000000000000000000100010010000000000000000000000F0010000008259600420160216000101 00000000000000000000000000000000000000000000000000000000000000000000000000000000000000000000000000000000000000000N 00000000000NCONT   00    00000000000          00000000000000000000000000000000000000000000 000000000000000A000000000000000000000000000000000000000000000 000000000000000000000000000000000000000     00000000                                                                                                                        000000000000000000
F0010000008259600005000090020547900013552100000000000000000201602160002001COMERCIALIZADORA DAC DEL CARIBE S.A.S.            D000000000024400000000000000000000100010010000000000000000000000F0010000008259600520160216000101 00000000000000000000000000000000000000000000000000000000000000000000000000000000000000000000000000000000000000000N 00000000000NCONT   00    00000000000          00000000000000000000000000000000000000000000 000000000000000A000000000000000000000000000000000000000000000 000000000000000000000000000000000000000     00000000                                                                                                                        000000000000000000
F0010000008259700001000001022529300013050500000000000000000201602160002001ALBERTO ALVAREZ ISAZA                             D000000010520000000000000000000000100010010000000000000000000000F0010000008259700120160216000101 00000000000000000000000000000000000000000000000000000000000000000000000000000000000000000000000000000000000000000N 00000000000NCONT   00    00000000000          00000000000000000000000000000000000000000000 000000000000000A000000000000000000000000000000000000000000000 000000000000000000000000000000000000000     00000000                                                                                                                        000000000000000000
F0010000008259700002000001022529300041450500000000000000000201602160002001ALBERTO ALVAREZ ISAZA                             C000000010520000000000000000000000100010010000000000000000000000F0010000008259700220160216000101 00000000000000000000000000000000000000000000000000000000000000000000000000000000000000000000000000000000000000000N 00000000000NCONT   00    00000000000          00000000000000000000000000000000000000000000 000000000000000A000000000000000000000000000000000000000000000 000000000000000000000000000000000000000     00000000                                                                                                                        000000000000000000
F0010000008259700003000001022529300042505000000000000000000201602160002001ALBERTO ALVAREZ ISAZA                             C000000000000000000000000000000000100010010000000000000000000000F0010000008259700320160216000101 00000000000000000000000000000000000000000000000000000000000000000000000000000000000000000000000000000000000000000N 00000000000NCONT   00    00000000000          00000000000000000000000000000000000000000000 000000000000000A000000000000000000000000000000000000000000000 000000000000000000000000000000000000000     00000000                                                                                                                        000000000000000000
F0010000008259700004000001022529300023658300000000000000000201602160002001ALBERTO ALVAREZ ISAZA                             C000000000084200000000000000000000100010010000000000000000000000F0010000008259700420160216000101 00000000000000000000000000000000000000000000000000000000000000000000000000000000000000000000000000000000000000000N 00000000000NCONT   00    00000000000          00000000000000000000000000000000000000000000 000000000000000A000000000000000000000000000000000000000000000 000000000000000000000000000000000000000     00000000                                                                                                                        000000000000000000
F0010000008259700005000001022529300013552100000000000000000201602160002001ALBERTO ALVAREZ ISAZA                             D000000000084200000000000000000000100010010000000000000000000000F0010000008259700520160216000101 00000000000000000000000000000000000000000000000000000000000000000000000000000000000000000000000000000000000000000N 00000000000NCONT   00    00000000000          00000000000000000000000000000000000000000000 000000000000000A000000000000000000000000000000000000000000000 000000000000000000000000000000000000000     00000000                                                                                                                        000000000000000000
F0010000008259800001000000431178400013050500000000000000000201602160002001EFRAIN ALVAREZ                                    D000000026015000000000000000000000100010010000000000000000000000F0010000008259800120160216000101 00000000000000000000000000000000000000000000000000000000000000000000000000000000000000000000000000000000000000000N 00000000000NCONT   00    00000000000          00000000000000000000000000000000000000000000 000000000000000A000000000000000000000000000000000000000000000 000000000000000000000000000000000000000     00000000                                                                                                                        000000000000000000
F0010000008259800002000000431178400041450500000000000000000201602160002001EFRAIN ALVAREZ                                    C000000023390000000000000000000000100010010000000000000000000000F0010000008259800220160216000101 00000000000000000000000000000000000000000000000000000000000000000000000000000000000000000000000000000000000000000N 00000000000NCONT   00    00000000000          00000000000000000000000000000000000000000000 000000000000000A000000000000000000000000000000000000000000000 000000000000000000000000000000000000000     00000000                                                                                                                        000000000000000000
F0010000008259800003000000431178400042505000000000000000000201602160002001EFRAIN ALVAREZ                                    C000000002625000000000000000000000100010010000000000000000000000F0010000008259800320160216000101 00000000000000000000000000000000000000000000000000000000000000000000000000000000000000000000000000000000000000000N 00000000000NCONT   00    00000000000          00000000000000000000000000000000000000000000 000000000000000A000000000000000000000000000000000000000000000 000000000000000000000000000000000000000     00000000                                                                                                                        000000000000000000
F0010000008259800004000000431178400023658300000000000000000201602160002001EFRAIN ALVAREZ                                    C000000000187100000000000000000000100010010000000000000000000000F0010000008259800420160216000101 00000000000000000000000000000000000000000000000000000000000000000000000000000000000000000000000000000000000000000N 00000000000NCONT   00    00000000000          00000000000000000000000000000000000000000000 000000000000000A000000000000000000000000000000000000000000000 000000000000000000000000000000000000000     00000000                                                                                                                        000000000000000000
F0010000008259800005000000431178400013552100000000000000000201602160002001EFRAIN ALVAREZ                                    D000000000187100000000000000000000100010010000000000000000000000F0010000008259800520160216000101 00000000000000000000000000000000000000000000000000000000000000000000000000000000000000000000000000000000000000000N 00000000000NCONT   00    00000000000          00000000000000000000000000000000000000000000 000000000000000A000000000000000000000000000000000000000000000 000000000000000000000000000000000000000     00000000                                                                                                                        000000000000000000
F0010000008259900001000089031248700013050500000000000000000201602160002001DISTRIBUIDORA CALIPLASTICOS LTDA                  D000000078835600000000000000000000100010010000000000000000000000F0010000008259900120160216000101 00000000000000000000000000000000000000000000000000000000000000000000000000000000000000000000000000000000000000000N 00000000000NCONT   00    00000000000          00000000000000000000000000000000000000000000 000000000000000A000000000000000000000000000000000000000000000 000000000000000000000000000000000000000     00000000                                                                                                                        000000000000000000
F0010000008259900002000089031248700041450500000000000000000201602160002001DISTRIBUIDORA CALIPLASTICOS LTDA                  C000000076665600000000000000000000100010010000000000000000000000F0010000008259900220160216000101 00000000000000000000000000000000000000000000000000000000000000000000000000000000000000000000000000000000000000000N 00000000000NCONT   00    00000000000          00000000000000000000000000000000000000000000 000000000000000A000000000000000000000000000000000000000000000 000000000000000000000000000000000000000     00000000                                                                                                                        000000000000000000
F0010000008259900003000089031248700042505000000000000000000201602160002001DISTRIBUIDORA CALIPLASTICOS LTDA                  C000000002170000000000000000000000100010010000000000000000000000F0010000008259900320160216000101 00000000000000000000000000000000000000000000000000000000000000000000000000000000000000000000000000000000000000000N 00000000000NCONT   00    00000000000          00000000000000000000000000000000000000000000 000000000000000A000000000000000000000000000000000000000000000 000000000000000000000000000000000000000     00000000                                                                                                                        000000000000000000
F0010000008259900004000089031248700023658300000000000000000201602160002001DISTRIBUIDORA CALIPLASTICOS LTDA                  C000000000613300000000000000000000100010010000000000000000000000F0010000008259900420160216000101 00000000000000000000000000000000000000000000000000000000000000000000000000000000000000000000000000000000000000000N 00000000000NCONT   00    00000000000          00000000000000000000000000000000000000000000 000000000000000A000000000000000000000000000000000000000000000 000000000000000000000000000000000000000     00000000                                                                                                                        000000000000000000
F0010000008259900005000089031248700013552100000000000000000201602160002001DISTRIBUIDORA CALIPLASTICOS LTDA                  D000000000613300000000000000000000100010010000000000000000000000F0010000008259900520160216000101 00000000000000000000000000000000000000000000000000000000000000000000000000000000000000000000000000000000000000000N 00000000000NCONT   00    00000000000          00000000000000000000000000000000000000000000 000000000000000A000000000000000000000000000000000000000000000 000000000000000000000000000000000000000     00000000                                                                                                                        000000000000000000
F0010000008260000001000080010983700013050500000000000000000201602160002001OHM LTDA                                          D000000020150000000000000000000000100010010000000000000000000000F0010000008260000120160216000101 00000000000000000000000000000000000000000000000000000000000000000000000000000000000000000000000000000000000000000N 00000000000NCONT   00    00000000000          00000000000000000000000000000000000000000000 000000000000000A000000000000000000000000000000000000000000000 000000000000000000000000000000000000000     00000000                                                                                                                        000000000000000000
F0010000008260000002000080010983700041450500000000000000000201602160002001OHM LTDA                                          C000000019910000000000000000000000100010010000000000000000000000F0010000008260000220160216000101 00000000000000000000000000000000000000000000000000000000000000000000000000000000000000000000000000000000000000000N 00000000000NCONT   00    00000000000          00000000000000000000000000000000000000000000 000000000000000A000000000000000000000000000000000000000000000 000000000000000000000000000000000000000     00000000                                                                                                                        000000000000000000
F0010000008260000003000080010983700042505000000000000000000201602160002001OHM LTDA                                          C000000000240000000000000000000000100010010000000000000000000000F0010000008260000320160216000101 00000000000000000000000000000000000000000000000000000000000000000000000000000000000000000000000000000000000000000N 00000000000NCONT   00    00000000000          00000000000000000000000000000000000000000000 000000000000000A000000000000000000000000000000000000000000000 000000000000000000000000000000000000000     00000000                                                                                                                        000000000000000000
F0010000008260000004000080010983700023658300000000000000000201602160002001OHM LTDA                                          C000000000159300000000000000000000100010010000000000000000000000F0010000008260000420160216000101 00000000000000000000000000000000000000000000000000000000000000000000000000000000000000000000000000000000000000000N 00000000000NCONT   00    00000000000          00000000000000000000000000000000000000000000 000000000000000A000000000000000000000000000000000000000000000 000000000000000000000000000000000000000     00000000                                                                                                                        000000000000000000
F0010000008260000005000080010983700013552100000000000000000201602160002001OHM LTDA                                          D000000000159300000000000000000000100010010000000000000000000000F0010000008260000520160216000101 00000000000000000000000000000000000000000000000000000000000000000000000000000000000000000000000000000000000000000N 00000000000NCONT   00    00000000000          00000000000000000000000000000000000000000000 000000000000000A000000000000000000000000000000000000000000000 000000000000000000000000000000000000000     00000000                                                                                                                        000000000000000000
F0010000008260100001000007215896800013050500000000000000000201602160002001EDDIER CIRO                                       D000000037070200000000000000000000100010010000000000000000000000F0010000008260100120160216000101 00000000000000000000000000000000000000000000000000000000000000000000000000000000000000000000000000000000000000000N 00000000000NCONT   00    00000000000          00000000000000000000000000000000000000000000 000000000000000A000000000000000000000000000000000000000000000 000000000000000000000000000000000000000     00000000                                                                                                                        000000000000000000
F0010000008260100002000007215896800041450500000000000000000201602160002001EDDIER CIRO                                       C000000025960000000000000000000000100010010000000000000000000000F0010000008260100220160216000101 00000000000000000000000000000000000000000000000000000000000000000000000000000000000000000000000000000000000000000N 00000000000NCONT   00    00000000000          00000000000000000000000000000000000000000000 000000000000000A000000000000000000000000000000000000000000000 000000000000000000000000000000000000000     00000000                                                                                                                        000000000000000000
F0010000008260100003000007215896800042505000000000000000000201602160002001EDDIER CIRO                                       C000000011110200000000000000000000100010010000000000000000000000F0010000008260100320160216000101 00000000000000000000000000000000000000000000000000000000000000000000000000000000000000000000000000000000000000000N 00000000000NCONT   00    00000000000          00000000000000000000000000000000000000000000 000000000000000A000000000000000000000000000000000000000000000 000000000000000000000000000000000000000     00000000                                                                                                                        000000000000000000
F0010000008260100004000007215896800023658300000000000000000201602160002001EDDIER CIRO                                       C000000000207700000000000000000000100010010000000000000000000000F0010000008260100420160216000101 00000000000000000000000000000000000000000000000000000000000000000000000000000000000000000000000000000000000000000N 00000000000NCONT   00    00000000000          00000000000000000000000000000000000000000000 000000000000000A000000000000000000000000000000000000000000000 000000000000000000000000000000000000000     00000000                                                                                                                        000000000000000000
F0010000008260100005000007215896800013552100000000000000000201602160002001EDDIER CIRO                                       D000000000207700000000000000000000100010010000000000000000000000F0010000008260100520160216000101 00000000000000000000000000000000000000000000000000000000000000000000000000000000000000000000000000000000000000000N 00000000000NCONT   00    00000000000          00000000000000000000000000000000000000000000 000000000000000A000000000000000000000000000000000000000000000 000000000000000000000000000000000000000     00000000                                                                                                                        000000000000000000
F0010000008260200001000080001063400013050500000000000000000201602160002001PRODUCTOS JULIAO SAS                              D000000021649300000000000000000000100010010000000000000000000000F0010000008260200120160216000101 00000000000000000000000000000000000000000000000000000000000000000000000000000000000000000000000000000000000000000N 00000000000NCONT   00    00000000000          00000000000000000000000000000000000000000000 000000000000000A000000000000000000000000000000000000000000000 000000000000000000000000000000000000000     00000000                                                                                                                        000000000000000000
F0010000008260200002000080001063400041450500000000000000000201602160002001PRODUCTOS JULIAO SAS                              C000000020686700000000000000000000100010010000000000000000000000F0010000008260200220160216000101 00000000000000000000000000000000000000000000000000000000000000000000000000000000000000000000000000000000000000000N 00000000000NCONT   00    00000000000          00000000000000000000000000000000000000000000 000000000000000A000000000000000000000000000000000000000000000 000000000000000000000000000000000000000     00000000                                                                                                                        000000000000000000
F0010000008260200003000080001063400042505000000000000000000201602160002001PRODUCTOS JULIAO SAS                              C000000000962600000000000000000000100010010000000000000000000000F0010000008260200320160216000101 00000000000000000000000000000000000000000000000000000000000000000000000000000000000000000000000000000000000000000N 00000000000NCONT   00    00000000000          00000000000000000000000000000000000000000000 000000000000000A000000000000000000000000000000000000000000000 000000000000000000000000000000000000000     00000000                                                                                                                        000000000000000000
F0010000008260200004000080001063400023658300000000000000000201602160002001PRODUCTOS JULIAO SAS                              C000000000165500000000000000000000100010010000000000000000000000F0010000008260200420160216000101 00000000000000000000000000000000000000000000000000000000000000000000000000000000000000000000000000000000000000000N 00000000000NCONT   00    00000000000          00000000000000000000000000000000000000000000 000000000000000A000000000000000000000000000000000000000000000 000000000000000000000000000000000000000     00000000                                                                                                                        000000000000000000
F0010000008260200005000080001063400013552100000000000000000201602160002001PRODUCTOS JULIAO SAS                              D000000000165500000000000000000000100010010000000000000000000000F0010000008260200520160216000101 00000000000000000000000000000000000000000000000000000000000000000000000000000000000000000000000000000000000000000N 00000000000NCONT   00    00000000000          00000000000000000000000000000000000000000000 000000000000000A000000000000000000000000000000000000000000000 000000000000000000000000000000000000000     00000000                                                                                                                        000000000000000000
F0010000008260300001000089011078600013050500000000000000000201602160002001DIST. NUEVO MUNDO S.A.S.                          D000000010637800000000000000000000100010010000000000000000000000F0010000008260300120160216000101 00000000000000000000000000000000000000000000000000000000000000000000000000000000000000000000000000000000000000000N 00000000000NCONT   00    00000000000          00000000000000000000000000000000000000000000 000000000000000A000000000000000000000000000000000000000000000 000000000000000000000000000000000000000     00000000                                                                                                                        000000000000000000
F0010000008260300002000089011078600041450500000000000000000201602160002001DIST. NUEVO MUNDO S.A.S.                          C000000009380000000000000000000000100010010000000000000000000000F0010000008260300220160216000101 00000000000000000000000000000000000000000000000000000000000000000000000000000000000000000000000000000000000000000N 00000000000NCONT   00    00000000000          00000000000000000000000000000000000000000000 000000000000000A000000000000000000000000000000000000000000000 000000000000000000000000000000000000000     00000000                                                                                                                        000000000000000000
F0010000008260300003000089011078600042505000000000000000000201602160002001DIST. NUEVO MUNDO S.A.S.                          C000000001257800000000000000000000100010010000000000000000000000F0010000008260300320160216000101 00000000000000000000000000000000000000000000000000000000000000000000000000000000000000000000000000000000000000000N 00000000000NCONT   00    00000000000          00000000000000000000000000000000000000000000 000000000000000A000000000000000000000000000000000000000000000 000000000000000000000000000000000000000     00000000                                                                                                                        000000000000000000
F0010000008260300004000089011078600023658300000000000000000201602160002001DIST. NUEVO MUNDO S.A.S.                          C000000000075000000000000000000000100010010000000000000000000000F0010000008260300420160216000101 00000000000000000000000000000000000000000000000000000000000000000000000000000000000000000000000000000000000000000N 00000000000NCONT   00    00000000000          00000000000000000000000000000000000000000000 000000000000000A000000000000000000000000000000000000000000000 000000000000000000000000000000000000000     00000000                                                                                                                        000000000000000000
F0010000008260300005000089011078600013552100000000000000000201602160002001DIST. NUEVO MUNDO S.A.S.                          D000000000075000000000000000000000100010010000000000000000000000F0010000008260300520160216000101 00000000000000000000000000000000000000000000000000000000000000000000000000000000000000000000000000000000000000000N 00000000000NCONT   00    00000000000          00000000000000000000000000000000000000000000 000000000000000A000000000000000000000000000000000000000000000 000000000000000000000000000000000000000     00000000                                                                                                                        000000000000000000
F0010000008260400001000089030195100013050500000000000000000201602160002001LIBRERIA NACIONAL S.A.                            D000000029060000000000000000000000100010010000000000000000000000F0010000008260400120160216000101 00000000000000000000000000000000000000000000000000000000000000000000000000000000000000000000000000000000000000000N 00000000000NCONT   00    00000000000          00000000000000000000000000000000000000000000 000000000000000A000000000000000000000000000000000000000000000 000000000000000000000000000000000000000     00000000                                                                                                                        000000000000000000
F0010000008260400002000089030195100041450500000000000000000201602160002001LIBRERIA NACIONAL S.A.                            C000000023620000000000000000000000100010010000000000000000000000F0010000008260400220160216000101 00000000000000000000000000000000000000000000000000000000000000000000000000000000000000000000000000000000000000000N 00000000000NCONT   00    00000000000          00000000000000000000000000000000000000000000 000000000000000A000000000000000000000000000000000000000000000 000000000000000000000000000000000000000     00000000                                                                                                                        000000000000000000
F0010000008260400003000089030195100042505000000000000000000201602160002001LIBRERIA NACIONAL S.A.                            C000000005440000000000000000000000100010010000000000000000000000F0010000008260400320160216000101 00000000000000000000000000000000000000000000000000000000000000000000000000000000000000000000000000000000000000000N 00000000000NCONT   00    00000000000          00000000000000000000000000000000000000000000 000000000000000A000000000000000000000000000000000000000000000 000000000000000000000000000000000000000     00000000                                                                                                                        000000000000000000
F0010000008260400004000089030195100023658300000000000000000201602160002001LIBRERIA NACIONAL S.A.                            C000000000189000000000000000000000100010010000000000000000000000F0010000008260400420160216000101 00000000000000000000000000000000000000000000000000000000000000000000000000000000000000000000000000000000000000000N 00000000000NCONT   00    00000000000          00000000000000000000000000000000000000000000 000000000000000A000000000000000000000000000000000000000000000 000000000000000000000000000000000000000     00000000                                                                                                                        000000000000000000
F0010000008260400005000089030195100013552100000000000000000201602160002001LIBRERIA NACIONAL S.A.                            D000000000189000000000000000000000100010010000000000000000000000F0010000008260400520160216000101 00000000000000000000000000000000000000000000000000000000000000000000000000000000000000000000000000000000000000000N 00000000000NCONT   00    00000000000          00000000000000000000000000000000000000000000 000000000000000A000000000000000000000000000000000000000000000 000000000000000000000000000000000000000     00000000                                                                                                                        000000000000000000
F0010000008260500001000086003979400013050500000000000000000201602160002001CALYPSO BARRANQUILLA LTDA                         D000000023621200000000000000000000100010010000000000000000000000F0010000008260500120160216000101 00000000000000000000000000000000000000000000000000000000000000000000000000000000000000000000000000000000000000000N 00000000000NCONT   00    00000000000          00000000000000000000000000000000000000000000 000000000000000A000000000000000000000000000000000000000000000 000000000000000000000000000000000000000     00000000                                                                                                                        000000000000000000
F0010000008260500002000086003979400041450500000000000000000201602160002001CALYPSO BARRANQUILLA LTDA                         C000000022380000000000000000000000100010010000000000000000000000F0010000008260500220160216000101 00000000000000000000000000000000000000000000000000000000000000000000000000000000000000000000000000000000000000000N 00000000000NCONT   00    00000000000          00000000000000000000000000000000000000000000 000000000000000A000000000000000000000000000000000000000000000 000000000000000000000000000000000000000     00000000                                                                                                                        000000000000000000
F0010000008260500003000086003979400042505000000000000000000201602160002001CALYPSO BARRANQUILLA LTDA                         C000000001241200000000000000000000100010010000000000000000000000F0010000008260500320160216000101 00000000000000000000000000000000000000000000000000000000000000000000000000000000000000000000000000000000000000000N 00000000000NCONT   00    00000000000          00000000000000000000000000000000000000000000 000000000000000A000000000000000000000000000000000000000000000 000000000000000000000000000000000000000     00000000                                                                                                                        000000000000000000
F0010000008260500004000086003979400023658300000000000000000201602160002001CALYPSO BARRANQUILLA LTDA                         C000000000179000000000000000000000100010010000000000000000000000F0010000008260500420160216000101 00000000000000000000000000000000000000000000000000000000000000000000000000000000000000000000000000000000000000000N 00000000000NCONT   00    00000000000          00000000000000000000000000000000000000000000 000000000000000A000000000000000000000000000000000000000000000 000000000000000000000000000000000000000     00000000                                                                                                                        000000000000000000
F0010000008260500005000086003979400013552100000000000000000201602160002001CALYPSO BARRANQUILLA LTDA                         D000000000179000000000000000000000100010010000000000000000000000F0010000008260500520160216000101 00000000000000000000000000000000000000000000000000000000000000000000000000000000000000000000000000000000000000000N 00000000000NCONT   00    00000000000          00000000000000000000000000000000000000000000 000000000000000A000000000000000000000000000000000000000000000 000000000000000000000000000000000000000     00000000                                                                                                                        000000000000000000
F0010000008260600001000089010272700013050500000000000000000201602160002001ALFONSOEME S.A.                                   D000000026471600000000000000000000100010010000000000000000000000F0010000008260600120160216000101 00000000000000000000000000000000000000000000000000000000000000000000000000000000000000000000000000000000000000000N 00000000000NCONT   00    00000000000          00000000000000000000000000000000000000000000 000000000000000A000000000000000000000000000000000000000000000 000000000000000000000000000000000000000     00000000                                                                                                                        000000000000000000
F0010000008260600002000089010272700041450500000000000000000201602160002001ALFONSOEME S.A.                                   C000000025324000000000000000000000100010010000000000000000000000F0010000008260600220160216000101 00000000000000000000000000000000000000000000000000000000000000000000000000000000000000000000000000000000000000000N 00000000000NCONT   00    00000000000          00000000000000000000000000000000000000000000 000000000000000A000000000000000000000000000000000000000000000 000000000000000000000000000000000000000     00000000                                                                                                                        000000000000000000
F0010000008260600003000089010272700041750100000000000000000201602160002001ALFONSOEME S.A.                                   D000000002532400000000000000000000100010010000000000000000000000F0010000008260600320160216000101 00000000000000000000000000000000000000000000000000000000000000000000000000000000000000000000000000000000000000000N 00000000000NCONT   00    00000000000          00000000000000000000000000000000000000000000 000000000000000A000000000000000000000000000000000000000000000 000000000000000000000000000000000000000     00000000                                                                                                                        000000000000000000
F0010000008260600004000089010272700042505000000000000000000201602160002001ALFONSOEME S.A.                                   C000000003680000000000000000000000100010010000000000000000000000F0010000008260600420160216000101 00000000000000000000000000000000000000000000000000000000000000000000000000000000000000000000000000000000000000000N 00000000000NCONT   00    00000000000          00000000000000000000000000000000000000000000 000000000000000A000000000000000000000000000000000000000000000 000000000000000000000000000000000000000     00000000                                                                                                                        000000000000000000
F0010000008260600005000089010272700023658300000000000000000201602160002001ALFONSOEME S.A.                                   C000000000202600000000000000000000100010010000000000000000000000F0010000008260600520160216000101 00000000000000000000000000000000000000000000000000000000000000000000000000000000000000000000000000000000000000000N 00000000000NCONT   00    00000000000          00000000000000000000000000000000000000000000 000000000000000A000000000000000000000000000000000000000000000 000000000000000000000000000000000000000     00000000                                                                                                                        000000000000000000
F0010000008260600006000089010272700013552100000000000000000201602160002001ALFONSOEME S.A.                                   D000000000202600000000000000000000100010010000000000000000000000F0010000008260600620160216000101 00000000000000000000000000000000000000000000000000000000000000000000000000000000000000000000000000000000000000000N 00000000000NCONT   00    00000000000          00000000000000000000000000000000000000000000 000000000000000A000000000000000000000000000000000000000000000 000000000000000000000000000000000000000     00000000                                                                                                                        000000000000000000
F0010000008260700001000089010272700013050500000000000000000201602160002001ALFONSOEME S.A.                                   D000000001599000000000000000000000100010010000000000000000000000F0010000008260700120160216000101 00000000000000000000000000000000000000000000000000000000000000000000000000000000000000000000000000000000000000000N 00000000000NCONT   00    00000000000          00000000000000000000000000000000000000000000 000000000000000A000000000000000000000000000000000000000000000 000000000000000000000000000000000000000     00000000                                                                                                                        000000000000000000
F0010000008260700002000089010272700041450500000000000000000201602160002001ALFONSOEME S.A.                                   C000000001510000000000000000000000100010010000000000000000000000F0010000008260700220160216000101 00000000000000000000000000000000000000000000000000000000000000000000000000000000000000000000000000000000000000000N 00000000000NCONT   00    00000000000          00000000000000000000000000000000000000000000 000000000000000A000000000000000000000000000000000000000000000 000000000000000000000000000000000000000     00000000                                                                                                                        000000000000000000
F0010000008260700003000089010272700041750100000000000000000201602160002001ALFONSOEME S.A.                                   D000000000151000000000000000000000100010010000000000000000000000F0010000008260700320160216000101 00000000000000000000000000000000000000000000000000000000000000000000000000000000000000000000000000000000000000000N 00000000000NCONT   00    00000000000          00000000000000000000000000000000000000000000 000000000000000A000000000000000000000000000000000000000000000 000000000000000000000000000000000000000     00000000                                                                                                                        000000000000000000
F0010000008260700004000089010272700042505000000000000000000201602160002001ALFONSOEME S.A.                                   C000000000240000000000000000000000100010010000000000000000000000F0010000008260700420160216000101 00000000000000000000000000000000000000000000000000000000000000000000000000000000000000000000000000000000000000000N 00000000000NCONT   00    00000000000          00000000000000000000000000000000000000000000 000000000000000A000000000000000000000000000000000000000000000 000000000000000000000000000000000000000     00000000                                                                                                                        000000000000000000
F0010000008260700005000089010272700023658300000000000000000201602160002001ALFONSOEME S.A.                                   C000000000012100000000000000000000100010010000000000000000000000F0010000008260700520160216000101 00000000000000000000000000000000000000000000000000000000000000000000000000000000000000000000000000000000000000000N 00000000000NCONT   00    00000000000          00000000000000000000000000000000000000000000 000000000000000A000000000000000000000000000000000000000000000 000000000000000000000000000000000000000     00000000                                                                                                                        000000000000000000
F0010000008260700006000089010272700013552100000000000000000201602160002001ALFONSOEME S.A.                                   D000000000012100000000000000000000100010010000000000000000000000F0010000008260700620160216000101 00000000000000000000000000000000000000000000000000000000000000000000000000000000000000000000000000000000000000000N 00000000000NCONT   00    00000000000          00000000000000000000000000000000000000000000 000000000000000A000000000000000000000000000000000000000000000 000000000000000000000000000000000000000     00000000                                                                                                                        000000000000000000
F0010000008260800001000080012418800013050500000000000000000201602160002001DISTRITEC S.A.S                                   D000000009660000000000000000000000100010010000000000000000000000F0010000008260800120160216000101 00000000000000000000000000000000000000000000000000000000000000000000000000000000000000000000000000000000000000000N 00000000000NCONT   00    00000000000          00000000000000000000000000000000000000000000 000000000000000A000000000000000000000000000000000000000000000 000000000000000000000000000000000000000     00000000                                                                                                                        000000000000000000
F0010000008260800002000080012418800041450500000000000000000201602160002001DISTRITEC S.A.S                                   C000000009100000000000000000000000100010010000000000000000000000F0010000008260800220160216000101 00000000000000000000000000000000000000000000000000000000000000000000000000000000000000000000000000000000000000000N 00000000000NCONT   00    00000000000          00000000000000000000000000000000000000000000 000000000000000A000000000000000000000000000000000000000000000 000000000000000000000000000000000000000     00000000                                                                                                                        000000000000000000
F0010000008260800003000080012418800042505000000000000000000201602160002001DISTRITEC S.A.S                                   C000000000560000000000000000000000100010010000000000000000000000F0010000008260800320160216000101 00000000000000000000000000000000000000000000000000000000000000000000000000000000000000000000000000000000000000000N 00000000000NCONT   00    00000000000          00000000000000000000000000000000000000000000 000000000000000A000000000000000000000000000000000000000000000 000000000000000000000000000000000000000     00000000                                                                                                                        000000000000000000
F0010000008260800004000080012418800023658300000000000000000201602160002001DISTRITEC S.A.S                                   C000000000072800000000000000000000100010010000000000000000000000F0010000008260800420160216000101 00000000000000000000000000000000000000000000000000000000000000000000000000000000000000000000000000000000000000000N 00000000000NCONT   00    00000000000          00000000000000000000000000000000000000000000 000000000000000A000000000000000000000000000000000000000000000 000000000000000000000000000000000000000     00000000                                                                                                                        000000000000000000
F0010000008260800005000080012418800013552100000000000000000201602160002001DISTRITEC S.A.S                                   D000000000072800000000000000000000100010010000000000000000000000F0010000008260800520160216000101 00000000000000000000000000000000000000000000000000000000000000000000000000000000000000000000000000000000000000000N 00000000000NCONT   00    00000000000          00000000000000000000000000000000000000000000 000000000000000A000000000000000000000000000000000000000000000 000000000000000000000000000000000000000     00000000                                                                                                                        000000000000000000
F0010000008260900001000090036646700013050500000000000000000201602160002001FERREPROYECTOS S.A.S                              D000000008000000000000000000000000100010010000000000000000000000F0010000008260900120160216000101 00000000000000000000000000000000000000000000000000000000000000000000000000000000000000000000000000000000000000000N 00000000000NCONT   00    00000000000          00000000000000000000000000000000000000000000 000000000000000A000000000000000000000000000000000000000000000 000000000000000000000000000000000000000     00000000                                                                                                                        000000000000000000
F0010000008260900002000090036646700041450500000000000000000201602160002001FERREPROYECTOS S.A.S                              C000000007900000000000000000000000100010010000000000000000000000F0010000008260900220160216000101 00000000000000000000000000000000000000000000000000000000000000000000000000000000000000000000000000000000000000000N 00000000000NCONT   00    00000000000          00000000000000000000000000000000000000000000 000000000000000A000000000000000000000000000000000000000000000 000000000000000000000000000000000000000     00000000                                                                                                                        000000000000000000
F0010000008260900003000090036646700042505000000000000000000201602160002001FERREPROYECTOS S.A.S                              C000000000100000000000000000000000100010010000000000000000000000F0010000008260900320160216000101 00000000000000000000000000000000000000000000000000000000000000000000000000000000000000000000000000000000000000000N 00000000000NCONT   00    00000000000          00000000000000000000000000000000000000000000 000000000000000A000000000000000000000000000000000000000000000 000000000000000000000000000000000000000     00000000                                                                                                                        000000000000000000
F0010000008260900004000090036646700023658300000000000000000201602160002001FERREPROYECTOS S.A.S                              C000000000063200000000000000000000100010010000000000000000000000F0010000008260900420160216000101 00000000000000000000000000000000000000000000000000000000000000000000000000000000000000000000000000000000000000000N 00000000000NCONT   00    00000000000          00000000000000000000000000000000000000000000 000000000000000A000000000000000000000000000000000000000000000 000000000000000000000000000000000000000     00000000                                                                                                                        000000000000000000
F0010000008260900005000090036646700013552100000000000000000201602160002001FERREPROYECTOS S.A.S                              D000000000063200000000000000000000100010010000000000000000000000F0010000008260900520160216000101 00000000000000000000000000000000000000000000000000000000000000000000000000000000000000000000000000000000000000000N 00000000000NCONT   00    00000000000          00000000000000000000000000000000000000000000 000000000000000A000000000000000000000000000000000000000000000 000000000000000000000000000000000000000     00000000                                                                                                                        000000000000000000
F0010000008261000001000003900336900011050500000000000000000201602160002001LUISA FERNANDA BOLAOS                           D000000001870000000000000000000000100010010000000000000000000000F0010000008261000120160216000101 00000000000000000000000000000000000000000000000000000000000000000000000000000000000000000000000000000000000000000N 00000000000NCONT   00    00000000000          00000000000000000000000000000000000000000000 000000000000000A000000000000000000000000000000000000000000000 000000000000000000000000000000000000000     00000000                                                                                                                        000000000000000000
F0010000008261000002000003900336900041450500000000000000000201602160002001LUISA FERNANDA BOLAOS                           C000000001520000000000000000000000100010010000000000000000000000F0010000008261000220160216000101 00000000000000000000000000000000000000000000000000000000000000000000000000000000000000000000000000000000000000000N 00000000000NCONT   00    00000000000          00000000000000000000000000000000000000000000 000000000000000A000000000000000000000000000000000000000000000 000000000000000000000000000000000000000     00000000                                                                                                                        000000000000000000
F0010000008261000003000003900336900042505000000000000000000201602160002001LUISA FERNANDA BOLAOS                           C000000000350000000000000000000000100010010000000000000000000000F0010000008261000320160216000101 00000000000000000000000000000000000000000000000000000000000000000000000000000000000000000000000000000000000000000N 00000000000NCONT   00    00000000000          00000000000000000000000000000000000000000000 000000000000000A000000000000000000000000000000000000000000000 000000000000000000000000000000000000000     00000000                                                                                                                        000000000000000000
F0010000008261000004000003900336900023658300000000000000000201602160002001LUISA FERNANDA BOLAOS                           C000000000012200000000000000000000100010010000000000000000000000F0010000008261000420160216000101 00000000000000000000000000000000000000000000000000000000000000000000000000000000000000000000000000000000000000000N 00000000000NCONT   00    00000000000          00000000000000000000000000000000000000000000 000000000000000A000000000000000000000000000000000000000000000 000000000000000000000000000000000000000     00000000                                                                                                                        000000000000000000
F0010000008261000005000003900336900013552100000000000000000201602160002001LUISA FERNANDA BOLAOS                           D000000000012200000000000000000000100010010000000000000000000000F0010000008261000520160216000101 00000000000000000000000000000000000000000000000000000000000000000000000000000000000000000000000000000000000000000N 00000000000NCONT   00    00000000000          00000000000000000000000000000000000000000000 000000000000000A000000000000000000000000000000000000000000000 000000000000000000000000000000000000000     00000000                                                                                                                        000000000000000000
F0010000008261100001000080010919700013050500000000000000000201602160002001PAPEL MUEBLES LTDA                                D000000006534000000000000000000000100010010000000000000000000000F0010000008261100120160216000101 00000000000000000000000000000000000000000000000000000000000000000000000000000000000000000000000000000000000000000N 00000000000NCONT   00    00000000000          00000000000000000000000000000000000000000000 000000000000000A000000000000000000000000000000000000000000000 000000000000000000000000000000000000000     00000000                                                                                                                        000000000000000000
F0010000008261100002000080010919700041450500000000000000000201602160002001PAPEL MUEBLES LTDA                                C000000006000000000000000000000000100010010000000000000000000000F0010000008261100220160216000101 00000000000000000000000000000000000000000000000000000000000000000000000000000000000000000000000000000000000000000N 00000000000NCONT   00    00000000000          00000000000000000000000000000000000000000000 000000000000000A000000000000000000000000000000000000000000000 000000000000000000000000000000000000000     00000000                                                                                                                        000000000000000000
F0010000008261100003000080010919700042505000000000000000000201602160002001PAPEL MUEBLES LTDA                                C000000000534000000000000000000000100010010000000000000000000000F0010000008261100320160216000101 00000000000000000000000000000000000000000000000000000000000000000000000000000000000000000000000000000000000000000N 00000000000NCONT   00    00000000000          00000000000000000000000000000000000000000000 000000000000000A000000000000000000000000000000000000000000000 000000000000000000000000000000000000000     00000000                                                                                                                        000000000000000000
F0010000008261100004000080010919700023658300000000000000000201602160002001PAPEL MUEBLES LTDA                                C000000000048000000000000000000000100010010000000000000000000000F0010000008261100420160216000101 00000000000000000000000000000000000000000000000000000000000000000000000000000000000000000000000000000000000000000N 00000000000NCONT   00    00000000000          00000000000000000000000000000000000000000000 000000000000000A000000000000000000000000000000000000000000000 000000000000000000000000000000000000000     00000000                                                                                                                        000000000000000000
F0010000008261100005000080010919700013552100000000000000000201602160002001PAPEL MUEBLES LTDA                                D000000000048000000000000000000000100010010000000000000000000000F0010000008261100520160216000101 00000000000000000000000000000000000000000000000000000000000000000000000000000000000000000000000000000000000000000N 00000000000NCONT   00    00000000000          00000000000000000000000000000000000000000000 000000000000000A000000000000000000000000000000000000000000000 000000000000000000000000000000000000000     00000000                                                                                                                        000000000000000000
F0010000008261200001000090071760000011050500000000000000000201602160002001REFRIGERAR INGENIEROS SAS                         D000000002500000000000000000000000100010010000000000000000000000F0010000008261200120160216000101 00000000000000000000000000000000000000000000000000000000000000000000000000000000000000000000000000000000000000000N 00000000000NCONT   00    00000000000          00000000000000000000000000000000000000000000 000000000000000A000000000000000000000000000000000000000000000 000000000000000000000000000000000000000     00000000                                                                                                                        000000000000000000
F0010000008261200002000090071760000041450500000000000000000201602160002001REFRIGERAR INGENIEROS SAS                         C000000002100000000000000000000000100010010000000000000000000000F0010000008261200220160216000101 00000000000000000000000000000000000000000000000000000000000000000000000000000000000000000000000000000000000000000N 00000000000NCONT   00    00000000000          00000000000000000000000000000000000000000000 000000000000000A000000000000000000000000000000000000000000000 000000000000000000000000000000000000000     00000000                                                                                                                        000000000000000000
F0010000008261200003000090071760000042505000000000000000000201602160002001REFRIGERAR INGENIEROS SAS                         C000000000400000000000000000000000100010010000000000000000000000F0010000008261200320160216000101 00000000000000000000000000000000000000000000000000000000000000000000000000000000000000000000000000000000000000000N 00000000000NCONT   00    00000000000          00000000000000000000000000000000000000000000 000000000000000A000000000000000000000000000000000000000000000 000000000000000000000000000000000000000     00000000                                                                                                                        000000000000000000
F0010000008261200004000090071760000023658300000000000000000201602160002001REFRIGERAR INGENIEROS SAS                         C000000000016800000000000000000000100010010000000000000000000000F0010000008261200420160216000101 00000000000000000000000000000000000000000000000000000000000000000000000000000000000000000000000000000000000000000N 00000000000NCONT   00    00000000000          00000000000000000000000000000000000000000000 000000000000000A000000000000000000000000000000000000000000000 000000000000000000000000000000000000000     00000000                                                                                                                        000000000000000000
F0010000008261200005000090071760000013552100000000000000000201602160002001REFRIGERAR INGENIEROS SAS                         D000000000016800000000000000000000100010010000000000000000000000F0010000008261200520160216000101 00000000000000000000000000000000000000000000000000000000000000000000000000000000000000000000000000000000000000000N 00000000000NCONT   00    00000000000          00000000000000000000000000000000000000000000 000000000000000A000000000000000000000000000000000000000000000 000000000000000000000000000000000000000     00000000                                                                                                                        000000000000000000
F0010000008261300001000090014415700013050500000000000000000201602160002001CORDELES Y EXTRUIDOS DE COLOMBIA S.A.S.           D000000006258900000000000000000000100010010000000000000000000000F0010000008261300120160216000101 00000000000000000000000000000000000000000000000000000000000000000000000000000000000000000000000000000000000000000N 00000000000NCONT   00    00000000000          00000000000000000000000000000000000000000000 000000000000000A000000000000000000000000000000000000000000000 000000000000000000000000000000000000000     00000000                                                                                                                        000000000000000000
F0010000008261300002000090014415700041450500000000000000000201602160002001CORDELES Y EXTRUIDOS DE COLOMBIA S.A.S.           C000000005291000000000000000000000100010010000000000000000000000F0010000008261300220160216000101 00000000000000000000000000000000000000000000000000000000000000000000000000000000000000000000000000000000000000000N 00000000000NCONT   00    00000000000          00000000000000000000000000000000000000000000 000000000000000A000000000000000000000000000000000000000000000 000000000000000000000000000000000000000     00000000                                                                                                                        000000000000000000
F0010000008261300003000090014415700042505000000000000000000201602160002001CORDELES Y EXTRUIDOS DE COLOMBIA S.A.S.           C000000000967900000000000000000000100010010000000000000000000000F0010000008261300320160216000101 00000000000000000000000000000000000000000000000000000000000000000000000000000000000000000000000000000000000000000N 00000000000NCONT   00    00000000000          00000000000000000000000000000000000000000000 000000000000000A000000000000000000000000000000000000000000000 000000000000000000000000000000000000000     00000000                                                                                                                        000000000000000000
F0010000008261300004000090014415700023658300000000000000000201602160002001CORDELES Y EXTRUIDOS DE COLOMBIA S.A.S.           C000000000042300000000000000000000100010010000000000000000000000F0010000008261300420160216000101 00000000000000000000000000000000000000000000000000000000000000000000000000000000000000000000000000000000000000000N 00000000000NCONT   00    00000000000          00000000000000000000000000000000000000000000 000000000000000A000000000000000000000000000000000000000000000 000000000000000000000000000000000000000     00000000                                                                                                                        000000000000000000
F0010000008261300005000090014415700013552100000000000000000201602160002001CORDELES Y EXTRUIDOS DE COLOMBIA S.A.S.           D000000000042300000000000000000000100010010000000000000000000000F0010000008261300520160216000101 00000000000000000000000000000000000000000000000000000000000000000000000000000000000000000000000000000000000000000N 00000000000NCONT   00    00000000000          00000000000000000000000000000000000000000000 000000000000000A000000000000000000000000000000000000000000000 000000000000000000000000000000000000000     00000000                                                                                                                        000000000000000000
F0010000008261400001000003273290300013050500000000000000000201602160002001YANETTY GOMEZ ROJANO COMERCIALIZADORA YG          D000000002160000000000000000000000100010010000000000000000000000F0010000008261400120160216000101 00000000000000000000000000000000000000000000000000000000000000000000000000000000000000000000000000000000000000000N 00000000000NCONT   00    00000000000          00000000000000000000000000000000000000000000 000000000000000A000000000000000000000000000000000000000000000 000000000000000000000000000000000000000     00000000                                                                                                                        000000000000000000
F0010000008261400002000003273290300041450500000000000000000201602160002001YANETTY GOMEZ ROJANO COMERCIALIZADORA YG          C000000001800000000000000000000000100010010000000000000000000000F0010000008261400220160216000101 00000000000000000000000000000000000000000000000000000000000000000000000000000000000000000000000000000000000000000N 00000000000NCONT   00    00000000000          00000000000000000000000000000000000000000000 000000000000000A000000000000000000000000000000000000000000000 000000000000000000000000000000000000000     00000000                                                                                                                        000000000000000000
F0010000008261400003000003273290300042505000000000000000000201602160002001YANETTY GOMEZ ROJANO COMERCIALIZADORA YG          C000000000360000000000000000000000100010010000000000000000000000F0010000008261400320160216000101 00000000000000000000000000000000000000000000000000000000000000000000000000000000000000000000000000000000000000000N 00000000000NCONT   00    00000000000          00000000000000000000000000000000000000000000 000000000000000A000000000000000000000000000000000000000000000 000000000000000000000000000000000000000     00000000                                                                                                                        000000000000000000
F0010000008261400004000003273290300023658300000000000000000201602160002001YANETTY GOMEZ ROJANO COMERCIALIZADORA YG          C000000000014400000000000000000000100010010000000000000000000000F0010000008261400420160216000101 00000000000000000000000000000000000000000000000000000000000000000000000000000000000000000000000000000000000000000N 00000000000NCONT   00    00000000000          00000000000000000000000000000000000000000000 000000000000000A000000000000000000000000000000000000000000000 000000000000000000000000000000000000000     00000000                                                                                                                        000000000000000000
F0010000008261400005000003273290300013552100000000000000000201602160002001YANETTY GOMEZ ROJANO COMERCIALIZADORA YG          D000000000014400000000000000000000100010010000000000000000000000F0010000008261400520160216000101 00000000000000000000000000000000000000000000000000000000000000000000000000000000000000000000000000000000000000000N 00000000000NCONT   00    00000000000          00000000000000000000000000000000000000000000 000000000000000A000000000000000000000000000000000000000000000 000000000000000000000000000000000000000     00000000                                                                                                                        000000000000000000
F0010000008261500001000007213653800013050500000000000000000201602160002001VICTOR ECHAVEZ                                    D000000001200000000000000000000000100010010000000000000000000000F0010000008261500120160216000101 00000000000000000000000000000000000000000000000000000000000000000000000000000000000000000000000000000000000000000N 00000000000NCONT   00    00000000000          00000000000000000000000000000000000000000000 000000000000000A000000000000000000000000000000000000000000000 000000000000000000000000000000000000000     00000000                                                                                                                        000000000000000000
F0010000008261500002000007213653800041450500000000000000000201602160002001VICTOR ECHAVEZ                                    C000000000900000000000000000000000100010010000000000000000000000F0010000008261500220160216000101 00000000000000000000000000000000000000000000000000000000000000000000000000000000000000000000000000000000000000000N 00000000000NCONT   00    00000000000          00000000000000000000000000000000000000000000 000000000000000A000000000000000000000000000000000000000000000 000000000000000000000000000000000000000     00000000                                                                                                                        000000000000000000
F0010000008261500003000007213653800042505000000000000000000201602160002001VICTOR ECHAVEZ                                    C000000000300000000000000000000000100010010000000000000000000000F0010000008261500320160216000101 00000000000000000000000000000000000000000000000000000000000000000000000000000000000000000000000000000000000000000N 00000000000NCONT   00    00000000000          00000000000000000000000000000000000000000000 000000000000000A000000000000000000000000000000000000000000000 000000000000000000000000000000000000000     00000000                                                                                                                        000000000000000000
F0010000008261500004000007213653800023658300000000000000000201602160002001VICTOR ECHAVEZ                                    C000000000007200000000000000000000100010010000000000000000000000F0010000008261500420160216000101 00000000000000000000000000000000000000000000000000000000000000000000000000000000000000000000000000000000000000000N 00000000000NCONT   00    00000000000          00000000000000000000000000000000000000000000 000000000000000A000000000000000000000000000000000000000000000 000000000000000000000000000000000000000     00000000                                                                                                                        000000000000000000
F0010000008261500005000007213653800013552100000000000000000201602160002001VICTOR ECHAVEZ                                    D000000000007200000000000000000000100010010000000000000000000000F0010000008261500520160216000101 00000000000000000000000000000000000000000000000000000000000000000000000000000000000000000000000000000000000000000N 00000000000NCONT   00    00000000000          00000000000000000000000000000000000000000000 000000000000000A000000000000000000000000000000000000000000000 000000000000000000000000000000000000000     00000000                                                                                                                        000000000000000000
F0010000008261600001000090044443800013050500000000000000000201602160002001DISTRIBUCIONES UFRE S.A.S.                        D000000001413000000000000000000000100010010000000000000000000000F0010000008261600120160216000101 00000000000000000000000000000000000000000000000000000000000000000000000000000000000000000000000000000000000000000N 00000000000NCONT   00    00000000000          00000000000000000000000000000000000000000000 000000000000000A000000000000000000000000000000000000000000000 000000000000000000000000000000000000000     00000000                                                                                                                        000000000000000000
F0010000008261600002000090044443800041450500000000000000000201602160002001DISTRIBUCIONES UFRE S.A.S.                        C000000000800000000000000000000000100010010000000000000000000000F0010000008261600220160216000101 00000000000000000000000000000000000000000000000000000000000000000000000000000000000000000000000000000000000000000N 00000000000NCONT   00    00000000000          00000000000000000000000000000000000000000000 000000000000000A000000000000000000000000000000000000000000000 000000000000000000000000000000000000000     00000000                                                                                                                        000000000000000000
F0010000008261600003000090044443800042505000000000000000000201602160002001DISTRIBUCIONES UFRE S.A.S.                        C000000000613000000000000000000000100010010000000000000000000000F0010000008261600320160216000101 00000000000000000000000000000000000000000000000000000000000000000000000000000000000000000000000000000000000000000N 00000000000NCONT   00    00000000000          00000000000000000000000000000000000000000000 000000000000000A000000000000000000000000000000000000000000000 000000000000000000000000000000000000000     00000000                                                                                                                        000000000000000000
F0010000008261600004000090044443800023658300000000000000000201602160002001DISTRIBUCIONES UFRE S.A.S.                        C000000000006400000000000000000000100010010000000000000000000000F0010000008261600420160216000101 00000000000000000000000000000000000000000000000000000000000000000000000000000000000000000000000000000000000000000N 00000000000NCONT   00    00000000000          00000000000000000000000000000000000000000000 000000000000000A000000000000000000000000000000000000000000000 000000000000000000000000000000000000000     00000000                                                                                                                        000000000000000000
F0010000008261600005000090044443800013552100000000000000000201602160002001DISTRIBUCIONES UFRE S.A.S.                        D000000000006400000000000000000000100010010000000000000000000000F0010000008261600520160216000101 00000000000000000000000000000000000000000000000000000000000000000000000000000000000000000000000000000000000000000N 00000000000NCONT   00    00000000000          00000000000000000000000000000000000000000000 000000000000000A000000000000000000000000000000000000000000000 000000000000000000000000000000000000000     00000000                                                                                                                        000000000000000000
F0010000008261700001000007229328500013050500000000000000000201602160002001PV ELECTRIC   DEL CARIBE                          D000000006600000000000000000000000100010010000000000000000000000F0010000008261700120160216000101 00000000000000000000000000000000000000000000000000000000000000000000000000000000000000000000000000000000000000000N 00000000000NCONT   00    00000000000          00000000000000000000000000000000000000000000 000000000000000A000000000000000000000000000000000000000000000 000000000000000000000000000000000000000     00000000                                                                                                                        000000000000000000
F0010000008261700002000007229328500041450500000000000000000201602160002001PV ELECTRIC   DEL CARIBE                          C000000006000000000000000000000000100010010000000000000000000000F0010000008261700220160216000101 00000000000000000000000000000000000000000000000000000000000000000000000000000000000000000000000000000000000000000N 00000000000NCONT   00    00000000000          00000000000000000000000000000000000000000000 000000000000000A000000000000000000000000000000000000000000000 000000000000000000000000000000000000000     00000000                                                                                                                        000000000000000000
F0010000008261700003000007229328500042505000000000000000000201602160002001PV ELECTRIC   DEL CARIBE                          C000000000600000000000000000000000100010010000000000000000000000F0010000008261700320160216000101 00000000000000000000000000000000000000000000000000000000000000000000000000000000000000000000000000000000000000000N 00000000000NCONT   00    00000000000          00000000000000000000000000000000000000000000 000000000000000A000000000000000000000000000000000000000000000 000000000000000000000000000000000000000     00000000                                                                                                                        000000000000000000
F0010000008261700004000007229328500023658300000000000000000201602160002001PV ELECTRIC   DEL CARIBE                          C000000000048000000000000000000000100010010000000000000000000000F0010000008261700420160216000101 00000000000000000000000000000000000000000000000000000000000000000000000000000000000000000000000000000000000000000N 00000000000NCONT   00    00000000000          00000000000000000000000000000000000000000000 000000000000000A000000000000000000000000000000000000000000000 000000000000000000000000000000000000000     00000000                                                                                                                        000000000000000000
F0010000008261700005000007229328500013552100000000000000000201602160002001PV ELECTRIC   DEL CARIBE                          D000000000048000000000000000000000100010010000000000000000000000F0010000008261700520160216000101 00000000000000000000000000000000000000000000000000000000000000000000000000000000000000000000000000000000000000000N 00000000000NCONT   00    00000000000          00000000000000000000000000000000000000000000 000000000000000A000000000000000000000000000000000000000000000 000000000000000000000000000000000000000     00000000                                                                                                                        000000000000000000
F0010000008261800001000090010880700013050500000000000000000201602160002001PROELECTRICAS DE BARRANQUILLA LTDA                D000000002280000000000000000000000100010010000000000000000000000F0010000008261800120160216000101 00000000000000000000000000000000000000000000000000000000000000000000000000000000000000000000000000000000000000000N 00000000000NCONT   00    00000000000          00000000000000000000000000000000000000000000 000000000000000A000000000000000000000000000000000000000000000 000000000000000000000000000000000000000     00000000                                                                                                                        000000000000000000
F0010000008261800002000090010880700041450500000000000000000201602160002001PROELECTRICAS DE BARRANQUILLA LTDA                C000000001980000000000000000000000100010010000000000000000000000F0010000008261800220160216000101 00000000000000000000000000000000000000000000000000000000000000000000000000000000000000000000000000000000000000000N 00000000000NCONT   00    00000000000          00000000000000000000000000000000000000000000 000000000000000A000000000000000000000000000000000000000000000 000000000000000000000000000000000000000     00000000                                                                                                                        000000000000000000
F0010000008261800003000090010880700042505000000000000000000201602160002001PROELECTRICAS DE BARRANQUILLA LTDA                C000000000300000000000000000000000100010010000000000000000000000F0010000008261800320160216000101 00000000000000000000000000000000000000000000000000000000000000000000000000000000000000000000000000000000000000000N 00000000000NCONT   00    00000000000          00000000000000000000000000000000000000000000 000000000000000A000000000000000000000000000000000000000000000 000000000000000000000000000000000000000     00000000                                                                                                                        000000000000000000
F0010000008261800004000090010880700023658300000000000000000201602160002001PROELECTRICAS DE BARRANQUILLA LTDA                C000000000015800000000000000000000100010010000000000000000000000F0010000008261800420160216000101 00000000000000000000000000000000000000000000000000000000000000000000000000000000000000000000000000000000000000000N 00000000000NCONT   00    00000000000          00000000000000000000000000000000000000000000 000000000000000A000000000000000000000000000000000000000000000 000000000000000000000000000000000000000     00000000                                                                                                                        000000000000000000
F0010000008261800005000090010880700013552100000000000000000201602160002001PROELECTRICAS DE BARRANQUILLA LTDA                D000000000015800000000000000000000100010010000000000000000000000F0010000008261800520160216000101 00000000000000000000000000000000000000000000000000000000000000000000000000000000000000000000000000000000000000000N 00000000000NCONT   00    00000000000          00000000000000000000000000000000000000000000 000000000000000A000000000000000000000000000000000000000000000 000000000000000000000000000000000000000     00000000                                                                                                                        000000000000000000
