F0010000006106600001000086000089600013050500000000000000000201408020002001SIKA COLOMBIA S.A.                                D000000071826900000000000000000000100010010000000000000000000000F0010000006106600120140802000101 00000000000000000000000000000000000000000000000000000000000000000000000000000000000000000000000000000000000000000N 00000000000NCONT   00    00000000000          00000000000000000000000000000000000000000000 000000000000000A000000000000000000000000000000000000000000000 000000000000000000000000000000000000000     00000000                                                                                                                        000000000000000000
F0010000006106600002000086000089600041450500000000000000000201408020002001SIKA COLOMBIA S.A.                                C000000064462200000000000000000000100010010000000000000000000000F0010000006106600220140802000101 00000000000000000000000000000000000000000000000000000000000000000000000000000000000000000000000000000000000000000N 00000000000NCONT   00    00000000000          00000000000000000000000000000000000000000000 000000000000000A000000000000000000000000000000000000000000000 000000000000000000000000000000000000000     00000000                                                                                                                        000000000000000000
F0010000006106600003000086000089600042505000000000000000000201408020002001SIKA COLOMBIA S.A.                                C000000007364700000000000000000000100010010000000000000000000000F0010000006106600320140802000101 00000000000000000000000000000000000000000000000000000000000000000000000000000000000000000000000000000000000000000N 00000000000NCONT   00    00000000000          00000000000000000000000000000000000000000000 000000000000000A000000000000000000000000000000000000000000000 000000000000000000000000000000000000000     00000000                                                                                                                        000000000000000000
F0010000006106600004000086000089600023658300000000000000000201408020002001SIKA COLOMBIA S.A.                                C000000000515700000000000000000000100010010000000000000000000000F0010000006106600420140802000101 00000000000000000000000000000000000000000000000000000000000000000000000000000000000000000000000000000000000000000N 00000000000NCONT   00    00000000000          00000000000000000000000000000000000000000000 000000000000000A000000000000000000000000000000000000000000000 000000000000000000000000000000000000000     00000000                                                                                                                        000000000000000000
F0010000006106600005000086000089600013552100000000000000000201408020002001SIKA COLOMBIA S.A.                                D000000000515700000000000000000000100010010000000000000000000000F0010000006106600520140802000101 00000000000000000000000000000000000000000000000000000000000000000000000000000000000000000000000000000000000000000N 00000000000NCONT   00    00000000000          00000000000000000000000000000000000000000000 000000000000000A000000000000000000000000000000000000000000000 000000000000000000000000000000000000000     00000000                                                                                                                        000000000000000000
F0010000006106700001000089010272700013050500000000000000000201408020002001ALFONSOEME S.A.                                   D000000073175700000000000000000000100010010000000000000000000000F0010000006106700120140802000101 00000000000000000000000000000000000000000000000000000000000000000000000000000000000000000000000000000000000000000N 00000000000NCONT   00    00000000000          00000000000000000000000000000000000000000000 000000000000000A000000000000000000000000000000000000000000000 000000000000000000000000000000000000000     00000000                                                                                                                        000000000000000000
F0010000006106700002000089010272700041450500000000000000000201408020002001ALFONSOEME S.A.                                   C000000078106300000000000000000000100010010000000000000000000000F0010000006106700220140802000101 00000000000000000000000000000000000000000000000000000000000000000000000000000000000000000000000000000000000000000N 00000000000NCONT   00    00000000000          00000000000000000000000000000000000000000000 000000000000000A000000000000000000000000000000000000000000000 000000000000000000000000000000000000000     00000000                                                                                                                        000000000000000000
F0010000006106700003000089010272700041750100000000000000000201408020002001ALFONSOEME S.A.                                   D000000007810600000000000000000000100010010000000000000000000000F0010000006106700320140802000101 00000000000000000000000000000000000000000000000000000000000000000000000000000000000000000000000000000000000000000N 00000000000NCONT   00    00000000000          00000000000000000000000000000000000000000000 000000000000000A000000000000000000000000000000000000000000000 000000000000000000000000000000000000000     00000000                                                                                                                        000000000000000000
F0010000006106700004000089010272700042505000000000000000000201408020002001ALFONSOEME S.A.                                   C000000002880000000000000000000000100010010000000000000000000000F0010000006106700420140802000101 00000000000000000000000000000000000000000000000000000000000000000000000000000000000000000000000000000000000000000N 00000000000NCONT   00    00000000000          00000000000000000000000000000000000000000000 000000000000000A000000000000000000000000000000000000000000000 000000000000000000000000000000000000000     00000000                                                                                                                        000000000000000000
F0010000006106700005000089010272700023658300000000000000000201408020002001ALFONSOEME S.A.                                   C000000000624900000000000000000000100010010000000000000000000000F0010000006106700520140802000101 00000000000000000000000000000000000000000000000000000000000000000000000000000000000000000000000000000000000000000N 00000000000NCONT   00    00000000000          00000000000000000000000000000000000000000000 000000000000000A000000000000000000000000000000000000000000000 000000000000000000000000000000000000000     00000000                                                                                                                        000000000000000000
F0010000006106700006000089010272700013552100000000000000000201408020002001ALFONSOEME S.A.                                   D000000000624900000000000000000000100010010000000000000000000000F0010000006106700620140802000101 00000000000000000000000000000000000000000000000000000000000000000000000000000000000000000000000000000000000000000N 00000000000NCONT   00    00000000000          00000000000000000000000000000000000000000000 000000000000000A000000000000000000000000000000000000000000000 000000000000000000000000000000000000000     00000000                                                                                                                        000000000000000000
F0010000006106800001000089010272700013050500000000000000000201408020002001ALFONSOEME S.A.                                   D000000047533000000000000000000000100010010000000000000000000000F0010000006106800120140802000101 00000000000000000000000000000000000000000000000000000000000000000000000000000000000000000000000000000000000000000N 00000000000NCONT   00    00000000000          00000000000000000000000000000000000000000000 000000000000000A000000000000000000000000000000000000000000000 000000000000000000000000000000000000000     00000000                                                                                                                        000000000000000000
F0010000006106800002000089010272700041450500000000000000000201408020002001ALFONSOEME S.A.                                   C000000049347800000000000000000000100010010000000000000000000000F0010000006106800220140802000101 00000000000000000000000000000000000000000000000000000000000000000000000000000000000000000000000000000000000000000N 00000000000NCONT   00    00000000000          00000000000000000000000000000000000000000000 000000000000000A000000000000000000000000000000000000000000000 000000000000000000000000000000000000000     00000000                                                                                                                        000000000000000000
F0010000006106800003000089010272700041750100000000000000000201408020002001ALFONSOEME S.A.                                   D000000004934800000000000000000000100010010000000000000000000000F0010000006106800320140802000101 00000000000000000000000000000000000000000000000000000000000000000000000000000000000000000000000000000000000000000N 00000000000NCONT   00    00000000000          00000000000000000000000000000000000000000000 000000000000000A000000000000000000000000000000000000000000000 000000000000000000000000000000000000000     00000000                                                                                                                        000000000000000000
F0010000006106800004000089010272700042505000000000000000000201408020002001ALFONSOEME S.A.                                   C000000003120000000000000000000000100010010000000000000000000000F0010000006106800420140802000101 00000000000000000000000000000000000000000000000000000000000000000000000000000000000000000000000000000000000000000N 00000000000NCONT   00    00000000000          00000000000000000000000000000000000000000000 000000000000000A000000000000000000000000000000000000000000000 000000000000000000000000000000000000000     00000000                                                                                                                        000000000000000000
F0010000006106800005000089010272700023658300000000000000000201408020002001ALFONSOEME S.A.                                   C000000000394800000000000000000000100010010000000000000000000000F0010000006106800520140802000101 00000000000000000000000000000000000000000000000000000000000000000000000000000000000000000000000000000000000000000N 00000000000NCONT   00    00000000000          00000000000000000000000000000000000000000000 000000000000000A000000000000000000000000000000000000000000000 000000000000000000000000000000000000000     00000000                                                                                                                        000000000000000000
F0010000006106800006000089010272700013552100000000000000000201408020002001ALFONSOEME S.A.                                   D000000000394800000000000000000000100010010000000000000000000000F0010000006106800620140802000101 00000000000000000000000000000000000000000000000000000000000000000000000000000000000000000000000000000000000000000N 00000000000NCONT   00    00000000000          00000000000000000000000000000000000000000000 000000000000000A000000000000000000000000000000000000000000000 000000000000000000000000000000000000000     00000000                                                                                                                        000000000000000000
F0010000006106900001000089010272700013050500000000000000000201408020002001ALFONSOEME S.A.                                   D000000008989800000000000000000000100010010000000000000000000000F0010000006106900120140802000101 00000000000000000000000000000000000000000000000000000000000000000000000000000000000000000000000000000000000000000N 00000000000NCONT   00    00000000000          00000000000000000000000000000000000000000000 000000000000000A000000000000000000000000000000000000000000000 000000000000000000000000000000000000000     00000000                                                                                                                        000000000000000000
F0010000006106900002000089010272700041450500000000000000000201408020002001ALFONSOEME S.A.                                   C000000009544200000000000000000000100010010000000000000000000000F0010000006106900220140802000101 00000000000000000000000000000000000000000000000000000000000000000000000000000000000000000000000000000000000000000N 00000000000NCONT   00    00000000000          00000000000000000000000000000000000000000000 000000000000000A000000000000000000000000000000000000000000000 000000000000000000000000000000000000000     00000000                                                                                                                        000000000000000000
F0010000006106900003000089010272700041750100000000000000000201408020002001ALFONSOEME S.A.                                   D000000000954400000000000000000000100010010000000000000000000000F0010000006106900320140802000101 00000000000000000000000000000000000000000000000000000000000000000000000000000000000000000000000000000000000000000N 00000000000NCONT   00    00000000000          00000000000000000000000000000000000000000000 000000000000000A000000000000000000000000000000000000000000000 000000000000000000000000000000000000000     00000000                                                                                                                        000000000000000000
F0010000006106900004000089010272700042505000000000000000000201408020002001ALFONSOEME S.A.                                   C000000000400000000000000000000000100010010000000000000000000000F0010000006106900420140802000101 00000000000000000000000000000000000000000000000000000000000000000000000000000000000000000000000000000000000000000N 00000000000NCONT   00    00000000000          00000000000000000000000000000000000000000000 000000000000000A000000000000000000000000000000000000000000000 000000000000000000000000000000000000000     00000000                                                                                                                        000000000000000000
F0010000006106900005000089010272700023658300000000000000000201408020002001ALFONSOEME S.A.                                   C000000000076400000000000000000000100010010000000000000000000000F0010000006106900520140802000101 00000000000000000000000000000000000000000000000000000000000000000000000000000000000000000000000000000000000000000N 00000000000NCONT   00    00000000000          00000000000000000000000000000000000000000000 000000000000000A000000000000000000000000000000000000000000000 000000000000000000000000000000000000000     00000000                                                                                                                        000000000000000000
F0010000006106900006000089010272700013552100000000000000000201408020002001ALFONSOEME S.A.                                   D000000000076400000000000000000000100010010000000000000000000000F0010000006106900620140802000101 00000000000000000000000000000000000000000000000000000000000000000000000000000000000000000000000000000000000000000N 00000000000NCONT   00    00000000000          00000000000000000000000000000000000000000000 000000000000000A000000000000000000000000000000000000000000000 000000000000000000000000000000000000000     00000000                                                                                                                        000000000000000000
F0010000006107000001000086003979400013050500000000000000000201408020002001CALYPSO BARRANQUILLA LTDA                         D000000168507000000000000000000000100010010000000000000000000000F0010000006107000120140802000101 00000000000000000000000000000000000000000000000000000000000000000000000000000000000000000000000000000000000000000N 00000000000NCONT   00    00000000000          00000000000000000000000000000000000000000000 000000000000000A000000000000000000000000000000000000000000000 000000000000000000000000000000000000000     00000000                                                                                                                        000000000000000000
F0010000006107000002000086003979400041450500000000000000000201408020002001CALYPSO BARRANQUILLA LTDA                         C000000155540000000000000000000000100010010000000000000000000000F0010000006107000220140802000101 00000000000000000000000000000000000000000000000000000000000000000000000000000000000000000000000000000000000000000N 00000000000NCONT   00    00000000000          00000000000000000000000000000000000000000000 000000000000000A000000000000000000000000000000000000000000000 000000000000000000000000000000000000000     00000000                                                                                                                        000000000000000000
F0010000006107000003000086003979400042505000000000000000000201408020002001CALYPSO BARRANQUILLA LTDA                         C000000012967000000000000000000000100010010000000000000000000000F0010000006107000320140802000101 00000000000000000000000000000000000000000000000000000000000000000000000000000000000000000000000000000000000000000N 00000000000NCONT   00    00000000000          00000000000000000000000000000000000000000000 000000000000000A000000000000000000000000000000000000000000000 000000000000000000000000000000000000000     00000000                                                                                                                        000000000000000000
F0010000006107000004000086003979400023658300000000000000000201408020002001CALYPSO BARRANQUILLA LTDA                         C000000001244300000000000000000000100010010000000000000000000000F0010000006107000420140802000101 00000000000000000000000000000000000000000000000000000000000000000000000000000000000000000000000000000000000000000N 00000000000NCONT   00    00000000000          00000000000000000000000000000000000000000000 000000000000000A000000000000000000000000000000000000000000000 000000000000000000000000000000000000000     00000000                                                                                                                        000000000000000000
F0010000006107000005000086003979400013552100000000000000000201408020002001CALYPSO BARRANQUILLA LTDA                         D000000001244300000000000000000000100010010000000000000000000000F0010000006107000520140802000101 00000000000000000000000000000000000000000000000000000000000000000000000000000000000000000000000000000000000000000N 00000000000NCONT   00    00000000000          00000000000000000000000000000000000000000000 000000000000000A000000000000000000000000000000000000000000000 000000000000000000000000000000000000000     00000000                                                                                                                        000000000000000000
F0010000006107100001000089010952800013050500000000000000000201408020002001IND. LITOGRAF. BOSTON S.A.S.                      D000000069580000000000000000000000100010010000000000000000000000F0010000006107100120140802000101 00000000000000000000000000000000000000000000000000000000000000000000000000000000000000000000000000000000000000000N 00000000000NCONT   00    00000000000          00000000000000000000000000000000000000000000 000000000000000A000000000000000000000000000000000000000000000 000000000000000000000000000000000000000     00000000                                                                                                                        000000000000000000
F0010000006107100002000089010952800041450500000000000000000201408020002001IND. LITOGRAF. BOSTON S.A.S.                      C000000061980000000000000000000000100010010000000000000000000000F0010000006107100220140802000101 00000000000000000000000000000000000000000000000000000000000000000000000000000000000000000000000000000000000000000N 00000000000NCONT   00    00000000000          00000000000000000000000000000000000000000000 000000000000000A000000000000000000000000000000000000000000000 000000000000000000000000000000000000000     00000000                                                                                                                        000000000000000000
F0010000006107100003000089010952800042505000000000000000000201408020002001IND. LITOGRAF. BOSTON S.A.S.                      C000000007600000000000000000000000100010010000000000000000000000F0010000006107100320140802000101 00000000000000000000000000000000000000000000000000000000000000000000000000000000000000000000000000000000000000000N 00000000000NCONT   00    00000000000          00000000000000000000000000000000000000000000 000000000000000A000000000000000000000000000000000000000000000 000000000000000000000000000000000000000     00000000                                                                                                                        000000000000000000
F0010000006107100004000089010952800023658300000000000000000201408020002001IND. LITOGRAF. BOSTON S.A.S.                      C000000000495800000000000000000000100010010000000000000000000000F0010000006107100420140802000101 00000000000000000000000000000000000000000000000000000000000000000000000000000000000000000000000000000000000000000N 00000000000NCONT   00    00000000000          00000000000000000000000000000000000000000000 000000000000000A000000000000000000000000000000000000000000000 000000000000000000000000000000000000000     00000000                                                                                                                        000000000000000000
F0010000006107100005000089010952800013552100000000000000000201408020002001IND. LITOGRAF. BOSTON S.A.S.                      D000000000495800000000000000000000100010010000000000000000000000F0010000006107100520140802000101 00000000000000000000000000000000000000000000000000000000000000000000000000000000000000000000000000000000000000000N 00000000000NCONT   00    00000000000          00000000000000000000000000000000000000000000 000000000000000A000000000000000000000000000000000000000000000 000000000000000000000000000000000000000     00000000                                                                                                                        000000000000000000
F0010000006107200001000080202229600013050500000000000000000201408020002001MUNDIAL DE ABRASIVOS S.A                          D000000040107800000000000000000000100010010000000000000000000000F0010000006107200120140802000101 00000000000000000000000000000000000000000000000000000000000000000000000000000000000000000000000000000000000000000N 00000000000NCONT   00    00000000000          00000000000000000000000000000000000000000000 000000000000000A000000000000000000000000000000000000000000000 000000000000000000000000000000000000000     00000000                                                                                                                        000000000000000000
F0010000006107200002000080202229600041450500000000000000000201408020002001MUNDIAL DE ABRASIVOS S.A                          C000000032196500000000000000000000100010010000000000000000000000F0010000006107200220140802000101 00000000000000000000000000000000000000000000000000000000000000000000000000000000000000000000000000000000000000000N 00000000000NCONT   00    00000000000          00000000000000000000000000000000000000000000 000000000000000A000000000000000000000000000000000000000000000 000000000000000000000000000000000000000     00000000                                                                                                                        000000000000000000
F0010000006107200003000080202229600042505000000000000000000201408020002001MUNDIAL DE ABRASIVOS S.A                          C000000007911300000000000000000000100010010000000000000000000000F0010000006107200320140802000101 00000000000000000000000000000000000000000000000000000000000000000000000000000000000000000000000000000000000000000N 00000000000NCONT   00    00000000000          00000000000000000000000000000000000000000000 000000000000000A000000000000000000000000000000000000000000000 000000000000000000000000000000000000000     00000000                                                                                                                        000000000000000000
F0010000006107200004000080202229600023658300000000000000000201408020002001MUNDIAL DE ABRASIVOS S.A                          C000000000257600000000000000000000100010010000000000000000000000F0010000006107200420140802000101 00000000000000000000000000000000000000000000000000000000000000000000000000000000000000000000000000000000000000000N 00000000000NCONT   00    00000000000          00000000000000000000000000000000000000000000 000000000000000A000000000000000000000000000000000000000000000 000000000000000000000000000000000000000     00000000                                                                                                                        000000000000000000
F0010000006107200005000080202229600013552100000000000000000201408020002001MUNDIAL DE ABRASIVOS S.A                          D000000000257600000000000000000000100010010000000000000000000000F0010000006107200520140802000101 00000000000000000000000000000000000000000000000000000000000000000000000000000000000000000000000000000000000000000N 00000000000NCONT   00    00000000000          00000000000000000000000000000000000000000000 000000000000000A000000000000000000000000000000000000000000000 000000000000000000000000000000000000000     00000000                                                                                                                        000000000000000000
F0010000006107300001000080202229600013050500000000000000000201408020002001MUNDIAL DE ABRASIVOS S.A                          D000000015347900000000000000000000100010010000000000000000000000F0010000006107300120140802000101 00000000000000000000000000000000000000000000000000000000000000000000000000000000000000000000000000000000000000000N 00000000000NCONT   00    00000000000          00000000000000000000000000000000000000000000 000000000000000A000000000000000000000000000000000000000000000 000000000000000000000000000000000000000     00000000                                                                                                                        000000000000000000
F0010000006107300002000080202229600041450500000000000000000201408020002001MUNDIAL DE ABRASIVOS S.A                          C000000012728700000000000000000000100010010000000000000000000000F0010000006107300220140802000101 00000000000000000000000000000000000000000000000000000000000000000000000000000000000000000000000000000000000000000N 00000000000NCONT   00    00000000000          00000000000000000000000000000000000000000000 000000000000000A000000000000000000000000000000000000000000000 000000000000000000000000000000000000000     00000000                                                                                                                        000000000000000000
F0010000006107300003000080202229600042505000000000000000000201408020002001MUNDIAL DE ABRASIVOS S.A                          C000000002619200000000000000000000100010010000000000000000000000F0010000006107300320140802000101 00000000000000000000000000000000000000000000000000000000000000000000000000000000000000000000000000000000000000000N 00000000000NCONT   00    00000000000          00000000000000000000000000000000000000000000 000000000000000A000000000000000000000000000000000000000000000 000000000000000000000000000000000000000     00000000                                                                                                                        000000000000000000
F0010000006107300004000080202229600023658300000000000000000201408020002001MUNDIAL DE ABRASIVOS S.A                          C000000000101800000000000000000000100010010000000000000000000000F0010000006107300420140802000101 00000000000000000000000000000000000000000000000000000000000000000000000000000000000000000000000000000000000000000N 00000000000NCONT   00    00000000000          00000000000000000000000000000000000000000000 000000000000000A000000000000000000000000000000000000000000000 000000000000000000000000000000000000000     00000000                                                                                                                        000000000000000000
F0010000006107300005000080202229600013552100000000000000000201408020002001MUNDIAL DE ABRASIVOS S.A                          D000000000101800000000000000000000100010010000000000000000000000F0010000006107300520140802000101 00000000000000000000000000000000000000000000000000000000000000000000000000000000000000000000000000000000000000000N 00000000000NCONT   00    00000000000          00000000000000000000000000000000000000000000 000000000000000A000000000000000000000000000000000000000000000 000000000000000000000000000000000000000     00000000                                                                                                                        000000000000000000
F0010000006107400001000090019362000013050500000000000000000201408020002001GENERAL SUPPLIES CIA LTDA                         D000000013400000000000000000000000100010010000000000000000000000F0010000006107400120140802000101 00000000000000000000000000000000000000000000000000000000000000000000000000000000000000000000000000000000000000000N 00000000000NCONT   00    00000000000          00000000000000000000000000000000000000000000 000000000000000A000000000000000000000000000000000000000000000 000000000000000000000000000000000000000     00000000                                                                                                                        000000000000000000
F0010000006107400002000090019362000041450500000000000000000201408020002001GENERAL SUPPLIES CIA LTDA                         C000000011250000000000000000000000100010010000000000000000000000F0010000006107400220140802000101 00000000000000000000000000000000000000000000000000000000000000000000000000000000000000000000000000000000000000000N 00000000000NCONT   00    00000000000          00000000000000000000000000000000000000000000 000000000000000A000000000000000000000000000000000000000000000 000000000000000000000000000000000000000     00000000                                                                                                                        000000000000000000
F0010000006107400003000090019362000042505000000000000000000201408020002001GENERAL SUPPLIES CIA LTDA                         C000000002150000000000000000000000100010010000000000000000000000F0010000006107400320140802000101 00000000000000000000000000000000000000000000000000000000000000000000000000000000000000000000000000000000000000000N 00000000000NCONT   00    00000000000          00000000000000000000000000000000000000000000 000000000000000A000000000000000000000000000000000000000000000 000000000000000000000000000000000000000     00000000                                                                                                                        000000000000000000
F0010000006107400004000090019362000023658300000000000000000201408020002001GENERAL SUPPLIES CIA LTDA                         C000000000090000000000000000000000100010010000000000000000000000F0010000006107400420140802000101 00000000000000000000000000000000000000000000000000000000000000000000000000000000000000000000000000000000000000000N 00000000000NCONT   00    00000000000          00000000000000000000000000000000000000000000 000000000000000A000000000000000000000000000000000000000000000 000000000000000000000000000000000000000     00000000                                                                                                                        000000000000000000
F0010000006107400005000090019362000013552100000000000000000201408020002001GENERAL SUPPLIES CIA LTDA                         D000000000090000000000000000000000100010010000000000000000000000F0010000006107400520140802000101 00000000000000000000000000000000000000000000000000000000000000000000000000000000000000000000000000000000000000000N 00000000000NCONT   00    00000000000          00000000000000000000000000000000000000000000 000000000000000A000000000000000000000000000000000000000000000 000000000000000000000000000000000000000     00000000                                                                                                                        000000000000000000
F0010000006107500001000090038852800013050500000000000000000201408020002001EL COMERCIO ELECTRICO DE LA CO                    D000000024890000000000000000000000100010010000000000000000000000F0010000006107500120140802000101 00000000000000000000000000000000000000000000000000000000000000000000000000000000000000000000000000000000000000000N 00000000000NCONT   00    00000000000          00000000000000000000000000000000000000000000 000000000000000A000000000000000000000000000000000000000000000 000000000000000000000000000000000000000     00000000                                                                                                                        000000000000000000
F0010000006107500002000090038852800041450500000000000000000201408020002001EL COMERCIO ELECTRICO DE LA CO                    C000000016140000000000000000000000100010010000000000000000000000F0010000006107500220140802000101 00000000000000000000000000000000000000000000000000000000000000000000000000000000000000000000000000000000000000000N 00000000000NCONT   00    00000000000          00000000000000000000000000000000000000000000 000000000000000A000000000000000000000000000000000000000000000 000000000000000000000000000000000000000     00000000                                                                                                                        000000000000000000
F0010000006107500003000090038852800042505000000000000000000201408020002001EL COMERCIO ELECTRICO DE LA CO                    C000000008750000000000000000000000100010010000000000000000000000F0010000006107500320140802000101 00000000000000000000000000000000000000000000000000000000000000000000000000000000000000000000000000000000000000000N 00000000000NCONT   00    00000000000          00000000000000000000000000000000000000000000 000000000000000A000000000000000000000000000000000000000000000 000000000000000000000000000000000000000     00000000                                                                                                                        000000000000000000
F0010000006107500004000090038852800023658300000000000000000201408020002001EL COMERCIO ELECTRICO DE LA CO                    C000000000129100000000000000000000100010010000000000000000000000F0010000006107500420140802000101 00000000000000000000000000000000000000000000000000000000000000000000000000000000000000000000000000000000000000000N 00000000000NCONT   00    00000000000          00000000000000000000000000000000000000000000 000000000000000A000000000000000000000000000000000000000000000 000000000000000000000000000000000000000     00000000                                                                                                                        000000000000000000
F0010000006107500005000090038852800013552100000000000000000201408020002001EL COMERCIO ELECTRICO DE LA CO                    D000000000129100000000000000000000100010010000000000000000000000F0010000006107500520140802000101 00000000000000000000000000000000000000000000000000000000000000000000000000000000000000000000000000000000000000000N 00000000000NCONT   00    00000000000          00000000000000000000000000000000000000000000 000000000000000A000000000000000000000000000000000000000000000 000000000000000000000000000000000000000     00000000                                                                                                                        000000000000000000
F0010000006107600001000080001063400013050500000000000000000201408020002001PRODUCTOS JULIAO SAS                              D000000014530000000000000000000000100010010000000000000000000000F0010000006107600120140802000101 00000000000000000000000000000000000000000000000000000000000000000000000000000000000000000000000000000000000000000N 00000000000NCONT   00    00000000000          00000000000000000000000000000000000000000000 000000000000000A000000000000000000000000000000000000000000000 000000000000000000000000000000000000000     00000000                                                                                                                        000000000000000000
F0010000006107600002000080001063400041450500000000000000000201408020002001PRODUCTOS JULIAO SAS                              C000000013580000000000000000000000100010010000000000000000000000F0010000006107600220140802000101 00000000000000000000000000000000000000000000000000000000000000000000000000000000000000000000000000000000000000000N 00000000000NCONT   00    00000000000          00000000000000000000000000000000000000000000 000000000000000A000000000000000000000000000000000000000000000 000000000000000000000000000000000000000     00000000                                                                                                                        000000000000000000
F0010000006107600003000080001063400042505000000000000000000201408020002001PRODUCTOS JULIAO SAS                              C000000000950000000000000000000000100010010000000000000000000000F0010000006107600320140802000101 00000000000000000000000000000000000000000000000000000000000000000000000000000000000000000000000000000000000000000N 00000000000NCONT   00    00000000000          00000000000000000000000000000000000000000000 000000000000000A000000000000000000000000000000000000000000000 000000000000000000000000000000000000000     00000000                                                                                                                        000000000000000000
F0010000006107600004000080001063400023658300000000000000000201408020002001PRODUCTOS JULIAO SAS                              C000000000108600000000000000000000100010010000000000000000000000F0010000006107600420140802000101 00000000000000000000000000000000000000000000000000000000000000000000000000000000000000000000000000000000000000000N 00000000000NCONT   00    00000000000          00000000000000000000000000000000000000000000 000000000000000A000000000000000000000000000000000000000000000 000000000000000000000000000000000000000     00000000                                                                                                                        000000000000000000
F0010000006107600005000080001063400013552100000000000000000201408020002001PRODUCTOS JULIAO SAS                              D000000000108600000000000000000000100010010000000000000000000000F0010000006107600520140802000101 00000000000000000000000000000000000000000000000000000000000000000000000000000000000000000000000000000000000000000N 00000000000NCONT   00    00000000000          00000000000000000000000000000000000000000000 000000000000000A000000000000000000000000000000000000000000000 000000000000000000000000000000000000000     00000000                                                                                                                        000000000000000000
F0010000006107700001000089030195100013050500000000000000000201408020002001LIBRERIA NACIONAL S.A.                            D000000036830000000000000000000000100010010000000000000000000000F0010000006107700120140802000101 00000000000000000000000000000000000000000000000000000000000000000000000000000000000000000000000000000000000000000N 00000000000NCONT   00    00000000000          00000000000000000000000000000000000000000000 000000000000000A000000000000000000000000000000000000000000000 000000000000000000000000000000000000000     00000000                                                                                                                        000000000000000000
F0010000006107700002000089030195100041450500000000000000000201408020002001LIBRERIA NACIONAL S.A.                            C000000030030000000000000000000000100010010000000000000000000000F0010000006107700220140802000101 00000000000000000000000000000000000000000000000000000000000000000000000000000000000000000000000000000000000000000N 00000000000NCONT   00    00000000000          00000000000000000000000000000000000000000000 000000000000000A000000000000000000000000000000000000000000000 000000000000000000000000000000000000000     00000000                                                                                                                        000000000000000000
F0010000006107700003000089030195100042505000000000000000000201408020002001LIBRERIA NACIONAL S.A.                            C000000006800000000000000000000000100010010000000000000000000000F0010000006107700320140802000101 00000000000000000000000000000000000000000000000000000000000000000000000000000000000000000000000000000000000000000N 00000000000NCONT   00    00000000000          00000000000000000000000000000000000000000000 000000000000000A000000000000000000000000000000000000000000000 000000000000000000000000000000000000000     00000000                                                                                                                        000000000000000000
F0010000006107700004000089030195100023658300000000000000000201408020002001LIBRERIA NACIONAL S.A.                            C000000000240200000000000000000000100010010000000000000000000000F0010000006107700420140802000101 00000000000000000000000000000000000000000000000000000000000000000000000000000000000000000000000000000000000000000N 00000000000NCONT   00    00000000000          00000000000000000000000000000000000000000000 000000000000000A000000000000000000000000000000000000000000000 000000000000000000000000000000000000000     00000000                                                                                                                        000000000000000000
F0010000006107700005000089030195100013552100000000000000000201408020002001LIBRERIA NACIONAL S.A.                            D000000000240200000000000000000000100010010000000000000000000000F0010000006107700520140802000101 00000000000000000000000000000000000000000000000000000000000000000000000000000000000000000000000000000000000000000N 00000000000NCONT   00    00000000000          00000000000000000000000000000000000000000000 000000000000000A000000000000000000000000000000000000000000000 000000000000000000000000000000000000000     00000000                                                                                                                        000000000000000000
F0010000006107800001000080201127600013050500000000000000000201408020002001ELECTRICOS DEL RUIZ S.A.S.                        D000000057793900000000000000000000100010010000000000000000000000F0010000006107800120140802000101 00000000000000000000000000000000000000000000000000000000000000000000000000000000000000000000000000000000000000000N 00000000000NCONT   00    00000000000          00000000000000000000000000000000000000000000 000000000000000A000000000000000000000000000000000000000000000 000000000000000000000000000000000000000     00000000                                                                                                                        000000000000000000
F0010000006107800002000080201127600041450500000000000000000201408020002001ELECTRICOS DEL RUIZ S.A.S.                        C000000045670000000000000000000000100010010000000000000000000000F0010000006107800220140802000101 00000000000000000000000000000000000000000000000000000000000000000000000000000000000000000000000000000000000000000N 00000000000NCONT   00    00000000000          00000000000000000000000000000000000000000000 000000000000000A000000000000000000000000000000000000000000000 000000000000000000000000000000000000000     00000000                                                                                                                        000000000000000000
F0010000006107800003000080201127600042505000000000000000000201408020002001ELECTRICOS DEL RUIZ S.A.S.                        C000000012123900000000000000000000100010010000000000000000000000F0010000006107800320140802000101 00000000000000000000000000000000000000000000000000000000000000000000000000000000000000000000000000000000000000000N 00000000000NCONT   00    00000000000          00000000000000000000000000000000000000000000 000000000000000A000000000000000000000000000000000000000000000 000000000000000000000000000000000000000     00000000                                                                                                                        000000000000000000
F0010000006107800004000080201127600023658300000000000000000201408020002001ELECTRICOS DEL RUIZ S.A.S.                        C000000000365400000000000000000000100010010000000000000000000000F0010000006107800420140802000101 00000000000000000000000000000000000000000000000000000000000000000000000000000000000000000000000000000000000000000N 00000000000NCONT   00    00000000000          00000000000000000000000000000000000000000000 000000000000000A000000000000000000000000000000000000000000000 000000000000000000000000000000000000000     00000000                                                                                                                        000000000000000000
F0010000006107800005000080201127600013552100000000000000000201408020002001ELECTRICOS DEL RUIZ S.A.S.                        D000000000365400000000000000000000100010010000000000000000000000F0010000006107800520140802000101 00000000000000000000000000000000000000000000000000000000000000000000000000000000000000000000000000000000000000000N 00000000000NCONT   00    00000000000          00000000000000000000000000000000000000000000 000000000000000A000000000000000000000000000000000000000000000 000000000000000000000000000000000000000     00000000                                                                                                                        000000000000000000
F0010000006107900001000090007142100013050500000000000000000201408020002001TODO BELLEZA Y MAX S.A.S                          D000000009910000000000000000000000100010010000000000000000000000F0010000006107900120140802000101 00000000000000000000000000000000000000000000000000000000000000000000000000000000000000000000000000000000000000000N 00000000000NCONT   00    00000000000          00000000000000000000000000000000000000000000 000000000000000A000000000000000000000000000000000000000000000 000000000000000000000000000000000000000     00000000                                                                                                                        000000000000000000
F0010000006107900002000090007142100041450500000000000000000201408020002001TODO BELLEZA Y MAX S.A.S                          C000000009110000000000000000000000100010010000000000000000000000F0010000006107900220140802000101 00000000000000000000000000000000000000000000000000000000000000000000000000000000000000000000000000000000000000000N 00000000000NCONT   00    00000000000          00000000000000000000000000000000000000000000 000000000000000A000000000000000000000000000000000000000000000 000000000000000000000000000000000000000     00000000                                                                                                                        000000000000000000
F0010000006107900003000090007142100042505000000000000000000201408020002001TODO BELLEZA Y MAX S.A.S                          C000000000800000000000000000000000100010010000000000000000000000F0010000006107900320140802000101 00000000000000000000000000000000000000000000000000000000000000000000000000000000000000000000000000000000000000000N 00000000000NCONT   00    00000000000          00000000000000000000000000000000000000000000 000000000000000A000000000000000000000000000000000000000000000 000000000000000000000000000000000000000     00000000                                                                                                                        000000000000000000
F0010000006107900004000090007142100023658300000000000000000201408020002001TODO BELLEZA Y MAX S.A.S                          C000000000072900000000000000000000100010010000000000000000000000F0010000006107900420140802000101 00000000000000000000000000000000000000000000000000000000000000000000000000000000000000000000000000000000000000000N 00000000000NCONT   00    00000000000          00000000000000000000000000000000000000000000 000000000000000A000000000000000000000000000000000000000000000 000000000000000000000000000000000000000     00000000                                                                                                                        000000000000000000
F0010000006107900005000090007142100013552100000000000000000201408020002001TODO BELLEZA Y MAX S.A.S                          D000000000072900000000000000000000100010010000000000000000000000F0010000006107900520140802000101 00000000000000000000000000000000000000000000000000000000000000000000000000000000000000000000000000000000000000000N 00000000000NCONT   00    00000000000          00000000000000000000000000000000000000000000 000000000000000A000000000000000000000000000000000000000000000 000000000000000000000000000000000000000     00000000                                                                                                                        000000000000000000
F0010000006108000001000090013859100013050500000000000000000201408020002001ALUMARKET BARRANQUILLA S.A.S.                     D000000014600000000000000000000000100010010000000000000000000000F0010000006108000120140802000101 00000000000000000000000000000000000000000000000000000000000000000000000000000000000000000000000000000000000000000N 00000000000NCONT   00    00000000000          00000000000000000000000000000000000000000000 000000000000000A000000000000000000000000000000000000000000000 000000000000000000000000000000000000000     00000000                                                                                                                        000000000000000000
F0010000006108000002000090013859100041450500000000000000000201408020002001ALUMARKET BARRANQUILLA S.A.S.                     C000000013260000000000000000000000100010010000000000000000000000F0010000006108000220140802000101 00000000000000000000000000000000000000000000000000000000000000000000000000000000000000000000000000000000000000000N 00000000000NCONT   00    00000000000          00000000000000000000000000000000000000000000 000000000000000A000000000000000000000000000000000000000000000 000000000000000000000000000000000000000     00000000                                                                                                                        000000000000000000
F0010000006108000003000090013859100042505000000000000000000201408020002001ALUMARKET BARRANQUILLA S.A.S.                     C000000001340000000000000000000000100010010000000000000000000000F0010000006108000320140802000101 00000000000000000000000000000000000000000000000000000000000000000000000000000000000000000000000000000000000000000N 00000000000NCONT   00    00000000000          00000000000000000000000000000000000000000000 000000000000000A000000000000000000000000000000000000000000000 000000000000000000000000000000000000000     00000000                                                                                                                        000000000000000000
F0010000006108000004000090013859100023658300000000000000000201408020002001ALUMARKET BARRANQUILLA S.A.S.                     C000000000106100000000000000000000100010010000000000000000000000F0010000006108000420140802000101 00000000000000000000000000000000000000000000000000000000000000000000000000000000000000000000000000000000000000000N 00000000000NCONT   00    00000000000          00000000000000000000000000000000000000000000 000000000000000A000000000000000000000000000000000000000000000 000000000000000000000000000000000000000     00000000                                                                                                                        000000000000000000
F0010000006108000005000090013859100013552100000000000000000201408020002001ALUMARKET BARRANQUILLA S.A.S.                     D000000000106100000000000000000000100010010000000000000000000000F0010000006108000520140802000101 00000000000000000000000000000000000000000000000000000000000000000000000000000000000000000000000000000000000000000N 00000000000NCONT   00    00000000000          00000000000000000000000000000000000000000000 000000000000000A000000000000000000000000000000000000000000000 000000000000000000000000000000000000000     00000000                                                                                                                        000000000000000000
F0010000006108100001000080001063400013050500000000000000000201408020002001PRODUCTOS JULIAO SAS                              D000000044932800000000000000000000100010010000000000000000000000F0010000006108100120140802000101 00000000000000000000000000000000000000000000000000000000000000000000000000000000000000000000000000000000000000000N 00000000000NCONT   00    00000000000          00000000000000000000000000000000000000000000 000000000000000A000000000000000000000000000000000000000000000 000000000000000000000000000000000000000     00000000                                                                                                                        000000000000000000
F0010000006108100002000080001063400041450500000000000000000201408020002001PRODUCTOS JULIAO SAS                              C000000042680000000000000000000000100010010000000000000000000000F0010000006108100220140802000101 00000000000000000000000000000000000000000000000000000000000000000000000000000000000000000000000000000000000000000N 00000000000NCONT   00    00000000000          00000000000000000000000000000000000000000000 000000000000000A000000000000000000000000000000000000000000000 000000000000000000000000000000000000000     00000000                                                                                                                        000000000000000000
F0010000006108100003000080001063400042505000000000000000000201408020002001PRODUCTOS JULIAO SAS                              C000000002252800000000000000000000100010010000000000000000000000F0010000006108100320140802000101 00000000000000000000000000000000000000000000000000000000000000000000000000000000000000000000000000000000000000000N 00000000000NCONT   00    00000000000          00000000000000000000000000000000000000000000 000000000000000A000000000000000000000000000000000000000000000 000000000000000000000000000000000000000     00000000                                                                                                                        000000000000000000
F0010000006108100004000080001063400023658300000000000000000201408020002001PRODUCTOS JULIAO SAS                              C000000000341400000000000000000000100010010000000000000000000000F0010000006108100420140802000101 00000000000000000000000000000000000000000000000000000000000000000000000000000000000000000000000000000000000000000N 00000000000NCONT   00    00000000000          00000000000000000000000000000000000000000000 000000000000000A000000000000000000000000000000000000000000000 000000000000000000000000000000000000000     00000000                                                                                                                        000000000000000000
F0010000006108100005000080001063400013552100000000000000000201408020002001PRODUCTOS JULIAO SAS                              D000000000341400000000000000000000100010010000000000000000000000F0010000006108100520140802000101 00000000000000000000000000000000000000000000000000000000000000000000000000000000000000000000000000000000000000000N 00000000000NCONT   00    00000000000          00000000000000000000000000000000000000000000 000000000000000A000000000000000000000000000000000000000000000 000000000000000000000000000000000000000     00000000                                                                                                                        000000000000000000
F0010000006108200001000090001973700013050500000000000000000201408020002001DISTRIBUIDORA Y PAPELERIA VENEPLAS LTDA           D000000022750000000000000000000000100010010000000000000000000000F0010000006108200120140802000101 00000000000000000000000000000000000000000000000000000000000000000000000000000000000000000000000000000000000000000N 00000000000NCONT   00    00000000000          00000000000000000000000000000000000000000000 000000000000000A000000000000000000000000000000000000000000000 000000000000000000000000000000000000000     00000000                                                                                                                        000000000000000000
F0010000006108200002000090001973700041450500000000000000000201408020002001DISTRIBUIDORA Y PAPELERIA VENEPLAS LTDA           C000000021600000000000000000000000100010010000000000000000000000F0010000006108200220140802000101 00000000000000000000000000000000000000000000000000000000000000000000000000000000000000000000000000000000000000000N 00000000000NCONT   00    00000000000          00000000000000000000000000000000000000000000 000000000000000A000000000000000000000000000000000000000000000 000000000000000000000000000000000000000     00000000                                                                                                                        000000000000000000
F0010000006108200003000090001973700042505000000000000000000201408020002001DISTRIBUIDORA Y PAPELERIA VENEPLAS LTDA           C000000001150000000000000000000000100010010000000000000000000000F0010000006108200320140802000101 00000000000000000000000000000000000000000000000000000000000000000000000000000000000000000000000000000000000000000N 00000000000NCONT   00    00000000000          00000000000000000000000000000000000000000000 000000000000000A000000000000000000000000000000000000000000000 000000000000000000000000000000000000000     00000000                                                                                                                        000000000000000000
F0010000006108200004000090001973700023658300000000000000000201408020002001DISTRIBUIDORA Y PAPELERIA VENEPLAS LTDA           C000000000172800000000000000000000100010010000000000000000000000F0010000006108200420140802000101 00000000000000000000000000000000000000000000000000000000000000000000000000000000000000000000000000000000000000000N 00000000000NCONT   00    00000000000          00000000000000000000000000000000000000000000 000000000000000A000000000000000000000000000000000000000000000 000000000000000000000000000000000000000     00000000                                                                                                                        000000000000000000
F0010000006108200005000090001973700013552100000000000000000201408020002001DISTRIBUIDORA Y PAPELERIA VENEPLAS LTDA           D000000000172800000000000000000000100010010000000000000000000000F0010000006108200520140802000101 00000000000000000000000000000000000000000000000000000000000000000000000000000000000000000000000000000000000000000N 00000000000NCONT   00    00000000000          00000000000000000000000000000000000000000000 000000000000000A000000000000000000000000000000000000000000000 000000000000000000000000000000000000000     00000000                                                                                                                        000000000000000000
F0010000006108300001000000870907300013050500000000000000000201408020002001SURTIDOR FERRETERO                                D000000031560000000000000000000000100010010000000000000000000000F0010000006108300120140802000101 00000000000000000000000000000000000000000000000000000000000000000000000000000000000000000000000000000000000000000N 00000000000NCONT   00    00000000000          00000000000000000000000000000000000000000000 000000000000000A000000000000000000000000000000000000000000000 000000000000000000000000000000000000000     00000000                                                                                                                        000000000000000000
F0010000006108300002000000870907300041450500000000000000000201408020002001SURTIDOR FERRETERO                                C000000024270000000000000000000000100010010000000000000000000000F0010000006108300220140802000101 00000000000000000000000000000000000000000000000000000000000000000000000000000000000000000000000000000000000000000N 00000000000NCONT   00    00000000000          00000000000000000000000000000000000000000000 000000000000000A000000000000000000000000000000000000000000000 000000000000000000000000000000000000000     00000000                                                                                                                        000000000000000000
F0010000006108300003000000870907300041750100000000000000000201408020002001SURTIDOR FERRETERO                                D000000002427000000000000000000000100010010000000000000000000000F0010000006108300320140802000101 00000000000000000000000000000000000000000000000000000000000000000000000000000000000000000000000000000000000000000N 00000000000NCONT   00    00000000000          00000000000000000000000000000000000000000000 000000000000000A000000000000000000000000000000000000000000000 000000000000000000000000000000000000000     00000000                                                                                                                        000000000000000000
F0010000006108300004000000870907300042505000000000000000000201408020002001SURTIDOR FERRETERO                                C000000009717000000000000000000000100010010000000000000000000000F0010000006108300420140802000101 00000000000000000000000000000000000000000000000000000000000000000000000000000000000000000000000000000000000000000N 00000000000NCONT   00    00000000000          00000000000000000000000000000000000000000000 000000000000000A000000000000000000000000000000000000000000000 000000000000000000000000000000000000000     00000000                                                                                                                        000000000000000000
F0010000006108300005000000870907300023658300000000000000000201408020002001SURTIDOR FERRETERO                                C000000000194200000000000000000000100010010000000000000000000000F0010000006108300520140802000101 00000000000000000000000000000000000000000000000000000000000000000000000000000000000000000000000000000000000000000N 00000000000NCONT   00    00000000000          00000000000000000000000000000000000000000000 000000000000000A000000000000000000000000000000000000000000000 000000000000000000000000000000000000000     00000000                                                                                                                        000000000000000000
F0010000006108300006000000870907300013552100000000000000000201408020002001SURTIDOR FERRETERO                                D000000000194200000000000000000000100010010000000000000000000000F0010000006108300620140802000101 00000000000000000000000000000000000000000000000000000000000000000000000000000000000000000000000000000000000000000N 00000000000NCONT   00    00000000000          00000000000000000000000000000000000000000000 000000000000000A000000000000000000000000000000000000000000000 000000000000000000000000000000000000000     00000000                                                                                                                        000000000000000000
F0010000006108400001000080010983700013050500000000000000000201408020002001OHM LTDA                                          D000000022110000000000000000000000100010010000000000000000000000F0010000006108400120140802000101 00000000000000000000000000000000000000000000000000000000000000000000000000000000000000000000000000000000000000000N 00000000000NCONT   00    00000000000          00000000000000000000000000000000000000000000 000000000000000A000000000000000000000000000000000000000000000 000000000000000000000000000000000000000     00000000                                                                                                                        000000000000000000
F0010000006108400002000080010983700041450500000000000000000201408020002001OHM LTDA                                          C000000021780000000000000000000000100010010000000000000000000000F0010000006108400220140802000101 00000000000000000000000000000000000000000000000000000000000000000000000000000000000000000000000000000000000000000N 00000000000NCONT   00    00000000000          00000000000000000000000000000000000000000000 000000000000000A000000000000000000000000000000000000000000000 000000000000000000000000000000000000000     00000000                                                                                                                        000000000000000000
F0010000006108400003000080010983700042505000000000000000000201408020002001OHM LTDA                                          C000000000330000000000000000000000100010010000000000000000000000F0010000006108400320140802000101 00000000000000000000000000000000000000000000000000000000000000000000000000000000000000000000000000000000000000000N 00000000000NCONT   00    00000000000          00000000000000000000000000000000000000000000 000000000000000A000000000000000000000000000000000000000000000 000000000000000000000000000000000000000     00000000                                                                                                                        000000000000000000
F0010000006108400004000080010983700023658300000000000000000201408020002001OHM LTDA                                          C000000000174200000000000000000000100010010000000000000000000000F0010000006108400420140802000101 00000000000000000000000000000000000000000000000000000000000000000000000000000000000000000000000000000000000000000N 00000000000NCONT   00    00000000000          00000000000000000000000000000000000000000000 000000000000000A000000000000000000000000000000000000000000000 000000000000000000000000000000000000000     00000000                                                                                                                        000000000000000000
F0010000006108400005000080010983700013552100000000000000000201408020002001OHM LTDA                                          D000000000174200000000000000000000100010010000000000000000000000F0010000006108400520140802000101 00000000000000000000000000000000000000000000000000000000000000000000000000000000000000000000000000000000000000000N 00000000000NCONT   00    00000000000          00000000000000000000000000000000000000000000 000000000000000A000000000000000000000000000000000000000000000 000000000000000000000000000000000000000     00000000                                                                                                                        000000000000000000
F0010000006108500001000080200250700013050500000000000000000201408020002001ETICOL SAS                                        D000000010000000000000000000000000100010010000000000000000000000F0010000006108500120140802000101 00000000000000000000000000000000000000000000000000000000000000000000000000000000000000000000000000000000000000000N 00000000000NCONT   00    00000000000          00000000000000000000000000000000000000000000 000000000000000A000000000000000000000000000000000000000000000 000000000000000000000000000000000000000     00000000                                                                                                                        000000000000000000
F0010000006108500002000080200250700041450500000000000000000201408020002001ETICOL SAS                                        C000000008500000000000000000000000100010010000000000000000000000F0010000006108500220140802000101 00000000000000000000000000000000000000000000000000000000000000000000000000000000000000000000000000000000000000000N 00000000000NCONT   00    00000000000          00000000000000000000000000000000000000000000 000000000000000A000000000000000000000000000000000000000000000 000000000000000000000000000000000000000     00000000                                                                                                                        000000000000000000
F0010000006108500003000080200250700042505000000000000000000201408020002001ETICOL SAS                                        C000000001500000000000000000000000100010010000000000000000000000F0010000006108500320140802000101 00000000000000000000000000000000000000000000000000000000000000000000000000000000000000000000000000000000000000000N 00000000000NCONT   00    00000000000          00000000000000000000000000000000000000000000 000000000000000A000000000000000000000000000000000000000000000 000000000000000000000000000000000000000     00000000                                                                                                                        000000000000000000
F0010000006108500004000080200250700023658300000000000000000201408020002001ETICOL SAS                                        C000000000068000000000000000000000100010010000000000000000000000F0010000006108500420140802000101 00000000000000000000000000000000000000000000000000000000000000000000000000000000000000000000000000000000000000000N 00000000000NCONT   00    00000000000          00000000000000000000000000000000000000000000 000000000000000A000000000000000000000000000000000000000000000 000000000000000000000000000000000000000     00000000                                                                                                                        000000000000000000
F0010000006108500005000080200250700013552100000000000000000201408020002001ETICOL SAS                                        D000000000068000000000000000000000100010010000000000000000000000F0010000006108500520140802000101 00000000000000000000000000000000000000000000000000000000000000000000000000000000000000000000000000000000000000000N 00000000000NCONT   00    00000000000          00000000000000000000000000000000000000000000 000000000000000A000000000000000000000000000000000000000000000 000000000000000000000000000000000000000     00000000                                                                                                                        000000000000000000
F0010000006108700001000090031601300013050500000000000000000201408020002001COMPAIA QUIMICA S.A.S.                          D000000006780000000000000000000000100010010000000000000000000000F0010000006108700120140802000101 00000000000000000000000000000000000000000000000000000000000000000000000000000000000000000000000000000000000000000N 00000000000NCONT   00    00000000000          00000000000000000000000000000000000000000000 000000000000000A000000000000000000000000000000000000000000000 000000000000000000000000000000000000000     00000000                                                                                                                        000000000000000000
F0010000006108700002000090031601300041450500000000000000000201408020002001COMPAIA QUIMICA S.A.S.                          C000000006320000000000000000000000100010010000000000000000000000F0010000006108700220140802000101 00000000000000000000000000000000000000000000000000000000000000000000000000000000000000000000000000000000000000000N 00000000000NCONT   00    00000000000          00000000000000000000000000000000000000000000 000000000000000A000000000000000000000000000000000000000000000 000000000000000000000000000000000000000     00000000                                                                                                                        000000000000000000
F0010000006108700003000090031601300042505000000000000000000201408020002001COMPAIA QUIMICA S.A.S.                          C000000000460000000000000000000000100010010000000000000000000000F0010000006108700320140802000101 00000000000000000000000000000000000000000000000000000000000000000000000000000000000000000000000000000000000000000N 00000000000NCONT   00    00000000000          00000000000000000000000000000000000000000000 000000000000000A000000000000000000000000000000000000000000000 000000000000000000000000000000000000000     00000000                                                                                                                        000000000000000000
F0010000006108700004000090031601300023658300000000000000000201408020002001COMPAIA QUIMICA S.A.S.                          C000000000050600000000000000000000100010010000000000000000000000F0010000006108700420140802000101 00000000000000000000000000000000000000000000000000000000000000000000000000000000000000000000000000000000000000000N 00000000000NCONT   00    00000000000          00000000000000000000000000000000000000000000 000000000000000A000000000000000000000000000000000000000000000 000000000000000000000000000000000000000     00000000                                                                                                                        000000000000000000
F0010000006108700005000090031601300013552100000000000000000201408020002001COMPAIA QUIMICA S.A.S.                          D000000000050600000000000000000000100010010000000000000000000000F0010000006108700520140802000101 00000000000000000000000000000000000000000000000000000000000000000000000000000000000000000000000000000000000000000N 00000000000NCONT   00    00000000000          00000000000000000000000000000000000000000000 000000000000000A000000000000000000000000000000000000000000000 000000000000000000000000000000000000000     00000000                                                                                                                        000000000000000000
F0010000006108800001000089031248700013050500000000000000000201408020002001DISTRIBUIDORA CALIPLASTICOS LTDA                  D000000021470200000000000000000000100010010000000000000000000000F0010000006108800120140802000101 00000000000000000000000000000000000000000000000000000000000000000000000000000000000000000000000000000000000000000N 00000000000NCONT   00    00000000000          00000000000000000000000000000000000000000000 000000000000000A000000000000000000000000000000000000000000000 000000000000000000000000000000000000000     00000000                                                                                                                        000000000000000000
F0010000006108800002000089031248700041450500000000000000000201408020002001DISTRIBUIDORA CALIPLASTICOS LTDA                  C000000020020200000000000000000000100010010000000000000000000000F0010000006108800220140802000101 00000000000000000000000000000000000000000000000000000000000000000000000000000000000000000000000000000000000000000N 00000000000NCONT   00    00000000000          00000000000000000000000000000000000000000000 000000000000000A000000000000000000000000000000000000000000000 000000000000000000000000000000000000000     00000000                                                                                                                        000000000000000000
F0010000006108800003000089031248700042505000000000000000000201408020002001DISTRIBUIDORA CALIPLASTICOS LTDA                  C000000001450000000000000000000000100010010000000000000000000000F0010000006108800320140802000101 00000000000000000000000000000000000000000000000000000000000000000000000000000000000000000000000000000000000000000N 00000000000NCONT   00    00000000000          00000000000000000000000000000000000000000000 000000000000000A000000000000000000000000000000000000000000000 000000000000000000000000000000000000000     00000000                                                                                                                        000000000000000000
F0010000006108800004000089031248700023658300000000000000000201408020002001DISTRIBUIDORA CALIPLASTICOS LTDA                  C000000000160200000000000000000000100010010000000000000000000000F0010000006108800420140802000101 00000000000000000000000000000000000000000000000000000000000000000000000000000000000000000000000000000000000000000N 00000000000NCONT   00    00000000000          00000000000000000000000000000000000000000000 000000000000000A000000000000000000000000000000000000000000000 000000000000000000000000000000000000000     00000000                                                                                                                        000000000000000000
F0010000006108800005000089031248700013552100000000000000000201408020002001DISTRIBUIDORA CALIPLASTICOS LTDA                  D000000000160200000000000000000000100010010000000000000000000000F0010000006108800520140802000101 00000000000000000000000000000000000000000000000000000000000000000000000000000000000000000000000000000000000000000N 00000000000NCONT   00    00000000000          00000000000000000000000000000000000000000000 000000000000000A000000000000000000000000000000000000000000000 000000000000000000000000000000000000000     00000000                                                                                                                        000000000000000000
F0010000006108900001000007215902600013050500000000000000000201408020002001KRISS LORENA BLANCO  (BANTEX)                     D000000015100000000000000000000000100010010000000000000000000000F0010000006108900120140802000101 00000000000000000000000000000000000000000000000000000000000000000000000000000000000000000000000000000000000000000N 00000000000NCONT   00    00000000000          00000000000000000000000000000000000000000000 000000000000000A000000000000000000000000000000000000000000000 000000000000000000000000000000000000000     00000000                                                                                                                        000000000000000000
F0010000006108900002000007215902600041450500000000000000000201408020002001KRISS LORENA BLANCO  (BANTEX)                     C000000013000000000000000000000000100010010000000000000000000000F0010000006108900220140802000101 00000000000000000000000000000000000000000000000000000000000000000000000000000000000000000000000000000000000000000N 00000000000NCONT   00    00000000000          00000000000000000000000000000000000000000000 000000000000000A000000000000000000000000000000000000000000000 000000000000000000000000000000000000000     00000000                                                                                                                        000000000000000000
F0010000006108900003000007215902600042505000000000000000000201408020002001KRISS LORENA BLANCO  (BANTEX)                     C000000002100000000000000000000000100010010000000000000000000000F0010000006108900320140802000101 00000000000000000000000000000000000000000000000000000000000000000000000000000000000000000000000000000000000000000N 00000000000NCONT   00    00000000000          00000000000000000000000000000000000000000000 000000000000000A000000000000000000000000000000000000000000000 000000000000000000000000000000000000000     00000000                                                                                                                        000000000000000000
F0010000006108900004000007215902600023658300000000000000000201408020002001KRISS LORENA BLANCO  (BANTEX)                     C000000000104000000000000000000000100010010000000000000000000000F0010000006108900420140802000101 00000000000000000000000000000000000000000000000000000000000000000000000000000000000000000000000000000000000000000N 00000000000NCONT   00    00000000000          00000000000000000000000000000000000000000000 000000000000000A000000000000000000000000000000000000000000000 000000000000000000000000000000000000000     00000000                                                                                                                        000000000000000000
F0010000006108900005000007215902600013552100000000000000000201408020002001KRISS LORENA BLANCO  (BANTEX)                     D000000000104000000000000000000000100010010000000000000000000000F0010000006108900520140802000101 00000000000000000000000000000000000000000000000000000000000000000000000000000000000000000000000000000000000000000N 00000000000NCONT   00    00000000000          00000000000000000000000000000000000000000000 000000000000000A000000000000000000000000000000000000000000000 000000000000000000000000000000000000000     00000000                                                                                                                        000000000000000000
F0010000006109000001000080202132300013050500000000000000000201408020002001SUM Y SERV DE LA COSTA LTDA                       D000000025200000000000000000000000100010010000000000000000000000F0010000006109000120140802000101 00000000000000000000000000000000000000000000000000000000000000000000000000000000000000000000000000000000000000000N 00000000000NCONT   00    00000000000          00000000000000000000000000000000000000000000 000000000000000A000000000000000000000000000000000000000000000 000000000000000000000000000000000000000     00000000                                                                                                                        000000000000000000
F0010000006109000002000080202132300041450500000000000000000201408020002001SUM Y SERV DE LA COSTA LTDA                       C000000024150000000000000000000000100010010000000000000000000000F0010000006109000220140802000101 00000000000000000000000000000000000000000000000000000000000000000000000000000000000000000000000000000000000000000N 00000000000NCONT   00    00000000000          00000000000000000000000000000000000000000000 000000000000000A000000000000000000000000000000000000000000000 000000000000000000000000000000000000000     00000000                                                                                                                        000000000000000000
F0010000006109000003000080202132300042505000000000000000000201408020002001SUM Y SERV DE LA COSTA LTDA                       C000000001050000000000000000000000100010010000000000000000000000F0010000006109000320140802000101 00000000000000000000000000000000000000000000000000000000000000000000000000000000000000000000000000000000000000000N 00000000000NCONT   00    00000000000          00000000000000000000000000000000000000000000 000000000000000A000000000000000000000000000000000000000000000 000000000000000000000000000000000000000     00000000                                                                                                                        000000000000000000
F0010000006109000004000080202132300023658300000000000000000201408020002001SUM Y SERV DE LA COSTA LTDA                       C000000000193200000000000000000000100010010000000000000000000000F0010000006109000420140802000101 00000000000000000000000000000000000000000000000000000000000000000000000000000000000000000000000000000000000000000N 00000000000NCONT   00    00000000000          00000000000000000000000000000000000000000000 000000000000000A000000000000000000000000000000000000000000000 000000000000000000000000000000000000000     00000000                                                                                                                        000000000000000000
F0010000006109000005000080202132300013552100000000000000000201408020002001SUM Y SERV DE LA COSTA LTDA                       D000000000193200000000000000000000100010010000000000000000000000F0010000006109000520140802000101 00000000000000000000000000000000000000000000000000000000000000000000000000000000000000000000000000000000000000000N 00000000000NCONT   00    00000000000          00000000000000000000000000000000000000000000 000000000000000A000000000000000000000000000000000000000000000 000000000000000000000000000000000000000     00000000                                                                                                                        000000000000000000
F0010000006109100001000090053611800013050500000000000000000201408020002001PELETERIA COSTA CARIBE S.A .S                     D000000044028000000000000000000000100010010000000000000000000000F0010000006109100120140802000101 00000000000000000000000000000000000000000000000000000000000000000000000000000000000000000000000000000000000000000N 00000000000NCONT   00    00000000000          00000000000000000000000000000000000000000000 000000000000000A000000000000000000000000000000000000000000000 000000000000000000000000000000000000000     00000000                                                                                                                        000000000000000000
F0010000006109100002000090053611800041450500000000000000000201408020002001PELETERIA COSTA CARIBE S.A .S                     C000000034708000000000000000000000100010010000000000000000000000F0010000006109100220140802000101 00000000000000000000000000000000000000000000000000000000000000000000000000000000000000000000000000000000000000000N 00000000000NCONT   00    00000000000          00000000000000000000000000000000000000000000 000000000000000A000000000000000000000000000000000000000000000 000000000000000000000000000000000000000     00000000                                                                                                                        000000000000000000
F0010000006109100003000090053611800042505000000000000000000201408020002001PELETERIA COSTA CARIBE S.A .S                     C000000009320000000000000000000000100010010000000000000000000000F0010000006109100320140802000101 00000000000000000000000000000000000000000000000000000000000000000000000000000000000000000000000000000000000000000N 00000000000NCONT   00    00000000000          00000000000000000000000000000000000000000000 000000000000000A000000000000000000000000000000000000000000000 000000000000000000000000000000000000000     00000000                                                                                                                        000000000000000000
F0010000006109100004000090053611800023658300000000000000000201408020002001PELETERIA COSTA CARIBE S.A .S                     C000000000277700000000000000000000100010010000000000000000000000F0010000006109100420140802000101 00000000000000000000000000000000000000000000000000000000000000000000000000000000000000000000000000000000000000000N 00000000000NCONT   00    00000000000          00000000000000000000000000000000000000000000 000000000000000A000000000000000000000000000000000000000000000 000000000000000000000000000000000000000     00000000                                                                                                                        000000000000000000
F0010000006109100005000090053611800013552100000000000000000201408020002001PELETERIA COSTA CARIBE S.A .S                     D000000000277700000000000000000000100010010000000000000000000000F0010000006109100520140802000101 00000000000000000000000000000000000000000000000000000000000000000000000000000000000000000000000000000000000000000N 00000000000NCONT   00    00000000000          00000000000000000000000000000000000000000000 000000000000000A000000000000000000000000000000000000000000000 000000000000000000000000000000000000000     00000000                                                                                                                        000000000000000000
F0010000006109200001000090072516300013050500000000000000000201408020002001COM. GARCIA Y MELENDEZ                            D000000004100000000000000000000000100010010000000000000000000000F0010000006109200120140802000101 00000000000000000000000000000000000000000000000000000000000000000000000000000000000000000000000000000000000000000N 00000000000NCONT   00    00000000000          00000000000000000000000000000000000000000000 000000000000000A000000000000000000000000000000000000000000000 000000000000000000000000000000000000000     00000000                                                                                                                        000000000000000000
F0010000006109200002000090072516300041450500000000000000000201408020002001COM. GARCIA Y MELENDEZ                            C000000003600000000000000000000000100010010000000000000000000000F0010000006109200220140802000101 00000000000000000000000000000000000000000000000000000000000000000000000000000000000000000000000000000000000000000N 00000000000NCONT   00    00000000000          00000000000000000000000000000000000000000000 000000000000000A000000000000000000000000000000000000000000000 000000000000000000000000000000000000000     00000000                                                                                                                        000000000000000000
F0010000006109200003000090072516300042505000000000000000000201408020002001COM. GARCIA Y MELENDEZ                            C000000000500000000000000000000000100010010000000000000000000000F0010000006109200320140802000101 00000000000000000000000000000000000000000000000000000000000000000000000000000000000000000000000000000000000000000N 00000000000NCONT   00    00000000000          00000000000000000000000000000000000000000000 000000000000000A000000000000000000000000000000000000000000000 000000000000000000000000000000000000000     00000000                                                                                                                        000000000000000000
F0010000006109200004000090072516300023658300000000000000000201408020002001COM. GARCIA Y MELENDEZ                            C000000000028800000000000000000000100010010000000000000000000000F0010000006109200420140802000101 00000000000000000000000000000000000000000000000000000000000000000000000000000000000000000000000000000000000000000N 00000000000NCONT   00    00000000000          00000000000000000000000000000000000000000000 000000000000000A000000000000000000000000000000000000000000000 000000000000000000000000000000000000000     00000000                                                                                                                        000000000000000000
F0010000006109200005000090072516300013552100000000000000000201408020002001COM. GARCIA Y MELENDEZ                            D000000000028800000000000000000000100010010000000000000000000000F0010000006109200520140802000101 00000000000000000000000000000000000000000000000000000000000000000000000000000000000000000000000000000000000000000N 00000000000NCONT   00    00000000000          00000000000000000000000000000000000000000000 000000000000000A000000000000000000000000000000000000000000000 000000000000000000000000000000000000000     00000000                                                                                                                        000000000000000000
F0010000006109300001000080004943800013050500000000000000000201408020002001PAPELERIA EL CID S.A.                             D000000017745000000000000000000000100010010000000000000000000000F0010000006109300120140802000101 00000000000000000000000000000000000000000000000000000000000000000000000000000000000000000000000000000000000000000N 00000000000NCONT   00    00000000000          00000000000000000000000000000000000000000000 000000000000000A000000000000000000000000000000000000000000000 000000000000000000000000000000000000000     00000000                                                                                                                        000000000000000000
F0010000006109300002000080004943800041450500000000000000000201408020002001PAPELERIA EL CID S.A.                             C000000015980000000000000000000000100010010000000000000000000000F0010000006109300220140802000101 00000000000000000000000000000000000000000000000000000000000000000000000000000000000000000000000000000000000000000N 00000000000NCONT   00    00000000000          00000000000000000000000000000000000000000000 000000000000000A000000000000000000000000000000000000000000000 000000000000000000000000000000000000000     00000000                                                                                                                        000000000000000000
F0010000006109300003000080004943800042505000000000000000000201408020002001PAPELERIA EL CID S.A.                             C000000001765000000000000000000000100010010000000000000000000000F0010000006109300320140802000101 00000000000000000000000000000000000000000000000000000000000000000000000000000000000000000000000000000000000000000N 00000000000NCONT   00    00000000000          00000000000000000000000000000000000000000000 000000000000000A000000000000000000000000000000000000000000000 000000000000000000000000000000000000000     00000000                                                                                                                        000000000000000000
F0010000006109300004000080004943800023658300000000000000000201408020002001PAPELERIA EL CID S.A.                             C000000000127800000000000000000000100010010000000000000000000000F0010000006109300420140802000101 00000000000000000000000000000000000000000000000000000000000000000000000000000000000000000000000000000000000000000N 00000000000NCONT   00    00000000000          00000000000000000000000000000000000000000000 000000000000000A000000000000000000000000000000000000000000000 000000000000000000000000000000000000000     00000000                                                                                                                        000000000000000000
F0010000006109300005000080004943800013552100000000000000000201408020002001PAPELERIA EL CID S.A.                             D000000000127800000000000000000000100010010000000000000000000000F0010000006109300520140802000101 00000000000000000000000000000000000000000000000000000000000000000000000000000000000000000000000000000000000000000N 00000000000NCONT   00    00000000000          00000000000000000000000000000000000000000000 000000000000000A000000000000000000000000000000000000000000000 000000000000000000000000000000000000000     00000000                                                                                                                        000000000000000000
F0010000006109400001000007215896800013050500000000000000000201408020002001EDDIER CIRO                                       D000000040974900000000000000000000100010010000000000000000000000F0010000006109400120140802000101 00000000000000000000000000000000000000000000000000000000000000000000000000000000000000000000000000000000000000000N 00000000000NCONT   00    00000000000          00000000000000000000000000000000000000000000 000000000000000A000000000000000000000000000000000000000000000 000000000000000000000000000000000000000     00000000                                                                                                                        000000000000000000
F0010000006109400002000007215896800041450500000000000000000201408020002001EDDIER CIRO                                       C000000034170000000000000000000000100010010000000000000000000000F0010000006109400220140802000101 00000000000000000000000000000000000000000000000000000000000000000000000000000000000000000000000000000000000000000N 00000000000NCONT   00    00000000000          00000000000000000000000000000000000000000000 000000000000000A000000000000000000000000000000000000000000000 000000000000000000000000000000000000000     00000000                                                                                                                        000000000000000000
F0010000006109400003000007215896800042505000000000000000000201408020002001EDDIER CIRO                                       C000000006804900000000000000000000100010010000000000000000000000F0010000006109400320140802000101 00000000000000000000000000000000000000000000000000000000000000000000000000000000000000000000000000000000000000000N 00000000000NCONT   00    00000000000          00000000000000000000000000000000000000000000 000000000000000A000000000000000000000000000000000000000000000 000000000000000000000000000000000000000     00000000                                                                                                                        000000000000000000
F0010000006109400004000007215896800023658300000000000000000201408020002001EDDIER CIRO                                       C000000000273400000000000000000000100010010000000000000000000000F0010000006109400420140802000101 00000000000000000000000000000000000000000000000000000000000000000000000000000000000000000000000000000000000000000N 00000000000NCONT   00    00000000000          00000000000000000000000000000000000000000000 000000000000000A000000000000000000000000000000000000000000000 000000000000000000000000000000000000000     00000000                                                                                                                        000000000000000000
F0010000006109400005000007215896800013552100000000000000000201408020002001EDDIER CIRO                                       D000000000273400000000000000000000100010010000000000000000000000F0010000006109400520140802000101 00000000000000000000000000000000000000000000000000000000000000000000000000000000000000000000000000000000000000000N 00000000000NCONT   00    00000000000          00000000000000000000000000000000000000000000 000000000000000A000000000000000000000000000000000000000000000 000000000000000000000000000000000000000     00000000                                                                                                                        000000000000000000
F0010000006109500001000089011719700013050500000000000000000201408020002001REP. MUNERA GALARZA LTDA (FRANCISCO MUNERA)       D000000008415000000000000000000000100010010000000000000000000000F0010000006109500120140802000101 00000000000000000000000000000000000000000000000000000000000000000000000000000000000000000000000000000000000000000N 00000000000NCONT   00    00000000000          00000000000000000000000000000000000000000000 000000000000000A000000000000000000000000000000000000000000000 000000000000000000000000000000000000000     00000000                                                                                                                        000000000000000000
F0010000006109500002000089011719700041450500000000000000000201408020002001REP. MUNERA GALARZA LTDA (FRANCISCO MUNERA)       C000000007630000000000000000000000100010010000000000000000000000F0010000006109500220140802000101 00000000000000000000000000000000000000000000000000000000000000000000000000000000000000000000000000000000000000000N 00000000000NCONT   00    00000000000          00000000000000000000000000000000000000000000 000000000000000A000000000000000000000000000000000000000000000 000000000000000000000000000000000000000     00000000                                                                                                                        000000000000000000
F0010000006109500003000089011719700042505000000000000000000201408020002001REP. MUNERA GALARZA LTDA (FRANCISCO MUNERA)       C000000000785000000000000000000000100010010000000000000000000000F0010000006109500320140802000101 00000000000000000000000000000000000000000000000000000000000000000000000000000000000000000000000000000000000000000N 00000000000NCONT   00    00000000000          00000000000000000000000000000000000000000000 000000000000000A000000000000000000000000000000000000000000000 000000000000000000000000000000000000000     00000000                                                                                                                        000000000000000000
