F0010000007876500001000080200863700013050500000000000000000201511110002001COPIN S.A.S                                       D000000112943800000000000000000000100010010000000000000000000000F0010000007876500120151111000101 00000000000000000000000000000000000000000000000000000000000000000000000000000000000000000000000000000000000000000N 00000000000NCONT   00    00000000000          00000000000000000000000000000000000000000000 000000000000000A000000000000000000000000000000000000000000000 000000000000000000000000000000000000000     00000000                                                                                                                        000000000000000000
F0010000007876500002000080200863700041450500000000000000000201511110002001COPIN S.A.S                                       C000000101830000000000000000000000100010010000000000000000000000F0010000007876500220151111000101 00000000000000000000000000000000000000000000000000000000000000000000000000000000000000000000000000000000000000000N 00000000000NCONT   00    00000000000          00000000000000000000000000000000000000000000 000000000000000A000000000000000000000000000000000000000000000 000000000000000000000000000000000000000     00000000                                                                                                                        000000000000000000
F0010000007876500003000080200863700042505000000000000000000201511110002001COPIN S.A.S                                       C000000011113800000000000000000000100010010000000000000000000000F0010000007876500320151111000101 00000000000000000000000000000000000000000000000000000000000000000000000000000000000000000000000000000000000000000N 00000000000NCONT   00    00000000000          00000000000000000000000000000000000000000000 000000000000000A000000000000000000000000000000000000000000000 000000000000000000000000000000000000000     00000000                                                                                                                        000000000000000000
F0010000007876500004000080200863700023658300000000000000000201511110002001COPIN S.A.S                                       C000000000814600000000000000000000100010010000000000000000000000F0010000007876500420151111000101 00000000000000000000000000000000000000000000000000000000000000000000000000000000000000000000000000000000000000000N 00000000000NCONT   00    00000000000          00000000000000000000000000000000000000000000 000000000000000A000000000000000000000000000000000000000000000 000000000000000000000000000000000000000     00000000                                                                                                                        000000000000000000
F0010000007876500005000080200863700013552100000000000000000201511110002001COPIN S.A.S                                       D000000000814600000000000000000000100010010000000000000000000000F0010000007876500520151111000101 00000000000000000000000000000000000000000000000000000000000000000000000000000000000000000000000000000000000000000N 00000000000NCONT   00    00000000000          00000000000000000000000000000000000000000000 000000000000000A000000000000000000000000000000000000000000000 000000000000000000000000000000000000000     00000000                                                                                                                        000000000000000000
F0010000007876600001000007215983800013050500000000000000000201511110002001INDUSTRIA  LAFERBE                                D000000003000000000000000000000000100010010000000000000000000000F0010000007876600120151111000101 00000000000000000000000000000000000000000000000000000000000000000000000000000000000000000000000000000000000000000N 00000000000NCONT   00    00000000000          00000000000000000000000000000000000000000000 000000000000000A000000000000000000000000000000000000000000000 000000000000000000000000000000000000000     00000000                                                                                                                        000000000000000000
F0010000007876600002000007215983800041450500000000000000000201511110002001INDUSTRIA  LAFERBE                                C000000002500000000000000000000000100010010000000000000000000000F0010000007876600220151111000101 00000000000000000000000000000000000000000000000000000000000000000000000000000000000000000000000000000000000000000N 00000000000NCONT   00    00000000000          00000000000000000000000000000000000000000000 000000000000000A000000000000000000000000000000000000000000000 000000000000000000000000000000000000000     00000000                                                                                                                        000000000000000000
F0010000007876600003000007215983800042505000000000000000000201511110002001INDUSTRIA  LAFERBE                                C000000000500000000000000000000000100010010000000000000000000000F0010000007876600320151111000101 00000000000000000000000000000000000000000000000000000000000000000000000000000000000000000000000000000000000000000N 00000000000NCONT   00    00000000000          00000000000000000000000000000000000000000000 000000000000000A000000000000000000000000000000000000000000000 000000000000000000000000000000000000000     00000000                                                                                                                        000000000000000000
F0010000007876600004000007215983800023658300000000000000000201511110002001INDUSTRIA  LAFERBE                                C000000000020000000000000000000000100010010000000000000000000000F0010000007876600420151111000101 00000000000000000000000000000000000000000000000000000000000000000000000000000000000000000000000000000000000000000N 00000000000NCONT   00    00000000000          00000000000000000000000000000000000000000000 000000000000000A000000000000000000000000000000000000000000000 000000000000000000000000000000000000000     00000000                                                                                                                        000000000000000000
F0010000007876600005000007215983800013552100000000000000000201511110002001INDUSTRIA  LAFERBE                                D000000000020000000000000000000000100010010000000000000000000000F0010000007876600520151111000101 00000000000000000000000000000000000000000000000000000000000000000000000000000000000000000000000000000000000000000N 00000000000NCONT   00    00000000000          00000000000000000000000000000000000000000000 000000000000000A000000000000000000000000000000000000000000000 000000000000000000000000000000000000000     00000000                                                                                                                        000000000000000000
F0010000007876700001000089010260300013050500000000000000000201511110002001FEDERICO OSORIO A. S.A.                           D000000179641200000000000000000000100010010000000000000000000000F0010000007876700120151111000101 00000000000000000000000000000000000000000000000000000000000000000000000000000000000000000000000000000000000000000N 00000000000NCONT   00    00000000000          00000000000000000000000000000000000000000000 000000000000000A000000000000000000000000000000000000000000000 000000000000000000000000000000000000000     00000000                                                                                                                        000000000000000000
F0010000007876700002000089010260300041450500000000000000000201511110002001FEDERICO OSORIO A. S.A.                           C000000161160000000000000000000000100010010000000000000000000000F0010000007876700220151111000101 00000000000000000000000000000000000000000000000000000000000000000000000000000000000000000000000000000000000000000N 00000000000NCONT   00    00000000000          00000000000000000000000000000000000000000000 000000000000000A000000000000000000000000000000000000000000000 000000000000000000000000000000000000000     00000000                                                                                                                        000000000000000000
F0010000007876700003000089010260300042505000000000000000000201511110002001FEDERICO OSORIO A. S.A.                           C000000018481200000000000000000000100010010000000000000000000000F0010000007876700320151111000101 00000000000000000000000000000000000000000000000000000000000000000000000000000000000000000000000000000000000000000N 00000000000NCONT   00    00000000000          00000000000000000000000000000000000000000000 000000000000000A000000000000000000000000000000000000000000000 000000000000000000000000000000000000000     00000000                                                                                                                        000000000000000000
F0010000007876700004000089010260300023658300000000000000000201511110002001FEDERICO OSORIO A. S.A.                           C000000001289300000000000000000000100010010000000000000000000000F0010000007876700420151111000101 00000000000000000000000000000000000000000000000000000000000000000000000000000000000000000000000000000000000000000N 00000000000NCONT   00    00000000000          00000000000000000000000000000000000000000000 000000000000000A000000000000000000000000000000000000000000000 000000000000000000000000000000000000000     00000000                                                                                                                        000000000000000000
F0010000007876700005000089010260300013552100000000000000000201511110002001FEDERICO OSORIO A. S.A.                           D000000001289300000000000000000000100010010000000000000000000000F0010000007876700520151111000101 00000000000000000000000000000000000000000000000000000000000000000000000000000000000000000000000000000000000000000N 00000000000NCONT   00    00000000000          00000000000000000000000000000000000000000000 000000000000000A000000000000000000000000000000000000000000000 000000000000000000000000000000000000000     00000000                                                                                                                        000000000000000000
F0010000007876800001000089010260300013050500000000000000000201511110002001FEDERICO OSORIO A. S.A.                           D000000035785200000000000000000000100010010000000000000000000000F0010000007876800120151111000101 00000000000000000000000000000000000000000000000000000000000000000000000000000000000000000000000000000000000000000N 00000000000NCONT   00    00000000000          00000000000000000000000000000000000000000000 000000000000000A000000000000000000000000000000000000000000000 000000000000000000000000000000000000000     00000000                                                                                                                        000000000000000000
F0010000007876800002000089010260300041450500000000000000000201511110002001FEDERICO OSORIO A. S.A.                           C000000034470000000000000000000000100010010000000000000000000000F0010000007876800220151111000101 00000000000000000000000000000000000000000000000000000000000000000000000000000000000000000000000000000000000000000N 00000000000NCONT   00    00000000000          00000000000000000000000000000000000000000000 000000000000000A000000000000000000000000000000000000000000000 000000000000000000000000000000000000000     00000000                                                                                                                        000000000000000000
F0010000007876800003000089010260300042505000000000000000000201511110002001FEDERICO OSORIO A. S.A.                           C000000001315200000000000000000000100010010000000000000000000000F0010000007876800320151111000101 00000000000000000000000000000000000000000000000000000000000000000000000000000000000000000000000000000000000000000N 00000000000NCONT   00    00000000000          00000000000000000000000000000000000000000000 000000000000000A000000000000000000000000000000000000000000000 000000000000000000000000000000000000000     00000000                                                                                                                        000000000000000000
F0010000007876800004000089010260300023658300000000000000000201511110002001FEDERICO OSORIO A. S.A.                           C000000000275800000000000000000000100010010000000000000000000000F0010000007876800420151111000101 00000000000000000000000000000000000000000000000000000000000000000000000000000000000000000000000000000000000000000N 00000000000NCONT   00    00000000000          00000000000000000000000000000000000000000000 000000000000000A000000000000000000000000000000000000000000000 000000000000000000000000000000000000000     00000000                                                                                                                        000000000000000000
F0010000007876800005000089010260300013552100000000000000000201511110002001FEDERICO OSORIO A. S.A.                           D000000000275800000000000000000000100010010000000000000000000000F0010000007876800520151111000101 00000000000000000000000000000000000000000000000000000000000000000000000000000000000000000000000000000000000000000N 00000000000NCONT   00    00000000000          00000000000000000000000000000000000000000000 000000000000000A000000000000000000000000000000000000000000000 000000000000000000000000000000000000000     00000000                                                                                                                        000000000000000000
F0010000007876900001000089010150900011050500000000000000000201511110002001KALUSIN IMPORTING COMPANY S.A                     D000000011800000000000000000000000100010010000000000000000000000F0010000007876900120151111000101 00000000000000000000000000000000000000000000000000000000000000000000000000000000000000000000000000000000000000000N 00000000000NCONT   00    00000000000          00000000000000000000000000000000000000000000 000000000000000A000000000000000000000000000000000000000000000 000000000000000000000000000000000000000     00000000                                                                                                                        000000000000000000
F0010000007876900002000089010150900041450500000000000000000201511110002001KALUSIN IMPORTING COMPANY S.A                     C000000010800000000000000000000000100010010000000000000000000000F0010000007876900220151111000101 00000000000000000000000000000000000000000000000000000000000000000000000000000000000000000000000000000000000000000N 00000000000NCONT   00    00000000000          00000000000000000000000000000000000000000000 000000000000000A000000000000000000000000000000000000000000000 000000000000000000000000000000000000000     00000000                                                                                                                        000000000000000000
F0010000007876900003000089010150900042505000000000000000000201511110002001KALUSIN IMPORTING COMPANY S.A                     C000000001000000000000000000000000100010010000000000000000000000F0010000007876900320151111000101 00000000000000000000000000000000000000000000000000000000000000000000000000000000000000000000000000000000000000000N 00000000000NCONT   00    00000000000          00000000000000000000000000000000000000000000 000000000000000A000000000000000000000000000000000000000000000 000000000000000000000000000000000000000     00000000                                                                                                                        000000000000000000
F0010000007876900004000089010150900023658300000000000000000201511110002001KALUSIN IMPORTING COMPANY S.A                     C000000000086400000000000000000000100010010000000000000000000000F0010000007876900420151111000101 00000000000000000000000000000000000000000000000000000000000000000000000000000000000000000000000000000000000000000N 00000000000NCONT   00    00000000000          00000000000000000000000000000000000000000000 000000000000000A000000000000000000000000000000000000000000000 000000000000000000000000000000000000000     00000000                                                                                                                        000000000000000000
F0010000007876900005000089010150900013552100000000000000000201511110002001KALUSIN IMPORTING COMPANY S.A                     D000000000086400000000000000000000100010010000000000000000000000F0010000007876900520151111000101 00000000000000000000000000000000000000000000000000000000000000000000000000000000000000000000000000000000000000000N 00000000000NCONT   00    00000000000          00000000000000000000000000000000000000000000 000000000000000A000000000000000000000000000000000000000000000 000000000000000000000000000000000000000     00000000                                                                                                                        000000000000000000
F0010000007877000001000003207718300011050500000000000000000201511110002001MARIA GILMA  RAMIREZ GARCIA                       D000000002000000000000000000000000100010010000000000000000000000F0010000007877000120151111000101 00000000000000000000000000000000000000000000000000000000000000000000000000000000000000000000000000000000000000000N 00000000000NCONT   00    00000000000          00000000000000000000000000000000000000000000 000000000000000A000000000000000000000000000000000000000000000 000000000000000000000000000000000000000     00000000                                                                                                                        000000000000000000
F0010000007877000002000003207718300041450500000000000000000201511110002001MARIA GILMA  RAMIREZ GARCIA                       C000000001500000000000000000000000100010010000000000000000000000F0010000007877000220151111000101 00000000000000000000000000000000000000000000000000000000000000000000000000000000000000000000000000000000000000000N 00000000000NCONT   00    00000000000          00000000000000000000000000000000000000000000 000000000000000A000000000000000000000000000000000000000000000 000000000000000000000000000000000000000     00000000                                                                                                                        000000000000000000
F0010000007877000003000003207718300042505000000000000000000201511110002001MARIA GILMA  RAMIREZ GARCIA                       C000000000500000000000000000000000100010010000000000000000000000F0010000007877000320151111000101 00000000000000000000000000000000000000000000000000000000000000000000000000000000000000000000000000000000000000000N 00000000000NCONT   00    00000000000          00000000000000000000000000000000000000000000 000000000000000A000000000000000000000000000000000000000000000 000000000000000000000000000000000000000     00000000                                                                                                                        000000000000000000
F0010000007877000004000003207718300023658300000000000000000201511110002001MARIA GILMA  RAMIREZ GARCIA                       C000000000012000000000000000000000100010010000000000000000000000F0010000007877000420151111000101 00000000000000000000000000000000000000000000000000000000000000000000000000000000000000000000000000000000000000000N 00000000000NCONT   00    00000000000          00000000000000000000000000000000000000000000 000000000000000A000000000000000000000000000000000000000000000 000000000000000000000000000000000000000     00000000                                                                                                                        000000000000000000
F0010000007877000005000003207718300013552100000000000000000201511110002001MARIA GILMA  RAMIREZ GARCIA                       D000000000012000000000000000000000100010010000000000000000000000F0010000007877000520151111000101 00000000000000000000000000000000000000000000000000000000000000000000000000000000000000000000000000000000000000000N 00000000000NCONT   00    00000000000          00000000000000000000000000000000000000000000 000000000000000A000000000000000000000000000000000000000000000 000000000000000000000000000000000000000     00000000                                                                                                                        000000000000000000
F0010000007877100001000090073498600011050500000000000000000201511110002001VALTAC S.A.S                                      D000000007000000000000000000000000100010010000000000000000000000F0010000007877100120151111000101 00000000000000000000000000000000000000000000000000000000000000000000000000000000000000000000000000000000000000000N 00000000000NCONT   00    00000000000          00000000000000000000000000000000000000000000 000000000000000A000000000000000000000000000000000000000000000 000000000000000000000000000000000000000     00000000                                                                                                                        000000000000000000
F0010000007877100002000090073498600041450500000000000000000201511110002001VALTAC S.A.S                                      C000000006500000000000000000000000100010010000000000000000000000F0010000007877100220151111000101 00000000000000000000000000000000000000000000000000000000000000000000000000000000000000000000000000000000000000000N 00000000000NCONT   00    00000000000          00000000000000000000000000000000000000000000 000000000000000A000000000000000000000000000000000000000000000 000000000000000000000000000000000000000     00000000                                                                                                                        000000000000000000
F0010000007877100003000090073498600042505000000000000000000201511110002001VALTAC S.A.S                                      C000000000500000000000000000000000100010010000000000000000000000F0010000007877100320151111000101 00000000000000000000000000000000000000000000000000000000000000000000000000000000000000000000000000000000000000000N 00000000000NCONT   00    00000000000          00000000000000000000000000000000000000000000 000000000000000A000000000000000000000000000000000000000000000 000000000000000000000000000000000000000     00000000                                                                                                                        000000000000000000
F0010000007877100004000090073498600023658300000000000000000201511110002001VALTAC S.A.S                                      C000000000052000000000000000000000100010010000000000000000000000F0010000007877100420151111000101 00000000000000000000000000000000000000000000000000000000000000000000000000000000000000000000000000000000000000000N 00000000000NCONT   00    00000000000          00000000000000000000000000000000000000000000 000000000000000A000000000000000000000000000000000000000000000 000000000000000000000000000000000000000     00000000                                                                                                                        000000000000000000
F0010000007877100005000090073498600013552100000000000000000201511110002001VALTAC S.A.S                                      D000000000052000000000000000000000100010010000000000000000000000F0010000007877100520151111000101 00000000000000000000000000000000000000000000000000000000000000000000000000000000000000000000000000000000000000000N 00000000000NCONT   00    00000000000          00000000000000000000000000000000000000000000 000000000000000A000000000000000000000000000000000000000000000 000000000000000000000000000000000000000     00000000                                                                                                                        000000000000000000
F0010000007877200001000081102758700013050500000000000000000201511110002001C.I. ABRACOL S.A EMA                              D000000078354200000000000000000000100010010000000000000000000000F0010000007877200120151111000101 00000000000000000000000000000000000000000000000000000000000000000000000000000000000000000000000000000000000000000N 00000000000NCONT   00    00000000000          00000000000000000000000000000000000000000000 000000000000000A000000000000000000000000000000000000000000000 000000000000000000000000000000000000000     00000000                                                                                                                        000000000000000000
F0010000007877200002000081102758700041450500000000000000000201511110002001C.I. ABRACOL S.A EMA                              C000000051200000000000000000000000100010010000000000000000000000F0010000007877200220151111000101 00000000000000000000000000000000000000000000000000000000000000000000000000000000000000000000000000000000000000000N 00000000000NCONT   00    00000000000          00000000000000000000000000000000000000000000 000000000000000A000000000000000000000000000000000000000000000 000000000000000000000000000000000000000     00000000                                                                                                                        000000000000000000
F0010000007877200003000081102758700041750100000000000000000201511110002001C.I. ABRACOL S.A EMA                              D000000001536000000000000000000000100010010000000000000000000000F0010000007877200320151111000101 00000000000000000000000000000000000000000000000000000000000000000000000000000000000000000000000000000000000000000N 00000000000NCONT   00    00000000000          00000000000000000000000000000000000000000000 000000000000000A000000000000000000000000000000000000000000000 000000000000000000000000000000000000000     00000000                                                                                                                        000000000000000000
F0010000007877200004000081102758700042505000000000000000000201511110002001C.I. ABRACOL S.A EMA                              C000000028690200000000000000000000100010010000000000000000000000F0010000007877200420151111000101 00000000000000000000000000000000000000000000000000000000000000000000000000000000000000000000000000000000000000000N 00000000000NCONT   00    00000000000          00000000000000000000000000000000000000000000 000000000000000A000000000000000000000000000000000000000000000 000000000000000000000000000000000000000     00000000                                                                                                                        000000000000000000
F0010000007877200005000081102758700023658300000000000000000201511110002001C.I. ABRACOL S.A EMA                              C000000000409600000000000000000000100010010000000000000000000000F0010000007877200520151111000101 00000000000000000000000000000000000000000000000000000000000000000000000000000000000000000000000000000000000000000N 00000000000NCONT   00    00000000000          00000000000000000000000000000000000000000000 000000000000000A000000000000000000000000000000000000000000000 000000000000000000000000000000000000000     00000000                                                                                                                        000000000000000000
F0010000007877200006000081102758700013552100000000000000000201511110002001C.I. ABRACOL S.A EMA                              D000000000409600000000000000000000100010010000000000000000000000F0010000007877200620151111000101 00000000000000000000000000000000000000000000000000000000000000000000000000000000000000000000000000000000000000000N 00000000000NCONT   00    00000000000          00000000000000000000000000000000000000000000 000000000000000A000000000000000000000000000000000000000000000 000000000000000000000000000000000000000     00000000                                                                                                                        000000000000000000
F0010000007877300001000081102758700013050500000000000000000201511110002001C.I. ABRACOL S.A EMA                              D000000053053800000000000000000000100010010000000000000000000000F0010000007877300120151111000101 00000000000000000000000000000000000000000000000000000000000000000000000000000000000000000000000000000000000000000N 00000000000NCONT   00    00000000000          00000000000000000000000000000000000000000000 000000000000000A000000000000000000000000000000000000000000000 000000000000000000000000000000000000000     00000000                                                                                                                        000000000000000000
F0010000007877300002000081102758700041450500000000000000000201511110002001C.I. ABRACOL S.A EMA                              C000000032570000000000000000000000100010010000000000000000000000F0010000007877300220151111000101 00000000000000000000000000000000000000000000000000000000000000000000000000000000000000000000000000000000000000000N 00000000000NCONT   00    00000000000          00000000000000000000000000000000000000000000 000000000000000A000000000000000000000000000000000000000000000 000000000000000000000000000000000000000     00000000                                                                                                                        000000000000000000
F0010000007877300003000081102758700041750100000000000000000201511110002001C.I. ABRACOL S.A EMA                              D000000000977100000000000000000000100010010000000000000000000000F0010000007877300320151111000101 00000000000000000000000000000000000000000000000000000000000000000000000000000000000000000000000000000000000000000N 00000000000NCONT   00    00000000000          00000000000000000000000000000000000000000000 000000000000000A000000000000000000000000000000000000000000000 000000000000000000000000000000000000000     00000000                                                                                                                        000000000000000000
F0010000007877300004000081102758700042505000000000000000000201511110002001C.I. ABRACOL S.A EMA                              C000000021460900000000000000000000100010010000000000000000000000F0010000007877300420151111000101 00000000000000000000000000000000000000000000000000000000000000000000000000000000000000000000000000000000000000000N 00000000000NCONT   00    00000000000          00000000000000000000000000000000000000000000 000000000000000A000000000000000000000000000000000000000000000 000000000000000000000000000000000000000     00000000                                                                                                                        000000000000000000
F0010000007877300005000081102758700023658300000000000000000201511110002001C.I. ABRACOL S.A EMA                              C000000000260600000000000000000000100010010000000000000000000000F0010000007877300520151111000101 00000000000000000000000000000000000000000000000000000000000000000000000000000000000000000000000000000000000000000N 00000000000NCONT   00    00000000000          00000000000000000000000000000000000000000000 000000000000000A000000000000000000000000000000000000000000000 000000000000000000000000000000000000000     00000000                                                                                                                        000000000000000000
F0010000007877300006000081102758700013552100000000000000000201511110002001C.I. ABRACOL S.A EMA                              D000000000260600000000000000000000100010010000000000000000000000F0010000007877300620151111000101 00000000000000000000000000000000000000000000000000000000000000000000000000000000000000000000000000000000000000000N 00000000000NCONT   00    00000000000          00000000000000000000000000000000000000000000 000000000000000A000000000000000000000000000000000000000000000 000000000000000000000000000000000000000     00000000                                                                                                                        000000000000000000
F0010000007877400001000081102758700013050500000000000000000201511110002001C.I. ABRACOL S.A EMA                              D000000074177500000000000000000000100010010000000000000000000000F0010000007877400120151111000101 00000000000000000000000000000000000000000000000000000000000000000000000000000000000000000000000000000000000000000N 00000000000NCONT   00    00000000000          00000000000000000000000000000000000000000000 000000000000000A000000000000000000000000000000000000000000000 000000000000000000000000000000000000000     00000000                                                                                                                        000000000000000000
F0010000007877400002000081102758700041450500000000000000000201511110002001C.I. ABRACOL S.A EMA                              C000000054580000000000000000000000100010010000000000000000000000F0010000007877400220151111000101 00000000000000000000000000000000000000000000000000000000000000000000000000000000000000000000000000000000000000000N 00000000000NCONT   00    00000000000          00000000000000000000000000000000000000000000 000000000000000A000000000000000000000000000000000000000000000 000000000000000000000000000000000000000     00000000                                                                                                                        000000000000000000
F0010000007877400003000081102758700041750100000000000000000201511110002001C.I. ABRACOL S.A EMA                              D000000001637400000000000000000000100010010000000000000000000000F0010000007877400320151111000101 00000000000000000000000000000000000000000000000000000000000000000000000000000000000000000000000000000000000000000N 00000000000NCONT   00    00000000000          00000000000000000000000000000000000000000000 000000000000000A000000000000000000000000000000000000000000000 000000000000000000000000000000000000000     00000000                                                                                                                        000000000000000000
F0010000007877400004000081102758700042505000000000000000000201511110002001C.I. ABRACOL S.A EMA                              C000000021234900000000000000000000100010010000000000000000000000F0010000007877400420151111000101 00000000000000000000000000000000000000000000000000000000000000000000000000000000000000000000000000000000000000000N 00000000000NCONT   00    00000000000          00000000000000000000000000000000000000000000 000000000000000A000000000000000000000000000000000000000000000 000000000000000000000000000000000000000     00000000                                                                                                                        000000000000000000
F0010000007877400005000081102758700023658300000000000000000201511110002001C.I. ABRACOL S.A EMA                              C000000000436600000000000000000000100010010000000000000000000000F0010000007877400520151111000101 00000000000000000000000000000000000000000000000000000000000000000000000000000000000000000000000000000000000000000N 00000000000NCONT   00    00000000000          00000000000000000000000000000000000000000000 000000000000000A000000000000000000000000000000000000000000000 000000000000000000000000000000000000000     00000000                                                                                                                        000000000000000000
F0010000007877400006000081102758700013552100000000000000000201511110002001C.I. ABRACOL S.A EMA                              D000000000436600000000000000000000100010010000000000000000000000F0010000007877400620151111000101 00000000000000000000000000000000000000000000000000000000000000000000000000000000000000000000000000000000000000000N 00000000000NCONT   00    00000000000          00000000000000000000000000000000000000000000 000000000000000A000000000000000000000000000000000000000000000 000000000000000000000000000000000000000     00000000                                                                                                                        000000000000000000
F0010000007877500001000089011033000011050500000000000000000201511110002001INDUSTRIAS CRUZ & CAÑON LTDA                     D000000025600000000000000000000000100010010000000000000000000000F0010000007877500120151111000101 00000000000000000000000000000000000000000000000000000000000000000000000000000000000000000000000000000000000000000N 00000000000NCONT   00    00000000000          00000000000000000000000000000000000000000000 000000000000000A000000000000000000000000000000000000000000000 000000000000000000000000000000000000000     00000000                                                                                                                        000000000000000000
F0010000007877500002000089011033000041450500000000000000000201511110002001INDUSTRIAS CRUZ & CAÑON LTDA                     C000000024000000000000000000000000100010010000000000000000000000F0010000007877500220151111000101 00000000000000000000000000000000000000000000000000000000000000000000000000000000000000000000000000000000000000000N 00000000000NCONT   00    00000000000          00000000000000000000000000000000000000000000 000000000000000A000000000000000000000000000000000000000000000 000000000000000000000000000000000000000     00000000                                                                                                                        000000000000000000
F0010000007877500003000089011033000042505000000000000000000201511110002001INDUSTRIAS CRUZ & CAÑON LTDA                     C000000001600000000000000000000000100010010000000000000000000000F0010000007877500320151111000101 00000000000000000000000000000000000000000000000000000000000000000000000000000000000000000000000000000000000000000N 00000000000NCONT   00    00000000000          00000000000000000000000000000000000000000000 000000000000000A000000000000000000000000000000000000000000000 000000000000000000000000000000000000000     00000000                                                                                                                        000000000000000000
F0010000007877500004000089011033000023658300000000000000000201511110002001INDUSTRIAS CRUZ & CAÑON LTDA                     C000000000192000000000000000000000100010010000000000000000000000F0010000007877500420151111000101 00000000000000000000000000000000000000000000000000000000000000000000000000000000000000000000000000000000000000000N 00000000000NCONT   00    00000000000          00000000000000000000000000000000000000000000 000000000000000A000000000000000000000000000000000000000000000 000000000000000000000000000000000000000     00000000                                                                                                                        000000000000000000
F0010000007877500005000089011033000013552100000000000000000201511110002001INDUSTRIAS CRUZ & CAÑON LTDA                     D000000000192000000000000000000000100010010000000000000000000000F0010000007877500520151111000101 00000000000000000000000000000000000000000000000000000000000000000000000000000000000000000000000000000000000000000N 00000000000NCONT   00    00000000000          00000000000000000000000000000000000000000000 000000000000000A000000000000000000000000000000000000000000000 000000000000000000000000000000000000000     00000000                                                                                                                        000000000000000000
F0010000007877600001000000869805000011050500000000000000000201511110002001WILLMAN RAMBAL                                    D000000005350000000000000000000000100010010000000000000000000000F0010000007877600120151111000101 00000000000000000000000000000000000000000000000000000000000000000000000000000000000000000000000000000000000000000N 00000000000NCONT   00    00000000000          00000000000000000000000000000000000000000000 000000000000000A000000000000000000000000000000000000000000000 000000000000000000000000000000000000000     00000000                                                                                                                        000000000000000000
F0010000007877600002000000869805000041450500000000000000000201511110002001WILLMAN RAMBAL                                    C000000005200000000000000000000000100010010000000000000000000000F0010000007877600220151111000101 00000000000000000000000000000000000000000000000000000000000000000000000000000000000000000000000000000000000000000N 00000000000NCONT   00    00000000000          00000000000000000000000000000000000000000000 000000000000000A000000000000000000000000000000000000000000000 000000000000000000000000000000000000000     00000000                                                                                                                        000000000000000000
F0010000007877600003000000869805000042505000000000000000000201511110002001WILLMAN RAMBAL                                    C000000000150000000000000000000000100010010000000000000000000000F0010000007877600320151111000101 00000000000000000000000000000000000000000000000000000000000000000000000000000000000000000000000000000000000000000N 00000000000NCONT   00    00000000000          00000000000000000000000000000000000000000000 000000000000000A000000000000000000000000000000000000000000000 000000000000000000000000000000000000000     00000000                                                                                                                        000000000000000000
F0010000007877600004000000869805000023658300000000000000000201511110002001WILLMAN RAMBAL                                    C000000000041600000000000000000000100010010000000000000000000000F0010000007877600420151111000101 00000000000000000000000000000000000000000000000000000000000000000000000000000000000000000000000000000000000000000N 00000000000NCONT   00    00000000000          00000000000000000000000000000000000000000000 000000000000000A000000000000000000000000000000000000000000000 000000000000000000000000000000000000000     00000000                                                                                                                        000000000000000000
F0010000007877600005000000869805000013552100000000000000000201511110002001WILLMAN RAMBAL                                    D000000000041600000000000000000000100010010000000000000000000000F0010000007877600520151111000101 00000000000000000000000000000000000000000000000000000000000000000000000000000000000000000000000000000000000000000N 00000000000NCONT   00    00000000000          00000000000000000000000000000000000000000000 000000000000000A000000000000000000000000000000000000000000000 000000000000000000000000000000000000000     00000000                                                                                                                        000000000000000000
F0010000007877700001000090020547900011050500000000000000000201511110002001COMERCIALIZADORA DAC DEL CARIBE S.A.S.            D000000004600000000000000000000000100010010000000000000000000000F0010000007877700120151111000101 00000000000000000000000000000000000000000000000000000000000000000000000000000000000000000000000000000000000000000N 00000000000NCONT   00    00000000000          00000000000000000000000000000000000000000000 000000000000000A000000000000000000000000000000000000000000000 000000000000000000000000000000000000000     00000000                                                                                                                        000000000000000000
F0010000007877700002000090020547900041450500000000000000000201511110002001COMERCIALIZADORA DAC DEL CARIBE S.A.S.            C000000003600000000000000000000000100010010000000000000000000000F0010000007877700220151111000101 00000000000000000000000000000000000000000000000000000000000000000000000000000000000000000000000000000000000000000N 00000000000NCONT   00    00000000000          00000000000000000000000000000000000000000000 000000000000000A000000000000000000000000000000000000000000000 000000000000000000000000000000000000000     00000000                                                                                                                        000000000000000000
F0010000007877700003000090020547900042505000000000000000000201511110002001COMERCIALIZADORA DAC DEL CARIBE S.A.S.            C000000001000000000000000000000000100010010000000000000000000000F0010000007877700320151111000101 00000000000000000000000000000000000000000000000000000000000000000000000000000000000000000000000000000000000000000N 00000000000NCONT   00    00000000000          00000000000000000000000000000000000000000000 000000000000000A000000000000000000000000000000000000000000000 000000000000000000000000000000000000000     00000000                                                                                                                        000000000000000000
F0010000007877700004000090020547900023658300000000000000000201511110002001COMERCIALIZADORA DAC DEL CARIBE S.A.S.            C000000000028800000000000000000000100010010000000000000000000000F0010000007877700420151111000101 00000000000000000000000000000000000000000000000000000000000000000000000000000000000000000000000000000000000000000N 00000000000NCONT   00    00000000000          00000000000000000000000000000000000000000000 000000000000000A000000000000000000000000000000000000000000000 000000000000000000000000000000000000000     00000000                                                                                                                        000000000000000000
F0010000007877700005000090020547900013552100000000000000000201511110002001COMERCIALIZADORA DAC DEL CARIBE S.A.S.            D000000000028800000000000000000000100010010000000000000000000000F0010000007877700520151111000101 00000000000000000000000000000000000000000000000000000000000000000000000000000000000000000000000000000000000000000N 00000000000NCONT   00    00000000000          00000000000000000000000000000000000000000000 000000000000000A000000000000000000000000000000000000000000000 000000000000000000000000000000000000000     00000000                                                                                                                        000000000000000000
F0010000007877800001000090020547900011050500000000000000000201511110002001COMERCIALIZADORA DAC DEL CARIBE S.A.S.            D000000004200000000000000000000000100010010000000000000000000000F0010000007877800120151111000101 00000000000000000000000000000000000000000000000000000000000000000000000000000000000000000000000000000000000000000N 00000000000NCONT   00    00000000000          00000000000000000000000000000000000000000000 000000000000000A000000000000000000000000000000000000000000000 000000000000000000000000000000000000000     00000000                                                                                                                        000000000000000000
F0010000007877800002000090020547900041450500000000000000000201511110002001COMERCIALIZADORA DAC DEL CARIBE S.A.S.            C000000003600000000000000000000000100010010000000000000000000000F0010000007877800220151111000101 00000000000000000000000000000000000000000000000000000000000000000000000000000000000000000000000000000000000000000N 00000000000NCONT   00    00000000000          00000000000000000000000000000000000000000000 000000000000000A000000000000000000000000000000000000000000000 000000000000000000000000000000000000000     00000000                                                                                                                        000000000000000000
F0010000007877800003000090020547900042505000000000000000000201511110002001COMERCIALIZADORA DAC DEL CARIBE S.A.S.            C000000000600000000000000000000000100010010000000000000000000000F0010000007877800320151111000101 00000000000000000000000000000000000000000000000000000000000000000000000000000000000000000000000000000000000000000N 00000000000NCONT   00    00000000000          00000000000000000000000000000000000000000000 000000000000000A000000000000000000000000000000000000000000000 000000000000000000000000000000000000000     00000000                                                                                                                        000000000000000000
F0010000007877800004000090020547900023658300000000000000000201511110002001COMERCIALIZADORA DAC DEL CARIBE S.A.S.            C000000000028800000000000000000000100010010000000000000000000000F0010000007877800420151111000101 00000000000000000000000000000000000000000000000000000000000000000000000000000000000000000000000000000000000000000N 00000000000NCONT   00    00000000000          00000000000000000000000000000000000000000000 000000000000000A000000000000000000000000000000000000000000000 000000000000000000000000000000000000000     00000000                                                                                                                        000000000000000000
F0010000007877800005000090020547900013552100000000000000000201511110002001COMERCIALIZADORA DAC DEL CARIBE S.A.S.            D000000000028800000000000000000000100010010000000000000000000000F0010000007877800520151111000101 00000000000000000000000000000000000000000000000000000000000000000000000000000000000000000000000000000000000000000N 00000000000NCONT   00    00000000000          00000000000000000000000000000000000000000000 000000000000000A000000000000000000000000000000000000000000000 000000000000000000000000000000000000000     00000000                                                                                                                        000000000000000000
F0010000007877900001000090020547900011050500000000000000000201511110002001COMERCIALIZADORA DAC DEL CARIBE S.A.S.            D000000002200000000000000000000000100010010000000000000000000000F0010000007877900120151111000101 00000000000000000000000000000000000000000000000000000000000000000000000000000000000000000000000000000000000000000N 00000000000NCONT   00    00000000000          00000000000000000000000000000000000000000000 000000000000000A000000000000000000000000000000000000000000000 000000000000000000000000000000000000000     00000000                                                                                                                        000000000000000000
F0010000007877900002000090020547900041450500000000000000000201511110002001COMERCIALIZADORA DAC DEL CARIBE S.A.S.            C000000001800000000000000000000000100010010000000000000000000000F0010000007877900220151111000101 00000000000000000000000000000000000000000000000000000000000000000000000000000000000000000000000000000000000000000N 00000000000NCONT   00    00000000000          00000000000000000000000000000000000000000000 000000000000000A000000000000000000000000000000000000000000000 000000000000000000000000000000000000000     00000000                                                                                                                        000000000000000000
F0010000007877900003000090020547900042505000000000000000000201511110002001COMERCIALIZADORA DAC DEL CARIBE S.A.S.            C000000000400000000000000000000000100010010000000000000000000000F0010000007877900320151111000101 00000000000000000000000000000000000000000000000000000000000000000000000000000000000000000000000000000000000000000N 00000000000NCONT   00    00000000000          00000000000000000000000000000000000000000000 000000000000000A000000000000000000000000000000000000000000000 000000000000000000000000000000000000000     00000000                                                                                                                        000000000000000000
F0010000007877900004000090020547900023658300000000000000000201511110002001COMERCIALIZADORA DAC DEL CARIBE S.A.S.            C000000000014400000000000000000000100010010000000000000000000000F0010000007877900420151111000101 00000000000000000000000000000000000000000000000000000000000000000000000000000000000000000000000000000000000000000N 00000000000NCONT   00    00000000000          00000000000000000000000000000000000000000000 000000000000000A000000000000000000000000000000000000000000000 000000000000000000000000000000000000000     00000000                                                                                                                        000000000000000000
F0010000007877900005000090020547900013552100000000000000000201511110002001COMERCIALIZADORA DAC DEL CARIBE S.A.S.            D000000000014400000000000000000000100010010000000000000000000000F0010000007877900520151111000101 00000000000000000000000000000000000000000000000000000000000000000000000000000000000000000000000000000000000000000N 00000000000NCONT   00    00000000000          00000000000000000000000000000000000000000000 000000000000000A000000000000000000000000000000000000000000000 000000000000000000000000000000000000000     00000000                                                                                                                        000000000000000000
F0010000007878000001000090020547900011050500000000000000000201511110002001COMERCIALIZADORA DAC DEL CARIBE S.A.S.            D000000007200000000000000000000000100010010000000000000000000000F0010000007878000120151111000101 00000000000000000000000000000000000000000000000000000000000000000000000000000000000000000000000000000000000000000N 00000000000NCONT   00    00000000000          00000000000000000000000000000000000000000000 000000000000000A000000000000000000000000000000000000000000000 000000000000000000000000000000000000000     00000000                                                                                                                        000000000000000000
F0010000007878000002000090020547900041450500000000000000000201511110002001COMERCIALIZADORA DAC DEL CARIBE S.A.S.            C000000006300000000000000000000000100010010000000000000000000000F0010000007878000220151111000101 00000000000000000000000000000000000000000000000000000000000000000000000000000000000000000000000000000000000000000N 00000000000NCONT   00    00000000000          00000000000000000000000000000000000000000000 000000000000000A000000000000000000000000000000000000000000000 000000000000000000000000000000000000000     00000000                                                                                                                        000000000000000000
F0010000007878000003000090020547900042505000000000000000000201511110002001COMERCIALIZADORA DAC DEL CARIBE S.A.S.            C000000000900000000000000000000000100010010000000000000000000000F0010000007878000320151111000101 00000000000000000000000000000000000000000000000000000000000000000000000000000000000000000000000000000000000000000N 00000000000NCONT   00    00000000000          00000000000000000000000000000000000000000000 000000000000000A000000000000000000000000000000000000000000000 000000000000000000000000000000000000000     00000000                                                                                                                        000000000000000000
F0010000007878000004000090020547900023658300000000000000000201511110002001COMERCIALIZADORA DAC DEL CARIBE S.A.S.            C000000000050400000000000000000000100010010000000000000000000000F0010000007878000420151111000101 00000000000000000000000000000000000000000000000000000000000000000000000000000000000000000000000000000000000000000N 00000000000NCONT   00    00000000000          00000000000000000000000000000000000000000000 000000000000000A000000000000000000000000000000000000000000000 000000000000000000000000000000000000000     00000000                                                                                                                        000000000000000000
F0010000007878000005000090020547900013552100000000000000000201511110002001COMERCIALIZADORA DAC DEL CARIBE S.A.S.            D000000000050400000000000000000000100010010000000000000000000000F0010000007878000520151111000101 00000000000000000000000000000000000000000000000000000000000000000000000000000000000000000000000000000000000000000N 00000000000NCONT   00    00000000000          00000000000000000000000000000000000000000000 000000000000000A000000000000000000000000000000000000000000000 000000000000000000000000000000000000000     00000000                                                                                                                        000000000000000000
F0010000007878100001000090052543100011050500000000000000000201511110002001SECRET COLOR SAS                                  D000000000455000000000000000000000100010010000000000000000000000F0010000007878100120151111000101 00000000000000000000000000000000000000000000000000000000000000000000000000000000000000000000000000000000000000000N 00000000000NCONT   00    00000000000          00000000000000000000000000000000000000000000 000000000000000A000000000000000000000000000000000000000000000 000000000000000000000000000000000000000     00000000                                                                                                                        000000000000000000
F0010000007878100002000090052543100041450500000000000000000201511110002001SECRET COLOR SAS                                  C000000000355000000000000000000000100010010000000000000000000000F0010000007878100220151111000101 00000000000000000000000000000000000000000000000000000000000000000000000000000000000000000000000000000000000000000N 00000000000NCONT   00    00000000000          00000000000000000000000000000000000000000000 000000000000000A000000000000000000000000000000000000000000000 000000000000000000000000000000000000000     00000000                                                                                                                        000000000000000000
F0010000007878100003000090052543100042505000000000000000000201511110002001SECRET COLOR SAS                                  C000000000100000000000000000000000100010010000000000000000000000F0010000007878100320151111000101 00000000000000000000000000000000000000000000000000000000000000000000000000000000000000000000000000000000000000000N 00000000000NCONT   00    00000000000          00000000000000000000000000000000000000000000 000000000000000A000000000000000000000000000000000000000000000 000000000000000000000000000000000000000     00000000                                                                                                                        000000000000000000
F0010000007878100004000090052543100023658300000000000000000201511110002001SECRET COLOR SAS                                  C000000000002800000000000000000000100010010000000000000000000000F0010000007878100420151111000101 00000000000000000000000000000000000000000000000000000000000000000000000000000000000000000000000000000000000000000N 00000000000NCONT   00    00000000000          00000000000000000000000000000000000000000000 000000000000000A000000000000000000000000000000000000000000000 000000000000000000000000000000000000000     00000000                                                                                                                        000000000000000000
F0010000007878100005000090052543100013552100000000000000000201511110002001SECRET COLOR SAS                                  D000000000002800000000000000000000100010010000000000000000000000F0010000007878100520151111000101 00000000000000000000000000000000000000000000000000000000000000000000000000000000000000000000000000000000000000000N 00000000000NCONT   00    00000000000          00000000000000000000000000000000000000000000 000000000000000A000000000000000000000000000000000000000000000 000000000000000000000000000000000000000     00000000                                                                                                                        000000000000000000
F0010000007878200001000090052543100011050500000000000000000201511110002001SECRET COLOR SAS                                  D000000000900000000000000000000000100010010000000000000000000000F0010000007878200120151111000101 00000000000000000000000000000000000000000000000000000000000000000000000000000000000000000000000000000000000000000N 00000000000NCONT   00    00000000000          00000000000000000000000000000000000000000000 000000000000000A000000000000000000000000000000000000000000000 000000000000000000000000000000000000000     00000000                                                                                                                        000000000000000000
F0010000007878200002000090052543100041450500000000000000000201511110002001SECRET COLOR SAS                                  C000000000800000000000000000000000100010010000000000000000000000F0010000007878200220151111000101 00000000000000000000000000000000000000000000000000000000000000000000000000000000000000000000000000000000000000000N 00000000000NCONT   00    00000000000          00000000000000000000000000000000000000000000 000000000000000A000000000000000000000000000000000000000000000 000000000000000000000000000000000000000     00000000                                                                                                                        000000000000000000
F0010000007878200003000090052543100042505000000000000000000201511110002001SECRET COLOR SAS                                  C000000000100000000000000000000000100010010000000000000000000000F0010000007878200320151111000101 00000000000000000000000000000000000000000000000000000000000000000000000000000000000000000000000000000000000000000N 00000000000NCONT   00    00000000000          00000000000000000000000000000000000000000000 000000000000000A000000000000000000000000000000000000000000000 000000000000000000000000000000000000000     00000000                                                                                                                        000000000000000000
F0010000007878200004000090052543100023658300000000000000000201511110002001SECRET COLOR SAS                                  C000000000006400000000000000000000100010010000000000000000000000F0010000007878200420151111000101 00000000000000000000000000000000000000000000000000000000000000000000000000000000000000000000000000000000000000000N 00000000000NCONT   00    00000000000          00000000000000000000000000000000000000000000 000000000000000A000000000000000000000000000000000000000000000 000000000000000000000000000000000000000     00000000                                                                                                                        000000000000000000
F0010000007878200005000090052543100013552100000000000000000201511110002001SECRET COLOR SAS                                  D000000000006400000000000000000000100010010000000000000000000000F0010000007878200520151111000101 00000000000000000000000000000000000000000000000000000000000000000000000000000000000000000000000000000000000000000N 00000000000NCONT   00    00000000000          00000000000000000000000000000000000000000000 000000000000000A000000000000000000000000000000000000000000000 000000000000000000000000000000000000000     00000000                                                                                                                        000000000000000000
F0010000007878300001000090052543100011050500000000000000000201511110002001SECRET COLOR SAS                                  D000000000350000000000000000000000100010010000000000000000000000F0010000007878300120151111000101 00000000000000000000000000000000000000000000000000000000000000000000000000000000000000000000000000000000000000000N 00000000000NCONT   00    00000000000          00000000000000000000000000000000000000000000 000000000000000A000000000000000000000000000000000000000000000 000000000000000000000000000000000000000     00000000                                                                                                                        000000000000000000
F0010000007878300002000090052543100041450500000000000000000201511110002001SECRET COLOR SAS                                  C000000000250000000000000000000000100010010000000000000000000000F0010000007878300220151111000101 00000000000000000000000000000000000000000000000000000000000000000000000000000000000000000000000000000000000000000N 00000000000NCONT   00    00000000000          00000000000000000000000000000000000000000000 000000000000000A000000000000000000000000000000000000000000000 000000000000000000000000000000000000000     00000000                                                                                                                        000000000000000000
F0010000007878300003000090052543100042505000000000000000000201511110002001SECRET COLOR SAS                                  C000000000100000000000000000000000100010010000000000000000000000F0010000007878300320151111000101 00000000000000000000000000000000000000000000000000000000000000000000000000000000000000000000000000000000000000000N 00000000000NCONT   00    00000000000          00000000000000000000000000000000000000000000 000000000000000A000000000000000000000000000000000000000000000 000000000000000000000000000000000000000     00000000                                                                                                                        000000000000000000
F0010000007878300004000090052543100023658300000000000000000201511110002001SECRET COLOR SAS                                  C000000000002000000000000000000000100010010000000000000000000000F0010000007878300420151111000101 00000000000000000000000000000000000000000000000000000000000000000000000000000000000000000000000000000000000000000N 00000000000NCONT   00    00000000000          00000000000000000000000000000000000000000000 000000000000000A000000000000000000000000000000000000000000000 000000000000000000000000000000000000000     00000000                                                                                                                        000000000000000000
F0010000007878300005000090052543100013552100000000000000000201511110002001SECRET COLOR SAS                                  D000000000002000000000000000000000100010010000000000000000000000F0010000007878300520151111000101 00000000000000000000000000000000000000000000000000000000000000000000000000000000000000000000000000000000000000000N 00000000000NCONT   00    00000000000          00000000000000000000000000000000000000000000 000000000000000A000000000000000000000000000000000000000000000 000000000000000000000000000000000000000     00000000                                                                                                                        000000000000000000
F0010000007878400001000001022529300011050500000000000000000201511110002001ALBERTO ALVAREZ ISAZA                             D000000000820000000000000000000000100010010000000000000000000000F0010000007878400120151111000101 00000000000000000000000000000000000000000000000000000000000000000000000000000000000000000000000000000000000000000N 00000000000NCONT   00    00000000000          00000000000000000000000000000000000000000000 000000000000000A000000000000000000000000000000000000000000000 000000000000000000000000000000000000000     00000000                                                                                                                        000000000000000000
F0010000007878400002000001022529300041450500000000000000000201511110002001ALBERTO ALVAREZ ISAZA                             C000000000820000000000000000000000100010010000000000000000000000F0010000007878400220151111000101 00000000000000000000000000000000000000000000000000000000000000000000000000000000000000000000000000000000000000000N 00000000000NCONT   00    00000000000          00000000000000000000000000000000000000000000 000000000000000A000000000000000000000000000000000000000000000 000000000000000000000000000000000000000     00000000                                                                                                                        000000000000000000
F0010000007878400003000001022529300042505000000000000000000201511110002001ALBERTO ALVAREZ ISAZA                             C000000000000000000000000000000000100010010000000000000000000000F0010000007878400320151111000101 00000000000000000000000000000000000000000000000000000000000000000000000000000000000000000000000000000000000000000N 00000000000NCONT   00    00000000000          00000000000000000000000000000000000000000000 000000000000000A000000000000000000000000000000000000000000000 000000000000000000000000000000000000000     00000000                                                                                                                        000000000000000000
F0010000007878400004000001022529300023658300000000000000000201511110002001ALBERTO ALVAREZ ISAZA                             C000000000006600000000000000000000100010010000000000000000000000F0010000007878400420151111000101 00000000000000000000000000000000000000000000000000000000000000000000000000000000000000000000000000000000000000000N 00000000000NCONT   00    00000000000          00000000000000000000000000000000000000000000 000000000000000A000000000000000000000000000000000000000000000 000000000000000000000000000000000000000     00000000                                                                                                                        000000000000000000
F0010000007878400005000001022529300013552100000000000000000201511110002001ALBERTO ALVAREZ ISAZA                             D000000000006600000000000000000000100010010000000000000000000000F0010000007878400520151111000101 00000000000000000000000000000000000000000000000000000000000000000000000000000000000000000000000000000000000000000N 00000000000NCONT   00    00000000000          00000000000000000000000000000000000000000000 000000000000000A000000000000000000000000000000000000000000000 000000000000000000000000000000000000000     00000000                                                                                                                        000000000000000000
F0010000007878500001000001022529300011050500000000000000000201511110002001ALBERTO ALVAREZ ISAZA                             D000000000820000000000000000000000100010010000000000000000000000F0010000007878500120151111000101 00000000000000000000000000000000000000000000000000000000000000000000000000000000000000000000000000000000000000000N 00000000000NCONT   00    00000000000          00000000000000000000000000000000000000000000 000000000000000A000000000000000000000000000000000000000000000 000000000000000000000000000000000000000     00000000                                                                                                                        000000000000000000
F0010000007878500002000001022529300041450500000000000000000201511110002001ALBERTO ALVAREZ ISAZA                             C000000000820000000000000000000000100010010000000000000000000000F0010000007878500220151111000101 00000000000000000000000000000000000000000000000000000000000000000000000000000000000000000000000000000000000000000N 00000000000NCONT   00    00000000000          00000000000000000000000000000000000000000000 000000000000000A000000000000000000000000000000000000000000000 000000000000000000000000000000000000000     00000000                                                                                                                        000000000000000000
F0010000007878500003000001022529300042505000000000000000000201511110002001ALBERTO ALVAREZ ISAZA                             C000000000000000000000000000000000100010010000000000000000000000F0010000007878500320151111000101 00000000000000000000000000000000000000000000000000000000000000000000000000000000000000000000000000000000000000000N 00000000000NCONT   00    00000000000          00000000000000000000000000000000000000000000 000000000000000A000000000000000000000000000000000000000000000 000000000000000000000000000000000000000     00000000                                                                                                                        000000000000000000
F0010000007878500004000001022529300023658300000000000000000201511110002001ALBERTO ALVAREZ ISAZA                             C000000000006600000000000000000000100010010000000000000000000000F0010000007878500420151111000101 00000000000000000000000000000000000000000000000000000000000000000000000000000000000000000000000000000000000000000N 00000000000NCONT   00    00000000000          00000000000000000000000000000000000000000000 000000000000000A000000000000000000000000000000000000000000000 000000000000000000000000000000000000000     00000000                                                                                                                        000000000000000000
F0010000007878500005000001022529300013552100000000000000000201511110002001ALBERTO ALVAREZ ISAZA                             D000000000006600000000000000000000100010010000000000000000000000F0010000007878500520151111000101 00000000000000000000000000000000000000000000000000000000000000000000000000000000000000000000000000000000000000000N 00000000000NCONT   00    00000000000          00000000000000000000000000000000000000000000 000000000000000A000000000000000000000000000000000000000000000 000000000000000000000000000000000000000     00000000                                                                                                                        000000000000000000
F0010000007878600001000001022529300011050500000000000000000201511110002001ALBERTO ALVAREZ ISAZA                             D000000000820000000000000000000000100010010000000000000000000000F0010000007878600120151111000101 00000000000000000000000000000000000000000000000000000000000000000000000000000000000000000000000000000000000000000N 00000000000NCONT   00    00000000000          00000000000000000000000000000000000000000000 000000000000000A000000000000000000000000000000000000000000000 000000000000000000000000000000000000000     00000000                                                                                                                        000000000000000000
F0010000007878600002000001022529300041450500000000000000000201511110002001ALBERTO ALVAREZ ISAZA                             C000000000820000000000000000000000100010010000000000000000000000F0010000007878600220151111000101 00000000000000000000000000000000000000000000000000000000000000000000000000000000000000000000000000000000000000000N 00000000000NCONT   00    00000000000          00000000000000000000000000000000000000000000 000000000000000A000000000000000000000000000000000000000000000 000000000000000000000000000000000000000     00000000                                                                                                                        000000000000000000
F0010000007878600003000001022529300042505000000000000000000201511110002001ALBERTO ALVAREZ ISAZA                             C000000000000000000000000000000000100010010000000000000000000000F0010000007878600320151111000101 00000000000000000000000000000000000000000000000000000000000000000000000000000000000000000000000000000000000000000N 00000000000NCONT   00    00000000000          00000000000000000000000000000000000000000000 000000000000000A000000000000000000000000000000000000000000000 000000000000000000000000000000000000000     00000000                                                                                                                        000000000000000000
F0010000007878600004000001022529300023658300000000000000000201511110002001ALBERTO ALVAREZ ISAZA                             C000000000006600000000000000000000100010010000000000000000000000F0010000007878600420151111000101 00000000000000000000000000000000000000000000000000000000000000000000000000000000000000000000000000000000000000000N 00000000000NCONT   00    00000000000          00000000000000000000000000000000000000000000 000000000000000A000000000000000000000000000000000000000000000 000000000000000000000000000000000000000     00000000                                                                                                                        000000000000000000
F0010000007878600005000001022529300013552100000000000000000201511110002001ALBERTO ALVAREZ ISAZA                             D000000000006600000000000000000000100010010000000000000000000000F0010000007878600520151111000101 00000000000000000000000000000000000000000000000000000000000000000000000000000000000000000000000000000000000000000N 00000000000NCONT   00    00000000000          00000000000000000000000000000000000000000000 000000000000000A000000000000000000000000000000000000000000000 000000000000000000000000000000000000000     00000000                                                                                                                        000000000000000000
F0010000007878700001000001022529300011050500000000000000000201511110002001ALBERTO ALVAREZ ISAZA                             D000000000700000000000000000000000100010010000000000000000000000F0010000007878700120151111000101 00000000000000000000000000000000000000000000000000000000000000000000000000000000000000000000000000000000000000000N 00000000000NCONT   00    00000000000          00000000000000000000000000000000000000000000 000000000000000A000000000000000000000000000000000000000000000 000000000000000000000000000000000000000     00000000                                                                                                                        000000000000000000
F0010000007878700002000001022529300041450500000000000000000201511110002001ALBERTO ALVAREZ ISAZA                             C000000000700000000000000000000000100010010000000000000000000000F0010000007878700220151111000101 00000000000000000000000000000000000000000000000000000000000000000000000000000000000000000000000000000000000000000N 00000000000NCONT   00    00000000000          00000000000000000000000000000000000000000000 000000000000000A000000000000000000000000000000000000000000000 000000000000000000000000000000000000000     00000000                                                                                                                        000000000000000000
F0010000007878700003000001022529300042505000000000000000000201511110002001ALBERTO ALVAREZ ISAZA                             C000000000000000000000000000000000100010010000000000000000000000F0010000007878700320151111000101 00000000000000000000000000000000000000000000000000000000000000000000000000000000000000000000000000000000000000000N 00000000000NCONT   00    00000000000          00000000000000000000000000000000000000000000 000000000000000A000000000000000000000000000000000000000000000 000000000000000000000000000000000000000     00000000                                                                                                                        000000000000000000
F0010000007878700004000001022529300023658300000000000000000201511110002001ALBERTO ALVAREZ ISAZA                             C000000000005600000000000000000000100010010000000000000000000000F0010000007878700420151111000101 00000000000000000000000000000000000000000000000000000000000000000000000000000000000000000000000000000000000000000N 00000000000NCONT   00    00000000000          00000000000000000000000000000000000000000000 000000000000000A000000000000000000000000000000000000000000000 000000000000000000000000000000000000000     00000000                                                                                                                        000000000000000000
F0010000007878700005000001022529300013552100000000000000000201511110002001ALBERTO ALVAREZ ISAZA                             D000000000005600000000000000000000100010010000000000000000000000F0010000007878700520151111000101 00000000000000000000000000000000000000000000000000000000000000000000000000000000000000000000000000000000000000000N 00000000000NCONT   00    00000000000          00000000000000000000000000000000000000000000 000000000000000A000000000000000000000000000000000000000000000 000000000000000000000000000000000000000     00000000                                                                                                                        000000000000000000
F0010000007878800001000000431178400011050500000000000000000201511110002001EFRAIN ALVAREZ                                    D000000007440000000000000000000000100010010000000000000000000000F0010000007878800120151111000101 00000000000000000000000000000000000000000000000000000000000000000000000000000000000000000000000000000000000000000N 00000000000NCONT   00    00000000000          00000000000000000000000000000000000000000000 000000000000000A000000000000000000000000000000000000000000000 000000000000000000000000000000000000000     00000000                                                                                                                        000000000000000000
F0010000007878800002000000431178400041450500000000000000000201511110002001EFRAIN ALVAREZ                                    C000000007140000000000000000000000100010010000000000000000000000F0010000007878800220151111000101 00000000000000000000000000000000000000000000000000000000000000000000000000000000000000000000000000000000000000000N 00000000000NCONT   00    00000000000          00000000000000000000000000000000000000000000 000000000000000A000000000000000000000000000000000000000000000 000000000000000000000000000000000000000     00000000                                                                                                                        000000000000000000
F0010000007878800003000000431178400042505000000000000000000201511110002001EFRAIN ALVAREZ                                    C000000000300000000000000000000000100010010000000000000000000000F0010000007878800320151111000101 00000000000000000000000000000000000000000000000000000000000000000000000000000000000000000000000000000000000000000N 00000000000NCONT   00    00000000000          00000000000000000000000000000000000000000000 000000000000000A000000000000000000000000000000000000000000000 000000000000000000000000000000000000000     00000000                                                                                                                        000000000000000000
F0010000007878800004000000431178400023658300000000000000000201511110002001EFRAIN ALVAREZ                                    C000000000057100000000000000000000100010010000000000000000000000F0010000007878800420151111000101 00000000000000000000000000000000000000000000000000000000000000000000000000000000000000000000000000000000000000000N 00000000000NCONT   00    00000000000          00000000000000000000000000000000000000000000 000000000000000A000000000000000000000000000000000000000000000 000000000000000000000000000000000000000     00000000                                                                                                                        000000000000000000
F0010000007878800005000000431178400013552100000000000000000201511110002001EFRAIN ALVAREZ                                    D000000000057100000000000000000000100010010000000000000000000000F0010000007878800520151111000101 00000000000000000000000000000000000000000000000000000000000000000000000000000000000000000000000000000000000000000N 00000000000NCONT   00    00000000000          00000000000000000000000000000000000000000000 000000000000000A000000000000000000000000000000000000000000000 000000000000000000000000000000000000000     00000000                                                                                                                        000000000000000000
F0010000007878900001000090050144800011050500000000000000000201511110002001PLASTICOS JR ASOCIADOS SAS                        D000000004800000000000000000000000100010010000000000000000000000F0010000007878900120151111000101 00000000000000000000000000000000000000000000000000000000000000000000000000000000000000000000000000000000000000000N 00000000000NCONT   00    00000000000          00000000000000000000000000000000000000000000 000000000000000A000000000000000000000000000000000000000000000 000000000000000000000000000000000000000     00000000                                                                                                                        000000000000000000
F0010000007878900002000090050144800041450500000000000000000201511110002001PLASTICOS JR ASOCIADOS SAS                        C000000004300000000000000000000000100010010000000000000000000000F0010000007878900220151111000101 00000000000000000000000000000000000000000000000000000000000000000000000000000000000000000000000000000000000000000N 00000000000NCONT   00    00000000000          00000000000000000000000000000000000000000000 000000000000000A000000000000000000000000000000000000000000000 000000000000000000000000000000000000000     00000000                                                                                                                        000000000000000000
F0010000007878900003000090050144800042505000000000000000000201511110002001PLASTICOS JR ASOCIADOS SAS                        C000000000500000000000000000000000100010010000000000000000000000F0010000007878900320151111000101 00000000000000000000000000000000000000000000000000000000000000000000000000000000000000000000000000000000000000000N 00000000000NCONT   00    00000000000          00000000000000000000000000000000000000000000 000000000000000A000000000000000000000000000000000000000000000 000000000000000000000000000000000000000     00000000                                                                                                                        000000000000000000
F0010000007878900004000090050144800023658300000000000000000201511110002001PLASTICOS JR ASOCIADOS SAS                        C000000000034400000000000000000000100010010000000000000000000000F0010000007878900420151111000101 00000000000000000000000000000000000000000000000000000000000000000000000000000000000000000000000000000000000000000N 00000000000NCONT   00    00000000000          00000000000000000000000000000000000000000000 000000000000000A000000000000000000000000000000000000000000000 000000000000000000000000000000000000000     00000000                                                                                                                        000000000000000000
F0010000007878900005000090050144800013552100000000000000000201511110002001PLASTICOS JR ASOCIADOS SAS                        D000000000034400000000000000000000100010010000000000000000000000F0010000007878900520151111000101 00000000000000000000000000000000000000000000000000000000000000000000000000000000000000000000000000000000000000000N 00000000000NCONT   00    00000000000          00000000000000000000000000000000000000000000 000000000000000A000000000000000000000000000000000000000000000 000000000000000000000000000000000000000     00000000                                                                                                                        000000000000000000
F0010000007879000001000080012418800011050500000000000000000201511110002001DISTRITEC S.A.S                                   D000000002750000000000000000000000100010010000000000000000000000F0010000007879000120151111000101 00000000000000000000000000000000000000000000000000000000000000000000000000000000000000000000000000000000000000000N 00000000000NCONT   00    00000000000          00000000000000000000000000000000000000000000 000000000000000A000000000000000000000000000000000000000000000 000000000000000000000000000000000000000     00000000                                                                                                                        000000000000000000
F0010000007879000002000080012418800041450500000000000000000201511110002001DISTRITEC S.A.S                                   C000000002550000000000000000000000100010010000000000000000000000F0010000007879000220151111000101 00000000000000000000000000000000000000000000000000000000000000000000000000000000000000000000000000000000000000000N 00000000000NCONT   00    00000000000          00000000000000000000000000000000000000000000 000000000000000A000000000000000000000000000000000000000000000 000000000000000000000000000000000000000     00000000                                                                                                                        000000000000000000
F0010000007879000003000080012418800042505000000000000000000201511110002001DISTRITEC S.A.S                                   C000000000200000000000000000000000100010010000000000000000000000F0010000007879000320151111000101 00000000000000000000000000000000000000000000000000000000000000000000000000000000000000000000000000000000000000000N 00000000000NCONT   00    00000000000          00000000000000000000000000000000000000000000 000000000000000A000000000000000000000000000000000000000000000 000000000000000000000000000000000000000     00000000                                                                                                                        000000000000000000
F0010000007879000004000080012418800023658300000000000000000201511110002001DISTRITEC S.A.S                                   C000000000020400000000000000000000100010010000000000000000000000F0010000007879000420151111000101 00000000000000000000000000000000000000000000000000000000000000000000000000000000000000000000000000000000000000000N 00000000000NCONT   00    00000000000          00000000000000000000000000000000000000000000 000000000000000A000000000000000000000000000000000000000000000 000000000000000000000000000000000000000     00000000                                                                                                                        000000000000000000
F0010000007879000005000080012418800013552100000000000000000201511110002001DISTRITEC S.A.S                                   D000000000020400000000000000000000100010010000000000000000000000F0010000007879000520151111000101 00000000000000000000000000000000000000000000000000000000000000000000000000000000000000000000000000000000000000000N 00000000000NCONT   00    00000000000          00000000000000000000000000000000000000000000 000000000000000A000000000000000000000000000000000000000000000 000000000000000000000000000000000000000     00000000                                                                                                                        000000000000000000
F0010000007879100001000080202350700011050500000000000000000201511110002001CONNY DE LA COSTA SAS                             D000000001200000000000000000000000100010010000000000000000000000F0010000007879100120151111000101 00000000000000000000000000000000000000000000000000000000000000000000000000000000000000000000000000000000000000000N 00000000000NCONT   00    00000000000          00000000000000000000000000000000000000000000 000000000000000A000000000000000000000000000000000000000000000 000000000000000000000000000000000000000     00000000                                                                                                                        000000000000000000
F0010000007879100002000080202350700041450500000000000000000201511110002001CONNY DE LA COSTA SAS                             C000000000800000000000000000000000100010010000000000000000000000F0010000007879100220151111000101 00000000000000000000000000000000000000000000000000000000000000000000000000000000000000000000000000000000000000000N 00000000000NCONT   00    00000000000          00000000000000000000000000000000000000000000 000000000000000A000000000000000000000000000000000000000000000 000000000000000000000000000000000000000     00000000                                                                                                                        000000000000000000
F0010000007879100003000080202350700042505000000000000000000201511110002001CONNY DE LA COSTA SAS                             C000000000400000000000000000000000100010010000000000000000000000F0010000007879100320151111000101 00000000000000000000000000000000000000000000000000000000000000000000000000000000000000000000000000000000000000000N 00000000000NCONT   00    00000000000          00000000000000000000000000000000000000000000 000000000000000A000000000000000000000000000000000000000000000 000000000000000000000000000000000000000     00000000                                                                                                                        000000000000000000
F0010000007879100004000080202350700023658300000000000000000201511110002001CONNY DE LA COSTA SAS                             C000000000006400000000000000000000100010010000000000000000000000F0010000007879100420151111000101 00000000000000000000000000000000000000000000000000000000000000000000000000000000000000000000000000000000000000000N 00000000000NCONT   00    00000000000          00000000000000000000000000000000000000000000 000000000000000A000000000000000000000000000000000000000000000 000000000000000000000000000000000000000     00000000                                                                                                                        000000000000000000
F0010000007879100005000080202350700013552100000000000000000201511110002001CONNY DE LA COSTA SAS                             D000000000006400000000000000000000100010010000000000000000000000F0010000007879100520151111000101 00000000000000000000000000000000000000000000000000000000000000000000000000000000000000000000000000000000000000000N 00000000000NCONT   00    00000000000          00000000000000000000000000000000000000000000 000000000000000A000000000000000000000000000000000000000000000 000000000000000000000000000000000000000     00000000                                                                                                                        000000000000000000
F0010000007879200001000080202350700011050500000000000000000201511110002001CONNY DE LA COSTA SAS                             D000000001100000000000000000000000100010010000000000000000000000F0010000007879200120151111000101 00000000000000000000000000000000000000000000000000000000000000000000000000000000000000000000000000000000000000000N 00000000000NCONT   00    00000000000          00000000000000000000000000000000000000000000 000000000000000A000000000000000000000000000000000000000000000 000000000000000000000000000000000000000     00000000                                                                                                                        000000000000000000
F0010000007879200002000080202350700041450500000000000000000201511110002001CONNY DE LA COSTA SAS                             C000000000800000000000000000000000100010010000000000000000000000F0010000007879200220151111000101 00000000000000000000000000000000000000000000000000000000000000000000000000000000000000000000000000000000000000000N 00000000000NCONT   00    00000000000          00000000000000000000000000000000000000000000 000000000000000A000000000000000000000000000000000000000000000 000000000000000000000000000000000000000     00000000                                                                                                                        000000000000000000
F0010000007879200003000080202350700042505000000000000000000201511110002001CONNY DE LA COSTA SAS                             C000000000300000000000000000000000100010010000000000000000000000F0010000007879200320151111000101 00000000000000000000000000000000000000000000000000000000000000000000000000000000000000000000000000000000000000000N 00000000000NCONT   00    00000000000          00000000000000000000000000000000000000000000 000000000000000A000000000000000000000000000000000000000000000 000000000000000000000000000000000000000     00000000                                                                                                                        000000000000000000
F0010000007879200004000080202350700023658300000000000000000201511110002001CONNY DE LA COSTA SAS                             C000000000006400000000000000000000100010010000000000000000000000F0010000007879200420151111000101 00000000000000000000000000000000000000000000000000000000000000000000000000000000000000000000000000000000000000000N 00000000000NCONT   00    00000000000          00000000000000000000000000000000000000000000 000000000000000A000000000000000000000000000000000000000000000 000000000000000000000000000000000000000     00000000                                                                                                                        000000000000000000
F0010000007879200005000080202350700013552100000000000000000201511110002001CONNY DE LA COSTA SAS                             D000000000006400000000000000000000100010010000000000000000000000F0010000007879200520151111000101 00000000000000000000000000000000000000000000000000000000000000000000000000000000000000000000000000000000000000000N 00000000000NCONT   00    00000000000          00000000000000000000000000000000000000000000 000000000000000A000000000000000000000000000000000000000000000 000000000000000000000000000000000000000     00000000                                                                                                                        000000000000000000
F0010000007879300001000080202350700011050500000000000000000201511110002001CONNY DE LA COSTA SAS                             D000000003000000000000000000000000100010010000000000000000000000F0010000007879300120151111000101 00000000000000000000000000000000000000000000000000000000000000000000000000000000000000000000000000000000000000000N 00000000000NCONT   00    00000000000          00000000000000000000000000000000000000000000 000000000000000A000000000000000000000000000000000000000000000 000000000000000000000000000000000000000     00000000                                                                                                                        000000000000000000
F0010000007879300002000080202350700041450500000000000000000201511110002001CONNY DE LA COSTA SAS                             C000000002400000000000000000000000100010010000000000000000000000F0010000007879300220151111000101 00000000000000000000000000000000000000000000000000000000000000000000000000000000000000000000000000000000000000000N 00000000000NCONT   00    00000000000          00000000000000000000000000000000000000000000 000000000000000A000000000000000000000000000000000000000000000 000000000000000000000000000000000000000     00000000                                                                                                                        000000000000000000
F0010000007879300003000080202350700042505000000000000000000201511110002001CONNY DE LA COSTA SAS                             C000000000600000000000000000000000100010010000000000000000000000F0010000007879300320151111000101 00000000000000000000000000000000000000000000000000000000000000000000000000000000000000000000000000000000000000000N 00000000000NCONT   00    00000000000          00000000000000000000000000000000000000000000 000000000000000A000000000000000000000000000000000000000000000 000000000000000000000000000000000000000     00000000                                                                                                                        000000000000000000
F0010000007879300004000080202350700023658300000000000000000201511110002001CONNY DE LA COSTA SAS                             C000000000019200000000000000000000100010010000000000000000000000F0010000007879300420151111000101 00000000000000000000000000000000000000000000000000000000000000000000000000000000000000000000000000000000000000000N 00000000000NCONT   00    00000000000          00000000000000000000000000000000000000000000 000000000000000A000000000000000000000000000000000000000000000 000000000000000000000000000000000000000     00000000                                                                                                                        000000000000000000
