F0010000008090400001000080200608400013050500000000000000000201512280002001HIT DISTRIBUCIONES SAS                            D000000016000000000000000000000000100010010000000000000000000000F0010000008090400120151228000101 00000000000000000000000000000000000000000000000000000000000000000000000000000000000000000000000000000000000000000N 00000000000NCONT   00    00000000000          00000000000000000000000000000000000000000000 000000000000000A000000000000000000000000000000000000000000000 000000000000000000000000000000000000000     00000000                                                                                                                        000000000000000000
F0010000008090400002000080200608400041450500000000000000000201512280002001HIT DISTRIBUCIONES SAS                            C000000014000000000000000000000000100010010000000000000000000000F0010000008090400220151228000101 00000000000000000000000000000000000000000000000000000000000000000000000000000000000000000000000000000000000000000N 00000000000NCONT   00    00000000000          00000000000000000000000000000000000000000000 000000000000000A000000000000000000000000000000000000000000000 000000000000000000000000000000000000000     00000000                                                                                                                        000000000000000000
F0010000008090400003000080200608400042505000000000000000000201512280002001HIT DISTRIBUCIONES SAS                            C000000002000000000000000000000000100010010000000000000000000000F0010000008090400320151228000101 00000000000000000000000000000000000000000000000000000000000000000000000000000000000000000000000000000000000000000N 00000000000NCONT   00    00000000000          00000000000000000000000000000000000000000000 000000000000000A000000000000000000000000000000000000000000000 000000000000000000000000000000000000000     00000000                                                                                                                        000000000000000000
F0010000008090400004000080200608400023658300000000000000000201512280002001HIT DISTRIBUCIONES SAS                            C000000000112000000000000000000000100010010000000000000000000000F0010000008090400420151228000101 00000000000000000000000000000000000000000000000000000000000000000000000000000000000000000000000000000000000000000N 00000000000NCONT   00    00000000000          00000000000000000000000000000000000000000000 000000000000000A000000000000000000000000000000000000000000000 000000000000000000000000000000000000000     00000000                                                                                                                        000000000000000000
F0010000008090400005000080200608400013552100000000000000000201512280002001HIT DISTRIBUCIONES SAS                            D000000000112000000000000000000000100010010000000000000000000000F0010000008090400520151228000101 00000000000000000000000000000000000000000000000000000000000000000000000000000000000000000000000000000000000000000N 00000000000NCONT   00    00000000000          00000000000000000000000000000000000000000000 000000000000000A000000000000000000000000000000000000000000000 000000000000000000000000000000000000000     00000000                                                                                                                        000000000000000000
F0010000008090500001000108286245800011050500000000000000000201512280002001SAMUEL ALFREDO CASTRO MENDOZA                     D000000011000000000000000000000000100010010000000000000000000000F0010000008090500120151228000101 00000000000000000000000000000000000000000000000000000000000000000000000000000000000000000000000000000000000000000N 00000000000NCONT   00    00000000000          00000000000000000000000000000000000000000000 000000000000000A000000000000000000000000000000000000000000000 000000000000000000000000000000000000000     00000000                                                                                                                        000000000000000000
F0010000008090500002000108286245800041450500000000000000000201512280002001SAMUEL ALFREDO CASTRO MENDOZA                     C000000010800000000000000000000000100010010000000000000000000000F0010000008090500220151228000101 00000000000000000000000000000000000000000000000000000000000000000000000000000000000000000000000000000000000000000N 00000000000NCONT   00    00000000000          00000000000000000000000000000000000000000000 000000000000000A000000000000000000000000000000000000000000000 000000000000000000000000000000000000000     00000000                                                                                                                        000000000000000000
F0010000008090500003000108286245800042505000000000000000000201512280002001SAMUEL ALFREDO CASTRO MENDOZA                     C000000000200000000000000000000000100010010000000000000000000000F0010000008090500320151228000101 00000000000000000000000000000000000000000000000000000000000000000000000000000000000000000000000000000000000000000N 00000000000NCONT   00    00000000000          00000000000000000000000000000000000000000000 000000000000000A000000000000000000000000000000000000000000000 000000000000000000000000000000000000000     00000000                                                                                                                        000000000000000000
F0010000008090500004000108286245800023658300000000000000000201512280002001SAMUEL ALFREDO CASTRO MENDOZA                     C000000000086400000000000000000000100010010000000000000000000000F0010000008090500420151228000101 00000000000000000000000000000000000000000000000000000000000000000000000000000000000000000000000000000000000000000N 00000000000NCONT   00    00000000000          00000000000000000000000000000000000000000000 000000000000000A000000000000000000000000000000000000000000000 000000000000000000000000000000000000000     00000000                                                                                                                        000000000000000000
F0010000008090500005000108286245800013552100000000000000000201512280002001SAMUEL ALFREDO CASTRO MENDOZA                     D000000000086400000000000000000000100010010000000000000000000000F0010000008090500520151228000101 00000000000000000000000000000000000000000000000000000000000000000000000000000000000000000000000000000000000000000N 00000000000NCONT   00    00000000000          00000000000000000000000000000000000000000000 000000000000000A000000000000000000000000000000000000000000000 000000000000000000000000000000000000000     00000000                                                                                                                        000000000000000000
F0010000008090600001000003319910700011050500000000000000000201512280002001LUZ DARY JIMENEZ MARTINEZ                         D000000001100000000000000000000000100010010000000000000000000000F0010000008090600120151228000101 00000000000000000000000000000000000000000000000000000000000000000000000000000000000000000000000000000000000000000N 00000000000NCONT   00    00000000000          00000000000000000000000000000000000000000000 000000000000000A000000000000000000000000000000000000000000000 000000000000000000000000000000000000000     00000000                                                                                                                        000000000000000000
F0010000008090600002000003319910700041450500000000000000000201512280002001LUZ DARY JIMENEZ MARTINEZ                         C000000001000000000000000000000000100010010000000000000000000000F0010000008090600220151228000101 00000000000000000000000000000000000000000000000000000000000000000000000000000000000000000000000000000000000000000N 00000000000NCONT   00    00000000000          00000000000000000000000000000000000000000000 000000000000000A000000000000000000000000000000000000000000000 000000000000000000000000000000000000000     00000000                                                                                                                        000000000000000000
F0010000008090600003000003319910700042505000000000000000000201512280002001LUZ DARY JIMENEZ MARTINEZ                         C000000000100000000000000000000000100010010000000000000000000000F0010000008090600320151228000101 00000000000000000000000000000000000000000000000000000000000000000000000000000000000000000000000000000000000000000N 00000000000NCONT   00    00000000000          00000000000000000000000000000000000000000000 000000000000000A000000000000000000000000000000000000000000000 000000000000000000000000000000000000000     00000000                                                                                                                        000000000000000000
F0010000008090600004000003319910700023658300000000000000000201512280002001LUZ DARY JIMENEZ MARTINEZ                         C000000000008000000000000000000000100010010000000000000000000000F0010000008090600420151228000101 00000000000000000000000000000000000000000000000000000000000000000000000000000000000000000000000000000000000000000N 00000000000NCONT   00    00000000000          00000000000000000000000000000000000000000000 000000000000000A000000000000000000000000000000000000000000000 000000000000000000000000000000000000000     00000000                                                                                                                        000000000000000000
F0010000008090600005000003319910700013552100000000000000000201512280002001LUZ DARY JIMENEZ MARTINEZ                         D000000000008000000000000000000000100010010000000000000000000000F0010000008090600520151228000101 00000000000000000000000000000000000000000000000000000000000000000000000000000000000000000000000000000000000000000N 00000000000NCONT   00    00000000000          00000000000000000000000000000000000000000000 000000000000000A000000000000000000000000000000000000000000000 000000000000000000000000000000000000000     00000000                                                                                                                        000000000000000000
F0010000008090700001000086000259000011050500000000000000000201512280002001BRENNTAG COLOMBIA S.A.                            D000000008200000000000000000000000100010010000000000000000000000F0010000008090700120151228000101 00000000000000000000000000000000000000000000000000000000000000000000000000000000000000000000000000000000000000000N 00000000000NCONT   00    00000000000          00000000000000000000000000000000000000000000 000000000000000A000000000000000000000000000000000000000000000 000000000000000000000000000000000000000     00000000                                                                                                                        000000000000000000
F0010000008090700002000086000259000041450500000000000000000201512280002001BRENNTAG COLOMBIA S.A.                            C000000007400000000000000000000000100010010000000000000000000000F0010000008090700220151228000101 00000000000000000000000000000000000000000000000000000000000000000000000000000000000000000000000000000000000000000N 00000000000NCONT   00    00000000000          00000000000000000000000000000000000000000000 000000000000000A000000000000000000000000000000000000000000000 000000000000000000000000000000000000000     00000000                                                                                                                        000000000000000000
F0010000008090700003000086000259000042505000000000000000000201512280002001BRENNTAG COLOMBIA S.A.                            C000000000800000000000000000000000100010010000000000000000000000F0010000008090700320151228000101 00000000000000000000000000000000000000000000000000000000000000000000000000000000000000000000000000000000000000000N 00000000000NCONT   00    00000000000          00000000000000000000000000000000000000000000 000000000000000A000000000000000000000000000000000000000000000 000000000000000000000000000000000000000     00000000                                                                                                                        000000000000000000
F0010000008090700004000086000259000023658300000000000000000201512280002001BRENNTAG COLOMBIA S.A.                            C000000000059200000000000000000000100010010000000000000000000000F0010000008090700420151228000101 00000000000000000000000000000000000000000000000000000000000000000000000000000000000000000000000000000000000000000N 00000000000NCONT   00    00000000000          00000000000000000000000000000000000000000000 000000000000000A000000000000000000000000000000000000000000000 000000000000000000000000000000000000000     00000000                                                                                                                        000000000000000000
F0010000008090700005000086000259000013552100000000000000000201512280002001BRENNTAG COLOMBIA S.A.                            D000000000059200000000000000000000100010010000000000000000000000F0010000008090700520151228000101 00000000000000000000000000000000000000000000000000000000000000000000000000000000000000000000000000000000000000000N 00000000000NCONT   00    00000000000          00000000000000000000000000000000000000000000 000000000000000A000000000000000000000000000000000000000000000 000000000000000000000000000000000000000     00000000                                                                                                                        000000000000000000
F0010000008090800001000089070997800011050500000000000000000201512280002001CENTRAL DE TORNILLOS                              D000000003440000000000000000000000100010010000000000000000000000F0010000008090800120151228000101 00000000000000000000000000000000000000000000000000000000000000000000000000000000000000000000000000000000000000000N 00000000000NCONT   00    00000000000          00000000000000000000000000000000000000000000 000000000000000A000000000000000000000000000000000000000000000 000000000000000000000000000000000000000     00000000                                                                                                                        000000000000000000
F0010000008090800002000089070997800041450500000000000000000201512280002001CENTRAL DE TORNILLOS                              C000000003240000000000000000000000100010010000000000000000000000F0010000008090800220151228000101 00000000000000000000000000000000000000000000000000000000000000000000000000000000000000000000000000000000000000000N 00000000000NCONT   00    00000000000          00000000000000000000000000000000000000000000 000000000000000A000000000000000000000000000000000000000000000 000000000000000000000000000000000000000     00000000                                                                                                                        000000000000000000
F0010000008090800003000089070997800042505000000000000000000201512280002001CENTRAL DE TORNILLOS                              C000000000200000000000000000000000100010010000000000000000000000F0010000008090800320151228000101 00000000000000000000000000000000000000000000000000000000000000000000000000000000000000000000000000000000000000000N 00000000000NCONT   00    00000000000          00000000000000000000000000000000000000000000 000000000000000A000000000000000000000000000000000000000000000 000000000000000000000000000000000000000     00000000                                                                                                                        000000000000000000
F0010000008090800004000089070997800023658300000000000000000201512280002001CENTRAL DE TORNILLOS                              C000000000025900000000000000000000100010010000000000000000000000F0010000008090800420151228000101 00000000000000000000000000000000000000000000000000000000000000000000000000000000000000000000000000000000000000000N 00000000000NCONT   00    00000000000          00000000000000000000000000000000000000000000 000000000000000A000000000000000000000000000000000000000000000 000000000000000000000000000000000000000     00000000                                                                                                                        000000000000000000
F0010000008090800005000089070997800013552100000000000000000201512280002001CENTRAL DE TORNILLOS                              D000000000025900000000000000000000100010010000000000000000000000F0010000008090800520151228000101 00000000000000000000000000000000000000000000000000000000000000000000000000000000000000000000000000000000000000000N 00000000000NCONT   00    00000000000          00000000000000000000000000000000000000000000 000000000000000A000000000000000000000000000000000000000000000 000000000000000000000000000000000000000     00000000                                                                                                                        000000000000000000
F0010000008090900001000089070997800011050500000000000000000201512280002001CENTRAL DE TORNILLOS                              D000000007400000000000000000000000100010010000000000000000000000F0010000008090900120151228000101 00000000000000000000000000000000000000000000000000000000000000000000000000000000000000000000000000000000000000000N 00000000000NCONT   00    00000000000          00000000000000000000000000000000000000000000 000000000000000A000000000000000000000000000000000000000000000 000000000000000000000000000000000000000     00000000                                                                                                                        000000000000000000
F0010000008090900002000089070997800041450500000000000000000201512280002001CENTRAL DE TORNILLOS                              C000000007000000000000000000000000100010010000000000000000000000F0010000008090900220151228000101 00000000000000000000000000000000000000000000000000000000000000000000000000000000000000000000000000000000000000000N 00000000000NCONT   00    00000000000          00000000000000000000000000000000000000000000 000000000000000A000000000000000000000000000000000000000000000 000000000000000000000000000000000000000     00000000                                                                                                                        000000000000000000
F0010000008090900003000089070997800042505000000000000000000201512280002001CENTRAL DE TORNILLOS                              C000000000400000000000000000000000100010010000000000000000000000F0010000008090900320151228000101 00000000000000000000000000000000000000000000000000000000000000000000000000000000000000000000000000000000000000000N 00000000000NCONT   00    00000000000          00000000000000000000000000000000000000000000 000000000000000A000000000000000000000000000000000000000000000 000000000000000000000000000000000000000     00000000                                                                                                                        000000000000000000
F0010000008090900004000089070997800023658300000000000000000201512280002001CENTRAL DE TORNILLOS                              C000000000056000000000000000000000100010010000000000000000000000F0010000008090900420151228000101 00000000000000000000000000000000000000000000000000000000000000000000000000000000000000000000000000000000000000000N 00000000000NCONT   00    00000000000          00000000000000000000000000000000000000000000 000000000000000A000000000000000000000000000000000000000000000 000000000000000000000000000000000000000     00000000                                                                                                                        000000000000000000
F0010000008090900005000089070997800013552100000000000000000201512280002001CENTRAL DE TORNILLOS                              D000000000056000000000000000000000100010010000000000000000000000F0010000008090900520151228000101 00000000000000000000000000000000000000000000000000000000000000000000000000000000000000000000000000000000000000000N 00000000000NCONT   00    00000000000          00000000000000000000000000000000000000000000 000000000000000A000000000000000000000000000000000000000000000 000000000000000000000000000000000000000     00000000                                                                                                                        000000000000000000
F0010000008091000001000007213522400011050500000000000000000201512280002001RAIGOZA LASTRA                                    D000000005100000000000000000000000100010010000000000000000000000F0010000008091000120151228000101 00000000000000000000000000000000000000000000000000000000000000000000000000000000000000000000000000000000000000000N 00000000000NCONT   00    00000000000          00000000000000000000000000000000000000000000 000000000000000A000000000000000000000000000000000000000000000 000000000000000000000000000000000000000     00000000                                                                                                                        000000000000000000
F0010000008091000002000007213522400041450500000000000000000201512280002001RAIGOZA LASTRA                                    C000000005000000000000000000000000100010010000000000000000000000F0010000008091000220151228000101 00000000000000000000000000000000000000000000000000000000000000000000000000000000000000000000000000000000000000000N 00000000000NCONT   00    00000000000          00000000000000000000000000000000000000000000 000000000000000A000000000000000000000000000000000000000000000 000000000000000000000000000000000000000     00000000                                                                                                                        000000000000000000
F0010000008091000003000007213522400042505000000000000000000201512280002001RAIGOZA LASTRA                                    C000000000100000000000000000000000100010010000000000000000000000F0010000008091000320151228000101 00000000000000000000000000000000000000000000000000000000000000000000000000000000000000000000000000000000000000000N 00000000000NCONT   00    00000000000          00000000000000000000000000000000000000000000 000000000000000A000000000000000000000000000000000000000000000 000000000000000000000000000000000000000     00000000                                                                                                                        000000000000000000
F0010000008091000004000007213522400023658300000000000000000201512280002001RAIGOZA LASTRA                                    C000000000040000000000000000000000100010010000000000000000000000F0010000008091000420151228000101 00000000000000000000000000000000000000000000000000000000000000000000000000000000000000000000000000000000000000000N 00000000000NCONT   00    00000000000          00000000000000000000000000000000000000000000 000000000000000A000000000000000000000000000000000000000000000 000000000000000000000000000000000000000     00000000                                                                                                                        000000000000000000
F0010000008091000005000007213522400013552100000000000000000201512280002001RAIGOZA LASTRA                                    D000000000040000000000000000000000100010010000000000000000000000F0010000008091000520151228000101 00000000000000000000000000000000000000000000000000000000000000000000000000000000000000000000000000000000000000000N 00000000000NCONT   00    00000000000          00000000000000000000000000000000000000000000 000000000000000A000000000000000000000000000000000000000000000 000000000000000000000000000000000000000     00000000                                                                                                                        000000000000000000
F0010000008091100001000007200023300011050500000000000000000201512280002001WILLIAM ORTEGA                                    D000000004000000000000000000000000100010010000000000000000000000F0010000008091100120151228000101 00000000000000000000000000000000000000000000000000000000000000000000000000000000000000000000000000000000000000000N 00000000000NCONT   00    00000000000          00000000000000000000000000000000000000000000 000000000000000A000000000000000000000000000000000000000000000 000000000000000000000000000000000000000     00000000                                                                                                                        000000000000000000
F0010000008091100002000007200023300041450500000000000000000201512280002001WILLIAM ORTEGA                                    C000000003800000000000000000000000100010010000000000000000000000F0010000008091100220151228000101 00000000000000000000000000000000000000000000000000000000000000000000000000000000000000000000000000000000000000000N 00000000000NCONT   00    00000000000          00000000000000000000000000000000000000000000 000000000000000A000000000000000000000000000000000000000000000 000000000000000000000000000000000000000     00000000                                                                                                                        000000000000000000
F0010000008091100003000007200023300042505000000000000000000201512280002001WILLIAM ORTEGA                                    C000000000200000000000000000000000100010010000000000000000000000F0010000008091100320151228000101 00000000000000000000000000000000000000000000000000000000000000000000000000000000000000000000000000000000000000000N 00000000000NCONT   00    00000000000          00000000000000000000000000000000000000000000 000000000000000A000000000000000000000000000000000000000000000 000000000000000000000000000000000000000     00000000                                                                                                                        000000000000000000
F0010000008091100004000007200023300023658300000000000000000201512280002001WILLIAM ORTEGA                                    C000000000030400000000000000000000100010010000000000000000000000F0010000008091100420151228000101 00000000000000000000000000000000000000000000000000000000000000000000000000000000000000000000000000000000000000000N 00000000000NCONT   00    00000000000          00000000000000000000000000000000000000000000 000000000000000A000000000000000000000000000000000000000000000 000000000000000000000000000000000000000     00000000                                                                                                                        000000000000000000
F0010000008091100005000007200023300013552100000000000000000201512280002001WILLIAM ORTEGA                                    D000000000030400000000000000000000100010010000000000000000000000F0010000008091100520151228000101 00000000000000000000000000000000000000000000000000000000000000000000000000000000000000000000000000000000000000000N 00000000000NCONT   00    00000000000          00000000000000000000000000000000000000000000 000000000000000A000000000000000000000000000000000000000000000 000000000000000000000000000000000000000     00000000                                                                                                                        000000000000000000
F0010000008091200001000004175790100011050500000000000000000201512280002001ROSIRIS FERIA HOYOS  (COSM. SHILLER)              D000000000900000000000000000000000100010010000000000000000000000F0010000008091200120151228000101 00000000000000000000000000000000000000000000000000000000000000000000000000000000000000000000000000000000000000000N 00000000000NCONT   00    00000000000          00000000000000000000000000000000000000000000 000000000000000A000000000000000000000000000000000000000000000 000000000000000000000000000000000000000     00000000                                                                                                                        000000000000000000
F0010000008091200002000004175790100041450500000000000000000201512280002001ROSIRIS FERIA HOYOS  (COSM. SHILLER)              C000000000800000000000000000000000100010010000000000000000000000F0010000008091200220151228000101 00000000000000000000000000000000000000000000000000000000000000000000000000000000000000000000000000000000000000000N 00000000000NCONT   00    00000000000          00000000000000000000000000000000000000000000 000000000000000A000000000000000000000000000000000000000000000 000000000000000000000000000000000000000     00000000                                                                                                                        000000000000000000
F0010000008091200003000004175790100042505000000000000000000201512280002001ROSIRIS FERIA HOYOS  (COSM. SHILLER)              C000000000100000000000000000000000100010010000000000000000000000F0010000008091200320151228000101 00000000000000000000000000000000000000000000000000000000000000000000000000000000000000000000000000000000000000000N 00000000000NCONT   00    00000000000          00000000000000000000000000000000000000000000 000000000000000A000000000000000000000000000000000000000000000 000000000000000000000000000000000000000     00000000                                                                                                                        000000000000000000
F0010000008091200004000004175790100023658300000000000000000201512280002001ROSIRIS FERIA HOYOS  (COSM. SHILLER)              C000000000006400000000000000000000100010010000000000000000000000F0010000008091200420151228000101 00000000000000000000000000000000000000000000000000000000000000000000000000000000000000000000000000000000000000000N 00000000000NCONT   00    00000000000          00000000000000000000000000000000000000000000 000000000000000A000000000000000000000000000000000000000000000 000000000000000000000000000000000000000     00000000                                                                                                                        000000000000000000
F0010000008091200005000004175790100013552100000000000000000201512280002001ROSIRIS FERIA HOYOS  (COSM. SHILLER)              D000000000006400000000000000000000100010010000000000000000000000F0010000008091200520151228000101 00000000000000000000000000000000000000000000000000000000000000000000000000000000000000000000000000000000000000000N 00000000000NCONT   00    00000000000          00000000000000000000000000000000000000000000 000000000000000A000000000000000000000000000000000000000000000 000000000000000000000000000000000000000     00000000                                                                                                                        000000000000000000
F0010000008091300001000007200023300011050500000000000000000201512280002001WILLIAM ORTEGA                                    D000000001500000000000000000000000100010010000000000000000000000F0010000008091300120151228000101 00000000000000000000000000000000000000000000000000000000000000000000000000000000000000000000000000000000000000000N 00000000000NCONT   00    00000000000          00000000000000000000000000000000000000000000 000000000000000A000000000000000000000000000000000000000000000 000000000000000000000000000000000000000     00000000                                                                                                                        000000000000000000
F0010000008091300002000007200023300041450500000000000000000201512280002001WILLIAM ORTEGA                                    C000000001300000000000000000000000100010010000000000000000000000F0010000008091300220151228000101 00000000000000000000000000000000000000000000000000000000000000000000000000000000000000000000000000000000000000000N 00000000000NCONT   00    00000000000          00000000000000000000000000000000000000000000 000000000000000A000000000000000000000000000000000000000000000 000000000000000000000000000000000000000     00000000                                                                                                                        000000000000000000
F0010000008091300003000007200023300042505000000000000000000201512280002001WILLIAM ORTEGA                                    C000000000200000000000000000000000100010010000000000000000000000F0010000008091300320151228000101 00000000000000000000000000000000000000000000000000000000000000000000000000000000000000000000000000000000000000000N 00000000000NCONT   00    00000000000          00000000000000000000000000000000000000000000 000000000000000A000000000000000000000000000000000000000000000 000000000000000000000000000000000000000     00000000                                                                                                                        000000000000000000
F0010000008091300004000007200023300023658300000000000000000201512280002001WILLIAM ORTEGA                                    C000000000010400000000000000000000100010010000000000000000000000F0010000008091300420151228000101 00000000000000000000000000000000000000000000000000000000000000000000000000000000000000000000000000000000000000000N 00000000000NCONT   00    00000000000          00000000000000000000000000000000000000000000 000000000000000A000000000000000000000000000000000000000000000 000000000000000000000000000000000000000     00000000                                                                                                                        000000000000000000
F0010000008091300005000007200023300013552100000000000000000201512280002001WILLIAM ORTEGA                                    D000000000010400000000000000000000100010010000000000000000000000F0010000008091300520151228000101 00000000000000000000000000000000000000000000000000000000000000000000000000000000000000000000000000000000000000000N 00000000000NCONT   00    00000000000          00000000000000000000000000000000000000000000 000000000000000A000000000000000000000000000000000000000000000 000000000000000000000000000000000000000     00000000                                                                                                                        000000000000000000
F0010000008091400001000007200023300011050500000000000000000201512280002001WILLIAM ORTEGA                                    D000000001500000000000000000000000100010010000000000000000000000F0010000008091400120151228000101 00000000000000000000000000000000000000000000000000000000000000000000000000000000000000000000000000000000000000000N 00000000000NCONT   00    00000000000          00000000000000000000000000000000000000000000 000000000000000A000000000000000000000000000000000000000000000 000000000000000000000000000000000000000     00000000                                                                                                                        000000000000000000
F0010000008091400002000007200023300041450500000000000000000201512280002001WILLIAM ORTEGA                                    C000000001300000000000000000000000100010010000000000000000000000F0010000008091400220151228000101 00000000000000000000000000000000000000000000000000000000000000000000000000000000000000000000000000000000000000000N 00000000000NCONT   00    00000000000          00000000000000000000000000000000000000000000 000000000000000A000000000000000000000000000000000000000000000 000000000000000000000000000000000000000     00000000                                                                                                                        000000000000000000
F0010000008091400003000007200023300042505000000000000000000201512280002001WILLIAM ORTEGA                                    C000000000200000000000000000000000100010010000000000000000000000F0010000008091400320151228000101 00000000000000000000000000000000000000000000000000000000000000000000000000000000000000000000000000000000000000000N 00000000000NCONT   00    00000000000          00000000000000000000000000000000000000000000 000000000000000A000000000000000000000000000000000000000000000 000000000000000000000000000000000000000     00000000                                                                                                                        000000000000000000
F0010000008091400004000007200023300023658300000000000000000201512280002001WILLIAM ORTEGA                                    C000000000010400000000000000000000100010010000000000000000000000F0010000008091400420151228000101 00000000000000000000000000000000000000000000000000000000000000000000000000000000000000000000000000000000000000000N 00000000000NCONT   00    00000000000          00000000000000000000000000000000000000000000 000000000000000A000000000000000000000000000000000000000000000 000000000000000000000000000000000000000     00000000                                                                                                                        000000000000000000
F0010000008091400005000007200023300013552100000000000000000201512280002001WILLIAM ORTEGA                                    D000000000010400000000000000000000100010010000000000000000000000F0010000008091400520151228000101 00000000000000000000000000000000000000000000000000000000000000000000000000000000000000000000000000000000000000000N 00000000000NCONT   00    00000000000          00000000000000000000000000000000000000000000 000000000000000A000000000000000000000000000000000000000000000 000000000000000000000000000000000000000     00000000                                                                                                                        000000000000000000
F0010000008091500001000001535146600011050500000000000000000201512280002001ORLANDO OROZCO NAVARRO                            D000000000900000000000000000000000100010010000000000000000000000F0010000008091500120151228000101 00000000000000000000000000000000000000000000000000000000000000000000000000000000000000000000000000000000000000000N 00000000000NCONT   00    00000000000          00000000000000000000000000000000000000000000 000000000000000A000000000000000000000000000000000000000000000 000000000000000000000000000000000000000     00000000                                                                                                                        000000000000000000
F0010000008091500002000001535146600041450500000000000000000201512280002001ORLANDO OROZCO NAVARRO                            C000000000800000000000000000000000100010010000000000000000000000F0010000008091500220151228000101 00000000000000000000000000000000000000000000000000000000000000000000000000000000000000000000000000000000000000000N 00000000000NCONT   00    00000000000          00000000000000000000000000000000000000000000 000000000000000A000000000000000000000000000000000000000000000 000000000000000000000000000000000000000     00000000                                                                                                                        000000000000000000
F0010000008091500003000001535146600042505000000000000000000201512280002001ORLANDO OROZCO NAVARRO                            C000000000100000000000000000000000100010010000000000000000000000F0010000008091500320151228000101 00000000000000000000000000000000000000000000000000000000000000000000000000000000000000000000000000000000000000000N 00000000000NCONT   00    00000000000          00000000000000000000000000000000000000000000 000000000000000A000000000000000000000000000000000000000000000 000000000000000000000000000000000000000     00000000                                                                                                                        000000000000000000
F0010000008091500004000001535146600023658300000000000000000201512280002001ORLANDO OROZCO NAVARRO                            C000000000006400000000000000000000100010010000000000000000000000F0010000008091500420151228000101 00000000000000000000000000000000000000000000000000000000000000000000000000000000000000000000000000000000000000000N 00000000000NCONT   00    00000000000          00000000000000000000000000000000000000000000 000000000000000A000000000000000000000000000000000000000000000 000000000000000000000000000000000000000     00000000                                                                                                                        000000000000000000
F0010000008091500005000001535146600013552100000000000000000201512280002001ORLANDO OROZCO NAVARRO                            D000000000006400000000000000000000100010010000000000000000000000F0010000008091500520151228000101 00000000000000000000000000000000000000000000000000000000000000000000000000000000000000000000000000000000000000000N 00000000000NCONT   00    00000000000          00000000000000000000000000000000000000000000 000000000000000A000000000000000000000000000000000000000000000 000000000000000000000000000000000000000     00000000                                                                                                                        000000000000000000
F0010000008091600001000001325248300011050500000000000000000201512280002001LUBRICANTE LA 37                                  D000000002000000000000000000000000100010010000000000000000000000F0010000008091600120151228000101 00000000000000000000000000000000000000000000000000000000000000000000000000000000000000000000000000000000000000000N 00000000000NCONT   00    00000000000          00000000000000000000000000000000000000000000 000000000000000A000000000000000000000000000000000000000000000 000000000000000000000000000000000000000     00000000                                                                                                                        000000000000000000
F0010000008091600002000001325248300041450500000000000000000201512280002001LUBRICANTE LA 37                                  C000000001700000000000000000000000100010010000000000000000000000F0010000008091600220151228000101 00000000000000000000000000000000000000000000000000000000000000000000000000000000000000000000000000000000000000000N 00000000000NCONT   00    00000000000          00000000000000000000000000000000000000000000 000000000000000A000000000000000000000000000000000000000000000 000000000000000000000000000000000000000     00000000                                                                                                                        000000000000000000
F0010000008091600003000001325248300042505000000000000000000201512280002001LUBRICANTE LA 37                                  C000000000300000000000000000000000100010010000000000000000000000F0010000008091600320151228000101 00000000000000000000000000000000000000000000000000000000000000000000000000000000000000000000000000000000000000000N 00000000000NCONT   00    00000000000          00000000000000000000000000000000000000000000 000000000000000A000000000000000000000000000000000000000000000 000000000000000000000000000000000000000     00000000                                                                                                                        000000000000000000
F0010000008091600004000001325248300023658300000000000000000201512280002001LUBRICANTE LA 37                                  C000000000013600000000000000000000100010010000000000000000000000F0010000008091600420151228000101 00000000000000000000000000000000000000000000000000000000000000000000000000000000000000000000000000000000000000000N 00000000000NCONT   00    00000000000          00000000000000000000000000000000000000000000 000000000000000A000000000000000000000000000000000000000000000 000000000000000000000000000000000000000     00000000                                                                                                                        000000000000000000
F0010000008091600005000001325248300013552100000000000000000201512280002001LUBRICANTE LA 37                                  D000000000013600000000000000000000100010010000000000000000000000F0010000008091600520151228000101 00000000000000000000000000000000000000000000000000000000000000000000000000000000000000000000000000000000000000000N 00000000000NCONT   00    00000000000          00000000000000000000000000000000000000000000 000000000000000A000000000000000000000000000000000000000000000 000000000000000000000000000000000000000     00000000                                                                                                                        000000000000000000
F0010000008091700001000090053611800011050500000000000000000201512280002001PELETERIA COSTA CARIBE S.A .S                     D000000009550000000000000000000000100010010000000000000000000000F0010000008091700120151228000101 00000000000000000000000000000000000000000000000000000000000000000000000000000000000000000000000000000000000000000N 00000000000NCONT   00    00000000000          00000000000000000000000000000000000000000000 000000000000000A000000000000000000000000000000000000000000000 000000000000000000000000000000000000000     00000000                                                                                                                        000000000000000000
F0010000008091700002000090053611800041450500000000000000000201512280002001PELETERIA COSTA CARIBE S.A .S                     C000000007550000000000000000000000100010010000000000000000000000F0010000008091700220151228000101 00000000000000000000000000000000000000000000000000000000000000000000000000000000000000000000000000000000000000000N 00000000000NCONT   00    00000000000          00000000000000000000000000000000000000000000 000000000000000A000000000000000000000000000000000000000000000 000000000000000000000000000000000000000     00000000                                                                                                                        000000000000000000
F0010000008091700003000090053611800042505000000000000000000201512280002001PELETERIA COSTA CARIBE S.A .S                     C000000002000000000000000000000000100010010000000000000000000000F0010000008091700320151228000101 00000000000000000000000000000000000000000000000000000000000000000000000000000000000000000000000000000000000000000N 00000000000NCONT   00    00000000000          00000000000000000000000000000000000000000000 000000000000000A000000000000000000000000000000000000000000000 000000000000000000000000000000000000000     00000000                                                                                                                        000000000000000000
F0010000008091700004000090053611800023658300000000000000000201512280002001PELETERIA COSTA CARIBE S.A .S                     C000000000060400000000000000000000100010010000000000000000000000F0010000008091700420151228000101 00000000000000000000000000000000000000000000000000000000000000000000000000000000000000000000000000000000000000000N 00000000000NCONT   00    00000000000          00000000000000000000000000000000000000000000 000000000000000A000000000000000000000000000000000000000000000 000000000000000000000000000000000000000     00000000                                                                                                                        000000000000000000
F0010000008091700005000090053611800013552100000000000000000201512280002001PELETERIA COSTA CARIBE S.A .S                     D000000000060400000000000000000000100010010000000000000000000000F0010000008091700520151228000101 00000000000000000000000000000000000000000000000000000000000000000000000000000000000000000000000000000000000000000N 00000000000NCONT   00    00000000000          00000000000000000000000000000000000000000000 000000000000000A000000000000000000000000000000000000000000000 000000000000000000000000000000000000000     00000000                                                                                                                        000000000000000000
F0010000008091800001000086003979400011050500000000000000000201512280002001CALYPSO BARRANQUILLA LTDA                         D000000000810000000000000000000000100010010000000000000000000000F0010000008091800120151228000101 00000000000000000000000000000000000000000000000000000000000000000000000000000000000000000000000000000000000000000N 00000000000NCONT   00    00000000000          00000000000000000000000000000000000000000000 000000000000000A000000000000000000000000000000000000000000000 000000000000000000000000000000000000000     00000000                                                                                                                        000000000000000000
F0010000008091800002000086003979400041450500000000000000000201512280002001CALYPSO BARRANQUILLA LTDA                         C000000000660000000000000000000000100010010000000000000000000000F0010000008091800220151228000101 00000000000000000000000000000000000000000000000000000000000000000000000000000000000000000000000000000000000000000N 00000000000NCONT   00    00000000000          00000000000000000000000000000000000000000000 000000000000000A000000000000000000000000000000000000000000000 000000000000000000000000000000000000000     00000000                                                                                                                        000000000000000000
F0010000008091800003000086003979400042505000000000000000000201512280002001CALYPSO BARRANQUILLA LTDA                         C000000000150000000000000000000000100010010000000000000000000000F0010000008091800320151228000101 00000000000000000000000000000000000000000000000000000000000000000000000000000000000000000000000000000000000000000N 00000000000NCONT   00    00000000000          00000000000000000000000000000000000000000000 000000000000000A000000000000000000000000000000000000000000000 000000000000000000000000000000000000000     00000000                                                                                                                        000000000000000000
F0010000008091800004000086003979400023658300000000000000000201512280002001CALYPSO BARRANQUILLA LTDA                         C000000000005300000000000000000000100010010000000000000000000000F0010000008091800420151228000101 00000000000000000000000000000000000000000000000000000000000000000000000000000000000000000000000000000000000000000N 00000000000NCONT   00    00000000000          00000000000000000000000000000000000000000000 000000000000000A000000000000000000000000000000000000000000000 000000000000000000000000000000000000000     00000000                                                                                                                        000000000000000000
F0010000008091800005000086003979400013552100000000000000000201512280002001CALYPSO BARRANQUILLA LTDA                         D000000000005300000000000000000000100010010000000000000000000000F0010000008091800520151228000101 00000000000000000000000000000000000000000000000000000000000000000000000000000000000000000000000000000000000000000N 00000000000NCONT   00    00000000000          00000000000000000000000000000000000000000000 000000000000000A000000000000000000000000000000000000000000000 000000000000000000000000000000000000000     00000000                                                                                                                        000000000000000000
F0010000008091900001000090037881900011050500000000000000000201512280002001COMERCIALIZADORA RACOPI S.A.S                     D000000001160000000000000000000000100010010000000000000000000000F0010000008091900120151228000101 00000000000000000000000000000000000000000000000000000000000000000000000000000000000000000000000000000000000000000N 00000000000NCONT   00    00000000000          00000000000000000000000000000000000000000000 000000000000000A000000000000000000000000000000000000000000000 000000000000000000000000000000000000000     00000000                                                                                                                        000000000000000000
F0010000008091900002000090037881900041450500000000000000000201512280002001COMERCIALIZADORA RACOPI S.A.S                     C000000000960000000000000000000000100010010000000000000000000000F0010000008091900220151228000101 00000000000000000000000000000000000000000000000000000000000000000000000000000000000000000000000000000000000000000N 00000000000NCONT   00    00000000000          00000000000000000000000000000000000000000000 000000000000000A000000000000000000000000000000000000000000000 000000000000000000000000000000000000000     00000000                                                                                                                        000000000000000000
F0010000008091900003000090037881900042505000000000000000000201512280002001COMERCIALIZADORA RACOPI S.A.S                     C000000000200000000000000000000000100010010000000000000000000000F0010000008091900320151228000101 00000000000000000000000000000000000000000000000000000000000000000000000000000000000000000000000000000000000000000N 00000000000NCONT   00    00000000000          00000000000000000000000000000000000000000000 000000000000000A000000000000000000000000000000000000000000000 000000000000000000000000000000000000000     00000000                                                                                                                        000000000000000000
F0010000008091900004000090037881900023658300000000000000000201512280002001COMERCIALIZADORA RACOPI S.A.S                     C000000000007700000000000000000000100010010000000000000000000000F0010000008091900420151228000101 00000000000000000000000000000000000000000000000000000000000000000000000000000000000000000000000000000000000000000N 00000000000NCONT   00    00000000000          00000000000000000000000000000000000000000000 000000000000000A000000000000000000000000000000000000000000000 000000000000000000000000000000000000000     00000000                                                                                                                        000000000000000000
F0010000008091900005000090037881900013552100000000000000000201512280002001COMERCIALIZADORA RACOPI S.A.S                     D000000000007700000000000000000000100010010000000000000000000000F0010000008091900520151228000101 00000000000000000000000000000000000000000000000000000000000000000000000000000000000000000000000000000000000000000N 00000000000NCONT   00    00000000000          00000000000000000000000000000000000000000000 000000000000000A000000000000000000000000000000000000000000000 000000000000000000000000000000000000000     00000000                                                                                                                        000000000000000000
F0010000008092000001000090053611800011050500000000000000000201512280002001PELETERIA COSTA CARIBE S.A .S                     D000000006800000000000000000000000100010010000000000000000000000F0010000008092000120151228000101 00000000000000000000000000000000000000000000000000000000000000000000000000000000000000000000000000000000000000000N 00000000000NCONT   00    00000000000          00000000000000000000000000000000000000000000 000000000000000A000000000000000000000000000000000000000000000 000000000000000000000000000000000000000     00000000                                                                                                                        000000000000000000
F0010000008092000002000090053611800041450500000000000000000201512280002001PELETERIA COSTA CARIBE S.A .S                     C000000005000000000000000000000000100010010000000000000000000000F0010000008092000220151228000101 00000000000000000000000000000000000000000000000000000000000000000000000000000000000000000000000000000000000000000N 00000000000NCONT   00    00000000000          00000000000000000000000000000000000000000000 000000000000000A000000000000000000000000000000000000000000000 000000000000000000000000000000000000000     00000000                                                                                                                        000000000000000000
F0010000008092000003000090053611800042505000000000000000000201512280002001PELETERIA COSTA CARIBE S.A .S                     C000000001800000000000000000000000100010010000000000000000000000F0010000008092000320151228000101 00000000000000000000000000000000000000000000000000000000000000000000000000000000000000000000000000000000000000000N 00000000000NCONT   00    00000000000          00000000000000000000000000000000000000000000 000000000000000A000000000000000000000000000000000000000000000 000000000000000000000000000000000000000     00000000                                                                                                                        000000000000000000
F0010000008092000004000090053611800023658300000000000000000201512280002001PELETERIA COSTA CARIBE S.A .S                     C000000000040000000000000000000000100010010000000000000000000000F0010000008092000420151228000101 00000000000000000000000000000000000000000000000000000000000000000000000000000000000000000000000000000000000000000N 00000000000NCONT   00    00000000000          00000000000000000000000000000000000000000000 000000000000000A000000000000000000000000000000000000000000000 000000000000000000000000000000000000000     00000000                                                                                                                        000000000000000000
F0010000008092000005000090053611800013552100000000000000000201512280002001PELETERIA COSTA CARIBE S.A .S                     D000000000040000000000000000000000100010010000000000000000000000F0010000008092000520151228000101 00000000000000000000000000000000000000000000000000000000000000000000000000000000000000000000000000000000000000000N 00000000000NCONT   00    00000000000          00000000000000000000000000000000000000000000 000000000000000A000000000000000000000000000000000000000000000 000000000000000000000000000000000000000     00000000                                                                                                                        000000000000000000
F0010000008092100001000003314755400011050500000000000000000201512280002001RUMATEX DE COLOMBIA                               D000000001500000000000000000000000100010010000000000000000000000F0010000008092100120151228000101 00000000000000000000000000000000000000000000000000000000000000000000000000000000000000000000000000000000000000000N 00000000000NCONT   00    00000000000          00000000000000000000000000000000000000000000 000000000000000A000000000000000000000000000000000000000000000 000000000000000000000000000000000000000     00000000                                                                                                                        000000000000000000
F0010000008092100002000003314755400041450500000000000000000201512280002001RUMATEX DE COLOMBIA                               C000000001000000000000000000000000100010010000000000000000000000F0010000008092100220151228000101 00000000000000000000000000000000000000000000000000000000000000000000000000000000000000000000000000000000000000000N 00000000000NCONT   00    00000000000          00000000000000000000000000000000000000000000 000000000000000A000000000000000000000000000000000000000000000 000000000000000000000000000000000000000     00000000                                                                                                                        000000000000000000
F0010000008092100003000003314755400042505000000000000000000201512280002001RUMATEX DE COLOMBIA                               C000000000500000000000000000000000100010010000000000000000000000F0010000008092100320151228000101 00000000000000000000000000000000000000000000000000000000000000000000000000000000000000000000000000000000000000000N 00000000000NCONT   00    00000000000          00000000000000000000000000000000000000000000 000000000000000A000000000000000000000000000000000000000000000 000000000000000000000000000000000000000     00000000                                                                                                                        000000000000000000
F0010000008092100004000003314755400023658300000000000000000201512280002001RUMATEX DE COLOMBIA                               C000000000008000000000000000000000100010010000000000000000000000F0010000008092100420151228000101 00000000000000000000000000000000000000000000000000000000000000000000000000000000000000000000000000000000000000000N 00000000000NCONT   00    00000000000          00000000000000000000000000000000000000000000 000000000000000A000000000000000000000000000000000000000000000 000000000000000000000000000000000000000     00000000                                                                                                                        000000000000000000
F0010000008092100005000003314755400013552100000000000000000201512280002001RUMATEX DE COLOMBIA                               D000000000008000000000000000000000100010010000000000000000000000F0010000008092100520151228000101 00000000000000000000000000000000000000000000000000000000000000000000000000000000000000000000000000000000000000000N 00000000000NCONT   00    00000000000          00000000000000000000000000000000000000000000 000000000000000A000000000000000000000000000000000000000000000 000000000000000000000000000000000000000     00000000                                                                                                                        000000000000000000
F0010000008092200001000007200289400011050500000000000000000201512280002001MIGUEL CORTINA                                    D000000002000000000000000000000000100010010000000000000000000000F0010000008092200120151228000101 00000000000000000000000000000000000000000000000000000000000000000000000000000000000000000000000000000000000000000N 00000000000NCONT   00    00000000000          00000000000000000000000000000000000000000000 000000000000000A000000000000000000000000000000000000000000000 000000000000000000000000000000000000000     00000000                                                                                                                        000000000000000000
F0010000008092200002000007200289400041450500000000000000000201512280002001MIGUEL CORTINA                                    C000000001000000000000000000000000100010010000000000000000000000F0010000008092200220151228000101 00000000000000000000000000000000000000000000000000000000000000000000000000000000000000000000000000000000000000000N 00000000000NCONT   00    00000000000          00000000000000000000000000000000000000000000 000000000000000A000000000000000000000000000000000000000000000 000000000000000000000000000000000000000     00000000                                                                                                                        000000000000000000
F0010000008092200003000007200289400042505000000000000000000201512280002001MIGUEL CORTINA                                    C000000001000000000000000000000000100010010000000000000000000000F0010000008092200320151228000101 00000000000000000000000000000000000000000000000000000000000000000000000000000000000000000000000000000000000000000N 00000000000NCONT   00    00000000000          00000000000000000000000000000000000000000000 000000000000000A000000000000000000000000000000000000000000000 000000000000000000000000000000000000000     00000000                                                                                                                        000000000000000000
F0010000008092200004000007200289400023658300000000000000000201512280002001MIGUEL CORTINA                                    C000000000008000000000000000000000100010010000000000000000000000F0010000008092200420151228000101 00000000000000000000000000000000000000000000000000000000000000000000000000000000000000000000000000000000000000000N 00000000000NCONT   00    00000000000          00000000000000000000000000000000000000000000 000000000000000A000000000000000000000000000000000000000000000 000000000000000000000000000000000000000     00000000                                                                                                                        000000000000000000
F0010000008092200005000007200289400013552100000000000000000201512280002001MIGUEL CORTINA                                    D000000000008000000000000000000000100010010000000000000000000000F0010000008092200520151228000101 00000000000000000000000000000000000000000000000000000000000000000000000000000000000000000000000000000000000000000N 00000000000NCONT   00    00000000000          00000000000000000000000000000000000000000000 000000000000000A000000000000000000000000000000000000000000000 000000000000000000000000000000000000000     00000000                                                                                                                        000000000000000000
