F0010000007733300001000007204098400011050500000000000000000201510080002001SERGIO RIPPE MEJIA                                D000000008500000000000000000000000100010010000000000000000000000F0010000007733300120151008000101 00000000000000000000000000000000000000000000000000000000000000000000000000000000000000000000000000000000000000000N 00000000000NCONT   00    00000000000          00000000000000000000000000000000000000000000 000000000000000A000000000000000000000000000000000000000000000 000000000000000000000000000000000000000     00000000                                                                                                                        000000000000000000
F0010000007733300002000007204098400041450500000000000000000201510080002001SERGIO RIPPE MEJIA                                C000000008000000000000000000000000100010010000000000000000000000F0010000007733300220151008000101 00000000000000000000000000000000000000000000000000000000000000000000000000000000000000000000000000000000000000000N 00000000000NCONT   00    00000000000          00000000000000000000000000000000000000000000 000000000000000A000000000000000000000000000000000000000000000 000000000000000000000000000000000000000     00000000                                                                                                                        000000000000000000
F0010000007733300003000007204098400042505000000000000000000201510080002001SERGIO RIPPE MEJIA                                C000000000500000000000000000000000100010010000000000000000000000F0010000007733300320151008000101 00000000000000000000000000000000000000000000000000000000000000000000000000000000000000000000000000000000000000000N 00000000000NCONT   00    00000000000          00000000000000000000000000000000000000000000 000000000000000A000000000000000000000000000000000000000000000 000000000000000000000000000000000000000     00000000                                                                                                                        000000000000000000
F0010000007733300004000007204098400023658300000000000000000201510080002001SERGIO RIPPE MEJIA                                C000000000064000000000000000000000100010010000000000000000000000F0010000007733300420151008000101 00000000000000000000000000000000000000000000000000000000000000000000000000000000000000000000000000000000000000000N 00000000000NCONT   00    00000000000          00000000000000000000000000000000000000000000 000000000000000A000000000000000000000000000000000000000000000 000000000000000000000000000000000000000     00000000                                                                                                                        000000000000000000
F0010000007733300005000007204098400013552100000000000000000201510080002001SERGIO RIPPE MEJIA                                D000000000064000000000000000000000100010010000000000000000000000F0010000007733300520151008000101 00000000000000000000000000000000000000000000000000000000000000000000000000000000000000000000000000000000000000000N 00000000000NCONT   00    00000000000          00000000000000000000000000000000000000000000 000000000000000A000000000000000000000000000000000000000000000 000000000000000000000000000000000000000     00000000                                                                                                                        000000000000000000
F0010000007733400001000080022159100011050500000000000000000201510080002001CENTRO ACEROS DEL CARIBE LTDA                     D000000040000000000000000000000000100010010000000000000000000000F0010000007733400120151008000101 00000000000000000000000000000000000000000000000000000000000000000000000000000000000000000000000000000000000000000N 00000000000NCONT   00    00000000000          00000000000000000000000000000000000000000000 000000000000000A000000000000000000000000000000000000000000000 000000000000000000000000000000000000000     00000000                                                                                                                        000000000000000000
F0010000007733400002000080022159100041450500000000000000000201510080002001CENTRO ACEROS DEL CARIBE LTDA                     C000000038000000000000000000000000100010010000000000000000000000F0010000007733400220151008000101 00000000000000000000000000000000000000000000000000000000000000000000000000000000000000000000000000000000000000000N 00000000000NCONT   00    00000000000          00000000000000000000000000000000000000000000 000000000000000A000000000000000000000000000000000000000000000 000000000000000000000000000000000000000     00000000                                                                                                                        000000000000000000
F0010000007733400003000080022159100042505000000000000000000201510080002001CENTRO ACEROS DEL CARIBE LTDA                     C000000002000000000000000000000000100010010000000000000000000000F0010000007733400320151008000101 00000000000000000000000000000000000000000000000000000000000000000000000000000000000000000000000000000000000000000N 00000000000NCONT   00    00000000000          00000000000000000000000000000000000000000000 000000000000000A000000000000000000000000000000000000000000000 000000000000000000000000000000000000000     00000000                                                                                                                        000000000000000000
F0010000007733400004000080022159100023658300000000000000000201510080002001CENTRO ACEROS DEL CARIBE LTDA                     C000000000304000000000000000000000100010010000000000000000000000F0010000007733400420151008000101 00000000000000000000000000000000000000000000000000000000000000000000000000000000000000000000000000000000000000000N 00000000000NCONT   00    00000000000          00000000000000000000000000000000000000000000 000000000000000A000000000000000000000000000000000000000000000 000000000000000000000000000000000000000     00000000                                                                                                                        000000000000000000
F0010000007733400005000080022159100013552100000000000000000201510080002001CENTRO ACEROS DEL CARIBE LTDA                     D000000000304000000000000000000000100010010000000000000000000000F0010000007733400520151008000101 00000000000000000000000000000000000000000000000000000000000000000000000000000000000000000000000000000000000000000N 00000000000NCONT   00    00000000000          00000000000000000000000000000000000000000000 000000000000000A000000000000000000000000000000000000000000000 000000000000000000000000000000000000000     00000000                                                                                                                        000000000000000000
F0010000007733500001000005525050200011050500000000000000000201510080002001PLASTICOS  DE LA COSTA                            D000000002000000000000000000000000100010010000000000000000000000F0010000007733500120151008000101 00000000000000000000000000000000000000000000000000000000000000000000000000000000000000000000000000000000000000000N 00000000000NCONT   00    00000000000          00000000000000000000000000000000000000000000 000000000000000A000000000000000000000000000000000000000000000 000000000000000000000000000000000000000     00000000                                                                                                                        000000000000000000
F0010000007733500002000005525050200041450500000000000000000201510080002001PLASTICOS  DE LA COSTA                            C000000001800000000000000000000000100010010000000000000000000000F0010000007733500220151008000101 00000000000000000000000000000000000000000000000000000000000000000000000000000000000000000000000000000000000000000N 00000000000NCONT   00    00000000000          00000000000000000000000000000000000000000000 000000000000000A000000000000000000000000000000000000000000000 000000000000000000000000000000000000000     00000000                                                                                                                        000000000000000000
F0010000007733500003000005525050200042505000000000000000000201510080002001PLASTICOS  DE LA COSTA                            C000000000200000000000000000000000100010010000000000000000000000F0010000007733500320151008000101 00000000000000000000000000000000000000000000000000000000000000000000000000000000000000000000000000000000000000000N 00000000000NCONT   00    00000000000          00000000000000000000000000000000000000000000 000000000000000A000000000000000000000000000000000000000000000 000000000000000000000000000000000000000     00000000                                                                                                                        000000000000000000
F0010000007733500004000005525050200023658300000000000000000201510080002001PLASTICOS  DE LA COSTA                            C000000000014400000000000000000000100010010000000000000000000000F0010000007733500420151008000101 00000000000000000000000000000000000000000000000000000000000000000000000000000000000000000000000000000000000000000N 00000000000NCONT   00    00000000000          00000000000000000000000000000000000000000000 000000000000000A000000000000000000000000000000000000000000000 000000000000000000000000000000000000000     00000000                                                                                                                        000000000000000000
F0010000007733500005000005525050200013552100000000000000000201510080002001PLASTICOS  DE LA COSTA                            D000000000014400000000000000000000100010010000000000000000000000F0010000007733500520151008000101 00000000000000000000000000000000000000000000000000000000000000000000000000000000000000000000000000000000000000000N 00000000000NCONT   00    00000000000          00000000000000000000000000000000000000000000 000000000000000A000000000000000000000000000000000000000000000 000000000000000000000000000000000000000     00000000                                                                                                                        000000000000000000
F0010000007733600001000090034602400011050500000000000000000201510080002001PRODUCTOS NACIONALES PARAFINICOS LA CUSTODIA S.A.SD000000020000000000000000000000000100010010000000000000000000000F0010000007733600120151008000101 00000000000000000000000000000000000000000000000000000000000000000000000000000000000000000000000000000000000000000N 00000000000NCONT   00    00000000000          00000000000000000000000000000000000000000000 000000000000000A000000000000000000000000000000000000000000000 000000000000000000000000000000000000000     00000000                                                                                                                        000000000000000000
F0010000007733600002000090034602400041450500000000000000000201510080002001PRODUCTOS NACIONALES PARAFINICOS LA CUSTODIA S.A.SC000000019000000000000000000000000100010010000000000000000000000F0010000007733600220151008000101 00000000000000000000000000000000000000000000000000000000000000000000000000000000000000000000000000000000000000000N 00000000000NCONT   00    00000000000          00000000000000000000000000000000000000000000 000000000000000A000000000000000000000000000000000000000000000 000000000000000000000000000000000000000     00000000                                                                                                                        000000000000000000
F0010000007733600003000090034602400042505000000000000000000201510080002001PRODUCTOS NACIONALES PARAFINICOS LA CUSTODIA S.A.SC000000001000000000000000000000000100010010000000000000000000000F0010000007733600320151008000101 00000000000000000000000000000000000000000000000000000000000000000000000000000000000000000000000000000000000000000N 00000000000NCONT   00    00000000000          00000000000000000000000000000000000000000000 000000000000000A000000000000000000000000000000000000000000000 000000000000000000000000000000000000000     00000000                                                                                                                        000000000000000000
F0010000007733600004000090034602400023658300000000000000000201510080002001PRODUCTOS NACIONALES PARAFINICOS LA CUSTODIA S.A.SC000000000152000000000000000000000100010010000000000000000000000F0010000007733600420151008000101 00000000000000000000000000000000000000000000000000000000000000000000000000000000000000000000000000000000000000000N 00000000000NCONT   00    00000000000          00000000000000000000000000000000000000000000 000000000000000A000000000000000000000000000000000000000000000 000000000000000000000000000000000000000     00000000                                                                                                                        000000000000000000
F0010000007733600005000090034602400013552100000000000000000201510080002001PRODUCTOS NACIONALES PARAFINICOS LA CUSTODIA S.A.SD000000000152000000000000000000000100010010000000000000000000000F0010000007733600520151008000101 00000000000000000000000000000000000000000000000000000000000000000000000000000000000000000000000000000000000000000N 00000000000NCONT   00    00000000000          00000000000000000000000000000000000000000000 000000000000000A000000000000000000000000000000000000000000000 000000000000000000000000000000000000000     00000000                                                                                                                        000000000000000000
F0010000007733700001000090034602400011050500000000000000000201510080002001PRODUCTOS NACIONALES PARAFINICOS LA CUSTODIA S.A.SD000000001000000000000000000000000100010010000000000000000000000F0010000007733700120151008000101 00000000000000000000000000000000000000000000000000000000000000000000000000000000000000000000000000000000000000000N 00000000000NCONT   00    00000000000          00000000000000000000000000000000000000000000 000000000000000A000000000000000000000000000000000000000000000 000000000000000000000000000000000000000     00000000                                                                                                                        000000000000000000
F0010000007733700002000090034602400041450500000000000000000201510080002001PRODUCTOS NACIONALES PARAFINICOS LA CUSTODIA S.A.SC000000000900000000000000000000000100010010000000000000000000000F0010000007733700220151008000101 00000000000000000000000000000000000000000000000000000000000000000000000000000000000000000000000000000000000000000N 00000000000NCONT   00    00000000000          00000000000000000000000000000000000000000000 000000000000000A000000000000000000000000000000000000000000000 000000000000000000000000000000000000000     00000000                                                                                                                        000000000000000000
F0010000007733700003000090034602400042505000000000000000000201510080002001PRODUCTOS NACIONALES PARAFINICOS LA CUSTODIA S.A.SC000000000100000000000000000000000100010010000000000000000000000F0010000007733700320151008000101 00000000000000000000000000000000000000000000000000000000000000000000000000000000000000000000000000000000000000000N 00000000000NCONT   00    00000000000          00000000000000000000000000000000000000000000 000000000000000A000000000000000000000000000000000000000000000 000000000000000000000000000000000000000     00000000                                                                                                                        000000000000000000
F0010000007733700004000090034602400023658300000000000000000201510080002001PRODUCTOS NACIONALES PARAFINICOS LA CUSTODIA S.A.SC000000000007200000000000000000000100010010000000000000000000000F0010000007733700420151008000101 00000000000000000000000000000000000000000000000000000000000000000000000000000000000000000000000000000000000000000N 00000000000NCONT   00    00000000000          00000000000000000000000000000000000000000000 000000000000000A000000000000000000000000000000000000000000000 000000000000000000000000000000000000000     00000000                                                                                                                        000000000000000000
F0010000007733700005000090034602400013552100000000000000000201510080002001PRODUCTOS NACIONALES PARAFINICOS LA CUSTODIA S.A.SD000000000007200000000000000000000100010010000000000000000000000F0010000007733700520151008000101 00000000000000000000000000000000000000000000000000000000000000000000000000000000000000000000000000000000000000000N 00000000000NCONT   00    00000000000          00000000000000000000000000000000000000000000 000000000000000A000000000000000000000000000000000000000000000 000000000000000000000000000000000000000     00000000                                                                                                                        000000000000000000
F0010000007733800001000002250073800011050500000000000000000201510080002001NELCSY  ZAYAS SIERRA                              D000000007000000000000000000000000100010010000000000000000000000F0010000007733800120151008000101 00000000000000000000000000000000000000000000000000000000000000000000000000000000000000000000000000000000000000000N 00000000000NCONT   00    00000000000          00000000000000000000000000000000000000000000 000000000000000A000000000000000000000000000000000000000000000 000000000000000000000000000000000000000     00000000                                                                                                                        000000000000000000
F0010000007733800002000002250073800041450500000000000000000201510080002001NELCSY  ZAYAS SIERRA                              C000000006900000000000000000000000100010010000000000000000000000F0010000007733800220151008000101 00000000000000000000000000000000000000000000000000000000000000000000000000000000000000000000000000000000000000000N 00000000000NCONT   00    00000000000          00000000000000000000000000000000000000000000 000000000000000A000000000000000000000000000000000000000000000 000000000000000000000000000000000000000     00000000                                                                                                                        000000000000000000
F0010000007733800003000002250073800042505000000000000000000201510080002001NELCSY  ZAYAS SIERRA                              C000000000100000000000000000000000100010010000000000000000000000F0010000007733800320151008000101 00000000000000000000000000000000000000000000000000000000000000000000000000000000000000000000000000000000000000000N 00000000000NCONT   00    00000000000          00000000000000000000000000000000000000000000 000000000000000A000000000000000000000000000000000000000000000 000000000000000000000000000000000000000     00000000                                                                                                                        000000000000000000
F0010000007733800004000002250073800023658300000000000000000201510080002001NELCSY  ZAYAS SIERRA                              C000000000055200000000000000000000100010010000000000000000000000F0010000007733800420151008000101 00000000000000000000000000000000000000000000000000000000000000000000000000000000000000000000000000000000000000000N 00000000000NCONT   00    00000000000          00000000000000000000000000000000000000000000 000000000000000A000000000000000000000000000000000000000000000 000000000000000000000000000000000000000     00000000                                                                                                                        000000000000000000
F0010000007733800005000002250073800013552100000000000000000201510080002001NELCSY  ZAYAS SIERRA                              D000000000055200000000000000000000100010010000000000000000000000F0010000007733800520151008000101 00000000000000000000000000000000000000000000000000000000000000000000000000000000000000000000000000000000000000000N 00000000000NCONT   00    00000000000          00000000000000000000000000000000000000000000 000000000000000A000000000000000000000000000000000000000000000 000000000000000000000000000000000000000     00000000                                                                                                                        000000000000000000
F0010000007733900001000083007900600011050500000000000000000201510080002001EXPRESO ANDINO DE CARGA SA                        D000000009100000000000000000000000100010010000000000000000000000F0010000007733900120151008000101 00000000000000000000000000000000000000000000000000000000000000000000000000000000000000000000000000000000000000000N 00000000000NCONT   00    00000000000          00000000000000000000000000000000000000000000 000000000000000A000000000000000000000000000000000000000000000 000000000000000000000000000000000000000     00000000                                                                                                                        000000000000000000
F0010000007733900002000083007900600041450500000000000000000201510080002001EXPRESO ANDINO DE CARGA SA                        C000000009000000000000000000000000100010010000000000000000000000F0010000007733900220151008000101 00000000000000000000000000000000000000000000000000000000000000000000000000000000000000000000000000000000000000000N 00000000000NCONT   00    00000000000          00000000000000000000000000000000000000000000 000000000000000A000000000000000000000000000000000000000000000 000000000000000000000000000000000000000     00000000                                                                                                                        000000000000000000
F0010000007733900003000083007900600042505000000000000000000201510080002001EXPRESO ANDINO DE CARGA SA                        C000000000100000000000000000000000100010010000000000000000000000F0010000007733900320151008000101 00000000000000000000000000000000000000000000000000000000000000000000000000000000000000000000000000000000000000000N 00000000000NCONT   00    00000000000          00000000000000000000000000000000000000000000 000000000000000A000000000000000000000000000000000000000000000 000000000000000000000000000000000000000     00000000                                                                                                                        000000000000000000
F0010000007733900004000083007900600023658300000000000000000201510080002001EXPRESO ANDINO DE CARGA SA                        C000000000072000000000000000000000100010010000000000000000000000F0010000007733900420151008000101 00000000000000000000000000000000000000000000000000000000000000000000000000000000000000000000000000000000000000000N 00000000000NCONT   00    00000000000          00000000000000000000000000000000000000000000 000000000000000A000000000000000000000000000000000000000000000 000000000000000000000000000000000000000     00000000                                                                                                                        000000000000000000
F0010000007733900005000083007900600013552100000000000000000201510080002001EXPRESO ANDINO DE CARGA SA                        D000000000072000000000000000000000100010010000000000000000000000F0010000007733900520151008000101 00000000000000000000000000000000000000000000000000000000000000000000000000000000000000000000000000000000000000000N 00000000000NCONT   00    00000000000          00000000000000000000000000000000000000000000 000000000000000A000000000000000000000000000000000000000000000 000000000000000000000000000000000000000     00000000                                                                                                                        000000000000000000
F0010000007734000001000002245670100011050500000000000000000201510080002001YOLANDA  TOBON                                    D000000005600000000000000000000000100010010000000000000000000000F0010000007734000120151008000101 00000000000000000000000000000000000000000000000000000000000000000000000000000000000000000000000000000000000000000N 00000000000NCONT   00    00000000000          00000000000000000000000000000000000000000000 000000000000000A000000000000000000000000000000000000000000000 000000000000000000000000000000000000000     00000000                                                                                                                        000000000000000000
F0010000007734000002000002245670100041450500000000000000000201510080002001YOLANDA  TOBON                                    C000000004000000000000000000000000100010010000000000000000000000F0010000007734000220151008000101 00000000000000000000000000000000000000000000000000000000000000000000000000000000000000000000000000000000000000000N 00000000000NCONT   00    00000000000          00000000000000000000000000000000000000000000 000000000000000A000000000000000000000000000000000000000000000 000000000000000000000000000000000000000     00000000                                                                                                                        000000000000000000
F0010000007734000003000002245670100042505000000000000000000201510080002001YOLANDA  TOBON                                    C000000001600000000000000000000000100010010000000000000000000000F0010000007734000320151008000101 00000000000000000000000000000000000000000000000000000000000000000000000000000000000000000000000000000000000000000N 00000000000NCONT   00    00000000000          00000000000000000000000000000000000000000000 000000000000000A000000000000000000000000000000000000000000000 000000000000000000000000000000000000000     00000000                                                                                                                        000000000000000000
F0010000007734000004000002245670100023658300000000000000000201510080002001YOLANDA  TOBON                                    C000000000032000000000000000000000100010010000000000000000000000F0010000007734000420151008000101 00000000000000000000000000000000000000000000000000000000000000000000000000000000000000000000000000000000000000000N 00000000000NCONT   00    00000000000          00000000000000000000000000000000000000000000 000000000000000A000000000000000000000000000000000000000000000 000000000000000000000000000000000000000     00000000                                                                                                                        000000000000000000
F0010000007734000005000002245670100013552100000000000000000201510080002001YOLANDA  TOBON                                    D000000000032000000000000000000000100010010000000000000000000000F0010000007734000520151008000101 00000000000000000000000000000000000000000000000000000000000000000000000000000000000000000000000000000000000000000N 00000000000NCONT   00    00000000000          00000000000000000000000000000000000000000000 000000000000000A000000000000000000000000000000000000000000000 000000000000000000000000000000000000000     00000000                                                                                                                        000000000000000000
F0010000007734100001000002245670100011050500000000000000000201510080002001YOLANDA  TOBON                                    D000000014700000000000000000000000100010010000000000000000000000F0010000007734100120151008000101 00000000000000000000000000000000000000000000000000000000000000000000000000000000000000000000000000000000000000000N 00000000000NCONT   00    00000000000          00000000000000000000000000000000000000000000 000000000000000A000000000000000000000000000000000000000000000 000000000000000000000000000000000000000     00000000                                                                                                                        000000000000000000
F0010000007734100002000002245670100041450500000000000000000201510080002001YOLANDA  TOBON                                    C000000011300000000000000000000000100010010000000000000000000000F0010000007734100220151008000101 00000000000000000000000000000000000000000000000000000000000000000000000000000000000000000000000000000000000000000N 00000000000NCONT   00    00000000000          00000000000000000000000000000000000000000000 000000000000000A000000000000000000000000000000000000000000000 000000000000000000000000000000000000000     00000000                                                                                                                        000000000000000000
F0010000007734100003000002245670100042505000000000000000000201510080002001YOLANDA  TOBON                                    C000000003400000000000000000000000100010010000000000000000000000F0010000007734100320151008000101 00000000000000000000000000000000000000000000000000000000000000000000000000000000000000000000000000000000000000000N 00000000000NCONT   00    00000000000          00000000000000000000000000000000000000000000 000000000000000A000000000000000000000000000000000000000000000 000000000000000000000000000000000000000     00000000                                                                                                                        000000000000000000
F0010000007734100004000002245670100023658300000000000000000201510080002001YOLANDA  TOBON                                    C000000000090400000000000000000000100010010000000000000000000000F0010000007734100420151008000101 00000000000000000000000000000000000000000000000000000000000000000000000000000000000000000000000000000000000000000N 00000000000NCONT   00    00000000000          00000000000000000000000000000000000000000000 000000000000000A000000000000000000000000000000000000000000000 000000000000000000000000000000000000000     00000000                                                                                                                        000000000000000000
F0010000007734100005000002245670100013552100000000000000000201510080002001YOLANDA  TOBON                                    D000000000090400000000000000000000100010010000000000000000000000F0010000007734100520151008000101 00000000000000000000000000000000000000000000000000000000000000000000000000000000000000000000000000000000000000000N 00000000000NCONT   00    00000000000          00000000000000000000000000000000000000000000 000000000000000A000000000000000000000000000000000000000000000 000000000000000000000000000000000000000     00000000                                                                                                                        000000000000000000
F0010000007734200001000000870907300011050500000000000000000201510080002001SURTIDOR FERRETERO                                D000000004100000000000000000000000100010010000000000000000000000F0010000007734200120151008000101 00000000000000000000000000000000000000000000000000000000000000000000000000000000000000000000000000000000000000000N 00000000000NCONT   00    00000000000          00000000000000000000000000000000000000000000 000000000000000A000000000000000000000000000000000000000000000 000000000000000000000000000000000000000     00000000                                                                                                                        000000000000000000
F0010000007734200002000000870907300041450500000000000000000201510080002001SURTIDOR FERRETERO                                C000000003200000000000000000000000100010010000000000000000000000F0010000007734200220151008000101 00000000000000000000000000000000000000000000000000000000000000000000000000000000000000000000000000000000000000000N 00000000000NCONT   00    00000000000          00000000000000000000000000000000000000000000 000000000000000A000000000000000000000000000000000000000000000 000000000000000000000000000000000000000     00000000                                                                                                                        000000000000000000
F0010000007734200003000000870907300042505000000000000000000201510080002001SURTIDOR FERRETERO                                C000000000900000000000000000000000100010010000000000000000000000F0010000007734200320151008000101 00000000000000000000000000000000000000000000000000000000000000000000000000000000000000000000000000000000000000000N 00000000000NCONT   00    00000000000          00000000000000000000000000000000000000000000 000000000000000A000000000000000000000000000000000000000000000 000000000000000000000000000000000000000     00000000                                                                                                                        000000000000000000
F0010000007734200004000000870907300023658300000000000000000201510080002001SURTIDOR FERRETERO                                C000000000025600000000000000000000100010010000000000000000000000F0010000007734200420151008000101 00000000000000000000000000000000000000000000000000000000000000000000000000000000000000000000000000000000000000000N 00000000000NCONT   00    00000000000          00000000000000000000000000000000000000000000 000000000000000A000000000000000000000000000000000000000000000 000000000000000000000000000000000000000     00000000                                                                                                                        000000000000000000
F0010000007734200005000000870907300013552100000000000000000201510080002001SURTIDOR FERRETERO                                D000000000025600000000000000000000100010010000000000000000000000F0010000007734200520151008000101 00000000000000000000000000000000000000000000000000000000000000000000000000000000000000000000000000000000000000000N 00000000000NCONT   00    00000000000          00000000000000000000000000000000000000000000 000000000000000A000000000000000000000000000000000000000000000 000000000000000000000000000000000000000     00000000                                                                                                                        000000000000000000
F0010000007734300001000001022529300011050500000000000000000201510080002001ALBERTO ALVAREZ ISAZA                             D000000000820000000000000000000000100010010000000000000000000000F0010000007734300120151008000101 00000000000000000000000000000000000000000000000000000000000000000000000000000000000000000000000000000000000000000N 00000000000NCONT   00    00000000000          00000000000000000000000000000000000000000000 000000000000000A000000000000000000000000000000000000000000000 000000000000000000000000000000000000000     00000000                                                                                                                        000000000000000000
F0010000007734300002000001022529300041450500000000000000000201510080002001ALBERTO ALVAREZ ISAZA                             C000000000820000000000000000000000100010010000000000000000000000F0010000007734300220151008000101 00000000000000000000000000000000000000000000000000000000000000000000000000000000000000000000000000000000000000000N 00000000000NCONT   00    00000000000          00000000000000000000000000000000000000000000 000000000000000A000000000000000000000000000000000000000000000 000000000000000000000000000000000000000     00000000                                                                                                                        000000000000000000
F0010000007734300003000001022529300042505000000000000000000201510080002001ALBERTO ALVAREZ ISAZA                             C000000000000000000000000000000000100010010000000000000000000000F0010000007734300320151008000101 00000000000000000000000000000000000000000000000000000000000000000000000000000000000000000000000000000000000000000N 00000000000NCONT   00    00000000000          00000000000000000000000000000000000000000000 000000000000000A000000000000000000000000000000000000000000000 000000000000000000000000000000000000000     00000000                                                                                                                        000000000000000000
F0010000007734300004000001022529300023658300000000000000000201510080002001ALBERTO ALVAREZ ISAZA                             C000000000006600000000000000000000100010010000000000000000000000F0010000007734300420151008000101 00000000000000000000000000000000000000000000000000000000000000000000000000000000000000000000000000000000000000000N 00000000000NCONT   00    00000000000          00000000000000000000000000000000000000000000 000000000000000A000000000000000000000000000000000000000000000 000000000000000000000000000000000000000     00000000                                                                                                                        000000000000000000
F0010000007734300005000001022529300013552100000000000000000201510080002001ALBERTO ALVAREZ ISAZA                             D000000000006600000000000000000000100010010000000000000000000000F0010000007734300520151008000101 00000000000000000000000000000000000000000000000000000000000000000000000000000000000000000000000000000000000000000N 00000000000NCONT   00    00000000000          00000000000000000000000000000000000000000000 000000000000000A000000000000000000000000000000000000000000000 000000000000000000000000000000000000000     00000000                                                                                                                        000000000000000000
F0010000007734400001000004175790100011050500000000000000000201510080002001ROSIRIS FERIA HOYOS  (COSM. SHILLER)              D000000001000000000000000000000000100010010000000000000000000000F0010000007734400120151008000101 00000000000000000000000000000000000000000000000000000000000000000000000000000000000000000000000000000000000000000N 00000000000NCONT   00    00000000000          00000000000000000000000000000000000000000000 000000000000000A000000000000000000000000000000000000000000000 000000000000000000000000000000000000000     00000000                                                                                                                        000000000000000000
F0010000007734400002000004175790100041450500000000000000000201510080002001ROSIRIS FERIA HOYOS  (COSM. SHILLER)              C000000000900000000000000000000000100010010000000000000000000000F0010000007734400220151008000101 00000000000000000000000000000000000000000000000000000000000000000000000000000000000000000000000000000000000000000N 00000000000NCONT   00    00000000000          00000000000000000000000000000000000000000000 000000000000000A000000000000000000000000000000000000000000000 000000000000000000000000000000000000000     00000000                                                                                                                        000000000000000000
F0010000007734400003000004175790100042505000000000000000000201510080002001ROSIRIS FERIA HOYOS  (COSM. SHILLER)              C000000000100000000000000000000000100010010000000000000000000000F0010000007734400320151008000101 00000000000000000000000000000000000000000000000000000000000000000000000000000000000000000000000000000000000000000N 00000000000NCONT   00    00000000000          00000000000000000000000000000000000000000000 000000000000000A000000000000000000000000000000000000000000000 000000000000000000000000000000000000000     00000000                                                                                                                        000000000000000000
F0010000007734400004000004175790100023658300000000000000000201510080002001ROSIRIS FERIA HOYOS  (COSM. SHILLER)              C000000000007200000000000000000000100010010000000000000000000000F0010000007734400420151008000101 00000000000000000000000000000000000000000000000000000000000000000000000000000000000000000000000000000000000000000N 00000000000NCONT   00    00000000000          00000000000000000000000000000000000000000000 000000000000000A000000000000000000000000000000000000000000000 000000000000000000000000000000000000000     00000000                                                                                                                        000000000000000000
F0010000007734400005000004175790100013552100000000000000000201510080002001ROSIRIS FERIA HOYOS  (COSM. SHILLER)              D000000000007200000000000000000000100010010000000000000000000000F0010000007734400520151008000101 00000000000000000000000000000000000000000000000000000000000000000000000000000000000000000000000000000000000000000N 00000000000NCONT   00    00000000000          00000000000000000000000000000000000000000000 000000000000000A000000000000000000000000000000000000000000000 000000000000000000000000000000000000000     00000000                                                                                                                        000000000000000000
F0010000007734500001000002245670100011050500000000000000000201510080002001YOLANDA  TOBON                                    D000000000960000000000000000000000100010010000000000000000000000F0010000007734500120151008000101 00000000000000000000000000000000000000000000000000000000000000000000000000000000000000000000000000000000000000000N 00000000000NCONT   00    00000000000          00000000000000000000000000000000000000000000 000000000000000A000000000000000000000000000000000000000000000 000000000000000000000000000000000000000     00000000                                                                                                                        000000000000000000
F0010000007734500002000002245670100041450500000000000000000201510080002001YOLANDA  TOBON                                    C000000000700000000000000000000000100010010000000000000000000000F0010000007734500220151008000101 00000000000000000000000000000000000000000000000000000000000000000000000000000000000000000000000000000000000000000N 00000000000NCONT   00    00000000000          00000000000000000000000000000000000000000000 000000000000000A000000000000000000000000000000000000000000000 000000000000000000000000000000000000000     00000000                                                                                                                        000000000000000000
F0010000007734500003000002245670100042505000000000000000000201510080002001YOLANDA  TOBON                                    C000000000260000000000000000000000100010010000000000000000000000F0010000007734500320151008000101 00000000000000000000000000000000000000000000000000000000000000000000000000000000000000000000000000000000000000000N 00000000000NCONT   00    00000000000          00000000000000000000000000000000000000000000 000000000000000A000000000000000000000000000000000000000000000 000000000000000000000000000000000000000     00000000                                                                                                                        000000000000000000
F0010000007734500004000002245670100023658300000000000000000201510080002001YOLANDA  TOBON                                    C000000000005600000000000000000000100010010000000000000000000000F0010000007734500420151008000101 00000000000000000000000000000000000000000000000000000000000000000000000000000000000000000000000000000000000000000N 00000000000NCONT   00    00000000000          00000000000000000000000000000000000000000000 000000000000000A000000000000000000000000000000000000000000000 000000000000000000000000000000000000000     00000000                                                                                                                        000000000000000000
F0010000007734500005000002245670100013552100000000000000000201510080002001YOLANDA  TOBON                                    D000000000005600000000000000000000100010010000000000000000000000F0010000007734500520151008000101 00000000000000000000000000000000000000000000000000000000000000000000000000000000000000000000000000000000000000000N 00000000000NCONT   00    00000000000          00000000000000000000000000000000000000000000 000000000000000A000000000000000000000000000000000000000000000 000000000000000000000000000000000000000     00000000                                                                                                                        000000000000000000
F0010000007734600001000090050144800011050500000000000000000201510080002001PLASTICOS JR ASOCIADOS SAS                        D000000003000000000000000000000000100010010000000000000000000000F0010000007734600120151008000101 00000000000000000000000000000000000000000000000000000000000000000000000000000000000000000000000000000000000000000N 00000000000NCONT   00    00000000000          00000000000000000000000000000000000000000000 000000000000000A000000000000000000000000000000000000000000000 000000000000000000000000000000000000000     00000000                                                                                                                        000000000000000000
F0010000007734600002000090050144800041450500000000000000000201510080002001PLASTICOS JR ASOCIADOS SAS                        C000000002600000000000000000000000100010010000000000000000000000F0010000007734600220151008000101 00000000000000000000000000000000000000000000000000000000000000000000000000000000000000000000000000000000000000000N 00000000000NCONT   00    00000000000          00000000000000000000000000000000000000000000 000000000000000A000000000000000000000000000000000000000000000 000000000000000000000000000000000000000     00000000                                                                                                                        000000000000000000
F0010000007734600003000090050144800042505000000000000000000201510080002001PLASTICOS JR ASOCIADOS SAS                        C000000000400000000000000000000000100010010000000000000000000000F0010000007734600320151008000101 00000000000000000000000000000000000000000000000000000000000000000000000000000000000000000000000000000000000000000N 00000000000NCONT   00    00000000000          00000000000000000000000000000000000000000000 000000000000000A000000000000000000000000000000000000000000000 000000000000000000000000000000000000000     00000000                                                                                                                        000000000000000000
F0010000007734600004000090050144800023658300000000000000000201510080002001PLASTICOS JR ASOCIADOS SAS                        C000000000020800000000000000000000100010010000000000000000000000F0010000007734600420151008000101 00000000000000000000000000000000000000000000000000000000000000000000000000000000000000000000000000000000000000000N 00000000000NCONT   00    00000000000          00000000000000000000000000000000000000000000 000000000000000A000000000000000000000000000000000000000000000 000000000000000000000000000000000000000     00000000                                                                                                                        000000000000000000
F0010000007734600005000090050144800013552100000000000000000201510080002001PLASTICOS JR ASOCIADOS SAS                        D000000000020800000000000000000000100010010000000000000000000000F0010000007734600520151008000101 00000000000000000000000000000000000000000000000000000000000000000000000000000000000000000000000000000000000000000N 00000000000NCONT   00    00000000000          00000000000000000000000000000000000000000000 000000000000000A000000000000000000000000000000000000000000000 000000000000000000000000000000000000000     00000000                                                                                                                        000000000000000000
F0010000007734700001000000872671800011050500000000000000000201510080002001RUBEN ARENAS PARRA                                D000000005000000000000000000000000100010010000000000000000000000F0010000007734700120151008000101 00000000000000000000000000000000000000000000000000000000000000000000000000000000000000000000000000000000000000000N 00000000000NCONT   00    00000000000          00000000000000000000000000000000000000000000 000000000000000A000000000000000000000000000000000000000000000 000000000000000000000000000000000000000     00000000                                                                                                                        000000000000000000
F0010000007734700002000000872671800041450500000000000000000201510080002001RUBEN ARENAS PARRA                                C000000003600000000000000000000000100010010000000000000000000000F0010000007734700220151008000101 00000000000000000000000000000000000000000000000000000000000000000000000000000000000000000000000000000000000000000N 00000000000NCONT   00    00000000000          00000000000000000000000000000000000000000000 000000000000000A000000000000000000000000000000000000000000000 000000000000000000000000000000000000000     00000000                                                                                                                        000000000000000000
F0010000007734700003000000872671800042505000000000000000000201510080002001RUBEN ARENAS PARRA                                C000000001400000000000000000000000100010010000000000000000000000F0010000007734700320151008000101 00000000000000000000000000000000000000000000000000000000000000000000000000000000000000000000000000000000000000000N 00000000000NCONT   00    00000000000          00000000000000000000000000000000000000000000 000000000000000A000000000000000000000000000000000000000000000 000000000000000000000000000000000000000     00000000                                                                                                                        000000000000000000
F0010000007734700004000000872671800023658300000000000000000201510080002001RUBEN ARENAS PARRA                                C000000000028800000000000000000000100010010000000000000000000000F0010000007734700420151008000101 00000000000000000000000000000000000000000000000000000000000000000000000000000000000000000000000000000000000000000N 00000000000NCONT   00    00000000000          00000000000000000000000000000000000000000000 000000000000000A000000000000000000000000000000000000000000000 000000000000000000000000000000000000000     00000000                                                                                                                        000000000000000000
F0010000007734700005000000872671800013552100000000000000000201510080002001RUBEN ARENAS PARRA                                D000000000028800000000000000000000100010010000000000000000000000F0010000007734700520151008000101 00000000000000000000000000000000000000000000000000000000000000000000000000000000000000000000000000000000000000000N 00000000000NCONT   00    00000000000          00000000000000000000000000000000000000000000 000000000000000A000000000000000000000000000000000000000000000 000000000000000000000000000000000000000     00000000                                                                                                                        000000000000000000
F0010000007734800001000090050144800011050500000000000000000201510080002001PLASTICOS JR ASOCIADOS SAS                        D000000000900000000000000000000000100010010000000000000000000000F0010000007734800120151008000101 00000000000000000000000000000000000000000000000000000000000000000000000000000000000000000000000000000000000000000N 00000000000NCONT   00    00000000000          00000000000000000000000000000000000000000000 000000000000000A000000000000000000000000000000000000000000000 000000000000000000000000000000000000000     00000000                                                                                                                        000000000000000000
F0010000007734800002000090050144800041450500000000000000000201510080002001PLASTICOS JR ASOCIADOS SAS                        C000000000850000000000000000000000100010010000000000000000000000F0010000007734800220151008000101 00000000000000000000000000000000000000000000000000000000000000000000000000000000000000000000000000000000000000000N 00000000000NCONT   00    00000000000          00000000000000000000000000000000000000000000 000000000000000A000000000000000000000000000000000000000000000 000000000000000000000000000000000000000     00000000                                                                                                                        000000000000000000
F0010000007734800003000090050144800042505000000000000000000201510080002001PLASTICOS JR ASOCIADOS SAS                        C000000000050000000000000000000000100010010000000000000000000000F0010000007734800320151008000101 00000000000000000000000000000000000000000000000000000000000000000000000000000000000000000000000000000000000000000N 00000000000NCONT   00    00000000000          00000000000000000000000000000000000000000000 000000000000000A000000000000000000000000000000000000000000000 000000000000000000000000000000000000000     00000000                                                                                                                        000000000000000000
F0010000007734800004000090050144800023658300000000000000000201510080002001PLASTICOS JR ASOCIADOS SAS                        C000000000006800000000000000000000100010010000000000000000000000F0010000007734800420151008000101 00000000000000000000000000000000000000000000000000000000000000000000000000000000000000000000000000000000000000000N 00000000000NCONT   00    00000000000          00000000000000000000000000000000000000000000 000000000000000A000000000000000000000000000000000000000000000 000000000000000000000000000000000000000     00000000                                                                                                                        000000000000000000
F0010000007734800005000090050144800013552100000000000000000201510080002001PLASTICOS JR ASOCIADOS SAS                        D000000000006800000000000000000000100010010000000000000000000000F0010000007734800520151008000101 00000000000000000000000000000000000000000000000000000000000000000000000000000000000000000000000000000000000000000N 00000000000NCONT   00    00000000000          00000000000000000000000000000000000000000000 000000000000000A000000000000000000000000000000000000000000000 000000000000000000000000000000000000000     00000000                                                                                                                        000000000000000000
F0010000007734900001000000431178400011050500000000000000000201510080002001EFRAIN ALVAREZ                                    D000000001925000000000000000000000100010010000000000000000000000F0010000007734900120151008000101 00000000000000000000000000000000000000000000000000000000000000000000000000000000000000000000000000000000000000000N 00000000000NCONT   00    00000000000          00000000000000000000000000000000000000000000 000000000000000A000000000000000000000000000000000000000000000 000000000000000000000000000000000000000     00000000                                                                                                                        000000000000000000
F0010000007734900002000000431178400041450500000000000000000201510080002001EFRAIN ALVAREZ                                    C000000001800000000000000000000000100010010000000000000000000000F0010000007734900220151008000101 00000000000000000000000000000000000000000000000000000000000000000000000000000000000000000000000000000000000000000N 00000000000NCONT   00    00000000000          00000000000000000000000000000000000000000000 000000000000000A000000000000000000000000000000000000000000000 000000000000000000000000000000000000000     00000000                                                                                                                        000000000000000000
F0010000007734900003000000431178400042505000000000000000000201510080002001EFRAIN ALVAREZ                                    C000000000125000000000000000000000100010010000000000000000000000F0010000007734900320151008000101 00000000000000000000000000000000000000000000000000000000000000000000000000000000000000000000000000000000000000000N 00000000000NCONT   00    00000000000          00000000000000000000000000000000000000000000 000000000000000A000000000000000000000000000000000000000000000 000000000000000000000000000000000000000     00000000                                                                                                                        000000000000000000
F0010000007734900004000000431178400023658300000000000000000201510080002001EFRAIN ALVAREZ                                    C000000000014400000000000000000000100010010000000000000000000000F0010000007734900420151008000101 00000000000000000000000000000000000000000000000000000000000000000000000000000000000000000000000000000000000000000N 00000000000NCONT   00    00000000000          00000000000000000000000000000000000000000000 000000000000000A000000000000000000000000000000000000000000000 000000000000000000000000000000000000000     00000000                                                                                                                        000000000000000000
F0010000007734900005000000431178400013552100000000000000000201510080002001EFRAIN ALVAREZ                                    D000000000014400000000000000000000100010010000000000000000000000F0010000007734900520151008000101 00000000000000000000000000000000000000000000000000000000000000000000000000000000000000000000000000000000000000000N 00000000000NCONT   00    00000000000          00000000000000000000000000000000000000000000 000000000000000A000000000000000000000000000000000000000000000 000000000000000000000000000000000000000     00000000                                                                                                                        000000000000000000
F0010000007735000001000000431178400011050500000000000000000201510080002001EFRAIN ALVAREZ                                    D000000003800000000000000000000000100010010000000000000000000000F0010000007735000120151008000101 00000000000000000000000000000000000000000000000000000000000000000000000000000000000000000000000000000000000000000N 00000000000NCONT   00    00000000000          00000000000000000000000000000000000000000000 000000000000000A000000000000000000000000000000000000000000000 000000000000000000000000000000000000000     00000000                                                                                                                        000000000000000000
F0010000007735000002000000431178400041450500000000000000000201510080002001EFRAIN ALVAREZ                                    C000000003600000000000000000000000100010010000000000000000000000F0010000007735000220151008000101 00000000000000000000000000000000000000000000000000000000000000000000000000000000000000000000000000000000000000000N 00000000000NCONT   00    00000000000          00000000000000000000000000000000000000000000 000000000000000A000000000000000000000000000000000000000000000 000000000000000000000000000000000000000     00000000                                                                                                                        000000000000000000
F0010000007735000003000000431178400042505000000000000000000201510080002001EFRAIN ALVAREZ                                    C000000000200000000000000000000000100010010000000000000000000000F0010000007735000320151008000101 00000000000000000000000000000000000000000000000000000000000000000000000000000000000000000000000000000000000000000N 00000000000NCONT   00    00000000000          00000000000000000000000000000000000000000000 000000000000000A000000000000000000000000000000000000000000000 000000000000000000000000000000000000000     00000000                                                                                                                        000000000000000000
F0010000007735000004000000431178400023658300000000000000000201510080002001EFRAIN ALVAREZ                                    C000000000028800000000000000000000100010010000000000000000000000F0010000007735000420151008000101 00000000000000000000000000000000000000000000000000000000000000000000000000000000000000000000000000000000000000000N 00000000000NCONT   00    00000000000          00000000000000000000000000000000000000000000 000000000000000A000000000000000000000000000000000000000000000 000000000000000000000000000000000000000     00000000                                                                                                                        000000000000000000
F0010000007735000005000000431178400013552100000000000000000201510080002001EFRAIN ALVAREZ                                    D000000000028800000000000000000000100010010000000000000000000000F0010000007735000520151008000101 00000000000000000000000000000000000000000000000000000000000000000000000000000000000000000000000000000000000000000N 00000000000NCONT   00    00000000000          00000000000000000000000000000000000000000000 000000000000000A000000000000000000000000000000000000000000000 000000000000000000000000000000000000000     00000000                                                                                                                        000000000000000000
F0010000007735100001000000431178400011050500000000000000000201510080002001EFRAIN ALVAREZ                                    D000000001950000000000000000000000100010010000000000000000000000F0010000007735100120151008000101 00000000000000000000000000000000000000000000000000000000000000000000000000000000000000000000000000000000000000000N 00000000000NCONT   00    00000000000          00000000000000000000000000000000000000000000 000000000000000A000000000000000000000000000000000000000000000 000000000000000000000000000000000000000     00000000                                                                                                                        000000000000000000
F0010000007735100002000000431178400041450500000000000000000201510080002001EFRAIN ALVAREZ                                    C000000001800000000000000000000000100010010000000000000000000000F0010000007735100220151008000101 00000000000000000000000000000000000000000000000000000000000000000000000000000000000000000000000000000000000000000N 00000000000NCONT   00    00000000000          00000000000000000000000000000000000000000000 000000000000000A000000000000000000000000000000000000000000000 000000000000000000000000000000000000000     00000000                                                                                                                        000000000000000000
F0010000007735100003000000431178400042505000000000000000000201510080002001EFRAIN ALVAREZ                                    C000000000150000000000000000000000100010010000000000000000000000F0010000007735100320151008000101 00000000000000000000000000000000000000000000000000000000000000000000000000000000000000000000000000000000000000000N 00000000000NCONT   00    00000000000          00000000000000000000000000000000000000000000 000000000000000A000000000000000000000000000000000000000000000 000000000000000000000000000000000000000     00000000                                                                                                                        000000000000000000
F0010000007735100004000000431178400023658300000000000000000201510080002001EFRAIN ALVAREZ                                    C000000000014400000000000000000000100010010000000000000000000000F0010000007735100420151008000101 00000000000000000000000000000000000000000000000000000000000000000000000000000000000000000000000000000000000000000N 00000000000NCONT   00    00000000000          00000000000000000000000000000000000000000000 000000000000000A000000000000000000000000000000000000000000000 000000000000000000000000000000000000000     00000000                                                                                                                        000000000000000000
F0010000007735100005000000431178400013552100000000000000000201510080002001EFRAIN ALVAREZ                                    D000000000014400000000000000000000100010010000000000000000000000F0010000007735100520151008000101 00000000000000000000000000000000000000000000000000000000000000000000000000000000000000000000000000000000000000000N 00000000000NCONT   00    00000000000          00000000000000000000000000000000000000000000 000000000000000A000000000000000000000000000000000000000000000 000000000000000000000000000000000000000     00000000                                                                                                                        000000000000000000
F0010000007735200001000000431178400011050500000000000000000201510080002001EFRAIN ALVAREZ                                    D000000001365000000000000000000000100010010000000000000000000000F0010000007735200120151008000101 00000000000000000000000000000000000000000000000000000000000000000000000000000000000000000000000000000000000000000N 00000000000NCONT   00    00000000000          00000000000000000000000000000000000000000000 000000000000000A000000000000000000000000000000000000000000000 000000000000000000000000000000000000000     00000000                                                                                                                        000000000000000000
F0010000007735200002000000431178400041450500000000000000000201510080002001EFRAIN ALVAREZ                                    C000000001190000000000000000000000100010010000000000000000000000F0010000007735200220151008000101 00000000000000000000000000000000000000000000000000000000000000000000000000000000000000000000000000000000000000000N 00000000000NCONT   00    00000000000          00000000000000000000000000000000000000000000 000000000000000A000000000000000000000000000000000000000000000 000000000000000000000000000000000000000     00000000                                                                                                                        000000000000000000
F0010000007735200003000000431178400042505000000000000000000201510080002001EFRAIN ALVAREZ                                    C000000000175000000000000000000000100010010000000000000000000000F0010000007735200320151008000101 00000000000000000000000000000000000000000000000000000000000000000000000000000000000000000000000000000000000000000N 00000000000NCONT   00    00000000000          00000000000000000000000000000000000000000000 000000000000000A000000000000000000000000000000000000000000000 000000000000000000000000000000000000000     00000000                                                                                                                        000000000000000000
F0010000007735200004000000431178400023658300000000000000000201510080002001EFRAIN ALVAREZ                                    C000000000009500000000000000000000100010010000000000000000000000F0010000007735200420151008000101 00000000000000000000000000000000000000000000000000000000000000000000000000000000000000000000000000000000000000000N 00000000000NCONT   00    00000000000          00000000000000000000000000000000000000000000 000000000000000A000000000000000000000000000000000000000000000 000000000000000000000000000000000000000     00000000                                                                                                                        000000000000000000
F0010000007735200005000000431178400013552100000000000000000201510080002001EFRAIN ALVAREZ                                    D000000000009500000000000000000000100010010000000000000000000000F0010000007735200520151008000101 00000000000000000000000000000000000000000000000000000000000000000000000000000000000000000000000000000000000000000N 00000000000NCONT   00    00000000000          00000000000000000000000000000000000000000000 000000000000000A000000000000000000000000000000000000000000000 000000000000000000000000000000000000000     00000000                                                                                                                        000000000000000000
F0010000007735300001000000431178400011050500000000000000000201510080002001EFRAIN ALVAREZ                                    D000000007700000000000000000000000100010010000000000000000000000F0010000007735300120151008000101 00000000000000000000000000000000000000000000000000000000000000000000000000000000000000000000000000000000000000000N 00000000000NCONT   00    00000000000          00000000000000000000000000000000000000000000 000000000000000A000000000000000000000000000000000000000000000 000000000000000000000000000000000000000     00000000                                                                                                                        000000000000000000
F0010000007735300002000000431178400041450500000000000000000201510080002001EFRAIN ALVAREZ                                    C000000007200000000000000000000000100010010000000000000000000000F0010000007735300220151008000101 00000000000000000000000000000000000000000000000000000000000000000000000000000000000000000000000000000000000000000N 00000000000NCONT   00    00000000000          00000000000000000000000000000000000000000000 000000000000000A000000000000000000000000000000000000000000000 000000000000000000000000000000000000000     00000000                                                                                                                        000000000000000000
F0010000007735300003000000431178400042505000000000000000000201510080002001EFRAIN ALVAREZ                                    C000000000500000000000000000000000100010010000000000000000000000F0010000007735300320151008000101 00000000000000000000000000000000000000000000000000000000000000000000000000000000000000000000000000000000000000000N 00000000000NCONT   00    00000000000          00000000000000000000000000000000000000000000 000000000000000A000000000000000000000000000000000000000000000 000000000000000000000000000000000000000     00000000                                                                                                                        000000000000000000
F0010000007735300004000000431178400023658300000000000000000201510080002001EFRAIN ALVAREZ                                    C000000000057600000000000000000000100010010000000000000000000000F0010000007735300420151008000101 00000000000000000000000000000000000000000000000000000000000000000000000000000000000000000000000000000000000000000N 00000000000NCONT   00    00000000000          00000000000000000000000000000000000000000000 000000000000000A000000000000000000000000000000000000000000000 000000000000000000000000000000000000000     00000000                                                                                                                        000000000000000000
F0010000007735300005000000431178400013552100000000000000000201510080002001EFRAIN ALVAREZ                                    D000000000057600000000000000000000100010010000000000000000000000F0010000007735300520151008000101 00000000000000000000000000000000000000000000000000000000000000000000000000000000000000000000000000000000000000000N 00000000000NCONT   00    00000000000          00000000000000000000000000000000000000000000 000000000000000A000000000000000000000000000000000000000000000 000000000000000000000000000000000000000     00000000                                                                                                                        000000000000000000
F0010000007735400001000001022529300011050500000000000000000201510080002001ALBERTO ALVAREZ ISAZA                             D000000000350000000000000000000000100010010000000000000000000000F0010000007735400120151008000101 00000000000000000000000000000000000000000000000000000000000000000000000000000000000000000000000000000000000000000N 00000000000NCONT   00    00000000000          00000000000000000000000000000000000000000000 000000000000000A000000000000000000000000000000000000000000000 000000000000000000000000000000000000000     00000000                                                                                                                        000000000000000000
F0010000007735400002000001022529300041450500000000000000000201510080002001ALBERTO ALVAREZ ISAZA                             C000000000350000000000000000000000100010010000000000000000000000F0010000007735400220151008000101 00000000000000000000000000000000000000000000000000000000000000000000000000000000000000000000000000000000000000000N 00000000000NCONT   00    00000000000          00000000000000000000000000000000000000000000 000000000000000A000000000000000000000000000000000000000000000 000000000000000000000000000000000000000     00000000                                                                                                                        000000000000000000
F0010000007735400003000001022529300042505000000000000000000201510080002001ALBERTO ALVAREZ ISAZA                             C000000000000000000000000000000000100010010000000000000000000000F0010000007735400320151008000101 00000000000000000000000000000000000000000000000000000000000000000000000000000000000000000000000000000000000000000N 00000000000NCONT   00    00000000000          00000000000000000000000000000000000000000000 000000000000000A000000000000000000000000000000000000000000000 000000000000000000000000000000000000000     00000000                                                                                                                        000000000000000000
F0010000007735400004000001022529300023658300000000000000000201510080002001ALBERTO ALVAREZ ISAZA                             C000000000002800000000000000000000100010010000000000000000000000F0010000007735400420151008000101 00000000000000000000000000000000000000000000000000000000000000000000000000000000000000000000000000000000000000000N 00000000000NCONT   00    00000000000          00000000000000000000000000000000000000000000 000000000000000A000000000000000000000000000000000000000000000 000000000000000000000000000000000000000     00000000                                                                                                                        000000000000000000
F0010000007735400005000001022529300013552100000000000000000201510080002001ALBERTO ALVAREZ ISAZA                             D000000000002800000000000000000000100010010000000000000000000000F0010000007735400520151008000101 00000000000000000000000000000000000000000000000000000000000000000000000000000000000000000000000000000000000000000N 00000000000NCONT   00    00000000000          00000000000000000000000000000000000000000000 000000000000000A000000000000000000000000000000000000000000000 000000000000000000000000000000000000000     00000000                                                                                                                        000000000000000000
F0010000007735500001000001022529300011050500000000000000000201510080002001ALBERTO ALVAREZ ISAZA                             D000000001640000000000000000000000100010010000000000000000000000F0010000007735500120151008000101 00000000000000000000000000000000000000000000000000000000000000000000000000000000000000000000000000000000000000000N 00000000000NCONT   00    00000000000          00000000000000000000000000000000000000000000 000000000000000A000000000000000000000000000000000000000000000 000000000000000000000000000000000000000     00000000                                                                                                                        000000000000000000
F0010000007735500002000001022529300041450500000000000000000201510080002001ALBERTO ALVAREZ ISAZA                             C000000001640000000000000000000000100010010000000000000000000000F0010000007735500220151008000101 00000000000000000000000000000000000000000000000000000000000000000000000000000000000000000000000000000000000000000N 00000000000NCONT   00    00000000000          00000000000000000000000000000000000000000000 000000000000000A000000000000000000000000000000000000000000000 000000000000000000000000000000000000000     00000000                                                                                                                        000000000000000000
F0010000007735500003000001022529300042505000000000000000000201510080002001ALBERTO ALVAREZ ISAZA                             C000000000000000000000000000000000100010010000000000000000000000F0010000007735500320151008000101 00000000000000000000000000000000000000000000000000000000000000000000000000000000000000000000000000000000000000000N 00000000000NCONT   00    00000000000          00000000000000000000000000000000000000000000 000000000000000A000000000000000000000000000000000000000000000 000000000000000000000000000000000000000     00000000                                                                                                                        000000000000000000
F0010000007735500004000001022529300023658300000000000000000201510080002001ALBERTO ALVAREZ ISAZA                             C000000000013100000000000000000000100010010000000000000000000000F0010000007735500420151008000101 00000000000000000000000000000000000000000000000000000000000000000000000000000000000000000000000000000000000000000N 00000000000NCONT   00    00000000000          00000000000000000000000000000000000000000000 000000000000000A000000000000000000000000000000000000000000000 000000000000000000000000000000000000000     00000000                                                                                                                        000000000000000000
F0010000007735500005000001022529300013552100000000000000000201510080002001ALBERTO ALVAREZ ISAZA                             D000000000013100000000000000000000100010010000000000000000000000F0010000007735500520151008000101 00000000000000000000000000000000000000000000000000000000000000000000000000000000000000000000000000000000000000000N 00000000000NCONT   00    00000000000          00000000000000000000000000000000000000000000 000000000000000A000000000000000000000000000000000000000000000 000000000000000000000000000000000000000     00000000                                                                                                                        000000000000000000
F0010000007735600001000004175790100011050500000000000000000201510080002001ROSIRIS FERIA HOYOS  (COSM. SHILLER)              D000000001600000000000000000000000100010010000000000000000000000F0010000007735600120151008000101 00000000000000000000000000000000000000000000000000000000000000000000000000000000000000000000000000000000000000000N 00000000000NCONT   00    00000000000          00000000000000000000000000000000000000000000 000000000000000A000000000000000000000000000000000000000000000 000000000000000000000000000000000000000     00000000                                                                                                                        000000000000000000
F0010000007735600002000004175790100041450500000000000000000201510080002001ROSIRIS FERIA HOYOS  (COSM. SHILLER)              C000000001500000000000000000000000100010010000000000000000000000F0010000007735600220151008000101 00000000000000000000000000000000000000000000000000000000000000000000000000000000000000000000000000000000000000000N 00000000000NCONT   00    00000000000          00000000000000000000000000000000000000000000 000000000000000A000000000000000000000000000000000000000000000 000000000000000000000000000000000000000     00000000                                                                                                                        000000000000000000
F0010000007735600003000004175790100042505000000000000000000201510080002001ROSIRIS FERIA HOYOS  (COSM. SHILLER)              C000000000100000000000000000000000100010010000000000000000000000F0010000007735600320151008000101 00000000000000000000000000000000000000000000000000000000000000000000000000000000000000000000000000000000000000000N 00000000000NCONT   00    00000000000          00000000000000000000000000000000000000000000 000000000000000A000000000000000000000000000000000000000000000 000000000000000000000000000000000000000     00000000                                                                                                                        000000000000000000
F0010000007735600004000004175790100023658300000000000000000201510080002001ROSIRIS FERIA HOYOS  (COSM. SHILLER)              C000000000012000000000000000000000100010010000000000000000000000F0010000007735600420151008000101 00000000000000000000000000000000000000000000000000000000000000000000000000000000000000000000000000000000000000000N 00000000000NCONT   00    00000000000          00000000000000000000000000000000000000000000 000000000000000A000000000000000000000000000000000000000000000 000000000000000000000000000000000000000     00000000                                                                                                                        000000000000000000
F0010000007735600005000004175790100013552100000000000000000201510080002001ROSIRIS FERIA HOYOS  (COSM. SHILLER)              D000000000012000000000000000000000100010010000000000000000000000F0010000007735600520151008000101 00000000000000000000000000000000000000000000000000000000000000000000000000000000000000000000000000000000000000000N 00000000000NCONT   00    00000000000          00000000000000000000000000000000000000000000 000000000000000A000000000000000000000000000000000000000000000 000000000000000000000000000000000000000     00000000                                                                                                                        000000000000000000
F0010000007735700001000000870907300011050500000000000000000201510080002001SURTIDOR FERRETERO                                D000000003000000000000000000000000100010010000000000000000000000F0010000007735700120151008000101 00000000000000000000000000000000000000000000000000000000000000000000000000000000000000000000000000000000000000000N 00000000000NCONT   00    00000000000          00000000000000000000000000000000000000000000 000000000000000A000000000000000000000000000000000000000000000 000000000000000000000000000000000000000     00000000                                                                                                                        000000000000000000
F0010000007735700002000000870907300041450500000000000000000201510080002001SURTIDOR FERRETERO                                C000000001600000000000000000000000100010010000000000000000000000F0010000007735700220151008000101 00000000000000000000000000000000000000000000000000000000000000000000000000000000000000000000000000000000000000000N 00000000000NCONT   00    00000000000          00000000000000000000000000000000000000000000 000000000000000A000000000000000000000000000000000000000000000 000000000000000000000000000000000000000     00000000                                                                                                                        000000000000000000
F0010000007735700003000000870907300042505000000000000000000201510080002001SURTIDOR FERRETERO                                C000000001400000000000000000000000100010010000000000000000000000F0010000007735700320151008000101 00000000000000000000000000000000000000000000000000000000000000000000000000000000000000000000000000000000000000000N 00000000000NCONT   00    00000000000          00000000000000000000000000000000000000000000 000000000000000A000000000000000000000000000000000000000000000 000000000000000000000000000000000000000     00000000                                                                                                                        000000000000000000
F0010000007735700004000000870907300023658300000000000000000201510080002001SURTIDOR FERRETERO                                C000000000012800000000000000000000100010010000000000000000000000F0010000007735700420151008000101 00000000000000000000000000000000000000000000000000000000000000000000000000000000000000000000000000000000000000000N 00000000000NCONT   00    00000000000          00000000000000000000000000000000000000000000 000000000000000A000000000000000000000000000000000000000000000 000000000000000000000000000000000000000     00000000                                                                                                                        000000000000000000
F0010000007735700005000000870907300013552100000000000000000201510080002001SURTIDOR FERRETERO                                D000000000012800000000000000000000100010010000000000000000000000F0010000007735700520151008000101 00000000000000000000000000000000000000000000000000000000000000000000000000000000000000000000000000000000000000000N 00000000000NCONT   00    00000000000          00000000000000000000000000000000000000000000 000000000000000A000000000000000000000000000000000000000000000 000000000000000000000000000000000000000     00000000                                                                                                                        000000000000000000
F0010000007735800001000003319910700011050500000000000000000201510080002001LUZ DARY JIMENEZ MARTINEZ                         D000000001100000000000000000000000100010010000000000000000000000F0010000007735800120151008000101 00000000000000000000000000000000000000000000000000000000000000000000000000000000000000000000000000000000000000000N 00000000000NCONT   00    00000000000          00000000000000000000000000000000000000000000 000000000000000A000000000000000000000000000000000000000000000 000000000000000000000000000000000000000     00000000                                                                                                                        000000000000000000
F0010000007735800002000003319910700041450500000000000000000201510080002001LUZ DARY JIMENEZ MARTINEZ                         C000000001000000000000000000000000100010010000000000000000000000F0010000007735800220151008000101 00000000000000000000000000000000000000000000000000000000000000000000000000000000000000000000000000000000000000000N 00000000000NCONT   00    00000000000          00000000000000000000000000000000000000000000 000000000000000A000000000000000000000000000000000000000000000 000000000000000000000000000000000000000     00000000                                                                                                                        000000000000000000
F0010000007735800003000003319910700042505000000000000000000201510080002001LUZ DARY JIMENEZ MARTINEZ                         C000000000100000000000000000000000100010010000000000000000000000F0010000007735800320151008000101 00000000000000000000000000000000000000000000000000000000000000000000000000000000000000000000000000000000000000000N 00000000000NCONT   00    00000000000          00000000000000000000000000000000000000000000 000000000000000A000000000000000000000000000000000000000000000 000000000000000000000000000000000000000     00000000                                                                                                                        000000000000000000
F0010000007735800004000003319910700023658300000000000000000201510080002001LUZ DARY JIMENEZ MARTINEZ                         C000000000008000000000000000000000100010010000000000000000000000F0010000007735800420151008000101 00000000000000000000000000000000000000000000000000000000000000000000000000000000000000000000000000000000000000000N 00000000000NCONT   00    00000000000          00000000000000000000000000000000000000000000 000000000000000A000000000000000000000000000000000000000000000 000000000000000000000000000000000000000     00000000                                                                                                                        000000000000000000
F0010000007735800005000003319910700013552100000000000000000201510080002001LUZ DARY JIMENEZ MARTINEZ                         D000000000008000000000000000000000100010010000000000000000000000F0010000007735800520151008000101 00000000000000000000000000000000000000000000000000000000000000000000000000000000000000000000000000000000000000000N 00000000000NCONT   00    00000000000          00000000000000000000000000000000000000000000 000000000000000A000000000000000000000000000000000000000000000 000000000000000000000000000000000000000     00000000                                                                                                                        000000000000000000
