F0010000010330800001000089031248700013050500000000000000000201709120002001DISTRIBUIDORA CALIPLASTICOS LTDA                  D000000066651600000000000000000000100010010000000000000000000000F0010000010330800120170912000101 00000000000000000000000000000000000000000000000000000000000000000000000000000000000000000000000000000000000000000N 00000000000NCONT   00    00000000000          00000000000000000000000000000000000000000000 000000000000000A000000000000000000000000000000000000000000000 000000000000000000000000000000000000000     00000000                                                                                                                        000000000000000000
F0010000010330800002000089031248700041450500000000000000000201709120002001DISTRIBUIDORA CALIPLASTICOS LTDA                  C000000063196600000000000000000000100010010000000000000000000000F0010000010330800220170912000101 00000000000000000000000000000000000000000000000000000000000000000000000000000000000000000000000000000000000000000N 00000000000NCONT   00    00000000000          00000000000000000000000000000000000000000000 000000000000000A000000000000000000000000000000000000000000000 000000000000000000000000000000000000000     00000000                                                                                                                        000000000000000000
F0010000010330800003000089031248700042505000000000000000000201709120002001DISTRIBUIDORA CALIPLASTICOS LTDA                  C000000003455000000000000000000000100010010000000000000000000000F0010000010330800320170912000101 00000000000000000000000000000000000000000000000000000000000000000000000000000000000000000000000000000000000000000N 00000000000NCONT   00    00000000000          00000000000000000000000000000000000000000000 000000000000000A000000000000000000000000000000000000000000000 000000000000000000000000000000000000000     00000000                                                                                                                        000000000000000000
F0010000010330800004000089031248700023658300000000000000000201709120002001DISTRIBUIDORA CALIPLASTICOS LTDA                  C000000000000000000000000000000000100010010000000000000000000000F0010000010330800420170912000101 00000000000000000000000000000000000000000000000000000000000000000000000000000000000000000000000000000000000000000N 00000000000NCONT   00    00000000000          00000000000000000000000000000000000000000000 000000000000000A000000000000000000000000000000000000000000000 000000000000000000000000000000000000000     00000000                                                                                                                        000000000000000000
F0010000010330800005000089031248700013552100000000000000000201709120002001DISTRIBUIDORA CALIPLASTICOS LTDA                  D000000000000000000000000000000000100010010000000000000000000000F0010000010330800520170912000101 00000000000000000000000000000000000000000000000000000000000000000000000000000000000000000000000000000000000000000N 00000000000NCONT   00    00000000000          00000000000000000000000000000000000000000000 000000000000000A000000000000000000000000000000000000000000000 000000000000000000000000000000000000000     00000000                                                                                                                        000000000000000000
F0010000010330900001000090036646700013050500000000000000000201709120002001FERREPROYECTOS S.A.S                              D000000011100000000000000000000000100010010000000000000000000000F0010000010330900120170912000101 00000000000000000000000000000000000000000000000000000000000000000000000000000000000000000000000000000000000000000N 00000000000NCONT   00    00000000000          00000000000000000000000000000000000000000000 000000000000000A000000000000000000000000000000000000000000000 000000000000000000000000000000000000000     00000000                                                                                                                        000000000000000000
F0010000010330900002000090036646700041450500000000000000000201709120002001FERREPROYECTOS S.A.S                              C000000010500000000000000000000000100010010000000000000000000000F0010000010330900220170912000101 00000000000000000000000000000000000000000000000000000000000000000000000000000000000000000000000000000000000000000N 00000000000NCONT   00    00000000000          00000000000000000000000000000000000000000000 000000000000000A000000000000000000000000000000000000000000000 000000000000000000000000000000000000000     00000000                                                                                                                        000000000000000000
F0010000010330900003000090036646700042505000000000000000000201709120002001FERREPROYECTOS S.A.S                              C000000000600000000000000000000000100010010000000000000000000000F0010000010330900320170912000101 00000000000000000000000000000000000000000000000000000000000000000000000000000000000000000000000000000000000000000N 00000000000NCONT   00    00000000000          00000000000000000000000000000000000000000000 000000000000000A000000000000000000000000000000000000000000000 000000000000000000000000000000000000000     00000000                                                                                                                        000000000000000000
F0010000010330900004000090036646700023658300000000000000000201709120002001FERREPROYECTOS S.A.S                              C000000000000000000000000000000000100010010000000000000000000000F0010000010330900420170912000101 00000000000000000000000000000000000000000000000000000000000000000000000000000000000000000000000000000000000000000N 00000000000NCONT   00    00000000000          00000000000000000000000000000000000000000000 000000000000000A000000000000000000000000000000000000000000000 000000000000000000000000000000000000000     00000000                                                                                                                        000000000000000000
F0010000010330900005000090036646700013552100000000000000000201709120002001FERREPROYECTOS S.A.S                              D000000000000000000000000000000000100010010000000000000000000000F0010000010330900520170912000101 00000000000000000000000000000000000000000000000000000000000000000000000000000000000000000000000000000000000000000N 00000000000NCONT   00    00000000000          00000000000000000000000000000000000000000000 000000000000000A000000000000000000000000000000000000000000000 000000000000000000000000000000000000000     00000000                                                                                                                        000000000000000000
F0010000010331000001000080202132300013050500000000000000000201709120002001SUM Y SERV DE LA COSTA LTDA                       D000000013890000000000000000000000100010010000000000000000000000F0010000010331000120170912000101 00000000000000000000000000000000000000000000000000000000000000000000000000000000000000000000000000000000000000000N 00000000000NCONT   00    00000000000          00000000000000000000000000000000000000000000 000000000000000A000000000000000000000000000000000000000000000 000000000000000000000000000000000000000     00000000                                                                                                                        000000000000000000
F0010000010331000002000080202132300041450500000000000000000201709120002001SUM Y SERV DE LA COSTA LTDA                       C000000012200000000000000000000000100010010000000000000000000000F0010000010331000220170912000101 00000000000000000000000000000000000000000000000000000000000000000000000000000000000000000000000000000000000000000N 00000000000NCONT   00    00000000000          00000000000000000000000000000000000000000000 000000000000000A000000000000000000000000000000000000000000000 000000000000000000000000000000000000000     00000000                                                                                                                        000000000000000000
F0010000010331000003000080202132300042505000000000000000000201709120002001SUM Y SERV DE LA COSTA LTDA                       C000000001690000000000000000000000100010010000000000000000000000F0010000010331000320170912000101 00000000000000000000000000000000000000000000000000000000000000000000000000000000000000000000000000000000000000000N 00000000000NCONT   00    00000000000          00000000000000000000000000000000000000000000 000000000000000A000000000000000000000000000000000000000000000 000000000000000000000000000000000000000     00000000                                                                                                                        000000000000000000
F0010000010331000004000080202132300023658300000000000000000201709120002001SUM Y SERV DE LA COSTA LTDA                       C000000000000000000000000000000000100010010000000000000000000000F0010000010331000420170912000101 00000000000000000000000000000000000000000000000000000000000000000000000000000000000000000000000000000000000000000N 00000000000NCONT   00    00000000000          00000000000000000000000000000000000000000000 000000000000000A000000000000000000000000000000000000000000000 000000000000000000000000000000000000000     00000000                                                                                                                        000000000000000000
F0010000010331000005000080202132300013552100000000000000000201709120002001SUM Y SERV DE LA COSTA LTDA                       D000000000000000000000000000000000100010010000000000000000000000F0010000010331000520170912000101 00000000000000000000000000000000000000000000000000000000000000000000000000000000000000000000000000000000000000000N 00000000000NCONT   00    00000000000          00000000000000000000000000000000000000000000 000000000000000A000000000000000000000000000000000000000000000 000000000000000000000000000000000000000     00000000                                                                                                                        000000000000000000
F0010000010331100001000089011078600013050500000000000000000201709120002001DIST. NUEVO MUNDO S.A.S.                          D000000013650700000000000000000000100010010000000000000000000000F0010000010331100120170912000101 00000000000000000000000000000000000000000000000000000000000000000000000000000000000000000000000000000000000000000N 00000000000NCONT   00    00000000000          00000000000000000000000000000000000000000000 000000000000000A000000000000000000000000000000000000000000000 000000000000000000000000000000000000000     00000000                                                                                                                        000000000000000000
F0010000010331100002000089011078600041450500000000000000000201709120002001DIST. NUEVO MUNDO S.A.S.                          C000000012720000000000000000000000100010010000000000000000000000F0010000010331100220170912000101 00000000000000000000000000000000000000000000000000000000000000000000000000000000000000000000000000000000000000000N 00000000000NCONT   00    00000000000          00000000000000000000000000000000000000000000 000000000000000A000000000000000000000000000000000000000000000 000000000000000000000000000000000000000     00000000                                                                                                                        000000000000000000
F0010000010331100003000089011078600042505000000000000000000201709120002001DIST. NUEVO MUNDO S.A.S.                          C000000000930700000000000000000000100010010000000000000000000000F0010000010331100320170912000101 00000000000000000000000000000000000000000000000000000000000000000000000000000000000000000000000000000000000000000N 00000000000NCONT   00    00000000000          00000000000000000000000000000000000000000000 000000000000000A000000000000000000000000000000000000000000000 000000000000000000000000000000000000000     00000000                                                                                                                        000000000000000000
F0010000010331100004000089011078600023658300000000000000000201709120002001DIST. NUEVO MUNDO S.A.S.                          C000000000000000000000000000000000100010010000000000000000000000F0010000010331100420170912000101 00000000000000000000000000000000000000000000000000000000000000000000000000000000000000000000000000000000000000000N 00000000000NCONT   00    00000000000          00000000000000000000000000000000000000000000 000000000000000A000000000000000000000000000000000000000000000 000000000000000000000000000000000000000     00000000                                                                                                                        000000000000000000
F0010000010331100005000089011078600013552100000000000000000201709120002001DIST. NUEVO MUNDO S.A.S.                          D000000000000000000000000000000000100010010000000000000000000000F0010000010331100520170912000101 00000000000000000000000000000000000000000000000000000000000000000000000000000000000000000000000000000000000000000N 00000000000NCONT   00    00000000000          00000000000000000000000000000000000000000000 000000000000000A000000000000000000000000000000000000000000000 000000000000000000000000000000000000000     00000000                                                                                                                        000000000000000000
F0010000010331200001000080001063400013050500000000000000000201709120002001PRODUCTOS JULIAO SAS                              D000000018766600000000000000000000100010010000000000000000000000F0010000010331200120170912000101 00000000000000000000000000000000000000000000000000000000000000000000000000000000000000000000000000000000000000000N 00000000000NCONT   00    00000000000          00000000000000000000000000000000000000000000 000000000000000A000000000000000000000000000000000000000000000 000000000000000000000000000000000000000     00000000                                                                                                                        000000000000000000
F0010000010331200002000080001063400041450500000000000000000201709120002001PRODUCTOS JULIAO SAS                              C000000017090000000000000000000000100010010000000000000000000000F0010000010331200220170912000101 00000000000000000000000000000000000000000000000000000000000000000000000000000000000000000000000000000000000000000N 00000000000NCONT   00    00000000000          00000000000000000000000000000000000000000000 000000000000000A000000000000000000000000000000000000000000000 000000000000000000000000000000000000000     00000000                                                                                                                        000000000000000000
F0010000010331200003000080001063400042505000000000000000000201709120002001PRODUCTOS JULIAO SAS                              C000000001676600000000000000000000100010010000000000000000000000F0010000010331200320170912000101 00000000000000000000000000000000000000000000000000000000000000000000000000000000000000000000000000000000000000000N 00000000000NCONT   00    00000000000          00000000000000000000000000000000000000000000 000000000000000A000000000000000000000000000000000000000000000 000000000000000000000000000000000000000     00000000                                                                                                                        000000000000000000
F0010000010331200004000080001063400023658300000000000000000201709120002001PRODUCTOS JULIAO SAS                              C000000000000000000000000000000000100010010000000000000000000000F0010000010331200420170912000101 00000000000000000000000000000000000000000000000000000000000000000000000000000000000000000000000000000000000000000N 00000000000NCONT   00    00000000000          00000000000000000000000000000000000000000000 000000000000000A000000000000000000000000000000000000000000000 000000000000000000000000000000000000000     00000000                                                                                                                        000000000000000000
F0010000010331200005000080001063400013552100000000000000000201709120002001PRODUCTOS JULIAO SAS                              D000000000000000000000000000000000100010010000000000000000000000F0010000010331200520170912000101 00000000000000000000000000000000000000000000000000000000000000000000000000000000000000000000000000000000000000000N 00000000000NCONT   00    00000000000          00000000000000000000000000000000000000000000 000000000000000A000000000000000000000000000000000000000000000 000000000000000000000000000000000000000     00000000                                                                                                                        000000000000000000
F0010000010331300001000090087846000013050500000000000000000201709120002001INTERCOMERCIAL SAS                                D000000024400000000000000000000000100010010000000000000000000000F0010000010331300120170912000101 00000000000000000000000000000000000000000000000000000000000000000000000000000000000000000000000000000000000000000N 00000000000NCONT   00    00000000000          00000000000000000000000000000000000000000000 000000000000000A000000000000000000000000000000000000000000000 000000000000000000000000000000000000000     00000000                                                                                                                        000000000000000000
F0010000010331300002000090087846000041450500000000000000000201709120002001INTERCOMERCIAL SAS                                C000000023800000000000000000000000100010010000000000000000000000F0010000010331300220170912000101 00000000000000000000000000000000000000000000000000000000000000000000000000000000000000000000000000000000000000000N 00000000000NCONT   00    00000000000          00000000000000000000000000000000000000000000 000000000000000A000000000000000000000000000000000000000000000 000000000000000000000000000000000000000     00000000                                                                                                                        000000000000000000
F0010000010331300003000090087846000042505000000000000000000201709120002001INTERCOMERCIAL SAS                                C000000000600000000000000000000000100010010000000000000000000000F0010000010331300320170912000101 00000000000000000000000000000000000000000000000000000000000000000000000000000000000000000000000000000000000000000N 00000000000NCONT   00    00000000000          00000000000000000000000000000000000000000000 000000000000000A000000000000000000000000000000000000000000000 000000000000000000000000000000000000000     00000000                                                                                                                        000000000000000000
F0010000010331300004000090087846000023658300000000000000000201709120002001INTERCOMERCIAL SAS                                C000000000000000000000000000000000100010010000000000000000000000F0010000010331300420170912000101 00000000000000000000000000000000000000000000000000000000000000000000000000000000000000000000000000000000000000000N 00000000000NCONT   00    00000000000          00000000000000000000000000000000000000000000 000000000000000A000000000000000000000000000000000000000000000 000000000000000000000000000000000000000     00000000                                                                                                                        000000000000000000
F0010000010331300005000090087846000013552100000000000000000201709120002001INTERCOMERCIAL SAS                                D000000000000000000000000000000000100010010000000000000000000000F0010000010331300520170912000101 00000000000000000000000000000000000000000000000000000000000000000000000000000000000000000000000000000000000000000N 00000000000NCONT   00    00000000000          00000000000000000000000000000000000000000000 000000000000000A000000000000000000000000000000000000000000000 000000000000000000000000000000000000000     00000000                                                                                                                        000000000000000000
F0010000010331400001000000870907300013050500000000000000000201709120002001SURTIDOR FERRETERO                                D000000016469000000000000000000000100010010000000000000000000000F0010000010331400120170912000101 00000000000000000000000000000000000000000000000000000000000000000000000000000000000000000000000000000000000000000N 00000000000NCONT   00    00000000000          00000000000000000000000000000000000000000000 000000000000000A000000000000000000000000000000000000000000000 000000000000000000000000000000000000000     00000000                                                                                                                        000000000000000000
F0010000010331400002000000870907300041450500000000000000000201709120002001SURTIDOR FERRETERO                                C000000013210000000000000000000000100010010000000000000000000000F0010000010331400220170912000101 00000000000000000000000000000000000000000000000000000000000000000000000000000000000000000000000000000000000000000N 00000000000NCONT   00    00000000000          00000000000000000000000000000000000000000000 000000000000000A000000000000000000000000000000000000000000000 000000000000000000000000000000000000000     00000000                                                                                                                        000000000000000000
F0010000010331400003000000870907300041750100000000000000000201709120002001SURTIDOR FERRETERO                                D000000001321000000000000000000000100010010000000000000000000000F0010000010331400320170912000101 00000000000000000000000000000000000000000000000000000000000000000000000000000000000000000000000000000000000000000N 00000000000NCONT   00    00000000000          00000000000000000000000000000000000000000000 000000000000000A000000000000000000000000000000000000000000000 000000000000000000000000000000000000000     00000000                                                                                                                        000000000000000000
F0010000010331400004000000870907300042505000000000000000000201709120002001SURTIDOR FERRETERO                                C000000004580000000000000000000000100010010000000000000000000000F0010000010331400420170912000101 00000000000000000000000000000000000000000000000000000000000000000000000000000000000000000000000000000000000000000N 00000000000NCONT   00    00000000000          00000000000000000000000000000000000000000000 000000000000000A000000000000000000000000000000000000000000000 000000000000000000000000000000000000000     00000000                                                                                                                        000000000000000000
F0010000010331400005000000870907300023658300000000000000000201709120002001SURTIDOR FERRETERO                                C000000000000000000000000000000000100010010000000000000000000000F0010000010331400520170912000101 00000000000000000000000000000000000000000000000000000000000000000000000000000000000000000000000000000000000000000N 00000000000NCONT   00    00000000000          00000000000000000000000000000000000000000000 000000000000000A000000000000000000000000000000000000000000000 000000000000000000000000000000000000000     00000000                                                                                                                        000000000000000000
F0010000010331400006000000870907300013552100000000000000000201709120002001SURTIDOR FERRETERO                                D000000000000000000000000000000000100010010000000000000000000000F0010000010331400620170912000101 00000000000000000000000000000000000000000000000000000000000000000000000000000000000000000000000000000000000000000N 00000000000NCONT   00    00000000000          00000000000000000000000000000000000000000000 000000000000000A000000000000000000000000000000000000000000000 000000000000000000000000000000000000000     00000000                                                                                                                        000000000000000000
F0010000010331500001000090000859400013050500000000000000000201709120002001COMERCIAL JOTACE LTDA                             D000000034220600000000000000000000100010010000000000000000000000F0010000010331500120170912000101 00000000000000000000000000000000000000000000000000000000000000000000000000000000000000000000000000000000000000000N 00000000000NCONT   00    00000000000          00000000000000000000000000000000000000000000 000000000000000A000000000000000000000000000000000000000000000 000000000000000000000000000000000000000     00000000                                                                                                                        000000000000000000
F0010000010331500002000090000859400041450500000000000000000201709120002001COMERCIAL JOTACE LTDA                             C000000032750000000000000000000000100010010000000000000000000000F0010000010331500220170912000101 00000000000000000000000000000000000000000000000000000000000000000000000000000000000000000000000000000000000000000N 00000000000NCONT   00    00000000000          00000000000000000000000000000000000000000000 000000000000000A000000000000000000000000000000000000000000000 000000000000000000000000000000000000000     00000000                                                                                                                        000000000000000000
F0010000010331500003000090000859400042505000000000000000000201709120002001COMERCIAL JOTACE LTDA                             C000000001470600000000000000000000100010010000000000000000000000F0010000010331500320170912000101 00000000000000000000000000000000000000000000000000000000000000000000000000000000000000000000000000000000000000000N 00000000000NCONT   00    00000000000          00000000000000000000000000000000000000000000 000000000000000A000000000000000000000000000000000000000000000 000000000000000000000000000000000000000     00000000                                                                                                                        000000000000000000
F0010000010331500004000090000859400023658300000000000000000201709120002001COMERCIAL JOTACE LTDA                             C000000000000000000000000000000000100010010000000000000000000000F0010000010331500420170912000101 00000000000000000000000000000000000000000000000000000000000000000000000000000000000000000000000000000000000000000N 00000000000NCONT   00    00000000000          00000000000000000000000000000000000000000000 000000000000000A000000000000000000000000000000000000000000000 000000000000000000000000000000000000000     00000000                                                                                                                        000000000000000000
F0010000010331500005000090000859400013552100000000000000000201709120002001COMERCIAL JOTACE LTDA                             D000000000000000000000000000000000100010010000000000000000000000F0010000010331500520170912000101 00000000000000000000000000000000000000000000000000000000000000000000000000000000000000000000000000000000000000000N 00000000000NCONT   00    00000000000          00000000000000000000000000000000000000000000 000000000000000A000000000000000000000000000000000000000000000 000000000000000000000000000000000000000     00000000                                                                                                                        000000000000000000
F0010000010331600001000089010952800013050500000000000000000201709120002001IND. LITOGRAF. BOSTON S.A.S.                      D000000043430000000000000000000000100010010000000000000000000000F0010000010331600120170912000101 00000000000000000000000000000000000000000000000000000000000000000000000000000000000000000000000000000000000000000N 00000000000NCONT   00    00000000000          00000000000000000000000000000000000000000000 000000000000000A000000000000000000000000000000000000000000000 000000000000000000000000000000000000000     00000000                                                                                                                        000000000000000000
F0010000010331600002000089010952800041450500000000000000000201709120002001IND. LITOGRAF. BOSTON S.A.S.                      C000000038430000000000000000000000100010010000000000000000000000F0010000010331600220170912000101 00000000000000000000000000000000000000000000000000000000000000000000000000000000000000000000000000000000000000000N 00000000000NCONT   00    00000000000          00000000000000000000000000000000000000000000 000000000000000A000000000000000000000000000000000000000000000 000000000000000000000000000000000000000     00000000                                                                                                                        000000000000000000
F0010000010331600003000089010952800042505000000000000000000201709120002001IND. LITOGRAF. BOSTON S.A.S.                      C000000005000000000000000000000000100010010000000000000000000000F0010000010331600320170912000101 00000000000000000000000000000000000000000000000000000000000000000000000000000000000000000000000000000000000000000N 00000000000NCONT   00    00000000000          00000000000000000000000000000000000000000000 000000000000000A000000000000000000000000000000000000000000000 000000000000000000000000000000000000000     00000000                                                                                                                        000000000000000000
F0010000010331600004000089010952800023658300000000000000000201709120002001IND. LITOGRAF. BOSTON S.A.S.                      C000000000000000000000000000000000100010010000000000000000000000F0010000010331600420170912000101 00000000000000000000000000000000000000000000000000000000000000000000000000000000000000000000000000000000000000000N 00000000000NCONT   00    00000000000          00000000000000000000000000000000000000000000 000000000000000A000000000000000000000000000000000000000000000 000000000000000000000000000000000000000     00000000                                                                                                                        000000000000000000
F0010000010331600005000089010952800013552100000000000000000201709120002001IND. LITOGRAF. BOSTON S.A.S.                      D000000000000000000000000000000000100010010000000000000000000000F0010000010331600520170912000101 00000000000000000000000000000000000000000000000000000000000000000000000000000000000000000000000000000000000000000N 00000000000NCONT   00    00000000000          00000000000000000000000000000000000000000000 000000000000000A000000000000000000000000000000000000000000000 000000000000000000000000000000000000000     00000000                                                                                                                        000000000000000000
F0010000010331700001000090106344000013050500000000000000000201709120002001REPRESENTACIONES FERRELECTRICAS SAS (EDDIE CIRO)  D000000089579600000000000000000000100010010000000000000000000000F0010000010331700120170912000101 00000000000000000000000000000000000000000000000000000000000000000000000000000000000000000000000000000000000000000N 00000000000NCONT   00    00000000000          00000000000000000000000000000000000000000000 000000000000000A000000000000000000000000000000000000000000000 000000000000000000000000000000000000000     00000000                                                                                                                        000000000000000000
F0010000010331700002000090106344000041450500000000000000000201709120002001REPRESENTACIONES FERRELECTRICAS SAS (EDDIE CIRO)  C000000077070000000000000000000000100010010000000000000000000000F0010000010331700220170912000101 00000000000000000000000000000000000000000000000000000000000000000000000000000000000000000000000000000000000000000N 00000000000NCONT   00    00000000000          00000000000000000000000000000000000000000000 000000000000000A000000000000000000000000000000000000000000000 000000000000000000000000000000000000000     00000000                                                                                                                        000000000000000000
F0010000010331700003000090106344000042505000000000000000000201709120002001REPRESENTACIONES FERRELECTRICAS SAS (EDDIE CIRO)  C000000012509600000000000000000000100010010000000000000000000000F0010000010331700320170912000101 00000000000000000000000000000000000000000000000000000000000000000000000000000000000000000000000000000000000000000N 00000000000NCONT   00    00000000000          00000000000000000000000000000000000000000000 000000000000000A000000000000000000000000000000000000000000000 000000000000000000000000000000000000000     00000000                                                                                                                        000000000000000000
F0010000010331700004000090106344000023658300000000000000000201709120002001REPRESENTACIONES FERRELECTRICAS SAS (EDDIE CIRO)  C000000000000000000000000000000000100010010000000000000000000000F0010000010331700420170912000101 00000000000000000000000000000000000000000000000000000000000000000000000000000000000000000000000000000000000000000N 00000000000NCONT   00    00000000000          00000000000000000000000000000000000000000000 000000000000000A000000000000000000000000000000000000000000000 000000000000000000000000000000000000000     00000000                                                                                                                        000000000000000000
F0010000010331700005000090106344000013552100000000000000000201709120002001REPRESENTACIONES FERRELECTRICAS SAS (EDDIE CIRO)  D000000000000000000000000000000000100010010000000000000000000000F0010000010331700520170912000101 00000000000000000000000000000000000000000000000000000000000000000000000000000000000000000000000000000000000000000N 00000000000NCONT   00    00000000000          00000000000000000000000000000000000000000000 000000000000000A000000000000000000000000000000000000000000000 000000000000000000000000000000000000000     00000000                                                                                                                        000000000000000000
F0010000010331800001000089030195100013050500000000000000000201709120002001LIBRERIA NACIONAL S.A.                            D000000031400000000000000000000000100010010000000000000000000000F0010000010331800120170912000101 00000000000000000000000000000000000000000000000000000000000000000000000000000000000000000000000000000000000000000N 00000000000NCONT   00    00000000000          00000000000000000000000000000000000000000000 000000000000000A000000000000000000000000000000000000000000000 000000000000000000000000000000000000000     00000000                                                                                                                        000000000000000000
F0010000010331800002000089030195100041450500000000000000000201709120002001LIBRERIA NACIONAL S.A.                            C000000026500000000000000000000000100010010000000000000000000000F0010000010331800220170912000101 00000000000000000000000000000000000000000000000000000000000000000000000000000000000000000000000000000000000000000N 00000000000NCONT   00    00000000000          00000000000000000000000000000000000000000000 000000000000000A000000000000000000000000000000000000000000000 000000000000000000000000000000000000000     00000000                                                                                                                        000000000000000000
F0010000010331800003000089030195100042505000000000000000000201709120002001LIBRERIA NACIONAL S.A.                            C000000004900000000000000000000000100010010000000000000000000000F0010000010331800320170912000101 00000000000000000000000000000000000000000000000000000000000000000000000000000000000000000000000000000000000000000N 00000000000NCONT   00    00000000000          00000000000000000000000000000000000000000000 000000000000000A000000000000000000000000000000000000000000000 000000000000000000000000000000000000000     00000000                                                                                                                        000000000000000000
F0010000010331800004000089030195100023658300000000000000000201709120002001LIBRERIA NACIONAL S.A.                            C000000000000000000000000000000000100010010000000000000000000000F0010000010331800420170912000101 00000000000000000000000000000000000000000000000000000000000000000000000000000000000000000000000000000000000000000N 00000000000NCONT   00    00000000000          00000000000000000000000000000000000000000000 000000000000000A000000000000000000000000000000000000000000000 000000000000000000000000000000000000000     00000000                                                                                                                        000000000000000000
F0010000010331800005000089030195100013552100000000000000000201709120002001LIBRERIA NACIONAL S.A.                            D000000000000000000000000000000000100010010000000000000000000000F0010000010331800520170912000101 00000000000000000000000000000000000000000000000000000000000000000000000000000000000000000000000000000000000000000N 00000000000NCONT   00    00000000000          00000000000000000000000000000000000000000000 000000000000000A000000000000000000000000000000000000000000000 000000000000000000000000000000000000000     00000000                                                                                                                        000000000000000000
F0010000010331900001000080201411900011050500000000000000000201709120002001PLASTISERVICIOS S DE H                            D000000004300000000000000000000000100010010000000000000000000000F0010000010331900120170912000101 00000000000000000000000000000000000000000000000000000000000000000000000000000000000000000000000000000000000000000N 00000000000NCONT   00    00000000000          00000000000000000000000000000000000000000000 000000000000000A000000000000000000000000000000000000000000000 000000000000000000000000000000000000000     00000000                                                                                                                        000000000000000000
F0010000010331900002000080201411900041450500000000000000000201709120002001PLASTISERVICIOS S DE H                            C000000003300000000000000000000000100010010000000000000000000000F0010000010331900220170912000101 00000000000000000000000000000000000000000000000000000000000000000000000000000000000000000000000000000000000000000N 00000000000NCONT   00    00000000000          00000000000000000000000000000000000000000000 000000000000000A000000000000000000000000000000000000000000000 000000000000000000000000000000000000000     00000000                                                                                                                        000000000000000000
F0010000010331900003000080201411900042505000000000000000000201709120002001PLASTISERVICIOS S DE H                            C000000001000000000000000000000000100010010000000000000000000000F0010000010331900320170912000101 00000000000000000000000000000000000000000000000000000000000000000000000000000000000000000000000000000000000000000N 00000000000NCONT   00    00000000000          00000000000000000000000000000000000000000000 000000000000000A000000000000000000000000000000000000000000000 000000000000000000000000000000000000000     00000000                                                                                                                        000000000000000000
F0010000010331900004000080201411900023658300000000000000000201709120002001PLASTISERVICIOS S DE H                            C000000000000000000000000000000000100010010000000000000000000000F0010000010331900420170912000101 00000000000000000000000000000000000000000000000000000000000000000000000000000000000000000000000000000000000000000N 00000000000NCONT   00    00000000000          00000000000000000000000000000000000000000000 000000000000000A000000000000000000000000000000000000000000000 000000000000000000000000000000000000000     00000000                                                                                                                        000000000000000000
F0010000010331900005000080201411900013552100000000000000000201709120002001PLASTISERVICIOS S DE H                            D000000000000000000000000000000000100010010000000000000000000000F0010000010331900520170912000101 00000000000000000000000000000000000000000000000000000000000000000000000000000000000000000000000000000000000000000N 00000000000NCONT   00    00000000000          00000000000000000000000000000000000000000000 000000000000000A000000000000000000000000000000000000000000000 000000000000000000000000000000000000000     00000000                                                                                                                        000000000000000000
F0010000010332000001000007213847800011050500000000000000000201709120002001ALEJANDRO MEZA ALVAREZ                            D000000002000000000000000000000000100010010000000000000000000000F0010000010332000120170912000101 00000000000000000000000000000000000000000000000000000000000000000000000000000000000000000000000000000000000000000N 00000000000NCONT   00    00000000000          00000000000000000000000000000000000000000000 000000000000000A000000000000000000000000000000000000000000000 000000000000000000000000000000000000000     00000000                                                                                                                        000000000000000000
F0010000010332000002000007213847800041450500000000000000000201709120002001ALEJANDRO MEZA ALVAREZ                            C000000001800000000000000000000000100010010000000000000000000000F0010000010332000220170912000101 00000000000000000000000000000000000000000000000000000000000000000000000000000000000000000000000000000000000000000N 00000000000NCONT   00    00000000000          00000000000000000000000000000000000000000000 000000000000000A000000000000000000000000000000000000000000000 000000000000000000000000000000000000000     00000000                                                                                                                        000000000000000000
F0010000010332000003000007213847800042505000000000000000000201709120002001ALEJANDRO MEZA ALVAREZ                            C000000000200000000000000000000000100010010000000000000000000000F0010000010332000320170912000101 00000000000000000000000000000000000000000000000000000000000000000000000000000000000000000000000000000000000000000N 00000000000NCONT   00    00000000000          00000000000000000000000000000000000000000000 000000000000000A000000000000000000000000000000000000000000000 000000000000000000000000000000000000000     00000000                                                                                                                        000000000000000000
F0010000010332000004000007213847800023658300000000000000000201709120002001ALEJANDRO MEZA ALVAREZ                            C000000000000000000000000000000000100010010000000000000000000000F0010000010332000420170912000101 00000000000000000000000000000000000000000000000000000000000000000000000000000000000000000000000000000000000000000N 00000000000NCONT   00    00000000000          00000000000000000000000000000000000000000000 000000000000000A000000000000000000000000000000000000000000000 000000000000000000000000000000000000000     00000000                                                                                                                        000000000000000000
F0010000010332000005000007213847800013552100000000000000000201709120002001ALEJANDRO MEZA ALVAREZ                            D000000000000000000000000000000000100010010000000000000000000000F0010000010332000520170912000101 00000000000000000000000000000000000000000000000000000000000000000000000000000000000000000000000000000000000000000N 00000000000NCONT   00    00000000000          00000000000000000000000000000000000000000000 000000000000000A000000000000000000000000000000000000000000000 000000000000000000000000000000000000000     00000000                                                                                                                        000000000000000000
F0010000010332100001000007213847800011050500000000000000000201709120002001ALEJANDRO MEZA ALVAREZ                            D000000003000000000000000000000000100010010000000000000000000000F0010000010332100120170912000101 00000000000000000000000000000000000000000000000000000000000000000000000000000000000000000000000000000000000000000N 00000000000NCONT   00    00000000000          00000000000000000000000000000000000000000000 000000000000000A000000000000000000000000000000000000000000000 000000000000000000000000000000000000000     00000000                                                                                                                        000000000000000000
F0010000010332100002000007213847800041450500000000000000000201709120002001ALEJANDRO MEZA ALVAREZ                            C000000002600000000000000000000000100010010000000000000000000000F0010000010332100220170912000101 00000000000000000000000000000000000000000000000000000000000000000000000000000000000000000000000000000000000000000N 00000000000NCONT   00    00000000000          00000000000000000000000000000000000000000000 000000000000000A000000000000000000000000000000000000000000000 000000000000000000000000000000000000000     00000000                                                                                                                        000000000000000000
F0010000010332100003000007213847800042505000000000000000000201709120002001ALEJANDRO MEZA ALVAREZ                            C000000000400000000000000000000000100010010000000000000000000000F0010000010332100320170912000101 00000000000000000000000000000000000000000000000000000000000000000000000000000000000000000000000000000000000000000N 00000000000NCONT   00    00000000000          00000000000000000000000000000000000000000000 000000000000000A000000000000000000000000000000000000000000000 000000000000000000000000000000000000000     00000000                                                                                                                        000000000000000000
F0010000010332100004000007213847800023658300000000000000000201709120002001ALEJANDRO MEZA ALVAREZ                            C000000000000000000000000000000000100010010000000000000000000000F0010000010332100420170912000101 00000000000000000000000000000000000000000000000000000000000000000000000000000000000000000000000000000000000000000N 00000000000NCONT   00    00000000000          00000000000000000000000000000000000000000000 000000000000000A000000000000000000000000000000000000000000000 000000000000000000000000000000000000000     00000000                                                                                                                        000000000000000000
F0010000010332100005000007213847800013552100000000000000000201709120002001ALEJANDRO MEZA ALVAREZ                            D000000000000000000000000000000000100010010000000000000000000000F0010000010332100520170912000101 00000000000000000000000000000000000000000000000000000000000000000000000000000000000000000000000000000000000000000N 00000000000NCONT   00    00000000000          00000000000000000000000000000000000000000000 000000000000000A000000000000000000000000000000000000000000000 000000000000000000000000000000000000000     00000000                                                                                                                        000000000000000000
F0010000010332200001000000856527900011050500000000000000000201709120002001CESAR AUGUSTO MIER BUELVAS                        D000000001200000000000000000000000100010010000000000000000000000F0010000010332200120170912000101 00000000000000000000000000000000000000000000000000000000000000000000000000000000000000000000000000000000000000000N 00000000000NCONT   00    00000000000          00000000000000000000000000000000000000000000 000000000000000A000000000000000000000000000000000000000000000 000000000000000000000000000000000000000     00000000                                                                                                                        000000000000000000
F0010000010332200002000000856527900041450500000000000000000201709120002001CESAR AUGUSTO MIER BUELVAS                        C000000001100000000000000000000000100010010000000000000000000000F0010000010332200220170912000101 00000000000000000000000000000000000000000000000000000000000000000000000000000000000000000000000000000000000000000N 00000000000NCONT   00    00000000000          00000000000000000000000000000000000000000000 000000000000000A000000000000000000000000000000000000000000000 000000000000000000000000000000000000000     00000000                                                                                                                        000000000000000000
F0010000010332200003000000856527900042505000000000000000000201709120002001CESAR AUGUSTO MIER BUELVAS                        C000000000100000000000000000000000100010010000000000000000000000F0010000010332200320170912000101 00000000000000000000000000000000000000000000000000000000000000000000000000000000000000000000000000000000000000000N 00000000000NCONT   00    00000000000          00000000000000000000000000000000000000000000 000000000000000A000000000000000000000000000000000000000000000 000000000000000000000000000000000000000     00000000                                                                                                                        000000000000000000
F0010000010332200004000000856527900023658300000000000000000201709120002001CESAR AUGUSTO MIER BUELVAS                        C000000000000000000000000000000000100010010000000000000000000000F0010000010332200420170912000101 00000000000000000000000000000000000000000000000000000000000000000000000000000000000000000000000000000000000000000N 00000000000NCONT   00    00000000000          00000000000000000000000000000000000000000000 000000000000000A000000000000000000000000000000000000000000000 000000000000000000000000000000000000000     00000000                                                                                                                        000000000000000000
F0010000010332200005000000856527900013552100000000000000000201709120002001CESAR AUGUSTO MIER BUELVAS                        D000000000000000000000000000000000100010010000000000000000000000F0010000010332200520170912000101 00000000000000000000000000000000000000000000000000000000000000000000000000000000000000000000000000000000000000000N 00000000000NCONT   00    00000000000          00000000000000000000000000000000000000000000 000000000000000A000000000000000000000000000000000000000000000 000000000000000000000000000000000000000     00000000                                                                                                                        000000000000000000
F0010000010332300001000003146988400011050500000000000000000201709120002001ANGELA PATRICIA BRAVO                             D000000002000000000000000000000000100010010000000000000000000000F0010000010332300120170912000101 00000000000000000000000000000000000000000000000000000000000000000000000000000000000000000000000000000000000000000N 00000000000NCONT   00    00000000000          00000000000000000000000000000000000000000000 000000000000000A000000000000000000000000000000000000000000000 000000000000000000000000000000000000000     00000000                                                                                                                        000000000000000000
F0010000010332300002000003146988400041450500000000000000000201709120002001ANGELA PATRICIA BRAVO                             C000000001600000000000000000000000100010010000000000000000000000F0010000010332300220170912000101 00000000000000000000000000000000000000000000000000000000000000000000000000000000000000000000000000000000000000000N 00000000000NCONT   00    00000000000          00000000000000000000000000000000000000000000 000000000000000A000000000000000000000000000000000000000000000 000000000000000000000000000000000000000     00000000                                                                                                                        000000000000000000
F0010000010332300003000003146988400042505000000000000000000201709120002001ANGELA PATRICIA BRAVO                             C000000000400000000000000000000000100010010000000000000000000000F0010000010332300320170912000101 00000000000000000000000000000000000000000000000000000000000000000000000000000000000000000000000000000000000000000N 00000000000NCONT   00    00000000000          00000000000000000000000000000000000000000000 000000000000000A000000000000000000000000000000000000000000000 000000000000000000000000000000000000000     00000000                                                                                                                        000000000000000000
F0010000010332300004000003146988400023658300000000000000000201709120002001ANGELA PATRICIA BRAVO                             C000000000000000000000000000000000100010010000000000000000000000F0010000010332300420170912000101 00000000000000000000000000000000000000000000000000000000000000000000000000000000000000000000000000000000000000000N 00000000000NCONT   00    00000000000          00000000000000000000000000000000000000000000 000000000000000A000000000000000000000000000000000000000000000 000000000000000000000000000000000000000     00000000                                                                                                                        000000000000000000
F0010000010332300005000003146988400013552100000000000000000201709120002001ANGELA PATRICIA BRAVO                             D000000000000000000000000000000000100010010000000000000000000000F0010000010332300520170912000101 00000000000000000000000000000000000000000000000000000000000000000000000000000000000000000000000000000000000000000N 00000000000NCONT   00    00000000000          00000000000000000000000000000000000000000000 000000000000000A000000000000000000000000000000000000000000000 000000000000000000000000000000000000000     00000000                                                                                                                        000000000000000000
F0010000010332400001000090034602400011050500000000000000000201709120002001PRODUCTOS NACIONALES PARAFINICOS LA CUSTODIA S.A.SD000000001150000000000000000000000100010010000000000000000000000F0010000010332400120170912000101 00000000000000000000000000000000000000000000000000000000000000000000000000000000000000000000000000000000000000000N 00000000000NCONT   00    00000000000          00000000000000000000000000000000000000000000 000000000000000A000000000000000000000000000000000000000000000 000000000000000000000000000000000000000     00000000                                                                                                                        000000000000000000
F0010000010332400002000090034602400041450500000000000000000201709120002001PRODUCTOS NACIONALES PARAFINICOS LA CUSTODIA S.A.SC000000001050000000000000000000000100010010000000000000000000000F0010000010332400220170912000101 00000000000000000000000000000000000000000000000000000000000000000000000000000000000000000000000000000000000000000N 00000000000NCONT   00    00000000000          00000000000000000000000000000000000000000000 000000000000000A000000000000000000000000000000000000000000000 000000000000000000000000000000000000000     00000000                                                                                                                        000000000000000000
F0010000010332400003000090034602400042505000000000000000000201709120002001PRODUCTOS NACIONALES PARAFINICOS LA CUSTODIA S.A.SC000000000100000000000000000000000100010010000000000000000000000F0010000010332400320170912000101 00000000000000000000000000000000000000000000000000000000000000000000000000000000000000000000000000000000000000000N 00000000000NCONT   00    00000000000          00000000000000000000000000000000000000000000 000000000000000A000000000000000000000000000000000000000000000 000000000000000000000000000000000000000     00000000                                                                                                                        000000000000000000
F0010000010332400004000090034602400023658300000000000000000201709120002001PRODUCTOS NACIONALES PARAFINICOS LA CUSTODIA S.A.SC000000000000000000000000000000000100010010000000000000000000000F0010000010332400420170912000101 00000000000000000000000000000000000000000000000000000000000000000000000000000000000000000000000000000000000000000N 00000000000NCONT   00    00000000000          00000000000000000000000000000000000000000000 000000000000000A000000000000000000000000000000000000000000000 000000000000000000000000000000000000000     00000000                                                                                                                        000000000000000000
F0010000010332400005000090034602400013552100000000000000000201709120002001PRODUCTOS NACIONALES PARAFINICOS LA CUSTODIA S.A.SD000000000000000000000000000000000100010010000000000000000000000F0010000010332400520170912000101 00000000000000000000000000000000000000000000000000000000000000000000000000000000000000000000000000000000000000000N 00000000000NCONT   00    00000000000          00000000000000000000000000000000000000000000 000000000000000A000000000000000000000000000000000000000000000 000000000000000000000000000000000000000     00000000                                                                                                                        000000000000000000
F0010000010332500001000090034602400011050500000000000000000201709120002001PRODUCTOS NACIONALES PARAFINICOS LA CUSTODIA S.A.SD000000005350000000000000000000000100010010000000000000000000000F0010000010332500120170912000101 00000000000000000000000000000000000000000000000000000000000000000000000000000000000000000000000000000000000000000N 00000000000NCONT   00    00000000000          00000000000000000000000000000000000000000000 000000000000000A000000000000000000000000000000000000000000000 000000000000000000000000000000000000000     00000000                                                                                                                        000000000000000000
F0010000010332500002000090034602400041450500000000000000000201709120002001PRODUCTOS NACIONALES PARAFINICOS LA CUSTODIA S.A.SC000000005250000000000000000000000100010010000000000000000000000F0010000010332500220170912000101 00000000000000000000000000000000000000000000000000000000000000000000000000000000000000000000000000000000000000000N 00000000000NCONT   00    00000000000          00000000000000000000000000000000000000000000 000000000000000A000000000000000000000000000000000000000000000 000000000000000000000000000000000000000     00000000                                                                                                                        000000000000000000
F0010000010332500003000090034602400042505000000000000000000201709120002001PRODUCTOS NACIONALES PARAFINICOS LA CUSTODIA S.A.SC000000000100000000000000000000000100010010000000000000000000000F0010000010332500320170912000101 00000000000000000000000000000000000000000000000000000000000000000000000000000000000000000000000000000000000000000N 00000000000NCONT   00    00000000000          00000000000000000000000000000000000000000000 000000000000000A000000000000000000000000000000000000000000000 000000000000000000000000000000000000000     00000000                                                                                                                        000000000000000000
F0010000010332500004000090034602400023658300000000000000000201709120002001PRODUCTOS NACIONALES PARAFINICOS LA CUSTODIA S.A.SC000000000000000000000000000000000100010010000000000000000000000F0010000010332500420170912000101 00000000000000000000000000000000000000000000000000000000000000000000000000000000000000000000000000000000000000000N 00000000000NCONT   00    00000000000          00000000000000000000000000000000000000000000 000000000000000A000000000000000000000000000000000000000000000 000000000000000000000000000000000000000     00000000                                                                                                                        000000000000000000
F0010000010332500005000090034602400013552100000000000000000201709120002001PRODUCTOS NACIONALES PARAFINICOS LA CUSTODIA S.A.SD000000000000000000000000000000000100010010000000000000000000000F0010000010332500520170912000101 00000000000000000000000000000000000000000000000000000000000000000000000000000000000000000000000000000000000000000N 00000000000NCONT   00    00000000000          00000000000000000000000000000000000000000000 000000000000000A000000000000000000000000000000000000000000000 000000000000000000000000000000000000000     00000000                                                                                                                        000000000000000000
F0010000010332600001000000870907300011050500000000000000000201709120002001SURTIDOR FERRETERO                                D000000001389000000000000000000000100010010000000000000000000000F0010000010332600120170912000101 00000000000000000000000000000000000000000000000000000000000000000000000000000000000000000000000000000000000000000N 00000000000NCONT   00    00000000000          00000000000000000000000000000000000000000000 000000000000000A000000000000000000000000000000000000000000000 000000000000000000000000000000000000000     00000000                                                                                                                        000000000000000000
F0010000010332600002000000870907300041450500000000000000000201709120002001SURTIDOR FERRETERO                                C000000000910000000000000000000000100010010000000000000000000000F0010000010332600220170912000101 00000000000000000000000000000000000000000000000000000000000000000000000000000000000000000000000000000000000000000N 00000000000NCONT   00    00000000000          00000000000000000000000000000000000000000000 000000000000000A000000000000000000000000000000000000000000000 000000000000000000000000000000000000000     00000000                                                                                                                        000000000000000000
F0010000010332600003000000870907300042505000000000000000000201709120002001SURTIDOR FERRETERO                                C000000000479000000000000000000000100010010000000000000000000000F0010000010332600320170912000101 00000000000000000000000000000000000000000000000000000000000000000000000000000000000000000000000000000000000000000N 00000000000NCONT   00    00000000000          00000000000000000000000000000000000000000000 000000000000000A000000000000000000000000000000000000000000000 000000000000000000000000000000000000000     00000000                                                                                                                        000000000000000000
F0010000010332600004000000870907300023658300000000000000000201709120002001SURTIDOR FERRETERO                                C000000000000000000000000000000000100010010000000000000000000000F0010000010332600420170912000101 00000000000000000000000000000000000000000000000000000000000000000000000000000000000000000000000000000000000000000N 00000000000NCONT   00    00000000000          00000000000000000000000000000000000000000000 000000000000000A000000000000000000000000000000000000000000000 000000000000000000000000000000000000000     00000000                                                                                                                        000000000000000000
F0010000010332600005000000870907300013552100000000000000000201709120002001SURTIDOR FERRETERO                                D000000000000000000000000000000000100010010000000000000000000000F0010000010332600520170912000101 00000000000000000000000000000000000000000000000000000000000000000000000000000000000000000000000000000000000000000N 00000000000NCONT   00    00000000000          00000000000000000000000000000000000000000000 000000000000000A000000000000000000000000000000000000000000000 000000000000000000000000000000000000000     00000000                                                                                                                        000000000000000000
F0010000010332700001000000870907300011050500000000000000000201709120002001SURTIDOR FERRETERO                                D000000001618000000000000000000000100010010000000000000000000000F0010000010332700120170912000101 00000000000000000000000000000000000000000000000000000000000000000000000000000000000000000000000000000000000000000N 00000000000NCONT   00    00000000000          00000000000000000000000000000000000000000000 000000000000000A000000000000000000000000000000000000000000000 000000000000000000000000000000000000000     00000000                                                                                                                        000000000000000000
F0010000010332700002000000870907300041450500000000000000000201709120002001SURTIDOR FERRETERO                                C000000000910000000000000000000000100010010000000000000000000000F0010000010332700220170912000101 00000000000000000000000000000000000000000000000000000000000000000000000000000000000000000000000000000000000000000N 00000000000NCONT   00    00000000000          00000000000000000000000000000000000000000000 000000000000000A000000000000000000000000000000000000000000000 000000000000000000000000000000000000000     00000000                                                                                                                        000000000000000000
F0010000010332700003000000870907300042505000000000000000000201709120002001SURTIDOR FERRETERO                                C000000000708000000000000000000000100010010000000000000000000000F0010000010332700320170912000101 00000000000000000000000000000000000000000000000000000000000000000000000000000000000000000000000000000000000000000N 00000000000NCONT   00    00000000000          00000000000000000000000000000000000000000000 000000000000000A000000000000000000000000000000000000000000000 000000000000000000000000000000000000000     00000000                                                                                                                        000000000000000000
F0010000010332700004000000870907300023658300000000000000000201709120002001SURTIDOR FERRETERO                                C000000000000000000000000000000000100010010000000000000000000000F0010000010332700420170912000101 00000000000000000000000000000000000000000000000000000000000000000000000000000000000000000000000000000000000000000N 00000000000NCONT   00    00000000000          00000000000000000000000000000000000000000000 000000000000000A000000000000000000000000000000000000000000000 000000000000000000000000000000000000000     00000000                                                                                                                        000000000000000000
F0010000010332700005000000870907300013552100000000000000000201709120002001SURTIDOR FERRETERO                                D000000000000000000000000000000000100010010000000000000000000000F0010000010332700520170912000101 00000000000000000000000000000000000000000000000000000000000000000000000000000000000000000000000000000000000000000N 00000000000NCONT   00    00000000000          00000000000000000000000000000000000000000000 000000000000000A000000000000000000000000000000000000000000000 000000000000000000000000000000000000000     00000000                                                                                                                        000000000000000000
F0010000010332800001000000870907300011050500000000000000000201709120002001SURTIDOR FERRETERO                                D000000008318000000000000000000000100010010000000000000000000000F0010000010332800120170912000101 00000000000000000000000000000000000000000000000000000000000000000000000000000000000000000000000000000000000000000N 00000000000NCONT   00    00000000000          00000000000000000000000000000000000000000000 000000000000000A000000000000000000000000000000000000000000000 000000000000000000000000000000000000000     00000000                                                                                                                        000000000000000000
F0010000010332800002000000870907300041450500000000000000000201709120002001SURTIDOR FERRETERO                                C000000005460000000000000000000000100010010000000000000000000000F0010000010332800220170912000101 00000000000000000000000000000000000000000000000000000000000000000000000000000000000000000000000000000000000000000N 00000000000NCONT   00    00000000000          00000000000000000000000000000000000000000000 000000000000000A000000000000000000000000000000000000000000000 000000000000000000000000000000000000000     00000000                                                                                                                        000000000000000000
F0010000010332800003000000870907300042505000000000000000000201709120002001SURTIDOR FERRETERO                                C000000002858000000000000000000000100010010000000000000000000000F0010000010332800320170912000101 00000000000000000000000000000000000000000000000000000000000000000000000000000000000000000000000000000000000000000N 00000000000NCONT   00    00000000000          00000000000000000000000000000000000000000000 000000000000000A000000000000000000000000000000000000000000000 000000000000000000000000000000000000000     00000000                                                                                                                        000000000000000000
F0010000010332800004000000870907300023658300000000000000000201709120002001SURTIDOR FERRETERO                                C000000000000000000000000000000000100010010000000000000000000000F0010000010332800420170912000101 00000000000000000000000000000000000000000000000000000000000000000000000000000000000000000000000000000000000000000N 00000000000NCONT   00    00000000000          00000000000000000000000000000000000000000000 000000000000000A000000000000000000000000000000000000000000000 000000000000000000000000000000000000000     00000000                                                                                                                        000000000000000000
F0010000010332800005000000870907300013552100000000000000000201709120002001SURTIDOR FERRETERO                                D000000000000000000000000000000000100010010000000000000000000000F0010000010332800520170912000101 00000000000000000000000000000000000000000000000000000000000000000000000000000000000000000000000000000000000000000N 00000000000NCONT   00    00000000000          00000000000000000000000000000000000000000000 000000000000000A000000000000000000000000000000000000000000000 000000000000000000000000000000000000000     00000000                                                                                                                        000000000000000000
F0010000010332900001000080201703900011050500000000000000000201709120002001MUNDIAL CHEMICAL LTDA                             D000000013563000000000000000000000100010010000000000000000000000F0010000010332900120170912000101 00000000000000000000000000000000000000000000000000000000000000000000000000000000000000000000000000000000000000000N 00000000000NCONT   00    00000000000          00000000000000000000000000000000000000000000 000000000000000A000000000000000000000000000000000000000000000 000000000000000000000000000000000000000     00000000                                                                                                                        000000000000000000
F0010000010332900002000080201703900041450500000000000000000201709120002001MUNDIAL CHEMICAL LTDA                             C000000011988000000000000000000000100010010000000000000000000000F0010000010332900220170912000101 00000000000000000000000000000000000000000000000000000000000000000000000000000000000000000000000000000000000000000N 00000000000NCONT   00    00000000000          00000000000000000000000000000000000000000000 000000000000000A000000000000000000000000000000000000000000000 000000000000000000000000000000000000000     00000000                                                                                                                        000000000000000000
F0010000010332900003000080201703900042505000000000000000000201709120002001MUNDIAL CHEMICAL LTDA                             C000000001575000000000000000000000100010010000000000000000000000F0010000010332900320170912000101 00000000000000000000000000000000000000000000000000000000000000000000000000000000000000000000000000000000000000000N 00000000000NCONT   00    00000000000          00000000000000000000000000000000000000000000 000000000000000A000000000000000000000000000000000000000000000 000000000000000000000000000000000000000     00000000                                                                                                                        000000000000000000
F0010000010332900004000080201703900023658300000000000000000201709120002001MUNDIAL CHEMICAL LTDA                             C000000000000000000000000000000000100010010000000000000000000000F0010000010332900420170912000101 00000000000000000000000000000000000000000000000000000000000000000000000000000000000000000000000000000000000000000N 00000000000NCONT   00    00000000000          00000000000000000000000000000000000000000000 000000000000000A000000000000000000000000000000000000000000000 000000000000000000000000000000000000000     00000000                                                                                                                        000000000000000000
F0010000010332900005000080201703900013552100000000000000000201709120002001MUNDIAL CHEMICAL LTDA                             D000000000000000000000000000000000100010010000000000000000000000F0010000010332900520170912000101 00000000000000000000000000000000000000000000000000000000000000000000000000000000000000000000000000000000000000000N 00000000000NCONT   00    00000000000          00000000000000000000000000000000000000000000 000000000000000A000000000000000000000000000000000000000000000 000000000000000000000000000000000000000     00000000                                                                                                                        000000000000000000
F0010000010333000001000000091780800011050500000000000000000201709120002001ITALO RENE HERAZO CARCAMO /CENTRAL DE TORNILLOS   D000000002180000000000000000000000100010010000000000000000000000F0010000010333000120170912000101 00000000000000000000000000000000000000000000000000000000000000000000000000000000000000000000000000000000000000000N 00000000000NCONT   00    00000000000          00000000000000000000000000000000000000000000 000000000000000A000000000000000000000000000000000000000000000 000000000000000000000000000000000000000     00000000                                                                                                                        000000000000000000
F0010000010333000002000000091780800041450500000000000000000201709120002001ITALO RENE HERAZO CARCAMO /CENTRAL DE TORNILLOS   C000000002080000000000000000000000100010010000000000000000000000F0010000010333000220170912000101 00000000000000000000000000000000000000000000000000000000000000000000000000000000000000000000000000000000000000000N 00000000000NCONT   00    00000000000          00000000000000000000000000000000000000000000 000000000000000A000000000000000000000000000000000000000000000 000000000000000000000000000000000000000     00000000                                                                                                                        000000000000000000
F0010000010333000003000000091780800042505000000000000000000201709120002001ITALO RENE HERAZO CARCAMO /CENTRAL DE TORNILLOS   C000000000100000000000000000000000100010010000000000000000000000F0010000010333000320170912000101 00000000000000000000000000000000000000000000000000000000000000000000000000000000000000000000000000000000000000000N 00000000000NCONT   00    00000000000          00000000000000000000000000000000000000000000 000000000000000A000000000000000000000000000000000000000000000 000000000000000000000000000000000000000     00000000                                                                                                                        000000000000000000
F0010000010333000004000000091780800023658300000000000000000201709120002001ITALO RENE HERAZO CARCAMO /CENTRAL DE TORNILLOS   C000000000000000000000000000000000100010010000000000000000000000F0010000010333000420170912000101 00000000000000000000000000000000000000000000000000000000000000000000000000000000000000000000000000000000000000000N 00000000000NCONT   00    00000000000          00000000000000000000000000000000000000000000 000000000000000A000000000000000000000000000000000000000000000 000000000000000000000000000000000000000     00000000                                                                                                                        000000000000000000
F0010000010333000005000000091780800013552100000000000000000201709120002001ITALO RENE HERAZO CARCAMO /CENTRAL DE TORNILLOS   D000000000000000000000000000000000100010010000000000000000000000F0010000010333000520170912000101 00000000000000000000000000000000000000000000000000000000000000000000000000000000000000000000000000000000000000000N 00000000000NCONT   00    00000000000          00000000000000000000000000000000000000000000 000000000000000A000000000000000000000000000000000000000000000 000000000000000000000000000000000000000     00000000                                                                                                                        000000000000000000
F0010000010333100001000000091780800011050500000000000000000201709120002001ITALO RENE HERAZO CARCAMO /CENTRAL DE TORNILLOS   D000000002380000000000000000000000100010010000000000000000000000F0010000010333100120170912000101 00000000000000000000000000000000000000000000000000000000000000000000000000000000000000000000000000000000000000000N 00000000000NCONT   00    00000000000          00000000000000000000000000000000000000000000 000000000000000A000000000000000000000000000000000000000000000 000000000000000000000000000000000000000     00000000                                                                                                                        000000000000000000
F0010000010333100002000000091780800041450500000000000000000201709120002001ITALO RENE HERAZO CARCAMO /CENTRAL DE TORNILLOS   C000000002080000000000000000000000100010010000000000000000000000F0010000010333100220170912000101 00000000000000000000000000000000000000000000000000000000000000000000000000000000000000000000000000000000000000000N 00000000000NCONT   00    00000000000          00000000000000000000000000000000000000000000 000000000000000A000000000000000000000000000000000000000000000 000000000000000000000000000000000000000     00000000                                                                                                                        000000000000000000
F0010000010333100003000000091780800042505000000000000000000201709120002001ITALO RENE HERAZO CARCAMO /CENTRAL DE TORNILLOS   C000000000300000000000000000000000100010010000000000000000000000F0010000010333100320170912000101 00000000000000000000000000000000000000000000000000000000000000000000000000000000000000000000000000000000000000000N 00000000000NCONT   00    00000000000          00000000000000000000000000000000000000000000 000000000000000A000000000000000000000000000000000000000000000 000000000000000000000000000000000000000     00000000                                                                                                                        000000000000000000
F0010000010333100004000000091780800023658300000000000000000201709120002001ITALO RENE HERAZO CARCAMO /CENTRAL DE TORNILLOS   C000000000000000000000000000000000100010010000000000000000000000F0010000010333100420170912000101 00000000000000000000000000000000000000000000000000000000000000000000000000000000000000000000000000000000000000000N 00000000000NCONT   00    00000000000          00000000000000000000000000000000000000000000 000000000000000A000000000000000000000000000000000000000000000 000000000000000000000000000000000000000     00000000                                                                                                                        000000000000000000
F0010000010333100005000000091780800013552100000000000000000201709120002001ITALO RENE HERAZO CARCAMO /CENTRAL DE TORNILLOS   D000000000000000000000000000000000100010010000000000000000000000F0010000010333100520170912000101 00000000000000000000000000000000000000000000000000000000000000000000000000000000000000000000000000000000000000000N 00000000000NCONT   00    00000000000          00000000000000000000000000000000000000000000 000000000000000A000000000000000000000000000000000000000000000 000000000000000000000000000000000000000     00000000                                                                                                                        000000000000000000
F0010000010333200001000000091780800011050500000000000000000201709120002001ITALO RENE HERAZO CARCAMO /CENTRAL DE TORNILLOS   D000000002136000000000000000000000100010010000000000000000000000F0010000010333200120170912000101 00000000000000000000000000000000000000000000000000000000000000000000000000000000000000000000000000000000000000000N 00000000000NCONT   00    00000000000          00000000000000000000000000000000000000000000 000000000000000A000000000000000000000000000000000000000000000 000000000000000000000000000000000000000     00000000                                                                                                                        000000000000000000
F0010000010333200002000000091780800041450500000000000000000201709120002001ITALO RENE HERAZO CARCAMO /CENTRAL DE TORNILLOS   C000000002080000000000000000000000100010010000000000000000000000F0010000010333200220170912000101 00000000000000000000000000000000000000000000000000000000000000000000000000000000000000000000000000000000000000000N 00000000000NCONT   00    00000000000          00000000000000000000000000000000000000000000 000000000000000A000000000000000000000000000000000000000000000 000000000000000000000000000000000000000     00000000                                                                                                                        000000000000000000
F0010000010333200003000000091780800042505000000000000000000201709120002001ITALO RENE HERAZO CARCAMO /CENTRAL DE TORNILLOS   C000000000056000000000000000000000100010010000000000000000000000F0010000010333200320170912000101 00000000000000000000000000000000000000000000000000000000000000000000000000000000000000000000000000000000000000000N 00000000000NCONT   00    00000000000          00000000000000000000000000000000000000000000 000000000000000A000000000000000000000000000000000000000000000 000000000000000000000000000000000000000     00000000                                                                                                                        000000000000000000
F0010000010333200004000000091780800023658300000000000000000201709120002001ITALO RENE HERAZO CARCAMO /CENTRAL DE TORNILLOS   C000000000000000000000000000000000100010010000000000000000000000F0010000010333200420170912000101 00000000000000000000000000000000000000000000000000000000000000000000000000000000000000000000000000000000000000000N 00000000000NCONT   00    00000000000          00000000000000000000000000000000000000000000 000000000000000A000000000000000000000000000000000000000000000 000000000000000000000000000000000000000     00000000                                                                                                                        000000000000000000
F0010000010333200005000000091780800013552100000000000000000201709120002001ITALO RENE HERAZO CARCAMO /CENTRAL DE TORNILLOS   D000000000000000000000000000000000100010010000000000000000000000F0010000010333200520170912000101 00000000000000000000000000000000000000000000000000000000000000000000000000000000000000000000000000000000000000000N 00000000000NCONT   00    00000000000          00000000000000000000000000000000000000000000 000000000000000A000000000000000000000000000000000000000000000 000000000000000000000000000000000000000     00000000                                                                                                                        000000000000000000
F0010000010333300001000007213653800011050500000000000000000201709120002001VICTOR ECHAVEZ                                    D000000003800000000000000000000000100010010000000000000000000000F0010000010333300120170912000101 00000000000000000000000000000000000000000000000000000000000000000000000000000000000000000000000000000000000000000N 00000000000NCONT   00    00000000000          00000000000000000000000000000000000000000000 000000000000000A000000000000000000000000000000000000000000000 000000000000000000000000000000000000000     00000000                                                                                                                        000000000000000000
F0010000010333300002000007213653800041450500000000000000000201709120002001VICTOR ECHAVEZ                                    C000000003000000000000000000000000100010010000000000000000000000F0010000010333300220170912000101 00000000000000000000000000000000000000000000000000000000000000000000000000000000000000000000000000000000000000000N 00000000000NCONT   00    00000000000          00000000000000000000000000000000000000000000 000000000000000A000000000000000000000000000000000000000000000 000000000000000000000000000000000000000     00000000                                                                                                                        000000000000000000
F0010000010333300003000007213653800042505000000000000000000201709120002001VICTOR ECHAVEZ                                    C000000000800000000000000000000000100010010000000000000000000000F0010000010333300320170912000101 00000000000000000000000000000000000000000000000000000000000000000000000000000000000000000000000000000000000000000N 00000000000NCONT   00    00000000000          00000000000000000000000000000000000000000000 000000000000000A000000000000000000000000000000000000000000000 000000000000000000000000000000000000000     00000000                                                                                                                        000000000000000000
F0010000010333300004000007213653800023658300000000000000000201709120002001VICTOR ECHAVEZ                                    C000000000000000000000000000000000100010010000000000000000000000F0010000010333300420170912000101 00000000000000000000000000000000000000000000000000000000000000000000000000000000000000000000000000000000000000000N 00000000000NCONT   00    00000000000          00000000000000000000000000000000000000000000 000000000000000A000000000000000000000000000000000000000000000 000000000000000000000000000000000000000     00000000                                                                                                                        000000000000000000
F0010000010333300005000007213653800013552100000000000000000201709120002001VICTOR ECHAVEZ                                    D000000000000000000000000000000000100010010000000000000000000000F0010000010333300520170912000101 00000000000000000000000000000000000000000000000000000000000000000000000000000000000000000000000000000000000000000N 00000000000NCONT   00    00000000000          00000000000000000000000000000000000000000000 000000000000000A000000000000000000000000000000000000000000000 000000000000000000000000000000000000000     00000000                                                                                                                        000000000000000000
F0010000010333400001000007213653800011050500000000000000000201709120002001VICTOR ECHAVEZ                                    D000000001300000000000000000000000100010010000000000000000000000F0010000010333400120170912000101 00000000000000000000000000000000000000000000000000000000000000000000000000000000000000000000000000000000000000000N 00000000000NCONT   00    00000000000          00000000000000000000000000000000000000000000 000000000000000A000000000000000000000000000000000000000000000 000000000000000000000000000000000000000     00000000                                                                                                                        000000000000000000
F0010000010333400002000007213653800041450500000000000000000201709120002001VICTOR ECHAVEZ                                    C000000001100000000000000000000000100010010000000000000000000000F0010000010333400220170912000101 00000000000000000000000000000000000000000000000000000000000000000000000000000000000000000000000000000000000000000N 00000000000NCONT   00    00000000000          00000000000000000000000000000000000000000000 000000000000000A000000000000000000000000000000000000000000000 000000000000000000000000000000000000000     00000000                                                                                                                        000000000000000000
F0010000010333400003000007213653800042505000000000000000000201709120002001VICTOR ECHAVEZ                                    C000000000200000000000000000000000100010010000000000000000000000F0010000010333400320170912000101 00000000000000000000000000000000000000000000000000000000000000000000000000000000000000000000000000000000000000000N 00000000000NCONT   00    00000000000          00000000000000000000000000000000000000000000 000000000000000A000000000000000000000000000000000000000000000 000000000000000000000000000000000000000     00000000                                                                                                                        000000000000000000
F0010000010333400004000007213653800023658300000000000000000201709120002001VICTOR ECHAVEZ                                    C000000000000000000000000000000000100010010000000000000000000000F0010000010333400420170912000101 00000000000000000000000000000000000000000000000000000000000000000000000000000000000000000000000000000000000000000N 00000000000NCONT   00    00000000000          00000000000000000000000000000000000000000000 000000000000000A000000000000000000000000000000000000000000000 000000000000000000000000000000000000000     00000000                                                                                                                        000000000000000000
F0010000010333400005000007213653800013552100000000000000000201709120002001VICTOR ECHAVEZ                                    D000000000000000000000000000000000100010010000000000000000000000F0010000010333400520170912000101 00000000000000000000000000000000000000000000000000000000000000000000000000000000000000000000000000000000000000000N 00000000000NCONT   00    00000000000          00000000000000000000000000000000000000000000 000000000000000A000000000000000000000000000000000000000000000 000000000000000000000000000000000000000     00000000                                                                                                                        000000000000000000
F0010000010333500001000007213653800011050500000000000000000201709120002001VICTOR ECHAVEZ                                    D000000004000000000000000000000000100010010000000000000000000000F0010000010333500120170912000101 00000000000000000000000000000000000000000000000000000000000000000000000000000000000000000000000000000000000000000N 00000000000NCONT   00    00000000000          00000000000000000000000000000000000000000000 000000000000000A000000000000000000000000000000000000000000000 000000000000000000000000000000000000000     00000000                                                                                                                        000000000000000000
F0010000010333500002000007213653800041450500000000000000000201709120002001VICTOR ECHAVEZ                                    C000000003300000000000000000000000100010010000000000000000000000F0010000010333500220170912000101 00000000000000000000000000000000000000000000000000000000000000000000000000000000000000000000000000000000000000000N 00000000000NCONT   00    00000000000          00000000000000000000000000000000000000000000 000000000000000A000000000000000000000000000000000000000000000 000000000000000000000000000000000000000     00000000                                                                                                                        000000000000000000
F0010000010333500003000007213653800042505000000000000000000201709120002001VICTOR ECHAVEZ                                    C000000000700000000000000000000000100010010000000000000000000000F0010000010333500320170912000101 00000000000000000000000000000000000000000000000000000000000000000000000000000000000000000000000000000000000000000N 00000000000NCONT   00    00000000000          00000000000000000000000000000000000000000000 000000000000000A000000000000000000000000000000000000000000000 000000000000000000000000000000000000000     00000000                                                                                                                        000000000000000000
F0010000010333500004000007213653800023658300000000000000000201709120002001VICTOR ECHAVEZ                                    C000000000000000000000000000000000100010010000000000000000000000F0010000010333500420170912000101 00000000000000000000000000000000000000000000000000000000000000000000000000000000000000000000000000000000000000000N 00000000000NCONT   00    00000000000          00000000000000000000000000000000000000000000 000000000000000A000000000000000000000000000000000000000000000 000000000000000000000000000000000000000     00000000                                                                                                                        000000000000000000
F0010000010333500005000007213653800013552100000000000000000201709120002001VICTOR ECHAVEZ                                    D000000000000000000000000000000000100010010000000000000000000000F0010000010333500520170912000101 00000000000000000000000000000000000000000000000000000000000000000000000000000000000000000000000000000000000000000N 00000000000NCONT   00    00000000000          00000000000000000000000000000000000000000000 000000000000000A000000000000000000000000000000000000000000000 000000000000000000000000000000000000000     00000000                                                                                                                        000000000000000000
F0010000010333600001000000091780800011050500000000000000000201709120002001ITALO RENE HERAZO CARCAMO /CENTRAL DE TORNILLOS   D000000002280000000000000000000000100010010000000000000000000000F0010000010333600120170912000101 00000000000000000000000000000000000000000000000000000000000000000000000000000000000000000000000000000000000000000N 00000000000NCONT   00    00000000000          00000000000000000000000000000000000000000000 000000000000000A000000000000000000000000000000000000000000000 000000000000000000000000000000000000000     00000000                                                                                                                        000000000000000000
F0010000010333600002000000091780800041450500000000000000000201709120002001ITALO RENE HERAZO CARCAMO /CENTRAL DE TORNILLOS   C000000002080000000000000000000000100010010000000000000000000000F0010000010333600220170912000101 00000000000000000000000000000000000000000000000000000000000000000000000000000000000000000000000000000000000000000N 00000000000NCONT   00    00000000000          00000000000000000000000000000000000000000000 000000000000000A000000000000000000000000000000000000000000000 000000000000000000000000000000000000000     00000000                                                                                                                        000000000000000000
F0010000010333600003000000091780800042505000000000000000000201709120002001ITALO RENE HERAZO CARCAMO /CENTRAL DE TORNILLOS   C000000000200000000000000000000000100010010000000000000000000000F0010000010333600320170912000101 00000000000000000000000000000000000000000000000000000000000000000000000000000000000000000000000000000000000000000N 00000000000NCONT   00    00000000000          00000000000000000000000000000000000000000000 000000000000000A000000000000000000000000000000000000000000000 000000000000000000000000000000000000000     00000000                                                                                                                        000000000000000000
F0010000010333600004000000091780800023658300000000000000000201709120002001ITALO RENE HERAZO CARCAMO /CENTRAL DE TORNILLOS   C000000000000000000000000000000000100010010000000000000000000000F0010000010333600420170912000101 00000000000000000000000000000000000000000000000000000000000000000000000000000000000000000000000000000000000000000N 00000000000NCONT   00    00000000000          00000000000000000000000000000000000000000000 000000000000000A000000000000000000000000000000000000000000000 000000000000000000000000000000000000000     00000000                                                                                                                        000000000000000000
F0010000010333600005000000091780800013552100000000000000000201709120002001ITALO RENE HERAZO CARCAMO /CENTRAL DE TORNILLOS   D000000000000000000000000000000000100010010000000000000000000000F0010000010333600520170912000101 00000000000000000000000000000000000000000000000000000000000000000000000000000000000000000000000000000000000000000N 00000000000NCONT   00    00000000000          00000000000000000000000000000000000000000000 000000000000000A000000000000000000000000000000000000000000000 000000000000000000000000000000000000000     00000000                                                                                                                        000000000000000000
F0010000010333700001000090061985600011050500000000000000000201709120002001COMERCIALIZADORA PATRY SAS                        D000000006200000000000000000000000100010010000000000000000000000F0010000010333700120170912000101 00000000000000000000000000000000000000000000000000000000000000000000000000000000000000000000000000000000000000000N 00000000000NCONT   00    00000000000          00000000000000000000000000000000000000000000 000000000000000A000000000000000000000000000000000000000000000 000000000000000000000000000000000000000     00000000                                                                                                                        000000000000000000
