F0010000006208600001000080016665600013050500000000000000000201408290002001SUMICAL DE ANTIOQUIA S.A.S                        D000000047311900000000000000000000100010010000000000000000000000F0010000006208600120140829000101 00000000000000000000000000000000000000000000000000000000000000000000000000000000000000000000000000000000000000000N 00000000000NCONT   00    00000000000          00000000000000000000000000000000000000000000 000000000000000A000000000000000000000000000000000000000000000 000000000000000000000000000000000000000     00000000                                                                                                                        000000000000000000
F0010000006208600002000080016665600041450500000000000000000201408290002001SUMICAL DE ANTIOQUIA S.A.S                        C000000039470000000000000000000000100010010000000000000000000000F0010000006208600220140829000101 00000000000000000000000000000000000000000000000000000000000000000000000000000000000000000000000000000000000000000N 00000000000NCONT   00    00000000000          00000000000000000000000000000000000000000000 000000000000000A000000000000000000000000000000000000000000000 000000000000000000000000000000000000000     00000000                                                                                                                        000000000000000000
F0010000006208600003000080016665600042505000000000000000000201408290002001SUMICAL DE ANTIOQUIA S.A.S                        C000000007841900000000000000000000100010010000000000000000000000F0010000006208600320140829000101 00000000000000000000000000000000000000000000000000000000000000000000000000000000000000000000000000000000000000000N 00000000000NCONT   00    00000000000          00000000000000000000000000000000000000000000 000000000000000A000000000000000000000000000000000000000000000 000000000000000000000000000000000000000     00000000                                                                                                                        000000000000000000
F0010000006208600004000080016665600023658300000000000000000201408290002001SUMICAL DE ANTIOQUIA S.A.S                        C000000000315800000000000000000000100010010000000000000000000000F0010000006208600420140829000101 00000000000000000000000000000000000000000000000000000000000000000000000000000000000000000000000000000000000000000N 00000000000NCONT   00    00000000000          00000000000000000000000000000000000000000000 000000000000000A000000000000000000000000000000000000000000000 000000000000000000000000000000000000000     00000000                                                                                                                        000000000000000000
F0010000006208600005000080016665600013552100000000000000000201408290002001SUMICAL DE ANTIOQUIA S.A.S                        D000000000315800000000000000000000100010010000000000000000000000F0010000006208600520140829000101 00000000000000000000000000000000000000000000000000000000000000000000000000000000000000000000000000000000000000000N 00000000000NCONT   00    00000000000          00000000000000000000000000000000000000000000 000000000000000A000000000000000000000000000000000000000000000 000000000000000000000000000000000000000     00000000                                                                                                                        000000000000000000
F0010000006208700001000104284979700011050500000000000000000201408290002001LUIS COBA ALFARO                                  D000000002200000000000000000000000100010010000000000000000000000F0010000006208700120140829000101 00000000000000000000000000000000000000000000000000000000000000000000000000000000000000000000000000000000000000000N 00000000000NCONT   00    00000000000          00000000000000000000000000000000000000000000 000000000000000A000000000000000000000000000000000000000000000 000000000000000000000000000000000000000     00000000                                                                                                                        000000000000000000
F0010000006208700002000104284979700041450500000000000000000201408290002001LUIS COBA ALFARO                                  C000000001800000000000000000000000100010010000000000000000000000F0010000006208700220140829000101 00000000000000000000000000000000000000000000000000000000000000000000000000000000000000000000000000000000000000000N 00000000000NCONT   00    00000000000          00000000000000000000000000000000000000000000 000000000000000A000000000000000000000000000000000000000000000 000000000000000000000000000000000000000     00000000                                                                                                                        000000000000000000
F0010000006208700003000104284979700042505000000000000000000201408290002001LUIS COBA ALFARO                                  C000000000400000000000000000000000100010010000000000000000000000F0010000006208700320140829000101 00000000000000000000000000000000000000000000000000000000000000000000000000000000000000000000000000000000000000000N 00000000000NCONT   00    00000000000          00000000000000000000000000000000000000000000 000000000000000A000000000000000000000000000000000000000000000 000000000000000000000000000000000000000     00000000                                                                                                                        000000000000000000
F0010000006208700004000104284979700023658300000000000000000201408290002001LUIS COBA ALFARO                                  C000000000014400000000000000000000100010010000000000000000000000F0010000006208700420140829000101 00000000000000000000000000000000000000000000000000000000000000000000000000000000000000000000000000000000000000000N 00000000000NCONT   00    00000000000          00000000000000000000000000000000000000000000 000000000000000A000000000000000000000000000000000000000000000 000000000000000000000000000000000000000     00000000                                                                                                                        000000000000000000
F0010000006208700005000104284979700013552100000000000000000201408290002001LUIS COBA ALFARO                                  D000000000014400000000000000000000100010010000000000000000000000F0010000006208700520140829000101 00000000000000000000000000000000000000000000000000000000000000000000000000000000000000000000000000000000000000000N 00000000000NCONT   00    00000000000          00000000000000000000000000000000000000000000 000000000000000A000000000000000000000000000000000000000000000 000000000000000000000000000000000000000     00000000                                                                                                                        000000000000000000
F0010000006208800001000080201654800011050500000000000000000201408290002001MULTIALUMINIOS NO 1                               D000000006000000000000000000000000100010010000000000000000000000F0010000006208800120140829000101 00000000000000000000000000000000000000000000000000000000000000000000000000000000000000000000000000000000000000000N 00000000000NCONT   00    00000000000          00000000000000000000000000000000000000000000 000000000000000A000000000000000000000000000000000000000000000 000000000000000000000000000000000000000     00000000                                                                                                                        000000000000000000
F0010000006208800002000080201654800041450500000000000000000201408290002001MULTIALUMINIOS NO 1                               C000000005400000000000000000000000100010010000000000000000000000F0010000006208800220140829000101 00000000000000000000000000000000000000000000000000000000000000000000000000000000000000000000000000000000000000000N 00000000000NCONT   00    00000000000          00000000000000000000000000000000000000000000 000000000000000A000000000000000000000000000000000000000000000 000000000000000000000000000000000000000     00000000                                                                                                                        000000000000000000
F0010000006208800003000080201654800042505000000000000000000201408290002001MULTIALUMINIOS NO 1                               C000000000600000000000000000000000100010010000000000000000000000F0010000006208800320140829000101 00000000000000000000000000000000000000000000000000000000000000000000000000000000000000000000000000000000000000000N 00000000000NCONT   00    00000000000          00000000000000000000000000000000000000000000 000000000000000A000000000000000000000000000000000000000000000 000000000000000000000000000000000000000     00000000                                                                                                                        000000000000000000
F0010000006208800004000080201654800023658300000000000000000201408290002001MULTIALUMINIOS NO 1                               C000000000043200000000000000000000100010010000000000000000000000F0010000006208800420140829000101 00000000000000000000000000000000000000000000000000000000000000000000000000000000000000000000000000000000000000000N 00000000000NCONT   00    00000000000          00000000000000000000000000000000000000000000 000000000000000A000000000000000000000000000000000000000000000 000000000000000000000000000000000000000     00000000                                                                                                                        000000000000000000
F0010000006208800005000080201654800013552100000000000000000201408290002001MULTIALUMINIOS NO 1                               D000000000043200000000000000000000100010010000000000000000000000F0010000006208800520140829000101 00000000000000000000000000000000000000000000000000000000000000000000000000000000000000000000000000000000000000000N 00000000000NCONT   00    00000000000          00000000000000000000000000000000000000000000 000000000000000A000000000000000000000000000000000000000000000 000000000000000000000000000000000000000     00000000                                                                                                                        000000000000000000
F0010000006208900001000000808409100011050500000000000000000201408290002001JOSE LUIS TRILLOS BAYONA                          D000000001900000000000000000000000100010010000000000000000000000F0010000006208900120140829000101 00000000000000000000000000000000000000000000000000000000000000000000000000000000000000000000000000000000000000000N 00000000000NCONT   00    00000000000          00000000000000000000000000000000000000000000 000000000000000A000000000000000000000000000000000000000000000 000000000000000000000000000000000000000     00000000                                                                                                                        000000000000000000
F0010000006208900002000000808409100041450500000000000000000201408290002001JOSE LUIS TRILLOS BAYONA                          C000000001800000000000000000000000100010010000000000000000000000F0010000006208900220140829000101 00000000000000000000000000000000000000000000000000000000000000000000000000000000000000000000000000000000000000000N 00000000000NCONT   00    00000000000          00000000000000000000000000000000000000000000 000000000000000A000000000000000000000000000000000000000000000 000000000000000000000000000000000000000     00000000                                                                                                                        000000000000000000
F0010000006208900003000000808409100042505000000000000000000201408290002001JOSE LUIS TRILLOS BAYONA                          C000000000100000000000000000000000100010010000000000000000000000F0010000006208900320140829000101 00000000000000000000000000000000000000000000000000000000000000000000000000000000000000000000000000000000000000000N 00000000000NCONT   00    00000000000          00000000000000000000000000000000000000000000 000000000000000A000000000000000000000000000000000000000000000 000000000000000000000000000000000000000     00000000                                                                                                                        000000000000000000
F0010000006208900004000000808409100023658300000000000000000201408290002001JOSE LUIS TRILLOS BAYONA                          C000000000014400000000000000000000100010010000000000000000000000F0010000006208900420140829000101 00000000000000000000000000000000000000000000000000000000000000000000000000000000000000000000000000000000000000000N 00000000000NCONT   00    00000000000          00000000000000000000000000000000000000000000 000000000000000A000000000000000000000000000000000000000000000 000000000000000000000000000000000000000     00000000                                                                                                                        000000000000000000
F0010000006208900005000000808409100013552100000000000000000201408290002001JOSE LUIS TRILLOS BAYONA                          D000000000014400000000000000000000100010010000000000000000000000F0010000006208900520140829000101 00000000000000000000000000000000000000000000000000000000000000000000000000000000000000000000000000000000000000000N 00000000000NCONT   00    00000000000          00000000000000000000000000000000000000000000 000000000000000A000000000000000000000000000000000000000000000 000000000000000000000000000000000000000     00000000                                                                                                                        000000000000000000
F0010000006209000001000003207718300011050500000000000000000201408290002001GILMA RAMIREZ                                     D000000005000000000000000000000000100010010000000000000000000000F0010000006209000120140829000101 00000000000000000000000000000000000000000000000000000000000000000000000000000000000000000000000000000000000000000N 00000000000NCONT   00    00000000000          00000000000000000000000000000000000000000000 000000000000000A000000000000000000000000000000000000000000000 000000000000000000000000000000000000000     00000000                                                                                                                        000000000000000000
F0010000006209000002000003207718300041450500000000000000000201408290002001GILMA RAMIREZ                                     C000000003500000000000000000000000100010010000000000000000000000F0010000006209000220140829000101 00000000000000000000000000000000000000000000000000000000000000000000000000000000000000000000000000000000000000000N 00000000000NCONT   00    00000000000          00000000000000000000000000000000000000000000 000000000000000A000000000000000000000000000000000000000000000 000000000000000000000000000000000000000     00000000                                                                                                                        000000000000000000
F0010000006209000003000003207718300042505000000000000000000201408290002001GILMA RAMIREZ                                     C000000001500000000000000000000000100010010000000000000000000000F0010000006209000320140829000101 00000000000000000000000000000000000000000000000000000000000000000000000000000000000000000000000000000000000000000N 00000000000NCONT   00    00000000000          00000000000000000000000000000000000000000000 000000000000000A000000000000000000000000000000000000000000000 000000000000000000000000000000000000000     00000000                                                                                                                        000000000000000000
F0010000006209000004000003207718300023658300000000000000000201408290002001GILMA RAMIREZ                                     C000000000028000000000000000000000100010010000000000000000000000F0010000006209000420140829000101 00000000000000000000000000000000000000000000000000000000000000000000000000000000000000000000000000000000000000000N 00000000000NCONT   00    00000000000          00000000000000000000000000000000000000000000 000000000000000A000000000000000000000000000000000000000000000 000000000000000000000000000000000000000     00000000                                                                                                                        000000000000000000
F0010000006209000005000003207718300013552100000000000000000201408290002001GILMA RAMIREZ                                     D000000000028000000000000000000000100010010000000000000000000000F0010000006209000520140829000101 00000000000000000000000000000000000000000000000000000000000000000000000000000000000000000000000000000000000000000N 00000000000NCONT   00    00000000000          00000000000000000000000000000000000000000000 000000000000000A000000000000000000000000000000000000000000000 000000000000000000000000000000000000000     00000000                                                                                                                        000000000000000000
F0010000006209100001000000870427800011050500000000000000000201408290002001CARLOS CHEWIN                                     D000000025000000000000000000000000100010010000000000000000000000F0010000006209100120140829000101 00000000000000000000000000000000000000000000000000000000000000000000000000000000000000000000000000000000000000000N 00000000000NCONT   00    00000000000          00000000000000000000000000000000000000000000 000000000000000A000000000000000000000000000000000000000000000 000000000000000000000000000000000000000     00000000                                                                                                                        000000000000000000
F0010000006209100002000000870427800041450500000000000000000201408290002001CARLOS CHEWIN                                     C000000020000000000000000000000000100010010000000000000000000000F0010000006209100220140829000101 00000000000000000000000000000000000000000000000000000000000000000000000000000000000000000000000000000000000000000N 00000000000NCONT   00    00000000000          00000000000000000000000000000000000000000000 000000000000000A000000000000000000000000000000000000000000000 000000000000000000000000000000000000000     00000000                                                                                                                        000000000000000000
F0010000006209100003000000870427800042505000000000000000000201408290002001CARLOS CHEWIN                                     C000000005000000000000000000000000100010010000000000000000000000F0010000006209100320140829000101 00000000000000000000000000000000000000000000000000000000000000000000000000000000000000000000000000000000000000000N 00000000000NCONT   00    00000000000          00000000000000000000000000000000000000000000 000000000000000A000000000000000000000000000000000000000000000 000000000000000000000000000000000000000     00000000                                                                                                                        000000000000000000
F0010000006209100004000000870427800023658300000000000000000201408290002001CARLOS CHEWIN                                     C000000000160000000000000000000000100010010000000000000000000000F0010000006209100420140829000101 00000000000000000000000000000000000000000000000000000000000000000000000000000000000000000000000000000000000000000N 00000000000NCONT   00    00000000000          00000000000000000000000000000000000000000000 000000000000000A000000000000000000000000000000000000000000000 000000000000000000000000000000000000000     00000000                                                                                                                        000000000000000000
F0010000006209100005000000870427800013552100000000000000000201408290002001CARLOS CHEWIN                                     D000000000160000000000000000000000100010010000000000000000000000F0010000006209100520140829000101 00000000000000000000000000000000000000000000000000000000000000000000000000000000000000000000000000000000000000000N 00000000000NCONT   00    00000000000          00000000000000000000000000000000000000000000 000000000000000A000000000000000000000000000000000000000000000 000000000000000000000000000000000000000     00000000                                                                                                                        000000000000000000
F0010000006209200001000080202486100011050500000000000000000201408290002001DISTRIBUIDORA RAMBAL LTDA                         D000000001300000000000000000000000100010010000000000000000000000F0010000006209200120140829000101 00000000000000000000000000000000000000000000000000000000000000000000000000000000000000000000000000000000000000000N 00000000000NCONT   00    00000000000          00000000000000000000000000000000000000000000 000000000000000A000000000000000000000000000000000000000000000 000000000000000000000000000000000000000     00000000                                                                                                                        000000000000000000
F0010000006209200002000080202486100041450500000000000000000201408290002001DISTRIBUIDORA RAMBAL LTDA                         C000000001200000000000000000000000100010010000000000000000000000F0010000006209200220140829000101 00000000000000000000000000000000000000000000000000000000000000000000000000000000000000000000000000000000000000000N 00000000000NCONT   00    00000000000          00000000000000000000000000000000000000000000 000000000000000A000000000000000000000000000000000000000000000 000000000000000000000000000000000000000     00000000                                                                                                                        000000000000000000
F0010000006209200003000080202486100042505000000000000000000201408290002001DISTRIBUIDORA RAMBAL LTDA                         C000000000100000000000000000000000100010010000000000000000000000F0010000006209200320140829000101 00000000000000000000000000000000000000000000000000000000000000000000000000000000000000000000000000000000000000000N 00000000000NCONT   00    00000000000          00000000000000000000000000000000000000000000 000000000000000A000000000000000000000000000000000000000000000 000000000000000000000000000000000000000     00000000                                                                                                                        000000000000000000
F0010000006209200004000080202486100023658300000000000000000201408290002001DISTRIBUIDORA RAMBAL LTDA                         C000000000009600000000000000000000100010010000000000000000000000F0010000006209200420140829000101 00000000000000000000000000000000000000000000000000000000000000000000000000000000000000000000000000000000000000000N 00000000000NCONT   00    00000000000          00000000000000000000000000000000000000000000 000000000000000A000000000000000000000000000000000000000000000 000000000000000000000000000000000000000     00000000                                                                                                                        000000000000000000
F0010000006209200005000080202486100013552100000000000000000201408290002001DISTRIBUIDORA RAMBAL LTDA                         D000000000009600000000000000000000100010010000000000000000000000F0010000006209200520140829000101 00000000000000000000000000000000000000000000000000000000000000000000000000000000000000000000000000000000000000000N 00000000000NCONT   00    00000000000          00000000000000000000000000000000000000000000 000000000000000A000000000000000000000000000000000000000000000 000000000000000000000000000000000000000     00000000                                                                                                                        000000000000000000
F0010000006209300001000002245670100011050500000000000000000201408290002001YOLANDA  TOBON                                    D000000003000000000000000000000000100010010000000000000000000000F0010000006209300120140829000101 00000000000000000000000000000000000000000000000000000000000000000000000000000000000000000000000000000000000000000N 00000000000NCONT   00    00000000000          00000000000000000000000000000000000000000000 000000000000000A000000000000000000000000000000000000000000000 000000000000000000000000000000000000000     00000000                                                                                                                        000000000000000000
F0010000006209300002000002245670100041450500000000000000000201408290002001YOLANDA  TOBON                                    C000000002500000000000000000000000100010010000000000000000000000F0010000006209300220140829000101 00000000000000000000000000000000000000000000000000000000000000000000000000000000000000000000000000000000000000000N 00000000000NCONT   00    00000000000          00000000000000000000000000000000000000000000 000000000000000A000000000000000000000000000000000000000000000 000000000000000000000000000000000000000     00000000                                                                                                                        000000000000000000
F0010000006209300003000002245670100042505000000000000000000201408290002001YOLANDA  TOBON                                    C000000000500000000000000000000000100010010000000000000000000000F0010000006209300320140829000101 00000000000000000000000000000000000000000000000000000000000000000000000000000000000000000000000000000000000000000N 00000000000NCONT   00    00000000000          00000000000000000000000000000000000000000000 000000000000000A000000000000000000000000000000000000000000000 000000000000000000000000000000000000000     00000000                                                                                                                        000000000000000000
F0010000006209300004000002245670100023658300000000000000000201408290002001YOLANDA  TOBON                                    C000000000020000000000000000000000100010010000000000000000000000F0010000006209300420140829000101 00000000000000000000000000000000000000000000000000000000000000000000000000000000000000000000000000000000000000000N 00000000000NCONT   00    00000000000          00000000000000000000000000000000000000000000 000000000000000A000000000000000000000000000000000000000000000 000000000000000000000000000000000000000     00000000                                                                                                                        000000000000000000
F0010000006209300005000002245670100013552100000000000000000201408290002001YOLANDA  TOBON                                    D000000000020000000000000000000000100010010000000000000000000000F0010000006209300520140829000101 00000000000000000000000000000000000000000000000000000000000000000000000000000000000000000000000000000000000000000N 00000000000NCONT   00    00000000000          00000000000000000000000000000000000000000000 000000000000000A000000000000000000000000000000000000000000000 000000000000000000000000000000000000000     00000000                                                                                                                        000000000000000000
F0010000006209400001000002245670100011050500000000000000000201408290002001YOLANDA  TOBON                                    D000000003200000000000000000000000100010010000000000000000000000F0010000006209400120140829000101 00000000000000000000000000000000000000000000000000000000000000000000000000000000000000000000000000000000000000000N 00000000000NCONT   00    00000000000          00000000000000000000000000000000000000000000 000000000000000A000000000000000000000000000000000000000000000 000000000000000000000000000000000000000     00000000                                                                                                                        000000000000000000
F0010000006209400002000002245670100041450500000000000000000201408290002001YOLANDA  TOBON                                    C000000002300000000000000000000000100010010000000000000000000000F0010000006209400220140829000101 00000000000000000000000000000000000000000000000000000000000000000000000000000000000000000000000000000000000000000N 00000000000NCONT   00    00000000000          00000000000000000000000000000000000000000000 000000000000000A000000000000000000000000000000000000000000000 000000000000000000000000000000000000000     00000000                                                                                                                        000000000000000000
F0010000006209400003000002245670100042505000000000000000000201408290002001YOLANDA  TOBON                                    C000000000900000000000000000000000100010010000000000000000000000F0010000006209400320140829000101 00000000000000000000000000000000000000000000000000000000000000000000000000000000000000000000000000000000000000000N 00000000000NCONT   00    00000000000          00000000000000000000000000000000000000000000 000000000000000A000000000000000000000000000000000000000000000 000000000000000000000000000000000000000     00000000                                                                                                                        000000000000000000
F0010000006209400004000002245670100023658300000000000000000201408290002001YOLANDA  TOBON                                    C000000000018400000000000000000000100010010000000000000000000000F0010000006209400420140829000101 00000000000000000000000000000000000000000000000000000000000000000000000000000000000000000000000000000000000000000N 00000000000NCONT   00    00000000000          00000000000000000000000000000000000000000000 000000000000000A000000000000000000000000000000000000000000000 000000000000000000000000000000000000000     00000000                                                                                                                        000000000000000000
F0010000006209400005000002245670100013552100000000000000000201408290002001YOLANDA  TOBON                                    D000000000018400000000000000000000100010010000000000000000000000F0010000006209400520140829000101 00000000000000000000000000000000000000000000000000000000000000000000000000000000000000000000000000000000000000000N 00000000000NCONT   00    00000000000          00000000000000000000000000000000000000000000 000000000000000A000000000000000000000000000000000000000000000 000000000000000000000000000000000000000     00000000                                                                                                                        000000000000000000
F0010000006209500001000002245670100011050500000000000000000201408290002001YOLANDA  TOBON                                    D000000001600000000000000000000000100010010000000000000000000000F0010000006209500120140829000101 00000000000000000000000000000000000000000000000000000000000000000000000000000000000000000000000000000000000000000N 00000000000NCONT   00    00000000000          00000000000000000000000000000000000000000000 000000000000000A000000000000000000000000000000000000000000000 000000000000000000000000000000000000000     00000000                                                                                                                        000000000000000000
F0010000006209500002000002245670100041450500000000000000000201408290002001YOLANDA  TOBON                                    C000000001400000000000000000000000100010010000000000000000000000F0010000006209500220140829000101 00000000000000000000000000000000000000000000000000000000000000000000000000000000000000000000000000000000000000000N 00000000000NCONT   00    00000000000          00000000000000000000000000000000000000000000 000000000000000A000000000000000000000000000000000000000000000 000000000000000000000000000000000000000     00000000                                                                                                                        000000000000000000
F0010000006209500003000002245670100042505000000000000000000201408290002001YOLANDA  TOBON                                    C000000000200000000000000000000000100010010000000000000000000000F0010000006209500320140829000101 00000000000000000000000000000000000000000000000000000000000000000000000000000000000000000000000000000000000000000N 00000000000NCONT   00    00000000000          00000000000000000000000000000000000000000000 000000000000000A000000000000000000000000000000000000000000000 000000000000000000000000000000000000000     00000000                                                                                                                        000000000000000000
F0010000006209500004000002245670100023658300000000000000000201408290002001YOLANDA  TOBON                                    C000000000011200000000000000000000100010010000000000000000000000F0010000006209500420140829000101 00000000000000000000000000000000000000000000000000000000000000000000000000000000000000000000000000000000000000000N 00000000000NCONT   00    00000000000          00000000000000000000000000000000000000000000 000000000000000A000000000000000000000000000000000000000000000 000000000000000000000000000000000000000     00000000                                                                                                                        000000000000000000
F0010000006209500005000002245670100013552100000000000000000201408290002001YOLANDA  TOBON                                    D000000000011200000000000000000000100010010000000000000000000000F0010000006209500520140829000101 00000000000000000000000000000000000000000000000000000000000000000000000000000000000000000000000000000000000000000N 00000000000NCONT   00    00000000000          00000000000000000000000000000000000000000000 000000000000000A000000000000000000000000000000000000000000000 000000000000000000000000000000000000000     00000000                                                                                                                        000000000000000000
F0010000006209600001000007214782600011050500000000000000000201408290002001OSCAR JOSE LIAN ROCHA                             D000000001100000000000000000000000100010010000000000000000000000F0010000006209600120140829000101 00000000000000000000000000000000000000000000000000000000000000000000000000000000000000000000000000000000000000000N 00000000000NCONT   00    00000000000          00000000000000000000000000000000000000000000 000000000000000A000000000000000000000000000000000000000000000 000000000000000000000000000000000000000     00000000                                                                                                                        000000000000000000
F0010000006209600002000007214782600041450500000000000000000201408290002001OSCAR JOSE LIAN ROCHA                             C000000000900000000000000000000000100010010000000000000000000000F0010000006209600220140829000101 00000000000000000000000000000000000000000000000000000000000000000000000000000000000000000000000000000000000000000N 00000000000NCONT   00    00000000000          00000000000000000000000000000000000000000000 000000000000000A000000000000000000000000000000000000000000000 000000000000000000000000000000000000000     00000000                                                                                                                        000000000000000000
F0010000006209600003000007214782600042505000000000000000000201408290002001OSCAR JOSE LIAN ROCHA                             C000000000200000000000000000000000100010010000000000000000000000F0010000006209600320140829000101 00000000000000000000000000000000000000000000000000000000000000000000000000000000000000000000000000000000000000000N 00000000000NCONT   00    00000000000          00000000000000000000000000000000000000000000 000000000000000A000000000000000000000000000000000000000000000 000000000000000000000000000000000000000     00000000                                                                                                                        000000000000000000
F0010000006209600004000007214782600023658300000000000000000201408290002001OSCAR JOSE LIAN ROCHA                             C000000000007200000000000000000000100010010000000000000000000000F0010000006209600420140829000101 00000000000000000000000000000000000000000000000000000000000000000000000000000000000000000000000000000000000000000N 00000000000NCONT   00    00000000000          00000000000000000000000000000000000000000000 000000000000000A000000000000000000000000000000000000000000000 000000000000000000000000000000000000000     00000000                                                                                                                        000000000000000000
F0010000006209600005000007214782600013552100000000000000000201408290002001OSCAR JOSE LIAN ROCHA                             D000000000007200000000000000000000100010010000000000000000000000F0010000006209600520140829000101 00000000000000000000000000000000000000000000000000000000000000000000000000000000000000000000000000000000000000000N 00000000000NCONT   00    00000000000          00000000000000000000000000000000000000000000 000000000000000A000000000000000000000000000000000000000000000 000000000000000000000000000000000000000     00000000                                                                                                                        000000000000000000
F0010000006209700001000007214782600011050500000000000000000201408290002001OSCAR JOSE LIAN ROCHA                             D000000001000000000000000000000000100010010000000000000000000000F0010000006209700120140829000101 00000000000000000000000000000000000000000000000000000000000000000000000000000000000000000000000000000000000000000N 00000000000NCONT   00    00000000000          00000000000000000000000000000000000000000000 000000000000000A000000000000000000000000000000000000000000000 000000000000000000000000000000000000000     00000000                                                                                                                        000000000000000000
F0010000006209700002000007214782600041450500000000000000000201408290002001OSCAR JOSE LIAN ROCHA                             C000000000900000000000000000000000100010010000000000000000000000F0010000006209700220140829000101 00000000000000000000000000000000000000000000000000000000000000000000000000000000000000000000000000000000000000000N 00000000000NCONT   00    00000000000          00000000000000000000000000000000000000000000 000000000000000A000000000000000000000000000000000000000000000 000000000000000000000000000000000000000     00000000                                                                                                                        000000000000000000
F0010000006209700003000007214782600042505000000000000000000201408290002001OSCAR JOSE LIAN ROCHA                             C000000000100000000000000000000000100010010000000000000000000000F0010000006209700320140829000101 00000000000000000000000000000000000000000000000000000000000000000000000000000000000000000000000000000000000000000N 00000000000NCONT   00    00000000000          00000000000000000000000000000000000000000000 000000000000000A000000000000000000000000000000000000000000000 000000000000000000000000000000000000000     00000000                                                                                                                        000000000000000000
F0010000006209700004000007214782600023658300000000000000000201408290002001OSCAR JOSE LIAN ROCHA                             C000000000007200000000000000000000100010010000000000000000000000F0010000006209700420140829000101 00000000000000000000000000000000000000000000000000000000000000000000000000000000000000000000000000000000000000000N 00000000000NCONT   00    00000000000          00000000000000000000000000000000000000000000 000000000000000A000000000000000000000000000000000000000000000 000000000000000000000000000000000000000     00000000                                                                                                                        000000000000000000
F0010000006209700005000007214782600013552100000000000000000201408290002001OSCAR JOSE LIAN ROCHA                             D000000000007200000000000000000000100010010000000000000000000000F0010000006209700520140829000101 00000000000000000000000000000000000000000000000000000000000000000000000000000000000000000000000000000000000000000N 00000000000NCONT   00    00000000000          00000000000000000000000000000000000000000000 000000000000000A000000000000000000000000000000000000000000000 000000000000000000000000000000000000000     00000000                                                                                                                        000000000000000000
F0010000006209800001000007214782600011050500000000000000000201408290002001OSCAR JOSE LIAN ROCHA                             D000000001100000000000000000000000100010010000000000000000000000F0010000006209800120140829000101 00000000000000000000000000000000000000000000000000000000000000000000000000000000000000000000000000000000000000000N 00000000000NCONT   00    00000000000          00000000000000000000000000000000000000000000 000000000000000A000000000000000000000000000000000000000000000 000000000000000000000000000000000000000     00000000                                                                                                                        000000000000000000
F0010000006209800002000007214782600041450500000000000000000201408290002001OSCAR JOSE LIAN ROCHA                             C000000000900000000000000000000000100010010000000000000000000000F0010000006209800220140829000101 00000000000000000000000000000000000000000000000000000000000000000000000000000000000000000000000000000000000000000N 00000000000NCONT   00    00000000000          00000000000000000000000000000000000000000000 000000000000000A000000000000000000000000000000000000000000000 000000000000000000000000000000000000000     00000000                                                                                                                        000000000000000000
F0010000006209800003000007214782600042505000000000000000000201408290002001OSCAR JOSE LIAN ROCHA                             C000000000200000000000000000000000100010010000000000000000000000F0010000006209800320140829000101 00000000000000000000000000000000000000000000000000000000000000000000000000000000000000000000000000000000000000000N 00000000000NCONT   00    00000000000          00000000000000000000000000000000000000000000 000000000000000A000000000000000000000000000000000000000000000 000000000000000000000000000000000000000     00000000                                                                                                                        000000000000000000
F0010000006209800004000007214782600023658300000000000000000201408290002001OSCAR JOSE LIAN ROCHA                             C000000000007200000000000000000000100010010000000000000000000000F0010000006209800420140829000101 00000000000000000000000000000000000000000000000000000000000000000000000000000000000000000000000000000000000000000N 00000000000NCONT   00    00000000000          00000000000000000000000000000000000000000000 000000000000000A000000000000000000000000000000000000000000000 000000000000000000000000000000000000000     00000000                                                                                                                        000000000000000000
F0010000006209800005000007214782600013552100000000000000000201408290002001OSCAR JOSE LIAN ROCHA                             D000000000007200000000000000000000100010010000000000000000000000F0010000006209800520140829000101 00000000000000000000000000000000000000000000000000000000000000000000000000000000000000000000000000000000000000000N 00000000000NCONT   00    00000000000          00000000000000000000000000000000000000000000 000000000000000A000000000000000000000000000000000000000000000 000000000000000000000000000000000000000     00000000                                                                                                                        000000000000000000
F0010000006209900001000007214782600011050500000000000000000201408290002001OSCAR JOSE LIAN ROCHA                             D000000001000000000000000000000000100010010000000000000000000000F0010000006209900120140829000101 00000000000000000000000000000000000000000000000000000000000000000000000000000000000000000000000000000000000000000N 00000000000NCONT   00    00000000000          00000000000000000000000000000000000000000000 000000000000000A000000000000000000000000000000000000000000000 000000000000000000000000000000000000000     00000000                                                                                                                        000000000000000000
F0010000006209900002000007214782600041450500000000000000000201408290002001OSCAR JOSE LIAN ROCHA                             C000000000900000000000000000000000100010010000000000000000000000F0010000006209900220140829000101 00000000000000000000000000000000000000000000000000000000000000000000000000000000000000000000000000000000000000000N 00000000000NCONT   00    00000000000          00000000000000000000000000000000000000000000 000000000000000A000000000000000000000000000000000000000000000 000000000000000000000000000000000000000     00000000                                                                                                                        000000000000000000
F0010000006209900003000007214782600042505000000000000000000201408290002001OSCAR JOSE LIAN ROCHA                             C000000000100000000000000000000000100010010000000000000000000000F0010000006209900320140829000101 00000000000000000000000000000000000000000000000000000000000000000000000000000000000000000000000000000000000000000N 00000000000NCONT   00    00000000000          00000000000000000000000000000000000000000000 000000000000000A000000000000000000000000000000000000000000000 000000000000000000000000000000000000000     00000000                                                                                                                        000000000000000000
F0010000006209900004000007214782600023658300000000000000000201408290002001OSCAR JOSE LIAN ROCHA                             C000000000007200000000000000000000100010010000000000000000000000F0010000006209900420140829000101 00000000000000000000000000000000000000000000000000000000000000000000000000000000000000000000000000000000000000000N 00000000000NCONT   00    00000000000          00000000000000000000000000000000000000000000 000000000000000A000000000000000000000000000000000000000000000 000000000000000000000000000000000000000     00000000                                                                                                                        000000000000000000
F0010000006209900005000007214782600013552100000000000000000201408290002001OSCAR JOSE LIAN ROCHA                             D000000000007200000000000000000000100010010000000000000000000000F0010000006209900520140829000101 00000000000000000000000000000000000000000000000000000000000000000000000000000000000000000000000000000000000000000N 00000000000NCONT   00    00000000000          00000000000000000000000000000000000000000000 000000000000000A000000000000000000000000000000000000000000000 000000000000000000000000000000000000000     00000000                                                                                                                        000000000000000000
F0010000006210000001000007214782600011050500000000000000000201408290002001OSCAR JOSE LIAN ROCHA                             D000000001000000000000000000000000100010010000000000000000000000F0010000006210000120140829000101 00000000000000000000000000000000000000000000000000000000000000000000000000000000000000000000000000000000000000000N 00000000000NCONT   00    00000000000          00000000000000000000000000000000000000000000 000000000000000A000000000000000000000000000000000000000000000 000000000000000000000000000000000000000     00000000                                                                                                                        000000000000000000
F0010000006210000002000007214782600041450500000000000000000201408290002001OSCAR JOSE LIAN ROCHA                             C000000000900000000000000000000000100010010000000000000000000000F0010000006210000220140829000101 00000000000000000000000000000000000000000000000000000000000000000000000000000000000000000000000000000000000000000N 00000000000NCONT   00    00000000000          00000000000000000000000000000000000000000000 000000000000000A000000000000000000000000000000000000000000000 000000000000000000000000000000000000000     00000000                                                                                                                        000000000000000000
F0010000006210000003000007214782600042505000000000000000000201408290002001OSCAR JOSE LIAN ROCHA                             C000000000100000000000000000000000100010010000000000000000000000F0010000006210000320140829000101 00000000000000000000000000000000000000000000000000000000000000000000000000000000000000000000000000000000000000000N 00000000000NCONT   00    00000000000          00000000000000000000000000000000000000000000 000000000000000A000000000000000000000000000000000000000000000 000000000000000000000000000000000000000     00000000                                                                                                                        000000000000000000
F0010000006210000004000007214782600023658300000000000000000201408290002001OSCAR JOSE LIAN ROCHA                             C000000000007200000000000000000000100010010000000000000000000000F0010000006210000420140829000101 00000000000000000000000000000000000000000000000000000000000000000000000000000000000000000000000000000000000000000N 00000000000NCONT   00    00000000000          00000000000000000000000000000000000000000000 000000000000000A000000000000000000000000000000000000000000000 000000000000000000000000000000000000000     00000000                                                                                                                        000000000000000000
F0010000006210000005000007214782600013552100000000000000000201408290002001OSCAR JOSE LIAN ROCHA                             D000000000007200000000000000000000100010010000000000000000000000F0010000006210000520140829000101 00000000000000000000000000000000000000000000000000000000000000000000000000000000000000000000000000000000000000000N 00000000000NCONT   00    00000000000          00000000000000000000000000000000000000000000 000000000000000A000000000000000000000000000000000000000000000 000000000000000000000000000000000000000     00000000                                                                                                                        000000000000000000
F0010000006210100001000007214782600011050500000000000000000201408290002001OSCAR JOSE LIAN ROCHA                             D000000001100000000000000000000000100010010000000000000000000000F0010000006210100120140829000101 00000000000000000000000000000000000000000000000000000000000000000000000000000000000000000000000000000000000000000N 00000000000NCONT   00    00000000000          00000000000000000000000000000000000000000000 000000000000000A000000000000000000000000000000000000000000000 000000000000000000000000000000000000000     00000000                                                                                                                        000000000000000000
F0010000006210100002000007214782600041450500000000000000000201408290002001OSCAR JOSE LIAN ROCHA                             C000000000900000000000000000000000100010010000000000000000000000F0010000006210100220140829000101 00000000000000000000000000000000000000000000000000000000000000000000000000000000000000000000000000000000000000000N 00000000000NCONT   00    00000000000          00000000000000000000000000000000000000000000 000000000000000A000000000000000000000000000000000000000000000 000000000000000000000000000000000000000     00000000                                                                                                                        000000000000000000
F0010000006210100003000007214782600042505000000000000000000201408290002001OSCAR JOSE LIAN ROCHA                             C000000000200000000000000000000000100010010000000000000000000000F0010000006210100320140829000101 00000000000000000000000000000000000000000000000000000000000000000000000000000000000000000000000000000000000000000N 00000000000NCONT   00    00000000000          00000000000000000000000000000000000000000000 000000000000000A000000000000000000000000000000000000000000000 000000000000000000000000000000000000000     00000000                                                                                                                        000000000000000000
F0010000006210100004000007214782600023658300000000000000000201408290002001OSCAR JOSE LIAN ROCHA                             C000000000007200000000000000000000100010010000000000000000000000F0010000006210100420140829000101 00000000000000000000000000000000000000000000000000000000000000000000000000000000000000000000000000000000000000000N 00000000000NCONT   00    00000000000          00000000000000000000000000000000000000000000 000000000000000A000000000000000000000000000000000000000000000 000000000000000000000000000000000000000     00000000                                                                                                                        000000000000000000
F0010000006210100005000007214782600013552100000000000000000201408290002001OSCAR JOSE LIAN ROCHA                             D000000000007200000000000000000000100010010000000000000000000000F0010000006210100520140829000101 00000000000000000000000000000000000000000000000000000000000000000000000000000000000000000000000000000000000000000N 00000000000NCONT   00    00000000000          00000000000000000000000000000000000000000000 000000000000000A000000000000000000000000000000000000000000000 000000000000000000000000000000000000000     00000000                                                                                                                        000000000000000000
F0010000006210200001000080201411900011050500000000000000000201408290002001PLASTISERVICIOS S DE H                            D000000002200000000000000000000000100010010000000000000000000000F0010000006210200120140829000101 00000000000000000000000000000000000000000000000000000000000000000000000000000000000000000000000000000000000000000N 00000000000NCONT   00    00000000000          00000000000000000000000000000000000000000000 000000000000000A000000000000000000000000000000000000000000000 000000000000000000000000000000000000000     00000000                                                                                                                        000000000000000000
F0010000006210200002000080201411900041450500000000000000000201408290002001PLASTISERVICIOS S DE H                            C000000001800000000000000000000000100010010000000000000000000000F0010000006210200220140829000101 00000000000000000000000000000000000000000000000000000000000000000000000000000000000000000000000000000000000000000N 00000000000NCONT   00    00000000000          00000000000000000000000000000000000000000000 000000000000000A000000000000000000000000000000000000000000000 000000000000000000000000000000000000000     00000000                                                                                                                        000000000000000000
F0010000006210200003000080201411900042505000000000000000000201408290002001PLASTISERVICIOS S DE H                            C000000000400000000000000000000000100010010000000000000000000000F0010000006210200320140829000101 00000000000000000000000000000000000000000000000000000000000000000000000000000000000000000000000000000000000000000N 00000000000NCONT   00    00000000000          00000000000000000000000000000000000000000000 000000000000000A000000000000000000000000000000000000000000000 000000000000000000000000000000000000000     00000000                                                                                                                        000000000000000000
F0010000006210200004000080201411900023658300000000000000000201408290002001PLASTISERVICIOS S DE H                            C000000000014400000000000000000000100010010000000000000000000000F0010000006210200420140829000101 00000000000000000000000000000000000000000000000000000000000000000000000000000000000000000000000000000000000000000N 00000000000NCONT   00    00000000000          00000000000000000000000000000000000000000000 000000000000000A000000000000000000000000000000000000000000000 000000000000000000000000000000000000000     00000000                                                                                                                        000000000000000000
F0010000006210200005000080201411900013552100000000000000000201408290002001PLASTISERVICIOS S DE H                            D000000000014400000000000000000000100010010000000000000000000000F0010000006210200520140829000101 00000000000000000000000000000000000000000000000000000000000000000000000000000000000000000000000000000000000000000N 00000000000NCONT   00    00000000000          00000000000000000000000000000000000000000000 000000000000000A000000000000000000000000000000000000000000000 000000000000000000000000000000000000000     00000000                                                                                                                        000000000000000000
F0010000006210300001000007200205100011050500000000000000000201408290002001LUIS MOLINA                                       D000000000570000000000000000000000100010010000000000000000000000F0010000006210300120140829000101 00000000000000000000000000000000000000000000000000000000000000000000000000000000000000000000000000000000000000000N 00000000000NCONT   00    00000000000          00000000000000000000000000000000000000000000 000000000000000A000000000000000000000000000000000000000000000 000000000000000000000000000000000000000     00000000                                                                                                                        000000000000000000
F0010000006210300002000007200205100041450500000000000000000201408290002001LUIS MOLINA                                       C000000000520000000000000000000000100010010000000000000000000000F0010000006210300220140829000101 00000000000000000000000000000000000000000000000000000000000000000000000000000000000000000000000000000000000000000N 00000000000NCONT   00    00000000000          00000000000000000000000000000000000000000000 000000000000000A000000000000000000000000000000000000000000000 000000000000000000000000000000000000000     00000000                                                                                                                        000000000000000000
F0010000006210300003000007200205100042505000000000000000000201408290002001LUIS MOLINA                                       C000000000050000000000000000000000100010010000000000000000000000F0010000006210300320140829000101 00000000000000000000000000000000000000000000000000000000000000000000000000000000000000000000000000000000000000000N 00000000000NCONT   00    00000000000          00000000000000000000000000000000000000000000 000000000000000A000000000000000000000000000000000000000000000 000000000000000000000000000000000000000     00000000                                                                                                                        000000000000000000
F0010000006210300004000007200205100023658300000000000000000201408290002001LUIS MOLINA                                       C000000000004200000000000000000000100010010000000000000000000000F0010000006210300420140829000101 00000000000000000000000000000000000000000000000000000000000000000000000000000000000000000000000000000000000000000N 00000000000NCONT   00    00000000000          00000000000000000000000000000000000000000000 000000000000000A000000000000000000000000000000000000000000000 000000000000000000000000000000000000000     00000000                                                                                                                        000000000000000000
F0010000006210300005000007200205100013552100000000000000000201408290002001LUIS MOLINA                                       D000000000004200000000000000000000100010010000000000000000000000F0010000006210300520140829000101 00000000000000000000000000000000000000000000000000000000000000000000000000000000000000000000000000000000000000000N 00000000000NCONT   00    00000000000          00000000000000000000000000000000000000000000 000000000000000A000000000000000000000000000000000000000000000 000000000000000000000000000000000000000     00000000                                                                                                                        000000000000000000
F0010000006210400001000107225647100011050500000000000000000201408290002001JHON BYRON DUQUE DONADO (BODEGA JHONIFER)         D000000001100000000000000000000000100010010000000000000000000000F0010000006210400120140829000101 00000000000000000000000000000000000000000000000000000000000000000000000000000000000000000000000000000000000000000N 00000000000NCONT   00    00000000000          00000000000000000000000000000000000000000000 000000000000000A000000000000000000000000000000000000000000000 000000000000000000000000000000000000000     00000000                                                                                                                        000000000000000000
F0010000006210400002000107225647100041450500000000000000000201408290002001JHON BYRON DUQUE DONADO (BODEGA JHONIFER)         C000000000900000000000000000000000100010010000000000000000000000F0010000006210400220140829000101 00000000000000000000000000000000000000000000000000000000000000000000000000000000000000000000000000000000000000000N 00000000000NCONT   00    00000000000          00000000000000000000000000000000000000000000 000000000000000A000000000000000000000000000000000000000000000 000000000000000000000000000000000000000     00000000                                                                                                                        000000000000000000
F0010000006210400003000107225647100042505000000000000000000201408290002001JHON BYRON DUQUE DONADO (BODEGA JHONIFER)         C000000000200000000000000000000000100010010000000000000000000000F0010000006210400320140829000101 00000000000000000000000000000000000000000000000000000000000000000000000000000000000000000000000000000000000000000N 00000000000NCONT   00    00000000000          00000000000000000000000000000000000000000000 000000000000000A000000000000000000000000000000000000000000000 000000000000000000000000000000000000000     00000000                                                                                                                        000000000000000000
F0010000006210400004000107225647100023658300000000000000000201408290002001JHON BYRON DUQUE DONADO (BODEGA JHONIFER)         C000000000007200000000000000000000100010010000000000000000000000F0010000006210400420140829000101 00000000000000000000000000000000000000000000000000000000000000000000000000000000000000000000000000000000000000000N 00000000000NCONT   00    00000000000          00000000000000000000000000000000000000000000 000000000000000A000000000000000000000000000000000000000000000 000000000000000000000000000000000000000     00000000                                                                                                                        000000000000000000
F0010000006210400005000107225647100013552100000000000000000201408290002001JHON BYRON DUQUE DONADO (BODEGA JHONIFER)         D000000000007200000000000000000000100010010000000000000000000000F0010000006210400520140829000101 00000000000000000000000000000000000000000000000000000000000000000000000000000000000000000000000000000000000000000N 00000000000NCONT   00    00000000000          00000000000000000000000000000000000000000000 000000000000000A000000000000000000000000000000000000000000000 000000000000000000000000000000000000000     00000000                                                                                                                        000000000000000000
F0010000006210500001000001022529300011050500000000000000000201408290002001ALBERTO ALVAREZ ISAZA                             D000000000810000000000000000000000100010010000000000000000000000F0010000006210500120140829000101 00000000000000000000000000000000000000000000000000000000000000000000000000000000000000000000000000000000000000000N 00000000000NCONT   00    00000000000          00000000000000000000000000000000000000000000 000000000000000A000000000000000000000000000000000000000000000 000000000000000000000000000000000000000     00000000                                                                                                                        000000000000000000
F0010000006210500002000001022529300041450500000000000000000201408290002001ALBERTO ALVAREZ ISAZA                             C000000000760000000000000000000000100010010000000000000000000000F0010000006210500220140829000101 00000000000000000000000000000000000000000000000000000000000000000000000000000000000000000000000000000000000000000N 00000000000NCONT   00    00000000000          00000000000000000000000000000000000000000000 000000000000000A000000000000000000000000000000000000000000000 000000000000000000000000000000000000000     00000000                                                                                                                        000000000000000000
F0010000006210500003000001022529300042505000000000000000000201408290002001ALBERTO ALVAREZ ISAZA                             C000000000050000000000000000000000100010010000000000000000000000F0010000006210500320140829000101 00000000000000000000000000000000000000000000000000000000000000000000000000000000000000000000000000000000000000000N 00000000000NCONT   00    00000000000          00000000000000000000000000000000000000000000 000000000000000A000000000000000000000000000000000000000000000 000000000000000000000000000000000000000     00000000                                                                                                                        000000000000000000
F0010000006210500004000001022529300023658300000000000000000201408290002001ALBERTO ALVAREZ ISAZA                             C000000000006100000000000000000000100010010000000000000000000000F0010000006210500420140829000101 00000000000000000000000000000000000000000000000000000000000000000000000000000000000000000000000000000000000000000N 00000000000NCONT   00    00000000000          00000000000000000000000000000000000000000000 000000000000000A000000000000000000000000000000000000000000000 000000000000000000000000000000000000000     00000000                                                                                                                        000000000000000000
F0010000006210500005000001022529300013552100000000000000000201408290002001ALBERTO ALVAREZ ISAZA                             D000000000006100000000000000000000100010010000000000000000000000F0010000006210500520140829000101 00000000000000000000000000000000000000000000000000000000000000000000000000000000000000000000000000000000000000000N 00000000000NCONT   00    00000000000          00000000000000000000000000000000000000000000 000000000000000A000000000000000000000000000000000000000000000 000000000000000000000000000000000000000     00000000                                                                                                                        000000000000000000
F0010000006210600001000090024619400011050500000000000000000201408290002001COMERCIALIZADORA SALMAR LTDA                      D000000001200000000000000000000000100010010000000000000000000000F0010000006210600120140829000101 00000000000000000000000000000000000000000000000000000000000000000000000000000000000000000000000000000000000000000N 00000000000NCONT   00    00000000000          00000000000000000000000000000000000000000000 000000000000000A000000000000000000000000000000000000000000000 000000000000000000000000000000000000000     00000000                                                                                                                        000000000000000000
F0010000006210600002000090024619400041450500000000000000000201408290002001COMERCIALIZADORA SALMAR LTDA                      C000000000900000000000000000000000100010010000000000000000000000F0010000006210600220140829000101 00000000000000000000000000000000000000000000000000000000000000000000000000000000000000000000000000000000000000000N 00000000000NCONT   00    00000000000          00000000000000000000000000000000000000000000 000000000000000A000000000000000000000000000000000000000000000 000000000000000000000000000000000000000     00000000                                                                                                                        000000000000000000
F0010000006210600003000090024619400042505000000000000000000201408290002001COMERCIALIZADORA SALMAR LTDA                      C000000000300000000000000000000000100010010000000000000000000000F0010000006210600320140829000101 00000000000000000000000000000000000000000000000000000000000000000000000000000000000000000000000000000000000000000N 00000000000NCONT   00    00000000000          00000000000000000000000000000000000000000000 000000000000000A000000000000000000000000000000000000000000000 000000000000000000000000000000000000000     00000000                                                                                                                        000000000000000000
F0010000006210600004000090024619400023658300000000000000000201408290002001COMERCIALIZADORA SALMAR LTDA                      C000000000007200000000000000000000100010010000000000000000000000F0010000006210600420140829000101 00000000000000000000000000000000000000000000000000000000000000000000000000000000000000000000000000000000000000000N 00000000000NCONT   00    00000000000          00000000000000000000000000000000000000000000 000000000000000A000000000000000000000000000000000000000000000 000000000000000000000000000000000000000     00000000                                                                                                                        000000000000000000
F0010000006210600005000090024619400013552100000000000000000201408290002001COMERCIALIZADORA SALMAR LTDA                      D000000000007200000000000000000000100010010000000000000000000000F0010000006210600520140829000101 00000000000000000000000000000000000000000000000000000000000000000000000000000000000000000000000000000000000000000N 00000000000NCONT   00    00000000000          00000000000000000000000000000000000000000000 000000000000000A000000000000000000000000000000000000000000000 000000000000000000000000000000000000000     00000000                                                                                                                        000000000000000000
F0010000006210700001000002252348100011050500000000000000000201408290002001EL PALACIO DE LA SILLA                            D000000001000000000000000000000000100010010000000000000000000000F0010000006210700120140829000101 00000000000000000000000000000000000000000000000000000000000000000000000000000000000000000000000000000000000000000N 00000000000NCONT   00    00000000000          00000000000000000000000000000000000000000000 000000000000000A000000000000000000000000000000000000000000000 000000000000000000000000000000000000000     00000000                                                                                                                        000000000000000000
F0010000006210700002000002252348100041450500000000000000000201408290002001EL PALACIO DE LA SILLA                            C000000000900000000000000000000000100010010000000000000000000000F0010000006210700220140829000101 00000000000000000000000000000000000000000000000000000000000000000000000000000000000000000000000000000000000000000N 00000000000NCONT   00    00000000000          00000000000000000000000000000000000000000000 000000000000000A000000000000000000000000000000000000000000000 000000000000000000000000000000000000000     00000000                                                                                                                        000000000000000000
F0010000006210700003000002252348100042505000000000000000000201408290002001EL PALACIO DE LA SILLA                            C000000000100000000000000000000000100010010000000000000000000000F0010000006210700320140829000101 00000000000000000000000000000000000000000000000000000000000000000000000000000000000000000000000000000000000000000N 00000000000NCONT   00    00000000000          00000000000000000000000000000000000000000000 000000000000000A000000000000000000000000000000000000000000000 000000000000000000000000000000000000000     00000000                                                                                                                        000000000000000000
F0010000006210700004000002252348100023658300000000000000000201408290002001EL PALACIO DE LA SILLA                            C000000000007200000000000000000000100010010000000000000000000000F0010000006210700420140829000101 00000000000000000000000000000000000000000000000000000000000000000000000000000000000000000000000000000000000000000N 00000000000NCONT   00    00000000000          00000000000000000000000000000000000000000000 000000000000000A000000000000000000000000000000000000000000000 000000000000000000000000000000000000000     00000000                                                                                                                        000000000000000000
F0010000006210700005000002252348100013552100000000000000000201408290002001EL PALACIO DE LA SILLA                            D000000000007200000000000000000000100010010000000000000000000000F0010000006210700520140829000101 00000000000000000000000000000000000000000000000000000000000000000000000000000000000000000000000000000000000000000N 00000000000NCONT   00    00000000000          00000000000000000000000000000000000000000000 000000000000000A000000000000000000000000000000000000000000000 000000000000000000000000000000000000000     00000000                                                                                                                        000000000000000000
F0010000006210800001000104741412700011050500000000000000000201408290002001BERTHA CEBALLOS                                   D000000019000000000000000000000000100010010000000000000000000000F0010000006210800120140829000101 00000000000000000000000000000000000000000000000000000000000000000000000000000000000000000000000000000000000000000N 00000000000NCONT   00    00000000000          00000000000000000000000000000000000000000000 000000000000000A000000000000000000000000000000000000000000000 000000000000000000000000000000000000000     00000000                                                                                                                        000000000000000000
F0010000006210800002000104741412700041450500000000000000000201408290002001BERTHA CEBALLOS                                   C000000018000000000000000000000000100010010000000000000000000000F0010000006210800220140829000101 00000000000000000000000000000000000000000000000000000000000000000000000000000000000000000000000000000000000000000N 00000000000NCONT   00    00000000000          00000000000000000000000000000000000000000000 000000000000000A000000000000000000000000000000000000000000000 000000000000000000000000000000000000000     00000000                                                                                                                        000000000000000000
F0010000006210800003000104741412700042505000000000000000000201408290002001BERTHA CEBALLOS                                   C000000001000000000000000000000000100010010000000000000000000000F0010000006210800320140829000101 00000000000000000000000000000000000000000000000000000000000000000000000000000000000000000000000000000000000000000N 00000000000NCONT   00    00000000000          00000000000000000000000000000000000000000000 000000000000000A000000000000000000000000000000000000000000000 000000000000000000000000000000000000000     00000000                                                                                                                        000000000000000000
F0010000006210800004000104741412700023658300000000000000000201408290002001BERTHA CEBALLOS                                   C000000000144000000000000000000000100010010000000000000000000000F0010000006210800420140829000101 00000000000000000000000000000000000000000000000000000000000000000000000000000000000000000000000000000000000000000N 00000000000NCONT   00    00000000000          00000000000000000000000000000000000000000000 000000000000000A000000000000000000000000000000000000000000000 000000000000000000000000000000000000000     00000000                                                                                                                        000000000000000000
F0010000006210800005000104741412700013552100000000000000000201408290002001BERTHA CEBALLOS                                   D000000000144000000000000000000000100010010000000000000000000000F0010000006210800520140829000101 00000000000000000000000000000000000000000000000000000000000000000000000000000000000000000000000000000000000000000N 00000000000NCONT   00    00000000000          00000000000000000000000000000000000000000000 000000000000000A000000000000000000000000000000000000000000000 000000000000000000000000000000000000000     00000000                                                                                                                        000000000000000000
F0010000006210900001000090037350200011050500000000000000000201408290002001JIMAR C Y J LTDA                                  D000000001000000000000000000000000100010010000000000000000000000F0010000006210900120140829000101 00000000000000000000000000000000000000000000000000000000000000000000000000000000000000000000000000000000000000000N 00000000000NCONT   00    00000000000          00000000000000000000000000000000000000000000 000000000000000A000000000000000000000000000000000000000000000 000000000000000000000000000000000000000     00000000                                                                                                                        000000000000000000
F0010000006210900002000090037350200041450500000000000000000201408290002001JIMAR C Y J LTDA                                  C000000000900000000000000000000000100010010000000000000000000000F0010000006210900220140829000101 00000000000000000000000000000000000000000000000000000000000000000000000000000000000000000000000000000000000000000N 00000000000NCONT   00    00000000000          00000000000000000000000000000000000000000000 000000000000000A000000000000000000000000000000000000000000000 000000000000000000000000000000000000000     00000000                                                                                                                        000000000000000000
F0010000006210900003000090037350200042505000000000000000000201408290002001JIMAR C Y J LTDA                                  C000000000100000000000000000000000100010010000000000000000000000F0010000006210900320140829000101 00000000000000000000000000000000000000000000000000000000000000000000000000000000000000000000000000000000000000000N 00000000000NCONT   00    00000000000          00000000000000000000000000000000000000000000 000000000000000A000000000000000000000000000000000000000000000 000000000000000000000000000000000000000     00000000                                                                                                                        000000000000000000
F0010000006210900004000090037350200023658300000000000000000201408290002001JIMAR C Y J LTDA                                  C000000000007200000000000000000000100010010000000000000000000000F0010000006210900420140829000101 00000000000000000000000000000000000000000000000000000000000000000000000000000000000000000000000000000000000000000N 00000000000NCONT   00    00000000000          00000000000000000000000000000000000000000000 000000000000000A000000000000000000000000000000000000000000000 000000000000000000000000000000000000000     00000000                                                                                                                        000000000000000000
F0010000006210900005000090037350200013552100000000000000000201408290002001JIMAR C Y J LTDA                                  D000000000007200000000000000000000100010010000000000000000000000F0010000006210900520140829000101 00000000000000000000000000000000000000000000000000000000000000000000000000000000000000000000000000000000000000000N 00000000000NCONT   00    00000000000          00000000000000000000000000000000000000000000 000000000000000A000000000000000000000000000000000000000000000 000000000000000000000000000000000000000     00000000                                                                                                                        000000000000000000
F0010000006211000001000086000061500011050500000000000000000201408290002001DISTRIBUIDORA CORDOBA                             D000000001800000000000000000000000100010010000000000000000000000F0010000006211000120140829000101 00000000000000000000000000000000000000000000000000000000000000000000000000000000000000000000000000000000000000000N 00000000000NCONT   00    00000000000          00000000000000000000000000000000000000000000 000000000000000A000000000000000000000000000000000000000000000 000000000000000000000000000000000000000     00000000                                                                                                                        000000000000000000
F0010000006211000002000086000061500041450500000000000000000201408290002001DISTRIBUIDORA CORDOBA                             C000000001700000000000000000000000100010010000000000000000000000F0010000006211000220140829000101 00000000000000000000000000000000000000000000000000000000000000000000000000000000000000000000000000000000000000000N 00000000000NCONT   00    00000000000          00000000000000000000000000000000000000000000 000000000000000A000000000000000000000000000000000000000000000 000000000000000000000000000000000000000     00000000                                                                                                                        000000000000000000
F0010000006211000003000086000061500042505000000000000000000201408290002001DISTRIBUIDORA CORDOBA                             C000000000100000000000000000000000100010010000000000000000000000F0010000006211000320140829000101 00000000000000000000000000000000000000000000000000000000000000000000000000000000000000000000000000000000000000000N 00000000000NCONT   00    00000000000          00000000000000000000000000000000000000000000 000000000000000A000000000000000000000000000000000000000000000 000000000000000000000000000000000000000     00000000                                                                                                                        000000000000000000
F0010000006211000004000086000061500023658300000000000000000201408290002001DISTRIBUIDORA CORDOBA                             C000000000013600000000000000000000100010010000000000000000000000F0010000006211000420140829000101 00000000000000000000000000000000000000000000000000000000000000000000000000000000000000000000000000000000000000000N 00000000000NCONT   00    00000000000          00000000000000000000000000000000000000000000 000000000000000A000000000000000000000000000000000000000000000 000000000000000000000000000000000000000     00000000                                                                                                                        000000000000000000
F0010000006211000005000086000061500013552100000000000000000201408290002001DISTRIBUIDORA CORDOBA                             D000000000013600000000000000000000100010010000000000000000000000F0010000006211000520140829000101 00000000000000000000000000000000000000000000000000000000000000000000000000000000000000000000000000000000000000000N 00000000000NCONT   00    00000000000          00000000000000000000000000000000000000000000 000000000000000A000000000000000000000000000000000000000000000 000000000000000000000000000000000000000     00000000                                                                                                                        000000000000000000
F0010000006211100001000083007900600011050500000000000000000201408290002001EXPRESO ANDINO DE CARGA SA                        D000000001000000000000000000000000100010010000000000000000000000F0010000006211100120140829000101 00000000000000000000000000000000000000000000000000000000000000000000000000000000000000000000000000000000000000000N 00000000000NCONT   00    00000000000          00000000000000000000000000000000000000000000 000000000000000A000000000000000000000000000000000000000000000 000000000000000000000000000000000000000     00000000                                                                                                                        000000000000000000
F0010000006211100002000083007900600041450500000000000000000201408290002001EXPRESO ANDINO DE CARGA SA                        C000000000900000000000000000000000100010010000000000000000000000F0010000006211100220140829000101 00000000000000000000000000000000000000000000000000000000000000000000000000000000000000000000000000000000000000000N 00000000000NCONT   00    00000000000          00000000000000000000000000000000000000000000 000000000000000A000000000000000000000000000000000000000000000 000000000000000000000000000000000000000     00000000                                                                                                                        000000000000000000
F0010000006211100003000083007900600042505000000000000000000201408290002001EXPRESO ANDINO DE CARGA SA                        C000000000100000000000000000000000100010010000000000000000000000F0010000006211100320140829000101 00000000000000000000000000000000000000000000000000000000000000000000000000000000000000000000000000000000000000000N 00000000000NCONT   00    00000000000          00000000000000000000000000000000000000000000 000000000000000A000000000000000000000000000000000000000000000 000000000000000000000000000000000000000     00000000                                                                                                                        000000000000000000
F0010000006211100004000083007900600023658300000000000000000201408290002001EXPRESO ANDINO DE CARGA SA                        C000000000007200000000000000000000100010010000000000000000000000F0010000006211100420140829000101 00000000000000000000000000000000000000000000000000000000000000000000000000000000000000000000000000000000000000000N 00000000000NCONT   00    00000000000          00000000000000000000000000000000000000000000 000000000000000A000000000000000000000000000000000000000000000 000000000000000000000000000000000000000     00000000                                                                                                                        000000000000000000
F0010000006211100005000083007900600013552100000000000000000201408290002001EXPRESO ANDINO DE CARGA SA                        D000000000007200000000000000000000100010010000000000000000000000F0010000006211100520140829000101 00000000000000000000000000000000000000000000000000000000000000000000000000000000000000000000000000000000000000000N 00000000000NCONT   00    00000000000          00000000000000000000000000000000000000000000 000000000000000A000000000000000000000000000000000000000000000 000000000000000000000000000000000000000     00000000                                                                                                                        000000000000000000
