F0010000007798400001000083008772100011050500000000000000000201510240002001ILUMEC SAS                                        D000000008500000000000000000000000100010010000000000000000000000F0010000007798400120151024000101 00000000000000000000000000000000000000000000000000000000000000000000000000000000000000000000000000000000000000000N 00000000000NCONT   00    00000000000          00000000000000000000000000000000000000000000 000000000000000A000000000000000000000000000000000000000000000 000000000000000000000000000000000000000     00000000                                                                                                                        000000000000000000
F0010000007798400002000083008772100041450500000000000000000201510240002001ILUMEC SAS                                        C000000007000000000000000000000000100010010000000000000000000000F0010000007798400220151024000101 00000000000000000000000000000000000000000000000000000000000000000000000000000000000000000000000000000000000000000N 00000000000NCONT   00    00000000000          00000000000000000000000000000000000000000000 000000000000000A000000000000000000000000000000000000000000000 000000000000000000000000000000000000000     00000000                                                                                                                        000000000000000000
F0010000007798400003000083008772100042505000000000000000000201510240002001ILUMEC SAS                                        C000000001500000000000000000000000100010010000000000000000000000F0010000007798400320151024000101 00000000000000000000000000000000000000000000000000000000000000000000000000000000000000000000000000000000000000000N 00000000000NCONT   00    00000000000          00000000000000000000000000000000000000000000 000000000000000A000000000000000000000000000000000000000000000 000000000000000000000000000000000000000     00000000                                                                                                                        000000000000000000
F0010000007798400004000083008772100023658300000000000000000201510240002001ILUMEC SAS                                        C000000000056000000000000000000000100010010000000000000000000000F0010000007798400420151024000101 00000000000000000000000000000000000000000000000000000000000000000000000000000000000000000000000000000000000000000N 00000000000NCONT   00    00000000000          00000000000000000000000000000000000000000000 000000000000000A000000000000000000000000000000000000000000000 000000000000000000000000000000000000000     00000000                                                                                                                        000000000000000000
F0010000007798400005000083008772100013552100000000000000000201510240002001ILUMEC SAS                                        D000000000056000000000000000000000100010010000000000000000000000F0010000007798400520151024000101 00000000000000000000000000000000000000000000000000000000000000000000000000000000000000000000000000000000000000000N 00000000000NCONT   00    00000000000          00000000000000000000000000000000000000000000 000000000000000A000000000000000000000000000000000000000000000 000000000000000000000000000000000000000     00000000                                                                                                                        000000000000000000
F0010000007798500001000090037350200011050500000000000000000201510240002001JIMAR C Y J LTDA                                  D000000002400000000000000000000000100010010000000000000000000000F0010000007798500120151024000101 00000000000000000000000000000000000000000000000000000000000000000000000000000000000000000000000000000000000000000N 00000000000NCONT   00    00000000000          00000000000000000000000000000000000000000000 000000000000000A000000000000000000000000000000000000000000000 000000000000000000000000000000000000000     00000000                                                                                                                        000000000000000000
F0010000007798500002000090037350200041450500000000000000000201510240002001JIMAR C Y J LTDA                                  C000000002000000000000000000000000100010010000000000000000000000F0010000007798500220151024000101 00000000000000000000000000000000000000000000000000000000000000000000000000000000000000000000000000000000000000000N 00000000000NCONT   00    00000000000          00000000000000000000000000000000000000000000 000000000000000A000000000000000000000000000000000000000000000 000000000000000000000000000000000000000     00000000                                                                                                                        000000000000000000
F0010000007798500003000090037350200042505000000000000000000201510240002001JIMAR C Y J LTDA                                  C000000000400000000000000000000000100010010000000000000000000000F0010000007798500320151024000101 00000000000000000000000000000000000000000000000000000000000000000000000000000000000000000000000000000000000000000N 00000000000NCONT   00    00000000000          00000000000000000000000000000000000000000000 000000000000000A000000000000000000000000000000000000000000000 000000000000000000000000000000000000000     00000000                                                                                                                        000000000000000000
F0010000007798500004000090037350200023658300000000000000000201510240002001JIMAR C Y J LTDA                                  C000000000016000000000000000000000100010010000000000000000000000F0010000007798500420151024000101 00000000000000000000000000000000000000000000000000000000000000000000000000000000000000000000000000000000000000000N 00000000000NCONT   00    00000000000          00000000000000000000000000000000000000000000 000000000000000A000000000000000000000000000000000000000000000 000000000000000000000000000000000000000     00000000                                                                                                                        000000000000000000
F0010000007798500005000090037350200013552100000000000000000201510240002001JIMAR C Y J LTDA                                  D000000000016000000000000000000000100010010000000000000000000000F0010000007798500520151024000101 00000000000000000000000000000000000000000000000000000000000000000000000000000000000000000000000000000000000000000N 00000000000NCONT   00    00000000000          00000000000000000000000000000000000000000000 000000000000000A000000000000000000000000000000000000000000000 000000000000000000000000000000000000000     00000000                                                                                                                        000000000000000000
F0010000007798600001000090061349300011050500000000000000000201510240002001GLOBAL DE ALUMINIO S.A.S                          D000000002000000000000000000000000100010010000000000000000000000F0010000007798600120151024000101 00000000000000000000000000000000000000000000000000000000000000000000000000000000000000000000000000000000000000000N 00000000000NCONT   00    00000000000          00000000000000000000000000000000000000000000 000000000000000A000000000000000000000000000000000000000000000 000000000000000000000000000000000000000     00000000                                                                                                                        000000000000000000
F0010000007798600002000090061349300041450500000000000000000201510240002001GLOBAL DE ALUMINIO S.A.S                          C000000001900000000000000000000000100010010000000000000000000000F0010000007798600220151024000101 00000000000000000000000000000000000000000000000000000000000000000000000000000000000000000000000000000000000000000N 00000000000NCONT   00    00000000000          00000000000000000000000000000000000000000000 000000000000000A000000000000000000000000000000000000000000000 000000000000000000000000000000000000000     00000000                                                                                                                        000000000000000000
F0010000007798600003000090061349300042505000000000000000000201510240002001GLOBAL DE ALUMINIO S.A.S                          C000000000100000000000000000000000100010010000000000000000000000F0010000007798600320151024000101 00000000000000000000000000000000000000000000000000000000000000000000000000000000000000000000000000000000000000000N 00000000000NCONT   00    00000000000          00000000000000000000000000000000000000000000 000000000000000A000000000000000000000000000000000000000000000 000000000000000000000000000000000000000     00000000                                                                                                                        000000000000000000
F0010000007798600004000090061349300023658300000000000000000201510240002001GLOBAL DE ALUMINIO S.A.S                          C000000000015200000000000000000000100010010000000000000000000000F0010000007798600420151024000101 00000000000000000000000000000000000000000000000000000000000000000000000000000000000000000000000000000000000000000N 00000000000NCONT   00    00000000000          00000000000000000000000000000000000000000000 000000000000000A000000000000000000000000000000000000000000000 000000000000000000000000000000000000000     00000000                                                                                                                        000000000000000000
F0010000007798600005000090061349300013552100000000000000000201510240002001GLOBAL DE ALUMINIO S.A.S                          D000000000015200000000000000000000100010010000000000000000000000F0010000007798600520151024000101 00000000000000000000000000000000000000000000000000000000000000000000000000000000000000000000000000000000000000000N 00000000000NCONT   00    00000000000          00000000000000000000000000000000000000000000 000000000000000A000000000000000000000000000000000000000000000 000000000000000000000000000000000000000     00000000                                                                                                                        000000000000000000
F0010000007798700001000000908086400011050500000000000000000201510240002001JOSE DEL CRISTO SANES FERNANDEZ                   D000000006300000000000000000000000100010010000000000000000000000F0010000007798700120151024000101 00000000000000000000000000000000000000000000000000000000000000000000000000000000000000000000000000000000000000000N 00000000000NCONT   00    00000000000          00000000000000000000000000000000000000000000 000000000000000A000000000000000000000000000000000000000000000 000000000000000000000000000000000000000     00000000                                                                                                                        000000000000000000
F0010000007798700002000000908086400041450500000000000000000201510240002001JOSE DEL CRISTO SANES FERNANDEZ                   C000000005400000000000000000000000100010010000000000000000000000F0010000007798700220151024000101 00000000000000000000000000000000000000000000000000000000000000000000000000000000000000000000000000000000000000000N 00000000000NCONT   00    00000000000          00000000000000000000000000000000000000000000 000000000000000A000000000000000000000000000000000000000000000 000000000000000000000000000000000000000     00000000                                                                                                                        000000000000000000
F0010000007798700003000000908086400042505000000000000000000201510240002001JOSE DEL CRISTO SANES FERNANDEZ                   C000000000900000000000000000000000100010010000000000000000000000F0010000007798700320151024000101 00000000000000000000000000000000000000000000000000000000000000000000000000000000000000000000000000000000000000000N 00000000000NCONT   00    00000000000          00000000000000000000000000000000000000000000 000000000000000A000000000000000000000000000000000000000000000 000000000000000000000000000000000000000     00000000                                                                                                                        000000000000000000
F0010000007798700004000000908086400023658300000000000000000201510240002001JOSE DEL CRISTO SANES FERNANDEZ                   C000000000043200000000000000000000100010010000000000000000000000F0010000007798700420151024000101 00000000000000000000000000000000000000000000000000000000000000000000000000000000000000000000000000000000000000000N 00000000000NCONT   00    00000000000          00000000000000000000000000000000000000000000 000000000000000A000000000000000000000000000000000000000000000 000000000000000000000000000000000000000     00000000                                                                                                                        000000000000000000
F0010000007798700005000000908086400013552100000000000000000201510240002001JOSE DEL CRISTO SANES FERNANDEZ                   D000000000043200000000000000000000100010010000000000000000000000F0010000007798700520151024000101 00000000000000000000000000000000000000000000000000000000000000000000000000000000000000000000000000000000000000000N 00000000000NCONT   00    00000000000          00000000000000000000000000000000000000000000 000000000000000A000000000000000000000000000000000000000000000 000000000000000000000000000000000000000     00000000                                                                                                                        000000000000000000
F0010000007798800001000080201703900011050500000000000000000201510240002001MUNDIAL CHEMICAL LTDA                             D000000001050000000000000000000000100010010000000000000000000000F0010000007798800120151024000101 00000000000000000000000000000000000000000000000000000000000000000000000000000000000000000000000000000000000000000N 00000000000NCONT   00    00000000000          00000000000000000000000000000000000000000000 000000000000000A000000000000000000000000000000000000000000000 000000000000000000000000000000000000000     00000000                                                                                                                        000000000000000000
F0010000007798800002000080201703900041450500000000000000000201510240002001MUNDIAL CHEMICAL LTDA                             C000000000830000000000000000000000100010010000000000000000000000F0010000007798800220151024000101 00000000000000000000000000000000000000000000000000000000000000000000000000000000000000000000000000000000000000000N 00000000000NCONT   00    00000000000          00000000000000000000000000000000000000000000 000000000000000A000000000000000000000000000000000000000000000 000000000000000000000000000000000000000     00000000                                                                                                                        000000000000000000
F0010000007798800003000080201703900042505000000000000000000201510240002001MUNDIAL CHEMICAL LTDA                             C000000000220000000000000000000000100010010000000000000000000000F0010000007798800320151024000101 00000000000000000000000000000000000000000000000000000000000000000000000000000000000000000000000000000000000000000N 00000000000NCONT   00    00000000000          00000000000000000000000000000000000000000000 000000000000000A000000000000000000000000000000000000000000000 000000000000000000000000000000000000000     00000000                                                                                                                        000000000000000000
F0010000007798800004000080201703900023658300000000000000000201510240002001MUNDIAL CHEMICAL LTDA                             C000000000006600000000000000000000100010010000000000000000000000F0010000007798800420151024000101 00000000000000000000000000000000000000000000000000000000000000000000000000000000000000000000000000000000000000000N 00000000000NCONT   00    00000000000          00000000000000000000000000000000000000000000 000000000000000A000000000000000000000000000000000000000000000 000000000000000000000000000000000000000     00000000                                                                                                                        000000000000000000
F0010000007798800005000080201703900013552100000000000000000201510240002001MUNDIAL CHEMICAL LTDA                             D000000000006600000000000000000000100010010000000000000000000000F0010000007798800520151024000101 00000000000000000000000000000000000000000000000000000000000000000000000000000000000000000000000000000000000000000N 00000000000NCONT   00    00000000000          00000000000000000000000000000000000000000000 000000000000000A000000000000000000000000000000000000000000000 000000000000000000000000000000000000000     00000000                                                                                                                        000000000000000000
F0010000007798900001000090052543100011050500000000000000000201510240002001SECRET COLOR SAS                                  D000000000400000000000000000000000100010010000000000000000000000F0010000007798900120151024000101 00000000000000000000000000000000000000000000000000000000000000000000000000000000000000000000000000000000000000000N 00000000000NCONT   00    00000000000          00000000000000000000000000000000000000000000 000000000000000A000000000000000000000000000000000000000000000 000000000000000000000000000000000000000     00000000                                                                                                                        000000000000000000
F0010000007798900002000090052543100041450500000000000000000201510240002001SECRET COLOR SAS                                  C000000000300000000000000000000000100010010000000000000000000000F0010000007798900220151024000101 00000000000000000000000000000000000000000000000000000000000000000000000000000000000000000000000000000000000000000N 00000000000NCONT   00    00000000000          00000000000000000000000000000000000000000000 000000000000000A000000000000000000000000000000000000000000000 000000000000000000000000000000000000000     00000000                                                                                                                        000000000000000000
F0010000007798900003000090052543100042505000000000000000000201510240002001SECRET COLOR SAS                                  C000000000100000000000000000000000100010010000000000000000000000F0010000007798900320151024000101 00000000000000000000000000000000000000000000000000000000000000000000000000000000000000000000000000000000000000000N 00000000000NCONT   00    00000000000          00000000000000000000000000000000000000000000 000000000000000A000000000000000000000000000000000000000000000 000000000000000000000000000000000000000     00000000                                                                                                                        000000000000000000
F0010000007798900004000090052543100023658300000000000000000201510240002001SECRET COLOR SAS                                  C000000000002400000000000000000000100010010000000000000000000000F0010000007798900420151024000101 00000000000000000000000000000000000000000000000000000000000000000000000000000000000000000000000000000000000000000N 00000000000NCONT   00    00000000000          00000000000000000000000000000000000000000000 000000000000000A000000000000000000000000000000000000000000000 000000000000000000000000000000000000000     00000000                                                                                                                        000000000000000000
F0010000007798900005000090052543100013552100000000000000000201510240002001SECRET COLOR SAS                                  D000000000002400000000000000000000100010010000000000000000000000F0010000007798900520151024000101 00000000000000000000000000000000000000000000000000000000000000000000000000000000000000000000000000000000000000000N 00000000000NCONT   00    00000000000          00000000000000000000000000000000000000000000 000000000000000A000000000000000000000000000000000000000000000 000000000000000000000000000000000000000     00000000                                                                                                                        000000000000000000
F0010000007799000001000090052543100011050500000000000000000201510240002001SECRET COLOR SAS                                  D000000000400000000000000000000000100010010000000000000000000000F0010000007799000120151024000101 00000000000000000000000000000000000000000000000000000000000000000000000000000000000000000000000000000000000000000N 00000000000NCONT   00    00000000000          00000000000000000000000000000000000000000000 000000000000000A000000000000000000000000000000000000000000000 000000000000000000000000000000000000000     00000000                                                                                                                        000000000000000000
F0010000007799000002000090052543100041450500000000000000000201510240002001SECRET COLOR SAS                                  C000000000300000000000000000000000100010010000000000000000000000F0010000007799000220151024000101 00000000000000000000000000000000000000000000000000000000000000000000000000000000000000000000000000000000000000000N 00000000000NCONT   00    00000000000          00000000000000000000000000000000000000000000 000000000000000A000000000000000000000000000000000000000000000 000000000000000000000000000000000000000     00000000                                                                                                                        000000000000000000
F0010000007799000003000090052543100042505000000000000000000201510240002001SECRET COLOR SAS                                  C000000000100000000000000000000000100010010000000000000000000000F0010000007799000320151024000101 00000000000000000000000000000000000000000000000000000000000000000000000000000000000000000000000000000000000000000N 00000000000NCONT   00    00000000000          00000000000000000000000000000000000000000000 000000000000000A000000000000000000000000000000000000000000000 000000000000000000000000000000000000000     00000000                                                                                                                        000000000000000000
F0010000007799000004000090052543100023658300000000000000000201510240002001SECRET COLOR SAS                                  C000000000002400000000000000000000100010010000000000000000000000F0010000007799000420151024000101 00000000000000000000000000000000000000000000000000000000000000000000000000000000000000000000000000000000000000000N 00000000000NCONT   00    00000000000          00000000000000000000000000000000000000000000 000000000000000A000000000000000000000000000000000000000000000 000000000000000000000000000000000000000     00000000                                                                                                                        000000000000000000
F0010000007799000005000090052543100013552100000000000000000201510240002001SECRET COLOR SAS                                  D000000000002400000000000000000000100010010000000000000000000000F0010000007799000520151024000101 00000000000000000000000000000000000000000000000000000000000000000000000000000000000000000000000000000000000000000N 00000000000NCONT   00    00000000000          00000000000000000000000000000000000000000000 000000000000000A000000000000000000000000000000000000000000000 000000000000000000000000000000000000000     00000000                                                                                                                        000000000000000000
F0010000007799100001000090052543100011050500000000000000000201510240002001SECRET COLOR SAS                                  D000000000400000000000000000000000100010010000000000000000000000F0010000007799100120151024000101 00000000000000000000000000000000000000000000000000000000000000000000000000000000000000000000000000000000000000000N 00000000000NCONT   00    00000000000          00000000000000000000000000000000000000000000 000000000000000A000000000000000000000000000000000000000000000 000000000000000000000000000000000000000     00000000                                                                                                                        000000000000000000
F0010000007799100002000090052543100041450500000000000000000201510240002001SECRET COLOR SAS                                  C000000000300000000000000000000000100010010000000000000000000000F0010000007799100220151024000101 00000000000000000000000000000000000000000000000000000000000000000000000000000000000000000000000000000000000000000N 00000000000NCONT   00    00000000000          00000000000000000000000000000000000000000000 000000000000000A000000000000000000000000000000000000000000000 000000000000000000000000000000000000000     00000000                                                                                                                        000000000000000000
F0010000007799100003000090052543100042505000000000000000000201510240002001SECRET COLOR SAS                                  C000000000100000000000000000000000100010010000000000000000000000F0010000007799100320151024000101 00000000000000000000000000000000000000000000000000000000000000000000000000000000000000000000000000000000000000000N 00000000000NCONT   00    00000000000          00000000000000000000000000000000000000000000 000000000000000A000000000000000000000000000000000000000000000 000000000000000000000000000000000000000     00000000                                                                                                                        000000000000000000
F0010000007799100004000090052543100023658300000000000000000201510240002001SECRET COLOR SAS                                  C000000000002400000000000000000000100010010000000000000000000000F0010000007799100420151024000101 00000000000000000000000000000000000000000000000000000000000000000000000000000000000000000000000000000000000000000N 00000000000NCONT   00    00000000000          00000000000000000000000000000000000000000000 000000000000000A000000000000000000000000000000000000000000000 000000000000000000000000000000000000000     00000000                                                                                                                        000000000000000000
F0010000007799100005000090052543100013552100000000000000000201510240002001SECRET COLOR SAS                                  D000000000002400000000000000000000100010010000000000000000000000F0010000007799100520151024000101 00000000000000000000000000000000000000000000000000000000000000000000000000000000000000000000000000000000000000000N 00000000000NCONT   00    00000000000          00000000000000000000000000000000000000000000 000000000000000A000000000000000000000000000000000000000000000 000000000000000000000000000000000000000     00000000                                                                                                                        000000000000000000
F0010000007799200001000090052543100011050500000000000000000201510240002001SECRET COLOR SAS                                  D000000000800000000000000000000000100010010000000000000000000000F0010000007799200120151024000101 00000000000000000000000000000000000000000000000000000000000000000000000000000000000000000000000000000000000000000N 00000000000NCONT   00    00000000000          00000000000000000000000000000000000000000000 000000000000000A000000000000000000000000000000000000000000000 000000000000000000000000000000000000000     00000000                                                                                                                        000000000000000000
F0010000007799200002000090052543100041450500000000000000000201510240002001SECRET COLOR SAS                                  C000000000700000000000000000000000100010010000000000000000000000F0010000007799200220151024000101 00000000000000000000000000000000000000000000000000000000000000000000000000000000000000000000000000000000000000000N 00000000000NCONT   00    00000000000          00000000000000000000000000000000000000000000 000000000000000A000000000000000000000000000000000000000000000 000000000000000000000000000000000000000     00000000                                                                                                                        000000000000000000
F0010000007799200003000090052543100042505000000000000000000201510240002001SECRET COLOR SAS                                  C000000000100000000000000000000000100010010000000000000000000000F0010000007799200320151024000101 00000000000000000000000000000000000000000000000000000000000000000000000000000000000000000000000000000000000000000N 00000000000NCONT   00    00000000000          00000000000000000000000000000000000000000000 000000000000000A000000000000000000000000000000000000000000000 000000000000000000000000000000000000000     00000000                                                                                                                        000000000000000000
F0010000007799200004000090052543100023658300000000000000000201510240002001SECRET COLOR SAS                                  C000000000005600000000000000000000100010010000000000000000000000F0010000007799200420151024000101 00000000000000000000000000000000000000000000000000000000000000000000000000000000000000000000000000000000000000000N 00000000000NCONT   00    00000000000          00000000000000000000000000000000000000000000 000000000000000A000000000000000000000000000000000000000000000 000000000000000000000000000000000000000     00000000                                                                                                                        000000000000000000
F0010000007799200005000090052543100013552100000000000000000201510240002001SECRET COLOR SAS                                  D000000000005600000000000000000000100010010000000000000000000000F0010000007799200520151024000101 00000000000000000000000000000000000000000000000000000000000000000000000000000000000000000000000000000000000000000N 00000000000NCONT   00    00000000000          00000000000000000000000000000000000000000000 000000000000000A000000000000000000000000000000000000000000000 000000000000000000000000000000000000000     00000000                                                                                                                        000000000000000000
F0010000007799300001000090052543100011050500000000000000000201510240002001SECRET COLOR SAS                                  D000000000700000000000000000000000100010010000000000000000000000F0010000007799300120151024000101 00000000000000000000000000000000000000000000000000000000000000000000000000000000000000000000000000000000000000000N 00000000000NCONT   00    00000000000          00000000000000000000000000000000000000000000 000000000000000A000000000000000000000000000000000000000000000 000000000000000000000000000000000000000     00000000                                                                                                                        000000000000000000
F0010000007799300002000090052543100041450500000000000000000201510240002001SECRET COLOR SAS                                  C000000000600000000000000000000000100010010000000000000000000000F0010000007799300220151024000101 00000000000000000000000000000000000000000000000000000000000000000000000000000000000000000000000000000000000000000N 00000000000NCONT   00    00000000000          00000000000000000000000000000000000000000000 000000000000000A000000000000000000000000000000000000000000000 000000000000000000000000000000000000000     00000000                                                                                                                        000000000000000000
F0010000007799300003000090052543100042505000000000000000000201510240002001SECRET COLOR SAS                                  C000000000100000000000000000000000100010010000000000000000000000F0010000007799300320151024000101 00000000000000000000000000000000000000000000000000000000000000000000000000000000000000000000000000000000000000000N 00000000000NCONT   00    00000000000          00000000000000000000000000000000000000000000 000000000000000A000000000000000000000000000000000000000000000 000000000000000000000000000000000000000     00000000                                                                                                                        000000000000000000
F0010000007799300004000090052543100023658300000000000000000201510240002001SECRET COLOR SAS                                  C000000000004800000000000000000000100010010000000000000000000000F0010000007799300420151024000101 00000000000000000000000000000000000000000000000000000000000000000000000000000000000000000000000000000000000000000N 00000000000NCONT   00    00000000000          00000000000000000000000000000000000000000000 000000000000000A000000000000000000000000000000000000000000000 000000000000000000000000000000000000000     00000000                                                                                                                        000000000000000000
F0010000007799300005000090052543100013552100000000000000000201510240002001SECRET COLOR SAS                                  D000000000004800000000000000000000100010010000000000000000000000F0010000007799300520151024000101 00000000000000000000000000000000000000000000000000000000000000000000000000000000000000000000000000000000000000000N 00000000000NCONT   00    00000000000          00000000000000000000000000000000000000000000 000000000000000A000000000000000000000000000000000000000000000 000000000000000000000000000000000000000     00000000                                                                                                                        000000000000000000
F0010000007799400001000090052543100011050500000000000000000201510240002001SECRET COLOR SAS                                  D000000000900000000000000000000000100010010000000000000000000000F0010000007799400120151024000101 00000000000000000000000000000000000000000000000000000000000000000000000000000000000000000000000000000000000000000N 00000000000NCONT   00    00000000000          00000000000000000000000000000000000000000000 000000000000000A000000000000000000000000000000000000000000000 000000000000000000000000000000000000000     00000000                                                                                                                        000000000000000000
F0010000007799400002000090052543100041450500000000000000000201510240002001SECRET COLOR SAS                                  C000000000800000000000000000000000100010010000000000000000000000F0010000007799400220151024000101 00000000000000000000000000000000000000000000000000000000000000000000000000000000000000000000000000000000000000000N 00000000000NCONT   00    00000000000          00000000000000000000000000000000000000000000 000000000000000A000000000000000000000000000000000000000000000 000000000000000000000000000000000000000     00000000                                                                                                                        000000000000000000
F0010000007799400003000090052543100042505000000000000000000201510240002001SECRET COLOR SAS                                  C000000000100000000000000000000000100010010000000000000000000000F0010000007799400320151024000101 00000000000000000000000000000000000000000000000000000000000000000000000000000000000000000000000000000000000000000N 00000000000NCONT   00    00000000000          00000000000000000000000000000000000000000000 000000000000000A000000000000000000000000000000000000000000000 000000000000000000000000000000000000000     00000000                                                                                                                        000000000000000000
F0010000007799400004000090052543100023658300000000000000000201510240002001SECRET COLOR SAS                                  C000000000006400000000000000000000100010010000000000000000000000F0010000007799400420151024000101 00000000000000000000000000000000000000000000000000000000000000000000000000000000000000000000000000000000000000000N 00000000000NCONT   00    00000000000          00000000000000000000000000000000000000000000 000000000000000A000000000000000000000000000000000000000000000 000000000000000000000000000000000000000     00000000                                                                                                                        000000000000000000
F0010000007799400005000090052543100013552100000000000000000201510240002001SECRET COLOR SAS                                  D000000000006400000000000000000000100010010000000000000000000000F0010000007799400520151024000101 00000000000000000000000000000000000000000000000000000000000000000000000000000000000000000000000000000000000000000N 00000000000NCONT   00    00000000000          00000000000000000000000000000000000000000000 000000000000000A000000000000000000000000000000000000000000000 000000000000000000000000000000000000000     00000000                                                                                                                        000000000000000000
F0010000007799500001000090052543100011050500000000000000000201510240002001SECRET COLOR SAS                                  D000000000800000000000000000000000100010010000000000000000000000F0010000007799500120151024000101 00000000000000000000000000000000000000000000000000000000000000000000000000000000000000000000000000000000000000000N 00000000000NCONT   00    00000000000          00000000000000000000000000000000000000000000 000000000000000A000000000000000000000000000000000000000000000 000000000000000000000000000000000000000     00000000                                                                                                                        000000000000000000
F0010000007799500002000090052543100041450500000000000000000201510240002001SECRET COLOR SAS                                  C000000000700000000000000000000000100010010000000000000000000000F0010000007799500220151024000101 00000000000000000000000000000000000000000000000000000000000000000000000000000000000000000000000000000000000000000N 00000000000NCONT   00    00000000000          00000000000000000000000000000000000000000000 000000000000000A000000000000000000000000000000000000000000000 000000000000000000000000000000000000000     00000000                                                                                                                        000000000000000000
F0010000007799500003000090052543100042505000000000000000000201510240002001SECRET COLOR SAS                                  C000000000100000000000000000000000100010010000000000000000000000F0010000007799500320151024000101 00000000000000000000000000000000000000000000000000000000000000000000000000000000000000000000000000000000000000000N 00000000000NCONT   00    00000000000          00000000000000000000000000000000000000000000 000000000000000A000000000000000000000000000000000000000000000 000000000000000000000000000000000000000     00000000                                                                                                                        000000000000000000
F0010000007799500004000090052543100023658300000000000000000201510240002001SECRET COLOR SAS                                  C000000000005600000000000000000000100010010000000000000000000000F0010000007799500420151024000101 00000000000000000000000000000000000000000000000000000000000000000000000000000000000000000000000000000000000000000N 00000000000NCONT   00    00000000000          00000000000000000000000000000000000000000000 000000000000000A000000000000000000000000000000000000000000000 000000000000000000000000000000000000000     00000000                                                                                                                        000000000000000000
F0010000007799500005000090052543100013552100000000000000000201510240002001SECRET COLOR SAS                                  D000000000005600000000000000000000100010010000000000000000000000F0010000007799500520151024000101 00000000000000000000000000000000000000000000000000000000000000000000000000000000000000000000000000000000000000000N 00000000000NCONT   00    00000000000          00000000000000000000000000000000000000000000 000000000000000A000000000000000000000000000000000000000000000 000000000000000000000000000000000000000     00000000                                                                                                                        000000000000000000
F0010000007799600001000090052543100011050500000000000000000201510240002001SECRET COLOR SAS                                  D000000000800000000000000000000000100010010000000000000000000000F0010000007799600120151024000101 00000000000000000000000000000000000000000000000000000000000000000000000000000000000000000000000000000000000000000N 00000000000NCONT   00    00000000000          00000000000000000000000000000000000000000000 000000000000000A000000000000000000000000000000000000000000000 000000000000000000000000000000000000000     00000000                                                                                                                        000000000000000000
F0010000007799600002000090052543100041450500000000000000000201510240002001SECRET COLOR SAS                                  C000000000700000000000000000000000100010010000000000000000000000F0010000007799600220151024000101 00000000000000000000000000000000000000000000000000000000000000000000000000000000000000000000000000000000000000000N 00000000000NCONT   00    00000000000          00000000000000000000000000000000000000000000 000000000000000A000000000000000000000000000000000000000000000 000000000000000000000000000000000000000     00000000                                                                                                                        000000000000000000
F0010000007799600003000090052543100042505000000000000000000201510240002001SECRET COLOR SAS                                  C000000000100000000000000000000000100010010000000000000000000000F0010000007799600320151024000101 00000000000000000000000000000000000000000000000000000000000000000000000000000000000000000000000000000000000000000N 00000000000NCONT   00    00000000000          00000000000000000000000000000000000000000000 000000000000000A000000000000000000000000000000000000000000000 000000000000000000000000000000000000000     00000000                                                                                                                        000000000000000000
F0010000007799600004000090052543100023658300000000000000000201510240002001SECRET COLOR SAS                                  C000000000005600000000000000000000100010010000000000000000000000F0010000007799600420151024000101 00000000000000000000000000000000000000000000000000000000000000000000000000000000000000000000000000000000000000000N 00000000000NCONT   00    00000000000          00000000000000000000000000000000000000000000 000000000000000A000000000000000000000000000000000000000000000 000000000000000000000000000000000000000     00000000                                                                                                                        000000000000000000
F0010000007799600005000090052543100013552100000000000000000201510240002001SECRET COLOR SAS                                  D000000000005600000000000000000000100010010000000000000000000000F0010000007799600520151024000101 00000000000000000000000000000000000000000000000000000000000000000000000000000000000000000000000000000000000000000N 00000000000NCONT   00    00000000000          00000000000000000000000000000000000000000000 000000000000000A000000000000000000000000000000000000000000000 000000000000000000000000000000000000000     00000000                                                                                                                        000000000000000000
F0010000007799700001000090052543100011050500000000000000000201510240002001SECRET COLOR SAS                                  D000000000950000000000000000000000100010010000000000000000000000F0010000007799700120151024000101 00000000000000000000000000000000000000000000000000000000000000000000000000000000000000000000000000000000000000000N 00000000000NCONT   00    00000000000          00000000000000000000000000000000000000000000 000000000000000A000000000000000000000000000000000000000000000 000000000000000000000000000000000000000     00000000                                                                                                                        000000000000000000
F0010000007799700002000090052543100041450500000000000000000201510240002001SECRET COLOR SAS                                  C000000000850000000000000000000000100010010000000000000000000000F0010000007799700220151024000101 00000000000000000000000000000000000000000000000000000000000000000000000000000000000000000000000000000000000000000N 00000000000NCONT   00    00000000000          00000000000000000000000000000000000000000000 000000000000000A000000000000000000000000000000000000000000000 000000000000000000000000000000000000000     00000000                                                                                                                        000000000000000000
F0010000007799700003000090052543100042505000000000000000000201510240002001SECRET COLOR SAS                                  C000000000100000000000000000000000100010010000000000000000000000F0010000007799700320151024000101 00000000000000000000000000000000000000000000000000000000000000000000000000000000000000000000000000000000000000000N 00000000000NCONT   00    00000000000          00000000000000000000000000000000000000000000 000000000000000A000000000000000000000000000000000000000000000 000000000000000000000000000000000000000     00000000                                                                                                                        000000000000000000
F0010000007799700004000090052543100023658300000000000000000201510240002001SECRET COLOR SAS                                  C000000000006800000000000000000000100010010000000000000000000000F0010000007799700420151024000101 00000000000000000000000000000000000000000000000000000000000000000000000000000000000000000000000000000000000000000N 00000000000NCONT   00    00000000000          00000000000000000000000000000000000000000000 000000000000000A000000000000000000000000000000000000000000000 000000000000000000000000000000000000000     00000000                                                                                                                        000000000000000000
F0010000007799700005000090052543100013552100000000000000000201510240002001SECRET COLOR SAS                                  D000000000006800000000000000000000100010010000000000000000000000F0010000007799700520151024000101 00000000000000000000000000000000000000000000000000000000000000000000000000000000000000000000000000000000000000000N 00000000000NCONT   00    00000000000          00000000000000000000000000000000000000000000 000000000000000A000000000000000000000000000000000000000000000 000000000000000000000000000000000000000     00000000                                                                                                                        000000000000000000
F0010000007799800001000003319910700011050500000000000000000201510240002001LUZ DARY JIMENEZ MARTINEZ                         D000000001100000000000000000000000100010010000000000000000000000F0010000007799800120151024000101 00000000000000000000000000000000000000000000000000000000000000000000000000000000000000000000000000000000000000000N 00000000000NCONT   00    00000000000          00000000000000000000000000000000000000000000 000000000000000A000000000000000000000000000000000000000000000 000000000000000000000000000000000000000     00000000                                                                                                                        000000000000000000
F0010000007799800002000003319910700041450500000000000000000201510240002001LUZ DARY JIMENEZ MARTINEZ                         C000000001000000000000000000000000100010010000000000000000000000F0010000007799800220151024000101 00000000000000000000000000000000000000000000000000000000000000000000000000000000000000000000000000000000000000000N 00000000000NCONT   00    00000000000          00000000000000000000000000000000000000000000 000000000000000A000000000000000000000000000000000000000000000 000000000000000000000000000000000000000     00000000                                                                                                                        000000000000000000
F0010000007799800003000003319910700042505000000000000000000201510240002001LUZ DARY JIMENEZ MARTINEZ                         C000000000100000000000000000000000100010010000000000000000000000F0010000007799800320151024000101 00000000000000000000000000000000000000000000000000000000000000000000000000000000000000000000000000000000000000000N 00000000000NCONT   00    00000000000          00000000000000000000000000000000000000000000 000000000000000A000000000000000000000000000000000000000000000 000000000000000000000000000000000000000     00000000                                                                                                                        000000000000000000
F0010000007799800004000003319910700023658300000000000000000201510240002001LUZ DARY JIMENEZ MARTINEZ                         C000000000008000000000000000000000100010010000000000000000000000F0010000007799800420151024000101 00000000000000000000000000000000000000000000000000000000000000000000000000000000000000000000000000000000000000000N 00000000000NCONT   00    00000000000          00000000000000000000000000000000000000000000 000000000000000A000000000000000000000000000000000000000000000 000000000000000000000000000000000000000     00000000                                                                                                                        000000000000000000
F0010000007799800005000003319910700013552100000000000000000201510240002001LUZ DARY JIMENEZ MARTINEZ                         D000000000008000000000000000000000100010010000000000000000000000F0010000007799800520151024000101 00000000000000000000000000000000000000000000000000000000000000000000000000000000000000000000000000000000000000000N 00000000000NCONT   00    00000000000          00000000000000000000000000000000000000000000 000000000000000A000000000000000000000000000000000000000000000 000000000000000000000000000000000000000     00000000                                                                                                                        000000000000000000
F0010000007799900001000090052543100011050500000000000000000201510240002001SECRET COLOR SAS                                  D000000000950000000000000000000000100010010000000000000000000000F0010000007799900120151024000101 00000000000000000000000000000000000000000000000000000000000000000000000000000000000000000000000000000000000000000N 00000000000NCONT   00    00000000000          00000000000000000000000000000000000000000000 000000000000000A000000000000000000000000000000000000000000000 000000000000000000000000000000000000000     00000000                                                                                                                        000000000000000000
F0010000007799900002000090052543100041450500000000000000000201510240002001SECRET COLOR SAS                                  C000000000850000000000000000000000100010010000000000000000000000F0010000007799900220151024000101 00000000000000000000000000000000000000000000000000000000000000000000000000000000000000000000000000000000000000000N 00000000000NCONT   00    00000000000          00000000000000000000000000000000000000000000 000000000000000A000000000000000000000000000000000000000000000 000000000000000000000000000000000000000     00000000                                                                                                                        000000000000000000
F0010000007799900003000090052543100042505000000000000000000201510240002001SECRET COLOR SAS                                  C000000000100000000000000000000000100010010000000000000000000000F0010000007799900320151024000101 00000000000000000000000000000000000000000000000000000000000000000000000000000000000000000000000000000000000000000N 00000000000NCONT   00    00000000000          00000000000000000000000000000000000000000000 000000000000000A000000000000000000000000000000000000000000000 000000000000000000000000000000000000000     00000000                                                                                                                        000000000000000000
F0010000007799900004000090052543100023658300000000000000000201510240002001SECRET COLOR SAS                                  C000000000006800000000000000000000100010010000000000000000000000F0010000007799900420151024000101 00000000000000000000000000000000000000000000000000000000000000000000000000000000000000000000000000000000000000000N 00000000000NCONT   00    00000000000          00000000000000000000000000000000000000000000 000000000000000A000000000000000000000000000000000000000000000 000000000000000000000000000000000000000     00000000                                                                                                                        000000000000000000
F0010000007799900005000090052543100013552100000000000000000201510240002001SECRET COLOR SAS                                  D000000000006800000000000000000000100010010000000000000000000000F0010000007799900520151024000101 00000000000000000000000000000000000000000000000000000000000000000000000000000000000000000000000000000000000000000N 00000000000NCONT   00    00000000000          00000000000000000000000000000000000000000000 000000000000000A000000000000000000000000000000000000000000000 000000000000000000000000000000000000000     00000000                                                                                                                        000000000000000000
F0010000007800000001000090050144800011050500000000000000000201510240002001PLASTICOS JR ASOCIADOS SAS                        D000000001000000000000000000000000100010010000000000000000000000F0010000007800000120151024000101 00000000000000000000000000000000000000000000000000000000000000000000000000000000000000000000000000000000000000000N 00000000000NCONT   00    00000000000          00000000000000000000000000000000000000000000 000000000000000A000000000000000000000000000000000000000000000 000000000000000000000000000000000000000     00000000                                                                                                                        000000000000000000
F0010000007800000002000090050144800041450500000000000000000201510240002001PLASTICOS JR ASOCIADOS SAS                        C000000000900000000000000000000000100010010000000000000000000000F0010000007800000220151024000101 00000000000000000000000000000000000000000000000000000000000000000000000000000000000000000000000000000000000000000N 00000000000NCONT   00    00000000000          00000000000000000000000000000000000000000000 000000000000000A000000000000000000000000000000000000000000000 000000000000000000000000000000000000000     00000000                                                                                                                        000000000000000000
F0010000007800000003000090050144800042505000000000000000000201510240002001PLASTICOS JR ASOCIADOS SAS                        C000000000100000000000000000000000100010010000000000000000000000F0010000007800000320151024000101 00000000000000000000000000000000000000000000000000000000000000000000000000000000000000000000000000000000000000000N 00000000000NCONT   00    00000000000          00000000000000000000000000000000000000000000 000000000000000A000000000000000000000000000000000000000000000 000000000000000000000000000000000000000     00000000                                                                                                                        000000000000000000
F0010000007800000004000090050144800023658300000000000000000201510240002001PLASTICOS JR ASOCIADOS SAS                        C000000000007200000000000000000000100010010000000000000000000000F0010000007800000420151024000101 00000000000000000000000000000000000000000000000000000000000000000000000000000000000000000000000000000000000000000N 00000000000NCONT   00    00000000000          00000000000000000000000000000000000000000000 000000000000000A000000000000000000000000000000000000000000000 000000000000000000000000000000000000000     00000000                                                                                                                        000000000000000000
F0010000007800000005000090050144800013552100000000000000000201510240002001PLASTICOS JR ASOCIADOS SAS                        D000000000007200000000000000000000100010010000000000000000000000F0010000007800000520151024000101 00000000000000000000000000000000000000000000000000000000000000000000000000000000000000000000000000000000000000000N 00000000000NCONT   00    00000000000          00000000000000000000000000000000000000000000 000000000000000A000000000000000000000000000000000000000000000 000000000000000000000000000000000000000     00000000                                                                                                                        000000000000000000
F0010000007800100001000003287795000011050500000000000000000201510240002001COMERCIALIZADORA KUZMAR                           D000000001300000000000000000000000100010010000000000000000000000F0010000007800100120151024000101 00000000000000000000000000000000000000000000000000000000000000000000000000000000000000000000000000000000000000000N 00000000000NCONT   00    00000000000          00000000000000000000000000000000000000000000 000000000000000A000000000000000000000000000000000000000000000 000000000000000000000000000000000000000     00000000                                                                                                                        000000000000000000
F0010000007800100002000003287795000041450500000000000000000201510240002001COMERCIALIZADORA KUZMAR                           C000000000700000000000000000000000100010010000000000000000000000F0010000007800100220151024000101 00000000000000000000000000000000000000000000000000000000000000000000000000000000000000000000000000000000000000000N 00000000000NCONT   00    00000000000          00000000000000000000000000000000000000000000 000000000000000A000000000000000000000000000000000000000000000 000000000000000000000000000000000000000     00000000                                                                                                                        000000000000000000
F0010000007800100003000003287795000042505000000000000000000201510240002001COMERCIALIZADORA KUZMAR                           C000000000600000000000000000000000100010010000000000000000000000F0010000007800100320151024000101 00000000000000000000000000000000000000000000000000000000000000000000000000000000000000000000000000000000000000000N 00000000000NCONT   00    00000000000          00000000000000000000000000000000000000000000 000000000000000A000000000000000000000000000000000000000000000 000000000000000000000000000000000000000     00000000                                                                                                                        000000000000000000
F0010000007800100004000003287795000023658300000000000000000201510240002001COMERCIALIZADORA KUZMAR                           C000000000005600000000000000000000100010010000000000000000000000F0010000007800100420151024000101 00000000000000000000000000000000000000000000000000000000000000000000000000000000000000000000000000000000000000000N 00000000000NCONT   00    00000000000          00000000000000000000000000000000000000000000 000000000000000A000000000000000000000000000000000000000000000 000000000000000000000000000000000000000     00000000                                                                                                                        000000000000000000
F0010000007800100005000003287795000013552100000000000000000201510240002001COMERCIALIZADORA KUZMAR                           D000000000005600000000000000000000100010010000000000000000000000F0010000007800100520151024000101 00000000000000000000000000000000000000000000000000000000000000000000000000000000000000000000000000000000000000000N 00000000000NCONT   00    00000000000          00000000000000000000000000000000000000000000 000000000000000A000000000000000000000000000000000000000000000 000000000000000000000000000000000000000     00000000                                                                                                                        000000000000000000
F0010000007800200001000083007900600011050500000000000000000201510240002001EXPRESO ANDINO DE CARGA SA                        D000000001000000000000000000000000100010010000000000000000000000F0010000007800200120151024000101 00000000000000000000000000000000000000000000000000000000000000000000000000000000000000000000000000000000000000000N 00000000000NCONT   00    00000000000          00000000000000000000000000000000000000000000 000000000000000A000000000000000000000000000000000000000000000 000000000000000000000000000000000000000     00000000                                                                                                                        000000000000000000
F0010000007800200002000083007900600041450500000000000000000201510240002001EXPRESO ANDINO DE CARGA SA                        C000000000900000000000000000000000100010010000000000000000000000F0010000007800200220151024000101 00000000000000000000000000000000000000000000000000000000000000000000000000000000000000000000000000000000000000000N 00000000000NCONT   00    00000000000          00000000000000000000000000000000000000000000 000000000000000A000000000000000000000000000000000000000000000 000000000000000000000000000000000000000     00000000                                                                                                                        000000000000000000
F0010000007800200003000083007900600042505000000000000000000201510240002001EXPRESO ANDINO DE CARGA SA                        C000000000100000000000000000000000100010010000000000000000000000F0010000007800200320151024000101 00000000000000000000000000000000000000000000000000000000000000000000000000000000000000000000000000000000000000000N 00000000000NCONT   00    00000000000          00000000000000000000000000000000000000000000 000000000000000A000000000000000000000000000000000000000000000 000000000000000000000000000000000000000     00000000                                                                                                                        000000000000000000
F0010000007800200004000083007900600023658300000000000000000201510240002001EXPRESO ANDINO DE CARGA SA                        C000000000007200000000000000000000100010010000000000000000000000F0010000007800200420151024000101 00000000000000000000000000000000000000000000000000000000000000000000000000000000000000000000000000000000000000000N 00000000000NCONT   00    00000000000          00000000000000000000000000000000000000000000 000000000000000A000000000000000000000000000000000000000000000 000000000000000000000000000000000000000     00000000                                                                                                                        000000000000000000
F0010000007800200005000083007900600013552100000000000000000201510240002001EXPRESO ANDINO DE CARGA SA                        D000000000007200000000000000000000100010010000000000000000000000F0010000007800200520151024000101 00000000000000000000000000000000000000000000000000000000000000000000000000000000000000000000000000000000000000000N 00000000000NCONT   00    00000000000          00000000000000000000000000000000000000000000 000000000000000A000000000000000000000000000000000000000000000 000000000000000000000000000000000000000     00000000                                                                                                                        000000000000000000
F0010000007800300001000083007900600011050500000000000000000201510240002001EXPRESO ANDINO DE CARGA SA                        D000000016900000000000000000000000100010010000000000000000000000F0010000007800300120151024000101 00000000000000000000000000000000000000000000000000000000000000000000000000000000000000000000000000000000000000000N 00000000000NCONT   00    00000000000          00000000000000000000000000000000000000000000 000000000000000A000000000000000000000000000000000000000000000 000000000000000000000000000000000000000     00000000                                                                                                                        000000000000000000
F0010000007800300002000083007900600041450500000000000000000201510240002001EXPRESO ANDINO DE CARGA SA                        C000000016800000000000000000000000100010010000000000000000000000F0010000007800300220151024000101 00000000000000000000000000000000000000000000000000000000000000000000000000000000000000000000000000000000000000000N 00000000000NCONT   00    00000000000          00000000000000000000000000000000000000000000 000000000000000A000000000000000000000000000000000000000000000 000000000000000000000000000000000000000     00000000                                                                                                                        000000000000000000
F0010000007800300003000083007900600042505000000000000000000201510240002001EXPRESO ANDINO DE CARGA SA                        C000000000100000000000000000000000100010010000000000000000000000F0010000007800300320151024000101 00000000000000000000000000000000000000000000000000000000000000000000000000000000000000000000000000000000000000000N 00000000000NCONT   00    00000000000          00000000000000000000000000000000000000000000 000000000000000A000000000000000000000000000000000000000000000 000000000000000000000000000000000000000     00000000                                                                                                                        000000000000000000
F0010000007800300004000083007900600023658300000000000000000201510240002001EXPRESO ANDINO DE CARGA SA                        C000000000134400000000000000000000100010010000000000000000000000F0010000007800300420151024000101 00000000000000000000000000000000000000000000000000000000000000000000000000000000000000000000000000000000000000000N 00000000000NCONT   00    00000000000          00000000000000000000000000000000000000000000 000000000000000A000000000000000000000000000000000000000000000 000000000000000000000000000000000000000     00000000                                                                                                                        000000000000000000
F0010000007800300005000083007900600013552100000000000000000201510240002001EXPRESO ANDINO DE CARGA SA                        D000000000134400000000000000000000100010010000000000000000000000F0010000007800300520151024000101 00000000000000000000000000000000000000000000000000000000000000000000000000000000000000000000000000000000000000000N 00000000000NCONT   00    00000000000          00000000000000000000000000000000000000000000 000000000000000A000000000000000000000000000000000000000000000 000000000000000000000000000000000000000     00000000                                                                                                                        000000000000000000
F0010000007800400001000090020547900011050500000000000000000201510240002001COMERCIALIZADORA DAC DEL CARIBE S.A.S.            D000000001800000000000000000000000100010010000000000000000000000F0010000007800400120151024000101 00000000000000000000000000000000000000000000000000000000000000000000000000000000000000000000000000000000000000000N 00000000000NCONT   00    00000000000          00000000000000000000000000000000000000000000 000000000000000A000000000000000000000000000000000000000000000 000000000000000000000000000000000000000     00000000                                                                                                                        000000000000000000
F0010000007800400002000090020547900041450500000000000000000201510240002001COMERCIALIZADORA DAC DEL CARIBE S.A.S.            C000000001300000000000000000000000100010010000000000000000000000F0010000007800400220151024000101 00000000000000000000000000000000000000000000000000000000000000000000000000000000000000000000000000000000000000000N 00000000000NCONT   00    00000000000          00000000000000000000000000000000000000000000 000000000000000A000000000000000000000000000000000000000000000 000000000000000000000000000000000000000     00000000                                                                                                                        000000000000000000
F0010000007800400003000090020547900042505000000000000000000201510240002001COMERCIALIZADORA DAC DEL CARIBE S.A.S.            C000000000500000000000000000000000100010010000000000000000000000F0010000007800400320151024000101 00000000000000000000000000000000000000000000000000000000000000000000000000000000000000000000000000000000000000000N 00000000000NCONT   00    00000000000          00000000000000000000000000000000000000000000 000000000000000A000000000000000000000000000000000000000000000 000000000000000000000000000000000000000     00000000                                                                                                                        000000000000000000
F0010000007800400004000090020547900023658300000000000000000201510240002001COMERCIALIZADORA DAC DEL CARIBE S.A.S.            C000000000010400000000000000000000100010010000000000000000000000F0010000007800400420151024000101 00000000000000000000000000000000000000000000000000000000000000000000000000000000000000000000000000000000000000000N 00000000000NCONT   00    00000000000          00000000000000000000000000000000000000000000 000000000000000A000000000000000000000000000000000000000000000 000000000000000000000000000000000000000     00000000                                                                                                                        000000000000000000
F0010000007800400005000090020547900013552100000000000000000201510240002001COMERCIALIZADORA DAC DEL CARIBE S.A.S.            D000000000010400000000000000000000100010010000000000000000000000F0010000007800400520151024000101 00000000000000000000000000000000000000000000000000000000000000000000000000000000000000000000000000000000000000000N 00000000000NCONT   00    00000000000          00000000000000000000000000000000000000000000 000000000000000A000000000000000000000000000000000000000000000 000000000000000000000000000000000000000     00000000                                                                                                                        000000000000000000
F0010000007800500001000090020547900011050500000000000000000201510240002001COMERCIALIZADORA DAC DEL CARIBE S.A.S.            D000000001900000000000000000000000100010010000000000000000000000F0010000007800500120151024000101 00000000000000000000000000000000000000000000000000000000000000000000000000000000000000000000000000000000000000000N 00000000000NCONT   00    00000000000          00000000000000000000000000000000000000000000 000000000000000A000000000000000000000000000000000000000000000 000000000000000000000000000000000000000     00000000                                                                                                                        000000000000000000
F0010000007800500002000090020547900041450500000000000000000201510240002001COMERCIALIZADORA DAC DEL CARIBE S.A.S.            C000000001800000000000000000000000100010010000000000000000000000F0010000007800500220151024000101 00000000000000000000000000000000000000000000000000000000000000000000000000000000000000000000000000000000000000000N 00000000000NCONT   00    00000000000          00000000000000000000000000000000000000000000 000000000000000A000000000000000000000000000000000000000000000 000000000000000000000000000000000000000     00000000                                                                                                                        000000000000000000
F0010000007800500003000090020547900042505000000000000000000201510240002001COMERCIALIZADORA DAC DEL CARIBE S.A.S.            C000000000100000000000000000000000100010010000000000000000000000F0010000007800500320151024000101 00000000000000000000000000000000000000000000000000000000000000000000000000000000000000000000000000000000000000000N 00000000000NCONT   00    00000000000          00000000000000000000000000000000000000000000 000000000000000A000000000000000000000000000000000000000000000 000000000000000000000000000000000000000     00000000                                                                                                                        000000000000000000
F0010000007800500004000090020547900023658300000000000000000201510240002001COMERCIALIZADORA DAC DEL CARIBE S.A.S.            C000000000014400000000000000000000100010010000000000000000000000F0010000007800500420151024000101 00000000000000000000000000000000000000000000000000000000000000000000000000000000000000000000000000000000000000000N 00000000000NCONT   00    00000000000          00000000000000000000000000000000000000000000 000000000000000A000000000000000000000000000000000000000000000 000000000000000000000000000000000000000     00000000                                                                                                                        000000000000000000
F0010000007800500005000090020547900013552100000000000000000201510240002001COMERCIALIZADORA DAC DEL CARIBE S.A.S.            D000000000014400000000000000000000100010010000000000000000000000F0010000007800500520151024000101 00000000000000000000000000000000000000000000000000000000000000000000000000000000000000000000000000000000000000000N 00000000000NCONT   00    00000000000          00000000000000000000000000000000000000000000 000000000000000A000000000000000000000000000000000000000000000 000000000000000000000000000000000000000     00000000                                                                                                                        000000000000000000
F0010000007800600001000090020547900011050500000000000000000201510240002001COMERCIALIZADORA DAC DEL CARIBE S.A.S.            D000000002200000000000000000000000100010010000000000000000000000F0010000007800600120151024000101 00000000000000000000000000000000000000000000000000000000000000000000000000000000000000000000000000000000000000000N 00000000000NCONT   00    00000000000          00000000000000000000000000000000000000000000 000000000000000A000000000000000000000000000000000000000000000 000000000000000000000000000000000000000     00000000                                                                                                                        000000000000000000
F0010000007800600002000090020547900041450500000000000000000201510240002001COMERCIALIZADORA DAC DEL CARIBE S.A.S.            C000000001800000000000000000000000100010010000000000000000000000F0010000007800600220151024000101 00000000000000000000000000000000000000000000000000000000000000000000000000000000000000000000000000000000000000000N 00000000000NCONT   00    00000000000          00000000000000000000000000000000000000000000 000000000000000A000000000000000000000000000000000000000000000 000000000000000000000000000000000000000     00000000                                                                                                                        000000000000000000
F0010000007800600003000090020547900042505000000000000000000201510240002001COMERCIALIZADORA DAC DEL CARIBE S.A.S.            C000000000400000000000000000000000100010010000000000000000000000F0010000007800600320151024000101 00000000000000000000000000000000000000000000000000000000000000000000000000000000000000000000000000000000000000000N 00000000000NCONT   00    00000000000          00000000000000000000000000000000000000000000 000000000000000A000000000000000000000000000000000000000000000 000000000000000000000000000000000000000     00000000                                                                                                                        000000000000000000
F0010000007800600004000090020547900023658300000000000000000201510240002001COMERCIALIZADORA DAC DEL CARIBE S.A.S.            C000000000014400000000000000000000100010010000000000000000000000F0010000007800600420151024000101 00000000000000000000000000000000000000000000000000000000000000000000000000000000000000000000000000000000000000000N 00000000000NCONT   00    00000000000          00000000000000000000000000000000000000000000 000000000000000A000000000000000000000000000000000000000000000 000000000000000000000000000000000000000     00000000                                                                                                                        000000000000000000
F0010000007800600005000090020547900013552100000000000000000201510240002001COMERCIALIZADORA DAC DEL CARIBE S.A.S.            D000000000014400000000000000000000100010010000000000000000000000F0010000007800600520151024000101 00000000000000000000000000000000000000000000000000000000000000000000000000000000000000000000000000000000000000000N 00000000000NCONT   00    00000000000          00000000000000000000000000000000000000000000 000000000000000A000000000000000000000000000000000000000000000 000000000000000000000000000000000000000     00000000                                                                                                                        000000000000000000
F0010000007800700001000090020547900011050500000000000000000201510240002001COMERCIALIZADORA DAC DEL CARIBE S.A.S.            D000000002200000000000000000000000100010010000000000000000000000F0010000007800700120151024000101 00000000000000000000000000000000000000000000000000000000000000000000000000000000000000000000000000000000000000000N 00000000000NCONT   00    00000000000          00000000000000000000000000000000000000000000 000000000000000A000000000000000000000000000000000000000000000 000000000000000000000000000000000000000     00000000                                                                                                                        000000000000000000
F0010000007800700002000090020547900041450500000000000000000201510240002001COMERCIALIZADORA DAC DEL CARIBE S.A.S.            C000000001800000000000000000000000100010010000000000000000000000F0010000007800700220151024000101 00000000000000000000000000000000000000000000000000000000000000000000000000000000000000000000000000000000000000000N 00000000000NCONT   00    00000000000          00000000000000000000000000000000000000000000 000000000000000A000000000000000000000000000000000000000000000 000000000000000000000000000000000000000     00000000                                                                                                                        000000000000000000
F0010000007800700003000090020547900042505000000000000000000201510240002001COMERCIALIZADORA DAC DEL CARIBE S.A.S.            C000000000400000000000000000000000100010010000000000000000000000F0010000007800700320151024000101 00000000000000000000000000000000000000000000000000000000000000000000000000000000000000000000000000000000000000000N 00000000000NCONT   00    00000000000          00000000000000000000000000000000000000000000 000000000000000A000000000000000000000000000000000000000000000 000000000000000000000000000000000000000     00000000                                                                                                                        000000000000000000
F0010000007800700004000090020547900023658300000000000000000201510240002001COMERCIALIZADORA DAC DEL CARIBE S.A.S.            C000000000014400000000000000000000100010010000000000000000000000F0010000007800700420151024000101 00000000000000000000000000000000000000000000000000000000000000000000000000000000000000000000000000000000000000000N 00000000000NCONT   00    00000000000          00000000000000000000000000000000000000000000 000000000000000A000000000000000000000000000000000000000000000 000000000000000000000000000000000000000     00000000                                                                                                                        000000000000000000
F0010000007800700005000090020547900013552100000000000000000201510240002001COMERCIALIZADORA DAC DEL CARIBE S.A.S.            D000000000014400000000000000000000100010010000000000000000000000F0010000007800700520151024000101 00000000000000000000000000000000000000000000000000000000000000000000000000000000000000000000000000000000000000000N 00000000000NCONT   00    00000000000          00000000000000000000000000000000000000000000 000000000000000A000000000000000000000000000000000000000000000 000000000000000000000000000000000000000     00000000                                                                                                                        000000000000000000
F0010000007800800001000090020547900011050500000000000000000201510240002001COMERCIALIZADORA DAC DEL CARIBE S.A.S.            D000000002200000000000000000000000100010010000000000000000000000F0010000007800800120151024000101 00000000000000000000000000000000000000000000000000000000000000000000000000000000000000000000000000000000000000000N 00000000000NCONT   00    00000000000          00000000000000000000000000000000000000000000 000000000000000A000000000000000000000000000000000000000000000 000000000000000000000000000000000000000     00000000                                                                                                                        000000000000000000
F0010000007800800002000090020547900041450500000000000000000201510240002001COMERCIALIZADORA DAC DEL CARIBE S.A.S.            C000000001800000000000000000000000100010010000000000000000000000F0010000007800800220151024000101 00000000000000000000000000000000000000000000000000000000000000000000000000000000000000000000000000000000000000000N 00000000000NCONT   00    00000000000          00000000000000000000000000000000000000000000 000000000000000A000000000000000000000000000000000000000000000 000000000000000000000000000000000000000     00000000                                                                                                                        000000000000000000
F0010000007800800003000090020547900042505000000000000000000201510240002001COMERCIALIZADORA DAC DEL CARIBE S.A.S.            C000000000400000000000000000000000100010010000000000000000000000F0010000007800800320151024000101 00000000000000000000000000000000000000000000000000000000000000000000000000000000000000000000000000000000000000000N 00000000000NCONT   00    00000000000          00000000000000000000000000000000000000000000 000000000000000A000000000000000000000000000000000000000000000 000000000000000000000000000000000000000     00000000                                                                                                                        000000000000000000
F0010000007800800004000090020547900023658300000000000000000201510240002001COMERCIALIZADORA DAC DEL CARIBE S.A.S.            C000000000014400000000000000000000100010010000000000000000000000F0010000007800800420151024000101 00000000000000000000000000000000000000000000000000000000000000000000000000000000000000000000000000000000000000000N 00000000000NCONT   00    00000000000          00000000000000000000000000000000000000000000 000000000000000A000000000000000000000000000000000000000000000 000000000000000000000000000000000000000     00000000                                                                                                                        000000000000000000
F0010000007800800005000090020547900013552100000000000000000201510240002001COMERCIALIZADORA DAC DEL CARIBE S.A.S.            D000000000014400000000000000000000100010010000000000000000000000F0010000007800800520151024000101 00000000000000000000000000000000000000000000000000000000000000000000000000000000000000000000000000000000000000000N 00000000000NCONT   00    00000000000          00000000000000000000000000000000000000000000 000000000000000A000000000000000000000000000000000000000000000 000000000000000000000000000000000000000     00000000                                                                                                                        000000000000000000
F0010000007800900001000090020547900011050500000000000000000201510240002001COMERCIALIZADORA DAC DEL CARIBE S.A.S.            D000000002200000000000000000000000100010010000000000000000000000F0010000007800900120151024000101 00000000000000000000000000000000000000000000000000000000000000000000000000000000000000000000000000000000000000000N 00000000000NCONT   00    00000000000          00000000000000000000000000000000000000000000 000000000000000A000000000000000000000000000000000000000000000 000000000000000000000000000000000000000     00000000                                                                                                                        000000000000000000
F0010000007800900002000090020547900041450500000000000000000201510240002001COMERCIALIZADORA DAC DEL CARIBE S.A.S.            C000000001800000000000000000000000100010010000000000000000000000F0010000007800900220151024000101 00000000000000000000000000000000000000000000000000000000000000000000000000000000000000000000000000000000000000000N 00000000000NCONT   00    00000000000          00000000000000000000000000000000000000000000 000000000000000A000000000000000000000000000000000000000000000 000000000000000000000000000000000000000     00000000                                                                                                                        000000000000000000
F0010000007800900003000090020547900042505000000000000000000201510240002001COMERCIALIZADORA DAC DEL CARIBE S.A.S.            C000000000400000000000000000000000100010010000000000000000000000F0010000007800900320151024000101 00000000000000000000000000000000000000000000000000000000000000000000000000000000000000000000000000000000000000000N 00000000000NCONT   00    00000000000          00000000000000000000000000000000000000000000 000000000000000A000000000000000000000000000000000000000000000 000000000000000000000000000000000000000     00000000                                                                                                                        000000000000000000
F0010000007800900004000090020547900023658300000000000000000201510240002001COMERCIALIZADORA DAC DEL CARIBE S.A.S.            C000000000014400000000000000000000100010010000000000000000000000F0010000007800900420151024000101 00000000000000000000000000000000000000000000000000000000000000000000000000000000000000000000000000000000000000000N 00000000000NCONT   00    00000000000          00000000000000000000000000000000000000000000 000000000000000A000000000000000000000000000000000000000000000 000000000000000000000000000000000000000     00000000                                                                                                                        000000000000000000
F0010000007800900005000090020547900013552100000000000000000201510240002001COMERCIALIZADORA DAC DEL CARIBE S.A.S.            D000000000014400000000000000000000100010010000000000000000000000F0010000007800900520151024000101 00000000000000000000000000000000000000000000000000000000000000000000000000000000000000000000000000000000000000000N 00000000000NCONT   00    00000000000          00000000000000000000000000000000000000000000 000000000000000A000000000000000000000000000000000000000000000 000000000000000000000000000000000000000     00000000                                                                                                                        000000000000000000
F0010000007801000001000000820258900011050500000000000000000201510240002001RAFAEL SAAVEDRA ROJAS                             D000000015000000000000000000000000100010010000000000000000000000F0010000007801000120151024000101 00000000000000000000000000000000000000000000000000000000000000000000000000000000000000000000000000000000000000000N 00000000000NCONT   00    00000000000          00000000000000000000000000000000000000000000 000000000000000A000000000000000000000000000000000000000000000 000000000000000000000000000000000000000     00000000                                                                                                                        000000000000000000
F0010000007801000002000000820258900041450500000000000000000201510240002001RAFAEL SAAVEDRA ROJAS                             C000000014000000000000000000000000100010010000000000000000000000F0010000007801000220151024000101 00000000000000000000000000000000000000000000000000000000000000000000000000000000000000000000000000000000000000000N 00000000000NCONT   00    00000000000          00000000000000000000000000000000000000000000 000000000000000A000000000000000000000000000000000000000000000 000000000000000000000000000000000000000     00000000                                                                                                                        000000000000000000
F0010000007801000003000000820258900042505000000000000000000201510240002001RAFAEL SAAVEDRA ROJAS                             C000000001000000000000000000000000100010010000000000000000000000F0010000007801000320151024000101 00000000000000000000000000000000000000000000000000000000000000000000000000000000000000000000000000000000000000000N 00000000000NCONT   00    00000000000          00000000000000000000000000000000000000000000 000000000000000A000000000000000000000000000000000000000000000 000000000000000000000000000000000000000     00000000                                                                                                                        000000000000000000
F0010000007801000004000000820258900023658300000000000000000201510240002001RAFAEL SAAVEDRA ROJAS                             C000000000112000000000000000000000100010010000000000000000000000F0010000007801000420151024000101 00000000000000000000000000000000000000000000000000000000000000000000000000000000000000000000000000000000000000000N 00000000000NCONT   00    00000000000          00000000000000000000000000000000000000000000 000000000000000A000000000000000000000000000000000000000000000 000000000000000000000000000000000000000     00000000                                                                                                                        000000000000000000
F0010000007801000005000000820258900013552100000000000000000201510240002001RAFAEL SAAVEDRA ROJAS                             D000000000112000000000000000000000100010010000000000000000000000F0010000007801000520151024000101 00000000000000000000000000000000000000000000000000000000000000000000000000000000000000000000000000000000000000000N 00000000000NCONT   00    00000000000          00000000000000000000000000000000000000000000 000000000000000A000000000000000000000000000000000000000000000 000000000000000000000000000000000000000     00000000                                                                                                                        000000000000000000
F0010000007801100001000001022529300011050500000000000000000201510240002001ALBERTO ALVAREZ ISAZA                             D000000000700000000000000000000000100010010000000000000000000000F0010000007801100120151024000101 00000000000000000000000000000000000000000000000000000000000000000000000000000000000000000000000000000000000000000N 00000000000NCONT   00    00000000000          00000000000000000000000000000000000000000000 000000000000000A000000000000000000000000000000000000000000000 000000000000000000000000000000000000000     00000000                                                                                                                        000000000000000000
F0010000007801100002000001022529300041450500000000000000000201510240002001ALBERTO ALVAREZ ISAZA                             C000000000700000000000000000000000100010010000000000000000000000F0010000007801100220151024000101 00000000000000000000000000000000000000000000000000000000000000000000000000000000000000000000000000000000000000000N 00000000000NCONT   00    00000000000          00000000000000000000000000000000000000000000 000000000000000A000000000000000000000000000000000000000000000 000000000000000000000000000000000000000     00000000                                                                                                                        000000000000000000
F0010000007801100003000001022529300042505000000000000000000201510240002001ALBERTO ALVAREZ ISAZA                             C000000000000000000000000000000000100010010000000000000000000000F0010000007801100320151024000101 00000000000000000000000000000000000000000000000000000000000000000000000000000000000000000000000000000000000000000N 00000000000NCONT   00    00000000000          00000000000000000000000000000000000000000000 000000000000000A000000000000000000000000000000000000000000000 000000000000000000000000000000000000000     00000000                                                                                                                        000000000000000000
F0010000007801100004000001022529300023658300000000000000000201510240002001ALBERTO ALVAREZ ISAZA                             C000000000005600000000000000000000100010010000000000000000000000F0010000007801100420151024000101 00000000000000000000000000000000000000000000000000000000000000000000000000000000000000000000000000000000000000000N 00000000000NCONT   00    00000000000          00000000000000000000000000000000000000000000 000000000000000A000000000000000000000000000000000000000000000 000000000000000000000000000000000000000     00000000                                                                                                                        000000000000000000
F0010000007801100005000001022529300013552100000000000000000201510240002001ALBERTO ALVAREZ ISAZA                             D000000000005600000000000000000000100010010000000000000000000000F0010000007801100520151024000101 00000000000000000000000000000000000000000000000000000000000000000000000000000000000000000000000000000000000000000N 00000000000NCONT   00    00000000000          00000000000000000000000000000000000000000000 000000000000000A000000000000000000000000000000000000000000000 000000000000000000000000000000000000000     00000000                                                                                                                        000000000000000000
F0010000007801200001000001022529300011050500000000000000000201510240002001ALBERTO ALVAREZ ISAZA                             D000000000820000000000000000000000100010010000000000000000000000F0010000007801200120151024000101 00000000000000000000000000000000000000000000000000000000000000000000000000000000000000000000000000000000000000000N 00000000000NCONT   00    00000000000          00000000000000000000000000000000000000000000 000000000000000A000000000000000000000000000000000000000000000 000000000000000000000000000000000000000     00000000                                                                                                                        000000000000000000
F0010000007801200002000001022529300041450500000000000000000201510240002001ALBERTO ALVAREZ ISAZA                             C000000000820000000000000000000000100010010000000000000000000000F0010000007801200220151024000101 00000000000000000000000000000000000000000000000000000000000000000000000000000000000000000000000000000000000000000N 00000000000NCONT   00    00000000000          00000000000000000000000000000000000000000000 000000000000000A000000000000000000000000000000000000000000000 000000000000000000000000000000000000000     00000000                                                                                                                        000000000000000000
F0010000007801200003000001022529300042505000000000000000000201510240002001ALBERTO ALVAREZ ISAZA                             C000000000000000000000000000000000100010010000000000000000000000F0010000007801200320151024000101 00000000000000000000000000000000000000000000000000000000000000000000000000000000000000000000000000000000000000000N 00000000000NCONT   00    00000000000          00000000000000000000000000000000000000000000 000000000000000A000000000000000000000000000000000000000000000 000000000000000000000000000000000000000     00000000                                                                                                                        000000000000000000
F0010000007801200004000001022529300023658300000000000000000201510240002001ALBERTO ALVAREZ ISAZA                             C000000000006600000000000000000000100010010000000000000000000000F0010000007801200420151024000101 00000000000000000000000000000000000000000000000000000000000000000000000000000000000000000000000000000000000000000N 00000000000NCONT   00    00000000000          00000000000000000000000000000000000000000000 000000000000000A000000000000000000000000000000000000000000000 000000000000000000000000000000000000000     00000000                                                                                                                        000000000000000000
F0010000007801200005000001022529300013552100000000000000000201510240002001ALBERTO ALVAREZ ISAZA                             D000000000006600000000000000000000100010010000000000000000000000F0010000007801200520151024000101 00000000000000000000000000000000000000000000000000000000000000000000000000000000000000000000000000000000000000000N 00000000000NCONT   00    00000000000          00000000000000000000000000000000000000000000 000000000000000A000000000000000000000000000000000000000000000 000000000000000000000000000000000000000     00000000                                                                                                                        000000000000000000
F0010000007801300001000000431178400011050500000000000000000201510240002001EFRAIN ALVAREZ                                    D000000000820000000000000000000000100010010000000000000000000000F0010000007801300120151024000101 00000000000000000000000000000000000000000000000000000000000000000000000000000000000000000000000000000000000000000N 00000000000NCONT   00    00000000000          00000000000000000000000000000000000000000000 000000000000000A000000000000000000000000000000000000000000000 000000000000000000000000000000000000000     00000000                                                                                                                        000000000000000000
F0010000007801300002000000431178400041450500000000000000000201510240002001EFRAIN ALVAREZ                                    C000000000820000000000000000000000100010010000000000000000000000F0010000007801300220151024000101 00000000000000000000000000000000000000000000000000000000000000000000000000000000000000000000000000000000000000000N 00000000000NCONT   00    00000000000          00000000000000000000000000000000000000000000 000000000000000A000000000000000000000000000000000000000000000 000000000000000000000000000000000000000     00000000                                                                                                                        000000000000000000
