F0010000009152400001000080022903500013050500000000000000000201609200002001TECNOGLASS S.A                                    D000000093627500000000000000000000100010010000000000000000000000F0010000009152400120160920000101 00000000000000000000000000000000000000000000000000000000000000000000000000000000000000000000000000000000000000000N 00000000000NCONT   00    00000000000          00000000000000000000000000000000000000000000 000000000000000A000000000000000000000000000000000000000000000 000000000000000000000000000000000000000     00000000                                                                                                                        000000000000000000
F0010000009152400002000080022903500041450500000000000000000201609200002001TECNOGLASS S.A                                    C000000085350000000000000000000000100010010000000000000000000000F0010000009152400220160920000101 00000000000000000000000000000000000000000000000000000000000000000000000000000000000000000000000000000000000000000N 00000000000NCONT   00    00000000000          00000000000000000000000000000000000000000000 000000000000000A000000000000000000000000000000000000000000000 000000000000000000000000000000000000000     00000000                                                                                                                        000000000000000000
F0010000009152400003000080022903500042505000000000000000000201609200002001TECNOGLASS S.A                                    C000000008277500000000000000000000100010010000000000000000000000F0010000009152400320160920000101 00000000000000000000000000000000000000000000000000000000000000000000000000000000000000000000000000000000000000000N 00000000000NCONT   00    00000000000          00000000000000000000000000000000000000000000 000000000000000A000000000000000000000000000000000000000000000 000000000000000000000000000000000000000     00000000                                                                                                                        000000000000000000
F0010000009152400004000080022903500023658300000000000000000201609200002001TECNOGLASS S.A                                    C000000000682800000000000000000000100010010000000000000000000000F0010000009152400420160920000101 00000000000000000000000000000000000000000000000000000000000000000000000000000000000000000000000000000000000000000N 00000000000NCONT   00    00000000000          00000000000000000000000000000000000000000000 000000000000000A000000000000000000000000000000000000000000000 000000000000000000000000000000000000000     00000000                                                                                                                        000000000000000000
F0010000009152400005000080022903500013552100000000000000000201609200002001TECNOGLASS S.A                                    D000000000682800000000000000000000100010010000000000000000000000F0010000009152400520160920000101 00000000000000000000000000000000000000000000000000000000000000000000000000000000000000000000000000000000000000000N 00000000000NCONT   00    00000000000          00000000000000000000000000000000000000000000 000000000000000A000000000000000000000000000000000000000000000 000000000000000000000000000000000000000     00000000                                                                                                                        000000000000000000
F0010000009152500001000000748239700013050500000000000000000201609200002001RAFAEL NAVARRO URIBE                              D000000020809200000000000000000000100010010000000000000000000000F0010000009152500120160920000101 00000000000000000000000000000000000000000000000000000000000000000000000000000000000000000000000000000000000000000N 00000000000NCONT   00    00000000000          00000000000000000000000000000000000000000000 000000000000000A000000000000000000000000000000000000000000000 000000000000000000000000000000000000000     00000000                                                                                                                        000000000000000000
F0010000009152500002000000748239700041450500000000000000000201609200002001RAFAEL NAVARRO URIBE                              C000000010410000000000000000000000100010010000000000000000000000F0010000009152500220160920000101 00000000000000000000000000000000000000000000000000000000000000000000000000000000000000000000000000000000000000000N 00000000000NCONT   00    00000000000          00000000000000000000000000000000000000000000 000000000000000A000000000000000000000000000000000000000000000 000000000000000000000000000000000000000     00000000                                                                                                                        000000000000000000
F0010000009152500003000000748239700042505000000000000000000201609200002001RAFAEL NAVARRO URIBE                              C000000010399200000000000000000000100010010000000000000000000000F0010000009152500320160920000101 00000000000000000000000000000000000000000000000000000000000000000000000000000000000000000000000000000000000000000N 00000000000NCONT   00    00000000000          00000000000000000000000000000000000000000000 000000000000000A000000000000000000000000000000000000000000000 000000000000000000000000000000000000000     00000000                                                                                                                        000000000000000000
F0010000009152500004000000748239700023658300000000000000000201609200002001RAFAEL NAVARRO URIBE                              C000000000083300000000000000000000100010010000000000000000000000F0010000009152500420160920000101 00000000000000000000000000000000000000000000000000000000000000000000000000000000000000000000000000000000000000000N 00000000000NCONT   00    00000000000          00000000000000000000000000000000000000000000 000000000000000A000000000000000000000000000000000000000000000 000000000000000000000000000000000000000     00000000                                                                                                                        000000000000000000
F0010000009152500005000000748239700013552100000000000000000201609200002001RAFAEL NAVARRO URIBE                              D000000000083300000000000000000000100010010000000000000000000000F0010000009152500520160920000101 00000000000000000000000000000000000000000000000000000000000000000000000000000000000000000000000000000000000000000N 00000000000NCONT   00    00000000000          00000000000000000000000000000000000000000000 000000000000000A000000000000000000000000000000000000000000000 000000000000000000000000000000000000000     00000000                                                                                                                        000000000000000000
F0010000009152600001000080200863700013050500000000000000000201609200002001COPIN S.A.S                                       D000000112404700000000000000000000100010010000000000000000000000F0010000009152600120160920000101 00000000000000000000000000000000000000000000000000000000000000000000000000000000000000000000000000000000000000000N 00000000000NCONT   00    00000000000          00000000000000000000000000000000000000000000 000000000000000A000000000000000000000000000000000000000000000 000000000000000000000000000000000000000     00000000                                                                                                                        000000000000000000
F0010000009152600002000080200863700041450500000000000000000201609200002001COPIN S.A.S                                       C000000101273000000000000000000000100010010000000000000000000000F0010000009152600220160920000101 00000000000000000000000000000000000000000000000000000000000000000000000000000000000000000000000000000000000000000N 00000000000NCONT   00    00000000000          00000000000000000000000000000000000000000000 000000000000000A000000000000000000000000000000000000000000000 000000000000000000000000000000000000000     00000000                                                                                                                        000000000000000000
F0010000009152600003000080200863700042505000000000000000000201609200002001COPIN S.A.S                                       C000000011131700000000000000000000100010010000000000000000000000F0010000009152600320160920000101 00000000000000000000000000000000000000000000000000000000000000000000000000000000000000000000000000000000000000000N 00000000000NCONT   00    00000000000          00000000000000000000000000000000000000000000 000000000000000A000000000000000000000000000000000000000000000 000000000000000000000000000000000000000     00000000                                                                                                                        000000000000000000
F0010000009152600004000080200863700023658300000000000000000201609200002001COPIN S.A.S                                       C000000000810200000000000000000000100010010000000000000000000000F0010000009152600420160920000101 00000000000000000000000000000000000000000000000000000000000000000000000000000000000000000000000000000000000000000N 00000000000NCONT   00    00000000000          00000000000000000000000000000000000000000000 000000000000000A000000000000000000000000000000000000000000000 000000000000000000000000000000000000000     00000000                                                                                                                        000000000000000000
F0010000009152600005000080200863700013552100000000000000000201609200002001COPIN S.A.S                                       D000000000810200000000000000000000100010010000000000000000000000F0010000009152600520160920000101 00000000000000000000000000000000000000000000000000000000000000000000000000000000000000000000000000000000000000000N 00000000000NCONT   00    00000000000          00000000000000000000000000000000000000000000 000000000000000A000000000000000000000000000000000000000000000 000000000000000000000000000000000000000     00000000                                                                                                                        000000000000000000
F0010000009152700001000086000490200013050500000000000000000201609200002001PROV. DE PAPELES ANDINA S.A.                      D000000143726500000000000000000000100010010000000000000000000000F0010000009152700120160920000101 00000000000000000000000000000000000000000000000000000000000000000000000000000000000000000000000000000000000000000N 00000000000NCONT   00    00000000000          00000000000000000000000000000000000000000000 000000000000000A000000000000000000000000000000000000000000000 000000000000000000000000000000000000000     00000000                                                                                                                        000000000000000000
F0010000009152700002000086000490200041450500000000000000000201609200002001PROV. DE PAPELES ANDINA S.A.                      C000000132439900000000000000000000100010010000000000000000000000F0010000009152700220160920000101 00000000000000000000000000000000000000000000000000000000000000000000000000000000000000000000000000000000000000000N 00000000000NCONT   00    00000000000          00000000000000000000000000000000000000000000 000000000000000A000000000000000000000000000000000000000000000 000000000000000000000000000000000000000     00000000                                                                                                                        000000000000000000
F0010000009152700003000086000490200042505000000000000000000201609200002001PROV. DE PAPELES ANDINA S.A.                      C000000011286600000000000000000000100010010000000000000000000000F0010000009152700320160920000101 00000000000000000000000000000000000000000000000000000000000000000000000000000000000000000000000000000000000000000N 00000000000NCONT   00    00000000000          00000000000000000000000000000000000000000000 000000000000000A000000000000000000000000000000000000000000000 000000000000000000000000000000000000000     00000000                                                                                                                        000000000000000000
F0010000009152700004000086000490200023658300000000000000000201609200002001PROV. DE PAPELES ANDINA S.A.                      C000000001059500000000000000000000100010010000000000000000000000F0010000009152700420160920000101 00000000000000000000000000000000000000000000000000000000000000000000000000000000000000000000000000000000000000000N 00000000000NCONT   00    00000000000          00000000000000000000000000000000000000000000 000000000000000A000000000000000000000000000000000000000000000 000000000000000000000000000000000000000     00000000                                                                                                                        000000000000000000
F0010000009152700005000086000490200013552100000000000000000201609200002001PROV. DE PAPELES ANDINA S.A.                      D000000001059500000000000000000000100010010000000000000000000000F0010000009152700520160920000101 00000000000000000000000000000000000000000000000000000000000000000000000000000000000000000000000000000000000000000N 00000000000NCONT   00    00000000000          00000000000000000000000000000000000000000000 000000000000000A000000000000000000000000000000000000000000000 000000000000000000000000000000000000000     00000000                                                                                                                        000000000000000000
F0010000009152800001000089080176300013050500000000000000000201609200002001SEGAR S.A.                                        D000000077085200000000000000000000100010010000000000000000000000F0010000009152800120160920000101 00000000000000000000000000000000000000000000000000000000000000000000000000000000000000000000000000000000000000000N 00000000000NCONT   00    00000000000          00000000000000000000000000000000000000000000 000000000000000A000000000000000000000000000000000000000000000 000000000000000000000000000000000000000     00000000                                                                                                                        000000000000000000
F0010000009152800002000089080176300041450500000000000000000201609200002001SEGAR S.A.                                        C000000068280000000000000000000000100010010000000000000000000000F0010000009152800220160920000101 00000000000000000000000000000000000000000000000000000000000000000000000000000000000000000000000000000000000000000N 00000000000NCONT   00    00000000000          00000000000000000000000000000000000000000000 000000000000000A000000000000000000000000000000000000000000000 000000000000000000000000000000000000000     00000000                                                                                                                        000000000000000000
F0010000009152800003000089080176300042505000000000000000000201609200002001SEGAR S.A.                                        C000000008805200000000000000000000100010010000000000000000000000F0010000009152800320160920000101 00000000000000000000000000000000000000000000000000000000000000000000000000000000000000000000000000000000000000000N 00000000000NCONT   00    00000000000          00000000000000000000000000000000000000000000 000000000000000A000000000000000000000000000000000000000000000 000000000000000000000000000000000000000     00000000                                                                                                                        000000000000000000
F0010000009152800004000089080176300023658300000000000000000201609200002001SEGAR S.A.                                        C000000000546200000000000000000000100010010000000000000000000000F0010000009152800420160920000101 00000000000000000000000000000000000000000000000000000000000000000000000000000000000000000000000000000000000000000N 00000000000NCONT   00    00000000000          00000000000000000000000000000000000000000000 000000000000000A000000000000000000000000000000000000000000000 000000000000000000000000000000000000000     00000000                                                                                                                        000000000000000000
F0010000009152800005000089080176300013552100000000000000000201609200002001SEGAR S.A.                                        D000000000546200000000000000000000100010010000000000000000000000F0010000009152800520160920000101 00000000000000000000000000000000000000000000000000000000000000000000000000000000000000000000000000000000000000000N 00000000000NCONT   00    00000000000          00000000000000000000000000000000000000000000 000000000000000A000000000000000000000000000000000000000000000 000000000000000000000000000000000000000     00000000                                                                                                                        000000000000000000
F0010000009152900001000080202094000013050500000000000000000201609200002001DISTRIB. OMAR ORREGO S.A.                         D000000078421300000000000000000000100010010000000000000000000000F0010000009152900120160920000101 00000000000000000000000000000000000000000000000000000000000000000000000000000000000000000000000000000000000000000N 00000000000NCONT   00    00000000000          00000000000000000000000000000000000000000000 000000000000000A000000000000000000000000000000000000000000000 000000000000000000000000000000000000000     00000000                                                                                                                        000000000000000000
F0010000009152900002000080202094000041450500000000000000000201609200002001DISTRIB. OMAR ORREGO S.A.                         C000000052950000000000000000000000100010010000000000000000000000F0010000009152900220160920000101 00000000000000000000000000000000000000000000000000000000000000000000000000000000000000000000000000000000000000000N 00000000000NCONT   00    00000000000          00000000000000000000000000000000000000000000 000000000000000A000000000000000000000000000000000000000000000 000000000000000000000000000000000000000     00000000                                                                                                                        000000000000000000
F0010000009152900003000080202094000042505000000000000000000201609200002001DISTRIB. OMAR ORREGO S.A.                         C000000025471300000000000000000000100010010000000000000000000000F0010000009152900320160920000101 00000000000000000000000000000000000000000000000000000000000000000000000000000000000000000000000000000000000000000N 00000000000NCONT   00    00000000000          00000000000000000000000000000000000000000000 000000000000000A000000000000000000000000000000000000000000000 000000000000000000000000000000000000000     00000000                                                                                                                        000000000000000000
F0010000009152900004000080202094000023658300000000000000000201609200002001DISTRIB. OMAR ORREGO S.A.                         C000000000423600000000000000000000100010010000000000000000000000F0010000009152900420160920000101 00000000000000000000000000000000000000000000000000000000000000000000000000000000000000000000000000000000000000000N 00000000000NCONT   00    00000000000          00000000000000000000000000000000000000000000 000000000000000A000000000000000000000000000000000000000000000 000000000000000000000000000000000000000     00000000                                                                                                                        000000000000000000
F0010000009152900005000080202094000013552100000000000000000201609200002001DISTRIB. OMAR ORREGO S.A.                         D000000000423600000000000000000000100010010000000000000000000000F0010000009152900520160920000101 00000000000000000000000000000000000000000000000000000000000000000000000000000000000000000000000000000000000000000N 00000000000NCONT   00    00000000000          00000000000000000000000000000000000000000000 000000000000000A000000000000000000000000000000000000000000000 000000000000000000000000000000000000000     00000000                                                                                                                        000000000000000000
F0010000009153000001000080202094000013050500000000000000000201609200002001DISTRIB. OMAR ORREGO S.A.                         D000000042950900000000000000000000100010010000000000000000000000F0010000009153000120160920000101 00000000000000000000000000000000000000000000000000000000000000000000000000000000000000000000000000000000000000000N 00000000000NCONT   00    00000000000          00000000000000000000000000000000000000000000 000000000000000A000000000000000000000000000000000000000000000 000000000000000000000000000000000000000     00000000                                                                                                                        000000000000000000
F0010000009153000002000080202094000041450500000000000000000201609200002001DISTRIB. OMAR ORREGO S.A.                         C000000032140000000000000000000000100010010000000000000000000000F0010000009153000220160920000101 00000000000000000000000000000000000000000000000000000000000000000000000000000000000000000000000000000000000000000N 00000000000NCONT   00    00000000000          00000000000000000000000000000000000000000000 000000000000000A000000000000000000000000000000000000000000000 000000000000000000000000000000000000000     00000000                                                                                                                        000000000000000000
F0010000009153000003000080202094000042505000000000000000000201609200002001DISTRIB. OMAR ORREGO S.A.                         C000000010810900000000000000000000100010010000000000000000000000F0010000009153000320160920000101 00000000000000000000000000000000000000000000000000000000000000000000000000000000000000000000000000000000000000000N 00000000000NCONT   00    00000000000          00000000000000000000000000000000000000000000 000000000000000A000000000000000000000000000000000000000000000 000000000000000000000000000000000000000     00000000                                                                                                                        000000000000000000
F0010000009153000004000080202094000023658300000000000000000201609200002001DISTRIB. OMAR ORREGO S.A.                         C000000000257100000000000000000000100010010000000000000000000000F0010000009153000420160920000101 00000000000000000000000000000000000000000000000000000000000000000000000000000000000000000000000000000000000000000N 00000000000NCONT   00    00000000000          00000000000000000000000000000000000000000000 000000000000000A000000000000000000000000000000000000000000000 000000000000000000000000000000000000000     00000000                                                                                                                        000000000000000000
F0010000009153000005000080202094000013552100000000000000000201609200002001DISTRIB. OMAR ORREGO S.A.                         D000000000257100000000000000000000100010010000000000000000000000F0010000009153000520160920000101 00000000000000000000000000000000000000000000000000000000000000000000000000000000000000000000000000000000000000000N 00000000000NCONT   00    00000000000          00000000000000000000000000000000000000000000 000000000000000A000000000000000000000000000000000000000000000 000000000000000000000000000000000000000     00000000                                                                                                                        000000000000000000
F0010000009153100001000090008711200013050500000000000000000201609200002001PACKAGING SUPPLIERS S.A.                          D000000058997600000000000000000000100010010000000000000000000000F0010000009153100120160920000101 00000000000000000000000000000000000000000000000000000000000000000000000000000000000000000000000000000000000000000N 00000000000NCONT   00    00000000000          00000000000000000000000000000000000000000000 000000000000000A000000000000000000000000000000000000000000000 000000000000000000000000000000000000000     00000000                                                                                                                        000000000000000000
F0010000009153100002000090008711200041450500000000000000000201609200002001PACKAGING SUPPLIERS S.A.                          C000000052313000000000000000000000100010010000000000000000000000F0010000009153100220160920000101 00000000000000000000000000000000000000000000000000000000000000000000000000000000000000000000000000000000000000000N 00000000000NCONT   00    00000000000          00000000000000000000000000000000000000000000 000000000000000A000000000000000000000000000000000000000000000 000000000000000000000000000000000000000     00000000                                                                                                                        000000000000000000
F0010000009153100003000090008711200042505000000000000000000201609200002001PACKAGING SUPPLIERS S.A.                          C000000006684600000000000000000000100010010000000000000000000000F0010000009153100320160920000101 00000000000000000000000000000000000000000000000000000000000000000000000000000000000000000000000000000000000000000N 00000000000NCONT   00    00000000000          00000000000000000000000000000000000000000000 000000000000000A000000000000000000000000000000000000000000000 000000000000000000000000000000000000000     00000000                                                                                                                        000000000000000000
F0010000009153100004000090008711200023658300000000000000000201609200002001PACKAGING SUPPLIERS S.A.                          C000000000418500000000000000000000100010010000000000000000000000F0010000009153100420160920000101 00000000000000000000000000000000000000000000000000000000000000000000000000000000000000000000000000000000000000000N 00000000000NCONT   00    00000000000          00000000000000000000000000000000000000000000 000000000000000A000000000000000000000000000000000000000000000 000000000000000000000000000000000000000     00000000                                                                                                                        000000000000000000
F0010000009153100005000090008711200013552100000000000000000201609200002001PACKAGING SUPPLIERS S.A.                          D000000000418500000000000000000000100010010000000000000000000000F0010000009153100520160920000101 00000000000000000000000000000000000000000000000000000000000000000000000000000000000000000000000000000000000000000N 00000000000NCONT   00    00000000000          00000000000000000000000000000000000000000000 000000000000000A000000000000000000000000000000000000000000000 000000000000000000000000000000000000000     00000000                                                                                                                        000000000000000000
F0010000009153200001000090008711200013050500000000000000000201609200002001PACKAGING SUPPLIERS S.A.                          D000000007774000000000000000000000100010010000000000000000000000F0010000009153200120160920000101 00000000000000000000000000000000000000000000000000000000000000000000000000000000000000000000000000000000000000000N 00000000000NCONT   00    00000000000          00000000000000000000000000000000000000000000 000000000000000A000000000000000000000000000000000000000000000 000000000000000000000000000000000000000     00000000                                                                                                                        000000000000000000
F0010000009153200002000090008711200041450500000000000000000201609200002001PACKAGING SUPPLIERS S.A.                          C000000006424000000000000000000000100010010000000000000000000000F0010000009153200220160920000101 00000000000000000000000000000000000000000000000000000000000000000000000000000000000000000000000000000000000000000N 00000000000NCONT   00    00000000000          00000000000000000000000000000000000000000000 000000000000000A000000000000000000000000000000000000000000000 000000000000000000000000000000000000000     00000000                                                                                                                        000000000000000000
F0010000009153200003000090008711200042505000000000000000000201609200002001PACKAGING SUPPLIERS S.A.                          C000000001350000000000000000000000100010010000000000000000000000F0010000009153200320160920000101 00000000000000000000000000000000000000000000000000000000000000000000000000000000000000000000000000000000000000000N 00000000000NCONT   00    00000000000          00000000000000000000000000000000000000000000 000000000000000A000000000000000000000000000000000000000000000 000000000000000000000000000000000000000     00000000                                                                                                                        000000000000000000
F0010000009153200004000090008711200023658300000000000000000201609200002001PACKAGING SUPPLIERS S.A.                          C000000000051400000000000000000000100010010000000000000000000000F0010000009153200420160920000101 00000000000000000000000000000000000000000000000000000000000000000000000000000000000000000000000000000000000000000N 00000000000NCONT   00    00000000000          00000000000000000000000000000000000000000000 000000000000000A000000000000000000000000000000000000000000000 000000000000000000000000000000000000000     00000000                                                                                                                        000000000000000000
F0010000009153200005000090008711200013552100000000000000000201609200002001PACKAGING SUPPLIERS S.A.                          D000000000051400000000000000000000100010010000000000000000000000F0010000009153200520160920000101 00000000000000000000000000000000000000000000000000000000000000000000000000000000000000000000000000000000000000000N 00000000000NCONT   00    00000000000          00000000000000000000000000000000000000000000 000000000000000A000000000000000000000000000000000000000000000 000000000000000000000000000000000000000     00000000                                                                                                                        000000000000000000
F0010000009153300001000089010260300013050500000000000000000201609200002001FEDERICO OSORIO A. S.A.                           D000000168100500000000000000000000100010010000000000000000000000F0010000009153300120160920000101 00000000000000000000000000000000000000000000000000000000000000000000000000000000000000000000000000000000000000000N 00000000000NCONT   00    00000000000          00000000000000000000000000000000000000000000 000000000000000A000000000000000000000000000000000000000000000 000000000000000000000000000000000000000     00000000                                                                                                                        000000000000000000
F0010000009153300002000089010260300041450500000000000000000201609200002001FEDERICO OSORIO A. S.A.                           C000000161520000000000000000000000100010010000000000000000000000F0010000009153300220160920000101 00000000000000000000000000000000000000000000000000000000000000000000000000000000000000000000000000000000000000000N 00000000000NCONT   00    00000000000          00000000000000000000000000000000000000000000 000000000000000A000000000000000000000000000000000000000000000 000000000000000000000000000000000000000     00000000                                                                                                                        000000000000000000
F0010000009153300003000089010260300042505000000000000000000201609200002001FEDERICO OSORIO A. S.A.                           C000000006580500000000000000000000100010010000000000000000000000F0010000009153300320160920000101 00000000000000000000000000000000000000000000000000000000000000000000000000000000000000000000000000000000000000000N 00000000000NCONT   00    00000000000          00000000000000000000000000000000000000000000 000000000000000A000000000000000000000000000000000000000000000 000000000000000000000000000000000000000     00000000                                                                                                                        000000000000000000
F0010000009153300004000089010260300023658300000000000000000201609200002001FEDERICO OSORIO A. S.A.                           C000000001292200000000000000000000100010010000000000000000000000F0010000009153300420160920000101 00000000000000000000000000000000000000000000000000000000000000000000000000000000000000000000000000000000000000000N 00000000000NCONT   00    00000000000          00000000000000000000000000000000000000000000 000000000000000A000000000000000000000000000000000000000000000 000000000000000000000000000000000000000     00000000                                                                                                                        000000000000000000
F0010000009153300005000089010260300013552100000000000000000201609200002001FEDERICO OSORIO A. S.A.                           D000000001292200000000000000000000100010010000000000000000000000F0010000009153300520160920000101 00000000000000000000000000000000000000000000000000000000000000000000000000000000000000000000000000000000000000000N 00000000000NCONT   00    00000000000          00000000000000000000000000000000000000000000 000000000000000A000000000000000000000000000000000000000000000 000000000000000000000000000000000000000     00000000                                                                                                                        000000000000000000
F0010000009153400001000089010260300013050500000000000000000201609200002001FEDERICO OSORIO A. S.A.                           D000000181441900000000000000000000100010010000000000000000000000F0010000009153400120160920000101 00000000000000000000000000000000000000000000000000000000000000000000000000000000000000000000000000000000000000000N 00000000000NCONT   00    00000000000          00000000000000000000000000000000000000000000 000000000000000A000000000000000000000000000000000000000000000 000000000000000000000000000000000000000     00000000                                                                                                                        000000000000000000
F0010000009153400002000089010260300041450500000000000000000201609200002001FEDERICO OSORIO A. S.A.                           C000000172940000000000000000000000100010010000000000000000000000F0010000009153400220160920000101 00000000000000000000000000000000000000000000000000000000000000000000000000000000000000000000000000000000000000000N 00000000000NCONT   00    00000000000          00000000000000000000000000000000000000000000 000000000000000A000000000000000000000000000000000000000000000 000000000000000000000000000000000000000     00000000                                                                                                                        000000000000000000
F0010000009153400003000089010260300042505000000000000000000201609200002001FEDERICO OSORIO A. S.A.                           C000000008501900000000000000000000100010010000000000000000000000F0010000009153400320160920000101 00000000000000000000000000000000000000000000000000000000000000000000000000000000000000000000000000000000000000000N 00000000000NCONT   00    00000000000          00000000000000000000000000000000000000000000 000000000000000A000000000000000000000000000000000000000000000 000000000000000000000000000000000000000     00000000                                                                                                                        000000000000000000
F0010000009153400004000089010260300023658300000000000000000201609200002001FEDERICO OSORIO A. S.A.                           C000000001383500000000000000000000100010010000000000000000000000F0010000009153400420160920000101 00000000000000000000000000000000000000000000000000000000000000000000000000000000000000000000000000000000000000000N 00000000000NCONT   00    00000000000          00000000000000000000000000000000000000000000 000000000000000A000000000000000000000000000000000000000000000 000000000000000000000000000000000000000     00000000                                                                                                                        000000000000000000
F0010000009153400005000089010260300013552100000000000000000201609200002001FEDERICO OSORIO A. S.A.                           D000000001383500000000000000000000100010010000000000000000000000F0010000009153400520160920000101 00000000000000000000000000000000000000000000000000000000000000000000000000000000000000000000000000000000000000000N 00000000000NCONT   00    00000000000          00000000000000000000000000000000000000000000 000000000000000A000000000000000000000000000000000000000000000 000000000000000000000000000000000000000     00000000                                                                                                                        000000000000000000
F0010000009153500001000080004943800013050500000000000000000201609200002001PAPELERIA EL CID S.A.                             D000000050688200000000000000000000100010010000000000000000000000F0010000009153500120160920000101 00000000000000000000000000000000000000000000000000000000000000000000000000000000000000000000000000000000000000000N 00000000000NCONT   00    00000000000          00000000000000000000000000000000000000000000 000000000000000A000000000000000000000000000000000000000000000 000000000000000000000000000000000000000     00000000                                                                                                                        000000000000000000
F0010000009153500002000080004943800041450500000000000000000201609200002001PAPELERIA EL CID S.A.                             C000000039950000000000000000000000100010010000000000000000000000F0010000009153500220160920000101 00000000000000000000000000000000000000000000000000000000000000000000000000000000000000000000000000000000000000000N 00000000000NCONT   00    00000000000          00000000000000000000000000000000000000000000 000000000000000A000000000000000000000000000000000000000000000 000000000000000000000000000000000000000     00000000                                                                                                                        000000000000000000
F0010000009153500003000080004943800042505000000000000000000201609200002001PAPELERIA EL CID S.A.                             C000000010738200000000000000000000100010010000000000000000000000F0010000009153500320160920000101 00000000000000000000000000000000000000000000000000000000000000000000000000000000000000000000000000000000000000000N 00000000000NCONT   00    00000000000          00000000000000000000000000000000000000000000 000000000000000A000000000000000000000000000000000000000000000 000000000000000000000000000000000000000     00000000                                                                                                                        000000000000000000
F0010000009153500004000080004943800023658300000000000000000201609200002001PAPELERIA EL CID S.A.                             C000000000319600000000000000000000100010010000000000000000000000F0010000009153500420160920000101 00000000000000000000000000000000000000000000000000000000000000000000000000000000000000000000000000000000000000000N 00000000000NCONT   00    00000000000          00000000000000000000000000000000000000000000 000000000000000A000000000000000000000000000000000000000000000 000000000000000000000000000000000000000     00000000                                                                                                                        000000000000000000
F0010000009153500005000080004943800013552100000000000000000201609200002001PAPELERIA EL CID S.A.                             D000000000319600000000000000000000100010010000000000000000000000F0010000009153500520160920000101 00000000000000000000000000000000000000000000000000000000000000000000000000000000000000000000000000000000000000000N 00000000000NCONT   00    00000000000          00000000000000000000000000000000000000000000 000000000000000A000000000000000000000000000000000000000000000 000000000000000000000000000000000000000     00000000                                                                                                                        000000000000000000
F0010000009153600001000080004943800013050500000000000000000201609200002001PAPELERIA EL CID S.A.                             D000000088547500000000000000000000100010010000000000000000000000F0010000009153600120160920000101 00000000000000000000000000000000000000000000000000000000000000000000000000000000000000000000000000000000000000000N 00000000000NCONT   00    00000000000          00000000000000000000000000000000000000000000 000000000000000A000000000000000000000000000000000000000000000 000000000000000000000000000000000000000     00000000                                                                                                                        000000000000000000
F0010000009153600002000080004943800041450500000000000000000201609200002001PAPELERIA EL CID S.A.                             C000000074570000000000000000000000100010010000000000000000000000F0010000009153600220160920000101 00000000000000000000000000000000000000000000000000000000000000000000000000000000000000000000000000000000000000000N 00000000000NCONT   00    00000000000          00000000000000000000000000000000000000000000 000000000000000A000000000000000000000000000000000000000000000 000000000000000000000000000000000000000     00000000                                                                                                                        000000000000000000
F0010000009153600003000080004943800042505000000000000000000201609200002001PAPELERIA EL CID S.A.                             C000000013977500000000000000000000100010010000000000000000000000F0010000009153600320160920000101 00000000000000000000000000000000000000000000000000000000000000000000000000000000000000000000000000000000000000000N 00000000000NCONT   00    00000000000          00000000000000000000000000000000000000000000 000000000000000A000000000000000000000000000000000000000000000 000000000000000000000000000000000000000     00000000                                                                                                                        000000000000000000
F0010000009153600004000080004943800023658300000000000000000201609200002001PAPELERIA EL CID S.A.                             C000000000596600000000000000000000100010010000000000000000000000F0010000009153600420160920000101 00000000000000000000000000000000000000000000000000000000000000000000000000000000000000000000000000000000000000000N 00000000000NCONT   00    00000000000          00000000000000000000000000000000000000000000 000000000000000A000000000000000000000000000000000000000000000 000000000000000000000000000000000000000     00000000                                                                                                                        000000000000000000
F0010000009153600005000080004943800013552100000000000000000201609200002001PAPELERIA EL CID S.A.                             D000000000596600000000000000000000100010010000000000000000000000F0010000009153600520160920000101 00000000000000000000000000000000000000000000000000000000000000000000000000000000000000000000000000000000000000000N 00000000000NCONT   00    00000000000          00000000000000000000000000000000000000000000 000000000000000A000000000000000000000000000000000000000000000 000000000000000000000000000000000000000     00000000                                                                                                                        000000000000000000
F0010000009153700001000080201112800013050500000000000000000201609200002001CANGURO INTERNATIONAL S.A.                        D000000173727500000000000000000000100010010000000000000000000000F0010000009153700120160920000101 00000000000000000000000000000000000000000000000000000000000000000000000000000000000000000000000000000000000000000N 00000000000NCONT   00    00000000000          00000000000000000000000000000000000000000000 000000000000000A000000000000000000000000000000000000000000000 000000000000000000000000000000000000000     00000000                                                                                                                        000000000000000000
F0010000009153700002000080201112800041450500000000000000000201609200002001CANGURO INTERNATIONAL S.A.                        C000000173727500000000000000000000100010010000000000000000000000F0010000009153700220160920000101 00000000000000000000000000000000000000000000000000000000000000000000000000000000000000000000000000000000000000000N 00000000000NCONT   00    00000000000          00000000000000000000000000000000000000000000 000000000000000A000000000000000000000000000000000000000000000 000000000000000000000000000000000000000     00000000                                                                                                                        000000000000000000
F0010000009153700003000080201112800042505000000000000000000201609200002001CANGURO INTERNATIONAL S.A.                        C000000000000000000000000000000000100010010000000000000000000000F0010000009153700320160920000101 00000000000000000000000000000000000000000000000000000000000000000000000000000000000000000000000000000000000000000N 00000000000NCONT   00    00000000000          00000000000000000000000000000000000000000000 000000000000000A000000000000000000000000000000000000000000000 000000000000000000000000000000000000000     00000000                                                                                                                        000000000000000000
F0010000009153700004000080201112800023658300000000000000000201609200002001CANGURO INTERNATIONAL S.A.                        C000000001389800000000000000000000100010010000000000000000000000F0010000009153700420160920000101 00000000000000000000000000000000000000000000000000000000000000000000000000000000000000000000000000000000000000000N 00000000000NCONT   00    00000000000          00000000000000000000000000000000000000000000 000000000000000A000000000000000000000000000000000000000000000 000000000000000000000000000000000000000     00000000                                                                                                                        000000000000000000
F0010000009153700005000080201112800013552100000000000000000201609200002001CANGURO INTERNATIONAL S.A.                        D000000001389800000000000000000000100010010000000000000000000000F0010000009153700520160920000101 00000000000000000000000000000000000000000000000000000000000000000000000000000000000000000000000000000000000000000N 00000000000NCONT   00    00000000000          00000000000000000000000000000000000000000000 000000000000000A000000000000000000000000000000000000000000000 000000000000000000000000000000000000000     00000000                                                                                                                        000000000000000000
F0010000009153800001000080201112800013050500000000000000000201609200002001CANGURO INTERNATIONAL S.A.                        D000000148825100000000000000000000100010010000000000000000000000F0010000009153800120160920000101 00000000000000000000000000000000000000000000000000000000000000000000000000000000000000000000000000000000000000000N 00000000000NCONT   00    00000000000          00000000000000000000000000000000000000000000 000000000000000A000000000000000000000000000000000000000000000 000000000000000000000000000000000000000     00000000                                                                                                                        000000000000000000
F0010000009153800002000080201112800041450500000000000000000201609200002001CANGURO INTERNATIONAL S.A.                        C000000142456100000000000000000000100010010000000000000000000000F0010000009153800220160920000101 00000000000000000000000000000000000000000000000000000000000000000000000000000000000000000000000000000000000000000N 00000000000NCONT   00    00000000000          00000000000000000000000000000000000000000000 000000000000000A000000000000000000000000000000000000000000000 000000000000000000000000000000000000000     00000000                                                                                                                        000000000000000000
F0010000009153800003000080201112800042505000000000000000000201609200002001CANGURO INTERNATIONAL S.A.                        C000000006369000000000000000000000100010010000000000000000000000F0010000009153800320160920000101 00000000000000000000000000000000000000000000000000000000000000000000000000000000000000000000000000000000000000000N 00000000000NCONT   00    00000000000          00000000000000000000000000000000000000000000 000000000000000A000000000000000000000000000000000000000000000 000000000000000000000000000000000000000     00000000                                                                                                                        000000000000000000
F0010000009153800004000080201112800023658300000000000000000201609200002001CANGURO INTERNATIONAL S.A.                        C000000001139600000000000000000000100010010000000000000000000000F0010000009153800420160920000101 00000000000000000000000000000000000000000000000000000000000000000000000000000000000000000000000000000000000000000N 00000000000NCONT   00    00000000000          00000000000000000000000000000000000000000000 000000000000000A000000000000000000000000000000000000000000000 000000000000000000000000000000000000000     00000000                                                                                                                        000000000000000000
F0010000009153800005000080201112800013552100000000000000000201609200002001CANGURO INTERNATIONAL S.A.                        D000000001139600000000000000000000100010010000000000000000000000F0010000009153800520160920000101 00000000000000000000000000000000000000000000000000000000000000000000000000000000000000000000000000000000000000000N 00000000000NCONT   00    00000000000          00000000000000000000000000000000000000000000 000000000000000A000000000000000000000000000000000000000000000 000000000000000000000000000000000000000     00000000                                                                                                                        000000000000000000
F0010000009153900001000080201112800013050500000000000000000201609200002001CANGURO INTERNATIONAL S.A.                        D000000142703100000000000000000000100010010000000000000000000000F0010000009153900120160920000101 00000000000000000000000000000000000000000000000000000000000000000000000000000000000000000000000000000000000000000N 00000000000NCONT   00    00000000000          00000000000000000000000000000000000000000000 000000000000000A000000000000000000000000000000000000000000000 000000000000000000000000000000000000000     00000000                                                                                                                        000000000000000000
F0010000009153900002000080201112800041450500000000000000000201609200002001CANGURO INTERNATIONAL S.A.                        C000000140186300000000000000000000100010010000000000000000000000F0010000009153900220160920000101 00000000000000000000000000000000000000000000000000000000000000000000000000000000000000000000000000000000000000000N 00000000000NCONT   00    00000000000          00000000000000000000000000000000000000000000 000000000000000A000000000000000000000000000000000000000000000 000000000000000000000000000000000000000     00000000                                                                                                                        000000000000000000
F0010000009153900003000080201112800042505000000000000000000201609200002001CANGURO INTERNATIONAL S.A.                        C000000002516800000000000000000000100010010000000000000000000000F0010000009153900320160920000101 00000000000000000000000000000000000000000000000000000000000000000000000000000000000000000000000000000000000000000N 00000000000NCONT   00    00000000000          00000000000000000000000000000000000000000000 000000000000000A000000000000000000000000000000000000000000000 000000000000000000000000000000000000000     00000000                                                                                                                        000000000000000000
F0010000009153900004000080201112800023658300000000000000000201609200002001CANGURO INTERNATIONAL S.A.                        C000000001121500000000000000000000100010010000000000000000000000F0010000009153900420160920000101 00000000000000000000000000000000000000000000000000000000000000000000000000000000000000000000000000000000000000000N 00000000000NCONT   00    00000000000          00000000000000000000000000000000000000000000 000000000000000A000000000000000000000000000000000000000000000 000000000000000000000000000000000000000     00000000                                                                                                                        000000000000000000
F0010000009153900005000080201112800013552100000000000000000201609200002001CANGURO INTERNATIONAL S.A.                        D000000001121500000000000000000000100010010000000000000000000000F0010000009153900520160920000101 00000000000000000000000000000000000000000000000000000000000000000000000000000000000000000000000000000000000000000N 00000000000NCONT   00    00000000000          00000000000000000000000000000000000000000000 000000000000000A000000000000000000000000000000000000000000000 000000000000000000000000000000000000000     00000000                                                                                                                        000000000000000000
F0010000009154000001000080201112800013050500000000000000000201609200002001CANGURO INTERNATIONAL S.A.                        D000000048713600000000000000000000100010010000000000000000000000F0010000009154000120160920000101 00000000000000000000000000000000000000000000000000000000000000000000000000000000000000000000000000000000000000000N 00000000000NCONT   00    00000000000          00000000000000000000000000000000000000000000 000000000000000A000000000000000000000000000000000000000000000 000000000000000000000000000000000000000     00000000                                                                                                                        000000000000000000
F0010000009154000002000080201112800041450500000000000000000201609200002001CANGURO INTERNATIONAL S.A.                        C000000043772400000000000000000000100010010000000000000000000000F0010000009154000220160920000101 00000000000000000000000000000000000000000000000000000000000000000000000000000000000000000000000000000000000000000N 00000000000NCONT   00    00000000000          00000000000000000000000000000000000000000000 000000000000000A000000000000000000000000000000000000000000000 000000000000000000000000000000000000000     00000000                                                                                                                        000000000000000000
F0010000009154000003000080201112800042505000000000000000000201609200002001CANGURO INTERNATIONAL S.A.                        C000000004941200000000000000000000100010010000000000000000000000F0010000009154000320160920000101 00000000000000000000000000000000000000000000000000000000000000000000000000000000000000000000000000000000000000000N 00000000000NCONT   00    00000000000          00000000000000000000000000000000000000000000 000000000000000A000000000000000000000000000000000000000000000 000000000000000000000000000000000000000     00000000                                                                                                                        000000000000000000
F0010000009154000004000080201112800023658300000000000000000201609200002001CANGURO INTERNATIONAL S.A.                        C000000000350200000000000000000000100010010000000000000000000000F0010000009154000420160920000101 00000000000000000000000000000000000000000000000000000000000000000000000000000000000000000000000000000000000000000N 00000000000NCONT   00    00000000000          00000000000000000000000000000000000000000000 000000000000000A000000000000000000000000000000000000000000000 000000000000000000000000000000000000000     00000000                                                                                                                        000000000000000000
F0010000009154000005000080201112800013552100000000000000000201609200002001CANGURO INTERNATIONAL S.A.                        D000000000350200000000000000000000100010010000000000000000000000F0010000009154000520160920000101 00000000000000000000000000000000000000000000000000000000000000000000000000000000000000000000000000000000000000000N 00000000000NCONT   00    00000000000          00000000000000000000000000000000000000000000 000000000000000A000000000000000000000000000000000000000000000 000000000000000000000000000000000000000     00000000                                                                                                                        000000000000000000
F0010000009154100001000086003979400013050500000000000000000201609200002001CALYPSO BARRANQUILLA LTDA                         D000000037470300000000000000000000100010010000000000000000000000F0010000009154100120160920000101 00000000000000000000000000000000000000000000000000000000000000000000000000000000000000000000000000000000000000000N 00000000000NCONT   00    00000000000          00000000000000000000000000000000000000000000 000000000000000A000000000000000000000000000000000000000000000 000000000000000000000000000000000000000     00000000                                                                                                                        000000000000000000
F0010000009154100002000086003979400041450500000000000000000201609200002001CALYPSO BARRANQUILLA LTDA                         C000000033150000000000000000000000100010010000000000000000000000F0010000009154100220160920000101 00000000000000000000000000000000000000000000000000000000000000000000000000000000000000000000000000000000000000000N 00000000000NCONT   00    00000000000          00000000000000000000000000000000000000000000 000000000000000A000000000000000000000000000000000000000000000 000000000000000000000000000000000000000     00000000                                                                                                                        000000000000000000
F0010000009154100003000086003979400042505000000000000000000201609200002001CALYPSO BARRANQUILLA LTDA                         C000000004320300000000000000000000100010010000000000000000000000F0010000009154100320160920000101 00000000000000000000000000000000000000000000000000000000000000000000000000000000000000000000000000000000000000000N 00000000000NCONT   00    00000000000          00000000000000000000000000000000000000000000 000000000000000A000000000000000000000000000000000000000000000 000000000000000000000000000000000000000     00000000                                                                                                                        000000000000000000
F0010000009154100004000086003979400023658300000000000000000201609200002001CALYPSO BARRANQUILLA LTDA                         C000000000265200000000000000000000100010010000000000000000000000F0010000009154100420160920000101 00000000000000000000000000000000000000000000000000000000000000000000000000000000000000000000000000000000000000000N 00000000000NCONT   00    00000000000          00000000000000000000000000000000000000000000 000000000000000A000000000000000000000000000000000000000000000 000000000000000000000000000000000000000     00000000                                                                                                                        000000000000000000
F0010000009154100005000086003979400013552100000000000000000201609200002001CALYPSO BARRANQUILLA LTDA                         D000000000265200000000000000000000100010010000000000000000000000F0010000009154100520160920000101 00000000000000000000000000000000000000000000000000000000000000000000000000000000000000000000000000000000000000000N 00000000000NCONT   00    00000000000          00000000000000000000000000000000000000000000 000000000000000A000000000000000000000000000000000000000000000 000000000000000000000000000000000000000     00000000                                                                                                                        000000000000000000
F0010000009154200001000083008772100013050500000000000000000201609200002001ILUMEC SAS                                        D000000020305000000000000000000000100010010000000000000000000000F0010000009154200120160920000101 00000000000000000000000000000000000000000000000000000000000000000000000000000000000000000000000000000000000000000N 00000000000NCONT   00    00000000000          00000000000000000000000000000000000000000000 000000000000000A000000000000000000000000000000000000000000000 000000000000000000000000000000000000000     00000000                                                                                                                        000000000000000000
F0010000009154200002000083008772100041450500000000000000000201609200002001ILUMEC SAS                                        C000000014080000000000000000000000100010010000000000000000000000F0010000009154200220160920000101 00000000000000000000000000000000000000000000000000000000000000000000000000000000000000000000000000000000000000000N 00000000000NCONT   00    00000000000          00000000000000000000000000000000000000000000 000000000000000A000000000000000000000000000000000000000000000 000000000000000000000000000000000000000     00000000                                                                                                                        000000000000000000
F0010000009154200003000083008772100042505000000000000000000201609200002001ILUMEC SAS                                        C000000006225000000000000000000000100010010000000000000000000000F0010000009154200320160920000101 00000000000000000000000000000000000000000000000000000000000000000000000000000000000000000000000000000000000000000N 00000000000NCONT   00    00000000000          00000000000000000000000000000000000000000000 000000000000000A000000000000000000000000000000000000000000000 000000000000000000000000000000000000000     00000000                                                                                                                        000000000000000000
F0010000009154200004000083008772100023658300000000000000000201609200002001ILUMEC SAS                                        C000000000112600000000000000000000100010010000000000000000000000F0010000009154200420160920000101 00000000000000000000000000000000000000000000000000000000000000000000000000000000000000000000000000000000000000000N 00000000000NCONT   00    00000000000          00000000000000000000000000000000000000000000 000000000000000A000000000000000000000000000000000000000000000 000000000000000000000000000000000000000     00000000                                                                                                                        000000000000000000
F0010000009154200005000083008772100013552100000000000000000201609200002001ILUMEC SAS                                        D000000000112600000000000000000000100010010000000000000000000000F0010000009154200520160920000101 00000000000000000000000000000000000000000000000000000000000000000000000000000000000000000000000000000000000000000N 00000000000NCONT   00    00000000000          00000000000000000000000000000000000000000000 000000000000000A000000000000000000000000000000000000000000000 000000000000000000000000000000000000000     00000000                                                                                                                        000000000000000000
F0010000009154300001000000868487100013050500000000000000000201609200002001JAIME PIEROS                                    D000000004660000000000000000000000100010010000000000000000000000F0010000009154300120160920000101 00000000000000000000000000000000000000000000000000000000000000000000000000000000000000000000000000000000000000000N 00000000000NCONT   00    00000000000          00000000000000000000000000000000000000000000 000000000000000A000000000000000000000000000000000000000000000 000000000000000000000000000000000000000     00000000                                                                                                                        000000000000000000
F0010000009154300002000000868487100041450500000000000000000201609200002001JAIME PIEROS                                    C000000003760000000000000000000000100010010000000000000000000000F0010000009154300220160920000101 00000000000000000000000000000000000000000000000000000000000000000000000000000000000000000000000000000000000000000N 00000000000NCONT   00    00000000000          00000000000000000000000000000000000000000000 000000000000000A000000000000000000000000000000000000000000000 000000000000000000000000000000000000000     00000000                                                                                                                        000000000000000000
F0010000009154300003000000868487100042505000000000000000000201609200002001JAIME PIEROS                                    C000000000900000000000000000000000100010010000000000000000000000F0010000009154300320160920000101 00000000000000000000000000000000000000000000000000000000000000000000000000000000000000000000000000000000000000000N 00000000000NCONT   00    00000000000          00000000000000000000000000000000000000000000 000000000000000A000000000000000000000000000000000000000000000 000000000000000000000000000000000000000     00000000                                                                                                                        000000000000000000
F0010000009154300004000000868487100023658300000000000000000201609200002001JAIME PIEROS                                    C000000000030100000000000000000000100010010000000000000000000000F0010000009154300420160920000101 00000000000000000000000000000000000000000000000000000000000000000000000000000000000000000000000000000000000000000N 00000000000NCONT   00    00000000000          00000000000000000000000000000000000000000000 000000000000000A000000000000000000000000000000000000000000000 000000000000000000000000000000000000000     00000000                                                                                                                        000000000000000000
F0010000009154300005000000868487100013552100000000000000000201609200002001JAIME PIEROS                                    D000000000030100000000000000000000100010010000000000000000000000F0010000009154300520160920000101 00000000000000000000000000000000000000000000000000000000000000000000000000000000000000000000000000000000000000000N 00000000000NCONT   00    00000000000          00000000000000000000000000000000000000000000 000000000000000A000000000000000000000000000000000000000000000 000000000000000000000000000000000000000     00000000                                                                                                                        000000000000000000
F0010000009154400001000000827614700013050500000000000000000201609200002001ALVARO  HERNAN  PEREZ ALVAREZ                     D000000006630000000000000000000000100010010000000000000000000000F0010000009154400120160920000101 00000000000000000000000000000000000000000000000000000000000000000000000000000000000000000000000000000000000000000N 00000000000NCONT   00    00000000000          00000000000000000000000000000000000000000000 000000000000000A000000000000000000000000000000000000000000000 000000000000000000000000000000000000000     00000000                                                                                                                        000000000000000000
F0010000009154400002000000827614700041450500000000000000000201609200002001ALVARO  HERNAN  PEREZ ALVAREZ                     C000000006000000000000000000000000100010010000000000000000000000F0010000009154400220160920000101 00000000000000000000000000000000000000000000000000000000000000000000000000000000000000000000000000000000000000000N 00000000000NCONT   00    00000000000          00000000000000000000000000000000000000000000 000000000000000A000000000000000000000000000000000000000000000 000000000000000000000000000000000000000     00000000                                                                                                                        000000000000000000
F0010000009154400003000000827614700042505000000000000000000201609200002001ALVARO  HERNAN  PEREZ ALVAREZ                     C000000000630000000000000000000000100010010000000000000000000000F0010000009154400320160920000101 00000000000000000000000000000000000000000000000000000000000000000000000000000000000000000000000000000000000000000N 00000000000NCONT   00    00000000000          00000000000000000000000000000000000000000000 000000000000000A000000000000000000000000000000000000000000000 000000000000000000000000000000000000000     00000000                                                                                                                        000000000000000000
F0010000009154400004000000827614700023658300000000000000000201609200002001ALVARO  HERNAN  PEREZ ALVAREZ                     C000000000048000000000000000000000100010010000000000000000000000F0010000009154400420160920000101 00000000000000000000000000000000000000000000000000000000000000000000000000000000000000000000000000000000000000000N 00000000000NCONT   00    00000000000          00000000000000000000000000000000000000000000 000000000000000A000000000000000000000000000000000000000000000 000000000000000000000000000000000000000     00000000                                                                                                                        000000000000000000
F0010000009154400005000000827614700013552100000000000000000201609200002001ALVARO  HERNAN  PEREZ ALVAREZ                     D000000000048000000000000000000000100010010000000000000000000000F0010000009154400520160920000101 00000000000000000000000000000000000000000000000000000000000000000000000000000000000000000000000000000000000000000N 00000000000NCONT   00    00000000000          00000000000000000000000000000000000000000000 000000000000000A000000000000000000000000000000000000000000000 000000000000000000000000000000000000000     00000000                                                                                                                        000000000000000000
F0010000009154500001000090050863700013050500000000000000000201609200002001COMERCIALIZADORA PERFECT SAS                      D000000005200000000000000000000000100010010000000000000000000000F0010000009154500120160920000101 00000000000000000000000000000000000000000000000000000000000000000000000000000000000000000000000000000000000000000N 00000000000NCONT   00    00000000000          00000000000000000000000000000000000000000000 000000000000000A000000000000000000000000000000000000000000000 000000000000000000000000000000000000000     00000000                                                                                                                        000000000000000000
F0010000009154500002000090050863700041450500000000000000000201609200002001COMERCIALIZADORA PERFECT SAS                      C000000003800000000000000000000000100010010000000000000000000000F0010000009154500220160920000101 00000000000000000000000000000000000000000000000000000000000000000000000000000000000000000000000000000000000000000N 00000000000NCONT   00    00000000000          00000000000000000000000000000000000000000000 000000000000000A000000000000000000000000000000000000000000000 000000000000000000000000000000000000000     00000000                                                                                                                        000000000000000000
F0010000009154500003000090050863700042505000000000000000000201609200002001COMERCIALIZADORA PERFECT SAS                      C000000001400000000000000000000000100010010000000000000000000000F0010000009154500320160920000101 00000000000000000000000000000000000000000000000000000000000000000000000000000000000000000000000000000000000000000N 00000000000NCONT   00    00000000000          00000000000000000000000000000000000000000000 000000000000000A000000000000000000000000000000000000000000000 000000000000000000000000000000000000000     00000000                                                                                                                        000000000000000000
F0010000009154500004000090050863700023658300000000000000000201609200002001COMERCIALIZADORA PERFECT SAS                      C000000000030400000000000000000000100010010000000000000000000000F0010000009154500420160920000101 00000000000000000000000000000000000000000000000000000000000000000000000000000000000000000000000000000000000000000N 00000000000NCONT   00    00000000000          00000000000000000000000000000000000000000000 000000000000000A000000000000000000000000000000000000000000000 000000000000000000000000000000000000000     00000000                                                                                                                        000000000000000000
F0010000009154500005000090050863700013552100000000000000000201609200002001COMERCIALIZADORA PERFECT SAS                      D000000000030400000000000000000000100010010000000000000000000000F0010000009154500520160920000101 00000000000000000000000000000000000000000000000000000000000000000000000000000000000000000000000000000000000000000N 00000000000NCONT   00    00000000000          00000000000000000000000000000000000000000000 000000000000000A000000000000000000000000000000000000000000000 000000000000000000000000000000000000000     00000000                                                                                                                        000000000000000000
F0010000009154600001000090020547900013050500000000000000000201609200002001COMERCIALIZADORA DAC DEL CARIBE S.A.S.            D000000005406300000000000000000000100010010000000000000000000000F0010000009154600120160920000101 00000000000000000000000000000000000000000000000000000000000000000000000000000000000000000000000000000000000000000N 00000000000NCONT   00    00000000000          00000000000000000000000000000000000000000000 000000000000000A000000000000000000000000000000000000000000000 000000000000000000000000000000000000000     00000000                                                                                                                        000000000000000000
F0010000009154600002000090020547900041450500000000000000000201609200002001COMERCIALIZADORA DAC DEL CARIBE S.A.S.            C000000003000000000000000000000000100010010000000000000000000000F0010000009154600220160920000101 00000000000000000000000000000000000000000000000000000000000000000000000000000000000000000000000000000000000000000N 00000000000NCONT   00    00000000000          00000000000000000000000000000000000000000000 000000000000000A000000000000000000000000000000000000000000000 000000000000000000000000000000000000000     00000000                                                                                                                        000000000000000000
F0010000009154600003000090020547900042505000000000000000000201609200002001COMERCIALIZADORA DAC DEL CARIBE S.A.S.            C000000002406300000000000000000000100010010000000000000000000000F0010000009154600320160920000101 00000000000000000000000000000000000000000000000000000000000000000000000000000000000000000000000000000000000000000N 00000000000NCONT   00    00000000000          00000000000000000000000000000000000000000000 000000000000000A000000000000000000000000000000000000000000000 000000000000000000000000000000000000000     00000000                                                                                                                        000000000000000000
F0010000009154600004000090020547900023658300000000000000000201609200002001COMERCIALIZADORA DAC DEL CARIBE S.A.S.            C000000000024000000000000000000000100010010000000000000000000000F0010000009154600420160920000101 00000000000000000000000000000000000000000000000000000000000000000000000000000000000000000000000000000000000000000N 00000000000NCONT   00    00000000000          00000000000000000000000000000000000000000000 000000000000000A000000000000000000000000000000000000000000000 000000000000000000000000000000000000000     00000000                                                                                                                        000000000000000000
F0010000009154600005000090020547900013552100000000000000000201609200002001COMERCIALIZADORA DAC DEL CARIBE S.A.S.            D000000000024000000000000000000000100010010000000000000000000000F0010000009154600520160920000101 00000000000000000000000000000000000000000000000000000000000000000000000000000000000000000000000000000000000000000N 00000000000NCONT   00    00000000000          00000000000000000000000000000000000000000000 000000000000000A000000000000000000000000000000000000000000000 000000000000000000000000000000000000000     00000000                                                                                                                        000000000000000000
F0010000009154700001000090038852800013050500000000000000000201609200002001EL COMERCIO ELECTRICO DE LA CO                    D000000010730000000000000000000000100010010000000000000000000000F0010000009154700120160920000101 00000000000000000000000000000000000000000000000000000000000000000000000000000000000000000000000000000000000000000N 00000000000NCONT   00    00000000000          00000000000000000000000000000000000000000000 000000000000000A000000000000000000000000000000000000000000000 000000000000000000000000000000000000000     00000000                                                                                                                        000000000000000000
F0010000009154700002000090038852800041450500000000000000000201609200002001EL COMERCIO ELECTRICO DE LA CO                    C000000008730000000000000000000000100010010000000000000000000000F0010000009154700220160920000101 00000000000000000000000000000000000000000000000000000000000000000000000000000000000000000000000000000000000000000N 00000000000NCONT   00    00000000000          00000000000000000000000000000000000000000000 000000000000000A000000000000000000000000000000000000000000000 000000000000000000000000000000000000000     00000000                                                                                                                        000000000000000000
F0010000009154700003000090038852800042505000000000000000000201609200002001EL COMERCIO ELECTRICO DE LA CO                    C000000002000000000000000000000000100010010000000000000000000000F0010000009154700320160920000101 00000000000000000000000000000000000000000000000000000000000000000000000000000000000000000000000000000000000000000N 00000000000NCONT   00    00000000000          00000000000000000000000000000000000000000000 000000000000000A000000000000000000000000000000000000000000000 000000000000000000000000000000000000000     00000000                                                                                                                        000000000000000000
F0010000009154700004000090038852800023658300000000000000000201609200002001EL COMERCIO ELECTRICO DE LA CO                    C000000000069800000000000000000000100010010000000000000000000000F0010000009154700420160920000101 00000000000000000000000000000000000000000000000000000000000000000000000000000000000000000000000000000000000000000N 00000000000NCONT   00    00000000000          00000000000000000000000000000000000000000000 000000000000000A000000000000000000000000000000000000000000000 000000000000000000000000000000000000000     00000000                                                                                                                        000000000000000000
F0010000009154700005000090038852800013552100000000000000000201609200002001EL COMERCIO ELECTRICO DE LA CO                    D000000000069800000000000000000000100010010000000000000000000000F0010000009154700520160920000101 00000000000000000000000000000000000000000000000000000000000000000000000000000000000000000000000000000000000000000N 00000000000NCONT   00    00000000000          00000000000000000000000000000000000000000000 000000000000000A000000000000000000000000000000000000000000000 000000000000000000000000000000000000000     00000000                                                                                                                        000000000000000000
F0010000009154800001000089030195100013050500000000000000000201609200002001LIBRERIA NACIONAL S.A.                            D000000030150000000000000000000000100010010000000000000000000000F0010000009154800120160920000101 00000000000000000000000000000000000000000000000000000000000000000000000000000000000000000000000000000000000000000N 00000000000NCONT   00    00000000000          00000000000000000000000000000000000000000000 000000000000000A000000000000000000000000000000000000000000000 000000000000000000000000000000000000000     00000000                                                                                                                        000000000000000000
F0010000009154800002000089030195100041450500000000000000000201609200002001LIBRERIA NACIONAL S.A.                            C000000024750000000000000000000000100010010000000000000000000000F0010000009154800220160920000101 00000000000000000000000000000000000000000000000000000000000000000000000000000000000000000000000000000000000000000N 00000000000NCONT   00    00000000000          00000000000000000000000000000000000000000000 000000000000000A000000000000000000000000000000000000000000000 000000000000000000000000000000000000000     00000000                                                                                                                        000000000000000000
F0010000009154800003000089030195100042505000000000000000000201609200002001LIBRERIA NACIONAL S.A.                            C000000005400000000000000000000000100010010000000000000000000000F0010000009154800320160920000101 00000000000000000000000000000000000000000000000000000000000000000000000000000000000000000000000000000000000000000N 00000000000NCONT   00    00000000000          00000000000000000000000000000000000000000000 000000000000000A000000000000000000000000000000000000000000000 000000000000000000000000000000000000000     00000000                                                                                                                        000000000000000000
F0010000009154800004000089030195100023658300000000000000000201609200002001LIBRERIA NACIONAL S.A.                            C000000000198000000000000000000000100010010000000000000000000000F0010000009154800420160920000101 00000000000000000000000000000000000000000000000000000000000000000000000000000000000000000000000000000000000000000N 00000000000NCONT   00    00000000000          00000000000000000000000000000000000000000000 000000000000000A000000000000000000000000000000000000000000000 000000000000000000000000000000000000000     00000000                                                                                                                        000000000000000000
F0010000009154800005000089030195100013552100000000000000000201609200002001LIBRERIA NACIONAL S.A.                            D000000000198000000000000000000000100010010000000000000000000000F0010000009154800520160920000101 00000000000000000000000000000000000000000000000000000000000000000000000000000000000000000000000000000000000000000N 00000000000NCONT   00    00000000000          00000000000000000000000000000000000000000000 000000000000000A000000000000000000000000000000000000000000000 000000000000000000000000000000000000000     00000000                                                                                                                        000000000000000000
F0010000009154900001000090019362000013050500000000000000000201609200002001GENERAL SUPPLIES CIA LTDA                         D000000021081000000000000000000000100010010000000000000000000000F0010000009154900120160920000101 00000000000000000000000000000000000000000000000000000000000000000000000000000000000000000000000000000000000000000N 00000000000NCONT   00    00000000000          00000000000000000000000000000000000000000000 000000000000000A000000000000000000000000000000000000000000000 000000000000000000000000000000000000000     00000000                                                                                                                        000000000000000000
F0010000009154900002000090019362000041450500000000000000000201609200002001GENERAL SUPPLIES CIA LTDA                         C000000019490000000000000000000000100010010000000000000000000000F0010000009154900220160920000101 00000000000000000000000000000000000000000000000000000000000000000000000000000000000000000000000000000000000000000N 00000000000NCONT   00    00000000000          00000000000000000000000000000000000000000000 000000000000000A000000000000000000000000000000000000000000000 000000000000000000000000000000000000000     00000000                                                                                                                        000000000000000000
F0010000009154900003000090019362000042505000000000000000000201609200002001GENERAL SUPPLIES CIA LTDA                         C000000001591000000000000000000000100010010000000000000000000000F0010000009154900320160920000101 00000000000000000000000000000000000000000000000000000000000000000000000000000000000000000000000000000000000000000N 00000000000NCONT   00    00000000000          00000000000000000000000000000000000000000000 000000000000000A000000000000000000000000000000000000000000000 000000000000000000000000000000000000000     00000000                                                                                                                        000000000000000000
F0010000009154900004000090019362000023658300000000000000000201609200002001GENERAL SUPPLIES CIA LTDA                         C000000000155900000000000000000000100010010000000000000000000000F0010000009154900420160920000101 00000000000000000000000000000000000000000000000000000000000000000000000000000000000000000000000000000000000000000N 00000000000NCONT   00    00000000000          00000000000000000000000000000000000000000000 000000000000000A000000000000000000000000000000000000000000000 000000000000000000000000000000000000000     00000000                                                                                                                        000000000000000000
F0010000009154900005000090019362000013552100000000000000000201609200002001GENERAL SUPPLIES CIA LTDA                         D000000000155900000000000000000000100010010000000000000000000000F0010000009154900520160920000101 00000000000000000000000000000000000000000000000000000000000000000000000000000000000000000000000000000000000000000N 00000000000NCONT   00    00000000000          00000000000000000000000000000000000000000000 000000000000000A000000000000000000000000000000000000000000000 000000000000000000000000000000000000000     00000000                                                                                                                        000000000000000000
F0010000009155000001000000744822500013050500000000000000000201609200002001LABORATORIO Y PERFUMERIA BORGE                    D000000008010500000000000000000000100010010000000000000000000000F0010000009155000120160920000101 00000000000000000000000000000000000000000000000000000000000000000000000000000000000000000000000000000000000000000N 00000000000NCONT   00    00000000000          00000000000000000000000000000000000000000000 000000000000000A000000000000000000000000000000000000000000000 000000000000000000000000000000000000000     00000000                                                                                                                        000000000000000000
F0010000009155000002000000744822500041450500000000000000000201609200002001LABORATORIO Y PERFUMERIA BORGE                    C000000005717000000000000000000000100010010000000000000000000000F0010000009155000220160920000101 00000000000000000000000000000000000000000000000000000000000000000000000000000000000000000000000000000000000000000N 00000000000NCONT   00    00000000000          00000000000000000000000000000000000000000000 000000000000000A000000000000000000000000000000000000000000000 000000000000000000000000000000000000000     00000000                                                                                                                        000000000000000000
F0010000009155000003000000744822500042505000000000000000000201609200002001LABORATORIO Y PERFUMERIA BORGE                    C000000002293500000000000000000000100010010000000000000000000000F0010000009155000320160920000101 00000000000000000000000000000000000000000000000000000000000000000000000000000000000000000000000000000000000000000N 00000000000NCONT   00    00000000000          00000000000000000000000000000000000000000000 000000000000000A000000000000000000000000000000000000000000000 000000000000000000000000000000000000000     00000000                                                                                                                        000000000000000000
F0010000009155000004000000744822500023658300000000000000000201609200002001LABORATORIO Y PERFUMERIA BORGE                    C000000000045700000000000000000000100010010000000000000000000000F0010000009155000420160920000101 00000000000000000000000000000000000000000000000000000000000000000000000000000000000000000000000000000000000000000N 00000000000NCONT   00    00000000000          00000000000000000000000000000000000000000000 000000000000000A000000000000000000000000000000000000000000000 000000000000000000000000000000000000000     00000000                                                                                                                        000000000000000000
F0010000009155000005000000744822500013552100000000000000000201609200002001LABORATORIO Y PERFUMERIA BORGE                    D000000000045700000000000000000000100010010000000000000000000000F0010000009155000520160920000101 00000000000000000000000000000000000000000000000000000000000000000000000000000000000000000000000000000000000000000N 00000000000NCONT   00    00000000000          00000000000000000000000000000000000000000000 000000000000000A000000000000000000000000000000000000000000000 000000000000000000000000000000000000000     00000000                                                                                                                        000000000000000000
F0010000009155100001000090001800700013050500000000000000000201609200002001EXPORTEXA S.A.S.                                  D000000032397500000000000000000000100010010000000000000000000000F0010000009155100120160920000101 00000000000000000000000000000000000000000000000000000000000000000000000000000000000000000000000000000000000000000N 00000000000NCONT   00    00000000000          00000000000000000000000000000000000000000000 000000000000000A000000000000000000000000000000000000000000000 000000000000000000000000000000000000000     00000000                                                                                                                        000000000000000000
F0010000009155100002000090001800700041450500000000000000000201609200002001EXPORTEXA S.A.S.                                  C000000027010000000000000000000000100010010000000000000000000000F0010000009155100220160920000101 00000000000000000000000000000000000000000000000000000000000000000000000000000000000000000000000000000000000000000N 00000000000NCONT   00    00000000000          00000000000000000000000000000000000000000000 000000000000000A000000000000000000000000000000000000000000000 000000000000000000000000000000000000000     00000000                                                                                                                        000000000000000000
F0010000009155100003000090001800700042505000000000000000000201609200002001EXPORTEXA S.A.S.                                  C000000005387500000000000000000000100010010000000000000000000000F0010000009155100320160920000101 00000000000000000000000000000000000000000000000000000000000000000000000000000000000000000000000000000000000000000N 00000000000NCONT   00    00000000000          00000000000000000000000000000000000000000000 000000000000000A000000000000000000000000000000000000000000000 000000000000000000000000000000000000000     00000000                                                                                                                        000000000000000000
F0010000009155100004000090001800700023658300000000000000000201609200002001EXPORTEXA S.A.S.                                  C000000000216100000000000000000000100010010000000000000000000000F0010000009155100420160920000101 00000000000000000000000000000000000000000000000000000000000000000000000000000000000000000000000000000000000000000N 00000000000NCONT   00    00000000000          00000000000000000000000000000000000000000000 000000000000000A000000000000000000000000000000000000000000000 000000000000000000000000000000000000000     00000000                                                                                                                        000000000000000000
F0010000009155100005000090001800700013552100000000000000000201609200002001EXPORTEXA S.A.S.                                  D000000000216100000000000000000000100010010000000000000000000000F0010000009155100520160920000101 00000000000000000000000000000000000000000000000000000000000000000000000000000000000000000000000000000000000000000N 00000000000NCONT   00    00000000000          00000000000000000000000000000000000000000000 000000000000000A000000000000000000000000000000000000000000000 000000000000000000000000000000000000000     00000000                                                                                                                        000000000000000000
F0010000009155200001000000870907300013050500000000000000000201609200002001SURTIDOR FERRETERO                                D000000021228000000000000000000000100010010000000000000000000000F0010000009155200120160920000101 00000000000000000000000000000000000000000000000000000000000000000000000000000000000000000000000000000000000000000N 00000000000NCONT   00    00000000000          00000000000000000000000000000000000000000000 000000000000000A000000000000000000000000000000000000000000000 000000000000000000000000000000000000000     00000000                                                                                                                        000000000000000000
F0010000009155200002000000870907300041450500000000000000000201609200002001SURTIDOR FERRETERO                                C000000014110000000000000000000000100010010000000000000000000000F0010000009155200220160920000101 00000000000000000000000000000000000000000000000000000000000000000000000000000000000000000000000000000000000000000N 00000000000NCONT   00    00000000000          00000000000000000000000000000000000000000000 000000000000000A000000000000000000000000000000000000000000000 000000000000000000000000000000000000000     00000000                                                                                                                        000000000000000000
F0010000009155200003000000870907300041750100000000000000000201609200002001SURTIDOR FERRETERO                                D000000001411000000000000000000000100010010000000000000000000000F0010000009155200320160920000101 00000000000000000000000000000000000000000000000000000000000000000000000000000000000000000000000000000000000000000N 00000000000NCONT   00    00000000000          00000000000000000000000000000000000000000000 000000000000000A000000000000000000000000000000000000000000000 000000000000000000000000000000000000000     00000000                                                                                                                        000000000000000000
F0010000009155200004000000870907300042505000000000000000000201609200002001SURTIDOR FERRETERO                                C000000008529000000000000000000000100010010000000000000000000000F0010000009155200420160920000101 00000000000000000000000000000000000000000000000000000000000000000000000000000000000000000000000000000000000000000N 00000000000NCONT   00    00000000000          00000000000000000000000000000000000000000000 000000000000000A000000000000000000000000000000000000000000000 000000000000000000000000000000000000000     00000000                                                                                                                        000000000000000000
F0010000009155200005000000870907300023658300000000000000000201609200002001SURTIDOR FERRETERO                                C000000000112900000000000000000000100010010000000000000000000000F0010000009155200520160920000101 00000000000000000000000000000000000000000000000000000000000000000000000000000000000000000000000000000000000000000N 00000000000NCONT   00    00000000000          00000000000000000000000000000000000000000000 000000000000000A000000000000000000000000000000000000000000000 000000000000000000000000000000000000000     00000000                                                                                                                        000000000000000000
F0010000009155200006000000870907300013552100000000000000000201609200002001SURTIDOR FERRETERO                                D000000000112900000000000000000000100010010000000000000000000000F0010000009155200620160920000101 00000000000000000000000000000000000000000000000000000000000000000000000000000000000000000000000000000000000000000N 00000000000NCONT   00    00000000000          00000000000000000000000000000000000000000000 000000000000000A000000000000000000000000000000000000000000000 000000000000000000000000000000000000000     00000000                                                                                                                        000000000000000000
F0010000009155300001000089010952800013050500000000000000000201609200002001IND. LITOGRAF. BOSTON S.A.S.                      D000000037000000000000000000000000100010010000000000000000000000F0010000009155300120160920000101 00000000000000000000000000000000000000000000000000000000000000000000000000000000000000000000000000000000000000000N 00000000000NCONT   00    00000000000          00000000000000000000000000000000000000000000 000000000000000A000000000000000000000000000000000000000000000 000000000000000000000000000000000000000     00000000                                                                                                                        000000000000000000
