F0010000009017900001000090060180600011050500000000000000000201608210002001INTERSOLES SAS                                    D000000001150000000000000000000000100010010000000000000000000000F0010000009017900120160821000101 00000000000000000000000000000000000000000000000000000000000000000000000000000000000000000000000000000000000000000N 00000000000NCONT   00    00000000000          00000000000000000000000000000000000000000000 000000000000000A000000000000000000000000000000000000000000000 000000000000000000000000000000000000000     00000000                                                                                                                        000000000000000000
F0010000009017900002000090060180600041450500000000000000000201608210002001INTERSOLES SAS                                    C000000001000000000000000000000000100010010000000000000000000000F0010000009017900220160821000101 00000000000000000000000000000000000000000000000000000000000000000000000000000000000000000000000000000000000000000N 00000000000NCONT   00    00000000000          00000000000000000000000000000000000000000000 000000000000000A000000000000000000000000000000000000000000000 000000000000000000000000000000000000000     00000000                                                                                                                        000000000000000000
F0010000009017900003000090060180600042505000000000000000000201608210002001INTERSOLES SAS                                    C000000000150000000000000000000000100010010000000000000000000000F0010000009017900320160821000101 00000000000000000000000000000000000000000000000000000000000000000000000000000000000000000000000000000000000000000N 00000000000NCONT   00    00000000000          00000000000000000000000000000000000000000000 000000000000000A000000000000000000000000000000000000000000000 000000000000000000000000000000000000000     00000000                                                                                                                        000000000000000000
F0010000009017900004000090060180600023658300000000000000000201608210002001INTERSOLES SAS                                    C000000000008000000000000000000000100010010000000000000000000000F0010000009017900420160821000101 00000000000000000000000000000000000000000000000000000000000000000000000000000000000000000000000000000000000000000N 00000000000NCONT   00    00000000000          00000000000000000000000000000000000000000000 000000000000000A000000000000000000000000000000000000000000000 000000000000000000000000000000000000000     00000000                                                                                                                        000000000000000000
F0010000009017900005000090060180600013552100000000000000000201608210002001INTERSOLES SAS                                    D000000000008000000000000000000000100010010000000000000000000000F0010000009017900520160821000101 00000000000000000000000000000000000000000000000000000000000000000000000000000000000000000000000000000000000000000N 00000000000NCONT   00    00000000000          00000000000000000000000000000000000000000000 000000000000000A000000000000000000000000000000000000000000000 000000000000000000000000000000000000000     00000000                                                                                                                        000000000000000000
F0010000009018000001000007934219000011050500000000000000000201608210002001CANDELEC ILUMINACIONE                             D000000007000000000000000000000000100010010000000000000000000000F0010000009018000120160821000101 00000000000000000000000000000000000000000000000000000000000000000000000000000000000000000000000000000000000000000N 00000000000NCONT   00    00000000000          00000000000000000000000000000000000000000000 000000000000000A000000000000000000000000000000000000000000000 000000000000000000000000000000000000000     00000000                                                                                                                        000000000000000000
F0010000009018000002000007934219000041450500000000000000000201608210002001CANDELEC ILUMINACIONE                             C000000006000000000000000000000000100010010000000000000000000000F0010000009018000220160821000101 00000000000000000000000000000000000000000000000000000000000000000000000000000000000000000000000000000000000000000N 00000000000NCONT   00    00000000000          00000000000000000000000000000000000000000000 000000000000000A000000000000000000000000000000000000000000000 000000000000000000000000000000000000000     00000000                                                                                                                        000000000000000000
F0010000009018000003000007934219000042505000000000000000000201608210002001CANDELEC ILUMINACIONE                             C000000001000000000000000000000000100010010000000000000000000000F0010000009018000320160821000101 00000000000000000000000000000000000000000000000000000000000000000000000000000000000000000000000000000000000000000N 00000000000NCONT   00    00000000000          00000000000000000000000000000000000000000000 000000000000000A000000000000000000000000000000000000000000000 000000000000000000000000000000000000000     00000000                                                                                                                        000000000000000000
F0010000009018000004000007934219000023658300000000000000000201608210002001CANDELEC ILUMINACIONE                             C000000000048000000000000000000000100010010000000000000000000000F0010000009018000420160821000101 00000000000000000000000000000000000000000000000000000000000000000000000000000000000000000000000000000000000000000N 00000000000NCONT   00    00000000000          00000000000000000000000000000000000000000000 000000000000000A000000000000000000000000000000000000000000000 000000000000000000000000000000000000000     00000000                                                                                                                        000000000000000000
F0010000009018000005000007934219000013552100000000000000000201608210002001CANDELEC ILUMINACIONE                             D000000000048000000000000000000000100010010000000000000000000000F0010000009018000520160821000101 00000000000000000000000000000000000000000000000000000000000000000000000000000000000000000000000000000000000000000N 00000000000NCONT   00    00000000000          00000000000000000000000000000000000000000000 000000000000000A000000000000000000000000000000000000000000000 000000000000000000000000000000000000000     00000000                                                                                                                        000000000000000000
