F0010000005818600001000090010880700013050500000000000000000201405160002001PROELECTRICAS DE BARRANQUILLA LTDA                D000000009300000000000000000000000100010010000000000000000000000F0010000005818600120140516000101 00000000000000000000000000000000000000000000000000000000000000000000000000000000000000000000000000000000000000000N 00000000000NCONT   00    00000000000          00000000000000000000000000000000000000000000 000000000000000A000000000000000000000000000000000000000000000 000000000000000000000000000000000000000     00000000                                                                                                                        000000000000000000
F0010000005818600002000090010880700041450500000000000000000201405160002001PROELECTRICAS DE BARRANQUILLA LTDA                C000000009200000000000000000000000100010010000000000000000000000F0010000005818600220140516000101 00000000000000000000000000000000000000000000000000000000000000000000000000000000000000000000000000000000000000000N 00000000000NCONT   00    00000000000          00000000000000000000000000000000000000000000 000000000000000A000000000000000000000000000000000000000000000 000000000000000000000000000000000000000     00000000                                                                                                                        000000000000000000
F0010000005818600003000090010880700042505000000000000000000201405160002001PROELECTRICAS DE BARRANQUILLA LTDA                C000000000100000000000000000000000100010010000000000000000000000F0010000005818600320140516000101 00000000000000000000000000000000000000000000000000000000000000000000000000000000000000000000000000000000000000000N 00000000000NCONT   00    00000000000          00000000000000000000000000000000000000000000 000000000000000A000000000000000000000000000000000000000000000 000000000000000000000000000000000000000     00000000                                                                                                                        000000000000000000
F0010000005818600004000090010880700023658300000000000000000201405160002001PROELECTRICAS DE BARRANQUILLA LTDA                C000000000073600000000000000000000100010010000000000000000000000F0010000005818600420140516000101 00000000000000000000000000000000000000000000000000000000000000000000000000000000000000000000000000000000000000000N 00000000000NCONT   00    00000000000          00000000000000000000000000000000000000000000 000000000000000A000000000000000000000000000000000000000000000 000000000000000000000000000000000000000     00000000                                                                                                                        000000000000000000
F0010000005818600005000090010880700013552100000000000000000201405160002001PROELECTRICAS DE BARRANQUILLA LTDA                D000000000073600000000000000000000100010010000000000000000000000F0010000005818600520140516000101 00000000000000000000000000000000000000000000000000000000000000000000000000000000000000000000000000000000000000000N 00000000000NCONT   00    00000000000          00000000000000000000000000000000000000000000 000000000000000A000000000000000000000000000000000000000000000 000000000000000000000000000000000000000     00000000                                                                                                                        000000000000000000
F0010000005818700001000080201601700013050500000000000000000201405160002001PLASTICOS SUPERIOR S.A.                           D000000018480000000000000000000000100010010000000000000000000000F0010000005818700120140516000101 00000000000000000000000000000000000000000000000000000000000000000000000000000000000000000000000000000000000000000N 00000000000NCONT   00    00000000000          00000000000000000000000000000000000000000000 000000000000000A000000000000000000000000000000000000000000000 000000000000000000000000000000000000000     00000000                                                                                                                        000000000000000000
F0010000005818700002000080201601700041450500000000000000000201405160002001PLASTICOS SUPERIOR S.A.                           C000000014400000000000000000000000100010010000000000000000000000F0010000005818700220140516000101 00000000000000000000000000000000000000000000000000000000000000000000000000000000000000000000000000000000000000000N 00000000000NCONT   00    00000000000          00000000000000000000000000000000000000000000 000000000000000A000000000000000000000000000000000000000000000 000000000000000000000000000000000000000     00000000                                                                                                                        000000000000000000
F0010000005818700003000080201601700042505000000000000000000201405160002001PLASTICOS SUPERIOR S.A.                           C000000004080000000000000000000000100010010000000000000000000000F0010000005818700320140516000101 00000000000000000000000000000000000000000000000000000000000000000000000000000000000000000000000000000000000000000N 00000000000NCONT   00    00000000000          00000000000000000000000000000000000000000000 000000000000000A000000000000000000000000000000000000000000000 000000000000000000000000000000000000000     00000000                                                                                                                        000000000000000000
F0010000005818700004000080201601700023658300000000000000000201405160002001PLASTICOS SUPERIOR S.A.                           C000000000115200000000000000000000100010010000000000000000000000F0010000005818700420140516000101 00000000000000000000000000000000000000000000000000000000000000000000000000000000000000000000000000000000000000000N 00000000000NCONT   00    00000000000          00000000000000000000000000000000000000000000 000000000000000A000000000000000000000000000000000000000000000 000000000000000000000000000000000000000     00000000                                                                                                                        000000000000000000
F0010000005818700005000080201601700013552100000000000000000201405160002001PLASTICOS SUPERIOR S.A.                           D000000000115200000000000000000000100010010000000000000000000000F0010000005818700520140516000101 00000000000000000000000000000000000000000000000000000000000000000000000000000000000000000000000000000000000000000N 00000000000NCONT   00    00000000000          00000000000000000000000000000000000000000000 000000000000000A000000000000000000000000000000000000000000000 000000000000000000000000000000000000000     00000000                                                                                                                        000000000000000000
F0010000005818800001000007225219800011050500000000000000000201405160002001MAURICIO ALVAREZ VARELO                           D000000001000000000000000000000000100010010000000000000000000000F0010000005818800120140516000101 00000000000000000000000000000000000000000000000000000000000000000000000000000000000000000000000000000000000000000N 00000000000NCONT   00    00000000000          00000000000000000000000000000000000000000000 000000000000000A000000000000000000000000000000000000000000000 000000000000000000000000000000000000000     00000000                                                                                                                        000000000000000000
F0010000005818800002000007225219800041450500000000000000000201405160002001MAURICIO ALVAREZ VARELO                           C000000000900000000000000000000000100010010000000000000000000000F0010000005818800220140516000101 00000000000000000000000000000000000000000000000000000000000000000000000000000000000000000000000000000000000000000N 00000000000NCONT   00    00000000000          00000000000000000000000000000000000000000000 000000000000000A000000000000000000000000000000000000000000000 000000000000000000000000000000000000000     00000000                                                                                                                        000000000000000000
F0010000005818800003000007225219800042505000000000000000000201405160002001MAURICIO ALVAREZ VARELO                           C000000000100000000000000000000000100010010000000000000000000000F0010000005818800320140516000101 00000000000000000000000000000000000000000000000000000000000000000000000000000000000000000000000000000000000000000N 00000000000NCONT   00    00000000000          00000000000000000000000000000000000000000000 000000000000000A000000000000000000000000000000000000000000000 000000000000000000000000000000000000000     00000000                                                                                                                        000000000000000000
F0010000005818800004000007225219800023658300000000000000000201405160002001MAURICIO ALVAREZ VARELO                           C000000000007200000000000000000000100010010000000000000000000000F0010000005818800420140516000101 00000000000000000000000000000000000000000000000000000000000000000000000000000000000000000000000000000000000000000N 00000000000NCONT   00    00000000000          00000000000000000000000000000000000000000000 000000000000000A000000000000000000000000000000000000000000000 000000000000000000000000000000000000000     00000000                                                                                                                        000000000000000000
F0010000005818800005000007225219800013552100000000000000000201405160002001MAURICIO ALVAREZ VARELO                           D000000000007200000000000000000000100010010000000000000000000000F0010000005818800520140516000101 00000000000000000000000000000000000000000000000000000000000000000000000000000000000000000000000000000000000000000N 00000000000NCONT   00    00000000000          00000000000000000000000000000000000000000000 000000000000000A000000000000000000000000000000000000000000000 000000000000000000000000000000000000000     00000000                                                                                                                        000000000000000000
F0010000005818900001000089011492400013050500000000000000000201405160002001AGE. CAUCHO SOL DE LA COSTA  SAS                  D000000082408800000000000000000000100010010000000000000000000000F0010000005818900120140516000101 00000000000000000000000000000000000000000000000000000000000000000000000000000000000000000000000000000000000000000N 00000000000NCONT   00    00000000000          00000000000000000000000000000000000000000000 000000000000000A000000000000000000000000000000000000000000000 000000000000000000000000000000000000000     00000000                                                                                                                        000000000000000000
F0010000005818900002000089011492400041450500000000000000000201405160002001AGE. CAUCHO SOL DE LA COSTA  SAS                  C000000051810000000000000000000000100010010000000000000000000000F0010000005818900220140516000101 00000000000000000000000000000000000000000000000000000000000000000000000000000000000000000000000000000000000000000N 00000000000NCONT   00    00000000000          00000000000000000000000000000000000000000000 000000000000000A000000000000000000000000000000000000000000000 000000000000000000000000000000000000000     00000000                                                                                                                        000000000000000000
F0010000005818900003000089011492400042505000000000000000000201405160002001AGE. CAUCHO SOL DE LA COSTA  SAS                  C000000030598800000000000000000000100010010000000000000000000000F0010000005818900320140516000101 00000000000000000000000000000000000000000000000000000000000000000000000000000000000000000000000000000000000000000N 00000000000NCONT   00    00000000000          00000000000000000000000000000000000000000000 000000000000000A000000000000000000000000000000000000000000000 000000000000000000000000000000000000000     00000000                                                                                                                        000000000000000000
F0010000005818900004000089011492400023658300000000000000000201405160002001AGE. CAUCHO SOL DE LA COSTA  SAS                  C000000000414500000000000000000000100010010000000000000000000000F0010000005818900420140516000101 00000000000000000000000000000000000000000000000000000000000000000000000000000000000000000000000000000000000000000N 00000000000NCONT   00    00000000000          00000000000000000000000000000000000000000000 000000000000000A000000000000000000000000000000000000000000000 000000000000000000000000000000000000000     00000000                                                                                                                        000000000000000000
F0010000005818900005000089011492400013552100000000000000000201405160002001AGE. CAUCHO SOL DE LA COSTA  SAS                  D000000000414500000000000000000000100010010000000000000000000000F0010000005818900520140516000101 00000000000000000000000000000000000000000000000000000000000000000000000000000000000000000000000000000000000000000N 00000000000NCONT   00    00000000000          00000000000000000000000000000000000000000000 000000000000000A000000000000000000000000000000000000000000000 000000000000000000000000000000000000000     00000000                                                                                                                        000000000000000000
F0010000005819000001000080200863700013050500000000000000000201405160002001COPIN LTDA                                        D000000078399700000000000000000000100010010000000000000000000000F0010000005819000120140516000101 00000000000000000000000000000000000000000000000000000000000000000000000000000000000000000000000000000000000000000N 00000000000NCONT   00    00000000000          00000000000000000000000000000000000000000000 000000000000000A000000000000000000000000000000000000000000000 000000000000000000000000000000000000000     00000000                                                                                                                        000000000000000000
F0010000005819000002000080200863700041450500000000000000000201405160002001COPIN LTDA                                        C000000071130000000000000000000000100010010000000000000000000000F0010000005819000220140516000101 00000000000000000000000000000000000000000000000000000000000000000000000000000000000000000000000000000000000000000N 00000000000NCONT   00    00000000000          00000000000000000000000000000000000000000000 000000000000000A000000000000000000000000000000000000000000000 000000000000000000000000000000000000000     00000000                                                                                                                        000000000000000000
F0010000005819000003000080200863700042505000000000000000000201405160002001COPIN LTDA                                        C000000007269700000000000000000000100010010000000000000000000000F0010000005819000320140516000101 00000000000000000000000000000000000000000000000000000000000000000000000000000000000000000000000000000000000000000N 00000000000NCONT   00    00000000000          00000000000000000000000000000000000000000000 000000000000000A000000000000000000000000000000000000000000000 000000000000000000000000000000000000000     00000000                                                                                                                        000000000000000000
F0010000005819000004000080200863700023658300000000000000000201405160002001COPIN LTDA                                        C000000000569000000000000000000000100010010000000000000000000000F0010000005819000420140516000101 00000000000000000000000000000000000000000000000000000000000000000000000000000000000000000000000000000000000000000N 00000000000NCONT   00    00000000000          00000000000000000000000000000000000000000000 000000000000000A000000000000000000000000000000000000000000000 000000000000000000000000000000000000000     00000000                                                                                                                        000000000000000000
F0010000005819000005000080200863700013552100000000000000000201405160002001COPIN LTDA                                        D000000000569000000000000000000000100010010000000000000000000000F0010000005819000520140516000101 00000000000000000000000000000000000000000000000000000000000000000000000000000000000000000000000000000000000000000N 00000000000NCONT   00    00000000000          00000000000000000000000000000000000000000000 000000000000000A000000000000000000000000000000000000000000000 000000000000000000000000000000000000000     00000000                                                                                                                        000000000000000000
F0010000005819100001000080201112800013050500000000000000000201405160002001CANGURO INTERNATIONAL S.A.                        D000000173934600000000000000000000100010010000000000000000000000F0010000005819100120140516000101 00000000000000000000000000000000000000000000000000000000000000000000000000000000000000000000000000000000000000000N 00000000000NCONT   00    00000000000          00000000000000000000000000000000000000000000 000000000000000A000000000000000000000000000000000000000000000 000000000000000000000000000000000000000     00000000                                                                                                                        000000000000000000
F0010000005819100002000080201112800041450500000000000000000201405160002001CANGURO INTERNATIONAL S.A.                        C000000173834600000000000000000000100010010000000000000000000000F0010000005819100220140516000101 00000000000000000000000000000000000000000000000000000000000000000000000000000000000000000000000000000000000000000N 00000000000NCONT   00    00000000000          00000000000000000000000000000000000000000000 000000000000000A000000000000000000000000000000000000000000000 000000000000000000000000000000000000000     00000000                                                                                                                        000000000000000000
F0010000005819100003000080201112800042505000000000000000000201405160002001CANGURO INTERNATIONAL S.A.                        C000000000100000000000000000000000100010010000000000000000000000F0010000005819100320140516000101 00000000000000000000000000000000000000000000000000000000000000000000000000000000000000000000000000000000000000000N 00000000000NCONT   00    00000000000          00000000000000000000000000000000000000000000 000000000000000A000000000000000000000000000000000000000000000 000000000000000000000000000000000000000     00000000                                                                                                                        000000000000000000
F0010000005819100004000080201112800023658300000000000000000201405160002001CANGURO INTERNATIONAL S.A.                        C000000001390700000000000000000000100010010000000000000000000000F0010000005819100420140516000101 00000000000000000000000000000000000000000000000000000000000000000000000000000000000000000000000000000000000000000N 00000000000NCONT   00    00000000000          00000000000000000000000000000000000000000000 000000000000000A000000000000000000000000000000000000000000000 000000000000000000000000000000000000000     00000000                                                                                                                        000000000000000000
F0010000005819100005000080201112800013552100000000000000000201405160002001CANGURO INTERNATIONAL S.A.                        D000000001390700000000000000000000100010010000000000000000000000F0010000005819100520140516000101 00000000000000000000000000000000000000000000000000000000000000000000000000000000000000000000000000000000000000000N 00000000000NCONT   00    00000000000          00000000000000000000000000000000000000000000 000000000000000A000000000000000000000000000000000000000000000 000000000000000000000000000000000000000     00000000                                                                                                                        000000000000000000
F0010000005819200001000080201112800013050500000000000000000201405160002001CANGURO INTERNATIONAL S.A.                        D000000224445100000000000000000000100010010000000000000000000000F0010000005819200120140516000101 00000000000000000000000000000000000000000000000000000000000000000000000000000000000000000000000000000000000000000N 00000000000NCONT   00    00000000000          00000000000000000000000000000000000000000000 000000000000000A000000000000000000000000000000000000000000000 000000000000000000000000000000000000000     00000000                                                                                                                        000000000000000000
F0010000005819200002000080201112800041450500000000000000000201405160002001CANGURO INTERNATIONAL S.A.                        C000000224310100000000000000000000100010010000000000000000000000F0010000005819200220140516000101 00000000000000000000000000000000000000000000000000000000000000000000000000000000000000000000000000000000000000000N 00000000000NCONT   00    00000000000          00000000000000000000000000000000000000000000 000000000000000A000000000000000000000000000000000000000000000 000000000000000000000000000000000000000     00000000                                                                                                                        000000000000000000
F0010000005819200003000080201112800042505000000000000000000201405160002001CANGURO INTERNATIONAL S.A.                        C000000000135000000000000000000000100010010000000000000000000000F0010000005819200320140516000101 00000000000000000000000000000000000000000000000000000000000000000000000000000000000000000000000000000000000000000N 00000000000NCONT   00    00000000000          00000000000000000000000000000000000000000000 000000000000000A000000000000000000000000000000000000000000000 000000000000000000000000000000000000000     00000000                                                                                                                        000000000000000000
F0010000005819200004000080201112800023658300000000000000000201405160002001CANGURO INTERNATIONAL S.A.                        C000000001794500000000000000000000100010010000000000000000000000F0010000005819200420140516000101 00000000000000000000000000000000000000000000000000000000000000000000000000000000000000000000000000000000000000000N 00000000000NCONT   00    00000000000          00000000000000000000000000000000000000000000 000000000000000A000000000000000000000000000000000000000000000 000000000000000000000000000000000000000     00000000                                                                                                                        000000000000000000
F0010000005819200005000080201112800013552100000000000000000201405160002001CANGURO INTERNATIONAL S.A.                        D000000001794500000000000000000000100010010000000000000000000000F0010000005819200520140516000101 00000000000000000000000000000000000000000000000000000000000000000000000000000000000000000000000000000000000000000N 00000000000NCONT   00    00000000000          00000000000000000000000000000000000000000000 000000000000000A000000000000000000000000000000000000000000000 000000000000000000000000000000000000000     00000000                                                                                                                        000000000000000000
F0010000005819300001000080201112800013050500000000000000000201405160002001CANGURO INTERNATIONAL S.A.                        D000000174124000000000000000000000100010010000000000000000000000F0010000005819300120140516000101 00000000000000000000000000000000000000000000000000000000000000000000000000000000000000000000000000000000000000000N 00000000000NCONT   00    00000000000          00000000000000000000000000000000000000000000 000000000000000A000000000000000000000000000000000000000000000 000000000000000000000000000000000000000     00000000                                                                                                                        000000000000000000
F0010000005819300002000080201112800041450500000000000000000201405160002001CANGURO INTERNATIONAL S.A.                        C000000172429800000000000000000000100010010000000000000000000000F0010000005819300220140516000101 00000000000000000000000000000000000000000000000000000000000000000000000000000000000000000000000000000000000000000N 00000000000NCONT   00    00000000000          00000000000000000000000000000000000000000000 000000000000000A000000000000000000000000000000000000000000000 000000000000000000000000000000000000000     00000000                                                                                                                        000000000000000000
F0010000005819300003000080201112800042505000000000000000000201405160002001CANGURO INTERNATIONAL S.A.                        C000000001694200000000000000000000100010010000000000000000000000F0010000005819300320140516000101 00000000000000000000000000000000000000000000000000000000000000000000000000000000000000000000000000000000000000000N 00000000000NCONT   00    00000000000          00000000000000000000000000000000000000000000 000000000000000A000000000000000000000000000000000000000000000 000000000000000000000000000000000000000     00000000                                                                                                                        000000000000000000
F0010000005819300004000080201112800023658300000000000000000201405160002001CANGURO INTERNATIONAL S.A.                        C000000001379400000000000000000000100010010000000000000000000000F0010000005819300420140516000101 00000000000000000000000000000000000000000000000000000000000000000000000000000000000000000000000000000000000000000N 00000000000NCONT   00    00000000000          00000000000000000000000000000000000000000000 000000000000000A000000000000000000000000000000000000000000000 000000000000000000000000000000000000000     00000000                                                                                                                        000000000000000000
F0010000005819300005000080201112800013552100000000000000000201405160002001CANGURO INTERNATIONAL S.A.                        D000000001379400000000000000000000100010010000000000000000000000F0010000005819300520140516000101 00000000000000000000000000000000000000000000000000000000000000000000000000000000000000000000000000000000000000000N 00000000000NCONT   00    00000000000          00000000000000000000000000000000000000000000 000000000000000A000000000000000000000000000000000000000000000 000000000000000000000000000000000000000     00000000                                                                                                                        000000000000000000
F0010000005819400001000080201112800013050500000000000000000201405160002001CANGURO INTERNATIONAL S.A.                        D000000202016400000000000000000000100010010000000000000000000000F0010000005819400120140516000101 00000000000000000000000000000000000000000000000000000000000000000000000000000000000000000000000000000000000000000N 00000000000NCONT   00    00000000000          00000000000000000000000000000000000000000000 000000000000000A000000000000000000000000000000000000000000000 000000000000000000000000000000000000000     00000000                                                                                                                        000000000000000000
F0010000005819400002000080201112800041450500000000000000000201405160002001CANGURO INTERNATIONAL S.A.                        C000000201105700000000000000000000100010010000000000000000000000F0010000005819400220140516000101 00000000000000000000000000000000000000000000000000000000000000000000000000000000000000000000000000000000000000000N 00000000000NCONT   00    00000000000          00000000000000000000000000000000000000000000 000000000000000A000000000000000000000000000000000000000000000 000000000000000000000000000000000000000     00000000                                                                                                                        000000000000000000
F0010000005819400003000080201112800042505000000000000000000201405160002001CANGURO INTERNATIONAL S.A.                        C000000000910700000000000000000000100010010000000000000000000000F0010000005819400320140516000101 00000000000000000000000000000000000000000000000000000000000000000000000000000000000000000000000000000000000000000N 00000000000NCONT   00    00000000000          00000000000000000000000000000000000000000000 000000000000000A000000000000000000000000000000000000000000000 000000000000000000000000000000000000000     00000000                                                                                                                        000000000000000000
F0010000005819400004000080201112800023658300000000000000000201405160002001CANGURO INTERNATIONAL S.A.                        C000000001608800000000000000000000100010010000000000000000000000F0010000005819400420140516000101 00000000000000000000000000000000000000000000000000000000000000000000000000000000000000000000000000000000000000000N 00000000000NCONT   00    00000000000          00000000000000000000000000000000000000000000 000000000000000A000000000000000000000000000000000000000000000 000000000000000000000000000000000000000     00000000                                                                                                                        000000000000000000
F0010000005819400005000080201112800013552100000000000000000201405160002001CANGURO INTERNATIONAL S.A.                        D000000001608800000000000000000000100010010000000000000000000000F0010000005819400520140516000101 00000000000000000000000000000000000000000000000000000000000000000000000000000000000000000000000000000000000000000N 00000000000NCONT   00    00000000000          00000000000000000000000000000000000000000000 000000000000000A000000000000000000000000000000000000000000000 000000000000000000000000000000000000000     00000000                                                                                                                        000000000000000000
F0010000005819500001000080201112800013050500000000000000000201405160002001CANGURO INTERNATIONAL S.A.                        D000000019796500000000000000000000100010010000000000000000000000F0010000005819500120140516000101 00000000000000000000000000000000000000000000000000000000000000000000000000000000000000000000000000000000000000000N 00000000000NCONT   00    00000000000          00000000000000000000000000000000000000000000 000000000000000A000000000000000000000000000000000000000000000 000000000000000000000000000000000000000     00000000                                                                                                                        000000000000000000
F0010000005819500002000080201112800041450500000000000000000201405160002001CANGURO INTERNATIONAL S.A.                        C000000019419800000000000000000000100010010000000000000000000000F0010000005819500220140516000101 00000000000000000000000000000000000000000000000000000000000000000000000000000000000000000000000000000000000000000N 00000000000NCONT   00    00000000000          00000000000000000000000000000000000000000000 000000000000000A000000000000000000000000000000000000000000000 000000000000000000000000000000000000000     00000000                                                                                                                        000000000000000000
F0010000005819500003000080201112800042505000000000000000000201405160002001CANGURO INTERNATIONAL S.A.                        C000000000376700000000000000000000100010010000000000000000000000F0010000005819500320140516000101 00000000000000000000000000000000000000000000000000000000000000000000000000000000000000000000000000000000000000000N 00000000000NCONT   00    00000000000          00000000000000000000000000000000000000000000 000000000000000A000000000000000000000000000000000000000000000 000000000000000000000000000000000000000     00000000                                                                                                                        000000000000000000
F0010000005819500004000080201112800023658300000000000000000201405160002001CANGURO INTERNATIONAL S.A.                        C000000000155400000000000000000000100010010000000000000000000000F0010000005819500420140516000101 00000000000000000000000000000000000000000000000000000000000000000000000000000000000000000000000000000000000000000N 00000000000NCONT   00    00000000000          00000000000000000000000000000000000000000000 000000000000000A000000000000000000000000000000000000000000000 000000000000000000000000000000000000000     00000000                                                                                                                        000000000000000000
F0010000005819500005000080201112800013552100000000000000000201405160002001CANGURO INTERNATIONAL S.A.                        D000000000155400000000000000000000100010010000000000000000000000F0010000005819500520140516000101 00000000000000000000000000000000000000000000000000000000000000000000000000000000000000000000000000000000000000000N 00000000000NCONT   00    00000000000          00000000000000000000000000000000000000000000 000000000000000A000000000000000000000000000000000000000000000 000000000000000000000000000000000000000     00000000                                                                                                                        000000000000000000
F0010000005819600001000089031248700013050500000000000000000201405160002001DISTRIBUIDORA CALIPLASTICOS LTDA                  D000000102907200000000000000000000100010010000000000000000000000F0010000005819600120140516000101 00000000000000000000000000000000000000000000000000000000000000000000000000000000000000000000000000000000000000000N 00000000000NCONT   00    00000000000          00000000000000000000000000000000000000000000 000000000000000A000000000000000000000000000000000000000000000 000000000000000000000000000000000000000     00000000                                                                                                                        000000000000000000
F0010000005819600002000089031248700041450500000000000000000201405160002001DISTRIBUIDORA CALIPLASTICOS LTDA                  C000000097687200000000000000000000100010010000000000000000000000F0010000005819600220140516000101 00000000000000000000000000000000000000000000000000000000000000000000000000000000000000000000000000000000000000000N 00000000000NCONT   00    00000000000          00000000000000000000000000000000000000000000 000000000000000A000000000000000000000000000000000000000000000 000000000000000000000000000000000000000     00000000                                                                                                                        000000000000000000
F0010000005819600003000089031248700042505000000000000000000201405160002001DISTRIBUIDORA CALIPLASTICOS LTDA                  C000000005220000000000000000000000100010010000000000000000000000F0010000005819600320140516000101 00000000000000000000000000000000000000000000000000000000000000000000000000000000000000000000000000000000000000000N 00000000000NCONT   00    00000000000          00000000000000000000000000000000000000000000 000000000000000A000000000000000000000000000000000000000000000 000000000000000000000000000000000000000     00000000                                                                                                                        000000000000000000
F0010000005819600004000089031248700023658300000000000000000201405160002001DISTRIBUIDORA CALIPLASTICOS LTDA                  C000000000781500000000000000000000100010010000000000000000000000F0010000005819600420140516000101 00000000000000000000000000000000000000000000000000000000000000000000000000000000000000000000000000000000000000000N 00000000000NCONT   00    00000000000          00000000000000000000000000000000000000000000 000000000000000A000000000000000000000000000000000000000000000 000000000000000000000000000000000000000     00000000                                                                                                                        000000000000000000
F0010000005819600005000089031248700013552100000000000000000201405160002001DISTRIBUIDORA CALIPLASTICOS LTDA                  D000000000781500000000000000000000100010010000000000000000000000F0010000005819600520140516000101 00000000000000000000000000000000000000000000000000000000000000000000000000000000000000000000000000000000000000000N 00000000000NCONT   00    00000000000          00000000000000000000000000000000000000000000 000000000000000A000000000000000000000000000000000000000000000 000000000000000000000000000000000000000     00000000                                                                                                                        000000000000000000
F0010000005819700001000090044920600013050500000000000000000201405160002001QUATRO CARIBE SAS                                 D000000008860000000000000000000000100010010000000000000000000000F0010000005819700120140516000101 00000000000000000000000000000000000000000000000000000000000000000000000000000000000000000000000000000000000000000N 00000000000NCONT   00    00000000000          00000000000000000000000000000000000000000000 000000000000000A000000000000000000000000000000000000000000000 000000000000000000000000000000000000000     00000000                                                                                                                        000000000000000000
F0010000005819700002000090044920600041450500000000000000000201405160002001QUATRO CARIBE SAS                                 C000000005850000000000000000000000100010010000000000000000000000F0010000005819700220140516000101 00000000000000000000000000000000000000000000000000000000000000000000000000000000000000000000000000000000000000000N 00000000000NCONT   00    00000000000          00000000000000000000000000000000000000000000 000000000000000A000000000000000000000000000000000000000000000 000000000000000000000000000000000000000     00000000                                                                                                                        000000000000000000
F0010000005819700003000090044920600042505000000000000000000201405160002001QUATRO CARIBE SAS                                 C000000003010000000000000000000000100010010000000000000000000000F0010000005819700320140516000101 00000000000000000000000000000000000000000000000000000000000000000000000000000000000000000000000000000000000000000N 00000000000NCONT   00    00000000000          00000000000000000000000000000000000000000000 000000000000000A000000000000000000000000000000000000000000000 000000000000000000000000000000000000000     00000000                                                                                                                        000000000000000000
F0010000005819700004000090044920600023658300000000000000000201405160002001QUATRO CARIBE SAS                                 C000000000046800000000000000000000100010010000000000000000000000F0010000005819700420140516000101 00000000000000000000000000000000000000000000000000000000000000000000000000000000000000000000000000000000000000000N 00000000000NCONT   00    00000000000          00000000000000000000000000000000000000000000 000000000000000A000000000000000000000000000000000000000000000 000000000000000000000000000000000000000     00000000                                                                                                                        000000000000000000
F0010000005819700005000090044920600013552100000000000000000201405160002001QUATRO CARIBE SAS                                 D000000000046800000000000000000000100010010000000000000000000000F0010000005819700520140516000101 00000000000000000000000000000000000000000000000000000000000000000000000000000000000000000000000000000000000000000N 00000000000NCONT   00    00000000000          00000000000000000000000000000000000000000000 000000000000000A000000000000000000000000000000000000000000000 000000000000000000000000000000000000000     00000000                                                                                                                        000000000000000000
F0010000005819800001000080010983700013050500000000000000000201405160002001OHM LTDA                                          D000000031605000000000000000000000100010010000000000000000000000F0010000005819800120140516000101 00000000000000000000000000000000000000000000000000000000000000000000000000000000000000000000000000000000000000000N 00000000000NCONT   00    00000000000          00000000000000000000000000000000000000000000 000000000000000A000000000000000000000000000000000000000000000 000000000000000000000000000000000000000     00000000                                                                                                                        000000000000000000
F0010000005819800002000080010983700041450500000000000000000201405160002001OHM LTDA                                          C000000031140000000000000000000000100010010000000000000000000000F0010000005819800220140516000101 00000000000000000000000000000000000000000000000000000000000000000000000000000000000000000000000000000000000000000N 00000000000NCONT   00    00000000000          00000000000000000000000000000000000000000000 000000000000000A000000000000000000000000000000000000000000000 000000000000000000000000000000000000000     00000000                                                                                                                        000000000000000000
F0010000005819800003000080010983700042505000000000000000000201405160002001OHM LTDA                                          C000000000465000000000000000000000100010010000000000000000000000F0010000005819800320140516000101 00000000000000000000000000000000000000000000000000000000000000000000000000000000000000000000000000000000000000000N 00000000000NCONT   00    00000000000          00000000000000000000000000000000000000000000 000000000000000A000000000000000000000000000000000000000000000 000000000000000000000000000000000000000     00000000                                                                                                                        000000000000000000
F0010000005819800004000080010983700023658300000000000000000201405160002001OHM LTDA                                          C000000000249100000000000000000000100010010000000000000000000000F0010000005819800420140516000101 00000000000000000000000000000000000000000000000000000000000000000000000000000000000000000000000000000000000000000N 00000000000NCONT   00    00000000000          00000000000000000000000000000000000000000000 000000000000000A000000000000000000000000000000000000000000000 000000000000000000000000000000000000000     00000000                                                                                                                        000000000000000000
F0010000005819800005000080010983700013552100000000000000000201405160002001OHM LTDA                                          D000000000249100000000000000000000100010010000000000000000000000F0010000005819800520140516000101 00000000000000000000000000000000000000000000000000000000000000000000000000000000000000000000000000000000000000000N 00000000000NCONT   00    00000000000          00000000000000000000000000000000000000000000 000000000000000A000000000000000000000000000000000000000000000 000000000000000000000000000000000000000     00000000                                                                                                                        000000000000000000
F0010000005819900001000089011719700013050500000000000000000201405160002001REP. MUNERA GALARZA LTDA (FRANCISCO MUNERA)       D000000013370000000000000000000000100010010000000000000000000000F0010000005819900120140516000101 00000000000000000000000000000000000000000000000000000000000000000000000000000000000000000000000000000000000000000N 00000000000NCONT   00    00000000000          00000000000000000000000000000000000000000000 000000000000000A000000000000000000000000000000000000000000000 000000000000000000000000000000000000000     00000000                                                                                                                        000000000000000000
F0010000005819900002000089011719700041450500000000000000000201405160002001REP. MUNERA GALARZA LTDA (FRANCISCO MUNERA)       C000000009360000000000000000000000100010010000000000000000000000F0010000005819900220140516000101 00000000000000000000000000000000000000000000000000000000000000000000000000000000000000000000000000000000000000000N 00000000000NCONT   00    00000000000          00000000000000000000000000000000000000000000 000000000000000A000000000000000000000000000000000000000000000 000000000000000000000000000000000000000     00000000                                                                                                                        000000000000000000
F0010000005819900003000089011719700042505000000000000000000201405160002001REP. MUNERA GALARZA LTDA (FRANCISCO MUNERA)       C000000004010000000000000000000000100010010000000000000000000000F0010000005819900320140516000101 00000000000000000000000000000000000000000000000000000000000000000000000000000000000000000000000000000000000000000N 00000000000NCONT   00    00000000000          00000000000000000000000000000000000000000000 000000000000000A000000000000000000000000000000000000000000000 000000000000000000000000000000000000000     00000000                                                                                                                        000000000000000000
F0010000005819900004000089011719700023658300000000000000000201405160002001REP. MUNERA GALARZA LTDA (FRANCISCO MUNERA)       C000000000074900000000000000000000100010010000000000000000000000F0010000005819900420140516000101 00000000000000000000000000000000000000000000000000000000000000000000000000000000000000000000000000000000000000000N 00000000000NCONT   00    00000000000          00000000000000000000000000000000000000000000 000000000000000A000000000000000000000000000000000000000000000 000000000000000000000000000000000000000     00000000                                                                                                                        000000000000000000
F0010000005819900005000089011719700013552100000000000000000201405160002001REP. MUNERA GALARZA LTDA (FRANCISCO MUNERA)       D000000000074900000000000000000000100010010000000000000000000000F0010000005819900520140516000101 00000000000000000000000000000000000000000000000000000000000000000000000000000000000000000000000000000000000000000N 00000000000NCONT   00    00000000000          00000000000000000000000000000000000000000000 000000000000000A000000000000000000000000000000000000000000000 000000000000000000000000000000000000000     00000000                                                                                                                        000000000000000000
F0010000005820000001000090001973700013050500000000000000000201405160002001DISTRIBUIDORA Y PAPELERIA VENEPLAS LTDA           D000000023050000000000000000000000100010010000000000000000000000F0010000005820000120140516000101 00000000000000000000000000000000000000000000000000000000000000000000000000000000000000000000000000000000000000000N 00000000000NCONT   00    00000000000          00000000000000000000000000000000000000000000 000000000000000A000000000000000000000000000000000000000000000 000000000000000000000000000000000000000     00000000                                                                                                                        000000000000000000
F0010000005820000002000090001973700041450500000000000000000201405160002001DISTRIBUIDORA Y PAPELERIA VENEPLAS LTDA           C000000021800000000000000000000000100010010000000000000000000000F0010000005820000220140516000101 00000000000000000000000000000000000000000000000000000000000000000000000000000000000000000000000000000000000000000N 00000000000NCONT   00    00000000000          00000000000000000000000000000000000000000000 000000000000000A000000000000000000000000000000000000000000000 000000000000000000000000000000000000000     00000000                                                                                                                        000000000000000000
F0010000005820000003000090001973700042505000000000000000000201405160002001DISTRIBUIDORA Y PAPELERIA VENEPLAS LTDA           C000000001250000000000000000000000100010010000000000000000000000F0010000005820000320140516000101 00000000000000000000000000000000000000000000000000000000000000000000000000000000000000000000000000000000000000000N 00000000000NCONT   00    00000000000          00000000000000000000000000000000000000000000 000000000000000A000000000000000000000000000000000000000000000 000000000000000000000000000000000000000     00000000                                                                                                                        000000000000000000
F0010000005820000004000090001973700023658300000000000000000201405160002001DISTRIBUIDORA Y PAPELERIA VENEPLAS LTDA           C000000000174400000000000000000000100010010000000000000000000000F0010000005820000420140516000101 00000000000000000000000000000000000000000000000000000000000000000000000000000000000000000000000000000000000000000N 00000000000NCONT   00    00000000000          00000000000000000000000000000000000000000000 000000000000000A000000000000000000000000000000000000000000000 000000000000000000000000000000000000000     00000000                                                                                                                        000000000000000000
F0010000005820000005000090001973700013552100000000000000000201405160002001DISTRIBUIDORA Y PAPELERIA VENEPLAS LTDA           D000000000174400000000000000000000100010010000000000000000000000F0010000005820000520140516000101 00000000000000000000000000000000000000000000000000000000000000000000000000000000000000000000000000000000000000000N 00000000000NCONT   00    00000000000          00000000000000000000000000000000000000000000 000000000000000A000000000000000000000000000000000000000000000 000000000000000000000000000000000000000     00000000                                                                                                                        000000000000000000
F0010000005820200001000090019362000013050500000000000000000201405160002001GENERAL SUPPLIES CIA LTDA                         D000000011570000000000000000000000100010010000000000000000000000F0010000005820200120140516000101 00000000000000000000000000000000000000000000000000000000000000000000000000000000000000000000000000000000000000000N 00000000000NCONT   00    00000000000          00000000000000000000000000000000000000000000 000000000000000A000000000000000000000000000000000000000000000 000000000000000000000000000000000000000     00000000                                                                                                                        000000000000000000
F0010000005820200002000090019362000041450500000000000000000201405160002001GENERAL SUPPLIES CIA LTDA                         C000000009750000000000000000000000100010010000000000000000000000F0010000005820200220140516000101 00000000000000000000000000000000000000000000000000000000000000000000000000000000000000000000000000000000000000000N 00000000000NCONT   00    00000000000          00000000000000000000000000000000000000000000 000000000000000A000000000000000000000000000000000000000000000 000000000000000000000000000000000000000     00000000                                                                                                                        000000000000000000
F0010000005820200003000090019362000042505000000000000000000201405160002001GENERAL SUPPLIES CIA LTDA                         C000000001820000000000000000000000100010010000000000000000000000F0010000005820200320140516000101 00000000000000000000000000000000000000000000000000000000000000000000000000000000000000000000000000000000000000000N 00000000000NCONT   00    00000000000          00000000000000000000000000000000000000000000 000000000000000A000000000000000000000000000000000000000000000 000000000000000000000000000000000000000     00000000                                                                                                                        000000000000000000
F0010000005820200004000090019362000023658300000000000000000201405160002001GENERAL SUPPLIES CIA LTDA                         C000000000078000000000000000000000100010010000000000000000000000F0010000005820200420140516000101 00000000000000000000000000000000000000000000000000000000000000000000000000000000000000000000000000000000000000000N 00000000000NCONT   00    00000000000          00000000000000000000000000000000000000000000 000000000000000A000000000000000000000000000000000000000000000 000000000000000000000000000000000000000     00000000                                                                                                                        000000000000000000
F0010000005820200005000090019362000013552100000000000000000201405160002001GENERAL SUPPLIES CIA LTDA                         D000000000078000000000000000000000100010010000000000000000000000F0010000005820200520140516000101 00000000000000000000000000000000000000000000000000000000000000000000000000000000000000000000000000000000000000000N 00000000000NCONT   00    00000000000          00000000000000000000000000000000000000000000 000000000000000A000000000000000000000000000000000000000000000 000000000000000000000000000000000000000     00000000                                                                                                                        000000000000000000
F0010000005820300001000089030195100013050500000000000000000201405160002001LIBRERIA NACIONAL S.A.                            D000000041300000000000000000000000100010010000000000000000000000F0010000005820300120140516000101 00000000000000000000000000000000000000000000000000000000000000000000000000000000000000000000000000000000000000000N 00000000000NCONT   00    00000000000          00000000000000000000000000000000000000000000 000000000000000A000000000000000000000000000000000000000000000 000000000000000000000000000000000000000     00000000                                                                                                                        000000000000000000
F0010000005820300002000089030195100041450500000000000000000201405160002001LIBRERIA NACIONAL S.A.                            C000000032900000000000000000000000100010010000000000000000000000F0010000005820300220140516000101 00000000000000000000000000000000000000000000000000000000000000000000000000000000000000000000000000000000000000000N 00000000000NCONT   00    00000000000          00000000000000000000000000000000000000000000 000000000000000A000000000000000000000000000000000000000000000 000000000000000000000000000000000000000     00000000                                                                                                                        000000000000000000
F0010000005820300003000089030195100042505000000000000000000201405160002001LIBRERIA NACIONAL S.A.                            C000000008400000000000000000000000100010010000000000000000000000F0010000005820300320140516000101 00000000000000000000000000000000000000000000000000000000000000000000000000000000000000000000000000000000000000000N 00000000000NCONT   00    00000000000          00000000000000000000000000000000000000000000 000000000000000A000000000000000000000000000000000000000000000 000000000000000000000000000000000000000     00000000                                                                                                                        000000000000000000
F0010000005820300004000089030195100023658300000000000000000201405160002001LIBRERIA NACIONAL S.A.                            C000000000263200000000000000000000100010010000000000000000000000F0010000005820300420140516000101 00000000000000000000000000000000000000000000000000000000000000000000000000000000000000000000000000000000000000000N 00000000000NCONT   00    00000000000          00000000000000000000000000000000000000000000 000000000000000A000000000000000000000000000000000000000000000 000000000000000000000000000000000000000     00000000                                                                                                                        000000000000000000
F0010000005820300005000089030195100013552100000000000000000201405160002001LIBRERIA NACIONAL S.A.                            D000000000263200000000000000000000100010010000000000000000000000F0010000005820300520140516000101 00000000000000000000000000000000000000000000000000000000000000000000000000000000000000000000000000000000000000000N 00000000000NCONT   00    00000000000          00000000000000000000000000000000000000000000 000000000000000A000000000000000000000000000000000000000000000 000000000000000000000000000000000000000     00000000                                                                                                                        000000000000000000
F0010000005820400001000080202132300013050500000000000000000201405160002001SUM Y SERV DE LA COSTA LTDA                       D000000035300000000000000000000000100010010000000000000000000000F0010000005820400120140516000101 00000000000000000000000000000000000000000000000000000000000000000000000000000000000000000000000000000000000000000N 00000000000NCONT   00    00000000000          00000000000000000000000000000000000000000000 000000000000000A000000000000000000000000000000000000000000000 000000000000000000000000000000000000000     00000000                                                                                                                        000000000000000000
F0010000005820400002000080202132300041450500000000000000000201405160002001SUM Y SERV DE LA COSTA LTDA                       C000000033550000000000000000000000100010010000000000000000000000F0010000005820400220140516000101 00000000000000000000000000000000000000000000000000000000000000000000000000000000000000000000000000000000000000000N 00000000000NCONT   00    00000000000          00000000000000000000000000000000000000000000 000000000000000A000000000000000000000000000000000000000000000 000000000000000000000000000000000000000     00000000                                                                                                                        000000000000000000
F0010000005820400003000080202132300042505000000000000000000201405160002001SUM Y SERV DE LA COSTA LTDA                       C000000001750000000000000000000000100010010000000000000000000000F0010000005820400320140516000101 00000000000000000000000000000000000000000000000000000000000000000000000000000000000000000000000000000000000000000N 00000000000NCONT   00    00000000000          00000000000000000000000000000000000000000000 000000000000000A000000000000000000000000000000000000000000000 000000000000000000000000000000000000000     00000000                                                                                                                        000000000000000000
F0010000005820400004000080202132300023658300000000000000000201405160002001SUM Y SERV DE LA COSTA LTDA                       C000000000268400000000000000000000100010010000000000000000000000F0010000005820400420140516000101 00000000000000000000000000000000000000000000000000000000000000000000000000000000000000000000000000000000000000000N 00000000000NCONT   00    00000000000          00000000000000000000000000000000000000000000 000000000000000A000000000000000000000000000000000000000000000 000000000000000000000000000000000000000     00000000                                                                                                                        000000000000000000
F0010000005820400005000080202132300013552100000000000000000201405160002001SUM Y SERV DE LA COSTA LTDA                       D000000000268400000000000000000000100010010000000000000000000000F0010000005820400520140516000101 00000000000000000000000000000000000000000000000000000000000000000000000000000000000000000000000000000000000000000N 00000000000NCONT   00    00000000000          00000000000000000000000000000000000000000000 000000000000000A000000000000000000000000000000000000000000000 000000000000000000000000000000000000000     00000000                                                                                                                        000000000000000000
F0010000005820500001000007219697600013050500000000000000000201405160002001ROBERTO SOSA POLO                                 D000000001620000000000000000000000100010010000000000000000000000F0010000005820500120140516000101 00000000000000000000000000000000000000000000000000000000000000000000000000000000000000000000000000000000000000000N 00000000000NCONT   00    00000000000          00000000000000000000000000000000000000000000 000000000000000A000000000000000000000000000000000000000000000 000000000000000000000000000000000000000     00000000                                                                                                                        000000000000000000
F0010000005820500002000007219697600041450500000000000000000201405160002001ROBERTO SOSA POLO                                 C000000001320000000000000000000000100010010000000000000000000000F0010000005820500220140516000101 00000000000000000000000000000000000000000000000000000000000000000000000000000000000000000000000000000000000000000N 00000000000NCONT   00    00000000000          00000000000000000000000000000000000000000000 000000000000000A000000000000000000000000000000000000000000000 000000000000000000000000000000000000000     00000000                                                                                                                        000000000000000000
F0010000005820500003000007219697600042505000000000000000000201405160002001ROBERTO SOSA POLO                                 C000000000300000000000000000000000100010010000000000000000000000F0010000005820500320140516000101 00000000000000000000000000000000000000000000000000000000000000000000000000000000000000000000000000000000000000000N 00000000000NCONT   00    00000000000          00000000000000000000000000000000000000000000 000000000000000A000000000000000000000000000000000000000000000 000000000000000000000000000000000000000     00000000                                                                                                                        000000000000000000
F0010000005820500004000007219697600023658300000000000000000201405160002001ROBERTO SOSA POLO                                 C000000000010600000000000000000000100010010000000000000000000000F0010000005820500420140516000101 00000000000000000000000000000000000000000000000000000000000000000000000000000000000000000000000000000000000000000N 00000000000NCONT   00    00000000000          00000000000000000000000000000000000000000000 000000000000000A000000000000000000000000000000000000000000000 000000000000000000000000000000000000000     00000000                                                                                                                        000000000000000000
F0010000005820500005000007219697600013552100000000000000000201405160002001ROBERTO SOSA POLO                                 D000000000010600000000000000000000100010010000000000000000000000F0010000005820500520140516000101 00000000000000000000000000000000000000000000000000000000000000000000000000000000000000000000000000000000000000000N 00000000000NCONT   00    00000000000          00000000000000000000000000000000000000000000 000000000000000A000000000000000000000000000000000000000000000 000000000000000000000000000000000000000     00000000                                                                                                                        000000000000000000
F0010000005820600001000090036646700013050500000000000000000201405160002001FERREPROYECTOS S.A.S                              D000000020000000000000000000000000100010010000000000000000000000F0010000005820600120140516000101 00000000000000000000000000000000000000000000000000000000000000000000000000000000000000000000000000000000000000000N 00000000000NCONT   00    00000000000          00000000000000000000000000000000000000000000 000000000000000A000000000000000000000000000000000000000000000 000000000000000000000000000000000000000     00000000                                                                                                                        000000000000000000
F0010000005820600002000090036646700041450500000000000000000201405160002001FERREPROYECTOS S.A.S                              C000000019900000000000000000000000100010010000000000000000000000F0010000005820600220140516000101 00000000000000000000000000000000000000000000000000000000000000000000000000000000000000000000000000000000000000000N 00000000000NCONT   00    00000000000          00000000000000000000000000000000000000000000 000000000000000A000000000000000000000000000000000000000000000 000000000000000000000000000000000000000     00000000                                                                                                                        000000000000000000
F0010000005820600003000090036646700042505000000000000000000201405160002001FERREPROYECTOS S.A.S                              C000000000100000000000000000000000100010010000000000000000000000F0010000005820600320140516000101 00000000000000000000000000000000000000000000000000000000000000000000000000000000000000000000000000000000000000000N 00000000000NCONT   00    00000000000          00000000000000000000000000000000000000000000 000000000000000A000000000000000000000000000000000000000000000 000000000000000000000000000000000000000     00000000                                                                                                                        000000000000000000
F0010000005820600004000090036646700023658300000000000000000201405160002001FERREPROYECTOS S.A.S                              C000000000159200000000000000000000100010010000000000000000000000F0010000005820600420140516000101 00000000000000000000000000000000000000000000000000000000000000000000000000000000000000000000000000000000000000000N 00000000000NCONT   00    00000000000          00000000000000000000000000000000000000000000 000000000000000A000000000000000000000000000000000000000000000 000000000000000000000000000000000000000     00000000                                                                                                                        000000000000000000
F0010000005820600005000090036646700013552100000000000000000201405160002001FERREPROYECTOS S.A.S                              D000000000159200000000000000000000100010010000000000000000000000F0010000005820600520140516000101 00000000000000000000000000000000000000000000000000000000000000000000000000000000000000000000000000000000000000000N 00000000000NCONT   00    00000000000          00000000000000000000000000000000000000000000 000000000000000A000000000000000000000000000000000000000000000 000000000000000000000000000000000000000     00000000                                                                                                                        000000000000000000
F0010000005820700001000112951703100013050500000000000000000201405160002001JUANPI MOTOS                                      D000000001400000000000000000000000100010010000000000000000000000F0010000005820700120140516000101 00000000000000000000000000000000000000000000000000000000000000000000000000000000000000000000000000000000000000000N 00000000000NCONT   00    00000000000          00000000000000000000000000000000000000000000 000000000000000A000000000000000000000000000000000000000000000 000000000000000000000000000000000000000     00000000                                                                                                                        000000000000000000
F0010000005820700002000112951703100041450500000000000000000201405160002001JUANPI MOTOS                                      C000000000900000000000000000000000100010010000000000000000000000F0010000005820700220140516000101 00000000000000000000000000000000000000000000000000000000000000000000000000000000000000000000000000000000000000000N 00000000000NCONT   00    00000000000          00000000000000000000000000000000000000000000 000000000000000A000000000000000000000000000000000000000000000 000000000000000000000000000000000000000     00000000                                                                                                                        000000000000000000
F0010000005820700003000112951703100042505000000000000000000201405160002001JUANPI MOTOS                                      C000000000500000000000000000000000100010010000000000000000000000F0010000005820700320140516000101 00000000000000000000000000000000000000000000000000000000000000000000000000000000000000000000000000000000000000000N 00000000000NCONT   00    00000000000          00000000000000000000000000000000000000000000 000000000000000A000000000000000000000000000000000000000000000 000000000000000000000000000000000000000     00000000                                                                                                                        000000000000000000
F0010000005820700004000112951703100023658300000000000000000201405160002001JUANPI MOTOS                                      C000000000007200000000000000000000100010010000000000000000000000F0010000005820700420140516000101 00000000000000000000000000000000000000000000000000000000000000000000000000000000000000000000000000000000000000000N 00000000000NCONT   00    00000000000          00000000000000000000000000000000000000000000 000000000000000A000000000000000000000000000000000000000000000 000000000000000000000000000000000000000     00000000                                                                                                                        000000000000000000
F0010000005820700005000112951703100013552100000000000000000201405160002001JUANPI MOTOS                                      D000000000007200000000000000000000100010010000000000000000000000F0010000005820700520140516000101 00000000000000000000000000000000000000000000000000000000000000000000000000000000000000000000000000000000000000000N 00000000000NCONT   00    00000000000          00000000000000000000000000000000000000000000 000000000000000A000000000000000000000000000000000000000000000 000000000000000000000000000000000000000     00000000                                                                                                                        000000000000000000
F0010000005820800001000000744822500013050500000000000000000201405160002001PERFUMERIA BORGE                                  D000000019180000000000000000000000100010010000000000000000000000F0010000005820800120140516000101 00000000000000000000000000000000000000000000000000000000000000000000000000000000000000000000000000000000000000000N 00000000000NCONT   00    00000000000          00000000000000000000000000000000000000000000 000000000000000A000000000000000000000000000000000000000000000 000000000000000000000000000000000000000     00000000                                                                                                                        000000000000000000
F0010000005820800002000000744822500041450500000000000000000201405160002001PERFUMERIA BORGE                                  C000000013400000000000000000000000100010010000000000000000000000F0010000005820800220140516000101 00000000000000000000000000000000000000000000000000000000000000000000000000000000000000000000000000000000000000000N 00000000000NCONT   00    00000000000          00000000000000000000000000000000000000000000 000000000000000A000000000000000000000000000000000000000000000 000000000000000000000000000000000000000     00000000                                                                                                                        000000000000000000
F0010000005820800003000000744822500042505000000000000000000201405160002001PERFUMERIA BORGE                                  C000000005780000000000000000000000100010010000000000000000000000F0010000005820800320140516000101 00000000000000000000000000000000000000000000000000000000000000000000000000000000000000000000000000000000000000000N 00000000000NCONT   00    00000000000          00000000000000000000000000000000000000000000 000000000000000A000000000000000000000000000000000000000000000 000000000000000000000000000000000000000     00000000                                                                                                                        000000000000000000
F0010000005820800004000000744822500023658300000000000000000201405160002001PERFUMERIA BORGE                                  C000000000107200000000000000000000100010010000000000000000000000F0010000005820800420140516000101 00000000000000000000000000000000000000000000000000000000000000000000000000000000000000000000000000000000000000000N 00000000000NCONT   00    00000000000          00000000000000000000000000000000000000000000 000000000000000A000000000000000000000000000000000000000000000 000000000000000000000000000000000000000     00000000                                                                                                                        000000000000000000
F0010000005820800005000000744822500013552100000000000000000201405160002001PERFUMERIA BORGE                                  D000000000107200000000000000000000100010010000000000000000000000F0010000005820800520140516000101 00000000000000000000000000000000000000000000000000000000000000000000000000000000000000000000000000000000000000000N 00000000000NCONT   00    00000000000          00000000000000000000000000000000000000000000 000000000000000A000000000000000000000000000000000000000000000 000000000000000000000000000000000000000     00000000                                                                                                                        000000000000000000
F0010000005820900001000086053108300011050500000000000000000201405160002001EL PALACIO DEL ALUMINIO  LTDA                     D000000017400000000000000000000000100010010000000000000000000000F0010000005820900120140516000101 00000000000000000000000000000000000000000000000000000000000000000000000000000000000000000000000000000000000000000N 00000000000NCONT   00    00000000000          00000000000000000000000000000000000000000000 000000000000000A000000000000000000000000000000000000000000000 000000000000000000000000000000000000000     00000000                                                                                                                        000000000000000000
F0010000005820900002000086053108300041450500000000000000000201405160002001EL PALACIO DEL ALUMINIO  LTDA                     C000000014845200000000000000000000100010010000000000000000000000F0010000005820900220140516000101 00000000000000000000000000000000000000000000000000000000000000000000000000000000000000000000000000000000000000000N 00000000000NCONT   00    00000000000          00000000000000000000000000000000000000000000 000000000000000A000000000000000000000000000000000000000000000 000000000000000000000000000000000000000     00000000                                                                                                                        000000000000000000
F0010000005820900003000086053108300042505000000000000000000201405160002001EL PALACIO DEL ALUMINIO  LTDA                     C000000002554800000000000000000000100010010000000000000000000000F0010000005820900320140516000101 00000000000000000000000000000000000000000000000000000000000000000000000000000000000000000000000000000000000000000N 00000000000NCONT   00    00000000000          00000000000000000000000000000000000000000000 000000000000000A000000000000000000000000000000000000000000000 000000000000000000000000000000000000000     00000000                                                                                                                        000000000000000000
F0010000005820900004000086053108300023658300000000000000000201405160002001EL PALACIO DEL ALUMINIO  LTDA                     C000000000118800000000000000000000100010010000000000000000000000F0010000005820900420140516000101 00000000000000000000000000000000000000000000000000000000000000000000000000000000000000000000000000000000000000000N 00000000000NCONT   00    00000000000          00000000000000000000000000000000000000000000 000000000000000A000000000000000000000000000000000000000000000 000000000000000000000000000000000000000     00000000                                                                                                                        000000000000000000
F0010000005820900005000086053108300013552100000000000000000201405160002001EL PALACIO DEL ALUMINIO  LTDA                     D000000000118800000000000000000000100010010000000000000000000000F0010000005820900520140516000101 00000000000000000000000000000000000000000000000000000000000000000000000000000000000000000000000000000000000000000N 00000000000NCONT   00    00000000000          00000000000000000000000000000000000000000000 000000000000000A000000000000000000000000000000000000000000000 000000000000000000000000000000000000000     00000000                                                                                                                        000000000000000000
F0010000005821000001000089010952800013050500000000000000000201405160002001IND. LITOGRAF. BOSTON S.A.S.                      D000000116070000000000000000000000100010010000000000000000000000F0010000005821000120140516000101 00000000000000000000000000000000000000000000000000000000000000000000000000000000000000000000000000000000000000000N 00000000000NCONT   00    00000000000          00000000000000000000000000000000000000000000 000000000000000A000000000000000000000000000000000000000000000 000000000000000000000000000000000000000     00000000                                                                                                                        000000000000000000
F0010000005821000002000089010952800041450500000000000000000201405160002001IND. LITOGRAF. BOSTON S.A.S.                      C000000100170000000000000000000000100010010000000000000000000000F0010000005821000220140516000101 00000000000000000000000000000000000000000000000000000000000000000000000000000000000000000000000000000000000000000N 00000000000NCONT   00    00000000000          00000000000000000000000000000000000000000000 000000000000000A000000000000000000000000000000000000000000000 000000000000000000000000000000000000000     00000000                                                                                                                        000000000000000000
F0010000005821000003000089010952800042505000000000000000000201405160002001IND. LITOGRAF. BOSTON S.A.S.                      C000000015900000000000000000000000100010010000000000000000000000F0010000005821000320140516000101 00000000000000000000000000000000000000000000000000000000000000000000000000000000000000000000000000000000000000000N 00000000000NCONT   00    00000000000          00000000000000000000000000000000000000000000 000000000000000A000000000000000000000000000000000000000000000 000000000000000000000000000000000000000     00000000                                                                                                                        000000000000000000
F0010000005821000004000089010952800023658300000000000000000201405160002001IND. LITOGRAF. BOSTON S.A.S.                      C000000000801400000000000000000000100010010000000000000000000000F0010000005821000420140516000101 00000000000000000000000000000000000000000000000000000000000000000000000000000000000000000000000000000000000000000N 00000000000NCONT   00    00000000000          00000000000000000000000000000000000000000000 000000000000000A000000000000000000000000000000000000000000000 000000000000000000000000000000000000000     00000000                                                                                                                        000000000000000000
F0010000005821000005000089010952800013552100000000000000000201405160002001IND. LITOGRAF. BOSTON S.A.S.                      D000000000801400000000000000000000100010010000000000000000000000F0010000005821000520140516000101 00000000000000000000000000000000000000000000000000000000000000000000000000000000000000000000000000000000000000000N 00000000000NCONT   00    00000000000          00000000000000000000000000000000000000000000 000000000000000A000000000000000000000000000000000000000000000 000000000000000000000000000000000000000     00000000                                                                                                                        000000000000000000
F0010000005821100001000090007142100013050500000000000000000201405160002001TODO BELLEZA Y MAX S.A.S                          D000000016120000000000000000000000100010010000000000000000000000F0010000005821100120140516000101 00000000000000000000000000000000000000000000000000000000000000000000000000000000000000000000000000000000000000000N 00000000000NCONT   00    00000000000          00000000000000000000000000000000000000000000 000000000000000A000000000000000000000000000000000000000000000 000000000000000000000000000000000000000     00000000                                                                                                                        000000000000000000
F0010000005821100002000090007142100041450500000000000000000201405160002001TODO BELLEZA Y MAX S.A.S                          C000000015120000000000000000000000100010010000000000000000000000F0010000005821100220140516000101 00000000000000000000000000000000000000000000000000000000000000000000000000000000000000000000000000000000000000000N 00000000000NCONT   00    00000000000          00000000000000000000000000000000000000000000 000000000000000A000000000000000000000000000000000000000000000 000000000000000000000000000000000000000     00000000                                                                                                                        000000000000000000
F0010000005821100003000090007142100042505000000000000000000201405160002001TODO BELLEZA Y MAX S.A.S                          C000000001000000000000000000000000100010010000000000000000000000F0010000005821100320140516000101 00000000000000000000000000000000000000000000000000000000000000000000000000000000000000000000000000000000000000000N 00000000000NCONT   00    00000000000          00000000000000000000000000000000000000000000 000000000000000A000000000000000000000000000000000000000000000 000000000000000000000000000000000000000     00000000                                                                                                                        000000000000000000
F0010000005821100004000090007142100023658300000000000000000201405160002001TODO BELLEZA Y MAX S.A.S                          C000000000121000000000000000000000100010010000000000000000000000F0010000005821100420140516000101 00000000000000000000000000000000000000000000000000000000000000000000000000000000000000000000000000000000000000000N 00000000000NCONT   00    00000000000          00000000000000000000000000000000000000000000 000000000000000A000000000000000000000000000000000000000000000 000000000000000000000000000000000000000     00000000                                                                                                                        000000000000000000
F0010000005821100005000090007142100013552100000000000000000201405160002001TODO BELLEZA Y MAX S.A.S                          D000000000121000000000000000000000100010010000000000000000000000F0010000005821100520140516000101 00000000000000000000000000000000000000000000000000000000000000000000000000000000000000000000000000000000000000000N 00000000000NCONT   00    00000000000          00000000000000000000000000000000000000000000 000000000000000A000000000000000000000000000000000000000000000 000000000000000000000000000000000000000     00000000                                                                                                                        000000000000000000
F0010000005821200001000007215896800013050500000000000000000201405160002001EDDIER CIRO                                       D000000095992500000000000000000000100010010000000000000000000000F0010000005821200120140516000101 00000000000000000000000000000000000000000000000000000000000000000000000000000000000000000000000000000000000000000N 00000000000NCONT   00    00000000000          00000000000000000000000000000000000000000000 000000000000000A000000000000000000000000000000000000000000000 000000000000000000000000000000000000000     00000000                                                                                                                        000000000000000000
F0010000005821200002000007215896800041450500000000000000000201405160002001EDDIER CIRO                                       C000000078300000000000000000000000100010010000000000000000000000F0010000005821200220140516000101 00000000000000000000000000000000000000000000000000000000000000000000000000000000000000000000000000000000000000000N 00000000000NCONT   00    00000000000          00000000000000000000000000000000000000000000 000000000000000A000000000000000000000000000000000000000000000 000000000000000000000000000000000000000     00000000                                                                                                                        000000000000000000
F0010000005821200003000007215896800042505000000000000000000201405160002001EDDIER CIRO                                       C000000017692500000000000000000000100010010000000000000000000000F0010000005821200320140516000101 00000000000000000000000000000000000000000000000000000000000000000000000000000000000000000000000000000000000000000N 00000000000NCONT   00    00000000000          00000000000000000000000000000000000000000000 000000000000000A000000000000000000000000000000000000000000000 000000000000000000000000000000000000000     00000000                                                                                                                        000000000000000000
F0010000005821200004000007215896800023658300000000000000000201405160002001EDDIER CIRO                                       C000000000626400000000000000000000100010010000000000000000000000F0010000005821200420140516000101 00000000000000000000000000000000000000000000000000000000000000000000000000000000000000000000000000000000000000000N 00000000000NCONT   00    00000000000          00000000000000000000000000000000000000000000 000000000000000A000000000000000000000000000000000000000000000 000000000000000000000000000000000000000     00000000                                                                                                                        000000000000000000
F0010000005821200005000007215896800013552100000000000000000201405160002001EDDIER CIRO                                       D000000000626400000000000000000000100010010000000000000000000000F0010000005821200520140516000101 00000000000000000000000000000000000000000000000000000000000000000000000000000000000000000000000000000000000000000N 00000000000NCONT   00    00000000000          00000000000000000000000000000000000000000000 000000000000000A000000000000000000000000000000000000000000000 000000000000000000000000000000000000000     00000000                                                                                                                        000000000000000000
F0010000005821300001000080201127600013050500000000000000000201405160002001ELECTRICOS DEL RUIZ S.A.S.                        D000000104822500000000000000000000100010010000000000000000000000F0010000005821300120140516000101 00000000000000000000000000000000000000000000000000000000000000000000000000000000000000000000000000000000000000000N 00000000000NCONT   00    00000000000          00000000000000000000000000000000000000000000 000000000000000A000000000000000000000000000000000000000000000 000000000000000000000000000000000000000     00000000                                                                                                                        000000000000000000
F0010000005821300002000080201127600041450500000000000000000201405160002001ELECTRICOS DEL RUIZ S.A.S.                        C000000062460000000000000000000000100010010000000000000000000000F0010000005821300220140516000101 00000000000000000000000000000000000000000000000000000000000000000000000000000000000000000000000000000000000000000N 00000000000NCONT   00    00000000000          00000000000000000000000000000000000000000000 000000000000000A000000000000000000000000000000000000000000000 000000000000000000000000000000000000000     00000000                                                                                                                        000000000000000000
F0010000005821300003000080201127600042505000000000000000000201405160002001ELECTRICOS DEL RUIZ S.A.S.                        C000000042362500000000000000000000100010010000000000000000000000F0010000005821300320140516000101 00000000000000000000000000000000000000000000000000000000000000000000000000000000000000000000000000000000000000000N 00000000000NCONT   00    00000000000          00000000000000000000000000000000000000000000 000000000000000A000000000000000000000000000000000000000000000 000000000000000000000000000000000000000     00000000                                                                                                                        000000000000000000
F0010000005821300004000080201127600023658300000000000000000201405160002001ELECTRICOS DEL RUIZ S.A.S.                        C000000000499700000000000000000000100010010000000000000000000000F0010000005821300420140516000101 00000000000000000000000000000000000000000000000000000000000000000000000000000000000000000000000000000000000000000N 00000000000NCONT   00    00000000000          00000000000000000000000000000000000000000000 000000000000000A000000000000000000000000000000000000000000000 000000000000000000000000000000000000000     00000000                                                                                                                        000000000000000000
F0010000005821300005000080201127600013552100000000000000000201405160002001ELECTRICOS DEL RUIZ S.A.S.                        D000000000499700000000000000000000100010010000000000000000000000F0010000005821300520140516000101 00000000000000000000000000000000000000000000000000000000000000000000000000000000000000000000000000000000000000000N 00000000000NCONT   00    00000000000          00000000000000000000000000000000000000000000 000000000000000A000000000000000000000000000000000000000000000 000000000000000000000000000000000000000     00000000                                                                                                                        000000000000000000
F0010000005821400001000007904689600013050500000000000000000201405160002001VICTOR MANUEL BOCANEGRA RAMIREZ                   D000000008000000000000000000000000100010010000000000000000000000F0010000005821400120140516000101 00000000000000000000000000000000000000000000000000000000000000000000000000000000000000000000000000000000000000000N 00000000000NCONT   00    00000000000          00000000000000000000000000000000000000000000 000000000000000A000000000000000000000000000000000000000000000 000000000000000000000000000000000000000     00000000                                                                                                                        000000000000000000
F0010000005821400002000007904689600041450500000000000000000201405160002001VICTOR MANUEL BOCANEGRA RAMIREZ                   C000000007200000000000000000000000100010010000000000000000000000F0010000005821400220140516000101 00000000000000000000000000000000000000000000000000000000000000000000000000000000000000000000000000000000000000000N 00000000000NCONT   00    00000000000          00000000000000000000000000000000000000000000 000000000000000A000000000000000000000000000000000000000000000 000000000000000000000000000000000000000     00000000                                                                                                                        000000000000000000
F0010000005821400003000007904689600042505000000000000000000201405160002001VICTOR MANUEL BOCANEGRA RAMIREZ                   C000000000800000000000000000000000100010010000000000000000000000F0010000005821400320140516000101 00000000000000000000000000000000000000000000000000000000000000000000000000000000000000000000000000000000000000000N 00000000000NCONT   00    00000000000          00000000000000000000000000000000000000000000 000000000000000A000000000000000000000000000000000000000000000 000000000000000000000000000000000000000     00000000                                                                                                                        000000000000000000
F0010000005821400004000007904689600023658300000000000000000201405160002001VICTOR MANUEL BOCANEGRA RAMIREZ                   C000000000057600000000000000000000100010010000000000000000000000F0010000005821400420140516000101 00000000000000000000000000000000000000000000000000000000000000000000000000000000000000000000000000000000000000000N 00000000000NCONT   00    00000000000          00000000000000000000000000000000000000000000 000000000000000A000000000000000000000000000000000000000000000 000000000000000000000000000000000000000     00000000                                                                                                                        000000000000000000
F0010000005821400005000007904689600013552100000000000000000201405160002001VICTOR MANUEL BOCANEGRA RAMIREZ                   D000000000057600000000000000000000100010010000000000000000000000F0010000005821400520140516000101 00000000000000000000000000000000000000000000000000000000000000000000000000000000000000000000000000000000000000000N 00000000000NCONT   00    00000000000          00000000000000000000000000000000000000000000 000000000000000A000000000000000000000000000000000000000000000 000000000000000000000000000000000000000     00000000                                                                                                                        000000000000000000
F0010000005821500001000090031601300013050500000000000000000201405160002001COMPAIA QUIMICA S.A.S.                          D000000005000000000000000000000000100010010000000000000000000000F0010000005821500120140516000101 00000000000000000000000000000000000000000000000000000000000000000000000000000000000000000000000000000000000000000N 00000000000NCONT   00    00000000000          00000000000000000000000000000000000000000000 000000000000000A000000000000000000000000000000000000000000000 000000000000000000000000000000000000000     00000000                                                                                                                        000000000000000000
F0010000005821500002000090031601300041450500000000000000000201405160002001COMPAIA QUIMICA S.A.S.                          C000000004800000000000000000000000100010010000000000000000000000F0010000005821500220140516000101 00000000000000000000000000000000000000000000000000000000000000000000000000000000000000000000000000000000000000000N 00000000000NCONT   00    00000000000          00000000000000000000000000000000000000000000 000000000000000A000000000000000000000000000000000000000000000 000000000000000000000000000000000000000     00000000                                                                                                                        000000000000000000
F0010000005821500003000090031601300042505000000000000000000201405160002001COMPAIA QUIMICA S.A.S.                          C000000000200000000000000000000000100010010000000000000000000000F0010000005821500320140516000101 00000000000000000000000000000000000000000000000000000000000000000000000000000000000000000000000000000000000000000N 00000000000NCONT   00    00000000000          00000000000000000000000000000000000000000000 000000000000000A000000000000000000000000000000000000000000000 000000000000000000000000000000000000000     00000000                                                                                                                        000000000000000000
F0010000005821500004000090031601300023658300000000000000000201405160002001COMPAIA QUIMICA S.A.S.                          C000000000038400000000000000000000100010010000000000000000000000F0010000005821500420140516000101 00000000000000000000000000000000000000000000000000000000000000000000000000000000000000000000000000000000000000000N 00000000000NCONT   00    00000000000          00000000000000000000000000000000000000000000 000000000000000A000000000000000000000000000000000000000000000 000000000000000000000000000000000000000     00000000                                                                                                                        000000000000000000
F0010000005821500005000090031601300013552100000000000000000201405160002001COMPAIA QUIMICA S.A.S.                          D000000000038400000000000000000000100010010000000000000000000000F0010000005821500520140516000101 00000000000000000000000000000000000000000000000000000000000000000000000000000000000000000000000000000000000000000N 00000000000NCONT   00    00000000000          00000000000000000000000000000000000000000000 000000000000000A000000000000000000000000000000000000000000000 000000000000000000000000000000000000000     00000000                                                                                                                        000000000000000000
F0010000005821600001000086003979400013050500000000000000000201405160002001CALYPSO BARRANQUILLA LTDA                         D000000128477500000000000000000000100010010000000000000000000000F0010000005821600120140516000101 00000000000000000000000000000000000000000000000000000000000000000000000000000000000000000000000000000000000000000N 00000000000NCONT   00    00000000000          00000000000000000000000000000000000000000000 000000000000000A000000000000000000000000000000000000000000000 000000000000000000000000000000000000000     00000000                                                                                                                        000000000000000000
F0010000005821600002000086003979400041450500000000000000000201405160002001CALYPSO BARRANQUILLA LTDA                         C000000123470000000000000000000000100010010000000000000000000000F0010000005821600220140516000101 00000000000000000000000000000000000000000000000000000000000000000000000000000000000000000000000000000000000000000N 00000000000NCONT   00    00000000000          00000000000000000000000000000000000000000000 000000000000000A000000000000000000000000000000000000000000000 000000000000000000000000000000000000000     00000000                                                                                                                        000000000000000000
