F0010000009708700001000089080078800013050500000000000000000201701260002001SUMATEC SA                                        D000000016793400000000000000000000100010010000000000000000000000F0010000009708700120170126000101 00000000000000000000000000000000000000000000000000000000000000000000000000000000000000000000000000000000000000000N 00000000000NCONT   00    00000000000          00000000000000000000000000000000000000000000 000000000000000A000000000000000000000000000000000000000000000 000000000000000000000000000000000000000     00000000                                                                                                                        000000000000000000
F0010000009708700002000089080078800041450500000000000000000201701260002001SUMATEC SA                                        C000000015180000000000000000000000100010010000000000000000000000F0010000009708700220170126000101 00000000000000000000000000000000000000000000000000000000000000000000000000000000000000000000000000000000000000000N 00000000000NCONT   00    00000000000          00000000000000000000000000000000000000000000 000000000000000A000000000000000000000000000000000000000000000 000000000000000000000000000000000000000     00000000                                                                                                                        000000000000000000
F0010000009708700003000089080078800042505000000000000000000201701260002001SUMATEC SA                                        C000000001613400000000000000000000100010010000000000000000000000F0010000009708700320170126000101 00000000000000000000000000000000000000000000000000000000000000000000000000000000000000000000000000000000000000000N 00000000000NCONT   00    00000000000          00000000000000000000000000000000000000000000 000000000000000A000000000000000000000000000000000000000000000 000000000000000000000000000000000000000     00000000                                                                                                                        000000000000000000
F0010000009708700004000089080078800023658300000000000000000201701260002001SUMATEC SA                                        C000000000121400000000000000000000100010010000000000000000000000F0010000009708700420170126000101 00000000000000000000000000000000000000000000000000000000000000000000000000000000000000000000000000000000000000000N 00000000000NCONT   00    00000000000          00000000000000000000000000000000000000000000 000000000000000A000000000000000000000000000000000000000000000 000000000000000000000000000000000000000     00000000                                                                                                                        000000000000000000
F0010000009708700005000089080078800013552100000000000000000201701260002001SUMATEC SA                                        D000000000121400000000000000000000100010010000000000000000000000F0010000009708700520170126000101 00000000000000000000000000000000000000000000000000000000000000000000000000000000000000000000000000000000000000000N 00000000000NCONT   00    00000000000          00000000000000000000000000000000000000000000 000000000000000A000000000000000000000000000000000000000000000 000000000000000000000000000000000000000     00000000                                                                                                                        000000000000000000
F0010000009708800001000090090986500011050500000000000000000201701260002001IMPERACABADOS DEL CARIBE                          D000000001100000000000000000000000100010010000000000000000000000F0010000009708800120170126000101 00000000000000000000000000000000000000000000000000000000000000000000000000000000000000000000000000000000000000000N 00000000000NCONT   00    00000000000          00000000000000000000000000000000000000000000 000000000000000A000000000000000000000000000000000000000000000 000000000000000000000000000000000000000     00000000                                                                                                                        000000000000000000
F0010000009708800002000090090986500041450500000000000000000201701260002001IMPERACABADOS DEL CARIBE                          C000000001000000000000000000000000100010010000000000000000000000F0010000009708800220170126000101 00000000000000000000000000000000000000000000000000000000000000000000000000000000000000000000000000000000000000000N 00000000000NCONT   00    00000000000          00000000000000000000000000000000000000000000 000000000000000A000000000000000000000000000000000000000000000 000000000000000000000000000000000000000     00000000                                                                                                                        000000000000000000
F0010000009708800003000090090986500042505000000000000000000201701260002001IMPERACABADOS DEL CARIBE                          C000000000100000000000000000000000100010010000000000000000000000F0010000009708800320170126000101 00000000000000000000000000000000000000000000000000000000000000000000000000000000000000000000000000000000000000000N 00000000000NCONT   00    00000000000          00000000000000000000000000000000000000000000 000000000000000A000000000000000000000000000000000000000000000 000000000000000000000000000000000000000     00000000                                                                                                                        000000000000000000
F0010000009708800004000090090986500023658300000000000000000201701260002001IMPERACABADOS DEL CARIBE                          C000000000008000000000000000000000100010010000000000000000000000F0010000009708800420170126000101 00000000000000000000000000000000000000000000000000000000000000000000000000000000000000000000000000000000000000000N 00000000000NCONT   00    00000000000          00000000000000000000000000000000000000000000 000000000000000A000000000000000000000000000000000000000000000 000000000000000000000000000000000000000     00000000                                                                                                                        000000000000000000
F0010000009708800005000090090986500013552100000000000000000201701260002001IMPERACABADOS DEL CARIBE                          D000000000008000000000000000000000100010010000000000000000000000F0010000009708800520170126000101 00000000000000000000000000000000000000000000000000000000000000000000000000000000000000000000000000000000000000000N 00000000000NCONT   00    00000000000          00000000000000000000000000000000000000000000 000000000000000A000000000000000000000000000000000000000000000 000000000000000000000000000000000000000     00000000                                                                                                                        000000000000000000
F0010000009708900001000002245670100011050500000000000000000201701260002001YOLANDA  TOBON                                    D000000008000000000000000000000000100010010000000000000000000000F0010000009708900120170126000101 00000000000000000000000000000000000000000000000000000000000000000000000000000000000000000000000000000000000000000N 00000000000NCONT   00    00000000000          00000000000000000000000000000000000000000000 000000000000000A000000000000000000000000000000000000000000000 000000000000000000000000000000000000000     00000000                                                                                                                        000000000000000000
F0010000009708900002000002245670100041450500000000000000000201701260002001YOLANDA  TOBON                                    C000000006500000000000000000000000100010010000000000000000000000F0010000009708900220170126000101 00000000000000000000000000000000000000000000000000000000000000000000000000000000000000000000000000000000000000000N 00000000000NCONT   00    00000000000          00000000000000000000000000000000000000000000 000000000000000A000000000000000000000000000000000000000000000 000000000000000000000000000000000000000     00000000                                                                                                                        000000000000000000
F0010000009708900003000002245670100042505000000000000000000201701260002001YOLANDA  TOBON                                    C000000001500000000000000000000000100010010000000000000000000000F0010000009708900320170126000101 00000000000000000000000000000000000000000000000000000000000000000000000000000000000000000000000000000000000000000N 00000000000NCONT   00    00000000000          00000000000000000000000000000000000000000000 000000000000000A000000000000000000000000000000000000000000000 000000000000000000000000000000000000000     00000000                                                                                                                        000000000000000000
F0010000009708900004000002245670100023658300000000000000000201701260002001YOLANDA  TOBON                                    C000000000052000000000000000000000100010010000000000000000000000F0010000009708900420170126000101 00000000000000000000000000000000000000000000000000000000000000000000000000000000000000000000000000000000000000000N 00000000000NCONT   00    00000000000          00000000000000000000000000000000000000000000 000000000000000A000000000000000000000000000000000000000000000 000000000000000000000000000000000000000     00000000                                                                                                                        000000000000000000
F0010000009708900005000002245670100013552100000000000000000201701260002001YOLANDA  TOBON                                    D000000000052000000000000000000000100010010000000000000000000000F0010000009708900520170126000101 00000000000000000000000000000000000000000000000000000000000000000000000000000000000000000000000000000000000000000N 00000000000NCONT   00    00000000000          00000000000000000000000000000000000000000000 000000000000000A000000000000000000000000000000000000000000000 000000000000000000000000000000000000000     00000000                                                                                                                        000000000000000000
F0010000009709000001000007213653800011050500000000000000000201701260002001VICTOR ECHAVEZ                                    D000000003400000000000000000000000100010010000000000000000000000F0010000009709000120170126000101 00000000000000000000000000000000000000000000000000000000000000000000000000000000000000000000000000000000000000000N 00000000000NCONT   00    00000000000          00000000000000000000000000000000000000000000 000000000000000A000000000000000000000000000000000000000000000 000000000000000000000000000000000000000     00000000                                                                                                                        000000000000000000
F0010000009709000002000007213653800041450500000000000000000201701260002001VICTOR ECHAVEZ                                    C000000002400000000000000000000000100010010000000000000000000000F0010000009709000220170126000101 00000000000000000000000000000000000000000000000000000000000000000000000000000000000000000000000000000000000000000N 00000000000NCONT   00    00000000000          00000000000000000000000000000000000000000000 000000000000000A000000000000000000000000000000000000000000000 000000000000000000000000000000000000000     00000000                                                                                                                        000000000000000000
F0010000009709000003000007213653800042505000000000000000000201701260002001VICTOR ECHAVEZ                                    C000000001000000000000000000000000100010010000000000000000000000F0010000009709000320170126000101 00000000000000000000000000000000000000000000000000000000000000000000000000000000000000000000000000000000000000000N 00000000000NCONT   00    00000000000          00000000000000000000000000000000000000000000 000000000000000A000000000000000000000000000000000000000000000 000000000000000000000000000000000000000     00000000                                                                                                                        000000000000000000
F0010000009709000004000007213653800023658300000000000000000201701260002001VICTOR ECHAVEZ                                    C000000000019200000000000000000000100010010000000000000000000000F0010000009709000420170126000101 00000000000000000000000000000000000000000000000000000000000000000000000000000000000000000000000000000000000000000N 00000000000NCONT   00    00000000000          00000000000000000000000000000000000000000000 000000000000000A000000000000000000000000000000000000000000000 000000000000000000000000000000000000000     00000000                                                                                                                        000000000000000000
F0010000009709000005000007213653800013552100000000000000000201701260002001VICTOR ECHAVEZ                                    D000000000019200000000000000000000100010010000000000000000000000F0010000009709000520170126000101 00000000000000000000000000000000000000000000000000000000000000000000000000000000000000000000000000000000000000000N 00000000000NCONT   00    00000000000          00000000000000000000000000000000000000000000 000000000000000A000000000000000000000000000000000000000000000 000000000000000000000000000000000000000     00000000                                                                                                                        000000000000000000
F0010000009709100001000007213653800011050500000000000000000201701260002001VICTOR ECHAVEZ                                    D000000009100000000000000000000000100010010000000000000000000000F0010000009709100120170126000101 00000000000000000000000000000000000000000000000000000000000000000000000000000000000000000000000000000000000000000N 00000000000NCONT   00    00000000000          00000000000000000000000000000000000000000000 000000000000000A000000000000000000000000000000000000000000000 000000000000000000000000000000000000000     00000000                                                                                                                        000000000000000000
F0010000009709100002000007213653800041450500000000000000000201701260002001VICTOR ECHAVEZ                                    C000000007000000000000000000000000100010010000000000000000000000F0010000009709100220170126000101 00000000000000000000000000000000000000000000000000000000000000000000000000000000000000000000000000000000000000000N 00000000000NCONT   00    00000000000          00000000000000000000000000000000000000000000 000000000000000A000000000000000000000000000000000000000000000 000000000000000000000000000000000000000     00000000                                                                                                                        000000000000000000
F0010000009709100003000007213653800042505000000000000000000201701260002001VICTOR ECHAVEZ                                    C000000002100000000000000000000000100010010000000000000000000000F0010000009709100320170126000101 00000000000000000000000000000000000000000000000000000000000000000000000000000000000000000000000000000000000000000N 00000000000NCONT   00    00000000000          00000000000000000000000000000000000000000000 000000000000000A000000000000000000000000000000000000000000000 000000000000000000000000000000000000000     00000000                                                                                                                        000000000000000000
F0010000009709100004000007213653800023658300000000000000000201701260002001VICTOR ECHAVEZ                                    C000000000056000000000000000000000100010010000000000000000000000F0010000009709100420170126000101 00000000000000000000000000000000000000000000000000000000000000000000000000000000000000000000000000000000000000000N 00000000000NCONT   00    00000000000          00000000000000000000000000000000000000000000 000000000000000A000000000000000000000000000000000000000000000 000000000000000000000000000000000000000     00000000                                                                                                                        000000000000000000
F0010000009709100005000007213653800013552100000000000000000201701260002001VICTOR ECHAVEZ                                    D000000000056000000000000000000000100010010000000000000000000000F0010000009709100520170126000101 00000000000000000000000000000000000000000000000000000000000000000000000000000000000000000000000000000000000000000N 00000000000NCONT   00    00000000000          00000000000000000000000000000000000000000000 000000000000000A000000000000000000000000000000000000000000000 000000000000000000000000000000000000000     00000000                                                                                                                        000000000000000000
F0010000009709200001000007213653800011050500000000000000000201701260002001VICTOR ECHAVEZ                                    D000000006300000000000000000000000100010010000000000000000000000F0010000009709200120170126000101 00000000000000000000000000000000000000000000000000000000000000000000000000000000000000000000000000000000000000000N 00000000000NCONT   00    00000000000          00000000000000000000000000000000000000000000 000000000000000A000000000000000000000000000000000000000000000 000000000000000000000000000000000000000     00000000                                                                                                                        000000000000000000
F0010000009709200002000007213653800041450500000000000000000201701260002001VICTOR ECHAVEZ                                    C000000004800000000000000000000000100010010000000000000000000000F0010000009709200220170126000101 00000000000000000000000000000000000000000000000000000000000000000000000000000000000000000000000000000000000000000N 00000000000NCONT   00    00000000000          00000000000000000000000000000000000000000000 000000000000000A000000000000000000000000000000000000000000000 000000000000000000000000000000000000000     00000000                                                                                                                        000000000000000000
F0010000009709200003000007213653800042505000000000000000000201701260002001VICTOR ECHAVEZ                                    C000000001500000000000000000000000100010010000000000000000000000F0010000009709200320170126000101 00000000000000000000000000000000000000000000000000000000000000000000000000000000000000000000000000000000000000000N 00000000000NCONT   00    00000000000          00000000000000000000000000000000000000000000 000000000000000A000000000000000000000000000000000000000000000 000000000000000000000000000000000000000     00000000                                                                                                                        000000000000000000
F0010000009709200004000007213653800023658300000000000000000201701260002001VICTOR ECHAVEZ                                    C000000000038400000000000000000000100010010000000000000000000000F0010000009709200420170126000101 00000000000000000000000000000000000000000000000000000000000000000000000000000000000000000000000000000000000000000N 00000000000NCONT   00    00000000000          00000000000000000000000000000000000000000000 000000000000000A000000000000000000000000000000000000000000000 000000000000000000000000000000000000000     00000000                                                                                                                        000000000000000000
F0010000009709200005000007213653800013552100000000000000000201701260002001VICTOR ECHAVEZ                                    D000000000038400000000000000000000100010010000000000000000000000F0010000009709200520170126000101 00000000000000000000000000000000000000000000000000000000000000000000000000000000000000000000000000000000000000000N 00000000000NCONT   00    00000000000          00000000000000000000000000000000000000000000 000000000000000A000000000000000000000000000000000000000000000 000000000000000000000000000000000000000     00000000                                                                                                                        000000000000000000
F0010000009709300001000007213653800011050500000000000000000201701260002001VICTOR ECHAVEZ                                    D000000003200000000000000000000000100010010000000000000000000000F0010000009709300120170126000101 00000000000000000000000000000000000000000000000000000000000000000000000000000000000000000000000000000000000000000N 00000000000NCONT   00    00000000000          00000000000000000000000000000000000000000000 000000000000000A000000000000000000000000000000000000000000000 000000000000000000000000000000000000000     00000000                                                                                                                        000000000000000000
F0010000009709300002000007213653800041450500000000000000000201701260002001VICTOR ECHAVEZ                                    C000000002400000000000000000000000100010010000000000000000000000F0010000009709300220170126000101 00000000000000000000000000000000000000000000000000000000000000000000000000000000000000000000000000000000000000000N 00000000000NCONT   00    00000000000          00000000000000000000000000000000000000000000 000000000000000A000000000000000000000000000000000000000000000 000000000000000000000000000000000000000     00000000                                                                                                                        000000000000000000
F0010000009709300003000007213653800042505000000000000000000201701260002001VICTOR ECHAVEZ                                    C000000000800000000000000000000000100010010000000000000000000000F0010000009709300320170126000101 00000000000000000000000000000000000000000000000000000000000000000000000000000000000000000000000000000000000000000N 00000000000NCONT   00    00000000000          00000000000000000000000000000000000000000000 000000000000000A000000000000000000000000000000000000000000000 000000000000000000000000000000000000000     00000000                                                                                                                        000000000000000000
F0010000009709300004000007213653800023658300000000000000000201701260002001VICTOR ECHAVEZ                                    C000000000019200000000000000000000100010010000000000000000000000F0010000009709300420170126000101 00000000000000000000000000000000000000000000000000000000000000000000000000000000000000000000000000000000000000000N 00000000000NCONT   00    00000000000          00000000000000000000000000000000000000000000 000000000000000A000000000000000000000000000000000000000000000 000000000000000000000000000000000000000     00000000                                                                                                                        000000000000000000
F0010000009709300005000007213653800013552100000000000000000201701260002001VICTOR ECHAVEZ                                    D000000000019200000000000000000000100010010000000000000000000000F0010000009709300520170126000101 00000000000000000000000000000000000000000000000000000000000000000000000000000000000000000000000000000000000000000N 00000000000NCONT   00    00000000000          00000000000000000000000000000000000000000000 000000000000000A000000000000000000000000000000000000000000000 000000000000000000000000000000000000000     00000000                                                                                                                        000000000000000000
F0010000009709400001000003319910700011050500000000000000000201701260002001LUZ DARY JIMENEZ MARTINEZ                         D000000001100000000000000000000000100010010000000000000000000000F0010000009709400120170126000101 00000000000000000000000000000000000000000000000000000000000000000000000000000000000000000000000000000000000000000N 00000000000NCONT   00    00000000000          00000000000000000000000000000000000000000000 000000000000000A000000000000000000000000000000000000000000000 000000000000000000000000000000000000000     00000000                                                                                                                        000000000000000000
F0010000009709400002000003319910700041450500000000000000000201701260002001LUZ DARY JIMENEZ MARTINEZ                         C000000001000000000000000000000000100010010000000000000000000000F0010000009709400220170126000101 00000000000000000000000000000000000000000000000000000000000000000000000000000000000000000000000000000000000000000N 00000000000NCONT   00    00000000000          00000000000000000000000000000000000000000000 000000000000000A000000000000000000000000000000000000000000000 000000000000000000000000000000000000000     00000000                                                                                                                        000000000000000000
F0010000009709400003000003319910700042505000000000000000000201701260002001LUZ DARY JIMENEZ MARTINEZ                         C000000000100000000000000000000000100010010000000000000000000000F0010000009709400320170126000101 00000000000000000000000000000000000000000000000000000000000000000000000000000000000000000000000000000000000000000N 00000000000NCONT   00    00000000000          00000000000000000000000000000000000000000000 000000000000000A000000000000000000000000000000000000000000000 000000000000000000000000000000000000000     00000000                                                                                                                        000000000000000000
F0010000009709400004000003319910700023658300000000000000000201701260002001LUZ DARY JIMENEZ MARTINEZ                         C000000000008000000000000000000000100010010000000000000000000000F0010000009709400420170126000101 00000000000000000000000000000000000000000000000000000000000000000000000000000000000000000000000000000000000000000N 00000000000NCONT   00    00000000000          00000000000000000000000000000000000000000000 000000000000000A000000000000000000000000000000000000000000000 000000000000000000000000000000000000000     00000000                                                                                                                        000000000000000000
F0010000009709400005000003319910700013552100000000000000000201701260002001LUZ DARY JIMENEZ MARTINEZ                         D000000000008000000000000000000000100010010000000000000000000000F0010000009709400520170126000101 00000000000000000000000000000000000000000000000000000000000000000000000000000000000000000000000000000000000000000N 00000000000NCONT   00    00000000000          00000000000000000000000000000000000000000000 000000000000000A000000000000000000000000000000000000000000000 000000000000000000000000000000000000000     00000000                                                                                                                        000000000000000000
F0010000009709500001000090051494400011050500000000000000000201701260002001MUNDINOX SAS                                      D000000002300000000000000000000000100010010000000000000000000000F0010000009709500120170126000101 00000000000000000000000000000000000000000000000000000000000000000000000000000000000000000000000000000000000000000N 00000000000NCONT   00    00000000000          00000000000000000000000000000000000000000000 000000000000000A000000000000000000000000000000000000000000000 000000000000000000000000000000000000000     00000000                                                                                                                        000000000000000000
F0010000009709500002000090051494400041450500000000000000000201701260002001MUNDINOX SAS                                      C000000001800000000000000000000000100010010000000000000000000000F0010000009709500220170126000101 00000000000000000000000000000000000000000000000000000000000000000000000000000000000000000000000000000000000000000N 00000000000NCONT   00    00000000000          00000000000000000000000000000000000000000000 000000000000000A000000000000000000000000000000000000000000000 000000000000000000000000000000000000000     00000000                                                                                                                        000000000000000000
F0010000009709500003000090051494400042505000000000000000000201701260002001MUNDINOX SAS                                      C000000000500000000000000000000000100010010000000000000000000000F0010000009709500320170126000101 00000000000000000000000000000000000000000000000000000000000000000000000000000000000000000000000000000000000000000N 00000000000NCONT   00    00000000000          00000000000000000000000000000000000000000000 000000000000000A000000000000000000000000000000000000000000000 000000000000000000000000000000000000000     00000000                                                                                                                        000000000000000000
F0010000009709500004000090051494400023658300000000000000000201701260002001MUNDINOX SAS                                      C000000000014400000000000000000000100010010000000000000000000000F0010000009709500420170126000101 00000000000000000000000000000000000000000000000000000000000000000000000000000000000000000000000000000000000000000N 00000000000NCONT   00    00000000000          00000000000000000000000000000000000000000000 000000000000000A000000000000000000000000000000000000000000000 000000000000000000000000000000000000000     00000000                                                                                                                        000000000000000000
F0010000009709500005000090051494400013552100000000000000000201701260002001MUNDINOX SAS                                      D000000000014400000000000000000000100010010000000000000000000000F0010000009709500520170126000101 00000000000000000000000000000000000000000000000000000000000000000000000000000000000000000000000000000000000000000N 00000000000NCONT   00    00000000000          00000000000000000000000000000000000000000000 000000000000000A000000000000000000000000000000000000000000000 000000000000000000000000000000000000000     00000000                                                                                                                        000000000000000000
F0010000009709600001000009120302700011050500000000000000000201701260002001CALZADO REY ESTEBAN                               D000000001800000000000000000000000100010010000000000000000000000F0010000009709600120170126000101 00000000000000000000000000000000000000000000000000000000000000000000000000000000000000000000000000000000000000000N 00000000000NCONT   00    00000000000          00000000000000000000000000000000000000000000 000000000000000A000000000000000000000000000000000000000000000 000000000000000000000000000000000000000     00000000                                                                                                                        000000000000000000
F0010000009709600002000009120302700041450500000000000000000201701260002001CALZADO REY ESTEBAN                               C000000001000000000000000000000000100010010000000000000000000000F0010000009709600220170126000101 00000000000000000000000000000000000000000000000000000000000000000000000000000000000000000000000000000000000000000N 00000000000NCONT   00    00000000000          00000000000000000000000000000000000000000000 000000000000000A000000000000000000000000000000000000000000000 000000000000000000000000000000000000000     00000000                                                                                                                        000000000000000000
F0010000009709600003000009120302700042505000000000000000000201701260002001CALZADO REY ESTEBAN                               C000000000800000000000000000000000100010010000000000000000000000F0010000009709600320170126000101 00000000000000000000000000000000000000000000000000000000000000000000000000000000000000000000000000000000000000000N 00000000000NCONT   00    00000000000          00000000000000000000000000000000000000000000 000000000000000A000000000000000000000000000000000000000000000 000000000000000000000000000000000000000     00000000                                                                                                                        000000000000000000
F0010000009709600004000009120302700023658300000000000000000201701260002001CALZADO REY ESTEBAN                               C000000000008000000000000000000000100010010000000000000000000000F0010000009709600420170126000101 00000000000000000000000000000000000000000000000000000000000000000000000000000000000000000000000000000000000000000N 00000000000NCONT   00    00000000000          00000000000000000000000000000000000000000000 000000000000000A000000000000000000000000000000000000000000000 000000000000000000000000000000000000000     00000000                                                                                                                        000000000000000000
F0010000009709600005000009120302700013552100000000000000000201701260002001CALZADO REY ESTEBAN                               D000000000008000000000000000000000100010010000000000000000000000F0010000009709600520170126000101 00000000000000000000000000000000000000000000000000000000000000000000000000000000000000000000000000000000000000000N 00000000000NCONT   00    00000000000          00000000000000000000000000000000000000000000 000000000000000A000000000000000000000000000000000000000000000 000000000000000000000000000000000000000     00000000                                                                                                                        000000000000000000
F0010000009709700001000001719393900011050500000000000000000201701260002001JAIRO BASTIDAS RAMIREZ                            D000000002700000000000000000000000100010010000000000000000000000F0010000009709700120170126000101 00000000000000000000000000000000000000000000000000000000000000000000000000000000000000000000000000000000000000000N 00000000000NCONT   00    00000000000          00000000000000000000000000000000000000000000 000000000000000A000000000000000000000000000000000000000000000 000000000000000000000000000000000000000     00000000                                                                                                                        000000000000000000
F0010000009709700002000001719393900041450500000000000000000201701260002001JAIRO BASTIDAS RAMIREZ                            C000000002400000000000000000000000100010010000000000000000000000F0010000009709700220170126000101 00000000000000000000000000000000000000000000000000000000000000000000000000000000000000000000000000000000000000000N 00000000000NCONT   00    00000000000          00000000000000000000000000000000000000000000 000000000000000A000000000000000000000000000000000000000000000 000000000000000000000000000000000000000     00000000                                                                                                                        000000000000000000
F0010000009709700003000001719393900042505000000000000000000201701260002001JAIRO BASTIDAS RAMIREZ                            C000000000300000000000000000000000100010010000000000000000000000F0010000009709700320170126000101 00000000000000000000000000000000000000000000000000000000000000000000000000000000000000000000000000000000000000000N 00000000000NCONT   00    00000000000          00000000000000000000000000000000000000000000 000000000000000A000000000000000000000000000000000000000000000 000000000000000000000000000000000000000     00000000                                                                                                                        000000000000000000
F0010000009709700004000001719393900023658300000000000000000201701260002001JAIRO BASTIDAS RAMIREZ                            C000000000019200000000000000000000100010010000000000000000000000F0010000009709700420170126000101 00000000000000000000000000000000000000000000000000000000000000000000000000000000000000000000000000000000000000000N 00000000000NCONT   00    00000000000          00000000000000000000000000000000000000000000 000000000000000A000000000000000000000000000000000000000000000 000000000000000000000000000000000000000     00000000                                                                                                                        000000000000000000
F0010000009709700005000001719393900013552100000000000000000201701260002001JAIRO BASTIDAS RAMIREZ                            D000000000019200000000000000000000100010010000000000000000000000F0010000009709700520170126000101 00000000000000000000000000000000000000000000000000000000000000000000000000000000000000000000000000000000000000000N 00000000000NCONT   00    00000000000          00000000000000000000000000000000000000000000 000000000000000A000000000000000000000000000000000000000000000 000000000000000000000000000000000000000     00000000                                                                                                                        000000000000000000
F0010000009709800001000009120302700011050500000000000000000201701260002001CALZADO REY ESTEBAN                               D000000001300000000000000000000000100010010000000000000000000000F0010000009709800120170126000101 00000000000000000000000000000000000000000000000000000000000000000000000000000000000000000000000000000000000000000N 00000000000NCONT   00    00000000000          00000000000000000000000000000000000000000000 000000000000000A000000000000000000000000000000000000000000000 000000000000000000000000000000000000000     00000000                                                                                                                        000000000000000000
F0010000009709800002000009120302700041450500000000000000000201701260002001CALZADO REY ESTEBAN                               C000000001000000000000000000000000100010010000000000000000000000F0010000009709800220170126000101 00000000000000000000000000000000000000000000000000000000000000000000000000000000000000000000000000000000000000000N 00000000000NCONT   00    00000000000          00000000000000000000000000000000000000000000 000000000000000A000000000000000000000000000000000000000000000 000000000000000000000000000000000000000     00000000                                                                                                                        000000000000000000
F0010000009709800003000009120302700042505000000000000000000201701260002001CALZADO REY ESTEBAN                               C000000000300000000000000000000000100010010000000000000000000000F0010000009709800320170126000101 00000000000000000000000000000000000000000000000000000000000000000000000000000000000000000000000000000000000000000N 00000000000NCONT   00    00000000000          00000000000000000000000000000000000000000000 000000000000000A000000000000000000000000000000000000000000000 000000000000000000000000000000000000000     00000000                                                                                                                        000000000000000000
F0010000009709800004000009120302700023658300000000000000000201701260002001CALZADO REY ESTEBAN                               C000000000008000000000000000000000100010010000000000000000000000F0010000009709800420170126000101 00000000000000000000000000000000000000000000000000000000000000000000000000000000000000000000000000000000000000000N 00000000000NCONT   00    00000000000          00000000000000000000000000000000000000000000 000000000000000A000000000000000000000000000000000000000000000 000000000000000000000000000000000000000     00000000                                                                                                                        000000000000000000
F0010000009709800005000009120302700013552100000000000000000201701260002001CALZADO REY ESTEBAN                               D000000000008000000000000000000000100010010000000000000000000000F0010000009709800520170126000101 00000000000000000000000000000000000000000000000000000000000000000000000000000000000000000000000000000000000000000N 00000000000NCONT   00    00000000000          00000000000000000000000000000000000000000000 000000000000000A000000000000000000000000000000000000000000000 000000000000000000000000000000000000000     00000000                                                                                                                        000000000000000000
F0010000009709900001000000866531000011050500000000000000000201701260002001CLAUDIO RAFAEL DE JESUS LLINAS MOLINA             D000000003500000000000000000000000100010010000000000000000000000F0010000009709900120170126000101 00000000000000000000000000000000000000000000000000000000000000000000000000000000000000000000000000000000000000000N 00000000000NCONT   00    00000000000          00000000000000000000000000000000000000000000 000000000000000A000000000000000000000000000000000000000000000 000000000000000000000000000000000000000     00000000                                                                                                                        000000000000000000
F0010000009709900002000000866531000041450500000000000000000201701260002001CLAUDIO RAFAEL DE JESUS LLINAS MOLINA             C000000003000000000000000000000000100010010000000000000000000000F0010000009709900220170126000101 00000000000000000000000000000000000000000000000000000000000000000000000000000000000000000000000000000000000000000N 00000000000NCONT   00    00000000000          00000000000000000000000000000000000000000000 000000000000000A000000000000000000000000000000000000000000000 000000000000000000000000000000000000000     00000000                                                                                                                        000000000000000000
F0010000009709900003000000866531000042505000000000000000000201701260002001CLAUDIO RAFAEL DE JESUS LLINAS MOLINA             C000000000500000000000000000000000100010010000000000000000000000F0010000009709900320170126000101 00000000000000000000000000000000000000000000000000000000000000000000000000000000000000000000000000000000000000000N 00000000000NCONT   00    00000000000          00000000000000000000000000000000000000000000 000000000000000A000000000000000000000000000000000000000000000 000000000000000000000000000000000000000     00000000                                                                                                                        000000000000000000
F0010000009709900004000000866531000023658300000000000000000201701260002001CLAUDIO RAFAEL DE JESUS LLINAS MOLINA             C000000000024000000000000000000000100010010000000000000000000000F0010000009709900420170126000101 00000000000000000000000000000000000000000000000000000000000000000000000000000000000000000000000000000000000000000N 00000000000NCONT   00    00000000000          00000000000000000000000000000000000000000000 000000000000000A000000000000000000000000000000000000000000000 000000000000000000000000000000000000000     00000000                                                                                                                        000000000000000000
F0010000009709900005000000866531000013552100000000000000000201701260002001CLAUDIO RAFAEL DE JESUS LLINAS MOLINA             D000000000024000000000000000000000100010010000000000000000000000F0010000009709900520170126000101 00000000000000000000000000000000000000000000000000000000000000000000000000000000000000000000000000000000000000000N 00000000000NCONT   00    00000000000          00000000000000000000000000000000000000000000 000000000000000A000000000000000000000000000000000000000000000 000000000000000000000000000000000000000     00000000                                                                                                                        000000000000000000
F0010000009710000001000083008772100011050500000000000000000201701260002001ILUMEC SAS                                        D000000001255000000000000000000000100010010000000000000000000000F0010000009710000120170126000101 00000000000000000000000000000000000000000000000000000000000000000000000000000000000000000000000000000000000000000N 00000000000NCONT   00    00000000000          00000000000000000000000000000000000000000000 000000000000000A000000000000000000000000000000000000000000000 000000000000000000000000000000000000000     00000000                                                                                                                        000000000000000000
F0010000009710000002000083008772100041450500000000000000000201701260002001ILUMEC SAS                                        C000000000880000000000000000000000100010010000000000000000000000F0010000009710000220170126000101 00000000000000000000000000000000000000000000000000000000000000000000000000000000000000000000000000000000000000000N 00000000000NCONT   00    00000000000          00000000000000000000000000000000000000000000 000000000000000A000000000000000000000000000000000000000000000 000000000000000000000000000000000000000     00000000                                                                                                                        000000000000000000
F0010000009710000003000083008772100042505000000000000000000201701260002001ILUMEC SAS                                        C000000000375000000000000000000000100010010000000000000000000000F0010000009710000320170126000101 00000000000000000000000000000000000000000000000000000000000000000000000000000000000000000000000000000000000000000N 00000000000NCONT   00    00000000000          00000000000000000000000000000000000000000000 000000000000000A000000000000000000000000000000000000000000000 000000000000000000000000000000000000000     00000000                                                                                                                        000000000000000000
F0010000009710000004000083008772100023658300000000000000000201701260002001ILUMEC SAS                                        C000000000007000000000000000000000100010010000000000000000000000F0010000009710000420170126000101 00000000000000000000000000000000000000000000000000000000000000000000000000000000000000000000000000000000000000000N 00000000000NCONT   00    00000000000          00000000000000000000000000000000000000000000 000000000000000A000000000000000000000000000000000000000000000 000000000000000000000000000000000000000     00000000                                                                                                                        000000000000000000
F0010000009710000005000083008772100013552100000000000000000201701260002001ILUMEC SAS                                        D000000000007000000000000000000000100010010000000000000000000000F0010000009710000520170126000101 00000000000000000000000000000000000000000000000000000000000000000000000000000000000000000000000000000000000000000N 00000000000NCONT   00    00000000000          00000000000000000000000000000000000000000000 000000000000000A000000000000000000000000000000000000000000000 000000000000000000000000000000000000000     00000000                                                                                                                        000000000000000000
F0010000009710100001000083008772100011050500000000000000000201701260002001ILUMEC SAS                                        D000000001145000000000000000000000100010010000000000000000000000F0010000009710100120170126000101 00000000000000000000000000000000000000000000000000000000000000000000000000000000000000000000000000000000000000000N 00000000000NCONT   00    00000000000          00000000000000000000000000000000000000000000 000000000000000A000000000000000000000000000000000000000000000 000000000000000000000000000000000000000     00000000                                                                                                                        000000000000000000
F0010000009710100002000083008772100041450500000000000000000201701260002001ILUMEC SAS                                        C000000000880000000000000000000000100010010000000000000000000000F0010000009710100220170126000101 00000000000000000000000000000000000000000000000000000000000000000000000000000000000000000000000000000000000000000N 00000000000NCONT   00    00000000000          00000000000000000000000000000000000000000000 000000000000000A000000000000000000000000000000000000000000000 000000000000000000000000000000000000000     00000000                                                                                                                        000000000000000000
F0010000009710100003000083008772100042505000000000000000000201701260002001ILUMEC SAS                                        C000000000265000000000000000000000100010010000000000000000000000F0010000009710100320170126000101 00000000000000000000000000000000000000000000000000000000000000000000000000000000000000000000000000000000000000000N 00000000000NCONT   00    00000000000          00000000000000000000000000000000000000000000 000000000000000A000000000000000000000000000000000000000000000 000000000000000000000000000000000000000     00000000                                                                                                                        000000000000000000
F0010000009710100004000083008772100023658300000000000000000201701260002001ILUMEC SAS                                        C000000000007000000000000000000000100010010000000000000000000000F0010000009710100420170126000101 00000000000000000000000000000000000000000000000000000000000000000000000000000000000000000000000000000000000000000N 00000000000NCONT   00    00000000000          00000000000000000000000000000000000000000000 000000000000000A000000000000000000000000000000000000000000000 000000000000000000000000000000000000000     00000000                                                                                                                        000000000000000000
F0010000009710100005000083008772100013552100000000000000000201701260002001ILUMEC SAS                                        D000000000007000000000000000000000100010010000000000000000000000F0010000009710100520170126000101 00000000000000000000000000000000000000000000000000000000000000000000000000000000000000000000000000000000000000000N 00000000000NCONT   00    00000000000          00000000000000000000000000000000000000000000 000000000000000A000000000000000000000000000000000000000000000 000000000000000000000000000000000000000     00000000                                                                                                                        000000000000000000
F0010000009710200001000004977415500011050500000000000000000201701260002001NINFA FONSECA ROMERO                              D000000002800000000000000000000000100010010000000000000000000000F0010000009710200120170126000101 00000000000000000000000000000000000000000000000000000000000000000000000000000000000000000000000000000000000000000N 00000000000NCONT   00    00000000000          00000000000000000000000000000000000000000000 000000000000000A000000000000000000000000000000000000000000000 000000000000000000000000000000000000000     00000000                                                                                                                        000000000000000000
F0010000009710200002000004977415500041450500000000000000000201701260002001NINFA FONSECA ROMERO                              C000000002400000000000000000000000100010010000000000000000000000F0010000009710200220170126000101 00000000000000000000000000000000000000000000000000000000000000000000000000000000000000000000000000000000000000000N 00000000000NCONT   00    00000000000          00000000000000000000000000000000000000000000 000000000000000A000000000000000000000000000000000000000000000 000000000000000000000000000000000000000     00000000                                                                                                                        000000000000000000
F0010000009710200003000004977415500042505000000000000000000201701260002001NINFA FONSECA ROMERO                              C000000000400000000000000000000000100010010000000000000000000000F0010000009710200320170126000101 00000000000000000000000000000000000000000000000000000000000000000000000000000000000000000000000000000000000000000N 00000000000NCONT   00    00000000000          00000000000000000000000000000000000000000000 000000000000000A000000000000000000000000000000000000000000000 000000000000000000000000000000000000000     00000000                                                                                                                        000000000000000000
F0010000009710200004000004977415500023658300000000000000000201701260002001NINFA FONSECA ROMERO                              C000000000019200000000000000000000100010010000000000000000000000F0010000009710200420170126000101 00000000000000000000000000000000000000000000000000000000000000000000000000000000000000000000000000000000000000000N 00000000000NCONT   00    00000000000          00000000000000000000000000000000000000000000 000000000000000A000000000000000000000000000000000000000000000 000000000000000000000000000000000000000     00000000                                                                                                                        000000000000000000
F0010000009710200005000004977415500013552100000000000000000201701260002001NINFA FONSECA ROMERO                              D000000000019200000000000000000000100010010000000000000000000000F0010000009710200520170126000101 00000000000000000000000000000000000000000000000000000000000000000000000000000000000000000000000000000000000000000N 00000000000NCONT   00    00000000000          00000000000000000000000000000000000000000000 000000000000000A000000000000000000000000000000000000000000000 000000000000000000000000000000000000000     00000000                                                                                                                        000000000000000000
F0010000009710300001000000866309000011050500000000000000000201701260002001MARCO MORA PATIO                                D000000001500000000000000000000000100010010000000000000000000000F0010000009710300120170126000101 00000000000000000000000000000000000000000000000000000000000000000000000000000000000000000000000000000000000000000N 00000000000NCONT   00    00000000000          00000000000000000000000000000000000000000000 000000000000000A000000000000000000000000000000000000000000000 000000000000000000000000000000000000000     00000000                                                                                                                        000000000000000000
F0010000009710300002000000866309000041450500000000000000000201701260002001MARCO MORA PATIO                                C000000001300000000000000000000000100010010000000000000000000000F0010000009710300220170126000101 00000000000000000000000000000000000000000000000000000000000000000000000000000000000000000000000000000000000000000N 00000000000NCONT   00    00000000000          00000000000000000000000000000000000000000000 000000000000000A000000000000000000000000000000000000000000000 000000000000000000000000000000000000000     00000000                                                                                                                        000000000000000000
F0010000009710300003000000866309000042505000000000000000000201701260002001MARCO MORA PATIO                                C000000000200000000000000000000000100010010000000000000000000000F0010000009710300320170126000101 00000000000000000000000000000000000000000000000000000000000000000000000000000000000000000000000000000000000000000N 00000000000NCONT   00    00000000000          00000000000000000000000000000000000000000000 000000000000000A000000000000000000000000000000000000000000000 000000000000000000000000000000000000000     00000000                                                                                                                        000000000000000000
F0010000009710300004000000866309000023658300000000000000000201701260002001MARCO MORA PATIO                                C000000000010400000000000000000000100010010000000000000000000000F0010000009710300420170126000101 00000000000000000000000000000000000000000000000000000000000000000000000000000000000000000000000000000000000000000N 00000000000NCONT   00    00000000000          00000000000000000000000000000000000000000000 000000000000000A000000000000000000000000000000000000000000000 000000000000000000000000000000000000000     00000000                                                                                                                        000000000000000000
F0010000009710300005000000866309000013552100000000000000000201701260002001MARCO MORA PATIO                                D000000000010400000000000000000000100010010000000000000000000000F0010000009710300520170126000101 00000000000000000000000000000000000000000000000000000000000000000000000000000000000000000000000000000000000000000N 00000000000NCONT   00    00000000000          00000000000000000000000000000000000000000000 000000000000000A000000000000000000000000000000000000000000000 000000000000000000000000000000000000000     00000000                                                                                                                        000000000000000000
F0010000009710400001000000866309000011050500000000000000000201701260002001MARCO MORA PATIO                                D000000001500000000000000000000000100010010000000000000000000000F0010000009710400120170126000101 00000000000000000000000000000000000000000000000000000000000000000000000000000000000000000000000000000000000000000N 00000000000NCONT   00    00000000000          00000000000000000000000000000000000000000000 000000000000000A000000000000000000000000000000000000000000000 000000000000000000000000000000000000000     00000000                                                                                                                        000000000000000000
F0010000009710400002000000866309000041450500000000000000000201701260002001MARCO MORA PATIO                                C000000001300000000000000000000000100010010000000000000000000000F0010000009710400220170126000101 00000000000000000000000000000000000000000000000000000000000000000000000000000000000000000000000000000000000000000N 00000000000NCONT   00    00000000000          00000000000000000000000000000000000000000000 000000000000000A000000000000000000000000000000000000000000000 000000000000000000000000000000000000000     00000000                                                                                                                        000000000000000000
F0010000009710400003000000866309000042505000000000000000000201701260002001MARCO MORA PATIO                                C000000000200000000000000000000000100010010000000000000000000000F0010000009710400320170126000101 00000000000000000000000000000000000000000000000000000000000000000000000000000000000000000000000000000000000000000N 00000000000NCONT   00    00000000000          00000000000000000000000000000000000000000000 000000000000000A000000000000000000000000000000000000000000000 000000000000000000000000000000000000000     00000000                                                                                                                        000000000000000000
F0010000009710400004000000866309000023658300000000000000000201701260002001MARCO MORA PATIO                                C000000000010400000000000000000000100010010000000000000000000000F0010000009710400420170126000101 00000000000000000000000000000000000000000000000000000000000000000000000000000000000000000000000000000000000000000N 00000000000NCONT   00    00000000000          00000000000000000000000000000000000000000000 000000000000000A000000000000000000000000000000000000000000000 000000000000000000000000000000000000000     00000000                                                                                                                        000000000000000000
F0010000009710400005000000866309000013552100000000000000000201701260002001MARCO MORA PATIO                                D000000000010400000000000000000000100010010000000000000000000000F0010000009710400520170126000101 00000000000000000000000000000000000000000000000000000000000000000000000000000000000000000000000000000000000000000N 00000000000NCONT   00    00000000000          00000000000000000000000000000000000000000000 000000000000000A000000000000000000000000000000000000000000000 000000000000000000000000000000000000000     00000000                                                                                                                        000000000000000000
F0010000009710500001000000866309000011050500000000000000000201701260002001MARCO MORA PATIO                                D000000001520000000000000000000000100010010000000000000000000000F0010000009710500120170126000101 00000000000000000000000000000000000000000000000000000000000000000000000000000000000000000000000000000000000000000N 00000000000NCONT   00    00000000000          00000000000000000000000000000000000000000000 000000000000000A000000000000000000000000000000000000000000000 000000000000000000000000000000000000000     00000000                                                                                                                        000000000000000000
F0010000009710500002000000866309000041450500000000000000000201701260002001MARCO MORA PATIO                                C000000001400000000000000000000000100010010000000000000000000000F0010000009710500220170126000101 00000000000000000000000000000000000000000000000000000000000000000000000000000000000000000000000000000000000000000N 00000000000NCONT   00    00000000000          00000000000000000000000000000000000000000000 000000000000000A000000000000000000000000000000000000000000000 000000000000000000000000000000000000000     00000000                                                                                                                        000000000000000000
F0010000009710500003000000866309000042505000000000000000000201701260002001MARCO MORA PATIO                                C000000000120000000000000000000000100010010000000000000000000000F0010000009710500320170126000101 00000000000000000000000000000000000000000000000000000000000000000000000000000000000000000000000000000000000000000N 00000000000NCONT   00    00000000000          00000000000000000000000000000000000000000000 000000000000000A000000000000000000000000000000000000000000000 000000000000000000000000000000000000000     00000000                                                                                                                        000000000000000000
F0010000009710500004000000866309000023658300000000000000000201701260002001MARCO MORA PATIO                                C000000000011200000000000000000000100010010000000000000000000000F0010000009710500420170126000101 00000000000000000000000000000000000000000000000000000000000000000000000000000000000000000000000000000000000000000N 00000000000NCONT   00    00000000000          00000000000000000000000000000000000000000000 000000000000000A000000000000000000000000000000000000000000000 000000000000000000000000000000000000000     00000000                                                                                                                        000000000000000000
F0010000009710500005000000866309000013552100000000000000000201701260002001MARCO MORA PATIO                                D000000000011200000000000000000000100010010000000000000000000000F0010000009710500520170126000101 00000000000000000000000000000000000000000000000000000000000000000000000000000000000000000000000000000000000000000N 00000000000NCONT   00    00000000000          00000000000000000000000000000000000000000000 000000000000000A000000000000000000000000000000000000000000000 000000000000000000000000000000000000000     00000000                                                                                                                        000000000000000000
F0010000009710600001000090050144800011050500000000000000000201701260002001PLASTICOS JR ASOCIADOS SAS                        D000000006500000000000000000000000100010010000000000000000000000F0010000009710600120170126000101 00000000000000000000000000000000000000000000000000000000000000000000000000000000000000000000000000000000000000000N 00000000000NCONT   00    00000000000          00000000000000000000000000000000000000000000 000000000000000A000000000000000000000000000000000000000000000 000000000000000000000000000000000000000     00000000                                                                                                                        000000000000000000
F0010000009710600002000090050144800041450500000000000000000201701260002001PLASTICOS JR ASOCIADOS SAS                        C000000005000000000000000000000000100010010000000000000000000000F0010000009710600220170126000101 00000000000000000000000000000000000000000000000000000000000000000000000000000000000000000000000000000000000000000N 00000000000NCONT   00    00000000000          00000000000000000000000000000000000000000000 000000000000000A000000000000000000000000000000000000000000000 000000000000000000000000000000000000000     00000000                                                                                                                        000000000000000000
F0010000009710600003000090050144800042505000000000000000000201701260002001PLASTICOS JR ASOCIADOS SAS                        C000000001500000000000000000000000100010010000000000000000000000F0010000009710600320170126000101 00000000000000000000000000000000000000000000000000000000000000000000000000000000000000000000000000000000000000000N 00000000000NCONT   00    00000000000          00000000000000000000000000000000000000000000 000000000000000A000000000000000000000000000000000000000000000 000000000000000000000000000000000000000     00000000                                                                                                                        000000000000000000
F0010000009710600004000090050144800023658300000000000000000201701260002001PLASTICOS JR ASOCIADOS SAS                        C000000000040000000000000000000000100010010000000000000000000000F0010000009710600420170126000101 00000000000000000000000000000000000000000000000000000000000000000000000000000000000000000000000000000000000000000N 00000000000NCONT   00    00000000000          00000000000000000000000000000000000000000000 000000000000000A000000000000000000000000000000000000000000000 000000000000000000000000000000000000000     00000000                                                                                                                        000000000000000000
F0010000009710600005000090050144800013552100000000000000000201701260002001PLASTICOS JR ASOCIADOS SAS                        D000000000040000000000000000000000100010010000000000000000000000F0010000009710600520170126000101 00000000000000000000000000000000000000000000000000000000000000000000000000000000000000000000000000000000000000000N 00000000000NCONT   00    00000000000          00000000000000000000000000000000000000000000 000000000000000A000000000000000000000000000000000000000000000 000000000000000000000000000000000000000     00000000                                                                                                                        000000000000000000
F0010000009710700001000000866309000011050500000000000000000201701260002001MARCO MORA PATIO                                D000000001500000000000000000000000100010010000000000000000000000F0010000009710700120170126000101 00000000000000000000000000000000000000000000000000000000000000000000000000000000000000000000000000000000000000000N 00000000000NCONT   00    00000000000          00000000000000000000000000000000000000000000 000000000000000A000000000000000000000000000000000000000000000 000000000000000000000000000000000000000     00000000                                                                                                                        000000000000000000
F0010000009710700002000000866309000041450500000000000000000201701260002001MARCO MORA PATIO                                C000000001300000000000000000000000100010010000000000000000000000F0010000009710700220170126000101 00000000000000000000000000000000000000000000000000000000000000000000000000000000000000000000000000000000000000000N 00000000000NCONT   00    00000000000          00000000000000000000000000000000000000000000 000000000000000A000000000000000000000000000000000000000000000 000000000000000000000000000000000000000     00000000                                                                                                                        000000000000000000
F0010000009710700003000000866309000042505000000000000000000201701260002001MARCO MORA PATIO                                C000000000200000000000000000000000100010010000000000000000000000F0010000009710700320170126000101 00000000000000000000000000000000000000000000000000000000000000000000000000000000000000000000000000000000000000000N 00000000000NCONT   00    00000000000          00000000000000000000000000000000000000000000 000000000000000A000000000000000000000000000000000000000000000 000000000000000000000000000000000000000     00000000                                                                                                                        000000000000000000
F0010000009710700004000000866309000023658300000000000000000201701260002001MARCO MORA PATIO                                C000000000010400000000000000000000100010010000000000000000000000F0010000009710700420170126000101 00000000000000000000000000000000000000000000000000000000000000000000000000000000000000000000000000000000000000000N 00000000000NCONT   00    00000000000          00000000000000000000000000000000000000000000 000000000000000A000000000000000000000000000000000000000000000 000000000000000000000000000000000000000     00000000                                                                                                                        000000000000000000
F0010000009710700005000000866309000013552100000000000000000201701260002001MARCO MORA PATIO                                D000000000010400000000000000000000100010010000000000000000000000F0010000009710700520170126000101 00000000000000000000000000000000000000000000000000000000000000000000000000000000000000000000000000000000000000000N 00000000000NCONT   00    00000000000          00000000000000000000000000000000000000000000 000000000000000A000000000000000000000000000000000000000000000 000000000000000000000000000000000000000     00000000                                                                                                                        000000000000000000
F0010000009710800001000003287795000011050500000000000000000201701260002001COMERCIALIZADORA KUZMAR                           D000000001400000000000000000000000100010010000000000000000000000F0010000009710800120170126000101 00000000000000000000000000000000000000000000000000000000000000000000000000000000000000000000000000000000000000000N 00000000000NCONT   00    00000000000          00000000000000000000000000000000000000000000 000000000000000A000000000000000000000000000000000000000000000 000000000000000000000000000000000000000     00000000                                                                                                                        000000000000000000
F0010000009710800002000003287795000041450500000000000000000201701260002001COMERCIALIZADORA KUZMAR                           C000000001000000000000000000000000100010010000000000000000000000F0010000009710800220170126000101 00000000000000000000000000000000000000000000000000000000000000000000000000000000000000000000000000000000000000000N 00000000000NCONT   00    00000000000          00000000000000000000000000000000000000000000 000000000000000A000000000000000000000000000000000000000000000 000000000000000000000000000000000000000     00000000                                                                                                                        000000000000000000
F0010000009710800003000003287795000042505000000000000000000201701260002001COMERCIALIZADORA KUZMAR                           C000000000400000000000000000000000100010010000000000000000000000F0010000009710800320170126000101 00000000000000000000000000000000000000000000000000000000000000000000000000000000000000000000000000000000000000000N 00000000000NCONT   00    00000000000          00000000000000000000000000000000000000000000 000000000000000A000000000000000000000000000000000000000000000 000000000000000000000000000000000000000     00000000                                                                                                                        000000000000000000
F0010000009710800004000003287795000023658300000000000000000201701260002001COMERCIALIZADORA KUZMAR                           C000000000008000000000000000000000100010010000000000000000000000F0010000009710800420170126000101 00000000000000000000000000000000000000000000000000000000000000000000000000000000000000000000000000000000000000000N 00000000000NCONT   00    00000000000          00000000000000000000000000000000000000000000 000000000000000A000000000000000000000000000000000000000000000 000000000000000000000000000000000000000     00000000                                                                                                                        000000000000000000
F0010000009710800005000003287795000013552100000000000000000201701260002001COMERCIALIZADORA KUZMAR                           D000000000008000000000000000000000100010010000000000000000000000F0010000009710800520170126000101 00000000000000000000000000000000000000000000000000000000000000000000000000000000000000000000000000000000000000000N 00000000000NCONT   00    00000000000          00000000000000000000000000000000000000000000 000000000000000A000000000000000000000000000000000000000000000 000000000000000000000000000000000000000     00000000                                                                                                                        000000000000000000
F0010000009710900001000007225511500011050500000000000000000201701260002001MAIGEL CHADID                                     D000000003950000000000000000000000100010010000000000000000000000F0010000009710900120170126000101 00000000000000000000000000000000000000000000000000000000000000000000000000000000000000000000000000000000000000000N 00000000000NCONT   00    00000000000          00000000000000000000000000000000000000000000 000000000000000A000000000000000000000000000000000000000000000 000000000000000000000000000000000000000     00000000                                                                                                                        000000000000000000
F0010000009710900002000007225511500041450500000000000000000201701260002001MAIGEL CHADID                                     C000000003600000000000000000000000100010010000000000000000000000F0010000009710900220170126000101 00000000000000000000000000000000000000000000000000000000000000000000000000000000000000000000000000000000000000000N 00000000000NCONT   00    00000000000          00000000000000000000000000000000000000000000 000000000000000A000000000000000000000000000000000000000000000 000000000000000000000000000000000000000     00000000                                                                                                                        000000000000000000
F0010000009710900003000007225511500042505000000000000000000201701260002001MAIGEL CHADID                                     C000000000350000000000000000000000100010010000000000000000000000F0010000009710900320170126000101 00000000000000000000000000000000000000000000000000000000000000000000000000000000000000000000000000000000000000000N 00000000000NCONT   00    00000000000          00000000000000000000000000000000000000000000 000000000000000A000000000000000000000000000000000000000000000 000000000000000000000000000000000000000     00000000                                                                                                                        000000000000000000
F0010000009710900004000007225511500023658300000000000000000201701260002001MAIGEL CHADID                                     C000000000028800000000000000000000100010010000000000000000000000F0010000009710900420170126000101 00000000000000000000000000000000000000000000000000000000000000000000000000000000000000000000000000000000000000000N 00000000000NCONT   00    00000000000          00000000000000000000000000000000000000000000 000000000000000A000000000000000000000000000000000000000000000 000000000000000000000000000000000000000     00000000                                                                                                                        000000000000000000
F0010000009710900005000007225511500013552100000000000000000201701260002001MAIGEL CHADID                                     D000000000028800000000000000000000100010010000000000000000000000F0010000009710900520170126000101 00000000000000000000000000000000000000000000000000000000000000000000000000000000000000000000000000000000000000000N 00000000000NCONT   00    00000000000          00000000000000000000000000000000000000000000 000000000000000A000000000000000000000000000000000000000000000 000000000000000000000000000000000000000     00000000                                                                                                                        000000000000000000
F0010000009711000001000090027130600011050500000000000000000201701260002001SURTITIENDAS GALVAN SAS                           D000000005100000000000000000000000100010010000000000000000000000F0010000009711000120170126000101 00000000000000000000000000000000000000000000000000000000000000000000000000000000000000000000000000000000000000000N 00000000000NCONT   00    00000000000          00000000000000000000000000000000000000000000 000000000000000A000000000000000000000000000000000000000000000 000000000000000000000000000000000000000     00000000                                                                                                                        000000000000000000
F0010000009711000002000090027130600041450500000000000000000201701260002001SURTITIENDAS GALVAN SAS                           C000000003900000000000000000000000100010010000000000000000000000F0010000009711000220170126000101 00000000000000000000000000000000000000000000000000000000000000000000000000000000000000000000000000000000000000000N 00000000000NCONT   00    00000000000          00000000000000000000000000000000000000000000 000000000000000A000000000000000000000000000000000000000000000 000000000000000000000000000000000000000     00000000                                                                                                                        000000000000000000
F0010000009711000003000090027130600042505000000000000000000201701260002001SURTITIENDAS GALVAN SAS                           C000000001200000000000000000000000100010010000000000000000000000F0010000009711000320170126000101 00000000000000000000000000000000000000000000000000000000000000000000000000000000000000000000000000000000000000000N 00000000000NCONT   00    00000000000          00000000000000000000000000000000000000000000 000000000000000A000000000000000000000000000000000000000000000 000000000000000000000000000000000000000     00000000                                                                                                                        000000000000000000
F0010000009711000004000090027130600023658300000000000000000201701260002001SURTITIENDAS GALVAN SAS                           C000000000031200000000000000000000100010010000000000000000000000F0010000009711000420170126000101 00000000000000000000000000000000000000000000000000000000000000000000000000000000000000000000000000000000000000000N 00000000000NCONT   00    00000000000          00000000000000000000000000000000000000000000 000000000000000A000000000000000000000000000000000000000000000 000000000000000000000000000000000000000     00000000                                                                                                                        000000000000000000
F0010000009711000005000090027130600013552100000000000000000201701260002001SURTITIENDAS GALVAN SAS                           D000000000031200000000000000000000100010010000000000000000000000F0010000009711000520170126000101 00000000000000000000000000000000000000000000000000000000000000000000000000000000000000000000000000000000000000000N 00000000000NCONT   00    00000000000          00000000000000000000000000000000000000000000 000000000000000A000000000000000000000000000000000000000000000 000000000000000000000000000000000000000     00000000                                                                                                                        000000000000000000
F0010000009711100001000102390001700011050500000000000000000201701260002001LILIANA HERNANDEZ PINILLA                         D000000003000000000000000000000000100010010000000000000000000000F0010000009711100120170126000101 00000000000000000000000000000000000000000000000000000000000000000000000000000000000000000000000000000000000000000N 00000000000NCONT   00    00000000000          00000000000000000000000000000000000000000000 000000000000000A000000000000000000000000000000000000000000000 000000000000000000000000000000000000000     00000000                                                                                                                        000000000000000000
F0010000009711100002000102390001700041450500000000000000000201701260002001LILIANA HERNANDEZ PINILLA                         C000000002000000000000000000000000100010010000000000000000000000F0010000009711100220170126000101 00000000000000000000000000000000000000000000000000000000000000000000000000000000000000000000000000000000000000000N 00000000000NCONT   00    00000000000          00000000000000000000000000000000000000000000 000000000000000A000000000000000000000000000000000000000000000 000000000000000000000000000000000000000     00000000                                                                                                                        000000000000000000
F0010000009711100003000102390001700042505000000000000000000201701260002001LILIANA HERNANDEZ PINILLA                         C000000001000000000000000000000000100010010000000000000000000000F0010000009711100320170126000101 00000000000000000000000000000000000000000000000000000000000000000000000000000000000000000000000000000000000000000N 00000000000NCONT   00    00000000000          00000000000000000000000000000000000000000000 000000000000000A000000000000000000000000000000000000000000000 000000000000000000000000000000000000000     00000000                                                                                                                        000000000000000000
F0010000009711100004000102390001700023658300000000000000000201701260002001LILIANA HERNANDEZ PINILLA                         C000000000016000000000000000000000100010010000000000000000000000F0010000009711100420170126000101 00000000000000000000000000000000000000000000000000000000000000000000000000000000000000000000000000000000000000000N 00000000000NCONT   00    00000000000          00000000000000000000000000000000000000000000 000000000000000A000000000000000000000000000000000000000000000 000000000000000000000000000000000000000     00000000                                                                                                                        000000000000000000
F0010000009711100005000102390001700013552100000000000000000201701260002001LILIANA HERNANDEZ PINILLA                         D000000000016000000000000000000000100010010000000000000000000000F0010000009711100520170126000101 00000000000000000000000000000000000000000000000000000000000000000000000000000000000000000000000000000000000000000N 00000000000NCONT   00    00000000000          00000000000000000000000000000000000000000000 000000000000000A000000000000000000000000000000000000000000000 000000000000000000000000000000000000000     00000000                                                                                                                        000000000000000000
F0010000009711200001000002245670100011050500000000000000000201701260002001YOLANDA  TOBON                                    D000000003276700000000000000000000100010010000000000000000000000F0010000009711200120170126000101 00000000000000000000000000000000000000000000000000000000000000000000000000000000000000000000000000000000000000000N 00000000000NCONT   00    00000000000          00000000000000000000000000000000000000000000 000000000000000A000000000000000000000000000000000000000000000 000000000000000000000000000000000000000     00000000                                                                                                                        000000000000000000
F0010000009711200002000002245670100041450500000000000000000201701260002001YOLANDA  TOBON                                    C000000002430000000000000000000000100010010000000000000000000000F0010000009711200220170126000101 00000000000000000000000000000000000000000000000000000000000000000000000000000000000000000000000000000000000000000N 00000000000NCONT   00    00000000000          00000000000000000000000000000000000000000000 000000000000000A000000000000000000000000000000000000000000000 000000000000000000000000000000000000000     00000000                                                                                                                        000000000000000000
F0010000009711200003000002245670100042505000000000000000000201701260002001YOLANDA  TOBON                                    C000000000846700000000000000000000100010010000000000000000000000F0010000009711200320170126000101 00000000000000000000000000000000000000000000000000000000000000000000000000000000000000000000000000000000000000000N 00000000000NCONT   00    00000000000          00000000000000000000000000000000000000000000 000000000000000A000000000000000000000000000000000000000000000 000000000000000000000000000000000000000     00000000                                                                                                                        000000000000000000
F0010000009711200004000002245670100023658300000000000000000201701260002001YOLANDA  TOBON                                    C000000000019400000000000000000000100010010000000000000000000000F0010000009711200420170126000101 00000000000000000000000000000000000000000000000000000000000000000000000000000000000000000000000000000000000000000N 00000000000NCONT   00    00000000000          00000000000000000000000000000000000000000000 000000000000000A000000000000000000000000000000000000000000000 000000000000000000000000000000000000000     00000000                                                                                                                        000000000000000000
F0010000009711200005000002245670100013552100000000000000000201701260002001YOLANDA  TOBON                                    D000000000019400000000000000000000100010010000000000000000000000F0010000009711200520170126000101 00000000000000000000000000000000000000000000000000000000000000000000000000000000000000000000000000000000000000000N 00000000000NCONT   00    00000000000          00000000000000000000000000000000000000000000 000000000000000A000000000000000000000000000000000000000000000 000000000000000000000000000000000000000     00000000                                                                                                                        000000000000000000
F0010000009711300001000080014190300011050500000000000000000201701260002001QUIMINSA LTDA                                     D000000003195500000000000000000000100010010000000000000000000000F0010000009711300120170126000101 00000000000000000000000000000000000000000000000000000000000000000000000000000000000000000000000000000000000000000N 00000000000NCONT   00    00000000000          00000000000000000000000000000000000000000000 000000000000000A000000000000000000000000000000000000000000000 000000000000000000000000000000000000000     00000000                                                                                                                        000000000000000000
F0010000009711300002000080014190300041450500000000000000000201701260002001QUIMINSA LTDA                                     C000000002660000000000000000000000100010010000000000000000000000F0010000009711300220170126000101 00000000000000000000000000000000000000000000000000000000000000000000000000000000000000000000000000000000000000000N 00000000000NCONT   00    00000000000          00000000000000000000000000000000000000000000 000000000000000A000000000000000000000000000000000000000000000 000000000000000000000000000000000000000     00000000                                                                                                                        000000000000000000
F0010000009711300003000080014190300042505000000000000000000201701260002001QUIMINSA LTDA                                     C000000000535500000000000000000000100010010000000000000000000000F0010000009711300320170126000101 00000000000000000000000000000000000000000000000000000000000000000000000000000000000000000000000000000000000000000N 00000000000NCONT   00    00000000000          00000000000000000000000000000000000000000000 000000000000000A000000000000000000000000000000000000000000000 000000000000000000000000000000000000000     00000000                                                                                                                        000000000000000000
F0010000009711300004000080014190300023658300000000000000000201701260002001QUIMINSA LTDA                                     C000000000021300000000000000000000100010010000000000000000000000F0010000009711300420170126000101 00000000000000000000000000000000000000000000000000000000000000000000000000000000000000000000000000000000000000000N 00000000000NCONT   00    00000000000          00000000000000000000000000000000000000000000 000000000000000A000000000000000000000000000000000000000000000 000000000000000000000000000000000000000     00000000                                                                                                                        000000000000000000
F0010000009711300005000080014190300013552100000000000000000201701260002001QUIMINSA LTDA                                     D000000000021300000000000000000000100010010000000000000000000000F0010000009711300520170126000101 00000000000000000000000000000000000000000000000000000000000000000000000000000000000000000000000000000000000000000N 00000000000NCONT   00    00000000000          00000000000000000000000000000000000000000000 000000000000000A000000000000000000000000000000000000000000000 000000000000000000000000000000000000000     00000000                                                                                                                        000000000000000000
F0010000009711400001000080201703900011050500000000000000000201701260002001MUNDIAL CHEMICAL LTDA                             D000000000948800000000000000000000100010010000000000000000000000F0010000009711400120170126000101 00000000000000000000000000000000000000000000000000000000000000000000000000000000000000000000000000000000000000000N 00000000000NCONT   00    00000000000          00000000000000000000000000000000000000000000 000000000000000A000000000000000000000000000000000000000000000 000000000000000000000000000000000000000     00000000                                                                                                                        000000000000000000
F0010000009711400002000080201703900041450500000000000000000201701260002001MUNDIAL CHEMICAL LTDA                             C000000000910000000000000000000000100010010000000000000000000000F0010000009711400220170126000101 00000000000000000000000000000000000000000000000000000000000000000000000000000000000000000000000000000000000000000N 00000000000NCONT   00    00000000000          00000000000000000000000000000000000000000000 000000000000000A000000000000000000000000000000000000000000000 000000000000000000000000000000000000000     00000000                                                                                                                        000000000000000000
F0010000009711400003000080201703900042505000000000000000000201701260002001MUNDIAL CHEMICAL LTDA                             C000000000038800000000000000000000100010010000000000000000000000F0010000009711400320170126000101 00000000000000000000000000000000000000000000000000000000000000000000000000000000000000000000000000000000000000000N 00000000000NCONT   00    00000000000          00000000000000000000000000000000000000000000 000000000000000A000000000000000000000000000000000000000000000 000000000000000000000000000000000000000     00000000                                                                                                                        000000000000000000
F0010000009711400004000080201703900023658300000000000000000201701260002001MUNDIAL CHEMICAL LTDA                             C000000000007300000000000000000000100010010000000000000000000000F0010000009711400420170126000101 00000000000000000000000000000000000000000000000000000000000000000000000000000000000000000000000000000000000000000N 00000000000NCONT   00    00000000000          00000000000000000000000000000000000000000000 000000000000000A000000000000000000000000000000000000000000000 000000000000000000000000000000000000000     00000000                                                                                                                        000000000000000000
F0010000009711400005000080201703900013552100000000000000000201701260002001MUNDIAL CHEMICAL LTDA                             D000000000007300000000000000000000100010010000000000000000000000F0010000009711400520170126000101 00000000000000000000000000000000000000000000000000000000000000000000000000000000000000000000000000000000000000000N 00000000000NCONT   00    00000000000          00000000000000000000000000000000000000000000 000000000000000A000000000000000000000000000000000000000000000 000000000000000000000000000000000000000     00000000                                                                                                                        000000000000000000
F0010000009711500001000000431178400011050500000000000000000201701260002001EFRAIN ALVAREZ                                    D000000004060000000000000000000000100010010000000000000000000000F0010000009711500120170126000101 00000000000000000000000000000000000000000000000000000000000000000000000000000000000000000000000000000000000000000N 00000000000NCONT   00    00000000000          00000000000000000000000000000000000000000000 000000000000000A000000000000000000000000000000000000000000000 000000000000000000000000000000000000000     00000000                                                                                                                        000000000000000000
F0010000009711500002000000431178400041450500000000000000000201701260002001EFRAIN ALVAREZ                                    C000000003860000000000000000000000100010010000000000000000000000F0010000009711500220170126000101 00000000000000000000000000000000000000000000000000000000000000000000000000000000000000000000000000000000000000000N 00000000000NCONT   00    00000000000          00000000000000000000000000000000000000000000 000000000000000A000000000000000000000000000000000000000000000 000000000000000000000000000000000000000     00000000                                                                                                                        000000000000000000
F0010000009711500003000000431178400042505000000000000000000201701260002001EFRAIN ALVAREZ                                    C000000000200000000000000000000000100010010000000000000000000000F0010000009711500320170126000101 00000000000000000000000000000000000000000000000000000000000000000000000000000000000000000000000000000000000000000N 00000000000NCONT   00    00000000000          00000000000000000000000000000000000000000000 000000000000000A000000000000000000000000000000000000000000000 000000000000000000000000000000000000000     00000000                                                                                                                        000000000000000000
F0010000009711500004000000431178400023658300000000000000000201701260002001EFRAIN ALVAREZ                                    C000000000030900000000000000000000100010010000000000000000000000F0010000009711500420170126000101 00000000000000000000000000000000000000000000000000000000000000000000000000000000000000000000000000000000000000000N 00000000000NCONT   00    00000000000          00000000000000000000000000000000000000000000 000000000000000A000000000000000000000000000000000000000000000 000000000000000000000000000000000000000     00000000                                                                                                                        000000000000000000
F0010000009711500005000000431178400013552100000000000000000201701260002001EFRAIN ALVAREZ                                    D000000000030900000000000000000000100010010000000000000000000000F0010000009711500520170126000101 00000000000000000000000000000000000000000000000000000000000000000000000000000000000000000000000000000000000000000N 00000000000NCONT   00    00000000000          00000000000000000000000000000000000000000000 000000000000000A000000000000000000000000000000000000000000000 000000000000000000000000000000000000000     00000000                                                                                                                        000000000000000000
F0010000009711600001000000431178400011050500000000000000000201701260002001EFRAIN ALVAREZ                                    D000000003010000000000000000000000100010010000000000000000000000F0010000009711600120170126000101 00000000000000000000000000000000000000000000000000000000000000000000000000000000000000000000000000000000000000000N 00000000000NCONT   00    00000000000          00000000000000000000000000000000000000000000 000000000000000A000000000000000000000000000000000000000000000 000000000000000000000000000000000000000     00000000                                                                                                                        000000000000000000
F0010000009711600002000000431178400041450500000000000000000201701260002001EFRAIN ALVAREZ                                    C000000002760000000000000000000000100010010000000000000000000000F0010000009711600220170126000101 00000000000000000000000000000000000000000000000000000000000000000000000000000000000000000000000000000000000000000N 00000000000NCONT   00    00000000000          00000000000000000000000000000000000000000000 000000000000000A000000000000000000000000000000000000000000000 000000000000000000000000000000000000000     00000000                                                                                                                        000000000000000000
