F0010000006769700001000000646115900011050500000000000000000201502030002001MIGUEL ANGEL JIMENEZ GOMEZ                        D000000009000000000000000000000000100010010000000000000000000000F0010000006769700120150203000101 00000000000000000000000000000000000000000000000000000000000000000000000000000000000000000000000000000000000000000N 00000000000NCONT   00    00000000000          00000000000000000000000000000000000000000000 000000000000000A000000000000000000000000000000000000000000000 000000000000000000000000000000000000000     00000000                                                                                                                        000000000000000000
F0010000006769700002000000646115900041450500000000000000000201502030002001MIGUEL ANGEL JIMENEZ GOMEZ                        C000000008000000000000000000000000100010010000000000000000000000F0010000006769700220150203000101 00000000000000000000000000000000000000000000000000000000000000000000000000000000000000000000000000000000000000000N 00000000000NCONT   00    00000000000          00000000000000000000000000000000000000000000 000000000000000A000000000000000000000000000000000000000000000 000000000000000000000000000000000000000     00000000                                                                                                                        000000000000000000
F0010000006769700003000000646115900042505000000000000000000201502030002001MIGUEL ANGEL JIMENEZ GOMEZ                        C000000001000000000000000000000000100010010000000000000000000000F0010000006769700320150203000101 00000000000000000000000000000000000000000000000000000000000000000000000000000000000000000000000000000000000000000N 00000000000NCONT   00    00000000000          00000000000000000000000000000000000000000000 000000000000000A000000000000000000000000000000000000000000000 000000000000000000000000000000000000000     00000000                                                                                                                        000000000000000000
F0010000006769700004000000646115900023658300000000000000000201502030002001MIGUEL ANGEL JIMENEZ GOMEZ                        C000000000064000000000000000000000100010010000000000000000000000F0010000006769700420150203000101 00000000000000000000000000000000000000000000000000000000000000000000000000000000000000000000000000000000000000000N 00000000000NCONT   00    00000000000          00000000000000000000000000000000000000000000 000000000000000A000000000000000000000000000000000000000000000 000000000000000000000000000000000000000     00000000                                                                                                                        000000000000000000
F0010000006769700005000000646115900013552100000000000000000201502030002001MIGUEL ANGEL JIMENEZ GOMEZ                        D000000000064000000000000000000000100010010000000000000000000000F0010000006769700520150203000101 00000000000000000000000000000000000000000000000000000000000000000000000000000000000000000000000000000000000000000N 00000000000NCONT   00    00000000000          00000000000000000000000000000000000000000000 000000000000000A000000000000000000000000000000000000000000000 000000000000000000000000000000000000000     00000000                                                                                                                        000000000000000000
F0010000006769800001000080201127600013050500000000000000000201502030002001ELECTRICOS DEL RUIZ S.A.S.                        D000000084740600000000000000000000100010010000000000000000000000F0010000006769800120150203000101 00000000000000000000000000000000000000000000000000000000000000000000000000000000000000000000000000000000000000000N 00000000000NCONT   00    00000000000          00000000000000000000000000000000000000000000 000000000000000A000000000000000000000000000000000000000000000 000000000000000000000000000000000000000     00000000                                                                                                                        000000000000000000
F0010000006769800002000080201127600041450500000000000000000201502030002001ELECTRICOS DEL RUIZ S.A.S.                        C000000069520000000000000000000000100010010000000000000000000000F0010000006769800220150203000101 00000000000000000000000000000000000000000000000000000000000000000000000000000000000000000000000000000000000000000N 00000000000NCONT   00    00000000000          00000000000000000000000000000000000000000000 000000000000000A000000000000000000000000000000000000000000000 000000000000000000000000000000000000000     00000000                                                                                                                        000000000000000000
F0010000006769800003000080201127600042505000000000000000000201502030002001ELECTRICOS DEL RUIZ S.A.S.                        C000000015220600000000000000000000100010010000000000000000000000F0010000006769800320150203000101 00000000000000000000000000000000000000000000000000000000000000000000000000000000000000000000000000000000000000000N 00000000000NCONT   00    00000000000          00000000000000000000000000000000000000000000 000000000000000A000000000000000000000000000000000000000000000 000000000000000000000000000000000000000     00000000                                                                                                                        000000000000000000
F0010000006769800004000080201127600023658300000000000000000201502030002001ELECTRICOS DEL RUIZ S.A.S.                        C000000000556200000000000000000000100010010000000000000000000000F0010000006769800420150203000101 00000000000000000000000000000000000000000000000000000000000000000000000000000000000000000000000000000000000000000N 00000000000NCONT   00    00000000000          00000000000000000000000000000000000000000000 000000000000000A000000000000000000000000000000000000000000000 000000000000000000000000000000000000000     00000000                                                                                                                        000000000000000000
F0010000006769800005000080201127600013552100000000000000000201502030002001ELECTRICOS DEL RUIZ S.A.S.                        D000000000556200000000000000000000100010010000000000000000000000F0010000006769800520150203000101 00000000000000000000000000000000000000000000000000000000000000000000000000000000000000000000000000000000000000000N 00000000000NCONT   00    00000000000          00000000000000000000000000000000000000000000 000000000000000A000000000000000000000000000000000000000000000 000000000000000000000000000000000000000     00000000                                                                                                                        000000000000000000
F0010000006769900001000089080078800013050500000000000000000201502030002001SUMATEC S.A.                                      D000000024113000000000000000000000100010010000000000000000000000F0010000006769900120150203000101 00000000000000000000000000000000000000000000000000000000000000000000000000000000000000000000000000000000000000000N 00000000000NCONT   00    00000000000          00000000000000000000000000000000000000000000 000000000000000A000000000000000000000000000000000000000000000 000000000000000000000000000000000000000     00000000                                                                                                                        000000000000000000
F0010000006769900002000089080078800041450500000000000000000201502030002001SUMATEC S.A.                                      C000000017520000000000000000000000100010010000000000000000000000F0010000006769900220150203000101 00000000000000000000000000000000000000000000000000000000000000000000000000000000000000000000000000000000000000000N 00000000000NCONT   00    00000000000          00000000000000000000000000000000000000000000 000000000000000A000000000000000000000000000000000000000000000 000000000000000000000000000000000000000     00000000                                                                                                                        000000000000000000
F0010000006769900003000089080078800042505000000000000000000201502030002001SUMATEC S.A.                                      C000000006593000000000000000000000100010010000000000000000000000F0010000006769900320150203000101 00000000000000000000000000000000000000000000000000000000000000000000000000000000000000000000000000000000000000000N 00000000000NCONT   00    00000000000          00000000000000000000000000000000000000000000 000000000000000A000000000000000000000000000000000000000000000 000000000000000000000000000000000000000     00000000                                                                                                                        000000000000000000
F0010000006769900004000089080078800023658300000000000000000201502030002001SUMATEC S.A.                                      C000000000140200000000000000000000100010010000000000000000000000F0010000006769900420150203000101 00000000000000000000000000000000000000000000000000000000000000000000000000000000000000000000000000000000000000000N 00000000000NCONT   00    00000000000          00000000000000000000000000000000000000000000 000000000000000A000000000000000000000000000000000000000000000 000000000000000000000000000000000000000     00000000                                                                                                                        000000000000000000
F0010000006769900005000089080078800013552100000000000000000201502030002001SUMATEC S.A.                                      D000000000140200000000000000000000100010010000000000000000000000F0010000006769900520150203000101 00000000000000000000000000000000000000000000000000000000000000000000000000000000000000000000000000000000000000000N 00000000000NCONT   00    00000000000          00000000000000000000000000000000000000000000 000000000000000A000000000000000000000000000000000000000000000 000000000000000000000000000000000000000     00000000                                                                                                                        000000000000000000
F0010000006770000001000090009800500013050500000000000000000201502030002001GLORIANT CHEMICAL DE COLOMBIA LTDA                D000000077689000000000000000000000100010010000000000000000000000F0010000006770000120150203000101 00000000000000000000000000000000000000000000000000000000000000000000000000000000000000000000000000000000000000000N 00000000000NCONT   00    00000000000          00000000000000000000000000000000000000000000 000000000000000A000000000000000000000000000000000000000000000 000000000000000000000000000000000000000     00000000                                                                                                                        000000000000000000
F0010000006770000002000090009800500041450500000000000000000201502030002001GLORIANT CHEMICAL DE COLOMBIA LTDA                C000000067340000000000000000000000100010010000000000000000000000F0010000006770000220150203000101 00000000000000000000000000000000000000000000000000000000000000000000000000000000000000000000000000000000000000000N 00000000000NCONT   00    00000000000          00000000000000000000000000000000000000000000 000000000000000A000000000000000000000000000000000000000000000 000000000000000000000000000000000000000     00000000                                                                                                                        000000000000000000
F0010000006770000003000090009800500042505000000000000000000201502030002001GLORIANT CHEMICAL DE COLOMBIA LTDA                C000000010349000000000000000000000100010010000000000000000000000F0010000006770000320150203000101 00000000000000000000000000000000000000000000000000000000000000000000000000000000000000000000000000000000000000000N 00000000000NCONT   00    00000000000          00000000000000000000000000000000000000000000 000000000000000A000000000000000000000000000000000000000000000 000000000000000000000000000000000000000     00000000                                                                                                                        000000000000000000
F0010000006770000004000090009800500023658300000000000000000201502030002001GLORIANT CHEMICAL DE COLOMBIA LTDA                C000000000538700000000000000000000100010010000000000000000000000F0010000006770000420150203000101 00000000000000000000000000000000000000000000000000000000000000000000000000000000000000000000000000000000000000000N 00000000000NCONT   00    00000000000          00000000000000000000000000000000000000000000 000000000000000A000000000000000000000000000000000000000000000 000000000000000000000000000000000000000     00000000                                                                                                                        000000000000000000
F0010000006770000005000090009800500013552100000000000000000201502030002001GLORIANT CHEMICAL DE COLOMBIA LTDA                D000000000538700000000000000000000100010010000000000000000000000F0010000006770000520150203000101 00000000000000000000000000000000000000000000000000000000000000000000000000000000000000000000000000000000000000000N 00000000000NCONT   00    00000000000          00000000000000000000000000000000000000000000 000000000000000A000000000000000000000000000000000000000000000 000000000000000000000000000000000000000     00000000                                                                                                                        000000000000000000
F0010000006770100001000090013035500013050500000000000000000201502030002001FUJIAN SHAN S.A.                                  D000000072333300000000000000000000100010010000000000000000000000F0010000006770100120150203000101 00000000000000000000000000000000000000000000000000000000000000000000000000000000000000000000000000000000000000000N 00000000000NCONT   00    00000000000          00000000000000000000000000000000000000000000 000000000000000A000000000000000000000000000000000000000000000 000000000000000000000000000000000000000     00000000                                                                                                                        000000000000000000
F0010000006770100002000090013035500041450500000000000000000201502030002001FUJIAN SHAN S.A.                                  C000000070933300000000000000000000100010010000000000000000000000F0010000006770100220150203000101 00000000000000000000000000000000000000000000000000000000000000000000000000000000000000000000000000000000000000000N 00000000000NCONT   00    00000000000          00000000000000000000000000000000000000000000 000000000000000A000000000000000000000000000000000000000000000 000000000000000000000000000000000000000     00000000                                                                                                                        000000000000000000
F0010000006770100003000090013035500042505000000000000000000201502030002001FUJIAN SHAN S.A.                                  C000000001400000000000000000000000100010010000000000000000000000F0010000006770100320150203000101 00000000000000000000000000000000000000000000000000000000000000000000000000000000000000000000000000000000000000000N 00000000000NCONT   00    00000000000          00000000000000000000000000000000000000000000 000000000000000A000000000000000000000000000000000000000000000 000000000000000000000000000000000000000     00000000                                                                                                                        000000000000000000
F0010000006770100004000090013035500023658300000000000000000201502030002001FUJIAN SHAN S.A.                                  C000000000567500000000000000000000100010010000000000000000000000F0010000006770100420150203000101 00000000000000000000000000000000000000000000000000000000000000000000000000000000000000000000000000000000000000000N 00000000000NCONT   00    00000000000          00000000000000000000000000000000000000000000 000000000000000A000000000000000000000000000000000000000000000 000000000000000000000000000000000000000     00000000                                                                                                                        000000000000000000
F0010000006770100005000090013035500013552100000000000000000201502030002001FUJIAN SHAN S.A.                                  D000000000567500000000000000000000100010010000000000000000000000F0010000006770100520150203000101 00000000000000000000000000000000000000000000000000000000000000000000000000000000000000000000000000000000000000000N 00000000000NCONT   00    00000000000          00000000000000000000000000000000000000000000 000000000000000A000000000000000000000000000000000000000000000 000000000000000000000000000000000000000     00000000                                                                                                                        000000000000000000
F0010000006770200001000090048173700013050500000000000000000201502030002001ESPECIALIDADES QUIMICAS DEL NORTE SAS             D000000021600000000000000000000000100010010000000000000000000000F0010000006770200120150203000101 00000000000000000000000000000000000000000000000000000000000000000000000000000000000000000000000000000000000000000N 00000000000NCONT   00    00000000000          00000000000000000000000000000000000000000000 000000000000000A000000000000000000000000000000000000000000000 000000000000000000000000000000000000000     00000000                                                                                                                        000000000000000000
F0010000006770200002000090048173700041450500000000000000000201502030002001ESPECIALIDADES QUIMICAS DEL NORTE SAS             C000000020800000000000000000000000100010010000000000000000000000F0010000006770200220150203000101 00000000000000000000000000000000000000000000000000000000000000000000000000000000000000000000000000000000000000000N 00000000000NCONT   00    00000000000          00000000000000000000000000000000000000000000 000000000000000A000000000000000000000000000000000000000000000 000000000000000000000000000000000000000     00000000                                                                                                                        000000000000000000
F0010000006770200003000090048173700042505000000000000000000201502030002001ESPECIALIDADES QUIMICAS DEL NORTE SAS             C000000000800000000000000000000000100010010000000000000000000000F0010000006770200320150203000101 00000000000000000000000000000000000000000000000000000000000000000000000000000000000000000000000000000000000000000N 00000000000NCONT   00    00000000000          00000000000000000000000000000000000000000000 000000000000000A000000000000000000000000000000000000000000000 000000000000000000000000000000000000000     00000000                                                                                                                        000000000000000000
F0010000006770200004000090048173700023658300000000000000000201502030002001ESPECIALIDADES QUIMICAS DEL NORTE SAS             C000000000166400000000000000000000100010010000000000000000000000F0010000006770200420150203000101 00000000000000000000000000000000000000000000000000000000000000000000000000000000000000000000000000000000000000000N 00000000000NCONT   00    00000000000          00000000000000000000000000000000000000000000 000000000000000A000000000000000000000000000000000000000000000 000000000000000000000000000000000000000     00000000                                                                                                                        000000000000000000
F0010000006770200005000090048173700013552100000000000000000201502030002001ESPECIALIDADES QUIMICAS DEL NORTE SAS             D000000000166400000000000000000000100010010000000000000000000000F0010000006770200520150203000101 00000000000000000000000000000000000000000000000000000000000000000000000000000000000000000000000000000000000000000N 00000000000NCONT   00    00000000000          00000000000000000000000000000000000000000000 000000000000000A000000000000000000000000000000000000000000000 000000000000000000000000000000000000000     00000000                                                                                                                        000000000000000000
F0010000006770300001000080016665600013050500000000000000000201502030002001SUMICAL DE ANTIOQUIA S.A.S                        D000000023264600000000000000000000100010010000000000000000000000F0010000006770300120150203000101 00000000000000000000000000000000000000000000000000000000000000000000000000000000000000000000000000000000000000000N 00000000000NCONT   00    00000000000          00000000000000000000000000000000000000000000 000000000000000A000000000000000000000000000000000000000000000 000000000000000000000000000000000000000     00000000                                                                                                                        000000000000000000
F0010000006770300002000080016665600041450500000000000000000201502030002001SUMICAL DE ANTIOQUIA S.A.S                        C000000019210000000000000000000000100010010000000000000000000000F0010000006770300220150203000101 00000000000000000000000000000000000000000000000000000000000000000000000000000000000000000000000000000000000000000N 00000000000NCONT   00    00000000000          00000000000000000000000000000000000000000000 000000000000000A000000000000000000000000000000000000000000000 000000000000000000000000000000000000000     00000000                                                                                                                        000000000000000000
F0010000006770300003000080016665600042505000000000000000000201502030002001SUMICAL DE ANTIOQUIA S.A.S                        C000000004054600000000000000000000100010010000000000000000000000F0010000006770300320150203000101 00000000000000000000000000000000000000000000000000000000000000000000000000000000000000000000000000000000000000000N 00000000000NCONT   00    00000000000          00000000000000000000000000000000000000000000 000000000000000A000000000000000000000000000000000000000000000 000000000000000000000000000000000000000     00000000                                                                                                                        000000000000000000
F0010000006770300004000080016665600023658300000000000000000201502030002001SUMICAL DE ANTIOQUIA S.A.S                        C000000000153700000000000000000000100010010000000000000000000000F0010000006770300420150203000101 00000000000000000000000000000000000000000000000000000000000000000000000000000000000000000000000000000000000000000N 00000000000NCONT   00    00000000000          00000000000000000000000000000000000000000000 000000000000000A000000000000000000000000000000000000000000000 000000000000000000000000000000000000000     00000000                                                                                                                        000000000000000000
F0010000006770300005000080016665600013552100000000000000000201502030002001SUMICAL DE ANTIOQUIA S.A.S                        D000000000153700000000000000000000100010010000000000000000000000F0010000006770300520150203000101 00000000000000000000000000000000000000000000000000000000000000000000000000000000000000000000000000000000000000000N 00000000000NCONT   00    00000000000          00000000000000000000000000000000000000000000 000000000000000A000000000000000000000000000000000000000000000 000000000000000000000000000000000000000     00000000                                                                                                                        000000000000000000
F0010000006770400001000090059316900013050500000000000000000201502030002001DISTRIBUCIONES Y REPRESENTACIONES MANA            D000000012917700000000000000000000100010010000000000000000000000F0010000006770400120150203000101 00000000000000000000000000000000000000000000000000000000000000000000000000000000000000000000000000000000000000000N 00000000000NCONT   00    00000000000          00000000000000000000000000000000000000000000 000000000000000A000000000000000000000000000000000000000000000 000000000000000000000000000000000000000     00000000                                                                                                                        000000000000000000
F0010000006770400002000090059316900041450500000000000000000201502030002001DISTRIBUCIONES Y REPRESENTACIONES MANA            C000000011130000000000000000000000100010010000000000000000000000F0010000006770400220150203000101 00000000000000000000000000000000000000000000000000000000000000000000000000000000000000000000000000000000000000000N 00000000000NCONT   00    00000000000          00000000000000000000000000000000000000000000 000000000000000A000000000000000000000000000000000000000000000 000000000000000000000000000000000000000     00000000                                                                                                                        000000000000000000
F0010000006770400003000090059316900042505000000000000000000201502030002001DISTRIBUCIONES Y REPRESENTACIONES MANA            C000000001787700000000000000000000100010010000000000000000000000F0010000006770400320150203000101 00000000000000000000000000000000000000000000000000000000000000000000000000000000000000000000000000000000000000000N 00000000000NCONT   00    00000000000          00000000000000000000000000000000000000000000 000000000000000A000000000000000000000000000000000000000000000 000000000000000000000000000000000000000     00000000                                                                                                                        000000000000000000
F0010000006770400004000090059316900023658300000000000000000201502030002001DISTRIBUCIONES Y REPRESENTACIONES MANA            C000000000089000000000000000000000100010010000000000000000000000F0010000006770400420150203000101 00000000000000000000000000000000000000000000000000000000000000000000000000000000000000000000000000000000000000000N 00000000000NCONT   00    00000000000          00000000000000000000000000000000000000000000 000000000000000A000000000000000000000000000000000000000000000 000000000000000000000000000000000000000     00000000                                                                                                                        000000000000000000
F0010000006770400005000090059316900013552100000000000000000201502030002001DISTRIBUCIONES Y REPRESENTACIONES MANA            D000000000089000000000000000000000100010010000000000000000000000F0010000006770400520150203000101 00000000000000000000000000000000000000000000000000000000000000000000000000000000000000000000000000000000000000000N 00000000000NCONT   00    00000000000          00000000000000000000000000000000000000000000 000000000000000A000000000000000000000000000000000000000000000 000000000000000000000000000000000000000     00000000                                                                                                                        000000000000000000
F0010000006770500001000080200225800013050500000000000000000201502030002001PERF. TECNICOS DE LA COSTA S.A.S                  D000000053734000000000000000000000100010010000000000000000000000F0010000006770500120150203000101 00000000000000000000000000000000000000000000000000000000000000000000000000000000000000000000000000000000000000000N 00000000000NCONT   00    00000000000          00000000000000000000000000000000000000000000 000000000000000A000000000000000000000000000000000000000000000 000000000000000000000000000000000000000     00000000                                                                                                                        000000000000000000
F0010000006770500002000080200225800041450500000000000000000201502030002001PERF. TECNICOS DE LA COSTA S.A.S                  C000000045217700000000000000000000100010010000000000000000000000F0010000006770500220150203000101 00000000000000000000000000000000000000000000000000000000000000000000000000000000000000000000000000000000000000000N 00000000000NCONT   00    00000000000          00000000000000000000000000000000000000000000 000000000000000A000000000000000000000000000000000000000000000 000000000000000000000000000000000000000     00000000                                                                                                                        000000000000000000
F0010000006770500003000080200225800042505000000000000000000201502030002001PERF. TECNICOS DE LA COSTA S.A.S                  C000000008516300000000000000000000100010010000000000000000000000F0010000006770500320150203000101 00000000000000000000000000000000000000000000000000000000000000000000000000000000000000000000000000000000000000000N 00000000000NCONT   00    00000000000          00000000000000000000000000000000000000000000 000000000000000A000000000000000000000000000000000000000000000 000000000000000000000000000000000000000     00000000                                                                                                                        000000000000000000
F0010000006770500004000080200225800023658300000000000000000201502030002001PERF. TECNICOS DE LA COSTA S.A.S                  C000000000361700000000000000000000100010010000000000000000000000F0010000006770500420150203000101 00000000000000000000000000000000000000000000000000000000000000000000000000000000000000000000000000000000000000000N 00000000000NCONT   00    00000000000          00000000000000000000000000000000000000000000 000000000000000A000000000000000000000000000000000000000000000 000000000000000000000000000000000000000     00000000                                                                                                                        000000000000000000
F0010000006770500005000080200225800013552100000000000000000201502030002001PERF. TECNICOS DE LA COSTA S.A.S                  D000000000361700000000000000000000100010010000000000000000000000F0010000006770500520150203000101 00000000000000000000000000000000000000000000000000000000000000000000000000000000000000000000000000000000000000000N 00000000000NCONT   00    00000000000          00000000000000000000000000000000000000000000 000000000000000A000000000000000000000000000000000000000000000 000000000000000000000000000000000000000     00000000                                                                                                                        000000000000000000
F0010000006770600001000002245670100013050500000000000000000201502030002001YOLANDA  TOBON                                    D000000070306200000000000000000000100010010000000000000000000000F0010000006770600120150203000101 00000000000000000000000000000000000000000000000000000000000000000000000000000000000000000000000000000000000000000N 00000000000NCONT   00    00000000000          00000000000000000000000000000000000000000000 000000000000000A000000000000000000000000000000000000000000000 000000000000000000000000000000000000000     00000000                                                                                                                        000000000000000000
F0010000006770600002000002245670100041450500000000000000000201502030002001YOLANDA  TOBON                                    C000000059180000000000000000000000100010010000000000000000000000F0010000006770600220150203000101 00000000000000000000000000000000000000000000000000000000000000000000000000000000000000000000000000000000000000000N 00000000000NCONT   00    00000000000          00000000000000000000000000000000000000000000 000000000000000A000000000000000000000000000000000000000000000 000000000000000000000000000000000000000     00000000                                                                                                                        000000000000000000
F0010000006770600003000002245670100042505000000000000000000201502030002001YOLANDA  TOBON                                    C000000011126200000000000000000000100010010000000000000000000000F0010000006770600320150203000101 00000000000000000000000000000000000000000000000000000000000000000000000000000000000000000000000000000000000000000N 00000000000NCONT   00    00000000000          00000000000000000000000000000000000000000000 000000000000000A000000000000000000000000000000000000000000000 000000000000000000000000000000000000000     00000000                                                                                                                        000000000000000000
F0010000006770600004000002245670100023658300000000000000000201502030002001YOLANDA  TOBON                                    C000000000473400000000000000000000100010010000000000000000000000F0010000006770600420150203000101 00000000000000000000000000000000000000000000000000000000000000000000000000000000000000000000000000000000000000000N 00000000000NCONT   00    00000000000          00000000000000000000000000000000000000000000 000000000000000A000000000000000000000000000000000000000000000 000000000000000000000000000000000000000     00000000                                                                                                                        000000000000000000
F0010000006770600005000002245670100013552100000000000000000201502030002001YOLANDA  TOBON                                    D000000000473400000000000000000000100010010000000000000000000000F0010000006770600520150203000101 00000000000000000000000000000000000000000000000000000000000000000000000000000000000000000000000000000000000000000N 00000000000NCONT   00    00000000000          00000000000000000000000000000000000000000000 000000000000000A000000000000000000000000000000000000000000000 000000000000000000000000000000000000000     00000000                                                                                                                        000000000000000000
F0010000006770700001000000376399500013050500000000000000000201502030002001FORDPLAST                                         D000000009410000000000000000000000100010010000000000000000000000F0010000006770700120150203000101 00000000000000000000000000000000000000000000000000000000000000000000000000000000000000000000000000000000000000000N 00000000000NCONT   00    00000000000          00000000000000000000000000000000000000000000 000000000000000A000000000000000000000000000000000000000000000 000000000000000000000000000000000000000     00000000                                                                                                                        000000000000000000
F0010000006770700002000000376399500041450500000000000000000201502030002001FORDPLAST                                         C000000007260000000000000000000000100010010000000000000000000000F0010000006770700220150203000101 00000000000000000000000000000000000000000000000000000000000000000000000000000000000000000000000000000000000000000N 00000000000NCONT   00    00000000000          00000000000000000000000000000000000000000000 000000000000000A000000000000000000000000000000000000000000000 000000000000000000000000000000000000000     00000000                                                                                                                        000000000000000000
F0010000006770700003000000376399500042505000000000000000000201502030002001FORDPLAST                                         C000000002150000000000000000000000100010010000000000000000000000F0010000006770700320150203000101 00000000000000000000000000000000000000000000000000000000000000000000000000000000000000000000000000000000000000000N 00000000000NCONT   00    00000000000          00000000000000000000000000000000000000000000 000000000000000A000000000000000000000000000000000000000000000 000000000000000000000000000000000000000     00000000                                                                                                                        000000000000000000
F0010000006770700004000000376399500023658300000000000000000201502030002001FORDPLAST                                         C000000000058100000000000000000000100010010000000000000000000000F0010000006770700420150203000101 00000000000000000000000000000000000000000000000000000000000000000000000000000000000000000000000000000000000000000N 00000000000NCONT   00    00000000000          00000000000000000000000000000000000000000000 000000000000000A000000000000000000000000000000000000000000000 000000000000000000000000000000000000000     00000000                                                                                                                        000000000000000000
F0010000006770700005000000376399500013552100000000000000000201502030002001FORDPLAST                                         D000000000058100000000000000000000100010010000000000000000000000F0010000006770700520150203000101 00000000000000000000000000000000000000000000000000000000000000000000000000000000000000000000000000000000000000000N 00000000000NCONT   00    00000000000          00000000000000000000000000000000000000000000 000000000000000A000000000000000000000000000000000000000000000 000000000000000000000000000000000000000     00000000                                                                                                                        000000000000000000
F0010000006770800001000007215983800013050500000000000000000201502030002001INDUSTRIA  LAFERBE                                D000000005820000000000000000000000100010010000000000000000000000F0010000006770800120150203000101 00000000000000000000000000000000000000000000000000000000000000000000000000000000000000000000000000000000000000000N 00000000000NCONT   00    00000000000          00000000000000000000000000000000000000000000 000000000000000A000000000000000000000000000000000000000000000 000000000000000000000000000000000000000     00000000                                                                                                                        000000000000000000
F0010000006770800002000007215983800041450500000000000000000201502030002001INDUSTRIA  LAFERBE                                C000000004520000000000000000000000100010010000000000000000000000F0010000006770800220150203000101 00000000000000000000000000000000000000000000000000000000000000000000000000000000000000000000000000000000000000000N 00000000000NCONT   00    00000000000          00000000000000000000000000000000000000000000 000000000000000A000000000000000000000000000000000000000000000 000000000000000000000000000000000000000     00000000                                                                                                                        000000000000000000
F0010000006770800003000007215983800042505000000000000000000201502030002001INDUSTRIA  LAFERBE                                C000000001300000000000000000000000100010010000000000000000000000F0010000006770800320150203000101 00000000000000000000000000000000000000000000000000000000000000000000000000000000000000000000000000000000000000000N 00000000000NCONT   00    00000000000          00000000000000000000000000000000000000000000 000000000000000A000000000000000000000000000000000000000000000 000000000000000000000000000000000000000     00000000                                                                                                                        000000000000000000
F0010000006770800004000007215983800023658300000000000000000201502030002001INDUSTRIA  LAFERBE                                C000000000036200000000000000000000100010010000000000000000000000F0010000006770800420150203000101 00000000000000000000000000000000000000000000000000000000000000000000000000000000000000000000000000000000000000000N 00000000000NCONT   00    00000000000          00000000000000000000000000000000000000000000 000000000000000A000000000000000000000000000000000000000000000 000000000000000000000000000000000000000     00000000                                                                                                                        000000000000000000
F0010000006770800005000007215983800013552100000000000000000201502030002001INDUSTRIA  LAFERBE                                D000000000036200000000000000000000100010010000000000000000000000F0010000006770800520150203000101 00000000000000000000000000000000000000000000000000000000000000000000000000000000000000000000000000000000000000000N 00000000000NCONT   00    00000000000          00000000000000000000000000000000000000000000 000000000000000A000000000000000000000000000000000000000000000 000000000000000000000000000000000000000     00000000                                                                                                                        000000000000000000
F0010000006770900001000080200962900013050500000000000000000201502030002001ACERO & MALLAS S.A.S.                             D000000009075600000000000000000000100010010000000000000000000000F0010000006770900120150203000101 00000000000000000000000000000000000000000000000000000000000000000000000000000000000000000000000000000000000000000N 00000000000NCONT   00    00000000000          00000000000000000000000000000000000000000000 000000000000000A000000000000000000000000000000000000000000000 000000000000000000000000000000000000000     00000000                                                                                                                        000000000000000000
F0010000006770900002000080200962900041450500000000000000000201502030002001ACERO & MALLAS S.A.S.                             C000000008470000000000000000000000100010010000000000000000000000F0010000006770900220150203000101 00000000000000000000000000000000000000000000000000000000000000000000000000000000000000000000000000000000000000000N 00000000000NCONT   00    00000000000          00000000000000000000000000000000000000000000 000000000000000A000000000000000000000000000000000000000000000 000000000000000000000000000000000000000     00000000                                                                                                                        000000000000000000
F0010000006770900003000080200962900042505000000000000000000201502030002001ACERO & MALLAS S.A.S.                             C000000000605600000000000000000000100010010000000000000000000000F0010000006770900320150203000101 00000000000000000000000000000000000000000000000000000000000000000000000000000000000000000000000000000000000000000N 00000000000NCONT   00    00000000000          00000000000000000000000000000000000000000000 000000000000000A000000000000000000000000000000000000000000000 000000000000000000000000000000000000000     00000000                                                                                                                        000000000000000000
F0010000006770900004000080200962900023658300000000000000000201502030002001ACERO & MALLAS S.A.S.                             C000000000067800000000000000000000100010010000000000000000000000F0010000006770900420150203000101 00000000000000000000000000000000000000000000000000000000000000000000000000000000000000000000000000000000000000000N 00000000000NCONT   00    00000000000          00000000000000000000000000000000000000000000 000000000000000A000000000000000000000000000000000000000000000 000000000000000000000000000000000000000     00000000                                                                                                                        000000000000000000
F0010000006770900005000080200962900013552100000000000000000201502030002001ACERO & MALLAS S.A.S.                             D000000000067800000000000000000000100010010000000000000000000000F0010000006770900520150203000101 00000000000000000000000000000000000000000000000000000000000000000000000000000000000000000000000000000000000000000N 00000000000NCONT   00    00000000000          00000000000000000000000000000000000000000000 000000000000000A000000000000000000000000000000000000000000000 000000000000000000000000000000000000000     00000000                                                                                                                        000000000000000000
F0010000006771000001000000876579700013050500000000000000000201502030002001JOSE LUIS MUÑOZ                                  D000000004100000000000000000000000100010010000000000000000000000F0010000006771000120150203000101 00000000000000000000000000000000000000000000000000000000000000000000000000000000000000000000000000000000000000000N 00000000000NCONT   00    00000000000          00000000000000000000000000000000000000000000 000000000000000A000000000000000000000000000000000000000000000 000000000000000000000000000000000000000     00000000                                                                                                                        000000000000000000
F0010000006771000002000000876579700041450500000000000000000201502030002001JOSE LUIS MUÑOZ                                  C000000003800000000000000000000000100010010000000000000000000000F0010000006771000220150203000101 00000000000000000000000000000000000000000000000000000000000000000000000000000000000000000000000000000000000000000N 00000000000NCONT   00    00000000000          00000000000000000000000000000000000000000000 000000000000000A000000000000000000000000000000000000000000000 000000000000000000000000000000000000000     00000000                                                                                                                        000000000000000000
F0010000006771000003000000876579700042505000000000000000000201502030002001JOSE LUIS MUÑOZ                                  C000000000300000000000000000000000100010010000000000000000000000F0010000006771000320150203000101 00000000000000000000000000000000000000000000000000000000000000000000000000000000000000000000000000000000000000000N 00000000000NCONT   00    00000000000          00000000000000000000000000000000000000000000 000000000000000A000000000000000000000000000000000000000000000 000000000000000000000000000000000000000     00000000                                                                                                                        000000000000000000
F0010000006771000004000000876579700023658300000000000000000201502030002001JOSE LUIS MUÑOZ                                  C000000000030400000000000000000000100010010000000000000000000000F0010000006771000420150203000101 00000000000000000000000000000000000000000000000000000000000000000000000000000000000000000000000000000000000000000N 00000000000NCONT   00    00000000000          00000000000000000000000000000000000000000000 000000000000000A000000000000000000000000000000000000000000000 000000000000000000000000000000000000000     00000000                                                                                                                        000000000000000000
F0010000006771000005000000876579700013552100000000000000000201502030002001JOSE LUIS MUÑOZ                                  D000000000030400000000000000000000100010010000000000000000000000F0010000006771000520150203000101 00000000000000000000000000000000000000000000000000000000000000000000000000000000000000000000000000000000000000000N 00000000000NCONT   00    00000000000          00000000000000000000000000000000000000000000 000000000000000A000000000000000000000000000000000000000000000 000000000000000000000000000000000000000     00000000                                                                                                                        000000000000000000
F0010000006771100001000089070997800013050500000000000000000201502030002001CENTRAL DE TORNILLOS                              D000000018830000000000000000000000100010010000000000000000000000F0010000006771100120150203000101 00000000000000000000000000000000000000000000000000000000000000000000000000000000000000000000000000000000000000000N 00000000000NCONT   00    00000000000          00000000000000000000000000000000000000000000 000000000000000A000000000000000000000000000000000000000000000 000000000000000000000000000000000000000     00000000                                                                                                                        000000000000000000
F0010000006771100002000089070997800041450500000000000000000201502030002001CENTRAL DE TORNILLOS                              C000000016880000000000000000000000100010010000000000000000000000F0010000006771100220150203000101 00000000000000000000000000000000000000000000000000000000000000000000000000000000000000000000000000000000000000000N 00000000000NCONT   00    00000000000          00000000000000000000000000000000000000000000 000000000000000A000000000000000000000000000000000000000000000 000000000000000000000000000000000000000     00000000                                                                                                                        000000000000000000
F0010000006771100003000089070997800042505000000000000000000201502030002001CENTRAL DE TORNILLOS                              C000000001950000000000000000000000100010010000000000000000000000F0010000006771100320150203000101 00000000000000000000000000000000000000000000000000000000000000000000000000000000000000000000000000000000000000000N 00000000000NCONT   00    00000000000          00000000000000000000000000000000000000000000 000000000000000A000000000000000000000000000000000000000000000 000000000000000000000000000000000000000     00000000                                                                                                                        000000000000000000
F0010000006771100004000089070997800023658300000000000000000201502030002001CENTRAL DE TORNILLOS                              C000000000135000000000000000000000100010010000000000000000000000F0010000006771100420150203000101 00000000000000000000000000000000000000000000000000000000000000000000000000000000000000000000000000000000000000000N 00000000000NCONT   00    00000000000          00000000000000000000000000000000000000000000 000000000000000A000000000000000000000000000000000000000000000 000000000000000000000000000000000000000     00000000                                                                                                                        000000000000000000
F0010000006771100005000089070997800013552100000000000000000201502030002001CENTRAL DE TORNILLOS                              D000000000135000000000000000000000100010010000000000000000000000F0010000006771100520150203000101 00000000000000000000000000000000000000000000000000000000000000000000000000000000000000000000000000000000000000000N 00000000000NCONT   00    00000000000          00000000000000000000000000000000000000000000 000000000000000A000000000000000000000000000000000000000000000 000000000000000000000000000000000000000     00000000                                                                                                                        000000000000000000
F0010000006771200001000086004413600011050500000000000000000201502030002001ESPAñOLA S.A.                                    D000000003000000000000000000000000100010010000000000000000000000F0010000006771200120150203000101 00000000000000000000000000000000000000000000000000000000000000000000000000000000000000000000000000000000000000000N 00000000000NCONT   00    00000000000          00000000000000000000000000000000000000000000 000000000000000A000000000000000000000000000000000000000000000 000000000000000000000000000000000000000     00000000                                                                                                                        000000000000000000
F0010000006771200002000086004413600041450500000000000000000201502030002001ESPAñOLA S.A.                                    C000000002800000000000000000000000100010010000000000000000000000F0010000006771200220150203000101 00000000000000000000000000000000000000000000000000000000000000000000000000000000000000000000000000000000000000000N 00000000000NCONT   00    00000000000          00000000000000000000000000000000000000000000 000000000000000A000000000000000000000000000000000000000000000 000000000000000000000000000000000000000     00000000                                                                                                                        000000000000000000
F0010000006771200003000086004413600042505000000000000000000201502030002001ESPAñOLA S.A.                                    C000000000200000000000000000000000100010010000000000000000000000F0010000006771200320150203000101 00000000000000000000000000000000000000000000000000000000000000000000000000000000000000000000000000000000000000000N 00000000000NCONT   00    00000000000          00000000000000000000000000000000000000000000 000000000000000A000000000000000000000000000000000000000000000 000000000000000000000000000000000000000     00000000                                                                                                                        000000000000000000
F0010000006771200004000086004413600023658300000000000000000201502030002001ESPAñOLA S.A.                                    C000000000022400000000000000000000100010010000000000000000000000F0010000006771200420150203000101 00000000000000000000000000000000000000000000000000000000000000000000000000000000000000000000000000000000000000000N 00000000000NCONT   00    00000000000          00000000000000000000000000000000000000000000 000000000000000A000000000000000000000000000000000000000000000 000000000000000000000000000000000000000     00000000                                                                                                                        000000000000000000
F0010000006771200005000086004413600013552100000000000000000201502030002001ESPAñOLA S.A.                                    D000000000022400000000000000000000100010010000000000000000000000F0010000006771200520150203000101 00000000000000000000000000000000000000000000000000000000000000000000000000000000000000000000000000000000000000000N 00000000000NCONT   00    00000000000          00000000000000000000000000000000000000000000 000000000000000A000000000000000000000000000000000000000000000 000000000000000000000000000000000000000     00000000                                                                                                                        000000000000000000
F0010000006771300001000083001155300013050500000000000000000201502030002001COMERCIALIZADORA RUBEN S LTDA                     D000000026571200000000000000000000100010010000000000000000000000F0010000006771300120150203000101 00000000000000000000000000000000000000000000000000000000000000000000000000000000000000000000000000000000000000000N 00000000000NCONT   00    00000000000          00000000000000000000000000000000000000000000 000000000000000A000000000000000000000000000000000000000000000 000000000000000000000000000000000000000     00000000                                                                                                                        000000000000000000
F0010000006771300002000083001155300041450500000000000000000201502030002001COMERCIALIZADORA RUBEN S LTDA                     C000000023814000000000000000000000100010010000000000000000000000F0010000006771300220150203000101 00000000000000000000000000000000000000000000000000000000000000000000000000000000000000000000000000000000000000000N 00000000000NCONT   00    00000000000          00000000000000000000000000000000000000000000 000000000000000A000000000000000000000000000000000000000000000 000000000000000000000000000000000000000     00000000                                                                                                                        000000000000000000
F0010000006771300003000083001155300042505000000000000000000201502030002001COMERCIALIZADORA RUBEN S LTDA                     C000000002757200000000000000000000100010010000000000000000000000F0010000006771300320150203000101 00000000000000000000000000000000000000000000000000000000000000000000000000000000000000000000000000000000000000000N 00000000000NCONT   00    00000000000          00000000000000000000000000000000000000000000 000000000000000A000000000000000000000000000000000000000000000 000000000000000000000000000000000000000     00000000                                                                                                                        000000000000000000
F0010000006771300004000083001155300023658300000000000000000201502030002001COMERCIALIZADORA RUBEN S LTDA                     C000000000190500000000000000000000100010010000000000000000000000F0010000006771300420150203000101 00000000000000000000000000000000000000000000000000000000000000000000000000000000000000000000000000000000000000000N 00000000000NCONT   00    00000000000          00000000000000000000000000000000000000000000 000000000000000A000000000000000000000000000000000000000000000 000000000000000000000000000000000000000     00000000                                                                                                                        000000000000000000
F0010000006771300005000083001155300013552100000000000000000201502030002001COMERCIALIZADORA RUBEN S LTDA                     D000000000190500000000000000000000100010010000000000000000000000F0010000006771300520150203000101 00000000000000000000000000000000000000000000000000000000000000000000000000000000000000000000000000000000000000000N 00000000000NCONT   00    00000000000          00000000000000000000000000000000000000000000 000000000000000A000000000000000000000000000000000000000000000 000000000000000000000000000000000000000     00000000                                                                                                                        000000000000000000
F0010000006771400001000080201601700013050500000000000000000201502030002001PLASTICOS SUPERIOR S.A.                           D000000001258300000000000000000000100010010000000000000000000000F0010000006771400120150203000101 00000000000000000000000000000000000000000000000000000000000000000000000000000000000000000000000000000000000000000N 00000000000NCONT   00    00000000000          00000000000000000000000000000000000000000000 000000000000000A000000000000000000000000000000000000000000000 000000000000000000000000000000000000000     00000000                                                                                                                        000000000000000000
F0010000006771400002000080201601700041450500000000000000000201502030002001PLASTICOS SUPERIOR S.A.                           C000000000990000000000000000000000100010010000000000000000000000F0010000006771400220150203000101 00000000000000000000000000000000000000000000000000000000000000000000000000000000000000000000000000000000000000000N 00000000000NCONT   00    00000000000          00000000000000000000000000000000000000000000 000000000000000A000000000000000000000000000000000000000000000 000000000000000000000000000000000000000     00000000                                                                                                                        000000000000000000
F0010000006771400003000080201601700042505000000000000000000201502030002001PLASTICOS SUPERIOR S.A.                           C000000000268300000000000000000000100010010000000000000000000000F0010000006771400320150203000101 00000000000000000000000000000000000000000000000000000000000000000000000000000000000000000000000000000000000000000N 00000000000NCONT   00    00000000000          00000000000000000000000000000000000000000000 000000000000000A000000000000000000000000000000000000000000000 000000000000000000000000000000000000000     00000000                                                                                                                        000000000000000000
F0010000006771400004000080201601700023658300000000000000000201502030002001PLASTICOS SUPERIOR S.A.                           C000000000007900000000000000000000100010010000000000000000000000F0010000006771400420150203000101 00000000000000000000000000000000000000000000000000000000000000000000000000000000000000000000000000000000000000000N 00000000000NCONT   00    00000000000          00000000000000000000000000000000000000000000 000000000000000A000000000000000000000000000000000000000000000 000000000000000000000000000000000000000     00000000                                                                                                                        000000000000000000
F0010000006771400005000080201601700013552100000000000000000201502030002001PLASTICOS SUPERIOR S.A.                           D000000000007900000000000000000000100010010000000000000000000000F0010000006771400520150203000101 00000000000000000000000000000000000000000000000000000000000000000000000000000000000000000000000000000000000000000N 00000000000NCONT   00    00000000000          00000000000000000000000000000000000000000000 000000000000000A000000000000000000000000000000000000000000000 000000000000000000000000000000000000000     00000000                                                                                                                        000000000000000000
F0010000006771500001000090060531100013050500000000000000000201502030002001RECUBRIMIENTO ESENCIALES SAS                      D000000023760000000000000000000000100010010000000000000000000000F0010000006771500120150203000101 00000000000000000000000000000000000000000000000000000000000000000000000000000000000000000000000000000000000000000N 00000000000NCONT   00    00000000000          00000000000000000000000000000000000000000000 000000000000000A000000000000000000000000000000000000000000000 000000000000000000000000000000000000000     00000000                                                                                                                        000000000000000000
F0010000006771500002000090060531100041450500000000000000000201502030002001RECUBRIMIENTO ESENCIALES SAS                      C000000022260000000000000000000000100010010000000000000000000000F0010000006771500220150203000101 00000000000000000000000000000000000000000000000000000000000000000000000000000000000000000000000000000000000000000N 00000000000NCONT   00    00000000000          00000000000000000000000000000000000000000000 000000000000000A000000000000000000000000000000000000000000000 000000000000000000000000000000000000000     00000000                                                                                                                        000000000000000000
F0010000006771500003000090060531100042505000000000000000000201502030002001RECUBRIMIENTO ESENCIALES SAS                      C000000001500000000000000000000000100010010000000000000000000000F0010000006771500320150203000101 00000000000000000000000000000000000000000000000000000000000000000000000000000000000000000000000000000000000000000N 00000000000NCONT   00    00000000000          00000000000000000000000000000000000000000000 000000000000000A000000000000000000000000000000000000000000000 000000000000000000000000000000000000000     00000000                                                                                                                        000000000000000000
F0010000006771500004000090060531100023658300000000000000000201502030002001RECUBRIMIENTO ESENCIALES SAS                      C000000000178100000000000000000000100010010000000000000000000000F0010000006771500420150203000101 00000000000000000000000000000000000000000000000000000000000000000000000000000000000000000000000000000000000000000N 00000000000NCONT   00    00000000000          00000000000000000000000000000000000000000000 000000000000000A000000000000000000000000000000000000000000000 000000000000000000000000000000000000000     00000000                                                                                                                        000000000000000000
F0010000006771500005000090060531100013552100000000000000000201502030002001RECUBRIMIENTO ESENCIALES SAS                      D000000000178100000000000000000000100010010000000000000000000000F0010000006771500520150203000101 00000000000000000000000000000000000000000000000000000000000000000000000000000000000000000000000000000000000000000N 00000000000NCONT   00    00000000000          00000000000000000000000000000000000000000000 000000000000000A000000000000000000000000000000000000000000000 000000000000000000000000000000000000000     00000000                                                                                                                        000000000000000000
F0010000006771600001000080200375500013050500000000000000000201502030002001DISVINIL LTDA                                     D000000075165500000000000000000000100010010000000000000000000000F0010000006771600120150203000101 00000000000000000000000000000000000000000000000000000000000000000000000000000000000000000000000000000000000000000N 00000000000NCONT   00    00000000000          00000000000000000000000000000000000000000000 000000000000000A000000000000000000000000000000000000000000000 000000000000000000000000000000000000000     00000000                                                                                                                        000000000000000000
F0010000006771600002000080200375500041450500000000000000000201502030002001DISVINIL LTDA                                     C000000061410000000000000000000000100010010000000000000000000000F0010000006771600220150203000101 00000000000000000000000000000000000000000000000000000000000000000000000000000000000000000000000000000000000000000N 00000000000NCONT   00    00000000000          00000000000000000000000000000000000000000000 000000000000000A000000000000000000000000000000000000000000000 000000000000000000000000000000000000000     00000000                                                                                                                        000000000000000000
F0010000006771600003000080200375500042505000000000000000000201502030002001DISVINIL LTDA                                     C000000013755500000000000000000000100010010000000000000000000000F0010000006771600320150203000101 00000000000000000000000000000000000000000000000000000000000000000000000000000000000000000000000000000000000000000N 00000000000NCONT   00    00000000000          00000000000000000000000000000000000000000000 000000000000000A000000000000000000000000000000000000000000000 000000000000000000000000000000000000000     00000000                                                                                                                        000000000000000000
F0010000006771600004000080200375500023658300000000000000000201502030002001DISVINIL LTDA                                     C000000000491300000000000000000000100010010000000000000000000000F0010000006771600420150203000101 00000000000000000000000000000000000000000000000000000000000000000000000000000000000000000000000000000000000000000N 00000000000NCONT   00    00000000000          00000000000000000000000000000000000000000000 000000000000000A000000000000000000000000000000000000000000000 000000000000000000000000000000000000000     00000000                                                                                                                        000000000000000000
F0010000006771600005000080200375500013552100000000000000000201502030002001DISVINIL LTDA                                     D000000000491300000000000000000000100010010000000000000000000000F0010000006771600520150203000101 00000000000000000000000000000000000000000000000000000000000000000000000000000000000000000000000000000000000000000N 00000000000NCONT   00    00000000000          00000000000000000000000000000000000000000000 000000000000000A000000000000000000000000000000000000000000000 000000000000000000000000000000000000000     00000000                                                                                                                        000000000000000000
F0010000006771700001000080002300200013050500000000000000000201502030002001DISREL S.A.                                       D000000008850000000000000000000000100010010000000000000000000000F0010000006771700120150203000101 00000000000000000000000000000000000000000000000000000000000000000000000000000000000000000000000000000000000000000N 00000000000NCONT   00    00000000000          00000000000000000000000000000000000000000000 000000000000000A000000000000000000000000000000000000000000000 000000000000000000000000000000000000000     00000000                                                                                                                        000000000000000000
F0010000006771700002000080002300200041450500000000000000000201502030002001DISREL S.A.                                       C000000006700000000000000000000000100010010000000000000000000000F0010000006771700220150203000101 00000000000000000000000000000000000000000000000000000000000000000000000000000000000000000000000000000000000000000N 00000000000NCONT   00    00000000000          00000000000000000000000000000000000000000000 000000000000000A000000000000000000000000000000000000000000000 000000000000000000000000000000000000000     00000000                                                                                                                        000000000000000000
F0010000006771700003000080002300200042505000000000000000000201502030002001DISREL S.A.                                       C000000002150000000000000000000000100010010000000000000000000000F0010000006771700320150203000101 00000000000000000000000000000000000000000000000000000000000000000000000000000000000000000000000000000000000000000N 00000000000NCONT   00    00000000000          00000000000000000000000000000000000000000000 000000000000000A000000000000000000000000000000000000000000000 000000000000000000000000000000000000000     00000000                                                                                                                        000000000000000000
F0010000006771700004000080002300200023658300000000000000000201502030002001DISREL S.A.                                       C000000000053600000000000000000000100010010000000000000000000000F0010000006771700420150203000101 00000000000000000000000000000000000000000000000000000000000000000000000000000000000000000000000000000000000000000N 00000000000NCONT   00    00000000000          00000000000000000000000000000000000000000000 000000000000000A000000000000000000000000000000000000000000000 000000000000000000000000000000000000000     00000000                                                                                                                        000000000000000000
F0010000006771700005000080002300200013552100000000000000000201502030002001DISREL S.A.                                       D000000000053600000000000000000000100010010000000000000000000000F0010000006771700520150203000101 00000000000000000000000000000000000000000000000000000000000000000000000000000000000000000000000000000000000000000N 00000000000NCONT   00    00000000000          00000000000000000000000000000000000000000000 000000000000000A000000000000000000000000000000000000000000000 000000000000000000000000000000000000000     00000000                                                                                                                        000000000000000000
F0010000006771800001000080016664500013050500000000000000000201502030002001TELAPLAS PANCER SAS                               D000000033922000000000000000000000100010010000000000000000000000F0010000006771800120150203000101 00000000000000000000000000000000000000000000000000000000000000000000000000000000000000000000000000000000000000000N 00000000000NCONT   00    00000000000          00000000000000000000000000000000000000000000 000000000000000A000000000000000000000000000000000000000000000 000000000000000000000000000000000000000     00000000                                                                                                                        000000000000000000
F0010000006771800002000080016664500041450500000000000000000201502030002001TELAPLAS PANCER SAS                               C000000028020000000000000000000000100010010000000000000000000000F0010000006771800220150203000101 00000000000000000000000000000000000000000000000000000000000000000000000000000000000000000000000000000000000000000N 00000000000NCONT   00    00000000000          00000000000000000000000000000000000000000000 000000000000000A000000000000000000000000000000000000000000000 000000000000000000000000000000000000000     00000000                                                                                                                        000000000000000000
F0010000006771800003000080016664500042505000000000000000000201502030002001TELAPLAS PANCER SAS                               C000000005902000000000000000000000100010010000000000000000000000F0010000006771800320150203000101 00000000000000000000000000000000000000000000000000000000000000000000000000000000000000000000000000000000000000000N 00000000000NCONT   00    00000000000          00000000000000000000000000000000000000000000 000000000000000A000000000000000000000000000000000000000000000 000000000000000000000000000000000000000     00000000                                                                                                                        000000000000000000
F0010000006771800004000080016664500023658300000000000000000201502030002001TELAPLAS PANCER SAS                               C000000000224200000000000000000000100010010000000000000000000000F0010000006771800420150203000101 00000000000000000000000000000000000000000000000000000000000000000000000000000000000000000000000000000000000000000N 00000000000NCONT   00    00000000000          00000000000000000000000000000000000000000000 000000000000000A000000000000000000000000000000000000000000000 000000000000000000000000000000000000000     00000000                                                                                                                        000000000000000000
F0010000006771800005000080016664500013552100000000000000000201502030002001TELAPLAS PANCER SAS                               D000000000224200000000000000000000100010010000000000000000000000F0010000006771800520150203000101 00000000000000000000000000000000000000000000000000000000000000000000000000000000000000000000000000000000000000000N 00000000000NCONT   00    00000000000          00000000000000000000000000000000000000000000 000000000000000A000000000000000000000000000000000000000000000 000000000000000000000000000000000000000     00000000                                                                                                                        000000000000000000
F0010000006771900001000080023327700013050500000000000000000201502030002001DISINCO LTDA                                      D000000003954700000000000000000000100010010000000000000000000000F0010000006771900120150203000101 00000000000000000000000000000000000000000000000000000000000000000000000000000000000000000000000000000000000000000N 00000000000NCONT   00    00000000000          00000000000000000000000000000000000000000000 000000000000000A000000000000000000000000000000000000000000000 000000000000000000000000000000000000000     00000000                                                                                                                        000000000000000000
F0010000006771900002000080023327700041450500000000000000000201502030002001DISINCO LTDA                                      C000000003696000000000000000000000100010010000000000000000000000F0010000006771900220150203000101 00000000000000000000000000000000000000000000000000000000000000000000000000000000000000000000000000000000000000000N 00000000000NCONT   00    00000000000          00000000000000000000000000000000000000000000 000000000000000A000000000000000000000000000000000000000000000 000000000000000000000000000000000000000     00000000                                                                                                                        000000000000000000
F0010000006771900003000080023327700042505000000000000000000201502030002001DISINCO LTDA                                      C000000000258700000000000000000000100010010000000000000000000000F0010000006771900320150203000101 00000000000000000000000000000000000000000000000000000000000000000000000000000000000000000000000000000000000000000N 00000000000NCONT   00    00000000000          00000000000000000000000000000000000000000000 000000000000000A000000000000000000000000000000000000000000000 000000000000000000000000000000000000000     00000000                                                                                                                        000000000000000000
F0010000006771900004000080023327700023658300000000000000000201502030002001DISINCO LTDA                                      C000000000029600000000000000000000100010010000000000000000000000F0010000006771900420150203000101 00000000000000000000000000000000000000000000000000000000000000000000000000000000000000000000000000000000000000000N 00000000000NCONT   00    00000000000          00000000000000000000000000000000000000000000 000000000000000A000000000000000000000000000000000000000000000 000000000000000000000000000000000000000     00000000                                                                                                                        000000000000000000
F0010000006771900005000080023327700013552100000000000000000201502030002001DISINCO LTDA                                      D000000000029600000000000000000000100010010000000000000000000000F0010000006771900520150203000101 00000000000000000000000000000000000000000000000000000000000000000000000000000000000000000000000000000000000000000N 00000000000NCONT   00    00000000000          00000000000000000000000000000000000000000000 000000000000000A000000000000000000000000000000000000000000000 000000000000000000000000000000000000000     00000000                                                                                                                        000000000000000000
F0010000006772000001000090064982900013050500000000000000000201502030002001DISDIES S.A.S                                     D000000071751600000000000000000000100010010000000000000000000000F0010000006772000120150203000101 00000000000000000000000000000000000000000000000000000000000000000000000000000000000000000000000000000000000000000N 00000000000NCONT   00    00000000000          00000000000000000000000000000000000000000000 000000000000000A000000000000000000000000000000000000000000000 000000000000000000000000000000000000000     00000000                                                                                                                        000000000000000000
F0010000006772000002000090064982900041450500000000000000000201502030002001DISDIES S.A.S                                     C000000063232800000000000000000000100010010000000000000000000000F0010000006772000220150203000101 00000000000000000000000000000000000000000000000000000000000000000000000000000000000000000000000000000000000000000N 00000000000NCONT   00    00000000000          00000000000000000000000000000000000000000000 000000000000000A000000000000000000000000000000000000000000000 000000000000000000000000000000000000000     00000000                                                                                                                        000000000000000000
F0010000006772000003000090064982900042505000000000000000000201502030002001DISDIES S.A.S                                     C000000008518800000000000000000000100010010000000000000000000000F0010000006772000320150203000101 00000000000000000000000000000000000000000000000000000000000000000000000000000000000000000000000000000000000000000N 00000000000NCONT   00    00000000000          00000000000000000000000000000000000000000000 000000000000000A000000000000000000000000000000000000000000000 000000000000000000000000000000000000000     00000000                                                                                                                        000000000000000000
F0010000006772000004000090064982900023658300000000000000000201502030002001DISDIES S.A.S                                     C000000000505900000000000000000000100010010000000000000000000000F0010000006772000420150203000101 00000000000000000000000000000000000000000000000000000000000000000000000000000000000000000000000000000000000000000N 00000000000NCONT   00    00000000000          00000000000000000000000000000000000000000000 000000000000000A000000000000000000000000000000000000000000000 000000000000000000000000000000000000000     00000000                                                                                                                        000000000000000000
F0010000006772000005000090064982900013552100000000000000000201502030002001DISDIES S.A.S                                     D000000000505900000000000000000000100010010000000000000000000000F0010000006772000520150203000101 00000000000000000000000000000000000000000000000000000000000000000000000000000000000000000000000000000000000000000N 00000000000NCONT   00    00000000000          00000000000000000000000000000000000000000000 000000000000000A000000000000000000000000000000000000000000000 000000000000000000000000000000000000000     00000000                                                                                                                        000000000000000000
F0010000006772200001000089010526900013050500000000000000000201502030002001DISTRIBUCIONES CANAL Y CIA S.A.S                  D000000025703800000000000000000000100010010000000000000000000000F0010000006772200120150203000101 00000000000000000000000000000000000000000000000000000000000000000000000000000000000000000000000000000000000000000N 00000000000NCONT   00    00000000000          00000000000000000000000000000000000000000000 000000000000000A000000000000000000000000000000000000000000000 000000000000000000000000000000000000000     00000000                                                                                                                        000000000000000000
F0010000006772200002000089010526900041450500000000000000000201502030002001DISTRIBUCIONES CANAL Y CIA S.A.S                  C000000016760000000000000000000000100010010000000000000000000000F0010000006772200220150203000101 00000000000000000000000000000000000000000000000000000000000000000000000000000000000000000000000000000000000000000N 00000000000NCONT   00    00000000000          00000000000000000000000000000000000000000000 000000000000000A000000000000000000000000000000000000000000000 000000000000000000000000000000000000000     00000000                                                                                                                        000000000000000000
F0010000006772200003000089010526900042505000000000000000000201502030002001DISTRIBUCIONES CANAL Y CIA S.A.S                  C000000008943800000000000000000000100010010000000000000000000000F0010000006772200320150203000101 00000000000000000000000000000000000000000000000000000000000000000000000000000000000000000000000000000000000000000N 00000000000NCONT   00    00000000000          00000000000000000000000000000000000000000000 000000000000000A000000000000000000000000000000000000000000000 000000000000000000000000000000000000000     00000000                                                                                                                        000000000000000000
F0010000006772200004000089010526900023658300000000000000000201502030002001DISTRIBUCIONES CANAL Y CIA S.A.S                  C000000000134100000000000000000000100010010000000000000000000000F0010000006772200420150203000101 00000000000000000000000000000000000000000000000000000000000000000000000000000000000000000000000000000000000000000N 00000000000NCONT   00    00000000000          00000000000000000000000000000000000000000000 000000000000000A000000000000000000000000000000000000000000000 000000000000000000000000000000000000000     00000000                                                                                                                        000000000000000000
F0010000006772200005000089010526900013552100000000000000000201502030002001DISTRIBUCIONES CANAL Y CIA S.A.S                  D000000000134100000000000000000000100010010000000000000000000000F0010000006772200520150203000101 00000000000000000000000000000000000000000000000000000000000000000000000000000000000000000000000000000000000000000N 00000000000NCONT   00    00000000000          00000000000000000000000000000000000000000000 000000000000000A000000000000000000000000000000000000000000000 000000000000000000000000000000000000000     00000000                                                                                                                        000000000000000000
F0010000006772300001000080004943800013050500000000000000000201502030002001PAPELERIA EL CID S.A.                             D000000037357500000000000000000000100010010000000000000000000000F0010000006772300120150203000101 00000000000000000000000000000000000000000000000000000000000000000000000000000000000000000000000000000000000000000N 00000000000NCONT   00    00000000000          00000000000000000000000000000000000000000000 000000000000000A000000000000000000000000000000000000000000000 000000000000000000000000000000000000000     00000000                                                                                                                        000000000000000000
F0010000006772300002000080004943800041450500000000000000000201502030002001PAPELERIA EL CID S.A.                             C000000033500000000000000000000000100010010000000000000000000000F0010000006772300220150203000101 00000000000000000000000000000000000000000000000000000000000000000000000000000000000000000000000000000000000000000N 00000000000NCONT   00    00000000000          00000000000000000000000000000000000000000000 000000000000000A000000000000000000000000000000000000000000000 000000000000000000000000000000000000000     00000000                                                                                                                        000000000000000000
F0010000006772300003000080004943800042505000000000000000000201502030002001PAPELERIA EL CID S.A.                             C000000003857500000000000000000000100010010000000000000000000000F0010000006772300320150203000101 00000000000000000000000000000000000000000000000000000000000000000000000000000000000000000000000000000000000000000N 00000000000NCONT   00    00000000000          00000000000000000000000000000000000000000000 000000000000000A000000000000000000000000000000000000000000000 000000000000000000000000000000000000000     00000000                                                                                                                        000000000000000000
F0010000006772300004000080004943800023658300000000000000000201502030002001PAPELERIA EL CID S.A.                             C000000000268000000000000000000000100010010000000000000000000000F0010000006772300420150203000101 00000000000000000000000000000000000000000000000000000000000000000000000000000000000000000000000000000000000000000N 00000000000NCONT   00    00000000000          00000000000000000000000000000000000000000000 000000000000000A000000000000000000000000000000000000000000000 000000000000000000000000000000000000000     00000000                                                                                                                        000000000000000000
F0010000006772300005000080004943800013552100000000000000000201502030002001PAPELERIA EL CID S.A.                             D000000000268000000000000000000000100010010000000000000000000000F0010000006772300520150203000101 00000000000000000000000000000000000000000000000000000000000000000000000000000000000000000000000000000000000000000N 00000000000NCONT   00    00000000000          00000000000000000000000000000000000000000000 000000000000000A000000000000000000000000000000000000000000000 000000000000000000000000000000000000000     00000000                                                                                                                        000000000000000000
F0010000006772400001000080022903500013050500000000000000000201502030002001TECNOGLASS S.A                                    D000000149089600000000000000000000100010010000000000000000000000F0010000006772400120150203000101 00000000000000000000000000000000000000000000000000000000000000000000000000000000000000000000000000000000000000000N 00000000000NCONT   00    00000000000          00000000000000000000000000000000000000000000 000000000000000A000000000000000000000000000000000000000000000 000000000000000000000000000000000000000     00000000                                                                                                                        000000000000000000
F0010000006772400002000080022903500041450500000000000000000201502030002001TECNOGLASS S.A                                    C000000133518100000000000000000000100010010000000000000000000000F0010000006772400220150203000101 00000000000000000000000000000000000000000000000000000000000000000000000000000000000000000000000000000000000000000N 00000000000NCONT   00    00000000000          00000000000000000000000000000000000000000000 000000000000000A000000000000000000000000000000000000000000000 000000000000000000000000000000000000000     00000000                                                                                                                        000000000000000000
F0010000006772400003000080022903500042505000000000000000000201502030002001TECNOGLASS S.A                                    C000000015571500000000000000000000100010010000000000000000000000F0010000006772400320150203000101 00000000000000000000000000000000000000000000000000000000000000000000000000000000000000000000000000000000000000000N 00000000000NCONT   00    00000000000          00000000000000000000000000000000000000000000 000000000000000A000000000000000000000000000000000000000000000 000000000000000000000000000000000000000     00000000                                                                                                                        000000000000000000
F0010000006772400004000080022903500023658300000000000000000201502030002001TECNOGLASS S.A                                    C000000001068100000000000000000000100010010000000000000000000000F0010000006772400420150203000101 00000000000000000000000000000000000000000000000000000000000000000000000000000000000000000000000000000000000000000N 00000000000NCONT   00    00000000000          00000000000000000000000000000000000000000000 000000000000000A000000000000000000000000000000000000000000000 000000000000000000000000000000000000000     00000000                                                                                                                        000000000000000000
F0010000006772400005000080022903500013552100000000000000000201502030002001TECNOGLASS S.A                                    D000000001068100000000000000000000100010010000000000000000000000F0010000006772400520150203000101 00000000000000000000000000000000000000000000000000000000000000000000000000000000000000000000000000000000000000000N 00000000000NCONT   00    00000000000          00000000000000000000000000000000000000000000 000000000000000A000000000000000000000000000000000000000000000 000000000000000000000000000000000000000     00000000                                                                                                                        000000000000000000
F0010000006772500001000086000490200013050500000000000000000201502030002001PROV. DE PAPELES ANDINA S.A.                      D000000016239500000000000000000000100010010000000000000000000000F0010000006772500120150203000101 00000000000000000000000000000000000000000000000000000000000000000000000000000000000000000000000000000000000000000N 00000000000NCONT   00    00000000000          00000000000000000000000000000000000000000000 000000000000000A000000000000000000000000000000000000000000000 000000000000000000000000000000000000000     00000000                                                                                                                        000000000000000000
F0010000006772500002000086000490200041450500000000000000000201502030002001PROV. DE PAPELES ANDINA S.A.                      C000000014672700000000000000000000100010010000000000000000000000F0010000006772500220150203000101 00000000000000000000000000000000000000000000000000000000000000000000000000000000000000000000000000000000000000000N 00000000000NCONT   00    00000000000          00000000000000000000000000000000000000000000 000000000000000A000000000000000000000000000000000000000000000 000000000000000000000000000000000000000     00000000                                                                                                                        000000000000000000
F0010000006772500003000086000490200042505000000000000000000201502030002001PROV. DE PAPELES ANDINA S.A.                      C000000001566800000000000000000000100010010000000000000000000000F0010000006772500320150203000101 00000000000000000000000000000000000000000000000000000000000000000000000000000000000000000000000000000000000000000N 00000000000NCONT   00    00000000000          00000000000000000000000000000000000000000000 000000000000000A000000000000000000000000000000000000000000000 000000000000000000000000000000000000000     00000000                                                                                                                        000000000000000000
F0010000006772500004000086000490200023658300000000000000000201502030002001PROV. DE PAPELES ANDINA S.A.                      C000000000117400000000000000000000100010010000000000000000000000F0010000006772500420150203000101 00000000000000000000000000000000000000000000000000000000000000000000000000000000000000000000000000000000000000000N 00000000000NCONT   00    00000000000          00000000000000000000000000000000000000000000 000000000000000A000000000000000000000000000000000000000000000 000000000000000000000000000000000000000     00000000                                                                                                                        000000000000000000
F0010000006772500005000086000490200013552100000000000000000201502030002001PROV. DE PAPELES ANDINA S.A.                      D000000000117400000000000000000000100010010000000000000000000000F0010000006772500520150203000101 00000000000000000000000000000000000000000000000000000000000000000000000000000000000000000000000000000000000000000N 00000000000NCONT   00    00000000000          00000000000000000000000000000000000000000000 000000000000000A000000000000000000000000000000000000000000000 000000000000000000000000000000000000000     00000000                                                                                                                        000000000000000000
F0010000006772600001000089190114700013050500000000000000000201502030002001SUPAPEL S.A.S                                     D000000006878400000000000000000000100010010000000000000000000000F0010000006772600120150203000101 00000000000000000000000000000000000000000000000000000000000000000000000000000000000000000000000000000000000000000N 00000000000NCONT   00    00000000000          00000000000000000000000000000000000000000000 000000000000000A000000000000000000000000000000000000000000000 000000000000000000000000000000000000000     00000000                                                                                                                        000000000000000000
F0010000006772600002000089190114700041450500000000000000000201502030002001SUPAPEL S.A.S                                     C000000006188400000000000000000000100010010000000000000000000000F0010000006772600220150203000101 00000000000000000000000000000000000000000000000000000000000000000000000000000000000000000000000000000000000000000N 00000000000NCONT   00    00000000000          00000000000000000000000000000000000000000000 000000000000000A000000000000000000000000000000000000000000000 000000000000000000000000000000000000000     00000000                                                                                                                        000000000000000000
F0010000006772600003000089190114700042505000000000000000000201502030002001SUPAPEL S.A.S                                     C000000000690000000000000000000000100010010000000000000000000000F0010000006772600320150203000101 00000000000000000000000000000000000000000000000000000000000000000000000000000000000000000000000000000000000000000N 00000000000NCONT   00    00000000000          00000000000000000000000000000000000000000000 000000000000000A000000000000000000000000000000000000000000000 000000000000000000000000000000000000000     00000000                                                                                                                        000000000000000000
F0010000006772600004000089190114700023658300000000000000000201502030002001SUPAPEL S.A.S                                     C000000000049500000000000000000000100010010000000000000000000000F0010000006772600420150203000101 00000000000000000000000000000000000000000000000000000000000000000000000000000000000000000000000000000000000000000N 00000000000NCONT   00    00000000000          00000000000000000000000000000000000000000000 000000000000000A000000000000000000000000000000000000000000000 000000000000000000000000000000000000000     00000000                                                                                                                        000000000000000000
F0010000006772600005000089190114700013552100000000000000000201502030002001SUPAPEL S.A.S                                     D000000000049500000000000000000000100010010000000000000000000000F0010000006772600520150203000101 00000000000000000000000000000000000000000000000000000000000000000000000000000000000000000000000000000000000000000N 00000000000NCONT   00    00000000000          00000000000000000000000000000000000000000000 000000000000000A000000000000000000000000000000000000000000000 000000000000000000000000000000000000000     00000000                                                                                                                        000000000000000000
F0010000006772700001000090008711200013050500000000000000000201502030002001PACKAGING SUPPLIERS S.A.                          D000000094468600000000000000000000100010010000000000000000000000F0010000006772700120150203000101 00000000000000000000000000000000000000000000000000000000000000000000000000000000000000000000000000000000000000000N 00000000000NCONT   00    00000000000          00000000000000000000000000000000000000000000 000000000000000A000000000000000000000000000000000000000000000 000000000000000000000000000000000000000     00000000                                                                                                                        000000000000000000
F0010000006772700002000090008711200041450500000000000000000201502030002001PACKAGING SUPPLIERS S.A.                          C000000088274300000000000000000000100010010000000000000000000000F0010000006772700220150203000101 00000000000000000000000000000000000000000000000000000000000000000000000000000000000000000000000000000000000000000N 00000000000NCONT   00    00000000000          00000000000000000000000000000000000000000000 000000000000000A000000000000000000000000000000000000000000000 000000000000000000000000000000000000000     00000000                                                                                                                        000000000000000000
