F0010000006382800001000090035510100011050500000000000000000201410150002001GRAINGER COLOMBIA S.A.S.                          D000000002003000000000000000000000100010010000000000000000000000F0010000006382800120141015000101 00000000000000000000000000000000000000000000000000000000000000000000000000000000000000000000000000000000000000000N 00000000000NCONT   00    00000000000          00000000000000000000000000000000000000000000 000000000000000A000000000000000000000000000000000000000000000 000000000000000000000000000000000000000     00000000                                                                                                                        000000000000000000
F0010000006382800002000090035510100041450500000000000000000201410150002001GRAINGER COLOMBIA S.A.S.                          C000000001200000000000000000000000100010010000000000000000000000F0010000006382800220141015000101 00000000000000000000000000000000000000000000000000000000000000000000000000000000000000000000000000000000000000000N 00000000000NCONT   00    00000000000          00000000000000000000000000000000000000000000 000000000000000A000000000000000000000000000000000000000000000 000000000000000000000000000000000000000     00000000                                                                                                                        000000000000000000
F0010000006382800003000090035510100042505000000000000000000201410150002001GRAINGER COLOMBIA S.A.S.                          C000000000803000000000000000000000100010010000000000000000000000F0010000006382800320141015000101 00000000000000000000000000000000000000000000000000000000000000000000000000000000000000000000000000000000000000000N 00000000000NCONT   00    00000000000          00000000000000000000000000000000000000000000 000000000000000A000000000000000000000000000000000000000000000 000000000000000000000000000000000000000     00000000                                                                                                                        000000000000000000
F0010000006382800004000090035510100023658300000000000000000201410150002001GRAINGER COLOMBIA S.A.S.                          C000000000009600000000000000000000100010010000000000000000000000F0010000006382800420141015000101 00000000000000000000000000000000000000000000000000000000000000000000000000000000000000000000000000000000000000000N 00000000000NCONT   00    00000000000          00000000000000000000000000000000000000000000 000000000000000A000000000000000000000000000000000000000000000 000000000000000000000000000000000000000     00000000                                                                                                                        000000000000000000
F0010000006382800005000090035510100013552100000000000000000201410150002001GRAINGER COLOMBIA S.A.S.                          D000000000009600000000000000000000100010010000000000000000000000F0010000006382800520141015000101 00000000000000000000000000000000000000000000000000000000000000000000000000000000000000000000000000000000000000000N 00000000000NCONT   00    00000000000          00000000000000000000000000000000000000000000 000000000000000A000000000000000000000000000000000000000000000 000000000000000000000000000000000000000     00000000                                                                                                                        000000000000000000
F0010000006382900001000080201654800011050500000000000000000201410150002001MULTIALUMINIOS NO 1                               D000000007100000000000000000000000100010010000000000000000000000F0010000006382900120141015000101 00000000000000000000000000000000000000000000000000000000000000000000000000000000000000000000000000000000000000000N 00000000000NCONT   00    00000000000          00000000000000000000000000000000000000000000 000000000000000A000000000000000000000000000000000000000000000 000000000000000000000000000000000000000     00000000                                                                                                                        000000000000000000
F0010000006382900002000080201654800041450500000000000000000201410150002001MULTIALUMINIOS NO 1                               C000000006000000000000000000000000100010010000000000000000000000F0010000006382900220141015000101 00000000000000000000000000000000000000000000000000000000000000000000000000000000000000000000000000000000000000000N 00000000000NCONT   00    00000000000          00000000000000000000000000000000000000000000 000000000000000A000000000000000000000000000000000000000000000 000000000000000000000000000000000000000     00000000                                                                                                                        000000000000000000
F0010000006382900003000080201654800042505000000000000000000201410150002001MULTIALUMINIOS NO 1                               C000000001100000000000000000000000100010010000000000000000000000F0010000006382900320141015000101 00000000000000000000000000000000000000000000000000000000000000000000000000000000000000000000000000000000000000000N 00000000000NCONT   00    00000000000          00000000000000000000000000000000000000000000 000000000000000A000000000000000000000000000000000000000000000 000000000000000000000000000000000000000     00000000                                                                                                                        000000000000000000
F0010000006382900004000080201654800023658300000000000000000201410150002001MULTIALUMINIOS NO 1                               C000000000048000000000000000000000100010010000000000000000000000F0010000006382900420141015000101 00000000000000000000000000000000000000000000000000000000000000000000000000000000000000000000000000000000000000000N 00000000000NCONT   00    00000000000          00000000000000000000000000000000000000000000 000000000000000A000000000000000000000000000000000000000000000 000000000000000000000000000000000000000     00000000                                                                                                                        000000000000000000
F0010000006382900005000080201654800013552100000000000000000201410150002001MULTIALUMINIOS NO 1                               D000000000048000000000000000000000100010010000000000000000000000F0010000006382900520141015000101 00000000000000000000000000000000000000000000000000000000000000000000000000000000000000000000000000000000000000000N 00000000000NCONT   00    00000000000          00000000000000000000000000000000000000000000 000000000000000A000000000000000000000000000000000000000000000 000000000000000000000000000000000000000     00000000                                                                                                                        000000000000000000
F0010000006383000001000086000089600013050500000000000000000201410150002001SIKA COLOMBIA S.A.                                D000000065414600000000000000000000100010010000000000000000000000F0010000006383000120141015000101 00000000000000000000000000000000000000000000000000000000000000000000000000000000000000000000000000000000000000000N 00000000000NCONT   00    00000000000          00000000000000000000000000000000000000000000 000000000000000A000000000000000000000000000000000000000000000 000000000000000000000000000000000000000     00000000                                                                                                                        000000000000000000
F0010000006383000002000086000089600041450500000000000000000201410150002001SIKA COLOMBIA S.A.                                C000000062027900000000000000000000100010010000000000000000000000F0010000006383000220141015000101 00000000000000000000000000000000000000000000000000000000000000000000000000000000000000000000000000000000000000000N 00000000000NCONT   00    00000000000          00000000000000000000000000000000000000000000 000000000000000A000000000000000000000000000000000000000000000 000000000000000000000000000000000000000     00000000                                                                                                                        000000000000000000
F0010000006383000003000086000089600042505000000000000000000201410150002001SIKA COLOMBIA S.A.                                C000000003386700000000000000000000100010010000000000000000000000F0010000006383000320141015000101 00000000000000000000000000000000000000000000000000000000000000000000000000000000000000000000000000000000000000000N 00000000000NCONT   00    00000000000          00000000000000000000000000000000000000000000 000000000000000A000000000000000000000000000000000000000000000 000000000000000000000000000000000000000     00000000                                                                                                                        000000000000000000
F0010000006383000004000086000089600023658300000000000000000201410150002001SIKA COLOMBIA S.A.                                C000000000496200000000000000000000100010010000000000000000000000F0010000006383000420141015000101 00000000000000000000000000000000000000000000000000000000000000000000000000000000000000000000000000000000000000000N 00000000000NCONT   00    00000000000          00000000000000000000000000000000000000000000 000000000000000A000000000000000000000000000000000000000000000 000000000000000000000000000000000000000     00000000                                                                                                                        000000000000000000
F0010000006383000005000086000089600013552100000000000000000201410150002001SIKA COLOMBIA S.A.                                D000000000496200000000000000000000100010010000000000000000000000F0010000006383000520141015000101 00000000000000000000000000000000000000000000000000000000000000000000000000000000000000000000000000000000000000000N 00000000000NCONT   00    00000000000          00000000000000000000000000000000000000000000 000000000000000A000000000000000000000000000000000000000000000 000000000000000000000000000000000000000     00000000                                                                                                                        000000000000000000
F0010000006383100001000086000089600013050500000000000000000201410150002001SIKA COLOMBIA S.A.                                D000000032201500000000000000000000100010010000000000000000000000F0010000006383100120141015000101 00000000000000000000000000000000000000000000000000000000000000000000000000000000000000000000000000000000000000000N 00000000000NCONT   00    00000000000          00000000000000000000000000000000000000000000 000000000000000A000000000000000000000000000000000000000000000 000000000000000000000000000000000000000     00000000                                                                                                                        000000000000000000
F0010000006383100002000086000089600041450500000000000000000201410150002001SIKA COLOMBIA S.A.                                C000000030254200000000000000000000100010010000000000000000000000F0010000006383100220141015000101 00000000000000000000000000000000000000000000000000000000000000000000000000000000000000000000000000000000000000000N 00000000000NCONT   00    00000000000          00000000000000000000000000000000000000000000 000000000000000A000000000000000000000000000000000000000000000 000000000000000000000000000000000000000     00000000                                                                                                                        000000000000000000
F0010000006383100003000086000089600042505000000000000000000201410150002001SIKA COLOMBIA S.A.                                C000000001947300000000000000000000100010010000000000000000000000F0010000006383100320141015000101 00000000000000000000000000000000000000000000000000000000000000000000000000000000000000000000000000000000000000000N 00000000000NCONT   00    00000000000          00000000000000000000000000000000000000000000 000000000000000A000000000000000000000000000000000000000000000 000000000000000000000000000000000000000     00000000                                                                                                                        000000000000000000
F0010000006383100004000086000089600023658300000000000000000201410150002001SIKA COLOMBIA S.A.                                C000000000242000000000000000000000100010010000000000000000000000F0010000006383100420141015000101 00000000000000000000000000000000000000000000000000000000000000000000000000000000000000000000000000000000000000000N 00000000000NCONT   00    00000000000          00000000000000000000000000000000000000000000 000000000000000A000000000000000000000000000000000000000000000 000000000000000000000000000000000000000     00000000                                                                                                                        000000000000000000
F0010000006383100005000086000089600013552100000000000000000201410150002001SIKA COLOMBIA S.A.                                D000000000242000000000000000000000100010010000000000000000000000F0010000006383100520141015000101 00000000000000000000000000000000000000000000000000000000000000000000000000000000000000000000000000000000000000000N 00000000000NCONT   00    00000000000          00000000000000000000000000000000000000000000 000000000000000A000000000000000000000000000000000000000000000 000000000000000000000000000000000000000     00000000                                                                                                                        000000000000000000
F0010000006383200001000000748006100011050500000000000000000201410150002001ROBERTO GARCIA                                    D000000000800000000000000000000000100010010000000000000000000000F0010000006383200120141015000101 00000000000000000000000000000000000000000000000000000000000000000000000000000000000000000000000000000000000000000N 00000000000NCONT   00    00000000000          00000000000000000000000000000000000000000000 000000000000000A000000000000000000000000000000000000000000000 000000000000000000000000000000000000000     00000000                                                                                                                        000000000000000000
F0010000006383200002000000748006100041450500000000000000000201410150002001ROBERTO GARCIA                                    C000000000500000000000000000000000100010010000000000000000000000F0010000006383200220141015000101 00000000000000000000000000000000000000000000000000000000000000000000000000000000000000000000000000000000000000000N 00000000000NCONT   00    00000000000          00000000000000000000000000000000000000000000 000000000000000A000000000000000000000000000000000000000000000 000000000000000000000000000000000000000     00000000                                                                                                                        000000000000000000
F0010000006383200003000000748006100042505000000000000000000201410150002001ROBERTO GARCIA                                    C000000000300000000000000000000000100010010000000000000000000000F0010000006383200320141015000101 00000000000000000000000000000000000000000000000000000000000000000000000000000000000000000000000000000000000000000N 00000000000NCONT   00    00000000000          00000000000000000000000000000000000000000000 000000000000000A000000000000000000000000000000000000000000000 000000000000000000000000000000000000000     00000000                                                                                                                        000000000000000000
F0010000006383200004000000748006100023658300000000000000000201410150002001ROBERTO GARCIA                                    C000000000004000000000000000000000100010010000000000000000000000F0010000006383200420141015000101 00000000000000000000000000000000000000000000000000000000000000000000000000000000000000000000000000000000000000000N 00000000000NCONT   00    00000000000          00000000000000000000000000000000000000000000 000000000000000A000000000000000000000000000000000000000000000 000000000000000000000000000000000000000     00000000                                                                                                                        000000000000000000
F0010000006383200005000000748006100013552100000000000000000201410150002001ROBERTO GARCIA                                    D000000000004000000000000000000000100010010000000000000000000000F0010000006383200520141015000101 00000000000000000000000000000000000000000000000000000000000000000000000000000000000000000000000000000000000000000N 00000000000NCONT   00    00000000000          00000000000000000000000000000000000000000000 000000000000000A000000000000000000000000000000000000000000000 000000000000000000000000000000000000000     00000000                                                                                                                        000000000000000000
F0010000006383300001000000748006100011050500000000000000000201410150002001ROBERTO GARCIA                                    D000000010000000000000000000000000100010010000000000000000000000F0010000006383300120141015000101 00000000000000000000000000000000000000000000000000000000000000000000000000000000000000000000000000000000000000000N 00000000000NCONT   00    00000000000          00000000000000000000000000000000000000000000 000000000000000A000000000000000000000000000000000000000000000 000000000000000000000000000000000000000     00000000                                                                                                                        000000000000000000
F0010000006383300002000000748006100041450500000000000000000201410150002001ROBERTO GARCIA                                    C000000009000000000000000000000000100010010000000000000000000000F0010000006383300220141015000101 00000000000000000000000000000000000000000000000000000000000000000000000000000000000000000000000000000000000000000N 00000000000NCONT   00    00000000000          00000000000000000000000000000000000000000000 000000000000000A000000000000000000000000000000000000000000000 000000000000000000000000000000000000000     00000000                                                                                                                        000000000000000000
F0010000006383300003000000748006100042505000000000000000000201410150002001ROBERTO GARCIA                                    C000000001000000000000000000000000100010010000000000000000000000F0010000006383300320141015000101 00000000000000000000000000000000000000000000000000000000000000000000000000000000000000000000000000000000000000000N 00000000000NCONT   00    00000000000          00000000000000000000000000000000000000000000 000000000000000A000000000000000000000000000000000000000000000 000000000000000000000000000000000000000     00000000                                                                                                                        000000000000000000
F0010000006383300004000000748006100023658300000000000000000201410150002001ROBERTO GARCIA                                    C000000000072000000000000000000000100010010000000000000000000000F0010000006383300420141015000101 00000000000000000000000000000000000000000000000000000000000000000000000000000000000000000000000000000000000000000N 00000000000NCONT   00    00000000000          00000000000000000000000000000000000000000000 000000000000000A000000000000000000000000000000000000000000000 000000000000000000000000000000000000000     00000000                                                                                                                        000000000000000000
F0010000006383300005000000748006100013552100000000000000000201410150002001ROBERTO GARCIA                                    D000000000072000000000000000000000100010010000000000000000000000F0010000006383300520141015000101 00000000000000000000000000000000000000000000000000000000000000000000000000000000000000000000000000000000000000000N 00000000000NCONT   00    00000000000          00000000000000000000000000000000000000000000 000000000000000A000000000000000000000000000000000000000000000 000000000000000000000000000000000000000     00000000                                                                                                                        000000000000000000
F0010000006383400001000007069760600011050500000000000000000201410150002001DISTRIBUIDORA MAYORISTA                           D000000003000000000000000000000000100010010000000000000000000000F0010000006383400120141015000101 00000000000000000000000000000000000000000000000000000000000000000000000000000000000000000000000000000000000000000N 00000000000NCONT   00    00000000000          00000000000000000000000000000000000000000000 000000000000000A000000000000000000000000000000000000000000000 000000000000000000000000000000000000000     00000000                                                                                                                        000000000000000000
F0010000006383400002000007069760600041450500000000000000000201410150002001DISTRIBUIDORA MAYORISTA                           C000000002900000000000000000000000100010010000000000000000000000F0010000006383400220141015000101 00000000000000000000000000000000000000000000000000000000000000000000000000000000000000000000000000000000000000000N 00000000000NCONT   00    00000000000          00000000000000000000000000000000000000000000 000000000000000A000000000000000000000000000000000000000000000 000000000000000000000000000000000000000     00000000                                                                                                                        000000000000000000
F0010000006383400003000007069760600042505000000000000000000201410150002001DISTRIBUIDORA MAYORISTA                           C000000000100000000000000000000000100010010000000000000000000000F0010000006383400320141015000101 00000000000000000000000000000000000000000000000000000000000000000000000000000000000000000000000000000000000000000N 00000000000NCONT   00    00000000000          00000000000000000000000000000000000000000000 000000000000000A000000000000000000000000000000000000000000000 000000000000000000000000000000000000000     00000000                                                                                                                        000000000000000000
F0010000006383400004000007069760600023658300000000000000000201410150002001DISTRIBUIDORA MAYORISTA                           C000000000023200000000000000000000100010010000000000000000000000F0010000006383400420141015000101 00000000000000000000000000000000000000000000000000000000000000000000000000000000000000000000000000000000000000000N 00000000000NCONT   00    00000000000          00000000000000000000000000000000000000000000 000000000000000A000000000000000000000000000000000000000000000 000000000000000000000000000000000000000     00000000                                                                                                                        000000000000000000
F0010000006383400005000007069760600013552100000000000000000201410150002001DISTRIBUIDORA MAYORISTA                           D000000000023200000000000000000000100010010000000000000000000000F0010000006383400520141015000101 00000000000000000000000000000000000000000000000000000000000000000000000000000000000000000000000000000000000000000N 00000000000NCONT   00    00000000000          00000000000000000000000000000000000000000000 000000000000000A000000000000000000000000000000000000000000000 000000000000000000000000000000000000000     00000000                                                                                                                        000000000000000000
F0010000006383500001000080202486100011050500000000000000000201410150002001DISTRIBUIDORA RAMBAL LTDA                         D000000001450000000000000000000000100010010000000000000000000000F0010000006383500120141015000101 00000000000000000000000000000000000000000000000000000000000000000000000000000000000000000000000000000000000000000N 00000000000NCONT   00    00000000000          00000000000000000000000000000000000000000000 000000000000000A000000000000000000000000000000000000000000000 000000000000000000000000000000000000000     00000000                                                                                                                        000000000000000000
F0010000006383500002000080202486100041450500000000000000000201410150002001DISTRIBUIDORA RAMBAL LTDA                         C000000001350000000000000000000000100010010000000000000000000000F0010000006383500220141015000101 00000000000000000000000000000000000000000000000000000000000000000000000000000000000000000000000000000000000000000N 00000000000NCONT   00    00000000000          00000000000000000000000000000000000000000000 000000000000000A000000000000000000000000000000000000000000000 000000000000000000000000000000000000000     00000000                                                                                                                        000000000000000000
F0010000006383500003000080202486100042505000000000000000000201410150002001DISTRIBUIDORA RAMBAL LTDA                         C000000000100000000000000000000000100010010000000000000000000000F0010000006383500320141015000101 00000000000000000000000000000000000000000000000000000000000000000000000000000000000000000000000000000000000000000N 00000000000NCONT   00    00000000000          00000000000000000000000000000000000000000000 000000000000000A000000000000000000000000000000000000000000000 000000000000000000000000000000000000000     00000000                                                                                                                        000000000000000000
F0010000006383500004000080202486100023658300000000000000000201410150002001DISTRIBUIDORA RAMBAL LTDA                         C000000000010800000000000000000000100010010000000000000000000000F0010000006383500420141015000101 00000000000000000000000000000000000000000000000000000000000000000000000000000000000000000000000000000000000000000N 00000000000NCONT   00    00000000000          00000000000000000000000000000000000000000000 000000000000000A000000000000000000000000000000000000000000000 000000000000000000000000000000000000000     00000000                                                                                                                        000000000000000000
F0010000006383500005000080202486100013552100000000000000000201410150002001DISTRIBUIDORA RAMBAL LTDA                         D000000000010800000000000000000000100010010000000000000000000000F0010000006383500520141015000101 00000000000000000000000000000000000000000000000000000000000000000000000000000000000000000000000000000000000000000N 00000000000NCONT   00    00000000000          00000000000000000000000000000000000000000000 000000000000000A000000000000000000000000000000000000000000000 000000000000000000000000000000000000000     00000000                                                                                                                        000000000000000000
F0010000006383600001000080200049600011050500000000000000000201410150002001FAMAPAN DEL CARIBE                                D000000008000000000000000000000000100010010000000000000000000000F0010000006383600120141015000101 00000000000000000000000000000000000000000000000000000000000000000000000000000000000000000000000000000000000000000N 00000000000NCONT   00    00000000000          00000000000000000000000000000000000000000000 000000000000000A000000000000000000000000000000000000000000000 000000000000000000000000000000000000000     00000000                                                                                                                        000000000000000000
F0010000006383600002000080200049600041450500000000000000000201410150002001FAMAPAN DEL CARIBE                                C000000007850000000000000000000000100010010000000000000000000000F0010000006383600220141015000101 00000000000000000000000000000000000000000000000000000000000000000000000000000000000000000000000000000000000000000N 00000000000NCONT   00    00000000000          00000000000000000000000000000000000000000000 000000000000000A000000000000000000000000000000000000000000000 000000000000000000000000000000000000000     00000000                                                                                                                        000000000000000000
F0010000006383600003000080200049600042505000000000000000000201410150002001FAMAPAN DEL CARIBE                                C000000000150000000000000000000000100010010000000000000000000000F0010000006383600320141015000101 00000000000000000000000000000000000000000000000000000000000000000000000000000000000000000000000000000000000000000N 00000000000NCONT   00    00000000000          00000000000000000000000000000000000000000000 000000000000000A000000000000000000000000000000000000000000000 000000000000000000000000000000000000000     00000000                                                                                                                        000000000000000000
F0010000006383600004000080200049600023658300000000000000000201410150002001FAMAPAN DEL CARIBE                                C000000000062800000000000000000000100010010000000000000000000000F0010000006383600420141015000101 00000000000000000000000000000000000000000000000000000000000000000000000000000000000000000000000000000000000000000N 00000000000NCONT   00    00000000000          00000000000000000000000000000000000000000000 000000000000000A000000000000000000000000000000000000000000000 000000000000000000000000000000000000000     00000000                                                                                                                        000000000000000000
F0010000006383600005000080200049600013552100000000000000000201410150002001FAMAPAN DEL CARIBE                                D000000000062800000000000000000000100010010000000000000000000000F0010000006383600520141015000101 00000000000000000000000000000000000000000000000000000000000000000000000000000000000000000000000000000000000000000N 00000000000NCONT   00    00000000000          00000000000000000000000000000000000000000000 000000000000000A000000000000000000000000000000000000000000000 000000000000000000000000000000000000000     00000000                                                                                                                        000000000000000000
F0010000006383700001000090037350200011050500000000000000000201410150002001JIMAR C Y J LTDA                                  D000000010000000000000000000000000100010010000000000000000000000F0010000006383700120141015000101 00000000000000000000000000000000000000000000000000000000000000000000000000000000000000000000000000000000000000000N 00000000000NCONT   00    00000000000          00000000000000000000000000000000000000000000 000000000000000A000000000000000000000000000000000000000000000 000000000000000000000000000000000000000     00000000                                                                                                                        000000000000000000
F0010000006383700002000090037350200041450500000000000000000201410150002001JIMAR C Y J LTDA                                  C000000009500000000000000000000000100010010000000000000000000000F0010000006383700220141015000101 00000000000000000000000000000000000000000000000000000000000000000000000000000000000000000000000000000000000000000N 00000000000NCONT   00    00000000000          00000000000000000000000000000000000000000000 000000000000000A000000000000000000000000000000000000000000000 000000000000000000000000000000000000000     00000000                                                                                                                        000000000000000000
F0010000006383700003000090037350200042505000000000000000000201410150002001JIMAR C Y J LTDA                                  C000000000500000000000000000000000100010010000000000000000000000F0010000006383700320141015000101 00000000000000000000000000000000000000000000000000000000000000000000000000000000000000000000000000000000000000000N 00000000000NCONT   00    00000000000          00000000000000000000000000000000000000000000 000000000000000A000000000000000000000000000000000000000000000 000000000000000000000000000000000000000     00000000                                                                                                                        000000000000000000
F0010000006383700004000090037350200023658300000000000000000201410150002001JIMAR C Y J LTDA                                  C000000000076000000000000000000000100010010000000000000000000000F0010000006383700420141015000101 00000000000000000000000000000000000000000000000000000000000000000000000000000000000000000000000000000000000000000N 00000000000NCONT   00    00000000000          00000000000000000000000000000000000000000000 000000000000000A000000000000000000000000000000000000000000000 000000000000000000000000000000000000000     00000000                                                                                                                        000000000000000000
F0010000006383700005000090037350200013552100000000000000000201410150002001JIMAR C Y J LTDA                                  D000000000076000000000000000000000100010010000000000000000000000F0010000006383700520141015000101 00000000000000000000000000000000000000000000000000000000000000000000000000000000000000000000000000000000000000000N 00000000000NCONT   00    00000000000          00000000000000000000000000000000000000000000 000000000000000A000000000000000000000000000000000000000000000 000000000000000000000000000000000000000     00000000                                                                                                                        000000000000000000
F0010000006383800001000000872487800011050500000000000000000201410150002001CALIXTO CORREA PINTO                              D000000004200000000000000000000000100010010000000000000000000000F0010000006383800120141015000101 00000000000000000000000000000000000000000000000000000000000000000000000000000000000000000000000000000000000000000N 00000000000NCONT   00    00000000000          00000000000000000000000000000000000000000000 000000000000000A000000000000000000000000000000000000000000000 000000000000000000000000000000000000000     00000000                                                                                                                        000000000000000000
F0010000006383800002000000872487800041450500000000000000000201410150002001CALIXTO CORREA PINTO                              C000000004000000000000000000000000100010010000000000000000000000F0010000006383800220141015000101 00000000000000000000000000000000000000000000000000000000000000000000000000000000000000000000000000000000000000000N 00000000000NCONT   00    00000000000          00000000000000000000000000000000000000000000 000000000000000A000000000000000000000000000000000000000000000 000000000000000000000000000000000000000     00000000                                                                                                                        000000000000000000
F0010000006383800003000000872487800042505000000000000000000201410150002001CALIXTO CORREA PINTO                              C000000000200000000000000000000000100010010000000000000000000000F0010000006383800320141015000101 00000000000000000000000000000000000000000000000000000000000000000000000000000000000000000000000000000000000000000N 00000000000NCONT   00    00000000000          00000000000000000000000000000000000000000000 000000000000000A000000000000000000000000000000000000000000000 000000000000000000000000000000000000000     00000000                                                                                                                        000000000000000000
F0010000006383800004000000872487800023658300000000000000000201410150002001CALIXTO CORREA PINTO                              C000000000032000000000000000000000100010010000000000000000000000F0010000006383800420141015000101 00000000000000000000000000000000000000000000000000000000000000000000000000000000000000000000000000000000000000000N 00000000000NCONT   00    00000000000          00000000000000000000000000000000000000000000 000000000000000A000000000000000000000000000000000000000000000 000000000000000000000000000000000000000     00000000                                                                                                                        000000000000000000
F0010000006383800005000000872487800013552100000000000000000201410150002001CALIXTO CORREA PINTO                              D000000000032000000000000000000000100010010000000000000000000000F0010000006383800520141015000101 00000000000000000000000000000000000000000000000000000000000000000000000000000000000000000000000000000000000000000N 00000000000NCONT   00    00000000000          00000000000000000000000000000000000000000000 000000000000000A000000000000000000000000000000000000000000000 000000000000000000000000000000000000000     00000000                                                                                                                        000000000000000000
F0010000006383900001000090051494400011050500000000000000000201410150002001MUNDIAL DE INOXIDABLES                            D000000013890000000000000000000000100010010000000000000000000000F0010000006383900120141015000101 00000000000000000000000000000000000000000000000000000000000000000000000000000000000000000000000000000000000000000N 00000000000NCONT   00    00000000000          00000000000000000000000000000000000000000000 000000000000000A000000000000000000000000000000000000000000000 000000000000000000000000000000000000000     00000000                                                                                                                        000000000000000000
F0010000006383900002000090051494400041450500000000000000000201410150002001MUNDIAL DE INOXIDABLES                            C000000013790000000000000000000000100010010000000000000000000000F0010000006383900220141015000101 00000000000000000000000000000000000000000000000000000000000000000000000000000000000000000000000000000000000000000N 00000000000NCONT   00    00000000000          00000000000000000000000000000000000000000000 000000000000000A000000000000000000000000000000000000000000000 000000000000000000000000000000000000000     00000000                                                                                                                        000000000000000000
F0010000006383900003000090051494400042505000000000000000000201410150002001MUNDIAL DE INOXIDABLES                            C000000000100000000000000000000000100010010000000000000000000000F0010000006383900320141015000101 00000000000000000000000000000000000000000000000000000000000000000000000000000000000000000000000000000000000000000N 00000000000NCONT   00    00000000000          00000000000000000000000000000000000000000000 000000000000000A000000000000000000000000000000000000000000000 000000000000000000000000000000000000000     00000000                                                                                                                        000000000000000000
F0010000006383900004000090051494400023658300000000000000000201410150002001MUNDIAL DE INOXIDABLES                            C000000000110300000000000000000000100010010000000000000000000000F0010000006383900420141015000101 00000000000000000000000000000000000000000000000000000000000000000000000000000000000000000000000000000000000000000N 00000000000NCONT   00    00000000000          00000000000000000000000000000000000000000000 000000000000000A000000000000000000000000000000000000000000000 000000000000000000000000000000000000000     00000000                                                                                                                        000000000000000000
F0010000006383900005000090051494400013552100000000000000000201410150002001MUNDIAL DE INOXIDABLES                            D000000000110300000000000000000000100010010000000000000000000000F0010000006383900520141015000101 00000000000000000000000000000000000000000000000000000000000000000000000000000000000000000000000000000000000000000N 00000000000NCONT   00    00000000000          00000000000000000000000000000000000000000000 000000000000000A000000000000000000000000000000000000000000000 000000000000000000000000000000000000000     00000000                                                                                                                        000000000000000000
F0010000006384000001000080201703900011050500000000000000000201410150002001MUNDIAL CHEMICAL LTDA                             D000000002837500000000000000000000100010010000000000000000000000F0010000006384000120141015000101 00000000000000000000000000000000000000000000000000000000000000000000000000000000000000000000000000000000000000000N 00000000000NCONT   00    00000000000          00000000000000000000000000000000000000000000 000000000000000A000000000000000000000000000000000000000000000 000000000000000000000000000000000000000     00000000                                                                                                                        000000000000000000
F0010000006384000002000080201703900041450500000000000000000201410150002001MUNDIAL CHEMICAL LTDA                             C000000002490000000000000000000000100010010000000000000000000000F0010000006384000220141015000101 00000000000000000000000000000000000000000000000000000000000000000000000000000000000000000000000000000000000000000N 00000000000NCONT   00    00000000000          00000000000000000000000000000000000000000000 000000000000000A000000000000000000000000000000000000000000000 000000000000000000000000000000000000000     00000000                                                                                                                        000000000000000000
F0010000006384000003000080201703900042505000000000000000000201410150002001MUNDIAL CHEMICAL LTDA                             C000000000347500000000000000000000100010010000000000000000000000F0010000006384000320141015000101 00000000000000000000000000000000000000000000000000000000000000000000000000000000000000000000000000000000000000000N 00000000000NCONT   00    00000000000          00000000000000000000000000000000000000000000 000000000000000A000000000000000000000000000000000000000000000 000000000000000000000000000000000000000     00000000                                                                                                                        000000000000000000
F0010000006384000004000080201703900023658300000000000000000201410150002001MUNDIAL CHEMICAL LTDA                             C000000000019900000000000000000000100010010000000000000000000000F0010000006384000420141015000101 00000000000000000000000000000000000000000000000000000000000000000000000000000000000000000000000000000000000000000N 00000000000NCONT   00    00000000000          00000000000000000000000000000000000000000000 000000000000000A000000000000000000000000000000000000000000000 000000000000000000000000000000000000000     00000000                                                                                                                        000000000000000000
F0010000006384000005000080201703900013552100000000000000000201410150002001MUNDIAL CHEMICAL LTDA                             D000000000019900000000000000000000100010010000000000000000000000F0010000006384000520141015000101 00000000000000000000000000000000000000000000000000000000000000000000000000000000000000000000000000000000000000000N 00000000000NCONT   00    00000000000          00000000000000000000000000000000000000000000 000000000000000A000000000000000000000000000000000000000000000 000000000000000000000000000000000000000     00000000                                                                                                                        000000000000000000
F0010000006384100001000003266728500011050500000000000000000201410150002001SORAYA DE LIMA                                    D000000001000000000000000000000000100010010000000000000000000000F0010000006384100120141015000101 00000000000000000000000000000000000000000000000000000000000000000000000000000000000000000000000000000000000000000N 00000000000NCONT   00    00000000000          00000000000000000000000000000000000000000000 000000000000000A000000000000000000000000000000000000000000000 000000000000000000000000000000000000000     00000000                                                                                                                        000000000000000000
F0010000006384100002000003266728500041450500000000000000000201410150002001SORAYA DE LIMA                                    C000000000900000000000000000000000100010010000000000000000000000F0010000006384100220141015000101 00000000000000000000000000000000000000000000000000000000000000000000000000000000000000000000000000000000000000000N 00000000000NCONT   00    00000000000          00000000000000000000000000000000000000000000 000000000000000A000000000000000000000000000000000000000000000 000000000000000000000000000000000000000     00000000                                                                                                                        000000000000000000
F0010000006384100003000003266728500042505000000000000000000201410150002001SORAYA DE LIMA                                    C000000000100000000000000000000000100010010000000000000000000000F0010000006384100320141015000101 00000000000000000000000000000000000000000000000000000000000000000000000000000000000000000000000000000000000000000N 00000000000NCONT   00    00000000000          00000000000000000000000000000000000000000000 000000000000000A000000000000000000000000000000000000000000000 000000000000000000000000000000000000000     00000000                                                                                                                        000000000000000000
F0010000006384100004000003266728500023658300000000000000000201410150002001SORAYA DE LIMA                                    C000000000007200000000000000000000100010010000000000000000000000F0010000006384100420141015000101 00000000000000000000000000000000000000000000000000000000000000000000000000000000000000000000000000000000000000000N 00000000000NCONT   00    00000000000          00000000000000000000000000000000000000000000 000000000000000A000000000000000000000000000000000000000000000 000000000000000000000000000000000000000     00000000                                                                                                                        000000000000000000
F0010000006384100005000003266728500013552100000000000000000201410150002001SORAYA DE LIMA                                    D000000000007200000000000000000000100010010000000000000000000000F0010000006384100520141015000101 00000000000000000000000000000000000000000000000000000000000000000000000000000000000000000000000000000000000000000N 00000000000NCONT   00    00000000000          00000000000000000000000000000000000000000000 000000000000000A000000000000000000000000000000000000000000000 000000000000000000000000000000000000000     00000000                                                                                                                        000000000000000000
F0010000006384200001000086000089600013050500000000000000000201410150002001SIKA COLOMBIA S.A.                                D000000039221000000000000000000000100010010000000000000000000000F0010000006384200120141015000101 00000000000000000000000000000000000000000000000000000000000000000000000000000000000000000000000000000000000000000N 00000000000NCONT   00    00000000000          00000000000000000000000000000000000000000000 000000000000000A000000000000000000000000000000000000000000000 000000000000000000000000000000000000000     00000000                                                                                                                        000000000000000000
F0010000006384200002000086000089600041450500000000000000000201410150002001SIKA COLOMBIA S.A.                                C000000036339000000000000000000000100010010000000000000000000000F0010000006384200220141015000101 00000000000000000000000000000000000000000000000000000000000000000000000000000000000000000000000000000000000000000N 00000000000NCONT   00    00000000000          00000000000000000000000000000000000000000000 000000000000000A000000000000000000000000000000000000000000000 000000000000000000000000000000000000000     00000000                                                                                                                        000000000000000000
F0010000006384200003000086000089600042505000000000000000000201410150002001SIKA COLOMBIA S.A.                                C000000002882000000000000000000000100010010000000000000000000000F0010000006384200320141015000101 00000000000000000000000000000000000000000000000000000000000000000000000000000000000000000000000000000000000000000N 00000000000NCONT   00    00000000000          00000000000000000000000000000000000000000000 000000000000000A000000000000000000000000000000000000000000000 000000000000000000000000000000000000000     00000000                                                                                                                        000000000000000000
F0010000006384200004000086000089600023658300000000000000000201410150002001SIKA COLOMBIA S.A.                                C000000000290700000000000000000000100010010000000000000000000000F0010000006384200420141015000101 00000000000000000000000000000000000000000000000000000000000000000000000000000000000000000000000000000000000000000N 00000000000NCONT   00    00000000000          00000000000000000000000000000000000000000000 000000000000000A000000000000000000000000000000000000000000000 000000000000000000000000000000000000000     00000000                                                                                                                        000000000000000000
F0010000006384200005000086000089600013552100000000000000000201410150002001SIKA COLOMBIA S.A.                                D000000000290700000000000000000000100010010000000000000000000000F0010000006384200520141015000101 00000000000000000000000000000000000000000000000000000000000000000000000000000000000000000000000000000000000000000N 00000000000NCONT   00    00000000000          00000000000000000000000000000000000000000000 000000000000000A000000000000000000000000000000000000000000000 000000000000000000000000000000000000000     00000000                                                                                                                        000000000000000000
F0010000006384300001000090034602400011050500000000000000000201410150002001LA CUSTODIA                                       D000000002000000000000000000000000100010010000000000000000000000F0010000006384300120141015000101 00000000000000000000000000000000000000000000000000000000000000000000000000000000000000000000000000000000000000000N 00000000000NCONT   00    00000000000          00000000000000000000000000000000000000000000 000000000000000A000000000000000000000000000000000000000000000 000000000000000000000000000000000000000     00000000                                                                                                                        000000000000000000
F0010000006384300002000090034602400041450500000000000000000201410150002001LA CUSTODIA                                       C000000001800000000000000000000000100010010000000000000000000000F0010000006384300220141015000101 00000000000000000000000000000000000000000000000000000000000000000000000000000000000000000000000000000000000000000N 00000000000NCONT   00    00000000000          00000000000000000000000000000000000000000000 000000000000000A000000000000000000000000000000000000000000000 000000000000000000000000000000000000000     00000000                                                                                                                        000000000000000000
F0010000006384300003000090034602400042505000000000000000000201410150002001LA CUSTODIA                                       C000000000200000000000000000000000100010010000000000000000000000F0010000006384300320141015000101 00000000000000000000000000000000000000000000000000000000000000000000000000000000000000000000000000000000000000000N 00000000000NCONT   00    00000000000          00000000000000000000000000000000000000000000 000000000000000A000000000000000000000000000000000000000000000 000000000000000000000000000000000000000     00000000                                                                                                                        000000000000000000
F0010000006384300004000090034602400023658300000000000000000201410150002001LA CUSTODIA                                       C000000000014400000000000000000000100010010000000000000000000000F0010000006384300420141015000101 00000000000000000000000000000000000000000000000000000000000000000000000000000000000000000000000000000000000000000N 00000000000NCONT   00    00000000000          00000000000000000000000000000000000000000000 000000000000000A000000000000000000000000000000000000000000000 000000000000000000000000000000000000000     00000000                                                                                                                        000000000000000000
F0010000006384300005000090034602400013552100000000000000000201410150002001LA CUSTODIA                                       D000000000014400000000000000000000100010010000000000000000000000F0010000006384300520141015000101 00000000000000000000000000000000000000000000000000000000000000000000000000000000000000000000000000000000000000000N 00000000000NCONT   00    00000000000          00000000000000000000000000000000000000000000 000000000000000A000000000000000000000000000000000000000000000 000000000000000000000000000000000000000     00000000                                                                                                                        000000000000000000
F0010000006384400001000007200023300011050500000000000000000201410150002001COMERCIALIZADORA ORTEGA                           D000000001050000000000000000000000100010010000000000000000000000F0010000006384400120141015000101 00000000000000000000000000000000000000000000000000000000000000000000000000000000000000000000000000000000000000000N 00000000000NCONT   00    00000000000          00000000000000000000000000000000000000000000 000000000000000A000000000000000000000000000000000000000000000 000000000000000000000000000000000000000     00000000                                                                                                                        000000000000000000
F0010000006384400002000007200023300041450500000000000000000201410150002001COMERCIALIZADORA ORTEGA                           C000000000900000000000000000000000100010010000000000000000000000F0010000006384400220141015000101 00000000000000000000000000000000000000000000000000000000000000000000000000000000000000000000000000000000000000000N 00000000000NCONT   00    00000000000          00000000000000000000000000000000000000000000 000000000000000A000000000000000000000000000000000000000000000 000000000000000000000000000000000000000     00000000                                                                                                                        000000000000000000
F0010000006384400003000007200023300042505000000000000000000201410150002001COMERCIALIZADORA ORTEGA                           C000000000150000000000000000000000100010010000000000000000000000F0010000006384400320141015000101 00000000000000000000000000000000000000000000000000000000000000000000000000000000000000000000000000000000000000000N 00000000000NCONT   00    00000000000          00000000000000000000000000000000000000000000 000000000000000A000000000000000000000000000000000000000000000 000000000000000000000000000000000000000     00000000                                                                                                                        000000000000000000
F0010000006384400004000007200023300023658300000000000000000201410150002001COMERCIALIZADORA ORTEGA                           C000000000007200000000000000000000100010010000000000000000000000F0010000006384400420141015000101 00000000000000000000000000000000000000000000000000000000000000000000000000000000000000000000000000000000000000000N 00000000000NCONT   00    00000000000          00000000000000000000000000000000000000000000 000000000000000A000000000000000000000000000000000000000000000 000000000000000000000000000000000000000     00000000                                                                                                                        000000000000000000
F0010000006384400005000007200023300013552100000000000000000201410150002001COMERCIALIZADORA ORTEGA                           D000000000007200000000000000000000100010010000000000000000000000F0010000006384400520141015000101 00000000000000000000000000000000000000000000000000000000000000000000000000000000000000000000000000000000000000000N 00000000000NCONT   00    00000000000          00000000000000000000000000000000000000000000 000000000000000A000000000000000000000000000000000000000000000 000000000000000000000000000000000000000     00000000                                                                                                                        000000000000000000
F0010000006384500001000007200023300011050500000000000000000201410150002001COMERCIALIZADORA ORTEGA                           D000000001400000000000000000000000100010010000000000000000000000F0010000006384500120141015000101 00000000000000000000000000000000000000000000000000000000000000000000000000000000000000000000000000000000000000000N 00000000000NCONT   00    00000000000          00000000000000000000000000000000000000000000 000000000000000A000000000000000000000000000000000000000000000 000000000000000000000000000000000000000     00000000                                                                                                                        000000000000000000
F0010000006384500002000007200023300041450500000000000000000201410150002001COMERCIALIZADORA ORTEGA                           C000000001200000000000000000000000100010010000000000000000000000F0010000006384500220141015000101 00000000000000000000000000000000000000000000000000000000000000000000000000000000000000000000000000000000000000000N 00000000000NCONT   00    00000000000          00000000000000000000000000000000000000000000 000000000000000A000000000000000000000000000000000000000000000 000000000000000000000000000000000000000     00000000                                                                                                                        000000000000000000
F0010000006384500003000007200023300042505000000000000000000201410150002001COMERCIALIZADORA ORTEGA                           C000000000200000000000000000000000100010010000000000000000000000F0010000006384500320141015000101 00000000000000000000000000000000000000000000000000000000000000000000000000000000000000000000000000000000000000000N 00000000000NCONT   00    00000000000          00000000000000000000000000000000000000000000 000000000000000A000000000000000000000000000000000000000000000 000000000000000000000000000000000000000     00000000                                                                                                                        000000000000000000
F0010000006384500004000007200023300023658300000000000000000201410150002001COMERCIALIZADORA ORTEGA                           C000000000009600000000000000000000100010010000000000000000000000F0010000006384500420141015000101 00000000000000000000000000000000000000000000000000000000000000000000000000000000000000000000000000000000000000000N 00000000000NCONT   00    00000000000          00000000000000000000000000000000000000000000 000000000000000A000000000000000000000000000000000000000000000 000000000000000000000000000000000000000     00000000                                                                                                                        000000000000000000
F0010000006384500005000007200023300013552100000000000000000201410150002001COMERCIALIZADORA ORTEGA                           D000000000009600000000000000000000100010010000000000000000000000F0010000006384500520141015000101 00000000000000000000000000000000000000000000000000000000000000000000000000000000000000000000000000000000000000000N 00000000000NCONT   00    00000000000          00000000000000000000000000000000000000000000 000000000000000A000000000000000000000000000000000000000000000 000000000000000000000000000000000000000     00000000                                                                                                                        000000000000000000
F0010000006384600001000007200023300011050500000000000000000201410150002001COMERCIALIZADORA ORTEGA                           D000000004050000000000000000000000100010010000000000000000000000F0010000006384600120141015000101 00000000000000000000000000000000000000000000000000000000000000000000000000000000000000000000000000000000000000000N 00000000000NCONT   00    00000000000          00000000000000000000000000000000000000000000 000000000000000A000000000000000000000000000000000000000000000 000000000000000000000000000000000000000     00000000                                                                                                                        000000000000000000
F0010000006384600002000007200023300041450500000000000000000201410150002001COMERCIALIZADORA ORTEGA                           C000000003600000000000000000000000100010010000000000000000000000F0010000006384600220141015000101 00000000000000000000000000000000000000000000000000000000000000000000000000000000000000000000000000000000000000000N 00000000000NCONT   00    00000000000          00000000000000000000000000000000000000000000 000000000000000A000000000000000000000000000000000000000000000 000000000000000000000000000000000000000     00000000                                                                                                                        000000000000000000
F0010000006384600003000007200023300042505000000000000000000201410150002001COMERCIALIZADORA ORTEGA                           C000000000450000000000000000000000100010010000000000000000000000F0010000006384600320141015000101 00000000000000000000000000000000000000000000000000000000000000000000000000000000000000000000000000000000000000000N 00000000000NCONT   00    00000000000          00000000000000000000000000000000000000000000 000000000000000A000000000000000000000000000000000000000000000 000000000000000000000000000000000000000     00000000                                                                                                                        000000000000000000
F0010000006384600004000007200023300023658300000000000000000201410150002001COMERCIALIZADORA ORTEGA                           C000000000028800000000000000000000100010010000000000000000000000F0010000006384600420141015000101 00000000000000000000000000000000000000000000000000000000000000000000000000000000000000000000000000000000000000000N 00000000000NCONT   00    00000000000          00000000000000000000000000000000000000000000 000000000000000A000000000000000000000000000000000000000000000 000000000000000000000000000000000000000     00000000                                                                                                                        000000000000000000
F0010000006384600005000007200023300013552100000000000000000201410150002001COMERCIALIZADORA ORTEGA                           D000000000028800000000000000000000100010010000000000000000000000F0010000006384600520141015000101 00000000000000000000000000000000000000000000000000000000000000000000000000000000000000000000000000000000000000000N 00000000000NCONT   00    00000000000          00000000000000000000000000000000000000000000 000000000000000A000000000000000000000000000000000000000000000 000000000000000000000000000000000000000     00000000                                                                                                                        000000000000000000
F0010000006384700001000090050144800011050500000000000000000201410150002001PLASTICOS JR ASOCIADOS SAS                        D000000002000000000000000000000000100010010000000000000000000000F0010000006384700120141015000101 00000000000000000000000000000000000000000000000000000000000000000000000000000000000000000000000000000000000000000N 00000000000NCONT   00    00000000000          00000000000000000000000000000000000000000000 000000000000000A000000000000000000000000000000000000000000000 000000000000000000000000000000000000000     00000000                                                                                                                        000000000000000000
F0010000006384700002000090050144800041450500000000000000000201410150002001PLASTICOS JR ASOCIADOS SAS                        C000000001700000000000000000000000100010010000000000000000000000F0010000006384700220141015000101 00000000000000000000000000000000000000000000000000000000000000000000000000000000000000000000000000000000000000000N 00000000000NCONT   00    00000000000          00000000000000000000000000000000000000000000 000000000000000A000000000000000000000000000000000000000000000 000000000000000000000000000000000000000     00000000                                                                                                                        000000000000000000
F0010000006384700003000090050144800042505000000000000000000201410150002001PLASTICOS JR ASOCIADOS SAS                        C000000000300000000000000000000000100010010000000000000000000000F0010000006384700320141015000101 00000000000000000000000000000000000000000000000000000000000000000000000000000000000000000000000000000000000000000N 00000000000NCONT   00    00000000000          00000000000000000000000000000000000000000000 000000000000000A000000000000000000000000000000000000000000000 000000000000000000000000000000000000000     00000000                                                                                                                        000000000000000000
F0010000006384700004000090050144800023658300000000000000000201410150002001PLASTICOS JR ASOCIADOS SAS                        C000000000013600000000000000000000100010010000000000000000000000F0010000006384700420141015000101 00000000000000000000000000000000000000000000000000000000000000000000000000000000000000000000000000000000000000000N 00000000000NCONT   00    00000000000          00000000000000000000000000000000000000000000 000000000000000A000000000000000000000000000000000000000000000 000000000000000000000000000000000000000     00000000                                                                                                                        000000000000000000
F0010000006384700005000090050144800013552100000000000000000201410150002001PLASTICOS JR ASOCIADOS SAS                        D000000000013600000000000000000000100010010000000000000000000000F0010000006384700520141015000101 00000000000000000000000000000000000000000000000000000000000000000000000000000000000000000000000000000000000000000N 00000000000NCONT   00    00000000000          00000000000000000000000000000000000000000000 000000000000000A000000000000000000000000000000000000000000000 000000000000000000000000000000000000000     00000000                                                                                                                        000000000000000000
F0010000006384800001000090050144800011050500000000000000000201410150002001PLASTICOS JR ASOCIADOS SAS                        D000000003800000000000000000000000100010010000000000000000000000F0010000006384800120141015000101 00000000000000000000000000000000000000000000000000000000000000000000000000000000000000000000000000000000000000000N 00000000000NCONT   00    00000000000          00000000000000000000000000000000000000000000 000000000000000A000000000000000000000000000000000000000000000 000000000000000000000000000000000000000     00000000                                                                                                                        000000000000000000
F0010000006384800002000090050144800041450500000000000000000201410150002001PLASTICOS JR ASOCIADOS SAS                        C000000003200000000000000000000000100010010000000000000000000000F0010000006384800220141015000101 00000000000000000000000000000000000000000000000000000000000000000000000000000000000000000000000000000000000000000N 00000000000NCONT   00    00000000000          00000000000000000000000000000000000000000000 000000000000000A000000000000000000000000000000000000000000000 000000000000000000000000000000000000000     00000000                                                                                                                        000000000000000000
F0010000006384800003000090050144800042505000000000000000000201410150002001PLASTICOS JR ASOCIADOS SAS                        C000000000600000000000000000000000100010010000000000000000000000F0010000006384800320141015000101 00000000000000000000000000000000000000000000000000000000000000000000000000000000000000000000000000000000000000000N 00000000000NCONT   00    00000000000          00000000000000000000000000000000000000000000 000000000000000A000000000000000000000000000000000000000000000 000000000000000000000000000000000000000     00000000                                                                                                                        000000000000000000
F0010000006384800004000090050144800023658300000000000000000201410150002001PLASTICOS JR ASOCIADOS SAS                        C000000000025600000000000000000000100010010000000000000000000000F0010000006384800420141015000101 00000000000000000000000000000000000000000000000000000000000000000000000000000000000000000000000000000000000000000N 00000000000NCONT   00    00000000000          00000000000000000000000000000000000000000000 000000000000000A000000000000000000000000000000000000000000000 000000000000000000000000000000000000000     00000000                                                                                                                        000000000000000000
F0010000006384800005000090050144800013552100000000000000000201410150002001PLASTICOS JR ASOCIADOS SAS                        D000000000025600000000000000000000100010010000000000000000000000F0010000006384800520141015000101 00000000000000000000000000000000000000000000000000000000000000000000000000000000000000000000000000000000000000000N 00000000000NCONT   00    00000000000          00000000000000000000000000000000000000000000 000000000000000A000000000000000000000000000000000000000000000 000000000000000000000000000000000000000     00000000                                                                                                                        000000000000000000
F0010000006384900001000090050144800011050500000000000000000201410150002001PLASTICOS JR ASOCIADOS SAS                        D000000002700000000000000000000000100010010000000000000000000000F0010000006384900120141015000101 00000000000000000000000000000000000000000000000000000000000000000000000000000000000000000000000000000000000000000N 00000000000NCONT   00    00000000000          00000000000000000000000000000000000000000000 000000000000000A000000000000000000000000000000000000000000000 000000000000000000000000000000000000000     00000000                                                                                                                        000000000000000000
F0010000006384900002000090050144800041450500000000000000000201410150002001PLASTICOS JR ASOCIADOS SAS                        C000000002400000000000000000000000100010010000000000000000000000F0010000006384900220141015000101 00000000000000000000000000000000000000000000000000000000000000000000000000000000000000000000000000000000000000000N 00000000000NCONT   00    00000000000          00000000000000000000000000000000000000000000 000000000000000A000000000000000000000000000000000000000000000 000000000000000000000000000000000000000     00000000                                                                                                                        000000000000000000
F0010000006384900003000090050144800042505000000000000000000201410150002001PLASTICOS JR ASOCIADOS SAS                        C000000000300000000000000000000000100010010000000000000000000000F0010000006384900320141015000101 00000000000000000000000000000000000000000000000000000000000000000000000000000000000000000000000000000000000000000N 00000000000NCONT   00    00000000000          00000000000000000000000000000000000000000000 000000000000000A000000000000000000000000000000000000000000000 000000000000000000000000000000000000000     00000000                                                                                                                        000000000000000000
F0010000006384900004000090050144800023658300000000000000000201410150002001PLASTICOS JR ASOCIADOS SAS                        C000000000019200000000000000000000100010010000000000000000000000F0010000006384900420141015000101 00000000000000000000000000000000000000000000000000000000000000000000000000000000000000000000000000000000000000000N 00000000000NCONT   00    00000000000          00000000000000000000000000000000000000000000 000000000000000A000000000000000000000000000000000000000000000 000000000000000000000000000000000000000     00000000                                                                                                                        000000000000000000
F0010000006384900005000090050144800013552100000000000000000201410150002001PLASTICOS JR ASOCIADOS SAS                        D000000000019200000000000000000000100010010000000000000000000000F0010000006384900520141015000101 00000000000000000000000000000000000000000000000000000000000000000000000000000000000000000000000000000000000000000N 00000000000NCONT   00    00000000000          00000000000000000000000000000000000000000000 000000000000000A000000000000000000000000000000000000000000000 000000000000000000000000000000000000000     00000000                                                                                                                        000000000000000000
F0010000006385000001000000742399700011050500000000000000000201410150002001CACHARRERIA EL NUEVO CHADID                       D000000005500000000000000000000000100010010000000000000000000000F0010000006385000120141015000101 00000000000000000000000000000000000000000000000000000000000000000000000000000000000000000000000000000000000000000N 00000000000NCONT   00    00000000000          00000000000000000000000000000000000000000000 000000000000000A000000000000000000000000000000000000000000000 000000000000000000000000000000000000000     00000000                                                                                                                        000000000000000000
F0010000006385000002000000742399700041450500000000000000000201410150002001CACHARRERIA EL NUEVO CHADID                       C000000004500000000000000000000000100010010000000000000000000000F0010000006385000220141015000101 00000000000000000000000000000000000000000000000000000000000000000000000000000000000000000000000000000000000000000N 00000000000NCONT   00    00000000000          00000000000000000000000000000000000000000000 000000000000000A000000000000000000000000000000000000000000000 000000000000000000000000000000000000000     00000000                                                                                                                        000000000000000000
F0010000006385000003000000742399700042505000000000000000000201410150002001CACHARRERIA EL NUEVO CHADID                       C000000001000000000000000000000000100010010000000000000000000000F0010000006385000320141015000101 00000000000000000000000000000000000000000000000000000000000000000000000000000000000000000000000000000000000000000N 00000000000NCONT   00    00000000000          00000000000000000000000000000000000000000000 000000000000000A000000000000000000000000000000000000000000000 000000000000000000000000000000000000000     00000000                                                                                                                        000000000000000000
F0010000006385000004000000742399700023658300000000000000000201410150002001CACHARRERIA EL NUEVO CHADID                       C000000000036000000000000000000000100010010000000000000000000000F0010000006385000420141015000101 00000000000000000000000000000000000000000000000000000000000000000000000000000000000000000000000000000000000000000N 00000000000NCONT   00    00000000000          00000000000000000000000000000000000000000000 000000000000000A000000000000000000000000000000000000000000000 000000000000000000000000000000000000000     00000000                                                                                                                        000000000000000000
F0010000006385000005000000742399700013552100000000000000000201410150002001CACHARRERIA EL NUEVO CHADID                       D000000000036000000000000000000000100010010000000000000000000000F0010000006385000520141015000101 00000000000000000000000000000000000000000000000000000000000000000000000000000000000000000000000000000000000000000N 00000000000NCONT   00    00000000000          00000000000000000000000000000000000000000000 000000000000000A000000000000000000000000000000000000000000000 000000000000000000000000000000000000000     00000000                                                                                                                        000000000000000000
F0010000006385100001000080202350700011050500000000000000000201410150002001CONNY DE LA COSTA SAS                             D000000007000000000000000000000000100010010000000000000000000000F0010000006385100120141015000101 00000000000000000000000000000000000000000000000000000000000000000000000000000000000000000000000000000000000000000N 00000000000NCONT   00    00000000000          00000000000000000000000000000000000000000000 000000000000000A000000000000000000000000000000000000000000000 000000000000000000000000000000000000000     00000000                                                                                                                        000000000000000000
F0010000006385100002000080202350700041450500000000000000000201410150002001CONNY DE LA COSTA SAS                             C000000005500000000000000000000000100010010000000000000000000000F0010000006385100220141015000101 00000000000000000000000000000000000000000000000000000000000000000000000000000000000000000000000000000000000000000N 00000000000NCONT   00    00000000000          00000000000000000000000000000000000000000000 000000000000000A000000000000000000000000000000000000000000000 000000000000000000000000000000000000000     00000000                                                                                                                        000000000000000000
F0010000006385100003000080202350700042505000000000000000000201410150002001CONNY DE LA COSTA SAS                             C000000001500000000000000000000000100010010000000000000000000000F0010000006385100320141015000101 00000000000000000000000000000000000000000000000000000000000000000000000000000000000000000000000000000000000000000N 00000000000NCONT   00    00000000000          00000000000000000000000000000000000000000000 000000000000000A000000000000000000000000000000000000000000000 000000000000000000000000000000000000000     00000000                                                                                                                        000000000000000000
F0010000006385100004000080202350700023658300000000000000000201410150002001CONNY DE LA COSTA SAS                             C000000000044000000000000000000000100010010000000000000000000000F0010000006385100420141015000101 00000000000000000000000000000000000000000000000000000000000000000000000000000000000000000000000000000000000000000N 00000000000NCONT   00    00000000000          00000000000000000000000000000000000000000000 000000000000000A000000000000000000000000000000000000000000000 000000000000000000000000000000000000000     00000000                                                                                                                        000000000000000000
F0010000006385100005000080202350700013552100000000000000000201410150002001CONNY DE LA COSTA SAS                             D000000000044000000000000000000000100010010000000000000000000000F0010000006385100520141015000101 00000000000000000000000000000000000000000000000000000000000000000000000000000000000000000000000000000000000000000N 00000000000NCONT   00    00000000000          00000000000000000000000000000000000000000000 000000000000000A000000000000000000000000000000000000000000000 000000000000000000000000000000000000000     00000000                                                                                                                        000000000000000000
F0010000006385200001000089093802000011050500000000000000000201410150002001INPROQUIM SAS                                     D000000001077200000000000000000000100010010000000000000000000000F0010000006385200120141015000101 00000000000000000000000000000000000000000000000000000000000000000000000000000000000000000000000000000000000000000N 00000000000NCONT   00    00000000000          00000000000000000000000000000000000000000000 000000000000000A000000000000000000000000000000000000000000000 000000000000000000000000000000000000000     00000000                                                                                                                        000000000000000000
F0010000006385200002000089093802000041450500000000000000000201410150002001INPROQUIM SAS                                     C000000000900000000000000000000000100010010000000000000000000000F0010000006385200220141015000101 00000000000000000000000000000000000000000000000000000000000000000000000000000000000000000000000000000000000000000N 00000000000NCONT   00    00000000000          00000000000000000000000000000000000000000000 000000000000000A000000000000000000000000000000000000000000000 000000000000000000000000000000000000000     00000000                                                                                                                        000000000000000000
F0010000006385200003000089093802000042505000000000000000000201410150002001INPROQUIM SAS                                     C000000000177200000000000000000000100010010000000000000000000000F0010000006385200320141015000101 00000000000000000000000000000000000000000000000000000000000000000000000000000000000000000000000000000000000000000N 00000000000NCONT   00    00000000000          00000000000000000000000000000000000000000000 000000000000000A000000000000000000000000000000000000000000000 000000000000000000000000000000000000000     00000000                                                                                                                        000000000000000000
F0010000006385200004000089093802000023658300000000000000000201410150002001INPROQUIM SAS                                     C000000000007200000000000000000000100010010000000000000000000000F0010000006385200420141015000101 00000000000000000000000000000000000000000000000000000000000000000000000000000000000000000000000000000000000000000N 00000000000NCONT   00    00000000000          00000000000000000000000000000000000000000000 000000000000000A000000000000000000000000000000000000000000000 000000000000000000000000000000000000000     00000000                                                                                                                        000000000000000000
F0010000006385200005000089093802000013552100000000000000000201410150002001INPROQUIM SAS                                     D000000000007200000000000000000000100010010000000000000000000000F0010000006385200520141015000101 00000000000000000000000000000000000000000000000000000000000000000000000000000000000000000000000000000000000000000N 00000000000NCONT   00    00000000000          00000000000000000000000000000000000000000000 000000000000000A000000000000000000000000000000000000000000000 000000000000000000000000000000000000000     00000000                                                                                                                        000000000000000000
F0010000006385300001000007217099000011050500000000000000000201410150002001ORLANDO PAEZ RAMIREZ                              D000000002606000000000000000000000100010010000000000000000000000F0010000006385300120141015000101 00000000000000000000000000000000000000000000000000000000000000000000000000000000000000000000000000000000000000000N 00000000000NCONT   00    00000000000          00000000000000000000000000000000000000000000 000000000000000A000000000000000000000000000000000000000000000 000000000000000000000000000000000000000     00000000                                                                                                                        000000000000000000
F0010000006385300002000007217099000041450500000000000000000201410150002001ORLANDO PAEZ RAMIREZ                              C000000002000000000000000000000000100010010000000000000000000000F0010000006385300220141015000101 00000000000000000000000000000000000000000000000000000000000000000000000000000000000000000000000000000000000000000N 00000000000NCONT   00    00000000000          00000000000000000000000000000000000000000000 000000000000000A000000000000000000000000000000000000000000000 000000000000000000000000000000000000000     00000000                                                                                                                        000000000000000000
F0010000006385300003000007217099000042505000000000000000000201410150002001ORLANDO PAEZ RAMIREZ                              C000000000606000000000000000000000100010010000000000000000000000F0010000006385300320141015000101 00000000000000000000000000000000000000000000000000000000000000000000000000000000000000000000000000000000000000000N 00000000000NCONT   00    00000000000          00000000000000000000000000000000000000000000 000000000000000A000000000000000000000000000000000000000000000 000000000000000000000000000000000000000     00000000                                                                                                                        000000000000000000
F0010000006385300004000007217099000023658300000000000000000201410150002001ORLANDO PAEZ RAMIREZ                              C000000000016000000000000000000000100010010000000000000000000000F0010000006385300420141015000101 00000000000000000000000000000000000000000000000000000000000000000000000000000000000000000000000000000000000000000N 00000000000NCONT   00    00000000000          00000000000000000000000000000000000000000000 000000000000000A000000000000000000000000000000000000000000000 000000000000000000000000000000000000000     00000000                                                                                                                        000000000000000000
F0010000006385300005000007217099000013552100000000000000000201410150002001ORLANDO PAEZ RAMIREZ                              D000000000016000000000000000000000100010010000000000000000000000F0010000006385300520141015000101 00000000000000000000000000000000000000000000000000000000000000000000000000000000000000000000000000000000000000000N 00000000000NCONT   00    00000000000          00000000000000000000000000000000000000000000 000000000000000A000000000000000000000000000000000000000000000 000000000000000000000000000000000000000     00000000                                                                                                                        000000000000000000
F0010000006385400001000007217099000011050500000000000000000201410150002001ORLANDO PAEZ RAMIREZ                              D000000005368000000000000000000000100010010000000000000000000000F0010000006385400120141015000101 00000000000000000000000000000000000000000000000000000000000000000000000000000000000000000000000000000000000000000N 00000000000NCONT   00    00000000000          00000000000000000000000000000000000000000000 000000000000000A000000000000000000000000000000000000000000000 000000000000000000000000000000000000000     00000000                                                                                                                        000000000000000000
F0010000006385400002000007217099000041450500000000000000000201410150002001ORLANDO PAEZ RAMIREZ                              C000000004800000000000000000000000100010010000000000000000000000F0010000006385400220141015000101 00000000000000000000000000000000000000000000000000000000000000000000000000000000000000000000000000000000000000000N 00000000000NCONT   00    00000000000          00000000000000000000000000000000000000000000 000000000000000A000000000000000000000000000000000000000000000 000000000000000000000000000000000000000     00000000                                                                                                                        000000000000000000
F0010000006385400003000007217099000042505000000000000000000201410150002001ORLANDO PAEZ RAMIREZ                              C000000000568000000000000000000000100010010000000000000000000000F0010000006385400320141015000101 00000000000000000000000000000000000000000000000000000000000000000000000000000000000000000000000000000000000000000N 00000000000NCONT   00    00000000000          00000000000000000000000000000000000000000000 000000000000000A000000000000000000000000000000000000000000000 000000000000000000000000000000000000000     00000000                                                                                                                        000000000000000000
F0010000006385400004000007217099000023658300000000000000000201410150002001ORLANDO PAEZ RAMIREZ                              C000000000038400000000000000000000100010010000000000000000000000F0010000006385400420141015000101 00000000000000000000000000000000000000000000000000000000000000000000000000000000000000000000000000000000000000000N 00000000000NCONT   00    00000000000          00000000000000000000000000000000000000000000 000000000000000A000000000000000000000000000000000000000000000 000000000000000000000000000000000000000     00000000                                                                                                                        000000000000000000
F0010000006385400005000007217099000013552100000000000000000201410150002001ORLANDO PAEZ RAMIREZ                              D000000000038400000000000000000000100010010000000000000000000000F0010000006385400520141015000101 00000000000000000000000000000000000000000000000000000000000000000000000000000000000000000000000000000000000000000N 00000000000NCONT   00    00000000000          00000000000000000000000000000000000000000000 000000000000000A000000000000000000000000000000000000000000000 000000000000000000000000000000000000000     00000000                                                                                                                        000000000000000000
F0010000006385500001000007904689600011050500000000000000000201410150002001VICTOR MANUEL BOCANEGRA RAMIREZ                   D000000001100000000000000000000000100010010000000000000000000000F0010000006385500120141015000101 00000000000000000000000000000000000000000000000000000000000000000000000000000000000000000000000000000000000000000N 00000000000NCONT   00    00000000000          00000000000000000000000000000000000000000000 000000000000000A000000000000000000000000000000000000000000000 000000000000000000000000000000000000000     00000000                                                                                                                        000000000000000000
F0010000006385500002000007904689600041450500000000000000000201410150002001VICTOR MANUEL BOCANEGRA RAMIREZ                   C000000001000000000000000000000000100010010000000000000000000000F0010000006385500220141015000101 00000000000000000000000000000000000000000000000000000000000000000000000000000000000000000000000000000000000000000N 00000000000NCONT   00    00000000000          00000000000000000000000000000000000000000000 000000000000000A000000000000000000000000000000000000000000000 000000000000000000000000000000000000000     00000000                                                                                                                        000000000000000000
F0010000006385500003000007904689600042505000000000000000000201410150002001VICTOR MANUEL BOCANEGRA RAMIREZ                   C000000000100000000000000000000000100010010000000000000000000000F0010000006385500320141015000101 00000000000000000000000000000000000000000000000000000000000000000000000000000000000000000000000000000000000000000N 00000000000NCONT   00    00000000000          00000000000000000000000000000000000000000000 000000000000000A000000000000000000000000000000000000000000000 000000000000000000000000000000000000000     00000000                                                                                                                        000000000000000000
F0010000006385500004000007904689600023658300000000000000000201410150002001VICTOR MANUEL BOCANEGRA RAMIREZ                   C000000000008000000000000000000000100010010000000000000000000000F0010000006385500420141015000101 00000000000000000000000000000000000000000000000000000000000000000000000000000000000000000000000000000000000000000N 00000000000NCONT   00    00000000000          00000000000000000000000000000000000000000000 000000000000000A000000000000000000000000000000000000000000000 000000000000000000000000000000000000000     00000000                                                                                                                        000000000000000000
F0010000006385500005000007904689600013552100000000000000000201410150002001VICTOR MANUEL BOCANEGRA RAMIREZ                   D000000000008000000000000000000000100010010000000000000000000000F0010000006385500520141015000101 00000000000000000000000000000000000000000000000000000000000000000000000000000000000000000000000000000000000000000N 00000000000NCONT   00    00000000000          00000000000000000000000000000000000000000000 000000000000000A000000000000000000000000000000000000000000000 000000000000000000000000000000000000000     00000000                                                                                                                        000000000000000000
F0010000006385600001000007904689600011050500000000000000000201410150002001VICTOR MANUEL BOCANEGRA RAMIREZ                   D000000002000000000000000000000000100010010000000000000000000000F0010000006385600120141015000101 00000000000000000000000000000000000000000000000000000000000000000000000000000000000000000000000000000000000000000N 00000000000NCONT   00    00000000000          00000000000000000000000000000000000000000000 000000000000000A000000000000000000000000000000000000000000000 000000000000000000000000000000000000000     00000000                                                                                                                        000000000000000000
F0010000006385600002000007904689600041450500000000000000000201410150002001VICTOR MANUEL BOCANEGRA RAMIREZ                   C000000001800000000000000000000000100010010000000000000000000000F0010000006385600220141015000101 00000000000000000000000000000000000000000000000000000000000000000000000000000000000000000000000000000000000000000N 00000000000NCONT   00    00000000000          00000000000000000000000000000000000000000000 000000000000000A000000000000000000000000000000000000000000000 000000000000000000000000000000000000000     00000000                                                                                                                        000000000000000000
F0010000006385600003000007904689600042505000000000000000000201410150002001VICTOR MANUEL BOCANEGRA RAMIREZ                   C000000000200000000000000000000000100010010000000000000000000000F0010000006385600320141015000101 00000000000000000000000000000000000000000000000000000000000000000000000000000000000000000000000000000000000000000N 00000000000NCONT   00    00000000000          00000000000000000000000000000000000000000000 000000000000000A000000000000000000000000000000000000000000000 000000000000000000000000000000000000000     00000000                                                                                                                        000000000000000000
F0010000006385600004000007904689600023658300000000000000000201410150002001VICTOR MANUEL BOCANEGRA RAMIREZ                   C000000000014400000000000000000000100010010000000000000000000000F0010000006385600420141015000101 00000000000000000000000000000000000000000000000000000000000000000000000000000000000000000000000000000000000000000N 00000000000NCONT   00    00000000000          00000000000000000000000000000000000000000000 000000000000000A000000000000000000000000000000000000000000000 000000000000000000000000000000000000000     00000000                                                                                                                        000000000000000000
F0010000006385600005000007904689600013552100000000000000000201410150002001VICTOR MANUEL BOCANEGRA RAMIREZ                   D000000000014400000000000000000000100010010000000000000000000000F0010000006385600520141015000101 00000000000000000000000000000000000000000000000000000000000000000000000000000000000000000000000000000000000000000N 00000000000NCONT   00    00000000000          00000000000000000000000000000000000000000000 000000000000000A000000000000000000000000000000000000000000000 000000000000000000000000000000000000000     00000000                                                                                                                        000000000000000000
F0010000006385700001000080014190300011050500000000000000000201410150002001QUIMINSA LTDA                                     D000000004845100000000000000000000100010010000000000000000000000F0010000006385700120141015000101 00000000000000000000000000000000000000000000000000000000000000000000000000000000000000000000000000000000000000000N 00000000000NCONT   00    00000000000          00000000000000000000000000000000000000000000 000000000000000A000000000000000000000000000000000000000000000 000000000000000000000000000000000000000     00000000                                                                                                                        000000000000000000
F0010000006385700002000080014190300041450500000000000000000201410150002001QUIMINSA LTDA                                     C000000004112000000000000000000000100010010000000000000000000000F0010000006385700220141015000101 00000000000000000000000000000000000000000000000000000000000000000000000000000000000000000000000000000000000000000N 00000000000NCONT   00    00000000000          00000000000000000000000000000000000000000000 000000000000000A000000000000000000000000000000000000000000000 000000000000000000000000000000000000000     00000000                                                                                                                        000000000000000000
