F0010000009623500001000007016511700011050500000000000000000201612260002001YEISON CASTAÑO                                   D000000001400000000000000000000000100010010000000000000000000000F0010000009623500120161226000101 00000000000000000000000000000000000000000000000000000000000000000000000000000000000000000000000000000000000000000N 00000000000NCONT   00    00000000000          00000000000000000000000000000000000000000000 000000000000000A000000000000000000000000000000000000000000000 000000000000000000000000000000000000000     00000000                                                                                                                        000000000000000000
F0010000009623500002000007016511700041450500000000000000000201612260002001YEISON CASTAÑO                                   C000000001300000000000000000000000100010010000000000000000000000F0010000009623500220161226000101 00000000000000000000000000000000000000000000000000000000000000000000000000000000000000000000000000000000000000000N 00000000000NCONT   00    00000000000          00000000000000000000000000000000000000000000 000000000000000A000000000000000000000000000000000000000000000 000000000000000000000000000000000000000     00000000                                                                                                                        000000000000000000
F0010000009623500003000007016511700042505000000000000000000201612260002001YEISON CASTAÑO                                   C000000000100000000000000000000000100010010000000000000000000000F0010000009623500320161226000101 00000000000000000000000000000000000000000000000000000000000000000000000000000000000000000000000000000000000000000N 00000000000NCONT   00    00000000000          00000000000000000000000000000000000000000000 000000000000000A000000000000000000000000000000000000000000000 000000000000000000000000000000000000000     00000000                                                                                                                        000000000000000000
F0010000009623500004000007016511700023658300000000000000000201612260002001YEISON CASTAÑO                                   C000000000010400000000000000000000100010010000000000000000000000F0010000009623500420161226000101 00000000000000000000000000000000000000000000000000000000000000000000000000000000000000000000000000000000000000000N 00000000000NCONT   00    00000000000          00000000000000000000000000000000000000000000 000000000000000A000000000000000000000000000000000000000000000 000000000000000000000000000000000000000     00000000                                                                                                                        000000000000000000
F0010000009623500005000007016511700013552100000000000000000201612260002001YEISON CASTAÑO                                   D000000000010400000000000000000000100010010000000000000000000000F0010000009623500520161226000101 00000000000000000000000000000000000000000000000000000000000000000000000000000000000000000000000000000000000000000N 00000000000NCONT   00    00000000000          00000000000000000000000000000000000000000000 000000000000000A000000000000000000000000000000000000000000000 000000000000000000000000000000000000000     00000000                                                                                                                        000000000000000000
F0010000009623600001000090002063500011050500000000000000000201612260002001DISTRICOOP                                        D000000004000000000000000000000000100010010000000000000000000000F0010000009623600120161226000101 00000000000000000000000000000000000000000000000000000000000000000000000000000000000000000000000000000000000000000N 00000000000NCONT   00    00000000000          00000000000000000000000000000000000000000000 000000000000000A000000000000000000000000000000000000000000000 000000000000000000000000000000000000000     00000000                                                                                                                        000000000000000000
F0010000009623600002000090002063500041450500000000000000000201612260002001DISTRICOOP                                        C000000003900000000000000000000000100010010000000000000000000000F0010000009623600220161226000101 00000000000000000000000000000000000000000000000000000000000000000000000000000000000000000000000000000000000000000N 00000000000NCONT   00    00000000000          00000000000000000000000000000000000000000000 000000000000000A000000000000000000000000000000000000000000000 000000000000000000000000000000000000000     00000000                                                                                                                        000000000000000000
F0010000009623600003000090002063500042505000000000000000000201612260002001DISTRICOOP                                        C000000000100000000000000000000000100010010000000000000000000000F0010000009623600320161226000101 00000000000000000000000000000000000000000000000000000000000000000000000000000000000000000000000000000000000000000N 00000000000NCONT   00    00000000000          00000000000000000000000000000000000000000000 000000000000000A000000000000000000000000000000000000000000000 000000000000000000000000000000000000000     00000000                                                                                                                        000000000000000000
F0010000009623600004000090002063500023658300000000000000000201612260002001DISTRICOOP                                        C000000000031200000000000000000000100010010000000000000000000000F0010000009623600420161226000101 00000000000000000000000000000000000000000000000000000000000000000000000000000000000000000000000000000000000000000N 00000000000NCONT   00    00000000000          00000000000000000000000000000000000000000000 000000000000000A000000000000000000000000000000000000000000000 000000000000000000000000000000000000000     00000000                                                                                                                        000000000000000000
F0010000009623600005000090002063500013552100000000000000000201612260002001DISTRICOOP                                        D000000000031200000000000000000000100010010000000000000000000000F0010000009623600520161226000101 00000000000000000000000000000000000000000000000000000000000000000000000000000000000000000000000000000000000000000N 00000000000NCONT   00    00000000000          00000000000000000000000000000000000000000000 000000000000000A000000000000000000000000000000000000000000000 000000000000000000000000000000000000000     00000000                                                                                                                        000000000000000000
F0010000009623700001000080201411900011050500000000000000000201612260002001PLASTISERVICIOS S DE H                            D000000001100000000000000000000000100010010000000000000000000000F0010000009623700120161226000101 00000000000000000000000000000000000000000000000000000000000000000000000000000000000000000000000000000000000000000N 00000000000NCONT   00    00000000000          00000000000000000000000000000000000000000000 000000000000000A000000000000000000000000000000000000000000000 000000000000000000000000000000000000000     00000000                                                                                                                        000000000000000000
F0010000009623700002000080201411900041450500000000000000000201612260002001PLASTISERVICIOS S DE H                            C000000001000000000000000000000000100010010000000000000000000000F0010000009623700220161226000101 00000000000000000000000000000000000000000000000000000000000000000000000000000000000000000000000000000000000000000N 00000000000NCONT   00    00000000000          00000000000000000000000000000000000000000000 000000000000000A000000000000000000000000000000000000000000000 000000000000000000000000000000000000000     00000000                                                                                                                        000000000000000000
F0010000009623700003000080201411900042505000000000000000000201612260002001PLASTISERVICIOS S DE H                            C000000000100000000000000000000000100010010000000000000000000000F0010000009623700320161226000101 00000000000000000000000000000000000000000000000000000000000000000000000000000000000000000000000000000000000000000N 00000000000NCONT   00    00000000000          00000000000000000000000000000000000000000000 000000000000000A000000000000000000000000000000000000000000000 000000000000000000000000000000000000000     00000000                                                                                                                        000000000000000000
F0010000009623700004000080201411900023658300000000000000000201612260002001PLASTISERVICIOS S DE H                            C000000000008000000000000000000000100010010000000000000000000000F0010000009623700420161226000101 00000000000000000000000000000000000000000000000000000000000000000000000000000000000000000000000000000000000000000N 00000000000NCONT   00    00000000000          00000000000000000000000000000000000000000000 000000000000000A000000000000000000000000000000000000000000000 000000000000000000000000000000000000000     00000000                                                                                                                        000000000000000000
F0010000009623700005000080201411900013552100000000000000000201612260002001PLASTISERVICIOS S DE H                            D000000000008000000000000000000000100010010000000000000000000000F0010000009623700520161226000101 00000000000000000000000000000000000000000000000000000000000000000000000000000000000000000000000000000000000000000N 00000000000NCONT   00    00000000000          00000000000000000000000000000000000000000000 000000000000000A000000000000000000000000000000000000000000000 000000000000000000000000000000000000000     00000000                                                                                                                        000000000000000000
F0010000009623800001000090051494400011050500000000000000000201612260002001MUNDINOX SAS                                      D000000006100000000000000000000000100010010000000000000000000000F0010000009623800120161226000101 00000000000000000000000000000000000000000000000000000000000000000000000000000000000000000000000000000000000000000N 00000000000NCONT   00    00000000000          00000000000000000000000000000000000000000000 000000000000000A000000000000000000000000000000000000000000000 000000000000000000000000000000000000000     00000000                                                                                                                        000000000000000000
F0010000009623800002000090051494400041450500000000000000000201612260002001MUNDINOX SAS                                      C000000006000000000000000000000000100010010000000000000000000000F0010000009623800220161226000101 00000000000000000000000000000000000000000000000000000000000000000000000000000000000000000000000000000000000000000N 00000000000NCONT   00    00000000000          00000000000000000000000000000000000000000000 000000000000000A000000000000000000000000000000000000000000000 000000000000000000000000000000000000000     00000000                                                                                                                        000000000000000000
F0010000009623800003000090051494400042505000000000000000000201612260002001MUNDINOX SAS                                      C000000000100000000000000000000000100010010000000000000000000000F0010000009623800320161226000101 00000000000000000000000000000000000000000000000000000000000000000000000000000000000000000000000000000000000000000N 00000000000NCONT   00    00000000000          00000000000000000000000000000000000000000000 000000000000000A000000000000000000000000000000000000000000000 000000000000000000000000000000000000000     00000000                                                                                                                        000000000000000000
F0010000009623800004000090051494400023658300000000000000000201612260002001MUNDINOX SAS                                      C000000000048000000000000000000000100010010000000000000000000000F0010000009623800420161226000101 00000000000000000000000000000000000000000000000000000000000000000000000000000000000000000000000000000000000000000N 00000000000NCONT   00    00000000000          00000000000000000000000000000000000000000000 000000000000000A000000000000000000000000000000000000000000000 000000000000000000000000000000000000000     00000000                                                                                                                        000000000000000000
F0010000009623800005000090051494400013552100000000000000000201612260002001MUNDINOX SAS                                      D000000000048000000000000000000000100010010000000000000000000000F0010000009623800520161226000101 00000000000000000000000000000000000000000000000000000000000000000000000000000000000000000000000000000000000000000N 00000000000NCONT   00    00000000000          00000000000000000000000000000000000000000000 000000000000000A000000000000000000000000000000000000000000000 000000000000000000000000000000000000000     00000000                                                                                                                        000000000000000000
F0010000009623900001000086003979400011050500000000000000000201612260002001CALYPSO BARRANQUILLA LTDA                         D000000003601400000000000000000000100010010000000000000000000000F0010000009623900120161226000101 00000000000000000000000000000000000000000000000000000000000000000000000000000000000000000000000000000000000000000N 00000000000NCONT   00    00000000000          00000000000000000000000000000000000000000000 000000000000000A000000000000000000000000000000000000000000000 000000000000000000000000000000000000000     00000000                                                                                                                        000000000000000000
F0010000009623900002000086003979400041450500000000000000000201612260002001CALYPSO BARRANQUILLA LTDA                         C000000003140000000000000000000000100010010000000000000000000000F0010000009623900220161226000101 00000000000000000000000000000000000000000000000000000000000000000000000000000000000000000000000000000000000000000N 00000000000NCONT   00    00000000000          00000000000000000000000000000000000000000000 000000000000000A000000000000000000000000000000000000000000000 000000000000000000000000000000000000000     00000000                                                                                                                        000000000000000000
F0010000009623900003000086003979400042505000000000000000000201612260002001CALYPSO BARRANQUILLA LTDA                         C000000000461400000000000000000000100010010000000000000000000000F0010000009623900320161226000101 00000000000000000000000000000000000000000000000000000000000000000000000000000000000000000000000000000000000000000N 00000000000NCONT   00    00000000000          00000000000000000000000000000000000000000000 000000000000000A000000000000000000000000000000000000000000000 000000000000000000000000000000000000000     00000000                                                                                                                        000000000000000000
F0010000009623900004000086003979400023658300000000000000000201612260002001CALYPSO BARRANQUILLA LTDA                         C000000000025100000000000000000000100010010000000000000000000000F0010000009623900420161226000101 00000000000000000000000000000000000000000000000000000000000000000000000000000000000000000000000000000000000000000N 00000000000NCONT   00    00000000000          00000000000000000000000000000000000000000000 000000000000000A000000000000000000000000000000000000000000000 000000000000000000000000000000000000000     00000000                                                                                                                        000000000000000000
F0010000009623900005000086003979400013552100000000000000000201612260002001CALYPSO BARRANQUILLA LTDA                         D000000000025100000000000000000000100010010000000000000000000000F0010000009623900520161226000101 00000000000000000000000000000000000000000000000000000000000000000000000000000000000000000000000000000000000000000N 00000000000NCONT   00    00000000000          00000000000000000000000000000000000000000000 000000000000000A000000000000000000000000000000000000000000000 000000000000000000000000000000000000000     00000000                                                                                                                        000000000000000000
F0010000009624000001000007050847600011050500000000000000000201612260002001HECTOR HERNANDO RAMIREZ MONTOYA                   D000000001150000000000000000000000100010010000000000000000000000F0010000009624000120161226000101 00000000000000000000000000000000000000000000000000000000000000000000000000000000000000000000000000000000000000000N 00000000000NCONT   00    00000000000          00000000000000000000000000000000000000000000 000000000000000A000000000000000000000000000000000000000000000 000000000000000000000000000000000000000     00000000                                                                                                                        000000000000000000
F0010000009624000002000007050847600041450500000000000000000201612260002001HECTOR HERNANDO RAMIREZ MONTOYA                   C000000001000000000000000000000000100010010000000000000000000000F0010000009624000220161226000101 00000000000000000000000000000000000000000000000000000000000000000000000000000000000000000000000000000000000000000N 00000000000NCONT   00    00000000000          00000000000000000000000000000000000000000000 000000000000000A000000000000000000000000000000000000000000000 000000000000000000000000000000000000000     00000000                                                                                                                        000000000000000000
F0010000009624000003000007050847600042505000000000000000000201612260002001HECTOR HERNANDO RAMIREZ MONTOYA                   C000000000150000000000000000000000100010010000000000000000000000F0010000009624000320161226000101 00000000000000000000000000000000000000000000000000000000000000000000000000000000000000000000000000000000000000000N 00000000000NCONT   00    00000000000          00000000000000000000000000000000000000000000 000000000000000A000000000000000000000000000000000000000000000 000000000000000000000000000000000000000     00000000                                                                                                                        000000000000000000
F0010000009624000004000007050847600023658300000000000000000201612260002001HECTOR HERNANDO RAMIREZ MONTOYA                   C000000000008000000000000000000000100010010000000000000000000000F0010000009624000420161226000101 00000000000000000000000000000000000000000000000000000000000000000000000000000000000000000000000000000000000000000N 00000000000NCONT   00    00000000000          00000000000000000000000000000000000000000000 000000000000000A000000000000000000000000000000000000000000000 000000000000000000000000000000000000000     00000000                                                                                                                        000000000000000000
F0010000009624000005000007050847600013552100000000000000000201612260002001HECTOR HERNANDO RAMIREZ MONTOYA                   D000000000008000000000000000000000100010010000000000000000000000F0010000009624000520161226000101 00000000000000000000000000000000000000000000000000000000000000000000000000000000000000000000000000000000000000000N 00000000000NCONT   00    00000000000          00000000000000000000000000000000000000000000 000000000000000A000000000000000000000000000000000000000000000 000000000000000000000000000000000000000     00000000                                                                                                                        000000000000000000
F0010000009624100001000002245670100011050500000000000000000201612260002001YOLANDA  TOBON                                    D000000000781300000000000000000000100010010000000000000000000000F0010000009624100120161226000101 00000000000000000000000000000000000000000000000000000000000000000000000000000000000000000000000000000000000000000N 00000000000NCONT   00    00000000000          00000000000000000000000000000000000000000000 000000000000000A000000000000000000000000000000000000000000000 000000000000000000000000000000000000000     00000000                                                                                                                        000000000000000000
F0010000009624100002000002245670100041450500000000000000000201612260002001YOLANDA  TOBON                                    C000000000650000000000000000000000100010010000000000000000000000F0010000009624100220161226000101 00000000000000000000000000000000000000000000000000000000000000000000000000000000000000000000000000000000000000000N 00000000000NCONT   00    00000000000          00000000000000000000000000000000000000000000 000000000000000A000000000000000000000000000000000000000000000 000000000000000000000000000000000000000     00000000                                                                                                                        000000000000000000
F0010000009624100003000002245670100042505000000000000000000201612260002001YOLANDA  TOBON                                    C000000000131300000000000000000000100010010000000000000000000000F0010000009624100320161226000101 00000000000000000000000000000000000000000000000000000000000000000000000000000000000000000000000000000000000000000N 00000000000NCONT   00    00000000000          00000000000000000000000000000000000000000000 000000000000000A000000000000000000000000000000000000000000000 000000000000000000000000000000000000000     00000000                                                                                                                        000000000000000000
F0010000009624100004000002245670100023658300000000000000000201612260002001YOLANDA  TOBON                                    C000000000005200000000000000000000100010010000000000000000000000F0010000009624100420161226000101 00000000000000000000000000000000000000000000000000000000000000000000000000000000000000000000000000000000000000000N 00000000000NCONT   00    00000000000          00000000000000000000000000000000000000000000 000000000000000A000000000000000000000000000000000000000000000 000000000000000000000000000000000000000     00000000                                                                                                                        000000000000000000
F0010000009624100005000002245670100013552100000000000000000201612260002001YOLANDA  TOBON                                    D000000000005200000000000000000000100010010000000000000000000000F0010000009624100520161226000101 00000000000000000000000000000000000000000000000000000000000000000000000000000000000000000000000000000000000000000N 00000000000NCONT   00    00000000000          00000000000000000000000000000000000000000000 000000000000000A000000000000000000000000000000000000000000000 000000000000000000000000000000000000000     00000000                                                                                                                        000000000000000000
F0010000009624200001000007904689600011050500000000000000000201612260002001VICTOR MANUEL BOCANEGRA RAMIREZ                   D000000001300000000000000000000000100010010000000000000000000000F0010000009624200120161226000101 00000000000000000000000000000000000000000000000000000000000000000000000000000000000000000000000000000000000000000N 00000000000NCONT   00    00000000000          00000000000000000000000000000000000000000000 000000000000000A000000000000000000000000000000000000000000000 000000000000000000000000000000000000000     00000000                                                                                                                        000000000000000000
F0010000009624200002000007904689600041450500000000000000000201612260002001VICTOR MANUEL BOCANEGRA RAMIREZ                   C000000001200000000000000000000000100010010000000000000000000000F0010000009624200220161226000101 00000000000000000000000000000000000000000000000000000000000000000000000000000000000000000000000000000000000000000N 00000000000NCONT   00    00000000000          00000000000000000000000000000000000000000000 000000000000000A000000000000000000000000000000000000000000000 000000000000000000000000000000000000000     00000000                                                                                                                        000000000000000000
F0010000009624200003000007904689600042505000000000000000000201612260002001VICTOR MANUEL BOCANEGRA RAMIREZ                   C000000000100000000000000000000000100010010000000000000000000000F0010000009624200320161226000101 00000000000000000000000000000000000000000000000000000000000000000000000000000000000000000000000000000000000000000N 00000000000NCONT   00    00000000000          00000000000000000000000000000000000000000000 000000000000000A000000000000000000000000000000000000000000000 000000000000000000000000000000000000000     00000000                                                                                                                        000000000000000000
F0010000009624200004000007904689600023658300000000000000000201612260002001VICTOR MANUEL BOCANEGRA RAMIREZ                   C000000000009600000000000000000000100010010000000000000000000000F0010000009624200420161226000101 00000000000000000000000000000000000000000000000000000000000000000000000000000000000000000000000000000000000000000N 00000000000NCONT   00    00000000000          00000000000000000000000000000000000000000000 000000000000000A000000000000000000000000000000000000000000000 000000000000000000000000000000000000000     00000000                                                                                                                        000000000000000000
F0010000009624200005000007904689600013552100000000000000000201612260002001VICTOR MANUEL BOCANEGRA RAMIREZ                   D000000000009600000000000000000000100010010000000000000000000000F0010000009624200520161226000101 00000000000000000000000000000000000000000000000000000000000000000000000000000000000000000000000000000000000000000N 00000000000NCONT   00    00000000000          00000000000000000000000000000000000000000000 000000000000000A000000000000000000000000000000000000000000000 000000000000000000000000000000000000000     00000000                                                                                                                        000000000000000000
F0010000009624300001000007904689600011050500000000000000000201612260002001VICTOR MANUEL BOCANEGRA RAMIREZ                   D000000001000000000000000000000000100010010000000000000000000000F0010000009624300120161226000101 00000000000000000000000000000000000000000000000000000000000000000000000000000000000000000000000000000000000000000N 00000000000NCONT   00    00000000000          00000000000000000000000000000000000000000000 000000000000000A000000000000000000000000000000000000000000000 000000000000000000000000000000000000000     00000000                                                                                                                        000000000000000000
F0010000009624300002000007904689600041450500000000000000000201612260002001VICTOR MANUEL BOCANEGRA RAMIREZ                   C000000000900000000000000000000000100010010000000000000000000000F0010000009624300220161226000101 00000000000000000000000000000000000000000000000000000000000000000000000000000000000000000000000000000000000000000N 00000000000NCONT   00    00000000000          00000000000000000000000000000000000000000000 000000000000000A000000000000000000000000000000000000000000000 000000000000000000000000000000000000000     00000000                                                                                                                        000000000000000000
F0010000009624300003000007904689600042505000000000000000000201612260002001VICTOR MANUEL BOCANEGRA RAMIREZ                   C000000000100000000000000000000000100010010000000000000000000000F0010000009624300320161226000101 00000000000000000000000000000000000000000000000000000000000000000000000000000000000000000000000000000000000000000N 00000000000NCONT   00    00000000000          00000000000000000000000000000000000000000000 000000000000000A000000000000000000000000000000000000000000000 000000000000000000000000000000000000000     00000000                                                                                                                        000000000000000000
F0010000009624300004000007904689600023658300000000000000000201612260002001VICTOR MANUEL BOCANEGRA RAMIREZ                   C000000000007200000000000000000000100010010000000000000000000000F0010000009624300420161226000101 00000000000000000000000000000000000000000000000000000000000000000000000000000000000000000000000000000000000000000N 00000000000NCONT   00    00000000000          00000000000000000000000000000000000000000000 000000000000000A000000000000000000000000000000000000000000000 000000000000000000000000000000000000000     00000000                                                                                                                        000000000000000000
F0010000009624300005000007904689600013552100000000000000000201612260002001VICTOR MANUEL BOCANEGRA RAMIREZ                   D000000000007200000000000000000000100010010000000000000000000000F0010000009624300520161226000101 00000000000000000000000000000000000000000000000000000000000000000000000000000000000000000000000000000000000000000N 00000000000NCONT   00    00000000000          00000000000000000000000000000000000000000000 000000000000000A000000000000000000000000000000000000000000000 000000000000000000000000000000000000000     00000000                                                                                                                        000000000000000000
F0010000009624400001000000871573200011050500000000000000000201612260002001ACCESORIAS ARQUITECTONI KJ                        D000000003570000000000000000000000100010010000000000000000000000F0010000009624400120161226000101 00000000000000000000000000000000000000000000000000000000000000000000000000000000000000000000000000000000000000000N 00000000000NCONT   00    00000000000          00000000000000000000000000000000000000000000 000000000000000A000000000000000000000000000000000000000000000 000000000000000000000000000000000000000     00000000                                                                                                                        000000000000000000
F0010000009624400002000000871573200041450500000000000000000201612260002001ACCESORIAS ARQUITECTONI KJ                        C000000002600000000000000000000000100010010000000000000000000000F0010000009624400220161226000101 00000000000000000000000000000000000000000000000000000000000000000000000000000000000000000000000000000000000000000N 00000000000NCONT   00    00000000000          00000000000000000000000000000000000000000000 000000000000000A000000000000000000000000000000000000000000000 000000000000000000000000000000000000000     00000000                                                                                                                        000000000000000000
F0010000009624400003000000871573200042505000000000000000000201612260002001ACCESORIAS ARQUITECTONI KJ                        C000000000970000000000000000000000100010010000000000000000000000F0010000009624400320161226000101 00000000000000000000000000000000000000000000000000000000000000000000000000000000000000000000000000000000000000000N 00000000000NCONT   00    00000000000          00000000000000000000000000000000000000000000 000000000000000A000000000000000000000000000000000000000000000 000000000000000000000000000000000000000     00000000                                                                                                                        000000000000000000
F0010000009624400004000000871573200023658300000000000000000201612260002001ACCESORIAS ARQUITECTONI KJ                        C000000000020800000000000000000000100010010000000000000000000000F0010000009624400420161226000101 00000000000000000000000000000000000000000000000000000000000000000000000000000000000000000000000000000000000000000N 00000000000NCONT   00    00000000000          00000000000000000000000000000000000000000000 000000000000000A000000000000000000000000000000000000000000000 000000000000000000000000000000000000000     00000000                                                                                                                        000000000000000000
F0010000009624400005000000871573200013552100000000000000000201612260002001ACCESORIAS ARQUITECTONI KJ                        D000000000020800000000000000000000100010010000000000000000000000F0010000009624400520161226000101 00000000000000000000000000000000000000000000000000000000000000000000000000000000000000000000000000000000000000000N 00000000000NCONT   00    00000000000          00000000000000000000000000000000000000000000 000000000000000A000000000000000000000000000000000000000000000 000000000000000000000000000000000000000     00000000                                                                                                                        000000000000000000
F0010000009624500001000089011078600011050500000000000000000201612260002001DIST. NUEVO MUNDO S.A.S.                          D000000002872000000000000000000000100010010000000000000000000000F0010000009624500120161226000101 00000000000000000000000000000000000000000000000000000000000000000000000000000000000000000000000000000000000000000N 00000000000NCONT   00    00000000000          00000000000000000000000000000000000000000000 000000000000000A000000000000000000000000000000000000000000000 000000000000000000000000000000000000000     00000000                                                                                                                        000000000000000000
F0010000009624500002000089011078600041450500000000000000000201612260002001DIST. NUEVO MUNDO S.A.S.                          C000000002340000000000000000000000100010010000000000000000000000F0010000009624500220161226000101 00000000000000000000000000000000000000000000000000000000000000000000000000000000000000000000000000000000000000000N 00000000000NCONT   00    00000000000          00000000000000000000000000000000000000000000 000000000000000A000000000000000000000000000000000000000000000 000000000000000000000000000000000000000     00000000                                                                                                                        000000000000000000
F0010000009624500003000089011078600042505000000000000000000201612260002001DIST. NUEVO MUNDO S.A.S.                          C000000000532000000000000000000000100010010000000000000000000000F0010000009624500320161226000101 00000000000000000000000000000000000000000000000000000000000000000000000000000000000000000000000000000000000000000N 00000000000NCONT   00    00000000000          00000000000000000000000000000000000000000000 000000000000000A000000000000000000000000000000000000000000000 000000000000000000000000000000000000000     00000000                                                                                                                        000000000000000000
F0010000009624500004000089011078600023658300000000000000000201612260002001DIST. NUEVO MUNDO S.A.S.                          C000000000018700000000000000000000100010010000000000000000000000F0010000009624500420161226000101 00000000000000000000000000000000000000000000000000000000000000000000000000000000000000000000000000000000000000000N 00000000000NCONT   00    00000000000          00000000000000000000000000000000000000000000 000000000000000A000000000000000000000000000000000000000000000 000000000000000000000000000000000000000     00000000                                                                                                                        000000000000000000
F0010000009624500005000089011078600013552100000000000000000201612260002001DIST. NUEVO MUNDO S.A.S.                          D000000000018700000000000000000000100010010000000000000000000000F0010000009624500520161226000101 00000000000000000000000000000000000000000000000000000000000000000000000000000000000000000000000000000000000000000N 00000000000NCONT   00    00000000000          00000000000000000000000000000000000000000000 000000000000000A000000000000000000000000000000000000000000000 000000000000000000000000000000000000000     00000000                                                                                                                        000000000000000000
F0010000009624600001000090007142100011050500000000000000000201612260002001TODO BELLEZA Y MAX S.A.S                          D000000003350000000000000000000000100010010000000000000000000000F0010000009624600120161226000101 00000000000000000000000000000000000000000000000000000000000000000000000000000000000000000000000000000000000000000N 00000000000NCONT   00    00000000000          00000000000000000000000000000000000000000000 000000000000000A000000000000000000000000000000000000000000000 000000000000000000000000000000000000000     00000000                                                                                                                        000000000000000000
F0010000009624600002000090007142100041450500000000000000000201612260002001TODO BELLEZA Y MAX S.A.S                          C000000003250000000000000000000000100010010000000000000000000000F0010000009624600220161226000101 00000000000000000000000000000000000000000000000000000000000000000000000000000000000000000000000000000000000000000N 00000000000NCONT   00    00000000000          00000000000000000000000000000000000000000000 000000000000000A000000000000000000000000000000000000000000000 000000000000000000000000000000000000000     00000000                                                                                                                        000000000000000000
F0010000009624600003000090007142100042505000000000000000000201612260002001TODO BELLEZA Y MAX S.A.S                          C000000000100000000000000000000000100010010000000000000000000000F0010000009624600320161226000101 00000000000000000000000000000000000000000000000000000000000000000000000000000000000000000000000000000000000000000N 00000000000NCONT   00    00000000000          00000000000000000000000000000000000000000000 000000000000000A000000000000000000000000000000000000000000000 000000000000000000000000000000000000000     00000000                                                                                                                        000000000000000000
F0010000009624600004000090007142100023658300000000000000000201612260002001TODO BELLEZA Y MAX S.A.S                          C000000000026000000000000000000000100010010000000000000000000000F0010000009624600420161226000101 00000000000000000000000000000000000000000000000000000000000000000000000000000000000000000000000000000000000000000N 00000000000NCONT   00    00000000000          00000000000000000000000000000000000000000000 000000000000000A000000000000000000000000000000000000000000000 000000000000000000000000000000000000000     00000000                                                                                                                        000000000000000000
F0010000009624600005000090007142100013552100000000000000000201612260002001TODO BELLEZA Y MAX S.A.S                          D000000000026000000000000000000000100010010000000000000000000000F0010000009624600520161226000101 00000000000000000000000000000000000000000000000000000000000000000000000000000000000000000000000000000000000000000N 00000000000NCONT   00    00000000000          00000000000000000000000000000000000000000000 000000000000000A000000000000000000000000000000000000000000000 000000000000000000000000000000000000000     00000000                                                                                                                        000000000000000000
F0010000009624700001000004976835500011050500000000000000000201612260002001GREGORIA DEL CARMEN ORTIZ GARCIA                  D000000041200000000000000000000000100010010000000000000000000000F0010000009624700120161226000101 00000000000000000000000000000000000000000000000000000000000000000000000000000000000000000000000000000000000000000N 00000000000NCONT   00    00000000000          00000000000000000000000000000000000000000000 000000000000000A000000000000000000000000000000000000000000000 000000000000000000000000000000000000000     00000000                                                                                                                        000000000000000000
F0010000009624700002000004976835500041450500000000000000000201612260002001GREGORIA DEL CARMEN ORTIZ GARCIA                  C000000040800000000000000000000000100010010000000000000000000000F0010000009624700220161226000101 00000000000000000000000000000000000000000000000000000000000000000000000000000000000000000000000000000000000000000N 00000000000NCONT   00    00000000000          00000000000000000000000000000000000000000000 000000000000000A000000000000000000000000000000000000000000000 000000000000000000000000000000000000000     00000000                                                                                                                        000000000000000000
F0010000009624700003000004976835500042505000000000000000000201612260002001GREGORIA DEL CARMEN ORTIZ GARCIA                  C000000000400000000000000000000000100010010000000000000000000000F0010000009624700320161226000101 00000000000000000000000000000000000000000000000000000000000000000000000000000000000000000000000000000000000000000N 00000000000NCONT   00    00000000000          00000000000000000000000000000000000000000000 000000000000000A000000000000000000000000000000000000000000000 000000000000000000000000000000000000000     00000000                                                                                                                        000000000000000000
F0010000009624700004000004976835500023658300000000000000000201612260002001GREGORIA DEL CARMEN ORTIZ GARCIA                  C000000000326400000000000000000000100010010000000000000000000000F0010000009624700420161226000101 00000000000000000000000000000000000000000000000000000000000000000000000000000000000000000000000000000000000000000N 00000000000NCONT   00    00000000000          00000000000000000000000000000000000000000000 000000000000000A000000000000000000000000000000000000000000000 000000000000000000000000000000000000000     00000000                                                                                                                        000000000000000000
F0010000009624700005000004976835500013552100000000000000000201612260002001GREGORIA DEL CARMEN ORTIZ GARCIA                  D000000000326400000000000000000000100010010000000000000000000000F0010000009624700520161226000101 00000000000000000000000000000000000000000000000000000000000000000000000000000000000000000000000000000000000000000N 00000000000NCONT   00    00000000000          00000000000000000000000000000000000000000000 000000000000000A000000000000000000000000000000000000000000000 000000000000000000000000000000000000000     00000000                                                                                                                        000000000000000000
F0010000009624800001000007200023300011050500000000000000000201612260002001WILLIAM ORTEGA                                    D000000001200000000000000000000000100010010000000000000000000000F0010000009624800120161226000101 00000000000000000000000000000000000000000000000000000000000000000000000000000000000000000000000000000000000000000N 00000000000NCONT   00    00000000000          00000000000000000000000000000000000000000000 000000000000000A000000000000000000000000000000000000000000000 000000000000000000000000000000000000000     00000000                                                                                                                        000000000000000000
F0010000009624800002000007200023300041450500000000000000000201612260002001WILLIAM ORTEGA                                    C000000001000000000000000000000000100010010000000000000000000000F0010000009624800220161226000101 00000000000000000000000000000000000000000000000000000000000000000000000000000000000000000000000000000000000000000N 00000000000NCONT   00    00000000000          00000000000000000000000000000000000000000000 000000000000000A000000000000000000000000000000000000000000000 000000000000000000000000000000000000000     00000000                                                                                                                        000000000000000000
F0010000009624800003000007200023300042505000000000000000000201612260002001WILLIAM ORTEGA                                    C000000000200000000000000000000000100010010000000000000000000000F0010000009624800320161226000101 00000000000000000000000000000000000000000000000000000000000000000000000000000000000000000000000000000000000000000N 00000000000NCONT   00    00000000000          00000000000000000000000000000000000000000000 000000000000000A000000000000000000000000000000000000000000000 000000000000000000000000000000000000000     00000000                                                                                                                        000000000000000000
F0010000009624800004000007200023300023658300000000000000000201612260002001WILLIAM ORTEGA                                    C000000000008000000000000000000000100010010000000000000000000000F0010000009624800420161226000101 00000000000000000000000000000000000000000000000000000000000000000000000000000000000000000000000000000000000000000N 00000000000NCONT   00    00000000000          00000000000000000000000000000000000000000000 000000000000000A000000000000000000000000000000000000000000000 000000000000000000000000000000000000000     00000000                                                                                                                        000000000000000000
F0010000009624800005000007200023300013552100000000000000000201612260002001WILLIAM ORTEGA                                    D000000000008000000000000000000000100010010000000000000000000000F0010000009624800520161226000101 00000000000000000000000000000000000000000000000000000000000000000000000000000000000000000000000000000000000000000N 00000000000NCONT   00    00000000000          00000000000000000000000000000000000000000000 000000000000000A000000000000000000000000000000000000000000000 000000000000000000000000000000000000000     00000000                                                                                                                        000000000000000000
F0010000009624900001000007200023300011050500000000000000000201612260002001WILLIAM ORTEGA                                    D000000001400000000000000000000000100010010000000000000000000000F0010000009624900120161226000101 00000000000000000000000000000000000000000000000000000000000000000000000000000000000000000000000000000000000000000N 00000000000NCONT   00    00000000000          00000000000000000000000000000000000000000000 000000000000000A000000000000000000000000000000000000000000000 000000000000000000000000000000000000000     00000000                                                                                                                        000000000000000000
F0010000009624900002000007200023300041450500000000000000000201612260002001WILLIAM ORTEGA                                    C000000001000000000000000000000000100010010000000000000000000000F0010000009624900220161226000101 00000000000000000000000000000000000000000000000000000000000000000000000000000000000000000000000000000000000000000N 00000000000NCONT   00    00000000000          00000000000000000000000000000000000000000000 000000000000000A000000000000000000000000000000000000000000000 000000000000000000000000000000000000000     00000000                                                                                                                        000000000000000000
F0010000009624900003000007200023300042505000000000000000000201612260002001WILLIAM ORTEGA                                    C000000000400000000000000000000000100010010000000000000000000000F0010000009624900320161226000101 00000000000000000000000000000000000000000000000000000000000000000000000000000000000000000000000000000000000000000N 00000000000NCONT   00    00000000000          00000000000000000000000000000000000000000000 000000000000000A000000000000000000000000000000000000000000000 000000000000000000000000000000000000000     00000000                                                                                                                        000000000000000000
F0010000009624900004000007200023300023658300000000000000000201612260002001WILLIAM ORTEGA                                    C000000000008000000000000000000000100010010000000000000000000000F0010000009624900420161226000101 00000000000000000000000000000000000000000000000000000000000000000000000000000000000000000000000000000000000000000N 00000000000NCONT   00    00000000000          00000000000000000000000000000000000000000000 000000000000000A000000000000000000000000000000000000000000000 000000000000000000000000000000000000000     00000000                                                                                                                        000000000000000000
F0010000009624900005000007200023300013552100000000000000000201612260002001WILLIAM ORTEGA                                    D000000000008000000000000000000000100010010000000000000000000000F0010000009624900520161226000101 00000000000000000000000000000000000000000000000000000000000000000000000000000000000000000000000000000000000000000N 00000000000NCONT   00    00000000000          00000000000000000000000000000000000000000000 000000000000000A000000000000000000000000000000000000000000000 000000000000000000000000000000000000000     00000000                                                                                                                        000000000000000000
F0010000009625000001000007200023300011050500000000000000000201612260002001WILLIAM ORTEGA                                    D000000002200000000000000000000000100010010000000000000000000000F0010000009625000120161226000101 00000000000000000000000000000000000000000000000000000000000000000000000000000000000000000000000000000000000000000N 00000000000NCONT   00    00000000000          00000000000000000000000000000000000000000000 000000000000000A000000000000000000000000000000000000000000000 000000000000000000000000000000000000000     00000000                                                                                                                        000000000000000000
F0010000009625000002000007200023300041450500000000000000000201612260002001WILLIAM ORTEGA                                    C000000002000000000000000000000000100010010000000000000000000000F0010000009625000220161226000101 00000000000000000000000000000000000000000000000000000000000000000000000000000000000000000000000000000000000000000N 00000000000NCONT   00    00000000000          00000000000000000000000000000000000000000000 000000000000000A000000000000000000000000000000000000000000000 000000000000000000000000000000000000000     00000000                                                                                                                        000000000000000000
F0010000009625000003000007200023300042505000000000000000000201612260002001WILLIAM ORTEGA                                    C000000000200000000000000000000000100010010000000000000000000000F0010000009625000320161226000101 00000000000000000000000000000000000000000000000000000000000000000000000000000000000000000000000000000000000000000N 00000000000NCONT   00    00000000000          00000000000000000000000000000000000000000000 000000000000000A000000000000000000000000000000000000000000000 000000000000000000000000000000000000000     00000000                                                                                                                        000000000000000000
F0010000009625000004000007200023300023658300000000000000000201612260002001WILLIAM ORTEGA                                    C000000000016000000000000000000000100010010000000000000000000000F0010000009625000420161226000101 00000000000000000000000000000000000000000000000000000000000000000000000000000000000000000000000000000000000000000N 00000000000NCONT   00    00000000000          00000000000000000000000000000000000000000000 000000000000000A000000000000000000000000000000000000000000000 000000000000000000000000000000000000000     00000000                                                                                                                        000000000000000000
F0010000009625000005000007200023300013552100000000000000000201612260002001WILLIAM ORTEGA                                    D000000000016000000000000000000000100010010000000000000000000000F0010000009625000520161226000101 00000000000000000000000000000000000000000000000000000000000000000000000000000000000000000000000000000000000000000N 00000000000NCONT   00    00000000000          00000000000000000000000000000000000000000000 000000000000000A000000000000000000000000000000000000000000000 000000000000000000000000000000000000000     00000000                                                                                                                        000000000000000000
F0010000009625100001000004544401900011050500000000000000000201612260002001FISIOTER                                          D000000001200000000000000000000000100010010000000000000000000000F0010000009625100120161226000101 00000000000000000000000000000000000000000000000000000000000000000000000000000000000000000000000000000000000000000N 00000000000NCONT   00    00000000000          00000000000000000000000000000000000000000000 000000000000000A000000000000000000000000000000000000000000000 000000000000000000000000000000000000000     00000000                                                                                                                        000000000000000000
F0010000009625100002000004544401900041450500000000000000000201612260002001FISIOTER                                          C000000001000000000000000000000000100010010000000000000000000000F0010000009625100220161226000101 00000000000000000000000000000000000000000000000000000000000000000000000000000000000000000000000000000000000000000N 00000000000NCONT   00    00000000000          00000000000000000000000000000000000000000000 000000000000000A000000000000000000000000000000000000000000000 000000000000000000000000000000000000000     00000000                                                                                                                        000000000000000000
F0010000009625100003000004544401900042505000000000000000000201612260002001FISIOTER                                          C000000000200000000000000000000000100010010000000000000000000000F0010000009625100320161226000101 00000000000000000000000000000000000000000000000000000000000000000000000000000000000000000000000000000000000000000N 00000000000NCONT   00    00000000000          00000000000000000000000000000000000000000000 000000000000000A000000000000000000000000000000000000000000000 000000000000000000000000000000000000000     00000000                                                                                                                        000000000000000000
F0010000009625100004000004544401900023658300000000000000000201612260002001FISIOTER                                          C000000000008000000000000000000000100010010000000000000000000000F0010000009625100420161226000101 00000000000000000000000000000000000000000000000000000000000000000000000000000000000000000000000000000000000000000N 00000000000NCONT   00    00000000000          00000000000000000000000000000000000000000000 000000000000000A000000000000000000000000000000000000000000000 000000000000000000000000000000000000000     00000000                                                                                                                        000000000000000000
F0010000009625100005000004544401900013552100000000000000000201612260002001FISIOTER                                          D000000000008000000000000000000000100010010000000000000000000000F0010000009625100520161226000101 00000000000000000000000000000000000000000000000000000000000000000000000000000000000000000000000000000000000000000N 00000000000NCONT   00    00000000000          00000000000000000000000000000000000000000000 000000000000000A000000000000000000000000000000000000000000000 000000000000000000000000000000000000000     00000000                                                                                                                        000000000000000000
F0010000009625200001000003287795000011050500000000000000000201612260002001COMERCIALIZADORA KUZMAR                           D000000001900000000000000000000000100010010000000000000000000000F0010000009625200120161226000101 00000000000000000000000000000000000000000000000000000000000000000000000000000000000000000000000000000000000000000N 00000000000NCONT   00    00000000000          00000000000000000000000000000000000000000000 000000000000000A000000000000000000000000000000000000000000000 000000000000000000000000000000000000000     00000000                                                                                                                        000000000000000000
F0010000009625200002000003287795000041450500000000000000000201612260002001COMERCIALIZADORA KUZMAR                           C000000001800000000000000000000000100010010000000000000000000000F0010000009625200220161226000101 00000000000000000000000000000000000000000000000000000000000000000000000000000000000000000000000000000000000000000N 00000000000NCONT   00    00000000000          00000000000000000000000000000000000000000000 000000000000000A000000000000000000000000000000000000000000000 000000000000000000000000000000000000000     00000000                                                                                                                        000000000000000000
F0010000009625200003000003287795000042505000000000000000000201612260002001COMERCIALIZADORA KUZMAR                           C000000000100000000000000000000000100010010000000000000000000000F0010000009625200320161226000101 00000000000000000000000000000000000000000000000000000000000000000000000000000000000000000000000000000000000000000N 00000000000NCONT   00    00000000000          00000000000000000000000000000000000000000000 000000000000000A000000000000000000000000000000000000000000000 000000000000000000000000000000000000000     00000000                                                                                                                        000000000000000000
F0010000009625200004000003287795000023658300000000000000000201612260002001COMERCIALIZADORA KUZMAR                           C000000000014400000000000000000000100010010000000000000000000000F0010000009625200420161226000101 00000000000000000000000000000000000000000000000000000000000000000000000000000000000000000000000000000000000000000N 00000000000NCONT   00    00000000000          00000000000000000000000000000000000000000000 000000000000000A000000000000000000000000000000000000000000000 000000000000000000000000000000000000000     00000000                                                                                                                        000000000000000000
F0010000009625200005000003287795000013552100000000000000000201612260002001COMERCIALIZADORA KUZMAR                           D000000000014400000000000000000000100010010000000000000000000000F0010000009625200520161226000101 00000000000000000000000000000000000000000000000000000000000000000000000000000000000000000000000000000000000000000N 00000000000NCONT   00    00000000000          00000000000000000000000000000000000000000000 000000000000000A000000000000000000000000000000000000000000000 000000000000000000000000000000000000000     00000000                                                                                                                        000000000000000000
F0010000009625300001000003287795000011050500000000000000000201612260002001COMERCIALIZADORA KUZMAR                           D000000005000000000000000000000000100010010000000000000000000000F0010000009625300120161226000101 00000000000000000000000000000000000000000000000000000000000000000000000000000000000000000000000000000000000000000N 00000000000NCONT   00    00000000000          00000000000000000000000000000000000000000000 000000000000000A000000000000000000000000000000000000000000000 000000000000000000000000000000000000000     00000000                                                                                                                        000000000000000000
F0010000009625300002000003287795000041450500000000000000000201612260002001COMERCIALIZADORA KUZMAR                           C000000004000000000000000000000000100010010000000000000000000000F0010000009625300220161226000101 00000000000000000000000000000000000000000000000000000000000000000000000000000000000000000000000000000000000000000N 00000000000NCONT   00    00000000000          00000000000000000000000000000000000000000000 000000000000000A000000000000000000000000000000000000000000000 000000000000000000000000000000000000000     00000000                                                                                                                        000000000000000000
F0010000009625300003000003287795000042505000000000000000000201612260002001COMERCIALIZADORA KUZMAR                           C000000001000000000000000000000000100010010000000000000000000000F0010000009625300320161226000101 00000000000000000000000000000000000000000000000000000000000000000000000000000000000000000000000000000000000000000N 00000000000NCONT   00    00000000000          00000000000000000000000000000000000000000000 000000000000000A000000000000000000000000000000000000000000000 000000000000000000000000000000000000000     00000000                                                                                                                        000000000000000000
F0010000009625300004000003287795000023658300000000000000000201612260002001COMERCIALIZADORA KUZMAR                           C000000000032000000000000000000000100010010000000000000000000000F0010000009625300420161226000101 00000000000000000000000000000000000000000000000000000000000000000000000000000000000000000000000000000000000000000N 00000000000NCONT   00    00000000000          00000000000000000000000000000000000000000000 000000000000000A000000000000000000000000000000000000000000000 000000000000000000000000000000000000000     00000000                                                                                                                        000000000000000000
F0010000009625300005000003287795000013552100000000000000000201612260002001COMERCIALIZADORA KUZMAR                           D000000000032000000000000000000000100010010000000000000000000000F0010000009625300520161226000101 00000000000000000000000000000000000000000000000000000000000000000000000000000000000000000000000000000000000000000N 00000000000NCONT   00    00000000000          00000000000000000000000000000000000000000000 000000000000000A000000000000000000000000000000000000000000000 000000000000000000000000000000000000000     00000000                                                                                                                        000000000000000000
F0010000009625400001000080200075000011050500000000000000000201612260002001DISPROGOL LTDA                                    D000000002150000000000000000000000100010010000000000000000000000F0010000009625400120161226000101 00000000000000000000000000000000000000000000000000000000000000000000000000000000000000000000000000000000000000000N 00000000000NCONT   00    00000000000          00000000000000000000000000000000000000000000 000000000000000A000000000000000000000000000000000000000000000 000000000000000000000000000000000000000     00000000                                                                                                                        000000000000000000
F0010000009625400002000080200075000041450500000000000000000201612260002001DISPROGOL LTDA                                    C000000001900000000000000000000000100010010000000000000000000000F0010000009625400220161226000101 00000000000000000000000000000000000000000000000000000000000000000000000000000000000000000000000000000000000000000N 00000000000NCONT   00    00000000000          00000000000000000000000000000000000000000000 000000000000000A000000000000000000000000000000000000000000000 000000000000000000000000000000000000000     00000000                                                                                                                        000000000000000000
F0010000009625400003000080200075000042505000000000000000000201612260002001DISPROGOL LTDA                                    C000000000250000000000000000000000100010010000000000000000000000F0010000009625400320161226000101 00000000000000000000000000000000000000000000000000000000000000000000000000000000000000000000000000000000000000000N 00000000000NCONT   00    00000000000          00000000000000000000000000000000000000000000 000000000000000A000000000000000000000000000000000000000000000 000000000000000000000000000000000000000     00000000                                                                                                                        000000000000000000
F0010000009625400004000080200075000023658300000000000000000201612260002001DISPROGOL LTDA                                    C000000000015200000000000000000000100010010000000000000000000000F0010000009625400420161226000101 00000000000000000000000000000000000000000000000000000000000000000000000000000000000000000000000000000000000000000N 00000000000NCONT   00    00000000000          00000000000000000000000000000000000000000000 000000000000000A000000000000000000000000000000000000000000000 000000000000000000000000000000000000000     00000000                                                                                                                        000000000000000000
F0010000009625400005000080200075000013552100000000000000000201612260002001DISPROGOL LTDA                                    D000000000015200000000000000000000100010010000000000000000000000F0010000009625400520161226000101 00000000000000000000000000000000000000000000000000000000000000000000000000000000000000000000000000000000000000000N 00000000000NCONT   00    00000000000          00000000000000000000000000000000000000000000 000000000000000A000000000000000000000000000000000000000000000 000000000000000000000000000000000000000     00000000                                                                                                                        000000000000000000
F0010000009625500001000000856527900011050500000000000000000201612260002001CESAR AUGUSTO MIER BUELVAS                        D000000001100000000000000000000000100010010000000000000000000000F0010000009625500120161226000101 00000000000000000000000000000000000000000000000000000000000000000000000000000000000000000000000000000000000000000N 00000000000NCONT   00    00000000000          00000000000000000000000000000000000000000000 000000000000000A000000000000000000000000000000000000000000000 000000000000000000000000000000000000000     00000000                                                                                                                        000000000000000000
F0010000009625500002000000856527900041450500000000000000000201612260002001CESAR AUGUSTO MIER BUELVAS                        C000000001000000000000000000000000100010010000000000000000000000F0010000009625500220161226000101 00000000000000000000000000000000000000000000000000000000000000000000000000000000000000000000000000000000000000000N 00000000000NCONT   00    00000000000          00000000000000000000000000000000000000000000 000000000000000A000000000000000000000000000000000000000000000 000000000000000000000000000000000000000     00000000                                                                                                                        000000000000000000
F0010000009625500003000000856527900042505000000000000000000201612260002001CESAR AUGUSTO MIER BUELVAS                        C000000000100000000000000000000000100010010000000000000000000000F0010000009625500320161226000101 00000000000000000000000000000000000000000000000000000000000000000000000000000000000000000000000000000000000000000N 00000000000NCONT   00    00000000000          00000000000000000000000000000000000000000000 000000000000000A000000000000000000000000000000000000000000000 000000000000000000000000000000000000000     00000000                                                                                                                        000000000000000000
F0010000009625500004000000856527900023658300000000000000000201612260002001CESAR AUGUSTO MIER BUELVAS                        C000000000008000000000000000000000100010010000000000000000000000F0010000009625500420161226000101 00000000000000000000000000000000000000000000000000000000000000000000000000000000000000000000000000000000000000000N 00000000000NCONT   00    00000000000          00000000000000000000000000000000000000000000 000000000000000A000000000000000000000000000000000000000000000 000000000000000000000000000000000000000     00000000                                                                                                                        000000000000000000
F0010000009625500005000000856527900013552100000000000000000201612260002001CESAR AUGUSTO MIER BUELVAS                        D000000000008000000000000000000000100010010000000000000000000000F0010000009625500520161226000101 00000000000000000000000000000000000000000000000000000000000000000000000000000000000000000000000000000000000000000N 00000000000NCONT   00    00000000000          00000000000000000000000000000000000000000000 000000000000000A000000000000000000000000000000000000000000000 000000000000000000000000000000000000000     00000000                                                                                                                        000000000000000000
F0010000009625600001000000856527900011050500000000000000000201612260002001CESAR AUGUSTO MIER BUELVAS                        D000000001100000000000000000000000100010010000000000000000000000F0010000009625600120161226000101 00000000000000000000000000000000000000000000000000000000000000000000000000000000000000000000000000000000000000000N 00000000000NCONT   00    00000000000          00000000000000000000000000000000000000000000 000000000000000A000000000000000000000000000000000000000000000 000000000000000000000000000000000000000     00000000                                                                                                                        000000000000000000
F0010000009625600002000000856527900041450500000000000000000201612260002001CESAR AUGUSTO MIER BUELVAS                        C000000001000000000000000000000000100010010000000000000000000000F0010000009625600220161226000101 00000000000000000000000000000000000000000000000000000000000000000000000000000000000000000000000000000000000000000N 00000000000NCONT   00    00000000000          00000000000000000000000000000000000000000000 000000000000000A000000000000000000000000000000000000000000000 000000000000000000000000000000000000000     00000000                                                                                                                        000000000000000000
F0010000009625600003000000856527900042505000000000000000000201612260002001CESAR AUGUSTO MIER BUELVAS                        C000000000100000000000000000000000100010010000000000000000000000F0010000009625600320161226000101 00000000000000000000000000000000000000000000000000000000000000000000000000000000000000000000000000000000000000000N 00000000000NCONT   00    00000000000          00000000000000000000000000000000000000000000 000000000000000A000000000000000000000000000000000000000000000 000000000000000000000000000000000000000     00000000                                                                                                                        000000000000000000
F0010000009625600004000000856527900023658300000000000000000201612260002001CESAR AUGUSTO MIER BUELVAS                        C000000000008000000000000000000000100010010000000000000000000000F0010000009625600420161226000101 00000000000000000000000000000000000000000000000000000000000000000000000000000000000000000000000000000000000000000N 00000000000NCONT   00    00000000000          00000000000000000000000000000000000000000000 000000000000000A000000000000000000000000000000000000000000000 000000000000000000000000000000000000000     00000000                                                                                                                        000000000000000000
F0010000009625600005000000856527900013552100000000000000000201612260002001CESAR AUGUSTO MIER BUELVAS                        D000000000008000000000000000000000100010010000000000000000000000F0010000009625600520161226000101 00000000000000000000000000000000000000000000000000000000000000000000000000000000000000000000000000000000000000000N 00000000000NCONT   00    00000000000          00000000000000000000000000000000000000000000 000000000000000A000000000000000000000000000000000000000000000 000000000000000000000000000000000000000     00000000                                                                                                                        000000000000000000
F0010000009625700001000000856527900011050500000000000000000201612260002001CESAR AUGUSTO MIER BUELVAS                        D000000001100000000000000000000000100010010000000000000000000000F0010000009625700120161226000101 00000000000000000000000000000000000000000000000000000000000000000000000000000000000000000000000000000000000000000N 00000000000NCONT   00    00000000000          00000000000000000000000000000000000000000000 000000000000000A000000000000000000000000000000000000000000000 000000000000000000000000000000000000000     00000000                                                                                                                        000000000000000000
F0010000009625700002000000856527900041450500000000000000000201612260002001CESAR AUGUSTO MIER BUELVAS                        C000000001000000000000000000000000100010010000000000000000000000F0010000009625700220161226000101 00000000000000000000000000000000000000000000000000000000000000000000000000000000000000000000000000000000000000000N 00000000000NCONT   00    00000000000          00000000000000000000000000000000000000000000 000000000000000A000000000000000000000000000000000000000000000 000000000000000000000000000000000000000     00000000                                                                                                                        000000000000000000
F0010000009625700003000000856527900042505000000000000000000201612260002001CESAR AUGUSTO MIER BUELVAS                        C000000000100000000000000000000000100010010000000000000000000000F0010000009625700320161226000101 00000000000000000000000000000000000000000000000000000000000000000000000000000000000000000000000000000000000000000N 00000000000NCONT   00    00000000000          00000000000000000000000000000000000000000000 000000000000000A000000000000000000000000000000000000000000000 000000000000000000000000000000000000000     00000000                                                                                                                        000000000000000000
F0010000009625700004000000856527900023658300000000000000000201612260002001CESAR AUGUSTO MIER BUELVAS                        C000000000008000000000000000000000100010010000000000000000000000F0010000009625700420161226000101 00000000000000000000000000000000000000000000000000000000000000000000000000000000000000000000000000000000000000000N 00000000000NCONT   00    00000000000          00000000000000000000000000000000000000000000 000000000000000A000000000000000000000000000000000000000000000 000000000000000000000000000000000000000     00000000                                                                                                                        000000000000000000
F0010000009625700005000000856527900013552100000000000000000201612260002001CESAR AUGUSTO MIER BUELVAS                        D000000000008000000000000000000000100010010000000000000000000000F0010000009625700520161226000101 00000000000000000000000000000000000000000000000000000000000000000000000000000000000000000000000000000000000000000N 00000000000NCONT   00    00000000000          00000000000000000000000000000000000000000000 000000000000000A000000000000000000000000000000000000000000000 000000000000000000000000000000000000000     00000000                                                                                                                        000000000000000000
F0010000009625800001000000856527900011050500000000000000000201612260002001CESAR AUGUSTO MIER BUELVAS                        D000000001100000000000000000000000100010010000000000000000000000F0010000009625800120161226000101 00000000000000000000000000000000000000000000000000000000000000000000000000000000000000000000000000000000000000000N 00000000000NCONT   00    00000000000          00000000000000000000000000000000000000000000 000000000000000A000000000000000000000000000000000000000000000 000000000000000000000000000000000000000     00000000                                                                                                                        000000000000000000
F0010000009625800002000000856527900041450500000000000000000201612260002001CESAR AUGUSTO MIER BUELVAS                        C000000001000000000000000000000000100010010000000000000000000000F0010000009625800220161226000101 00000000000000000000000000000000000000000000000000000000000000000000000000000000000000000000000000000000000000000N 00000000000NCONT   00    00000000000          00000000000000000000000000000000000000000000 000000000000000A000000000000000000000000000000000000000000000 000000000000000000000000000000000000000     00000000                                                                                                                        000000000000000000
F0010000009625800003000000856527900042505000000000000000000201612260002001CESAR AUGUSTO MIER BUELVAS                        C000000000100000000000000000000000100010010000000000000000000000F0010000009625800320161226000101 00000000000000000000000000000000000000000000000000000000000000000000000000000000000000000000000000000000000000000N 00000000000NCONT   00    00000000000          00000000000000000000000000000000000000000000 000000000000000A000000000000000000000000000000000000000000000 000000000000000000000000000000000000000     00000000                                                                                                                        000000000000000000
F0010000009625800004000000856527900023658300000000000000000201612260002001CESAR AUGUSTO MIER BUELVAS                        C000000000008000000000000000000000100010010000000000000000000000F0010000009625800420161226000101 00000000000000000000000000000000000000000000000000000000000000000000000000000000000000000000000000000000000000000N 00000000000NCONT   00    00000000000          00000000000000000000000000000000000000000000 000000000000000A000000000000000000000000000000000000000000000 000000000000000000000000000000000000000     00000000                                                                                                                        000000000000000000
F0010000009625800005000000856527900013552100000000000000000201612260002001CESAR AUGUSTO MIER BUELVAS                        D000000000008000000000000000000000100010010000000000000000000000F0010000009625800520161226000101 00000000000000000000000000000000000000000000000000000000000000000000000000000000000000000000000000000000000000000N 00000000000NCONT   00    00000000000          00000000000000000000000000000000000000000000 000000000000000A000000000000000000000000000000000000000000000 000000000000000000000000000000000000000     00000000                                                                                                                        000000000000000000
F0010000009625900001000000866309000011050500000000000000000201612260002001MARCO MORA PATIÑO                                D000000001520000000000000000000000100010010000000000000000000000F0010000009625900120161226000101 00000000000000000000000000000000000000000000000000000000000000000000000000000000000000000000000000000000000000000N 00000000000NCONT   00    00000000000          00000000000000000000000000000000000000000000 000000000000000A000000000000000000000000000000000000000000000 000000000000000000000000000000000000000     00000000                                                                                                                        000000000000000000
F0010000009625900002000000866309000041450500000000000000000201612260002001MARCO MORA PATIÑO                                C000000001400000000000000000000000100010010000000000000000000000F0010000009625900220161226000101 00000000000000000000000000000000000000000000000000000000000000000000000000000000000000000000000000000000000000000N 00000000000NCONT   00    00000000000          00000000000000000000000000000000000000000000 000000000000000A000000000000000000000000000000000000000000000 000000000000000000000000000000000000000     00000000                                                                                                                        000000000000000000
F0010000009625900003000000866309000042505000000000000000000201612260002001MARCO MORA PATIÑO                                C000000000120000000000000000000000100010010000000000000000000000F0010000009625900320161226000101 00000000000000000000000000000000000000000000000000000000000000000000000000000000000000000000000000000000000000000N 00000000000NCONT   00    00000000000          00000000000000000000000000000000000000000000 000000000000000A000000000000000000000000000000000000000000000 000000000000000000000000000000000000000     00000000                                                                                                                        000000000000000000
F0010000009625900004000000866309000023658300000000000000000201612260002001MARCO MORA PATIÑO                                C000000000011200000000000000000000100010010000000000000000000000F0010000009625900420161226000101 00000000000000000000000000000000000000000000000000000000000000000000000000000000000000000000000000000000000000000N 00000000000NCONT   00    00000000000          00000000000000000000000000000000000000000000 000000000000000A000000000000000000000000000000000000000000000 000000000000000000000000000000000000000     00000000                                                                                                                        000000000000000000
F0010000009625900005000000866309000013552100000000000000000201612260002001MARCO MORA PATIÑO                                D000000000011200000000000000000000100010010000000000000000000000F0010000009625900520161226000101 00000000000000000000000000000000000000000000000000000000000000000000000000000000000000000000000000000000000000000N 00000000000NCONT   00    00000000000          00000000000000000000000000000000000000000000 000000000000000A000000000000000000000000000000000000000000000 000000000000000000000000000000000000000     00000000                                                                                                                        000000000000000000
F0010000009626000001000083007900600011050500000000000000000201612260002001EXPRESO ANDINO DE CARGA SA                        D000000013700000000000000000000000100010010000000000000000000000F0010000009626000120161226000101 00000000000000000000000000000000000000000000000000000000000000000000000000000000000000000000000000000000000000000N 00000000000NCONT   00    00000000000          00000000000000000000000000000000000000000000 000000000000000A000000000000000000000000000000000000000000000 000000000000000000000000000000000000000     00000000                                                                                                                        000000000000000000
F0010000009626000002000083007900600041450500000000000000000201612260002001EXPRESO ANDINO DE CARGA SA                        C000000013600000000000000000000000100010010000000000000000000000F0010000009626000220161226000101 00000000000000000000000000000000000000000000000000000000000000000000000000000000000000000000000000000000000000000N 00000000000NCONT   00    00000000000          00000000000000000000000000000000000000000000 000000000000000A000000000000000000000000000000000000000000000 000000000000000000000000000000000000000     00000000                                                                                                                        000000000000000000
F0010000009626000003000083007900600042505000000000000000000201612260002001EXPRESO ANDINO DE CARGA SA                        C000000000100000000000000000000000100010010000000000000000000000F0010000009626000320161226000101 00000000000000000000000000000000000000000000000000000000000000000000000000000000000000000000000000000000000000000N 00000000000NCONT   00    00000000000          00000000000000000000000000000000000000000000 000000000000000A000000000000000000000000000000000000000000000 000000000000000000000000000000000000000     00000000                                                                                                                        000000000000000000
F0010000009626000004000083007900600023658300000000000000000201612260002001EXPRESO ANDINO DE CARGA SA                        C000000000108800000000000000000000100010010000000000000000000000F0010000009626000420161226000101 00000000000000000000000000000000000000000000000000000000000000000000000000000000000000000000000000000000000000000N 00000000000NCONT   00    00000000000          00000000000000000000000000000000000000000000 000000000000000A000000000000000000000000000000000000000000000 000000000000000000000000000000000000000     00000000                                                                                                                        000000000000000000
F0010000009626000005000083007900600013552100000000000000000201612260002001EXPRESO ANDINO DE CARGA SA                        D000000000108800000000000000000000100010010000000000000000000000F0010000009626000520161226000101 00000000000000000000000000000000000000000000000000000000000000000000000000000000000000000000000000000000000000000N 00000000000NCONT   00    00000000000          00000000000000000000000000000000000000000000 000000000000000A000000000000000000000000000000000000000000000 000000000000000000000000000000000000000     00000000                                                                                                                        000000000000000000
