F0010000007151800001000007904689600011050500000000000000000201505180002001VICTOR MANUEL BOCANEGRA RAMIREZ                   D000000001100000000000000000000000100010010000000000000000000000F0010000007151800120150518000101 00000000000000000000000000000000000000000000000000000000000000000000000000000000000000000000000000000000000000000N 00000000000NCONT   00    00000000000          00000000000000000000000000000000000000000000 000000000000000A000000000000000000000000000000000000000000000 000000000000000000000000000000000000000     00000000                                                                                                                        000000000000000000
F0010000007151800002000007904689600041450500000000000000000201505180002001VICTOR MANUEL BOCANEGRA RAMIREZ                   C000000001000000000000000000000000100010010000000000000000000000F0010000007151800220150518000101 00000000000000000000000000000000000000000000000000000000000000000000000000000000000000000000000000000000000000000N 00000000000NCONT   00    00000000000          00000000000000000000000000000000000000000000 000000000000000A000000000000000000000000000000000000000000000 000000000000000000000000000000000000000     00000000                                                                                                                        000000000000000000
F0010000007151800003000007904689600042505000000000000000000201505180002001VICTOR MANUEL BOCANEGRA RAMIREZ                   C000000000100000000000000000000000100010010000000000000000000000F0010000007151800320150518000101 00000000000000000000000000000000000000000000000000000000000000000000000000000000000000000000000000000000000000000N 00000000000NCONT   00    00000000000          00000000000000000000000000000000000000000000 000000000000000A000000000000000000000000000000000000000000000 000000000000000000000000000000000000000     00000000                                                                                                                        000000000000000000
F0010000007151800004000007904689600023658300000000000000000201505180002001VICTOR MANUEL BOCANEGRA RAMIREZ                   C000000000008000000000000000000000100010010000000000000000000000F0010000007151800420150518000101 00000000000000000000000000000000000000000000000000000000000000000000000000000000000000000000000000000000000000000N 00000000000NCONT   00    00000000000          00000000000000000000000000000000000000000000 000000000000000A000000000000000000000000000000000000000000000 000000000000000000000000000000000000000     00000000                                                                                                                        000000000000000000
F0010000007151800005000007904689600013552100000000000000000201505180002001VICTOR MANUEL BOCANEGRA RAMIREZ                   D000000000008000000000000000000000100010010000000000000000000000F0010000007151800520150518000101 00000000000000000000000000000000000000000000000000000000000000000000000000000000000000000000000000000000000000000N 00000000000NCONT   00    00000000000          00000000000000000000000000000000000000000000 000000000000000A000000000000000000000000000000000000000000000 000000000000000000000000000000000000000     00000000                                                                                                                        000000000000000000
F0010000007151900001000007904689600011050500000000000000000201505180002001VICTOR MANUEL BOCANEGRA RAMIREZ                   D000000004000000000000000000000000100010010000000000000000000000F0010000007151900120150518000101 00000000000000000000000000000000000000000000000000000000000000000000000000000000000000000000000000000000000000000N 00000000000NCONT   00    00000000000          00000000000000000000000000000000000000000000 000000000000000A000000000000000000000000000000000000000000000 000000000000000000000000000000000000000     00000000                                                                                                                        000000000000000000
F0010000007151900002000007904689600041450500000000000000000201505180002001VICTOR MANUEL BOCANEGRA RAMIREZ                   C000000003800000000000000000000000100010010000000000000000000000F0010000007151900220150518000101 00000000000000000000000000000000000000000000000000000000000000000000000000000000000000000000000000000000000000000N 00000000000NCONT   00    00000000000          00000000000000000000000000000000000000000000 000000000000000A000000000000000000000000000000000000000000000 000000000000000000000000000000000000000     00000000                                                                                                                        000000000000000000
F0010000007151900003000007904689600042505000000000000000000201505180002001VICTOR MANUEL BOCANEGRA RAMIREZ                   C000000000200000000000000000000000100010010000000000000000000000F0010000007151900320150518000101 00000000000000000000000000000000000000000000000000000000000000000000000000000000000000000000000000000000000000000N 00000000000NCONT   00    00000000000          00000000000000000000000000000000000000000000 000000000000000A000000000000000000000000000000000000000000000 000000000000000000000000000000000000000     00000000                                                                                                                        000000000000000000
F0010000007151900004000007904689600023658300000000000000000201505180002001VICTOR MANUEL BOCANEGRA RAMIREZ                   C000000000030400000000000000000000100010010000000000000000000000F0010000007151900420150518000101 00000000000000000000000000000000000000000000000000000000000000000000000000000000000000000000000000000000000000000N 00000000000NCONT   00    00000000000          00000000000000000000000000000000000000000000 000000000000000A000000000000000000000000000000000000000000000 000000000000000000000000000000000000000     00000000                                                                                                                        000000000000000000
F0010000007151900005000007904689600013552100000000000000000201505180002001VICTOR MANUEL BOCANEGRA RAMIREZ                   D000000000030400000000000000000000100010010000000000000000000000F0010000007151900520150518000101 00000000000000000000000000000000000000000000000000000000000000000000000000000000000000000000000000000000000000000N 00000000000NCONT   00    00000000000          00000000000000000000000000000000000000000000 000000000000000A000000000000000000000000000000000000000000000 000000000000000000000000000000000000000     00000000                                                                                                                        000000000000000000
