F0010000006961400001000090004255400011050500000000000000000201503260002001RAYSEB                                            D000000001100000000000000000000000100010010000000000000000000000F0010000006961400120150326000101 00000000000000000000000000000000000000000000000000000000000000000000000000000000000000000000000000000000000000000N 00000000000NCONT   00    00000000000          00000000000000000000000000000000000000000000 000000000000000A000000000000000000000000000000000000000000000 000000000000000000000000000000000000000     00000000                                                                                                                        000000000000000000
F0010000006961400002000090004255400041450500000000000000000201503260002001RAYSEB                                            C000000000900000000000000000000000100010010000000000000000000000F0010000006961400220150326000101 00000000000000000000000000000000000000000000000000000000000000000000000000000000000000000000000000000000000000000N 00000000000NCONT   00    00000000000          00000000000000000000000000000000000000000000 000000000000000A000000000000000000000000000000000000000000000 000000000000000000000000000000000000000     00000000                                                                                                                        000000000000000000
F0010000006961400003000090004255400042505000000000000000000201503260002001RAYSEB                                            C000000000200000000000000000000000100010010000000000000000000000F0010000006961400320150326000101 00000000000000000000000000000000000000000000000000000000000000000000000000000000000000000000000000000000000000000N 00000000000NCONT   00    00000000000          00000000000000000000000000000000000000000000 000000000000000A000000000000000000000000000000000000000000000 000000000000000000000000000000000000000     00000000                                                                                                                        000000000000000000
F0010000006961400004000090004255400023658300000000000000000201503260002001RAYSEB                                            C000000000007200000000000000000000100010010000000000000000000000F0010000006961400420150326000101 00000000000000000000000000000000000000000000000000000000000000000000000000000000000000000000000000000000000000000N 00000000000NCONT   00    00000000000          00000000000000000000000000000000000000000000 000000000000000A000000000000000000000000000000000000000000000 000000000000000000000000000000000000000     00000000                                                                                                                        000000000000000000
F0010000006961400005000090004255400013552100000000000000000201503260002001RAYSEB                                            D000000000007200000000000000000000100010010000000000000000000000F0010000006961400520150326000101 00000000000000000000000000000000000000000000000000000000000000000000000000000000000000000000000000000000000000000N 00000000000NCONT   00    00000000000          00000000000000000000000000000000000000000000 000000000000000A000000000000000000000000000000000000000000000 000000000000000000000000000000000000000     00000000                                                                                                                        000000000000000000
F0010000006961500001000007225219800011050500000000000000000201503260002001MAURICIO ALVAREZ VARELO                           D000000005500000000000000000000000100010010000000000000000000000F0010000006961500120150326000101 00000000000000000000000000000000000000000000000000000000000000000000000000000000000000000000000000000000000000000N 00000000000NCONT   00    00000000000          00000000000000000000000000000000000000000000 000000000000000A000000000000000000000000000000000000000000000 000000000000000000000000000000000000000     00000000                                                                                                                        000000000000000000
F0010000006961500002000007225219800041450500000000000000000201503260002001MAURICIO ALVAREZ VARELO                           C000000004500000000000000000000000100010010000000000000000000000F0010000006961500220150326000101 00000000000000000000000000000000000000000000000000000000000000000000000000000000000000000000000000000000000000000N 00000000000NCONT   00    00000000000          00000000000000000000000000000000000000000000 000000000000000A000000000000000000000000000000000000000000000 000000000000000000000000000000000000000     00000000                                                                                                                        000000000000000000
F0010000006961500003000007225219800042505000000000000000000201503260002001MAURICIO ALVAREZ VARELO                           C000000001000000000000000000000000100010010000000000000000000000F0010000006961500320150326000101 00000000000000000000000000000000000000000000000000000000000000000000000000000000000000000000000000000000000000000N 00000000000NCONT   00    00000000000          00000000000000000000000000000000000000000000 000000000000000A000000000000000000000000000000000000000000000 000000000000000000000000000000000000000     00000000                                                                                                                        000000000000000000
F0010000006961500004000007225219800023658300000000000000000201503260002001MAURICIO ALVAREZ VARELO                           C000000000036000000000000000000000100010010000000000000000000000F0010000006961500420150326000101 00000000000000000000000000000000000000000000000000000000000000000000000000000000000000000000000000000000000000000N 00000000000NCONT   00    00000000000          00000000000000000000000000000000000000000000 000000000000000A000000000000000000000000000000000000000000000 000000000000000000000000000000000000000     00000000                                                                                                                        000000000000000000
F0010000006961500005000007225219800013552100000000000000000201503260002001MAURICIO ALVAREZ VARELO                           D000000000036000000000000000000000100010010000000000000000000000F0010000006961500520150326000101 00000000000000000000000000000000000000000000000000000000000000000000000000000000000000000000000000000000000000000N 00000000000NCONT   00    00000000000          00000000000000000000000000000000000000000000 000000000000000A000000000000000000000000000000000000000000000 000000000000000000000000000000000000000     00000000                                                                                                                        000000000000000000
F0010000006961600001000090020547900011050500000000000000000201503260002001DAC DEL CARIBE S.A.S.                             D000000006400000000000000000000000100010010000000000000000000000F0010000006961600120150326000101 00000000000000000000000000000000000000000000000000000000000000000000000000000000000000000000000000000000000000000N 00000000000NCONT   00    00000000000          00000000000000000000000000000000000000000000 000000000000000A000000000000000000000000000000000000000000000 000000000000000000000000000000000000000     00000000                                                                                                                        000000000000000000
F0010000006961600002000090020547900041450500000000000000000201503260002001DAC DEL CARIBE S.A.S.                             C000000005500000000000000000000000100010010000000000000000000000F0010000006961600220150326000101 00000000000000000000000000000000000000000000000000000000000000000000000000000000000000000000000000000000000000000N 00000000000NCONT   00    00000000000          00000000000000000000000000000000000000000000 000000000000000A000000000000000000000000000000000000000000000 000000000000000000000000000000000000000     00000000                                                                                                                        000000000000000000
F0010000006961600003000090020547900042505000000000000000000201503260002001DAC DEL CARIBE S.A.S.                             C000000000900000000000000000000000100010010000000000000000000000F0010000006961600320150326000101 00000000000000000000000000000000000000000000000000000000000000000000000000000000000000000000000000000000000000000N 00000000000NCONT   00    00000000000          00000000000000000000000000000000000000000000 000000000000000A000000000000000000000000000000000000000000000 000000000000000000000000000000000000000     00000000                                                                                                                        000000000000000000
F0010000006961600004000090020547900023658300000000000000000201503260002001DAC DEL CARIBE S.A.S.                             C000000000044000000000000000000000100010010000000000000000000000F0010000006961600420150326000101 00000000000000000000000000000000000000000000000000000000000000000000000000000000000000000000000000000000000000000N 00000000000NCONT   00    00000000000          00000000000000000000000000000000000000000000 000000000000000A000000000000000000000000000000000000000000000 000000000000000000000000000000000000000     00000000                                                                                                                        000000000000000000
F0010000006961600005000090020547900013552100000000000000000201503260002001DAC DEL CARIBE S.A.S.                             D000000000044000000000000000000000100010010000000000000000000000F0010000006961600520150326000101 00000000000000000000000000000000000000000000000000000000000000000000000000000000000000000000000000000000000000000N 00000000000NCONT   00    00000000000          00000000000000000000000000000000000000000000 000000000000000A000000000000000000000000000000000000000000000 000000000000000000000000000000000000000     00000000                                                                                                                        000000000000000000
F0010000006961700001000090009800500013050500000000000000000201503260002001GLORIANT CHEMICAL DE COLOMBIA LTDA                D000000045720500000000000000000000100010010000000000000000000000F0010000006961700120150326000101 00000000000000000000000000000000000000000000000000000000000000000000000000000000000000000000000000000000000000000N 00000000000NCONT   00    00000000000          00000000000000000000000000000000000000000000 000000000000000A000000000000000000000000000000000000000000000 000000000000000000000000000000000000000     00000000                                                                                                                        000000000000000000
F0010000006961700002000090009800500041450500000000000000000201503260002001GLORIANT CHEMICAL DE COLOMBIA LTDA                C000000034560000000000000000000000100010010000000000000000000000F0010000006961700220150326000101 00000000000000000000000000000000000000000000000000000000000000000000000000000000000000000000000000000000000000000N 00000000000NCONT   00    00000000000          00000000000000000000000000000000000000000000 000000000000000A000000000000000000000000000000000000000000000 000000000000000000000000000000000000000     00000000                                                                                                                        000000000000000000
F0010000006961700003000090009800500042505000000000000000000201503260002001GLORIANT CHEMICAL DE COLOMBIA LTDA                C000000011160500000000000000000000100010010000000000000000000000F0010000006961700320150326000101 00000000000000000000000000000000000000000000000000000000000000000000000000000000000000000000000000000000000000000N 00000000000NCONT   00    00000000000          00000000000000000000000000000000000000000000 000000000000000A000000000000000000000000000000000000000000000 000000000000000000000000000000000000000     00000000                                                                                                                        000000000000000000
F0010000006961700004000090009800500023658300000000000000000201503260002001GLORIANT CHEMICAL DE COLOMBIA LTDA                C000000000276500000000000000000000100010010000000000000000000000F0010000006961700420150326000101 00000000000000000000000000000000000000000000000000000000000000000000000000000000000000000000000000000000000000000N 00000000000NCONT   00    00000000000          00000000000000000000000000000000000000000000 000000000000000A000000000000000000000000000000000000000000000 000000000000000000000000000000000000000     00000000                                                                                                                        000000000000000000
F0010000006961700005000090009800500013552100000000000000000201503260002001GLORIANT CHEMICAL DE COLOMBIA LTDA                D000000000276500000000000000000000100010010000000000000000000000F0010000006961700520150326000101 00000000000000000000000000000000000000000000000000000000000000000000000000000000000000000000000000000000000000000N 00000000000NCONT   00    00000000000          00000000000000000000000000000000000000000000 000000000000000A000000000000000000000000000000000000000000000 000000000000000000000000000000000000000     00000000                                                                                                                        000000000000000000
F0010000006961800001000080200863700013050500000000000000000201503260002001COPIN LTDA                                        D000000047673700000000000000000000100010010000000000000000000000F0010000006961800120150326000101 00000000000000000000000000000000000000000000000000000000000000000000000000000000000000000000000000000000000000000N 00000000000NCONT   00    00000000000          00000000000000000000000000000000000000000000 000000000000000A000000000000000000000000000000000000000000000 000000000000000000000000000000000000000     00000000                                                                                                                        000000000000000000
F0010000006961800002000080200863700041450500000000000000000201503260002001COPIN LTDA                                        C000000043360000000000000000000000100010010000000000000000000000F0010000006961800220150326000101 00000000000000000000000000000000000000000000000000000000000000000000000000000000000000000000000000000000000000000N 00000000000NCONT   00    00000000000          00000000000000000000000000000000000000000000 000000000000000A000000000000000000000000000000000000000000000 000000000000000000000000000000000000000     00000000                                                                                                                        000000000000000000
F0010000006961800003000080200863700042505000000000000000000201503260002001COPIN LTDA                                        C000000004313700000000000000000000100010010000000000000000000000F0010000006961800320150326000101 00000000000000000000000000000000000000000000000000000000000000000000000000000000000000000000000000000000000000000N 00000000000NCONT   00    00000000000          00000000000000000000000000000000000000000000 000000000000000A000000000000000000000000000000000000000000000 000000000000000000000000000000000000000     00000000                                                                                                                        000000000000000000
F0010000006961800004000080200863700023658300000000000000000201503260002001COPIN LTDA                                        C000000000346900000000000000000000100010010000000000000000000000F0010000006961800420150326000101 00000000000000000000000000000000000000000000000000000000000000000000000000000000000000000000000000000000000000000N 00000000000NCONT   00    00000000000          00000000000000000000000000000000000000000000 000000000000000A000000000000000000000000000000000000000000000 000000000000000000000000000000000000000     00000000                                                                                                                        000000000000000000
F0010000006961800005000080200863700013552100000000000000000201503260002001COPIN LTDA                                        D000000000346900000000000000000000100010010000000000000000000000F0010000006961800520150326000101 00000000000000000000000000000000000000000000000000000000000000000000000000000000000000000000000000000000000000000N 00000000000NCONT   00    00000000000          00000000000000000000000000000000000000000000 000000000000000A000000000000000000000000000000000000000000000 000000000000000000000000000000000000000     00000000                                                                                                                        000000000000000000
F0010000006961900001000080002300200013050500000000000000000201503260002001DISREL S.A.                                       D000000012900000000000000000000000100010010000000000000000000000F0010000006961900120150326000101 00000000000000000000000000000000000000000000000000000000000000000000000000000000000000000000000000000000000000000N 00000000000NCONT   00    00000000000          00000000000000000000000000000000000000000000 000000000000000A000000000000000000000000000000000000000000000 000000000000000000000000000000000000000     00000000                                                                                                                        000000000000000000
F0010000006961900002000080002300200041450500000000000000000201503260002001DISREL S.A.                                       C000000010320000000000000000000000100010010000000000000000000000F0010000006961900220150326000101 00000000000000000000000000000000000000000000000000000000000000000000000000000000000000000000000000000000000000000N 00000000000NCONT   00    00000000000          00000000000000000000000000000000000000000000 000000000000000A000000000000000000000000000000000000000000000 000000000000000000000000000000000000000     00000000                                                                                                                        000000000000000000
F0010000006961900003000080002300200042505000000000000000000201503260002001DISREL S.A.                                       C000000002580000000000000000000000100010010000000000000000000000F0010000006961900320150326000101 00000000000000000000000000000000000000000000000000000000000000000000000000000000000000000000000000000000000000000N 00000000000NCONT   00    00000000000          00000000000000000000000000000000000000000000 000000000000000A000000000000000000000000000000000000000000000 000000000000000000000000000000000000000     00000000                                                                                                                        000000000000000000
F0010000006961900004000080002300200023658300000000000000000201503260002001DISREL S.A.                                       C000000000082600000000000000000000100010010000000000000000000000F0010000006961900420150326000101 00000000000000000000000000000000000000000000000000000000000000000000000000000000000000000000000000000000000000000N 00000000000NCONT   00    00000000000          00000000000000000000000000000000000000000000 000000000000000A000000000000000000000000000000000000000000000 000000000000000000000000000000000000000     00000000                                                                                                                        000000000000000000
F0010000006961900005000080002300200013552100000000000000000201503260002001DISREL S.A.                                       D000000000082600000000000000000000100010010000000000000000000000F0010000006961900520150326000101 00000000000000000000000000000000000000000000000000000000000000000000000000000000000000000000000000000000000000000N 00000000000NCONT   00    00000000000          00000000000000000000000000000000000000000000 000000000000000A000000000000000000000000000000000000000000000 000000000000000000000000000000000000000     00000000                                                                                                                        000000000000000000
F0010000006962000001000000376399500013050500000000000000000201503260002001FORDPLAST                                         D000000010340000000000000000000000100010010000000000000000000000F0010000006962000120150326000101 00000000000000000000000000000000000000000000000000000000000000000000000000000000000000000000000000000000000000000N 00000000000NCONT   00    00000000000          00000000000000000000000000000000000000000000 000000000000000A000000000000000000000000000000000000000000000 000000000000000000000000000000000000000     00000000                                                                                                                        000000000000000000
F0010000006962000002000000376399500041450500000000000000000201503260002001FORDPLAST                                         C000000008890000000000000000000000100010010000000000000000000000F0010000006962000220150326000101 00000000000000000000000000000000000000000000000000000000000000000000000000000000000000000000000000000000000000000N 00000000000NCONT   00    00000000000          00000000000000000000000000000000000000000000 000000000000000A000000000000000000000000000000000000000000000 000000000000000000000000000000000000000     00000000                                                                                                                        000000000000000000
F0010000006962000003000000376399500042505000000000000000000201503260002001FORDPLAST                                         C000000001450000000000000000000000100010010000000000000000000000F0010000006962000320150326000101 00000000000000000000000000000000000000000000000000000000000000000000000000000000000000000000000000000000000000000N 00000000000NCONT   00    00000000000          00000000000000000000000000000000000000000000 000000000000000A000000000000000000000000000000000000000000000 000000000000000000000000000000000000000     00000000                                                                                                                        000000000000000000
F0010000006962000004000000376399500023658300000000000000000201503260002001FORDPLAST                                         C000000000071100000000000000000000100010010000000000000000000000F0010000006962000420150326000101 00000000000000000000000000000000000000000000000000000000000000000000000000000000000000000000000000000000000000000N 00000000000NCONT   00    00000000000          00000000000000000000000000000000000000000000 000000000000000A000000000000000000000000000000000000000000000 000000000000000000000000000000000000000     00000000                                                                                                                        000000000000000000
F0010000006962000005000000376399500013552100000000000000000201503260002001FORDPLAST                                         D000000000071100000000000000000000100010010000000000000000000000F0010000006962000520150326000101 00000000000000000000000000000000000000000000000000000000000000000000000000000000000000000000000000000000000000000N 00000000000NCONT   00    00000000000          00000000000000000000000000000000000000000000 000000000000000A000000000000000000000000000000000000000000000 000000000000000000000000000000000000000     00000000                                                                                                                        000000000000000000
F0010000006962100001000090031658200013050500000000000000000201503260002001ABAOS S.A.S.                                      D000000010492300000000000000000000100010010000000000000000000000F0010000006962100120150326000101 00000000000000000000000000000000000000000000000000000000000000000000000000000000000000000000000000000000000000000N 00000000000NCONT   00    00000000000          00000000000000000000000000000000000000000000 000000000000000A000000000000000000000000000000000000000000000 000000000000000000000000000000000000000     00000000                                                                                                                        000000000000000000
F0010000006962100002000090031658200041450500000000000000000201503260002001ABAOS S.A.S.                                      C000000008680000000000000000000000100010010000000000000000000000F0010000006962100220150326000101 00000000000000000000000000000000000000000000000000000000000000000000000000000000000000000000000000000000000000000N 00000000000NCONT   00    00000000000          00000000000000000000000000000000000000000000 000000000000000A000000000000000000000000000000000000000000000 000000000000000000000000000000000000000     00000000                                                                                                                        000000000000000000
F0010000006962100003000090031658200042505000000000000000000201503260002001ABAOS S.A.S.                                      C000000001812300000000000000000000100010010000000000000000000000F0010000006962100320150326000101 00000000000000000000000000000000000000000000000000000000000000000000000000000000000000000000000000000000000000000N 00000000000NCONT   00    00000000000          00000000000000000000000000000000000000000000 000000000000000A000000000000000000000000000000000000000000000 000000000000000000000000000000000000000     00000000                                                                                                                        000000000000000000
F0010000006962100004000090031658200023658300000000000000000201503260002001ABAOS S.A.S.                                      C000000000069400000000000000000000100010010000000000000000000000F0010000006962100420150326000101 00000000000000000000000000000000000000000000000000000000000000000000000000000000000000000000000000000000000000000N 00000000000NCONT   00    00000000000          00000000000000000000000000000000000000000000 000000000000000A000000000000000000000000000000000000000000000 000000000000000000000000000000000000000     00000000                                                                                                                        000000000000000000
F0010000006962100005000090031658200013552100000000000000000201503260002001ABAOS S.A.S.                                      D000000000069400000000000000000000100010010000000000000000000000F0010000006962100520150326000101 00000000000000000000000000000000000000000000000000000000000000000000000000000000000000000000000000000000000000000N 00000000000NCONT   00    00000000000          00000000000000000000000000000000000000000000 000000000000000A000000000000000000000000000000000000000000000 000000000000000000000000000000000000000     00000000                                                                                                                        000000000000000000
F0010000006962200001000083001155300013050500000000000000000201503260002001COMERCIALIZADORA RUBEN S LTDA                     D000000016415900000000000000000000100010010000000000000000000000F0010000006962200120150326000101 00000000000000000000000000000000000000000000000000000000000000000000000000000000000000000000000000000000000000000N 00000000000NCONT   00    00000000000          00000000000000000000000000000000000000000000 000000000000000A000000000000000000000000000000000000000000000 000000000000000000000000000000000000000     00000000                                                                                                                        000000000000000000
F0010000006962200002000083001155300041450500000000000000000201503260002001COMERCIALIZADORA RUBEN S LTDA                     C000000014751600000000000000000000100010010000000000000000000000F0010000006962200220150326000101 00000000000000000000000000000000000000000000000000000000000000000000000000000000000000000000000000000000000000000N 00000000000NCONT   00    00000000000          00000000000000000000000000000000000000000000 000000000000000A000000000000000000000000000000000000000000000 000000000000000000000000000000000000000     00000000                                                                                                                        000000000000000000
F0010000006962200003000083001155300042505000000000000000000201503260002001COMERCIALIZADORA RUBEN S LTDA                     C000000001664300000000000000000000100010010000000000000000000000F0010000006962200320150326000101 00000000000000000000000000000000000000000000000000000000000000000000000000000000000000000000000000000000000000000N 00000000000NCONT   00    00000000000          00000000000000000000000000000000000000000000 000000000000000A000000000000000000000000000000000000000000000 000000000000000000000000000000000000000     00000000                                                                                                                        000000000000000000
F0010000006962200004000083001155300023658300000000000000000201503260002001COMERCIALIZADORA RUBEN S LTDA                     C000000000118000000000000000000000100010010000000000000000000000F0010000006962200420150326000101 00000000000000000000000000000000000000000000000000000000000000000000000000000000000000000000000000000000000000000N 00000000000NCONT   00    00000000000          00000000000000000000000000000000000000000000 000000000000000A000000000000000000000000000000000000000000000 000000000000000000000000000000000000000     00000000                                                                                                                        000000000000000000
F0010000006962200005000083001155300013552100000000000000000201503260002001COMERCIALIZADORA RUBEN S LTDA                     D000000000118000000000000000000000100010010000000000000000000000F0010000006962200520150326000101 00000000000000000000000000000000000000000000000000000000000000000000000000000000000000000000000000000000000000000N 00000000000NCONT   00    00000000000          00000000000000000000000000000000000000000000 000000000000000A000000000000000000000000000000000000000000000 000000000000000000000000000000000000000     00000000                                                                                                                        000000000000000000
F0010000006962300001000090010880700013050500000000000000000201503260002001PROELECTRICAS DE BARRANQUILLA LTDA                D000000006410000000000000000000000100010010000000000000000000000F0010000006962300120150326000101 00000000000000000000000000000000000000000000000000000000000000000000000000000000000000000000000000000000000000000N 00000000000NCONT   00    00000000000          00000000000000000000000000000000000000000000 000000000000000A000000000000000000000000000000000000000000000 000000000000000000000000000000000000000     00000000                                                                                                                        000000000000000000
F0010000006962300002000090010880700041450500000000000000000201503260002001PROELECTRICAS DE BARRANQUILLA LTDA                C000000006160000000000000000000000100010010000000000000000000000F0010000006962300220150326000101 00000000000000000000000000000000000000000000000000000000000000000000000000000000000000000000000000000000000000000N 00000000000NCONT   00    00000000000          00000000000000000000000000000000000000000000 000000000000000A000000000000000000000000000000000000000000000 000000000000000000000000000000000000000     00000000                                                                                                                        000000000000000000
F0010000006962300003000090010880700042505000000000000000000201503260002001PROELECTRICAS DE BARRANQUILLA LTDA                C000000000250000000000000000000000100010010000000000000000000000F0010000006962300320150326000101 00000000000000000000000000000000000000000000000000000000000000000000000000000000000000000000000000000000000000000N 00000000000NCONT   00    00000000000          00000000000000000000000000000000000000000000 000000000000000A000000000000000000000000000000000000000000000 000000000000000000000000000000000000000     00000000                                                                                                                        000000000000000000
F0010000006962300004000090010880700023658300000000000000000201503260002001PROELECTRICAS DE BARRANQUILLA LTDA                C000000000049300000000000000000000100010010000000000000000000000F0010000006962300420150326000101 00000000000000000000000000000000000000000000000000000000000000000000000000000000000000000000000000000000000000000N 00000000000NCONT   00    00000000000          00000000000000000000000000000000000000000000 000000000000000A000000000000000000000000000000000000000000000 000000000000000000000000000000000000000     00000000                                                                                                                        000000000000000000
F0010000006962300005000090010880700013552100000000000000000201503260002001PROELECTRICAS DE BARRANQUILLA LTDA                D000000000049300000000000000000000100010010000000000000000000000F0010000006962300520150326000101 00000000000000000000000000000000000000000000000000000000000000000000000000000000000000000000000000000000000000000N 00000000000NCONT   00    00000000000          00000000000000000000000000000000000000000000 000000000000000A000000000000000000000000000000000000000000000 000000000000000000000000000000000000000     00000000                                                                                                                        000000000000000000
F0010000006962400001000080200069100013050500000000000000000201503260002001PEGANTES Y PINTURAS ATLAS LTDA                    D000000008647900000000000000000000100010010000000000000000000000F0010000006962400120150326000101 00000000000000000000000000000000000000000000000000000000000000000000000000000000000000000000000000000000000000000N 00000000000NCONT   00    00000000000          00000000000000000000000000000000000000000000 000000000000000A000000000000000000000000000000000000000000000 000000000000000000000000000000000000000     00000000                                                                                                                        000000000000000000
F0010000006962400002000080200069100041450500000000000000000201503260002001PEGANTES Y PINTURAS ATLAS LTDA                    C000000007700000000000000000000000100010010000000000000000000000F0010000006962400220150326000101 00000000000000000000000000000000000000000000000000000000000000000000000000000000000000000000000000000000000000000N 00000000000NCONT   00    00000000000          00000000000000000000000000000000000000000000 000000000000000A000000000000000000000000000000000000000000000 000000000000000000000000000000000000000     00000000                                                                                                                        000000000000000000
F0010000006962400003000080200069100042505000000000000000000201503260002001PEGANTES Y PINTURAS ATLAS LTDA                    C000000000947900000000000000000000100010010000000000000000000000F0010000006962400320150326000101 00000000000000000000000000000000000000000000000000000000000000000000000000000000000000000000000000000000000000000N 00000000000NCONT   00    00000000000          00000000000000000000000000000000000000000000 000000000000000A000000000000000000000000000000000000000000000 000000000000000000000000000000000000000     00000000                                                                                                                        000000000000000000
F0010000006962400004000080200069100023658300000000000000000201503260002001PEGANTES Y PINTURAS ATLAS LTDA                    C000000000061600000000000000000000100010010000000000000000000000F0010000006962400420150326000101 00000000000000000000000000000000000000000000000000000000000000000000000000000000000000000000000000000000000000000N 00000000000NCONT   00    00000000000          00000000000000000000000000000000000000000000 000000000000000A000000000000000000000000000000000000000000000 000000000000000000000000000000000000000     00000000                                                                                                                        000000000000000000
F0010000006962400005000080200069100013552100000000000000000201503260002001PEGANTES Y PINTURAS ATLAS LTDA                    D000000000061600000000000000000000100010010000000000000000000000F0010000006962400520150326000101 00000000000000000000000000000000000000000000000000000000000000000000000000000000000000000000000000000000000000000N 00000000000NCONT   00    00000000000          00000000000000000000000000000000000000000000 000000000000000A000000000000000000000000000000000000000000000 000000000000000000000000000000000000000     00000000                                                                                                                        000000000000000000
F0010000006962500001000090059316900013050500000000000000000201503260002001DISTRIBUCIONES Y REPRESENTACIONES MANA            D000000008148000000000000000000000100010010000000000000000000000F0010000006962500120150326000101 00000000000000000000000000000000000000000000000000000000000000000000000000000000000000000000000000000000000000000N 00000000000NCONT   00    00000000000          00000000000000000000000000000000000000000000 000000000000000A000000000000000000000000000000000000000000000 000000000000000000000000000000000000000     00000000                                                                                                                        000000000000000000
F0010000006962500002000090059316900041450500000000000000000201503260002001DISTRIBUCIONES Y REPRESENTACIONES MANA            C000000006640000000000000000000000100010010000000000000000000000F0010000006962500220150326000101 00000000000000000000000000000000000000000000000000000000000000000000000000000000000000000000000000000000000000000N 00000000000NCONT   00    00000000000          00000000000000000000000000000000000000000000 000000000000000A000000000000000000000000000000000000000000000 000000000000000000000000000000000000000     00000000                                                                                                                        000000000000000000
F0010000006962500003000090059316900042505000000000000000000201503260002001DISTRIBUCIONES Y REPRESENTACIONES MANA            C000000001508000000000000000000000100010010000000000000000000000F0010000006962500320150326000101 00000000000000000000000000000000000000000000000000000000000000000000000000000000000000000000000000000000000000000N 00000000000NCONT   00    00000000000          00000000000000000000000000000000000000000000 000000000000000A000000000000000000000000000000000000000000000 000000000000000000000000000000000000000     00000000                                                                                                                        000000000000000000
F0010000006962500004000090059316900023658300000000000000000201503260002001DISTRIBUCIONES Y REPRESENTACIONES MANA            C000000000053100000000000000000000100010010000000000000000000000F0010000006962500420150326000101 00000000000000000000000000000000000000000000000000000000000000000000000000000000000000000000000000000000000000000N 00000000000NCONT   00    00000000000          00000000000000000000000000000000000000000000 000000000000000A000000000000000000000000000000000000000000000 000000000000000000000000000000000000000     00000000                                                                                                                        000000000000000000
F0010000006962500005000090059316900013552100000000000000000201503260002001DISTRIBUCIONES Y REPRESENTACIONES MANA            D000000000053100000000000000000000100010010000000000000000000000F0010000006962500520150326000101 00000000000000000000000000000000000000000000000000000000000000000000000000000000000000000000000000000000000000000N 00000000000NCONT   00    00000000000          00000000000000000000000000000000000000000000 000000000000000A000000000000000000000000000000000000000000000 000000000000000000000000000000000000000     00000000                                                                                                                        000000000000000000
F0010000006962600001000002245670100013050500000000000000000201503260002001YOLANDA  TOBON                                    D000000020750100000000000000000000100010010000000000000000000000F0010000006962600120150326000101 00000000000000000000000000000000000000000000000000000000000000000000000000000000000000000000000000000000000000000N 00000000000NCONT   00    00000000000          00000000000000000000000000000000000000000000 000000000000000A000000000000000000000000000000000000000000000 000000000000000000000000000000000000000     00000000                                                                                                                        000000000000000000
F0010000006962600002000002245670100041450500000000000000000201503260002001YOLANDA  TOBON                                    C000000018000000000000000000000000100010010000000000000000000000F0010000006962600220150326000101 00000000000000000000000000000000000000000000000000000000000000000000000000000000000000000000000000000000000000000N 00000000000NCONT   00    00000000000          00000000000000000000000000000000000000000000 000000000000000A000000000000000000000000000000000000000000000 000000000000000000000000000000000000000     00000000                                                                                                                        000000000000000000
F0010000006962600003000002245670100042505000000000000000000201503260002001YOLANDA  TOBON                                    C000000002750100000000000000000000100010010000000000000000000000F0010000006962600320150326000101 00000000000000000000000000000000000000000000000000000000000000000000000000000000000000000000000000000000000000000N 00000000000NCONT   00    00000000000          00000000000000000000000000000000000000000000 000000000000000A000000000000000000000000000000000000000000000 000000000000000000000000000000000000000     00000000                                                                                                                        000000000000000000
F0010000006962600004000002245670100023658300000000000000000201503260002001YOLANDA  TOBON                                    C000000000144000000000000000000000100010010000000000000000000000F0010000006962600420150326000101 00000000000000000000000000000000000000000000000000000000000000000000000000000000000000000000000000000000000000000N 00000000000NCONT   00    00000000000          00000000000000000000000000000000000000000000 000000000000000A000000000000000000000000000000000000000000000 000000000000000000000000000000000000000     00000000                                                                                                                        000000000000000000
F0010000006962600005000002245670100013552100000000000000000201503260002001YOLANDA  TOBON                                    D000000000144000000000000000000000100010010000000000000000000000F0010000006962600520150326000101 00000000000000000000000000000000000000000000000000000000000000000000000000000000000000000000000000000000000000000N 00000000000NCONT   00    00000000000          00000000000000000000000000000000000000000000 000000000000000A000000000000000000000000000000000000000000000 000000000000000000000000000000000000000     00000000                                                                                                                        000000000000000000
F0010000006962700001000089070997800013050500000000000000000201503260002001CENTRAL DE TORNILLOS                              D000000009700000000000000000000000100010010000000000000000000000F0010000006962700120150326000101 00000000000000000000000000000000000000000000000000000000000000000000000000000000000000000000000000000000000000000N 00000000000NCONT   00    00000000000          00000000000000000000000000000000000000000000 000000000000000A000000000000000000000000000000000000000000000 000000000000000000000000000000000000000     00000000                                                                                                                        000000000000000000
F0010000006962700002000089070997800041450500000000000000000201503260002001CENTRAL DE TORNILLOS                              C000000009000000000000000000000000100010010000000000000000000000F0010000006962700220150326000101 00000000000000000000000000000000000000000000000000000000000000000000000000000000000000000000000000000000000000000N 00000000000NCONT   00    00000000000          00000000000000000000000000000000000000000000 000000000000000A000000000000000000000000000000000000000000000 000000000000000000000000000000000000000     00000000                                                                                                                        000000000000000000
F0010000006962700003000089070997800042505000000000000000000201503260002001CENTRAL DE TORNILLOS                              C000000000700000000000000000000000100010010000000000000000000000F0010000006962700320150326000101 00000000000000000000000000000000000000000000000000000000000000000000000000000000000000000000000000000000000000000N 00000000000NCONT   00    00000000000          00000000000000000000000000000000000000000000 000000000000000A000000000000000000000000000000000000000000000 000000000000000000000000000000000000000     00000000                                                                                                                        000000000000000000
F0010000006962700004000089070997800023658300000000000000000201503260002001CENTRAL DE TORNILLOS                              C000000000072000000000000000000000100010010000000000000000000000F0010000006962700420150326000101 00000000000000000000000000000000000000000000000000000000000000000000000000000000000000000000000000000000000000000N 00000000000NCONT   00    00000000000          00000000000000000000000000000000000000000000 000000000000000A000000000000000000000000000000000000000000000 000000000000000000000000000000000000000     00000000                                                                                                                        000000000000000000
F0010000006962700005000089070997800013552100000000000000000201503260002001CENTRAL DE TORNILLOS                              D000000000072000000000000000000000100010010000000000000000000000F0010000006962700520150326000101 00000000000000000000000000000000000000000000000000000000000000000000000000000000000000000000000000000000000000000N 00000000000NCONT   00    00000000000          00000000000000000000000000000000000000000000 000000000000000A000000000000000000000000000000000000000000000 000000000000000000000000000000000000000     00000000                                                                                                                        000000000000000000
F0010000006962800001000080016665600013050500000000000000000201503260002001SUMICAL DE ANTIOQUIA S.A.S                        D000000012178000000000000000000000100010010000000000000000000000F0010000006962800120150326000101 00000000000000000000000000000000000000000000000000000000000000000000000000000000000000000000000000000000000000000N 00000000000NCONT   00    00000000000          00000000000000000000000000000000000000000000 000000000000000A000000000000000000000000000000000000000000000 000000000000000000000000000000000000000     00000000                                                                                                                        000000000000000000
F0010000006962800002000080016665600041450500000000000000000201503260002001SUMICAL DE ANTIOQUIA S.A.S                        C000000010570000000000000000000000100010010000000000000000000000F0010000006962800220150326000101 00000000000000000000000000000000000000000000000000000000000000000000000000000000000000000000000000000000000000000N 00000000000NCONT   00    00000000000          00000000000000000000000000000000000000000000 000000000000000A000000000000000000000000000000000000000000000 000000000000000000000000000000000000000     00000000                                                                                                                        000000000000000000
F0010000006962800003000080016665600042505000000000000000000201503260002001SUMICAL DE ANTIOQUIA S.A.S                        C000000001608000000000000000000000100010010000000000000000000000F0010000006962800320150326000101 00000000000000000000000000000000000000000000000000000000000000000000000000000000000000000000000000000000000000000N 00000000000NCONT   00    00000000000          00000000000000000000000000000000000000000000 000000000000000A000000000000000000000000000000000000000000000 000000000000000000000000000000000000000     00000000                                                                                                                        000000000000000000
F0010000006962800004000080016665600023658300000000000000000201503260002001SUMICAL DE ANTIOQUIA S.A.S                        C000000000084600000000000000000000100010010000000000000000000000F0010000006962800420150326000101 00000000000000000000000000000000000000000000000000000000000000000000000000000000000000000000000000000000000000000N 00000000000NCONT   00    00000000000          00000000000000000000000000000000000000000000 000000000000000A000000000000000000000000000000000000000000000 000000000000000000000000000000000000000     00000000                                                                                                                        000000000000000000
F0010000006962800005000080016665600013552100000000000000000201503260002001SUMICAL DE ANTIOQUIA S.A.S                        D000000000084600000000000000000000100010010000000000000000000000F0010000006962800520150326000101 00000000000000000000000000000000000000000000000000000000000000000000000000000000000000000000000000000000000000000N 00000000000NCONT   00    00000000000          00000000000000000000000000000000000000000000 000000000000000A000000000000000000000000000000000000000000000 000000000000000000000000000000000000000     00000000                                                                                                                        000000000000000000
F0010000006962900001000000748239700013050500000000000000000201503260002001RAFAEL NAVARRO URIBE                              D000000109259800000000000000000000100010010000000000000000000000F0010000006962900120150326000101 00000000000000000000000000000000000000000000000000000000000000000000000000000000000000000000000000000000000000000N 00000000000NCONT   00    00000000000          00000000000000000000000000000000000000000000 000000000000000A000000000000000000000000000000000000000000000 000000000000000000000000000000000000000     00000000                                                                                                                        000000000000000000
F0010000006962900002000000748239700041450500000000000000000201503260002001RAFAEL NAVARRO URIBE                              C000000092390000000000000000000000100010010000000000000000000000F0010000006962900220150326000101 00000000000000000000000000000000000000000000000000000000000000000000000000000000000000000000000000000000000000000N 00000000000NCONT   00    00000000000          00000000000000000000000000000000000000000000 000000000000000A000000000000000000000000000000000000000000000 000000000000000000000000000000000000000     00000000                                                                                                                        000000000000000000
F0010000006962900003000000748239700042505000000000000000000201503260002001RAFAEL NAVARRO URIBE                              C000000016869800000000000000000000100010010000000000000000000000F0010000006962900320150326000101 00000000000000000000000000000000000000000000000000000000000000000000000000000000000000000000000000000000000000000N 00000000000NCONT   00    00000000000          00000000000000000000000000000000000000000000 000000000000000A000000000000000000000000000000000000000000000 000000000000000000000000000000000000000     00000000                                                                                                                        000000000000000000
F0010000006962900004000000748239700023658300000000000000000201503260002001RAFAEL NAVARRO URIBE                              C000000000739100000000000000000000100010010000000000000000000000F0010000006962900420150326000101 00000000000000000000000000000000000000000000000000000000000000000000000000000000000000000000000000000000000000000N 00000000000NCONT   00    00000000000          00000000000000000000000000000000000000000000 000000000000000A000000000000000000000000000000000000000000000 000000000000000000000000000000000000000     00000000                                                                                                                        000000000000000000
F0010000006962900005000000748239700013552100000000000000000201503260002001RAFAEL NAVARRO URIBE                              D000000000739100000000000000000000100010010000000000000000000000F0010000006962900520150326000101 00000000000000000000000000000000000000000000000000000000000000000000000000000000000000000000000000000000000000000N 00000000000NCONT   00    00000000000          00000000000000000000000000000000000000000000 000000000000000A000000000000000000000000000000000000000000000 000000000000000000000000000000000000000     00000000                                                                                                                        000000000000000000
F0010000006963000001000090040928000013050500000000000000000201503260002001DISTRIBUCIONES FERRETERAS OTERO & AGUDELO SAS     D000000005820300000000000000000000100010010000000000000000000000F0010000006963000120150326000101 00000000000000000000000000000000000000000000000000000000000000000000000000000000000000000000000000000000000000000N 00000000000NCONT   00    00000000000          00000000000000000000000000000000000000000000 000000000000000A000000000000000000000000000000000000000000000 000000000000000000000000000000000000000     00000000                                                                                                                        000000000000000000
F0010000006963000002000090040928000041450500000000000000000201503260002001DISTRIBUCIONES FERRETERAS OTERO & AGUDELO SAS     C000000005820300000000000000000000100010010000000000000000000000F0010000006963000220150326000101 00000000000000000000000000000000000000000000000000000000000000000000000000000000000000000000000000000000000000000N 00000000000NCONT   00    00000000000          00000000000000000000000000000000000000000000 000000000000000A000000000000000000000000000000000000000000000 000000000000000000000000000000000000000     00000000                                                                                                                        000000000000000000
F0010000006963000003000090040928000042505000000000000000000201503260002001DISTRIBUCIONES FERRETERAS OTERO & AGUDELO SAS     C000000000000000000000000000000000100010010000000000000000000000F0010000006963000320150326000101 00000000000000000000000000000000000000000000000000000000000000000000000000000000000000000000000000000000000000000N 00000000000NCONT   00    00000000000          00000000000000000000000000000000000000000000 000000000000000A000000000000000000000000000000000000000000000 000000000000000000000000000000000000000     00000000                                                                                                                        000000000000000000
F0010000006963000004000090040928000023658300000000000000000201503260002001DISTRIBUCIONES FERRETERAS OTERO & AGUDELO SAS     C000000000046600000000000000000000100010010000000000000000000000F0010000006963000420150326000101 00000000000000000000000000000000000000000000000000000000000000000000000000000000000000000000000000000000000000000N 00000000000NCONT   00    00000000000          00000000000000000000000000000000000000000000 000000000000000A000000000000000000000000000000000000000000000 000000000000000000000000000000000000000     00000000                                                                                                                        000000000000000000
F0010000006963000005000090040928000013552100000000000000000201503260002001DISTRIBUCIONES FERRETERAS OTERO & AGUDELO SAS     D000000000046600000000000000000000100010010000000000000000000000F0010000006963000520150326000101 00000000000000000000000000000000000000000000000000000000000000000000000000000000000000000000000000000000000000000N 00000000000NCONT   00    00000000000          00000000000000000000000000000000000000000000 000000000000000A000000000000000000000000000000000000000000000 000000000000000000000000000000000000000     00000000                                                                                                                        000000000000000000
F0010000006963100001000090008711200013050500000000000000000201503260002001PACKAGING SUPPLIERS S.A.                          D000000010606500000000000000000000100010010000000000000000000000F0010000006963100120150326000101 00000000000000000000000000000000000000000000000000000000000000000000000000000000000000000000000000000000000000000N 00000000000NCONT   00    00000000000          00000000000000000000000000000000000000000000 000000000000000A000000000000000000000000000000000000000000000 000000000000000000000000000000000000000     00000000                                                                                                                        000000000000000000
F0010000006963100002000090008711200041450500000000000000000201503260002001PACKAGING SUPPLIERS S.A.                          C000000009660000000000000000000000100010010000000000000000000000F0010000006963100220150326000101 00000000000000000000000000000000000000000000000000000000000000000000000000000000000000000000000000000000000000000N 00000000000NCONT   00    00000000000          00000000000000000000000000000000000000000000 000000000000000A000000000000000000000000000000000000000000000 000000000000000000000000000000000000000     00000000                                                                                                                        000000000000000000
F0010000006963100003000090008711200042505000000000000000000201503260002001PACKAGING SUPPLIERS S.A.                          C000000000946500000000000000000000100010010000000000000000000000F0010000006963100320150326000101 00000000000000000000000000000000000000000000000000000000000000000000000000000000000000000000000000000000000000000N 00000000000NCONT   00    00000000000          00000000000000000000000000000000000000000000 000000000000000A000000000000000000000000000000000000000000000 000000000000000000000000000000000000000     00000000                                                                                                                        000000000000000000
F0010000006963100004000090008711200023658300000000000000000201503260002001PACKAGING SUPPLIERS S.A.                          C000000000077300000000000000000000100010010000000000000000000000F0010000006963100420150326000101 00000000000000000000000000000000000000000000000000000000000000000000000000000000000000000000000000000000000000000N 00000000000NCONT   00    00000000000          00000000000000000000000000000000000000000000 000000000000000A000000000000000000000000000000000000000000000 000000000000000000000000000000000000000     00000000                                                                                                                        000000000000000000
F0010000006963100005000090008711200013552100000000000000000201503260002001PACKAGING SUPPLIERS S.A.                          D000000000077300000000000000000000100010010000000000000000000000F0010000006963100520150326000101 00000000000000000000000000000000000000000000000000000000000000000000000000000000000000000000000000000000000000000N 00000000000NCONT   00    00000000000          00000000000000000000000000000000000000000000 000000000000000A000000000000000000000000000000000000000000000 000000000000000000000000000000000000000     00000000                                                                                                                        000000000000000000
F0010000006963300001000080022903500013050500000000000000000201503260002001TECNOGLASS S.A                                    D000000023295400000000000000000000100010010000000000000000000000F0010000006963300120150326000101 00000000000000000000000000000000000000000000000000000000000000000000000000000000000000000000000000000000000000000N 00000000000NCONT   00    00000000000          00000000000000000000000000000000000000000000 000000000000000A000000000000000000000000000000000000000000000 000000000000000000000000000000000000000     00000000                                                                                                                        000000000000000000
F0010000006963300002000080022903500041450500000000000000000201503260002001TECNOGLASS S.A                                    C000000020513900000000000000000000100010010000000000000000000000F0010000006963300220150326000101 00000000000000000000000000000000000000000000000000000000000000000000000000000000000000000000000000000000000000000N 00000000000NCONT   00    00000000000          00000000000000000000000000000000000000000000 000000000000000A000000000000000000000000000000000000000000000 000000000000000000000000000000000000000     00000000                                                                                                                        000000000000000000
F0010000006963300003000080022903500042505000000000000000000201503260002001TECNOGLASS S.A                                    C000000002781500000000000000000000100010010000000000000000000000F0010000006963300320150326000101 00000000000000000000000000000000000000000000000000000000000000000000000000000000000000000000000000000000000000000N 00000000000NCONT   00    00000000000          00000000000000000000000000000000000000000000 000000000000000A000000000000000000000000000000000000000000000 000000000000000000000000000000000000000     00000000                                                                                                                        000000000000000000
F0010000006963300004000080022903500023658300000000000000000201503260002001TECNOGLASS S.A                                    C000000000164100000000000000000000100010010000000000000000000000F0010000006963300420150326000101 00000000000000000000000000000000000000000000000000000000000000000000000000000000000000000000000000000000000000000N 00000000000NCONT   00    00000000000          00000000000000000000000000000000000000000000 000000000000000A000000000000000000000000000000000000000000000 000000000000000000000000000000000000000     00000000                                                                                                                        000000000000000000
F0010000006963300005000080022903500013552100000000000000000201503260002001TECNOGLASS S.A                                    D000000000164100000000000000000000100010010000000000000000000000F0010000006963300520150326000101 00000000000000000000000000000000000000000000000000000000000000000000000000000000000000000000000000000000000000000N 00000000000NCONT   00    00000000000          00000000000000000000000000000000000000000000 000000000000000A000000000000000000000000000000000000000000000 000000000000000000000000000000000000000     00000000                                                                                                                        000000000000000000
F0010000006963400001000089010526900013050500000000000000000201503260002001DISTRIBUCIONES CANAL Y CIA S.A.S                  D000000018053600000000000000000000100010010000000000000000000000F0010000006963400120150326000101 00000000000000000000000000000000000000000000000000000000000000000000000000000000000000000000000000000000000000000N 00000000000NCONT   00    00000000000          00000000000000000000000000000000000000000000 000000000000000A000000000000000000000000000000000000000000000 000000000000000000000000000000000000000     00000000                                                                                                                        000000000000000000
F0010000006963400002000089010526900041450500000000000000000201503260002001DISTRIBUCIONES CANAL Y CIA S.A.S                  C000000013480000000000000000000000100010010000000000000000000000F0010000006963400220150326000101 00000000000000000000000000000000000000000000000000000000000000000000000000000000000000000000000000000000000000000N 00000000000NCONT   00    00000000000          00000000000000000000000000000000000000000000 000000000000000A000000000000000000000000000000000000000000000 000000000000000000000000000000000000000     00000000                                                                                                                        000000000000000000
F0010000006963400003000089010526900042505000000000000000000201503260002001DISTRIBUCIONES CANAL Y CIA S.A.S                  C000000004573600000000000000000000100010010000000000000000000000F0010000006963400320150326000101 00000000000000000000000000000000000000000000000000000000000000000000000000000000000000000000000000000000000000000N 00000000000NCONT   00    00000000000          00000000000000000000000000000000000000000000 000000000000000A000000000000000000000000000000000000000000000 000000000000000000000000000000000000000     00000000                                                                                                                        000000000000000000
F0010000006963400004000089010526900023658300000000000000000201503260002001DISTRIBUCIONES CANAL Y CIA S.A.S                  C000000000107800000000000000000000100010010000000000000000000000F0010000006963400420150326000101 00000000000000000000000000000000000000000000000000000000000000000000000000000000000000000000000000000000000000000N 00000000000NCONT   00    00000000000          00000000000000000000000000000000000000000000 000000000000000A000000000000000000000000000000000000000000000 000000000000000000000000000000000000000     00000000                                                                                                                        000000000000000000
F0010000006963400005000089010526900013552100000000000000000201503260002001DISTRIBUCIONES CANAL Y CIA S.A.S                  D000000000107800000000000000000000100010010000000000000000000000F0010000006963400520150326000101 00000000000000000000000000000000000000000000000000000000000000000000000000000000000000000000000000000000000000000N 00000000000NCONT   00    00000000000          00000000000000000000000000000000000000000000 000000000000000A000000000000000000000000000000000000000000000 000000000000000000000000000000000000000     00000000                                                                                                                        000000000000000000
F0010000006963500001000080004943800013050500000000000000000201503260002001PAPELERIA EL CID S.A.                             D000000116400000000000000000000000100010010000000000000000000000F0010000006963500120150326000101 00000000000000000000000000000000000000000000000000000000000000000000000000000000000000000000000000000000000000000N 00000000000NCONT   00    00000000000          00000000000000000000000000000000000000000000 000000000000000A000000000000000000000000000000000000000000000 000000000000000000000000000000000000000     00000000                                                                                                                        000000000000000000
F0010000006963500002000080004943800041450500000000000000000201503260002001PAPELERIA EL CID S.A.                             C000000105950000000000000000000000100010010000000000000000000000F0010000006963500220150326000101 00000000000000000000000000000000000000000000000000000000000000000000000000000000000000000000000000000000000000000N 00000000000NCONT   00    00000000000          00000000000000000000000000000000000000000000 000000000000000A000000000000000000000000000000000000000000000 000000000000000000000000000000000000000     00000000                                                                                                                        000000000000000000
F0010000006963500003000080004943800042505000000000000000000201503260002001PAPELERIA EL CID S.A.                             C000000010450000000000000000000000100010010000000000000000000000F0010000006963500320150326000101 00000000000000000000000000000000000000000000000000000000000000000000000000000000000000000000000000000000000000000N 00000000000NCONT   00    00000000000          00000000000000000000000000000000000000000000 000000000000000A000000000000000000000000000000000000000000000 000000000000000000000000000000000000000     00000000                                                                                                                        000000000000000000
F0010000006963500004000080004943800023658300000000000000000201503260002001PAPELERIA EL CID S.A.                             C000000000847600000000000000000000100010010000000000000000000000F0010000006963500420150326000101 00000000000000000000000000000000000000000000000000000000000000000000000000000000000000000000000000000000000000000N 00000000000NCONT   00    00000000000          00000000000000000000000000000000000000000000 000000000000000A000000000000000000000000000000000000000000000 000000000000000000000000000000000000000     00000000                                                                                                                        000000000000000000
F0010000006963500005000080004943800013552100000000000000000201503260002001PAPELERIA EL CID S.A.                             D000000000847600000000000000000000100010010000000000000000000000F0010000006963500520150326000101 00000000000000000000000000000000000000000000000000000000000000000000000000000000000000000000000000000000000000000N 00000000000NCONT   00    00000000000          00000000000000000000000000000000000000000000 000000000000000A000000000000000000000000000000000000000000000 000000000000000000000000000000000000000     00000000                                                                                                                        000000000000000000
F0010000006963600001000080004943800013050500000000000000000201503260002001PAPELERIA EL CID S.A.                             D000000000415000000000000000000000100010010000000000000000000000F0010000006963600120150326000101 00000000000000000000000000000000000000000000000000000000000000000000000000000000000000000000000000000000000000000N 00000000000NCONT   00    00000000000          00000000000000000000000000000000000000000000 000000000000000A000000000000000000000000000000000000000000000 000000000000000000000000000000000000000     00000000                                                                                                                        000000000000000000
F0010000006963600002000080004943800041450500000000000000000201503260002001PAPELERIA EL CID S.A.                             C000000000390000000000000000000000100010010000000000000000000000F0010000006963600220150326000101 00000000000000000000000000000000000000000000000000000000000000000000000000000000000000000000000000000000000000000N 00000000000NCONT   00    00000000000          00000000000000000000000000000000000000000000 000000000000000A000000000000000000000000000000000000000000000 000000000000000000000000000000000000000     00000000                                                                                                                        000000000000000000
F0010000006963600003000080004943800042505000000000000000000201503260002001PAPELERIA EL CID S.A.                             C000000000025000000000000000000000100010010000000000000000000000F0010000006963600320150326000101 00000000000000000000000000000000000000000000000000000000000000000000000000000000000000000000000000000000000000000N 00000000000NCONT   00    00000000000          00000000000000000000000000000000000000000000 000000000000000A000000000000000000000000000000000000000000000 000000000000000000000000000000000000000     00000000                                                                                                                        000000000000000000
F0010000006963600004000080004943800023658300000000000000000201503260002001PAPELERIA EL CID S.A.                             C000000000003100000000000000000000100010010000000000000000000000F0010000006963600420150326000101 00000000000000000000000000000000000000000000000000000000000000000000000000000000000000000000000000000000000000000N 00000000000NCONT   00    00000000000          00000000000000000000000000000000000000000000 000000000000000A000000000000000000000000000000000000000000000 000000000000000000000000000000000000000     00000000                                                                                                                        000000000000000000
F0010000006963600005000080004943800013552100000000000000000201503260002001PAPELERIA EL CID S.A.                             D000000000003100000000000000000000100010010000000000000000000000F0010000006963600520150326000101 00000000000000000000000000000000000000000000000000000000000000000000000000000000000000000000000000000000000000000N 00000000000NCONT   00    00000000000          00000000000000000000000000000000000000000000 000000000000000A000000000000000000000000000000000000000000000 000000000000000000000000000000000000000     00000000                                                                                                                        000000000000000000
F0010000006963700001000090064982900013050500000000000000000201503260002001DISDIES S.A.S                                     D000000101765300000000000000000000100010010000000000000000000000F0010000006963700120150326000101 00000000000000000000000000000000000000000000000000000000000000000000000000000000000000000000000000000000000000000N 00000000000NCONT   00    00000000000          00000000000000000000000000000000000000000000 000000000000000A000000000000000000000000000000000000000000000 000000000000000000000000000000000000000     00000000                                                                                                                        000000000000000000
F0010000006963700002000090064982900041450500000000000000000201503260002001DISDIES S.A.S                                     C000000088459500000000000000000000100010010000000000000000000000F0010000006963700220150326000101 00000000000000000000000000000000000000000000000000000000000000000000000000000000000000000000000000000000000000000N 00000000000NCONT   00    00000000000          00000000000000000000000000000000000000000000 000000000000000A000000000000000000000000000000000000000000000 000000000000000000000000000000000000000     00000000                                                                                                                        000000000000000000
F0010000006963700003000090064982900042505000000000000000000201503260002001DISDIES S.A.S                                     C000000013305800000000000000000000100010010000000000000000000000F0010000006963700320150326000101 00000000000000000000000000000000000000000000000000000000000000000000000000000000000000000000000000000000000000000N 00000000000NCONT   00    00000000000          00000000000000000000000000000000000000000000 000000000000000A000000000000000000000000000000000000000000000 000000000000000000000000000000000000000     00000000                                                                                                                        000000000000000000
F0010000006963700004000090064982900023658300000000000000000201503260002001DISDIES S.A.S                                     C000000000707700000000000000000000100010010000000000000000000000F0010000006963700420150326000101 00000000000000000000000000000000000000000000000000000000000000000000000000000000000000000000000000000000000000000N 00000000000NCONT   00    00000000000          00000000000000000000000000000000000000000000 000000000000000A000000000000000000000000000000000000000000000 000000000000000000000000000000000000000     00000000                                                                                                                        000000000000000000
F0010000006963700005000090064982900013552100000000000000000201503260002001DISDIES S.A.S                                     D000000000707700000000000000000000100010010000000000000000000000F0010000006963700520150326000101 00000000000000000000000000000000000000000000000000000000000000000000000000000000000000000000000000000000000000000N 00000000000NCONT   00    00000000000          00000000000000000000000000000000000000000000 000000000000000A000000000000000000000000000000000000000000000 000000000000000000000000000000000000000     00000000                                                                                                                        000000000000000000
F0010000006963800001000090064982900013050500000000000000000201503260002001DISDIES S.A.S                                     D000000004425000000000000000000000100010010000000000000000000000F0010000006963800120150326000101 00000000000000000000000000000000000000000000000000000000000000000000000000000000000000000000000000000000000000000N 00000000000NCONT   00    00000000000          00000000000000000000000000000000000000000000 000000000000000A000000000000000000000000000000000000000000000 000000000000000000000000000000000000000     00000000                                                                                                                        000000000000000000
F0010000006963800002000090064982900041450500000000000000000201503260002001DISDIES S.A.S                                     C000000004200000000000000000000000100010010000000000000000000000F0010000006963800220150326000101 00000000000000000000000000000000000000000000000000000000000000000000000000000000000000000000000000000000000000000N 00000000000NCONT   00    00000000000          00000000000000000000000000000000000000000000 000000000000000A000000000000000000000000000000000000000000000 000000000000000000000000000000000000000     00000000                                                                                                                        000000000000000000
F0010000006963800003000090064982900042505000000000000000000201503260002001DISDIES S.A.S                                     C000000000225000000000000000000000100010010000000000000000000000F0010000006963800320150326000101 00000000000000000000000000000000000000000000000000000000000000000000000000000000000000000000000000000000000000000N 00000000000NCONT   00    00000000000          00000000000000000000000000000000000000000000 000000000000000A000000000000000000000000000000000000000000000 000000000000000000000000000000000000000     00000000                                                                                                                        000000000000000000
F0010000006963800004000090064982900023658300000000000000000201503260002001DISDIES S.A.S                                     C000000000033600000000000000000000100010010000000000000000000000F0010000006963800420150326000101 00000000000000000000000000000000000000000000000000000000000000000000000000000000000000000000000000000000000000000N 00000000000NCONT   00    00000000000          00000000000000000000000000000000000000000000 000000000000000A000000000000000000000000000000000000000000000 000000000000000000000000000000000000000     00000000                                                                                                                        000000000000000000
F0010000006963800005000090064982900013552100000000000000000201503260002001DISDIES S.A.S                                     D000000000033600000000000000000000100010010000000000000000000000F0010000006963800520150326000101 00000000000000000000000000000000000000000000000000000000000000000000000000000000000000000000000000000000000000000N 00000000000NCONT   00    00000000000          00000000000000000000000000000000000000000000 000000000000000A000000000000000000000000000000000000000000000 000000000000000000000000000000000000000     00000000                                                                                                                        000000000000000000
F0010000006963900001000090027633800011050500000000000000000201503260002001MALLAS Y CERRAMIENTOS DEL ATLANTICO LTDA          D000000004000000000000000000000000100010010000000000000000000000F0010000006963900120150326000101 00000000000000000000000000000000000000000000000000000000000000000000000000000000000000000000000000000000000000000N 00000000000NCONT   00    00000000000          00000000000000000000000000000000000000000000 000000000000000A000000000000000000000000000000000000000000000 000000000000000000000000000000000000000     00000000                                                                                                                        000000000000000000
F0010000006963900002000090027633800041450500000000000000000201503260002001MALLAS Y CERRAMIENTOS DEL ATLANTICO LTDA          C000000003500000000000000000000000100010010000000000000000000000F0010000006963900220150326000101 00000000000000000000000000000000000000000000000000000000000000000000000000000000000000000000000000000000000000000N 00000000000NCONT   00    00000000000          00000000000000000000000000000000000000000000 000000000000000A000000000000000000000000000000000000000000000 000000000000000000000000000000000000000     00000000                                                                                                                        000000000000000000
F0010000006963900003000090027633800042505000000000000000000201503260002001MALLAS Y CERRAMIENTOS DEL ATLANTICO LTDA          C000000000500000000000000000000000100010010000000000000000000000F0010000006963900320150326000101 00000000000000000000000000000000000000000000000000000000000000000000000000000000000000000000000000000000000000000N 00000000000NCONT   00    00000000000          00000000000000000000000000000000000000000000 000000000000000A000000000000000000000000000000000000000000000 000000000000000000000000000000000000000     00000000                                                                                                                        000000000000000000
F0010000006963900004000090027633800023658300000000000000000201503260002001MALLAS Y CERRAMIENTOS DEL ATLANTICO LTDA          C000000000028000000000000000000000100010010000000000000000000000F0010000006963900420150326000101 00000000000000000000000000000000000000000000000000000000000000000000000000000000000000000000000000000000000000000N 00000000000NCONT   00    00000000000          00000000000000000000000000000000000000000000 000000000000000A000000000000000000000000000000000000000000000 000000000000000000000000000000000000000     00000000                                                                                                                        000000000000000000
F0010000006963900005000090027633800013552100000000000000000201503260002001MALLAS Y CERRAMIENTOS DEL ATLANTICO LTDA          D000000000028000000000000000000000100010010000000000000000000000F0010000006963900520150326000101 00000000000000000000000000000000000000000000000000000000000000000000000000000000000000000000000000000000000000000N 00000000000NCONT   00    00000000000          00000000000000000000000000000000000000000000 000000000000000A000000000000000000000000000000000000000000000 000000000000000000000000000000000000000     00000000                                                                                                                        000000000000000000
F0010000006964000001000000870907300011050500000000000000000201503260002001SURTIDOR FERRETERO                                D000000001400000000000000000000000100010010000000000000000000000F0010000006964000120150326000101 00000000000000000000000000000000000000000000000000000000000000000000000000000000000000000000000000000000000000000N 00000000000NCONT   00    00000000000          00000000000000000000000000000000000000000000 000000000000000A000000000000000000000000000000000000000000000 000000000000000000000000000000000000000     00000000                                                                                                                        000000000000000000
F0010000006964000002000000870907300041450500000000000000000201503260002001SURTIDOR FERRETERO                                C000000000800000000000000000000000100010010000000000000000000000F0010000006964000220150326000101 00000000000000000000000000000000000000000000000000000000000000000000000000000000000000000000000000000000000000000N 00000000000NCONT   00    00000000000          00000000000000000000000000000000000000000000 000000000000000A000000000000000000000000000000000000000000000 000000000000000000000000000000000000000     00000000                                                                                                                        000000000000000000
F0010000006964000003000000870907300042505000000000000000000201503260002001SURTIDOR FERRETERO                                C000000000600000000000000000000000100010010000000000000000000000F0010000006964000320150326000101 00000000000000000000000000000000000000000000000000000000000000000000000000000000000000000000000000000000000000000N 00000000000NCONT   00    00000000000          00000000000000000000000000000000000000000000 000000000000000A000000000000000000000000000000000000000000000 000000000000000000000000000000000000000     00000000                                                                                                                        000000000000000000
F0010000006964000004000000870907300023658300000000000000000201503260002001SURTIDOR FERRETERO                                C000000000006400000000000000000000100010010000000000000000000000F0010000006964000420150326000101 00000000000000000000000000000000000000000000000000000000000000000000000000000000000000000000000000000000000000000N 00000000000NCONT   00    00000000000          00000000000000000000000000000000000000000000 000000000000000A000000000000000000000000000000000000000000000 000000000000000000000000000000000000000     00000000                                                                                                                        000000000000000000
F0010000006964000005000000870907300013552100000000000000000201503260002001SURTIDOR FERRETERO                                D000000000006400000000000000000000100010010000000000000000000000F0010000006964000520150326000101 00000000000000000000000000000000000000000000000000000000000000000000000000000000000000000000000000000000000000000N 00000000000NCONT   00    00000000000          00000000000000000000000000000000000000000000 000000000000000A000000000000000000000000000000000000000000000 000000000000000000000000000000000000000     00000000                                                                                                                        000000000000000000
F0010000006964100001000001567030000011050500000000000000000201503260002001LUIS DIAZ Z. / PLASTIDIAZ                         D000000008000000000000000000000000100010010000000000000000000000F0010000006964100120150326000101 00000000000000000000000000000000000000000000000000000000000000000000000000000000000000000000000000000000000000000N 00000000000NCONT   00    00000000000          00000000000000000000000000000000000000000000 000000000000000A000000000000000000000000000000000000000000000 000000000000000000000000000000000000000     00000000                                                                                                                        000000000000000000
F0010000006964100002000001567030000041450500000000000000000201503260002001LUIS DIAZ Z. / PLASTIDIAZ                         C000000007000000000000000000000000100010010000000000000000000000F0010000006964100220150326000101 00000000000000000000000000000000000000000000000000000000000000000000000000000000000000000000000000000000000000000N 00000000000NCONT   00    00000000000          00000000000000000000000000000000000000000000 000000000000000A000000000000000000000000000000000000000000000 000000000000000000000000000000000000000     00000000                                                                                                                        000000000000000000
F0010000006964100003000001567030000042505000000000000000000201503260002001LUIS DIAZ Z. / PLASTIDIAZ                         C000000001000000000000000000000000100010010000000000000000000000F0010000006964100320150326000101 00000000000000000000000000000000000000000000000000000000000000000000000000000000000000000000000000000000000000000N 00000000000NCONT   00    00000000000          00000000000000000000000000000000000000000000 000000000000000A000000000000000000000000000000000000000000000 000000000000000000000000000000000000000     00000000                                                                                                                        000000000000000000
F0010000006964100004000001567030000023658300000000000000000201503260002001LUIS DIAZ Z. / PLASTIDIAZ                         C000000000056000000000000000000000100010010000000000000000000000F0010000006964100420150326000101 00000000000000000000000000000000000000000000000000000000000000000000000000000000000000000000000000000000000000000N 00000000000NCONT   00    00000000000          00000000000000000000000000000000000000000000 000000000000000A000000000000000000000000000000000000000000000 000000000000000000000000000000000000000     00000000                                                                                                                        000000000000000000
F0010000006964100005000001567030000013552100000000000000000201503260002001LUIS DIAZ Z. / PLASTIDIAZ                         D000000000056000000000000000000000100010010000000000000000000000F0010000006964100520150326000101 00000000000000000000000000000000000000000000000000000000000000000000000000000000000000000000000000000000000000000N 00000000000NCONT   00    00000000000          00000000000000000000000000000000000000000000 000000000000000A000000000000000000000000000000000000000000000 000000000000000000000000000000000000000     00000000                                                                                                                        000000000000000000
F0010000006964200001000090050144800011050500000000000000000201503260002001PLASTICOS JR ASOCIADOS SAS                        D000000003700000000000000000000000100010010000000000000000000000F0010000006964200120150326000101 00000000000000000000000000000000000000000000000000000000000000000000000000000000000000000000000000000000000000000N 00000000000NCONT   00    00000000000          00000000000000000000000000000000000000000000 000000000000000A000000000000000000000000000000000000000000000 000000000000000000000000000000000000000     00000000                                                                                                                        000000000000000000
F0010000006964200002000090050144800041450500000000000000000201503260002001PLASTICOS JR ASOCIADOS SAS                        C000000003400000000000000000000000100010010000000000000000000000F0010000006964200220150326000101 00000000000000000000000000000000000000000000000000000000000000000000000000000000000000000000000000000000000000000N 00000000000NCONT   00    00000000000          00000000000000000000000000000000000000000000 000000000000000A000000000000000000000000000000000000000000000 000000000000000000000000000000000000000     00000000                                                                                                                        000000000000000000
F0010000006964200003000090050144800042505000000000000000000201503260002001PLASTICOS JR ASOCIADOS SAS                        C000000000300000000000000000000000100010010000000000000000000000F0010000006964200320150326000101 00000000000000000000000000000000000000000000000000000000000000000000000000000000000000000000000000000000000000000N 00000000000NCONT   00    00000000000          00000000000000000000000000000000000000000000 000000000000000A000000000000000000000000000000000000000000000 000000000000000000000000000000000000000     00000000                                                                                                                        000000000000000000
F0010000006964200004000090050144800023658300000000000000000201503260002001PLASTICOS JR ASOCIADOS SAS                        C000000000027200000000000000000000100010010000000000000000000000F0010000006964200420150326000101 00000000000000000000000000000000000000000000000000000000000000000000000000000000000000000000000000000000000000000N 00000000000NCONT   00    00000000000          00000000000000000000000000000000000000000000 000000000000000A000000000000000000000000000000000000000000000 000000000000000000000000000000000000000     00000000                                                                                                                        000000000000000000
F0010000006964200005000090050144800013552100000000000000000201503260002001PLASTICOS JR ASOCIADOS SAS                        D000000000027200000000000000000000100010010000000000000000000000F0010000006964200520150326000101 00000000000000000000000000000000000000000000000000000000000000000000000000000000000000000000000000000000000000000N 00000000000NCONT   00    00000000000          00000000000000000000000000000000000000000000 000000000000000A000000000000000000000000000000000000000000000 000000000000000000000000000000000000000     00000000                                                                                                                        000000000000000000
F0010000006964300001000090050144800011050500000000000000000201503260002001PLASTICOS JR ASOCIADOS SAS                        D000000003180000000000000000000000100010010000000000000000000000F0010000006964300120150326000101 00000000000000000000000000000000000000000000000000000000000000000000000000000000000000000000000000000000000000000N 00000000000NCONT   00    00000000000          00000000000000000000000000000000000000000000 000000000000000A000000000000000000000000000000000000000000000 000000000000000000000000000000000000000     00000000                                                                                                                        000000000000000000
F0010000006964300002000090050144800041450500000000000000000201503260002001PLASTICOS JR ASOCIADOS SAS                        C000000002550000000000000000000000100010010000000000000000000000F0010000006964300220150326000101 00000000000000000000000000000000000000000000000000000000000000000000000000000000000000000000000000000000000000000N 00000000000NCONT   00    00000000000          00000000000000000000000000000000000000000000 000000000000000A000000000000000000000000000000000000000000000 000000000000000000000000000000000000000     00000000                                                                                                                        000000000000000000
F0010000006964300003000090050144800042505000000000000000000201503260002001PLASTICOS JR ASOCIADOS SAS                        C000000000630000000000000000000000100010010000000000000000000000F0010000006964300320150326000101 00000000000000000000000000000000000000000000000000000000000000000000000000000000000000000000000000000000000000000N 00000000000NCONT   00    00000000000          00000000000000000000000000000000000000000000 000000000000000A000000000000000000000000000000000000000000000 000000000000000000000000000000000000000     00000000                                                                                                                        000000000000000000
F0010000006964300004000090050144800023658300000000000000000201503260002001PLASTICOS JR ASOCIADOS SAS                        C000000000020400000000000000000000100010010000000000000000000000F0010000006964300420150326000101 00000000000000000000000000000000000000000000000000000000000000000000000000000000000000000000000000000000000000000N 00000000000NCONT   00    00000000000          00000000000000000000000000000000000000000000 000000000000000A000000000000000000000000000000000000000000000 000000000000000000000000000000000000000     00000000                                                                                                                        000000000000000000
F0010000006964300005000090050144800013552100000000000000000201503260002001PLASTICOS JR ASOCIADOS SAS                        D000000000020400000000000000000000100010010000000000000000000000F0010000006964300520150326000101 00000000000000000000000000000000000000000000000000000000000000000000000000000000000000000000000000000000000000000N 00000000000NCONT   00    00000000000          00000000000000000000000000000000000000000000 000000000000000A000000000000000000000000000000000000000000000 000000000000000000000000000000000000000     00000000                                                                                                                        000000000000000000
F0010000006964400001000001384491600011050500000000000000000201503260002001JORGE HERIBERTO FERREIRA LOZANO FERRETERIA EMANUELD000000003300000000000000000000000100010010000000000000000000000F0010000006964400120150326000101 00000000000000000000000000000000000000000000000000000000000000000000000000000000000000000000000000000000000000000N 00000000000NCONT   00    00000000000          00000000000000000000000000000000000000000000 000000000000000A000000000000000000000000000000000000000000000 000000000000000000000000000000000000000     00000000                                                                                                                        000000000000000000
F0010000006964400002000001384491600041450500000000000000000201503260002001JORGE HERIBERTO FERREIRA LOZANO FERRETERIA EMANUELC000000002600000000000000000000000100010010000000000000000000000F0010000006964400220150326000101 00000000000000000000000000000000000000000000000000000000000000000000000000000000000000000000000000000000000000000N 00000000000NCONT   00    00000000000          00000000000000000000000000000000000000000000 000000000000000A000000000000000000000000000000000000000000000 000000000000000000000000000000000000000     00000000                                                                                                                        000000000000000000
