F0010000009396500001000000376399500013050500000000000000000201611110002001FORDPLAST                                         D000000008510000000000000000000000100010010000000000000000000000F0019396500120161111000101 00000000000000000000000000000000000000000000000000000000000000000000000000000000000000000000000000000000000000000N 00000000000NCONT   00    00000000000          00000000000000000000000000000000000000000000 000000000000000A000000000000000000000000000000000000000000000 000000000000000000000000000000000000000     00000000                                                                                                                        000000000000000000
F0010000009396500002000000376399500041450500000000000000000201611110002001FORDPLAST                                         C000000006260000000000000000000000100010010000000000000000000000F0019396500220161111000101 00000000000000000000000000000000000000000000000000000000000000000000000000000000000000000000000000000000000000000N 00000000000NCONT   00    00000000000          00000000000000000000000000000000000000000000 000000000000000A000000000000000000000000000000000000000000000 000000000000000000000000000000000000000     00000000                                                                                                                        000000000000000000
F0010000009396500003000000376399500042505000000000000000000201611110002001FORDPLAST                                         C000000002250000000000000000000000100010010000000000000000000000F0019396500320161111000101 00000000000000000000000000000000000000000000000000000000000000000000000000000000000000000000000000000000000000000N 00000000000NCONT   00    00000000000          00000000000000000000000000000000000000000000 000000000000000A000000000000000000000000000000000000000000000 000000000000000000000000000000000000000     00000000                                                                                                                        000000000000000000
F0010000009396500004000000376399500023658300000000000000000201611110002001FORDPLAST                                         C000000000050100000000000000000000100010010000000000000000000000F0019396500420161111000101 00000000000000000000000000000000000000000000000000000000000000000000000000000000000000000000000000000000000000000N 00000000000NCONT   00    00000000000          00000000000000000000000000000000000000000000 000000000000000A000000000000000000000000000000000000000000000 000000000000000000000000000000000000000     00000000                                                                                                                        000000000000000000
F0010000009396500005000000376399500013552100000000000000000201611110002001FORDPLAST                                         D000000000050100000000000000000000100010010000000000000000000000F0019396500520161111000101 00000000000000000000000000000000000000000000000000000000000000000000000000000000000000000000000000000000000000000N 00000000000NCONT   00    00000000000          00000000000000000000000000000000000000000000 000000000000000A000000000000000000000000000000000000000000000 000000000000000000000000000000000000000     00000000                                                                                                                        000000000000000000
F0010000009396600001000000871714900013050500000000000000000201611110002001ROLNAN DE LA ROSA  INSIGNARES                     D000000018242400000000000000000000100010010000000000000000000000F0019396600120161111000101 00000000000000000000000000000000000000000000000000000000000000000000000000000000000000000000000000000000000000000N 00000000000NCONT   00    00000000000          00000000000000000000000000000000000000000000 000000000000000A000000000000000000000000000000000000000000000 000000000000000000000000000000000000000     00000000                                                                                                                        000000000000000000
F0010000009396600002000000871714900041450500000000000000000201611110002001ROLNAN DE LA ROSA  INSIGNARES                     C000000015940200000000000000000000100010010000000000000000000000F0019396600220161111000101 00000000000000000000000000000000000000000000000000000000000000000000000000000000000000000000000000000000000000000N 00000000000NCONT   00    00000000000          00000000000000000000000000000000000000000000 000000000000000A000000000000000000000000000000000000000000000 000000000000000000000000000000000000000     00000000                                                                                                                        000000000000000000
F0010000009396600003000000871714900042505000000000000000000201611110002001ROLNAN DE LA ROSA  INSIGNARES                     C000000002302200000000000000000000100010010000000000000000000000F0019396600320161111000101 00000000000000000000000000000000000000000000000000000000000000000000000000000000000000000000000000000000000000000N 00000000000NCONT   00    00000000000          00000000000000000000000000000000000000000000 000000000000000A000000000000000000000000000000000000000000000 000000000000000000000000000000000000000     00000000                                                                                                                        000000000000000000
F0010000009396600004000000871714900023658300000000000000000201611110002001ROLNAN DE LA ROSA  INSIGNARES                     C000000000127500000000000000000000100010010000000000000000000000F0019396600420161111000101 00000000000000000000000000000000000000000000000000000000000000000000000000000000000000000000000000000000000000000N 00000000000NCONT   00    00000000000          00000000000000000000000000000000000000000000 000000000000000A000000000000000000000000000000000000000000000 000000000000000000000000000000000000000     00000000                                                                                                                        000000000000000000
F0010000009396600005000000871714900013552100000000000000000201611110002001ROLNAN DE LA ROSA  INSIGNARES                     D000000000127500000000000000000000100010010000000000000000000000F0019396600520161111000101 00000000000000000000000000000000000000000000000000000000000000000000000000000000000000000000000000000000000000000N 00000000000NCONT   00    00000000000          00000000000000000000000000000000000000000000 000000000000000A000000000000000000000000000000000000000000000 000000000000000000000000000000000000000     00000000                                                                                                                        000000000000000000
F0010000009396700001000002245670100013050500000000000000000201611110002001YOLANDA  TOBON                                    D000000028451100000000000000000000100010010000000000000000000000F0019396700120161111000101 00000000000000000000000000000000000000000000000000000000000000000000000000000000000000000000000000000000000000000N 00000000000NCONT   00    00000000000          00000000000000000000000000000000000000000000 000000000000000A000000000000000000000000000000000000000000000 000000000000000000000000000000000000000     00000000                                                                                                                        000000000000000000
F0010000009396700002000002245670100041450500000000000000000201611110002001YOLANDA  TOBON                                    C000000021600000000000000000000000100010010000000000000000000000F0019396700220161111000101 00000000000000000000000000000000000000000000000000000000000000000000000000000000000000000000000000000000000000000N 00000000000NCONT   00    00000000000          00000000000000000000000000000000000000000000 000000000000000A000000000000000000000000000000000000000000000 000000000000000000000000000000000000000     00000000                                                                                                                        000000000000000000
F0010000009396700003000002245670100042505000000000000000000201611110002001YOLANDA  TOBON                                    C000000006851100000000000000000000100010010000000000000000000000F0019396700320161111000101 00000000000000000000000000000000000000000000000000000000000000000000000000000000000000000000000000000000000000000N 00000000000NCONT   00    00000000000          00000000000000000000000000000000000000000000 000000000000000A000000000000000000000000000000000000000000000 000000000000000000000000000000000000000     00000000                                                                                                                        000000000000000000
F0010000009396700004000002245670100023658300000000000000000201611110002001YOLANDA  TOBON                                    C000000000172800000000000000000000100010010000000000000000000000F0019396700420161111000101 00000000000000000000000000000000000000000000000000000000000000000000000000000000000000000000000000000000000000000N 00000000000NCONT   00    00000000000          00000000000000000000000000000000000000000000 000000000000000A000000000000000000000000000000000000000000000 000000000000000000000000000000000000000     00000000                                                                                                                        000000000000000000
F0010000009396700005000002245670100013552100000000000000000201611110002001YOLANDA  TOBON                                    D000000000172800000000000000000000100010010000000000000000000000F0019396700520161111000101 00000000000000000000000000000000000000000000000000000000000000000000000000000000000000000000000000000000000000000N 00000000000NCONT   00    00000000000          00000000000000000000000000000000000000000000 000000000000000A000000000000000000000000000000000000000000000 000000000000000000000000000000000000000     00000000                                                                                                                        000000000000000000
F0010000009396800001000089010952800013050500000000000000000201611110002001IND. LITOGRAF. BOSTON S.A.S.                      D000000068148000000000000000000000100010010000000000000000000000F0019396800120161111000101 00000000000000000000000000000000000000000000000000000000000000000000000000000000000000000000000000000000000000000N 00000000000NCONT   00    00000000000          00000000000000000000000000000000000000000000 000000000000000A000000000000000000000000000000000000000000000 000000000000000000000000000000000000000     00000000                                                                                                                        000000000000000000
F0010000009396800002000089010952800041450500000000000000000201611110002001IND. LITOGRAF. BOSTON S.A.S.                      C000000059798000000000000000000000100010010000000000000000000000F0019396800220161111000101 00000000000000000000000000000000000000000000000000000000000000000000000000000000000000000000000000000000000000000N 00000000000NCONT   00    00000000000          00000000000000000000000000000000000000000000 000000000000000A000000000000000000000000000000000000000000000 000000000000000000000000000000000000000     00000000                                                                                                                        000000000000000000
F0010000009396800003000089010952800042505000000000000000000201611110002001IND. LITOGRAF. BOSTON S.A.S.                      C000000008350000000000000000000000100010010000000000000000000000F0019396800320161111000101 00000000000000000000000000000000000000000000000000000000000000000000000000000000000000000000000000000000000000000N 00000000000NCONT   00    00000000000          00000000000000000000000000000000000000000000 000000000000000A000000000000000000000000000000000000000000000 000000000000000000000000000000000000000     00000000                                                                                                                        000000000000000000
F0010000009396800004000089010952800023658300000000000000000201611110002001IND. LITOGRAF. BOSTON S.A.S.                      C000000000478400000000000000000000100010010000000000000000000000F0019396800420161111000101 00000000000000000000000000000000000000000000000000000000000000000000000000000000000000000000000000000000000000000N 00000000000NCONT   00    00000000000          00000000000000000000000000000000000000000000 000000000000000A000000000000000000000000000000000000000000000 000000000000000000000000000000000000000     00000000                                                                                                                        000000000000000000
F0010000009396800005000089010952800013552100000000000000000201611110002001IND. LITOGRAF. BOSTON S.A.S.                      D000000000478400000000000000000000100010010000000000000000000000F0019396800520161111000101 00000000000000000000000000000000000000000000000000000000000000000000000000000000000000000000000000000000000000000N 00000000000NCONT   00    00000000000          00000000000000000000000000000000000000000000 000000000000000A000000000000000000000000000000000000000000000 000000000000000000000000000000000000000     00000000                                                                                                                        000000000000000000
F0010000009396900001000080201703900013050500000000000000000201611110002001MUNDIAL CHEMICAL LTDA                             D000000008445300000000000000000000100010010000000000000000000000F0019396900120161111000101 00000000000000000000000000000000000000000000000000000000000000000000000000000000000000000000000000000000000000000N 00000000000NCONT   00    00000000000          00000000000000000000000000000000000000000000 000000000000000A000000000000000000000000000000000000000000000 000000000000000000000000000000000000000     00000000                                                                                                                        000000000000000000
F0010000009396900002000080201703900041450500000000000000000201611110002001MUNDIAL CHEMICAL LTDA                             C000000006506500000000000000000000100010010000000000000000000000F0019396900220161111000101 00000000000000000000000000000000000000000000000000000000000000000000000000000000000000000000000000000000000000000N 00000000000NCONT   00    00000000000          00000000000000000000000000000000000000000000 000000000000000A000000000000000000000000000000000000000000000 000000000000000000000000000000000000000     00000000                                                                                                                        000000000000000000
F0010000009396900003000080201703900042505000000000000000000201611110002001MUNDIAL CHEMICAL LTDA                             C000000001938800000000000000000000100010010000000000000000000000F0019396900320161111000101 00000000000000000000000000000000000000000000000000000000000000000000000000000000000000000000000000000000000000000N 00000000000NCONT   00    00000000000          00000000000000000000000000000000000000000000 000000000000000A000000000000000000000000000000000000000000000 000000000000000000000000000000000000000     00000000                                                                                                                        000000000000000000
F0010000009396900004000080201703900023658300000000000000000201611110002001MUNDIAL CHEMICAL LTDA                             C000000000052100000000000000000000100010010000000000000000000000F0019396900420161111000101 00000000000000000000000000000000000000000000000000000000000000000000000000000000000000000000000000000000000000000N 00000000000NCONT   00    00000000000          00000000000000000000000000000000000000000000 000000000000000A000000000000000000000000000000000000000000000 000000000000000000000000000000000000000     00000000                                                                                                                        000000000000000000
F0010000009396900005000080201703900013552100000000000000000201611110002001MUNDIAL CHEMICAL LTDA                             D000000000052100000000000000000000100010010000000000000000000000F0019396900520161111000101 00000000000000000000000000000000000000000000000000000000000000000000000000000000000000000000000000000000000000000N 00000000000NCONT   00    00000000000          00000000000000000000000000000000000000000000 000000000000000A000000000000000000000000000000000000000000000 000000000000000000000000000000000000000     00000000                                                                                                                        000000000000000000
F0010000009397000001000080022903500013050500000000000000000201611110002001TECNOGLASS S.A                                    D000000020159500000000000000000000100010010000000000000000000000F0019397000120161111000101 00000000000000000000000000000000000000000000000000000000000000000000000000000000000000000000000000000000000000000N 00000000000NCONT   00    00000000000          00000000000000000000000000000000000000000000 000000000000000A000000000000000000000000000000000000000000000 000000000000000000000000000000000000000     00000000                                                                                                                        000000000000000000
F0010000009397000002000080022903500041450500000000000000000201611110002001TECNOGLASS S.A                                    C000000018100000000000000000000000100010010000000000000000000000F0019397000220161111000101 00000000000000000000000000000000000000000000000000000000000000000000000000000000000000000000000000000000000000000N 00000000000NCONT   00    00000000000          00000000000000000000000000000000000000000000 000000000000000A000000000000000000000000000000000000000000000 000000000000000000000000000000000000000     00000000                                                                                                                        000000000000000000
F0010000009397000003000080022903500042505000000000000000000201611110002001TECNOGLASS S.A                                    C000000002059500000000000000000000100010010000000000000000000000F0019397000320161111000101 00000000000000000000000000000000000000000000000000000000000000000000000000000000000000000000000000000000000000000N 00000000000NCONT   00    00000000000          00000000000000000000000000000000000000000000 000000000000000A000000000000000000000000000000000000000000000 000000000000000000000000000000000000000     00000000                                                                                                                        000000000000000000
F0010000009397000004000080022903500023658300000000000000000201611110002001TECNOGLASS S.A                                    C000000000144800000000000000000000100010010000000000000000000000F0019397000420161111000101 00000000000000000000000000000000000000000000000000000000000000000000000000000000000000000000000000000000000000000N 00000000000NCONT   00    00000000000          00000000000000000000000000000000000000000000 000000000000000A000000000000000000000000000000000000000000000 000000000000000000000000000000000000000     00000000                                                                                                                        000000000000000000
F0010000009397000005000080022903500013552100000000000000000201611110002001TECNOGLASS S.A                                    D000000000144800000000000000000000100010010000000000000000000000F0019397000520161111000101 00000000000000000000000000000000000000000000000000000000000000000000000000000000000000000000000000000000000000000N 00000000000NCONT   00    00000000000          00000000000000000000000000000000000000000000 000000000000000A000000000000000000000000000000000000000000000 000000000000000000000000000000000000000     00000000                                                                                                                        000000000000000000
F0010000009397100001000000748239700013050500000000000000000201611110002001RAFAEL NAVARRO URIBE                              D000000080813300000000000000000000100010010000000000000000000000F0019397100120161111000101 00000000000000000000000000000000000000000000000000000000000000000000000000000000000000000000000000000000000000000N 00000000000NCONT   00    00000000000          00000000000000000000000000000000000000000000 000000000000000A000000000000000000000000000000000000000000000 000000000000000000000000000000000000000     00000000                                                                                                                        000000000000000000
F0010000009397100002000000748239700041450500000000000000000201611110002001RAFAEL NAVARRO URIBE                              C000000056690000000000000000000000100010010000000000000000000000F0019397100220161111000101 00000000000000000000000000000000000000000000000000000000000000000000000000000000000000000000000000000000000000000N 00000000000NCONT   00    00000000000          00000000000000000000000000000000000000000000 000000000000000A000000000000000000000000000000000000000000000 000000000000000000000000000000000000000     00000000                                                                                                                        000000000000000000
F0010000009397100003000000748239700042505000000000000000000201611110002001RAFAEL NAVARRO URIBE                              C000000024123300000000000000000000100010010000000000000000000000F0019397100320161111000101 00000000000000000000000000000000000000000000000000000000000000000000000000000000000000000000000000000000000000000N 00000000000NCONT   00    00000000000          00000000000000000000000000000000000000000000 000000000000000A000000000000000000000000000000000000000000000 000000000000000000000000000000000000000     00000000                                                                                                                        000000000000000000
F0010000009397100004000000748239700023658300000000000000000201611110002001RAFAEL NAVARRO URIBE                              C000000000453500000000000000000000100010010000000000000000000000F0019397100420161111000101 00000000000000000000000000000000000000000000000000000000000000000000000000000000000000000000000000000000000000000N 00000000000NCONT   00    00000000000          00000000000000000000000000000000000000000000 000000000000000A000000000000000000000000000000000000000000000 000000000000000000000000000000000000000     00000000                                                                                                                        000000000000000000
F0010000009397100005000000748239700013552100000000000000000201611110002001RAFAEL NAVARRO URIBE                              D000000000453500000000000000000000100010010000000000000000000000F0019397100520161111000101 00000000000000000000000000000000000000000000000000000000000000000000000000000000000000000000000000000000000000000N 00000000000NCONT   00    00000000000          00000000000000000000000000000000000000000000 000000000000000A000000000000000000000000000000000000000000000 000000000000000000000000000000000000000     00000000                                                                                                                        000000000000000000
F0010000009397300001000083011391400013050500000000000000000201611110002001INSTITUCIONAL STAR SERVICES LTDA                  D000000005640000000000000000000000100010010000000000000000000000F0019397300120161111000101 00000000000000000000000000000000000000000000000000000000000000000000000000000000000000000000000000000000000000000N 00000000000NCONT   00    00000000000          00000000000000000000000000000000000000000000 000000000000000A000000000000000000000000000000000000000000000 000000000000000000000000000000000000000     00000000                                                                                                                        000000000000000000
F0010000009397300002000083011391400041450500000000000000000201611110002001INSTITUCIONAL STAR SERVICES LTDA                  C000000004840000000000000000000000100010010000000000000000000000F0019397300220161111000101 00000000000000000000000000000000000000000000000000000000000000000000000000000000000000000000000000000000000000000N 00000000000NCONT   00    00000000000          00000000000000000000000000000000000000000000 000000000000000A000000000000000000000000000000000000000000000 000000000000000000000000000000000000000     00000000                                                                                                                        000000000000000000
F0010000009397300003000083011391400042505000000000000000000201611110002001INSTITUCIONAL STAR SERVICES LTDA                  C000000000800000000000000000000000100010010000000000000000000000F0019397300320161111000101 00000000000000000000000000000000000000000000000000000000000000000000000000000000000000000000000000000000000000000N 00000000000NCONT   00    00000000000          00000000000000000000000000000000000000000000 000000000000000A000000000000000000000000000000000000000000000 000000000000000000000000000000000000000     00000000                                                                                                                        000000000000000000
F0010000009397300004000083011391400023658300000000000000000201611110002001INSTITUCIONAL STAR SERVICES LTDA                  C000000000038700000000000000000000100010010000000000000000000000F0019397300420161111000101 00000000000000000000000000000000000000000000000000000000000000000000000000000000000000000000000000000000000000000N 00000000000NCONT   00    00000000000          00000000000000000000000000000000000000000000 000000000000000A000000000000000000000000000000000000000000000 000000000000000000000000000000000000000     00000000                                                                                                                        000000000000000000
F0010000009397300005000083011391400013552100000000000000000201611110002001INSTITUCIONAL STAR SERVICES LTDA                  D000000000038700000000000000000000100010010000000000000000000000F0019397300520161111000101 00000000000000000000000000000000000000000000000000000000000000000000000000000000000000000000000000000000000000000N 00000000000NCONT   00    00000000000          00000000000000000000000000000000000000000000 000000000000000A000000000000000000000000000000000000000000000 000000000000000000000000000000000000000     00000000                                                                                                                        000000000000000000
F0010000009397400001000089010526900013050500000000000000000201611110002001DISTRIBUCIONES CANAL Y CIA S.A.S                  D000000004265200000000000000000000100010010000000000000000000000F0019397400120161111000101 00000000000000000000000000000000000000000000000000000000000000000000000000000000000000000000000000000000000000000N 00000000000NCONT   00    00000000000          00000000000000000000000000000000000000000000 000000000000000A000000000000000000000000000000000000000000000 000000000000000000000000000000000000000     00000000                                                                                                                        000000000000000000
F0010000009397400002000089010526900041450500000000000000000201611110002001DISTRIBUCIONES CANAL Y CIA S.A.S                  C000000003060000000000000000000000100010010000000000000000000000F0019397400220161111000101 00000000000000000000000000000000000000000000000000000000000000000000000000000000000000000000000000000000000000000N 00000000000NCONT   00    00000000000          00000000000000000000000000000000000000000000 000000000000000A000000000000000000000000000000000000000000000 000000000000000000000000000000000000000     00000000                                                                                                                        000000000000000000
F0010000009397400003000089010526900042505000000000000000000201611110002001DISTRIBUCIONES CANAL Y CIA S.A.S                  C000000001205200000000000000000000100010010000000000000000000000F0019397400320161111000101 00000000000000000000000000000000000000000000000000000000000000000000000000000000000000000000000000000000000000000N 00000000000NCONT   00    00000000000          00000000000000000000000000000000000000000000 000000000000000A000000000000000000000000000000000000000000000 000000000000000000000000000000000000000     00000000                                                                                                                        000000000000000000
F0010000009397400004000089010526900023658300000000000000000201611110002001DISTRIBUCIONES CANAL Y CIA S.A.S                  C000000000024500000000000000000000100010010000000000000000000000F0019397400420161111000101 00000000000000000000000000000000000000000000000000000000000000000000000000000000000000000000000000000000000000000N 00000000000NCONT   00    00000000000          00000000000000000000000000000000000000000000 000000000000000A000000000000000000000000000000000000000000000 000000000000000000000000000000000000000     00000000                                                                                                                        000000000000000000
F0010000009397400005000089010526900013552100000000000000000201611110002001DISTRIBUCIONES CANAL Y CIA S.A.S                  D000000000024500000000000000000000100010010000000000000000000000F0019397400520161111000101 00000000000000000000000000000000000000000000000000000000000000000000000000000000000000000000000000000000000000000N 00000000000NCONT   00    00000000000          00000000000000000000000000000000000000000000 000000000000000A000000000000000000000000000000000000000000000 000000000000000000000000000000000000000     00000000                                                                                                                        000000000000000000
F0010000009397500001000090052543100013050500000000000000000201611110002001SECRET COLOR SAS                                  D000000042600000000000000000000000100010010000000000000000000000F0019397500120161111000101 00000000000000000000000000000000000000000000000000000000000000000000000000000000000000000000000000000000000000000N 00000000000NCONT   00    00000000000          00000000000000000000000000000000000000000000 000000000000000A000000000000000000000000000000000000000000000 000000000000000000000000000000000000000     00000000                                                                                                                        000000000000000000
F0010000009397500002000090052543100041450500000000000000000201611110002001SECRET COLOR SAS                                  C000000042600000000000000000000000100010010000000000000000000000F0019397500220161111000101 00000000000000000000000000000000000000000000000000000000000000000000000000000000000000000000000000000000000000000N 00000000000NCONT   00    00000000000          00000000000000000000000000000000000000000000 000000000000000A000000000000000000000000000000000000000000000 000000000000000000000000000000000000000     00000000                                                                                                                        000000000000000000
F0010000009397500003000090052543100042505000000000000000000201611110002001SECRET COLOR SAS                                  C000000000000000000000000000000000100010010000000000000000000000F0019397500320161111000101 00000000000000000000000000000000000000000000000000000000000000000000000000000000000000000000000000000000000000000N 00000000000NCONT   00    00000000000          00000000000000000000000000000000000000000000 000000000000000A000000000000000000000000000000000000000000000 000000000000000000000000000000000000000     00000000                                                                                                                        000000000000000000
F0010000009397500004000090052543100023658300000000000000000201611110002001SECRET COLOR SAS                                  C000000000340800000000000000000000100010010000000000000000000000F0019397500420161111000101 00000000000000000000000000000000000000000000000000000000000000000000000000000000000000000000000000000000000000000N 00000000000NCONT   00    00000000000          00000000000000000000000000000000000000000000 000000000000000A000000000000000000000000000000000000000000000 000000000000000000000000000000000000000     00000000                                                                                                                        000000000000000000
F0010000009397500005000090052543100013552100000000000000000201611110002001SECRET COLOR SAS                                  D000000000340800000000000000000000100010010000000000000000000000F0019397500520161111000101 00000000000000000000000000000000000000000000000000000000000000000000000000000000000000000000000000000000000000000N 00000000000NCONT   00    00000000000          00000000000000000000000000000000000000000000 000000000000000A000000000000000000000000000000000000000000000 000000000000000000000000000000000000000     00000000                                                                                                                        000000000000000000
F0010000009397600001000090052543100013050500000000000000000201611110002001SECRET COLOR SAS                                  D000000017370000000000000000000000100010010000000000000000000000F0019397600120161111000101 00000000000000000000000000000000000000000000000000000000000000000000000000000000000000000000000000000000000000000N 00000000000NCONT   00    00000000000          00000000000000000000000000000000000000000000 000000000000000A000000000000000000000000000000000000000000000 000000000000000000000000000000000000000     00000000                                                                                                                        000000000000000000
F0010000009397600002000090052543100041450500000000000000000201611110002001SECRET COLOR SAS                                  C000000017370000000000000000000000100010010000000000000000000000F0019397600220161111000101 00000000000000000000000000000000000000000000000000000000000000000000000000000000000000000000000000000000000000000N 00000000000NCONT   00    00000000000          00000000000000000000000000000000000000000000 000000000000000A000000000000000000000000000000000000000000000 000000000000000000000000000000000000000     00000000                                                                                                                        000000000000000000
F0010000009397600003000090052543100042505000000000000000000201611110002001SECRET COLOR SAS                                  C000000000000000000000000000000000100010010000000000000000000000F0019397600320161111000101 00000000000000000000000000000000000000000000000000000000000000000000000000000000000000000000000000000000000000000N 00000000000NCONT   00    00000000000          00000000000000000000000000000000000000000000 000000000000000A000000000000000000000000000000000000000000000 000000000000000000000000000000000000000     00000000                                                                                                                        000000000000000000
F0010000009397600004000090052543100023658300000000000000000201611110002001SECRET COLOR SAS                                  C000000000139000000000000000000000100010010000000000000000000000F0019397600420161111000101 00000000000000000000000000000000000000000000000000000000000000000000000000000000000000000000000000000000000000000N 00000000000NCONT   00    00000000000          00000000000000000000000000000000000000000000 000000000000000A000000000000000000000000000000000000000000000 000000000000000000000000000000000000000     00000000                                                                                                                        000000000000000000
F0010000009397600005000090052543100013552100000000000000000201611110002001SECRET COLOR SAS                                  D000000000139000000000000000000000100010010000000000000000000000F0019397600520161111000101 00000000000000000000000000000000000000000000000000000000000000000000000000000000000000000000000000000000000000000N 00000000000NCONT   00    00000000000          00000000000000000000000000000000000000000000 000000000000000A000000000000000000000000000000000000000000000 000000000000000000000000000000000000000     00000000                                                                                                                        000000000000000000
F0010000009397700001000090060531100013050500000000000000000201611110002001RECUBRIMIENTOS ESENCIALES SAS                     D000000094520000000000000000000000100010010000000000000000000000F0019397700120161111000101 00000000000000000000000000000000000000000000000000000000000000000000000000000000000000000000000000000000000000000N 00000000000NCONT   00    00000000000          00000000000000000000000000000000000000000000 000000000000000A000000000000000000000000000000000000000000000 000000000000000000000000000000000000000     00000000                                                                                                                        000000000000000000
F0010000009397700002000090060531100041450500000000000000000201611110002001RECUBRIMIENTOS ESENCIALES SAS                     C000000087270000000000000000000000100010010000000000000000000000F0019397700220161111000101 00000000000000000000000000000000000000000000000000000000000000000000000000000000000000000000000000000000000000000N 00000000000NCONT   00    00000000000          00000000000000000000000000000000000000000000 000000000000000A000000000000000000000000000000000000000000000 000000000000000000000000000000000000000     00000000                                                                                                                        000000000000000000
F0010000009397700003000090060531100042505000000000000000000201611110002001RECUBRIMIENTOS ESENCIALES SAS                     C000000007250000000000000000000000100010010000000000000000000000F0019397700320161111000101 00000000000000000000000000000000000000000000000000000000000000000000000000000000000000000000000000000000000000000N 00000000000NCONT   00    00000000000          00000000000000000000000000000000000000000000 000000000000000A000000000000000000000000000000000000000000000 000000000000000000000000000000000000000     00000000                                                                                                                        000000000000000000
F0010000009397700004000090060531100023658300000000000000000201611110002001RECUBRIMIENTOS ESENCIALES SAS                     C000000000698200000000000000000000100010010000000000000000000000F0019397700420161111000101 00000000000000000000000000000000000000000000000000000000000000000000000000000000000000000000000000000000000000000N 00000000000NCONT   00    00000000000          00000000000000000000000000000000000000000000 000000000000000A000000000000000000000000000000000000000000000 000000000000000000000000000000000000000     00000000                                                                                                                        000000000000000000
F0010000009397700005000090060531100013552100000000000000000201611110002001RECUBRIMIENTOS ESENCIALES SAS                     D000000000698200000000000000000000100010010000000000000000000000F0019397700520161111000101 00000000000000000000000000000000000000000000000000000000000000000000000000000000000000000000000000000000000000000N 00000000000NCONT   00    00000000000          00000000000000000000000000000000000000000000 000000000000000A000000000000000000000000000000000000000000000 000000000000000000000000000000000000000     00000000                                                                                                                        000000000000000000
F0010000009397800001000080016664500013050500000000000000000201611110002001TELAPLAS PANCER SAS                               D000000072674000000000000000000000100010010000000000000000000000F0019397800120161111000101 00000000000000000000000000000000000000000000000000000000000000000000000000000000000000000000000000000000000000000N 00000000000NCONT   00    00000000000          00000000000000000000000000000000000000000000 000000000000000A000000000000000000000000000000000000000000000 000000000000000000000000000000000000000     00000000                                                                                                                        000000000000000000
F0010000009397800002000080016664500041450500000000000000000201611110002001TELAPLAS PANCER SAS                               C000000060490000000000000000000000100010010000000000000000000000F0019397800220161111000101 00000000000000000000000000000000000000000000000000000000000000000000000000000000000000000000000000000000000000000N 00000000000NCONT   00    00000000000          00000000000000000000000000000000000000000000 000000000000000A000000000000000000000000000000000000000000000 000000000000000000000000000000000000000     00000000                                                                                                                        000000000000000000
F0010000009397800003000080016664500042505000000000000000000201611110002001TELAPLAS PANCER SAS                               C000000012184000000000000000000000100010010000000000000000000000F0019397800320161111000101 00000000000000000000000000000000000000000000000000000000000000000000000000000000000000000000000000000000000000000N 00000000000NCONT   00    00000000000          00000000000000000000000000000000000000000000 000000000000000A000000000000000000000000000000000000000000000 000000000000000000000000000000000000000     00000000                                                                                                                        000000000000000000
F0010000009397800004000080016664500023658300000000000000000201611110002001TELAPLAS PANCER SAS                               C000000000483900000000000000000000100010010000000000000000000000F0019397800420161111000101 00000000000000000000000000000000000000000000000000000000000000000000000000000000000000000000000000000000000000000N 00000000000NCONT   00    00000000000          00000000000000000000000000000000000000000000 000000000000000A000000000000000000000000000000000000000000000 000000000000000000000000000000000000000     00000000                                                                                                                        000000000000000000
F0010000009397800005000080016664500013552100000000000000000201611110002001TELAPLAS PANCER SAS                               D000000000483900000000000000000000100010010000000000000000000000F0019397800520161111000101 00000000000000000000000000000000000000000000000000000000000000000000000000000000000000000000000000000000000000000N 00000000000NCONT   00    00000000000          00000000000000000000000000000000000000000000 000000000000000A000000000000000000000000000000000000000000000 000000000000000000000000000000000000000     00000000                                                                                                                        000000000000000000
F0010000009397900001000090048173700013050500000000000000000201611110002001ESPECIALIDADES QUIMICAS DEL NORTE SAS             D000000002230000000000000000000000100010010000000000000000000000F0019397900120161111000101 00000000000000000000000000000000000000000000000000000000000000000000000000000000000000000000000000000000000000000N 00000000000NCONT   00    00000000000          00000000000000000000000000000000000000000000 000000000000000A000000000000000000000000000000000000000000000 000000000000000000000000000000000000000     00000000                                                                                                                        000000000000000000
F0010000009397900002000090048173700041450500000000000000000201611110002001ESPECIALIDADES QUIMICAS DEL NORTE SAS             C000000002030000000000000000000000100010010000000000000000000000F0019397900220161111000101 00000000000000000000000000000000000000000000000000000000000000000000000000000000000000000000000000000000000000000N 00000000000NCONT   00    00000000000          00000000000000000000000000000000000000000000 000000000000000A000000000000000000000000000000000000000000000 000000000000000000000000000000000000000     00000000                                                                                                                        000000000000000000
F0010000009397900003000090048173700042505000000000000000000201611110002001ESPECIALIDADES QUIMICAS DEL NORTE SAS             C000000000200000000000000000000000100010010000000000000000000000F0019397900320161111000101 00000000000000000000000000000000000000000000000000000000000000000000000000000000000000000000000000000000000000000N 00000000000NCONT   00    00000000000          00000000000000000000000000000000000000000000 000000000000000A000000000000000000000000000000000000000000000 000000000000000000000000000000000000000     00000000                                                                                                                        000000000000000000
F0010000009397900004000090048173700023658300000000000000000201611110002001ESPECIALIDADES QUIMICAS DEL NORTE SAS             C000000000016200000000000000000000100010010000000000000000000000F0019397900420161111000101 00000000000000000000000000000000000000000000000000000000000000000000000000000000000000000000000000000000000000000N 00000000000NCONT   00    00000000000          00000000000000000000000000000000000000000000 000000000000000A000000000000000000000000000000000000000000000 000000000000000000000000000000000000000     00000000                                                                                                                        000000000000000000
F0010000009397900005000090048173700013552100000000000000000201611110002001ESPECIALIDADES QUIMICAS DEL NORTE SAS             D000000000016200000000000000000000100010010000000000000000000000F0019397900520161111000101 00000000000000000000000000000000000000000000000000000000000000000000000000000000000000000000000000000000000000000N 00000000000NCONT   00    00000000000          00000000000000000000000000000000000000000000 000000000000000A000000000000000000000000000000000000000000000 000000000000000000000000000000000000000     00000000                                                                                                                        000000000000000000
F0010000009398000001000080201127600013050500000000000000000201611110002001ELECTRICOS DEL RUIZ S.A.S.                        D000000106833700000000000000000000100010010000000000000000000000F0019398000120161111000101 00000000000000000000000000000000000000000000000000000000000000000000000000000000000000000000000000000000000000000N 00000000000NCONT   00    00000000000          00000000000000000000000000000000000000000000 000000000000000A000000000000000000000000000000000000000000000 000000000000000000000000000000000000000     00000000                                                                                                                        000000000000000000
F0010000009398000002000080201127600041450500000000000000000201611110002001ELECTRICOS DEL RUIZ S.A.S.                        C000000084410000000000000000000000100010010000000000000000000000F0019398000220161111000101 00000000000000000000000000000000000000000000000000000000000000000000000000000000000000000000000000000000000000000N 00000000000NCONT   00    00000000000          00000000000000000000000000000000000000000000 000000000000000A000000000000000000000000000000000000000000000 000000000000000000000000000000000000000     00000000                                                                                                                        000000000000000000
F0010000009398000003000080201127600042505000000000000000000201611110002001ELECTRICOS DEL RUIZ S.A.S.                        C000000022423700000000000000000000100010010000000000000000000000F0019398000320161111000101 00000000000000000000000000000000000000000000000000000000000000000000000000000000000000000000000000000000000000000N 00000000000NCONT   00    00000000000          00000000000000000000000000000000000000000000 000000000000000A000000000000000000000000000000000000000000000 000000000000000000000000000000000000000     00000000                                                                                                                        000000000000000000
F0010000009398000004000080201127600023658300000000000000000201611110002001ELECTRICOS DEL RUIZ S.A.S.                        C000000000675300000000000000000000100010010000000000000000000000F0019398000420161111000101 00000000000000000000000000000000000000000000000000000000000000000000000000000000000000000000000000000000000000000N 00000000000NCONT   00    00000000000          00000000000000000000000000000000000000000000 000000000000000A000000000000000000000000000000000000000000000 000000000000000000000000000000000000000     00000000                                                                                                                        000000000000000000
F0010000009398000005000080201127600013552100000000000000000201611110002001ELECTRICOS DEL RUIZ S.A.S.                        D000000000675300000000000000000000100010010000000000000000000000F0019398000520161111000101 00000000000000000000000000000000000000000000000000000000000000000000000000000000000000000000000000000000000000000N 00000000000NCONT   00    00000000000          00000000000000000000000000000000000000000000 000000000000000A000000000000000000000000000000000000000000000 000000000000000000000000000000000000000     00000000                                                                                                                        000000000000000000
F0010000009398100001000080023327700013050500000000000000000201611110002001DISINCO LTDA                                      D000000012810500000000000000000000100010010000000000000000000000F0019398100120161111000101 00000000000000000000000000000000000000000000000000000000000000000000000000000000000000000000000000000000000000000N 00000000000NCONT   00    00000000000          00000000000000000000000000000000000000000000 000000000000000A000000000000000000000000000000000000000000000 000000000000000000000000000000000000000     00000000                                                                                                                        000000000000000000
F0010000009398100002000080023327700041450500000000000000000201611110002001DISINCO LTDA                                      C000000012100000000000000000000000100010010000000000000000000000F0019398100220161111000101 00000000000000000000000000000000000000000000000000000000000000000000000000000000000000000000000000000000000000000N 00000000000NCONT   00    00000000000          00000000000000000000000000000000000000000000 000000000000000A000000000000000000000000000000000000000000000 000000000000000000000000000000000000000     00000000                                                                                                                        000000000000000000
F0010000009398100003000080023327700042505000000000000000000201611110002001DISINCO LTDA                                      C000000000710500000000000000000000100010010000000000000000000000F0019398100320161111000101 00000000000000000000000000000000000000000000000000000000000000000000000000000000000000000000000000000000000000000N 00000000000NCONT   00    00000000000          00000000000000000000000000000000000000000000 000000000000000A000000000000000000000000000000000000000000000 000000000000000000000000000000000000000     00000000                                                                                                                        000000000000000000
F0010000009398100004000080023327700023658300000000000000000201611110002001DISINCO LTDA                                      C000000000096800000000000000000000100010010000000000000000000000F0019398100420161111000101 00000000000000000000000000000000000000000000000000000000000000000000000000000000000000000000000000000000000000000N 00000000000NCONT   00    00000000000          00000000000000000000000000000000000000000000 000000000000000A000000000000000000000000000000000000000000000 000000000000000000000000000000000000000     00000000                                                                                                                        000000000000000000
F0010000009398100005000080023327700013552100000000000000000201611110002001DISINCO LTDA                                      D000000000096800000000000000000000100010010000000000000000000000F0019398100520161111000101 00000000000000000000000000000000000000000000000000000000000000000000000000000000000000000000000000000000000000000N 00000000000NCONT   00    00000000000          00000000000000000000000000000000000000000000 000000000000000A000000000000000000000000000000000000000000000 000000000000000000000000000000000000000     00000000                                                                                                                        000000000000000000
F0010000009398200001000083007900600013050500000000000000000201611110002001EXPRESO ANDINO DE CARGA SA                        D000000042500000000000000000000000100010010000000000000000000000F0019398200120161111000101 00000000000000000000000000000000000000000000000000000000000000000000000000000000000000000000000000000000000000000N 00000000000NCONT   00    00000000000          00000000000000000000000000000000000000000000 000000000000000A000000000000000000000000000000000000000000000 000000000000000000000000000000000000000     00000000                                                                                                                        000000000000000000
F0010000009398200002000083007900600041450500000000000000000201611110002001EXPRESO ANDINO DE CARGA SA                        C000000042000000000000000000000000100010010000000000000000000000F0019398200220161111000101 00000000000000000000000000000000000000000000000000000000000000000000000000000000000000000000000000000000000000000N 00000000000NCONT   00    00000000000          00000000000000000000000000000000000000000000 000000000000000A000000000000000000000000000000000000000000000 000000000000000000000000000000000000000     00000000                                                                                                                        000000000000000000
F0010000009398200003000083007900600042505000000000000000000201611110002001EXPRESO ANDINO DE CARGA SA                        C000000000500000000000000000000000100010010000000000000000000000F0019398200320161111000101 00000000000000000000000000000000000000000000000000000000000000000000000000000000000000000000000000000000000000000N 00000000000NCONT   00    00000000000          00000000000000000000000000000000000000000000 000000000000000A000000000000000000000000000000000000000000000 000000000000000000000000000000000000000     00000000                                                                                                                        000000000000000000
F0010000009398200004000083007900600023658300000000000000000201611110002001EXPRESO ANDINO DE CARGA SA                        C000000000336000000000000000000000100010010000000000000000000000F0019398200420161111000101 00000000000000000000000000000000000000000000000000000000000000000000000000000000000000000000000000000000000000000N 00000000000NCONT   00    00000000000          00000000000000000000000000000000000000000000 000000000000000A000000000000000000000000000000000000000000000 000000000000000000000000000000000000000     00000000                                                                                                                        000000000000000000
F0010000009398200005000083007900600013552100000000000000000201611110002001EXPRESO ANDINO DE CARGA SA                        D000000000336000000000000000000000100010010000000000000000000000F0019398200520161111000101 00000000000000000000000000000000000000000000000000000000000000000000000000000000000000000000000000000000000000000N 00000000000NCONT   00    00000000000          00000000000000000000000000000000000000000000 000000000000000A000000000000000000000000000000000000000000000 000000000000000000000000000000000000000     00000000                                                                                                                        000000000000000000
F0010000009398300001000086000490200013050500000000000000000201611110002001PROV. DE PAPELES ANDINA S.A.                      D000000031413800000000000000000000100010010000000000000000000000F0019398300120161111000101 00000000000000000000000000000000000000000000000000000000000000000000000000000000000000000000000000000000000000000N 00000000000NCONT   00    00000000000          00000000000000000000000000000000000000000000 000000000000000A000000000000000000000000000000000000000000000 000000000000000000000000000000000000000     00000000                                                                                                                        000000000000000000
F0010000009398300002000086000490200041450500000000000000000201611110002001PROV. DE PAPELES ANDINA S.A.                      C000000027873700000000000000000000100010010000000000000000000000F0019398300220161111000101 00000000000000000000000000000000000000000000000000000000000000000000000000000000000000000000000000000000000000000N 00000000000NCONT   00    00000000000          00000000000000000000000000000000000000000000 000000000000000A000000000000000000000000000000000000000000000 000000000000000000000000000000000000000     00000000                                                                                                                        000000000000000000
F0010000009398300003000086000490200042505000000000000000000201611110002001PROV. DE PAPELES ANDINA S.A.                      C000000003540100000000000000000000100010010000000000000000000000F0019398300320161111000101 00000000000000000000000000000000000000000000000000000000000000000000000000000000000000000000000000000000000000000N 00000000000NCONT   00    00000000000          00000000000000000000000000000000000000000000 000000000000000A000000000000000000000000000000000000000000000 000000000000000000000000000000000000000     00000000                                                                                                                        000000000000000000
F0010000009398300004000086000490200023658300000000000000000201611110002001PROV. DE PAPELES ANDINA S.A.                      C000000000223000000000000000000000100010010000000000000000000000F0019398300420161111000101 00000000000000000000000000000000000000000000000000000000000000000000000000000000000000000000000000000000000000000N 00000000000NCONT   00    00000000000          00000000000000000000000000000000000000000000 000000000000000A000000000000000000000000000000000000000000000 000000000000000000000000000000000000000     00000000                                                                                                                        000000000000000000
F0010000009398300005000086000490200013552100000000000000000201611110002001PROV. DE PAPELES ANDINA S.A.                      D000000000223000000000000000000000100010010000000000000000000000F0019398300520161111000101 00000000000000000000000000000000000000000000000000000000000000000000000000000000000000000000000000000000000000000N 00000000000NCONT   00    00000000000          00000000000000000000000000000000000000000000 000000000000000A000000000000000000000000000000000000000000000 000000000000000000000000000000000000000     00000000                                                                                                                        000000000000000000
F0010000009398400001000080019113900013050500000000000000000201611110002001COMERCIAL NOVAPEL LTDA                            D000000024515000000000000000000000100010010000000000000000000000F0019398400120161111000101 00000000000000000000000000000000000000000000000000000000000000000000000000000000000000000000000000000000000000000N 00000000000NCONT   00    00000000000          00000000000000000000000000000000000000000000 000000000000000A000000000000000000000000000000000000000000000 000000000000000000000000000000000000000     00000000                                                                                                                        000000000000000000
F0010000009398400002000080019113900041450500000000000000000201611110002001COMERCIAL NOVAPEL LTDA                            C000000021600000000000000000000000100010010000000000000000000000F0019398400220161111000101 00000000000000000000000000000000000000000000000000000000000000000000000000000000000000000000000000000000000000000N 00000000000NCONT   00    00000000000          00000000000000000000000000000000000000000000 000000000000000A000000000000000000000000000000000000000000000 000000000000000000000000000000000000000     00000000                                                                                                                        000000000000000000
F0010000009398400003000080019113900042505000000000000000000201611110002001COMERCIAL NOVAPEL LTDA                            C000000002915000000000000000000000100010010000000000000000000000F0019398400320161111000101 00000000000000000000000000000000000000000000000000000000000000000000000000000000000000000000000000000000000000000N 00000000000NCONT   00    00000000000          00000000000000000000000000000000000000000000 000000000000000A000000000000000000000000000000000000000000000 000000000000000000000000000000000000000     00000000                                                                                                                        000000000000000000
F0010000009398400004000080019113900023658300000000000000000201611110002001COMERCIAL NOVAPEL LTDA                            C000000000172800000000000000000000100010010000000000000000000000F0019398400420161111000101 00000000000000000000000000000000000000000000000000000000000000000000000000000000000000000000000000000000000000000N 00000000000NCONT   00    00000000000          00000000000000000000000000000000000000000000 000000000000000A000000000000000000000000000000000000000000000 000000000000000000000000000000000000000     00000000                                                                                                                        000000000000000000
F0010000009398400005000080019113900013552100000000000000000201611110002001COMERCIAL NOVAPEL LTDA                            D000000000172800000000000000000000100010010000000000000000000000F0019398400520161111000101 00000000000000000000000000000000000000000000000000000000000000000000000000000000000000000000000000000000000000000N 00000000000NCONT   00    00000000000          00000000000000000000000000000000000000000000 000000000000000A000000000000000000000000000000000000000000000 000000000000000000000000000000000000000     00000000                                                                                                                        000000000000000000
F0010000009398500001000090064982900013050500000000000000000201611110002001DISDIES S.A.S                                     D000000106455800000000000000000000100010010000000000000000000000F0019398500120161111000101 00000000000000000000000000000000000000000000000000000000000000000000000000000000000000000000000000000000000000000N 00000000000NCONT   00    00000000000          00000000000000000000000000000000000000000000 000000000000000A000000000000000000000000000000000000000000000 000000000000000000000000000000000000000     00000000                                                                                                                        000000000000000000
F0010000009398500002000090064982900041450500000000000000000201611110002001DISDIES S.A.S                                     C000000091867800000000000000000000100010010000000000000000000000F0019398500220161111000101 00000000000000000000000000000000000000000000000000000000000000000000000000000000000000000000000000000000000000000N 00000000000NCONT   00    00000000000          00000000000000000000000000000000000000000000 000000000000000A000000000000000000000000000000000000000000000 000000000000000000000000000000000000000     00000000                                                                                                                        000000000000000000
F0010000009398500003000090064982900042505000000000000000000201611110002001DISDIES S.A.S                                     C000000014588000000000000000000000100010010000000000000000000000F0019398500320161111000101 00000000000000000000000000000000000000000000000000000000000000000000000000000000000000000000000000000000000000000N 00000000000NCONT   00    00000000000          00000000000000000000000000000000000000000000 000000000000000A000000000000000000000000000000000000000000000 000000000000000000000000000000000000000     00000000                                                                                                                        000000000000000000
F0010000009398500004000090064982900023658300000000000000000201611110002001DISDIES S.A.S                                     C000000000734900000000000000000000100010010000000000000000000000F0019398500420161111000101 00000000000000000000000000000000000000000000000000000000000000000000000000000000000000000000000000000000000000000N 00000000000NCONT   00    00000000000          00000000000000000000000000000000000000000000 000000000000000A000000000000000000000000000000000000000000000 000000000000000000000000000000000000000     00000000                                                                                                                        000000000000000000
F0010000009398500005000090064982900013552100000000000000000201611110002001DISDIES S.A.S                                     D000000000734900000000000000000000100010010000000000000000000000F0019398500520161111000101 00000000000000000000000000000000000000000000000000000000000000000000000000000000000000000000000000000000000000000N 00000000000NCONT   00    00000000000          00000000000000000000000000000000000000000000 000000000000000A000000000000000000000000000000000000000000000 000000000000000000000000000000000000000     00000000                                                                                                                        000000000000000000
F0010000009398600001000080002300200013050500000000000000000201611110002001DISREL S.A.                                       D000000051750000000000000000000000100010010000000000000000000000F0019398600120161111000101 00000000000000000000000000000000000000000000000000000000000000000000000000000000000000000000000000000000000000000N 00000000000NCONT   00    00000000000          00000000000000000000000000000000000000000000 000000000000000A000000000000000000000000000000000000000000000 000000000000000000000000000000000000000     00000000                                                                                                                        000000000000000000
F0010000009398600002000080002300200041450500000000000000000201611110002001DISREL S.A.                                       C000000047150000000000000000000000100010010000000000000000000000F0019398600220161111000101 00000000000000000000000000000000000000000000000000000000000000000000000000000000000000000000000000000000000000000N 00000000000NCONT   00    00000000000          00000000000000000000000000000000000000000000 000000000000000A000000000000000000000000000000000000000000000 000000000000000000000000000000000000000     00000000                                                                                                                        000000000000000000
F0010000009398600003000080002300200042505000000000000000000201611110002001DISREL S.A.                                       C000000004600000000000000000000000100010010000000000000000000000F0019398600320161111000101 00000000000000000000000000000000000000000000000000000000000000000000000000000000000000000000000000000000000000000N 00000000000NCONT   00    00000000000          00000000000000000000000000000000000000000000 000000000000000A000000000000000000000000000000000000000000000 000000000000000000000000000000000000000     00000000                                                                                                                        000000000000000000
F0010000009398600004000080002300200023658300000000000000000201611110002001DISREL S.A.                                       C000000000377200000000000000000000100010010000000000000000000000F0019398600420161111000101 00000000000000000000000000000000000000000000000000000000000000000000000000000000000000000000000000000000000000000N 00000000000NCONT   00    00000000000          00000000000000000000000000000000000000000000 000000000000000A000000000000000000000000000000000000000000000 000000000000000000000000000000000000000     00000000                                                                                                                        000000000000000000
F0010000009398600005000080002300200013552100000000000000000201611110002001DISREL S.A.                                       D000000000377200000000000000000000100010010000000000000000000000F0019398600520161111000101 00000000000000000000000000000000000000000000000000000000000000000000000000000000000000000000000000000000000000000N 00000000000NCONT   00    00000000000          00000000000000000000000000000000000000000000 000000000000000A000000000000000000000000000000000000000000000 000000000000000000000000000000000000000     00000000                                                                                                                        000000000000000000
F0010000009398700001000089010260300013050500000000000000000201611110002001FEDERICO OSORIO A. S.A.                           D000000128247400000000000000000000100010010000000000000000000000F0019398700120161111000101 00000000000000000000000000000000000000000000000000000000000000000000000000000000000000000000000000000000000000000N 00000000000NCONT   00    00000000000          00000000000000000000000000000000000000000000 000000000000000A000000000000000000000000000000000000000000000 000000000000000000000000000000000000000     00000000                                                                                                                        000000000000000000
F0010000009398700002000089010260300041450500000000000000000201611110002001FEDERICO OSORIO A. S.A.                           C000000114320000000000000000000000100010010000000000000000000000F0019398700220161111000101 00000000000000000000000000000000000000000000000000000000000000000000000000000000000000000000000000000000000000000N 00000000000NCONT   00    00000000000          00000000000000000000000000000000000000000000 000000000000000A000000000000000000000000000000000000000000000 000000000000000000000000000000000000000     00000000                                                                                                                        000000000000000000
F0010000009398700003000089010260300042505000000000000000000201611110002001FEDERICO OSORIO A. S.A.                           C000000013927400000000000000000000100010010000000000000000000000F0019398700320161111000101 00000000000000000000000000000000000000000000000000000000000000000000000000000000000000000000000000000000000000000N 00000000000NCONT   00    00000000000          00000000000000000000000000000000000000000000 000000000000000A000000000000000000000000000000000000000000000 000000000000000000000000000000000000000     00000000                                                                                                                        000000000000000000
F0010000009398700004000089010260300023658300000000000000000201611110002001FEDERICO OSORIO A. S.A.                           C000000000914600000000000000000000100010010000000000000000000000F0019398700420161111000101 00000000000000000000000000000000000000000000000000000000000000000000000000000000000000000000000000000000000000000N 00000000000NCONT   00    00000000000          00000000000000000000000000000000000000000000 000000000000000A000000000000000000000000000000000000000000000 000000000000000000000000000000000000000     00000000                                                                                                                        000000000000000000
F0010000009398700005000089010260300013552100000000000000000201611110002001FEDERICO OSORIO A. S.A.                           D000000000914600000000000000000000100010010000000000000000000000F0019398700520161111000101 00000000000000000000000000000000000000000000000000000000000000000000000000000000000000000000000000000000000000000N 00000000000NCONT   00    00000000000          00000000000000000000000000000000000000000000 000000000000000A000000000000000000000000000000000000000000000 000000000000000000000000000000000000000     00000000                                                                                                                        000000000000000000
F0010000009398800001000089010260300013050500000000000000000201611110002001FEDERICO OSORIO A. S.A.                           D000000099976200000000000000000000100010010000000000000000000000F0019398800120161111000101 00000000000000000000000000000000000000000000000000000000000000000000000000000000000000000000000000000000000000000N 00000000000NCONT   00    00000000000          00000000000000000000000000000000000000000000 000000000000000A000000000000000000000000000000000000000000000 000000000000000000000000000000000000000     00000000                                                                                                                        000000000000000000
F0010000009398800002000089010260300041450500000000000000000201611110002001FEDERICO OSORIO A. S.A.                           C000000092640000000000000000000000100010010000000000000000000000F0019398800220161111000101 00000000000000000000000000000000000000000000000000000000000000000000000000000000000000000000000000000000000000000N 00000000000NCONT   00    00000000000          00000000000000000000000000000000000000000000 000000000000000A000000000000000000000000000000000000000000000 000000000000000000000000000000000000000     00000000                                                                                                                        000000000000000000
F0010000009398800003000089010260300042505000000000000000000201611110002001FEDERICO OSORIO A. S.A.                           C000000007336200000000000000000000100010010000000000000000000000F0019398800320161111000101 00000000000000000000000000000000000000000000000000000000000000000000000000000000000000000000000000000000000000000N 00000000000NCONT   00    00000000000          00000000000000000000000000000000000000000000 000000000000000A000000000000000000000000000000000000000000000 000000000000000000000000000000000000000     00000000                                                                                                                        000000000000000000
F0010000009398800004000089010260300023658300000000000000000201611110002001FEDERICO OSORIO A. S.A.                           C000000000741100000000000000000000100010010000000000000000000000F0019398800420161111000101 00000000000000000000000000000000000000000000000000000000000000000000000000000000000000000000000000000000000000000N 00000000000NCONT   00    00000000000          00000000000000000000000000000000000000000000 000000000000000A000000000000000000000000000000000000000000000 000000000000000000000000000000000000000     00000000                                                                                                                        000000000000000000
F0010000009398800005000089010260300013552100000000000000000201611110002001FEDERICO OSORIO A. S.A.                           D000000000741100000000000000000000100010010000000000000000000000F0019398800520161111000101 00000000000000000000000000000000000000000000000000000000000000000000000000000000000000000000000000000000000000000N 00000000000NCONT   00    00000000000          00000000000000000000000000000000000000000000 000000000000000A000000000000000000000000000000000000000000000 000000000000000000000000000000000000000     00000000                                                                                                                        000000000000000000
F0010000009398900001000080004943800013050500000000000000000201611110002001PAPELERIA EL CID S.A.                             D000000057150000000000000000000000100010010000000000000000000000F0019398900120161111000101 00000000000000000000000000000000000000000000000000000000000000000000000000000000000000000000000000000000000000000N 00000000000NCONT   00    00000000000          00000000000000000000000000000000000000000000 000000000000000A000000000000000000000000000000000000000000000 000000000000000000000000000000000000000     00000000                                                                                                                        000000000000000000
F0010000009398900002000080004943800041450500000000000000000201611110002001PAPELERIA EL CID S.A.                             C000000040995000000000000000000000100010010000000000000000000000F0019398900220161111000101 00000000000000000000000000000000000000000000000000000000000000000000000000000000000000000000000000000000000000000N 00000000000NCONT   00    00000000000          00000000000000000000000000000000000000000000 000000000000000A000000000000000000000000000000000000000000000 000000000000000000000000000000000000000     00000000                                                                                                                        000000000000000000
F0010000009398900003000080004943800042505000000000000000000201611110002001PAPELERIA EL CID S.A.                             C000000016155000000000000000000000100010010000000000000000000000F0019398900320161111000101 00000000000000000000000000000000000000000000000000000000000000000000000000000000000000000000000000000000000000000N 00000000000NCONT   00    00000000000          00000000000000000000000000000000000000000000 000000000000000A000000000000000000000000000000000000000000000 000000000000000000000000000000000000000     00000000                                                                                                                        000000000000000000
F0010000009398900004000080004943800023658300000000000000000201611110002001PAPELERIA EL CID S.A.                             C000000000328000000000000000000000100010010000000000000000000000F0019398900420161111000101 00000000000000000000000000000000000000000000000000000000000000000000000000000000000000000000000000000000000000000N 00000000000NCONT   00    00000000000          00000000000000000000000000000000000000000000 000000000000000A000000000000000000000000000000000000000000000 000000000000000000000000000000000000000     00000000                                                                                                                        000000000000000000
F0010000009398900005000080004943800013552100000000000000000201611110002001PAPELERIA EL CID S.A.                             D000000000328000000000000000000000100010010000000000000000000000F0019398900520161111000101 00000000000000000000000000000000000000000000000000000000000000000000000000000000000000000000000000000000000000000N 00000000000NCONT   00    00000000000          00000000000000000000000000000000000000000000 000000000000000A000000000000000000000000000000000000000000000 000000000000000000000000000000000000000     00000000                                                                                                                        000000000000000000
F0010000009399000001000080004943800013050500000000000000000201611110002001PAPELERIA EL CID S.A.                             D000000064640000000000000000000000100010010000000000000000000000F0019399000120161111000101 00000000000000000000000000000000000000000000000000000000000000000000000000000000000000000000000000000000000000000N 00000000000NCONT   00    00000000000          00000000000000000000000000000000000000000000 000000000000000A000000000000000000000000000000000000000000000 000000000000000000000000000000000000000     00000000                                                                                                                        000000000000000000
F0010000009399000002000080004943800041450500000000000000000201611110002001PAPELERIA EL CID S.A.                             C000000053870000000000000000000000100010010000000000000000000000F0019399000220161111000101 00000000000000000000000000000000000000000000000000000000000000000000000000000000000000000000000000000000000000000N 00000000000NCONT   00    00000000000          00000000000000000000000000000000000000000000 000000000000000A000000000000000000000000000000000000000000000 000000000000000000000000000000000000000     00000000                                                                                                                        000000000000000000
F0010000009399000003000080004943800042505000000000000000000201611110002001PAPELERIA EL CID S.A.                             C000000010770000000000000000000000100010010000000000000000000000F0019399000320161111000101 00000000000000000000000000000000000000000000000000000000000000000000000000000000000000000000000000000000000000000N 00000000000NCONT   00    00000000000          00000000000000000000000000000000000000000000 000000000000000A000000000000000000000000000000000000000000000 000000000000000000000000000000000000000     00000000                                                                                                                        000000000000000000
F0010000009399000004000080004943800023658300000000000000000201611110002001PAPELERIA EL CID S.A.                             C000000000431000000000000000000000100010010000000000000000000000F0019399000420161111000101 00000000000000000000000000000000000000000000000000000000000000000000000000000000000000000000000000000000000000000N 00000000000NCONT   00    00000000000          00000000000000000000000000000000000000000000 000000000000000A000000000000000000000000000000000000000000000 000000000000000000000000000000000000000     00000000                                                                                                                        000000000000000000
F0010000009399000005000080004943800013552100000000000000000201611110002001PAPELERIA EL CID S.A.                             D000000000431000000000000000000000100010010000000000000000000000F0019399000520161111000101 00000000000000000000000000000000000000000000000000000000000000000000000000000000000000000000000000000000000000000N 00000000000NCONT   00    00000000000          00000000000000000000000000000000000000000000 000000000000000A000000000000000000000000000000000000000000000 000000000000000000000000000000000000000     00000000                                                                                                                        000000000000000000
F0010000009399100001000080004943800013050500000000000000000201611110002001PAPELERIA EL CID S.A.                             D000000030525000000000000000000000100010010000000000000000000000F0019399100120161111000101 00000000000000000000000000000000000000000000000000000000000000000000000000000000000000000000000000000000000000000N 00000000000NCONT   00    00000000000          00000000000000000000000000000000000000000000 000000000000000A000000000000000000000000000000000000000000000 000000000000000000000000000000000000000     00000000                                                                                                                        000000000000000000
F0010000009399100002000080004943800041450500000000000000000201611110002001PAPELERIA EL CID S.A.                             C000000021080000000000000000000000100010010000000000000000000000F0019399100220161111000101 00000000000000000000000000000000000000000000000000000000000000000000000000000000000000000000000000000000000000000N 00000000000NCONT   00    00000000000          00000000000000000000000000000000000000000000 000000000000000A000000000000000000000000000000000000000000000 000000000000000000000000000000000000000     00000000                                                                                                                        000000000000000000
F0010000009399100003000080004943800042505000000000000000000201611110002001PAPELERIA EL CID S.A.                             C000000009445000000000000000000000100010010000000000000000000000F0019399100320161111000101 00000000000000000000000000000000000000000000000000000000000000000000000000000000000000000000000000000000000000000N 00000000000NCONT   00    00000000000          00000000000000000000000000000000000000000000 000000000000000A000000000000000000000000000000000000000000000 000000000000000000000000000000000000000     00000000                                                                                                                        000000000000000000
F0010000009399100004000080004943800023658300000000000000000201611110002001PAPELERIA EL CID S.A.                             C000000000168600000000000000000000100010010000000000000000000000F0019399100420161111000101 00000000000000000000000000000000000000000000000000000000000000000000000000000000000000000000000000000000000000000N 00000000000NCONT   00    00000000000          00000000000000000000000000000000000000000000 000000000000000A000000000000000000000000000000000000000000000 000000000000000000000000000000000000000     00000000                                                                                                                        000000000000000000
F0010000009399100005000080004943800013552100000000000000000201611110002001PAPELERIA EL CID S.A.                             D000000000168600000000000000000000100010010000000000000000000000F0019399100520161111000101 00000000000000000000000000000000000000000000000000000000000000000000000000000000000000000000000000000000000000000N 00000000000NCONT   00    00000000000          00000000000000000000000000000000000000000000 000000000000000A000000000000000000000000000000000000000000000 000000000000000000000000000000000000000     00000000                                                                                                                        000000000000000000
F0010000009399200001000080202094000013050500000000000000000201611110002001DISTRIB. OMAR ORREGO S.A.                         D000000047873200000000000000000000100010010000000000000000000000F0019399200120161111000101 00000000000000000000000000000000000000000000000000000000000000000000000000000000000000000000000000000000000000000N 00000000000NCONT   00    00000000000          00000000000000000000000000000000000000000000 000000000000000A000000000000000000000000000000000000000000000 000000000000000000000000000000000000000     00000000                                                                                                                        000000000000000000
F0010000009399200002000080202094000041450500000000000000000201611110002001DISTRIB. OMAR ORREGO S.A.                         C000000027140000000000000000000000100010010000000000000000000000F0019399200220161111000101 00000000000000000000000000000000000000000000000000000000000000000000000000000000000000000000000000000000000000000N 00000000000NCONT   00    00000000000          00000000000000000000000000000000000000000000 000000000000000A000000000000000000000000000000000000000000000 000000000000000000000000000000000000000     00000000                                                                                                                        000000000000000000
F0010000009399200003000080202094000042505000000000000000000201611110002001DISTRIB. OMAR ORREGO S.A.                         C000000020733200000000000000000000100010010000000000000000000000F0019399200320161111000101 00000000000000000000000000000000000000000000000000000000000000000000000000000000000000000000000000000000000000000N 00000000000NCONT   00    00000000000          00000000000000000000000000000000000000000000 000000000000000A000000000000000000000000000000000000000000000 000000000000000000000000000000000000000     00000000                                                                                                                        000000000000000000
F0010000009399200004000080202094000023658300000000000000000201611110002001DISTRIB. OMAR ORREGO S.A.                         C000000000217100000000000000000000100010010000000000000000000000F0019399200420161111000101 00000000000000000000000000000000000000000000000000000000000000000000000000000000000000000000000000000000000000000N 00000000000NCONT   00    00000000000          00000000000000000000000000000000000000000000 000000000000000A000000000000000000000000000000000000000000000 000000000000000000000000000000000000000     00000000                                                                                                                        000000000000000000
F0010000009399200005000080202094000013552100000000000000000201611110002001DISTRIB. OMAR ORREGO S.A.                         D000000000217100000000000000000000100010010000000000000000000000F0019399200520161111000101 00000000000000000000000000000000000000000000000000000000000000000000000000000000000000000000000000000000000000000N 00000000000NCONT   00    00000000000          00000000000000000000000000000000000000000000 000000000000000A000000000000000000000000000000000000000000000 000000000000000000000000000000000000000     00000000                                                                                                                        000000000000000000
F0010000009399300001000080202094000013050500000000000000000201611110002001DISTRIB. OMAR ORREGO S.A.                         D000000063305000000000000000000000100010010000000000000000000000F0019399300120161111000101 00000000000000000000000000000000000000000000000000000000000000000000000000000000000000000000000000000000000000000N 00000000000NCONT   00    00000000000          00000000000000000000000000000000000000000000 000000000000000A000000000000000000000000000000000000000000000 000000000000000000000000000000000000000     00000000                                                                                                                        000000000000000000
F0010000009399300002000080202094000041450500000000000000000201611110002001DISTRIB. OMAR ORREGO S.A.                         C000000041470000000000000000000000100010010000000000000000000000F0019399300220161111000101 00000000000000000000000000000000000000000000000000000000000000000000000000000000000000000000000000000000000000000N 00000000000NCONT   00    00000000000          00000000000000000000000000000000000000000000 000000000000000A000000000000000000000000000000000000000000000 000000000000000000000000000000000000000     00000000                                                                                                                        000000000000000000
F0010000009399300003000080202094000042505000000000000000000201611110002001DISTRIB. OMAR ORREGO S.A.                         C000000021835000000000000000000000100010010000000000000000000000F0019399300320161111000101 00000000000000000000000000000000000000000000000000000000000000000000000000000000000000000000000000000000000000000N 00000000000NCONT   00    00000000000          00000000000000000000000000000000000000000000 000000000000000A000000000000000000000000000000000000000000000 000000000000000000000000000000000000000     00000000                                                                                                                        000000000000000000
F0010000009399300004000080202094000023658300000000000000000201611110002001DISTRIB. OMAR ORREGO S.A.                         C000000000331800000000000000000000100010010000000000000000000000F0019399300420161111000101 00000000000000000000000000000000000000000000000000000000000000000000000000000000000000000000000000000000000000000N 00000000000NCONT   00    00000000000          00000000000000000000000000000000000000000000 000000000000000A000000000000000000000000000000000000000000000 000000000000000000000000000000000000000     00000000                                                                                                                        000000000000000000
F0010000009399300005000080202094000013552100000000000000000201611110002001DISTRIB. OMAR ORREGO S.A.                         D000000000331800000000000000000000100010010000000000000000000000F0019399300520161111000101 00000000000000000000000000000000000000000000000000000000000000000000000000000000000000000000000000000000000000000N 00000000000NCONT   00    00000000000          00000000000000000000000000000000000000000000 000000000000000A000000000000000000000000000000000000000000000 000000000000000000000000000000000000000     00000000                                                                                                                        000000000000000000
F0010000009399400001000080202094000013050500000000000000000201611110002001DISTRIB. OMAR ORREGO S.A.                         D000000073248200000000000000000000100010010000000000000000000000F0019399400120161111000101 00000000000000000000000000000000000000000000000000000000000000000000000000000000000000000000000000000000000000000N 00000000000NCONT   00    00000000000          00000000000000000000000000000000000000000000 000000000000000A000000000000000000000000000000000000000000000 000000000000000000000000000000000000000     00000000                                                                                                                        000000000000000000
F0010000009399400002000080202094000041450500000000000000000201611110002001DISTRIB. OMAR ORREGO S.A.                         C000000043290000000000000000000000100010010000000000000000000000F0019399400220161111000101 00000000000000000000000000000000000000000000000000000000000000000000000000000000000000000000000000000000000000000N 00000000000NCONT   00    00000000000          00000000000000000000000000000000000000000000 000000000000000A000000000000000000000000000000000000000000000 000000000000000000000000000000000000000     00000000                                                                                                                        000000000000000000
F0010000009399400003000080202094000042505000000000000000000201611110002001DISTRIB. OMAR ORREGO S.A.                         C000000029958200000000000000000000100010010000000000000000000000F0019399400320161111000101 00000000000000000000000000000000000000000000000000000000000000000000000000000000000000000000000000000000000000000N 00000000000NCONT   00    00000000000          00000000000000000000000000000000000000000000 000000000000000A000000000000000000000000000000000000000000000 000000000000000000000000000000000000000     00000000                                                                                                                        000000000000000000
F0010000009399400004000080202094000023658300000000000000000201611110002001DISTRIB. OMAR ORREGO S.A.                         C000000000346300000000000000000000100010010000000000000000000000F0019399400420161111000101 00000000000000000000000000000000000000000000000000000000000000000000000000000000000000000000000000000000000000000N 00000000000NCONT   00    00000000000          00000000000000000000000000000000000000000000 000000000000000A000000000000000000000000000000000000000000000 000000000000000000000000000000000000000     00000000                                                                                                                        000000000000000000
F0010000009399400005000080202094000013552100000000000000000201611110002001DISTRIB. OMAR ORREGO S.A.                         D000000000346300000000000000000000100010010000000000000000000000F0019399400520161111000101 00000000000000000000000000000000000000000000000000000000000000000000000000000000000000000000000000000000000000000N 00000000000NCONT   00    00000000000          00000000000000000000000000000000000000000000 000000000000000A000000000000000000000000000000000000000000000 000000000000000000000000000000000000000     00000000                                                                                                                        000000000000000000
F0010000009399500001000080202094000013050500000000000000000201611110002001DISTRIB. OMAR ORREGO S.A.                         D000000010517600000000000000000000100010010000000000000000000000F0019399500120161111000101 00000000000000000000000000000000000000000000000000000000000000000000000000000000000000000000000000000000000000000N 00000000000NCONT   00    00000000000          00000000000000000000000000000000000000000000 000000000000000A000000000000000000000000000000000000000000000 000000000000000000000000000000000000000     00000000                                                                                                                        000000000000000000
F0010000009399500002000080202094000041450500000000000000000201611110002001DISTRIB. OMAR ORREGO S.A.                         C000000006050000000000000000000000100010010000000000000000000000F0019399500220161111000101 00000000000000000000000000000000000000000000000000000000000000000000000000000000000000000000000000000000000000000N 00000000000NCONT   00    00000000000          00000000000000000000000000000000000000000000 000000000000000A000000000000000000000000000000000000000000000 000000000000000000000000000000000000000     00000000                                                                                                                        000000000000000000
F0010000009399500003000080202094000042505000000000000000000201611110002001DISTRIB. OMAR ORREGO S.A.                         C000000004467600000000000000000000100010010000000000000000000000F0019399500320161111000101 00000000000000000000000000000000000000000000000000000000000000000000000000000000000000000000000000000000000000000N 00000000000NCONT   00    00000000000          00000000000000000000000000000000000000000000 000000000000000A000000000000000000000000000000000000000000000 000000000000000000000000000000000000000     00000000                                                                                                                        000000000000000000
