F0010000008446400001000080200863700013050500000000000000000201604050002001COPIN S.A.S                                       D000000086643400000000000000000000100010010000000000000000000000F0010000008446400120160405000101 00000000000000000000000000000000000000000000000000000000000000000000000000000000000000000000000000000000000000000N 00000000000NCONT   00    00000000000          00000000000000000000000000000000000000000000 000000000000000A000000000000000000000000000000000000000000000 000000000000000000000000000000000000000     00000000                                                                                                                        000000000000000000
F0010000008446400002000080200863700041450500000000000000000201604050002001COPIN S.A.S                                       C000000076036000000000000000000000100010010000000000000000000000F0010000008446400220160405000101 00000000000000000000000000000000000000000000000000000000000000000000000000000000000000000000000000000000000000000N 00000000000NCONT   00    00000000000          00000000000000000000000000000000000000000000 000000000000000A000000000000000000000000000000000000000000000 000000000000000000000000000000000000000     00000000                                                                                                                        000000000000000000
F0010000008446400003000080200863700042505000000000000000000201604050002001COPIN S.A.S                                       C000000010607400000000000000000000100010010000000000000000000000F0010000008446400320160405000101 00000000000000000000000000000000000000000000000000000000000000000000000000000000000000000000000000000000000000000N 00000000000NCONT   00    00000000000          00000000000000000000000000000000000000000000 000000000000000A000000000000000000000000000000000000000000000 000000000000000000000000000000000000000     00000000                                                                                                                        000000000000000000
F0010000008446400004000080200863700023658300000000000000000201604050002001COPIN S.A.S                                       C000000000608300000000000000000000100010010000000000000000000000F0010000008446400420160405000101 00000000000000000000000000000000000000000000000000000000000000000000000000000000000000000000000000000000000000000N 00000000000NCONT   00    00000000000          00000000000000000000000000000000000000000000 000000000000000A000000000000000000000000000000000000000000000 000000000000000000000000000000000000000     00000000                                                                                                                        000000000000000000
F0010000008446400005000080200863700013552100000000000000000201604050002001COPIN S.A.S                                       D000000000608300000000000000000000100010010000000000000000000000F0010000008446400520160405000101 00000000000000000000000000000000000000000000000000000000000000000000000000000000000000000000000000000000000000000N 00000000000NCONT   00    00000000000          00000000000000000000000000000000000000000000 000000000000000A000000000000000000000000000000000000000000000 000000000000000000000000000000000000000     00000000                                                                                                                        000000000000000000
F0010000008446500001000080004943800013050500000000000000000201604050002001PAPELERIA EL CID S.A.                             D000000023120000000000000000000000100010010000000000000000000000F0010000008446500120160405000101 00000000000000000000000000000000000000000000000000000000000000000000000000000000000000000000000000000000000000000N 00000000000NCONT   00    00000000000          00000000000000000000000000000000000000000000 000000000000000A000000000000000000000000000000000000000000000 000000000000000000000000000000000000000     00000000                                                                                                                        000000000000000000
F0010000008446500002000080004943800041450500000000000000000201604050002001PAPELERIA EL CID S.A.                             C000000015470000000000000000000000100010010000000000000000000000F0010000008446500220160405000101 00000000000000000000000000000000000000000000000000000000000000000000000000000000000000000000000000000000000000000N 00000000000NCONT   00    00000000000          00000000000000000000000000000000000000000000 000000000000000A000000000000000000000000000000000000000000000 000000000000000000000000000000000000000     00000000                                                                                                                        000000000000000000
F0010000008446500003000080004943800042505000000000000000000201604050002001PAPELERIA EL CID S.A.                             C000000007650000000000000000000000100010010000000000000000000000F0010000008446500320160405000101 00000000000000000000000000000000000000000000000000000000000000000000000000000000000000000000000000000000000000000N 00000000000NCONT   00    00000000000          00000000000000000000000000000000000000000000 000000000000000A000000000000000000000000000000000000000000000 000000000000000000000000000000000000000     00000000                                                                                                                        000000000000000000
F0010000008446500004000080004943800023658300000000000000000201604050002001PAPELERIA EL CID S.A.                             C000000000123800000000000000000000100010010000000000000000000000F0010000008446500420160405000101 00000000000000000000000000000000000000000000000000000000000000000000000000000000000000000000000000000000000000000N 00000000000NCONT   00    00000000000          00000000000000000000000000000000000000000000 000000000000000A000000000000000000000000000000000000000000000 000000000000000000000000000000000000000     00000000                                                                                                                        000000000000000000
F0010000008446500005000080004943800013552100000000000000000201604050002001PAPELERIA EL CID S.A.                             D000000000123800000000000000000000100010010000000000000000000000F0010000008446500520160405000101 00000000000000000000000000000000000000000000000000000000000000000000000000000000000000000000000000000000000000000N 00000000000NCONT   00    00000000000          00000000000000000000000000000000000000000000 000000000000000A000000000000000000000000000000000000000000000 000000000000000000000000000000000000000     00000000                                                                                                                        000000000000000000
F0010000008446600001000080202094000013050500000000000000000201604050002001DISTRIB. OMAR ORREGO S.A.                         D000000058788800000000000000000000100010010000000000000000000000F0010000008446600120160405000101 00000000000000000000000000000000000000000000000000000000000000000000000000000000000000000000000000000000000000000N 00000000000NCONT   00    00000000000          00000000000000000000000000000000000000000000 000000000000000A000000000000000000000000000000000000000000000 000000000000000000000000000000000000000     00000000                                                                                                                        000000000000000000
F0010000008446600002000080202094000041450500000000000000000201604050002001DISTRIB. OMAR ORREGO S.A.                         C000000037760000000000000000000000100010010000000000000000000000F0010000008446600220160405000101 00000000000000000000000000000000000000000000000000000000000000000000000000000000000000000000000000000000000000000N 00000000000NCONT   00    00000000000          00000000000000000000000000000000000000000000 000000000000000A000000000000000000000000000000000000000000000 000000000000000000000000000000000000000     00000000                                                                                                                        000000000000000000
F0010000008446600003000080202094000042505000000000000000000201604050002001DISTRIB. OMAR ORREGO S.A.                         C000000021028800000000000000000000100010010000000000000000000000F0010000008446600320160405000101 00000000000000000000000000000000000000000000000000000000000000000000000000000000000000000000000000000000000000000N 00000000000NCONT   00    00000000000          00000000000000000000000000000000000000000000 000000000000000A000000000000000000000000000000000000000000000 000000000000000000000000000000000000000     00000000                                                                                                                        000000000000000000
F0010000008446600004000080202094000023658300000000000000000201604050002001DISTRIB. OMAR ORREGO S.A.                         C000000000302100000000000000000000100010010000000000000000000000F0010000008446600420160405000101 00000000000000000000000000000000000000000000000000000000000000000000000000000000000000000000000000000000000000000N 00000000000NCONT   00    00000000000          00000000000000000000000000000000000000000000 000000000000000A000000000000000000000000000000000000000000000 000000000000000000000000000000000000000     00000000                                                                                                                        000000000000000000
F0010000008446600005000080202094000013552100000000000000000201604050002001DISTRIB. OMAR ORREGO S.A.                         D000000000302100000000000000000000100010010000000000000000000000F0010000008446600520160405000101 00000000000000000000000000000000000000000000000000000000000000000000000000000000000000000000000000000000000000000N 00000000000NCONT   00    00000000000          00000000000000000000000000000000000000000000 000000000000000A000000000000000000000000000000000000000000000 000000000000000000000000000000000000000     00000000                                                                                                                        000000000000000000
F0010000008446700001000080201112800013050500000000000000000201604050002001CANGURO INTERNATIONAL S.A.                        D000000130430700000000000000000000100010010000000000000000000000F0010000008446700120160405000101 00000000000000000000000000000000000000000000000000000000000000000000000000000000000000000000000000000000000000000N 00000000000NCONT   00    00000000000          00000000000000000000000000000000000000000000 000000000000000A000000000000000000000000000000000000000000000 000000000000000000000000000000000000000     00000000                                                                                                                        000000000000000000
F0010000008446700002000080201112800041450500000000000000000201604050002001CANGURO INTERNATIONAL S.A.                        C000000130430700000000000000000000100010010000000000000000000000F0010000008446700220160405000101 00000000000000000000000000000000000000000000000000000000000000000000000000000000000000000000000000000000000000000N 00000000000NCONT   00    00000000000          00000000000000000000000000000000000000000000 000000000000000A000000000000000000000000000000000000000000000 000000000000000000000000000000000000000     00000000                                                                                                                        000000000000000000
F0010000008446700003000080201112800042505000000000000000000201604050002001CANGURO INTERNATIONAL S.A.                        C000000000000000000000000000000000100010010000000000000000000000F0010000008446700320160405000101 00000000000000000000000000000000000000000000000000000000000000000000000000000000000000000000000000000000000000000N 00000000000NCONT   00    00000000000          00000000000000000000000000000000000000000000 000000000000000A000000000000000000000000000000000000000000000 000000000000000000000000000000000000000     00000000                                                                                                                        000000000000000000
F0010000008446700004000080201112800023658300000000000000000201604050002001CANGURO INTERNATIONAL S.A.                        C000000001043400000000000000000000100010010000000000000000000000F0010000008446700420160405000101 00000000000000000000000000000000000000000000000000000000000000000000000000000000000000000000000000000000000000000N 00000000000NCONT   00    00000000000          00000000000000000000000000000000000000000000 000000000000000A000000000000000000000000000000000000000000000 000000000000000000000000000000000000000     00000000                                                                                                                        000000000000000000
F0010000008446700005000080201112800013552100000000000000000201604050002001CANGURO INTERNATIONAL S.A.                        D000000001043400000000000000000000100010010000000000000000000000F0010000008446700520160405000101 00000000000000000000000000000000000000000000000000000000000000000000000000000000000000000000000000000000000000000N 00000000000NCONT   00    00000000000          00000000000000000000000000000000000000000000 000000000000000A000000000000000000000000000000000000000000000 000000000000000000000000000000000000000     00000000                                                                                                                        000000000000000000
F0010000008446800001000090020547900013050500000000000000000201604050002001COMERCIALIZADORA DAC DEL CARIBE S.A.S.            D000000010191900000000000000000000100010010000000000000000000000F0010000008446800120160405000101 00000000000000000000000000000000000000000000000000000000000000000000000000000000000000000000000000000000000000000N 00000000000NCONT   00    00000000000          00000000000000000000000000000000000000000000 000000000000000A000000000000000000000000000000000000000000000 000000000000000000000000000000000000000     00000000                                                                                                                        000000000000000000
F0010000008446800002000090020547900041450500000000000000000201604050002001COMERCIALIZADORA DAC DEL CARIBE S.A.S.            C000000005900000000000000000000000100010010000000000000000000000F0010000008446800220160405000101 00000000000000000000000000000000000000000000000000000000000000000000000000000000000000000000000000000000000000000N 00000000000NCONT   00    00000000000          00000000000000000000000000000000000000000000 000000000000000A000000000000000000000000000000000000000000000 000000000000000000000000000000000000000     00000000                                                                                                                        000000000000000000
F0010000008446800003000090020547900042505000000000000000000201604050002001COMERCIALIZADORA DAC DEL CARIBE S.A.S.            C000000004291900000000000000000000100010010000000000000000000000F0010000008446800320160405000101 00000000000000000000000000000000000000000000000000000000000000000000000000000000000000000000000000000000000000000N 00000000000NCONT   00    00000000000          00000000000000000000000000000000000000000000 000000000000000A000000000000000000000000000000000000000000000 000000000000000000000000000000000000000     00000000                                                                                                                        000000000000000000
F0010000008446800004000090020547900023658300000000000000000201604050002001COMERCIALIZADORA DAC DEL CARIBE S.A.S.            C000000000047200000000000000000000100010010000000000000000000000F0010000008446800420160405000101 00000000000000000000000000000000000000000000000000000000000000000000000000000000000000000000000000000000000000000N 00000000000NCONT   00    00000000000          00000000000000000000000000000000000000000000 000000000000000A000000000000000000000000000000000000000000000 000000000000000000000000000000000000000     00000000                                                                                                                        000000000000000000
F0010000008446800005000090020547900013552100000000000000000201604050002001COMERCIALIZADORA DAC DEL CARIBE S.A.S.            D000000000047200000000000000000000100010010000000000000000000000F0010000008446800520160405000101 00000000000000000000000000000000000000000000000000000000000000000000000000000000000000000000000000000000000000000N 00000000000NCONT   00    00000000000          00000000000000000000000000000000000000000000 000000000000000A000000000000000000000000000000000000000000000 000000000000000000000000000000000000000     00000000                                                                                                                        000000000000000000
F0010000008446900001000090001973700013050500000000000000000201604050002001DISTRIBUIDORA Y PAPELERIA VENEPLAS LTDA           D000000006300000000000000000000000100010010000000000000000000000F0010000008446900120160405000101 00000000000000000000000000000000000000000000000000000000000000000000000000000000000000000000000000000000000000000N 00000000000NCONT   00    00000000000          00000000000000000000000000000000000000000000 000000000000000A000000000000000000000000000000000000000000000 000000000000000000000000000000000000000     00000000                                                                                                                        000000000000000000
F0010000008446900002000090001973700041450500000000000000000201604050002001DISTRIBUIDORA Y PAPELERIA VENEPLAS LTDA           C000000006200000000000000000000000100010010000000000000000000000F0010000008446900220160405000101 00000000000000000000000000000000000000000000000000000000000000000000000000000000000000000000000000000000000000000N 00000000000NCONT   00    00000000000          00000000000000000000000000000000000000000000 000000000000000A000000000000000000000000000000000000000000000 000000000000000000000000000000000000000     00000000                                                                                                                        000000000000000000
F0010000008446900003000090001973700042505000000000000000000201604050002001DISTRIBUIDORA Y PAPELERIA VENEPLAS LTDA           C000000000100000000000000000000000100010010000000000000000000000F0010000008446900320160405000101 00000000000000000000000000000000000000000000000000000000000000000000000000000000000000000000000000000000000000000N 00000000000NCONT   00    00000000000          00000000000000000000000000000000000000000000 000000000000000A000000000000000000000000000000000000000000000 000000000000000000000000000000000000000     00000000                                                                                                                        000000000000000000
F0010000008446900004000090001973700023658300000000000000000201604050002001DISTRIBUIDORA Y PAPELERIA VENEPLAS LTDA           C000000000049600000000000000000000100010010000000000000000000000F0010000008446900420160405000101 00000000000000000000000000000000000000000000000000000000000000000000000000000000000000000000000000000000000000000N 00000000000NCONT   00    00000000000          00000000000000000000000000000000000000000000 000000000000000A000000000000000000000000000000000000000000000 000000000000000000000000000000000000000     00000000                                                                                                                        000000000000000000
F0010000008446900005000090001973700013552100000000000000000201604050002001DISTRIBUIDORA Y PAPELERIA VENEPLAS LTDA           D000000000049600000000000000000000100010010000000000000000000000F0010000008446900520160405000101 00000000000000000000000000000000000000000000000000000000000000000000000000000000000000000000000000000000000000000N 00000000000NCONT   00    00000000000          00000000000000000000000000000000000000000000 000000000000000A000000000000000000000000000000000000000000000 000000000000000000000000000000000000000     00000000                                                                                                                        000000000000000000
F0010000008447000001000090044920600013050500000000000000000201604050002001QUATRO CARIBE SAS                                 D000000020310000000000000000000000100010010000000000000000000000F0010000008447000120160405000101 00000000000000000000000000000000000000000000000000000000000000000000000000000000000000000000000000000000000000000N 00000000000NCONT   00    00000000000          00000000000000000000000000000000000000000000 000000000000000A000000000000000000000000000000000000000000000 000000000000000000000000000000000000000     00000000                                                                                                                        000000000000000000
F0010000008447000002000090044920600041450500000000000000000201604050002001QUATRO CARIBE SAS                                 C000000016890000000000000000000000100010010000000000000000000000F0010000008447000220160405000101 00000000000000000000000000000000000000000000000000000000000000000000000000000000000000000000000000000000000000000N 00000000000NCONT   00    00000000000          00000000000000000000000000000000000000000000 000000000000000A000000000000000000000000000000000000000000000 000000000000000000000000000000000000000     00000000                                                                                                                        000000000000000000
F0010000008447000003000090044920600042505000000000000000000201604050002001QUATRO CARIBE SAS                                 C000000003420000000000000000000000100010010000000000000000000000F0010000008447000320160405000101 00000000000000000000000000000000000000000000000000000000000000000000000000000000000000000000000000000000000000000N 00000000000NCONT   00    00000000000          00000000000000000000000000000000000000000000 000000000000000A000000000000000000000000000000000000000000000 000000000000000000000000000000000000000     00000000                                                                                                                        000000000000000000
F0010000008447000004000090044920600023658300000000000000000201604050002001QUATRO CARIBE SAS                                 C000000000135100000000000000000000100010010000000000000000000000F0010000008447000420160405000101 00000000000000000000000000000000000000000000000000000000000000000000000000000000000000000000000000000000000000000N 00000000000NCONT   00    00000000000          00000000000000000000000000000000000000000000 000000000000000A000000000000000000000000000000000000000000000 000000000000000000000000000000000000000     00000000                                                                                                                        000000000000000000
F0010000008447000005000090044920600013552100000000000000000201604050002001QUATRO CARIBE SAS                                 D000000000135100000000000000000000100010010000000000000000000000F0010000008447000520160405000101 00000000000000000000000000000000000000000000000000000000000000000000000000000000000000000000000000000000000000000N 00000000000NCONT   00    00000000000          00000000000000000000000000000000000000000000 000000000000000A000000000000000000000000000000000000000000000 000000000000000000000000000000000000000     00000000                                                                                                                        000000000000000000
F0010000008447100001000083008772100013050500000000000000000201604050002001ILUMEC SAS                                        D000000015230000000000000000000000100010010000000000000000000000F0010000008447100120160405000101 00000000000000000000000000000000000000000000000000000000000000000000000000000000000000000000000000000000000000000N 00000000000NCONT   00    00000000000          00000000000000000000000000000000000000000000 000000000000000A000000000000000000000000000000000000000000000 000000000000000000000000000000000000000     00000000                                                                                                                        000000000000000000
F0010000008447100002000083008772100041450500000000000000000201604050002001ILUMEC SAS                                        C000000008580000000000000000000000100010010000000000000000000000F0010000008447100220160405000101 00000000000000000000000000000000000000000000000000000000000000000000000000000000000000000000000000000000000000000N 00000000000NCONT   00    00000000000          00000000000000000000000000000000000000000000 000000000000000A000000000000000000000000000000000000000000000 000000000000000000000000000000000000000     00000000                                                                                                                        000000000000000000
F0010000008447100003000083008772100042505000000000000000000201604050002001ILUMEC SAS                                        C000000006650000000000000000000000100010010000000000000000000000F0010000008447100320160405000101 00000000000000000000000000000000000000000000000000000000000000000000000000000000000000000000000000000000000000000N 00000000000NCONT   00    00000000000          00000000000000000000000000000000000000000000 000000000000000A000000000000000000000000000000000000000000000 000000000000000000000000000000000000000     00000000                                                                                                                        000000000000000000
F0010000008447100004000083008772100023658300000000000000000201604050002001ILUMEC SAS                                        C000000000068600000000000000000000100010010000000000000000000000F0010000008447100420160405000101 00000000000000000000000000000000000000000000000000000000000000000000000000000000000000000000000000000000000000000N 00000000000NCONT   00    00000000000          00000000000000000000000000000000000000000000 000000000000000A000000000000000000000000000000000000000000000 000000000000000000000000000000000000000     00000000                                                                                                                        000000000000000000
F0010000008447100005000083008772100013552100000000000000000201604050002001ILUMEC SAS                                        D000000000068600000000000000000000100010010000000000000000000000F0010000008447100520160405000101 00000000000000000000000000000000000000000000000000000000000000000000000000000000000000000000000000000000000000000N 00000000000NCONT   00    00000000000          00000000000000000000000000000000000000000000 000000000000000A000000000000000000000000000000000000000000000 000000000000000000000000000000000000000     00000000                                                                                                                        000000000000000000
F0010000008447200001000000431178400013050500000000000000000201604050002001EFRAIN ALVAREZ                                    D000000016115000000000000000000000100010010000000000000000000000F0010000008447200120160405000101 00000000000000000000000000000000000000000000000000000000000000000000000000000000000000000000000000000000000000000N 00000000000NCONT   00    00000000000          00000000000000000000000000000000000000000000 000000000000000A000000000000000000000000000000000000000000000 000000000000000000000000000000000000000     00000000                                                                                                                        000000000000000000
F0010000008447200002000000431178400041450500000000000000000201604050002001EFRAIN ALVAREZ                                    C000000014890000000000000000000000100010010000000000000000000000F0010000008447200220160405000101 00000000000000000000000000000000000000000000000000000000000000000000000000000000000000000000000000000000000000000N 00000000000NCONT   00    00000000000          00000000000000000000000000000000000000000000 000000000000000A000000000000000000000000000000000000000000000 000000000000000000000000000000000000000     00000000                                                                                                                        000000000000000000
F0010000008447200003000000431178400042505000000000000000000201604050002001EFRAIN ALVAREZ                                    C000000001225000000000000000000000100010010000000000000000000000F0010000008447200320160405000101 00000000000000000000000000000000000000000000000000000000000000000000000000000000000000000000000000000000000000000N 00000000000NCONT   00    00000000000          00000000000000000000000000000000000000000000 000000000000000A000000000000000000000000000000000000000000000 000000000000000000000000000000000000000     00000000                                                                                                                        000000000000000000
F0010000008447200004000000431178400023658300000000000000000201604050002001EFRAIN ALVAREZ                                    C000000000119100000000000000000000100010010000000000000000000000F0010000008447200420160405000101 00000000000000000000000000000000000000000000000000000000000000000000000000000000000000000000000000000000000000000N 00000000000NCONT   00    00000000000          00000000000000000000000000000000000000000000 000000000000000A000000000000000000000000000000000000000000000 000000000000000000000000000000000000000     00000000                                                                                                                        000000000000000000
F0010000008447200005000000431178400013552100000000000000000201604050002001EFRAIN ALVAREZ                                    D000000000119100000000000000000000100010010000000000000000000000F0010000008447200520160405000101 00000000000000000000000000000000000000000000000000000000000000000000000000000000000000000000000000000000000000000N 00000000000NCONT   00    00000000000          00000000000000000000000000000000000000000000 000000000000000A000000000000000000000000000000000000000000000 000000000000000000000000000000000000000     00000000                                                                                                                        000000000000000000
F0010000008447300001000080202132300013050500000000000000000201604050002001SUM Y SERV DE LA COSTA LTDA                       D000000016402000000000000000000000100010010000000000000000000000F0010000008447300120160405000101 00000000000000000000000000000000000000000000000000000000000000000000000000000000000000000000000000000000000000000N 00000000000NCONT   00    00000000000          00000000000000000000000000000000000000000000 000000000000000A000000000000000000000000000000000000000000000 000000000000000000000000000000000000000     00000000                                                                                                                        000000000000000000
F0010000008447300002000080202132300041450500000000000000000201604050002001SUM Y SERV DE LA COSTA LTDA                       C000000015500000000000000000000000100010010000000000000000000000F0010000008447300220160405000101 00000000000000000000000000000000000000000000000000000000000000000000000000000000000000000000000000000000000000000N 00000000000NCONT   00    00000000000          00000000000000000000000000000000000000000000 000000000000000A000000000000000000000000000000000000000000000 000000000000000000000000000000000000000     00000000                                                                                                                        000000000000000000
F0010000008447300003000080202132300042505000000000000000000201604050002001SUM Y SERV DE LA COSTA LTDA                       C000000000902000000000000000000000100010010000000000000000000000F0010000008447300320160405000101 00000000000000000000000000000000000000000000000000000000000000000000000000000000000000000000000000000000000000000N 00000000000NCONT   00    00000000000          00000000000000000000000000000000000000000000 000000000000000A000000000000000000000000000000000000000000000 000000000000000000000000000000000000000     00000000                                                                                                                        000000000000000000
F0010000008447300004000080202132300023658300000000000000000201604050002001SUM Y SERV DE LA COSTA LTDA                       C000000000124000000000000000000000100010010000000000000000000000F0010000008447300420160405000101 00000000000000000000000000000000000000000000000000000000000000000000000000000000000000000000000000000000000000000N 00000000000NCONT   00    00000000000          00000000000000000000000000000000000000000000 000000000000000A000000000000000000000000000000000000000000000 000000000000000000000000000000000000000     00000000                                                                                                                        000000000000000000
F0010000008447300005000080202132300013552100000000000000000201604050002001SUM Y SERV DE LA COSTA LTDA                       D000000000124000000000000000000000100010010000000000000000000000F0010000008447300520160405000101 00000000000000000000000000000000000000000000000000000000000000000000000000000000000000000000000000000000000000000N 00000000000NCONT   00    00000000000          00000000000000000000000000000000000000000000 000000000000000A000000000000000000000000000000000000000000000 000000000000000000000000000000000000000     00000000                                                                                                                        000000000000000000
F0010000008447400001000000870907300013050500000000000000000201604050002001SURTIDOR FERRETERO                                D000000032072000000000000000000000100010010000000000000000000000F0010000008447400120160405000101 00000000000000000000000000000000000000000000000000000000000000000000000000000000000000000000000000000000000000000N 00000000000NCONT   00    00000000000          00000000000000000000000000000000000000000000 000000000000000A000000000000000000000000000000000000000000000 000000000000000000000000000000000000000     00000000                                                                                                                        000000000000000000
F0010000008447400002000000870907300041450500000000000000000201604050002001SURTIDOR FERRETERO                                C000000028620000000000000000000000100010010000000000000000000000F0010000008447400220160405000101 00000000000000000000000000000000000000000000000000000000000000000000000000000000000000000000000000000000000000000N 00000000000NCONT   00    00000000000          00000000000000000000000000000000000000000000 000000000000000A000000000000000000000000000000000000000000000 000000000000000000000000000000000000000     00000000                                                                                                                        000000000000000000
F0010000008447400003000000870907300041750100000000000000000201604050002001SURTIDOR FERRETERO                                D000000002862000000000000000000000100010010000000000000000000000F0010000008447400320160405000101 00000000000000000000000000000000000000000000000000000000000000000000000000000000000000000000000000000000000000000N 00000000000NCONT   00    00000000000          00000000000000000000000000000000000000000000 000000000000000A000000000000000000000000000000000000000000000 000000000000000000000000000000000000000     00000000                                                                                                                        000000000000000000
F0010000008447400004000000870907300042505000000000000000000201604050002001SURTIDOR FERRETERO                                C000000006314000000000000000000000100010010000000000000000000000F0010000008447400420160405000101 00000000000000000000000000000000000000000000000000000000000000000000000000000000000000000000000000000000000000000N 00000000000NCONT   00    00000000000          00000000000000000000000000000000000000000000 000000000000000A000000000000000000000000000000000000000000000 000000000000000000000000000000000000000     00000000                                                                                                                        000000000000000000
F0010000008447400005000000870907300023658300000000000000000201604050002001SURTIDOR FERRETERO                                C000000000229000000000000000000000100010010000000000000000000000F0010000008447400520160405000101 00000000000000000000000000000000000000000000000000000000000000000000000000000000000000000000000000000000000000000N 00000000000NCONT   00    00000000000          00000000000000000000000000000000000000000000 000000000000000A000000000000000000000000000000000000000000000 000000000000000000000000000000000000000     00000000                                                                                                                        000000000000000000
F0010000008447400006000000870907300013552100000000000000000201604050002001SURTIDOR FERRETERO                                D000000000229000000000000000000000100010010000000000000000000000F0010000008447400620160405000101 00000000000000000000000000000000000000000000000000000000000000000000000000000000000000000000000000000000000000000N 00000000000NCONT   00    00000000000          00000000000000000000000000000000000000000000 000000000000000A000000000000000000000000000000000000000000000 000000000000000000000000000000000000000     00000000                                                                                                                        000000000000000000
F0010000008447500001000089010272700013050500000000000000000201604050002001ALFONSOEME S.A.                                   D000000047985100000000000000000000100010010000000000000000000000F0010000008447500120160405000101 00000000000000000000000000000000000000000000000000000000000000000000000000000000000000000000000000000000000000000N 00000000000NCONT   00    00000000000          00000000000000000000000000000000000000000000 000000000000000A000000000000000000000000000000000000000000000 000000000000000000000000000000000000000     00000000                                                                                                                        000000000000000000
F0010000008447500002000089010272700041450500000000000000000201604050002001ALFONSOEME S.A.                                   C000000049583500000000000000000000100010010000000000000000000000F0010000008447500220160405000101 00000000000000000000000000000000000000000000000000000000000000000000000000000000000000000000000000000000000000000N 00000000000NCONT   00    00000000000          00000000000000000000000000000000000000000000 000000000000000A000000000000000000000000000000000000000000000 000000000000000000000000000000000000000     00000000                                                                                                                        000000000000000000
F0010000008447500003000089010272700041750100000000000000000201604050002001ALFONSOEME S.A.                                   D000000004958400000000000000000000100010010000000000000000000000F0010000008447500320160405000101 00000000000000000000000000000000000000000000000000000000000000000000000000000000000000000000000000000000000000000N 00000000000NCONT   00    00000000000          00000000000000000000000000000000000000000000 000000000000000A000000000000000000000000000000000000000000000 000000000000000000000000000000000000000     00000000                                                                                                                        000000000000000000
F0010000008447500004000089010272700042505000000000000000000201604050002001ALFONSOEME S.A.                                   C000000003360000000000000000000000100010010000000000000000000000F0010000008447500420160405000101 00000000000000000000000000000000000000000000000000000000000000000000000000000000000000000000000000000000000000000N 00000000000NCONT   00    00000000000          00000000000000000000000000000000000000000000 000000000000000A000000000000000000000000000000000000000000000 000000000000000000000000000000000000000     00000000                                                                                                                        000000000000000000
F0010000008447500005000089010272700023658300000000000000000201604050002001ALFONSOEME S.A.                                   C000000000396700000000000000000000100010010000000000000000000000F0010000008447500520160405000101 00000000000000000000000000000000000000000000000000000000000000000000000000000000000000000000000000000000000000000N 00000000000NCONT   00    00000000000          00000000000000000000000000000000000000000000 000000000000000A000000000000000000000000000000000000000000000 000000000000000000000000000000000000000     00000000                                                                                                                        000000000000000000
F0010000008447500006000089010272700013552100000000000000000201604050002001ALFONSOEME S.A.                                   D000000000396700000000000000000000100010010000000000000000000000F0010000008447500620160405000101 00000000000000000000000000000000000000000000000000000000000000000000000000000000000000000000000000000000000000000N 00000000000NCONT   00    00000000000          00000000000000000000000000000000000000000000 000000000000000A000000000000000000000000000000000000000000000 000000000000000000000000000000000000000     00000000                                                                                                                        000000000000000000
F0010000008447600001000089010272700013050500000000000000000201604050002001ALFONSOEME S.A.                                   D000000012310900000000000000000000100010010000000000000000000000F0010000008447600120160405000101 00000000000000000000000000000000000000000000000000000000000000000000000000000000000000000000000000000000000000000N 00000000000NCONT   00    00000000000          00000000000000000000000000000000000000000000 000000000000000A000000000000000000000000000000000000000000000 000000000000000000000000000000000000000     00000000                                                                                                                        000000000000000000
F0010000008447600002000089010272700041450500000000000000000201604050002001ALFONSOEME S.A.                                   C000000012701000000000000000000000100010010000000000000000000000F0010000008447600220160405000101 00000000000000000000000000000000000000000000000000000000000000000000000000000000000000000000000000000000000000000N 00000000000NCONT   00    00000000000          00000000000000000000000000000000000000000000 000000000000000A000000000000000000000000000000000000000000000 000000000000000000000000000000000000000     00000000                                                                                                                        000000000000000000
F0010000008447600003000089010272700041750100000000000000000201604050002001ALFONSOEME S.A.                                   D000000001270100000000000000000000100010010000000000000000000000F0010000008447600320160405000101 00000000000000000000000000000000000000000000000000000000000000000000000000000000000000000000000000000000000000000N 00000000000NCONT   00    00000000000          00000000000000000000000000000000000000000000 000000000000000A000000000000000000000000000000000000000000000 000000000000000000000000000000000000000     00000000                                                                                                                        000000000000000000
F0010000008447600004000089010272700042505000000000000000000201604050002001ALFONSOEME S.A.                                   C000000000880000000000000000000000100010010000000000000000000000F0010000008447600420160405000101 00000000000000000000000000000000000000000000000000000000000000000000000000000000000000000000000000000000000000000N 00000000000NCONT   00    00000000000          00000000000000000000000000000000000000000000 000000000000000A000000000000000000000000000000000000000000000 000000000000000000000000000000000000000     00000000                                                                                                                        000000000000000000
F0010000008447600005000089010272700023658300000000000000000201604050002001ALFONSOEME S.A.                                   C000000000101600000000000000000000100010010000000000000000000000F0010000008447600520160405000101 00000000000000000000000000000000000000000000000000000000000000000000000000000000000000000000000000000000000000000N 00000000000NCONT   00    00000000000          00000000000000000000000000000000000000000000 000000000000000A000000000000000000000000000000000000000000000 000000000000000000000000000000000000000     00000000                                                                                                                        000000000000000000
F0010000008447600006000089010272700013552100000000000000000201604050002001ALFONSOEME S.A.                                   D000000000101600000000000000000000100010010000000000000000000000F0010000008447600620160405000101 00000000000000000000000000000000000000000000000000000000000000000000000000000000000000000000000000000000000000000N 00000000000NCONT   00    00000000000          00000000000000000000000000000000000000000000 000000000000000A000000000000000000000000000000000000000000000 000000000000000000000000000000000000000     00000000                                                                                                                        000000000000000000
F0010000008447700001000004175790100013050500000000000000000201604050002001ROSIRIS FERIA HOYOS  (COSM. SHILLER)              D000000010600000000000000000000000100010010000000000000000000000F0010000008447700120160405000101 00000000000000000000000000000000000000000000000000000000000000000000000000000000000000000000000000000000000000000N 00000000000NCONT   00    00000000000          00000000000000000000000000000000000000000000 000000000000000A000000000000000000000000000000000000000000000 000000000000000000000000000000000000000     00000000                                                                                                                        000000000000000000
F0010000008447700002000004175790100041450500000000000000000201604050002001ROSIRIS FERIA HOYOS  (COSM. SHILLER)              C000000008600000000000000000000000100010010000000000000000000000F0010000008447700220160405000101 00000000000000000000000000000000000000000000000000000000000000000000000000000000000000000000000000000000000000000N 00000000000NCONT   00    00000000000          00000000000000000000000000000000000000000000 000000000000000A000000000000000000000000000000000000000000000 000000000000000000000000000000000000000     00000000                                                                                                                        000000000000000000
F0010000008447700003000004175790100042505000000000000000000201604050002001ROSIRIS FERIA HOYOS  (COSM. SHILLER)              C000000002000000000000000000000000100010010000000000000000000000F0010000008447700320160405000101 00000000000000000000000000000000000000000000000000000000000000000000000000000000000000000000000000000000000000000N 00000000000NCONT   00    00000000000          00000000000000000000000000000000000000000000 000000000000000A000000000000000000000000000000000000000000000 000000000000000000000000000000000000000     00000000                                                                                                                        000000000000000000
F0010000008447700004000004175790100023658300000000000000000201604050002001ROSIRIS FERIA HOYOS  (COSM. SHILLER)              C000000000068800000000000000000000100010010000000000000000000000F0010000008447700420160405000101 00000000000000000000000000000000000000000000000000000000000000000000000000000000000000000000000000000000000000000N 00000000000NCONT   00    00000000000          00000000000000000000000000000000000000000000 000000000000000A000000000000000000000000000000000000000000000 000000000000000000000000000000000000000     00000000                                                                                                                        000000000000000000
F0010000008447700005000004175790100013552100000000000000000201604050002001ROSIRIS FERIA HOYOS  (COSM. SHILLER)              D000000000068800000000000000000000100010010000000000000000000000F0010000008447700520160405000101 00000000000000000000000000000000000000000000000000000000000000000000000000000000000000000000000000000000000000000N 00000000000NCONT   00    00000000000          00000000000000000000000000000000000000000000 000000000000000A000000000000000000000000000000000000000000000 000000000000000000000000000000000000000     00000000                                                                                                                        000000000000000000
F0010000008447800001000090019362000013050500000000000000000201604050002001GENERAL SUPPLIES CIA LTDA                         D000000014864000000000000000000000100010010000000000000000000000F0010000008447800120160405000101 00000000000000000000000000000000000000000000000000000000000000000000000000000000000000000000000000000000000000000N 00000000000NCONT   00    00000000000          00000000000000000000000000000000000000000000 000000000000000A000000000000000000000000000000000000000000000 000000000000000000000000000000000000000     00000000                                                                                                                        000000000000000000
F0010000008447800002000090019362000041450500000000000000000201604050002001GENERAL SUPPLIES CIA LTDA                         C000000014140000000000000000000000100010010000000000000000000000F0010000008447800220160405000101 00000000000000000000000000000000000000000000000000000000000000000000000000000000000000000000000000000000000000000N 00000000000NCONT   00    00000000000          00000000000000000000000000000000000000000000 000000000000000A000000000000000000000000000000000000000000000 000000000000000000000000000000000000000     00000000                                                                                                                        000000000000000000
F0010000008447800003000090019362000042505000000000000000000201604050002001GENERAL SUPPLIES CIA LTDA                         C000000000724000000000000000000000100010010000000000000000000000F0010000008447800320160405000101 00000000000000000000000000000000000000000000000000000000000000000000000000000000000000000000000000000000000000000N 00000000000NCONT   00    00000000000          00000000000000000000000000000000000000000000 000000000000000A000000000000000000000000000000000000000000000 000000000000000000000000000000000000000     00000000                                                                                                                        000000000000000000
F0010000008447800004000090019362000023658300000000000000000201604050002001GENERAL SUPPLIES CIA LTDA                         C000000000113100000000000000000000100010010000000000000000000000F0010000008447800420160405000101 00000000000000000000000000000000000000000000000000000000000000000000000000000000000000000000000000000000000000000N 00000000000NCONT   00    00000000000          00000000000000000000000000000000000000000000 000000000000000A000000000000000000000000000000000000000000000 000000000000000000000000000000000000000     00000000                                                                                                                        000000000000000000
F0010000008447800005000090019362000013552100000000000000000201604050002001GENERAL SUPPLIES CIA LTDA                         D000000000113100000000000000000000100010010000000000000000000000F0010000008447800520160405000101 00000000000000000000000000000000000000000000000000000000000000000000000000000000000000000000000000000000000000000N 00000000000NCONT   00    00000000000          00000000000000000000000000000000000000000000 000000000000000A000000000000000000000000000000000000000000000 000000000000000000000000000000000000000     00000000                                                                                                                        000000000000000000
F0010000008447900001000007215896800013050500000000000000000201604050002001EDDIER CIRO                                       D000000044808800000000000000000000100010010000000000000000000000F0010000008447900120160405000101 00000000000000000000000000000000000000000000000000000000000000000000000000000000000000000000000000000000000000000N 00000000000NCONT   00    00000000000          00000000000000000000000000000000000000000000 000000000000000A000000000000000000000000000000000000000000000 000000000000000000000000000000000000000     00000000                                                                                                                        000000000000000000
F0010000008447900002000007215896800041450500000000000000000201604050002001EDDIER CIRO                                       C000000032270000000000000000000000100010010000000000000000000000F0010000008447900220160405000101 00000000000000000000000000000000000000000000000000000000000000000000000000000000000000000000000000000000000000000N 00000000000NCONT   00    00000000000          00000000000000000000000000000000000000000000 000000000000000A000000000000000000000000000000000000000000000 000000000000000000000000000000000000000     00000000                                                                                                                        000000000000000000
F0010000008447900003000007215896800042505000000000000000000201604050002001EDDIER CIRO                                       C000000012538800000000000000000000100010010000000000000000000000F0010000008447900320160405000101 00000000000000000000000000000000000000000000000000000000000000000000000000000000000000000000000000000000000000000N 00000000000NCONT   00    00000000000          00000000000000000000000000000000000000000000 000000000000000A000000000000000000000000000000000000000000000 000000000000000000000000000000000000000     00000000                                                                                                                        000000000000000000
F0010000008447900004000007215896800023658300000000000000000201604050002001EDDIER CIRO                                       C000000000258200000000000000000000100010010000000000000000000000F0010000008447900420160405000101 00000000000000000000000000000000000000000000000000000000000000000000000000000000000000000000000000000000000000000N 00000000000NCONT   00    00000000000          00000000000000000000000000000000000000000000 000000000000000A000000000000000000000000000000000000000000000 000000000000000000000000000000000000000     00000000                                                                                                                        000000000000000000
F0010000008447900005000007215896800013552100000000000000000201604050002001EDDIER CIRO                                       D000000000258200000000000000000000100010010000000000000000000000F0010000008447900520160405000101 00000000000000000000000000000000000000000000000000000000000000000000000000000000000000000000000000000000000000000N 00000000000NCONT   00    00000000000          00000000000000000000000000000000000000000000 000000000000000A000000000000000000000000000000000000000000000 000000000000000000000000000000000000000     00000000                                                                                                                        000000000000000000
F0010000008448000001000089031248700013050500000000000000000201604050002001DISTRIBUIDORA CALIPLASTICOS LTDA                  D000000121313900000000000000000000100010010000000000000000000000F0010000008448000120160405000101 00000000000000000000000000000000000000000000000000000000000000000000000000000000000000000000000000000000000000000N 00000000000NCONT   00    00000000000          00000000000000000000000000000000000000000000 000000000000000A000000000000000000000000000000000000000000000 000000000000000000000000000000000000000     00000000                                                                                                                        000000000000000000
F0010000008448000002000089031248700041450500000000000000000201604050002001DISTRIBUIDORA CALIPLASTICOS LTDA                  C000000117853900000000000000000000100010010000000000000000000000F0010000008448000220160405000101 00000000000000000000000000000000000000000000000000000000000000000000000000000000000000000000000000000000000000000N 00000000000NCONT   00    00000000000          00000000000000000000000000000000000000000000 000000000000000A000000000000000000000000000000000000000000000 000000000000000000000000000000000000000     00000000                                                                                                                        000000000000000000
F0010000008448000003000089031248700042505000000000000000000201604050002001DISTRIBUIDORA CALIPLASTICOS LTDA                  C000000003460000000000000000000000100010010000000000000000000000F0010000008448000320160405000101 00000000000000000000000000000000000000000000000000000000000000000000000000000000000000000000000000000000000000000N 00000000000NCONT   00    00000000000          00000000000000000000000000000000000000000000 000000000000000A000000000000000000000000000000000000000000000 000000000000000000000000000000000000000     00000000                                                                                                                        000000000000000000
F0010000008448000004000089031248700023658300000000000000000201604050002001DISTRIBUIDORA CALIPLASTICOS LTDA                  C000000000942800000000000000000000100010010000000000000000000000F0010000008448000420160405000101 00000000000000000000000000000000000000000000000000000000000000000000000000000000000000000000000000000000000000000N 00000000000NCONT   00    00000000000          00000000000000000000000000000000000000000000 000000000000000A000000000000000000000000000000000000000000000 000000000000000000000000000000000000000     00000000                                                                                                                        000000000000000000
F0010000008448000005000089031248700013552100000000000000000201604050002001DISTRIBUIDORA CALIPLASTICOS LTDA                  D000000000942800000000000000000000100010010000000000000000000000F0010000008448000520160405000101 00000000000000000000000000000000000000000000000000000000000000000000000000000000000000000000000000000000000000000N 00000000000NCONT   00    00000000000          00000000000000000000000000000000000000000000 000000000000000A000000000000000000000000000000000000000000000 000000000000000000000000000000000000000     00000000                                                                                                                        000000000000000000
F0010000008448100001000090013324200013050500000000000000000201604050002001PLASTICOHEN E.U                                   D000000023800000000000000000000000100010010000000000000000000000F0010000008448100120160405000101 00000000000000000000000000000000000000000000000000000000000000000000000000000000000000000000000000000000000000000N 00000000000NCONT   00    00000000000          00000000000000000000000000000000000000000000 000000000000000A000000000000000000000000000000000000000000000 000000000000000000000000000000000000000     00000000                                                                                                                        000000000000000000
F0010000008448100002000090013324200041450500000000000000000201604050002001PLASTICOHEN E.U                                   C000000021800000000000000000000000100010010000000000000000000000F0010000008448100220160405000101 00000000000000000000000000000000000000000000000000000000000000000000000000000000000000000000000000000000000000000N 00000000000NCONT   00    00000000000          00000000000000000000000000000000000000000000 000000000000000A000000000000000000000000000000000000000000000 000000000000000000000000000000000000000     00000000                                                                                                                        000000000000000000
F0010000008448100003000090013324200042505000000000000000000201604050002001PLASTICOHEN E.U                                   C000000002000000000000000000000000100010010000000000000000000000F0010000008448100320160405000101 00000000000000000000000000000000000000000000000000000000000000000000000000000000000000000000000000000000000000000N 00000000000NCONT   00    00000000000          00000000000000000000000000000000000000000000 000000000000000A000000000000000000000000000000000000000000000 000000000000000000000000000000000000000     00000000                                                                                                                        000000000000000000
F0010000008448100004000090013324200023658300000000000000000201604050002001PLASTICOHEN E.U                                   C000000000174400000000000000000000100010010000000000000000000000F0010000008448100420160405000101 00000000000000000000000000000000000000000000000000000000000000000000000000000000000000000000000000000000000000000N 00000000000NCONT   00    00000000000          00000000000000000000000000000000000000000000 000000000000000A000000000000000000000000000000000000000000000 000000000000000000000000000000000000000     00000000                                                                                                                        000000000000000000
F0010000008448100005000090013324200013552100000000000000000201604050002001PLASTICOHEN E.U                                   D000000000174400000000000000000000100010010000000000000000000000F0010000008448100520160405000101 00000000000000000000000000000000000000000000000000000000000000000000000000000000000000000000000000000000000000000N 00000000000NCONT   00    00000000000          00000000000000000000000000000000000000000000 000000000000000A000000000000000000000000000000000000000000000 000000000000000000000000000000000000000     00000000                                                                                                                        000000000000000000
F0010000008448200001000000744822500013050500000000000000000201604050002001LABORATORIO Y PERFUMERIA BORGE                    D000000006812000000000000000000000100010010000000000000000000000F0010000008448200120160405000101 00000000000000000000000000000000000000000000000000000000000000000000000000000000000000000000000000000000000000000N 00000000000NCONT   00    00000000000          00000000000000000000000000000000000000000000 000000000000000A000000000000000000000000000000000000000000000 000000000000000000000000000000000000000     00000000                                                                                                                        000000000000000000
F0010000008448200002000000744822500041450500000000000000000201604050002001LABORATORIO Y PERFUMERIA BORGE                    C000000005207000000000000000000000100010010000000000000000000000F0010000008448200220160405000101 00000000000000000000000000000000000000000000000000000000000000000000000000000000000000000000000000000000000000000N 00000000000NCONT   00    00000000000          00000000000000000000000000000000000000000000 000000000000000A000000000000000000000000000000000000000000000 000000000000000000000000000000000000000     00000000                                                                                                                        000000000000000000
F0010000008448200003000000744822500042505000000000000000000201604050002001LABORATORIO Y PERFUMERIA BORGE                    C000000001605000000000000000000000100010010000000000000000000000F0010000008448200320160405000101 00000000000000000000000000000000000000000000000000000000000000000000000000000000000000000000000000000000000000000N 00000000000NCONT   00    00000000000          00000000000000000000000000000000000000000000 000000000000000A000000000000000000000000000000000000000000000 000000000000000000000000000000000000000     00000000                                                                                                                        000000000000000000
F0010000008448200004000000744822500023658300000000000000000201604050002001LABORATORIO Y PERFUMERIA BORGE                    C000000000041700000000000000000000100010010000000000000000000000F0010000008448200420160405000101 00000000000000000000000000000000000000000000000000000000000000000000000000000000000000000000000000000000000000000N 00000000000NCONT   00    00000000000          00000000000000000000000000000000000000000000 000000000000000A000000000000000000000000000000000000000000000 000000000000000000000000000000000000000     00000000                                                                                                                        000000000000000000
F0010000008448200005000000744822500013552100000000000000000201604050002001LABORATORIO Y PERFUMERIA BORGE                    D000000000041700000000000000000000100010010000000000000000000000F0010000008448200520160405000101 00000000000000000000000000000000000000000000000000000000000000000000000000000000000000000000000000000000000000000N 00000000000NCONT   00    00000000000          00000000000000000000000000000000000000000000 000000000000000A000000000000000000000000000000000000000000000 000000000000000000000000000000000000000     00000000                                                                                                                        000000000000000000
F0010000008448300001000089010952800013050500000000000000000201604050002001IND. LITOGRAF. BOSTON S.A.S.                      D000000028840000000000000000000000100010010000000000000000000000F0010000008448300120160405000101 00000000000000000000000000000000000000000000000000000000000000000000000000000000000000000000000000000000000000000N 00000000000NCONT   00    00000000000          00000000000000000000000000000000000000000000 000000000000000A000000000000000000000000000000000000000000000 000000000000000000000000000000000000000     00000000                                                                                                                        000000000000000000
F0010000008448300002000089010952800041450500000000000000000201604050002001IND. LITOGRAF. BOSTON S.A.S.                      C000000025740000000000000000000000100010010000000000000000000000F0010000008448300220160405000101 00000000000000000000000000000000000000000000000000000000000000000000000000000000000000000000000000000000000000000N 00000000000NCONT   00    00000000000          00000000000000000000000000000000000000000000 000000000000000A000000000000000000000000000000000000000000000 000000000000000000000000000000000000000     00000000                                                                                                                        000000000000000000
F0010000008448300003000089010952800042505000000000000000000201604050002001IND. LITOGRAF. BOSTON S.A.S.                      C000000003100000000000000000000000100010010000000000000000000000F0010000008448300320160405000101 00000000000000000000000000000000000000000000000000000000000000000000000000000000000000000000000000000000000000000N 00000000000NCONT   00    00000000000          00000000000000000000000000000000000000000000 000000000000000A000000000000000000000000000000000000000000000 000000000000000000000000000000000000000     00000000                                                                                                                        000000000000000000
F0010000008448300004000089010952800023658300000000000000000201604050002001IND. LITOGRAF. BOSTON S.A.S.                      C000000000205900000000000000000000100010010000000000000000000000F0010000008448300420160405000101 00000000000000000000000000000000000000000000000000000000000000000000000000000000000000000000000000000000000000000N 00000000000NCONT   00    00000000000          00000000000000000000000000000000000000000000 000000000000000A000000000000000000000000000000000000000000000 000000000000000000000000000000000000000     00000000                                                                                                                        000000000000000000
F0010000008448300005000089010952800013552100000000000000000201604050002001IND. LITOGRAF. BOSTON S.A.S.                      D000000000205900000000000000000000100010010000000000000000000000F0010000008448300520160405000101 00000000000000000000000000000000000000000000000000000000000000000000000000000000000000000000000000000000000000000N 00000000000NCONT   00    00000000000          00000000000000000000000000000000000000000000 000000000000000A000000000000000000000000000000000000000000000 000000000000000000000000000000000000000     00000000                                                                                                                        000000000000000000
F0010000008448400001000080201127600013050500000000000000000201604050002001ELECTRICOS DEL RUIZ S.A.S.                        D000000029560600000000000000000000100010010000000000000000000000F0010000008448400120160405000101 00000000000000000000000000000000000000000000000000000000000000000000000000000000000000000000000000000000000000000N 00000000000NCONT   00    00000000000          00000000000000000000000000000000000000000000 000000000000000A000000000000000000000000000000000000000000000 000000000000000000000000000000000000000     00000000                                                                                                                        000000000000000000
F0010000008448400002000080201127600041450500000000000000000201604050002001ELECTRICOS DEL RUIZ S.A.S.                        C000000022440000000000000000000000100010010000000000000000000000F0010000008448400220160405000101 00000000000000000000000000000000000000000000000000000000000000000000000000000000000000000000000000000000000000000N 00000000000NCONT   00    00000000000          00000000000000000000000000000000000000000000 000000000000000A000000000000000000000000000000000000000000000 000000000000000000000000000000000000000     00000000                                                                                                                        000000000000000000
F0010000008448400003000080201127600042505000000000000000000201604050002001ELECTRICOS DEL RUIZ S.A.S.                        C000000007120600000000000000000000100010010000000000000000000000F0010000008448400320160405000101 00000000000000000000000000000000000000000000000000000000000000000000000000000000000000000000000000000000000000000N 00000000000NCONT   00    00000000000          00000000000000000000000000000000000000000000 000000000000000A000000000000000000000000000000000000000000000 000000000000000000000000000000000000000     00000000                                                                                                                        000000000000000000
F0010000008448400004000080201127600023658300000000000000000201604050002001ELECTRICOS DEL RUIZ S.A.S.                        C000000000179500000000000000000000100010010000000000000000000000F0010000008448400420160405000101 00000000000000000000000000000000000000000000000000000000000000000000000000000000000000000000000000000000000000000N 00000000000NCONT   00    00000000000          00000000000000000000000000000000000000000000 000000000000000A000000000000000000000000000000000000000000000 000000000000000000000000000000000000000     00000000                                                                                                                        000000000000000000
F0010000008448400005000080201127600013552100000000000000000201604050002001ELECTRICOS DEL RUIZ S.A.S.                        D000000000179500000000000000000000100010010000000000000000000000F0010000008448400520160405000101 00000000000000000000000000000000000000000000000000000000000000000000000000000000000000000000000000000000000000000N 00000000000NCONT   00    00000000000          00000000000000000000000000000000000000000000 000000000000000A000000000000000000000000000000000000000000000 000000000000000000000000000000000000000     00000000                                                                                                                        000000000000000000
F0010000008448500001000090001800700013050500000000000000000201604050002001EXPORTEXA S.A.S.                                  D000000066367300000000000000000000100010010000000000000000000000F0010000008448500120160405000101 00000000000000000000000000000000000000000000000000000000000000000000000000000000000000000000000000000000000000000N 00000000000NCONT   00    00000000000          00000000000000000000000000000000000000000000 000000000000000A000000000000000000000000000000000000000000000 000000000000000000000000000000000000000     00000000                                                                                                                        000000000000000000
F0010000008448500002000090001800700041450500000000000000000201604050002001EXPORTEXA S.A.S.                                  C000000055814300000000000000000000100010010000000000000000000000F0010000008448500220160405000101 00000000000000000000000000000000000000000000000000000000000000000000000000000000000000000000000000000000000000000N 00000000000NCONT   00    00000000000          00000000000000000000000000000000000000000000 000000000000000A000000000000000000000000000000000000000000000 000000000000000000000000000000000000000     00000000                                                                                                                        000000000000000000
F0010000008448500003000090001800700042505000000000000000000201604050002001EXPORTEXA S.A.S.                                  C000000010553000000000000000000000100010010000000000000000000000F0010000008448500320160405000101 00000000000000000000000000000000000000000000000000000000000000000000000000000000000000000000000000000000000000000N 00000000000NCONT   00    00000000000          00000000000000000000000000000000000000000000 000000000000000A000000000000000000000000000000000000000000000 000000000000000000000000000000000000000     00000000                                                                                                                        000000000000000000
F0010000008448500004000090001800700023658300000000000000000201604050002001EXPORTEXA S.A.S.                                  C000000000446500000000000000000000100010010000000000000000000000F0010000008448500420160405000101 00000000000000000000000000000000000000000000000000000000000000000000000000000000000000000000000000000000000000000N 00000000000NCONT   00    00000000000          00000000000000000000000000000000000000000000 000000000000000A000000000000000000000000000000000000000000000 000000000000000000000000000000000000000     00000000                                                                                                                        000000000000000000
F0010000008448500005000090001800700013552100000000000000000201604050002001EXPORTEXA S.A.S.                                  D000000000446500000000000000000000100010010000000000000000000000F0010000008448500520160405000101 00000000000000000000000000000000000000000000000000000000000000000000000000000000000000000000000000000000000000000N 00000000000NCONT   00    00000000000          00000000000000000000000000000000000000000000 000000000000000A000000000000000000000000000000000000000000000 000000000000000000000000000000000000000     00000000                                                                                                                        000000000000000000
F0010000008448600001000090038852800013050500000000000000000201604050002001EL COMERCIO ELECTRICO DE LA CO                    D000000014590000000000000000000000100010010000000000000000000000F0010000008448600120160405000101 00000000000000000000000000000000000000000000000000000000000000000000000000000000000000000000000000000000000000000N 00000000000NCONT   00    00000000000          00000000000000000000000000000000000000000000 000000000000000A000000000000000000000000000000000000000000000 000000000000000000000000000000000000000     00000000                                                                                                                        000000000000000000
F0010000008448600002000090038852800041450500000000000000000201604050002001EL COMERCIO ELECTRICO DE LA CO                    C000000011940000000000000000000000100010010000000000000000000000F0010000008448600220160405000101 00000000000000000000000000000000000000000000000000000000000000000000000000000000000000000000000000000000000000000N 00000000000NCONT   00    00000000000          00000000000000000000000000000000000000000000 000000000000000A000000000000000000000000000000000000000000000 000000000000000000000000000000000000000     00000000                                                                                                                        000000000000000000
F0010000008448600003000090038852800042505000000000000000000201604050002001EL COMERCIO ELECTRICO DE LA CO                    C000000002650000000000000000000000100010010000000000000000000000F0010000008448600320160405000101 00000000000000000000000000000000000000000000000000000000000000000000000000000000000000000000000000000000000000000N 00000000000NCONT   00    00000000000          00000000000000000000000000000000000000000000 000000000000000A000000000000000000000000000000000000000000000 000000000000000000000000000000000000000     00000000                                                                                                                        000000000000000000
F0010000008448600004000090038852800023658300000000000000000201604050002001EL COMERCIO ELECTRICO DE LA CO                    C000000000095500000000000000000000100010010000000000000000000000F0010000008448600420160405000101 00000000000000000000000000000000000000000000000000000000000000000000000000000000000000000000000000000000000000000N 00000000000NCONT   00    00000000000          00000000000000000000000000000000000000000000 000000000000000A000000000000000000000000000000000000000000000 000000000000000000000000000000000000000     00000000                                                                                                                        000000000000000000
F0010000008448600005000090038852800013552100000000000000000201604050002001EL COMERCIO ELECTRICO DE LA CO                    D000000000095500000000000000000000100010010000000000000000000000F0010000008448600520160405000101 00000000000000000000000000000000000000000000000000000000000000000000000000000000000000000000000000000000000000000N 00000000000NCONT   00    00000000000          00000000000000000000000000000000000000000000 000000000000000A000000000000000000000000000000000000000000000 000000000000000000000000000000000000000     00000000                                                                                                                        000000000000000000
F0010000008448700001000089011078600013050500000000000000000201604050002001DIST. NUEVO MUNDO S.A.S.                          D000000015924300000000000000000000100010010000000000000000000000F0010000008448700120160405000101 00000000000000000000000000000000000000000000000000000000000000000000000000000000000000000000000000000000000000000N 00000000000NCONT   00    00000000000          00000000000000000000000000000000000000000000 000000000000000A000000000000000000000000000000000000000000000 000000000000000000000000000000000000000     00000000                                                                                                                        000000000000000000
F0010000008448700002000089011078600041450500000000000000000201604050002001DIST. NUEVO MUNDO S.A.S.                          C000000014700000000000000000000000100010010000000000000000000000F0010000008448700220160405000101 00000000000000000000000000000000000000000000000000000000000000000000000000000000000000000000000000000000000000000N 00000000000NCONT   00    00000000000          00000000000000000000000000000000000000000000 000000000000000A000000000000000000000000000000000000000000000 000000000000000000000000000000000000000     00000000                                                                                                                        000000000000000000
F0010000008448700003000089011078600042505000000000000000000201604050002001DIST. NUEVO MUNDO S.A.S.                          C000000001224300000000000000000000100010010000000000000000000000F0010000008448700320160405000101 00000000000000000000000000000000000000000000000000000000000000000000000000000000000000000000000000000000000000000N 00000000000NCONT   00    00000000000          00000000000000000000000000000000000000000000 000000000000000A000000000000000000000000000000000000000000000 000000000000000000000000000000000000000     00000000                                                                                                                        000000000000000000
F0010000008448700004000089011078600023658300000000000000000201604050002001DIST. NUEVO MUNDO S.A.S.                          C000000000117600000000000000000000100010010000000000000000000000F0010000008448700420160405000101 00000000000000000000000000000000000000000000000000000000000000000000000000000000000000000000000000000000000000000N 00000000000NCONT   00    00000000000          00000000000000000000000000000000000000000000 000000000000000A000000000000000000000000000000000000000000000 000000000000000000000000000000000000000     00000000                                                                                                                        000000000000000000
F0010000008448700005000089011078600013552100000000000000000201604050002001DIST. NUEVO MUNDO S.A.S.                          D000000000117600000000000000000000100010010000000000000000000000F0010000008448700520160405000101 00000000000000000000000000000000000000000000000000000000000000000000000000000000000000000000000000000000000000000N 00000000000NCONT   00    00000000000          00000000000000000000000000000000000000000000 000000000000000A000000000000000000000000000000000000000000000 000000000000000000000000000000000000000     00000000                                                                                                                        000000000000000000
F0010000008448800001000086003979400013050500000000000000000201604050002001CALYPSO BARRANQUILLA LTDA                         D000000012049500000000000000000000100010010000000000000000000000F0010000008448800120160405000101 00000000000000000000000000000000000000000000000000000000000000000000000000000000000000000000000000000000000000000N 00000000000NCONT   00    00000000000          00000000000000000000000000000000000000000000 000000000000000A000000000000000000000000000000000000000000000 000000000000000000000000000000000000000     00000000                                                                                                                        000000000000000000
F0010000008448800002000086003979400041450500000000000000000201604050002001CALYPSO BARRANQUILLA LTDA                         C000000010520000000000000000000000100010010000000000000000000000F0010000008448800220160405000101 00000000000000000000000000000000000000000000000000000000000000000000000000000000000000000000000000000000000000000N 00000000000NCONT   00    00000000000          00000000000000000000000000000000000000000000 000000000000000A000000000000000000000000000000000000000000000 000000000000000000000000000000000000000     00000000                                                                                                                        000000000000000000
F0010000008448800003000086003979400042505000000000000000000201604050002001CALYPSO BARRANQUILLA LTDA                         C000000001529500000000000000000000100010010000000000000000000000F0010000008448800320160405000101 00000000000000000000000000000000000000000000000000000000000000000000000000000000000000000000000000000000000000000N 00000000000NCONT   00    00000000000          00000000000000000000000000000000000000000000 000000000000000A000000000000000000000000000000000000000000000 000000000000000000000000000000000000000     00000000                                                                                                                        000000000000000000
F0010000008448800004000086003979400023658300000000000000000201604050002001CALYPSO BARRANQUILLA LTDA                         C000000000084200000000000000000000100010010000000000000000000000F0010000008448800420160405000101 00000000000000000000000000000000000000000000000000000000000000000000000000000000000000000000000000000000000000000N 00000000000NCONT   00    00000000000          00000000000000000000000000000000000000000000 000000000000000A000000000000000000000000000000000000000000000 000000000000000000000000000000000000000     00000000                                                                                                                        000000000000000000
F0010000008448800005000086003979400013552100000000000000000201604050002001CALYPSO BARRANQUILLA LTDA                         D000000000084200000000000000000000100010010000000000000000000000F0010000008448800520160405000101 00000000000000000000000000000000000000000000000000000000000000000000000000000000000000000000000000000000000000000N 00000000000NCONT   00    00000000000          00000000000000000000000000000000000000000000 000000000000000A000000000000000000000000000000000000000000000 000000000000000000000000000000000000000     00000000                                                                                                                        000000000000000000
F0010000008448900001000081102758700013050500000000000000000201604050002001C.I. ABRACOL S.A EMA                              D000000052749300000000000000000000100010010000000000000000000000F0010000008448900120160405000101 00000000000000000000000000000000000000000000000000000000000000000000000000000000000000000000000000000000000000000N 00000000000NCONT   00    00000000000          00000000000000000000000000000000000000000000 000000000000000A000000000000000000000000000000000000000000000 000000000000000000000000000000000000000     00000000                                                                                                                        000000000000000000
F0010000008448900002000081102758700041450500000000000000000201604050002001C.I. ABRACOL S.A EMA                              C000000028750000000000000000000000100010010000000000000000000000F0010000008448900220160405000101 00000000000000000000000000000000000000000000000000000000000000000000000000000000000000000000000000000000000000000N 00000000000NCONT   00    00000000000          00000000000000000000000000000000000000000000 000000000000000A000000000000000000000000000000000000000000000 000000000000000000000000000000000000000     00000000                                                                                                                        000000000000000000
F0010000008448900003000081102758700041750100000000000000000201604050002001C.I. ABRACOL S.A EMA                              D000000000862500000000000000000000100010010000000000000000000000F0010000008448900320160405000101 00000000000000000000000000000000000000000000000000000000000000000000000000000000000000000000000000000000000000000N 00000000000NCONT   00    00000000000          00000000000000000000000000000000000000000000 000000000000000A000000000000000000000000000000000000000000000 000000000000000000000000000000000000000     00000000                                                                                                                        000000000000000000
F0010000008448900004000081102758700042505000000000000000000201604050002001C.I. ABRACOL S.A EMA                              C000000024861800000000000000000000100010010000000000000000000000F0010000008448900420160405000101 00000000000000000000000000000000000000000000000000000000000000000000000000000000000000000000000000000000000000000N 00000000000NCONT   00    00000000000          00000000000000000000000000000000000000000000 000000000000000A000000000000000000000000000000000000000000000 000000000000000000000000000000000000000     00000000                                                                                                                        000000000000000000
F0010000008448900005000081102758700023658300000000000000000201604050002001C.I. ABRACOL S.A EMA                              C000000000230000000000000000000000100010010000000000000000000000F0010000008448900520160405000101 00000000000000000000000000000000000000000000000000000000000000000000000000000000000000000000000000000000000000000N 00000000000NCONT   00    00000000000          00000000000000000000000000000000000000000000 000000000000000A000000000000000000000000000000000000000000000 000000000000000000000000000000000000000     00000000                                                                                                                        000000000000000000
F0010000008448900006000081102758700013552100000000000000000201604050002001C.I. ABRACOL S.A EMA                              D000000000230000000000000000000000100010010000000000000000000000F0010000008448900620160405000101 00000000000000000000000000000000000000000000000000000000000000000000000000000000000000000000000000000000000000000N 00000000000NCONT   00    00000000000          00000000000000000000000000000000000000000000 000000000000000A000000000000000000000000000000000000000000000 000000000000000000000000000000000000000     00000000                                                                                                                        000000000000000000
F0010000008449000001000081102758700013050500000000000000000201604050002001C.I. ABRACOL S.A EMA                              D000000089718400000000000000000000100010010000000000000000000000F0010000008449000120160405000101 00000000000000000000000000000000000000000000000000000000000000000000000000000000000000000000000000000000000000000N 00000000000NCONT   00    00000000000          00000000000000000000000000000000000000000000 000000000000000A000000000000000000000000000000000000000000000 000000000000000000000000000000000000000     00000000                                                                                                                        000000000000000000
F0010000008449000002000081102758700041450500000000000000000201604050002001C.I. ABRACOL S.A EMA                              C000000057920000000000000000000000100010010000000000000000000000F0010000008449000220160405000101 00000000000000000000000000000000000000000000000000000000000000000000000000000000000000000000000000000000000000000N 00000000000NCONT   00    00000000000          00000000000000000000000000000000000000000000 000000000000000A000000000000000000000000000000000000000000000 000000000000000000000000000000000000000     00000000                                                                                                                        000000000000000000
F0010000008449000003000081102758700041750100000000000000000201604050002001C.I. ABRACOL S.A EMA                              D000000001737600000000000000000000100010010000000000000000000000F0010000008449000320160405000101 00000000000000000000000000000000000000000000000000000000000000000000000000000000000000000000000000000000000000000N 00000000000NCONT   00    00000000000          00000000000000000000000000000000000000000000 000000000000000A000000000000000000000000000000000000000000000 000000000000000000000000000000000000000     00000000                                                                                                                        000000000000000000
F0010000008449000004000081102758700042505000000000000000000201604050002001C.I. ABRACOL S.A EMA                              C000000033536000000000000000000000100010010000000000000000000000F0010000008449000420160405000101 00000000000000000000000000000000000000000000000000000000000000000000000000000000000000000000000000000000000000000N 00000000000NCONT   00    00000000000          00000000000000000000000000000000000000000000 000000000000000A000000000000000000000000000000000000000000000 000000000000000000000000000000000000000     00000000                                                                                                                        000000000000000000
F0010000008449000005000081102758700023658300000000000000000201604050002001C.I. ABRACOL S.A EMA                              C000000000463400000000000000000000100010010000000000000000000000F0010000008449000520160405000101 00000000000000000000000000000000000000000000000000000000000000000000000000000000000000000000000000000000000000000N 00000000000NCONT   00    00000000000          00000000000000000000000000000000000000000000 000000000000000A000000000000000000000000000000000000000000000 000000000000000000000000000000000000000     00000000                                                                                                                        000000000000000000
F0010000008449000006000081102758700013552100000000000000000201604050002001C.I. ABRACOL S.A EMA                              D000000000463400000000000000000000100010010000000000000000000000F0010000008449000620160405000101 00000000000000000000000000000000000000000000000000000000000000000000000000000000000000000000000000000000000000000N 00000000000NCONT   00    00000000000          00000000000000000000000000000000000000000000 000000000000000A000000000000000000000000000000000000000000000 000000000000000000000000000000000000000     00000000                                                                                                                        000000000000000000
F0010000008449100001000003265780700011050500000000000000000201604050002001ZUNILDA GUERRERO                                  D000000001200000000000000000000000100010010000000000000000000000F0010000008449100120160405000101 00000000000000000000000000000000000000000000000000000000000000000000000000000000000000000000000000000000000000000N 00000000000NCONT   00    00000000000          00000000000000000000000000000000000000000000 000000000000000A000000000000000000000000000000000000000000000 000000000000000000000000000000000000000     00000000                                                                                                                        000000000000000000
F0010000008449100002000003265780700041450500000000000000000201604050002001ZUNILDA GUERRERO                                  C000000001000000000000000000000000100010010000000000000000000000F0010000008449100220160405000101 00000000000000000000000000000000000000000000000000000000000000000000000000000000000000000000000000000000000000000N 00000000000NCONT   00    00000000000          00000000000000000000000000000000000000000000 000000000000000A000000000000000000000000000000000000000000000 000000000000000000000000000000000000000     00000000                                                                                                                        000000000000000000
F0010000008449100003000003265780700042505000000000000000000201604050002001ZUNILDA GUERRERO                                  C000000000200000000000000000000000100010010000000000000000000000F0010000008449100320160405000101 00000000000000000000000000000000000000000000000000000000000000000000000000000000000000000000000000000000000000000N 00000000000NCONT   00    00000000000          00000000000000000000000000000000000000000000 000000000000000A000000000000000000000000000000000000000000000 000000000000000000000000000000000000000     00000000                                                                                                                        000000000000000000
F0010000008449100004000003265780700023658300000000000000000201604050002001ZUNILDA GUERRERO                                  C000000000008000000000000000000000100010010000000000000000000000F0010000008449100420160405000101 00000000000000000000000000000000000000000000000000000000000000000000000000000000000000000000000000000000000000000N 00000000000NCONT   00    00000000000          00000000000000000000000000000000000000000000 000000000000000A000000000000000000000000000000000000000000000 000000000000000000000000000000000000000     00000000                                                                                                                        000000000000000000
F0010000008449100005000003265780700013552100000000000000000201604050002001ZUNILDA GUERRERO                                  D000000000008000000000000000000000100010010000000000000000000000F0010000008449100520160405000101 00000000000000000000000000000000000000000000000000000000000000000000000000000000000000000000000000000000000000000N 00000000000NCONT   00    00000000000          00000000000000000000000000000000000000000000 000000000000000A000000000000000000000000000000000000000000000 000000000000000000000000000000000000000     00000000                                                                                                                        000000000000000000
F0010000008449200001000114084725100011050500000000000000000201604050002001COMERCIALIZADORA KONAR .. ..                      D000000001000000000000000000000000100010010000000000000000000000F0010000008449200120160405000101 00000000000000000000000000000000000000000000000000000000000000000000000000000000000000000000000000000000000000000N 00000000000NCONT   00    00000000000          00000000000000000000000000000000000000000000 000000000000000A000000000000000000000000000000000000000000000 000000000000000000000000000000000000000     00000000                                                                                                                        000000000000000000
F0010000008449200002000114084725100041450500000000000000000201604050002001COMERCIALIZADORA KONAR .. ..                      C000000000900000000000000000000000100010010000000000000000000000F0010000008449200220160405000101 00000000000000000000000000000000000000000000000000000000000000000000000000000000000000000000000000000000000000000N 00000000000NCONT   00    00000000000          00000000000000000000000000000000000000000000 000000000000000A000000000000000000000000000000000000000000000 000000000000000000000000000000000000000     00000000                                                                                                                        000000000000000000
