F0010000008885800001000003207718300011050500000000000000000201607220002001MARIA GILMA RAMIREZ GARCIA                        D000000006000000000000000000000000100010010000000000000000000000F0010000008885800120160722000101 00000000000000000000000000000000000000000000000000000000000000000000000000000000000000000000000000000000000000000N 00000000000NCONT   00    00000000000          00000000000000000000000000000000000000000000 000000000000000A000000000000000000000000000000000000000000000 000000000000000000000000000000000000000     00000000                                                                                                                        000000000000000000
F0010000008885800002000003207718300041450500000000000000000201607220002001MARIA GILMA RAMIREZ GARCIA                        C000000005200000000000000000000000100010010000000000000000000000F0010000008885800220160722000101 00000000000000000000000000000000000000000000000000000000000000000000000000000000000000000000000000000000000000000N 00000000000NCONT   00    00000000000          00000000000000000000000000000000000000000000 000000000000000A000000000000000000000000000000000000000000000 000000000000000000000000000000000000000     00000000                                                                                                                        000000000000000000
F0010000008885800003000003207718300042505000000000000000000201607220002001MARIA GILMA RAMIREZ GARCIA                        C000000000800000000000000000000000100010010000000000000000000000F0010000008885800320160722000101 00000000000000000000000000000000000000000000000000000000000000000000000000000000000000000000000000000000000000000N 00000000000NCONT   00    00000000000          00000000000000000000000000000000000000000000 000000000000000A000000000000000000000000000000000000000000000 000000000000000000000000000000000000000     00000000                                                                                                                        000000000000000000
F0010000008885800004000003207718300023658300000000000000000201607220002001MARIA GILMA RAMIREZ GARCIA                        C000000000041600000000000000000000100010010000000000000000000000F0010000008885800420160722000101 00000000000000000000000000000000000000000000000000000000000000000000000000000000000000000000000000000000000000000N 00000000000NCONT   00    00000000000          00000000000000000000000000000000000000000000 000000000000000A000000000000000000000000000000000000000000000 000000000000000000000000000000000000000     00000000                                                                                                                        000000000000000000
F0010000008885800005000003207718300013552100000000000000000201607220002001MARIA GILMA RAMIREZ GARCIA                        D000000000041600000000000000000000100010010000000000000000000000F0010000008885800520160722000101 00000000000000000000000000000000000000000000000000000000000000000000000000000000000000000000000000000000000000000N 00000000000NCONT   00    00000000000          00000000000000000000000000000000000000000000 000000000000000A000000000000000000000000000000000000000000000 000000000000000000000000000000000000000     00000000                                                                                                                        000000000000000000
F0010000008885900001000090073498600011050500000000000000000201607220002001VALTAC S.A.S                                      D000000002000000000000000000000000100010010000000000000000000000F0010000008885900120160722000101 00000000000000000000000000000000000000000000000000000000000000000000000000000000000000000000000000000000000000000N 00000000000NCONT   00    00000000000          00000000000000000000000000000000000000000000 000000000000000A000000000000000000000000000000000000000000000 000000000000000000000000000000000000000     00000000                                                                                                                        000000000000000000
F0010000008885900002000090073498600041450500000000000000000201607220002001VALTAC S.A.S                                      C000000001800000000000000000000000100010010000000000000000000000F0010000008885900220160722000101 00000000000000000000000000000000000000000000000000000000000000000000000000000000000000000000000000000000000000000N 00000000000NCONT   00    00000000000          00000000000000000000000000000000000000000000 000000000000000A000000000000000000000000000000000000000000000 000000000000000000000000000000000000000     00000000                                                                                                                        000000000000000000
F0010000008885900003000090073498600042505000000000000000000201607220002001VALTAC S.A.S                                      C000000000200000000000000000000000100010010000000000000000000000F0010000008885900320160722000101 00000000000000000000000000000000000000000000000000000000000000000000000000000000000000000000000000000000000000000N 00000000000NCONT   00    00000000000          00000000000000000000000000000000000000000000 000000000000000A000000000000000000000000000000000000000000000 000000000000000000000000000000000000000     00000000                                                                                                                        000000000000000000
F0010000008885900004000090073498600023658300000000000000000201607220002001VALTAC S.A.S                                      C000000000014400000000000000000000100010010000000000000000000000F0010000008885900420160722000101 00000000000000000000000000000000000000000000000000000000000000000000000000000000000000000000000000000000000000000N 00000000000NCONT   00    00000000000          00000000000000000000000000000000000000000000 000000000000000A000000000000000000000000000000000000000000000 000000000000000000000000000000000000000     00000000                                                                                                                        000000000000000000
F0010000008885900005000090073498600013552100000000000000000201607220002001VALTAC S.A.S                                      D000000000014400000000000000000000100010010000000000000000000000F0010000008885900520160722000101 00000000000000000000000000000000000000000000000000000000000000000000000000000000000000000000000000000000000000000N 00000000000NCONT   00    00000000000          00000000000000000000000000000000000000000000 000000000000000A000000000000000000000000000000000000000000000 000000000000000000000000000000000000000     00000000                                                                                                                        000000000000000000
F0010000008886000001000000878369700011050500000000000000000201607220002001REYNALDO PANZA DE LA HOZ                          D000000001100000000000000000000000100010010000000000000000000000F0010000008886000120160722000101 00000000000000000000000000000000000000000000000000000000000000000000000000000000000000000000000000000000000000000N 00000000000NCONT   00    00000000000          00000000000000000000000000000000000000000000 000000000000000A000000000000000000000000000000000000000000000 000000000000000000000000000000000000000     00000000                                                                                                                        000000000000000000
F0010000008886000002000000878369700041450500000000000000000201607220002001REYNALDO PANZA DE LA HOZ                          C000000001000000000000000000000000100010010000000000000000000000F0010000008886000220160722000101 00000000000000000000000000000000000000000000000000000000000000000000000000000000000000000000000000000000000000000N 00000000000NCONT   00    00000000000          00000000000000000000000000000000000000000000 000000000000000A000000000000000000000000000000000000000000000 000000000000000000000000000000000000000     00000000                                                                                                                        000000000000000000
F0010000008886000003000000878369700042505000000000000000000201607220002001REYNALDO PANZA DE LA HOZ                          C000000000100000000000000000000000100010010000000000000000000000F0010000008886000320160722000101 00000000000000000000000000000000000000000000000000000000000000000000000000000000000000000000000000000000000000000N 00000000000NCONT   00    00000000000          00000000000000000000000000000000000000000000 000000000000000A000000000000000000000000000000000000000000000 000000000000000000000000000000000000000     00000000                                                                                                                        000000000000000000
F0010000008886000004000000878369700023658300000000000000000201607220002001REYNALDO PANZA DE LA HOZ                          C000000000008000000000000000000000100010010000000000000000000000F0010000008886000420160722000101 00000000000000000000000000000000000000000000000000000000000000000000000000000000000000000000000000000000000000000N 00000000000NCONT   00    00000000000          00000000000000000000000000000000000000000000 000000000000000A000000000000000000000000000000000000000000000 000000000000000000000000000000000000000     00000000                                                                                                                        000000000000000000
F0010000008886000005000000878369700013552100000000000000000201607220002001REYNALDO PANZA DE LA HOZ                          D000000000008000000000000000000000100010010000000000000000000000F0010000008886000520160722000101 00000000000000000000000000000000000000000000000000000000000000000000000000000000000000000000000000000000000000000N 00000000000NCONT   00    00000000000          00000000000000000000000000000000000000000000 000000000000000A000000000000000000000000000000000000000000000 000000000000000000000000000000000000000     00000000                                                                                                                        000000000000000000
F0010000008886100001000080201411900011050500000000000000000201607220002001PLASTISERVICIOS S DE H                            D000000001500000000000000000000000100010010000000000000000000000F0010000008886100120160722000101 00000000000000000000000000000000000000000000000000000000000000000000000000000000000000000000000000000000000000000N 00000000000NCONT   00    00000000000          00000000000000000000000000000000000000000000 000000000000000A000000000000000000000000000000000000000000000 000000000000000000000000000000000000000     00000000                                                                                                                        000000000000000000
F0010000008886100002000080201411900041450500000000000000000201607220002001PLASTISERVICIOS S DE H                            C000000001000000000000000000000000100010010000000000000000000000F0010000008886100220160722000101 00000000000000000000000000000000000000000000000000000000000000000000000000000000000000000000000000000000000000000N 00000000000NCONT   00    00000000000          00000000000000000000000000000000000000000000 000000000000000A000000000000000000000000000000000000000000000 000000000000000000000000000000000000000     00000000                                                                                                                        000000000000000000
F0010000008886100003000080201411900042505000000000000000000201607220002001PLASTISERVICIOS S DE H                            C000000000500000000000000000000000100010010000000000000000000000F0010000008886100320160722000101 00000000000000000000000000000000000000000000000000000000000000000000000000000000000000000000000000000000000000000N 00000000000NCONT   00    00000000000          00000000000000000000000000000000000000000000 000000000000000A000000000000000000000000000000000000000000000 000000000000000000000000000000000000000     00000000                                                                                                                        000000000000000000
F0010000008886100004000080201411900023658300000000000000000201607220002001PLASTISERVICIOS S DE H                            C000000000008000000000000000000000100010010000000000000000000000F0010000008886100420160722000101 00000000000000000000000000000000000000000000000000000000000000000000000000000000000000000000000000000000000000000N 00000000000NCONT   00    00000000000          00000000000000000000000000000000000000000000 000000000000000A000000000000000000000000000000000000000000000 000000000000000000000000000000000000000     00000000                                                                                                                        000000000000000000
F0010000008886100005000080201411900013552100000000000000000201607220002001PLASTISERVICIOS S DE H                            D000000000008000000000000000000000100010010000000000000000000000F0010000008886100520160722000101 00000000000000000000000000000000000000000000000000000000000000000000000000000000000000000000000000000000000000000N 00000000000NCONT   00    00000000000          00000000000000000000000000000000000000000000 000000000000000A000000000000000000000000000000000000000000000 000000000000000000000000000000000000000     00000000                                                                                                                        000000000000000000
F0010000008886200001000002269298000011050500000000000000000201607220002001MARIA PALACIO RODRIGUEZ                           D000000002500000000000000000000000100010010000000000000000000000F0010000008886200120160722000101 00000000000000000000000000000000000000000000000000000000000000000000000000000000000000000000000000000000000000000N 00000000000NCONT   00    00000000000          00000000000000000000000000000000000000000000 000000000000000A000000000000000000000000000000000000000000000 000000000000000000000000000000000000000     00000000                                                                                                                        000000000000000000
F0010000008886200002000002269298000041450500000000000000000201607220002001MARIA PALACIO RODRIGUEZ                           C000000002000000000000000000000000100010010000000000000000000000F0010000008886200220160722000101 00000000000000000000000000000000000000000000000000000000000000000000000000000000000000000000000000000000000000000N 00000000000NCONT   00    00000000000          00000000000000000000000000000000000000000000 000000000000000A000000000000000000000000000000000000000000000 000000000000000000000000000000000000000     00000000                                                                                                                        000000000000000000
F0010000008886200003000002269298000042505000000000000000000201607220002001MARIA PALACIO RODRIGUEZ                           C000000000500000000000000000000000100010010000000000000000000000F0010000008886200320160722000101 00000000000000000000000000000000000000000000000000000000000000000000000000000000000000000000000000000000000000000N 00000000000NCONT   00    00000000000          00000000000000000000000000000000000000000000 000000000000000A000000000000000000000000000000000000000000000 000000000000000000000000000000000000000     00000000                                                                                                                        000000000000000000
F0010000008886200004000002269298000023658300000000000000000201607220002001MARIA PALACIO RODRIGUEZ                           C000000000016000000000000000000000100010010000000000000000000000F0010000008886200420160722000101 00000000000000000000000000000000000000000000000000000000000000000000000000000000000000000000000000000000000000000N 00000000000NCONT   00    00000000000          00000000000000000000000000000000000000000000 000000000000000A000000000000000000000000000000000000000000000 000000000000000000000000000000000000000     00000000                                                                                                                        000000000000000000
F0010000008886200005000002269298000013552100000000000000000201607220002001MARIA PALACIO RODRIGUEZ                           D000000000016000000000000000000000100010010000000000000000000000F0010000008886200520160722000101 00000000000000000000000000000000000000000000000000000000000000000000000000000000000000000000000000000000000000000N 00000000000NCONT   00    00000000000          00000000000000000000000000000000000000000000 000000000000000A000000000000000000000000000000000000000000000 000000000000000000000000000000000000000     00000000                                                                                                                        000000000000000000
F0010000008886300001000007213133300011050500000000000000000201607220002001ALVARO ALBERTO FANDIÑO GOMEZ                     D000000001100000000000000000000000100010010000000000000000000000F0010000008886300120160722000101 00000000000000000000000000000000000000000000000000000000000000000000000000000000000000000000000000000000000000000N 00000000000NCONT   00    00000000000          00000000000000000000000000000000000000000000 000000000000000A000000000000000000000000000000000000000000000 000000000000000000000000000000000000000     00000000                                                                                                                        000000000000000000
F0010000008886300002000007213133300041450500000000000000000201607220002001ALVARO ALBERTO FANDIÑO GOMEZ                     C000000001000000000000000000000000100010010000000000000000000000F0010000008886300220160722000101 00000000000000000000000000000000000000000000000000000000000000000000000000000000000000000000000000000000000000000N 00000000000NCONT   00    00000000000          00000000000000000000000000000000000000000000 000000000000000A000000000000000000000000000000000000000000000 000000000000000000000000000000000000000     00000000                                                                                                                        000000000000000000
F0010000008886300003000007213133300042505000000000000000000201607220002001ALVARO ALBERTO FANDIÑO GOMEZ                     C000000000100000000000000000000000100010010000000000000000000000F0010000008886300320160722000101 00000000000000000000000000000000000000000000000000000000000000000000000000000000000000000000000000000000000000000N 00000000000NCONT   00    00000000000          00000000000000000000000000000000000000000000 000000000000000A000000000000000000000000000000000000000000000 000000000000000000000000000000000000000     00000000                                                                                                                        000000000000000000
F0010000008886300004000007213133300023658300000000000000000201607220002001ALVARO ALBERTO FANDIÑO GOMEZ                     C000000000008000000000000000000000100010010000000000000000000000F0010000008886300420160722000101 00000000000000000000000000000000000000000000000000000000000000000000000000000000000000000000000000000000000000000N 00000000000NCONT   00    00000000000          00000000000000000000000000000000000000000000 000000000000000A000000000000000000000000000000000000000000000 000000000000000000000000000000000000000     00000000                                                                                                                        000000000000000000
F0010000008886300005000007213133300013552100000000000000000201607220002001ALVARO ALBERTO FANDIÑO GOMEZ                     D000000000008000000000000000000000100010010000000000000000000000F0010000008886300520160722000101 00000000000000000000000000000000000000000000000000000000000000000000000000000000000000000000000000000000000000000N 00000000000NCONT   00    00000000000          00000000000000000000000000000000000000000000 000000000000000A000000000000000000000000000000000000000000000 000000000000000000000000000000000000000     00000000                                                                                                                        000000000000000000
F0010000008886400001000090034602400011050500000000000000000201607220002001PRODUCTOS NACIONALES PARAFINICOS LA CUSTODIA S.A.SD000000001300000000000000000000000100010010000000000000000000000F0010000008886400120160722000101 00000000000000000000000000000000000000000000000000000000000000000000000000000000000000000000000000000000000000000N 00000000000NCONT   00    00000000000          00000000000000000000000000000000000000000000 000000000000000A000000000000000000000000000000000000000000000 000000000000000000000000000000000000000     00000000                                                                                                                        000000000000000000
F0010000008886400002000090034602400041450500000000000000000201607220002001PRODUCTOS NACIONALES PARAFINICOS LA CUSTODIA S.A.SC000000001200000000000000000000000100010010000000000000000000000F0010000008886400220160722000101 00000000000000000000000000000000000000000000000000000000000000000000000000000000000000000000000000000000000000000N 00000000000NCONT   00    00000000000          00000000000000000000000000000000000000000000 000000000000000A000000000000000000000000000000000000000000000 000000000000000000000000000000000000000     00000000                                                                                                                        000000000000000000
F0010000008886400003000090034602400042505000000000000000000201607220002001PRODUCTOS NACIONALES PARAFINICOS LA CUSTODIA S.A.SC000000000100000000000000000000000100010010000000000000000000000F0010000008886400320160722000101 00000000000000000000000000000000000000000000000000000000000000000000000000000000000000000000000000000000000000000N 00000000000NCONT   00    00000000000          00000000000000000000000000000000000000000000 000000000000000A000000000000000000000000000000000000000000000 000000000000000000000000000000000000000     00000000                                                                                                                        000000000000000000
F0010000008886400004000090034602400023658300000000000000000201607220002001PRODUCTOS NACIONALES PARAFINICOS LA CUSTODIA S.A.SC000000000009600000000000000000000100010010000000000000000000000F0010000008886400420160722000101 00000000000000000000000000000000000000000000000000000000000000000000000000000000000000000000000000000000000000000N 00000000000NCONT   00    00000000000          00000000000000000000000000000000000000000000 000000000000000A000000000000000000000000000000000000000000000 000000000000000000000000000000000000000     00000000                                                                                                                        000000000000000000
F0010000008886400005000090034602400013552100000000000000000201607220002001PRODUCTOS NACIONALES PARAFINICOS LA CUSTODIA S.A.SD000000000009600000000000000000000100010010000000000000000000000F0010000008886400520160722000101 00000000000000000000000000000000000000000000000000000000000000000000000000000000000000000000000000000000000000000N 00000000000NCONT   00    00000000000          00000000000000000000000000000000000000000000 000000000000000A000000000000000000000000000000000000000000000 000000000000000000000000000000000000000     00000000                                                                                                                        000000000000000000
F0010000008886500001000002245670100011050500000000000000000201607220002001YOLANDA  TOBON                                    D000000001921000000000000000000000100010010000000000000000000000F0010000008886500120160722000101 00000000000000000000000000000000000000000000000000000000000000000000000000000000000000000000000000000000000000000N 00000000000NCONT   00    00000000000          00000000000000000000000000000000000000000000 000000000000000A000000000000000000000000000000000000000000000 000000000000000000000000000000000000000     00000000                                                                                                                        000000000000000000
F0010000008886500002000002245670100041450500000000000000000201607220002001YOLANDA  TOBON                                    C000000001450000000000000000000000100010010000000000000000000000F0010000008886500220160722000101 00000000000000000000000000000000000000000000000000000000000000000000000000000000000000000000000000000000000000000N 00000000000NCONT   00    00000000000          00000000000000000000000000000000000000000000 000000000000000A000000000000000000000000000000000000000000000 000000000000000000000000000000000000000     00000000                                                                                                                        000000000000000000
F0010000008886500003000002245670100042505000000000000000000201607220002001YOLANDA  TOBON                                    C000000000471000000000000000000000100010010000000000000000000000F0010000008886500320160722000101 00000000000000000000000000000000000000000000000000000000000000000000000000000000000000000000000000000000000000000N 00000000000NCONT   00    00000000000          00000000000000000000000000000000000000000000 000000000000000A000000000000000000000000000000000000000000000 000000000000000000000000000000000000000     00000000                                                                                                                        000000000000000000
F0010000008886500004000002245670100023658300000000000000000201607220002001YOLANDA  TOBON                                    C000000000011600000000000000000000100010010000000000000000000000F0010000008886500420160722000101 00000000000000000000000000000000000000000000000000000000000000000000000000000000000000000000000000000000000000000N 00000000000NCONT   00    00000000000          00000000000000000000000000000000000000000000 000000000000000A000000000000000000000000000000000000000000000 000000000000000000000000000000000000000     00000000                                                                                                                        000000000000000000
F0010000008886500005000002245670100013552100000000000000000201607220002001YOLANDA  TOBON                                    D000000000011600000000000000000000100010010000000000000000000000F0010000008886500520160722000101 00000000000000000000000000000000000000000000000000000000000000000000000000000000000000000000000000000000000000000N 00000000000NCONT   00    00000000000          00000000000000000000000000000000000000000000 000000000000000A000000000000000000000000000000000000000000000 000000000000000000000000000000000000000     00000000                                                                                                                        000000000000000000
F0010000008886600001000080201703900011050500000000000000000201607220002001MUNDIAL CHEMICAL LTDA                             D000000002365300000000000000000000100010010000000000000000000000F0010000008886600120160722000101 00000000000000000000000000000000000000000000000000000000000000000000000000000000000000000000000000000000000000000N 00000000000NCONT   00    00000000000          00000000000000000000000000000000000000000000 000000000000000A000000000000000000000000000000000000000000000 000000000000000000000000000000000000000     00000000                                                                                                                        000000000000000000
F0010000008886600002000080201703900041450500000000000000000201607220002001MUNDIAL CHEMICAL LTDA                             C000000001848300000000000000000000100010010000000000000000000000F0010000008886600220160722000101 00000000000000000000000000000000000000000000000000000000000000000000000000000000000000000000000000000000000000000N 00000000000NCONT   00    00000000000          00000000000000000000000000000000000000000000 000000000000000A000000000000000000000000000000000000000000000 000000000000000000000000000000000000000     00000000                                                                                                                        000000000000000000
F0010000008886600003000080201703900042505000000000000000000201607220002001MUNDIAL CHEMICAL LTDA                             C000000000517000000000000000000000100010010000000000000000000000F0010000008886600320160722000101 00000000000000000000000000000000000000000000000000000000000000000000000000000000000000000000000000000000000000000N 00000000000NCONT   00    00000000000          00000000000000000000000000000000000000000000 000000000000000A000000000000000000000000000000000000000000000 000000000000000000000000000000000000000     00000000                                                                                                                        000000000000000000
F0010000008886600004000080201703900023658300000000000000000201607220002001MUNDIAL CHEMICAL LTDA                             C000000000014800000000000000000000100010010000000000000000000000F0010000008886600420160722000101 00000000000000000000000000000000000000000000000000000000000000000000000000000000000000000000000000000000000000000N 00000000000NCONT   00    00000000000          00000000000000000000000000000000000000000000 000000000000000A000000000000000000000000000000000000000000000 000000000000000000000000000000000000000     00000000                                                                                                                        000000000000000000
F0010000008886600005000080201703900013552100000000000000000201607220002001MUNDIAL CHEMICAL LTDA                             D000000000014800000000000000000000100010010000000000000000000000F0010000008886600520160722000101 00000000000000000000000000000000000000000000000000000000000000000000000000000000000000000000000000000000000000000N 00000000000NCONT   00    00000000000          00000000000000000000000000000000000000000000 000000000000000A000000000000000000000000000000000000000000000 000000000000000000000000000000000000000     00000000                                                                                                                        000000000000000000
F0010000008886700001000080201703900011050500000000000000000201607220002001MUNDIAL CHEMICAL LTDA                             D000000001945000000000000000000000100010010000000000000000000000F0010000008886700120160722000101 00000000000000000000000000000000000000000000000000000000000000000000000000000000000000000000000000000000000000000N 00000000000NCONT   00    00000000000          00000000000000000000000000000000000000000000 000000000000000A000000000000000000000000000000000000000000000 000000000000000000000000000000000000000     00000000                                                                                                                        000000000000000000
F0010000008886700002000080201703900041450500000000000000000201607220002001MUNDIAL CHEMICAL LTDA                             C000000001515000000000000000000000100010010000000000000000000000F0010000008886700220160722000101 00000000000000000000000000000000000000000000000000000000000000000000000000000000000000000000000000000000000000000N 00000000000NCONT   00    00000000000          00000000000000000000000000000000000000000000 000000000000000A000000000000000000000000000000000000000000000 000000000000000000000000000000000000000     00000000                                                                                                                        000000000000000000
F0010000008886700003000080201703900042505000000000000000000201607220002001MUNDIAL CHEMICAL LTDA                             C000000000430000000000000000000000100010010000000000000000000000F0010000008886700320160722000101 00000000000000000000000000000000000000000000000000000000000000000000000000000000000000000000000000000000000000000N 00000000000NCONT   00    00000000000          00000000000000000000000000000000000000000000 000000000000000A000000000000000000000000000000000000000000000 000000000000000000000000000000000000000     00000000                                                                                                                        000000000000000000
F0010000008886700004000080201703900023658300000000000000000201607220002001MUNDIAL CHEMICAL LTDA                             C000000000012100000000000000000000100010010000000000000000000000F0010000008886700420160722000101 00000000000000000000000000000000000000000000000000000000000000000000000000000000000000000000000000000000000000000N 00000000000NCONT   00    00000000000          00000000000000000000000000000000000000000000 000000000000000A000000000000000000000000000000000000000000000 000000000000000000000000000000000000000     00000000                                                                                                                        000000000000000000
F0010000008886700005000080201703900013552100000000000000000201607220002001MUNDIAL CHEMICAL LTDA                             D000000000012100000000000000000000100010010000000000000000000000F0010000008886700520160722000101 00000000000000000000000000000000000000000000000000000000000000000000000000000000000000000000000000000000000000000N 00000000000NCONT   00    00000000000          00000000000000000000000000000000000000000000 000000000000000A000000000000000000000000000000000000000000000 000000000000000000000000000000000000000     00000000                                                                                                                        000000000000000000
F0010000008886800001000090020547900011050500000000000000000201607220002001COMERCIALIZADORA DAC DEL CARIBE S.A.S.            D000000005700000000000000000000000100010010000000000000000000000F0010000008886800120160722000101 00000000000000000000000000000000000000000000000000000000000000000000000000000000000000000000000000000000000000000N 00000000000NCONT   00    00000000000          00000000000000000000000000000000000000000000 000000000000000A000000000000000000000000000000000000000000000 000000000000000000000000000000000000000     00000000                                                                                                                        000000000000000000
F0010000008886800002000090020547900041450500000000000000000201607220002001COMERCIALIZADORA DAC DEL CARIBE S.A.S.            C000000004500000000000000000000000100010010000000000000000000000F0010000008886800220160722000101 00000000000000000000000000000000000000000000000000000000000000000000000000000000000000000000000000000000000000000N 00000000000NCONT   00    00000000000          00000000000000000000000000000000000000000000 000000000000000A000000000000000000000000000000000000000000000 000000000000000000000000000000000000000     00000000                                                                                                                        000000000000000000
F0010000008886800003000090020547900042505000000000000000000201607220002001COMERCIALIZADORA DAC DEL CARIBE S.A.S.            C000000001200000000000000000000000100010010000000000000000000000F0010000008886800320160722000101 00000000000000000000000000000000000000000000000000000000000000000000000000000000000000000000000000000000000000000N 00000000000NCONT   00    00000000000          00000000000000000000000000000000000000000000 000000000000000A000000000000000000000000000000000000000000000 000000000000000000000000000000000000000     00000000                                                                                                                        000000000000000000
F0010000008886800004000090020547900023658300000000000000000201607220002001COMERCIALIZADORA DAC DEL CARIBE S.A.S.            C000000000036000000000000000000000100010010000000000000000000000F0010000008886800420160722000101 00000000000000000000000000000000000000000000000000000000000000000000000000000000000000000000000000000000000000000N 00000000000NCONT   00    00000000000          00000000000000000000000000000000000000000000 000000000000000A000000000000000000000000000000000000000000000 000000000000000000000000000000000000000     00000000                                                                                                                        000000000000000000
F0010000008886800005000090020547900013552100000000000000000201607220002001COMERCIALIZADORA DAC DEL CARIBE S.A.S.            D000000000036000000000000000000000100010010000000000000000000000F0010000008886800520160722000101 00000000000000000000000000000000000000000000000000000000000000000000000000000000000000000000000000000000000000000N 00000000000NCONT   00    00000000000          00000000000000000000000000000000000000000000 000000000000000A000000000000000000000000000000000000000000000 000000000000000000000000000000000000000     00000000                                                                                                                        000000000000000000
F0010000008886900001000090020547900011050500000000000000000201607220002001COMERCIALIZADORA DAC DEL CARIBE S.A.S.            D000000002000000000000000000000000100010010000000000000000000000F0010000008886900120160722000101 00000000000000000000000000000000000000000000000000000000000000000000000000000000000000000000000000000000000000000N 00000000000NCONT   00    00000000000          00000000000000000000000000000000000000000000 000000000000000A000000000000000000000000000000000000000000000 000000000000000000000000000000000000000     00000000                                                                                                                        000000000000000000
F0010000008886900002000090020547900041450500000000000000000201607220002001COMERCIALIZADORA DAC DEL CARIBE S.A.S.            C000000001500000000000000000000000100010010000000000000000000000F0010000008886900220160722000101 00000000000000000000000000000000000000000000000000000000000000000000000000000000000000000000000000000000000000000N 00000000000NCONT   00    00000000000          00000000000000000000000000000000000000000000 000000000000000A000000000000000000000000000000000000000000000 000000000000000000000000000000000000000     00000000                                                                                                                        000000000000000000
F0010000008886900003000090020547900042505000000000000000000201607220002001COMERCIALIZADORA DAC DEL CARIBE S.A.S.            C000000000500000000000000000000000100010010000000000000000000000F0010000008886900320160722000101 00000000000000000000000000000000000000000000000000000000000000000000000000000000000000000000000000000000000000000N 00000000000NCONT   00    00000000000          00000000000000000000000000000000000000000000 000000000000000A000000000000000000000000000000000000000000000 000000000000000000000000000000000000000     00000000                                                                                                                        000000000000000000
F0010000008886900004000090020547900023658300000000000000000201607220002001COMERCIALIZADORA DAC DEL CARIBE S.A.S.            C000000000012000000000000000000000100010010000000000000000000000F0010000008886900420160722000101 00000000000000000000000000000000000000000000000000000000000000000000000000000000000000000000000000000000000000000N 00000000000NCONT   00    00000000000          00000000000000000000000000000000000000000000 000000000000000A000000000000000000000000000000000000000000000 000000000000000000000000000000000000000     00000000                                                                                                                        000000000000000000
F0010000008886900005000090020547900013552100000000000000000201607220002001COMERCIALIZADORA DAC DEL CARIBE S.A.S.            D000000000012000000000000000000000100010010000000000000000000000F0010000008886900520160722000101 00000000000000000000000000000000000000000000000000000000000000000000000000000000000000000000000000000000000000000N 00000000000NCONT   00    00000000000          00000000000000000000000000000000000000000000 000000000000000A000000000000000000000000000000000000000000000 000000000000000000000000000000000000000     00000000                                                                                                                        000000000000000000
F0010000008887000001000090020547900011050500000000000000000201607220002001COMERCIALIZADORA DAC DEL CARIBE S.A.S.            D000000001900000000000000000000000100010010000000000000000000000F0010000008887000120160722000101 00000000000000000000000000000000000000000000000000000000000000000000000000000000000000000000000000000000000000000N 00000000000NCONT   00    00000000000          00000000000000000000000000000000000000000000 000000000000000A000000000000000000000000000000000000000000000 000000000000000000000000000000000000000     00000000                                                                                                                        000000000000000000
F0010000008887000002000090020547900041450500000000000000000201607220002001COMERCIALIZADORA DAC DEL CARIBE S.A.S.            C000000001500000000000000000000000100010010000000000000000000000F0010000008887000220160722000101 00000000000000000000000000000000000000000000000000000000000000000000000000000000000000000000000000000000000000000N 00000000000NCONT   00    00000000000          00000000000000000000000000000000000000000000 000000000000000A000000000000000000000000000000000000000000000 000000000000000000000000000000000000000     00000000                                                                                                                        000000000000000000
F0010000008887000003000090020547900042505000000000000000000201607220002001COMERCIALIZADORA DAC DEL CARIBE S.A.S.            C000000000400000000000000000000000100010010000000000000000000000F0010000008887000320160722000101 00000000000000000000000000000000000000000000000000000000000000000000000000000000000000000000000000000000000000000N 00000000000NCONT   00    00000000000          00000000000000000000000000000000000000000000 000000000000000A000000000000000000000000000000000000000000000 000000000000000000000000000000000000000     00000000                                                                                                                        000000000000000000
F0010000008887000004000090020547900023658300000000000000000201607220002001COMERCIALIZADORA DAC DEL CARIBE S.A.S.            C000000000012000000000000000000000100010010000000000000000000000F0010000008887000420160722000101 00000000000000000000000000000000000000000000000000000000000000000000000000000000000000000000000000000000000000000N 00000000000NCONT   00    00000000000          00000000000000000000000000000000000000000000 000000000000000A000000000000000000000000000000000000000000000 000000000000000000000000000000000000000     00000000                                                                                                                        000000000000000000
F0010000008887000005000090020547900013552100000000000000000201607220002001COMERCIALIZADORA DAC DEL CARIBE S.A.S.            D000000000012000000000000000000000100010010000000000000000000000F0010000008887000520160722000101 00000000000000000000000000000000000000000000000000000000000000000000000000000000000000000000000000000000000000000N 00000000000NCONT   00    00000000000          00000000000000000000000000000000000000000000 000000000000000A000000000000000000000000000000000000000000000 000000000000000000000000000000000000000     00000000                                                                                                                        000000000000000000
F0010000008887100001000086000061500011050500000000000000000201607220002001DISTRIBUIDORA CORDOBA                             D000000010500000000000000000000000100010010000000000000000000000F0010000008887100120160722000101 00000000000000000000000000000000000000000000000000000000000000000000000000000000000000000000000000000000000000000N 00000000000NCONT   00    00000000000          00000000000000000000000000000000000000000000 000000000000000A000000000000000000000000000000000000000000000 000000000000000000000000000000000000000     00000000                                                                                                                        000000000000000000
F0010000008887100002000086000061500041450500000000000000000201607220002001DISTRIBUIDORA CORDOBA                             C000000009500000000000000000000000100010010000000000000000000000F0010000008887100220160722000101 00000000000000000000000000000000000000000000000000000000000000000000000000000000000000000000000000000000000000000N 00000000000NCONT   00    00000000000          00000000000000000000000000000000000000000000 000000000000000A000000000000000000000000000000000000000000000 000000000000000000000000000000000000000     00000000                                                                                                                        000000000000000000
F0010000008887100003000086000061500042505000000000000000000201607220002001DISTRIBUIDORA CORDOBA                             C000000001000000000000000000000000100010010000000000000000000000F0010000008887100320160722000101 00000000000000000000000000000000000000000000000000000000000000000000000000000000000000000000000000000000000000000N 00000000000NCONT   00    00000000000          00000000000000000000000000000000000000000000 000000000000000A000000000000000000000000000000000000000000000 000000000000000000000000000000000000000     00000000                                                                                                                        000000000000000000
F0010000008887100004000086000061500023658300000000000000000201607220002001DISTRIBUIDORA CORDOBA                             C000000000076000000000000000000000100010010000000000000000000000F0010000008887100420160722000101 00000000000000000000000000000000000000000000000000000000000000000000000000000000000000000000000000000000000000000N 00000000000NCONT   00    00000000000          00000000000000000000000000000000000000000000 000000000000000A000000000000000000000000000000000000000000000 000000000000000000000000000000000000000     00000000                                                                                                                        000000000000000000
F0010000008887100005000086000061500013552100000000000000000201607220002001DISTRIBUIDORA CORDOBA                             D000000000076000000000000000000000100010010000000000000000000000F0010000008887100520160722000101 00000000000000000000000000000000000000000000000000000000000000000000000000000000000000000000000000000000000000000N 00000000000NCONT   00    00000000000          00000000000000000000000000000000000000000000 000000000000000A000000000000000000000000000000000000000000000 000000000000000000000000000000000000000     00000000                                                                                                                        000000000000000000
F0010000008887200001000083008772100011050500000000000000000201607220002001ILUMEC SAS                                        D000000002550000000000000000000000100010010000000000000000000000F0010000008887200120160722000101 00000000000000000000000000000000000000000000000000000000000000000000000000000000000000000000000000000000000000000N 00000000000NCONT   00    00000000000          00000000000000000000000000000000000000000000 000000000000000A000000000000000000000000000000000000000000000 000000000000000000000000000000000000000     00000000                                                                                                                        000000000000000000
F0010000008887200002000083008772100041450500000000000000000201607220002001ILUMEC SAS                                        C000000002200000000000000000000000100010010000000000000000000000F0010000008887200220160722000101 00000000000000000000000000000000000000000000000000000000000000000000000000000000000000000000000000000000000000000N 00000000000NCONT   00    00000000000          00000000000000000000000000000000000000000000 000000000000000A000000000000000000000000000000000000000000000 000000000000000000000000000000000000000     00000000                                                                                                                        000000000000000000
F0010000008887200003000083008772100042505000000000000000000201607220002001ILUMEC SAS                                        C000000000350000000000000000000000100010010000000000000000000000F0010000008887200320160722000101 00000000000000000000000000000000000000000000000000000000000000000000000000000000000000000000000000000000000000000N 00000000000NCONT   00    00000000000          00000000000000000000000000000000000000000000 000000000000000A000000000000000000000000000000000000000000000 000000000000000000000000000000000000000     00000000                                                                                                                        000000000000000000
F0010000008887200004000083008772100023658300000000000000000201607220002001ILUMEC SAS                                        C000000000017600000000000000000000100010010000000000000000000000F0010000008887200420160722000101 00000000000000000000000000000000000000000000000000000000000000000000000000000000000000000000000000000000000000000N 00000000000NCONT   00    00000000000          00000000000000000000000000000000000000000000 000000000000000A000000000000000000000000000000000000000000000 000000000000000000000000000000000000000     00000000                                                                                                                        000000000000000000
F0010000008887200005000083008772100013552100000000000000000201607220002001ILUMEC SAS                                        D000000000017600000000000000000000100010010000000000000000000000F0010000008887200520160722000101 00000000000000000000000000000000000000000000000000000000000000000000000000000000000000000000000000000000000000000N 00000000000NCONT   00    00000000000          00000000000000000000000000000000000000000000 000000000000000A000000000000000000000000000000000000000000000 000000000000000000000000000000000000000     00000000                                                                                                                        000000000000000000
F0010000008887300001000003900336900011050500000000000000000201607220002001LUISA FERNANDA BOLAñOS                           D000000004000000000000000000000000100010010000000000000000000000F0010000008887300120160722000101 00000000000000000000000000000000000000000000000000000000000000000000000000000000000000000000000000000000000000000N 00000000000NCONT   00    00000000000          00000000000000000000000000000000000000000000 000000000000000A000000000000000000000000000000000000000000000 000000000000000000000000000000000000000     00000000                                                                                                                        000000000000000000
F0010000008887300002000003900336900041450500000000000000000201607220002001LUISA FERNANDA BOLAñOS                           C000000003900000000000000000000000100010010000000000000000000000F0010000008887300220160722000101 00000000000000000000000000000000000000000000000000000000000000000000000000000000000000000000000000000000000000000N 00000000000NCONT   00    00000000000          00000000000000000000000000000000000000000000 000000000000000A000000000000000000000000000000000000000000000 000000000000000000000000000000000000000     00000000                                                                                                                        000000000000000000
F0010000008887300003000003900336900042505000000000000000000201607220002001LUISA FERNANDA BOLAñOS                           C000000000100000000000000000000000100010010000000000000000000000F0010000008887300320160722000101 00000000000000000000000000000000000000000000000000000000000000000000000000000000000000000000000000000000000000000N 00000000000NCONT   00    00000000000          00000000000000000000000000000000000000000000 000000000000000A000000000000000000000000000000000000000000000 000000000000000000000000000000000000000     00000000                                                                                                                        000000000000000000
F0010000008887300004000003900336900023658300000000000000000201607220002001LUISA FERNANDA BOLAñOS                           C000000000031200000000000000000000100010010000000000000000000000F0010000008887300420160722000101 00000000000000000000000000000000000000000000000000000000000000000000000000000000000000000000000000000000000000000N 00000000000NCONT   00    00000000000          00000000000000000000000000000000000000000000 000000000000000A000000000000000000000000000000000000000000000 000000000000000000000000000000000000000     00000000                                                                                                                        000000000000000000
F0010000008887300005000003900336900013552100000000000000000201607220002001LUISA FERNANDA BOLAñOS                           D000000000031200000000000000000000100010010000000000000000000000F0010000008887300520160722000101 00000000000000000000000000000000000000000000000000000000000000000000000000000000000000000000000000000000000000000N 00000000000NCONT   00    00000000000          00000000000000000000000000000000000000000000 000000000000000A000000000000000000000000000000000000000000000 000000000000000000000000000000000000000     00000000                                                                                                                        000000000000000000
F0010000008887400001000003900336900011050500000000000000000201607220002001LUISA FERNANDA BOLAñOS                           D000000004000000000000000000000000100010010000000000000000000000F0010000008887400120160722000101 00000000000000000000000000000000000000000000000000000000000000000000000000000000000000000000000000000000000000000N 00000000000NCONT   00    00000000000          00000000000000000000000000000000000000000000 000000000000000A000000000000000000000000000000000000000000000 000000000000000000000000000000000000000     00000000                                                                                                                        000000000000000000
F0010000008887400002000003900336900041450500000000000000000201607220002001LUISA FERNANDA BOLAñOS                           C000000003900000000000000000000000100010010000000000000000000000F0010000008887400220160722000101 00000000000000000000000000000000000000000000000000000000000000000000000000000000000000000000000000000000000000000N 00000000000NCONT   00    00000000000          00000000000000000000000000000000000000000000 000000000000000A000000000000000000000000000000000000000000000 000000000000000000000000000000000000000     00000000                                                                                                                        000000000000000000
F0010000008887400003000003900336900042505000000000000000000201607220002001LUISA FERNANDA BOLAñOS                           C000000000100000000000000000000000100010010000000000000000000000F0010000008887400320160722000101 00000000000000000000000000000000000000000000000000000000000000000000000000000000000000000000000000000000000000000N 00000000000NCONT   00    00000000000          00000000000000000000000000000000000000000000 000000000000000A000000000000000000000000000000000000000000000 000000000000000000000000000000000000000     00000000                                                                                                                        000000000000000000
F0010000008887400004000003900336900023658300000000000000000201607220002001LUISA FERNANDA BOLAñOS                           C000000000031200000000000000000000100010010000000000000000000000F0010000008887400420160722000101 00000000000000000000000000000000000000000000000000000000000000000000000000000000000000000000000000000000000000000N 00000000000NCONT   00    00000000000          00000000000000000000000000000000000000000000 000000000000000A000000000000000000000000000000000000000000000 000000000000000000000000000000000000000     00000000                                                                                                                        000000000000000000
F0010000008887400005000003900336900013552100000000000000000201607220002001LUISA FERNANDA BOLAñOS                           D000000000031200000000000000000000100010010000000000000000000000F0010000008887400520160722000101 00000000000000000000000000000000000000000000000000000000000000000000000000000000000000000000000000000000000000000N 00000000000NCONT   00    00000000000          00000000000000000000000000000000000000000000 000000000000000A000000000000000000000000000000000000000000000 000000000000000000000000000000000000000     00000000                                                                                                                        000000000000000000
F0010000008887500001000090050144800011050500000000000000000201607220002001PLASTICOS JR ASOCIADOS SAS                        D000000004500000000000000000000000100010010000000000000000000000F0010000008887500120160722000101 00000000000000000000000000000000000000000000000000000000000000000000000000000000000000000000000000000000000000000N 00000000000NCONT   00    00000000000          00000000000000000000000000000000000000000000 000000000000000A000000000000000000000000000000000000000000000 000000000000000000000000000000000000000     00000000                                                                                                                        000000000000000000
F0010000008887500002000090050144800041450500000000000000000201607220002001PLASTICOS JR ASOCIADOS SAS                        C000000004000000000000000000000000100010010000000000000000000000F0010000008887500220160722000101 00000000000000000000000000000000000000000000000000000000000000000000000000000000000000000000000000000000000000000N 00000000000NCONT   00    00000000000          00000000000000000000000000000000000000000000 000000000000000A000000000000000000000000000000000000000000000 000000000000000000000000000000000000000     00000000                                                                                                                        000000000000000000
F0010000008887500003000090050144800042505000000000000000000201607220002001PLASTICOS JR ASOCIADOS SAS                        C000000000500000000000000000000000100010010000000000000000000000F0010000008887500320160722000101 00000000000000000000000000000000000000000000000000000000000000000000000000000000000000000000000000000000000000000N 00000000000NCONT   00    00000000000          00000000000000000000000000000000000000000000 000000000000000A000000000000000000000000000000000000000000000 000000000000000000000000000000000000000     00000000                                                                                                                        000000000000000000
F0010000008887500004000090050144800023658300000000000000000201607220002001PLASTICOS JR ASOCIADOS SAS                        C000000000032000000000000000000000100010010000000000000000000000F0010000008887500420160722000101 00000000000000000000000000000000000000000000000000000000000000000000000000000000000000000000000000000000000000000N 00000000000NCONT   00    00000000000          00000000000000000000000000000000000000000000 000000000000000A000000000000000000000000000000000000000000000 000000000000000000000000000000000000000     00000000                                                                                                                        000000000000000000
F0010000008887500005000090050144800013552100000000000000000201607220002001PLASTICOS JR ASOCIADOS SAS                        D000000000032000000000000000000000100010010000000000000000000000F0010000008887500520160722000101 00000000000000000000000000000000000000000000000000000000000000000000000000000000000000000000000000000000000000000N 00000000000NCONT   00    00000000000          00000000000000000000000000000000000000000000 000000000000000A000000000000000000000000000000000000000000000 000000000000000000000000000000000000000     00000000                                                                                                                        000000000000000000
F0010000008887600001000007200289400011050500000000000000000201607220002001MIGUEL CORTINA                                    D000000002800000000000000000000000100010010000000000000000000000F0010000008887600120160722000101 00000000000000000000000000000000000000000000000000000000000000000000000000000000000000000000000000000000000000000N 00000000000NCONT   00    00000000000          00000000000000000000000000000000000000000000 000000000000000A000000000000000000000000000000000000000000000 000000000000000000000000000000000000000     00000000                                                                                                                        000000000000000000
F0010000008887600002000007200289400041450500000000000000000201607220002001MIGUEL CORTINA                                    C000000002000000000000000000000000100010010000000000000000000000F0010000008887600220160722000101 00000000000000000000000000000000000000000000000000000000000000000000000000000000000000000000000000000000000000000N 00000000000NCONT   00    00000000000          00000000000000000000000000000000000000000000 000000000000000A000000000000000000000000000000000000000000000 000000000000000000000000000000000000000     00000000                                                                                                                        000000000000000000
F0010000008887600003000007200289400042505000000000000000000201607220002001MIGUEL CORTINA                                    C000000000800000000000000000000000100010010000000000000000000000F0010000008887600320160722000101 00000000000000000000000000000000000000000000000000000000000000000000000000000000000000000000000000000000000000000N 00000000000NCONT   00    00000000000          00000000000000000000000000000000000000000000 000000000000000A000000000000000000000000000000000000000000000 000000000000000000000000000000000000000     00000000                                                                                                                        000000000000000000
F0010000008887600004000007200289400023658300000000000000000201607220002001MIGUEL CORTINA                                    C000000000016000000000000000000000100010010000000000000000000000F0010000008887600420160722000101 00000000000000000000000000000000000000000000000000000000000000000000000000000000000000000000000000000000000000000N 00000000000NCONT   00    00000000000          00000000000000000000000000000000000000000000 000000000000000A000000000000000000000000000000000000000000000 000000000000000000000000000000000000000     00000000                                                                                                                        000000000000000000
F0010000008887600005000007200289400013552100000000000000000201607220002001MIGUEL CORTINA                                    D000000000016000000000000000000000100010010000000000000000000000F0010000008887600520160722000101 00000000000000000000000000000000000000000000000000000000000000000000000000000000000000000000000000000000000000000N 00000000000NCONT   00    00000000000          00000000000000000000000000000000000000000000 000000000000000A000000000000000000000000000000000000000000000 000000000000000000000000000000000000000     00000000                                                                                                                        000000000000000000
F0010000008887700001000007217025600011050500000000000000000201607220002001CRISTIAN JIMENEZ                                  D000000010200000000000000000000000100010010000000000000000000000F0010000008887700120160722000101 00000000000000000000000000000000000000000000000000000000000000000000000000000000000000000000000000000000000000000N 00000000000NCONT   00    00000000000          00000000000000000000000000000000000000000000 000000000000000A000000000000000000000000000000000000000000000 000000000000000000000000000000000000000     00000000                                                                                                                        000000000000000000
F0010000008887700002000007217025600041450500000000000000000201607220002001CRISTIAN JIMENEZ                                  C000000008200000000000000000000000100010010000000000000000000000F0010000008887700220160722000101 00000000000000000000000000000000000000000000000000000000000000000000000000000000000000000000000000000000000000000N 00000000000NCONT   00    00000000000          00000000000000000000000000000000000000000000 000000000000000A000000000000000000000000000000000000000000000 000000000000000000000000000000000000000     00000000                                                                                                                        000000000000000000
F0010000008887700003000007217025600042505000000000000000000201607220002001CRISTIAN JIMENEZ                                  C000000002000000000000000000000000100010010000000000000000000000F0010000008887700320160722000101 00000000000000000000000000000000000000000000000000000000000000000000000000000000000000000000000000000000000000000N 00000000000NCONT   00    00000000000          00000000000000000000000000000000000000000000 000000000000000A000000000000000000000000000000000000000000000 000000000000000000000000000000000000000     00000000                                                                                                                        000000000000000000
F0010000008887700004000007217025600023658300000000000000000201607220002001CRISTIAN JIMENEZ                                  C000000000065600000000000000000000100010010000000000000000000000F0010000008887700420160722000101 00000000000000000000000000000000000000000000000000000000000000000000000000000000000000000000000000000000000000000N 00000000000NCONT   00    00000000000          00000000000000000000000000000000000000000000 000000000000000A000000000000000000000000000000000000000000000 000000000000000000000000000000000000000     00000000                                                                                                                        000000000000000000
F0010000008887700005000007217025600013552100000000000000000201607220002001CRISTIAN JIMENEZ                                  D000000000065600000000000000000000100010010000000000000000000000F0010000008887700520160722000101 00000000000000000000000000000000000000000000000000000000000000000000000000000000000000000000000000000000000000000N 00000000000NCONT   00    00000000000          00000000000000000000000000000000000000000000 000000000000000A000000000000000000000000000000000000000000000 000000000000000000000000000000000000000     00000000                                                                                                                        000000000000000000
F0010000008887800001000090088269400011050500000000000000000201607220002001OFFIC PAPELERIA SAS                               D000000001200000000000000000000000100010010000000000000000000000F0010000008887800120160722000101 00000000000000000000000000000000000000000000000000000000000000000000000000000000000000000000000000000000000000000N 00000000000NCONT   00    00000000000          00000000000000000000000000000000000000000000 000000000000000A000000000000000000000000000000000000000000000 000000000000000000000000000000000000000     00000000                                                                                                                        000000000000000000
F0010000008887800002000090088269400041450500000000000000000201607220002001OFFIC PAPELERIA SAS                               C000000001000000000000000000000000100010010000000000000000000000F0010000008887800220160722000101 00000000000000000000000000000000000000000000000000000000000000000000000000000000000000000000000000000000000000000N 00000000000NCONT   00    00000000000          00000000000000000000000000000000000000000000 000000000000000A000000000000000000000000000000000000000000000 000000000000000000000000000000000000000     00000000                                                                                                                        000000000000000000
F0010000008887800003000090088269400042505000000000000000000201607220002001OFFIC PAPELERIA SAS                               C000000000200000000000000000000000100010010000000000000000000000F0010000008887800320160722000101 00000000000000000000000000000000000000000000000000000000000000000000000000000000000000000000000000000000000000000N 00000000000NCONT   00    00000000000          00000000000000000000000000000000000000000000 000000000000000A000000000000000000000000000000000000000000000 000000000000000000000000000000000000000     00000000                                                                                                                        000000000000000000
F0010000008887800004000090088269400023658300000000000000000201607220002001OFFIC PAPELERIA SAS                               C000000000008000000000000000000000100010010000000000000000000000F0010000008887800420160722000101 00000000000000000000000000000000000000000000000000000000000000000000000000000000000000000000000000000000000000000N 00000000000NCONT   00    00000000000          00000000000000000000000000000000000000000000 000000000000000A000000000000000000000000000000000000000000000 000000000000000000000000000000000000000     00000000                                                                                                                        000000000000000000
F0010000008887800005000090088269400013552100000000000000000201607220002001OFFIC PAPELERIA SAS                               D000000000008000000000000000000000100010010000000000000000000000F0010000008887800520160722000101 00000000000000000000000000000000000000000000000000000000000000000000000000000000000000000000000000000000000000000N 00000000000NCONT   00    00000000000          00000000000000000000000000000000000000000000 000000000000000A000000000000000000000000000000000000000000000 000000000000000000000000000000000000000     00000000                                                                                                                        000000000000000000
F0010000008887900001000090088269400011050500000000000000000201607220002001OFFIC PAPELERIA SAS                               D000000001200000000000000000000000100010010000000000000000000000F0010000008887900120160722000101 00000000000000000000000000000000000000000000000000000000000000000000000000000000000000000000000000000000000000000N 00000000000NCONT   00    00000000000          00000000000000000000000000000000000000000000 000000000000000A000000000000000000000000000000000000000000000 000000000000000000000000000000000000000     00000000                                                                                                                        000000000000000000
F0010000008887900002000090088269400041450500000000000000000201607220002001OFFIC PAPELERIA SAS                               C000000001000000000000000000000000100010010000000000000000000000F0010000008887900220160722000101 00000000000000000000000000000000000000000000000000000000000000000000000000000000000000000000000000000000000000000N 00000000000NCONT   00    00000000000          00000000000000000000000000000000000000000000 000000000000000A000000000000000000000000000000000000000000000 000000000000000000000000000000000000000     00000000                                                                                                                        000000000000000000
F0010000008887900003000090088269400042505000000000000000000201607220002001OFFIC PAPELERIA SAS                               C000000000200000000000000000000000100010010000000000000000000000F0010000008887900320160722000101 00000000000000000000000000000000000000000000000000000000000000000000000000000000000000000000000000000000000000000N 00000000000NCONT   00    00000000000          00000000000000000000000000000000000000000000 000000000000000A000000000000000000000000000000000000000000000 000000000000000000000000000000000000000     00000000                                                                                                                        000000000000000000
F0010000008887900004000090088269400023658300000000000000000201607220002001OFFIC PAPELERIA SAS                               C000000000008000000000000000000000100010010000000000000000000000F0010000008887900420160722000101 00000000000000000000000000000000000000000000000000000000000000000000000000000000000000000000000000000000000000000N 00000000000NCONT   00    00000000000          00000000000000000000000000000000000000000000 000000000000000A000000000000000000000000000000000000000000000 000000000000000000000000000000000000000     00000000                                                                                                                        000000000000000000
F0010000008887900005000090088269400013552100000000000000000201607220002001OFFIC PAPELERIA SAS                               D000000000008000000000000000000000100010010000000000000000000000F0010000008887900520160722000101 00000000000000000000000000000000000000000000000000000000000000000000000000000000000000000000000000000000000000000N 00000000000NCONT   00    00000000000          00000000000000000000000000000000000000000000 000000000000000A000000000000000000000000000000000000000000000 000000000000000000000000000000000000000     00000000                                                                                                                        000000000000000000
F0010000008888000001000090088269400011050500000000000000000201607220002001OFFIC PAPELERIA SAS                               D000000001400000000000000000000000100010010000000000000000000000F0010000008888000120160722000101 00000000000000000000000000000000000000000000000000000000000000000000000000000000000000000000000000000000000000000N 00000000000NCONT   00    00000000000          00000000000000000000000000000000000000000000 000000000000000A000000000000000000000000000000000000000000000 000000000000000000000000000000000000000     00000000                                                                                                                        000000000000000000
F0010000008888000002000090088269400041450500000000000000000201607220002001OFFIC PAPELERIA SAS                               C000000001000000000000000000000000100010010000000000000000000000F0010000008888000220160722000101 00000000000000000000000000000000000000000000000000000000000000000000000000000000000000000000000000000000000000000N 00000000000NCONT   00    00000000000          00000000000000000000000000000000000000000000 000000000000000A000000000000000000000000000000000000000000000 000000000000000000000000000000000000000     00000000                                                                                                                        000000000000000000
F0010000008888000003000090088269400042505000000000000000000201607220002001OFFIC PAPELERIA SAS                               C000000000400000000000000000000000100010010000000000000000000000F0010000008888000320160722000101 00000000000000000000000000000000000000000000000000000000000000000000000000000000000000000000000000000000000000000N 00000000000NCONT   00    00000000000          00000000000000000000000000000000000000000000 000000000000000A000000000000000000000000000000000000000000000 000000000000000000000000000000000000000     00000000                                                                                                                        000000000000000000
F0010000008888000004000090088269400023658300000000000000000201607220002001OFFIC PAPELERIA SAS                               C000000000008000000000000000000000100010010000000000000000000000F0010000008888000420160722000101 00000000000000000000000000000000000000000000000000000000000000000000000000000000000000000000000000000000000000000N 00000000000NCONT   00    00000000000          00000000000000000000000000000000000000000000 000000000000000A000000000000000000000000000000000000000000000 000000000000000000000000000000000000000     00000000                                                                                                                        000000000000000000
F0010000008888000005000090088269400013552100000000000000000201607220002001OFFIC PAPELERIA SAS                               D000000000008000000000000000000000100010010000000000000000000000F0010000008888000520160722000101 00000000000000000000000000000000000000000000000000000000000000000000000000000000000000000000000000000000000000000N 00000000000NCONT   00    00000000000          00000000000000000000000000000000000000000000 000000000000000A000000000000000000000000000000000000000000000 000000000000000000000000000000000000000     00000000                                                                                                                        000000000000000000
F0010000008888100001000007200023300011050500000000000000000201607220002001WILLIAM ORTEGA                                    D000000001500000000000000000000000100010010000000000000000000000F0010000008888100120160722000101 00000000000000000000000000000000000000000000000000000000000000000000000000000000000000000000000000000000000000000N 00000000000NCONT   00    00000000000          00000000000000000000000000000000000000000000 000000000000000A000000000000000000000000000000000000000000000 000000000000000000000000000000000000000     00000000                                                                                                                        000000000000000000
F0010000008888100002000007200023300041450500000000000000000201607220002001WILLIAM ORTEGA                                    C000000001300000000000000000000000100010010000000000000000000000F0010000008888100220160722000101 00000000000000000000000000000000000000000000000000000000000000000000000000000000000000000000000000000000000000000N 00000000000NCONT   00    00000000000          00000000000000000000000000000000000000000000 000000000000000A000000000000000000000000000000000000000000000 000000000000000000000000000000000000000     00000000                                                                                                                        000000000000000000
F0010000008888100003000007200023300042505000000000000000000201607220002001WILLIAM ORTEGA                                    C000000000200000000000000000000000100010010000000000000000000000F0010000008888100320160722000101 00000000000000000000000000000000000000000000000000000000000000000000000000000000000000000000000000000000000000000N 00000000000NCONT   00    00000000000          00000000000000000000000000000000000000000000 000000000000000A000000000000000000000000000000000000000000000 000000000000000000000000000000000000000     00000000                                                                                                                        000000000000000000
F0010000008888100004000007200023300023658300000000000000000201607220002001WILLIAM ORTEGA                                    C000000000010400000000000000000000100010010000000000000000000000F0010000008888100420160722000101 00000000000000000000000000000000000000000000000000000000000000000000000000000000000000000000000000000000000000000N 00000000000NCONT   00    00000000000          00000000000000000000000000000000000000000000 000000000000000A000000000000000000000000000000000000000000000 000000000000000000000000000000000000000     00000000                                                                                                                        000000000000000000
F0010000008888100005000007200023300013552100000000000000000201607220002001WILLIAM ORTEGA                                    D000000000010400000000000000000000100010010000000000000000000000F0010000008888100520160722000101 00000000000000000000000000000000000000000000000000000000000000000000000000000000000000000000000000000000000000000N 00000000000NCONT   00    00000000000          00000000000000000000000000000000000000000000 000000000000000A000000000000000000000000000000000000000000000 000000000000000000000000000000000000000     00000000                                                                                                                        000000000000000000
F0010000008888200001000006455821900011050500000000000000000201607220002001YOLIMA PEREZ REINOSO                              D000000001100000000000000000000000100010010000000000000000000000F0010000008888200120160722000101 00000000000000000000000000000000000000000000000000000000000000000000000000000000000000000000000000000000000000000N 00000000000NCONT   00    00000000000          00000000000000000000000000000000000000000000 000000000000000A000000000000000000000000000000000000000000000 000000000000000000000000000000000000000     00000000                                                                                                                        000000000000000000
F0010000008888200002000006455821900041450500000000000000000201607220002001YOLIMA PEREZ REINOSO                              C000000001000000000000000000000000100010010000000000000000000000F0010000008888200220160722000101 00000000000000000000000000000000000000000000000000000000000000000000000000000000000000000000000000000000000000000N 00000000000NCONT   00    00000000000          00000000000000000000000000000000000000000000 000000000000000A000000000000000000000000000000000000000000000 000000000000000000000000000000000000000     00000000                                                                                                                        000000000000000000
F0010000008888200003000006455821900042505000000000000000000201607220002001YOLIMA PEREZ REINOSO                              C000000000100000000000000000000000100010010000000000000000000000F0010000008888200320160722000101 00000000000000000000000000000000000000000000000000000000000000000000000000000000000000000000000000000000000000000N 00000000000NCONT   00    00000000000          00000000000000000000000000000000000000000000 000000000000000A000000000000000000000000000000000000000000000 000000000000000000000000000000000000000     00000000                                                                                                                        000000000000000000
F0010000008888200004000006455821900023658300000000000000000201607220002001YOLIMA PEREZ REINOSO                              C000000000008000000000000000000000100010010000000000000000000000F0010000008888200420160722000101 00000000000000000000000000000000000000000000000000000000000000000000000000000000000000000000000000000000000000000N 00000000000NCONT   00    00000000000          00000000000000000000000000000000000000000000 000000000000000A000000000000000000000000000000000000000000000 000000000000000000000000000000000000000     00000000                                                                                                                        000000000000000000
F0010000008888200005000006455821900013552100000000000000000201607220002001YOLIMA PEREZ REINOSO                              D000000000008000000000000000000000100010010000000000000000000000F0010000008888200520160722000101 00000000000000000000000000000000000000000000000000000000000000000000000000000000000000000000000000000000000000000N 00000000000NCONT   00    00000000000          00000000000000000000000000000000000000000000 000000000000000A000000000000000000000000000000000000000000000 000000000000000000000000000000000000000     00000000                                                                                                                        000000000000000000
F0010000008888300001000001022529300011050500000000000000000201607220002001ALBERTO ALVAREZ ISAZA                             D000000002640000000000000000000000100010010000000000000000000000F0010000008888300120160722000101 00000000000000000000000000000000000000000000000000000000000000000000000000000000000000000000000000000000000000000N 00000000000NCONT   00    00000000000          00000000000000000000000000000000000000000000 000000000000000A000000000000000000000000000000000000000000000 000000000000000000000000000000000000000     00000000                                                                                                                        000000000000000000
F0010000008888300002000001022529300041450500000000000000000201607220002001ALBERTO ALVAREZ ISAZA                             C000000002640000000000000000000000100010010000000000000000000000F0010000008888300220160722000101 00000000000000000000000000000000000000000000000000000000000000000000000000000000000000000000000000000000000000000N 00000000000NCONT   00    00000000000          00000000000000000000000000000000000000000000 000000000000000A000000000000000000000000000000000000000000000 000000000000000000000000000000000000000     00000000                                                                                                                        000000000000000000
F0010000008888300003000001022529300042505000000000000000000201607220002001ALBERTO ALVAREZ ISAZA                             C000000000000000000000000000000000100010010000000000000000000000F0010000008888300320160722000101 00000000000000000000000000000000000000000000000000000000000000000000000000000000000000000000000000000000000000000N 00000000000NCONT   00    00000000000          00000000000000000000000000000000000000000000 000000000000000A000000000000000000000000000000000000000000000 000000000000000000000000000000000000000     00000000                                                                                                                        000000000000000000
F0010000008888300004000001022529300023658300000000000000000201607220002001ALBERTO ALVAREZ ISAZA                             C000000000021100000000000000000000100010010000000000000000000000F0010000008888300420160722000101 00000000000000000000000000000000000000000000000000000000000000000000000000000000000000000000000000000000000000000N 00000000000NCONT   00    00000000000          00000000000000000000000000000000000000000000 000000000000000A000000000000000000000000000000000000000000000 000000000000000000000000000000000000000     00000000                                                                                                                        000000000000000000
F0010000008888300005000001022529300013552100000000000000000201607220002001ALBERTO ALVAREZ ISAZA                             D000000000021100000000000000000000100010010000000000000000000000F0010000008888300520160722000101 00000000000000000000000000000000000000000000000000000000000000000000000000000000000000000000000000000000000000000N 00000000000NCONT   00    00000000000          00000000000000000000000000000000000000000000 000000000000000A000000000000000000000000000000000000000000000 000000000000000000000000000000000000000     00000000                                                                                                                        000000000000000000
F0010000008888400001000001022529300011050500000000000000000201607220002001ALBERTO ALVAREZ ISAZA                             D000000013037200000000000000000000100010010000000000000000000000F0010000008888400120160722000101 00000000000000000000000000000000000000000000000000000000000000000000000000000000000000000000000000000000000000000N 00000000000NCONT   00    00000000000          00000000000000000000000000000000000000000000 000000000000000A000000000000000000000000000000000000000000000 000000000000000000000000000000000000000     00000000                                                                                                                        000000000000000000
F0010000008888400002000001022529300041450500000000000000000201607220002001ALBERTO ALVAREZ ISAZA                             C000000012000000000000000000000000100010010000000000000000000000F0010000008888400220160722000101 00000000000000000000000000000000000000000000000000000000000000000000000000000000000000000000000000000000000000000N 00000000000NCONT   00    00000000000          00000000000000000000000000000000000000000000 000000000000000A000000000000000000000000000000000000000000000 000000000000000000000000000000000000000     00000000                                                                                                                        000000000000000000
F0010000008888400003000001022529300042505000000000000000000201607220002001ALBERTO ALVAREZ ISAZA                             C000000001037200000000000000000000100010010000000000000000000000F0010000008888400320160722000101 00000000000000000000000000000000000000000000000000000000000000000000000000000000000000000000000000000000000000000N 00000000000NCONT   00    00000000000          00000000000000000000000000000000000000000000 000000000000000A000000000000000000000000000000000000000000000 000000000000000000000000000000000000000     00000000                                                                                                                        000000000000000000
F0010000008888400004000001022529300023658300000000000000000201607220002001ALBERTO ALVAREZ ISAZA                             C000000000096000000000000000000000100010010000000000000000000000F0010000008888400420160722000101 00000000000000000000000000000000000000000000000000000000000000000000000000000000000000000000000000000000000000000N 00000000000NCONT   00    00000000000          00000000000000000000000000000000000000000000 000000000000000A000000000000000000000000000000000000000000000 000000000000000000000000000000000000000     00000000                                                                                                                        000000000000000000
F0010000008888400005000001022529300013552100000000000000000201607220002001ALBERTO ALVAREZ ISAZA                             D000000000096000000000000000000000100010010000000000000000000000F0010000008888400520160722000101 00000000000000000000000000000000000000000000000000000000000000000000000000000000000000000000000000000000000000000N 00000000000NCONT   00    00000000000          00000000000000000000000000000000000000000000 000000000000000A000000000000000000000000000000000000000000000 000000000000000000000000000000000000000     00000000                                                                                                                        000000000000000000
F0010000008888500001000000431178400011050500000000000000000201607220002001EFRAIN ALVAREZ                                    D000000001320000000000000000000000100010010000000000000000000000F0010000008888500120160722000101 00000000000000000000000000000000000000000000000000000000000000000000000000000000000000000000000000000000000000000N 00000000000NCONT   00    00000000000          00000000000000000000000000000000000000000000 000000000000000A000000000000000000000000000000000000000000000 000000000000000000000000000000000000000     00000000                                                                                                                        000000000000000000
F0010000008888500002000000431178400041450500000000000000000201607220002001EFRAIN ALVAREZ                                    C000000001270000000000000000000000100010010000000000000000000000F0010000008888500220160722000101 00000000000000000000000000000000000000000000000000000000000000000000000000000000000000000000000000000000000000000N 00000000000NCONT   00    00000000000          00000000000000000000000000000000000000000000 000000000000000A000000000000000000000000000000000000000000000 000000000000000000000000000000000000000     00000000                                                                                                                        000000000000000000
F0010000008888500003000000431178400042505000000000000000000201607220002001EFRAIN ALVAREZ                                    C000000000050000000000000000000000100010010000000000000000000000F0010000008888500320160722000101 00000000000000000000000000000000000000000000000000000000000000000000000000000000000000000000000000000000000000000N 00000000000NCONT   00    00000000000          00000000000000000000000000000000000000000000 000000000000000A000000000000000000000000000000000000000000000 000000000000000000000000000000000000000     00000000                                                                                                                        000000000000000000
F0010000008888500004000000431178400023658300000000000000000201607220002001EFRAIN ALVAREZ                                    C000000000010200000000000000000000100010010000000000000000000000F0010000008888500420160722000101 00000000000000000000000000000000000000000000000000000000000000000000000000000000000000000000000000000000000000000N 00000000000NCONT   00    00000000000          00000000000000000000000000000000000000000000 000000000000000A000000000000000000000000000000000000000000000 000000000000000000000000000000000000000     00000000                                                                                                                        000000000000000000
F0010000008888500005000000431178400013552100000000000000000201607220002001EFRAIN ALVAREZ                                    D000000000010200000000000000000000100010010000000000000000000000F0010000008888500520160722000101 00000000000000000000000000000000000000000000000000000000000000000000000000000000000000000000000000000000000000000N 00000000000NCONT   00    00000000000          00000000000000000000000000000000000000000000 000000000000000A000000000000000000000000000000000000000000000 000000000000000000000000000000000000000     00000000                                                                                                                        000000000000000000
F0010000008888600001000000431178400011050500000000000000000201607220002001EFRAIN ALVAREZ                                    D000000008670000000000000000000000100010010000000000000000000000F0010000008888600120160722000101 00000000000000000000000000000000000000000000000000000000000000000000000000000000000000000000000000000000000000000N 00000000000NCONT   00    00000000000          00000000000000000000000000000000000000000000 000000000000000A000000000000000000000000000000000000000000000 000000000000000000000000000000000000000     00000000                                                                                                                        000000000000000000
F0010000008888600002000000431178400041450500000000000000000201607220002001EFRAIN ALVAREZ                                    C000000008520000000000000000000000100010010000000000000000000000F0010000008888600220160722000101 00000000000000000000000000000000000000000000000000000000000000000000000000000000000000000000000000000000000000000N 00000000000NCONT   00    00000000000          00000000000000000000000000000000000000000000 000000000000000A000000000000000000000000000000000000000000000 000000000000000000000000000000000000000     00000000                                                                                                                        000000000000000000
F0010000008888600003000000431178400042505000000000000000000201607220002001EFRAIN ALVAREZ                                    C000000000150000000000000000000000100010010000000000000000000000F0010000008888600320160722000101 00000000000000000000000000000000000000000000000000000000000000000000000000000000000000000000000000000000000000000N 00000000000NCONT   00    00000000000          00000000000000000000000000000000000000000000 000000000000000A000000000000000000000000000000000000000000000 000000000000000000000000000000000000000     00000000                                                                                                                        000000000000000000
F0010000008888600004000000431178400023658300000000000000000201607220002001EFRAIN ALVAREZ                                    C000000000068200000000000000000000100010010000000000000000000000F0010000008888600420160722000101 00000000000000000000000000000000000000000000000000000000000000000000000000000000000000000000000000000000000000000N 00000000000NCONT   00    00000000000          00000000000000000000000000000000000000000000 000000000000000A000000000000000000000000000000000000000000000 000000000000000000000000000000000000000     00000000                                                                                                                        000000000000000000
F0010000008888600005000000431178400013552100000000000000000201607220002001EFRAIN ALVAREZ                                    D000000000068200000000000000000000100010010000000000000000000000F0010000008888600520160722000101 00000000000000000000000000000000000000000000000000000000000000000000000000000000000000000000000000000000000000000N 00000000000NCONT   00    00000000000          00000000000000000000000000000000000000000000 000000000000000A000000000000000000000000000000000000000000000 000000000000000000000000000000000000000     00000000                                                                                                                        000000000000000000
F0010000008888700001000000431178400011050500000000000000000201607220002001EFRAIN ALVAREZ                                    D000000001320000000000000000000000100010010000000000000000000000F0010000008888700120160722000101 00000000000000000000000000000000000000000000000000000000000000000000000000000000000000000000000000000000000000000N 00000000000NCONT   00    00000000000          00000000000000000000000000000000000000000000 000000000000000A000000000000000000000000000000000000000000000 000000000000000000000000000000000000000     00000000                                                                                                                        000000000000000000
F0010000008888700002000000431178400041450500000000000000000201607220002001EFRAIN ALVAREZ                                    C000000001270000000000000000000000100010010000000000000000000000F0010000008888700220160722000101 00000000000000000000000000000000000000000000000000000000000000000000000000000000000000000000000000000000000000000N 00000000000NCONT   00    00000000000          00000000000000000000000000000000000000000000 000000000000000A000000000000000000000000000000000000000000000 000000000000000000000000000000000000000     00000000                                                                                                                        000000000000000000
