F0010000010578300001000090034602400011050500000000000000000201710310002001PRODUCTOS NACIONALES PARAFINICOS LA CUSTODIA S.A.SD000000001400000000000000000000000100010010000000000000000000000F0010000010578300120171031000101 00000000000000000000000000000000000000000000000000000000000000000000000000000000000000000000000000000000000000000N 00000000000NCONT   00    00000000000          00000000000000000000000000000000000000000000 000000000000000A000000000000000000000000000000000000000000000 000000000000000000000000000000000000000     00000000                                                                                                                        000000000000000000
F0010000010578300002000090034602400041450500000000000000000201710310002001PRODUCTOS NACIONALES PARAFINICOS LA CUSTODIA S.A.SC000000001300000000000000000000000100010010000000000000000000000F0010000010578300220171031000101 00000000000000000000000000000000000000000000000000000000000000000000000000000000000000000000000000000000000000000N 00000000000NCONT   00    00000000000          00000000000000000000000000000000000000000000 000000000000000A000000000000000000000000000000000000000000000 000000000000000000000000000000000000000     00000000                                                                                                                        000000000000000000
F0010000010578300003000090034602400042505000000000000000000201710310002001PRODUCTOS NACIONALES PARAFINICOS LA CUSTODIA S.A.SC000000000100000000000000000000000100010010000000000000000000000F0010000010578300320171031000101 00000000000000000000000000000000000000000000000000000000000000000000000000000000000000000000000000000000000000000N 00000000000NCONT   00    00000000000          00000000000000000000000000000000000000000000 000000000000000A000000000000000000000000000000000000000000000 000000000000000000000000000000000000000     00000000                                                                                                                        000000000000000000
F0010000010578300004000090034602400023658300000000000000000201710310002001PRODUCTOS NACIONALES PARAFINICOS LA CUSTODIA S.A.SC000000000000000000000000000000000100010010000000000000000000000F0010000010578300420171031000101 00000000000000000000000000000000000000000000000000000000000000000000000000000000000000000000000000000000000000000N 00000000000NCONT   00    00000000000          00000000000000000000000000000000000000000000 000000000000000A000000000000000000000000000000000000000000000 000000000000000000000000000000000000000     00000000                                                                                                                        000000000000000000
F0010000010578300005000090034602400013552100000000000000000201710310002001PRODUCTOS NACIONALES PARAFINICOS LA CUSTODIA S.A.SD000000000000000000000000000000000100010010000000000000000000000F0010000010578300520171031000101 00000000000000000000000000000000000000000000000000000000000000000000000000000000000000000000000000000000000000000N 00000000000NCONT   00    00000000000          00000000000000000000000000000000000000000000 000000000000000A000000000000000000000000000000000000000000000 000000000000000000000000000000000000000     00000000                                                                                                                        000000000000000000
F0010000010578400001000086001408600011050500000000000000000201710310002001CENTRAL DE DISOLVENTES SAS                        D000000002123000000000000000000000100010010000000000000000000000F0010000010578400120171031000101 00000000000000000000000000000000000000000000000000000000000000000000000000000000000000000000000000000000000000000N 00000000000NCONT   00    00000000000          00000000000000000000000000000000000000000000 000000000000000A000000000000000000000000000000000000000000000 000000000000000000000000000000000000000     00000000                                                                                                                        000000000000000000
F0010000010578400002000086001408600041450500000000000000000201710310002001CENTRAL DE DISOLVENTES SAS                        C000000001081000000000000000000000100010010000000000000000000000F0010000010578400220171031000101 00000000000000000000000000000000000000000000000000000000000000000000000000000000000000000000000000000000000000000N 00000000000NCONT   00    00000000000          00000000000000000000000000000000000000000000 000000000000000A000000000000000000000000000000000000000000000 000000000000000000000000000000000000000     00000000                                                                                                                        000000000000000000
F0010000010578400003000086001408600042505000000000000000000201710310002001CENTRAL DE DISOLVENTES SAS                        C000000001042000000000000000000000100010010000000000000000000000F0010000010578400320171031000101 00000000000000000000000000000000000000000000000000000000000000000000000000000000000000000000000000000000000000000N 00000000000NCONT   00    00000000000          00000000000000000000000000000000000000000000 000000000000000A000000000000000000000000000000000000000000000 000000000000000000000000000000000000000     00000000                                                                                                                        000000000000000000
F0010000010578400004000086001408600023658300000000000000000201710310002001CENTRAL DE DISOLVENTES SAS                        C000000000000000000000000000000000100010010000000000000000000000F0010000010578400420171031000101 00000000000000000000000000000000000000000000000000000000000000000000000000000000000000000000000000000000000000000N 00000000000NCONT   00    00000000000          00000000000000000000000000000000000000000000 000000000000000A000000000000000000000000000000000000000000000 000000000000000000000000000000000000000     00000000                                                                                                                        000000000000000000
F0010000010578400005000086001408600013552100000000000000000201710310002001CENTRAL DE DISOLVENTES SAS                        D000000000000000000000000000000000100010010000000000000000000000F0010000010578400520171031000101 00000000000000000000000000000000000000000000000000000000000000000000000000000000000000000000000000000000000000000N 00000000000NCONT   00    00000000000          00000000000000000000000000000000000000000000 000000000000000A000000000000000000000000000000000000000000000 000000000000000000000000000000000000000     00000000                                                                                                                        000000000000000000
F0010000010578500001000090001736600011050500000000000000000201710310002001AF SUMINISTROS E.U.                               D000000028720000000000000000000000100010010000000000000000000000F0010000010578500120171031000101 00000000000000000000000000000000000000000000000000000000000000000000000000000000000000000000000000000000000000000N 00000000000NCONT   00    00000000000          00000000000000000000000000000000000000000000 000000000000000A000000000000000000000000000000000000000000000 000000000000000000000000000000000000000     00000000                                                                                                                        000000000000000000
F0010000010578500002000090001736600041450500000000000000000201710310002001AF SUMINISTROS E.U.                               C000000024000000000000000000000000100010010000000000000000000000F0010000010578500220171031000101 00000000000000000000000000000000000000000000000000000000000000000000000000000000000000000000000000000000000000000N 00000000000NCONT   00    00000000000          00000000000000000000000000000000000000000000 000000000000000A000000000000000000000000000000000000000000000 000000000000000000000000000000000000000     00000000                                                                                                                        000000000000000000
F0010000010578500003000090001736600042505000000000000000000201710310002001AF SUMINISTROS E.U.                               C000000004720000000000000000000000100010010000000000000000000000F0010000010578500320171031000101 00000000000000000000000000000000000000000000000000000000000000000000000000000000000000000000000000000000000000000N 00000000000NCONT   00    00000000000          00000000000000000000000000000000000000000000 000000000000000A000000000000000000000000000000000000000000000 000000000000000000000000000000000000000     00000000                                                                                                                        000000000000000000
F0010000010578500004000090001736600023658300000000000000000201710310002001AF SUMINISTROS E.U.                               C000000000000000000000000000000000100010010000000000000000000000F0010000010578500420171031000101 00000000000000000000000000000000000000000000000000000000000000000000000000000000000000000000000000000000000000000N 00000000000NCONT   00    00000000000          00000000000000000000000000000000000000000000 000000000000000A000000000000000000000000000000000000000000000 000000000000000000000000000000000000000     00000000                                                                                                                        000000000000000000
F0010000010578500005000090001736600013552100000000000000000201710310002001AF SUMINISTROS E.U.                               D000000000000000000000000000000000100010010000000000000000000000F0010000010578500520171031000101 00000000000000000000000000000000000000000000000000000000000000000000000000000000000000000000000000000000000000000N 00000000000NCONT   00    00000000000          00000000000000000000000000000000000000000000 000000000000000A000000000000000000000000000000000000000000000 000000000000000000000000000000000000000     00000000                                                                                                                        000000000000000000
F0010000010578600001000003146988400011050500000000000000000201710310002001ANGELA PATRICIA BRAVO                             D000000001600000000000000000000000100010010000000000000000000000F0010000010578600120171031000101 00000000000000000000000000000000000000000000000000000000000000000000000000000000000000000000000000000000000000000N 00000000000NCONT   00    00000000000          00000000000000000000000000000000000000000000 000000000000000A000000000000000000000000000000000000000000000 000000000000000000000000000000000000000     00000000                                                                                                                        000000000000000000
F0010000010578600002000003146988400041450500000000000000000201710310002001ANGELA PATRICIA BRAVO                             C000000001100000000000000000000000100010010000000000000000000000F0010000010578600220171031000101 00000000000000000000000000000000000000000000000000000000000000000000000000000000000000000000000000000000000000000N 00000000000NCONT   00    00000000000          00000000000000000000000000000000000000000000 000000000000000A000000000000000000000000000000000000000000000 000000000000000000000000000000000000000     00000000                                                                                                                        000000000000000000
F0010000010578600003000003146988400042505000000000000000000201710310002001ANGELA PATRICIA BRAVO                             C000000000500000000000000000000000100010010000000000000000000000F0010000010578600320171031000101 00000000000000000000000000000000000000000000000000000000000000000000000000000000000000000000000000000000000000000N 00000000000NCONT   00    00000000000          00000000000000000000000000000000000000000000 000000000000000A000000000000000000000000000000000000000000000 000000000000000000000000000000000000000     00000000                                                                                                                        000000000000000000
F0010000010578600004000003146988400023658300000000000000000201710310002001ANGELA PATRICIA BRAVO                             C000000000000000000000000000000000100010010000000000000000000000F0010000010578600420171031000101 00000000000000000000000000000000000000000000000000000000000000000000000000000000000000000000000000000000000000000N 00000000000NCONT   00    00000000000          00000000000000000000000000000000000000000000 000000000000000A000000000000000000000000000000000000000000000 000000000000000000000000000000000000000     00000000                                                                                                                        000000000000000000
F0010000010578600005000003146988400013552100000000000000000201710310002001ANGELA PATRICIA BRAVO                             D000000000000000000000000000000000100010010000000000000000000000F0010000010578600520171031000101 00000000000000000000000000000000000000000000000000000000000000000000000000000000000000000000000000000000000000000N 00000000000NCONT   00    00000000000          00000000000000000000000000000000000000000000 000000000000000A000000000000000000000000000000000000000000000 000000000000000000000000000000000000000     00000000                                                                                                                        000000000000000000
F0010000010578700001000090024483300011050500000000000000000201710310002001COSMETICOS A-GUZ                                  D000000005500000000000000000000000100010010000000000000000000000F0010000010578700120171031000101 00000000000000000000000000000000000000000000000000000000000000000000000000000000000000000000000000000000000000000N 00000000000NCONT   00    00000000000          00000000000000000000000000000000000000000000 000000000000000A000000000000000000000000000000000000000000000 000000000000000000000000000000000000000     00000000                                                                                                                        000000000000000000
F0010000010578700002000090024483300041450500000000000000000201710310002001COSMETICOS A-GUZ                                  C000000005000000000000000000000000100010010000000000000000000000F0010000010578700220171031000101 00000000000000000000000000000000000000000000000000000000000000000000000000000000000000000000000000000000000000000N 00000000000NCONT   00    00000000000          00000000000000000000000000000000000000000000 000000000000000A000000000000000000000000000000000000000000000 000000000000000000000000000000000000000     00000000                                                                                                                        000000000000000000
F0010000010578700003000090024483300042505000000000000000000201710310002001COSMETICOS A-GUZ                                  C000000000500000000000000000000000100010010000000000000000000000F0010000010578700320171031000101 00000000000000000000000000000000000000000000000000000000000000000000000000000000000000000000000000000000000000000N 00000000000NCONT   00    00000000000          00000000000000000000000000000000000000000000 000000000000000A000000000000000000000000000000000000000000000 000000000000000000000000000000000000000     00000000                                                                                                                        000000000000000000
F0010000010578700004000090024483300023658300000000000000000201710310002001COSMETICOS A-GUZ                                  C000000000000000000000000000000000100010010000000000000000000000F0010000010578700420171031000101 00000000000000000000000000000000000000000000000000000000000000000000000000000000000000000000000000000000000000000N 00000000000NCONT   00    00000000000          00000000000000000000000000000000000000000000 000000000000000A000000000000000000000000000000000000000000000 000000000000000000000000000000000000000     00000000                                                                                                                        000000000000000000
F0010000010578700005000090024483300013552100000000000000000201710310002001COSMETICOS A-GUZ                                  D000000000000000000000000000000000100010010000000000000000000000F0010000010578700520171031000101 00000000000000000000000000000000000000000000000000000000000000000000000000000000000000000000000000000000000000000N 00000000000NCONT   00    00000000000          00000000000000000000000000000000000000000000 000000000000000A000000000000000000000000000000000000000000000 000000000000000000000000000000000000000     00000000                                                                                                                        000000000000000000
F0010000010578800001000000866048200011050500000000000000000201710310002001REGINALDO TURIZO                                  D000000005500000000000000000000000100010010000000000000000000000F0010000010578800120171031000101 00000000000000000000000000000000000000000000000000000000000000000000000000000000000000000000000000000000000000000N 00000000000NCONT   00    00000000000          00000000000000000000000000000000000000000000 000000000000000A000000000000000000000000000000000000000000000 000000000000000000000000000000000000000     00000000                                                                                                                        000000000000000000
F0010000010578800002000000866048200041450500000000000000000201710310002001REGINALDO TURIZO                                  C000000003000000000000000000000000100010010000000000000000000000F0010000010578800220171031000101 00000000000000000000000000000000000000000000000000000000000000000000000000000000000000000000000000000000000000000N 00000000000NCONT   00    00000000000          00000000000000000000000000000000000000000000 000000000000000A000000000000000000000000000000000000000000000 000000000000000000000000000000000000000     00000000                                                                                                                        000000000000000000
F0010000010578800003000000866048200042505000000000000000000201710310002001REGINALDO TURIZO                                  C000000002500000000000000000000000100010010000000000000000000000F0010000010578800320171031000101 00000000000000000000000000000000000000000000000000000000000000000000000000000000000000000000000000000000000000000N 00000000000NCONT   00    00000000000          00000000000000000000000000000000000000000000 000000000000000A000000000000000000000000000000000000000000000 000000000000000000000000000000000000000     00000000                                                                                                                        000000000000000000
F0010000010578800004000000866048200023658300000000000000000201710310002001REGINALDO TURIZO                                  C000000000000000000000000000000000100010010000000000000000000000F0010000010578800420171031000101 00000000000000000000000000000000000000000000000000000000000000000000000000000000000000000000000000000000000000000N 00000000000NCONT   00    00000000000          00000000000000000000000000000000000000000000 000000000000000A000000000000000000000000000000000000000000000 000000000000000000000000000000000000000     00000000                                                                                                                        000000000000000000
F0010000010578800005000000866048200013552100000000000000000201710310002001REGINALDO TURIZO                                  D000000000000000000000000000000000100010010000000000000000000000F0010000010578800520171031000101 00000000000000000000000000000000000000000000000000000000000000000000000000000000000000000000000000000000000000000N 00000000000NCONT   00    00000000000          00000000000000000000000000000000000000000000 000000000000000A000000000000000000000000000000000000000000000 000000000000000000000000000000000000000     00000000                                                                                                                        000000000000000000
F0010000010578900001000090051494400011050500000000000000000201710310002001MUNDINOX SAS                                      D000000003100000000000000000000000100010010000000000000000000000F0010000010578900120171031000101 00000000000000000000000000000000000000000000000000000000000000000000000000000000000000000000000000000000000000000N 00000000000NCONT   00    00000000000          00000000000000000000000000000000000000000000 000000000000000A000000000000000000000000000000000000000000000 000000000000000000000000000000000000000     00000000                                                                                                                        000000000000000000
F0010000010578900002000090051494400041450500000000000000000201710310002001MUNDINOX SAS                                      C000000003000000000000000000000000100010010000000000000000000000F0010000010578900220171031000101 00000000000000000000000000000000000000000000000000000000000000000000000000000000000000000000000000000000000000000N 00000000000NCONT   00    00000000000          00000000000000000000000000000000000000000000 000000000000000A000000000000000000000000000000000000000000000 000000000000000000000000000000000000000     00000000                                                                                                                        000000000000000000
F0010000010578900003000090051494400042505000000000000000000201710310002001MUNDINOX SAS                                      C000000000100000000000000000000000100010010000000000000000000000F0010000010578900320171031000101 00000000000000000000000000000000000000000000000000000000000000000000000000000000000000000000000000000000000000000N 00000000000NCONT   00    00000000000          00000000000000000000000000000000000000000000 000000000000000A000000000000000000000000000000000000000000000 000000000000000000000000000000000000000     00000000                                                                                                                        000000000000000000
F0010000010578900004000090051494400023658300000000000000000201710310002001MUNDINOX SAS                                      C000000000000000000000000000000000100010010000000000000000000000F0010000010578900420171031000101 00000000000000000000000000000000000000000000000000000000000000000000000000000000000000000000000000000000000000000N 00000000000NCONT   00    00000000000          00000000000000000000000000000000000000000000 000000000000000A000000000000000000000000000000000000000000000 000000000000000000000000000000000000000     00000000                                                                                                                        000000000000000000
F0010000010578900005000090051494400013552100000000000000000201710310002001MUNDINOX SAS                                      D000000000000000000000000000000000100010010000000000000000000000F0010000010578900520171031000101 00000000000000000000000000000000000000000000000000000000000000000000000000000000000000000000000000000000000000000N 00000000000NCONT   00    00000000000          00000000000000000000000000000000000000000000 000000000000000A000000000000000000000000000000000000000000000 000000000000000000000000000000000000000     00000000                                                                                                                        000000000000000000
F0010000010579000001000090051494400011050500000000000000000201710310002001MUNDINOX SAS                                      D000000004800000000000000000000000100010010000000000000000000000F0010000010579000120171031000101 00000000000000000000000000000000000000000000000000000000000000000000000000000000000000000000000000000000000000000N 00000000000NCONT   00    00000000000          00000000000000000000000000000000000000000000 000000000000000A000000000000000000000000000000000000000000000 000000000000000000000000000000000000000     00000000                                                                                                                        000000000000000000
F0010000010579000002000090051494400041450500000000000000000201710310002001MUNDINOX SAS                                      C000000004700000000000000000000000100010010000000000000000000000F0010000010579000220171031000101 00000000000000000000000000000000000000000000000000000000000000000000000000000000000000000000000000000000000000000N 00000000000NCONT   00    00000000000          00000000000000000000000000000000000000000000 000000000000000A000000000000000000000000000000000000000000000 000000000000000000000000000000000000000     00000000                                                                                                                        000000000000000000
F0010000010579000003000090051494400042505000000000000000000201710310002001MUNDINOX SAS                                      C000000000100000000000000000000000100010010000000000000000000000F0010000010579000320171031000101 00000000000000000000000000000000000000000000000000000000000000000000000000000000000000000000000000000000000000000N 00000000000NCONT   00    00000000000          00000000000000000000000000000000000000000000 000000000000000A000000000000000000000000000000000000000000000 000000000000000000000000000000000000000     00000000                                                                                                                        000000000000000000
F0010000010579000004000090051494400023658300000000000000000201710310002001MUNDINOX SAS                                      C000000000000000000000000000000000100010010000000000000000000000F0010000010579000420171031000101 00000000000000000000000000000000000000000000000000000000000000000000000000000000000000000000000000000000000000000N 00000000000NCONT   00    00000000000          00000000000000000000000000000000000000000000 000000000000000A000000000000000000000000000000000000000000000 000000000000000000000000000000000000000     00000000                                                                                                                        000000000000000000
F0010000010579000005000090051494400013552100000000000000000201710310002001MUNDINOX SAS                                      D000000000000000000000000000000000100010010000000000000000000000F0010000010579000520171031000101 00000000000000000000000000000000000000000000000000000000000000000000000000000000000000000000000000000000000000000N 00000000000NCONT   00    00000000000          00000000000000000000000000000000000000000000 000000000000000A000000000000000000000000000000000000000000000 000000000000000000000000000000000000000     00000000                                                                                                                        000000000000000000
F0010000010579100001000000856527900011050500000000000000000201710310002001CESAR AUGUSTO MIER BUELVAS                        D000000001200000000000000000000000100010010000000000000000000000F0010000010579100120171031000101 00000000000000000000000000000000000000000000000000000000000000000000000000000000000000000000000000000000000000000N 00000000000NCONT   00    00000000000          00000000000000000000000000000000000000000000 000000000000000A000000000000000000000000000000000000000000000 000000000000000000000000000000000000000     00000000                                                                                                                        000000000000000000
F0010000010579100002000000856527900041450500000000000000000201710310002001CESAR AUGUSTO MIER BUELVAS                        C000000001100000000000000000000000100010010000000000000000000000F0010000010579100220171031000101 00000000000000000000000000000000000000000000000000000000000000000000000000000000000000000000000000000000000000000N 00000000000NCONT   00    00000000000          00000000000000000000000000000000000000000000 000000000000000A000000000000000000000000000000000000000000000 000000000000000000000000000000000000000     00000000                                                                                                                        000000000000000000
F0010000010579100003000000856527900042505000000000000000000201710310002001CESAR AUGUSTO MIER BUELVAS                        C000000000100000000000000000000000100010010000000000000000000000F0010000010579100320171031000101 00000000000000000000000000000000000000000000000000000000000000000000000000000000000000000000000000000000000000000N 00000000000NCONT   00    00000000000          00000000000000000000000000000000000000000000 000000000000000A000000000000000000000000000000000000000000000 000000000000000000000000000000000000000     00000000                                                                                                                        000000000000000000
F0010000010579100004000000856527900023658300000000000000000201710310002001CESAR AUGUSTO MIER BUELVAS                        C000000000000000000000000000000000100010010000000000000000000000F0010000010579100420171031000101 00000000000000000000000000000000000000000000000000000000000000000000000000000000000000000000000000000000000000000N 00000000000NCONT   00    00000000000          00000000000000000000000000000000000000000000 000000000000000A000000000000000000000000000000000000000000000 000000000000000000000000000000000000000     00000000                                                                                                                        000000000000000000
F0010000010579100005000000856527900013552100000000000000000201710310002001CESAR AUGUSTO MIER BUELVAS                        D000000000000000000000000000000000100010010000000000000000000000F0010000010579100520171031000101 00000000000000000000000000000000000000000000000000000000000000000000000000000000000000000000000000000000000000000N 00000000000NCONT   00    00000000000          00000000000000000000000000000000000000000000 000000000000000A000000000000000000000000000000000000000000000 000000000000000000000000000000000000000     00000000                                                                                                                        000000000000000000
F0010000010579200001000000856527900011050500000000000000000201710310002001CESAR AUGUSTO MIER BUELVAS                        D000000001200000000000000000000000100010010000000000000000000000F0010000010579200120171031000101 00000000000000000000000000000000000000000000000000000000000000000000000000000000000000000000000000000000000000000N 00000000000NCONT   00    00000000000          00000000000000000000000000000000000000000000 000000000000000A000000000000000000000000000000000000000000000 000000000000000000000000000000000000000     00000000                                                                                                                        000000000000000000
F0010000010579200002000000856527900041450500000000000000000201710310002001CESAR AUGUSTO MIER BUELVAS                        C000000001100000000000000000000000100010010000000000000000000000F0010000010579200220171031000101 00000000000000000000000000000000000000000000000000000000000000000000000000000000000000000000000000000000000000000N 00000000000NCONT   00    00000000000          00000000000000000000000000000000000000000000 000000000000000A000000000000000000000000000000000000000000000 000000000000000000000000000000000000000     00000000                                                                                                                        000000000000000000
F0010000010579200003000000856527900042505000000000000000000201710310002001CESAR AUGUSTO MIER BUELVAS                        C000000000100000000000000000000000100010010000000000000000000000F0010000010579200320171031000101 00000000000000000000000000000000000000000000000000000000000000000000000000000000000000000000000000000000000000000N 00000000000NCONT   00    00000000000          00000000000000000000000000000000000000000000 000000000000000A000000000000000000000000000000000000000000000 000000000000000000000000000000000000000     00000000                                                                                                                        000000000000000000
F0010000010579200004000000856527900023658300000000000000000201710310002001CESAR AUGUSTO MIER BUELVAS                        C000000000000000000000000000000000100010010000000000000000000000F0010000010579200420171031000101 00000000000000000000000000000000000000000000000000000000000000000000000000000000000000000000000000000000000000000N 00000000000NCONT   00    00000000000          00000000000000000000000000000000000000000000 000000000000000A000000000000000000000000000000000000000000000 000000000000000000000000000000000000000     00000000                                                                                                                        000000000000000000
F0010000010579200005000000856527900013552100000000000000000201710310002001CESAR AUGUSTO MIER BUELVAS                        D000000000000000000000000000000000100010010000000000000000000000F0010000010579200520171031000101 00000000000000000000000000000000000000000000000000000000000000000000000000000000000000000000000000000000000000000N 00000000000NCONT   00    00000000000          00000000000000000000000000000000000000000000 000000000000000A000000000000000000000000000000000000000000000 000000000000000000000000000000000000000     00000000                                                                                                                        000000000000000000
F0010000010579300001000009125678500011050500000000000000000201710310002001SALOMON DIAZ MONSALVE                             D000000020000000000000000000000000100010010000000000000000000000F0010000010579300120171031000101 00000000000000000000000000000000000000000000000000000000000000000000000000000000000000000000000000000000000000000N 00000000000NCONT   00    00000000000          00000000000000000000000000000000000000000000 000000000000000A000000000000000000000000000000000000000000000 000000000000000000000000000000000000000     00000000                                                                                                                        000000000000000000
F0010000010579300002000009125678500041450500000000000000000201710310002001SALOMON DIAZ MONSALVE                             C000000018000000000000000000000000100010010000000000000000000000F0010000010579300220171031000101 00000000000000000000000000000000000000000000000000000000000000000000000000000000000000000000000000000000000000000N 00000000000NCONT   00    00000000000          00000000000000000000000000000000000000000000 000000000000000A000000000000000000000000000000000000000000000 000000000000000000000000000000000000000     00000000                                                                                                                        000000000000000000
F0010000010579300003000009125678500042505000000000000000000201710310002001SALOMON DIAZ MONSALVE                             C000000002000000000000000000000000100010010000000000000000000000F0010000010579300320171031000101 00000000000000000000000000000000000000000000000000000000000000000000000000000000000000000000000000000000000000000N 00000000000NCONT   00    00000000000          00000000000000000000000000000000000000000000 000000000000000A000000000000000000000000000000000000000000000 000000000000000000000000000000000000000     00000000                                                                                                                        000000000000000000
F0010000010579300004000009125678500023658300000000000000000201710310002001SALOMON DIAZ MONSALVE                             C000000000000000000000000000000000100010010000000000000000000000F0010000010579300420171031000101 00000000000000000000000000000000000000000000000000000000000000000000000000000000000000000000000000000000000000000N 00000000000NCONT   00    00000000000          00000000000000000000000000000000000000000000 000000000000000A000000000000000000000000000000000000000000000 000000000000000000000000000000000000000     00000000                                                                                                                        000000000000000000
F0010000010579300005000009125678500013552100000000000000000201710310002001SALOMON DIAZ MONSALVE                             D000000000000000000000000000000000100010010000000000000000000000F0010000010579300520171031000101 00000000000000000000000000000000000000000000000000000000000000000000000000000000000000000000000000000000000000000N 00000000000NCONT   00    00000000000          00000000000000000000000000000000000000000000 000000000000000A000000000000000000000000000000000000000000000 000000000000000000000000000000000000000     00000000                                                                                                                        000000000000000000
F0010000010579400001000007229328500011050500000000000000000201710310002001PV ELECTRIC   DEL CARIBE                          D000000001100000000000000000000000100010010000000000000000000000F0010000010579400120171031000101 00000000000000000000000000000000000000000000000000000000000000000000000000000000000000000000000000000000000000000N 00000000000NCONT   00    00000000000          00000000000000000000000000000000000000000000 000000000000000A000000000000000000000000000000000000000000000 000000000000000000000000000000000000000     00000000                                                                                                                        000000000000000000
F0010000010579400002000007229328500041450500000000000000000201710310002001PV ELECTRIC   DEL CARIBE                          C000000001000000000000000000000000100010010000000000000000000000F0010000010579400220171031000101 00000000000000000000000000000000000000000000000000000000000000000000000000000000000000000000000000000000000000000N 00000000000NCONT   00    00000000000          00000000000000000000000000000000000000000000 000000000000000A000000000000000000000000000000000000000000000 000000000000000000000000000000000000000     00000000                                                                                                                        000000000000000000
F0010000010579400003000007229328500042505000000000000000000201710310002001PV ELECTRIC   DEL CARIBE                          C000000000100000000000000000000000100010010000000000000000000000F0010000010579400320171031000101 00000000000000000000000000000000000000000000000000000000000000000000000000000000000000000000000000000000000000000N 00000000000NCONT   00    00000000000          00000000000000000000000000000000000000000000 000000000000000A000000000000000000000000000000000000000000000 000000000000000000000000000000000000000     00000000                                                                                                                        000000000000000000
F0010000010579400004000007229328500023658300000000000000000201710310002001PV ELECTRIC   DEL CARIBE                          C000000000000000000000000000000000100010010000000000000000000000F0010000010579400420171031000101 00000000000000000000000000000000000000000000000000000000000000000000000000000000000000000000000000000000000000000N 00000000000NCONT   00    00000000000          00000000000000000000000000000000000000000000 000000000000000A000000000000000000000000000000000000000000000 000000000000000000000000000000000000000     00000000                                                                                                                        000000000000000000
F0010000010579400005000007229328500013552100000000000000000201710310002001PV ELECTRIC   DEL CARIBE                          D000000000000000000000000000000000100010010000000000000000000000F0010000010579400520171031000101 00000000000000000000000000000000000000000000000000000000000000000000000000000000000000000000000000000000000000000N 00000000000NCONT   00    00000000000          00000000000000000000000000000000000000000000 000000000000000A000000000000000000000000000000000000000000000 000000000000000000000000000000000000000     00000000                                                                                                                        000000000000000000
F0010000010579500001000007229328500011050500000000000000000201710310002001PV ELECTRIC   DEL CARIBE                          D000000003300000000000000000000000100010010000000000000000000000F0010000010579500120171031000101 00000000000000000000000000000000000000000000000000000000000000000000000000000000000000000000000000000000000000000N 00000000000NCONT   00    00000000000          00000000000000000000000000000000000000000000 000000000000000A000000000000000000000000000000000000000000000 000000000000000000000000000000000000000     00000000                                                                                                                        000000000000000000
F0010000010579500002000007229328500041450500000000000000000201710310002001PV ELECTRIC   DEL CARIBE                          C000000003000000000000000000000000100010010000000000000000000000F0010000010579500220171031000101 00000000000000000000000000000000000000000000000000000000000000000000000000000000000000000000000000000000000000000N 00000000000NCONT   00    00000000000          00000000000000000000000000000000000000000000 000000000000000A000000000000000000000000000000000000000000000 000000000000000000000000000000000000000     00000000                                                                                                                        000000000000000000
F0010000010579500003000007229328500042505000000000000000000201710310002001PV ELECTRIC   DEL CARIBE                          C000000000300000000000000000000000100010010000000000000000000000F0010000010579500320171031000101 00000000000000000000000000000000000000000000000000000000000000000000000000000000000000000000000000000000000000000N 00000000000NCONT   00    00000000000          00000000000000000000000000000000000000000000 000000000000000A000000000000000000000000000000000000000000000 000000000000000000000000000000000000000     00000000                                                                                                                        000000000000000000
F0010000010579500004000007229328500023658300000000000000000201710310002001PV ELECTRIC   DEL CARIBE                          C000000000000000000000000000000000100010010000000000000000000000F0010000010579500420171031000101 00000000000000000000000000000000000000000000000000000000000000000000000000000000000000000000000000000000000000000N 00000000000NCONT   00    00000000000          00000000000000000000000000000000000000000000 000000000000000A000000000000000000000000000000000000000000000 000000000000000000000000000000000000000     00000000                                                                                                                        000000000000000000
F0010000010579500005000007229328500013552100000000000000000201710310002001PV ELECTRIC   DEL CARIBE                          D000000000000000000000000000000000100010010000000000000000000000F0010000010579500520171031000101 00000000000000000000000000000000000000000000000000000000000000000000000000000000000000000000000000000000000000000N 00000000000NCONT   00    00000000000          00000000000000000000000000000000000000000000 000000000000000A000000000000000000000000000000000000000000000 000000000000000000000000000000000000000     00000000                                                                                                                        000000000000000000
F0010000010579600001000090087617400011050500000000000000000201710310002001MASTERGLASS PREMIUM GROUP SAS                     D000000002500000000000000000000000100010010000000000000000000000F0010000010579600120171031000101 00000000000000000000000000000000000000000000000000000000000000000000000000000000000000000000000000000000000000000N 00000000000NCONT   00    00000000000          00000000000000000000000000000000000000000000 000000000000000A000000000000000000000000000000000000000000000 000000000000000000000000000000000000000     00000000                                                                                                                        000000000000000000
F0010000010579600002000090087617400041450500000000000000000201710310002001MASTERGLASS PREMIUM GROUP SAS                     C000000002100000000000000000000000100010010000000000000000000000F0010000010579600220171031000101 00000000000000000000000000000000000000000000000000000000000000000000000000000000000000000000000000000000000000000N 00000000000NCONT   00    00000000000          00000000000000000000000000000000000000000000 000000000000000A000000000000000000000000000000000000000000000 000000000000000000000000000000000000000     00000000                                                                                                                        000000000000000000
F0010000010579600003000090087617400042505000000000000000000201710310002001MASTERGLASS PREMIUM GROUP SAS                     C000000000400000000000000000000000100010010000000000000000000000F0010000010579600320171031000101 00000000000000000000000000000000000000000000000000000000000000000000000000000000000000000000000000000000000000000N 00000000000NCONT   00    00000000000          00000000000000000000000000000000000000000000 000000000000000A000000000000000000000000000000000000000000000 000000000000000000000000000000000000000     00000000                                                                                                                        000000000000000000
F0010000010579600004000090087617400023658300000000000000000201710310002001MASTERGLASS PREMIUM GROUP SAS                     C000000000000000000000000000000000100010010000000000000000000000F0010000010579600420171031000101 00000000000000000000000000000000000000000000000000000000000000000000000000000000000000000000000000000000000000000N 00000000000NCONT   00    00000000000          00000000000000000000000000000000000000000000 000000000000000A000000000000000000000000000000000000000000000 000000000000000000000000000000000000000     00000000                                                                                                                        000000000000000000
F0010000010579600005000090087617400013552100000000000000000201710310002001MASTERGLASS PREMIUM GROUP SAS                     D000000000000000000000000000000000100010010000000000000000000000F0010000010579600520171031000101 00000000000000000000000000000000000000000000000000000000000000000000000000000000000000000000000000000000000000000N 00000000000NCONT   00    00000000000          00000000000000000000000000000000000000000000 000000000000000A000000000000000000000000000000000000000000000 000000000000000000000000000000000000000     00000000                                                                                                                        000000000000000000
F0010000010579700001000002770664900011050500000000000000000201710310002001MARY NELCY SANCHEZ GONZALEZ                       D000000010000000000000000000000000100010010000000000000000000000F0010000010579700120171031000101 00000000000000000000000000000000000000000000000000000000000000000000000000000000000000000000000000000000000000000N 00000000000NCONT   00    00000000000          00000000000000000000000000000000000000000000 000000000000000A000000000000000000000000000000000000000000000 000000000000000000000000000000000000000     00000000                                                                                                                        000000000000000000
F0010000010579700002000002770664900041450500000000000000000201710310002001MARY NELCY SANCHEZ GONZALEZ                       C000000009000000000000000000000000100010010000000000000000000000F0010000010579700220171031000101 00000000000000000000000000000000000000000000000000000000000000000000000000000000000000000000000000000000000000000N 00000000000NCONT   00    00000000000          00000000000000000000000000000000000000000000 000000000000000A000000000000000000000000000000000000000000000 000000000000000000000000000000000000000     00000000                                                                                                                        000000000000000000
F0010000010579700003000002770664900042505000000000000000000201710310002001MARY NELCY SANCHEZ GONZALEZ                       C000000001000000000000000000000000100010010000000000000000000000F0010000010579700320171031000101 00000000000000000000000000000000000000000000000000000000000000000000000000000000000000000000000000000000000000000N 00000000000NCONT   00    00000000000          00000000000000000000000000000000000000000000 000000000000000A000000000000000000000000000000000000000000000 000000000000000000000000000000000000000     00000000                                                                                                                        000000000000000000
F0010000010579700004000002770664900023658300000000000000000201710310002001MARY NELCY SANCHEZ GONZALEZ                       C000000000000000000000000000000000100010010000000000000000000000F0010000010579700420171031000101 00000000000000000000000000000000000000000000000000000000000000000000000000000000000000000000000000000000000000000N 00000000000NCONT   00    00000000000          00000000000000000000000000000000000000000000 000000000000000A000000000000000000000000000000000000000000000 000000000000000000000000000000000000000     00000000                                                                                                                        000000000000000000
F0010000010579700005000002770664900013552100000000000000000201710310002001MARY NELCY SANCHEZ GONZALEZ                       D000000000000000000000000000000000100010010000000000000000000000F0010000010579700520171031000101 00000000000000000000000000000000000000000000000000000000000000000000000000000000000000000000000000000000000000000N 00000000000NCONT   00    00000000000          00000000000000000000000000000000000000000000 000000000000000A000000000000000000000000000000000000000000000 000000000000000000000000000000000000000     00000000                                                                                                                        000000000000000000
F0010000010579800001000000866531000011050500000000000000000201710310002001CLAUDIO RAFAEL DE JESUS LLINAS MOLINA             D000000001500000000000000000000000100010010000000000000000000000F0010000010579800120171031000101 00000000000000000000000000000000000000000000000000000000000000000000000000000000000000000000000000000000000000000N 00000000000NCONT   00    00000000000          00000000000000000000000000000000000000000000 000000000000000A000000000000000000000000000000000000000000000 000000000000000000000000000000000000000     00000000                                                                                                                        000000000000000000
F0010000010579800002000000866531000041450500000000000000000201710310002001CLAUDIO RAFAEL DE JESUS LLINAS MOLINA             C000000001300000000000000000000000100010010000000000000000000000F0010000010579800220171031000101 00000000000000000000000000000000000000000000000000000000000000000000000000000000000000000000000000000000000000000N 00000000000NCONT   00    00000000000          00000000000000000000000000000000000000000000 000000000000000A000000000000000000000000000000000000000000000 000000000000000000000000000000000000000     00000000                                                                                                                        000000000000000000
F0010000010579800003000000866531000042505000000000000000000201710310002001CLAUDIO RAFAEL DE JESUS LLINAS MOLINA             C000000000200000000000000000000000100010010000000000000000000000F0010000010579800320171031000101 00000000000000000000000000000000000000000000000000000000000000000000000000000000000000000000000000000000000000000N 00000000000NCONT   00    00000000000          00000000000000000000000000000000000000000000 000000000000000A000000000000000000000000000000000000000000000 000000000000000000000000000000000000000     00000000                                                                                                                        000000000000000000
F0010000010579800004000000866531000023658300000000000000000201710310002001CLAUDIO RAFAEL DE JESUS LLINAS MOLINA             C000000000000000000000000000000000100010010000000000000000000000F0010000010579800420171031000101 00000000000000000000000000000000000000000000000000000000000000000000000000000000000000000000000000000000000000000N 00000000000NCONT   00    00000000000          00000000000000000000000000000000000000000000 000000000000000A000000000000000000000000000000000000000000000 000000000000000000000000000000000000000     00000000                                                                                                                        000000000000000000
F0010000010579800005000000866531000013552100000000000000000201710310002001CLAUDIO RAFAEL DE JESUS LLINAS MOLINA             D000000000000000000000000000000000100010010000000000000000000000F0010000010579800520171031000101 00000000000000000000000000000000000000000000000000000000000000000000000000000000000000000000000000000000000000000N 00000000000NCONT   00    00000000000          00000000000000000000000000000000000000000000 000000000000000A000000000000000000000000000000000000000000000 000000000000000000000000000000000000000     00000000                                                                                                                        000000000000000000
F0010000010579900001000000866531000011050500000000000000000201710310002001CLAUDIO RAFAEL DE JESUS LLINAS MOLINA             D000000001500000000000000000000000100010010000000000000000000000F0010000010579900120171031000101 00000000000000000000000000000000000000000000000000000000000000000000000000000000000000000000000000000000000000000N 00000000000NCONT   00    00000000000          00000000000000000000000000000000000000000000 000000000000000A000000000000000000000000000000000000000000000 000000000000000000000000000000000000000     00000000                                                                                                                        000000000000000000
F0010000010579900002000000866531000041450500000000000000000201710310002001CLAUDIO RAFAEL DE JESUS LLINAS MOLINA             C000000001300000000000000000000000100010010000000000000000000000F0010000010579900220171031000101 00000000000000000000000000000000000000000000000000000000000000000000000000000000000000000000000000000000000000000N 00000000000NCONT   00    00000000000          00000000000000000000000000000000000000000000 000000000000000A000000000000000000000000000000000000000000000 000000000000000000000000000000000000000     00000000                                                                                                                        000000000000000000
F0010000010579900003000000866531000042505000000000000000000201710310002001CLAUDIO RAFAEL DE JESUS LLINAS MOLINA             C000000000200000000000000000000000100010010000000000000000000000F0010000010579900320171031000101 00000000000000000000000000000000000000000000000000000000000000000000000000000000000000000000000000000000000000000N 00000000000NCONT   00    00000000000          00000000000000000000000000000000000000000000 000000000000000A000000000000000000000000000000000000000000000 000000000000000000000000000000000000000     00000000                                                                                                                        000000000000000000
F0010000010579900004000000866531000023658300000000000000000201710310002001CLAUDIO RAFAEL DE JESUS LLINAS MOLINA             C000000000000000000000000000000000100010010000000000000000000000F0010000010579900420171031000101 00000000000000000000000000000000000000000000000000000000000000000000000000000000000000000000000000000000000000000N 00000000000NCONT   00    00000000000          00000000000000000000000000000000000000000000 000000000000000A000000000000000000000000000000000000000000000 000000000000000000000000000000000000000     00000000                                                                                                                        000000000000000000
F0010000010579900005000000866531000013552100000000000000000201710310002001CLAUDIO RAFAEL DE JESUS LLINAS MOLINA             D000000000000000000000000000000000100010010000000000000000000000F0010000010579900520171031000101 00000000000000000000000000000000000000000000000000000000000000000000000000000000000000000000000000000000000000000N 00000000000NCONT   00    00000000000          00000000000000000000000000000000000000000000 000000000000000A000000000000000000000000000000000000000000000 000000000000000000000000000000000000000     00000000                                                                                                                        000000000000000000
F0010000010580000001000000866531000011050500000000000000000201710310002001CLAUDIO RAFAEL DE JESUS LLINAS MOLINA             D000000006950000000000000000000000100010010000000000000000000000F0010000010580000120171031000101 00000000000000000000000000000000000000000000000000000000000000000000000000000000000000000000000000000000000000000N 00000000000NCONT   00    00000000000          00000000000000000000000000000000000000000000 000000000000000A000000000000000000000000000000000000000000000 000000000000000000000000000000000000000     00000000                                                                                                                        000000000000000000
F0010000010580000002000000866531000041450500000000000000000201710310002001CLAUDIO RAFAEL DE JESUS LLINAS MOLINA             C000000006600000000000000000000000100010010000000000000000000000F0010000010580000220171031000101 00000000000000000000000000000000000000000000000000000000000000000000000000000000000000000000000000000000000000000N 00000000000NCONT   00    00000000000          00000000000000000000000000000000000000000000 000000000000000A000000000000000000000000000000000000000000000 000000000000000000000000000000000000000     00000000                                                                                                                        000000000000000000
F0010000010580000003000000866531000042505000000000000000000201710310002001CLAUDIO RAFAEL DE JESUS LLINAS MOLINA             C000000000350000000000000000000000100010010000000000000000000000F0010000010580000320171031000101 00000000000000000000000000000000000000000000000000000000000000000000000000000000000000000000000000000000000000000N 00000000000NCONT   00    00000000000          00000000000000000000000000000000000000000000 000000000000000A000000000000000000000000000000000000000000000 000000000000000000000000000000000000000     00000000                                                                                                                        000000000000000000
F0010000010580000004000000866531000023658300000000000000000201710310002001CLAUDIO RAFAEL DE JESUS LLINAS MOLINA             C000000000000000000000000000000000100010010000000000000000000000F0010000010580000420171031000101 00000000000000000000000000000000000000000000000000000000000000000000000000000000000000000000000000000000000000000N 00000000000NCONT   00    00000000000          00000000000000000000000000000000000000000000 000000000000000A000000000000000000000000000000000000000000000 000000000000000000000000000000000000000     00000000                                                                                                                        000000000000000000
F0010000010580000005000000866531000013552100000000000000000201710310002001CLAUDIO RAFAEL DE JESUS LLINAS MOLINA             D000000000000000000000000000000000100010010000000000000000000000F0010000010580000520171031000101 00000000000000000000000000000000000000000000000000000000000000000000000000000000000000000000000000000000000000000N 00000000000NCONT   00    00000000000          00000000000000000000000000000000000000000000 000000000000000A000000000000000000000000000000000000000000000 000000000000000000000000000000000000000     00000000                                                                                                                        000000000000000000
F0010000010580100001000000866531000011050500000000000000000201710310002001CLAUDIO RAFAEL DE JESUS LLINAS MOLINA             D000000004250000000000000000000000100010010000000000000000000000F0010000010580100120171031000101 00000000000000000000000000000000000000000000000000000000000000000000000000000000000000000000000000000000000000000N 00000000000NCONT   00    00000000000          00000000000000000000000000000000000000000000 000000000000000A000000000000000000000000000000000000000000000 000000000000000000000000000000000000000     00000000                                                                                                                        000000000000000000
F0010000010580100002000000866531000041450500000000000000000201710310002001CLAUDIO RAFAEL DE JESUS LLINAS MOLINA             C000000003900000000000000000000000100010010000000000000000000000F0010000010580100220171031000101 00000000000000000000000000000000000000000000000000000000000000000000000000000000000000000000000000000000000000000N 00000000000NCONT   00    00000000000          00000000000000000000000000000000000000000000 000000000000000A000000000000000000000000000000000000000000000 000000000000000000000000000000000000000     00000000                                                                                                                        000000000000000000
F0010000010580100003000000866531000042505000000000000000000201710310002001CLAUDIO RAFAEL DE JESUS LLINAS MOLINA             C000000000350000000000000000000000100010010000000000000000000000F0010000010580100320171031000101 00000000000000000000000000000000000000000000000000000000000000000000000000000000000000000000000000000000000000000N 00000000000NCONT   00    00000000000          00000000000000000000000000000000000000000000 000000000000000A000000000000000000000000000000000000000000000 000000000000000000000000000000000000000     00000000                                                                                                                        000000000000000000
F0010000010580100004000000866531000023658300000000000000000201710310002001CLAUDIO RAFAEL DE JESUS LLINAS MOLINA             C000000000000000000000000000000000100010010000000000000000000000F0010000010580100420171031000101 00000000000000000000000000000000000000000000000000000000000000000000000000000000000000000000000000000000000000000N 00000000000NCONT   00    00000000000          00000000000000000000000000000000000000000000 000000000000000A000000000000000000000000000000000000000000000 000000000000000000000000000000000000000     00000000                                                                                                                        000000000000000000
F0010000010580100005000000866531000013552100000000000000000201710310002001CLAUDIO RAFAEL DE JESUS LLINAS MOLINA             D000000000000000000000000000000000100010010000000000000000000000F0010000010580100520171031000101 00000000000000000000000000000000000000000000000000000000000000000000000000000000000000000000000000000000000000000N 00000000000NCONT   00    00000000000          00000000000000000000000000000000000000000000 000000000000000A000000000000000000000000000000000000000000000 000000000000000000000000000000000000000     00000000                                                                                                                        000000000000000000
F0010000010580200001000000866531000011050500000000000000000201710310002001CLAUDIO RAFAEL DE JESUS LLINAS MOLINA             D000000001600000000000000000000000100010010000000000000000000000F0010000010580200120171031000101 00000000000000000000000000000000000000000000000000000000000000000000000000000000000000000000000000000000000000000N 00000000000NCONT   00    00000000000          00000000000000000000000000000000000000000000 000000000000000A000000000000000000000000000000000000000000000 000000000000000000000000000000000000000     00000000                                                                                                                        000000000000000000
F0010000010580200002000000866531000041450500000000000000000201710310002001CLAUDIO RAFAEL DE JESUS LLINAS MOLINA             C000000001300000000000000000000000100010010000000000000000000000F0010000010580200220171031000101 00000000000000000000000000000000000000000000000000000000000000000000000000000000000000000000000000000000000000000N 00000000000NCONT   00    00000000000          00000000000000000000000000000000000000000000 000000000000000A000000000000000000000000000000000000000000000 000000000000000000000000000000000000000     00000000                                                                                                                        000000000000000000
F0010000010580200003000000866531000042505000000000000000000201710310002001CLAUDIO RAFAEL DE JESUS LLINAS MOLINA             C000000000300000000000000000000000100010010000000000000000000000F0010000010580200320171031000101 00000000000000000000000000000000000000000000000000000000000000000000000000000000000000000000000000000000000000000N 00000000000NCONT   00    00000000000          00000000000000000000000000000000000000000000 000000000000000A000000000000000000000000000000000000000000000 000000000000000000000000000000000000000     00000000                                                                                                                        000000000000000000
F0010000010580200004000000866531000023658300000000000000000201710310002001CLAUDIO RAFAEL DE JESUS LLINAS MOLINA             C000000000000000000000000000000000100010010000000000000000000000F0010000010580200420171031000101 00000000000000000000000000000000000000000000000000000000000000000000000000000000000000000000000000000000000000000N 00000000000NCONT   00    00000000000          00000000000000000000000000000000000000000000 000000000000000A000000000000000000000000000000000000000000000 000000000000000000000000000000000000000     00000000                                                                                                                        000000000000000000
F0010000010580200005000000866531000013552100000000000000000201710310002001CLAUDIO RAFAEL DE JESUS LLINAS MOLINA             D000000000000000000000000000000000100010010000000000000000000000F0010000010580200520171031000101 00000000000000000000000000000000000000000000000000000000000000000000000000000000000000000000000000000000000000000N 00000000000NCONT   00    00000000000          00000000000000000000000000000000000000000000 000000000000000A000000000000000000000000000000000000000000000 000000000000000000000000000000000000000     00000000                                                                                                                        000000000000000000
F0010000010580300001000000866531000011050500000000000000000201710310002001CLAUDIO RAFAEL DE JESUS LLINAS MOLINA             D000000001400000000000000000000000100010010000000000000000000000F0010000010580300120171031000101 00000000000000000000000000000000000000000000000000000000000000000000000000000000000000000000000000000000000000000N 00000000000NCONT   00    00000000000          00000000000000000000000000000000000000000000 000000000000000A000000000000000000000000000000000000000000000 000000000000000000000000000000000000000     00000000                                                                                                                        000000000000000000
F0010000010580300002000000866531000041450500000000000000000201710310002001CLAUDIO RAFAEL DE JESUS LLINAS MOLINA             C000000001300000000000000000000000100010010000000000000000000000F0010000010580300220171031000101 00000000000000000000000000000000000000000000000000000000000000000000000000000000000000000000000000000000000000000N 00000000000NCONT   00    00000000000          00000000000000000000000000000000000000000000 000000000000000A000000000000000000000000000000000000000000000 000000000000000000000000000000000000000     00000000                                                                                                                        000000000000000000
F0010000010580300003000000866531000042505000000000000000000201710310002001CLAUDIO RAFAEL DE JESUS LLINAS MOLINA             C000000000100000000000000000000000100010010000000000000000000000F0010000010580300320171031000101 00000000000000000000000000000000000000000000000000000000000000000000000000000000000000000000000000000000000000000N 00000000000NCONT   00    00000000000          00000000000000000000000000000000000000000000 000000000000000A000000000000000000000000000000000000000000000 000000000000000000000000000000000000000     00000000                                                                                                                        000000000000000000
F0010000010580300004000000866531000023658300000000000000000201710310002001CLAUDIO RAFAEL DE JESUS LLINAS MOLINA             C000000000000000000000000000000000100010010000000000000000000000F0010000010580300420171031000101 00000000000000000000000000000000000000000000000000000000000000000000000000000000000000000000000000000000000000000N 00000000000NCONT   00    00000000000          00000000000000000000000000000000000000000000 000000000000000A000000000000000000000000000000000000000000000 000000000000000000000000000000000000000     00000000                                                                                                                        000000000000000000
F0010000010580300005000000866531000013552100000000000000000201710310002001CLAUDIO RAFAEL DE JESUS LLINAS MOLINA             D000000000000000000000000000000000100010010000000000000000000000F0010000010580300520171031000101 00000000000000000000000000000000000000000000000000000000000000000000000000000000000000000000000000000000000000000N 00000000000NCONT   00    00000000000          00000000000000000000000000000000000000000000 000000000000000A000000000000000000000000000000000000000000000 000000000000000000000000000000000000000     00000000                                                                                                                        000000000000000000
F0010000010580400001000000866531000011050500000000000000000201710310002001CLAUDIO RAFAEL DE JESUS LLINAS MOLINA             D000000002600000000000000000000000100010010000000000000000000000F0010000010580400120171031000101 00000000000000000000000000000000000000000000000000000000000000000000000000000000000000000000000000000000000000000N 00000000000NCONT   00    00000000000          00000000000000000000000000000000000000000000 000000000000000A000000000000000000000000000000000000000000000 000000000000000000000000000000000000000     00000000                                                                                                                        000000000000000000
F0010000010580400002000000866531000041450500000000000000000201710310002001CLAUDIO RAFAEL DE JESUS LLINAS MOLINA             C000000002200000000000000000000000100010010000000000000000000000F0010000010580400220171031000101 00000000000000000000000000000000000000000000000000000000000000000000000000000000000000000000000000000000000000000N 00000000000NCONT   00    00000000000          00000000000000000000000000000000000000000000 000000000000000A000000000000000000000000000000000000000000000 000000000000000000000000000000000000000     00000000                                                                                                                        000000000000000000
F0010000010580400003000000866531000042505000000000000000000201710310002001CLAUDIO RAFAEL DE JESUS LLINAS MOLINA             C000000000400000000000000000000000100010010000000000000000000000F0010000010580400320171031000101 00000000000000000000000000000000000000000000000000000000000000000000000000000000000000000000000000000000000000000N 00000000000NCONT   00    00000000000          00000000000000000000000000000000000000000000 000000000000000A000000000000000000000000000000000000000000000 000000000000000000000000000000000000000     00000000                                                                                                                        000000000000000000
F0010000010580400004000000866531000023658300000000000000000201710310002001CLAUDIO RAFAEL DE JESUS LLINAS MOLINA             C000000000000000000000000000000000100010010000000000000000000000F0010000010580400420171031000101 00000000000000000000000000000000000000000000000000000000000000000000000000000000000000000000000000000000000000000N 00000000000NCONT   00    00000000000          00000000000000000000000000000000000000000000 000000000000000A000000000000000000000000000000000000000000000 000000000000000000000000000000000000000     00000000                                                                                                                        000000000000000000
F0010000010580400005000000866531000013552100000000000000000201710310002001CLAUDIO RAFAEL DE JESUS LLINAS MOLINA             D000000000000000000000000000000000100010010000000000000000000000F0010000010580400520171031000101 00000000000000000000000000000000000000000000000000000000000000000000000000000000000000000000000000000000000000000N 00000000000NCONT   00    00000000000          00000000000000000000000000000000000000000000 000000000000000A000000000000000000000000000000000000000000000 000000000000000000000000000000000000000     00000000                                                                                                                        000000000000000000
F0010000010580500001000090034602400011050500000000000000000201710310002001PRODUCTOS NACIONALES PARAFINICOS LA CUSTODIA S.A.SD000000001400000000000000000000000100010010000000000000000000000F0010000010580500120171031000101 00000000000000000000000000000000000000000000000000000000000000000000000000000000000000000000000000000000000000000N 00000000000NCONT   00    00000000000          00000000000000000000000000000000000000000000 000000000000000A000000000000000000000000000000000000000000000 000000000000000000000000000000000000000     00000000                                                                                                                        000000000000000000
F0010000010580500002000090034602400041450500000000000000000201710310002001PRODUCTOS NACIONALES PARAFINICOS LA CUSTODIA S.A.SC000000001300000000000000000000000100010010000000000000000000000F0010000010580500220171031000101 00000000000000000000000000000000000000000000000000000000000000000000000000000000000000000000000000000000000000000N 00000000000NCONT   00    00000000000          00000000000000000000000000000000000000000000 000000000000000A000000000000000000000000000000000000000000000 000000000000000000000000000000000000000     00000000                                                                                                                        000000000000000000
F0010000010580500003000090034602400042505000000000000000000201710310002001PRODUCTOS NACIONALES PARAFINICOS LA CUSTODIA S.A.SC000000000100000000000000000000000100010010000000000000000000000F0010000010580500320171031000101 00000000000000000000000000000000000000000000000000000000000000000000000000000000000000000000000000000000000000000N 00000000000NCONT   00    00000000000          00000000000000000000000000000000000000000000 000000000000000A000000000000000000000000000000000000000000000 000000000000000000000000000000000000000     00000000                                                                                                                        000000000000000000
F0010000010580500004000090034602400023658300000000000000000201710310002001PRODUCTOS NACIONALES PARAFINICOS LA CUSTODIA S.A.SC000000000000000000000000000000000100010010000000000000000000000F0010000010580500420171031000101 00000000000000000000000000000000000000000000000000000000000000000000000000000000000000000000000000000000000000000N 00000000000NCONT   00    00000000000          00000000000000000000000000000000000000000000 000000000000000A000000000000000000000000000000000000000000000 000000000000000000000000000000000000000     00000000                                                                                                                        000000000000000000
F0010000010580500005000090034602400013552100000000000000000201710310002001PRODUCTOS NACIONALES PARAFINICOS LA CUSTODIA S.A.SD000000000000000000000000000000000100010010000000000000000000000F0010000010580500520171031000101 00000000000000000000000000000000000000000000000000000000000000000000000000000000000000000000000000000000000000000N 00000000000NCONT   00    00000000000          00000000000000000000000000000000000000000000 000000000000000A000000000000000000000000000000000000000000000 000000000000000000000000000000000000000     00000000                                                                                                                        000000000000000000
F0010000010580600001000090034602400011050500000000000000000201710310002001PRODUCTOS NACIONALES PARAFINICOS LA CUSTODIA S.A.SD000000005900000000000000000000000100010010000000000000000000000F0010000010580600120171031000101 00000000000000000000000000000000000000000000000000000000000000000000000000000000000000000000000000000000000000000N 00000000000NCONT   00    00000000000          00000000000000000000000000000000000000000000 000000000000000A000000000000000000000000000000000000000000000 000000000000000000000000000000000000000     00000000                                                                                                                        000000000000000000
F0010000010580600002000090034602400041450500000000000000000201710310002001PRODUCTOS NACIONALES PARAFINICOS LA CUSTODIA S.A.SC000000005800000000000000000000000100010010000000000000000000000F0010000010580600220171031000101 00000000000000000000000000000000000000000000000000000000000000000000000000000000000000000000000000000000000000000N 00000000000NCONT   00    00000000000          00000000000000000000000000000000000000000000 000000000000000A000000000000000000000000000000000000000000000 000000000000000000000000000000000000000     00000000                                                                                                                        000000000000000000
F0010000010580600003000090034602400042505000000000000000000201710310002001PRODUCTOS NACIONALES PARAFINICOS LA CUSTODIA S.A.SC000000000100000000000000000000000100010010000000000000000000000F0010000010580600320171031000101 00000000000000000000000000000000000000000000000000000000000000000000000000000000000000000000000000000000000000000N 00000000000NCONT   00    00000000000          00000000000000000000000000000000000000000000 000000000000000A000000000000000000000000000000000000000000000 000000000000000000000000000000000000000     00000000                                                                                                                        000000000000000000
F0010000010580600004000090034602400023658300000000000000000201710310002001PRODUCTOS NACIONALES PARAFINICOS LA CUSTODIA S.A.SC000000000000000000000000000000000100010010000000000000000000000F0010000010580600420171031000101 00000000000000000000000000000000000000000000000000000000000000000000000000000000000000000000000000000000000000000N 00000000000NCONT   00    00000000000          00000000000000000000000000000000000000000000 000000000000000A000000000000000000000000000000000000000000000 000000000000000000000000000000000000000     00000000                                                                                                                        000000000000000000
F0010000010580600005000090034602400013552100000000000000000201710310002001PRODUCTOS NACIONALES PARAFINICOS LA CUSTODIA S.A.SD000000000000000000000000000000000100010010000000000000000000000F0010000010580600520171031000101 00000000000000000000000000000000000000000000000000000000000000000000000000000000000000000000000000000000000000000N 00000000000NCONT   00    00000000000          00000000000000000000000000000000000000000000 000000000000000A000000000000000000000000000000000000000000000 000000000000000000000000000000000000000     00000000                                                                                                                        000000000000000000
F0010000010580700001000090034602400011050500000000000000000201710310002001PRODUCTOS NACIONALES PARAFINICOS LA CUSTODIA S.A.SD000000001150000000000000000000000100010010000000000000000000000F0010000010580700120171031000101 00000000000000000000000000000000000000000000000000000000000000000000000000000000000000000000000000000000000000000N 00000000000NCONT   00    00000000000          00000000000000000000000000000000000000000000 000000000000000A000000000000000000000000000000000000000000000 000000000000000000000000000000000000000     00000000                                                                                                                        000000000000000000
F0010000010580700002000090034602400041450500000000000000000201710310002001PRODUCTOS NACIONALES PARAFINICOS LA CUSTODIA S.A.SC000000001050000000000000000000000100010010000000000000000000000F0010000010580700220171031000101 00000000000000000000000000000000000000000000000000000000000000000000000000000000000000000000000000000000000000000N 00000000000NCONT   00    00000000000          00000000000000000000000000000000000000000000 000000000000000A000000000000000000000000000000000000000000000 000000000000000000000000000000000000000     00000000                                                                                                                        000000000000000000
F0010000010580700003000090034602400042505000000000000000000201710310002001PRODUCTOS NACIONALES PARAFINICOS LA CUSTODIA S.A.SC000000000100000000000000000000000100010010000000000000000000000F0010000010580700320171031000101 00000000000000000000000000000000000000000000000000000000000000000000000000000000000000000000000000000000000000000N 00000000000NCONT   00    00000000000          00000000000000000000000000000000000000000000 000000000000000A000000000000000000000000000000000000000000000 000000000000000000000000000000000000000     00000000                                                                                                                        000000000000000000
F0010000010580700004000090034602400023658300000000000000000201710310002001PRODUCTOS NACIONALES PARAFINICOS LA CUSTODIA S.A.SC000000000000000000000000000000000100010010000000000000000000000F0010000010580700420171031000101 00000000000000000000000000000000000000000000000000000000000000000000000000000000000000000000000000000000000000000N 00000000000NCONT   00    00000000000          00000000000000000000000000000000000000000000 000000000000000A000000000000000000000000000000000000000000000 000000000000000000000000000000000000000     00000000                                                                                                                        000000000000000000
F0010000010580700005000090034602400013552100000000000000000201710310002001PRODUCTOS NACIONALES PARAFINICOS LA CUSTODIA S.A.SD000000000000000000000000000000000100010010000000000000000000000F0010000010580700520171031000101 00000000000000000000000000000000000000000000000000000000000000000000000000000000000000000000000000000000000000000N 00000000000NCONT   00    00000000000          00000000000000000000000000000000000000000000 000000000000000A000000000000000000000000000000000000000000000 000000000000000000000000000000000000000     00000000                                                                                                                        000000000000000000
F0010000010580800001000001719393900011050500000000000000000201710310002001JAIRO BASTIDAS RAMIREZ                            D000000001890000000000000000000000100010010000000000000000000000F0010000010580800120171031000101 00000000000000000000000000000000000000000000000000000000000000000000000000000000000000000000000000000000000000000N 00000000000NCONT   00    00000000000          00000000000000000000000000000000000000000000 000000000000000A000000000000000000000000000000000000000000000 000000000000000000000000000000000000000     00000000                                                                                                                        000000000000000000
F0010000010580800002000001719393900041450500000000000000000201710310002001JAIRO BASTIDAS RAMIREZ                            C000000001540000000000000000000000100010010000000000000000000000F0010000010580800220171031000101 00000000000000000000000000000000000000000000000000000000000000000000000000000000000000000000000000000000000000000N 00000000000NCONT   00    00000000000          00000000000000000000000000000000000000000000 000000000000000A000000000000000000000000000000000000000000000 000000000000000000000000000000000000000     00000000                                                                                                                        000000000000000000
F0010000010580800003000001719393900042505000000000000000000201710310002001JAIRO BASTIDAS RAMIREZ                            C000000000350000000000000000000000100010010000000000000000000000F0010000010580800320171031000101 00000000000000000000000000000000000000000000000000000000000000000000000000000000000000000000000000000000000000000N 00000000000NCONT   00    00000000000          00000000000000000000000000000000000000000000 000000000000000A000000000000000000000000000000000000000000000 000000000000000000000000000000000000000     00000000                                                                                                                        000000000000000000
F0010000010580800004000001719393900023658300000000000000000201710310002001JAIRO BASTIDAS RAMIREZ                            C000000000000000000000000000000000100010010000000000000000000000F0010000010580800420171031000101 00000000000000000000000000000000000000000000000000000000000000000000000000000000000000000000000000000000000000000N 00000000000NCONT   00    00000000000          00000000000000000000000000000000000000000000 000000000000000A000000000000000000000000000000000000000000000 000000000000000000000000000000000000000     00000000                                                                                                                        000000000000000000
F0010000010580800005000001719393900013552100000000000000000201710310002001JAIRO BASTIDAS RAMIREZ                            D000000000000000000000000000000000100010010000000000000000000000F0010000010580800520171031000101 00000000000000000000000000000000000000000000000000000000000000000000000000000000000000000000000000000000000000000N 00000000000NCONT   00    00000000000          00000000000000000000000000000000000000000000 000000000000000A000000000000000000000000000000000000000000000 000000000000000000000000000000000000000     00000000                                                                                                                        000000000000000000
F0010000010580900001000080202350700011050500000000000000000201710310002001CONNY DE LA COSTA SAS                             D000000001500000000000000000000000100010010000000000000000000000F0010000010580900120171031000101 00000000000000000000000000000000000000000000000000000000000000000000000000000000000000000000000000000000000000000N 00000000000NCONT   00    00000000000          00000000000000000000000000000000000000000000 000000000000000A000000000000000000000000000000000000000000000 000000000000000000000000000000000000000     00000000                                                                                                                        000000000000000000
F0010000010580900002000080202350700041450500000000000000000201710310002001CONNY DE LA COSTA SAS                             C000000001400000000000000000000000100010010000000000000000000000F0010000010580900220171031000101 00000000000000000000000000000000000000000000000000000000000000000000000000000000000000000000000000000000000000000N 00000000000NCONT   00    00000000000          00000000000000000000000000000000000000000000 000000000000000A000000000000000000000000000000000000000000000 000000000000000000000000000000000000000     00000000                                                                                                                        000000000000000000
F0010000010580900003000080202350700042505000000000000000000201710310002001CONNY DE LA COSTA SAS                             C000000000100000000000000000000000100010010000000000000000000000F0010000010580900320171031000101 00000000000000000000000000000000000000000000000000000000000000000000000000000000000000000000000000000000000000000N 00000000000NCONT   00    00000000000          00000000000000000000000000000000000000000000 000000000000000A000000000000000000000000000000000000000000000 000000000000000000000000000000000000000     00000000                                                                                                                        000000000000000000
F0010000010580900004000080202350700023658300000000000000000201710310002001CONNY DE LA COSTA SAS                             C000000000000000000000000000000000100010010000000000000000000000F0010000010580900420171031000101 00000000000000000000000000000000000000000000000000000000000000000000000000000000000000000000000000000000000000000N 00000000000NCONT   00    00000000000          00000000000000000000000000000000000000000000 000000000000000A000000000000000000000000000000000000000000000 000000000000000000000000000000000000000     00000000                                                                                                                        000000000000000000
F0010000010580900005000080202350700013552100000000000000000201710310002001CONNY DE LA COSTA SAS                             D000000000000000000000000000000000100010010000000000000000000000F0010000010580900520171031000101 00000000000000000000000000000000000000000000000000000000000000000000000000000000000000000000000000000000000000000N 00000000000NCONT   00    00000000000          00000000000000000000000000000000000000000000 000000000000000A000000000000000000000000000000000000000000000 000000000000000000000000000000000000000     00000000                                                                                                                        000000000000000000
F0010000010581000001000003314755400011050500000000000000000201710310002001RUMATEX DE COLOMBIA                               D000000003600000000000000000000000100010010000000000000000000000F0010000010581000120171031000101 00000000000000000000000000000000000000000000000000000000000000000000000000000000000000000000000000000000000000000N 00000000000NCONT   00    00000000000          00000000000000000000000000000000000000000000 000000000000000A000000000000000000000000000000000000000000000 000000000000000000000000000000000000000     00000000                                                                                                                        000000000000000000
F0010000010581000002000003314755400041450500000000000000000201710310002001RUMATEX DE COLOMBIA                               C000000002200000000000000000000000100010010000000000000000000000F0010000010581000220171031000101 00000000000000000000000000000000000000000000000000000000000000000000000000000000000000000000000000000000000000000N 00000000000NCONT   00    00000000000          00000000000000000000000000000000000000000000 000000000000000A000000000000000000000000000000000000000000000 000000000000000000000000000000000000000     00000000                                                                                                                        000000000000000000
F0010000010581000003000003314755400042505000000000000000000201710310002001RUMATEX DE COLOMBIA                               C000000001400000000000000000000000100010010000000000000000000000F0010000010581000320171031000101 00000000000000000000000000000000000000000000000000000000000000000000000000000000000000000000000000000000000000000N 00000000000NCONT   00    00000000000          00000000000000000000000000000000000000000000 000000000000000A000000000000000000000000000000000000000000000 000000000000000000000000000000000000000     00000000                                                                                                                        000000000000000000
F0010000010581000004000003314755400023658300000000000000000201710310002001RUMATEX DE COLOMBIA                               C000000000000000000000000000000000100010010000000000000000000000F0010000010581000420171031000101 00000000000000000000000000000000000000000000000000000000000000000000000000000000000000000000000000000000000000000N 00000000000NCONT   00    00000000000          00000000000000000000000000000000000000000000 000000000000000A000000000000000000000000000000000000000000000 000000000000000000000000000000000000000     00000000                                                                                                                        000000000000000000
F0010000010581000005000003314755400013552100000000000000000201710310002001RUMATEX DE COLOMBIA                               D000000000000000000000000000000000100010010000000000000000000000F0010000010581000520171031000101 00000000000000000000000000000000000000000000000000000000000000000000000000000000000000000000000000000000000000000N 00000000000NCONT   00    00000000000          00000000000000000000000000000000000000000000 000000000000000A000000000000000000000000000000000000000000000 000000000000000000000000000000000000000     00000000                                                                                                                        000000000000000000
F0010000010581100001000001719393900011050500000000000000000201710310002001JAIRO BASTIDAS RAMIREZ                            D000000005620000000000000000000000100010010000000000000000000000F0010000010581100120171031000101 00000000000000000000000000000000000000000000000000000000000000000000000000000000000000000000000000000000000000000N 00000000000NCONT   00    00000000000          00000000000000000000000000000000000000000000 000000000000000A000000000000000000000000000000000000000000000 000000000000000000000000000000000000000     00000000                                                                                                                        000000000000000000
F0010000010581100002000001719393900041450500000000000000000201710310002001JAIRO BASTIDAS RAMIREZ                            C000000004620000000000000000000000100010010000000000000000000000F0010000010581100220171031000101 00000000000000000000000000000000000000000000000000000000000000000000000000000000000000000000000000000000000000000N 00000000000NCONT   00    00000000000          00000000000000000000000000000000000000000000 000000000000000A000000000000000000000000000000000000000000000 000000000000000000000000000000000000000     00000000                                                                                                                        000000000000000000
F0010000010581100003000001719393900042505000000000000000000201710310002001JAIRO BASTIDAS RAMIREZ                            C000000001000000000000000000000000100010010000000000000000000000F0010000010581100320171031000101 00000000000000000000000000000000000000000000000000000000000000000000000000000000000000000000000000000000000000000N 00000000000NCONT   00    00000000000          00000000000000000000000000000000000000000000 000000000000000A000000000000000000000000000000000000000000000 000000000000000000000000000000000000000     00000000                                                                                                                        000000000000000000
F0010000010581100004000001719393900023658300000000000000000201710310002001JAIRO BASTIDAS RAMIREZ                            C000000000000000000000000000000000100010010000000000000000000000F0010000010581100420171031000101 00000000000000000000000000000000000000000000000000000000000000000000000000000000000000000000000000000000000000000N 00000000000NCONT   00    00000000000          00000000000000000000000000000000000000000000 000000000000000A000000000000000000000000000000000000000000000 000000000000000000000000000000000000000     00000000                                                                                                                        000000000000000000
F0010000010581100005000001719393900013552100000000000000000201710310002001JAIRO BASTIDAS RAMIREZ                            D000000000000000000000000000000000100010010000000000000000000000F0010000010581100520171031000101 00000000000000000000000000000000000000000000000000000000000000000000000000000000000000000000000000000000000000000N 00000000000NCONT   00    00000000000          00000000000000000000000000000000000000000000 000000000000000A000000000000000000000000000000000000000000000 000000000000000000000000000000000000000     00000000                                                                                                                        000000000000000000
F0010000010581200001000003314755400011050500000000000000000201710310002001RUMATEX DE COLOMBIA                               D000000004200000000000000000000000100010010000000000000000000000F0010000010581200120171031000101 00000000000000000000000000000000000000000000000000000000000000000000000000000000000000000000000000000000000000000N 00000000000NCONT   00    00000000000          00000000000000000000000000000000000000000000 000000000000000A000000000000000000000000000000000000000000000 000000000000000000000000000000000000000     00000000                                                                                                                        000000000000000000
F0010000010581200002000003314755400041450500000000000000000201710310002001RUMATEX DE COLOMBIA                               C000000002600000000000000000000000100010010000000000000000000000F0010000010581200220171031000101 00000000000000000000000000000000000000000000000000000000000000000000000000000000000000000000000000000000000000000N 00000000000NCONT   00    00000000000          00000000000000000000000000000000000000000000 000000000000000A000000000000000000000000000000000000000000000 000000000000000000000000000000000000000     00000000                                                                                                                        000000000000000000
