F0010000010760400001000089010917700011050500000000000000000201712040002001MAQUIPLAST S.A.S.                                 D000000007600000000000000000000000100010010000000000000000000000F0010000010760400120171204000101 00000000000000000000000000000000000000000000000000000000000000000000000000000000000000000000000000000000000000000N 00000000000NCONT   00    00000000000          00000000000000000000000000000000000000000000 000000000000000A000000000000000000000000000000000000000000000 000000000000000000000000000000000000000     00000000                                                                                                                        000000000000000000
F0010000010760400002000089010917700041450500000000000000000201712040002001MAQUIPLAST S.A.S.                                 C000000007200000000000000000000000100010010000000000000000000000F0010000010760400220171204000101 00000000000000000000000000000000000000000000000000000000000000000000000000000000000000000000000000000000000000000N 00000000000NCONT   00    00000000000          00000000000000000000000000000000000000000000 000000000000000A000000000000000000000000000000000000000000000 000000000000000000000000000000000000000     00000000                                                                                                                        000000000000000000
F0010000010760400003000089010917700042505000000000000000000201712040002001MAQUIPLAST S.A.S.                                 C000000000400000000000000000000000100010010000000000000000000000F0010000010760400320171204000101 00000000000000000000000000000000000000000000000000000000000000000000000000000000000000000000000000000000000000000N 00000000000NCONT   00    00000000000          00000000000000000000000000000000000000000000 000000000000000A000000000000000000000000000000000000000000000 000000000000000000000000000000000000000     00000000                                                                                                                        000000000000000000
F0010000010760400004000089010917700023658300000000000000000201712040002001MAQUIPLAST S.A.S.                                 C000000000000000000000000000000000100010010000000000000000000000F0010000010760400420171204000101 00000000000000000000000000000000000000000000000000000000000000000000000000000000000000000000000000000000000000000N 00000000000NCONT   00    00000000000          00000000000000000000000000000000000000000000 000000000000000A000000000000000000000000000000000000000000000 000000000000000000000000000000000000000     00000000                                                                                                                        000000000000000000
F0010000010760400005000089010917700013552100000000000000000201712040002001MAQUIPLAST S.A.S.                                 D000000000000000000000000000000000100010010000000000000000000000F0010000010760400520171204000101 00000000000000000000000000000000000000000000000000000000000000000000000000000000000000000000000000000000000000000N 00000000000NCONT   00    00000000000          00000000000000000000000000000000000000000000 000000000000000A000000000000000000000000000000000000000000000 000000000000000000000000000000000000000     00000000                                                                                                                        000000000000000000
F0010000010760500001000089010260300013050500000000000000000201712040002001FEDERICO OSORIO A. S.A.                           D000000125953200000000000000000000100010010000000000000000000000F0010000010760500120171204000101 00000000000000000000000000000000000000000000000000000000000000000000000000000000000000000000000000000000000000000N 00000000000NCONT   00    00000000000          00000000000000000000000000000000000000000000 000000000000000A000000000000000000000000000000000000000000000 000000000000000000000000000000000000000     00000000                                                                                                                        000000000000000000
F0010000010760500002000089010260300041450500000000000000000201712040002001FEDERICO OSORIO A. S.A.                           C000000117870000000000000000000000100010010000000000000000000000F0010000010760500220171204000101 00000000000000000000000000000000000000000000000000000000000000000000000000000000000000000000000000000000000000000N 00000000000NCONT   00    00000000000          00000000000000000000000000000000000000000000 000000000000000A000000000000000000000000000000000000000000000 000000000000000000000000000000000000000     00000000                                                                                                                        000000000000000000
F0010000010760500003000089010260300042505000000000000000000201712040002001FEDERICO OSORIO A. S.A.                           C000000008083200000000000000000000100010010000000000000000000000F0010000010760500320171204000101 00000000000000000000000000000000000000000000000000000000000000000000000000000000000000000000000000000000000000000N 00000000000NCONT   00    00000000000          00000000000000000000000000000000000000000000 000000000000000A000000000000000000000000000000000000000000000 000000000000000000000000000000000000000     00000000                                                                                                                        000000000000000000
F0010000010760500004000089010260300023658300000000000000000201712040002001FEDERICO OSORIO A. S.A.                           C000000000000000000000000000000000100010010000000000000000000000F0010000010760500420171204000101 00000000000000000000000000000000000000000000000000000000000000000000000000000000000000000000000000000000000000000N 00000000000NCONT   00    00000000000          00000000000000000000000000000000000000000000 000000000000000A000000000000000000000000000000000000000000000 000000000000000000000000000000000000000     00000000                                                                                                                        000000000000000000
F0010000010760500005000089010260300013552100000000000000000201712040002001FEDERICO OSORIO A. S.A.                           D000000000000000000000000000000000100010010000000000000000000000F0010000010760500520171204000101 00000000000000000000000000000000000000000000000000000000000000000000000000000000000000000000000000000000000000000N 00000000000NCONT   00    00000000000          00000000000000000000000000000000000000000000 000000000000000A000000000000000000000000000000000000000000000 000000000000000000000000000000000000000     00000000                                                                                                                        000000000000000000
F0010000010760600001000002245670100013050500000000000000000201712040002001YOLANDA  TOBON                                    D000000074349200000000000000000000100010010000000000000000000000F0010000010760600120171204000101 00000000000000000000000000000000000000000000000000000000000000000000000000000000000000000000000000000000000000000N 00000000000NCONT   00    00000000000          00000000000000000000000000000000000000000000 000000000000000A000000000000000000000000000000000000000000000 000000000000000000000000000000000000000     00000000                                                                                                                        000000000000000000
F0010000010760600002000002245670100041450500000000000000000201712040002001YOLANDA  TOBON                                    C000000062180000000000000000000000100010010000000000000000000000F0010000010760600220171204000101 00000000000000000000000000000000000000000000000000000000000000000000000000000000000000000000000000000000000000000N 00000000000NCONT   00    00000000000          00000000000000000000000000000000000000000000 000000000000000A000000000000000000000000000000000000000000000 000000000000000000000000000000000000000     00000000                                                                                                                        000000000000000000
F0010000010760600003000002245670100042505000000000000000000201712040002001YOLANDA  TOBON                                    C000000012169200000000000000000000100010010000000000000000000000F0010000010760600320171204000101 00000000000000000000000000000000000000000000000000000000000000000000000000000000000000000000000000000000000000000N 00000000000NCONT   00    00000000000          00000000000000000000000000000000000000000000 000000000000000A000000000000000000000000000000000000000000000 000000000000000000000000000000000000000     00000000                                                                                                                        000000000000000000
F0010000010760600004000002245670100023658300000000000000000201712040002001YOLANDA  TOBON                                    C000000000000000000000000000000000100010010000000000000000000000F0010000010760600420171204000101 00000000000000000000000000000000000000000000000000000000000000000000000000000000000000000000000000000000000000000N 00000000000NCONT   00    00000000000          00000000000000000000000000000000000000000000 000000000000000A000000000000000000000000000000000000000000000 000000000000000000000000000000000000000     00000000                                                                                                                        000000000000000000
F0010000010760600005000002245670100013552100000000000000000201712040002001YOLANDA  TOBON                                    D000000000000000000000000000000000100010010000000000000000000000F0010000010760600520171204000101 00000000000000000000000000000000000000000000000000000000000000000000000000000000000000000000000000000000000000000N 00000000000NCONT   00    00000000000          00000000000000000000000000000000000000000000 000000000000000A000000000000000000000000000000000000000000000 000000000000000000000000000000000000000     00000000                                                                                                                        000000000000000000
F0010000010760700001000086000490200013050500000000000000000201712040002001PROV. DE PAPELES ANDINA S.A.                      D000000060641300000000000000000000100010010000000000000000000000F0010000010760700120171204000101 00000000000000000000000000000000000000000000000000000000000000000000000000000000000000000000000000000000000000000N 00000000000NCONT   00    00000000000          00000000000000000000000000000000000000000000 000000000000000A000000000000000000000000000000000000000000000 000000000000000000000000000000000000000     00000000                                                                                                                        000000000000000000
F0010000010760700002000086000490200041450500000000000000000201712040002001PROV. DE PAPELES ANDINA S.A.                      C000000057253800000000000000000000100010010000000000000000000000F0010000010760700220171204000101 00000000000000000000000000000000000000000000000000000000000000000000000000000000000000000000000000000000000000000N 00000000000NCONT   00    00000000000          00000000000000000000000000000000000000000000 000000000000000A000000000000000000000000000000000000000000000 000000000000000000000000000000000000000     00000000                                                                                                                        000000000000000000
F0010000010760700003000086000490200042505000000000000000000201712040002001PROV. DE PAPELES ANDINA S.A.                      C000000003387500000000000000000000100010010000000000000000000000F0010000010760700320171204000101 00000000000000000000000000000000000000000000000000000000000000000000000000000000000000000000000000000000000000000N 00000000000NCONT   00    00000000000          00000000000000000000000000000000000000000000 000000000000000A000000000000000000000000000000000000000000000 000000000000000000000000000000000000000     00000000                                                                                                                        000000000000000000
F0010000010760700004000086000490200023658300000000000000000201712040002001PROV. DE PAPELES ANDINA S.A.                      C000000000000000000000000000000000100010010000000000000000000000F0010000010760700420171204000101 00000000000000000000000000000000000000000000000000000000000000000000000000000000000000000000000000000000000000000N 00000000000NCONT   00    00000000000          00000000000000000000000000000000000000000000 000000000000000A000000000000000000000000000000000000000000000 000000000000000000000000000000000000000     00000000                                                                                                                        000000000000000000
F0010000010760700005000086000490200013552100000000000000000201712040002001PROV. DE PAPELES ANDINA S.A.                      D000000000000000000000000000000000100010010000000000000000000000F0010000010760700520171204000101 00000000000000000000000000000000000000000000000000000000000000000000000000000000000000000000000000000000000000000N 00000000000NCONT   00    00000000000          00000000000000000000000000000000000000000000 000000000000000A000000000000000000000000000000000000000000000 000000000000000000000000000000000000000     00000000                                                                                                                        000000000000000000
F0010000010760800001000083007900600013050500000000000000000201712040002001EXPRESO ANDINO DE CARGA SA                        D000000085840000000000000000000000100010010000000000000000000000F0010000010760800120171204000101 00000000000000000000000000000000000000000000000000000000000000000000000000000000000000000000000000000000000000000N 00000000000NCONT   00    00000000000          00000000000000000000000000000000000000000000 000000000000000A000000000000000000000000000000000000000000000 000000000000000000000000000000000000000     00000000                                                                                                                        000000000000000000
F0010000010760800002000083007900600041450500000000000000000201712040002001EXPRESO ANDINO DE CARGA SA                        C000000084740000000000000000000000100010010000000000000000000000F0010000010760800220171204000101 00000000000000000000000000000000000000000000000000000000000000000000000000000000000000000000000000000000000000000N 00000000000NCONT   00    00000000000          00000000000000000000000000000000000000000000 000000000000000A000000000000000000000000000000000000000000000 000000000000000000000000000000000000000     00000000                                                                                                                        000000000000000000
F0010000010760800003000083007900600042505000000000000000000201712040002001EXPRESO ANDINO DE CARGA SA                        C000000001100000000000000000000000100010010000000000000000000000F0010000010760800320171204000101 00000000000000000000000000000000000000000000000000000000000000000000000000000000000000000000000000000000000000000N 00000000000NCONT   00    00000000000          00000000000000000000000000000000000000000000 000000000000000A000000000000000000000000000000000000000000000 000000000000000000000000000000000000000     00000000                                                                                                                        000000000000000000
F0010000010760800004000083007900600023658300000000000000000201712040002001EXPRESO ANDINO DE CARGA SA                        C000000000000000000000000000000000100010010000000000000000000000F0010000010760800420171204000101 00000000000000000000000000000000000000000000000000000000000000000000000000000000000000000000000000000000000000000N 00000000000NCONT   00    00000000000          00000000000000000000000000000000000000000000 000000000000000A000000000000000000000000000000000000000000000 000000000000000000000000000000000000000     00000000                                                                                                                        000000000000000000
F0010000010760800005000083007900600013552100000000000000000201712040002001EXPRESO ANDINO DE CARGA SA                        D000000000000000000000000000000000100010010000000000000000000000F0010000010760800520171204000101 00000000000000000000000000000000000000000000000000000000000000000000000000000000000000000000000000000000000000000N 00000000000NCONT   00    00000000000          00000000000000000000000000000000000000000000 000000000000000A000000000000000000000000000000000000000000000 000000000000000000000000000000000000000     00000000                                                                                                                        000000000000000000
F0010000010760900001000080016665600013050500000000000000000201712040002001SUMICAL DE ANTIOQUIA S.A.S                        D000000027831200000000000000000000100010010000000000000000000000F0010000010760900120171204000101 00000000000000000000000000000000000000000000000000000000000000000000000000000000000000000000000000000000000000000N 00000000000NCONT   00    00000000000          00000000000000000000000000000000000000000000 000000000000000A000000000000000000000000000000000000000000000 000000000000000000000000000000000000000     00000000                                                                                                                        000000000000000000
F0010000010760900002000080016665600041450500000000000000000201712040002001SUMICAL DE ANTIOQUIA S.A.S                        C000000022260000000000000000000000100010010000000000000000000000F0010000010760900220171204000101 00000000000000000000000000000000000000000000000000000000000000000000000000000000000000000000000000000000000000000N 00000000000NCONT   00    00000000000          00000000000000000000000000000000000000000000 000000000000000A000000000000000000000000000000000000000000000 000000000000000000000000000000000000000     00000000                                                                                                                        000000000000000000
F0010000010760900003000080016665600042505000000000000000000201712040002001SUMICAL DE ANTIOQUIA S.A.S                        C000000005571200000000000000000000100010010000000000000000000000F0010000010760900320171204000101 00000000000000000000000000000000000000000000000000000000000000000000000000000000000000000000000000000000000000000N 00000000000NCONT   00    00000000000          00000000000000000000000000000000000000000000 000000000000000A000000000000000000000000000000000000000000000 000000000000000000000000000000000000000     00000000                                                                                                                        000000000000000000
F0010000010760900004000080016665600023658300000000000000000201712040002001SUMICAL DE ANTIOQUIA S.A.S                        C000000000000000000000000000000000100010010000000000000000000000F0010000010760900420171204000101 00000000000000000000000000000000000000000000000000000000000000000000000000000000000000000000000000000000000000000N 00000000000NCONT   00    00000000000          00000000000000000000000000000000000000000000 000000000000000A000000000000000000000000000000000000000000000 000000000000000000000000000000000000000     00000000                                                                                                                        000000000000000000
F0010000010760900005000080016665600013552100000000000000000201712040002001SUMICAL DE ANTIOQUIA S.A.S                        D000000000000000000000000000000000100010010000000000000000000000F0010000010760900520171204000101 00000000000000000000000000000000000000000000000000000000000000000000000000000000000000000000000000000000000000000N 00000000000NCONT   00    00000000000          00000000000000000000000000000000000000000000 000000000000000A000000000000000000000000000000000000000000000 000000000000000000000000000000000000000     00000000                                                                                                                        000000000000000000
F0010000010761000001000083001155300013050500000000000000000201712040002001COMERCIALIZADORA RUBEN S LTDA                     D000000016591800000000000000000000100010010000000000000000000000F0010000010761000120171204000101 00000000000000000000000000000000000000000000000000000000000000000000000000000000000000000000000000000000000000000N 00000000000NCONT   00    00000000000          00000000000000000000000000000000000000000000 000000000000000A000000000000000000000000000000000000000000000 000000000000000000000000000000000000000     00000000                                                                                                                        000000000000000000
F0010000010761000002000083001155300041450500000000000000000201712040002001COMERCIALIZADORA RUBEN S LTDA                     C000000014901000000000000000000000100010010000000000000000000000F0010000010761000220171204000101 00000000000000000000000000000000000000000000000000000000000000000000000000000000000000000000000000000000000000000N 00000000000NCONT   00    00000000000          00000000000000000000000000000000000000000000 000000000000000A000000000000000000000000000000000000000000000 000000000000000000000000000000000000000     00000000                                                                                                                        000000000000000000
F0010000010761000003000083001155300042505000000000000000000201712040002001COMERCIALIZADORA RUBEN S LTDA                     C000000001690800000000000000000000100010010000000000000000000000F0010000010761000320171204000101 00000000000000000000000000000000000000000000000000000000000000000000000000000000000000000000000000000000000000000N 00000000000NCONT   00    00000000000          00000000000000000000000000000000000000000000 000000000000000A000000000000000000000000000000000000000000000 000000000000000000000000000000000000000     00000000                                                                                                                        000000000000000000
F0010000010761000004000083001155300023658300000000000000000201712040002001COMERCIALIZADORA RUBEN S LTDA                     C000000000000000000000000000000000100010010000000000000000000000F0010000010761000420171204000101 00000000000000000000000000000000000000000000000000000000000000000000000000000000000000000000000000000000000000000N 00000000000NCONT   00    00000000000          00000000000000000000000000000000000000000000 000000000000000A000000000000000000000000000000000000000000000 000000000000000000000000000000000000000     00000000                                                                                                                        000000000000000000
F0010000010761000005000083001155300013552100000000000000000201712040002001COMERCIALIZADORA RUBEN S LTDA                     D000000000000000000000000000000000100010010000000000000000000000F0010000010761000520171204000101 00000000000000000000000000000000000000000000000000000000000000000000000000000000000000000000000000000000000000000N 00000000000NCONT   00    00000000000          00000000000000000000000000000000000000000000 000000000000000A000000000000000000000000000000000000000000000 000000000000000000000000000000000000000     00000000                                                                                                                        000000000000000000
F0010000010761100001000090064982900013050500000000000000000201712040002001DISDIES S.A.S                                     D000000019238400000000000000000000100010010000000000000000000000F0010000010761100120171204000101 00000000000000000000000000000000000000000000000000000000000000000000000000000000000000000000000000000000000000000N 00000000000NCONT   00    00000000000          00000000000000000000000000000000000000000000 000000000000000A000000000000000000000000000000000000000000000 000000000000000000000000000000000000000     00000000                                                                                                                        000000000000000000
F0010000010761100002000090064982900041450500000000000000000201712040002001DISDIES S.A.S                                     C000000015778400000000000000000000100010010000000000000000000000F0010000010761100220171204000101 00000000000000000000000000000000000000000000000000000000000000000000000000000000000000000000000000000000000000000N 00000000000NCONT   00    00000000000          00000000000000000000000000000000000000000000 000000000000000A000000000000000000000000000000000000000000000 000000000000000000000000000000000000000     00000000                                                                                                                        000000000000000000
F0010000010761100003000090064982900042505000000000000000000201712040002001DISDIES S.A.S                                     C000000003460000000000000000000000100010010000000000000000000000F0010000010761100320171204000101 00000000000000000000000000000000000000000000000000000000000000000000000000000000000000000000000000000000000000000N 00000000000NCONT   00    00000000000          00000000000000000000000000000000000000000000 000000000000000A000000000000000000000000000000000000000000000 000000000000000000000000000000000000000     00000000                                                                                                                        000000000000000000
F0010000010761100004000090064982900023658300000000000000000201712040002001DISDIES S.A.S                                     C000000000000000000000000000000000100010010000000000000000000000F0010000010761100420171204000101 00000000000000000000000000000000000000000000000000000000000000000000000000000000000000000000000000000000000000000N 00000000000NCONT   00    00000000000          00000000000000000000000000000000000000000000 000000000000000A000000000000000000000000000000000000000000000 000000000000000000000000000000000000000     00000000                                                                                                                        000000000000000000
F0010000010761100005000090064982900013552100000000000000000201712040002001DISDIES S.A.S                                     D000000000000000000000000000000000100010010000000000000000000000F0010000010761100520171204000101 00000000000000000000000000000000000000000000000000000000000000000000000000000000000000000000000000000000000000000N 00000000000NCONT   00    00000000000          00000000000000000000000000000000000000000000 000000000000000A000000000000000000000000000000000000000000000 000000000000000000000000000000000000000     00000000                                                                                                                        000000000000000000
F0010000010761200001000080016664500013050500000000000000000201712040002001TELAPLAS PANCER SAS                               D000000026420000000000000000000000100010010000000000000000000000F0010000010761200120171204000101 00000000000000000000000000000000000000000000000000000000000000000000000000000000000000000000000000000000000000000N 00000000000NCONT   00    00000000000          00000000000000000000000000000000000000000000 000000000000000A000000000000000000000000000000000000000000000 000000000000000000000000000000000000000     00000000                                                                                                                        000000000000000000
F0010000010761200002000080016664500041450500000000000000000201712040002001TELAPLAS PANCER SAS                               C000000022400000000000000000000000100010010000000000000000000000F0010000010761200220171204000101 00000000000000000000000000000000000000000000000000000000000000000000000000000000000000000000000000000000000000000N 00000000000NCONT   00    00000000000          00000000000000000000000000000000000000000000 000000000000000A000000000000000000000000000000000000000000000 000000000000000000000000000000000000000     00000000                                                                                                                        000000000000000000
F0010000010761200003000080016664500042505000000000000000000201712040002001TELAPLAS PANCER SAS                               C000000004020000000000000000000000100010010000000000000000000000F0010000010761200320171204000101 00000000000000000000000000000000000000000000000000000000000000000000000000000000000000000000000000000000000000000N 00000000000NCONT   00    00000000000          00000000000000000000000000000000000000000000 000000000000000A000000000000000000000000000000000000000000000 000000000000000000000000000000000000000     00000000                                                                                                                        000000000000000000
F0010000010761200004000080016664500023658300000000000000000201712040002001TELAPLAS PANCER SAS                               C000000000000000000000000000000000100010010000000000000000000000F0010000010761200420171204000101 00000000000000000000000000000000000000000000000000000000000000000000000000000000000000000000000000000000000000000N 00000000000NCONT   00    00000000000          00000000000000000000000000000000000000000000 000000000000000A000000000000000000000000000000000000000000000 000000000000000000000000000000000000000     00000000                                                                                                                        000000000000000000
F0010000010761200005000080016664500013552100000000000000000201712040002001TELAPLAS PANCER SAS                               D000000000000000000000000000000000100010010000000000000000000000F0010000010761200520171204000101 00000000000000000000000000000000000000000000000000000000000000000000000000000000000000000000000000000000000000000N 00000000000NCONT   00    00000000000          00000000000000000000000000000000000000000000 000000000000000A000000000000000000000000000000000000000000000 000000000000000000000000000000000000000     00000000                                                                                                                        000000000000000000
F0010000010761300001000000748239700013050500000000000000000201712040002001RAFAEL NAVARRO URIBE                              D000000017856400000000000000000000100010010000000000000000000000F0010000010761300120171204000101 00000000000000000000000000000000000000000000000000000000000000000000000000000000000000000000000000000000000000000N 00000000000NCONT   00    00000000000          00000000000000000000000000000000000000000000 000000000000000A000000000000000000000000000000000000000000000 000000000000000000000000000000000000000     00000000                                                                                                                        000000000000000000
F0010000010761300002000000748239700041450500000000000000000201712040002001RAFAEL NAVARRO URIBE                              C000000010600000000000000000000000100010010000000000000000000000F0010000010761300220171204000101 00000000000000000000000000000000000000000000000000000000000000000000000000000000000000000000000000000000000000000N 00000000000NCONT   00    00000000000          00000000000000000000000000000000000000000000 000000000000000A000000000000000000000000000000000000000000000 000000000000000000000000000000000000000     00000000                                                                                                                        000000000000000000
F0010000010761300003000000748239700042505000000000000000000201712040002001RAFAEL NAVARRO URIBE                              C000000007256400000000000000000000100010010000000000000000000000F0010000010761300320171204000101 00000000000000000000000000000000000000000000000000000000000000000000000000000000000000000000000000000000000000000N 00000000000NCONT   00    00000000000          00000000000000000000000000000000000000000000 000000000000000A000000000000000000000000000000000000000000000 000000000000000000000000000000000000000     00000000                                                                                                                        000000000000000000
F0010000010761300004000000748239700023658300000000000000000201712040002001RAFAEL NAVARRO URIBE                              C000000000000000000000000000000000100010010000000000000000000000F0010000010761300420171204000101 00000000000000000000000000000000000000000000000000000000000000000000000000000000000000000000000000000000000000000N 00000000000NCONT   00    00000000000          00000000000000000000000000000000000000000000 000000000000000A000000000000000000000000000000000000000000000 000000000000000000000000000000000000000     00000000                                                                                                                        000000000000000000
F0010000010761300005000000748239700013552100000000000000000201712040002001RAFAEL NAVARRO URIBE                              D000000000000000000000000000000000100010010000000000000000000000F0010000010761300520171204000101 00000000000000000000000000000000000000000000000000000000000000000000000000000000000000000000000000000000000000000N 00000000000NCONT   00    00000000000          00000000000000000000000000000000000000000000 000000000000000A000000000000000000000000000000000000000000000 000000000000000000000000000000000000000     00000000                                                                                                                        000000000000000000
F0010000010761400001000000871714900013050500000000000000000201712040002001ROLNAN DE LA ROSA  INSIGNARES                     D000000025666000000000000000000000100010010000000000000000000000F0010000010761400120171204000101 00000000000000000000000000000000000000000000000000000000000000000000000000000000000000000000000000000000000000000N 00000000000NCONT   00    00000000000          00000000000000000000000000000000000000000000 000000000000000A000000000000000000000000000000000000000000000 000000000000000000000000000000000000000     00000000                                                                                                                        000000000000000000
F0010000010761400002000000871714900041450500000000000000000201712040002001ROLNAN DE LA ROSA  INSIGNARES                     C000000022240000000000000000000000100010010000000000000000000000F0010000010761400220171204000101 00000000000000000000000000000000000000000000000000000000000000000000000000000000000000000000000000000000000000000N 00000000000NCONT   00    00000000000          00000000000000000000000000000000000000000000 000000000000000A000000000000000000000000000000000000000000000 000000000000000000000000000000000000000     00000000                                                                                                                        000000000000000000
F0010000010761400003000000871714900042505000000000000000000201712040002001ROLNAN DE LA ROSA  INSIGNARES                     C000000003426000000000000000000000100010010000000000000000000000F0010000010761400320171204000101 00000000000000000000000000000000000000000000000000000000000000000000000000000000000000000000000000000000000000000N 00000000000NCONT   00    00000000000          00000000000000000000000000000000000000000000 000000000000000A000000000000000000000000000000000000000000000 000000000000000000000000000000000000000     00000000                                                                                                                        000000000000000000
F0010000010761400004000000871714900023658300000000000000000201712040002001ROLNAN DE LA ROSA  INSIGNARES                     C000000000000000000000000000000000100010010000000000000000000000F0010000010761400420171204000101 00000000000000000000000000000000000000000000000000000000000000000000000000000000000000000000000000000000000000000N 00000000000NCONT   00    00000000000          00000000000000000000000000000000000000000000 000000000000000A000000000000000000000000000000000000000000000 000000000000000000000000000000000000000     00000000                                                                                                                        000000000000000000
F0010000010761400005000000871714900013552100000000000000000201712040002001ROLNAN DE LA ROSA  INSIGNARES                     D000000000000000000000000000000000100010010000000000000000000000F0010000010761400520171204000101 00000000000000000000000000000000000000000000000000000000000000000000000000000000000000000000000000000000000000000N 00000000000NCONT   00    00000000000          00000000000000000000000000000000000000000000 000000000000000A000000000000000000000000000000000000000000000 000000000000000000000000000000000000000     00000000                                                                                                                        000000000000000000
F0010000010761500001000080201703900013050500000000000000000201712040002001MUNDIAL CHEMICAL LTDA                             D000000001800000000000000000000000100010010000000000000000000000F0010000010761500120171204000101 00000000000000000000000000000000000000000000000000000000000000000000000000000000000000000000000000000000000000000N 00000000000NCONT   00    00000000000          00000000000000000000000000000000000000000000 000000000000000A000000000000000000000000000000000000000000000 000000000000000000000000000000000000000     00000000                                                                                                                        000000000000000000
F0010000010761500002000080201703900041450500000000000000000201712040002001MUNDIAL CHEMICAL LTDA                             C000000001498500000000000000000000100010010000000000000000000000F0010000010761500220171204000101 00000000000000000000000000000000000000000000000000000000000000000000000000000000000000000000000000000000000000000N 00000000000NCONT   00    00000000000          00000000000000000000000000000000000000000000 000000000000000A000000000000000000000000000000000000000000000 000000000000000000000000000000000000000     00000000                                                                                                                        000000000000000000
F0010000010761500003000080201703900042505000000000000000000201712040002001MUNDIAL CHEMICAL LTDA                             C000000000301500000000000000000000100010010000000000000000000000F0010000010761500320171204000101 00000000000000000000000000000000000000000000000000000000000000000000000000000000000000000000000000000000000000000N 00000000000NCONT   00    00000000000          00000000000000000000000000000000000000000000 000000000000000A000000000000000000000000000000000000000000000 000000000000000000000000000000000000000     00000000                                                                                                                        000000000000000000
F0010000010761500004000080201703900023658300000000000000000201712040002001MUNDIAL CHEMICAL LTDA                             C000000000000000000000000000000000100010010000000000000000000000F0010000010761500420171204000101 00000000000000000000000000000000000000000000000000000000000000000000000000000000000000000000000000000000000000000N 00000000000NCONT   00    00000000000          00000000000000000000000000000000000000000000 000000000000000A000000000000000000000000000000000000000000000 000000000000000000000000000000000000000     00000000                                                                                                                        000000000000000000
F0010000010761500005000080201703900013552100000000000000000201712040002001MUNDIAL CHEMICAL LTDA                             D000000000000000000000000000000000100010010000000000000000000000F0010000010761500520171204000101 00000000000000000000000000000000000000000000000000000000000000000000000000000000000000000000000000000000000000000N 00000000000NCONT   00    00000000000          00000000000000000000000000000000000000000000 000000000000000A000000000000000000000000000000000000000000000 000000000000000000000000000000000000000     00000000                                                                                                                        000000000000000000
F0010000010761600001000090059316900013050500000000000000000201712040002001DISTRIBUCIONES Y REPRESENTACIONES MANA            D000000022374000000000000000000000100010010000000000000000000000F0010000010761600120171204000101 00000000000000000000000000000000000000000000000000000000000000000000000000000000000000000000000000000000000000000N 00000000000NCONT   00    00000000000          00000000000000000000000000000000000000000000 000000000000000A000000000000000000000000000000000000000000000 000000000000000000000000000000000000000     00000000                                                                                                                        000000000000000000
F0010000010761600002000090059316900041450500000000000000000201712040002001DISTRIBUCIONES Y REPRESENTACIONES MANA            C000000018490000000000000000000000100010010000000000000000000000F0010000010761600220171204000101 00000000000000000000000000000000000000000000000000000000000000000000000000000000000000000000000000000000000000000N 00000000000NCONT   00    00000000000          00000000000000000000000000000000000000000000 000000000000000A000000000000000000000000000000000000000000000 000000000000000000000000000000000000000     00000000                                                                                                                        000000000000000000
F0010000010761600003000090059316900042505000000000000000000201712040002001DISTRIBUCIONES Y REPRESENTACIONES MANA            C000000003884000000000000000000000100010010000000000000000000000F0010000010761600320171204000101 00000000000000000000000000000000000000000000000000000000000000000000000000000000000000000000000000000000000000000N 00000000000NCONT   00    00000000000          00000000000000000000000000000000000000000000 000000000000000A000000000000000000000000000000000000000000000 000000000000000000000000000000000000000     00000000                                                                                                                        000000000000000000
F0010000010761600004000090059316900023658300000000000000000201712040002001DISTRIBUCIONES Y REPRESENTACIONES MANA            C000000000000000000000000000000000100010010000000000000000000000F0010000010761600420171204000101 00000000000000000000000000000000000000000000000000000000000000000000000000000000000000000000000000000000000000000N 00000000000NCONT   00    00000000000          00000000000000000000000000000000000000000000 000000000000000A000000000000000000000000000000000000000000000 000000000000000000000000000000000000000     00000000                                                                                                                        000000000000000000
F0010000010761600005000090059316900013552100000000000000000201712040002001DISTRIBUCIONES Y REPRESENTACIONES MANA            D000000000000000000000000000000000100010010000000000000000000000F0010000010761600520171204000101 00000000000000000000000000000000000000000000000000000000000000000000000000000000000000000000000000000000000000000N 00000000000NCONT   00    00000000000          00000000000000000000000000000000000000000000 000000000000000A000000000000000000000000000000000000000000000 000000000000000000000000000000000000000     00000000                                                                                                                        000000000000000000
F0010000010761700001000081700097000013050500000000000000000201712040002001POLYLON S.A.                                      D000000015500000000000000000000000100010010000000000000000000000F0010000010761700120171204000101 00000000000000000000000000000000000000000000000000000000000000000000000000000000000000000000000000000000000000000N 00000000000NCONT   00    00000000000          00000000000000000000000000000000000000000000 000000000000000A000000000000000000000000000000000000000000000 000000000000000000000000000000000000000     00000000                                                                                                                        000000000000000000
F0010000010761700002000081700097000041450500000000000000000201712040002001POLYLON S.A.                                      C000000015000000000000000000000000100010010000000000000000000000F0010000010761700220171204000101 00000000000000000000000000000000000000000000000000000000000000000000000000000000000000000000000000000000000000000N 00000000000NCONT   00    00000000000          00000000000000000000000000000000000000000000 000000000000000A000000000000000000000000000000000000000000000 000000000000000000000000000000000000000     00000000                                                                                                                        000000000000000000
F0010000010761700003000081700097000042505000000000000000000201712040002001POLYLON S.A.                                      C000000000500000000000000000000000100010010000000000000000000000F0010000010761700320171204000101 00000000000000000000000000000000000000000000000000000000000000000000000000000000000000000000000000000000000000000N 00000000000NCONT   00    00000000000          00000000000000000000000000000000000000000000 000000000000000A000000000000000000000000000000000000000000000 000000000000000000000000000000000000000     00000000                                                                                                                        000000000000000000
F0010000010761700004000081700097000023658300000000000000000201712040002001POLYLON S.A.                                      C000000000000000000000000000000000100010010000000000000000000000F0010000010761700420171204000101 00000000000000000000000000000000000000000000000000000000000000000000000000000000000000000000000000000000000000000N 00000000000NCONT   00    00000000000          00000000000000000000000000000000000000000000 000000000000000A000000000000000000000000000000000000000000000 000000000000000000000000000000000000000     00000000                                                                                                                        000000000000000000
F0010000010761700005000081700097000013552100000000000000000201712040002001POLYLON S.A.                                      D000000000000000000000000000000000100010010000000000000000000000F0010000010761700520171204000101 00000000000000000000000000000000000000000000000000000000000000000000000000000000000000000000000000000000000000000N 00000000000NCONT   00    00000000000          00000000000000000000000000000000000000000000 000000000000000A000000000000000000000000000000000000000000000 000000000000000000000000000000000000000     00000000                                                                                                                        000000000000000000
F0010000010761900001000090044443800013050500000000000000000201712040002001DISTRIBUCIONES UFRE S.A.S.                        D000000020365000000000000000000000100010010000000000000000000000F0010000010761900120171204000101 00000000000000000000000000000000000000000000000000000000000000000000000000000000000000000000000000000000000000000N 00000000000NCONT   00    00000000000          00000000000000000000000000000000000000000000 000000000000000A000000000000000000000000000000000000000000000 000000000000000000000000000000000000000     00000000                                                                                                                        000000000000000000
F0010000010761900002000090044443800041450500000000000000000201712040002001DISTRIBUCIONES UFRE S.A.S.                        C000000019040000000000000000000000100010010000000000000000000000F0010000010761900220171204000101 00000000000000000000000000000000000000000000000000000000000000000000000000000000000000000000000000000000000000000N 00000000000NCONT   00    00000000000          00000000000000000000000000000000000000000000 000000000000000A000000000000000000000000000000000000000000000 000000000000000000000000000000000000000     00000000                                                                                                                        000000000000000000
F0010000010761900003000090044443800042505000000000000000000201712040002001DISTRIBUCIONES UFRE S.A.S.                        C000000001325000000000000000000000100010010000000000000000000000F0010000010761900320171204000101 00000000000000000000000000000000000000000000000000000000000000000000000000000000000000000000000000000000000000000N 00000000000NCONT   00    00000000000          00000000000000000000000000000000000000000000 000000000000000A000000000000000000000000000000000000000000000 000000000000000000000000000000000000000     00000000                                                                                                                        000000000000000000
F0010000010761900004000090044443800023658300000000000000000201712040002001DISTRIBUCIONES UFRE S.A.S.                        C000000000000000000000000000000000100010010000000000000000000000F0010000010761900420171204000101 00000000000000000000000000000000000000000000000000000000000000000000000000000000000000000000000000000000000000000N 00000000000NCONT   00    00000000000          00000000000000000000000000000000000000000000 000000000000000A000000000000000000000000000000000000000000000 000000000000000000000000000000000000000     00000000                                                                                                                        000000000000000000
F0010000010761900005000090044443800013552100000000000000000201712040002001DISTRIBUCIONES UFRE S.A.S.                        D000000000000000000000000000000000100010010000000000000000000000F0010000010761900520171204000101 00000000000000000000000000000000000000000000000000000000000000000000000000000000000000000000000000000000000000000N 00000000000NCONT   00    00000000000          00000000000000000000000000000000000000000000 000000000000000A000000000000000000000000000000000000000000000 000000000000000000000000000000000000000     00000000                                                                                                                        000000000000000000
F0010000010762000001000090008711200013050500000000000000000201712040002001PACKAGING SUPPLIERS S.A.S                         D000000005412300000000000000000000100010010000000000000000000000F0010000010762000120171204000101 00000000000000000000000000000000000000000000000000000000000000000000000000000000000000000000000000000000000000000N 00000000000NCONT   00    00000000000          00000000000000000000000000000000000000000000 000000000000000A000000000000000000000000000000000000000000000 000000000000000000000000000000000000000     00000000                                                                                                                        000000000000000000
F0010000010762000002000090008711200041450500000000000000000201712040002001PACKAGING SUPPLIERS S.A.S                         C000000004884800000000000000000000100010010000000000000000000000F0010000010762000220171204000101 00000000000000000000000000000000000000000000000000000000000000000000000000000000000000000000000000000000000000000N 00000000000NCONT   00    00000000000          00000000000000000000000000000000000000000000 000000000000000A000000000000000000000000000000000000000000000 000000000000000000000000000000000000000     00000000                                                                                                                        000000000000000000
F0010000010762000003000090008711200042505000000000000000000201712040002001PACKAGING SUPPLIERS S.A.S                         C000000000527500000000000000000000100010010000000000000000000000F0010000010762000320171204000101 00000000000000000000000000000000000000000000000000000000000000000000000000000000000000000000000000000000000000000N 00000000000NCONT   00    00000000000          00000000000000000000000000000000000000000000 000000000000000A000000000000000000000000000000000000000000000 000000000000000000000000000000000000000     00000000                                                                                                                        000000000000000000
F0010000010762000004000090008711200023658300000000000000000201712040002001PACKAGING SUPPLIERS S.A.S                         C000000000000000000000000000000000100010010000000000000000000000F0010000010762000420171204000101 00000000000000000000000000000000000000000000000000000000000000000000000000000000000000000000000000000000000000000N 00000000000NCONT   00    00000000000          00000000000000000000000000000000000000000000 000000000000000A000000000000000000000000000000000000000000000 000000000000000000000000000000000000000     00000000                                                                                                                        000000000000000000
F0010000010762000005000090008711200013552100000000000000000201712040002001PACKAGING SUPPLIERS S.A.S                         D000000000000000000000000000000000100010010000000000000000000000F0010000010762000520171204000101 00000000000000000000000000000000000000000000000000000000000000000000000000000000000000000000000000000000000000000N 00000000000NCONT   00    00000000000          00000000000000000000000000000000000000000000 000000000000000A000000000000000000000000000000000000000000000 000000000000000000000000000000000000000     00000000                                                                                                                        000000000000000000
F0010000010762100001000090052543100013050500000000000000000201712040002001SECRET COLOR SAS                                  D000000011580000000000000000000000100010010000000000000000000000F0010000010762100120171204000101 00000000000000000000000000000000000000000000000000000000000000000000000000000000000000000000000000000000000000000N 00000000000NCONT   00    00000000000          00000000000000000000000000000000000000000000 000000000000000A000000000000000000000000000000000000000000000 000000000000000000000000000000000000000     00000000                                                                                                                        000000000000000000
F0010000010762100002000090052543100041450500000000000000000201712040002001SECRET COLOR SAS                                  C000000011580000000000000000000000100010010000000000000000000000F0010000010762100220171204000101 00000000000000000000000000000000000000000000000000000000000000000000000000000000000000000000000000000000000000000N 00000000000NCONT   00    00000000000          00000000000000000000000000000000000000000000 000000000000000A000000000000000000000000000000000000000000000 000000000000000000000000000000000000000     00000000                                                                                                                        000000000000000000
F0010000010762100003000090052543100042505000000000000000000201712040002001SECRET COLOR SAS                                  C000000000000000000000000000000000100010010000000000000000000000F0010000010762100320171204000101 00000000000000000000000000000000000000000000000000000000000000000000000000000000000000000000000000000000000000000N 00000000000NCONT   00    00000000000          00000000000000000000000000000000000000000000 000000000000000A000000000000000000000000000000000000000000000 000000000000000000000000000000000000000     00000000                                                                                                                        000000000000000000
F0010000010762100004000090052543100023658300000000000000000201712040002001SECRET COLOR SAS                                  C000000000000000000000000000000000100010010000000000000000000000F0010000010762100420171204000101 00000000000000000000000000000000000000000000000000000000000000000000000000000000000000000000000000000000000000000N 00000000000NCONT   00    00000000000          00000000000000000000000000000000000000000000 000000000000000A000000000000000000000000000000000000000000000 000000000000000000000000000000000000000     00000000                                                                                                                        000000000000000000
F0010000010762100005000090052543100013552100000000000000000201712040002001SECRET COLOR SAS                                  D000000000000000000000000000000000100010010000000000000000000000F0010000010762100520171204000101 00000000000000000000000000000000000000000000000000000000000000000000000000000000000000000000000000000000000000000N 00000000000NCONT   00    00000000000          00000000000000000000000000000000000000000000 000000000000000A000000000000000000000000000000000000000000000 000000000000000000000000000000000000000     00000000                                                                                                                        000000000000000000
F0010000010762200001000003273290300013050500000000000000000201712040002001YANETH GOMEZ ROJANO -  COMERCIALIZADORA YG        D000000013837300000000000000000000100010010000000000000000000000F0010000010762200120171204000101 00000000000000000000000000000000000000000000000000000000000000000000000000000000000000000000000000000000000000000N 00000000000NCONT   00    00000000000          00000000000000000000000000000000000000000000 000000000000000A000000000000000000000000000000000000000000000 000000000000000000000000000000000000000     00000000                                                                                                                        000000000000000000
F0010000010762200002000003273290300041450500000000000000000201712040002001YANETH GOMEZ ROJANO -  COMERCIALIZADORA YG        C000000011150000000000000000000000100010010000000000000000000000F0010000010762200220171204000101 00000000000000000000000000000000000000000000000000000000000000000000000000000000000000000000000000000000000000000N 00000000000NCONT   00    00000000000          00000000000000000000000000000000000000000000 000000000000000A000000000000000000000000000000000000000000000 000000000000000000000000000000000000000     00000000                                                                                                                        000000000000000000
F0010000010762200003000003273290300042505000000000000000000201712040002001YANETH GOMEZ ROJANO -  COMERCIALIZADORA YG        C000000002687300000000000000000000100010010000000000000000000000F0010000010762200320171204000101 00000000000000000000000000000000000000000000000000000000000000000000000000000000000000000000000000000000000000000N 00000000000NCONT   00    00000000000          00000000000000000000000000000000000000000000 000000000000000A000000000000000000000000000000000000000000000 000000000000000000000000000000000000000     00000000                                                                                                                        000000000000000000
F0010000010762200004000003273290300023658300000000000000000201712040002001YANETH GOMEZ ROJANO -  COMERCIALIZADORA YG        C000000000000000000000000000000000100010010000000000000000000000F0010000010762200420171204000101 00000000000000000000000000000000000000000000000000000000000000000000000000000000000000000000000000000000000000000N 00000000000NCONT   00    00000000000          00000000000000000000000000000000000000000000 000000000000000A000000000000000000000000000000000000000000000 000000000000000000000000000000000000000     00000000                                                                                                                        000000000000000000
F0010000010762200005000003273290300013552100000000000000000201712040002001YANETH GOMEZ ROJANO -  COMERCIALIZADORA YG        D000000000000000000000000000000000100010010000000000000000000000F0010000010762200520171204000101 00000000000000000000000000000000000000000000000000000000000000000000000000000000000000000000000000000000000000000N 00000000000NCONT   00    00000000000          00000000000000000000000000000000000000000000 000000000000000A000000000000000000000000000000000000000000000 000000000000000000000000000000000000000     00000000                                                                                                                        000000000000000000
F0010000010762300001000090070305900013050500000000000000000201712040002001CONSTRUCCIONES Y ASOCIADOS DE LA COSTA            D000000028600000000000000000000000100010010000000000000000000000F0010000010762300120171204000101 00000000000000000000000000000000000000000000000000000000000000000000000000000000000000000000000000000000000000000N 00000000000NCONT   00    00000000000          00000000000000000000000000000000000000000000 000000000000000A000000000000000000000000000000000000000000000 000000000000000000000000000000000000000     00000000                                                                                                                        000000000000000000
F0010000010762300002000090070305900041450500000000000000000201712040002001CONSTRUCCIONES Y ASOCIADOS DE LA COSTA            C000000028000000000000000000000000100010010000000000000000000000F0010000010762300220171204000101 00000000000000000000000000000000000000000000000000000000000000000000000000000000000000000000000000000000000000000N 00000000000NCONT   00    00000000000          00000000000000000000000000000000000000000000 000000000000000A000000000000000000000000000000000000000000000 000000000000000000000000000000000000000     00000000                                                                                                                        000000000000000000
F0010000010762300003000090070305900042505000000000000000000201712040002001CONSTRUCCIONES Y ASOCIADOS DE LA COSTA            C000000000600000000000000000000000100010010000000000000000000000F0010000010762300320171204000101 00000000000000000000000000000000000000000000000000000000000000000000000000000000000000000000000000000000000000000N 00000000000NCONT   00    00000000000          00000000000000000000000000000000000000000000 000000000000000A000000000000000000000000000000000000000000000 000000000000000000000000000000000000000     00000000                                                                                                                        000000000000000000
F0010000010762300004000090070305900023658300000000000000000201712040002001CONSTRUCCIONES Y ASOCIADOS DE LA COSTA            C000000000000000000000000000000000100010010000000000000000000000F0010000010762300420171204000101 00000000000000000000000000000000000000000000000000000000000000000000000000000000000000000000000000000000000000000N 00000000000NCONT   00    00000000000          00000000000000000000000000000000000000000000 000000000000000A000000000000000000000000000000000000000000000 000000000000000000000000000000000000000     00000000                                                                                                                        000000000000000000
F0010000010762300005000090070305900013552100000000000000000201712040002001CONSTRUCCIONES Y ASOCIADOS DE LA COSTA            D000000000000000000000000000000000100010010000000000000000000000F0010000010762300520171204000101 00000000000000000000000000000000000000000000000000000000000000000000000000000000000000000000000000000000000000000N 00000000000NCONT   00    00000000000          00000000000000000000000000000000000000000000 000000000000000A000000000000000000000000000000000000000000000 000000000000000000000000000000000000000     00000000                                                                                                                        000000000000000000
F0010000010762400001000090060531100013050500000000000000000201712040002001RECUBRIMIENTOS ESENCIALES SAS                     D000000074339600000000000000000000100010010000000000000000000000F0010000010762400120171204000101 00000000000000000000000000000000000000000000000000000000000000000000000000000000000000000000000000000000000000000N 00000000000NCONT   00    00000000000          00000000000000000000000000000000000000000000 000000000000000A000000000000000000000000000000000000000000000 000000000000000000000000000000000000000     00000000                                                                                                                        000000000000000000
F0010000010762400002000090060531100041450500000000000000000201712040002001RECUBRIMIENTOS ESENCIALES SAS                     C000000070740800000000000000000000100010010000000000000000000000F0010000010762400220171204000101 00000000000000000000000000000000000000000000000000000000000000000000000000000000000000000000000000000000000000000N 00000000000NCONT   00    00000000000          00000000000000000000000000000000000000000000 000000000000000A000000000000000000000000000000000000000000000 000000000000000000000000000000000000000     00000000                                                                                                                        000000000000000000
F0010000010762400003000090060531100042505000000000000000000201712040002001RECUBRIMIENTOS ESENCIALES SAS                     C000000003598800000000000000000000100010010000000000000000000000F0010000010762400320171204000101 00000000000000000000000000000000000000000000000000000000000000000000000000000000000000000000000000000000000000000N 00000000000NCONT   00    00000000000          00000000000000000000000000000000000000000000 000000000000000A000000000000000000000000000000000000000000000 000000000000000000000000000000000000000     00000000                                                                                                                        000000000000000000
F0010000010762400004000090060531100023658300000000000000000201712040002001RECUBRIMIENTOS ESENCIALES SAS                     C000000000000000000000000000000000100010010000000000000000000000F0010000010762400420171204000101 00000000000000000000000000000000000000000000000000000000000000000000000000000000000000000000000000000000000000000N 00000000000NCONT   00    00000000000          00000000000000000000000000000000000000000000 000000000000000A000000000000000000000000000000000000000000000 000000000000000000000000000000000000000     00000000                                                                                                                        000000000000000000
F0010000010762400005000090060531100013552100000000000000000201712040002001RECUBRIMIENTOS ESENCIALES SAS                     D000000000000000000000000000000000100010010000000000000000000000F0010000010762400520171204000101 00000000000000000000000000000000000000000000000000000000000000000000000000000000000000000000000000000000000000000N 00000000000NCONT   00    00000000000          00000000000000000000000000000000000000000000 000000000000000A000000000000000000000000000000000000000000000 000000000000000000000000000000000000000     00000000                                                                                                                        000000000000000000
F0010000010762500001000080200069100013050500000000000000000201712040002001PEGANTES Y PINTURAS ATLAS LTDA                    D000000013740200000000000000000000100010010000000000000000000000F0010000010762500120171204000101 00000000000000000000000000000000000000000000000000000000000000000000000000000000000000000000000000000000000000000N 00000000000NCONT   00    00000000000          00000000000000000000000000000000000000000000 000000000000000A000000000000000000000000000000000000000000000 000000000000000000000000000000000000000     00000000                                                                                                                        000000000000000000
F0010000010762500002000080200069100041450500000000000000000201712040002001PEGANTES Y PINTURAS ATLAS LTDA                    C000000012110000000000000000000000100010010000000000000000000000F0010000010762500220171204000101 00000000000000000000000000000000000000000000000000000000000000000000000000000000000000000000000000000000000000000N 00000000000NCONT   00    00000000000          00000000000000000000000000000000000000000000 000000000000000A000000000000000000000000000000000000000000000 000000000000000000000000000000000000000     00000000                                                                                                                        000000000000000000
F0010000010762500003000080200069100042505000000000000000000201712040002001PEGANTES Y PINTURAS ATLAS LTDA                    C000000001630200000000000000000000100010010000000000000000000000F0010000010762500320171204000101 00000000000000000000000000000000000000000000000000000000000000000000000000000000000000000000000000000000000000000N 00000000000NCONT   00    00000000000          00000000000000000000000000000000000000000000 000000000000000A000000000000000000000000000000000000000000000 000000000000000000000000000000000000000     00000000                                                                                                                        000000000000000000
F0010000010762500004000080200069100023658300000000000000000201712040002001PEGANTES Y PINTURAS ATLAS LTDA                    C000000000000000000000000000000000100010010000000000000000000000F0010000010762500420171204000101 00000000000000000000000000000000000000000000000000000000000000000000000000000000000000000000000000000000000000000N 00000000000NCONT   00    00000000000          00000000000000000000000000000000000000000000 000000000000000A000000000000000000000000000000000000000000000 000000000000000000000000000000000000000     00000000                                                                                                                        000000000000000000
F0010000010762500005000080200069100013552100000000000000000201712040002001PEGANTES Y PINTURAS ATLAS LTDA                    D000000000000000000000000000000000100010010000000000000000000000F0010000010762500520171204000101 00000000000000000000000000000000000000000000000000000000000000000000000000000000000000000000000000000000000000000N 00000000000NCONT   00    00000000000          00000000000000000000000000000000000000000000 000000000000000A000000000000000000000000000000000000000000000 000000000000000000000000000000000000000     00000000                                                                                                                        000000000000000000
F0010000010762600001000080002300200013050500000000000000000201712040002001DISREL S.A.                                       D000000039000000000000000000000000100010010000000000000000000000F0010000010762600120171204000101 00000000000000000000000000000000000000000000000000000000000000000000000000000000000000000000000000000000000000000N 00000000000NCONT   00    00000000000          00000000000000000000000000000000000000000000 000000000000000A000000000000000000000000000000000000000000000 000000000000000000000000000000000000000     00000000                                                                                                                        000000000000000000
F0010000010762600002000080002300200041450500000000000000000201712040002001DISREL S.A.                                       C000000031200000000000000000000000100010010000000000000000000000F0010000010762600220171204000101 00000000000000000000000000000000000000000000000000000000000000000000000000000000000000000000000000000000000000000N 00000000000NCONT   00    00000000000          00000000000000000000000000000000000000000000 000000000000000A000000000000000000000000000000000000000000000 000000000000000000000000000000000000000     00000000                                                                                                                        000000000000000000
F0010000010762600003000080002300200042505000000000000000000201712040002001DISREL S.A.                                       C000000007800000000000000000000000100010010000000000000000000000F0010000010762600320171204000101 00000000000000000000000000000000000000000000000000000000000000000000000000000000000000000000000000000000000000000N 00000000000NCONT   00    00000000000          00000000000000000000000000000000000000000000 000000000000000A000000000000000000000000000000000000000000000 000000000000000000000000000000000000000     00000000                                                                                                                        000000000000000000
F0010000010762600004000080002300200023658300000000000000000201712040002001DISREL S.A.                                       C000000000000000000000000000000000100010010000000000000000000000F0010000010762600420171204000101 00000000000000000000000000000000000000000000000000000000000000000000000000000000000000000000000000000000000000000N 00000000000NCONT   00    00000000000          00000000000000000000000000000000000000000000 000000000000000A000000000000000000000000000000000000000000000 000000000000000000000000000000000000000     00000000                                                                                                                        000000000000000000
F0010000010762600005000080002300200013552100000000000000000201712040002001DISREL S.A.                                       D000000000000000000000000000000000100010010000000000000000000000F0010000010762600520171204000101 00000000000000000000000000000000000000000000000000000000000000000000000000000000000000000000000000000000000000000N 00000000000NCONT   00    00000000000          00000000000000000000000000000000000000000000 000000000000000A000000000000000000000000000000000000000000000 000000000000000000000000000000000000000     00000000                                                                                                                        000000000000000000
F0010000010762700001000080202094000013050500000000000000000201712040002001DISTRIB. OMAR ORREGO S.A.                         D000000107339500000000000000000000100010010000000000000000000000F0010000010762700120171204000101 00000000000000000000000000000000000000000000000000000000000000000000000000000000000000000000000000000000000000000N 00000000000NCONT   00    00000000000          00000000000000000000000000000000000000000000 000000000000000A000000000000000000000000000000000000000000000 000000000000000000000000000000000000000     00000000                                                                                                                        000000000000000000
F0010000010762700002000080202094000041450500000000000000000201712040002001DISTRIB. OMAR ORREGO S.A.                         C000000065680000000000000000000000100010010000000000000000000000F0010000010762700220171204000101 00000000000000000000000000000000000000000000000000000000000000000000000000000000000000000000000000000000000000000N 00000000000NCONT   00    00000000000          00000000000000000000000000000000000000000000 000000000000000A000000000000000000000000000000000000000000000 000000000000000000000000000000000000000     00000000                                                                                                                        000000000000000000
F0010000010762700003000080202094000042505000000000000000000201712040002001DISTRIB. OMAR ORREGO S.A.                         C000000041659500000000000000000000100010010000000000000000000000F0010000010762700320171204000101 00000000000000000000000000000000000000000000000000000000000000000000000000000000000000000000000000000000000000000N 00000000000NCONT   00    00000000000          00000000000000000000000000000000000000000000 000000000000000A000000000000000000000000000000000000000000000 000000000000000000000000000000000000000     00000000                                                                                                                        000000000000000000
F0010000010762700004000080202094000023658300000000000000000201712040002001DISTRIB. OMAR ORREGO S.A.                         C000000000000000000000000000000000100010010000000000000000000000F0010000010762700420171204000101 00000000000000000000000000000000000000000000000000000000000000000000000000000000000000000000000000000000000000000N 00000000000NCONT   00    00000000000          00000000000000000000000000000000000000000000 000000000000000A000000000000000000000000000000000000000000000 000000000000000000000000000000000000000     00000000                                                                                                                        000000000000000000
F0010000010762700005000080202094000013552100000000000000000201712040002001DISTRIB. OMAR ORREGO S.A.                         D000000000000000000000000000000000100010010000000000000000000000F0010000010762700520171204000101 00000000000000000000000000000000000000000000000000000000000000000000000000000000000000000000000000000000000000000N 00000000000NCONT   00    00000000000          00000000000000000000000000000000000000000000 000000000000000A000000000000000000000000000000000000000000000 000000000000000000000000000000000000000     00000000                                                                                                                        000000000000000000
F0010000010762800001000080202094000013050500000000000000000201712040002001DISTRIB. OMAR ORREGO S.A.                         D000000036156800000000000000000000100010010000000000000000000000F0010000010762800120171204000101 00000000000000000000000000000000000000000000000000000000000000000000000000000000000000000000000000000000000000000N 00000000000NCONT   00    00000000000          00000000000000000000000000000000000000000000 000000000000000A000000000000000000000000000000000000000000000 000000000000000000000000000000000000000     00000000                                                                                                                        000000000000000000
F0010000010762800002000080202094000041450500000000000000000201712040002001DISTRIB. OMAR ORREGO S.A.                         C000000023200000000000000000000000100010010000000000000000000000F0010000010762800220171204000101 00000000000000000000000000000000000000000000000000000000000000000000000000000000000000000000000000000000000000000N 00000000000NCONT   00    00000000000          00000000000000000000000000000000000000000000 000000000000000A000000000000000000000000000000000000000000000 000000000000000000000000000000000000000     00000000                                                                                                                        000000000000000000
F0010000010762800003000080202094000042505000000000000000000201712040002001DISTRIB. OMAR ORREGO S.A.                         C000000012956800000000000000000000100010010000000000000000000000F0010000010762800320171204000101 00000000000000000000000000000000000000000000000000000000000000000000000000000000000000000000000000000000000000000N 00000000000NCONT   00    00000000000          00000000000000000000000000000000000000000000 000000000000000A000000000000000000000000000000000000000000000 000000000000000000000000000000000000000     00000000                                                                                                                        000000000000000000
F0010000010762800004000080202094000023658300000000000000000201712040002001DISTRIB. OMAR ORREGO S.A.                         C000000000000000000000000000000000100010010000000000000000000000F0010000010762800420171204000101 00000000000000000000000000000000000000000000000000000000000000000000000000000000000000000000000000000000000000000N 00000000000NCONT   00    00000000000          00000000000000000000000000000000000000000000 000000000000000A000000000000000000000000000000000000000000000 000000000000000000000000000000000000000     00000000                                                                                                                        000000000000000000
F0010000010762800005000080202094000013552100000000000000000201712040002001DISTRIB. OMAR ORREGO S.A.                         D000000000000000000000000000000000100010010000000000000000000000F0010000010762800520171204000101 00000000000000000000000000000000000000000000000000000000000000000000000000000000000000000000000000000000000000000N 00000000000NCONT   00    00000000000          00000000000000000000000000000000000000000000 000000000000000A000000000000000000000000000000000000000000000 000000000000000000000000000000000000000     00000000                                                                                                                        000000000000000000
F0010000010762900001000081102758700013050500000000000000000201712040002001C.I. ABRACOL S.A EMA                              D000000196147000000000000000000000100010010000000000000000000000F0010000010762900120171204000101 00000000000000000000000000000000000000000000000000000000000000000000000000000000000000000000000000000000000000000N 00000000000NCONT   00    00000000000          00000000000000000000000000000000000000000000 000000000000000A000000000000000000000000000000000000000000000 000000000000000000000000000000000000000     00000000                                                                                                                        000000000000000000
F0010000010762900002000081102758700041450500000000000000000201712040002001C.I. ABRACOL S.A EMA                              C000000168760000000000000000000000100010010000000000000000000000F0010000010762900220171204000101 00000000000000000000000000000000000000000000000000000000000000000000000000000000000000000000000000000000000000000N 00000000000NCONT   00    00000000000          00000000000000000000000000000000000000000000 000000000000000A000000000000000000000000000000000000000000000 000000000000000000000000000000000000000     00000000                                                                                                                        000000000000000000
F0010000010762900003000081102758700041750100000000000000000201712040002001C.I. ABRACOL S.A EMA                              D000000005062800000000000000000000100010010000000000000000000000F0010000010762900320171204000101 00000000000000000000000000000000000000000000000000000000000000000000000000000000000000000000000000000000000000000N 00000000000NCONT   00    00000000000          00000000000000000000000000000000000000000000 000000000000000A000000000000000000000000000000000000000000000 000000000000000000000000000000000000000     00000000                                                                                                                        000000000000000000
F0010000010762900004000081102758700042505000000000000000000201712040002001C.I. ABRACOL S.A EMA                              C000000032449800000000000000000000100010010000000000000000000000F0010000010762900420171204000101 00000000000000000000000000000000000000000000000000000000000000000000000000000000000000000000000000000000000000000N 00000000000NCONT   00    00000000000          00000000000000000000000000000000000000000000 000000000000000A000000000000000000000000000000000000000000000 000000000000000000000000000000000000000     00000000                                                                                                                        000000000000000000
F0010000010762900005000081102758700023658300000000000000000201712040002001C.I. ABRACOL S.A EMA                              C000000000000000000000000000000000100010010000000000000000000000F0010000010762900520171204000101 00000000000000000000000000000000000000000000000000000000000000000000000000000000000000000000000000000000000000000N 00000000000NCONT   00    00000000000          00000000000000000000000000000000000000000000 000000000000000A000000000000000000000000000000000000000000000 000000000000000000000000000000000000000     00000000                                                                                                                        000000000000000000
F0010000010762900006000081102758700013552100000000000000000201712040002001C.I. ABRACOL S.A EMA                              D000000000000000000000000000000000100010010000000000000000000000F0010000010762900620171204000101 00000000000000000000000000000000000000000000000000000000000000000000000000000000000000000000000000000000000000000N 00000000000NCONT   00    00000000000          00000000000000000000000000000000000000000000 000000000000000A000000000000000000000000000000000000000000000 000000000000000000000000000000000000000     00000000                                                                                                                        000000000000000000
F0010000010763000001000081102758700013050500000000000000000201712040002001C.I. ABRACOL S.A EMA                              D000000067258700000000000000000000100010010000000000000000000000F0010000010763000120171204000101 00000000000000000000000000000000000000000000000000000000000000000000000000000000000000000000000000000000000000000N 00000000000NCONT   00    00000000000          00000000000000000000000000000000000000000000 000000000000000A000000000000000000000000000000000000000000000 000000000000000000000000000000000000000     00000000                                                                                                                        000000000000000000
F0010000010763000002000081102758700041450500000000000000000201712040002001C.I. ABRACOL S.A EMA                              C000000048140000000000000000000000100010010000000000000000000000F0010000010763000220171204000101 00000000000000000000000000000000000000000000000000000000000000000000000000000000000000000000000000000000000000000N 00000000000NCONT   00    00000000000          00000000000000000000000000000000000000000000 000000000000000A000000000000000000000000000000000000000000000 000000000000000000000000000000000000000     00000000                                                                                                                        000000000000000000
F0010000010763000003000081102758700041750100000000000000000201712040002001C.I. ABRACOL S.A EMA                              D000000001444200000000000000000000100010010000000000000000000000F0010000010763000320171204000101 00000000000000000000000000000000000000000000000000000000000000000000000000000000000000000000000000000000000000000N 00000000000NCONT   00    00000000000          00000000000000000000000000000000000000000000 000000000000000A000000000000000000000000000000000000000000000 000000000000000000000000000000000000000     00000000                                                                                                                        000000000000000000
F0010000010763000004000081102758700042505000000000000000000201712040002001C.I. ABRACOL S.A EMA                              C000000020562900000000000000000000100010010000000000000000000000F0010000010763000420171204000101 00000000000000000000000000000000000000000000000000000000000000000000000000000000000000000000000000000000000000000N 00000000000NCONT   00    00000000000          00000000000000000000000000000000000000000000 000000000000000A000000000000000000000000000000000000000000000 000000000000000000000000000000000000000     00000000                                                                                                                        000000000000000000
F0010000010763000005000081102758700023658300000000000000000201712040002001C.I. ABRACOL S.A EMA                              C000000000000000000000000000000000100010010000000000000000000000F0010000010763000520171204000101 00000000000000000000000000000000000000000000000000000000000000000000000000000000000000000000000000000000000000000N 00000000000NCONT   00    00000000000          00000000000000000000000000000000000000000000 000000000000000A000000000000000000000000000000000000000000000 000000000000000000000000000000000000000     00000000                                                                                                                        000000000000000000
F0010000010763000006000081102758700013552100000000000000000201712040002001C.I. ABRACOL S.A EMA                              D000000000000000000000000000000000100010010000000000000000000000F0010000010763000620171204000101 00000000000000000000000000000000000000000000000000000000000000000000000000000000000000000000000000000000000000000N 00000000000NCONT   00    00000000000          00000000000000000000000000000000000000000000 000000000000000A000000000000000000000000000000000000000000000 000000000000000000000000000000000000000     00000000                                                                                                                        000000000000000000
F0010000010763100001000090014415700013050500000000000000000201712040002001CORDELES Y EXTRUIDOS DE COLOMBIA S.A.S.           D000000008021900000000000000000000100010010000000000000000000000F0010000010763100120171204000101 00000000000000000000000000000000000000000000000000000000000000000000000000000000000000000000000000000000000000000N 00000000000NCONT   00    00000000000          00000000000000000000000000000000000000000000 000000000000000A000000000000000000000000000000000000000000000 000000000000000000000000000000000000000     00000000                                                                                                                        000000000000000000
F0010000010763100002000090014415700041450500000000000000000201712040002001CORDELES Y EXTRUIDOS DE COLOMBIA S.A.S.           C000000007486500000000000000000000100010010000000000000000000000F0010000010763100220171204000101 00000000000000000000000000000000000000000000000000000000000000000000000000000000000000000000000000000000000000000N 00000000000NCONT   00    00000000000          00000000000000000000000000000000000000000000 000000000000000A000000000000000000000000000000000000000000000 000000000000000000000000000000000000000     00000000                                                                                                                        000000000000000000
F0010000010763100003000090014415700042505000000000000000000201712040002001CORDELES Y EXTRUIDOS DE COLOMBIA S.A.S.           C000000000535400000000000000000000100010010000000000000000000000F0010000010763100320171204000101 00000000000000000000000000000000000000000000000000000000000000000000000000000000000000000000000000000000000000000N 00000000000NCONT   00    00000000000          00000000000000000000000000000000000000000000 000000000000000A000000000000000000000000000000000000000000000 000000000000000000000000000000000000000     00000000                                                                                                                        000000000000000000
F0010000010763100004000090014415700023658300000000000000000201712040002001CORDELES Y EXTRUIDOS DE COLOMBIA S.A.S.           C000000000000000000000000000000000100010010000000000000000000000F0010000010763100420171204000101 00000000000000000000000000000000000000000000000000000000000000000000000000000000000000000000000000000000000000000N 00000000000NCONT   00    00000000000          00000000000000000000000000000000000000000000 000000000000000A000000000000000000000000000000000000000000000 000000000000000000000000000000000000000     00000000                                                                                                                        000000000000000000
F0010000010763100005000090014415700013552100000000000000000201712040002001CORDELES Y EXTRUIDOS DE COLOMBIA S.A.S.           D000000000000000000000000000000000100010010000000000000000000000F0010000010763100520171204000101 00000000000000000000000000000000000000000000000000000000000000000000000000000000000000000000000000000000000000000N 00000000000NCONT   00    00000000000          00000000000000000000000000000000000000000000 000000000000000A000000000000000000000000000000000000000000000 000000000000000000000000000000000000000     00000000                                                                                                                        000000000000000000
F0010000010763200001000089011492400013050500000000000000000201712040002001AGE. CAUCHOSOL DE LA COSTA  SAS                   D000000053733500000000000000000000100010010000000000000000000000F0010000010763200120171204000101 00000000000000000000000000000000000000000000000000000000000000000000000000000000000000000000000000000000000000000N 00000000000NCONT   00    00000000000          00000000000000000000000000000000000000000000 000000000000000A000000000000000000000000000000000000000000000 000000000000000000000000000000000000000     00000000                                                                                                                        000000000000000000
F0010000010763200002000089011492400041450500000000000000000201712040002001AGE. CAUCHOSOL DE LA COSTA  SAS                   C000000032150000000000000000000000100010010000000000000000000000F0010000010763200220171204000101 00000000000000000000000000000000000000000000000000000000000000000000000000000000000000000000000000000000000000000N 00000000000NCONT   00    00000000000          00000000000000000000000000000000000000000000 000000000000000A000000000000000000000000000000000000000000000 000000000000000000000000000000000000000     00000000                                                                                                                        000000000000000000
F0010000010763200003000089011492400042505000000000000000000201712040002001AGE. CAUCHOSOL DE LA COSTA  SAS                   C000000021583500000000000000000000100010010000000000000000000000F0010000010763200320171204000101 00000000000000000000000000000000000000000000000000000000000000000000000000000000000000000000000000000000000000000N 00000000000NCONT   00    00000000000          00000000000000000000000000000000000000000000 000000000000000A000000000000000000000000000000000000000000000 000000000000000000000000000000000000000     00000000                                                                                                                        000000000000000000
F0010000010763200004000089011492400023658300000000000000000201712040002001AGE. CAUCHOSOL DE LA COSTA  SAS                   C000000000000000000000000000000000100010010000000000000000000000F0010000010763200420171204000101 00000000000000000000000000000000000000000000000000000000000000000000000000000000000000000000000000000000000000000N 00000000000NCONT   00    00000000000          00000000000000000000000000000000000000000000 000000000000000A000000000000000000000000000000000000000000000 000000000000000000000000000000000000000     00000000                                                                                                                        000000000000000000
F0010000010763200005000089011492400013552100000000000000000201712040002001AGE. CAUCHOSOL DE LA COSTA  SAS                   D000000000000000000000000000000000100010010000000000000000000000F0010000010763200520171204000101 00000000000000000000000000000000000000000000000000000000000000000000000000000000000000000000000000000000000000000N 00000000000NCONT   00    00000000000          00000000000000000000000000000000000000000000 000000000000000A000000000000000000000000000000000000000000000 000000000000000000000000000000000000000     00000000                                                                                                                        000000000000000000
F0010000010763300001000080200863700013050500000000000000000201712040002001COPIN S.A.S                                       D000000255892600000000000000000000100010010000000000000000000000F0010000010763300120171204000101 00000000000000000000000000000000000000000000000000000000000000000000000000000000000000000000000000000000000000000N 00000000000NCONT   00    00000000000          00000000000000000000000000000000000000000000 000000000000000A000000000000000000000000000000000000000000000 000000000000000000000000000000000000000     00000000                                                                                                                        000000000000000000
F0010000010763300002000080200863700041450500000000000000000201712040002001COPIN S.A.S                                       C000000236283000000000000000000000100010010000000000000000000000F0010000010763300220171204000101 00000000000000000000000000000000000000000000000000000000000000000000000000000000000000000000000000000000000000000N 00000000000NCONT   00    00000000000          00000000000000000000000000000000000000000000 000000000000000A000000000000000000000000000000000000000000000 000000000000000000000000000000000000000     00000000                                                                                                                        000000000000000000
F0010000010763300003000080200863700042505000000000000000000201712040002001COPIN S.A.S                                       C000000019609600000000000000000000100010010000000000000000000000F0010000010763300320171204000101 00000000000000000000000000000000000000000000000000000000000000000000000000000000000000000000000000000000000000000N 00000000000NCONT   00    00000000000          00000000000000000000000000000000000000000000 000000000000000A000000000000000000000000000000000000000000000 000000000000000000000000000000000000000     00000000                                                                                                                        000000000000000000
F0010000010763300004000080200863700023658300000000000000000201712040002001COPIN S.A.S                                       C000000000000000000000000000000000100010010000000000000000000000F0010000010763300420171204000101 00000000000000000000000000000000000000000000000000000000000000000000000000000000000000000000000000000000000000000N 00000000000NCONT   00    00000000000          00000000000000000000000000000000000000000000 000000000000000A000000000000000000000000000000000000000000000 000000000000000000000000000000000000000     00000000                                                                                                                        000000000000000000
F0010000010763300005000080200863700013552100000000000000000201712040002001COPIN S.A.S                                       D000000000000000000000000000000000100010010000000000000000000000F0010000010763300520171204000101 00000000000000000000000000000000000000000000000000000000000000000000000000000000000000000000000000000000000000000N 00000000000NCONT   00    00000000000          00000000000000000000000000000000000000000000 000000000000000A000000000000000000000000000000000000000000000 000000000000000000000000000000000000000     00000000                                                                                                                        000000000000000000
