F0010000009009100001000080200250700013050500000000000000000201608190002001ETICOL SAS                                        D000000013631200000000000000000000100010010000000000000000000000F0010000009009100120160819000101 00000000000000000000000000000000000000000000000000000000000000000000000000000000000000000000000000000000000000000N 00000000000NCONT   00    00000000000          00000000000000000000000000000000000000000000 000000000000000A000000000000000000000000000000000000000000000 000000000000000000000000000000000000000     00000000                                                                                                                        000000000000000000
F0010000009009100002000080200250700041450500000000000000000201608190002001ETICOL SAS                                        C000000013131200000000000000000000100010010000000000000000000000F0010000009009100220160819000101 00000000000000000000000000000000000000000000000000000000000000000000000000000000000000000000000000000000000000000N 00000000000NCONT   00    00000000000          00000000000000000000000000000000000000000000 000000000000000A000000000000000000000000000000000000000000000 000000000000000000000000000000000000000     00000000                                                                                                                        000000000000000000
F0010000009009100003000080200250700042505000000000000000000201608190002001ETICOL SAS                                        C000000000500000000000000000000000100010010000000000000000000000F0010000009009100320160819000101 00000000000000000000000000000000000000000000000000000000000000000000000000000000000000000000000000000000000000000N 00000000000NCONT   00    00000000000          00000000000000000000000000000000000000000000 000000000000000A000000000000000000000000000000000000000000000 000000000000000000000000000000000000000     00000000                                                                                                                        000000000000000000
F0010000009009100004000080200250700023658300000000000000000201608190002001ETICOL SAS                                        C000000000105000000000000000000000100010010000000000000000000000F0010000009009100420160819000101 00000000000000000000000000000000000000000000000000000000000000000000000000000000000000000000000000000000000000000N 00000000000NCONT   00    00000000000          00000000000000000000000000000000000000000000 000000000000000A000000000000000000000000000000000000000000000 000000000000000000000000000000000000000     00000000                                                                                                                        000000000000000000
F0010000009009100005000080200250700013552100000000000000000201608190002001ETICOL SAS                                        D000000000105000000000000000000000100010010000000000000000000000F0010000009009100520160819000101 00000000000000000000000000000000000000000000000000000000000000000000000000000000000000000000000000000000000000000N 00000000000NCONT   00    00000000000          00000000000000000000000000000000000000000000 000000000000000A000000000000000000000000000000000000000000000 000000000000000000000000000000000000000     00000000                                                                                                                        000000000000000000
F0010000009009200001000090049854300013050500000000000000000201608190002001TRAPOS INDUSTRIALES DE COLOMBIA SAS               D000000080079000000000000000000000100010010000000000000000000000F0010000009009200120160819000101 00000000000000000000000000000000000000000000000000000000000000000000000000000000000000000000000000000000000000000N 00000000000NCONT   00    00000000000          00000000000000000000000000000000000000000000 000000000000000A000000000000000000000000000000000000000000000 000000000000000000000000000000000000000     00000000                                                                                                                        000000000000000000
F0010000009009200002000090049854300041450500000000000000000201608190002001TRAPOS INDUSTRIALES DE COLOMBIA SAS               C000000075000000000000000000000000100010010000000000000000000000F0010000009009200220160819000101 00000000000000000000000000000000000000000000000000000000000000000000000000000000000000000000000000000000000000000N 00000000000NCONT   00    00000000000          00000000000000000000000000000000000000000000 000000000000000A000000000000000000000000000000000000000000000 000000000000000000000000000000000000000     00000000                                                                                                                        000000000000000000
F0010000009009200003000090049854300042505000000000000000000201608190002001TRAPOS INDUSTRIALES DE COLOMBIA SAS               C000000005079000000000000000000000100010010000000000000000000000F0010000009009200320160819000101 00000000000000000000000000000000000000000000000000000000000000000000000000000000000000000000000000000000000000000N 00000000000NCONT   00    00000000000          00000000000000000000000000000000000000000000 000000000000000A000000000000000000000000000000000000000000000 000000000000000000000000000000000000000     00000000                                                                                                                        000000000000000000
F0010000009009200004000090049854300023658300000000000000000201608190002001TRAPOS INDUSTRIALES DE COLOMBIA SAS               C000000000600000000000000000000000100010010000000000000000000000F0010000009009200420160819000101 00000000000000000000000000000000000000000000000000000000000000000000000000000000000000000000000000000000000000000N 00000000000NCONT   00    00000000000          00000000000000000000000000000000000000000000 000000000000000A000000000000000000000000000000000000000000000 000000000000000000000000000000000000000     00000000                                                                                                                        000000000000000000
F0010000009009200005000090049854300013552100000000000000000201608190002001TRAPOS INDUSTRIALES DE COLOMBIA SAS               D000000000600000000000000000000000100010010000000000000000000000F0010000009009200520160819000101 00000000000000000000000000000000000000000000000000000000000000000000000000000000000000000000000000000000000000000N 00000000000NCONT   00    00000000000          00000000000000000000000000000000000000000000 000000000000000A000000000000000000000000000000000000000000000 000000000000000000000000000000000000000     00000000                                                                                                                        000000000000000000
F0010000009009300001000086000490200013050500000000000000000201608190002001PROV. DE PAPELES ANDINA S.A.                      D000000026521000000000000000000000100010010000000000000000000000F0010000009009300120160819000101 00000000000000000000000000000000000000000000000000000000000000000000000000000000000000000000000000000000000000000N 00000000000NCONT   00    00000000000          00000000000000000000000000000000000000000000 000000000000000A000000000000000000000000000000000000000000000 000000000000000000000000000000000000000     00000000                                                                                                                        000000000000000000
F0010000009009300002000086000490200041450500000000000000000201608190002001PROV. DE PAPELES ANDINA S.A.                      C000000023827500000000000000000000100010010000000000000000000000F0010000009009300220160819000101 00000000000000000000000000000000000000000000000000000000000000000000000000000000000000000000000000000000000000000N 00000000000NCONT   00    00000000000          00000000000000000000000000000000000000000000 000000000000000A000000000000000000000000000000000000000000000 000000000000000000000000000000000000000     00000000                                                                                                                        000000000000000000
F0010000009009300003000086000490200042505000000000000000000201608190002001PROV. DE PAPELES ANDINA S.A.                      C000000002693500000000000000000000100010010000000000000000000000F0010000009009300320160819000101 00000000000000000000000000000000000000000000000000000000000000000000000000000000000000000000000000000000000000000N 00000000000NCONT   00    00000000000          00000000000000000000000000000000000000000000 000000000000000A000000000000000000000000000000000000000000000 000000000000000000000000000000000000000     00000000                                                                                                                        000000000000000000
F0010000009009300004000086000490200023658300000000000000000201608190002001PROV. DE PAPELES ANDINA S.A.                      C000000000190600000000000000000000100010010000000000000000000000F0010000009009300420160819000101 00000000000000000000000000000000000000000000000000000000000000000000000000000000000000000000000000000000000000000N 00000000000NCONT   00    00000000000          00000000000000000000000000000000000000000000 000000000000000A000000000000000000000000000000000000000000000 000000000000000000000000000000000000000     00000000                                                                                                                        000000000000000000
F0010000009009300005000086000490200013552100000000000000000201608190002001PROV. DE PAPELES ANDINA S.A.                      D000000000190600000000000000000000100010010000000000000000000000F0010000009009300520160819000101 00000000000000000000000000000000000000000000000000000000000000000000000000000000000000000000000000000000000000000N 00000000000NCONT   00    00000000000          00000000000000000000000000000000000000000000 000000000000000A000000000000000000000000000000000000000000000 000000000000000000000000000000000000000     00000000                                                                                                                        000000000000000000
F0010000009009400001000002257933700013050500000000000000000201608190002001ROSA MARGARITA  PUCCINI SU HERRAMIENTAS Y ELECTRICD000000008364300000000000000000000100010010000000000000000000000F0010000009009400120160819000101 00000000000000000000000000000000000000000000000000000000000000000000000000000000000000000000000000000000000000000N 00000000000NCONT   00    00000000000          00000000000000000000000000000000000000000000 000000000000000A000000000000000000000000000000000000000000000 000000000000000000000000000000000000000     00000000                                                                                                                        000000000000000000
F0010000009009400002000002257933700041450500000000000000000201608190002001ROSA MARGARITA  PUCCINI SU HERRAMIENTAS Y ELECTRICC000000006840000000000000000000000100010010000000000000000000000F0010000009009400220160819000101 00000000000000000000000000000000000000000000000000000000000000000000000000000000000000000000000000000000000000000N 00000000000NCONT   00    00000000000          00000000000000000000000000000000000000000000 000000000000000A000000000000000000000000000000000000000000000 000000000000000000000000000000000000000     00000000                                                                                                                        000000000000000000
F0010000009009400003000002257933700042505000000000000000000201608190002001ROSA MARGARITA  PUCCINI SU HERRAMIENTAS Y ELECTRICC000000001524300000000000000000000100010010000000000000000000000F0010000009009400320160819000101 00000000000000000000000000000000000000000000000000000000000000000000000000000000000000000000000000000000000000000N 00000000000NCONT   00    00000000000          00000000000000000000000000000000000000000000 000000000000000A000000000000000000000000000000000000000000000 000000000000000000000000000000000000000     00000000                                                                                                                        000000000000000000
F0010000009009400004000002257933700023658300000000000000000201608190002001ROSA MARGARITA  PUCCINI SU HERRAMIENTAS Y ELECTRICC000000000054700000000000000000000100010010000000000000000000000F0010000009009400420160819000101 00000000000000000000000000000000000000000000000000000000000000000000000000000000000000000000000000000000000000000N 00000000000NCONT   00    00000000000          00000000000000000000000000000000000000000000 000000000000000A000000000000000000000000000000000000000000000 000000000000000000000000000000000000000     00000000                                                                                                                        000000000000000000
F0010000009009400005000002257933700013552100000000000000000201608190002001ROSA MARGARITA  PUCCINI SU HERRAMIENTAS Y ELECTRICD000000000054700000000000000000000100010010000000000000000000000F0010000009009400520160819000101 00000000000000000000000000000000000000000000000000000000000000000000000000000000000000000000000000000000000000000N 00000000000NCONT   00    00000000000          00000000000000000000000000000000000000000000 000000000000000A000000000000000000000000000000000000000000000 000000000000000000000000000000000000000     00000000                                                                                                                        000000000000000000
F0010000009009500001000002252363900011050500000000000000000201608190002001GLADYS DONADO RODRIGUEZ                           D000000001400000000000000000000000100010010000000000000000000000F0010000009009500120160819000101 00000000000000000000000000000000000000000000000000000000000000000000000000000000000000000000000000000000000000000N 00000000000NCONT   00    00000000000          00000000000000000000000000000000000000000000 000000000000000A000000000000000000000000000000000000000000000 000000000000000000000000000000000000000     00000000                                                                                                                        000000000000000000
F0010000009009500002000002252363900041450500000000000000000201608190002001GLADYS DONADO RODRIGUEZ                           C000000001300000000000000000000000100010010000000000000000000000F0010000009009500220160819000101 00000000000000000000000000000000000000000000000000000000000000000000000000000000000000000000000000000000000000000N 00000000000NCONT   00    00000000000          00000000000000000000000000000000000000000000 000000000000000A000000000000000000000000000000000000000000000 000000000000000000000000000000000000000     00000000                                                                                                                        000000000000000000
F0010000009009500003000002252363900042505000000000000000000201608190002001GLADYS DONADO RODRIGUEZ                           C000000000100000000000000000000000100010010000000000000000000000F0010000009009500320160819000101 00000000000000000000000000000000000000000000000000000000000000000000000000000000000000000000000000000000000000000N 00000000000NCONT   00    00000000000          00000000000000000000000000000000000000000000 000000000000000A000000000000000000000000000000000000000000000 000000000000000000000000000000000000000     00000000                                                                                                                        000000000000000000
F0010000009009500004000002252363900023658300000000000000000201608190002001GLADYS DONADO RODRIGUEZ                           C000000000010400000000000000000000100010010000000000000000000000F0010000009009500420160819000101 00000000000000000000000000000000000000000000000000000000000000000000000000000000000000000000000000000000000000000N 00000000000NCONT   00    00000000000          00000000000000000000000000000000000000000000 000000000000000A000000000000000000000000000000000000000000000 000000000000000000000000000000000000000     00000000                                                                                                                        000000000000000000
F0010000009009500005000002252363900013552100000000000000000201608190002001GLADYS DONADO RODRIGUEZ                           D000000000010400000000000000000000100010010000000000000000000000F0010000009009500520160819000101 00000000000000000000000000000000000000000000000000000000000000000000000000000000000000000000000000000000000000000N 00000000000NCONT   00    00000000000          00000000000000000000000000000000000000000000 000000000000000A000000000000000000000000000000000000000000000 000000000000000000000000000000000000000     00000000                                                                                                                        000000000000000000
F0010000009009600001000080201112800013050500000000000000000201608190002001CANGURO INTERNATIONAL S.A.                        D000000161231600000000000000000000100010010000000000000000000000F0010000009009600120160819000101 00000000000000000000000000000000000000000000000000000000000000000000000000000000000000000000000000000000000000000N 00000000000NCONT   00    00000000000          00000000000000000000000000000000000000000000 000000000000000A000000000000000000000000000000000000000000000 000000000000000000000000000000000000000     00000000                                                                                                                        000000000000000000
F0010000009009600002000080201112800041450500000000000000000201608190002001CANGURO INTERNATIONAL S.A.                        C000000159956600000000000000000000100010010000000000000000000000F0010000009009600220160819000101 00000000000000000000000000000000000000000000000000000000000000000000000000000000000000000000000000000000000000000N 00000000000NCONT   00    00000000000          00000000000000000000000000000000000000000000 000000000000000A000000000000000000000000000000000000000000000 000000000000000000000000000000000000000     00000000                                                                                                                        000000000000000000
F0010000009009600003000080201112800042505000000000000000000201608190002001CANGURO INTERNATIONAL S.A.                        C000000001275000000000000000000000100010010000000000000000000000F0010000009009600320160819000101 00000000000000000000000000000000000000000000000000000000000000000000000000000000000000000000000000000000000000000N 00000000000NCONT   00    00000000000          00000000000000000000000000000000000000000000 000000000000000A000000000000000000000000000000000000000000000 000000000000000000000000000000000000000     00000000                                                                                                                        000000000000000000
F0010000009009600004000080201112800023658300000000000000000201608190002001CANGURO INTERNATIONAL S.A.                        C000000001279700000000000000000000100010010000000000000000000000F0010000009009600420160819000101 00000000000000000000000000000000000000000000000000000000000000000000000000000000000000000000000000000000000000000N 00000000000NCONT   00    00000000000          00000000000000000000000000000000000000000000 000000000000000A000000000000000000000000000000000000000000000 000000000000000000000000000000000000000     00000000                                                                                                                        000000000000000000
F0010000009009600005000080201112800013552100000000000000000201608190002001CANGURO INTERNATIONAL S.A.                        D000000001279700000000000000000000100010010000000000000000000000F0010000009009600520160819000101 00000000000000000000000000000000000000000000000000000000000000000000000000000000000000000000000000000000000000000N 00000000000NCONT   00    00000000000          00000000000000000000000000000000000000000000 000000000000000A000000000000000000000000000000000000000000000 000000000000000000000000000000000000000     00000000                                                                                                                        000000000000000000
F0010000009009700001000080201112800013050500000000000000000201608190002001CANGURO INTERNATIONAL S.A.                        D000000166006500000000000000000000100010010000000000000000000000F0010000009009700120160819000101 00000000000000000000000000000000000000000000000000000000000000000000000000000000000000000000000000000000000000000N 00000000000NCONT   00    00000000000          00000000000000000000000000000000000000000000 000000000000000A000000000000000000000000000000000000000000000 000000000000000000000000000000000000000     00000000                                                                                                                        000000000000000000
F0010000009009700002000080201112800041450500000000000000000201608190002001CANGURO INTERNATIONAL S.A.                        C000000160046200000000000000000000100010010000000000000000000000F0010000009009700220160819000101 00000000000000000000000000000000000000000000000000000000000000000000000000000000000000000000000000000000000000000N 00000000000NCONT   00    00000000000          00000000000000000000000000000000000000000000 000000000000000A000000000000000000000000000000000000000000000 000000000000000000000000000000000000000     00000000                                                                                                                        000000000000000000
F0010000009009700003000080201112800042505000000000000000000201608190002001CANGURO INTERNATIONAL S.A.                        C000000005960300000000000000000000100010010000000000000000000000F0010000009009700320160819000101 00000000000000000000000000000000000000000000000000000000000000000000000000000000000000000000000000000000000000000N 00000000000NCONT   00    00000000000          00000000000000000000000000000000000000000000 000000000000000A000000000000000000000000000000000000000000000 000000000000000000000000000000000000000     00000000                                                                                                                        000000000000000000
F0010000009009700004000080201112800023658300000000000000000201608190002001CANGURO INTERNATIONAL S.A.                        C000000001280400000000000000000000100010010000000000000000000000F0010000009009700420160819000101 00000000000000000000000000000000000000000000000000000000000000000000000000000000000000000000000000000000000000000N 00000000000NCONT   00    00000000000          00000000000000000000000000000000000000000000 000000000000000A000000000000000000000000000000000000000000000 000000000000000000000000000000000000000     00000000                                                                                                                        000000000000000000
F0010000009009700005000080201112800013552100000000000000000201608190002001CANGURO INTERNATIONAL S.A.                        D000000001280400000000000000000000100010010000000000000000000000F0010000009009700520160819000101 00000000000000000000000000000000000000000000000000000000000000000000000000000000000000000000000000000000000000000N 00000000000NCONT   00    00000000000          00000000000000000000000000000000000000000000 000000000000000A000000000000000000000000000000000000000000000 000000000000000000000000000000000000000     00000000                                                                                                                        000000000000000000
F0010000009009900001000080019113900013050500000000000000000201608190002001COMERCIAL NOVAPEL LTDA                            D000000026820000000000000000000000100010010000000000000000000000F0010000009009900120160819000101 00000000000000000000000000000000000000000000000000000000000000000000000000000000000000000000000000000000000000000N 00000000000NCONT   00    00000000000          00000000000000000000000000000000000000000000 000000000000000A000000000000000000000000000000000000000000000 000000000000000000000000000000000000000     00000000                                                                                                                        000000000000000000
F0010000009009900002000080019113900041450500000000000000000201608190002001COMERCIAL NOVAPEL LTDA                            C000000025720000000000000000000000100010010000000000000000000000F0010000009009900220160819000101 00000000000000000000000000000000000000000000000000000000000000000000000000000000000000000000000000000000000000000N 00000000000NCONT   00    00000000000          00000000000000000000000000000000000000000000 000000000000000A000000000000000000000000000000000000000000000 000000000000000000000000000000000000000     00000000                                                                                                                        000000000000000000
F0010000009009900003000080019113900042505000000000000000000201608190002001COMERCIAL NOVAPEL LTDA                            C000000001100000000000000000000000100010010000000000000000000000F0010000009009900320160819000101 00000000000000000000000000000000000000000000000000000000000000000000000000000000000000000000000000000000000000000N 00000000000NCONT   00    00000000000          00000000000000000000000000000000000000000000 000000000000000A000000000000000000000000000000000000000000000 000000000000000000000000000000000000000     00000000                                                                                                                        000000000000000000
F0010000009009900004000080019113900023658300000000000000000201608190002001COMERCIAL NOVAPEL LTDA                            C000000000205800000000000000000000100010010000000000000000000000F0010000009009900420160819000101 00000000000000000000000000000000000000000000000000000000000000000000000000000000000000000000000000000000000000000N 00000000000NCONT   00    00000000000          00000000000000000000000000000000000000000000 000000000000000A000000000000000000000000000000000000000000000 000000000000000000000000000000000000000     00000000                                                                                                                        000000000000000000
F0010000009009900005000080019113900013552100000000000000000201608190002001COMERCIAL NOVAPEL LTDA                            D000000000205800000000000000000000100010010000000000000000000000F0010000009009900520160819000101 00000000000000000000000000000000000000000000000000000000000000000000000000000000000000000000000000000000000000000N 00000000000NCONT   00    00000000000          00000000000000000000000000000000000000000000 000000000000000A000000000000000000000000000000000000000000000 000000000000000000000000000000000000000     00000000                                                                                                                        000000000000000000
F0010000009010000001000000748239700013050500000000000000000201608190002001RAFAEL NAVARRO URIBE                              D000000023513200000000000000000000100010010000000000000000000000F0010000009010000120160819000101 00000000000000000000000000000000000000000000000000000000000000000000000000000000000000000000000000000000000000000N 00000000000NCONT   00    00000000000          00000000000000000000000000000000000000000000 000000000000000A000000000000000000000000000000000000000000000 000000000000000000000000000000000000000     00000000                                                                                                                        000000000000000000
F0010000009010000002000000748239700041450500000000000000000201608190002001RAFAEL NAVARRO URIBE                              C000000013240000000000000000000000100010010000000000000000000000F0010000009010000220160819000101 00000000000000000000000000000000000000000000000000000000000000000000000000000000000000000000000000000000000000000N 00000000000NCONT   00    00000000000          00000000000000000000000000000000000000000000 000000000000000A000000000000000000000000000000000000000000000 000000000000000000000000000000000000000     00000000                                                                                                                        000000000000000000
F0010000009010000003000000748239700042505000000000000000000201608190002001RAFAEL NAVARRO URIBE                              C000000010273200000000000000000000100010010000000000000000000000F0010000009010000320160819000101 00000000000000000000000000000000000000000000000000000000000000000000000000000000000000000000000000000000000000000N 00000000000NCONT   00    00000000000          00000000000000000000000000000000000000000000 000000000000000A000000000000000000000000000000000000000000000 000000000000000000000000000000000000000     00000000                                                                                                                        000000000000000000
F0010000009010000004000000748239700023658300000000000000000201608190002001RAFAEL NAVARRO URIBE                              C000000000105900000000000000000000100010010000000000000000000000F0010000009010000420160819000101 00000000000000000000000000000000000000000000000000000000000000000000000000000000000000000000000000000000000000000N 00000000000NCONT   00    00000000000          00000000000000000000000000000000000000000000 000000000000000A000000000000000000000000000000000000000000000 000000000000000000000000000000000000000     00000000                                                                                                                        000000000000000000
F0010000009010000005000000748239700013552100000000000000000201608190002001RAFAEL NAVARRO URIBE                              D000000000105900000000000000000000100010010000000000000000000000F0010000009010000520160819000101 00000000000000000000000000000000000000000000000000000000000000000000000000000000000000000000000000000000000000000N 00000000000NCONT   00    00000000000          00000000000000000000000000000000000000000000 000000000000000A000000000000000000000000000000000000000000000 000000000000000000000000000000000000000     00000000                                                                                                                        000000000000000000
F0010000009010100001000080002300200013050500000000000000000201608190002001DISREL S.A.                                       D000000023100000000000000000000000100010010000000000000000000000F0010000009010100120160819000101 00000000000000000000000000000000000000000000000000000000000000000000000000000000000000000000000000000000000000000N 00000000000NCONT   00    00000000000          00000000000000000000000000000000000000000000 000000000000000A000000000000000000000000000000000000000000000 000000000000000000000000000000000000000     00000000                                                                                                                        000000000000000000
F0010000009010100002000080002300200041450500000000000000000201608190002001DISREL S.A.                                       C000000018620000000000000000000000100010010000000000000000000000F0010000009010100220160819000101 00000000000000000000000000000000000000000000000000000000000000000000000000000000000000000000000000000000000000000N 00000000000NCONT   00    00000000000          00000000000000000000000000000000000000000000 000000000000000A000000000000000000000000000000000000000000000 000000000000000000000000000000000000000     00000000                                                                                                                        000000000000000000
F0010000009010100003000080002300200042505000000000000000000201608190002001DISREL S.A.                                       C000000004480000000000000000000000100010010000000000000000000000F0010000009010100320160819000101 00000000000000000000000000000000000000000000000000000000000000000000000000000000000000000000000000000000000000000N 00000000000NCONT   00    00000000000          00000000000000000000000000000000000000000000 000000000000000A000000000000000000000000000000000000000000000 000000000000000000000000000000000000000     00000000                                                                                                                        000000000000000000
F0010000009010100004000080002300200023658300000000000000000201608190002001DISREL S.A.                                       C000000000149000000000000000000000100010010000000000000000000000F0010000009010100420160819000101 00000000000000000000000000000000000000000000000000000000000000000000000000000000000000000000000000000000000000000N 00000000000NCONT   00    00000000000          00000000000000000000000000000000000000000000 000000000000000A000000000000000000000000000000000000000000000 000000000000000000000000000000000000000     00000000                                                                                                                        000000000000000000
F0010000009010100005000080002300200013552100000000000000000201608190002001DISREL S.A.                                       D000000000149000000000000000000000100010010000000000000000000000F0010000009010100520160819000101 00000000000000000000000000000000000000000000000000000000000000000000000000000000000000000000000000000000000000000N 00000000000NCONT   00    00000000000          00000000000000000000000000000000000000000000 000000000000000A000000000000000000000000000000000000000000000 000000000000000000000000000000000000000     00000000                                                                                                                        000000000000000000
F0010000009010200001000080016665600013050500000000000000000201608190002001SUMICAL DE ANTIOQUIA S.A.S                        D000000019183700000000000000000000100010010000000000000000000000F0010000009010200120160819000101 00000000000000000000000000000000000000000000000000000000000000000000000000000000000000000000000000000000000000000N 00000000000NCONT   00    00000000000          00000000000000000000000000000000000000000000 000000000000000A000000000000000000000000000000000000000000000 000000000000000000000000000000000000000     00000000                                                                                                                        000000000000000000
F0010000009010200002000080016665600041450500000000000000000201608190002001SUMICAL DE ANTIOQUIA S.A.S                        C000000015870000000000000000000000100010010000000000000000000000F0010000009010200220160819000101 00000000000000000000000000000000000000000000000000000000000000000000000000000000000000000000000000000000000000000N 00000000000NCONT   00    00000000000          00000000000000000000000000000000000000000000 000000000000000A000000000000000000000000000000000000000000000 000000000000000000000000000000000000000     00000000                                                                                                                        000000000000000000
F0010000009010200003000080016665600042505000000000000000000201608190002001SUMICAL DE ANTIOQUIA S.A.S                        C000000003313700000000000000000000100010010000000000000000000000F0010000009010200320160819000101 00000000000000000000000000000000000000000000000000000000000000000000000000000000000000000000000000000000000000000N 00000000000NCONT   00    00000000000          00000000000000000000000000000000000000000000 000000000000000A000000000000000000000000000000000000000000000 000000000000000000000000000000000000000     00000000                                                                                                                        000000000000000000
F0010000009010200004000080016665600023658300000000000000000201608190002001SUMICAL DE ANTIOQUIA S.A.S                        C000000000127000000000000000000000100010010000000000000000000000F0010000009010200420160819000101 00000000000000000000000000000000000000000000000000000000000000000000000000000000000000000000000000000000000000000N 00000000000NCONT   00    00000000000          00000000000000000000000000000000000000000000 000000000000000A000000000000000000000000000000000000000000000 000000000000000000000000000000000000000     00000000                                                                                                                        000000000000000000
F0010000009010200005000080016665600013552100000000000000000201608190002001SUMICAL DE ANTIOQUIA S.A.S                        D000000000127000000000000000000000100010010000000000000000000000F0010000009010200520160819000101 00000000000000000000000000000000000000000000000000000000000000000000000000000000000000000000000000000000000000000N 00000000000NCONT   00    00000000000          00000000000000000000000000000000000000000000 000000000000000A000000000000000000000000000000000000000000000 000000000000000000000000000000000000000     00000000                                                                                                                        000000000000000000
F0010000009010300001000002258669400013050500000000000000000201608190002001YURY PAOLA  SANTAMARIA ..                         D000000011675000000000000000000000100010010000000000000000000000F0010000009010300120160819000101 00000000000000000000000000000000000000000000000000000000000000000000000000000000000000000000000000000000000000000N 00000000000NCONT   00    00000000000          00000000000000000000000000000000000000000000 000000000000000A000000000000000000000000000000000000000000000 000000000000000000000000000000000000000     00000000                                                                                                                        000000000000000000
F0010000009010300002000002258669400041450500000000000000000201608190002001YURY PAOLA  SANTAMARIA ..                         C000000010430000000000000000000000100010010000000000000000000000F0010000009010300220160819000101 00000000000000000000000000000000000000000000000000000000000000000000000000000000000000000000000000000000000000000N 00000000000NCONT   00    00000000000          00000000000000000000000000000000000000000000 000000000000000A000000000000000000000000000000000000000000000 000000000000000000000000000000000000000     00000000                                                                                                                        000000000000000000
F0010000009010300003000002258669400042505000000000000000000201608190002001YURY PAOLA  SANTAMARIA ..                         C000000001245000000000000000000000100010010000000000000000000000F0010000009010300320160819000101 00000000000000000000000000000000000000000000000000000000000000000000000000000000000000000000000000000000000000000N 00000000000NCONT   00    00000000000          00000000000000000000000000000000000000000000 000000000000000A000000000000000000000000000000000000000000000 000000000000000000000000000000000000000     00000000                                                                                                                        000000000000000000
F0010000009010300004000002258669400023658300000000000000000201608190002001YURY PAOLA  SANTAMARIA ..                         C000000000083400000000000000000000100010010000000000000000000000F0010000009010300420160819000101 00000000000000000000000000000000000000000000000000000000000000000000000000000000000000000000000000000000000000000N 00000000000NCONT   00    00000000000          00000000000000000000000000000000000000000000 000000000000000A000000000000000000000000000000000000000000000 000000000000000000000000000000000000000     00000000                                                                                                                        000000000000000000
F0010000009010300005000002258669400013552100000000000000000201608190002001YURY PAOLA  SANTAMARIA ..                         D000000000083400000000000000000000100010010000000000000000000000F0010000009010300520160819000101 00000000000000000000000000000000000000000000000000000000000000000000000000000000000000000000000000000000000000000N 00000000000NCONT   00    00000000000          00000000000000000000000000000000000000000000 000000000000000A000000000000000000000000000000000000000000000 000000000000000000000000000000000000000     00000000                                                                                                                        000000000000000000
F0010000009010400001000090044443800013050500000000000000000201608190002001DISTRIBUCIONES UFRE S.A.S.                        D000000015535000000000000000000000100010010000000000000000000000F0010000009010400120160819000101 00000000000000000000000000000000000000000000000000000000000000000000000000000000000000000000000000000000000000000N 00000000000NCONT   00    00000000000          00000000000000000000000000000000000000000000 000000000000000A000000000000000000000000000000000000000000000 000000000000000000000000000000000000000     00000000                                                                                                                        000000000000000000
F0010000009010400002000090044443800041450500000000000000000201608190002001DISTRIBUCIONES UFRE S.A.S.                        C000000013290000000000000000000000100010010000000000000000000000F0010000009010400220160819000101 00000000000000000000000000000000000000000000000000000000000000000000000000000000000000000000000000000000000000000N 00000000000NCONT   00    00000000000          00000000000000000000000000000000000000000000 000000000000000A000000000000000000000000000000000000000000000 000000000000000000000000000000000000000     00000000                                                                                                                        000000000000000000
F0010000009010400003000090044443800042505000000000000000000201608190002001DISTRIBUCIONES UFRE S.A.S.                        C000000002245000000000000000000000100010010000000000000000000000F0010000009010400320160819000101 00000000000000000000000000000000000000000000000000000000000000000000000000000000000000000000000000000000000000000N 00000000000NCONT   00    00000000000          00000000000000000000000000000000000000000000 000000000000000A000000000000000000000000000000000000000000000 000000000000000000000000000000000000000     00000000                                                                                                                        000000000000000000
F0010000009010400004000090044443800023658300000000000000000201608190002001DISTRIBUCIONES UFRE S.A.S.                        C000000000106300000000000000000000100010010000000000000000000000F0010000009010400420160819000101 00000000000000000000000000000000000000000000000000000000000000000000000000000000000000000000000000000000000000000N 00000000000NCONT   00    00000000000          00000000000000000000000000000000000000000000 000000000000000A000000000000000000000000000000000000000000000 000000000000000000000000000000000000000     00000000                                                                                                                        000000000000000000
F0010000009010400005000090044443800013552100000000000000000201608190002001DISTRIBUCIONES UFRE S.A.S.                        D000000000106300000000000000000000100010010000000000000000000000F0010000009010400520160819000101 00000000000000000000000000000000000000000000000000000000000000000000000000000000000000000000000000000000000000000N 00000000000NCONT   00    00000000000          00000000000000000000000000000000000000000000 000000000000000A000000000000000000000000000000000000000000000 000000000000000000000000000000000000000     00000000                                                                                                                        000000000000000000
F0010000009010500001000089010260300013050500000000000000000201608190002001FEDERICO OSORIO A. S.A.                           D000000065071800000000000000000000100010010000000000000000000000F0010000009010500120160819000101 00000000000000000000000000000000000000000000000000000000000000000000000000000000000000000000000000000000000000000N 00000000000NCONT   00    00000000000          00000000000000000000000000000000000000000000 000000000000000A000000000000000000000000000000000000000000000 000000000000000000000000000000000000000     00000000                                                                                                                        000000000000000000
F0010000009010500002000089010260300041450500000000000000000201608190002001FEDERICO OSORIO A. S.A.                           C000000061440000000000000000000000100010010000000000000000000000F0010000009010500220160819000101 00000000000000000000000000000000000000000000000000000000000000000000000000000000000000000000000000000000000000000N 00000000000NCONT   00    00000000000          00000000000000000000000000000000000000000000 000000000000000A000000000000000000000000000000000000000000000 000000000000000000000000000000000000000     00000000                                                                                                                        000000000000000000
F0010000009010500003000089010260300042505000000000000000000201608190002001FEDERICO OSORIO A. S.A.                           C000000003631800000000000000000000100010010000000000000000000000F0010000009010500320160819000101 00000000000000000000000000000000000000000000000000000000000000000000000000000000000000000000000000000000000000000N 00000000000NCONT   00    00000000000          00000000000000000000000000000000000000000000 000000000000000A000000000000000000000000000000000000000000000 000000000000000000000000000000000000000     00000000                                                                                                                        000000000000000000
F0010000009010500004000089010260300023658300000000000000000201608190002001FEDERICO OSORIO A. S.A.                           C000000000491500000000000000000000100010010000000000000000000000F0010000009010500420160819000101 00000000000000000000000000000000000000000000000000000000000000000000000000000000000000000000000000000000000000000N 00000000000NCONT   00    00000000000          00000000000000000000000000000000000000000000 000000000000000A000000000000000000000000000000000000000000000 000000000000000000000000000000000000000     00000000                                                                                                                        000000000000000000
F0010000009010500005000089010260300013552100000000000000000201608190002001FEDERICO OSORIO A. S.A.                           D000000000491500000000000000000000100010010000000000000000000000F0010000009010500520160819000101 00000000000000000000000000000000000000000000000000000000000000000000000000000000000000000000000000000000000000000N 00000000000NCONT   00    00000000000          00000000000000000000000000000000000000000000 000000000000000A000000000000000000000000000000000000000000000 000000000000000000000000000000000000000     00000000                                                                                                                        000000000000000000
F0010000009010600001000003207718300011050500000000000000000201608190002001MARIA GILMA RAMIREZ GARCIA                        D000000007500000000000000000000000100010010000000000000000000000F0010000009010600120160819000101 00000000000000000000000000000000000000000000000000000000000000000000000000000000000000000000000000000000000000000N 00000000000NCONT   00    00000000000          00000000000000000000000000000000000000000000 000000000000000A000000000000000000000000000000000000000000000 000000000000000000000000000000000000000     00000000                                                                                                                        000000000000000000
F0010000009010600002000003207718300041450500000000000000000201608190002001MARIA GILMA RAMIREZ GARCIA                        C000000006750000000000000000000000100010010000000000000000000000F0010000009010600220160819000101 00000000000000000000000000000000000000000000000000000000000000000000000000000000000000000000000000000000000000000N 00000000000NCONT   00    00000000000          00000000000000000000000000000000000000000000 000000000000000A000000000000000000000000000000000000000000000 000000000000000000000000000000000000000     00000000                                                                                                                        000000000000000000
F0010000009010600003000003207718300042505000000000000000000201608190002001MARIA GILMA RAMIREZ GARCIA                        C000000000750000000000000000000000100010010000000000000000000000F0010000009010600320160819000101 00000000000000000000000000000000000000000000000000000000000000000000000000000000000000000000000000000000000000000N 00000000000NCONT   00    00000000000          00000000000000000000000000000000000000000000 000000000000000A000000000000000000000000000000000000000000000 000000000000000000000000000000000000000     00000000                                                                                                                        000000000000000000
F0010000009010600004000003207718300023658300000000000000000201608190002001MARIA GILMA RAMIREZ GARCIA                        C000000000054000000000000000000000100010010000000000000000000000F0010000009010600420160819000101 00000000000000000000000000000000000000000000000000000000000000000000000000000000000000000000000000000000000000000N 00000000000NCONT   00    00000000000          00000000000000000000000000000000000000000000 000000000000000A000000000000000000000000000000000000000000000 000000000000000000000000000000000000000     00000000                                                                                                                        000000000000000000
F0010000009010600005000003207718300013552100000000000000000201608190002001MARIA GILMA RAMIREZ GARCIA                        D000000000054000000000000000000000100010010000000000000000000000F0010000009010600520160819000101 00000000000000000000000000000000000000000000000000000000000000000000000000000000000000000000000000000000000000000N 00000000000NCONT   00    00000000000          00000000000000000000000000000000000000000000 000000000000000A000000000000000000000000000000000000000000000 000000000000000000000000000000000000000     00000000                                                                                                                        000000000000000000
F0010000009010700001000002770664900011050500000000000000000201608190002001NELSY SANCHEZ GONZALEZ                            D000000012600000000000000000000000100010010000000000000000000000F0010000009010700120160819000101 00000000000000000000000000000000000000000000000000000000000000000000000000000000000000000000000000000000000000000N 00000000000NCONT   00    00000000000          00000000000000000000000000000000000000000000 000000000000000A000000000000000000000000000000000000000000000 000000000000000000000000000000000000000     00000000                                                                                                                        000000000000000000
F0010000009010700002000002770664900041450500000000000000000201608190002001NELSY SANCHEZ GONZALEZ                            C000000012000000000000000000000000100010010000000000000000000000F0010000009010700220160819000101 00000000000000000000000000000000000000000000000000000000000000000000000000000000000000000000000000000000000000000N 00000000000NCONT   00    00000000000          00000000000000000000000000000000000000000000 000000000000000A000000000000000000000000000000000000000000000 000000000000000000000000000000000000000     00000000                                                                                                                        000000000000000000
F0010000009010700003000002770664900042505000000000000000000201608190002001NELSY SANCHEZ GONZALEZ                            C000000000600000000000000000000000100010010000000000000000000000F0010000009010700320160819000101 00000000000000000000000000000000000000000000000000000000000000000000000000000000000000000000000000000000000000000N 00000000000NCONT   00    00000000000          00000000000000000000000000000000000000000000 000000000000000A000000000000000000000000000000000000000000000 000000000000000000000000000000000000000     00000000                                                                                                                        000000000000000000
F0010000009010700004000002770664900023658300000000000000000201608190002001NELSY SANCHEZ GONZALEZ                            C000000000096000000000000000000000100010010000000000000000000000F0010000009010700420160819000101 00000000000000000000000000000000000000000000000000000000000000000000000000000000000000000000000000000000000000000N 00000000000NCONT   00    00000000000          00000000000000000000000000000000000000000000 000000000000000A000000000000000000000000000000000000000000000 000000000000000000000000000000000000000     00000000                                                                                                                        000000000000000000
F0010000009010700005000002770664900013552100000000000000000201608190002001NELSY SANCHEZ GONZALEZ                            D000000000096000000000000000000000100010010000000000000000000000F0010000009010700520160819000101 00000000000000000000000000000000000000000000000000000000000000000000000000000000000000000000000000000000000000000N 00000000000NCONT   00    00000000000          00000000000000000000000000000000000000000000 000000000000000A000000000000000000000000000000000000000000000 000000000000000000000000000000000000000     00000000                                                                                                                        000000000000000000
F0010000009010800001000080201411900011050500000000000000000201608190002001PLASTISERVICIOS S DE H                            D000000002860000000000000000000000100010010000000000000000000000F0010000009010800120160819000101 00000000000000000000000000000000000000000000000000000000000000000000000000000000000000000000000000000000000000000N 00000000000NCONT   00    00000000000          00000000000000000000000000000000000000000000 000000000000000A000000000000000000000000000000000000000000000 000000000000000000000000000000000000000     00000000                                                                                                                        000000000000000000
F0010000009010800002000080201411900041450500000000000000000201608190002001PLASTISERVICIOS S DE H                            C000000002000000000000000000000000100010010000000000000000000000F0010000009010800220160819000101 00000000000000000000000000000000000000000000000000000000000000000000000000000000000000000000000000000000000000000N 00000000000NCONT   00    00000000000          00000000000000000000000000000000000000000000 000000000000000A000000000000000000000000000000000000000000000 000000000000000000000000000000000000000     00000000                                                                                                                        000000000000000000
F0010000009010800003000080201411900042505000000000000000000201608190002001PLASTISERVICIOS S DE H                            C000000000860000000000000000000000100010010000000000000000000000F0010000009010800320160819000101 00000000000000000000000000000000000000000000000000000000000000000000000000000000000000000000000000000000000000000N 00000000000NCONT   00    00000000000          00000000000000000000000000000000000000000000 000000000000000A000000000000000000000000000000000000000000000 000000000000000000000000000000000000000     00000000                                                                                                                        000000000000000000
F0010000009010800004000080201411900023658300000000000000000201608190002001PLASTISERVICIOS S DE H                            C000000000016000000000000000000000100010010000000000000000000000F0010000009010800420160819000101 00000000000000000000000000000000000000000000000000000000000000000000000000000000000000000000000000000000000000000N 00000000000NCONT   00    00000000000          00000000000000000000000000000000000000000000 000000000000000A000000000000000000000000000000000000000000000 000000000000000000000000000000000000000     00000000                                                                                                                        000000000000000000
F0010000009010800005000080201411900013552100000000000000000201608190002001PLASTISERVICIOS S DE H                            D000000000016000000000000000000000100010010000000000000000000000F0010000009010800520160819000101 00000000000000000000000000000000000000000000000000000000000000000000000000000000000000000000000000000000000000000N 00000000000NCONT   00    00000000000          00000000000000000000000000000000000000000000 000000000000000A000000000000000000000000000000000000000000000 000000000000000000000000000000000000000     00000000                                                                                                                        000000000000000000
F0010000009010900001000080201411900011050500000000000000000201608190002001PLASTISERVICIOS S DE H                            D000000004340000000000000000000000100010010000000000000000000000F0010000009010900120160819000101 00000000000000000000000000000000000000000000000000000000000000000000000000000000000000000000000000000000000000000N 00000000000NCONT   00    00000000000          00000000000000000000000000000000000000000000 000000000000000A000000000000000000000000000000000000000000000 000000000000000000000000000000000000000     00000000                                                                                                                        000000000000000000
F0010000009010900002000080201411900041450500000000000000000201608190002001PLASTISERVICIOS S DE H                            C000000003000000000000000000000000100010010000000000000000000000F0010000009010900220160819000101 00000000000000000000000000000000000000000000000000000000000000000000000000000000000000000000000000000000000000000N 00000000000NCONT   00    00000000000          00000000000000000000000000000000000000000000 000000000000000A000000000000000000000000000000000000000000000 000000000000000000000000000000000000000     00000000                                                                                                                        000000000000000000
F0010000009010900003000080201411900042505000000000000000000201608190002001PLASTISERVICIOS S DE H                            C000000001340000000000000000000000100010010000000000000000000000F0010000009010900320160819000101 00000000000000000000000000000000000000000000000000000000000000000000000000000000000000000000000000000000000000000N 00000000000NCONT   00    00000000000          00000000000000000000000000000000000000000000 000000000000000A000000000000000000000000000000000000000000000 000000000000000000000000000000000000000     00000000                                                                                                                        000000000000000000
F0010000009010900004000080201411900023658300000000000000000201608190002001PLASTISERVICIOS S DE H                            C000000000024000000000000000000000100010010000000000000000000000F0010000009010900420160819000101 00000000000000000000000000000000000000000000000000000000000000000000000000000000000000000000000000000000000000000N 00000000000NCONT   00    00000000000          00000000000000000000000000000000000000000000 000000000000000A000000000000000000000000000000000000000000000 000000000000000000000000000000000000000     00000000                                                                                                                        000000000000000000
F0010000009010900005000080201411900013552100000000000000000201608190002001PLASTISERVICIOS S DE H                            D000000000024000000000000000000000100010010000000000000000000000F0010000009010900520160819000101 00000000000000000000000000000000000000000000000000000000000000000000000000000000000000000000000000000000000000000N 00000000000NCONT   00    00000000000          00000000000000000000000000000000000000000000 000000000000000A000000000000000000000000000000000000000000000 000000000000000000000000000000000000000     00000000                                                                                                                        000000000000000000
F0010000009011000001000007719033000011050500000000000000000201608190002001ALMACEN EL SALPICON.COM                           D000000006200000000000000000000000100010010000000000000000000000F0010000009011000120160819000101 00000000000000000000000000000000000000000000000000000000000000000000000000000000000000000000000000000000000000000N 00000000000NCONT   00    00000000000          00000000000000000000000000000000000000000000 000000000000000A000000000000000000000000000000000000000000000 000000000000000000000000000000000000000     00000000                                                                                                                        000000000000000000
F0010000009011000002000007719033000041450500000000000000000201608190002001ALMACEN EL SALPICON.COM                           C000000006100000000000000000000000100010010000000000000000000000F0010000009011000220160819000101 00000000000000000000000000000000000000000000000000000000000000000000000000000000000000000000000000000000000000000N 00000000000NCONT   00    00000000000          00000000000000000000000000000000000000000000 000000000000000A000000000000000000000000000000000000000000000 000000000000000000000000000000000000000     00000000                                                                                                                        000000000000000000
F0010000009011000003000007719033000042505000000000000000000201608190002001ALMACEN EL SALPICON.COM                           C000000000100000000000000000000000100010010000000000000000000000F0010000009011000320160819000101 00000000000000000000000000000000000000000000000000000000000000000000000000000000000000000000000000000000000000000N 00000000000NCONT   00    00000000000          00000000000000000000000000000000000000000000 000000000000000A000000000000000000000000000000000000000000000 000000000000000000000000000000000000000     00000000                                                                                                                        000000000000000000
F0010000009011000004000007719033000023658300000000000000000201608190002001ALMACEN EL SALPICON.COM                           C000000000048800000000000000000000100010010000000000000000000000F0010000009011000420160819000101 00000000000000000000000000000000000000000000000000000000000000000000000000000000000000000000000000000000000000000N 00000000000NCONT   00    00000000000          00000000000000000000000000000000000000000000 000000000000000A000000000000000000000000000000000000000000000 000000000000000000000000000000000000000     00000000                                                                                                                        000000000000000000
F0010000009011000005000007719033000013552100000000000000000201608190002001ALMACEN EL SALPICON.COM                           D000000000048800000000000000000000100010010000000000000000000000F0010000009011000520160819000101 00000000000000000000000000000000000000000000000000000000000000000000000000000000000000000000000000000000000000000N 00000000000NCONT   00    00000000000          00000000000000000000000000000000000000000000 000000000000000A000000000000000000000000000000000000000000000 000000000000000000000000000000000000000     00000000                                                                                                                        000000000000000000
F0010000009011100001000009249843700011050500000000000000000201608190002001CESAR MERCADO                                     D000000002500000000000000000000000100010010000000000000000000000F0010000009011100120160819000101 00000000000000000000000000000000000000000000000000000000000000000000000000000000000000000000000000000000000000000N 00000000000NCONT   00    00000000000          00000000000000000000000000000000000000000000 000000000000000A000000000000000000000000000000000000000000000 000000000000000000000000000000000000000     00000000                                                                                                                        000000000000000000
F0010000009011100002000009249843700041450500000000000000000201608190002001CESAR MERCADO                                     C000000002400000000000000000000000100010010000000000000000000000F0010000009011100220160819000101 00000000000000000000000000000000000000000000000000000000000000000000000000000000000000000000000000000000000000000N 00000000000NCONT   00    00000000000          00000000000000000000000000000000000000000000 000000000000000A000000000000000000000000000000000000000000000 000000000000000000000000000000000000000     00000000                                                                                                                        000000000000000000
F0010000009011100003000009249843700042505000000000000000000201608190002001CESAR MERCADO                                     C000000000100000000000000000000000100010010000000000000000000000F0010000009011100320160819000101 00000000000000000000000000000000000000000000000000000000000000000000000000000000000000000000000000000000000000000N 00000000000NCONT   00    00000000000          00000000000000000000000000000000000000000000 000000000000000A000000000000000000000000000000000000000000000 000000000000000000000000000000000000000     00000000                                                                                                                        000000000000000000
F0010000009011100004000009249843700023658300000000000000000201608190002001CESAR MERCADO                                     C000000000019200000000000000000000100010010000000000000000000000F0010000009011100420160819000101 00000000000000000000000000000000000000000000000000000000000000000000000000000000000000000000000000000000000000000N 00000000000NCONT   00    00000000000          00000000000000000000000000000000000000000000 000000000000000A000000000000000000000000000000000000000000000 000000000000000000000000000000000000000     00000000                                                                                                                        000000000000000000
F0010000009011100005000009249843700013552100000000000000000201608190002001CESAR MERCADO                                     D000000000019200000000000000000000100010010000000000000000000000F0010000009011100520160819000101 00000000000000000000000000000000000000000000000000000000000000000000000000000000000000000000000000000000000000000N 00000000000NCONT   00    00000000000          00000000000000000000000000000000000000000000 000000000000000A000000000000000000000000000000000000000000000 000000000000000000000000000000000000000     00000000                                                                                                                        000000000000000000
F0010000009011200001000001535146600011050500000000000000000201608190002001ORLANDO OROZCO NAVARRO                            D000000001000000000000000000000000100010010000000000000000000000F0010000009011200120160819000101 00000000000000000000000000000000000000000000000000000000000000000000000000000000000000000000000000000000000000000N 00000000000NCONT   00    00000000000          00000000000000000000000000000000000000000000 000000000000000A000000000000000000000000000000000000000000000 000000000000000000000000000000000000000     00000000                                                                                                                        000000000000000000
F0010000009011200002000001535146600041450500000000000000000201608190002001ORLANDO OROZCO NAVARRO                            C000000000900000000000000000000000100010010000000000000000000000F0010000009011200220160819000101 00000000000000000000000000000000000000000000000000000000000000000000000000000000000000000000000000000000000000000N 00000000000NCONT   00    00000000000          00000000000000000000000000000000000000000000 000000000000000A000000000000000000000000000000000000000000000 000000000000000000000000000000000000000     00000000                                                                                                                        000000000000000000
F0010000009011200003000001535146600042505000000000000000000201608190002001ORLANDO OROZCO NAVARRO                            C000000000100000000000000000000000100010010000000000000000000000F0010000009011200320160819000101 00000000000000000000000000000000000000000000000000000000000000000000000000000000000000000000000000000000000000000N 00000000000NCONT   00    00000000000          00000000000000000000000000000000000000000000 000000000000000A000000000000000000000000000000000000000000000 000000000000000000000000000000000000000     00000000                                                                                                                        000000000000000000
F0010000009011200004000001535146600023658300000000000000000201608190002001ORLANDO OROZCO NAVARRO                            C000000000007200000000000000000000100010010000000000000000000000F0010000009011200420160819000101 00000000000000000000000000000000000000000000000000000000000000000000000000000000000000000000000000000000000000000N 00000000000NCONT   00    00000000000          00000000000000000000000000000000000000000000 000000000000000A000000000000000000000000000000000000000000000 000000000000000000000000000000000000000     00000000                                                                                                                        000000000000000000
F0010000009011200005000001535146600013552100000000000000000201608190002001ORLANDO OROZCO NAVARRO                            D000000000007200000000000000000000100010010000000000000000000000F0010000009011200520160819000101 00000000000000000000000000000000000000000000000000000000000000000000000000000000000000000000000000000000000000000N 00000000000NCONT   00    00000000000          00000000000000000000000000000000000000000000 000000000000000A000000000000000000000000000000000000000000000 000000000000000000000000000000000000000     00000000                                                                                                                        000000000000000000
F0010000009011300001000007213133300011050500000000000000000201608190002001ALVARO ALBERTO FANDIO GOMEZ                     D000000001100000000000000000000000100010010000000000000000000000F0010000009011300120160819000101 00000000000000000000000000000000000000000000000000000000000000000000000000000000000000000000000000000000000000000N 00000000000NCONT   00    00000000000          00000000000000000000000000000000000000000000 000000000000000A000000000000000000000000000000000000000000000 000000000000000000000000000000000000000     00000000                                                                                                                        000000000000000000
F0010000009011300002000007213133300041450500000000000000000201608190002001ALVARO ALBERTO FANDIO GOMEZ                     C000000001000000000000000000000000100010010000000000000000000000F0010000009011300220160819000101 00000000000000000000000000000000000000000000000000000000000000000000000000000000000000000000000000000000000000000N 00000000000NCONT   00    00000000000          00000000000000000000000000000000000000000000 000000000000000A000000000000000000000000000000000000000000000 000000000000000000000000000000000000000     00000000                                                                                                                        000000000000000000
F0010000009011300003000007213133300042505000000000000000000201608190002001ALVARO ALBERTO FANDIO GOMEZ                     C000000000100000000000000000000000100010010000000000000000000000F0010000009011300320160819000101 00000000000000000000000000000000000000000000000000000000000000000000000000000000000000000000000000000000000000000N 00000000000NCONT   00    00000000000          00000000000000000000000000000000000000000000 000000000000000A000000000000000000000000000000000000000000000 000000000000000000000000000000000000000     00000000                                                                                                                        000000000000000000
F0010000009011300004000007213133300023658300000000000000000201608190002001ALVARO ALBERTO FANDIO GOMEZ                     C000000000008000000000000000000000100010010000000000000000000000F0010000009011300420160819000101 00000000000000000000000000000000000000000000000000000000000000000000000000000000000000000000000000000000000000000N 00000000000NCONT   00    00000000000          00000000000000000000000000000000000000000000 000000000000000A000000000000000000000000000000000000000000000 000000000000000000000000000000000000000     00000000                                                                                                                        000000000000000000
F0010000009011300005000007213133300013552100000000000000000201608190002001ALVARO ALBERTO FANDIO GOMEZ                     D000000000008000000000000000000000100010010000000000000000000000F0010000009011300520160819000101 00000000000000000000000000000000000000000000000000000000000000000000000000000000000000000000000000000000000000000N 00000000000NCONT   00    00000000000          00000000000000000000000000000000000000000000 000000000000000A000000000000000000000000000000000000000000000 000000000000000000000000000000000000000     00000000                                                                                                                        000000000000000000
F0010000009011400001000000856527900011050500000000000000000201608190002001CESAR MIER BUELVAS                                D000000001200000000000000000000000100010010000000000000000000000F0010000009011400120160819000101 00000000000000000000000000000000000000000000000000000000000000000000000000000000000000000000000000000000000000000N 00000000000NCONT   00    00000000000          00000000000000000000000000000000000000000000 000000000000000A000000000000000000000000000000000000000000000 000000000000000000000000000000000000000     00000000                                                                                                                        000000000000000000
F0010000009011400002000000856527900041450500000000000000000201608190002001CESAR MIER BUELVAS                                C000000001100000000000000000000000100010010000000000000000000000F0010000009011400220160819000101 00000000000000000000000000000000000000000000000000000000000000000000000000000000000000000000000000000000000000000N 00000000000NCONT   00    00000000000          00000000000000000000000000000000000000000000 000000000000000A000000000000000000000000000000000000000000000 000000000000000000000000000000000000000     00000000                                                                                                                        000000000000000000
F0010000009011400003000000856527900042505000000000000000000201608190002001CESAR MIER BUELVAS                                C000000000100000000000000000000000100010010000000000000000000000F0010000009011400320160819000101 00000000000000000000000000000000000000000000000000000000000000000000000000000000000000000000000000000000000000000N 00000000000NCONT   00    00000000000          00000000000000000000000000000000000000000000 000000000000000A000000000000000000000000000000000000000000000 000000000000000000000000000000000000000     00000000                                                                                                                        000000000000000000
F0010000009011400004000000856527900023658300000000000000000201608190002001CESAR MIER BUELVAS                                C000000000008800000000000000000000100010010000000000000000000000F0010000009011400420160819000101 00000000000000000000000000000000000000000000000000000000000000000000000000000000000000000000000000000000000000000N 00000000000NCONT   00    00000000000          00000000000000000000000000000000000000000000 000000000000000A000000000000000000000000000000000000000000000 000000000000000000000000000000000000000     00000000                                                                                                                        000000000000000000
F0010000009011400005000000856527900013552100000000000000000201608190002001CESAR MIER BUELVAS                                D000000000008800000000000000000000100010010000000000000000000000F0010000009011400520160819000101 00000000000000000000000000000000000000000000000000000000000000000000000000000000000000000000000000000000000000000N 00000000000NCONT   00    00000000000          00000000000000000000000000000000000000000000 000000000000000A000000000000000000000000000000000000000000000 000000000000000000000000000000000000000     00000000                                                                                                                        000000000000000000
F0010000009011500001000090027500500011050500000000000000000201608190002001MULTIALUMINIOS LA 30 SAS                          D000000002500000000000000000000000100010010000000000000000000000F0010000009011500120160819000101 00000000000000000000000000000000000000000000000000000000000000000000000000000000000000000000000000000000000000000N 00000000000NCONT   00    00000000000          00000000000000000000000000000000000000000000 000000000000000A000000000000000000000000000000000000000000000 000000000000000000000000000000000000000     00000000                                                                                                                        000000000000000000
F0010000009011500002000090027500500041450500000000000000000201608190002001MULTIALUMINIOS LA 30 SAS                          C000000002100000000000000000000000100010010000000000000000000000F0010000009011500220160819000101 00000000000000000000000000000000000000000000000000000000000000000000000000000000000000000000000000000000000000000N 00000000000NCONT   00    00000000000          00000000000000000000000000000000000000000000 000000000000000A000000000000000000000000000000000000000000000 000000000000000000000000000000000000000     00000000                                                                                                                        000000000000000000
F0010000009011500003000090027500500042505000000000000000000201608190002001MULTIALUMINIOS LA 30 SAS                          C000000000400000000000000000000000100010010000000000000000000000F0010000009011500320160819000101 00000000000000000000000000000000000000000000000000000000000000000000000000000000000000000000000000000000000000000N 00000000000NCONT   00    00000000000          00000000000000000000000000000000000000000000 000000000000000A000000000000000000000000000000000000000000000 000000000000000000000000000000000000000     00000000                                                                                                                        000000000000000000
F0010000009011500004000090027500500023658300000000000000000201608190002001MULTIALUMINIOS LA 30 SAS                          C000000000016800000000000000000000100010010000000000000000000000F0010000009011500420160819000101 00000000000000000000000000000000000000000000000000000000000000000000000000000000000000000000000000000000000000000N 00000000000NCONT   00    00000000000          00000000000000000000000000000000000000000000 000000000000000A000000000000000000000000000000000000000000000 000000000000000000000000000000000000000     00000000                                                                                                                        000000000000000000
F0010000009011500005000090027500500013552100000000000000000201608190002001MULTIALUMINIOS LA 30 SAS                          D000000000016800000000000000000000100010010000000000000000000000F0010000009011500520160819000101 00000000000000000000000000000000000000000000000000000000000000000000000000000000000000000000000000000000000000000N 00000000000NCONT   00    00000000000          00000000000000000000000000000000000000000000 000000000000000A000000000000000000000000000000000000000000000 000000000000000000000000000000000000000     00000000                                                                                                                        000000000000000000
F0010000009011600001000090034602400011050500000000000000000201608190002001PRODUCTOS NACIONALES PARAFINICOS LA CUSTODIA S.A.SD000000001050000000000000000000000100010010000000000000000000000F0010000009011600120160819000101 00000000000000000000000000000000000000000000000000000000000000000000000000000000000000000000000000000000000000000N 00000000000NCONT   00    00000000000          00000000000000000000000000000000000000000000 000000000000000A000000000000000000000000000000000000000000000 000000000000000000000000000000000000000     00000000                                                                                                                        000000000000000000
F0010000009011600002000090034602400041450500000000000000000201608190002001PRODUCTOS NACIONALES PARAFINICOS LA CUSTODIA S.A.SC000000000950000000000000000000000100010010000000000000000000000F0010000009011600220160819000101 00000000000000000000000000000000000000000000000000000000000000000000000000000000000000000000000000000000000000000N 00000000000NCONT   00    00000000000          00000000000000000000000000000000000000000000 000000000000000A000000000000000000000000000000000000000000000 000000000000000000000000000000000000000     00000000                                                                                                                        000000000000000000
F0010000009011600003000090034602400042505000000000000000000201608190002001PRODUCTOS NACIONALES PARAFINICOS LA CUSTODIA S.A.SC000000000100000000000000000000000100010010000000000000000000000F0010000009011600320160819000101 00000000000000000000000000000000000000000000000000000000000000000000000000000000000000000000000000000000000000000N 00000000000NCONT   00    00000000000          00000000000000000000000000000000000000000000 000000000000000A000000000000000000000000000000000000000000000 000000000000000000000000000000000000000     00000000                                                                                                                        000000000000000000
F0010000009011600004000090034602400023658300000000000000000201608190002001PRODUCTOS NACIONALES PARAFINICOS LA CUSTODIA S.A.SC000000000007600000000000000000000100010010000000000000000000000F0010000009011600420160819000101 00000000000000000000000000000000000000000000000000000000000000000000000000000000000000000000000000000000000000000N 00000000000NCONT   00    00000000000          00000000000000000000000000000000000000000000 000000000000000A000000000000000000000000000000000000000000000 000000000000000000000000000000000000000     00000000                                                                                                                        000000000000000000
F0010000009011600005000090034602400013552100000000000000000201608190002001PRODUCTOS NACIONALES PARAFINICOS LA CUSTODIA S.A.SD000000000007600000000000000000000100010010000000000000000000000F0010000009011600520160819000101 00000000000000000000000000000000000000000000000000000000000000000000000000000000000000000000000000000000000000000N 00000000000NCONT   00    00000000000          00000000000000000000000000000000000000000000 000000000000000A000000000000000000000000000000000000000000000 000000000000000000000000000000000000000     00000000                                                                                                                        000000000000000000
F0010000009011700001000090034602400011050500000000000000000201608190002001PRODUCTOS NACIONALES PARAFINICOS LA CUSTODIA S.A.SD000000003150000000000000000000000100010010000000000000000000000F0010000009011700120160819000101 00000000000000000000000000000000000000000000000000000000000000000000000000000000000000000000000000000000000000000N 00000000000NCONT   00    00000000000          00000000000000000000000000000000000000000000 000000000000000A000000000000000000000000000000000000000000000 000000000000000000000000000000000000000     00000000                                                                                                                        000000000000000000
F0010000009011700002000090034602400041450500000000000000000201608190002001PRODUCTOS NACIONALES PARAFINICOS LA CUSTODIA S.A.SC000000002850000000000000000000000100010010000000000000000000000F0010000009011700220160819000101 00000000000000000000000000000000000000000000000000000000000000000000000000000000000000000000000000000000000000000N 00000000000NCONT   00    00000000000          00000000000000000000000000000000000000000000 000000000000000A000000000000000000000000000000000000000000000 000000000000000000000000000000000000000     00000000                                                                                                                        000000000000000000
F0010000009011700003000090034602400042505000000000000000000201608190002001PRODUCTOS NACIONALES PARAFINICOS LA CUSTODIA S.A.SC000000000300000000000000000000000100010010000000000000000000000F0010000009011700320160819000101 00000000000000000000000000000000000000000000000000000000000000000000000000000000000000000000000000000000000000000N 00000000000NCONT   00    00000000000          00000000000000000000000000000000000000000000 000000000000000A000000000000000000000000000000000000000000000 000000000000000000000000000000000000000     00000000                                                                                                                        000000000000000000
F0010000009011700004000090034602400023658300000000000000000201608190002001PRODUCTOS NACIONALES PARAFINICOS LA CUSTODIA S.A.SC000000000022800000000000000000000100010010000000000000000000000F0010000009011700420160819000101 00000000000000000000000000000000000000000000000000000000000000000000000000000000000000000000000000000000000000000N 00000000000NCONT   00    00000000000          00000000000000000000000000000000000000000000 000000000000000A000000000000000000000000000000000000000000000 000000000000000000000000000000000000000     00000000                                                                                                                        000000000000000000
F0010000009011700005000090034602400013552100000000000000000201608190002001PRODUCTOS NACIONALES PARAFINICOS LA CUSTODIA S.A.SD000000000022800000000000000000000100010010000000000000000000000F0010000009011700520160819000101 00000000000000000000000000000000000000000000000000000000000000000000000000000000000000000000000000000000000000000N 00000000000NCONT   00    00000000000          00000000000000000000000000000000000000000000 000000000000000A000000000000000000000000000000000000000000000 000000000000000000000000000000000000000     00000000                                                                                                                        000000000000000000
F0010000009011800001000090020547900011050500000000000000000201608190002001COMERCIALIZADORA DAC DEL CARIBE S.A.S.            D000000002796700000000000000000000100010010000000000000000000000F0010000009011800120160819000101 00000000000000000000000000000000000000000000000000000000000000000000000000000000000000000000000000000000000000000N 00000000000NCONT   00    00000000000          00000000000000000000000000000000000000000000 000000000000000A000000000000000000000000000000000000000000000 000000000000000000000000000000000000000     00000000                                                                                                                        000000000000000000
F0010000009011800002000090020547900041450500000000000000000201608190002001COMERCIALIZADORA DAC DEL CARIBE S.A.S.            C000000002400000000000000000000000100010010000000000000000000000F0010000009011800220160819000101 00000000000000000000000000000000000000000000000000000000000000000000000000000000000000000000000000000000000000000N 00000000000NCONT   00    00000000000          00000000000000000000000000000000000000000000 000000000000000A000000000000000000000000000000000000000000000 000000000000000000000000000000000000000     00000000                                                                                                                        000000000000000000
F0010000009011800003000090020547900042505000000000000000000201608190002001COMERCIALIZADORA DAC DEL CARIBE S.A.S.            C000000000396700000000000000000000100010010000000000000000000000F0010000009011800320160819000101 00000000000000000000000000000000000000000000000000000000000000000000000000000000000000000000000000000000000000000N 00000000000NCONT   00    00000000000          00000000000000000000000000000000000000000000 000000000000000A000000000000000000000000000000000000000000000 000000000000000000000000000000000000000     00000000                                                                                                                        000000000000000000
F0010000009011800004000090020547900023658300000000000000000201608190002001COMERCIALIZADORA DAC DEL CARIBE S.A.S.            C000000000019200000000000000000000100010010000000000000000000000F0010000009011800420160819000101 00000000000000000000000000000000000000000000000000000000000000000000000000000000000000000000000000000000000000000N 00000000000NCONT   00    00000000000          00000000000000000000000000000000000000000000 000000000000000A000000000000000000000000000000000000000000000 000000000000000000000000000000000000000     00000000                                                                                                                        000000000000000000
F0010000009011800005000090020547900013552100000000000000000201608190002001COMERCIALIZADORA DAC DEL CARIBE S.A.S.            D000000000019200000000000000000000100010010000000000000000000000F0010000009011800520160819000101 00000000000000000000000000000000000000000000000000000000000000000000000000000000000000000000000000000000000000000N 00000000000NCONT   00    00000000000          00000000000000000000000000000000000000000000 000000000000000A000000000000000000000000000000000000000000000 000000000000000000000000000000000000000     00000000                                                                                                                        000000000000000000
F0010000009011900001000090050144800011050500000000000000000201608190002001PLASTICOS JR ASOCIADOS SAS                        D000000004800000000000000000000000100010010000000000000000000000F0010000009011900120160819000101 00000000000000000000000000000000000000000000000000000000000000000000000000000000000000000000000000000000000000000N 00000000000NCONT   00    00000000000          00000000000000000000000000000000000000000000 000000000000000A000000000000000000000000000000000000000000000 000000000000000000000000000000000000000     00000000                                                                                                                        000000000000000000
F0010000009011900002000090050144800041450500000000000000000201608190002001PLASTICOS JR ASOCIADOS SAS                        C000000003800000000000000000000000100010010000000000000000000000F0010000009011900220160819000101 00000000000000000000000000000000000000000000000000000000000000000000000000000000000000000000000000000000000000000N 00000000000NCONT   00    00000000000          00000000000000000000000000000000000000000000 000000000000000A000000000000000000000000000000000000000000000 000000000000000000000000000000000000000     00000000                                                                                                                        000000000000000000
F0010000009011900003000090050144800042505000000000000000000201608190002001PLASTICOS JR ASOCIADOS SAS                        C000000001000000000000000000000000100010010000000000000000000000F0010000009011900320160819000101 00000000000000000000000000000000000000000000000000000000000000000000000000000000000000000000000000000000000000000N 00000000000NCONT   00    00000000000          00000000000000000000000000000000000000000000 000000000000000A000000000000000000000000000000000000000000000 000000000000000000000000000000000000000     00000000                                                                                                                        000000000000000000
F0010000009011900004000090050144800023658300000000000000000201608190002001PLASTICOS JR ASOCIADOS SAS                        C000000000030400000000000000000000100010010000000000000000000000F0010000009011900420160819000101 00000000000000000000000000000000000000000000000000000000000000000000000000000000000000000000000000000000000000000N 00000000000NCONT   00    00000000000          00000000000000000000000000000000000000000000 000000000000000A000000000000000000000000000000000000000000000 000000000000000000000000000000000000000     00000000                                                                                                                        000000000000000000
F0010000009011900005000090050144800013552100000000000000000201608190002001PLASTICOS JR ASOCIADOS SAS                        D000000000030400000000000000000000100010010000000000000000000000F0010000009011900520160819000101 00000000000000000000000000000000000000000000000000000000000000000000000000000000000000000000000000000000000000000N 00000000000NCONT   00    00000000000          00000000000000000000000000000000000000000000 000000000000000A000000000000000000000000000000000000000000000 000000000000000000000000000000000000000     00000000                                                                                                                        000000000000000000
F0010000009012000001000080019113900011050500000000000000000201608190002001COMERCIAL NOVAPEL LTDA                            D000000001400000000000000000000000100010010000000000000000000000F0010000009012000120160819000101 00000000000000000000000000000000000000000000000000000000000000000000000000000000000000000000000000000000000000000N 00000000000NCONT   00    00000000000          00000000000000000000000000000000000000000000 000000000000000A000000000000000000000000000000000000000000000 000000000000000000000000000000000000000     00000000                                                                                                                        000000000000000000
F0010000009012000002000080019113900041450500000000000000000201608190002001COMERCIAL NOVAPEL LTDA                            C000000001200000000000000000000000100010010000000000000000000000F0010000009012000220160819000101 00000000000000000000000000000000000000000000000000000000000000000000000000000000000000000000000000000000000000000N 00000000000NCONT   00    00000000000          00000000000000000000000000000000000000000000 000000000000000A000000000000000000000000000000000000000000000 000000000000000000000000000000000000000     00000000                                                                                                                        000000000000000000
F0010000009012000003000080019113900042505000000000000000000201608190002001COMERCIAL NOVAPEL LTDA                            C000000000200000000000000000000000100010010000000000000000000000F0010000009012000320160819000101 00000000000000000000000000000000000000000000000000000000000000000000000000000000000000000000000000000000000000000N 00000000000NCONT   00    00000000000          00000000000000000000000000000000000000000000 000000000000000A000000000000000000000000000000000000000000000 000000000000000000000000000000000000000     00000000                                                                                                                        000000000000000000
F0010000009012000004000080019113900023658300000000000000000201608190002001COMERCIAL NOVAPEL LTDA                            C000000000009600000000000000000000100010010000000000000000000000F0010000009012000420160819000101 00000000000000000000000000000000000000000000000000000000000000000000000000000000000000000000000000000000000000000N 00000000000NCONT   00    00000000000          00000000000000000000000000000000000000000000 000000000000000A000000000000000000000000000000000000000000000 000000000000000000000000000000000000000     00000000                                                                                                                        000000000000000000
F0010000009012000005000080019113900013552100000000000000000201608190002001COMERCIAL NOVAPEL LTDA                            D000000000009600000000000000000000100010010000000000000000000000F0010000009012000520160819000101 00000000000000000000000000000000000000000000000000000000000000000000000000000000000000000000000000000000000000000N 00000000000NCONT   00    00000000000          00000000000000000000000000000000000000000000 000000000000000A000000000000000000000000000000000000000000000 000000000000000000000000000000000000000     00000000                                                                                                                        000000000000000000
F0010000009012100001000000742399700011050500000000000000000201608190002001CACHARRERIA EL NUEVO CHADID                       D000000004000000000000000000000000100010010000000000000000000000F0010000009012100120160819000101 00000000000000000000000000000000000000000000000000000000000000000000000000000000000000000000000000000000000000000N 00000000000NCONT   00    00000000000          00000000000000000000000000000000000000000000 000000000000000A000000000000000000000000000000000000000000000 000000000000000000000000000000000000000     00000000                                                                                                                        000000000000000000
F0010000009012100002000000742399700041450500000000000000000201608190002001CACHARRERIA EL NUEVO CHADID                       C000000003000000000000000000000000100010010000000000000000000000F0010000009012100220160819000101 00000000000000000000000000000000000000000000000000000000000000000000000000000000000000000000000000000000000000000N 00000000000NCONT   00    00000000000          00000000000000000000000000000000000000000000 000000000000000A000000000000000000000000000000000000000000000 000000000000000000000000000000000000000     00000000                                                                                                                        000000000000000000
