F0010000010681900001000090067091400011050500000000000000000201711210002001COMERCIALIZADORA ESCOBAR ORTIZ                    D000000000460000000000000000000000100010010000000000000000000000F0010000010681900120171121000101 00000000000000000000000000000000000000000000000000000000000000000000000000000000000000000000000000000000000000000N 00000000000NCONT   00    00000000000          00000000000000000000000000000000000000000000 000000000000000A000000000000000000000000000000000000000000000 000000000000000000000000000000000000000     00000000                                                                                                                        000000000000000000
F0010000010681900002000090067091400041450500000000000000000201711210002001COMERCIALIZADORA ESCOBAR ORTIZ                    C000000000300000000000000000000000100010010000000000000000000000F0010000010681900220171121000101 00000000000000000000000000000000000000000000000000000000000000000000000000000000000000000000000000000000000000000N 00000000000NCONT   00    00000000000          00000000000000000000000000000000000000000000 000000000000000A000000000000000000000000000000000000000000000 000000000000000000000000000000000000000     00000000                                                                                                                        000000000000000000
F0010000010681900003000090067091400042505000000000000000000201711210002001COMERCIALIZADORA ESCOBAR ORTIZ                    C000000000160000000000000000000000100010010000000000000000000000F0010000010681900320171121000101 00000000000000000000000000000000000000000000000000000000000000000000000000000000000000000000000000000000000000000N 00000000000NCONT   00    00000000000          00000000000000000000000000000000000000000000 000000000000000A000000000000000000000000000000000000000000000 000000000000000000000000000000000000000     00000000                                                                                                                        000000000000000000
F0010000010681900004000090067091400023658300000000000000000201711210002001COMERCIALIZADORA ESCOBAR ORTIZ                    C000000000000000000000000000000000100010010000000000000000000000F0010000010681900420171121000101 00000000000000000000000000000000000000000000000000000000000000000000000000000000000000000000000000000000000000000N 00000000000NCONT   00    00000000000          00000000000000000000000000000000000000000000 000000000000000A000000000000000000000000000000000000000000000 000000000000000000000000000000000000000     00000000                                                                                                                        000000000000000000
F0010000010681900005000090067091400013552100000000000000000201711210002001COMERCIALIZADORA ESCOBAR ORTIZ                    D000000000000000000000000000000000100010010000000000000000000000F0010000010681900520171121000101 00000000000000000000000000000000000000000000000000000000000000000000000000000000000000000000000000000000000000000N 00000000000NCONT   00    00000000000          00000000000000000000000000000000000000000000 000000000000000A000000000000000000000000000000000000000000000 000000000000000000000000000000000000000     00000000                                                                                                                        000000000000000000
F0010000010682000001000007218448100011050500000000000000000201711210002001MARIANO SARABIA                                   D000000002460000000000000000000000100010010000000000000000000000F0010000010682000120171121000101 00000000000000000000000000000000000000000000000000000000000000000000000000000000000000000000000000000000000000000N 00000000000NCONT   00    00000000000          00000000000000000000000000000000000000000000 000000000000000A000000000000000000000000000000000000000000000 000000000000000000000000000000000000000     00000000                                                                                                                        000000000000000000
F0010000010682000002000007218448100041450500000000000000000201711210002001MARIANO SARABIA                                   C000000001200000000000000000000000100010010000000000000000000000F0010000010682000220171121000101 00000000000000000000000000000000000000000000000000000000000000000000000000000000000000000000000000000000000000000N 00000000000NCONT   00    00000000000          00000000000000000000000000000000000000000000 000000000000000A000000000000000000000000000000000000000000000 000000000000000000000000000000000000000     00000000                                                                                                                        000000000000000000
F0010000010682000003000007218448100042505000000000000000000201711210002001MARIANO SARABIA                                   C000000001260000000000000000000000100010010000000000000000000000F0010000010682000320171121000101 00000000000000000000000000000000000000000000000000000000000000000000000000000000000000000000000000000000000000000N 00000000000NCONT   00    00000000000          00000000000000000000000000000000000000000000 000000000000000A000000000000000000000000000000000000000000000 000000000000000000000000000000000000000     00000000                                                                                                                        000000000000000000
F0010000010682000004000007218448100023658300000000000000000201711210002001MARIANO SARABIA                                   C000000000000000000000000000000000100010010000000000000000000000F0010000010682000420171121000101 00000000000000000000000000000000000000000000000000000000000000000000000000000000000000000000000000000000000000000N 00000000000NCONT   00    00000000000          00000000000000000000000000000000000000000000 000000000000000A000000000000000000000000000000000000000000000 000000000000000000000000000000000000000     00000000                                                                                                                        000000000000000000
F0010000010682000005000007218448100013552100000000000000000201711210002001MARIANO SARABIA                                   D000000000000000000000000000000000100010010000000000000000000000F0010000010682000520171121000101 00000000000000000000000000000000000000000000000000000000000000000000000000000000000000000000000000000000000000000N 00000000000NCONT   00    00000000000          00000000000000000000000000000000000000000000 000000000000000A000000000000000000000000000000000000000000000 000000000000000000000000000000000000000     00000000                                                                                                                        000000000000000000
F0010000010682100001000007218448100011050500000000000000000201711210002001MARIANO SARABIA                                   D000000001900000000000000000000000100010010000000000000000000000F0010000010682100120171121000101 00000000000000000000000000000000000000000000000000000000000000000000000000000000000000000000000000000000000000000N 00000000000NCONT   00    00000000000          00000000000000000000000000000000000000000000 000000000000000A000000000000000000000000000000000000000000000 000000000000000000000000000000000000000     00000000                                                                                                                        000000000000000000
F0010000010682100002000007218448100041450500000000000000000201711210002001MARIANO SARABIA                                   C000000001200000000000000000000000100010010000000000000000000000F0010000010682100220171121000101 00000000000000000000000000000000000000000000000000000000000000000000000000000000000000000000000000000000000000000N 00000000000NCONT   00    00000000000          00000000000000000000000000000000000000000000 000000000000000A000000000000000000000000000000000000000000000 000000000000000000000000000000000000000     00000000                                                                                                                        000000000000000000
F0010000010682100003000007218448100042505000000000000000000201711210002001MARIANO SARABIA                                   C000000000700000000000000000000000100010010000000000000000000000F0010000010682100320171121000101 00000000000000000000000000000000000000000000000000000000000000000000000000000000000000000000000000000000000000000N 00000000000NCONT   00    00000000000          00000000000000000000000000000000000000000000 000000000000000A000000000000000000000000000000000000000000000 000000000000000000000000000000000000000     00000000                                                                                                                        000000000000000000
F0010000010682100004000007218448100023658300000000000000000201711210002001MARIANO SARABIA                                   C000000000000000000000000000000000100010010000000000000000000000F0010000010682100420171121000101 00000000000000000000000000000000000000000000000000000000000000000000000000000000000000000000000000000000000000000N 00000000000NCONT   00    00000000000          00000000000000000000000000000000000000000000 000000000000000A000000000000000000000000000000000000000000000 000000000000000000000000000000000000000     00000000                                                                                                                        000000000000000000
F0010000010682100005000007218448100013552100000000000000000201711210002001MARIANO SARABIA                                   D000000000000000000000000000000000100010010000000000000000000000F0010000010682100520171121000101 00000000000000000000000000000000000000000000000000000000000000000000000000000000000000000000000000000000000000000N 00000000000NCONT   00    00000000000          00000000000000000000000000000000000000000000 000000000000000A000000000000000000000000000000000000000000000 000000000000000000000000000000000000000     00000000                                                                                                                        000000000000000000
F0010000010682200001000007218448100011050500000000000000000201711210002001MARIANO SARABIA                                   D000000001900000000000000000000000100010010000000000000000000000F0010000010682200120171121000101 00000000000000000000000000000000000000000000000000000000000000000000000000000000000000000000000000000000000000000N 00000000000NCONT   00    00000000000          00000000000000000000000000000000000000000000 000000000000000A000000000000000000000000000000000000000000000 000000000000000000000000000000000000000     00000000                                                                                                                        000000000000000000
F0010000010682200002000007218448100041450500000000000000000201711210002001MARIANO SARABIA                                   C000000001200000000000000000000000100010010000000000000000000000F0010000010682200220171121000101 00000000000000000000000000000000000000000000000000000000000000000000000000000000000000000000000000000000000000000N 00000000000NCONT   00    00000000000          00000000000000000000000000000000000000000000 000000000000000A000000000000000000000000000000000000000000000 000000000000000000000000000000000000000     00000000                                                                                                                        000000000000000000
F0010000010682200003000007218448100042505000000000000000000201711210002001MARIANO SARABIA                                   C000000000700000000000000000000000100010010000000000000000000000F0010000010682200320171121000101 00000000000000000000000000000000000000000000000000000000000000000000000000000000000000000000000000000000000000000N 00000000000NCONT   00    00000000000          00000000000000000000000000000000000000000000 000000000000000A000000000000000000000000000000000000000000000 000000000000000000000000000000000000000     00000000                                                                                                                        000000000000000000
F0010000010682200004000007218448100023658300000000000000000201711210002001MARIANO SARABIA                                   C000000000000000000000000000000000100010010000000000000000000000F0010000010682200420171121000101 00000000000000000000000000000000000000000000000000000000000000000000000000000000000000000000000000000000000000000N 00000000000NCONT   00    00000000000          00000000000000000000000000000000000000000000 000000000000000A000000000000000000000000000000000000000000000 000000000000000000000000000000000000000     00000000                                                                                                                        000000000000000000
F0010000010682200005000007218448100013552100000000000000000201711210002001MARIANO SARABIA                                   D000000000000000000000000000000000100010010000000000000000000000F0010000010682200520171121000101 00000000000000000000000000000000000000000000000000000000000000000000000000000000000000000000000000000000000000000N 00000000000NCONT   00    00000000000          00000000000000000000000000000000000000000000 000000000000000A000000000000000000000000000000000000000000000 000000000000000000000000000000000000000     00000000                                                                                                                        000000000000000000
F0010000010682300001000007218448100011050500000000000000000201711210002001MARIANO SARABIA                                   D000000004080000000000000000000000100010010000000000000000000000F0010000010682300120171121000101 00000000000000000000000000000000000000000000000000000000000000000000000000000000000000000000000000000000000000000N 00000000000NCONT   00    00000000000          00000000000000000000000000000000000000000000 000000000000000A000000000000000000000000000000000000000000000 000000000000000000000000000000000000000     00000000                                                                                                                        000000000000000000
F0010000010682300002000007218448100041450500000000000000000201711210002001MARIANO SARABIA                                   C000000002400000000000000000000000100010010000000000000000000000F0010000010682300220171121000101 00000000000000000000000000000000000000000000000000000000000000000000000000000000000000000000000000000000000000000N 00000000000NCONT   00    00000000000          00000000000000000000000000000000000000000000 000000000000000A000000000000000000000000000000000000000000000 000000000000000000000000000000000000000     00000000                                                                                                                        000000000000000000
F0010000010682300003000007218448100042505000000000000000000201711210002001MARIANO SARABIA                                   C000000001680000000000000000000000100010010000000000000000000000F0010000010682300320171121000101 00000000000000000000000000000000000000000000000000000000000000000000000000000000000000000000000000000000000000000N 00000000000NCONT   00    00000000000          00000000000000000000000000000000000000000000 000000000000000A000000000000000000000000000000000000000000000 000000000000000000000000000000000000000     00000000                                                                                                                        000000000000000000
F0010000010682300004000007218448100023658300000000000000000201711210002001MARIANO SARABIA                                   C000000000000000000000000000000000100010010000000000000000000000F0010000010682300420171121000101 00000000000000000000000000000000000000000000000000000000000000000000000000000000000000000000000000000000000000000N 00000000000NCONT   00    00000000000          00000000000000000000000000000000000000000000 000000000000000A000000000000000000000000000000000000000000000 000000000000000000000000000000000000000     00000000                                                                                                                        000000000000000000
F0010000010682300005000007218448100013552100000000000000000201711210002001MARIANO SARABIA                                   D000000000000000000000000000000000100010010000000000000000000000F0010000010682300520171121000101 00000000000000000000000000000000000000000000000000000000000000000000000000000000000000000000000000000000000000000N 00000000000NCONT   00    00000000000          00000000000000000000000000000000000000000000 000000000000000A000000000000000000000000000000000000000000000 000000000000000000000000000000000000000     00000000                                                                                                                        000000000000000000
F0010000010682400001000007221007700011050500000000000000000201711210002001LEANDRO POLO                                      D000000002000000000000000000000000100010010000000000000000000000F0010000010682400120171121000101 00000000000000000000000000000000000000000000000000000000000000000000000000000000000000000000000000000000000000000N 00000000000NCONT   00    00000000000          00000000000000000000000000000000000000000000 000000000000000A000000000000000000000000000000000000000000000 000000000000000000000000000000000000000     00000000                                                                                                                        000000000000000000
F0010000010682400002000007221007700041450500000000000000000201711210002001LEANDRO POLO                                      C000000001900000000000000000000000100010010000000000000000000000F0010000010682400220171121000101 00000000000000000000000000000000000000000000000000000000000000000000000000000000000000000000000000000000000000000N 00000000000NCONT   00    00000000000          00000000000000000000000000000000000000000000 000000000000000A000000000000000000000000000000000000000000000 000000000000000000000000000000000000000     00000000                                                                                                                        000000000000000000
F0010000010682400003000007221007700042505000000000000000000201711210002001LEANDRO POLO                                      C000000000100000000000000000000000100010010000000000000000000000F0010000010682400320171121000101 00000000000000000000000000000000000000000000000000000000000000000000000000000000000000000000000000000000000000000N 00000000000NCONT   00    00000000000          00000000000000000000000000000000000000000000 000000000000000A000000000000000000000000000000000000000000000 000000000000000000000000000000000000000     00000000                                                                                                                        000000000000000000
F0010000010682400004000007221007700023658300000000000000000201711210002001LEANDRO POLO                                      C000000000000000000000000000000000100010010000000000000000000000F0010000010682400420171121000101 00000000000000000000000000000000000000000000000000000000000000000000000000000000000000000000000000000000000000000N 00000000000NCONT   00    00000000000          00000000000000000000000000000000000000000000 000000000000000A000000000000000000000000000000000000000000000 000000000000000000000000000000000000000     00000000                                                                                                                        000000000000000000
F0010000010682400005000007221007700013552100000000000000000201711210002001LEANDRO POLO                                      D000000000000000000000000000000000100010010000000000000000000000F0010000010682400520171121000101 00000000000000000000000000000000000000000000000000000000000000000000000000000000000000000000000000000000000000000N 00000000000NCONT   00    00000000000          00000000000000000000000000000000000000000000 000000000000000A000000000000000000000000000000000000000000000 000000000000000000000000000000000000000     00000000                                                                                                                        000000000000000000
F0010000010682500001000080201411900011050500000000000000000201711210002001PLASTISERVICIOS S DE H                            D000000005900000000000000000000000100010010000000000000000000000F0010000010682500120171121000101 00000000000000000000000000000000000000000000000000000000000000000000000000000000000000000000000000000000000000000N 00000000000NCONT   00    00000000000          00000000000000000000000000000000000000000000 000000000000000A000000000000000000000000000000000000000000000 000000000000000000000000000000000000000     00000000                                                                                                                        000000000000000000
F0010000010682500002000080201411900041450500000000000000000201711210002001PLASTISERVICIOS S DE H                            C000000004400000000000000000000000100010010000000000000000000000F0010000010682500220171121000101 00000000000000000000000000000000000000000000000000000000000000000000000000000000000000000000000000000000000000000N 00000000000NCONT   00    00000000000          00000000000000000000000000000000000000000000 000000000000000A000000000000000000000000000000000000000000000 000000000000000000000000000000000000000     00000000                                                                                                                        000000000000000000
F0010000010682500003000080201411900042505000000000000000000201711210002001PLASTISERVICIOS S DE H                            C000000001500000000000000000000000100010010000000000000000000000F0010000010682500320171121000101 00000000000000000000000000000000000000000000000000000000000000000000000000000000000000000000000000000000000000000N 00000000000NCONT   00    00000000000          00000000000000000000000000000000000000000000 000000000000000A000000000000000000000000000000000000000000000 000000000000000000000000000000000000000     00000000                                                                                                                        000000000000000000
F0010000010682500004000080201411900023658300000000000000000201711210002001PLASTISERVICIOS S DE H                            C000000000000000000000000000000000100010010000000000000000000000F0010000010682500420171121000101 00000000000000000000000000000000000000000000000000000000000000000000000000000000000000000000000000000000000000000N 00000000000NCONT   00    00000000000          00000000000000000000000000000000000000000000 000000000000000A000000000000000000000000000000000000000000000 000000000000000000000000000000000000000     00000000                                                                                                                        000000000000000000
F0010000010682500005000080201411900013552100000000000000000201711210002001PLASTISERVICIOS S DE H                            D000000000000000000000000000000000100010010000000000000000000000F0010000010682500520171121000101 00000000000000000000000000000000000000000000000000000000000000000000000000000000000000000000000000000000000000000N 00000000000NCONT   00    00000000000          00000000000000000000000000000000000000000000 000000000000000A000000000000000000000000000000000000000000000 000000000000000000000000000000000000000     00000000                                                                                                                        000000000000000000
F0010000010682600001000080201411900011050500000000000000000201711210002001PLASTISERVICIOS S DE H                            D000000002600000000000000000000000100010010000000000000000000000F0010000010682600120171121000101 00000000000000000000000000000000000000000000000000000000000000000000000000000000000000000000000000000000000000000N 00000000000NCONT   00    00000000000          00000000000000000000000000000000000000000000 000000000000000A000000000000000000000000000000000000000000000 000000000000000000000000000000000000000     00000000                                                                                                                        000000000000000000
F0010000010682600002000080201411900041450500000000000000000201711210002001PLASTISERVICIOS S DE H                            C000000002200000000000000000000000100010010000000000000000000000F0010000010682600220171121000101 00000000000000000000000000000000000000000000000000000000000000000000000000000000000000000000000000000000000000000N 00000000000NCONT   00    00000000000          00000000000000000000000000000000000000000000 000000000000000A000000000000000000000000000000000000000000000 000000000000000000000000000000000000000     00000000                                                                                                                        000000000000000000
F0010000010682600003000080201411900042505000000000000000000201711210002001PLASTISERVICIOS S DE H                            C000000000400000000000000000000000100010010000000000000000000000F0010000010682600320171121000101 00000000000000000000000000000000000000000000000000000000000000000000000000000000000000000000000000000000000000000N 00000000000NCONT   00    00000000000          00000000000000000000000000000000000000000000 000000000000000A000000000000000000000000000000000000000000000 000000000000000000000000000000000000000     00000000                                                                                                                        000000000000000000
F0010000010682600004000080201411900023658300000000000000000201711210002001PLASTISERVICIOS S DE H                            C000000000000000000000000000000000100010010000000000000000000000F0010000010682600420171121000101 00000000000000000000000000000000000000000000000000000000000000000000000000000000000000000000000000000000000000000N 00000000000NCONT   00    00000000000          00000000000000000000000000000000000000000000 000000000000000A000000000000000000000000000000000000000000000 000000000000000000000000000000000000000     00000000                                                                                                                        000000000000000000
F0010000010682600005000080201411900013552100000000000000000201711210002001PLASTISERVICIOS S DE H                            D000000000000000000000000000000000100010010000000000000000000000F0010000010682600520171121000101 00000000000000000000000000000000000000000000000000000000000000000000000000000000000000000000000000000000000000000N 00000000000NCONT   00    00000000000          00000000000000000000000000000000000000000000 000000000000000A000000000000000000000000000000000000000000000 000000000000000000000000000000000000000     00000000                                                                                                                        000000000000000000
F0010000010682700001000000744496800011050500000000000000000201711210002001TOMAS SANCHEZ                                     D000000002300000000000000000000000100010010000000000000000000000F0010000010682700120171121000101 00000000000000000000000000000000000000000000000000000000000000000000000000000000000000000000000000000000000000000N 00000000000NCONT   00    00000000000          00000000000000000000000000000000000000000000 000000000000000A000000000000000000000000000000000000000000000 000000000000000000000000000000000000000     00000000                                                                                                                        000000000000000000
F0010000010682700002000000744496800041450500000000000000000201711210002001TOMAS SANCHEZ                                     C000000002200000000000000000000000100010010000000000000000000000F0010000010682700220171121000101 00000000000000000000000000000000000000000000000000000000000000000000000000000000000000000000000000000000000000000N 00000000000NCONT   00    00000000000          00000000000000000000000000000000000000000000 000000000000000A000000000000000000000000000000000000000000000 000000000000000000000000000000000000000     00000000                                                                                                                        000000000000000000
F0010000010682700003000000744496800042505000000000000000000201711210002001TOMAS SANCHEZ                                     C000000000100000000000000000000000100010010000000000000000000000F0010000010682700320171121000101 00000000000000000000000000000000000000000000000000000000000000000000000000000000000000000000000000000000000000000N 00000000000NCONT   00    00000000000          00000000000000000000000000000000000000000000 000000000000000A000000000000000000000000000000000000000000000 000000000000000000000000000000000000000     00000000                                                                                                                        000000000000000000
F0010000010682700004000000744496800023658300000000000000000201711210002001TOMAS SANCHEZ                                     C000000000000000000000000000000000100010010000000000000000000000F0010000010682700420171121000101 00000000000000000000000000000000000000000000000000000000000000000000000000000000000000000000000000000000000000000N 00000000000NCONT   00    00000000000          00000000000000000000000000000000000000000000 000000000000000A000000000000000000000000000000000000000000000 000000000000000000000000000000000000000     00000000                                                                                                                        000000000000000000
F0010000010682700005000000744496800013552100000000000000000201711210002001TOMAS SANCHEZ                                     D000000000000000000000000000000000100010010000000000000000000000F0010000010682700520171121000101 00000000000000000000000000000000000000000000000000000000000000000000000000000000000000000000000000000000000000000N 00000000000NCONT   00    00000000000          00000000000000000000000000000000000000000000 000000000000000A000000000000000000000000000000000000000000000 000000000000000000000000000000000000000     00000000                                                                                                                        000000000000000000
F0010000010682800001000000744496800011050500000000000000000201711210002001TOMAS SANCHEZ                                     D000000002300000000000000000000000100010010000000000000000000000F0010000010682800120171121000101 00000000000000000000000000000000000000000000000000000000000000000000000000000000000000000000000000000000000000000N 00000000000NCONT   00    00000000000          00000000000000000000000000000000000000000000 000000000000000A000000000000000000000000000000000000000000000 000000000000000000000000000000000000000     00000000                                                                                                                        000000000000000000
F0010000010682800002000000744496800041450500000000000000000201711210002001TOMAS SANCHEZ                                     C000000002200000000000000000000000100010010000000000000000000000F0010000010682800220171121000101 00000000000000000000000000000000000000000000000000000000000000000000000000000000000000000000000000000000000000000N 00000000000NCONT   00    00000000000          00000000000000000000000000000000000000000000 000000000000000A000000000000000000000000000000000000000000000 000000000000000000000000000000000000000     00000000                                                                                                                        000000000000000000
F0010000010682800003000000744496800042505000000000000000000201711210002001TOMAS SANCHEZ                                     C000000000100000000000000000000000100010010000000000000000000000F0010000010682800320171121000101 00000000000000000000000000000000000000000000000000000000000000000000000000000000000000000000000000000000000000000N 00000000000NCONT   00    00000000000          00000000000000000000000000000000000000000000 000000000000000A000000000000000000000000000000000000000000000 000000000000000000000000000000000000000     00000000                                                                                                                        000000000000000000
F0010000010682800004000000744496800023658300000000000000000201711210002001TOMAS SANCHEZ                                     C000000000000000000000000000000000100010010000000000000000000000F0010000010682800420171121000101 00000000000000000000000000000000000000000000000000000000000000000000000000000000000000000000000000000000000000000N 00000000000NCONT   00    00000000000          00000000000000000000000000000000000000000000 000000000000000A000000000000000000000000000000000000000000000 000000000000000000000000000000000000000     00000000                                                                                                                        000000000000000000
F0010000010682800005000000744496800013552100000000000000000201711210002001TOMAS SANCHEZ                                     D000000000000000000000000000000000100010010000000000000000000000F0010000010682800520171121000101 00000000000000000000000000000000000000000000000000000000000000000000000000000000000000000000000000000000000000000N 00000000000NCONT   00    00000000000          00000000000000000000000000000000000000000000 000000000000000A000000000000000000000000000000000000000000000 000000000000000000000000000000000000000     00000000                                                                                                                        000000000000000000
F0010000010682900001000007016511700011050500000000000000000201711210002001YEISON CASTAÑO                                   D000000001700000000000000000000000100010010000000000000000000000F0010000010682900120171121000101 00000000000000000000000000000000000000000000000000000000000000000000000000000000000000000000000000000000000000000N 00000000000NCONT   00    00000000000          00000000000000000000000000000000000000000000 000000000000000A000000000000000000000000000000000000000000000 000000000000000000000000000000000000000     00000000                                                                                                                        000000000000000000
F0010000010682900002000007016511700041450500000000000000000201711210002001YEISON CASTAÑO                                   C000000001600000000000000000000000100010010000000000000000000000F0010000010682900220171121000101 00000000000000000000000000000000000000000000000000000000000000000000000000000000000000000000000000000000000000000N 00000000000NCONT   00    00000000000          00000000000000000000000000000000000000000000 000000000000000A000000000000000000000000000000000000000000000 000000000000000000000000000000000000000     00000000                                                                                                                        000000000000000000
F0010000010682900003000007016511700042505000000000000000000201711210002001YEISON CASTAÑO                                   C000000000100000000000000000000000100010010000000000000000000000F0010000010682900320171121000101 00000000000000000000000000000000000000000000000000000000000000000000000000000000000000000000000000000000000000000N 00000000000NCONT   00    00000000000          00000000000000000000000000000000000000000000 000000000000000A000000000000000000000000000000000000000000000 000000000000000000000000000000000000000     00000000                                                                                                                        000000000000000000
F0010000010682900004000007016511700023658300000000000000000201711210002001YEISON CASTAÑO                                   C000000000000000000000000000000000100010010000000000000000000000F0010000010682900420171121000101 00000000000000000000000000000000000000000000000000000000000000000000000000000000000000000000000000000000000000000N 00000000000NCONT   00    00000000000          00000000000000000000000000000000000000000000 000000000000000A000000000000000000000000000000000000000000000 000000000000000000000000000000000000000     00000000                                                                                                                        000000000000000000
F0010000010682900005000007016511700013552100000000000000000201711210002001YEISON CASTAÑO                                   D000000000000000000000000000000000100010010000000000000000000000F0010000010682900520171121000101 00000000000000000000000000000000000000000000000000000000000000000000000000000000000000000000000000000000000000000N 00000000000NCONT   00    00000000000          00000000000000000000000000000000000000000000 000000000000000A000000000000000000000000000000000000000000000 000000000000000000000000000000000000000     00000000                                                                                                                        000000000000000000
F0010000010683000001000000856527900011050500000000000000000201711210002001CESAR AUGUSTO MIER BUELVAS                        D000000001200000000000000000000000100010010000000000000000000000F0010000010683000120171121000101 00000000000000000000000000000000000000000000000000000000000000000000000000000000000000000000000000000000000000000N 00000000000NCONT   00    00000000000          00000000000000000000000000000000000000000000 000000000000000A000000000000000000000000000000000000000000000 000000000000000000000000000000000000000     00000000                                                                                                                        000000000000000000
F0010000010683000002000000856527900041450500000000000000000201711210002001CESAR AUGUSTO MIER BUELVAS                        C000000001100000000000000000000000100010010000000000000000000000F0010000010683000220171121000101 00000000000000000000000000000000000000000000000000000000000000000000000000000000000000000000000000000000000000000N 00000000000NCONT   00    00000000000          00000000000000000000000000000000000000000000 000000000000000A000000000000000000000000000000000000000000000 000000000000000000000000000000000000000     00000000                                                                                                                        000000000000000000
F0010000010683000003000000856527900042505000000000000000000201711210002001CESAR AUGUSTO MIER BUELVAS                        C000000000100000000000000000000000100010010000000000000000000000F0010000010683000320171121000101 00000000000000000000000000000000000000000000000000000000000000000000000000000000000000000000000000000000000000000N 00000000000NCONT   00    00000000000          00000000000000000000000000000000000000000000 000000000000000A000000000000000000000000000000000000000000000 000000000000000000000000000000000000000     00000000                                                                                                                        000000000000000000
F0010000010683000004000000856527900023658300000000000000000201711210002001CESAR AUGUSTO MIER BUELVAS                        C000000000000000000000000000000000100010010000000000000000000000F0010000010683000420171121000101 00000000000000000000000000000000000000000000000000000000000000000000000000000000000000000000000000000000000000000N 00000000000NCONT   00    00000000000          00000000000000000000000000000000000000000000 000000000000000A000000000000000000000000000000000000000000000 000000000000000000000000000000000000000     00000000                                                                                                                        000000000000000000
F0010000010683000005000000856527900013552100000000000000000201711210002001CESAR AUGUSTO MIER BUELVAS                        D000000000000000000000000000000000100010010000000000000000000000F0010000010683000520171121000101 00000000000000000000000000000000000000000000000000000000000000000000000000000000000000000000000000000000000000000N 00000000000NCONT   00    00000000000          00000000000000000000000000000000000000000000 000000000000000A000000000000000000000000000000000000000000000 000000000000000000000000000000000000000     00000000                                                                                                                        000000000000000000
F0010000010683100001000000856527900011050500000000000000000201711210002001CESAR AUGUSTO MIER BUELVAS                        D000000001200000000000000000000000100010010000000000000000000000F0010000010683100120171121000101 00000000000000000000000000000000000000000000000000000000000000000000000000000000000000000000000000000000000000000N 00000000000NCONT   00    00000000000          00000000000000000000000000000000000000000000 000000000000000A000000000000000000000000000000000000000000000 000000000000000000000000000000000000000     00000000                                                                                                                        000000000000000000
F0010000010683100002000000856527900041450500000000000000000201711210002001CESAR AUGUSTO MIER BUELVAS                        C000000001100000000000000000000000100010010000000000000000000000F0010000010683100220171121000101 00000000000000000000000000000000000000000000000000000000000000000000000000000000000000000000000000000000000000000N 00000000000NCONT   00    00000000000          00000000000000000000000000000000000000000000 000000000000000A000000000000000000000000000000000000000000000 000000000000000000000000000000000000000     00000000                                                                                                                        000000000000000000
F0010000010683100003000000856527900042505000000000000000000201711210002001CESAR AUGUSTO MIER BUELVAS                        C000000000100000000000000000000000100010010000000000000000000000F0010000010683100320171121000101 00000000000000000000000000000000000000000000000000000000000000000000000000000000000000000000000000000000000000000N 00000000000NCONT   00    00000000000          00000000000000000000000000000000000000000000 000000000000000A000000000000000000000000000000000000000000000 000000000000000000000000000000000000000     00000000                                                                                                                        000000000000000000
F0010000010683100004000000856527900023658300000000000000000201711210002001CESAR AUGUSTO MIER BUELVAS                        C000000000000000000000000000000000100010010000000000000000000000F0010000010683100420171121000101 00000000000000000000000000000000000000000000000000000000000000000000000000000000000000000000000000000000000000000N 00000000000NCONT   00    00000000000          00000000000000000000000000000000000000000000 000000000000000A000000000000000000000000000000000000000000000 000000000000000000000000000000000000000     00000000                                                                                                                        000000000000000000
F0010000010683100005000000856527900013552100000000000000000201711210002001CESAR AUGUSTO MIER BUELVAS                        D000000000000000000000000000000000100010010000000000000000000000F0010000010683100520171121000101 00000000000000000000000000000000000000000000000000000000000000000000000000000000000000000000000000000000000000000N 00000000000NCONT   00    00000000000          00000000000000000000000000000000000000000000 000000000000000A000000000000000000000000000000000000000000000 000000000000000000000000000000000000000     00000000                                                                                                                        000000000000000000
F0010000010683200001000080200049600011050500000000000000000201711210002001FAMAPAN DEL CARIBE                                D000000010100000000000000000000000100010010000000000000000000000F0010000010683200120171121000101 00000000000000000000000000000000000000000000000000000000000000000000000000000000000000000000000000000000000000000N 00000000000NCONT   00    00000000000          00000000000000000000000000000000000000000000 000000000000000A000000000000000000000000000000000000000000000 000000000000000000000000000000000000000     00000000                                                                                                                        000000000000000000
F0010000010683200002000080200049600041450500000000000000000201711210002001FAMAPAN DEL CARIBE                                C000000010000000000000000000000000100010010000000000000000000000F0010000010683200220171121000101 00000000000000000000000000000000000000000000000000000000000000000000000000000000000000000000000000000000000000000N 00000000000NCONT   00    00000000000          00000000000000000000000000000000000000000000 000000000000000A000000000000000000000000000000000000000000000 000000000000000000000000000000000000000     00000000                                                                                                                        000000000000000000
F0010000010683200003000080200049600042505000000000000000000201711210002001FAMAPAN DEL CARIBE                                C000000000100000000000000000000000100010010000000000000000000000F0010000010683200320171121000101 00000000000000000000000000000000000000000000000000000000000000000000000000000000000000000000000000000000000000000N 00000000000NCONT   00    00000000000          00000000000000000000000000000000000000000000 000000000000000A000000000000000000000000000000000000000000000 000000000000000000000000000000000000000     00000000                                                                                                                        000000000000000000
F0010000010683200004000080200049600023658300000000000000000201711210002001FAMAPAN DEL CARIBE                                C000000000000000000000000000000000100010010000000000000000000000F0010000010683200420171121000101 00000000000000000000000000000000000000000000000000000000000000000000000000000000000000000000000000000000000000000N 00000000000NCONT   00    00000000000          00000000000000000000000000000000000000000000 000000000000000A000000000000000000000000000000000000000000000 000000000000000000000000000000000000000     00000000                                                                                                                        000000000000000000
F0010000010683200005000080200049600013552100000000000000000201711210002001FAMAPAN DEL CARIBE                                D000000000000000000000000000000000100010010000000000000000000000F0010000010683200520171121000101 00000000000000000000000000000000000000000000000000000000000000000000000000000000000000000000000000000000000000000N 00000000000NCONT   00    00000000000          00000000000000000000000000000000000000000000 000000000000000A000000000000000000000000000000000000000000000 000000000000000000000000000000000000000     00000000                                                                                                                        000000000000000000
F0010000010683300001000080200049600011050500000000000000000201711210002001FAMAPAN DEL CARIBE                                D000000010100000000000000000000000100010010000000000000000000000F0010000010683300120171121000101 00000000000000000000000000000000000000000000000000000000000000000000000000000000000000000000000000000000000000000N 00000000000NCONT   00    00000000000          00000000000000000000000000000000000000000000 000000000000000A000000000000000000000000000000000000000000000 000000000000000000000000000000000000000     00000000                                                                                                                        000000000000000000
F0010000010683300002000080200049600041450500000000000000000201711210002001FAMAPAN DEL CARIBE                                C000000010000000000000000000000000100010010000000000000000000000F0010000010683300220171121000101 00000000000000000000000000000000000000000000000000000000000000000000000000000000000000000000000000000000000000000N 00000000000NCONT   00    00000000000          00000000000000000000000000000000000000000000 000000000000000A000000000000000000000000000000000000000000000 000000000000000000000000000000000000000     00000000                                                                                                                        000000000000000000
F0010000010683300003000080200049600042505000000000000000000201711210002001FAMAPAN DEL CARIBE                                C000000000100000000000000000000000100010010000000000000000000000F0010000010683300320171121000101 00000000000000000000000000000000000000000000000000000000000000000000000000000000000000000000000000000000000000000N 00000000000NCONT   00    00000000000          00000000000000000000000000000000000000000000 000000000000000A000000000000000000000000000000000000000000000 000000000000000000000000000000000000000     00000000                                                                                                                        000000000000000000
F0010000010683300004000080200049600023658300000000000000000201711210002001FAMAPAN DEL CARIBE                                C000000000000000000000000000000000100010010000000000000000000000F0010000010683300420171121000101 00000000000000000000000000000000000000000000000000000000000000000000000000000000000000000000000000000000000000000N 00000000000NCONT   00    00000000000          00000000000000000000000000000000000000000000 000000000000000A000000000000000000000000000000000000000000000 000000000000000000000000000000000000000     00000000                                                                                                                        000000000000000000
F0010000010683300005000080200049600013552100000000000000000201711210002001FAMAPAN DEL CARIBE                                D000000000000000000000000000000000100010010000000000000000000000F0010000010683300520171121000101 00000000000000000000000000000000000000000000000000000000000000000000000000000000000000000000000000000000000000000N 00000000000NCONT   00    00000000000          00000000000000000000000000000000000000000000 000000000000000A000000000000000000000000000000000000000000000 000000000000000000000000000000000000000     00000000                                                                                                                        000000000000000000
F0010000010683400001000080200049600011050500000000000000000201711210002001FAMAPAN DEL CARIBE                                D000000010100000000000000000000000100010010000000000000000000000F0010000010683400120171121000101 00000000000000000000000000000000000000000000000000000000000000000000000000000000000000000000000000000000000000000N 00000000000NCONT   00    00000000000          00000000000000000000000000000000000000000000 000000000000000A000000000000000000000000000000000000000000000 000000000000000000000000000000000000000     00000000                                                                                                                        000000000000000000
F0010000010683400002000080200049600041450500000000000000000201711210002001FAMAPAN DEL CARIBE                                C000000010000000000000000000000000100010010000000000000000000000F0010000010683400220171121000101 00000000000000000000000000000000000000000000000000000000000000000000000000000000000000000000000000000000000000000N 00000000000NCONT   00    00000000000          00000000000000000000000000000000000000000000 000000000000000A000000000000000000000000000000000000000000000 000000000000000000000000000000000000000     00000000                                                                                                                        000000000000000000
F0010000010683400003000080200049600042505000000000000000000201711210002001FAMAPAN DEL CARIBE                                C000000000100000000000000000000000100010010000000000000000000000F0010000010683400320171121000101 00000000000000000000000000000000000000000000000000000000000000000000000000000000000000000000000000000000000000000N 00000000000NCONT   00    00000000000          00000000000000000000000000000000000000000000 000000000000000A000000000000000000000000000000000000000000000 000000000000000000000000000000000000000     00000000                                                                                                                        000000000000000000
F0010000010683400004000080200049600023658300000000000000000201711210002001FAMAPAN DEL CARIBE                                C000000000000000000000000000000000100010010000000000000000000000F0010000010683400420171121000101 00000000000000000000000000000000000000000000000000000000000000000000000000000000000000000000000000000000000000000N 00000000000NCONT   00    00000000000          00000000000000000000000000000000000000000000 000000000000000A000000000000000000000000000000000000000000000 000000000000000000000000000000000000000     00000000                                                                                                                        000000000000000000
F0010000010683400005000080200049600013552100000000000000000201711210002001FAMAPAN DEL CARIBE                                D000000000000000000000000000000000100010010000000000000000000000F0010000010683400520171121000101 00000000000000000000000000000000000000000000000000000000000000000000000000000000000000000000000000000000000000000N 00000000000NCONT   00    00000000000          00000000000000000000000000000000000000000000 000000000000000A000000000000000000000000000000000000000000000 000000000000000000000000000000000000000     00000000                                                                                                                        000000000000000000
F0010000010683500001000000091780800011050500000000000000000201711210002001ITALO RENE HERAZO CARCAMO /CENTRAL DE TORNILLOS   D000000002580000000000000000000000100010010000000000000000000000F0010000010683500120171121000101 00000000000000000000000000000000000000000000000000000000000000000000000000000000000000000000000000000000000000000N 00000000000NCONT   00    00000000000          00000000000000000000000000000000000000000000 000000000000000A000000000000000000000000000000000000000000000 000000000000000000000000000000000000000     00000000                                                                                                                        000000000000000000
F0010000010683500002000000091780800041450500000000000000000201711210002001ITALO RENE HERAZO CARCAMO /CENTRAL DE TORNILLOS   C000000002080000000000000000000000100010010000000000000000000000F0010000010683500220171121000101 00000000000000000000000000000000000000000000000000000000000000000000000000000000000000000000000000000000000000000N 00000000000NCONT   00    00000000000          00000000000000000000000000000000000000000000 000000000000000A000000000000000000000000000000000000000000000 000000000000000000000000000000000000000     00000000                                                                                                                        000000000000000000
F0010000010683500003000000091780800042505000000000000000000201711210002001ITALO RENE HERAZO CARCAMO /CENTRAL DE TORNILLOS   C000000000500000000000000000000000100010010000000000000000000000F0010000010683500320171121000101 00000000000000000000000000000000000000000000000000000000000000000000000000000000000000000000000000000000000000000N 00000000000NCONT   00    00000000000          00000000000000000000000000000000000000000000 000000000000000A000000000000000000000000000000000000000000000 000000000000000000000000000000000000000     00000000                                                                                                                        000000000000000000
F0010000010683500004000000091780800023658300000000000000000201711210002001ITALO RENE HERAZO CARCAMO /CENTRAL DE TORNILLOS   C000000000000000000000000000000000100010010000000000000000000000F0010000010683500420171121000101 00000000000000000000000000000000000000000000000000000000000000000000000000000000000000000000000000000000000000000N 00000000000NCONT   00    00000000000          00000000000000000000000000000000000000000000 000000000000000A000000000000000000000000000000000000000000000 000000000000000000000000000000000000000     00000000                                                                                                                        000000000000000000
F0010000010683500005000000091780800013552100000000000000000201711210002001ITALO RENE HERAZO CARCAMO /CENTRAL DE TORNILLOS   D000000000000000000000000000000000100010010000000000000000000000F0010000010683500520171121000101 00000000000000000000000000000000000000000000000000000000000000000000000000000000000000000000000000000000000000000N 00000000000NCONT   00    00000000000          00000000000000000000000000000000000000000000 000000000000000A000000000000000000000000000000000000000000000 000000000000000000000000000000000000000     00000000                                                                                                                        000000000000000000
F0010000010683600001000000091780800011050500000000000000000201711210002001ITALO RENE HERAZO CARCAMO /CENTRAL DE TORNILLOS   D000000002230000000000000000000000100010010000000000000000000000F0010000010683600120171121000101 00000000000000000000000000000000000000000000000000000000000000000000000000000000000000000000000000000000000000000N 00000000000NCONT   00    00000000000          00000000000000000000000000000000000000000000 000000000000000A000000000000000000000000000000000000000000000 000000000000000000000000000000000000000     00000000                                                                                                                        000000000000000000
F0010000010683600002000000091780800041450500000000000000000201711210002001ITALO RENE HERAZO CARCAMO /CENTRAL DE TORNILLOS   C000000002080000000000000000000000100010010000000000000000000000F0010000010683600220171121000101 00000000000000000000000000000000000000000000000000000000000000000000000000000000000000000000000000000000000000000N 00000000000NCONT   00    00000000000          00000000000000000000000000000000000000000000 000000000000000A000000000000000000000000000000000000000000000 000000000000000000000000000000000000000     00000000                                                                                                                        000000000000000000
F0010000010683600003000000091780800042505000000000000000000201711210002001ITALO RENE HERAZO CARCAMO /CENTRAL DE TORNILLOS   C000000000150000000000000000000000100010010000000000000000000000F0010000010683600320171121000101 00000000000000000000000000000000000000000000000000000000000000000000000000000000000000000000000000000000000000000N 00000000000NCONT   00    00000000000          00000000000000000000000000000000000000000000 000000000000000A000000000000000000000000000000000000000000000 000000000000000000000000000000000000000     00000000                                                                                                                        000000000000000000
F0010000010683600004000000091780800023658300000000000000000201711210002001ITALO RENE HERAZO CARCAMO /CENTRAL DE TORNILLOS   C000000000000000000000000000000000100010010000000000000000000000F0010000010683600420171121000101 00000000000000000000000000000000000000000000000000000000000000000000000000000000000000000000000000000000000000000N 00000000000NCONT   00    00000000000          00000000000000000000000000000000000000000000 000000000000000A000000000000000000000000000000000000000000000 000000000000000000000000000000000000000     00000000                                                                                                                        000000000000000000
F0010000010683600005000000091780800013552100000000000000000201711210002001ITALO RENE HERAZO CARCAMO /CENTRAL DE TORNILLOS   D000000000000000000000000000000000100010010000000000000000000000F0010000010683600520171121000101 00000000000000000000000000000000000000000000000000000000000000000000000000000000000000000000000000000000000000000N 00000000000NCONT   00    00000000000          00000000000000000000000000000000000000000000 000000000000000A000000000000000000000000000000000000000000000 000000000000000000000000000000000000000     00000000                                                                                                                        000000000000000000
F0010000010683700001000000091780800011050500000000000000000201711210002001ITALO RENE HERAZO CARCAMO /CENTRAL DE TORNILLOS   D000000001760000000000000000000000100010010000000000000000000000F0010000010683700120171121000101 00000000000000000000000000000000000000000000000000000000000000000000000000000000000000000000000000000000000000000N 00000000000NCONT   00    00000000000          00000000000000000000000000000000000000000000 000000000000000A000000000000000000000000000000000000000000000 000000000000000000000000000000000000000     00000000                                                                                                                        000000000000000000
F0010000010683700002000000091780800041450500000000000000000201711210002001ITALO RENE HERAZO CARCAMO /CENTRAL DE TORNILLOS   C000000001500000000000000000000000100010010000000000000000000000F0010000010683700220171121000101 00000000000000000000000000000000000000000000000000000000000000000000000000000000000000000000000000000000000000000N 00000000000NCONT   00    00000000000          00000000000000000000000000000000000000000000 000000000000000A000000000000000000000000000000000000000000000 000000000000000000000000000000000000000     00000000                                                                                                                        000000000000000000
F0010000010683700003000000091780800042505000000000000000000201711210002001ITALO RENE HERAZO CARCAMO /CENTRAL DE TORNILLOS   C000000000260000000000000000000000100010010000000000000000000000F0010000010683700320171121000101 00000000000000000000000000000000000000000000000000000000000000000000000000000000000000000000000000000000000000000N 00000000000NCONT   00    00000000000          00000000000000000000000000000000000000000000 000000000000000A000000000000000000000000000000000000000000000 000000000000000000000000000000000000000     00000000                                                                                                                        000000000000000000
F0010000010683700004000000091780800023658300000000000000000201711210002001ITALO RENE HERAZO CARCAMO /CENTRAL DE TORNILLOS   C000000000000000000000000000000000100010010000000000000000000000F0010000010683700420171121000101 00000000000000000000000000000000000000000000000000000000000000000000000000000000000000000000000000000000000000000N 00000000000NCONT   00    00000000000          00000000000000000000000000000000000000000000 000000000000000A000000000000000000000000000000000000000000000 000000000000000000000000000000000000000     00000000                                                                                                                        000000000000000000
F0010000010683700005000000091780800013552100000000000000000201711210002001ITALO RENE HERAZO CARCAMO /CENTRAL DE TORNILLOS   D000000000000000000000000000000000100010010000000000000000000000F0010000010683700520171121000101 00000000000000000000000000000000000000000000000000000000000000000000000000000000000000000000000000000000000000000N 00000000000NCONT   00    00000000000          00000000000000000000000000000000000000000000 000000000000000A000000000000000000000000000000000000000000000 000000000000000000000000000000000000000     00000000                                                                                                                        000000000000000000
F0010000010683800001000000091780800011050500000000000000000201711210002001ITALO RENE HERAZO CARCAMO /CENTRAL DE TORNILLOS   D000000002580000000000000000000000100010010000000000000000000000F0010000010683800120171121000101 00000000000000000000000000000000000000000000000000000000000000000000000000000000000000000000000000000000000000000N 00000000000NCONT   00    00000000000          00000000000000000000000000000000000000000000 000000000000000A000000000000000000000000000000000000000000000 000000000000000000000000000000000000000     00000000                                                                                                                        000000000000000000
F0010000010683800002000000091780800041450500000000000000000201711210002001ITALO RENE HERAZO CARCAMO /CENTRAL DE TORNILLOS   C000000002080000000000000000000000100010010000000000000000000000F0010000010683800220171121000101 00000000000000000000000000000000000000000000000000000000000000000000000000000000000000000000000000000000000000000N 00000000000NCONT   00    00000000000          00000000000000000000000000000000000000000000 000000000000000A000000000000000000000000000000000000000000000 000000000000000000000000000000000000000     00000000                                                                                                                        000000000000000000
F0010000010683800003000000091780800042505000000000000000000201711210002001ITALO RENE HERAZO CARCAMO /CENTRAL DE TORNILLOS   C000000000500000000000000000000000100010010000000000000000000000F0010000010683800320171121000101 00000000000000000000000000000000000000000000000000000000000000000000000000000000000000000000000000000000000000000N 00000000000NCONT   00    00000000000          00000000000000000000000000000000000000000000 000000000000000A000000000000000000000000000000000000000000000 000000000000000000000000000000000000000     00000000                                                                                                                        000000000000000000
F0010000010683800004000000091780800023658300000000000000000201711210002001ITALO RENE HERAZO CARCAMO /CENTRAL DE TORNILLOS   C000000000000000000000000000000000100010010000000000000000000000F0010000010683800420171121000101 00000000000000000000000000000000000000000000000000000000000000000000000000000000000000000000000000000000000000000N 00000000000NCONT   00    00000000000          00000000000000000000000000000000000000000000 000000000000000A000000000000000000000000000000000000000000000 000000000000000000000000000000000000000     00000000                                                                                                                        000000000000000000
F0010000010683800005000000091780800013552100000000000000000201711210002001ITALO RENE HERAZO CARCAMO /CENTRAL DE TORNILLOS   D000000000000000000000000000000000100010010000000000000000000000F0010000010683800520171121000101 00000000000000000000000000000000000000000000000000000000000000000000000000000000000000000000000000000000000000000N 00000000000NCONT   00    00000000000          00000000000000000000000000000000000000000000 000000000000000A000000000000000000000000000000000000000000000 000000000000000000000000000000000000000     00000000                                                                                                                        000000000000000000
F0010000010683900001000000869953600011050500000000000000000201711210002001MANUIEL POTES GUTIERREZ                           D000000003900000000000000000000000100010010000000000000000000000F0010000010683900120171121000101 00000000000000000000000000000000000000000000000000000000000000000000000000000000000000000000000000000000000000000N 00000000000NCONT   00    00000000000          00000000000000000000000000000000000000000000 000000000000000A000000000000000000000000000000000000000000000 000000000000000000000000000000000000000     00000000                                                                                                                        000000000000000000
F0010000010683900002000000869953600041450500000000000000000201711210002001MANUIEL POTES GUTIERREZ                           C000000003500000000000000000000000100010010000000000000000000000F0010000010683900220171121000101 00000000000000000000000000000000000000000000000000000000000000000000000000000000000000000000000000000000000000000N 00000000000NCONT   00    00000000000          00000000000000000000000000000000000000000000 000000000000000A000000000000000000000000000000000000000000000 000000000000000000000000000000000000000     00000000                                                                                                                        000000000000000000
F0010000010683900003000000869953600042505000000000000000000201711210002001MANUIEL POTES GUTIERREZ                           C000000000400000000000000000000000100010010000000000000000000000F0010000010683900320171121000101 00000000000000000000000000000000000000000000000000000000000000000000000000000000000000000000000000000000000000000N 00000000000NCONT   00    00000000000          00000000000000000000000000000000000000000000 000000000000000A000000000000000000000000000000000000000000000 000000000000000000000000000000000000000     00000000                                                                                                                        000000000000000000
F0010000010683900004000000869953600023658300000000000000000201711210002001MANUIEL POTES GUTIERREZ                           C000000000000000000000000000000000100010010000000000000000000000F0010000010683900420171121000101 00000000000000000000000000000000000000000000000000000000000000000000000000000000000000000000000000000000000000000N 00000000000NCONT   00    00000000000          00000000000000000000000000000000000000000000 000000000000000A000000000000000000000000000000000000000000000 000000000000000000000000000000000000000     00000000                                                                                                                        000000000000000000
F0010000010683900005000000869953600013552100000000000000000201711210002001MANUIEL POTES GUTIERREZ                           D000000000000000000000000000000000100010010000000000000000000000F0010000010683900520171121000101 00000000000000000000000000000000000000000000000000000000000000000000000000000000000000000000000000000000000000000N 00000000000NCONT   00    00000000000          00000000000000000000000000000000000000000000 000000000000000A000000000000000000000000000000000000000000000 000000000000000000000000000000000000000     00000000                                                                                                                        000000000000000000
F0010000010684000001000000091780800011050500000000000000000201711210002001ITALO RENE HERAZO CARCAMO /CENTRAL DE TORNILLOS   D000000004790000000000000000000000100010010000000000000000000000F0010000010684000120171121000101 00000000000000000000000000000000000000000000000000000000000000000000000000000000000000000000000000000000000000000N 00000000000NCONT   00    00000000000          00000000000000000000000000000000000000000000 000000000000000A000000000000000000000000000000000000000000000 000000000000000000000000000000000000000     00000000                                                                                                                        000000000000000000
F0010000010684000002000000091780800041450500000000000000000201711210002001ITALO RENE HERAZO CARCAMO /CENTRAL DE TORNILLOS   C000000004160000000000000000000000100010010000000000000000000000F0010000010684000220171121000101 00000000000000000000000000000000000000000000000000000000000000000000000000000000000000000000000000000000000000000N 00000000000NCONT   00    00000000000          00000000000000000000000000000000000000000000 000000000000000A000000000000000000000000000000000000000000000 000000000000000000000000000000000000000     00000000                                                                                                                        000000000000000000
F0010000010684000003000000091780800042505000000000000000000201711210002001ITALO RENE HERAZO CARCAMO /CENTRAL DE TORNILLOS   C000000000630000000000000000000000100010010000000000000000000000F0010000010684000320171121000101 00000000000000000000000000000000000000000000000000000000000000000000000000000000000000000000000000000000000000000N 00000000000NCONT   00    00000000000          00000000000000000000000000000000000000000000 000000000000000A000000000000000000000000000000000000000000000 000000000000000000000000000000000000000     00000000                                                                                                                        000000000000000000
F0010000010684000004000000091780800023658300000000000000000201711210002001ITALO RENE HERAZO CARCAMO /CENTRAL DE TORNILLOS   C000000000000000000000000000000000100010010000000000000000000000F0010000010684000420171121000101 00000000000000000000000000000000000000000000000000000000000000000000000000000000000000000000000000000000000000000N 00000000000NCONT   00    00000000000          00000000000000000000000000000000000000000000 000000000000000A000000000000000000000000000000000000000000000 000000000000000000000000000000000000000     00000000                                                                                                                        000000000000000000
F0010000010684000005000000091780800013552100000000000000000201711210002001ITALO RENE HERAZO CARCAMO /CENTRAL DE TORNILLOS   D000000000000000000000000000000000100010010000000000000000000000F0010000010684000520171121000101 00000000000000000000000000000000000000000000000000000000000000000000000000000000000000000000000000000000000000000N 00000000000NCONT   00    00000000000          00000000000000000000000000000000000000000000 000000000000000A000000000000000000000000000000000000000000000 000000000000000000000000000000000000000     00000000                                                                                                                        000000000000000000
F0010000010684100001000007229328500011050500000000000000000201711210002001PV ELECTRIC   DEL CARIBE                          D000000012072000000000000000000000100010010000000000000000000000F0010000010684100120171121000101 00000000000000000000000000000000000000000000000000000000000000000000000000000000000000000000000000000000000000000N 00000000000NCONT   00    00000000000          00000000000000000000000000000000000000000000 000000000000000A000000000000000000000000000000000000000000000 000000000000000000000000000000000000000     00000000                                                                                                                        000000000000000000
F0010000010684100002000007229328500041450500000000000000000201711210002001PV ELECTRIC   DEL CARIBE                          C000000011220000000000000000000000100010010000000000000000000000F0010000010684100220171121000101 00000000000000000000000000000000000000000000000000000000000000000000000000000000000000000000000000000000000000000N 00000000000NCONT   00    00000000000          00000000000000000000000000000000000000000000 000000000000000A000000000000000000000000000000000000000000000 000000000000000000000000000000000000000     00000000                                                                                                                        000000000000000000
F0010000010684100003000007229328500042505000000000000000000201711210002001PV ELECTRIC   DEL CARIBE                          C000000000852000000000000000000000100010010000000000000000000000F0010000010684100320171121000101 00000000000000000000000000000000000000000000000000000000000000000000000000000000000000000000000000000000000000000N 00000000000NCONT   00    00000000000          00000000000000000000000000000000000000000000 000000000000000A000000000000000000000000000000000000000000000 000000000000000000000000000000000000000     00000000                                                                                                                        000000000000000000
F0010000010684100004000007229328500023658300000000000000000201711210002001PV ELECTRIC   DEL CARIBE                          C000000000000000000000000000000000100010010000000000000000000000F0010000010684100420171121000101 00000000000000000000000000000000000000000000000000000000000000000000000000000000000000000000000000000000000000000N 00000000000NCONT   00    00000000000          00000000000000000000000000000000000000000000 000000000000000A000000000000000000000000000000000000000000000 000000000000000000000000000000000000000     00000000                                                                                                                        000000000000000000
F0010000010684100005000007229328500013552100000000000000000201711210002001PV ELECTRIC   DEL CARIBE                          D000000000000000000000000000000000100010010000000000000000000000F0010000010684100520171121000101 00000000000000000000000000000000000000000000000000000000000000000000000000000000000000000000000000000000000000000N 00000000000NCONT   00    00000000000          00000000000000000000000000000000000000000000 000000000000000A000000000000000000000000000000000000000000000 000000000000000000000000000000000000000     00000000                                                                                                                        000000000000000000
F0010000010684200001000004175790100011050500000000000000000201711210002001ROSIRIS FERIA HOYOS  (COSM. SHILLER)              D000000003800000000000000000000000100010010000000000000000000000F0010000010684200120171121000101 00000000000000000000000000000000000000000000000000000000000000000000000000000000000000000000000000000000000000000N 00000000000NCONT   00    00000000000          00000000000000000000000000000000000000000000 000000000000000A000000000000000000000000000000000000000000000 000000000000000000000000000000000000000     00000000                                                                                                                        000000000000000000
F0010000010684200002000004175790100041450500000000000000000201711210002001ROSIRIS FERIA HOYOS  (COSM. SHILLER)              C000000002400000000000000000000000100010010000000000000000000000F0010000010684200220171121000101 00000000000000000000000000000000000000000000000000000000000000000000000000000000000000000000000000000000000000000N 00000000000NCONT   00    00000000000          00000000000000000000000000000000000000000000 000000000000000A000000000000000000000000000000000000000000000 000000000000000000000000000000000000000     00000000                                                                                                                        000000000000000000
F0010000010684200003000004175790100042505000000000000000000201711210002001ROSIRIS FERIA HOYOS  (COSM. SHILLER)              C000000001400000000000000000000000100010010000000000000000000000F0010000010684200320171121000101 00000000000000000000000000000000000000000000000000000000000000000000000000000000000000000000000000000000000000000N 00000000000NCONT   00    00000000000          00000000000000000000000000000000000000000000 000000000000000A000000000000000000000000000000000000000000000 000000000000000000000000000000000000000     00000000                                                                                                                        000000000000000000
F0010000010684200004000004175790100023658300000000000000000201711210002001ROSIRIS FERIA HOYOS  (COSM. SHILLER)              C000000000000000000000000000000000100010010000000000000000000000F0010000010684200420171121000101 00000000000000000000000000000000000000000000000000000000000000000000000000000000000000000000000000000000000000000N 00000000000NCONT   00    00000000000          00000000000000000000000000000000000000000000 000000000000000A000000000000000000000000000000000000000000000 000000000000000000000000000000000000000     00000000                                                                                                                        000000000000000000
F0010000010684200005000004175790100013552100000000000000000201711210002001ROSIRIS FERIA HOYOS  (COSM. SHILLER)              D000000000000000000000000000000000100010010000000000000000000000F0010000010684200520171121000101 00000000000000000000000000000000000000000000000000000000000000000000000000000000000000000000000000000000000000000N 00000000000NCONT   00    00000000000          00000000000000000000000000000000000000000000 000000000000000A000000000000000000000000000000000000000000000 000000000000000000000000000000000000000     00000000                                                                                                                        000000000000000000
F0010000010684300001000090034602400011050500000000000000000201711210002001PRODUCTOS NACIONALES PARAFINICOS LA CUSTODIA S.A.SD000000001150000000000000000000000100010010000000000000000000000F0010000010684300120171121000101 00000000000000000000000000000000000000000000000000000000000000000000000000000000000000000000000000000000000000000N 00000000000NCONT   00    00000000000          00000000000000000000000000000000000000000000 000000000000000A000000000000000000000000000000000000000000000 000000000000000000000000000000000000000     00000000                                                                                                                        000000000000000000
F0010000010684300002000090034602400041450500000000000000000201711210002001PRODUCTOS NACIONALES PARAFINICOS LA CUSTODIA S.A.SC000000001050000000000000000000000100010010000000000000000000000F0010000010684300220171121000101 00000000000000000000000000000000000000000000000000000000000000000000000000000000000000000000000000000000000000000N 00000000000NCONT   00    00000000000          00000000000000000000000000000000000000000000 000000000000000A000000000000000000000000000000000000000000000 000000000000000000000000000000000000000     00000000                                                                                                                        000000000000000000
F0010000010684300003000090034602400042505000000000000000000201711210002001PRODUCTOS NACIONALES PARAFINICOS LA CUSTODIA S.A.SC000000000100000000000000000000000100010010000000000000000000000F0010000010684300320171121000101 00000000000000000000000000000000000000000000000000000000000000000000000000000000000000000000000000000000000000000N 00000000000NCONT   00    00000000000          00000000000000000000000000000000000000000000 000000000000000A000000000000000000000000000000000000000000000 000000000000000000000000000000000000000     00000000                                                                                                                        000000000000000000
F0010000010684300004000090034602400023658300000000000000000201711210002001PRODUCTOS NACIONALES PARAFINICOS LA CUSTODIA S.A.SC000000000000000000000000000000000100010010000000000000000000000F0010000010684300420171121000101 00000000000000000000000000000000000000000000000000000000000000000000000000000000000000000000000000000000000000000N 00000000000NCONT   00    00000000000          00000000000000000000000000000000000000000000 000000000000000A000000000000000000000000000000000000000000000 000000000000000000000000000000000000000     00000000                                                                                                                        000000000000000000
F0010000010684300005000090034602400013552100000000000000000201711210002001PRODUCTOS NACIONALES PARAFINICOS LA CUSTODIA S.A.SD000000000000000000000000000000000100010010000000000000000000000F0010000010684300520171121000101 00000000000000000000000000000000000000000000000000000000000000000000000000000000000000000000000000000000000000000N 00000000000NCONT   00    00000000000          00000000000000000000000000000000000000000000 000000000000000A000000000000000000000000000000000000000000000 000000000000000000000000000000000000000     00000000                                                                                                                        000000000000000000
F0010000010684400001000003269375300011050500000000000000000201711210002001ROSALY SANCHEZ DUQUE                              D000000002300000000000000000000000100010010000000000000000000000F0010000010684400120171121000101 00000000000000000000000000000000000000000000000000000000000000000000000000000000000000000000000000000000000000000N 00000000000NCONT   00    00000000000          00000000000000000000000000000000000000000000 000000000000000A000000000000000000000000000000000000000000000 000000000000000000000000000000000000000     00000000                                                                                                                        000000000000000000
F0010000010684400002000003269375300041450500000000000000000201711210002001ROSALY SANCHEZ DUQUE                              C000000002200000000000000000000000100010010000000000000000000000F0010000010684400220171121000101 00000000000000000000000000000000000000000000000000000000000000000000000000000000000000000000000000000000000000000N 00000000000NCONT   00    00000000000          00000000000000000000000000000000000000000000 000000000000000A000000000000000000000000000000000000000000000 000000000000000000000000000000000000000     00000000                                                                                                                        000000000000000000
F0010000010684400003000003269375300042505000000000000000000201711210002001ROSALY SANCHEZ DUQUE                              C000000000100000000000000000000000100010010000000000000000000000F0010000010684400320171121000101 00000000000000000000000000000000000000000000000000000000000000000000000000000000000000000000000000000000000000000N 00000000000NCONT   00    00000000000          00000000000000000000000000000000000000000000 000000000000000A000000000000000000000000000000000000000000000 000000000000000000000000000000000000000     00000000                                                                                                                        000000000000000000
F0010000010684400004000003269375300023658300000000000000000201711210002001ROSALY SANCHEZ DUQUE                              C000000000000000000000000000000000100010010000000000000000000000F0010000010684400420171121000101 00000000000000000000000000000000000000000000000000000000000000000000000000000000000000000000000000000000000000000N 00000000000NCONT   00    00000000000          00000000000000000000000000000000000000000000 000000000000000A000000000000000000000000000000000000000000000 000000000000000000000000000000000000000     00000000                                                                                                                        000000000000000000
F0010000010684400005000003269375300013552100000000000000000201711210002001ROSALY SANCHEZ DUQUE                              D000000000000000000000000000000000100010010000000000000000000000F0010000010684400520171121000101 00000000000000000000000000000000000000000000000000000000000000000000000000000000000000000000000000000000000000000N 00000000000NCONT   00    00000000000          00000000000000000000000000000000000000000000 000000000000000A000000000000000000000000000000000000000000000 000000000000000000000000000000000000000     00000000                                                                                                                        000000000000000000
F0010000010684500001000090034602400011050500000000000000000201711210002001PRODUCTOS NACIONALES PARAFINICOS LA CUSTODIA S.A.SD000000001150000000000000000000000100010010000000000000000000000F0010000010684500120171121000101 00000000000000000000000000000000000000000000000000000000000000000000000000000000000000000000000000000000000000000N 00000000000NCONT   00    00000000000          00000000000000000000000000000000000000000000 000000000000000A000000000000000000000000000000000000000000000 000000000000000000000000000000000000000     00000000                                                                                                                        000000000000000000
F0010000010684500002000090034602400041450500000000000000000201711210002001PRODUCTOS NACIONALES PARAFINICOS LA CUSTODIA S.A.SC000000001050000000000000000000000100010010000000000000000000000F0010000010684500220171121000101 00000000000000000000000000000000000000000000000000000000000000000000000000000000000000000000000000000000000000000N 00000000000NCONT   00    00000000000          00000000000000000000000000000000000000000000 000000000000000A000000000000000000000000000000000000000000000 000000000000000000000000000000000000000     00000000                                                                                                                        000000000000000000
F0010000010684500003000090034602400042505000000000000000000201711210002001PRODUCTOS NACIONALES PARAFINICOS LA CUSTODIA S.A.SC000000000100000000000000000000000100010010000000000000000000000F0010000010684500320171121000101 00000000000000000000000000000000000000000000000000000000000000000000000000000000000000000000000000000000000000000N 00000000000NCONT   00    00000000000          00000000000000000000000000000000000000000000 000000000000000A000000000000000000000000000000000000000000000 000000000000000000000000000000000000000     00000000                                                                                                                        000000000000000000
F0010000010684500004000090034602400023658300000000000000000201711210002001PRODUCTOS NACIONALES PARAFINICOS LA CUSTODIA S.A.SC000000000000000000000000000000000100010010000000000000000000000F0010000010684500420171121000101 00000000000000000000000000000000000000000000000000000000000000000000000000000000000000000000000000000000000000000N 00000000000NCONT   00    00000000000          00000000000000000000000000000000000000000000 000000000000000A000000000000000000000000000000000000000000000 000000000000000000000000000000000000000     00000000                                                                                                                        000000000000000000
F0010000010684500005000090034602400013552100000000000000000201711210002001PRODUCTOS NACIONALES PARAFINICOS LA CUSTODIA S.A.SD000000000000000000000000000000000100010010000000000000000000000F0010000010684500520171121000101 00000000000000000000000000000000000000000000000000000000000000000000000000000000000000000000000000000000000000000N 00000000000NCONT   00    00000000000          00000000000000000000000000000000000000000000 000000000000000A000000000000000000000000000000000000000000000 000000000000000000000000000000000000000     00000000                                                                                                                        000000000000000000
F0010000010684600001000090034602400011050500000000000000000201711210002001PRODUCTOS NACIONALES PARAFINICOS LA CUSTODIA S.A.SD000000001150000000000000000000000100010010000000000000000000000F0010000010684600120171121000101 00000000000000000000000000000000000000000000000000000000000000000000000000000000000000000000000000000000000000000N 00000000000NCONT   00    00000000000          00000000000000000000000000000000000000000000 000000000000000A000000000000000000000000000000000000000000000 000000000000000000000000000000000000000     00000000                                                                                                                        000000000000000000
F0010000010684600002000090034602400041450500000000000000000201711210002001PRODUCTOS NACIONALES PARAFINICOS LA CUSTODIA S.A.SC000000001050000000000000000000000100010010000000000000000000000F0010000010684600220171121000101 00000000000000000000000000000000000000000000000000000000000000000000000000000000000000000000000000000000000000000N 00000000000NCONT   00    00000000000          00000000000000000000000000000000000000000000 000000000000000A000000000000000000000000000000000000000000000 000000000000000000000000000000000000000     00000000                                                                                                                        000000000000000000
F0010000010684600003000090034602400042505000000000000000000201711210002001PRODUCTOS NACIONALES PARAFINICOS LA CUSTODIA S.A.SC000000000100000000000000000000000100010010000000000000000000000F0010000010684600320171121000101 00000000000000000000000000000000000000000000000000000000000000000000000000000000000000000000000000000000000000000N 00000000000NCONT   00    00000000000          00000000000000000000000000000000000000000000 000000000000000A000000000000000000000000000000000000000000000 000000000000000000000000000000000000000     00000000                                                                                                                        000000000000000000
F0010000010684600004000090034602400023658300000000000000000201711210002001PRODUCTOS NACIONALES PARAFINICOS LA CUSTODIA S.A.SC000000000000000000000000000000000100010010000000000000000000000F0010000010684600420171121000101 00000000000000000000000000000000000000000000000000000000000000000000000000000000000000000000000000000000000000000N 00000000000NCONT   00    00000000000          00000000000000000000000000000000000000000000 000000000000000A000000000000000000000000000000000000000000000 000000000000000000000000000000000000000     00000000                                                                                                                        000000000000000000
F0010000010684600005000090034602400013552100000000000000000201711210002001PRODUCTOS NACIONALES PARAFINICOS LA CUSTODIA S.A.SD000000000000000000000000000000000100010010000000000000000000000F0010000010684600520171121000101 00000000000000000000000000000000000000000000000000000000000000000000000000000000000000000000000000000000000000000N 00000000000NCONT   00    00000000000          00000000000000000000000000000000000000000000 000000000000000A000000000000000000000000000000000000000000000 000000000000000000000000000000000000000     00000000                                                                                                                        000000000000000000
F0010000010684700001000090050144800011050500000000000000000201711210002001PLASTICOS JR ASOCIADOS SAS                        D000000058900000000000000000000000100010010000000000000000000000F0010000010684700120171121000101 00000000000000000000000000000000000000000000000000000000000000000000000000000000000000000000000000000000000000000N 00000000000NCONT   00    00000000000          00000000000000000000000000000000000000000000 000000000000000A000000000000000000000000000000000000000000000 000000000000000000000000000000000000000     00000000                                                                                                                        000000000000000000
F0010000010684700002000090050144800041450500000000000000000201711210002001PLASTICOS JR ASOCIADOS SAS                        C000000050700000000000000000000000100010010000000000000000000000F0010000010684700220171121000101 00000000000000000000000000000000000000000000000000000000000000000000000000000000000000000000000000000000000000000N 00000000000NCONT   00    00000000000          00000000000000000000000000000000000000000000 000000000000000A000000000000000000000000000000000000000000000 000000000000000000000000000000000000000     00000000                                                                                                                        000000000000000000
F0010000010684700003000090050144800042505000000000000000000201711210002001PLASTICOS JR ASOCIADOS SAS                        C000000008200000000000000000000000100010010000000000000000000000F0010000010684700320171121000101 00000000000000000000000000000000000000000000000000000000000000000000000000000000000000000000000000000000000000000N 00000000000NCONT   00    00000000000          00000000000000000000000000000000000000000000 000000000000000A000000000000000000000000000000000000000000000 000000000000000000000000000000000000000     00000000                                                                                                                        000000000000000000
F0010000010684700004000090050144800023658300000000000000000201711210002001PLASTICOS JR ASOCIADOS SAS                        C000000000000000000000000000000000100010010000000000000000000000F0010000010684700420171121000101 00000000000000000000000000000000000000000000000000000000000000000000000000000000000000000000000000000000000000000N 00000000000NCONT   00    00000000000          00000000000000000000000000000000000000000000 000000000000000A000000000000000000000000000000000000000000000 000000000000000000000000000000000000000     00000000                                                                                                                        000000000000000000
F0010000010684700005000090050144800013552100000000000000000201711210002001PLASTICOS JR ASOCIADOS SAS                        D000000000000000000000000000000000100010010000000000000000000000F0010000010684700520171121000101 00000000000000000000000000000000000000000000000000000000000000000000000000000000000000000000000000000000000000000N 00000000000NCONT   00    00000000000          00000000000000000000000000000000000000000000 000000000000000A000000000000000000000000000000000000000000000 000000000000000000000000000000000000000     00000000                                                                                                                        000000000000000000
F0010000010684800001000086003979400011050500000000000000000201711210002001CALYPSO BARRANQUILLA LTDA                         D000000004287800000000000000000000100010010000000000000000000000F0010000010684800120171121000101 00000000000000000000000000000000000000000000000000000000000000000000000000000000000000000000000000000000000000000N 00000000000NCONT   00    00000000000          00000000000000000000000000000000000000000000 000000000000000A000000000000000000000000000000000000000000000 000000000000000000000000000000000000000     00000000                                                                                                                        000000000000000000
F0010000010684800002000086003979400041450500000000000000000201711210002001CALYPSO BARRANQUILLA LTDA                         C000000003900000000000000000000000100010010000000000000000000000F0010000010684800220171121000101 00000000000000000000000000000000000000000000000000000000000000000000000000000000000000000000000000000000000000000N 00000000000NCONT   00    00000000000          00000000000000000000000000000000000000000000 000000000000000A000000000000000000000000000000000000000000000 000000000000000000000000000000000000000     00000000                                                                                                                        000000000000000000
