F0010000007488400001000080200962900013050500000000000000000201508180002001ACERO & MALLAS S.A.S.                             D000000022340000000000000000000000100010010000000000000000000000F0010000007488400120150818000101 00000000000000000000000000000000000000000000000000000000000000000000000000000000000000000000000000000000000000000N 00000000000NCONT   00    00000000000          00000000000000000000000000000000000000000000 000000000000000A000000000000000000000000000000000000000000000 000000000000000000000000000000000000000     00000000                                                                                                                        000000000000000000
F0010000007488400002000080200962900041450500000000000000000201508180002001ACERO & MALLAS S.A.S.                             C000000021780000000000000000000000100010010000000000000000000000F0010000007488400220150818000101 00000000000000000000000000000000000000000000000000000000000000000000000000000000000000000000000000000000000000000N 00000000000NCONT   00    00000000000          00000000000000000000000000000000000000000000 000000000000000A000000000000000000000000000000000000000000000 000000000000000000000000000000000000000     00000000                                                                                                                        000000000000000000
F0010000007488400003000080200962900042505000000000000000000201508180002001ACERO & MALLAS S.A.S.                             C000000000560000000000000000000000100010010000000000000000000000F0010000007488400320150818000101 00000000000000000000000000000000000000000000000000000000000000000000000000000000000000000000000000000000000000000N 00000000000NCONT   00    00000000000          00000000000000000000000000000000000000000000 000000000000000A000000000000000000000000000000000000000000000 000000000000000000000000000000000000000     00000000                                                                                                                        000000000000000000
F0010000007488400004000080200962900023658300000000000000000201508180002001ACERO & MALLAS S.A.S.                             C000000000174200000000000000000000100010010000000000000000000000F0010000007488400420150818000101 00000000000000000000000000000000000000000000000000000000000000000000000000000000000000000000000000000000000000000N 00000000000NCONT   00    00000000000          00000000000000000000000000000000000000000000 000000000000000A000000000000000000000000000000000000000000000 000000000000000000000000000000000000000     00000000                                                                                                                        000000000000000000
F0010000007488400005000080200962900013552100000000000000000201508180002001ACERO & MALLAS S.A.S.                             D000000000174200000000000000000000100010010000000000000000000000F0010000007488400520150818000101 00000000000000000000000000000000000000000000000000000000000000000000000000000000000000000000000000000000000000000N 00000000000NCONT   00    00000000000          00000000000000000000000000000000000000000000 000000000000000A000000000000000000000000000000000000000000000 000000000000000000000000000000000000000     00000000                                                                                                                        000000000000000000
F0010000007488500001000086000490200013050500000000000000000201508180002001PROV. DE PAPELES ANDINA S.A.                      D000000012417100000000000000000000100010010000000000000000000000F0010000007488500120150818000101 00000000000000000000000000000000000000000000000000000000000000000000000000000000000000000000000000000000000000000N 00000000000NCONT   00    00000000000          00000000000000000000000000000000000000000000 000000000000000A000000000000000000000000000000000000000000000 000000000000000000000000000000000000000     00000000                                                                                                                        000000000000000000
F0010000007488500002000086000490200041450500000000000000000201508180002001PROV. DE PAPELES ANDINA S.A.                      C000000011202400000000000000000000100010010000000000000000000000F0010000007488500220150818000101 00000000000000000000000000000000000000000000000000000000000000000000000000000000000000000000000000000000000000000N 00000000000NCONT   00    00000000000          00000000000000000000000000000000000000000000 000000000000000A000000000000000000000000000000000000000000000 000000000000000000000000000000000000000     00000000                                                                                                                        000000000000000000
F0010000007488500003000086000490200042505000000000000000000201508180002001PROV. DE PAPELES ANDINA S.A.                      C000000001214700000000000000000000100010010000000000000000000000F0010000007488500320150818000101 00000000000000000000000000000000000000000000000000000000000000000000000000000000000000000000000000000000000000000N 00000000000NCONT   00    00000000000          00000000000000000000000000000000000000000000 000000000000000A000000000000000000000000000000000000000000000 000000000000000000000000000000000000000     00000000                                                                                                                        000000000000000000
F0010000007488500004000086000490200023658300000000000000000201508180002001PROV. DE PAPELES ANDINA S.A.                      C000000000089600000000000000000000100010010000000000000000000000F0010000007488500420150818000101 00000000000000000000000000000000000000000000000000000000000000000000000000000000000000000000000000000000000000000N 00000000000NCONT   00    00000000000          00000000000000000000000000000000000000000000 000000000000000A000000000000000000000000000000000000000000000 000000000000000000000000000000000000000     00000000                                                                                                                        000000000000000000
F0010000007488500005000086000490200013552100000000000000000201508180002001PROV. DE PAPELES ANDINA S.A.                      D000000000089600000000000000000000100010010000000000000000000000F0010000007488500520150818000101 00000000000000000000000000000000000000000000000000000000000000000000000000000000000000000000000000000000000000000N 00000000000NCONT   00    00000000000          00000000000000000000000000000000000000000000 000000000000000A000000000000000000000000000000000000000000000 000000000000000000000000000000000000000     00000000                                                                                                                        000000000000000000
F0010000007488600001000080201703900013050500000000000000000201508180002001MUNDIAL CHEMICAL LTDA                             D000000006632000000000000000000000100010010000000000000000000000F0010000007488600120150818000101 00000000000000000000000000000000000000000000000000000000000000000000000000000000000000000000000000000000000000000N 00000000000NCONT   00    00000000000          00000000000000000000000000000000000000000000 000000000000000A000000000000000000000000000000000000000000000 000000000000000000000000000000000000000     00000000                                                                                                                        000000000000000000
F0010000007488600002000080201703900041450500000000000000000201508180002001MUNDIAL CHEMICAL LTDA                             C000000004980000000000000000000000100010010000000000000000000000F0010000007488600220150818000101 00000000000000000000000000000000000000000000000000000000000000000000000000000000000000000000000000000000000000000N 00000000000NCONT   00    00000000000          00000000000000000000000000000000000000000000 000000000000000A000000000000000000000000000000000000000000000 000000000000000000000000000000000000000     00000000                                                                                                                        000000000000000000
F0010000007488600003000080201703900042505000000000000000000201508180002001MUNDIAL CHEMICAL LTDA                             C000000001652000000000000000000000100010010000000000000000000000F0010000007488600320150818000101 00000000000000000000000000000000000000000000000000000000000000000000000000000000000000000000000000000000000000000N 00000000000NCONT   00    00000000000          00000000000000000000000000000000000000000000 000000000000000A000000000000000000000000000000000000000000000 000000000000000000000000000000000000000     00000000                                                                                                                        000000000000000000
F0010000007488600004000080201703900023658300000000000000000201508180002001MUNDIAL CHEMICAL LTDA                             C000000000039800000000000000000000100010010000000000000000000000F0010000007488600420150818000101 00000000000000000000000000000000000000000000000000000000000000000000000000000000000000000000000000000000000000000N 00000000000NCONT   00    00000000000          00000000000000000000000000000000000000000000 000000000000000A000000000000000000000000000000000000000000000 000000000000000000000000000000000000000     00000000                                                                                                                        000000000000000000
F0010000007488600005000080201703900013552100000000000000000201508180002001MUNDIAL CHEMICAL LTDA                             D000000000039800000000000000000000100010010000000000000000000000F0010000007488600520150818000101 00000000000000000000000000000000000000000000000000000000000000000000000000000000000000000000000000000000000000000N 00000000000NCONT   00    00000000000          00000000000000000000000000000000000000000000 000000000000000A000000000000000000000000000000000000000000000 000000000000000000000000000000000000000     00000000                                                                                                                        000000000000000000
F0010000007488700001000089021246300013050500000000000000000201508180002001DISMACOR  S.A.                                    D000000007298900000000000000000000100010010000000000000000000000F0010000007488700120150818000101 00000000000000000000000000000000000000000000000000000000000000000000000000000000000000000000000000000000000000000N 00000000000NCONT   00    00000000000          00000000000000000000000000000000000000000000 000000000000000A000000000000000000000000000000000000000000000 000000000000000000000000000000000000000     00000000                                                                                                                        000000000000000000
F0010000007488700002000089021246300041450500000000000000000201508180002001DISMACOR  S.A.                                    C000000006960000000000000000000000100010010000000000000000000000F0010000007488700220150818000101 00000000000000000000000000000000000000000000000000000000000000000000000000000000000000000000000000000000000000000N 00000000000NCONT   00    00000000000          00000000000000000000000000000000000000000000 000000000000000A000000000000000000000000000000000000000000000 000000000000000000000000000000000000000     00000000                                                                                                                        000000000000000000
F0010000007488700003000089021246300042505000000000000000000201508180002001DISMACOR  S.A.                                    C000000000338900000000000000000000100010010000000000000000000000F0010000007488700320150818000101 00000000000000000000000000000000000000000000000000000000000000000000000000000000000000000000000000000000000000000N 00000000000NCONT   00    00000000000          00000000000000000000000000000000000000000000 000000000000000A000000000000000000000000000000000000000000000 000000000000000000000000000000000000000     00000000                                                                                                                        000000000000000000
F0010000007488700004000089021246300023658300000000000000000201508180002001DISMACOR  S.A.                                    C000000000055700000000000000000000100010010000000000000000000000F0010000007488700420150818000101 00000000000000000000000000000000000000000000000000000000000000000000000000000000000000000000000000000000000000000N 00000000000NCONT   00    00000000000          00000000000000000000000000000000000000000000 000000000000000A000000000000000000000000000000000000000000000 000000000000000000000000000000000000000     00000000                                                                                                                        000000000000000000
F0010000007488700005000089021246300013552100000000000000000201508180002001DISMACOR  S.A.                                    D000000000055700000000000000000000100010010000000000000000000000F0010000007488700520150818000101 00000000000000000000000000000000000000000000000000000000000000000000000000000000000000000000000000000000000000000N 00000000000NCONT   00    00000000000          00000000000000000000000000000000000000000000 000000000000000A000000000000000000000000000000000000000000000 000000000000000000000000000000000000000     00000000                                                                                                                        000000000000000000
F0010000007488800001000000000000000011050500000000000000000201508180002001MATERIALES Y PLASTICOS LA 30                      D000000001000000000000000000000000100010010000000000000000000000F0010000007488800120150818000101 00000000000000000000000000000000000000000000000000000000000000000000000000000000000000000000000000000000000000000N 00000000000NCONT   00    00000000000          00000000000000000000000000000000000000000000 000000000000000A000000000000000000000000000000000000000000000 000000000000000000000000000000000000000     00000000                                                                                                                        000000000000000000
F0010000007488800002000000000000000041450500000000000000000201508180002001MATERIALES Y PLASTICOS LA 30                      C000000000900000000000000000000000100010010000000000000000000000F0010000007488800220150818000101 00000000000000000000000000000000000000000000000000000000000000000000000000000000000000000000000000000000000000000N 00000000000NCONT   00    00000000000          00000000000000000000000000000000000000000000 000000000000000A000000000000000000000000000000000000000000000 000000000000000000000000000000000000000     00000000                                                                                                                        000000000000000000
F0010000007488800003000000000000000042505000000000000000000201508180002001MATERIALES Y PLASTICOS LA 30                      C000000000100000000000000000000000100010010000000000000000000000F0010000007488800320150818000101 00000000000000000000000000000000000000000000000000000000000000000000000000000000000000000000000000000000000000000N 00000000000NCONT   00    00000000000          00000000000000000000000000000000000000000000 000000000000000A000000000000000000000000000000000000000000000 000000000000000000000000000000000000000     00000000                                                                                                                        000000000000000000
F0010000007488800004000000000000000023658300000000000000000201508180002001MATERIALES Y PLASTICOS LA 30                      C000000000007200000000000000000000100010010000000000000000000000F0010000007488800420150818000101 00000000000000000000000000000000000000000000000000000000000000000000000000000000000000000000000000000000000000000N 00000000000NCONT   00    00000000000          00000000000000000000000000000000000000000000 000000000000000A000000000000000000000000000000000000000000000 000000000000000000000000000000000000000     00000000                                                                                                                        000000000000000000
F0010000007488800005000000000000000013552100000000000000000201508180002001MATERIALES Y PLASTICOS LA 30                      D000000000007200000000000000000000100010010000000000000000000000F0010000007488800520150818000101 00000000000000000000000000000000000000000000000000000000000000000000000000000000000000000000000000000000000000000N 00000000000NCONT   00    00000000000          00000000000000000000000000000000000000000000 000000000000000A000000000000000000000000000000000000000000000 000000000000000000000000000000000000000     00000000                                                                                                                        000000000000000000
F0010000007488900001000086053108300011050500000000000000000201508180002001EL PALACIO DEL ALUMINIO                           D000000002400000000000000000000000100010010000000000000000000000F0010000007488900120150818000101 00000000000000000000000000000000000000000000000000000000000000000000000000000000000000000000000000000000000000000N 00000000000NCONT   00    00000000000          00000000000000000000000000000000000000000000 000000000000000A000000000000000000000000000000000000000000000 000000000000000000000000000000000000000     00000000                                                                                                                        000000000000000000
F0010000007488900002000086053108300041450500000000000000000201508180002001EL PALACIO DEL ALUMINIO                           C000000001900000000000000000000000100010010000000000000000000000F0010000007488900220150818000101 00000000000000000000000000000000000000000000000000000000000000000000000000000000000000000000000000000000000000000N 00000000000NCONT   00    00000000000          00000000000000000000000000000000000000000000 000000000000000A000000000000000000000000000000000000000000000 000000000000000000000000000000000000000     00000000                                                                                                                        000000000000000000
F0010000007488900003000086053108300042505000000000000000000201508180002001EL PALACIO DEL ALUMINIO                           C000000000500000000000000000000000100010010000000000000000000000F0010000007488900320150818000101 00000000000000000000000000000000000000000000000000000000000000000000000000000000000000000000000000000000000000000N 00000000000NCONT   00    00000000000          00000000000000000000000000000000000000000000 000000000000000A000000000000000000000000000000000000000000000 000000000000000000000000000000000000000     00000000                                                                                                                        000000000000000000
F0010000007488900004000086053108300023658300000000000000000201508180002001EL PALACIO DEL ALUMINIO                           C000000000015200000000000000000000100010010000000000000000000000F0010000007488900420150818000101 00000000000000000000000000000000000000000000000000000000000000000000000000000000000000000000000000000000000000000N 00000000000NCONT   00    00000000000          00000000000000000000000000000000000000000000 000000000000000A000000000000000000000000000000000000000000000 000000000000000000000000000000000000000     00000000                                                                                                                        000000000000000000
F0010000007488900005000086053108300013552100000000000000000201508180002001EL PALACIO DEL ALUMINIO                           D000000000015200000000000000000000100010010000000000000000000000F0010000007488900520150818000101 00000000000000000000000000000000000000000000000000000000000000000000000000000000000000000000000000000000000000000N 00000000000NCONT   00    00000000000          00000000000000000000000000000000000000000000 000000000000000A000000000000000000000000000000000000000000000 000000000000000000000000000000000000000     00000000                                                                                                                        000000000000000000
F0010000007489000001000003207718300011050500000000000000000201508180002001MARIA GILMA RAMIREZ GARCIA                        D000000009000000000000000000000000100010010000000000000000000000F0010000007489000120150818000101 00000000000000000000000000000000000000000000000000000000000000000000000000000000000000000000000000000000000000000N 00000000000NCONT   00    00000000000          00000000000000000000000000000000000000000000 000000000000000A000000000000000000000000000000000000000000000 000000000000000000000000000000000000000     00000000                                                                                                                        000000000000000000
F0010000007489000002000003207718300041450500000000000000000201508180002001MARIA GILMA RAMIREZ GARCIA                        C000000007500000000000000000000000100010010000000000000000000000F0010000007489000220150818000101 00000000000000000000000000000000000000000000000000000000000000000000000000000000000000000000000000000000000000000N 00000000000NCONT   00    00000000000          00000000000000000000000000000000000000000000 000000000000000A000000000000000000000000000000000000000000000 000000000000000000000000000000000000000     00000000                                                                                                                        000000000000000000
F0010000007489000003000003207718300042505000000000000000000201508180002001MARIA GILMA RAMIREZ GARCIA                        C000000001500000000000000000000000100010010000000000000000000000F0010000007489000320150818000101 00000000000000000000000000000000000000000000000000000000000000000000000000000000000000000000000000000000000000000N 00000000000NCONT   00    00000000000          00000000000000000000000000000000000000000000 000000000000000A000000000000000000000000000000000000000000000 000000000000000000000000000000000000000     00000000                                                                                                                        000000000000000000
F0010000007489000004000003207718300023658300000000000000000201508180002001MARIA GILMA RAMIREZ GARCIA                        C000000000060000000000000000000000100010010000000000000000000000F0010000007489000420150818000101 00000000000000000000000000000000000000000000000000000000000000000000000000000000000000000000000000000000000000000N 00000000000NCONT   00    00000000000          00000000000000000000000000000000000000000000 000000000000000A000000000000000000000000000000000000000000000 000000000000000000000000000000000000000     00000000                                                                                                                        000000000000000000
F0010000007489000005000003207718300013552100000000000000000201508180002001MARIA GILMA RAMIREZ GARCIA                        D000000000060000000000000000000000100010010000000000000000000000F0010000007489000520150818000101 00000000000000000000000000000000000000000000000000000000000000000000000000000000000000000000000000000000000000000N 00000000000NCONT   00    00000000000          00000000000000000000000000000000000000000000 000000000000000A000000000000000000000000000000000000000000000 000000000000000000000000000000000000000     00000000                                                                                                                        000000000000000000
F0010000007489100001000007016511700011050500000000000000000201508180002001YEISON CASTAÑO                                   D000000003000000000000000000000000100010010000000000000000000000F0010000007489100120150818000101 00000000000000000000000000000000000000000000000000000000000000000000000000000000000000000000000000000000000000000N 00000000000NCONT   00    00000000000          00000000000000000000000000000000000000000000 000000000000000A000000000000000000000000000000000000000000000 000000000000000000000000000000000000000     00000000                                                                                                                        000000000000000000
F0010000007489100002000007016511700041450500000000000000000201508180002001YEISON CASTAÑO                                   C000000002900000000000000000000000100010010000000000000000000000F0010000007489100220150818000101 00000000000000000000000000000000000000000000000000000000000000000000000000000000000000000000000000000000000000000N 00000000000NCONT   00    00000000000          00000000000000000000000000000000000000000000 000000000000000A000000000000000000000000000000000000000000000 000000000000000000000000000000000000000     00000000                                                                                                                        000000000000000000
F0010000007489100003000007016511700042505000000000000000000201508180002001YEISON CASTAÑO                                   C000000000100000000000000000000000100010010000000000000000000000F0010000007489100320150818000101 00000000000000000000000000000000000000000000000000000000000000000000000000000000000000000000000000000000000000000N 00000000000NCONT   00    00000000000          00000000000000000000000000000000000000000000 000000000000000A000000000000000000000000000000000000000000000 000000000000000000000000000000000000000     00000000                                                                                                                        000000000000000000
F0010000007489100004000007016511700023658300000000000000000201508180002001YEISON CASTAÑO                                   C000000000023200000000000000000000100010010000000000000000000000F0010000007489100420150818000101 00000000000000000000000000000000000000000000000000000000000000000000000000000000000000000000000000000000000000000N 00000000000NCONT   00    00000000000          00000000000000000000000000000000000000000000 000000000000000A000000000000000000000000000000000000000000000 000000000000000000000000000000000000000     00000000                                                                                                                        000000000000000000
F0010000007489100005000007016511700013552100000000000000000201508180002001YEISON CASTAÑO                                   D000000000023200000000000000000000100010010000000000000000000000F0010000007489100520150818000101 00000000000000000000000000000000000000000000000000000000000000000000000000000000000000000000000000000000000000000N 00000000000NCONT   00    00000000000          00000000000000000000000000000000000000000000 000000000000000A000000000000000000000000000000000000000000000 000000000000000000000000000000000000000     00000000                                                                                                                        000000000000000000
F0010000007489200001000002245670100011050500000000000000000201508180002001YOLANDA  TOBON                                    D000000001500000000000000000000000100010010000000000000000000000F0010000007489200120150818000101 00000000000000000000000000000000000000000000000000000000000000000000000000000000000000000000000000000000000000000N 00000000000NCONT   00    00000000000          00000000000000000000000000000000000000000000 000000000000000A000000000000000000000000000000000000000000000 000000000000000000000000000000000000000     00000000                                                                                                                        000000000000000000
F0010000007489200002000002245670100041450500000000000000000201508180002001YOLANDA  TOBON                                    C000000001200000000000000000000000100010010000000000000000000000F0010000007489200220150818000101 00000000000000000000000000000000000000000000000000000000000000000000000000000000000000000000000000000000000000000N 00000000000NCONT   00    00000000000          00000000000000000000000000000000000000000000 000000000000000A000000000000000000000000000000000000000000000 000000000000000000000000000000000000000     00000000                                                                                                                        000000000000000000
F0010000007489200003000002245670100042505000000000000000000201508180002001YOLANDA  TOBON                                    C000000000300000000000000000000000100010010000000000000000000000F0010000007489200320150818000101 00000000000000000000000000000000000000000000000000000000000000000000000000000000000000000000000000000000000000000N 00000000000NCONT   00    00000000000          00000000000000000000000000000000000000000000 000000000000000A000000000000000000000000000000000000000000000 000000000000000000000000000000000000000     00000000                                                                                                                        000000000000000000
F0010000007489200004000002245670100023658300000000000000000201508180002001YOLANDA  TOBON                                    C000000000009600000000000000000000100010010000000000000000000000F0010000007489200420150818000101 00000000000000000000000000000000000000000000000000000000000000000000000000000000000000000000000000000000000000000N 00000000000NCONT   00    00000000000          00000000000000000000000000000000000000000000 000000000000000A000000000000000000000000000000000000000000000 000000000000000000000000000000000000000     00000000                                                                                                                        000000000000000000
F0010000007489200005000002245670100013552100000000000000000201508180002001YOLANDA  TOBON                                    D000000000009600000000000000000000100010010000000000000000000000F0010000007489200520150818000101 00000000000000000000000000000000000000000000000000000000000000000000000000000000000000000000000000000000000000000N 00000000000NCONT   00    00000000000          00000000000000000000000000000000000000000000 000000000000000A000000000000000000000000000000000000000000000 000000000000000000000000000000000000000     00000000                                                                                                                        000000000000000000
F0010000007489300001000001022529300011050500000000000000000201508180002001ALBERTO ALVAREZ ISAZA                             D000000002460000000000000000000000100010010000000000000000000000F0010000007489300120150818000101 00000000000000000000000000000000000000000000000000000000000000000000000000000000000000000000000000000000000000000N 00000000000NCONT   00    00000000000          00000000000000000000000000000000000000000000 000000000000000A000000000000000000000000000000000000000000000 000000000000000000000000000000000000000     00000000                                                                                                                        000000000000000000
F0010000007489300002000001022529300041450500000000000000000201508180002001ALBERTO ALVAREZ ISAZA                             C000000002460000000000000000000000100010010000000000000000000000F0010000007489300220150818000101 00000000000000000000000000000000000000000000000000000000000000000000000000000000000000000000000000000000000000000N 00000000000NCONT   00    00000000000          00000000000000000000000000000000000000000000 000000000000000A000000000000000000000000000000000000000000000 000000000000000000000000000000000000000     00000000                                                                                                                        000000000000000000
F0010000007489300003000001022529300042505000000000000000000201508180002001ALBERTO ALVAREZ ISAZA                             C000000000000000000000000000000000100010010000000000000000000000F0010000007489300320150818000101 00000000000000000000000000000000000000000000000000000000000000000000000000000000000000000000000000000000000000000N 00000000000NCONT   00    00000000000          00000000000000000000000000000000000000000000 000000000000000A000000000000000000000000000000000000000000000 000000000000000000000000000000000000000     00000000                                                                                                                        000000000000000000
F0010000007489300004000001022529300023658300000000000000000201508180002001ALBERTO ALVAREZ ISAZA                             C000000000019700000000000000000000100010010000000000000000000000F0010000007489300420150818000101 00000000000000000000000000000000000000000000000000000000000000000000000000000000000000000000000000000000000000000N 00000000000NCONT   00    00000000000          00000000000000000000000000000000000000000000 000000000000000A000000000000000000000000000000000000000000000 000000000000000000000000000000000000000     00000000                                                                                                                        000000000000000000
F0010000007489300005000001022529300013552100000000000000000201508180002001ALBERTO ALVAREZ ISAZA                             D000000000019700000000000000000000100010010000000000000000000000F0010000007489300520150818000101 00000000000000000000000000000000000000000000000000000000000000000000000000000000000000000000000000000000000000000N 00000000000NCONT   00    00000000000          00000000000000000000000000000000000000000000 000000000000000A000000000000000000000000000000000000000000000 000000000000000000000000000000000000000     00000000                                                                                                                        000000000000000000
F0010000007489400001000001022529300011050500000000000000000201508180002001ALBERTO ALVAREZ ISAZA                             D000000001640000000000000000000000100010010000000000000000000000F0010000007489400120150818000101 00000000000000000000000000000000000000000000000000000000000000000000000000000000000000000000000000000000000000000N 00000000000NCONT   00    00000000000          00000000000000000000000000000000000000000000 000000000000000A000000000000000000000000000000000000000000000 000000000000000000000000000000000000000     00000000                                                                                                                        000000000000000000
F0010000007489400002000001022529300041450500000000000000000201508180002001ALBERTO ALVAREZ ISAZA                             C000000001640000000000000000000000100010010000000000000000000000F0010000007489400220150818000101 00000000000000000000000000000000000000000000000000000000000000000000000000000000000000000000000000000000000000000N 00000000000NCONT   00    00000000000          00000000000000000000000000000000000000000000 000000000000000A000000000000000000000000000000000000000000000 000000000000000000000000000000000000000     00000000                                                                                                                        000000000000000000
F0010000007489400003000001022529300042505000000000000000000201508180002001ALBERTO ALVAREZ ISAZA                             C000000000000000000000000000000000100010010000000000000000000000F0010000007489400320150818000101 00000000000000000000000000000000000000000000000000000000000000000000000000000000000000000000000000000000000000000N 00000000000NCONT   00    00000000000          00000000000000000000000000000000000000000000 000000000000000A000000000000000000000000000000000000000000000 000000000000000000000000000000000000000     00000000                                                                                                                        000000000000000000
F0010000007489400004000001022529300023658300000000000000000201508180002001ALBERTO ALVAREZ ISAZA                             C000000000013100000000000000000000100010010000000000000000000000F0010000007489400420150818000101 00000000000000000000000000000000000000000000000000000000000000000000000000000000000000000000000000000000000000000N 00000000000NCONT   00    00000000000          00000000000000000000000000000000000000000000 000000000000000A000000000000000000000000000000000000000000000 000000000000000000000000000000000000000     00000000                                                                                                                        000000000000000000
F0010000007489400005000001022529300013552100000000000000000201508180002001ALBERTO ALVAREZ ISAZA                             D000000000013100000000000000000000100010010000000000000000000000F0010000007489400520150818000101 00000000000000000000000000000000000000000000000000000000000000000000000000000000000000000000000000000000000000000N 00000000000NCONT   00    00000000000          00000000000000000000000000000000000000000000 000000000000000A000000000000000000000000000000000000000000000 000000000000000000000000000000000000000     00000000                                                                                                                        000000000000000000
F0010000007489500001000001022529300011050500000000000000000201508180002001ALBERTO ALVAREZ ISAZA                             D000000000700000000000000000000000100010010000000000000000000000F0010000007489500120150818000101 00000000000000000000000000000000000000000000000000000000000000000000000000000000000000000000000000000000000000000N 00000000000NCONT   00    00000000000          00000000000000000000000000000000000000000000 000000000000000A000000000000000000000000000000000000000000000 000000000000000000000000000000000000000     00000000                                                                                                                        000000000000000000
F0010000007489500002000001022529300041450500000000000000000201508180002001ALBERTO ALVAREZ ISAZA                             C000000000700000000000000000000000100010010000000000000000000000F0010000007489500220150818000101 00000000000000000000000000000000000000000000000000000000000000000000000000000000000000000000000000000000000000000N 00000000000NCONT   00    00000000000          00000000000000000000000000000000000000000000 000000000000000A000000000000000000000000000000000000000000000 000000000000000000000000000000000000000     00000000                                                                                                                        000000000000000000
F0010000007489500003000001022529300042505000000000000000000201508180002001ALBERTO ALVAREZ ISAZA                             C000000000000000000000000000000000100010010000000000000000000000F0010000007489500320150818000101 00000000000000000000000000000000000000000000000000000000000000000000000000000000000000000000000000000000000000000N 00000000000NCONT   00    00000000000          00000000000000000000000000000000000000000000 000000000000000A000000000000000000000000000000000000000000000 000000000000000000000000000000000000000     00000000                                                                                                                        000000000000000000
F0010000007489500004000001022529300023658300000000000000000201508180002001ALBERTO ALVAREZ ISAZA                             C000000000005600000000000000000000100010010000000000000000000000F0010000007489500420150818000101 00000000000000000000000000000000000000000000000000000000000000000000000000000000000000000000000000000000000000000N 00000000000NCONT   00    00000000000          00000000000000000000000000000000000000000000 000000000000000A000000000000000000000000000000000000000000000 000000000000000000000000000000000000000     00000000                                                                                                                        000000000000000000
F0010000007489500005000001022529300013552100000000000000000201508180002001ALBERTO ALVAREZ ISAZA                             D000000000005600000000000000000000100010010000000000000000000000F0010000007489500520150818000101 00000000000000000000000000000000000000000000000000000000000000000000000000000000000000000000000000000000000000000N 00000000000NCONT   00    00000000000          00000000000000000000000000000000000000000000 000000000000000A000000000000000000000000000000000000000000000 000000000000000000000000000000000000000     00000000                                                                                                                        000000000000000000
F0010000007489600001000001022529300011050500000000000000000201508180002001ALBERTO ALVAREZ ISAZA                             D000000001050000000000000000000000100010010000000000000000000000F0010000007489600120150818000101 00000000000000000000000000000000000000000000000000000000000000000000000000000000000000000000000000000000000000000N 00000000000NCONT   00    00000000000          00000000000000000000000000000000000000000000 000000000000000A000000000000000000000000000000000000000000000 000000000000000000000000000000000000000     00000000                                                                                                                        000000000000000000
F0010000007489600002000001022529300041450500000000000000000201508180002001ALBERTO ALVAREZ ISAZA                             C000000001050000000000000000000000100010010000000000000000000000F0010000007489600220150818000101 00000000000000000000000000000000000000000000000000000000000000000000000000000000000000000000000000000000000000000N 00000000000NCONT   00    00000000000          00000000000000000000000000000000000000000000 000000000000000A000000000000000000000000000000000000000000000 000000000000000000000000000000000000000     00000000                                                                                                                        000000000000000000
F0010000007489600003000001022529300042505000000000000000000201508180002001ALBERTO ALVAREZ ISAZA                             C000000000000000000000000000000000100010010000000000000000000000F0010000007489600320150818000101 00000000000000000000000000000000000000000000000000000000000000000000000000000000000000000000000000000000000000000N 00000000000NCONT   00    00000000000          00000000000000000000000000000000000000000000 000000000000000A000000000000000000000000000000000000000000000 000000000000000000000000000000000000000     00000000                                                                                                                        000000000000000000
F0010000007489600004000001022529300023658300000000000000000201508180002001ALBERTO ALVAREZ ISAZA                             C000000000008400000000000000000000100010010000000000000000000000F0010000007489600420150818000101 00000000000000000000000000000000000000000000000000000000000000000000000000000000000000000000000000000000000000000N 00000000000NCONT   00    00000000000          00000000000000000000000000000000000000000000 000000000000000A000000000000000000000000000000000000000000000 000000000000000000000000000000000000000     00000000                                                                                                                        000000000000000000
F0010000007489600005000001022529300013552100000000000000000201508180002001ALBERTO ALVAREZ ISAZA                             D000000000008400000000000000000000100010010000000000000000000000F0010000007489600520150818000101 00000000000000000000000000000000000000000000000000000000000000000000000000000000000000000000000000000000000000000N 00000000000NCONT   00    00000000000          00000000000000000000000000000000000000000000 000000000000000A000000000000000000000000000000000000000000000 000000000000000000000000000000000000000     00000000                                                                                                                        000000000000000000
F0010000007489700001000001022529300011050500000000000000000201508180002001ALBERTO ALVAREZ ISAZA                             D000000000350000000000000000000000100010010000000000000000000000F0010000007489700120150818000101 00000000000000000000000000000000000000000000000000000000000000000000000000000000000000000000000000000000000000000N 00000000000NCONT   00    00000000000          00000000000000000000000000000000000000000000 000000000000000A000000000000000000000000000000000000000000000 000000000000000000000000000000000000000     00000000                                                                                                                        000000000000000000
F0010000007489700002000001022529300041450500000000000000000201508180002001ALBERTO ALVAREZ ISAZA                             C000000000350000000000000000000000100010010000000000000000000000F0010000007489700220150818000101 00000000000000000000000000000000000000000000000000000000000000000000000000000000000000000000000000000000000000000N 00000000000NCONT   00    00000000000          00000000000000000000000000000000000000000000 000000000000000A000000000000000000000000000000000000000000000 000000000000000000000000000000000000000     00000000                                                                                                                        000000000000000000
F0010000007489700003000001022529300042505000000000000000000201508180002001ALBERTO ALVAREZ ISAZA                             C000000000000000000000000000000000100010010000000000000000000000F0010000007489700320150818000101 00000000000000000000000000000000000000000000000000000000000000000000000000000000000000000000000000000000000000000N 00000000000NCONT   00    00000000000          00000000000000000000000000000000000000000000 000000000000000A000000000000000000000000000000000000000000000 000000000000000000000000000000000000000     00000000                                                                                                                        000000000000000000
F0010000007489700004000001022529300023658300000000000000000201508180002001ALBERTO ALVAREZ ISAZA                             C000000000002800000000000000000000100010010000000000000000000000F0010000007489700420150818000101 00000000000000000000000000000000000000000000000000000000000000000000000000000000000000000000000000000000000000000N 00000000000NCONT   00    00000000000          00000000000000000000000000000000000000000000 000000000000000A000000000000000000000000000000000000000000000 000000000000000000000000000000000000000     00000000                                                                                                                        000000000000000000
F0010000007489700005000001022529300013552100000000000000000201508180002001ALBERTO ALVAREZ ISAZA                             D000000000002800000000000000000000100010010000000000000000000000F0010000007489700520150818000101 00000000000000000000000000000000000000000000000000000000000000000000000000000000000000000000000000000000000000000N 00000000000NCONT   00    00000000000          00000000000000000000000000000000000000000000 000000000000000A000000000000000000000000000000000000000000000 000000000000000000000000000000000000000     00000000                                                                                                                        000000000000000000
F0010000007489800001000090050144800011050500000000000000000201508180002001PLASTICOS JR ASOCIADOS SAS                        D000000006750000000000000000000000100010010000000000000000000000F0010000007489800120150818000101 00000000000000000000000000000000000000000000000000000000000000000000000000000000000000000000000000000000000000000N 00000000000NCONT   00    00000000000          00000000000000000000000000000000000000000000 000000000000000A000000000000000000000000000000000000000000000 000000000000000000000000000000000000000     00000000                                                                                                                        000000000000000000
F0010000007489800002000090050144800041450500000000000000000201508180002001PLASTICOS JR ASOCIADOS SAS                        C000000005950000000000000000000000100010010000000000000000000000F0010000007489800220150818000101 00000000000000000000000000000000000000000000000000000000000000000000000000000000000000000000000000000000000000000N 00000000000NCONT   00    00000000000          00000000000000000000000000000000000000000000 000000000000000A000000000000000000000000000000000000000000000 000000000000000000000000000000000000000     00000000                                                                                                                        000000000000000000
F0010000007489800003000090050144800042505000000000000000000201508180002001PLASTICOS JR ASOCIADOS SAS                        C000000000800000000000000000000000100010010000000000000000000000F0010000007489800320150818000101 00000000000000000000000000000000000000000000000000000000000000000000000000000000000000000000000000000000000000000N 00000000000NCONT   00    00000000000          00000000000000000000000000000000000000000000 000000000000000A000000000000000000000000000000000000000000000 000000000000000000000000000000000000000     00000000                                                                                                                        000000000000000000
F0010000007489800004000090050144800023658300000000000000000201508180002001PLASTICOS JR ASOCIADOS SAS                        C000000000047600000000000000000000100010010000000000000000000000F0010000007489800420150818000101 00000000000000000000000000000000000000000000000000000000000000000000000000000000000000000000000000000000000000000N 00000000000NCONT   00    00000000000          00000000000000000000000000000000000000000000 000000000000000A000000000000000000000000000000000000000000000 000000000000000000000000000000000000000     00000000                                                                                                                        000000000000000000
F0010000007489800005000090050144800013552100000000000000000201508180002001PLASTICOS JR ASOCIADOS SAS                        D000000000047600000000000000000000100010010000000000000000000000F0010000007489800520150818000101 00000000000000000000000000000000000000000000000000000000000000000000000000000000000000000000000000000000000000000N 00000000000NCONT   00    00000000000          00000000000000000000000000000000000000000000 000000000000000A000000000000000000000000000000000000000000000 000000000000000000000000000000000000000     00000000                                                                                                                        000000000000000000
F0010000007489900001000090050144800011050500000000000000000201508180002001PLASTICOS JR ASOCIADOS SAS                        D000000000950000000000000000000000100010010000000000000000000000F0010000007489900120150818000101 00000000000000000000000000000000000000000000000000000000000000000000000000000000000000000000000000000000000000000N 00000000000NCONT   00    00000000000          00000000000000000000000000000000000000000000 000000000000000A000000000000000000000000000000000000000000000 000000000000000000000000000000000000000     00000000                                                                                                                        000000000000000000
F0010000007489900002000090050144800041450500000000000000000201508180002001PLASTICOS JR ASOCIADOS SAS                        C000000000850000000000000000000000100010010000000000000000000000F0010000007489900220150818000101 00000000000000000000000000000000000000000000000000000000000000000000000000000000000000000000000000000000000000000N 00000000000NCONT   00    00000000000          00000000000000000000000000000000000000000000 000000000000000A000000000000000000000000000000000000000000000 000000000000000000000000000000000000000     00000000                                                                                                                        000000000000000000
F0010000007489900003000090050144800042505000000000000000000201508180002001PLASTICOS JR ASOCIADOS SAS                        C000000000100000000000000000000000100010010000000000000000000000F0010000007489900320150818000101 00000000000000000000000000000000000000000000000000000000000000000000000000000000000000000000000000000000000000000N 00000000000NCONT   00    00000000000          00000000000000000000000000000000000000000000 000000000000000A000000000000000000000000000000000000000000000 000000000000000000000000000000000000000     00000000                                                                                                                        000000000000000000
F0010000007489900004000090050144800023658300000000000000000201508180002001PLASTICOS JR ASOCIADOS SAS                        C000000000006800000000000000000000100010010000000000000000000000F0010000007489900420150818000101 00000000000000000000000000000000000000000000000000000000000000000000000000000000000000000000000000000000000000000N 00000000000NCONT   00    00000000000          00000000000000000000000000000000000000000000 000000000000000A000000000000000000000000000000000000000000000 000000000000000000000000000000000000000     00000000                                                                                                                        000000000000000000
F0010000007489900005000090050144800013552100000000000000000201508180002001PLASTICOS JR ASOCIADOS SAS                        D000000000006800000000000000000000100010010000000000000000000000F0010000007489900520150818000101 00000000000000000000000000000000000000000000000000000000000000000000000000000000000000000000000000000000000000000N 00000000000NCONT   00    00000000000          00000000000000000000000000000000000000000000 000000000000000A000000000000000000000000000000000000000000000 000000000000000000000000000000000000000     00000000                                                                                                                        000000000000000000
F0010000007490000001000001719393900011050500000000000000000201508180002001JAIRO BASTIDAS RAMIREZ                            D000000002500000000000000000000000100010010000000000000000000000F0010000007490000120150818000101 00000000000000000000000000000000000000000000000000000000000000000000000000000000000000000000000000000000000000000N 00000000000NCONT   00    00000000000          00000000000000000000000000000000000000000000 000000000000000A000000000000000000000000000000000000000000000 000000000000000000000000000000000000000     00000000                                                                                                                        000000000000000000
F0010000007490000002000001719393900041450500000000000000000201508180002001JAIRO BASTIDAS RAMIREZ                            C000000002400000000000000000000000100010010000000000000000000000F0010000007490000220150818000101 00000000000000000000000000000000000000000000000000000000000000000000000000000000000000000000000000000000000000000N 00000000000NCONT   00    00000000000          00000000000000000000000000000000000000000000 000000000000000A000000000000000000000000000000000000000000000 000000000000000000000000000000000000000     00000000                                                                                                                        000000000000000000
F0010000007490000003000001719393900042505000000000000000000201508180002001JAIRO BASTIDAS RAMIREZ                            C000000000100000000000000000000000100010010000000000000000000000F0010000007490000320150818000101 00000000000000000000000000000000000000000000000000000000000000000000000000000000000000000000000000000000000000000N 00000000000NCONT   00    00000000000          00000000000000000000000000000000000000000000 000000000000000A000000000000000000000000000000000000000000000 000000000000000000000000000000000000000     00000000                                                                                                                        000000000000000000
F0010000007490000004000001719393900023658300000000000000000201508180002001JAIRO BASTIDAS RAMIREZ                            C000000000019200000000000000000000100010010000000000000000000000F0010000007490000420150818000101 00000000000000000000000000000000000000000000000000000000000000000000000000000000000000000000000000000000000000000N 00000000000NCONT   00    00000000000          00000000000000000000000000000000000000000000 000000000000000A000000000000000000000000000000000000000000000 000000000000000000000000000000000000000     00000000                                                                                                                        000000000000000000
F0010000007490000005000001719393900013552100000000000000000201508180002001JAIRO BASTIDAS RAMIREZ                            D000000000019200000000000000000000100010010000000000000000000000F0010000007490000520150818000101 00000000000000000000000000000000000000000000000000000000000000000000000000000000000000000000000000000000000000000N 00000000000NCONT   00    00000000000          00000000000000000000000000000000000000000000 000000000000000A000000000000000000000000000000000000000000000 000000000000000000000000000000000000000     00000000                                                                                                                        000000000000000000
F0010000007490100001000001719393900011050500000000000000000201508180002001JAIRO BASTIDAS RAMIREZ                            D000000002600000000000000000000000100010010000000000000000000000F0010000007490100120150818000101 00000000000000000000000000000000000000000000000000000000000000000000000000000000000000000000000000000000000000000N 00000000000NCONT   00    00000000000          00000000000000000000000000000000000000000000 000000000000000A000000000000000000000000000000000000000000000 000000000000000000000000000000000000000     00000000                                                                                                                        000000000000000000
F0010000007490100002000001719393900041450500000000000000000201508180002001JAIRO BASTIDAS RAMIREZ                            C000000002400000000000000000000000100010010000000000000000000000F0010000007490100220150818000101 00000000000000000000000000000000000000000000000000000000000000000000000000000000000000000000000000000000000000000N 00000000000NCONT   00    00000000000          00000000000000000000000000000000000000000000 000000000000000A000000000000000000000000000000000000000000000 000000000000000000000000000000000000000     00000000                                                                                                                        000000000000000000
F0010000007490100003000001719393900042505000000000000000000201508180002001JAIRO BASTIDAS RAMIREZ                            C000000000200000000000000000000000100010010000000000000000000000F0010000007490100320150818000101 00000000000000000000000000000000000000000000000000000000000000000000000000000000000000000000000000000000000000000N 00000000000NCONT   00    00000000000          00000000000000000000000000000000000000000000 000000000000000A000000000000000000000000000000000000000000000 000000000000000000000000000000000000000     00000000                                                                                                                        000000000000000000
F0010000007490100004000001719393900023658300000000000000000201508180002001JAIRO BASTIDAS RAMIREZ                            C000000000019200000000000000000000100010010000000000000000000000F0010000007490100420150818000101 00000000000000000000000000000000000000000000000000000000000000000000000000000000000000000000000000000000000000000N 00000000000NCONT   00    00000000000          00000000000000000000000000000000000000000000 000000000000000A000000000000000000000000000000000000000000000 000000000000000000000000000000000000000     00000000                                                                                                                        000000000000000000
F0010000007490100005000001719393900013552100000000000000000201508180002001JAIRO BASTIDAS RAMIREZ                            D000000000019200000000000000000000100010010000000000000000000000F0010000007490100520150818000101 00000000000000000000000000000000000000000000000000000000000000000000000000000000000000000000000000000000000000000N 00000000000NCONT   00    00000000000          00000000000000000000000000000000000000000000 000000000000000A000000000000000000000000000000000000000000000 000000000000000000000000000000000000000     00000000                                                                                                                        000000000000000000
F0010000007490200001000002245670100011050500000000000000000201508180002001YOLANDA  TOBON                                    D000000001500000000000000000000000100010010000000000000000000000F0010000007490200120150818000101 00000000000000000000000000000000000000000000000000000000000000000000000000000000000000000000000000000000000000000N 00000000000NCONT   00    00000000000          00000000000000000000000000000000000000000000 000000000000000A000000000000000000000000000000000000000000000 000000000000000000000000000000000000000     00000000                                                                                                                        000000000000000000
F0010000007490200002000002245670100041450500000000000000000201508180002001YOLANDA  TOBON                                    C000000001200000000000000000000000100010010000000000000000000000F0010000007490200220150818000101 00000000000000000000000000000000000000000000000000000000000000000000000000000000000000000000000000000000000000000N 00000000000NCONT   00    00000000000          00000000000000000000000000000000000000000000 000000000000000A000000000000000000000000000000000000000000000 000000000000000000000000000000000000000     00000000                                                                                                                        000000000000000000
F0010000007490200003000002245670100042505000000000000000000201508180002001YOLANDA  TOBON                                    C000000000300000000000000000000000100010010000000000000000000000F0010000007490200320150818000101 00000000000000000000000000000000000000000000000000000000000000000000000000000000000000000000000000000000000000000N 00000000000NCONT   00    00000000000          00000000000000000000000000000000000000000000 000000000000000A000000000000000000000000000000000000000000000 000000000000000000000000000000000000000     00000000                                                                                                                        000000000000000000
F0010000007490200004000002245670100023658300000000000000000201508180002001YOLANDA  TOBON                                    C000000000009600000000000000000000100010010000000000000000000000F0010000007490200420150818000101 00000000000000000000000000000000000000000000000000000000000000000000000000000000000000000000000000000000000000000N 00000000000NCONT   00    00000000000          00000000000000000000000000000000000000000000 000000000000000A000000000000000000000000000000000000000000000 000000000000000000000000000000000000000     00000000                                                                                                                        000000000000000000
F0010000007490200005000002245670100013552100000000000000000201508180002001YOLANDA  TOBON                                    D000000000009600000000000000000000100010010000000000000000000000F0010000007490200520150818000101 00000000000000000000000000000000000000000000000000000000000000000000000000000000000000000000000000000000000000000N 00000000000NCONT   00    00000000000          00000000000000000000000000000000000000000000 000000000000000A000000000000000000000000000000000000000000000 000000000000000000000000000000000000000     00000000                                                                                                                        000000000000000000
F0010000007490300001000107252647100011050500000000000000000201508180002001JHON BYRON DUQUE DONADO (BODEGA JHONIFER)         D000000001100000000000000000000000100010010000000000000000000000F0010000007490300120150818000101 00000000000000000000000000000000000000000000000000000000000000000000000000000000000000000000000000000000000000000N 00000000000NCONT   00    00000000000          00000000000000000000000000000000000000000000 000000000000000A000000000000000000000000000000000000000000000 000000000000000000000000000000000000000     00000000                                                                                                                        000000000000000000
F0010000007490300002000107252647100041450500000000000000000201508180002001JHON BYRON DUQUE DONADO (BODEGA JHONIFER)         C000000000900000000000000000000000100010010000000000000000000000F0010000007490300220150818000101 00000000000000000000000000000000000000000000000000000000000000000000000000000000000000000000000000000000000000000N 00000000000NCONT   00    00000000000          00000000000000000000000000000000000000000000 000000000000000A000000000000000000000000000000000000000000000 000000000000000000000000000000000000000     00000000                                                                                                                        000000000000000000
F0010000007490300003000107252647100042505000000000000000000201508180002001JHON BYRON DUQUE DONADO (BODEGA JHONIFER)         C000000000200000000000000000000000100010010000000000000000000000F0010000007490300320150818000101 00000000000000000000000000000000000000000000000000000000000000000000000000000000000000000000000000000000000000000N 00000000000NCONT   00    00000000000          00000000000000000000000000000000000000000000 000000000000000A000000000000000000000000000000000000000000000 000000000000000000000000000000000000000     00000000                                                                                                                        000000000000000000
F0010000007490300004000107252647100023658300000000000000000201508180002001JHON BYRON DUQUE DONADO (BODEGA JHONIFER)         C000000000007200000000000000000000100010010000000000000000000000F0010000007490300420150818000101 00000000000000000000000000000000000000000000000000000000000000000000000000000000000000000000000000000000000000000N 00000000000NCONT   00    00000000000          00000000000000000000000000000000000000000000 000000000000000A000000000000000000000000000000000000000000000 000000000000000000000000000000000000000     00000000                                                                                                                        000000000000000000
F0010000007490300005000107252647100013552100000000000000000201508180002001JHON BYRON DUQUE DONADO (BODEGA JHONIFER)         D000000000007200000000000000000000100010010000000000000000000000F0010000007490300520150818000101 00000000000000000000000000000000000000000000000000000000000000000000000000000000000000000000000000000000000000000N 00000000000NCONT   00    00000000000          00000000000000000000000000000000000000000000 000000000000000A000000000000000000000000000000000000000000000 000000000000000000000000000000000000000     00000000                                                                                                                        000000000000000000
F0010000007490400001000107252647100011050500000000000000000201508180002001JHON BYRON DUQUE DONADO (BODEGA JHONIFER)         D000000001000000000000000000000000100010010000000000000000000000F0010000007490400120150818000101 00000000000000000000000000000000000000000000000000000000000000000000000000000000000000000000000000000000000000000N 00000000000NCONT   00    00000000000          00000000000000000000000000000000000000000000 000000000000000A000000000000000000000000000000000000000000000 000000000000000000000000000000000000000     00000000                                                                                                                        000000000000000000
F0010000007490400002000107252647100041450500000000000000000201508180002001JHON BYRON DUQUE DONADO (BODEGA JHONIFER)         C000000000900000000000000000000000100010010000000000000000000000F0010000007490400220150818000101 00000000000000000000000000000000000000000000000000000000000000000000000000000000000000000000000000000000000000000N 00000000000NCONT   00    00000000000          00000000000000000000000000000000000000000000 000000000000000A000000000000000000000000000000000000000000000 000000000000000000000000000000000000000     00000000                                                                                                                        000000000000000000
F0010000007490400003000107252647100042505000000000000000000201508180002001JHON BYRON DUQUE DONADO (BODEGA JHONIFER)         C000000000100000000000000000000000100010010000000000000000000000F0010000007490400320150818000101 00000000000000000000000000000000000000000000000000000000000000000000000000000000000000000000000000000000000000000N 00000000000NCONT   00    00000000000          00000000000000000000000000000000000000000000 000000000000000A000000000000000000000000000000000000000000000 000000000000000000000000000000000000000     00000000                                                                                                                        000000000000000000
F0010000007490400004000107252647100023658300000000000000000201508180002001JHON BYRON DUQUE DONADO (BODEGA JHONIFER)         C000000000007200000000000000000000100010010000000000000000000000F0010000007490400420150818000101 00000000000000000000000000000000000000000000000000000000000000000000000000000000000000000000000000000000000000000N 00000000000NCONT   00    00000000000          00000000000000000000000000000000000000000000 000000000000000A000000000000000000000000000000000000000000000 000000000000000000000000000000000000000     00000000                                                                                                                        000000000000000000
F0010000007490400005000107252647100013552100000000000000000201508180002001JHON BYRON DUQUE DONADO (BODEGA JHONIFER)         D000000000007200000000000000000000100010010000000000000000000000F0010000007490400520150818000101 00000000000000000000000000000000000000000000000000000000000000000000000000000000000000000000000000000000000000000N 00000000000NCONT   00    00000000000          00000000000000000000000000000000000000000000 000000000000000A000000000000000000000000000000000000000000000 000000000000000000000000000000000000000     00000000                                                                                                                        000000000000000000
F0010000007490500001000007957099900011050500000000000000000201508180002001RUBEN GOMEZ                                       D000000002000000000000000000000000100010010000000000000000000000F0010000007490500120150818000101 00000000000000000000000000000000000000000000000000000000000000000000000000000000000000000000000000000000000000000N 00000000000NCONT   00    00000000000          00000000000000000000000000000000000000000000 000000000000000A000000000000000000000000000000000000000000000 000000000000000000000000000000000000000     00000000                                                                                                                        000000000000000000
F0010000007490500002000007957099900041450500000000000000000201508180002001RUBEN GOMEZ                                       C000000001500000000000000000000000100010010000000000000000000000F0010000007490500220150818000101 00000000000000000000000000000000000000000000000000000000000000000000000000000000000000000000000000000000000000000N 00000000000NCONT   00    00000000000          00000000000000000000000000000000000000000000 000000000000000A000000000000000000000000000000000000000000000 000000000000000000000000000000000000000     00000000                                                                                                                        000000000000000000
F0010000007490500003000007957099900042505000000000000000000201508180002001RUBEN GOMEZ                                       C000000000500000000000000000000000100010010000000000000000000000F0010000007490500320150818000101 00000000000000000000000000000000000000000000000000000000000000000000000000000000000000000000000000000000000000000N 00000000000NCONT   00    00000000000          00000000000000000000000000000000000000000000 000000000000000A000000000000000000000000000000000000000000000 000000000000000000000000000000000000000     00000000                                                                                                                        000000000000000000
F0010000007490500004000007957099900023658300000000000000000201508180002001RUBEN GOMEZ                                       C000000000012000000000000000000000100010010000000000000000000000F0010000007490500420150818000101 00000000000000000000000000000000000000000000000000000000000000000000000000000000000000000000000000000000000000000N 00000000000NCONT   00    00000000000          00000000000000000000000000000000000000000000 000000000000000A000000000000000000000000000000000000000000000 000000000000000000000000000000000000000     00000000                                                                                                                        000000000000000000
F0010000007490500005000007957099900013552100000000000000000201508180002001RUBEN GOMEZ                                       D000000000012000000000000000000000100010010000000000000000000000F0010000007490500520150818000101 00000000000000000000000000000000000000000000000000000000000000000000000000000000000000000000000000000000000000000N 00000000000NCONT   00    00000000000          00000000000000000000000000000000000000000000 000000000000000A000000000000000000000000000000000000000000000 000000000000000000000000000000000000000     00000000                                                                                                                        000000000000000000
F0010000007490600001000090034602400011050500000000000000000201508180002001PRODUCTOS NACIONALES PARAFINICOS LA CUSTODIA S.A.SD000000001000000000000000000000000100010010000000000000000000000F0010000007490600120150818000101 00000000000000000000000000000000000000000000000000000000000000000000000000000000000000000000000000000000000000000N 00000000000NCONT   00    00000000000          00000000000000000000000000000000000000000000 000000000000000A000000000000000000000000000000000000000000000 000000000000000000000000000000000000000     00000000                                                                                                                        000000000000000000
F0010000007490600002000090034602400041450500000000000000000201508180002001PRODUCTOS NACIONALES PARAFINICOS LA CUSTODIA S.A.SC000000000900000000000000000000000100010010000000000000000000000F0010000007490600220150818000101 00000000000000000000000000000000000000000000000000000000000000000000000000000000000000000000000000000000000000000N 00000000000NCONT   00    00000000000          00000000000000000000000000000000000000000000 000000000000000A000000000000000000000000000000000000000000000 000000000000000000000000000000000000000     00000000                                                                                                                        000000000000000000
F0010000007490600003000090034602400042505000000000000000000201508180002001PRODUCTOS NACIONALES PARAFINICOS LA CUSTODIA S.A.SC000000000100000000000000000000000100010010000000000000000000000F0010000007490600320150818000101 00000000000000000000000000000000000000000000000000000000000000000000000000000000000000000000000000000000000000000N 00000000000NCONT   00    00000000000          00000000000000000000000000000000000000000000 000000000000000A000000000000000000000000000000000000000000000 000000000000000000000000000000000000000     00000000                                                                                                                        000000000000000000
F0010000007490600004000090034602400023658300000000000000000201508180002001PRODUCTOS NACIONALES PARAFINICOS LA CUSTODIA S.A.SC000000000007200000000000000000000100010010000000000000000000000F0010000007490600420150818000101 00000000000000000000000000000000000000000000000000000000000000000000000000000000000000000000000000000000000000000N 00000000000NCONT   00    00000000000          00000000000000000000000000000000000000000000 000000000000000A000000000000000000000000000000000000000000000 000000000000000000000000000000000000000     00000000                                                                                                                        000000000000000000
F0010000007490600005000090034602400013552100000000000000000201508180002001PRODUCTOS NACIONALES PARAFINICOS LA CUSTODIA S.A.SD000000000007200000000000000000000100010010000000000000000000000F0010000007490600520150818000101 00000000000000000000000000000000000000000000000000000000000000000000000000000000000000000000000000000000000000000N 00000000000NCONT   00    00000000000          00000000000000000000000000000000000000000000 000000000000000A000000000000000000000000000000000000000000000 000000000000000000000000000000000000000     00000000                                                                                                                        000000000000000000
F0010000007490700001000090034602400011050500000000000000000201508180002001PRODUCTOS NACIONALES PARAFINICOS LA CUSTODIA S.A.SD000000001000000000000000000000000100010010000000000000000000000F0010000007490700120150818000101 00000000000000000000000000000000000000000000000000000000000000000000000000000000000000000000000000000000000000000N 00000000000NCONT   00    00000000000          00000000000000000000000000000000000000000000 000000000000000A000000000000000000000000000000000000000000000 000000000000000000000000000000000000000     00000000                                                                                                                        000000000000000000
F0010000007490700002000090034602400041450500000000000000000201508180002001PRODUCTOS NACIONALES PARAFINICOS LA CUSTODIA S.A.SC000000000900000000000000000000000100010010000000000000000000000F0010000007490700220150818000101 00000000000000000000000000000000000000000000000000000000000000000000000000000000000000000000000000000000000000000N 00000000000NCONT   00    00000000000          00000000000000000000000000000000000000000000 000000000000000A000000000000000000000000000000000000000000000 000000000000000000000000000000000000000     00000000                                                                                                                        000000000000000000
F0010000007490700003000090034602400042505000000000000000000201508180002001PRODUCTOS NACIONALES PARAFINICOS LA CUSTODIA S.A.SC000000000100000000000000000000000100010010000000000000000000000F0010000007490700320150818000101 00000000000000000000000000000000000000000000000000000000000000000000000000000000000000000000000000000000000000000N 00000000000NCONT   00    00000000000          00000000000000000000000000000000000000000000 000000000000000A000000000000000000000000000000000000000000000 000000000000000000000000000000000000000     00000000                                                                                                                        000000000000000000
F0010000007490700004000090034602400023658300000000000000000201508180002001PRODUCTOS NACIONALES PARAFINICOS LA CUSTODIA S.A.SC000000000007200000000000000000000100010010000000000000000000000F0010000007490700420150818000101 00000000000000000000000000000000000000000000000000000000000000000000000000000000000000000000000000000000000000000N 00000000000NCONT   00    00000000000          00000000000000000000000000000000000000000000 000000000000000A000000000000000000000000000000000000000000000 000000000000000000000000000000000000000     00000000                                                                                                                        000000000000000000
F0010000007490700005000090034602400013552100000000000000000201508180002001PRODUCTOS NACIONALES PARAFINICOS LA CUSTODIA S.A.SD000000000007200000000000000000000100010010000000000000000000000F0010000007490700520150818000101 00000000000000000000000000000000000000000000000000000000000000000000000000000000000000000000000000000000000000000N 00000000000NCONT   00    00000000000          00000000000000000000000000000000000000000000 000000000000000A000000000000000000000000000000000000000000000 000000000000000000000000000000000000000     00000000                                                                                                                        000000000000000000
F0010000007490800001000090034602400011050500000000000000000201508180002001PRODUCTOS NACIONALES PARAFINICOS LA CUSTODIA S.A.SD000000001000000000000000000000000100010010000000000000000000000F0010000007490800120150818000101 00000000000000000000000000000000000000000000000000000000000000000000000000000000000000000000000000000000000000000N 00000000000NCONT   00    00000000000          00000000000000000000000000000000000000000000 000000000000000A000000000000000000000000000000000000000000000 000000000000000000000000000000000000000     00000000                                                                                                                        000000000000000000
F0010000007490800002000090034602400041450500000000000000000201508180002001PRODUCTOS NACIONALES PARAFINICOS LA CUSTODIA S.A.SC000000000900000000000000000000000100010010000000000000000000000F0010000007490800220150818000101 00000000000000000000000000000000000000000000000000000000000000000000000000000000000000000000000000000000000000000N 00000000000NCONT   00    00000000000          00000000000000000000000000000000000000000000 000000000000000A000000000000000000000000000000000000000000000 000000000000000000000000000000000000000     00000000                                                                                                                        000000000000000000
F0010000007490800003000090034602400042505000000000000000000201508180002001PRODUCTOS NACIONALES PARAFINICOS LA CUSTODIA S.A.SC000000000100000000000000000000000100010010000000000000000000000F0010000007490800320150818000101 00000000000000000000000000000000000000000000000000000000000000000000000000000000000000000000000000000000000000000N 00000000000NCONT   00    00000000000          00000000000000000000000000000000000000000000 000000000000000A000000000000000000000000000000000000000000000 000000000000000000000000000000000000000     00000000                                                                                                                        000000000000000000
F0010000007490800004000090034602400023658300000000000000000201508180002001PRODUCTOS NACIONALES PARAFINICOS LA CUSTODIA S.A.SC000000000007200000000000000000000100010010000000000000000000000F0010000007490800420150818000101 00000000000000000000000000000000000000000000000000000000000000000000000000000000000000000000000000000000000000000N 00000000000NCONT   00    00000000000          00000000000000000000000000000000000000000000 000000000000000A000000000000000000000000000000000000000000000 000000000000000000000000000000000000000     00000000                                                                                                                        000000000000000000
F0010000007490800005000090034602400013552100000000000000000201508180002001PRODUCTOS NACIONALES PARAFINICOS LA CUSTODIA S.A.SD000000000007200000000000000000000100010010000000000000000000000F0010000007490800520150818000101 00000000000000000000000000000000000000000000000000000000000000000000000000000000000000000000000000000000000000000N 00000000000NCONT   00    00000000000          00000000000000000000000000000000000000000000 000000000000000A000000000000000000000000000000000000000000000 000000000000000000000000000000000000000     00000000                                                                                                                        000000000000000000
F0010000007490900001000090034602400011050500000000000000000201508180002001PRODUCTOS NACIONALES PARAFINICOS LA CUSTODIA S.A.SD000000002000000000000000000000000100010010000000000000000000000F0010000007490900120150818000101 00000000000000000000000000000000000000000000000000000000000000000000000000000000000000000000000000000000000000000N 00000000000NCONT   00    00000000000          00000000000000000000000000000000000000000000 000000000000000A000000000000000000000000000000000000000000000 000000000000000000000000000000000000000     00000000                                                                                                                        000000000000000000
F0010000007490900002000090034602400041450500000000000000000201508180002001PRODUCTOS NACIONALES PARAFINICOS LA CUSTODIA S.A.SC000000001800000000000000000000000100010010000000000000000000000F0010000007490900220150818000101 00000000000000000000000000000000000000000000000000000000000000000000000000000000000000000000000000000000000000000N 00000000000NCONT   00    00000000000          00000000000000000000000000000000000000000000 000000000000000A000000000000000000000000000000000000000000000 000000000000000000000000000000000000000     00000000                                                                                                                        000000000000000000
F0010000007490900003000090034602400042505000000000000000000201508180002001PRODUCTOS NACIONALES PARAFINICOS LA CUSTODIA S.A.SC000000000200000000000000000000000100010010000000000000000000000F0010000007490900320150818000101 00000000000000000000000000000000000000000000000000000000000000000000000000000000000000000000000000000000000000000N 00000000000NCONT   00    00000000000          00000000000000000000000000000000000000000000 000000000000000A000000000000000000000000000000000000000000000 000000000000000000000000000000000000000     00000000                                                                                                                        000000000000000000
F0010000007490900004000090034602400023658300000000000000000201508180002001PRODUCTOS NACIONALES PARAFINICOS LA CUSTODIA S.A.SC000000000014400000000000000000000100010010000000000000000000000F0010000007490900420150818000101 00000000000000000000000000000000000000000000000000000000000000000000000000000000000000000000000000000000000000000N 00000000000NCONT   00    00000000000          00000000000000000000000000000000000000000000 000000000000000A000000000000000000000000000000000000000000000 000000000000000000000000000000000000000     00000000                                                                                                                        000000000000000000
F0010000007490900005000090034602400013552100000000000000000201508180002001PRODUCTOS NACIONALES PARAFINICOS LA CUSTODIA S.A.SD000000000014400000000000000000000100010010000000000000000000000F0010000007490900520150818000101 00000000000000000000000000000000000000000000000000000000000000000000000000000000000000000000000000000000000000000N 00000000000NCONT   00    00000000000          00000000000000000000000000000000000000000000 000000000000000A000000000000000000000000000000000000000000000 000000000000000000000000000000000000000     00000000                                                                                                                        000000000000000000
F0010000007491000001000007957099900011050500000000000000000201508180002001RUBEN GOMEZ                                       D000000004600000000000000000000000100010010000000000000000000000F0010000007491000120150818000101 00000000000000000000000000000000000000000000000000000000000000000000000000000000000000000000000000000000000000000N 00000000000NCONT   00    00000000000          00000000000000000000000000000000000000000000 000000000000000A000000000000000000000000000000000000000000000 000000000000000000000000000000000000000     00000000                                                                                                                        000000000000000000
F0010000007491000002000007957099900041450500000000000000000201508180002001RUBEN GOMEZ                                       C000000003600000000000000000000000100010010000000000000000000000F0010000007491000220150818000101 00000000000000000000000000000000000000000000000000000000000000000000000000000000000000000000000000000000000000000N 00000000000NCONT   00    00000000000          00000000000000000000000000000000000000000000 000000000000000A000000000000000000000000000000000000000000000 000000000000000000000000000000000000000     00000000                                                                                                                        000000000000000000
F0010000007491000003000007957099900042505000000000000000000201508180002001RUBEN GOMEZ                                       C000000001000000000000000000000000100010010000000000000000000000F0010000007491000320150818000101 00000000000000000000000000000000000000000000000000000000000000000000000000000000000000000000000000000000000000000N 00000000000NCONT   00    00000000000          00000000000000000000000000000000000000000000 000000000000000A000000000000000000000000000000000000000000000 000000000000000000000000000000000000000     00000000                                                                                                                        000000000000000000
F0010000007491000004000007957099900023658300000000000000000201508180002001RUBEN GOMEZ                                       C000000000028800000000000000000000100010010000000000000000000000F0010000007491000420150818000101 00000000000000000000000000000000000000000000000000000000000000000000000000000000000000000000000000000000000000000N 00000000000NCONT   00    00000000000          00000000000000000000000000000000000000000000 000000000000000A000000000000000000000000000000000000000000000 000000000000000000000000000000000000000     00000000                                                                                                                        000000000000000000
F0010000007491000005000007957099900013552100000000000000000201508180002001RUBEN GOMEZ                                       D000000000028800000000000000000000100010010000000000000000000000F0010000007491000520150818000101 00000000000000000000000000000000000000000000000000000000000000000000000000000000000000000000000000000000000000000N 00000000000NCONT   00    00000000000          00000000000000000000000000000000000000000000 000000000000000A000000000000000000000000000000000000000000000 000000000000000000000000000000000000000     00000000                                                                                                                        000000000000000000
F0010000007491100001000005204371400011050500000000000000000201508180002001MARITZA IMPORTS                                   D000000003400000000000000000000000100010010000000000000000000000F0010000007491100120150818000101 00000000000000000000000000000000000000000000000000000000000000000000000000000000000000000000000000000000000000000N 00000000000NCONT   00    00000000000          00000000000000000000000000000000000000000000 000000000000000A000000000000000000000000000000000000000000000 000000000000000000000000000000000000000     00000000                                                                                                                        000000000000000000
F0010000007491100002000005204371400041450500000000000000000201508180002001MARITZA IMPORTS                                   C000000002400000000000000000000000100010010000000000000000000000F0010000007491100220150818000101 00000000000000000000000000000000000000000000000000000000000000000000000000000000000000000000000000000000000000000N 00000000000NCONT   00    00000000000          00000000000000000000000000000000000000000000 000000000000000A000000000000000000000000000000000000000000000 000000000000000000000000000000000000000     00000000                                                                                                                        000000000000000000
F0010000007491100003000005204371400042505000000000000000000201508180002001MARITZA IMPORTS                                   C000000001000000000000000000000000100010010000000000000000000000F0010000007491100320150818000101 00000000000000000000000000000000000000000000000000000000000000000000000000000000000000000000000000000000000000000N 00000000000NCONT   00    00000000000          00000000000000000000000000000000000000000000 000000000000000A000000000000000000000000000000000000000000000 000000000000000000000000000000000000000     00000000                                                                                                                        000000000000000000
F0010000007491100004000005204371400023658300000000000000000201508180002001MARITZA IMPORTS                                   C000000000019200000000000000000000100010010000000000000000000000F0010000007491100420150818000101 00000000000000000000000000000000000000000000000000000000000000000000000000000000000000000000000000000000000000000N 00000000000NCONT   00    00000000000          00000000000000000000000000000000000000000000 000000000000000A000000000000000000000000000000000000000000000 000000000000000000000000000000000000000     00000000                                                                                                                        000000000000000000
F0010000007491100005000005204371400013552100000000000000000201508180002001MARITZA IMPORTS                                   D000000000019200000000000000000000100010010000000000000000000000F0010000007491100520150818000101 00000000000000000000000000000000000000000000000000000000000000000000000000000000000000000000000000000000000000000N 00000000000NCONT   00    00000000000          00000000000000000000000000000000000000000000 000000000000000A000000000000000000000000000000000000000000000 000000000000000000000000000000000000000     00000000                                                                                                                        000000000000000000
F0010000007491200001000080024994500011050500000000000000000201508180002001HILOS VENUS                                       D000000001100000000000000000000000100010010000000000000000000000F0010000007491200120150818000101 00000000000000000000000000000000000000000000000000000000000000000000000000000000000000000000000000000000000000000N 00000000000NCONT   00    00000000000          00000000000000000000000000000000000000000000 000000000000000A000000000000000000000000000000000000000000000 000000000000000000000000000000000000000     00000000                                                                                                                        000000000000000000
F0010000007491200002000080024994500041450500000000000000000201508180002001HILOS VENUS                                       C000000000900000000000000000000000100010010000000000000000000000F0010000007491200220150818000101 00000000000000000000000000000000000000000000000000000000000000000000000000000000000000000000000000000000000000000N 00000000000NCONT   00    00000000000          00000000000000000000000000000000000000000000 000000000000000A000000000000000000000000000000000000000000000 000000000000000000000000000000000000000     00000000                                                                                                                        000000000000000000
F0010000007491200003000080024994500042505000000000000000000201508180002001HILOS VENUS                                       C000000000200000000000000000000000100010010000000000000000000000F0010000007491200320150818000101 00000000000000000000000000000000000000000000000000000000000000000000000000000000000000000000000000000000000000000N 00000000000NCONT   00    00000000000          00000000000000000000000000000000000000000000 000000000000000A000000000000000000000000000000000000000000000 000000000000000000000000000000000000000     00000000                                                                                                                        000000000000000000
F0010000007491200004000080024994500023658300000000000000000201508180002001HILOS VENUS                                       C000000000007200000000000000000000100010010000000000000000000000F0010000007491200420150818000101 00000000000000000000000000000000000000000000000000000000000000000000000000000000000000000000000000000000000000000N 00000000000NCONT   00    00000000000          00000000000000000000000000000000000000000000 000000000000000A000000000000000000000000000000000000000000000 000000000000000000000000000000000000000     00000000                                                                                                                        000000000000000000
F0010000007491200005000080024994500013552100000000000000000201508180002001HILOS VENUS                                       D000000000007200000000000000000000100010010000000000000000000000F0010000007491200520150818000101 00000000000000000000000000000000000000000000000000000000000000000000000000000000000000000000000000000000000000000N 00000000000NCONT   00    00000000000          00000000000000000000000000000000000000000000 000000000000000A000000000000000000000000000000000000000000000 000000000000000000000000000000000000000     00000000                                                                                                                        000000000000000000
F0010000007491300001000080202350700011050500000000000000000201508180002001CONNY DE LA COSTA SAS                             D000000005200000000000000000000000100010010000000000000000000000F0010000007491300120150818000101 00000000000000000000000000000000000000000000000000000000000000000000000000000000000000000000000000000000000000000N 00000000000NCONT   00    00000000000          00000000000000000000000000000000000000000000 000000000000000A000000000000000000000000000000000000000000000 000000000000000000000000000000000000000     00000000                                                                                                                        000000000000000000
F0010000007491300002000080202350700041450500000000000000000201508180002001CONNY DE LA COSTA SAS                             C000000004000000000000000000000000100010010000000000000000000000F0010000007491300220150818000101 00000000000000000000000000000000000000000000000000000000000000000000000000000000000000000000000000000000000000000N 00000000000NCONT   00    00000000000          00000000000000000000000000000000000000000000 000000000000000A000000000000000000000000000000000000000000000 000000000000000000000000000000000000000     00000000                                                                                                                        000000000000000000
