F0010000009409300001000089011193000011050500000000000000000201611120002001DOQUIMICA DE LA COSTA LT DA                       D000000004500000000000000000000000100010010000000000000000000000F0019409300120161112000101 00000000000000000000000000000000000000000000000000000000000000000000000000000000000000000000000000000000000000000N 00000000000NCONT   00    00000000000          00000000000000000000000000000000000000000000 000000000000000A000000000000000000000000000000000000000000000 000000000000000000000000000000000000000     00000000                                                                                                                        000000000000000000
F0010000009409300002000089011193000041450500000000000000000201611120002001DOQUIMICA DE LA COSTA LT DA                       C000000004400000000000000000000000100010010000000000000000000000F0019409300220161112000101 00000000000000000000000000000000000000000000000000000000000000000000000000000000000000000000000000000000000000000N 00000000000NCONT   00    00000000000          00000000000000000000000000000000000000000000 000000000000000A000000000000000000000000000000000000000000000 000000000000000000000000000000000000000     00000000                                                                                                                        000000000000000000
F0010000009409300003000089011193000042505000000000000000000201611120002001DOQUIMICA DE LA COSTA LT DA                       C000000000100000000000000000000000100010010000000000000000000000F0019409300320161112000101 00000000000000000000000000000000000000000000000000000000000000000000000000000000000000000000000000000000000000000N 00000000000NCONT   00    00000000000          00000000000000000000000000000000000000000000 000000000000000A000000000000000000000000000000000000000000000 000000000000000000000000000000000000000     00000000                                                                                                                        000000000000000000
F0010000009409300004000089011193000023658300000000000000000201611120002001DOQUIMICA DE LA COSTA LT DA                       C000000000035200000000000000000000100010010000000000000000000000F0019409300420161112000101 00000000000000000000000000000000000000000000000000000000000000000000000000000000000000000000000000000000000000000N 00000000000NCONT   00    00000000000          00000000000000000000000000000000000000000000 000000000000000A000000000000000000000000000000000000000000000 000000000000000000000000000000000000000     00000000                                                                                                                        000000000000000000
F0010000009409300005000089011193000013552100000000000000000201611120002001DOQUIMICA DE LA COSTA LT DA                       D000000000035200000000000000000000100010010000000000000000000000F0019409300520161112000101 00000000000000000000000000000000000000000000000000000000000000000000000000000000000000000000000000000000000000000N 00000000000NCONT   00    00000000000          00000000000000000000000000000000000000000000 000000000000000A000000000000000000000000000000000000000000000 000000000000000000000000000000000000000     00000000                                                                                                                        000000000000000000
F0010000009409400001000089011584600011050500000000000000000201611120002001LABORATORIOS FARMACEUTICOS GUSDAMAR GDM LTDA      D000000003000000000000000000000000100010010000000000000000000000F0019409400120161112000101 00000000000000000000000000000000000000000000000000000000000000000000000000000000000000000000000000000000000000000N 00000000000NCONT   00    00000000000          00000000000000000000000000000000000000000000 000000000000000A000000000000000000000000000000000000000000000 000000000000000000000000000000000000000     00000000                                                                                                                        000000000000000000
F0010000009409400002000089011584600041450500000000000000000201611120002001LABORATORIOS FARMACEUTICOS GUSDAMAR GDM LTDA      C000000002900000000000000000000000100010010000000000000000000000F0019409400220161112000101 00000000000000000000000000000000000000000000000000000000000000000000000000000000000000000000000000000000000000000N 00000000000NCONT   00    00000000000          00000000000000000000000000000000000000000000 000000000000000A000000000000000000000000000000000000000000000 000000000000000000000000000000000000000     00000000                                                                                                                        000000000000000000
F0010000009409400003000089011584600042505000000000000000000201611120002001LABORATORIOS FARMACEUTICOS GUSDAMAR GDM LTDA      C000000000100000000000000000000000100010010000000000000000000000F0019409400320161112000101 00000000000000000000000000000000000000000000000000000000000000000000000000000000000000000000000000000000000000000N 00000000000NCONT   00    00000000000          00000000000000000000000000000000000000000000 000000000000000A000000000000000000000000000000000000000000000 000000000000000000000000000000000000000     00000000                                                                                                                        000000000000000000
F0010000009409400004000089011584600023658300000000000000000201611120002001LABORATORIOS FARMACEUTICOS GUSDAMAR GDM LTDA      C000000000023200000000000000000000100010010000000000000000000000F0019409400420161112000101 00000000000000000000000000000000000000000000000000000000000000000000000000000000000000000000000000000000000000000N 00000000000NCONT   00    00000000000          00000000000000000000000000000000000000000000 000000000000000A000000000000000000000000000000000000000000000 000000000000000000000000000000000000000     00000000                                                                                                                        000000000000000000
F0010000009409400005000089011584600013552100000000000000000201611120002001LABORATORIOS FARMACEUTICOS GUSDAMAR GDM LTDA      D000000000023200000000000000000000100010010000000000000000000000F0019409400520161112000101 00000000000000000000000000000000000000000000000000000000000000000000000000000000000000000000000000000000000000000N 00000000000NCONT   00    00000000000          00000000000000000000000000000000000000000000 000000000000000A000000000000000000000000000000000000000000000 000000000000000000000000000000000000000     00000000                                                                                                                        000000000000000000
F0010000009409500001000000869402400011050500000000000000000201611120002001ISRAEL MANGA                                      D000000003100000000000000000000000100010010000000000000000000000F0019409500120161112000101 00000000000000000000000000000000000000000000000000000000000000000000000000000000000000000000000000000000000000000N 00000000000NCONT   00    00000000000          00000000000000000000000000000000000000000000 000000000000000A000000000000000000000000000000000000000000000 000000000000000000000000000000000000000     00000000                                                                                                                        000000000000000000
F0010000009409500002000000869402400041450500000000000000000201611120002001ISRAEL MANGA                                      C000000002400000000000000000000000100010010000000000000000000000F0019409500220161112000101 00000000000000000000000000000000000000000000000000000000000000000000000000000000000000000000000000000000000000000N 00000000000NCONT   00    00000000000          00000000000000000000000000000000000000000000 000000000000000A000000000000000000000000000000000000000000000 000000000000000000000000000000000000000     00000000                                                                                                                        000000000000000000
F0010000009409500003000000869402400042505000000000000000000201611120002001ISRAEL MANGA                                      C000000000700000000000000000000000100010010000000000000000000000F0019409500320161112000101 00000000000000000000000000000000000000000000000000000000000000000000000000000000000000000000000000000000000000000N 00000000000NCONT   00    00000000000          00000000000000000000000000000000000000000000 000000000000000A000000000000000000000000000000000000000000000 000000000000000000000000000000000000000     00000000                                                                                                                        000000000000000000
F0010000009409500004000000869402400023658300000000000000000201611120002001ISRAEL MANGA                                      C000000000019200000000000000000000100010010000000000000000000000F0019409500420161112000101 00000000000000000000000000000000000000000000000000000000000000000000000000000000000000000000000000000000000000000N 00000000000NCONT   00    00000000000          00000000000000000000000000000000000000000000 000000000000000A000000000000000000000000000000000000000000000 000000000000000000000000000000000000000     00000000                                                                                                                        000000000000000000
F0010000009409500005000000869402400013552100000000000000000201611120002001ISRAEL MANGA                                      D000000000019200000000000000000000100010010000000000000000000000F0019409500520161112000101 00000000000000000000000000000000000000000000000000000000000000000000000000000000000000000000000000000000000000000N 00000000000NCONT   00    00000000000          00000000000000000000000000000000000000000000 000000000000000A000000000000000000000000000000000000000000000 000000000000000000000000000000000000000     00000000                                                                                                                        000000000000000000
F0010000009409600001000000869402400011050500000000000000000201611120002001ISRAEL MANGA                                      D000000002950000000000000000000000100010010000000000000000000000F0019409600120161112000101 00000000000000000000000000000000000000000000000000000000000000000000000000000000000000000000000000000000000000000N 00000000000NCONT   00    00000000000          00000000000000000000000000000000000000000000 000000000000000A000000000000000000000000000000000000000000000 000000000000000000000000000000000000000     00000000                                                                                                                        000000000000000000
F0010000009409600002000000869402400041450500000000000000000201611120002001ISRAEL MANGA                                      C000000002400000000000000000000000100010010000000000000000000000F0019409600220161112000101 00000000000000000000000000000000000000000000000000000000000000000000000000000000000000000000000000000000000000000N 00000000000NCONT   00    00000000000          00000000000000000000000000000000000000000000 000000000000000A000000000000000000000000000000000000000000000 000000000000000000000000000000000000000     00000000                                                                                                                        000000000000000000
F0010000009409600003000000869402400042505000000000000000000201611120002001ISRAEL MANGA                                      C000000000550000000000000000000000100010010000000000000000000000F0019409600320161112000101 00000000000000000000000000000000000000000000000000000000000000000000000000000000000000000000000000000000000000000N 00000000000NCONT   00    00000000000          00000000000000000000000000000000000000000000 000000000000000A000000000000000000000000000000000000000000000 000000000000000000000000000000000000000     00000000                                                                                                                        000000000000000000
F0010000009409600004000000869402400023658300000000000000000201611120002001ISRAEL MANGA                                      C000000000019200000000000000000000100010010000000000000000000000F0019409600420161112000101 00000000000000000000000000000000000000000000000000000000000000000000000000000000000000000000000000000000000000000N 00000000000NCONT   00    00000000000          00000000000000000000000000000000000000000000 000000000000000A000000000000000000000000000000000000000000000 000000000000000000000000000000000000000     00000000                                                                                                                        000000000000000000
F0010000009409600005000000869402400013552100000000000000000201611120002001ISRAEL MANGA                                      D000000000019200000000000000000000100010010000000000000000000000F0019409600520161112000101 00000000000000000000000000000000000000000000000000000000000000000000000000000000000000000000000000000000000000000N 00000000000NCONT   00    00000000000          00000000000000000000000000000000000000000000 000000000000000A000000000000000000000000000000000000000000000 000000000000000000000000000000000000000     00000000                                                                                                                        000000000000000000
F0010000009409700001000007179694900011050500000000000000000201611120002001JOSE RODRIGO GOMEZ DELGADO (EL MANTELERO)         D000000002000000000000000000000000100010010000000000000000000000F0019409700120161112000101 00000000000000000000000000000000000000000000000000000000000000000000000000000000000000000000000000000000000000000N 00000000000NCONT   00    00000000000          00000000000000000000000000000000000000000000 000000000000000A000000000000000000000000000000000000000000000 000000000000000000000000000000000000000     00000000                                                                                                                        000000000000000000
F0010000009409700002000007179694900041450500000000000000000201611120002001JOSE RODRIGO GOMEZ DELGADO (EL MANTELERO)         C000000001300000000000000000000000100010010000000000000000000000F0019409700220161112000101 00000000000000000000000000000000000000000000000000000000000000000000000000000000000000000000000000000000000000000N 00000000000NCONT   00    00000000000          00000000000000000000000000000000000000000000 000000000000000A000000000000000000000000000000000000000000000 000000000000000000000000000000000000000     00000000                                                                                                                        000000000000000000
F0010000009409700003000007179694900042505000000000000000000201611120002001JOSE RODRIGO GOMEZ DELGADO (EL MANTELERO)         C000000000700000000000000000000000100010010000000000000000000000F0019409700320161112000101 00000000000000000000000000000000000000000000000000000000000000000000000000000000000000000000000000000000000000000N 00000000000NCONT   00    00000000000          00000000000000000000000000000000000000000000 000000000000000A000000000000000000000000000000000000000000000 000000000000000000000000000000000000000     00000000                                                                                                                        000000000000000000
F0010000009409700004000007179694900023658300000000000000000201611120002001JOSE RODRIGO GOMEZ DELGADO (EL MANTELERO)         C000000000010400000000000000000000100010010000000000000000000000F0019409700420161112000101 00000000000000000000000000000000000000000000000000000000000000000000000000000000000000000000000000000000000000000N 00000000000NCONT   00    00000000000          00000000000000000000000000000000000000000000 000000000000000A000000000000000000000000000000000000000000000 000000000000000000000000000000000000000     00000000                                                                                                                        000000000000000000
F0010000009409700005000007179694900013552100000000000000000201611120002001JOSE RODRIGO GOMEZ DELGADO (EL MANTELERO)         D000000000010400000000000000000000100010010000000000000000000000F0019409700520161112000101 00000000000000000000000000000000000000000000000000000000000000000000000000000000000000000000000000000000000000000N 00000000000NCONT   00    00000000000          00000000000000000000000000000000000000000000 000000000000000A000000000000000000000000000000000000000000000 000000000000000000000000000000000000000     00000000                                                                                                                        000000000000000000
F0010000009409800001000090040615800011050500000000000000000201611120002001EMPAQUES INDUSTRIALES DE COLOMBIA                 D000000032000000000000000000000000100010010000000000000000000000F0019409800120161112000101 00000000000000000000000000000000000000000000000000000000000000000000000000000000000000000000000000000000000000000N 00000000000NCONT   00    00000000000          00000000000000000000000000000000000000000000 000000000000000A000000000000000000000000000000000000000000000 000000000000000000000000000000000000000     00000000                                                                                                                        000000000000000000
F0010000009409800002000090040615800041450500000000000000000201611120002001EMPAQUES INDUSTRIALES DE COLOMBIA                 C000000028000000000000000000000000100010010000000000000000000000F0019409800220161112000101 00000000000000000000000000000000000000000000000000000000000000000000000000000000000000000000000000000000000000000N 00000000000NCONT   00    00000000000          00000000000000000000000000000000000000000000 000000000000000A000000000000000000000000000000000000000000000 000000000000000000000000000000000000000     00000000                                                                                                                        000000000000000000
F0010000009409800003000090040615800042505000000000000000000201611120002001EMPAQUES INDUSTRIALES DE COLOMBIA                 C000000004000000000000000000000000100010010000000000000000000000F0019409800320161112000101 00000000000000000000000000000000000000000000000000000000000000000000000000000000000000000000000000000000000000000N 00000000000NCONT   00    00000000000          00000000000000000000000000000000000000000000 000000000000000A000000000000000000000000000000000000000000000 000000000000000000000000000000000000000     00000000                                                                                                                        000000000000000000
F0010000009409800004000090040615800023658300000000000000000201611120002001EMPAQUES INDUSTRIALES DE COLOMBIA                 C000000000224000000000000000000000100010010000000000000000000000F0019409800420161112000101 00000000000000000000000000000000000000000000000000000000000000000000000000000000000000000000000000000000000000000N 00000000000NCONT   00    00000000000          00000000000000000000000000000000000000000000 000000000000000A000000000000000000000000000000000000000000000 000000000000000000000000000000000000000     00000000                                                                                                                        000000000000000000
F0010000009409800005000090040615800013552100000000000000000201611120002001EMPAQUES INDUSTRIALES DE COLOMBIA                 D000000000224000000000000000000000100010010000000000000000000000F0019409800520161112000101 00000000000000000000000000000000000000000000000000000000000000000000000000000000000000000000000000000000000000000N 00000000000NCONT   00    00000000000          00000000000000000000000000000000000000000000 000000000000000A000000000000000000000000000000000000000000000 000000000000000000000000000000000000000     00000000                                                                                                                        000000000000000000
F0010000009409900001000007911475600011050500000000000000000201611120002001ALVARO DE JESUS ROJAS SOLANO                      D000000007000000000000000000000000100010010000000000000000000000F0019409900120161112000101 00000000000000000000000000000000000000000000000000000000000000000000000000000000000000000000000000000000000000000N 00000000000NCONT   00    00000000000          00000000000000000000000000000000000000000000 000000000000000A000000000000000000000000000000000000000000000 000000000000000000000000000000000000000     00000000                                                                                                                        000000000000000000
F0010000009409900002000007911475600041450500000000000000000201611120002001ALVARO DE JESUS ROJAS SOLANO                      C000000006500000000000000000000000100010010000000000000000000000F0019409900220161112000101 00000000000000000000000000000000000000000000000000000000000000000000000000000000000000000000000000000000000000000N 00000000000NCONT   00    00000000000          00000000000000000000000000000000000000000000 000000000000000A000000000000000000000000000000000000000000000 000000000000000000000000000000000000000     00000000                                                                                                                        000000000000000000
F0010000009409900003000007911475600042505000000000000000000201611120002001ALVARO DE JESUS ROJAS SOLANO                      C000000000500000000000000000000000100010010000000000000000000000F0019409900320161112000101 00000000000000000000000000000000000000000000000000000000000000000000000000000000000000000000000000000000000000000N 00000000000NCONT   00    00000000000          00000000000000000000000000000000000000000000 000000000000000A000000000000000000000000000000000000000000000 000000000000000000000000000000000000000     00000000                                                                                                                        000000000000000000
F0010000009409900004000007911475600023658300000000000000000201611120002001ALVARO DE JESUS ROJAS SOLANO                      C000000000052000000000000000000000100010010000000000000000000000F0019409900420161112000101 00000000000000000000000000000000000000000000000000000000000000000000000000000000000000000000000000000000000000000N 00000000000NCONT   00    00000000000          00000000000000000000000000000000000000000000 000000000000000A000000000000000000000000000000000000000000000 000000000000000000000000000000000000000     00000000                                                                                                                        000000000000000000
F0010000009409900005000007911475600013552100000000000000000201611120002001ALVARO DE JESUS ROJAS SOLANO                      D000000000052000000000000000000000100010010000000000000000000000F0019409900520161112000101 00000000000000000000000000000000000000000000000000000000000000000000000000000000000000000000000000000000000000000N 00000000000NCONT   00    00000000000          00000000000000000000000000000000000000000000 000000000000000A000000000000000000000000000000000000000000000 000000000000000000000000000000000000000     00000000                                                                                                                        000000000000000000
F0010000009410000001000090094396300011050500000000000000000201611120002001CERRAMIENTOS PERIMETRALES SAS                     D000000008000000000000000000000000100010010000000000000000000000F0019410000120161112000101 00000000000000000000000000000000000000000000000000000000000000000000000000000000000000000000000000000000000000000N 00000000000NCONT   00    00000000000          00000000000000000000000000000000000000000000 000000000000000A000000000000000000000000000000000000000000000 000000000000000000000000000000000000000     00000000                                                                                                                        000000000000000000
F0010000009410000002000090094396300041450500000000000000000201611120002001CERRAMIENTOS PERIMETRALES SAS                     C000000007400000000000000000000000100010010000000000000000000000F0019410000220161112000101 00000000000000000000000000000000000000000000000000000000000000000000000000000000000000000000000000000000000000000N 00000000000NCONT   00    00000000000          00000000000000000000000000000000000000000000 000000000000000A000000000000000000000000000000000000000000000 000000000000000000000000000000000000000     00000000                                                                                                                        000000000000000000
F0010000009410000003000090094396300042505000000000000000000201611120002001CERRAMIENTOS PERIMETRALES SAS                     C000000000600000000000000000000000100010010000000000000000000000F0019410000320161112000101 00000000000000000000000000000000000000000000000000000000000000000000000000000000000000000000000000000000000000000N 00000000000NCONT   00    00000000000          00000000000000000000000000000000000000000000 000000000000000A000000000000000000000000000000000000000000000 000000000000000000000000000000000000000     00000000                                                                                                                        000000000000000000
F0010000009410000004000090094396300023658300000000000000000201611120002001CERRAMIENTOS PERIMETRALES SAS                     C000000000059200000000000000000000100010010000000000000000000000F0019410000420161112000101 00000000000000000000000000000000000000000000000000000000000000000000000000000000000000000000000000000000000000000N 00000000000NCONT   00    00000000000          00000000000000000000000000000000000000000000 000000000000000A000000000000000000000000000000000000000000000 000000000000000000000000000000000000000     00000000                                                                                                                        000000000000000000
F0010000009410000005000090094396300013552100000000000000000201611120002001CERRAMIENTOS PERIMETRALES SAS                     D000000000059200000000000000000000100010010000000000000000000000F0019410000520161112000101 00000000000000000000000000000000000000000000000000000000000000000000000000000000000000000000000000000000000000000N 00000000000NCONT   00    00000000000          00000000000000000000000000000000000000000000 000000000000000A000000000000000000000000000000000000000000000 000000000000000000000000000000000000000     00000000                                                                                                                        000000000000000000
F0010000009410100001000090050144800011050500000000000000000201611120002001PLASTICOS JR ASOCIADOS SAS                        D000000002100000000000000000000000100010010000000000000000000000F0019410100120161112000101 00000000000000000000000000000000000000000000000000000000000000000000000000000000000000000000000000000000000000000N 00000000000NCONT   00    00000000000          00000000000000000000000000000000000000000000 000000000000000A000000000000000000000000000000000000000000000 000000000000000000000000000000000000000     00000000                                                                                                                        000000000000000000
F0010000009410100002000090050144800041450500000000000000000201611120002001PLASTICOS JR ASOCIADOS SAS                        C000000001900000000000000000000000100010010000000000000000000000F0019410100220161112000101 00000000000000000000000000000000000000000000000000000000000000000000000000000000000000000000000000000000000000000N 00000000000NCONT   00    00000000000          00000000000000000000000000000000000000000000 000000000000000A000000000000000000000000000000000000000000000 000000000000000000000000000000000000000     00000000                                                                                                                        000000000000000000
F0010000009410100003000090050144800042505000000000000000000201611120002001PLASTICOS JR ASOCIADOS SAS                        C000000000200000000000000000000000100010010000000000000000000000F0019410100320161112000101 00000000000000000000000000000000000000000000000000000000000000000000000000000000000000000000000000000000000000000N 00000000000NCONT   00    00000000000          00000000000000000000000000000000000000000000 000000000000000A000000000000000000000000000000000000000000000 000000000000000000000000000000000000000     00000000                                                                                                                        000000000000000000
F0010000009410100004000090050144800023658300000000000000000201611120002001PLASTICOS JR ASOCIADOS SAS                        C000000000015200000000000000000000100010010000000000000000000000F0019410100420161112000101 00000000000000000000000000000000000000000000000000000000000000000000000000000000000000000000000000000000000000000N 00000000000NCONT   00    00000000000          00000000000000000000000000000000000000000000 000000000000000A000000000000000000000000000000000000000000000 000000000000000000000000000000000000000     00000000                                                                                                                        000000000000000000
F0010000009410100005000090050144800013552100000000000000000201611120002001PLASTICOS JR ASOCIADOS SAS                        D000000000015200000000000000000000100010010000000000000000000000F0019410100520161112000101 00000000000000000000000000000000000000000000000000000000000000000000000000000000000000000000000000000000000000000N 00000000000NCONT   00    00000000000          00000000000000000000000000000000000000000000 000000000000000A000000000000000000000000000000000000000000000 000000000000000000000000000000000000000     00000000                                                                                                                        000000000000000000
F0010000009410200001000006455821900011050500000000000000000201611120002001YOLIMA PEREZ REINOSO                              D000000001100000000000000000000000100010010000000000000000000000F0019410200120161112000101 00000000000000000000000000000000000000000000000000000000000000000000000000000000000000000000000000000000000000000N 00000000000NCONT   00    00000000000          00000000000000000000000000000000000000000000 000000000000000A000000000000000000000000000000000000000000000 000000000000000000000000000000000000000     00000000                                                                                                                        000000000000000000
F0010000009410200002000006455821900041450500000000000000000201611120002001YOLIMA PEREZ REINOSO                              C000000001000000000000000000000000100010010000000000000000000000F0019410200220161112000101 00000000000000000000000000000000000000000000000000000000000000000000000000000000000000000000000000000000000000000N 00000000000NCONT   00    00000000000          00000000000000000000000000000000000000000000 000000000000000A000000000000000000000000000000000000000000000 000000000000000000000000000000000000000     00000000                                                                                                                        000000000000000000
F0010000009410200003000006455821900042505000000000000000000201611120002001YOLIMA PEREZ REINOSO                              C000000000100000000000000000000000100010010000000000000000000000F0019410200320161112000101 00000000000000000000000000000000000000000000000000000000000000000000000000000000000000000000000000000000000000000N 00000000000NCONT   00    00000000000          00000000000000000000000000000000000000000000 000000000000000A000000000000000000000000000000000000000000000 000000000000000000000000000000000000000     00000000                                                                                                                        000000000000000000
F0010000009410200004000006455821900023658300000000000000000201611120002001YOLIMA PEREZ REINOSO                              C000000000008000000000000000000000100010010000000000000000000000F0019410200420161112000101 00000000000000000000000000000000000000000000000000000000000000000000000000000000000000000000000000000000000000000N 00000000000NCONT   00    00000000000          00000000000000000000000000000000000000000000 000000000000000A000000000000000000000000000000000000000000000 000000000000000000000000000000000000000     00000000                                                                                                                        000000000000000000
F0010000009410200005000006455821900013552100000000000000000201611120002001YOLIMA PEREZ REINOSO                              D000000000008000000000000000000000100010010000000000000000000000F0019410200520161112000101 00000000000000000000000000000000000000000000000000000000000000000000000000000000000000000000000000000000000000000N 00000000000NCONT   00    00000000000          00000000000000000000000000000000000000000000 000000000000000A000000000000000000000000000000000000000000000 000000000000000000000000000000000000000     00000000                                                                                                                        000000000000000000
F0010000009410300001000089010038800011050500000000000000000201611120002001CRISTALERIA SELMAN SAS                            D000000002700000000000000000000000100010010000000000000000000000F0019410300120161112000101 00000000000000000000000000000000000000000000000000000000000000000000000000000000000000000000000000000000000000000N 00000000000NCONT   00    00000000000          00000000000000000000000000000000000000000000 000000000000000A000000000000000000000000000000000000000000000 000000000000000000000000000000000000000     00000000                                                                                                                        000000000000000000
F0010000009410300002000089010038800041450500000000000000000201611120002001CRISTALERIA SELMAN SAS                            C000000002400000000000000000000000100010010000000000000000000000F0019410300220161112000101 00000000000000000000000000000000000000000000000000000000000000000000000000000000000000000000000000000000000000000N 00000000000NCONT   00    00000000000          00000000000000000000000000000000000000000000 000000000000000A000000000000000000000000000000000000000000000 000000000000000000000000000000000000000     00000000                                                                                                                        000000000000000000
F0010000009410300003000089010038800042505000000000000000000201611120002001CRISTALERIA SELMAN SAS                            C000000000300000000000000000000000100010010000000000000000000000F0019410300320161112000101 00000000000000000000000000000000000000000000000000000000000000000000000000000000000000000000000000000000000000000N 00000000000NCONT   00    00000000000          00000000000000000000000000000000000000000000 000000000000000A000000000000000000000000000000000000000000000 000000000000000000000000000000000000000     00000000                                                                                                                        000000000000000000
F0010000009410300004000089010038800023658300000000000000000201611120002001CRISTALERIA SELMAN SAS                            C000000000019200000000000000000000100010010000000000000000000000F0019410300420161112000101 00000000000000000000000000000000000000000000000000000000000000000000000000000000000000000000000000000000000000000N 00000000000NCONT   00    00000000000          00000000000000000000000000000000000000000000 000000000000000A000000000000000000000000000000000000000000000 000000000000000000000000000000000000000     00000000                                                                                                                        000000000000000000
F0010000009410300005000089010038800013552100000000000000000201611120002001CRISTALERIA SELMAN SAS                            D000000000019200000000000000000000100010010000000000000000000000F0019410300520161112000101 00000000000000000000000000000000000000000000000000000000000000000000000000000000000000000000000000000000000000000N 00000000000NCONT   00    00000000000          00000000000000000000000000000000000000000000 000000000000000A000000000000000000000000000000000000000000000 000000000000000000000000000000000000000     00000000                                                                                                                        000000000000000000
F0010000009410400001000001022529300011050500000000000000000201611120002001ALBERTO ALVAREZ ISAZA                             D000000004354400000000000000000000100010010000000000000000000000F0019410400120161112000101 00000000000000000000000000000000000000000000000000000000000000000000000000000000000000000000000000000000000000000N 00000000000NCONT   00    00000000000          00000000000000000000000000000000000000000000 000000000000000A000000000000000000000000000000000000000000000 000000000000000000000000000000000000000     00000000                                                                                                                        000000000000000000
F0010000009410400002000001022529300041450500000000000000000201611120002001ALBERTO ALVAREZ ISAZA                             C000000003940000000000000000000000100010010000000000000000000000F0019410400220161112000101 00000000000000000000000000000000000000000000000000000000000000000000000000000000000000000000000000000000000000000N 00000000000NCONT   00    00000000000          00000000000000000000000000000000000000000000 000000000000000A000000000000000000000000000000000000000000000 000000000000000000000000000000000000000     00000000                                                                                                                        000000000000000000
F0010000009410400003000001022529300042505000000000000000000201611120002001ALBERTO ALVAREZ ISAZA                             C000000000414400000000000000000000100010010000000000000000000000F0019410400320161112000101 00000000000000000000000000000000000000000000000000000000000000000000000000000000000000000000000000000000000000000N 00000000000NCONT   00    00000000000          00000000000000000000000000000000000000000000 000000000000000A000000000000000000000000000000000000000000000 000000000000000000000000000000000000000     00000000                                                                                                                        000000000000000000
F0010000009410400004000001022529300023658300000000000000000201611120002001ALBERTO ALVAREZ ISAZA                             C000000000031500000000000000000000100010010000000000000000000000F0019410400420161112000101 00000000000000000000000000000000000000000000000000000000000000000000000000000000000000000000000000000000000000000N 00000000000NCONT   00    00000000000          00000000000000000000000000000000000000000000 000000000000000A000000000000000000000000000000000000000000000 000000000000000000000000000000000000000     00000000                                                                                                                        000000000000000000
F0010000009410400005000001022529300013552100000000000000000201611120002001ALBERTO ALVAREZ ISAZA                             D000000000031500000000000000000000100010010000000000000000000000F0019410400520161112000101 00000000000000000000000000000000000000000000000000000000000000000000000000000000000000000000000000000000000000000N 00000000000NCONT   00    00000000000          00000000000000000000000000000000000000000000 000000000000000A000000000000000000000000000000000000000000000 000000000000000000000000000000000000000     00000000                                                                                                                        000000000000000000
F0010000009410500001000001022529300011050500000000000000000201611120002001ALBERTO ALVAREZ ISAZA                             D000000000700000000000000000000000100010010000000000000000000000F0019410500120161112000101 00000000000000000000000000000000000000000000000000000000000000000000000000000000000000000000000000000000000000000N 00000000000NCONT   00    00000000000          00000000000000000000000000000000000000000000 000000000000000A000000000000000000000000000000000000000000000 000000000000000000000000000000000000000     00000000                                                                                                                        000000000000000000
F0010000009410500002000001022529300041450500000000000000000201611120002001ALBERTO ALVAREZ ISAZA                             C000000000700000000000000000000000100010010000000000000000000000F0019410500220161112000101 00000000000000000000000000000000000000000000000000000000000000000000000000000000000000000000000000000000000000000N 00000000000NCONT   00    00000000000          00000000000000000000000000000000000000000000 000000000000000A000000000000000000000000000000000000000000000 000000000000000000000000000000000000000     00000000                                                                                                                        000000000000000000
F0010000009410500003000001022529300042505000000000000000000201611120002001ALBERTO ALVAREZ ISAZA                             C000000000000000000000000000000000100010010000000000000000000000F0019410500320161112000101 00000000000000000000000000000000000000000000000000000000000000000000000000000000000000000000000000000000000000000N 00000000000NCONT   00    00000000000          00000000000000000000000000000000000000000000 000000000000000A000000000000000000000000000000000000000000000 000000000000000000000000000000000000000     00000000                                                                                                                        000000000000000000
F0010000009410500004000001022529300023658300000000000000000201611120002001ALBERTO ALVAREZ ISAZA                             C000000000005600000000000000000000100010010000000000000000000000F0019410500420161112000101 00000000000000000000000000000000000000000000000000000000000000000000000000000000000000000000000000000000000000000N 00000000000NCONT   00    00000000000          00000000000000000000000000000000000000000000 000000000000000A000000000000000000000000000000000000000000000 000000000000000000000000000000000000000     00000000                                                                                                                        000000000000000000
F0010000009410500005000001022529300013552100000000000000000201611120002001ALBERTO ALVAREZ ISAZA                             D000000000005600000000000000000000100010010000000000000000000000F0019410500520161112000101 00000000000000000000000000000000000000000000000000000000000000000000000000000000000000000000000000000000000000000N 00000000000NCONT   00    00000000000          00000000000000000000000000000000000000000000 000000000000000A000000000000000000000000000000000000000000000 000000000000000000000000000000000000000     00000000                                                                                                                        000000000000000000
F0010000009410600001000002245670100011050500000000000000000201611120002001YOLANDA  TOBON                                    D000000003300000000000000000000000100010010000000000000000000000F0019410600120161112000101 00000000000000000000000000000000000000000000000000000000000000000000000000000000000000000000000000000000000000000N 00000000000NCONT   00    00000000000          00000000000000000000000000000000000000000000 000000000000000A000000000000000000000000000000000000000000000 000000000000000000000000000000000000000     00000000                                                                                                                        000000000000000000
F0010000009410600002000002245670100041450500000000000000000201611120002001YOLANDA  TOBON                                    C000000002400000000000000000000000100010010000000000000000000000F0019410600220161112000101 00000000000000000000000000000000000000000000000000000000000000000000000000000000000000000000000000000000000000000N 00000000000NCONT   00    00000000000          00000000000000000000000000000000000000000000 000000000000000A000000000000000000000000000000000000000000000 000000000000000000000000000000000000000     00000000                                                                                                                        000000000000000000
F0010000009410600003000002245670100042505000000000000000000201611120002001YOLANDA  TOBON                                    C000000000900000000000000000000000100010010000000000000000000000F0019410600320161112000101 00000000000000000000000000000000000000000000000000000000000000000000000000000000000000000000000000000000000000000N 00000000000NCONT   00    00000000000          00000000000000000000000000000000000000000000 000000000000000A000000000000000000000000000000000000000000000 000000000000000000000000000000000000000     00000000                                                                                                                        000000000000000000
F0010000009410600004000002245670100023658300000000000000000201611120002001YOLANDA  TOBON                                    C000000000019200000000000000000000100010010000000000000000000000F0019410600420161112000101 00000000000000000000000000000000000000000000000000000000000000000000000000000000000000000000000000000000000000000N 00000000000NCONT   00    00000000000          00000000000000000000000000000000000000000000 000000000000000A000000000000000000000000000000000000000000000 000000000000000000000000000000000000000     00000000                                                                                                                        000000000000000000
F0010000009410600005000002245670100013552100000000000000000201611120002001YOLANDA  TOBON                                    D000000000019200000000000000000000100010010000000000000000000000F0019410600520161112000101 00000000000000000000000000000000000000000000000000000000000000000000000000000000000000000000000000000000000000000N 00000000000NCONT   00    00000000000          00000000000000000000000000000000000000000000 000000000000000A000000000000000000000000000000000000000000000 000000000000000000000000000000000000000     00000000                                                                                                                        000000000000000000
F0010000009410700001000080202350700011050500000000000000000201611120002001CONNY DE LA COSTA SAS                             D000000002000000000000000000000000100010010000000000000000000000F0019410700120161112000101 00000000000000000000000000000000000000000000000000000000000000000000000000000000000000000000000000000000000000000N 00000000000NCONT   00    00000000000          00000000000000000000000000000000000000000000 000000000000000A000000000000000000000000000000000000000000000 000000000000000000000000000000000000000     00000000                                                                                                                        000000000000000000
F0010000009410700002000080202350700041450500000000000000000201611120002001CONNY DE LA COSTA SAS                             C000000001900000000000000000000000100010010000000000000000000000F0019410700220161112000101 00000000000000000000000000000000000000000000000000000000000000000000000000000000000000000000000000000000000000000N 00000000000NCONT   00    00000000000          00000000000000000000000000000000000000000000 000000000000000A000000000000000000000000000000000000000000000 000000000000000000000000000000000000000     00000000                                                                                                                        000000000000000000
F0010000009410700003000080202350700042505000000000000000000201611120002001CONNY DE LA COSTA SAS                             C000000000100000000000000000000000100010010000000000000000000000F0019410700320161112000101 00000000000000000000000000000000000000000000000000000000000000000000000000000000000000000000000000000000000000000N 00000000000NCONT   00    00000000000          00000000000000000000000000000000000000000000 000000000000000A000000000000000000000000000000000000000000000 000000000000000000000000000000000000000     00000000                                                                                                                        000000000000000000
F0010000009410700004000080202350700023658300000000000000000201611120002001CONNY DE LA COSTA SAS                             C000000000015200000000000000000000100010010000000000000000000000F0019410700420161112000101 00000000000000000000000000000000000000000000000000000000000000000000000000000000000000000000000000000000000000000N 00000000000NCONT   00    00000000000          00000000000000000000000000000000000000000000 000000000000000A000000000000000000000000000000000000000000000 000000000000000000000000000000000000000     00000000                                                                                                                        000000000000000000
F0010000009410700005000080202350700013552100000000000000000201611120002001CONNY DE LA COSTA SAS                             D000000000015200000000000000000000100010010000000000000000000000F0019410700520161112000101 00000000000000000000000000000000000000000000000000000000000000000000000000000000000000000000000000000000000000000N 00000000000NCONT   00    00000000000          00000000000000000000000000000000000000000000 000000000000000A000000000000000000000000000000000000000000000 000000000000000000000000000000000000000     00000000                                                                                                                        000000000000000000
F0010000009410800001000007225511500011050500000000000000000201611120002001MAIGEL CHADID                                     D000000004000000000000000000000000100010010000000000000000000000F0019410800120161112000101 00000000000000000000000000000000000000000000000000000000000000000000000000000000000000000000000000000000000000000N 00000000000NCONT   00    00000000000          00000000000000000000000000000000000000000000 000000000000000A000000000000000000000000000000000000000000000 000000000000000000000000000000000000000     00000000                                                                                                                        000000000000000000
F0010000009410800002000007225511500041450500000000000000000201611120002001MAIGEL CHADID                                     C000000003300000000000000000000000100010010000000000000000000000F0019410800220161112000101 00000000000000000000000000000000000000000000000000000000000000000000000000000000000000000000000000000000000000000N 00000000000NCONT   00    00000000000          00000000000000000000000000000000000000000000 000000000000000A000000000000000000000000000000000000000000000 000000000000000000000000000000000000000     00000000                                                                                                                        000000000000000000
F0010000009410800003000007225511500042505000000000000000000201611120002001MAIGEL CHADID                                     C000000000700000000000000000000000100010010000000000000000000000F0019410800320161112000101 00000000000000000000000000000000000000000000000000000000000000000000000000000000000000000000000000000000000000000N 00000000000NCONT   00    00000000000          00000000000000000000000000000000000000000000 000000000000000A000000000000000000000000000000000000000000000 000000000000000000000000000000000000000     00000000                                                                                                                        000000000000000000
F0010000009410800004000007225511500023658300000000000000000201611120002001MAIGEL CHADID                                     C000000000026400000000000000000000100010010000000000000000000000F0019410800420161112000101 00000000000000000000000000000000000000000000000000000000000000000000000000000000000000000000000000000000000000000N 00000000000NCONT   00    00000000000          00000000000000000000000000000000000000000000 000000000000000A000000000000000000000000000000000000000000000 000000000000000000000000000000000000000     00000000                                                                                                                        000000000000000000
F0010000009410800005000007225511500013552100000000000000000201611120002001MAIGEL CHADID                                     D000000000026400000000000000000000100010010000000000000000000000F0019410800520161112000101 00000000000000000000000000000000000000000000000000000000000000000000000000000000000000000000000000000000000000000N 00000000000NCONT   00    00000000000          00000000000000000000000000000000000000000000 000000000000000A000000000000000000000000000000000000000000000 000000000000000000000000000000000000000     00000000                                                                                                                        000000000000000000
F0010000009410900001000003289711700011050500000000000000000201611120002001DORYS INSIGNARES                                  D000000001100000000000000000000000100010010000000000000000000000F0019410900120161112000101 00000000000000000000000000000000000000000000000000000000000000000000000000000000000000000000000000000000000000000N 00000000000NCONT   00    00000000000          00000000000000000000000000000000000000000000 000000000000000A000000000000000000000000000000000000000000000 000000000000000000000000000000000000000     00000000                                                                                                                        000000000000000000
F0010000009410900002000003289711700041450500000000000000000201611120002001DORYS INSIGNARES                                  C000000000900000000000000000000000100010010000000000000000000000F0019410900220161112000101 00000000000000000000000000000000000000000000000000000000000000000000000000000000000000000000000000000000000000000N 00000000000NCONT   00    00000000000          00000000000000000000000000000000000000000000 000000000000000A000000000000000000000000000000000000000000000 000000000000000000000000000000000000000     00000000                                                                                                                        000000000000000000
F0010000009410900003000003289711700042505000000000000000000201611120002001DORYS INSIGNARES                                  C000000000200000000000000000000000100010010000000000000000000000F0019410900320161112000101 00000000000000000000000000000000000000000000000000000000000000000000000000000000000000000000000000000000000000000N 00000000000NCONT   00    00000000000          00000000000000000000000000000000000000000000 000000000000000A000000000000000000000000000000000000000000000 000000000000000000000000000000000000000     00000000                                                                                                                        000000000000000000
F0010000009410900004000003289711700023658300000000000000000201611120002001DORYS INSIGNARES                                  C000000000007200000000000000000000100010010000000000000000000000F0019410900420161112000101 00000000000000000000000000000000000000000000000000000000000000000000000000000000000000000000000000000000000000000N 00000000000NCONT   00    00000000000          00000000000000000000000000000000000000000000 000000000000000A000000000000000000000000000000000000000000000 000000000000000000000000000000000000000     00000000                                                                                                                        000000000000000000
F0010000009410900005000003289711700013552100000000000000000201611120002001DORYS INSIGNARES                                  D000000000007200000000000000000000100010010000000000000000000000F0019410900520161112000101 00000000000000000000000000000000000000000000000000000000000000000000000000000000000000000000000000000000000000000N 00000000000NCONT   00    00000000000          00000000000000000000000000000000000000000000 000000000000000A000000000000000000000000000000000000000000000 000000000000000000000000000000000000000     00000000                                                                                                                        000000000000000000
F0010000009411000001000080202350700011050500000000000000000201611120002001CONNY DE LA COSTA SAS                             D000000000500000000000000000000000100010010000000000000000000000F0019411000120161112000101 00000000000000000000000000000000000000000000000000000000000000000000000000000000000000000000000000000000000000000N 00000000000NCONT   00    00000000000          00000000000000000000000000000000000000000000 000000000000000A000000000000000000000000000000000000000000000 000000000000000000000000000000000000000     00000000                                                                                                                        000000000000000000
F0010000009411000002000080202350700041450500000000000000000201611120002001CONNY DE LA COSTA SAS                             C000000000500000000000000000000000100010010000000000000000000000F0019411000220161112000101 00000000000000000000000000000000000000000000000000000000000000000000000000000000000000000000000000000000000000000N 00000000000NCONT   00    00000000000          00000000000000000000000000000000000000000000 000000000000000A000000000000000000000000000000000000000000000 000000000000000000000000000000000000000     00000000                                                                                                                        000000000000000000
F0010000009411000003000080202350700042505000000000000000000201611120002001CONNY DE LA COSTA SAS                             C000000000000000000000000000000000100010010000000000000000000000F0019411000320161112000101 00000000000000000000000000000000000000000000000000000000000000000000000000000000000000000000000000000000000000000N 00000000000NCONT   00    00000000000          00000000000000000000000000000000000000000000 000000000000000A000000000000000000000000000000000000000000000 000000000000000000000000000000000000000     00000000                                                                                                                        000000000000000000
F0010000009411000004000080202350700023658300000000000000000201611120002001CONNY DE LA COSTA SAS                             C000000000004000000000000000000000100010010000000000000000000000F0019411000420161112000101 00000000000000000000000000000000000000000000000000000000000000000000000000000000000000000000000000000000000000000N 00000000000NCONT   00    00000000000          00000000000000000000000000000000000000000000 000000000000000A000000000000000000000000000000000000000000000 000000000000000000000000000000000000000     00000000                                                                                                                        000000000000000000
F0010000009411000005000080202350700013552100000000000000000201611120002001CONNY DE LA COSTA SAS                             D000000000004000000000000000000000100010010000000000000000000000F0019411000520161112000101 00000000000000000000000000000000000000000000000000000000000000000000000000000000000000000000000000000000000000000N 00000000000NCONT   00    00000000000          00000000000000000000000000000000000000000000 000000000000000A000000000000000000000000000000000000000000000 000000000000000000000000000000000000000     00000000                                                                                                                        000000000000000000
F0010000009411100001000080202350700011050500000000000000000201611120002001CONNY DE LA COSTA SAS                             D000000000900000000000000000000000100010010000000000000000000000F0019411100120161112000101 00000000000000000000000000000000000000000000000000000000000000000000000000000000000000000000000000000000000000000N 00000000000NCONT   00    00000000000          00000000000000000000000000000000000000000000 000000000000000A000000000000000000000000000000000000000000000 000000000000000000000000000000000000000     00000000                                                                                                                        000000000000000000
F0010000009411100002000080202350700041450500000000000000000201611120002001CONNY DE LA COSTA SAS                             C000000000850000000000000000000000100010010000000000000000000000F0019411100220161112000101 00000000000000000000000000000000000000000000000000000000000000000000000000000000000000000000000000000000000000000N 00000000000NCONT   00    00000000000          00000000000000000000000000000000000000000000 000000000000000A000000000000000000000000000000000000000000000 000000000000000000000000000000000000000     00000000                                                                                                                        000000000000000000
F0010000009411100003000080202350700042505000000000000000000201611120002001CONNY DE LA COSTA SAS                             C000000000050000000000000000000000100010010000000000000000000000F0019411100320161112000101 00000000000000000000000000000000000000000000000000000000000000000000000000000000000000000000000000000000000000000N 00000000000NCONT   00    00000000000          00000000000000000000000000000000000000000000 000000000000000A000000000000000000000000000000000000000000000 000000000000000000000000000000000000000     00000000                                                                                                                        000000000000000000
F0010000009411100004000080202350700023658300000000000000000201611120002001CONNY DE LA COSTA SAS                             C000000000006800000000000000000000100010010000000000000000000000F0019411100420161112000101 00000000000000000000000000000000000000000000000000000000000000000000000000000000000000000000000000000000000000000N 00000000000NCONT   00    00000000000          00000000000000000000000000000000000000000000 000000000000000A000000000000000000000000000000000000000000000 000000000000000000000000000000000000000     00000000                                                                                                                        000000000000000000
F0010000009411100005000080202350700013552100000000000000000201611120002001CONNY DE LA COSTA SAS                             D000000000006800000000000000000000100010010000000000000000000000F0019411100520161112000101 00000000000000000000000000000000000000000000000000000000000000000000000000000000000000000000000000000000000000000N 00000000000NCONT   00    00000000000          00000000000000000000000000000000000000000000 000000000000000A000000000000000000000000000000000000000000000 000000000000000000000000000000000000000     00000000                                                                                                                        000000000000000000
F0010000009411200001000007219765700011050500000000000000000201611120002001EDGAR MENDIVIL                                    D000000001000000000000000000000000100010010000000000000000000000F0019411200120161112000101 00000000000000000000000000000000000000000000000000000000000000000000000000000000000000000000000000000000000000000N 00000000000NCONT   00    00000000000          00000000000000000000000000000000000000000000 000000000000000A000000000000000000000000000000000000000000000 000000000000000000000000000000000000000     00000000                                                                                                                        000000000000000000
F0010000009411200002000007219765700041450500000000000000000201611120002001EDGAR MENDIVIL                                    C000000000800000000000000000000000100010010000000000000000000000F0019411200220161112000101 00000000000000000000000000000000000000000000000000000000000000000000000000000000000000000000000000000000000000000N 00000000000NCONT   00    00000000000          00000000000000000000000000000000000000000000 000000000000000A000000000000000000000000000000000000000000000 000000000000000000000000000000000000000     00000000                                                                                                                        000000000000000000
F0010000009411200003000007219765700042505000000000000000000201611120002001EDGAR MENDIVIL                                    C000000000200000000000000000000000100010010000000000000000000000F0019411200320161112000101 00000000000000000000000000000000000000000000000000000000000000000000000000000000000000000000000000000000000000000N 00000000000NCONT   00    00000000000          00000000000000000000000000000000000000000000 000000000000000A000000000000000000000000000000000000000000000 000000000000000000000000000000000000000     00000000                                                                                                                        000000000000000000
F0010000009411200004000007219765700023658300000000000000000201611120002001EDGAR MENDIVIL                                    C000000000006400000000000000000000100010010000000000000000000000F0019411200420161112000101 00000000000000000000000000000000000000000000000000000000000000000000000000000000000000000000000000000000000000000N 00000000000NCONT   00    00000000000          00000000000000000000000000000000000000000000 000000000000000A000000000000000000000000000000000000000000000 000000000000000000000000000000000000000     00000000                                                                                                                        000000000000000000
F0010000009411200005000007219765700013552100000000000000000201611120002001EDGAR MENDIVIL                                    D000000000006400000000000000000000100010010000000000000000000000F0019411200520161112000101 00000000000000000000000000000000000000000000000000000000000000000000000000000000000000000000000000000000000000000N 00000000000NCONT   00    00000000000          00000000000000000000000000000000000000000000 000000000000000A000000000000000000000000000000000000000000000 000000000000000000000000000000000000000     00000000                                                                                                                        000000000000000000
F0010000009411300001000004175790100011050500000000000000000201611120002001ROSIRIS FERIA HOYOS  (COSM. SHILLER)              D000000001000000000000000000000000100010010000000000000000000000F0019411300120161112000101 00000000000000000000000000000000000000000000000000000000000000000000000000000000000000000000000000000000000000000N 00000000000NCONT   00    00000000000          00000000000000000000000000000000000000000000 000000000000000A000000000000000000000000000000000000000000000 000000000000000000000000000000000000000     00000000                                                                                                                        000000000000000000
F0010000009411300002000004175790100041450500000000000000000201611120002001ROSIRIS FERIA HOYOS  (COSM. SHILLER)              C000000000900000000000000000000000100010010000000000000000000000F0019411300220161112000101 00000000000000000000000000000000000000000000000000000000000000000000000000000000000000000000000000000000000000000N 00000000000NCONT   00    00000000000          00000000000000000000000000000000000000000000 000000000000000A000000000000000000000000000000000000000000000 000000000000000000000000000000000000000     00000000                                                                                                                        000000000000000000
F0010000009411300003000004175790100042505000000000000000000201611120002001ROSIRIS FERIA HOYOS  (COSM. SHILLER)              C000000000100000000000000000000000100010010000000000000000000000F0019411300320161112000101 00000000000000000000000000000000000000000000000000000000000000000000000000000000000000000000000000000000000000000N 00000000000NCONT   00    00000000000          00000000000000000000000000000000000000000000 000000000000000A000000000000000000000000000000000000000000000 000000000000000000000000000000000000000     00000000                                                                                                                        000000000000000000
F0010000009411300004000004175790100023658300000000000000000201611120002001ROSIRIS FERIA HOYOS  (COSM. SHILLER)              C000000000007200000000000000000000100010010000000000000000000000F0019411300420161112000101 00000000000000000000000000000000000000000000000000000000000000000000000000000000000000000000000000000000000000000N 00000000000NCONT   00    00000000000          00000000000000000000000000000000000000000000 000000000000000A000000000000000000000000000000000000000000000 000000000000000000000000000000000000000     00000000                                                                                                                        000000000000000000
F0010000009411300005000004175790100013552100000000000000000201611120002001ROSIRIS FERIA HOYOS  (COSM. SHILLER)              D000000000007200000000000000000000100010010000000000000000000000F0019411300520161112000101 00000000000000000000000000000000000000000000000000000000000000000000000000000000000000000000000000000000000000000N 00000000000NCONT   00    00000000000          00000000000000000000000000000000000000000000 000000000000000A000000000000000000000000000000000000000000000 000000000000000000000000000000000000000     00000000                                                                                                                        000000000000000000
F0010000009411400001000002245670100011050500000000000000000201611120002001YOLANDA  TOBON                                    D000000010000000000000000000000000100010010000000000000000000000F0019411400120161112000101 00000000000000000000000000000000000000000000000000000000000000000000000000000000000000000000000000000000000000000N 00000000000NCONT   00    00000000000          00000000000000000000000000000000000000000000 000000000000000A000000000000000000000000000000000000000000000 000000000000000000000000000000000000000     00000000                                                                                                                        000000000000000000
F0010000009411400002000002245670100041450500000000000000000201611120002001YOLANDA  TOBON                                    C000000009900000000000000000000000100010010000000000000000000000F0019411400220161112000101 00000000000000000000000000000000000000000000000000000000000000000000000000000000000000000000000000000000000000000N 00000000000NCONT   00    00000000000          00000000000000000000000000000000000000000000 000000000000000A000000000000000000000000000000000000000000000 000000000000000000000000000000000000000     00000000                                                                                                                        000000000000000000
F0010000009411400003000002245670100042505000000000000000000201611120002001YOLANDA  TOBON                                    C000000000100000000000000000000000100010010000000000000000000000F0019411400320161112000101 00000000000000000000000000000000000000000000000000000000000000000000000000000000000000000000000000000000000000000N 00000000000NCONT   00    00000000000          00000000000000000000000000000000000000000000 000000000000000A000000000000000000000000000000000000000000000 000000000000000000000000000000000000000     00000000                                                                                                                        000000000000000000
F0010000009411400004000002245670100023658300000000000000000201611120002001YOLANDA  TOBON                                    C000000000079200000000000000000000100010010000000000000000000000F0019411400420161112000101 00000000000000000000000000000000000000000000000000000000000000000000000000000000000000000000000000000000000000000N 00000000000NCONT   00    00000000000          00000000000000000000000000000000000000000000 000000000000000A000000000000000000000000000000000000000000000 000000000000000000000000000000000000000     00000000                                                                                                                        000000000000000000
F0010000009411400005000002245670100013552100000000000000000201611120002001YOLANDA  TOBON                                    D000000000079200000000000000000000100010010000000000000000000000F0019411400520161112000101 00000000000000000000000000000000000000000000000000000000000000000000000000000000000000000000000000000000000000000N 00000000000NCONT   00    00000000000          00000000000000000000000000000000000000000000 000000000000000A000000000000000000000000000000000000000000000 000000000000000000000000000000000000000     00000000                                                                                                                        000000000000000000
F0010000009411500001000114323267400011050500000000000000000201611120002001LA CASA DEL TEJIDO                                D000000001400000000000000000000000100010010000000000000000000000F0019411500120161112000101 00000000000000000000000000000000000000000000000000000000000000000000000000000000000000000000000000000000000000000N 00000000000NCONT   00    00000000000          00000000000000000000000000000000000000000000 000000000000000A000000000000000000000000000000000000000000000 000000000000000000000000000000000000000     00000000                                                                                                                        000000000000000000
F0010000009411500002000114323267400041450500000000000000000201611120002001LA CASA DEL TEJIDO                                C000000001000000000000000000000000100010010000000000000000000000F0019411500220161112000101 00000000000000000000000000000000000000000000000000000000000000000000000000000000000000000000000000000000000000000N 00000000000NCONT   00    00000000000          00000000000000000000000000000000000000000000 000000000000000A000000000000000000000000000000000000000000000 000000000000000000000000000000000000000     00000000                                                                                                                        000000000000000000
F0010000009411500003000114323267400042505000000000000000000201611120002001LA CASA DEL TEJIDO                                C000000000400000000000000000000000100010010000000000000000000000F0019411500320161112000101 00000000000000000000000000000000000000000000000000000000000000000000000000000000000000000000000000000000000000000N 00000000000NCONT   00    00000000000          00000000000000000000000000000000000000000000 000000000000000A000000000000000000000000000000000000000000000 000000000000000000000000000000000000000     00000000                                                                                                                        000000000000000000
F0010000009411500004000114323267400023658300000000000000000201611120002001LA CASA DEL TEJIDO                                C000000000008000000000000000000000100010010000000000000000000000F0019411500420161112000101 00000000000000000000000000000000000000000000000000000000000000000000000000000000000000000000000000000000000000000N 00000000000NCONT   00    00000000000          00000000000000000000000000000000000000000000 000000000000000A000000000000000000000000000000000000000000000 000000000000000000000000000000000000000     00000000                                                                                                                        000000000000000000
F0010000009411500005000114323267400013552100000000000000000201611120002001LA CASA DEL TEJIDO                                D000000000008000000000000000000000100010010000000000000000000000F0019411500520161112000101 00000000000000000000000000000000000000000000000000000000000000000000000000000000000000000000000000000000000000000N 00000000000NCONT   00    00000000000          00000000000000000000000000000000000000000000 000000000000000A000000000000000000000000000000000000000000000 000000000000000000000000000000000000000     00000000                                                                                                                        000000000000000000
F0010000009411600001000090034602400011050500000000000000000201611120002001PRODUCTOS NACIONALES PARAFINICOS LA CUSTODIA S.A.SD000000007350000000000000000000000100010010000000000000000000000F0019411600120161112000101 00000000000000000000000000000000000000000000000000000000000000000000000000000000000000000000000000000000000000000N 00000000000NCONT   00    00000000000          00000000000000000000000000000000000000000000 000000000000000A000000000000000000000000000000000000000000000 000000000000000000000000000000000000000     00000000                                                                                                                        000000000000000000
F0010000009411600002000090034602400041450500000000000000000201611120002001PRODUCTOS NACIONALES PARAFINICOS LA CUSTODIA S.A.SC000000006650000000000000000000000100010010000000000000000000000F0019411600220161112000101 00000000000000000000000000000000000000000000000000000000000000000000000000000000000000000000000000000000000000000N 00000000000NCONT   00    00000000000          00000000000000000000000000000000000000000000 000000000000000A000000000000000000000000000000000000000000000 000000000000000000000000000000000000000     00000000                                                                                                                        000000000000000000
F0010000009411600003000090034602400042505000000000000000000201611120002001PRODUCTOS NACIONALES PARAFINICOS LA CUSTODIA S.A.SC000000000700000000000000000000000100010010000000000000000000000F0019411600320161112000101 00000000000000000000000000000000000000000000000000000000000000000000000000000000000000000000000000000000000000000N 00000000000NCONT   00    00000000000          00000000000000000000000000000000000000000000 000000000000000A000000000000000000000000000000000000000000000 000000000000000000000000000000000000000     00000000                                                                                                                        000000000000000000
F0010000009411600004000090034602400023658300000000000000000201611120002001PRODUCTOS NACIONALES PARAFINICOS LA CUSTODIA S.A.SC000000000053200000000000000000000100010010000000000000000000000F0019411600420161112000101 00000000000000000000000000000000000000000000000000000000000000000000000000000000000000000000000000000000000000000N 00000000000NCONT   00    00000000000          00000000000000000000000000000000000000000000 000000000000000A000000000000000000000000000000000000000000000 000000000000000000000000000000000000000     00000000                                                                                                                        000000000000000000
F0010000009411600005000090034602400013552100000000000000000201611120002001PRODUCTOS NACIONALES PARAFINICOS LA CUSTODIA S.A.SD000000000053200000000000000000000100010010000000000000000000000F0019411600520161112000101 00000000000000000000000000000000000000000000000000000000000000000000000000000000000000000000000000000000000000000N 00000000000NCONT   00    00000000000          00000000000000000000000000000000000000000000 000000000000000A000000000000000000000000000000000000000000000 000000000000000000000000000000000000000     00000000                                                                                                                        000000000000000000
F0010000009411700001000090067091400011050500000000000000000201611120002001COMERCIALIZADORA ESCOBAR ORTIZ                    D000000002272000000000000000000000100010010000000000000000000000F0019411700120161112000101 00000000000000000000000000000000000000000000000000000000000000000000000000000000000000000000000000000000000000000N 00000000000NCONT   00    00000000000          00000000000000000000000000000000000000000000 000000000000000A000000000000000000000000000000000000000000000 000000000000000000000000000000000000000     00000000                                                                                                                        000000000000000000
F0010000009411700002000090067091400041450500000000000000000201611120002001COMERCIALIZADORA ESCOBAR ORTIZ                    C000000001200000000000000000000000100010010000000000000000000000F0019411700220161112000101 00000000000000000000000000000000000000000000000000000000000000000000000000000000000000000000000000000000000000000N 00000000000NCONT   00    00000000000          00000000000000000000000000000000000000000000 000000000000000A000000000000000000000000000000000000000000000 000000000000000000000000000000000000000     00000000                                                                                                                        000000000000000000
F0010000009411700003000090067091400042505000000000000000000201611120002001COMERCIALIZADORA ESCOBAR ORTIZ                    C000000001072000000000000000000000100010010000000000000000000000F0019411700320161112000101 00000000000000000000000000000000000000000000000000000000000000000000000000000000000000000000000000000000000000000N 00000000000NCONT   00    00000000000          00000000000000000000000000000000000000000000 000000000000000A000000000000000000000000000000000000000000000 000000000000000000000000000000000000000     00000000                                                                                                                        000000000000000000
F0010000009411700004000090067091400023658300000000000000000201611120002001COMERCIALIZADORA ESCOBAR ORTIZ                    C000000000009600000000000000000000100010010000000000000000000000F0019411700420161112000101 00000000000000000000000000000000000000000000000000000000000000000000000000000000000000000000000000000000000000000N 00000000000NCONT   00    00000000000          00000000000000000000000000000000000000000000 000000000000000A000000000000000000000000000000000000000000000 000000000000000000000000000000000000000     00000000                                                                                                                        000000000000000000
F0010000009411700005000090067091400013552100000000000000000201611120002001COMERCIALIZADORA ESCOBAR ORTIZ                    D000000000009600000000000000000000100010010000000000000000000000F0019411700520161112000101 00000000000000000000000000000000000000000000000000000000000000000000000000000000000000000000000000000000000000000N 00000000000NCONT   00    00000000000          00000000000000000000000000000000000000000000 000000000000000A000000000000000000000000000000000000000000000 000000000000000000000000000000000000000     00000000                                                                                                                        000000000000000000
F0010000009411800001000090067091400011050500000000000000000201611120002001COMERCIALIZADORA ESCOBAR ORTIZ                    D000000002216000000000000000000000100010010000000000000000000000F0019411800120161112000101 00000000000000000000000000000000000000000000000000000000000000000000000000000000000000000000000000000000000000000N 00000000000NCONT   00    00000000000          00000000000000000000000000000000000000000000 000000000000000A000000000000000000000000000000000000000000000 000000000000000000000000000000000000000     00000000                                                                                                                        000000000000000000
F0010000009411800002000090067091400041450500000000000000000201611120002001COMERCIALIZADORA ESCOBAR ORTIZ                    C000000000900000000000000000000000100010010000000000000000000000F0019411800220161112000101 00000000000000000000000000000000000000000000000000000000000000000000000000000000000000000000000000000000000000000N 00000000000NCONT   00    00000000000          00000000000000000000000000000000000000000000 000000000000000A000000000000000000000000000000000000000000000 000000000000000000000000000000000000000     00000000                                                                                                                        000000000000000000
F0010000009411800003000090067091400042505000000000000000000201611120002001COMERCIALIZADORA ESCOBAR ORTIZ                    C000000001316000000000000000000000100010010000000000000000000000F0019411800320161112000101 00000000000000000000000000000000000000000000000000000000000000000000000000000000000000000000000000000000000000000N 00000000000NCONT   00    00000000000          00000000000000000000000000000000000000000000 000000000000000A000000000000000000000000000000000000000000000 000000000000000000000000000000000000000     00000000                                                                                                                        000000000000000000
F0010000009411800004000090067091400023658300000000000000000201611120002001COMERCIALIZADORA ESCOBAR ORTIZ                    C000000000007200000000000000000000100010010000000000000000000000F0019411800420161112000101 00000000000000000000000000000000000000000000000000000000000000000000000000000000000000000000000000000000000000000N 00000000000NCONT   00    00000000000          00000000000000000000000000000000000000000000 000000000000000A000000000000000000000000000000000000000000000 000000000000000000000000000000000000000     00000000                                                                                                                        000000000000000000
F0010000009411800005000090067091400013552100000000000000000201611120002001COMERCIALIZADORA ESCOBAR ORTIZ                    D000000000007200000000000000000000100010010000000000000000000000F0019411800520161112000101 00000000000000000000000000000000000000000000000000000000000000000000000000000000000000000000000000000000000000000N 00000000000NCONT   00    00000000000          00000000000000000000000000000000000000000000 000000000000000A000000000000000000000000000000000000000000000 000000000000000000000000000000000000000     00000000                                                                                                                        000000000000000000
F0010000009411900001000090067091400011050500000000000000000201611120002001COMERCIALIZADORA ESCOBAR ORTIZ                    D000000002243000000000000000000000100010010000000000000000000000F0019411900120161112000101 00000000000000000000000000000000000000000000000000000000000000000000000000000000000000000000000000000000000000000N 00000000000NCONT   00    00000000000          00000000000000000000000000000000000000000000 000000000000000A000000000000000000000000000000000000000000000 000000000000000000000000000000000000000     00000000                                                                                                                        000000000000000000
F0010000009411900002000090067091400041450500000000000000000201611120002001COMERCIALIZADORA ESCOBAR ORTIZ                    C000000001800000000000000000000000100010010000000000000000000000F0019411900220161112000101 00000000000000000000000000000000000000000000000000000000000000000000000000000000000000000000000000000000000000000N 00000000000NCONT   00    00000000000          00000000000000000000000000000000000000000000 000000000000000A000000000000000000000000000000000000000000000 000000000000000000000000000000000000000     00000000                                                                                                                        000000000000000000
F0010000009411900003000090067091400042505000000000000000000201611120002001COMERCIALIZADORA ESCOBAR ORTIZ                    C000000000443000000000000000000000100010010000000000000000000000F0019411900320161112000101 00000000000000000000000000000000000000000000000000000000000000000000000000000000000000000000000000000000000000000N 00000000000NCONT   00    00000000000          00000000000000000000000000000000000000000000 000000000000000A000000000000000000000000000000000000000000000 000000000000000000000000000000000000000     00000000                                                                                                                        000000000000000000
F0010000009411900004000090067091400023658300000000000000000201611120002001COMERCIALIZADORA ESCOBAR ORTIZ                    C000000000014400000000000000000000100010010000000000000000000000F0019411900420161112000101 00000000000000000000000000000000000000000000000000000000000000000000000000000000000000000000000000000000000000000N 00000000000NCONT   00    00000000000          00000000000000000000000000000000000000000000 000000000000000A000000000000000000000000000000000000000000000 000000000000000000000000000000000000000     00000000                                                                                                                        000000000000000000
F0010000009411900005000090067091400013552100000000000000000201611120002001COMERCIALIZADORA ESCOBAR ORTIZ                    D000000000014400000000000000000000100010010000000000000000000000F0019411900520161112000101 00000000000000000000000000000000000000000000000000000000000000000000000000000000000000000000000000000000000000000N 00000000000NCONT   00    00000000000          00000000000000000000000000000000000000000000 000000000000000A000000000000000000000000000000000000000000000 000000000000000000000000000000000000000     00000000                                                                                                                        000000000000000000
F0010000009412000001000090067091400011050500000000000000000201611120002001COMERCIALIZADORA ESCOBAR ORTIZ                    D000000001770000000000000000000000100010010000000000000000000000F0019412000120161112000101 00000000000000000000000000000000000000000000000000000000000000000000000000000000000000000000000000000000000000000N 00000000000NCONT   00    00000000000          00000000000000000000000000000000000000000000 000000000000000A000000000000000000000000000000000000000000000 000000000000000000000000000000000000000     00000000                                                                                                                        000000000000000000
F0010000009412000002000090067091400041450500000000000000000201611120002001COMERCIALIZADORA ESCOBAR ORTIZ                    C000000000600000000000000000000000100010010000000000000000000000F0019412000220161112000101 00000000000000000000000000000000000000000000000000000000000000000000000000000000000000000000000000000000000000000N 00000000000NCONT   00    00000000000          00000000000000000000000000000000000000000000 000000000000000A000000000000000000000000000000000000000000000 000000000000000000000000000000000000000     00000000                                                                                                                        000000000000000000
F0010000009412000003000090067091400042505000000000000000000201611120002001COMERCIALIZADORA ESCOBAR ORTIZ                    C000000001170000000000000000000000100010010000000000000000000000F0019412000320161112000101 00000000000000000000000000000000000000000000000000000000000000000000000000000000000000000000000000000000000000000N 00000000000NCONT   00    00000000000          00000000000000000000000000000000000000000000 000000000000000A000000000000000000000000000000000000000000000 000000000000000000000000000000000000000     00000000                                                                                                                        000000000000000000
F0010000009412000004000090067091400023658300000000000000000201611120002001COMERCIALIZADORA ESCOBAR ORTIZ                    C000000000004800000000000000000000100010010000000000000000000000F0019412000420161112000101 00000000000000000000000000000000000000000000000000000000000000000000000000000000000000000000000000000000000000000N 00000000000NCONT   00    00000000000          00000000000000000000000000000000000000000000 000000000000000A000000000000000000000000000000000000000000000 000000000000000000000000000000000000000     00000000                                                                                                                        000000000000000000
F0010000009412000005000090067091400013552100000000000000000201611120002001COMERCIALIZADORA ESCOBAR ORTIZ                    D000000000004800000000000000000000100010010000000000000000000000F0019412000520161112000101 00000000000000000000000000000000000000000000000000000000000000000000000000000000000000000000000000000000000000000N 00000000000NCONT   00    00000000000          00000000000000000000000000000000000000000000 000000000000000A000000000000000000000000000000000000000000000 000000000000000000000000000000000000000     00000000                                                                                                                        000000000000000000
F0010000009412100001000090067091400011050500000000000000000201611120002001COMERCIALIZADORA ESCOBAR ORTIZ                    D000000013251000000000000000000000100010010000000000000000000000F0019412100120161112000101 00000000000000000000000000000000000000000000000000000000000000000000000000000000000000000000000000000000000000000N 00000000000NCONT   00    00000000000          00000000000000000000000000000000000000000000 000000000000000A000000000000000000000000000000000000000000000 000000000000000000000000000000000000000     00000000                                                                                                                        000000000000000000
F0010000009412100002000090067091400041450500000000000000000201611120002001COMERCIALIZADORA ESCOBAR ORTIZ                    C000000009600000000000000000000000100010010000000000000000000000F0019412100220161112000101 00000000000000000000000000000000000000000000000000000000000000000000000000000000000000000000000000000000000000000N 00000000000NCONT   00    00000000000          00000000000000000000000000000000000000000000 000000000000000A000000000000000000000000000000000000000000000 000000000000000000000000000000000000000     00000000                                                                                                                        000000000000000000
F0010000009412100003000090067091400042505000000000000000000201611120002001COMERCIALIZADORA ESCOBAR ORTIZ                    C000000003651000000000000000000000100010010000000000000000000000F0019412100320161112000101 00000000000000000000000000000000000000000000000000000000000000000000000000000000000000000000000000000000000000000N 00000000000NCONT   00    00000000000          00000000000000000000000000000000000000000000 000000000000000A000000000000000000000000000000000000000000000 000000000000000000000000000000000000000     00000000                                                                                                                        000000000000000000
F0010000009412100004000090067091400023658300000000000000000201611120002001COMERCIALIZADORA ESCOBAR ORTIZ                    C000000000076800000000000000000000100010010000000000000000000000F0019412100420161112000101 00000000000000000000000000000000000000000000000000000000000000000000000000000000000000000000000000000000000000000N 00000000000NCONT   00    00000000000          00000000000000000000000000000000000000000000 000000000000000A000000000000000000000000000000000000000000000 000000000000000000000000000000000000000     00000000                                                                                                                        000000000000000000
F0010000009412100005000090067091400013552100000000000000000201611120002001COMERCIALIZADORA ESCOBAR ORTIZ                    D000000000076800000000000000000000100010010000000000000000000000F0019412100520161112000101 00000000000000000000000000000000000000000000000000000000000000000000000000000000000000000000000000000000000000000N 00000000000NCONT   00    00000000000          00000000000000000000000000000000000000000000 000000000000000A000000000000000000000000000000000000000000000 000000000000000000000000000000000000000     00000000                                                                                                                        000000000000000000
F0010000009412200001000090067091400011050500000000000000000201611120002001COMERCIALIZADORA ESCOBAR ORTIZ                    D000000004756000000000000000000000100010010000000000000000000000F0019412200120161112000101 00000000000000000000000000000000000000000000000000000000000000000000000000000000000000000000000000000000000000000N 00000000000NCONT   00    00000000000          00000000000000000000000000000000000000000000 000000000000000A000000000000000000000000000000000000000000000 000000000000000000000000000000000000000     00000000                                                                                                                        000000000000000000
F0010000009412200002000090067091400041450500000000000000000201611120002001COMERCIALIZADORA ESCOBAR ORTIZ                    C000000003600000000000000000000000100010010000000000000000000000F0019412200220161112000101 00000000000000000000000000000000000000000000000000000000000000000000000000000000000000000000000000000000000000000N 00000000000NCONT   00    00000000000          00000000000000000000000000000000000000000000 000000000000000A000000000000000000000000000000000000000000000 000000000000000000000000000000000000000     00000000                                                                                                                        000000000000000000
F0010000009412200003000090067091400042505000000000000000000201611120002001COMERCIALIZADORA ESCOBAR ORTIZ                    C000000001156000000000000000000000100010010000000000000000000000F0019412200320161112000101 00000000000000000000000000000000000000000000000000000000000000000000000000000000000000000000000000000000000000000N 00000000000NCONT   00    00000000000          00000000000000000000000000000000000000000000 000000000000000A000000000000000000000000000000000000000000000 000000000000000000000000000000000000000     00000000                                                                                                                        000000000000000000
