F0010000007054800001000001264479000011050500000000000000000201504230002001ALEJANDRO RAMIREZ MARTINEZ                        D000000001350000000000000000000000100010010000000000000000000000F0010000007054800120150423000101 00000000000000000000000000000000000000000000000000000000000000000000000000000000000000000000000000000000000000000N 00000000000NCONT   00    00000000000          00000000000000000000000000000000000000000000 000000000000000A000000000000000000000000000000000000000000000 000000000000000000000000000000000000000     00000000                                                                                                                        000000000000000000
F0010000007054800002000001264479000041450500000000000000000201504230002001ALEJANDRO RAMIREZ MARTINEZ                        C000000001200000000000000000000000100010010000000000000000000000F0010000007054800220150423000101 00000000000000000000000000000000000000000000000000000000000000000000000000000000000000000000000000000000000000000N 00000000000NCONT   00    00000000000          00000000000000000000000000000000000000000000 000000000000000A000000000000000000000000000000000000000000000 000000000000000000000000000000000000000     00000000                                                                                                                        000000000000000000
F0010000007054800003000001264479000042505000000000000000000201504230002001ALEJANDRO RAMIREZ MARTINEZ                        C000000000150000000000000000000000100010010000000000000000000000F0010000007054800320150423000101 00000000000000000000000000000000000000000000000000000000000000000000000000000000000000000000000000000000000000000N 00000000000NCONT   00    00000000000          00000000000000000000000000000000000000000000 000000000000000A000000000000000000000000000000000000000000000 000000000000000000000000000000000000000     00000000                                                                                                                        000000000000000000
F0010000007054800004000001264479000023658300000000000000000201504230002001ALEJANDRO RAMIREZ MARTINEZ                        C000000000009600000000000000000000100010010000000000000000000000F0010000007054800420150423000101 00000000000000000000000000000000000000000000000000000000000000000000000000000000000000000000000000000000000000000N 00000000000NCONT   00    00000000000          00000000000000000000000000000000000000000000 000000000000000A000000000000000000000000000000000000000000000 000000000000000000000000000000000000000     00000000                                                                                                                        000000000000000000
F0010000007054800005000001264479000013552100000000000000000201504230002001ALEJANDRO RAMIREZ MARTINEZ                        D000000000009600000000000000000000100010010000000000000000000000F0010000007054800520150423000101 00000000000000000000000000000000000000000000000000000000000000000000000000000000000000000000000000000000000000000N 00000000000NCONT   00    00000000000          00000000000000000000000000000000000000000000 000000000000000A000000000000000000000000000000000000000000000 000000000000000000000000000000000000000     00000000                                                                                                                        000000000000000000
F0010000007054900001000000746401400011050500000000000000000201504230002001JORGE CEBALLOS FERRO                              D000000003000000000000000000000000100010010000000000000000000000F0010000007054900120150423000101 00000000000000000000000000000000000000000000000000000000000000000000000000000000000000000000000000000000000000000N 00000000000NCONT   00    00000000000          00000000000000000000000000000000000000000000 000000000000000A000000000000000000000000000000000000000000000 000000000000000000000000000000000000000     00000000                                                                                                                        000000000000000000
F0010000007054900002000000746401400041450500000000000000000201504230002001JORGE CEBALLOS FERRO                              C000000002700000000000000000000000100010010000000000000000000000F0010000007054900220150423000101 00000000000000000000000000000000000000000000000000000000000000000000000000000000000000000000000000000000000000000N 00000000000NCONT   00    00000000000          00000000000000000000000000000000000000000000 000000000000000A000000000000000000000000000000000000000000000 000000000000000000000000000000000000000     00000000                                                                                                                        000000000000000000
F0010000007054900003000000746401400042505000000000000000000201504230002001JORGE CEBALLOS FERRO                              C000000000300000000000000000000000100010010000000000000000000000F0010000007054900320150423000101 00000000000000000000000000000000000000000000000000000000000000000000000000000000000000000000000000000000000000000N 00000000000NCONT   00    00000000000          00000000000000000000000000000000000000000000 000000000000000A000000000000000000000000000000000000000000000 000000000000000000000000000000000000000     00000000                                                                                                                        000000000000000000
F0010000007054900004000000746401400023658300000000000000000201504230002001JORGE CEBALLOS FERRO                              C000000000021600000000000000000000100010010000000000000000000000F0010000007054900420150423000101 00000000000000000000000000000000000000000000000000000000000000000000000000000000000000000000000000000000000000000N 00000000000NCONT   00    00000000000          00000000000000000000000000000000000000000000 000000000000000A000000000000000000000000000000000000000000000 000000000000000000000000000000000000000     00000000                                                                                                                        000000000000000000
F0010000007054900005000000746401400013552100000000000000000201504230002001JORGE CEBALLOS FERRO                              D000000000021600000000000000000000100010010000000000000000000000F0010000007054900520150423000101 00000000000000000000000000000000000000000000000000000000000000000000000000000000000000000000000000000000000000000N 00000000000NCONT   00    00000000000          00000000000000000000000000000000000000000000 000000000000000A000000000000000000000000000000000000000000000 000000000000000000000000000000000000000     00000000                                                                                                                        000000000000000000
F0010000007055000001000000742033200011050500000000000000000201504230002001EUSEBIO DE SALES                                  D000000002500000000000000000000000100010010000000000000000000000F0010000007055000120150423000101 00000000000000000000000000000000000000000000000000000000000000000000000000000000000000000000000000000000000000000N 00000000000NCONT   00    00000000000          00000000000000000000000000000000000000000000 000000000000000A000000000000000000000000000000000000000000000 000000000000000000000000000000000000000     00000000                                                                                                                        000000000000000000
F0010000007055000002000000742033200041450500000000000000000201504230002001EUSEBIO DE SALES                                  C000000002200000000000000000000000100010010000000000000000000000F0010000007055000220150423000101 00000000000000000000000000000000000000000000000000000000000000000000000000000000000000000000000000000000000000000N 00000000000NCONT   00    00000000000          00000000000000000000000000000000000000000000 000000000000000A000000000000000000000000000000000000000000000 000000000000000000000000000000000000000     00000000                                                                                                                        000000000000000000
F0010000007055000003000000742033200042505000000000000000000201504230002001EUSEBIO DE SALES                                  C000000000300000000000000000000000100010010000000000000000000000F0010000007055000320150423000101 00000000000000000000000000000000000000000000000000000000000000000000000000000000000000000000000000000000000000000N 00000000000NCONT   00    00000000000          00000000000000000000000000000000000000000000 000000000000000A000000000000000000000000000000000000000000000 000000000000000000000000000000000000000     00000000                                                                                                                        000000000000000000
F0010000007055000004000000742033200023658300000000000000000201504230002001EUSEBIO DE SALES                                  C000000000017600000000000000000000100010010000000000000000000000F0010000007055000420150423000101 00000000000000000000000000000000000000000000000000000000000000000000000000000000000000000000000000000000000000000N 00000000000NCONT   00    00000000000          00000000000000000000000000000000000000000000 000000000000000A000000000000000000000000000000000000000000000 000000000000000000000000000000000000000     00000000                                                                                                                        000000000000000000
F0010000007055000005000000742033200013552100000000000000000201504230002001EUSEBIO DE SALES                                  D000000000017600000000000000000000100010010000000000000000000000F0010000007055000520150423000101 00000000000000000000000000000000000000000000000000000000000000000000000000000000000000000000000000000000000000000N 00000000000NCONT   00    00000000000          00000000000000000000000000000000000000000000 000000000000000A000000000000000000000000000000000000000000000 000000000000000000000000000000000000000     00000000                                                                                                                        000000000000000000
F0010000007055100001000000747559300011050500000000000000000201504230002001RAFAEL SERRANO                                    D000000001200000000000000000000000100010010000000000000000000000F0010000007055100120150423000101 00000000000000000000000000000000000000000000000000000000000000000000000000000000000000000000000000000000000000000N 00000000000NCONT   00    00000000000          00000000000000000000000000000000000000000000 000000000000000A000000000000000000000000000000000000000000000 000000000000000000000000000000000000000     00000000                                                                                                                        000000000000000000
F0010000007055100002000000747559300041450500000000000000000201504230002001RAFAEL SERRANO                                    C000000001000000000000000000000000100010010000000000000000000000F0010000007055100220150423000101 00000000000000000000000000000000000000000000000000000000000000000000000000000000000000000000000000000000000000000N 00000000000NCONT   00    00000000000          00000000000000000000000000000000000000000000 000000000000000A000000000000000000000000000000000000000000000 000000000000000000000000000000000000000     00000000                                                                                                                        000000000000000000
F0010000007055100003000000747559300042505000000000000000000201504230002001RAFAEL SERRANO                                    C000000000200000000000000000000000100010010000000000000000000000F0010000007055100320150423000101 00000000000000000000000000000000000000000000000000000000000000000000000000000000000000000000000000000000000000000N 00000000000NCONT   00    00000000000          00000000000000000000000000000000000000000000 000000000000000A000000000000000000000000000000000000000000000 000000000000000000000000000000000000000     00000000                                                                                                                        000000000000000000
F0010000007055100004000000747559300023658300000000000000000201504230002001RAFAEL SERRANO                                    C000000000008000000000000000000000100010010000000000000000000000F0010000007055100420150423000101 00000000000000000000000000000000000000000000000000000000000000000000000000000000000000000000000000000000000000000N 00000000000NCONT   00    00000000000          00000000000000000000000000000000000000000000 000000000000000A000000000000000000000000000000000000000000000 000000000000000000000000000000000000000     00000000                                                                                                                        000000000000000000
F0010000007055100005000000747559300013552100000000000000000201504230002001RAFAEL SERRANO                                    D000000000008000000000000000000000100010010000000000000000000000F0010000007055100520150423000101 00000000000000000000000000000000000000000000000000000000000000000000000000000000000000000000000000000000000000000N 00000000000NCONT   00    00000000000          00000000000000000000000000000000000000000000 000000000000000A000000000000000000000000000000000000000000000 000000000000000000000000000000000000000     00000000                                                                                                                        000000000000000000
F0010000007055200001000003207718300011050500000000000000000201504230002001MARIA GILMA  RAMIREZ GARCIA                       D000000004100000000000000000000000100010010000000000000000000000F0010000007055200120150423000101 00000000000000000000000000000000000000000000000000000000000000000000000000000000000000000000000000000000000000000N 00000000000NCONT   00    00000000000          00000000000000000000000000000000000000000000 000000000000000A000000000000000000000000000000000000000000000 000000000000000000000000000000000000000     00000000                                                                                                                        000000000000000000
F0010000007055200002000003207718300041450500000000000000000201504230002001MARIA GILMA  RAMIREZ GARCIA                       C000000003800000000000000000000000100010010000000000000000000000F0010000007055200220150423000101 00000000000000000000000000000000000000000000000000000000000000000000000000000000000000000000000000000000000000000N 00000000000NCONT   00    00000000000          00000000000000000000000000000000000000000000 000000000000000A000000000000000000000000000000000000000000000 000000000000000000000000000000000000000     00000000                                                                                                                        000000000000000000
F0010000007055200003000003207718300042505000000000000000000201504230002001MARIA GILMA  RAMIREZ GARCIA                       C000000000300000000000000000000000100010010000000000000000000000F0010000007055200320150423000101 00000000000000000000000000000000000000000000000000000000000000000000000000000000000000000000000000000000000000000N 00000000000NCONT   00    00000000000          00000000000000000000000000000000000000000000 000000000000000A000000000000000000000000000000000000000000000 000000000000000000000000000000000000000     00000000                                                                                                                        000000000000000000
F0010000007055200004000003207718300023658300000000000000000201504230002001MARIA GILMA  RAMIREZ GARCIA                       C000000000030400000000000000000000100010010000000000000000000000F0010000007055200420150423000101 00000000000000000000000000000000000000000000000000000000000000000000000000000000000000000000000000000000000000000N 00000000000NCONT   00    00000000000          00000000000000000000000000000000000000000000 000000000000000A000000000000000000000000000000000000000000000 000000000000000000000000000000000000000     00000000                                                                                                                        000000000000000000
F0010000007055200005000003207718300013552100000000000000000201504230002001MARIA GILMA  RAMIREZ GARCIA                       D000000000030400000000000000000000100010010000000000000000000000F0010000007055200520150423000101 00000000000000000000000000000000000000000000000000000000000000000000000000000000000000000000000000000000000000000N 00000000000NCONT   00    00000000000          00000000000000000000000000000000000000000000 000000000000000A000000000000000000000000000000000000000000000 000000000000000000000000000000000000000     00000000                                                                                                                        000000000000000000
F0010000007055300001000003207718300011050500000000000000000201504230002001MARIA GILMA  RAMIREZ GARCIA                       D000000007000000000000000000000000100010010000000000000000000000F0010000007055300120150423000101 00000000000000000000000000000000000000000000000000000000000000000000000000000000000000000000000000000000000000000N 00000000000NCONT   00    00000000000          00000000000000000000000000000000000000000000 000000000000000A000000000000000000000000000000000000000000000 000000000000000000000000000000000000000     00000000                                                                                                                        000000000000000000
F0010000007055300002000003207718300041450500000000000000000201504230002001MARIA GILMA  RAMIREZ GARCIA                       C000000006000000000000000000000000100010010000000000000000000000F0010000007055300220150423000101 00000000000000000000000000000000000000000000000000000000000000000000000000000000000000000000000000000000000000000N 00000000000NCONT   00    00000000000          00000000000000000000000000000000000000000000 000000000000000A000000000000000000000000000000000000000000000 000000000000000000000000000000000000000     00000000                                                                                                                        000000000000000000
F0010000007055300003000003207718300042505000000000000000000201504230002001MARIA GILMA  RAMIREZ GARCIA                       C000000001000000000000000000000000100010010000000000000000000000F0010000007055300320150423000101 00000000000000000000000000000000000000000000000000000000000000000000000000000000000000000000000000000000000000000N 00000000000NCONT   00    00000000000          00000000000000000000000000000000000000000000 000000000000000A000000000000000000000000000000000000000000000 000000000000000000000000000000000000000     00000000                                                                                                                        000000000000000000
F0010000007055300004000003207718300023658300000000000000000201504230002001MARIA GILMA  RAMIREZ GARCIA                       C000000000048000000000000000000000100010010000000000000000000000F0010000007055300420150423000101 00000000000000000000000000000000000000000000000000000000000000000000000000000000000000000000000000000000000000000N 00000000000NCONT   00    00000000000          00000000000000000000000000000000000000000000 000000000000000A000000000000000000000000000000000000000000000 000000000000000000000000000000000000000     00000000                                                                                                                        000000000000000000
F0010000007055300005000003207718300013552100000000000000000201504230002001MARIA GILMA  RAMIREZ GARCIA                       D000000000048000000000000000000000100010010000000000000000000000F0010000007055300520150423000101 00000000000000000000000000000000000000000000000000000000000000000000000000000000000000000000000000000000000000000N 00000000000NCONT   00    00000000000          00000000000000000000000000000000000000000000 000000000000000A000000000000000000000000000000000000000000000 000000000000000000000000000000000000000     00000000                                                                                                                        000000000000000000
F0010000007055400001000007016511700011050500000000000000000201504230002001YEISON CASTAÑO                                   D000000003000000000000000000000000100010010000000000000000000000F0010000007055400120150423000101 00000000000000000000000000000000000000000000000000000000000000000000000000000000000000000000000000000000000000000N 00000000000NCONT   00    00000000000          00000000000000000000000000000000000000000000 000000000000000A000000000000000000000000000000000000000000000 000000000000000000000000000000000000000     00000000                                                                                                                        000000000000000000
F0010000007055400002000007016511700041450500000000000000000201504230002001YEISON CASTAÑO                                   C000000002900000000000000000000000100010010000000000000000000000F0010000007055400220150423000101 00000000000000000000000000000000000000000000000000000000000000000000000000000000000000000000000000000000000000000N 00000000000NCONT   00    00000000000          00000000000000000000000000000000000000000000 000000000000000A000000000000000000000000000000000000000000000 000000000000000000000000000000000000000     00000000                                                                                                                        000000000000000000
F0010000007055400003000007016511700042505000000000000000000201504230002001YEISON CASTAÑO                                   C000000000100000000000000000000000100010010000000000000000000000F0010000007055400320150423000101 00000000000000000000000000000000000000000000000000000000000000000000000000000000000000000000000000000000000000000N 00000000000NCONT   00    00000000000          00000000000000000000000000000000000000000000 000000000000000A000000000000000000000000000000000000000000000 000000000000000000000000000000000000000     00000000                                                                                                                        000000000000000000
F0010000007055400004000007016511700023658300000000000000000201504230002001YEISON CASTAÑO                                   C000000000023200000000000000000000100010010000000000000000000000F0010000007055400420150423000101 00000000000000000000000000000000000000000000000000000000000000000000000000000000000000000000000000000000000000000N 00000000000NCONT   00    00000000000          00000000000000000000000000000000000000000000 000000000000000A000000000000000000000000000000000000000000000 000000000000000000000000000000000000000     00000000                                                                                                                        000000000000000000
F0010000007055400005000007016511700013552100000000000000000201504230002001YEISON CASTAÑO                                   D000000000023200000000000000000000100010010000000000000000000000F0010000007055400520150423000101 00000000000000000000000000000000000000000000000000000000000000000000000000000000000000000000000000000000000000000N 00000000000NCONT   00    00000000000          00000000000000000000000000000000000000000000 000000000000000A000000000000000000000000000000000000000000000 000000000000000000000000000000000000000     00000000                                                                                                                        000000000000000000
F0010000007055500001000001535146600011050500000000000000000201504230002001ORLANDO OROZCO NAVARRO                            D000000004500000000000000000000000100010010000000000000000000000F0010000007055500120150423000101 00000000000000000000000000000000000000000000000000000000000000000000000000000000000000000000000000000000000000000N 00000000000NCONT   00    00000000000          00000000000000000000000000000000000000000000 000000000000000A000000000000000000000000000000000000000000000 000000000000000000000000000000000000000     00000000                                                                                                                        000000000000000000
F0010000007055500002000001535146600041450500000000000000000201504230002001ORLANDO OROZCO NAVARRO                            C000000004400000000000000000000000100010010000000000000000000000F0010000007055500220150423000101 00000000000000000000000000000000000000000000000000000000000000000000000000000000000000000000000000000000000000000N 00000000000NCONT   00    00000000000          00000000000000000000000000000000000000000000 000000000000000A000000000000000000000000000000000000000000000 000000000000000000000000000000000000000     00000000                                                                                                                        000000000000000000
F0010000007055500003000001535146600042505000000000000000000201504230002001ORLANDO OROZCO NAVARRO                            C000000000100000000000000000000000100010010000000000000000000000F0010000007055500320150423000101 00000000000000000000000000000000000000000000000000000000000000000000000000000000000000000000000000000000000000000N 00000000000NCONT   00    00000000000          00000000000000000000000000000000000000000000 000000000000000A000000000000000000000000000000000000000000000 000000000000000000000000000000000000000     00000000                                                                                                                        000000000000000000
F0010000007055500004000001535146600023658300000000000000000201504230002001ORLANDO OROZCO NAVARRO                            C000000000035200000000000000000000100010010000000000000000000000F0010000007055500420150423000101 00000000000000000000000000000000000000000000000000000000000000000000000000000000000000000000000000000000000000000N 00000000000NCONT   00    00000000000          00000000000000000000000000000000000000000000 000000000000000A000000000000000000000000000000000000000000000 000000000000000000000000000000000000000     00000000                                                                                                                        000000000000000000
F0010000007055500005000001535146600013552100000000000000000201504230002001ORLANDO OROZCO NAVARRO                            D000000000035200000000000000000000100010010000000000000000000000F0010000007055500520150423000101 00000000000000000000000000000000000000000000000000000000000000000000000000000000000000000000000000000000000000000N 00000000000NCONT   00    00000000000          00000000000000000000000000000000000000000000 000000000000000A000000000000000000000000000000000000000000000 000000000000000000000000000000000000000     00000000                                                                                                                        000000000000000000
F0010000007055600001000002245670100011050500000000000000000201504230002001YOLANDA  TOBON                                    D000000009660000000000000000000000100010010000000000000000000000F0010000007055600120150423000101 00000000000000000000000000000000000000000000000000000000000000000000000000000000000000000000000000000000000000000N 00000000000NCONT   00    00000000000          00000000000000000000000000000000000000000000 000000000000000A000000000000000000000000000000000000000000000 000000000000000000000000000000000000000     00000000                                                                                                                        000000000000000000
F0010000007055600002000002245670100041450500000000000000000201504230002001YOLANDA  TOBON                                    C000000007700000000000000000000000100010010000000000000000000000F0010000007055600220150423000101 00000000000000000000000000000000000000000000000000000000000000000000000000000000000000000000000000000000000000000N 00000000000NCONT   00    00000000000          00000000000000000000000000000000000000000000 000000000000000A000000000000000000000000000000000000000000000 000000000000000000000000000000000000000     00000000                                                                                                                        000000000000000000
F0010000007055600003000002245670100042505000000000000000000201504230002001YOLANDA  TOBON                                    C000000001960000000000000000000000100010010000000000000000000000F0010000007055600320150423000101 00000000000000000000000000000000000000000000000000000000000000000000000000000000000000000000000000000000000000000N 00000000000NCONT   00    00000000000          00000000000000000000000000000000000000000000 000000000000000A000000000000000000000000000000000000000000000 000000000000000000000000000000000000000     00000000                                                                                                                        000000000000000000
F0010000007055600004000002245670100023658300000000000000000201504230002001YOLANDA  TOBON                                    C000000000061600000000000000000000100010010000000000000000000000F0010000007055600420150423000101 00000000000000000000000000000000000000000000000000000000000000000000000000000000000000000000000000000000000000000N 00000000000NCONT   00    00000000000          00000000000000000000000000000000000000000000 000000000000000A000000000000000000000000000000000000000000000 000000000000000000000000000000000000000     00000000                                                                                                                        000000000000000000
F0010000007055600005000002245670100013552100000000000000000201504230002001YOLANDA  TOBON                                    D000000000061600000000000000000000100010010000000000000000000000F0010000007055600520150423000101 00000000000000000000000000000000000000000000000000000000000000000000000000000000000000000000000000000000000000000N 00000000000NCONT   00    00000000000          00000000000000000000000000000000000000000000 000000000000000A000000000000000000000000000000000000000000000 000000000000000000000000000000000000000     00000000                                                                                                                        000000000000000000
F0010000007055700001000002245670100011050500000000000000000201504230002001YOLANDA  TOBON                                    D000000001140000000000000000000000100010010000000000000000000000F0010000007055700120150423000101 00000000000000000000000000000000000000000000000000000000000000000000000000000000000000000000000000000000000000000N 00000000000NCONT   00    00000000000          00000000000000000000000000000000000000000000 000000000000000A000000000000000000000000000000000000000000000 000000000000000000000000000000000000000     00000000                                                                                                                        000000000000000000
F0010000007055700002000002245670100041450500000000000000000201504230002001YOLANDA  TOBON                                    C000000001000000000000000000000000100010010000000000000000000000F0010000007055700220150423000101 00000000000000000000000000000000000000000000000000000000000000000000000000000000000000000000000000000000000000000N 00000000000NCONT   00    00000000000          00000000000000000000000000000000000000000000 000000000000000A000000000000000000000000000000000000000000000 000000000000000000000000000000000000000     00000000                                                                                                                        000000000000000000
F0010000007055700003000002245670100042505000000000000000000201504230002001YOLANDA  TOBON                                    C000000000140000000000000000000000100010010000000000000000000000F0010000007055700320150423000101 00000000000000000000000000000000000000000000000000000000000000000000000000000000000000000000000000000000000000000N 00000000000NCONT   00    00000000000          00000000000000000000000000000000000000000000 000000000000000A000000000000000000000000000000000000000000000 000000000000000000000000000000000000000     00000000                                                                                                                        000000000000000000
F0010000007055700004000002245670100023658300000000000000000201504230002001YOLANDA  TOBON                                    C000000000008000000000000000000000100010010000000000000000000000F0010000007055700420150423000101 00000000000000000000000000000000000000000000000000000000000000000000000000000000000000000000000000000000000000000N 00000000000NCONT   00    00000000000          00000000000000000000000000000000000000000000 000000000000000A000000000000000000000000000000000000000000000 000000000000000000000000000000000000000     00000000                                                                                                                        000000000000000000
F0010000007055700005000002245670100013552100000000000000000201504230002001YOLANDA  TOBON                                    D000000000008000000000000000000000100010010000000000000000000000F0010000007055700520150423000101 00000000000000000000000000000000000000000000000000000000000000000000000000000000000000000000000000000000000000000N 00000000000NCONT   00    00000000000          00000000000000000000000000000000000000000000 000000000000000A000000000000000000000000000000000000000000000 000000000000000000000000000000000000000     00000000                                                                                                                        000000000000000000
F0010000007055800001000000685857200011050500000000000000000201504230002001JOAQUIN GARCIA                                    D000000002200000000000000000000000100010010000000000000000000000F0010000007055800120150423000101 00000000000000000000000000000000000000000000000000000000000000000000000000000000000000000000000000000000000000000N 00000000000NCONT   00    00000000000          00000000000000000000000000000000000000000000 000000000000000A000000000000000000000000000000000000000000000 000000000000000000000000000000000000000     00000000                                                                                                                        000000000000000000
F0010000007055800002000000685857200041450500000000000000000201504230002001JOAQUIN GARCIA                                    C000000002000000000000000000000000100010010000000000000000000000F0010000007055800220150423000101 00000000000000000000000000000000000000000000000000000000000000000000000000000000000000000000000000000000000000000N 00000000000NCONT   00    00000000000          00000000000000000000000000000000000000000000 000000000000000A000000000000000000000000000000000000000000000 000000000000000000000000000000000000000     00000000                                                                                                                        000000000000000000
F0010000007055800003000000685857200042505000000000000000000201504230002001JOAQUIN GARCIA                                    C000000000200000000000000000000000100010010000000000000000000000F0010000007055800320150423000101 00000000000000000000000000000000000000000000000000000000000000000000000000000000000000000000000000000000000000000N 00000000000NCONT   00    00000000000          00000000000000000000000000000000000000000000 000000000000000A000000000000000000000000000000000000000000000 000000000000000000000000000000000000000     00000000                                                                                                                        000000000000000000
F0010000007055800004000000685857200023658300000000000000000201504230002001JOAQUIN GARCIA                                    C000000000016000000000000000000000100010010000000000000000000000F0010000007055800420150423000101 00000000000000000000000000000000000000000000000000000000000000000000000000000000000000000000000000000000000000000N 00000000000NCONT   00    00000000000          00000000000000000000000000000000000000000000 000000000000000A000000000000000000000000000000000000000000000 000000000000000000000000000000000000000     00000000                                                                                                                        000000000000000000
F0010000007055800005000000685857200013552100000000000000000201504230002001JOAQUIN GARCIA                                    D000000000016000000000000000000000100010010000000000000000000000F0010000007055800520150423000101 00000000000000000000000000000000000000000000000000000000000000000000000000000000000000000000000000000000000000000N 00000000000NCONT   00    00000000000          00000000000000000000000000000000000000000000 000000000000000A000000000000000000000000000000000000000000000 000000000000000000000000000000000000000     00000000                                                                                                                        000000000000000000
F0010000007055900001000007904689600011050500000000000000000201504230002001VICTOR MANUEL BOCANEGRA RAMIREZ                   D000000004000000000000000000000000100010010000000000000000000000F0010000007055900120150423000101 00000000000000000000000000000000000000000000000000000000000000000000000000000000000000000000000000000000000000000N 00000000000NCONT   00    00000000000          00000000000000000000000000000000000000000000 000000000000000A000000000000000000000000000000000000000000000 000000000000000000000000000000000000000     00000000                                                                                                                        000000000000000000
F0010000007055900002000007904689600041450500000000000000000201504230002001VICTOR MANUEL BOCANEGRA RAMIREZ                   C000000003600000000000000000000000100010010000000000000000000000F0010000007055900220150423000101 00000000000000000000000000000000000000000000000000000000000000000000000000000000000000000000000000000000000000000N 00000000000NCONT   00    00000000000          00000000000000000000000000000000000000000000 000000000000000A000000000000000000000000000000000000000000000 000000000000000000000000000000000000000     00000000                                                                                                                        000000000000000000
F0010000007055900003000007904689600042505000000000000000000201504230002001VICTOR MANUEL BOCANEGRA RAMIREZ                   C000000000400000000000000000000000100010010000000000000000000000F0010000007055900320150423000101 00000000000000000000000000000000000000000000000000000000000000000000000000000000000000000000000000000000000000000N 00000000000NCONT   00    00000000000          00000000000000000000000000000000000000000000 000000000000000A000000000000000000000000000000000000000000000 000000000000000000000000000000000000000     00000000                                                                                                                        000000000000000000
F0010000007055900004000007904689600023658300000000000000000201504230002001VICTOR MANUEL BOCANEGRA RAMIREZ                   C000000000028800000000000000000000100010010000000000000000000000F0010000007055900420150423000101 00000000000000000000000000000000000000000000000000000000000000000000000000000000000000000000000000000000000000000N 00000000000NCONT   00    00000000000          00000000000000000000000000000000000000000000 000000000000000A000000000000000000000000000000000000000000000 000000000000000000000000000000000000000     00000000                                                                                                                        000000000000000000
F0010000007055900005000007904689600013552100000000000000000201504230002001VICTOR MANUEL BOCANEGRA RAMIREZ                   D000000000028800000000000000000000100010010000000000000000000000F0010000007055900520150423000101 00000000000000000000000000000000000000000000000000000000000000000000000000000000000000000000000000000000000000000N 00000000000NCONT   00    00000000000          00000000000000000000000000000000000000000000 000000000000000A000000000000000000000000000000000000000000000 000000000000000000000000000000000000000     00000000                                                                                                                        000000000000000000
F0010000007056000001000007904689600011050500000000000000000201504230002001VICTOR MANUEL BOCANEGRA RAMIREZ                   D000000002000000000000000000000000100010010000000000000000000000F0010000007056000120150423000101 00000000000000000000000000000000000000000000000000000000000000000000000000000000000000000000000000000000000000000N 00000000000NCONT   00    00000000000          00000000000000000000000000000000000000000000 000000000000000A000000000000000000000000000000000000000000000 000000000000000000000000000000000000000     00000000                                                                                                                        000000000000000000
F0010000007056000002000007904689600041450500000000000000000201504230002001VICTOR MANUEL BOCANEGRA RAMIREZ                   C000000001800000000000000000000000100010010000000000000000000000F0010000007056000220150423000101 00000000000000000000000000000000000000000000000000000000000000000000000000000000000000000000000000000000000000000N 00000000000NCONT   00    00000000000          00000000000000000000000000000000000000000000 000000000000000A000000000000000000000000000000000000000000000 000000000000000000000000000000000000000     00000000                                                                                                                        000000000000000000
F0010000007056000003000007904689600042505000000000000000000201504230002001VICTOR MANUEL BOCANEGRA RAMIREZ                   C000000000200000000000000000000000100010010000000000000000000000F0010000007056000320150423000101 00000000000000000000000000000000000000000000000000000000000000000000000000000000000000000000000000000000000000000N 00000000000NCONT   00    00000000000          00000000000000000000000000000000000000000000 000000000000000A000000000000000000000000000000000000000000000 000000000000000000000000000000000000000     00000000                                                                                                                        000000000000000000
F0010000007056000004000007904689600023658300000000000000000201504230002001VICTOR MANUEL BOCANEGRA RAMIREZ                   C000000000014400000000000000000000100010010000000000000000000000F0010000007056000420150423000101 00000000000000000000000000000000000000000000000000000000000000000000000000000000000000000000000000000000000000000N 00000000000NCONT   00    00000000000          00000000000000000000000000000000000000000000 000000000000000A000000000000000000000000000000000000000000000 000000000000000000000000000000000000000     00000000                                                                                                                        000000000000000000
F0010000007056000005000007904689600013552100000000000000000201504230002001VICTOR MANUEL BOCANEGRA RAMIREZ                   D000000000014400000000000000000000100010010000000000000000000000F0010000007056000520150423000101 00000000000000000000000000000000000000000000000000000000000000000000000000000000000000000000000000000000000000000N 00000000000NCONT   00    00000000000          00000000000000000000000000000000000000000000 000000000000000A000000000000000000000000000000000000000000000 000000000000000000000000000000000000000     00000000                                                                                                                        000000000000000000
F0010000007056100001000007904689600011050500000000000000000201504230002001VICTOR MANUEL BOCANEGRA RAMIREZ                   D000000001300000000000000000000000100010010000000000000000000000F0010000007056100120150423000101 00000000000000000000000000000000000000000000000000000000000000000000000000000000000000000000000000000000000000000N 00000000000NCONT   00    00000000000          00000000000000000000000000000000000000000000 000000000000000A000000000000000000000000000000000000000000000 000000000000000000000000000000000000000     00000000                                                                                                                        000000000000000000
F0010000007056100002000007904689600041450500000000000000000201504230002001VICTOR MANUEL BOCANEGRA RAMIREZ                   C000000001200000000000000000000000100010010000000000000000000000F0010000007056100220150423000101 00000000000000000000000000000000000000000000000000000000000000000000000000000000000000000000000000000000000000000N 00000000000NCONT   00    00000000000          00000000000000000000000000000000000000000000 000000000000000A000000000000000000000000000000000000000000000 000000000000000000000000000000000000000     00000000                                                                                                                        000000000000000000
F0010000007056100003000007904689600042505000000000000000000201504230002001VICTOR MANUEL BOCANEGRA RAMIREZ                   C000000000100000000000000000000000100010010000000000000000000000F0010000007056100320150423000101 00000000000000000000000000000000000000000000000000000000000000000000000000000000000000000000000000000000000000000N 00000000000NCONT   00    00000000000          00000000000000000000000000000000000000000000 000000000000000A000000000000000000000000000000000000000000000 000000000000000000000000000000000000000     00000000                                                                                                                        000000000000000000
F0010000007056100004000007904689600023658300000000000000000201504230002001VICTOR MANUEL BOCANEGRA RAMIREZ                   C000000000009600000000000000000000100010010000000000000000000000F0010000007056100420150423000101 00000000000000000000000000000000000000000000000000000000000000000000000000000000000000000000000000000000000000000N 00000000000NCONT   00    00000000000          00000000000000000000000000000000000000000000 000000000000000A000000000000000000000000000000000000000000000 000000000000000000000000000000000000000     00000000                                                                                                                        000000000000000000
F0010000007056100005000007904689600013552100000000000000000201504230002001VICTOR MANUEL BOCANEGRA RAMIREZ                   D000000000009600000000000000000000100010010000000000000000000000F0010000007056100520150423000101 00000000000000000000000000000000000000000000000000000000000000000000000000000000000000000000000000000000000000000N 00000000000NCONT   00    00000000000          00000000000000000000000000000000000000000000 000000000000000A000000000000000000000000000000000000000000000 000000000000000000000000000000000000000     00000000                                                                                                                        000000000000000000
F0010000007056200001000007904689600011050500000000000000000201504230002001VICTOR MANUEL BOCANEGRA RAMIREZ                   D000000001000000000000000000000000100010010000000000000000000000F0010000007056200120150423000101 00000000000000000000000000000000000000000000000000000000000000000000000000000000000000000000000000000000000000000N 00000000000NCONT   00    00000000000          00000000000000000000000000000000000000000000 000000000000000A000000000000000000000000000000000000000000000 000000000000000000000000000000000000000     00000000                                                                                                                        000000000000000000
F0010000007056200002000007904689600041450500000000000000000201504230002001VICTOR MANUEL BOCANEGRA RAMIREZ                   C000000000900000000000000000000000100010010000000000000000000000F0010000007056200220150423000101 00000000000000000000000000000000000000000000000000000000000000000000000000000000000000000000000000000000000000000N 00000000000NCONT   00    00000000000          00000000000000000000000000000000000000000000 000000000000000A000000000000000000000000000000000000000000000 000000000000000000000000000000000000000     00000000                                                                                                                        000000000000000000
F0010000007056200003000007904689600042505000000000000000000201504230002001VICTOR MANUEL BOCANEGRA RAMIREZ                   C000000000100000000000000000000000100010010000000000000000000000F0010000007056200320150423000101 00000000000000000000000000000000000000000000000000000000000000000000000000000000000000000000000000000000000000000N 00000000000NCONT   00    00000000000          00000000000000000000000000000000000000000000 000000000000000A000000000000000000000000000000000000000000000 000000000000000000000000000000000000000     00000000                                                                                                                        000000000000000000
F0010000007056200004000007904689600023658300000000000000000201504230002001VICTOR MANUEL BOCANEGRA RAMIREZ                   C000000000007200000000000000000000100010010000000000000000000000F0010000007056200420150423000101 00000000000000000000000000000000000000000000000000000000000000000000000000000000000000000000000000000000000000000N 00000000000NCONT   00    00000000000          00000000000000000000000000000000000000000000 000000000000000A000000000000000000000000000000000000000000000 000000000000000000000000000000000000000     00000000                                                                                                                        000000000000000000
F0010000007056200005000007904689600013552100000000000000000201504230002001VICTOR MANUEL BOCANEGRA RAMIREZ                   D000000000007200000000000000000000100010010000000000000000000000F0010000007056200520150423000101 00000000000000000000000000000000000000000000000000000000000000000000000000000000000000000000000000000000000000000N 00000000000NCONT   00    00000000000          00000000000000000000000000000000000000000000 000000000000000A000000000000000000000000000000000000000000000 000000000000000000000000000000000000000     00000000                                                                                                                        000000000000000000
F0010000007056300001000000431178400011050500000000000000000201504230002001EFRAIN ALVAREZ                                    D000000003170000000000000000000000100010010000000000000000000000F0010000007056300120150423000101 00000000000000000000000000000000000000000000000000000000000000000000000000000000000000000000000000000000000000000N 00000000000NCONT   00    00000000000          00000000000000000000000000000000000000000000 000000000000000A000000000000000000000000000000000000000000000 000000000000000000000000000000000000000     00000000                                                                                                                        000000000000000000
F0010000007056300002000000431178400041450500000000000000000201504230002001EFRAIN ALVAREZ                                    C000000003020000000000000000000000100010010000000000000000000000F0010000007056300220150423000101 00000000000000000000000000000000000000000000000000000000000000000000000000000000000000000000000000000000000000000N 00000000000NCONT   00    00000000000          00000000000000000000000000000000000000000000 000000000000000A000000000000000000000000000000000000000000000 000000000000000000000000000000000000000     00000000                                                                                                                        000000000000000000
F0010000007056300003000000431178400042505000000000000000000201504230002001EFRAIN ALVAREZ                                    C000000000150000000000000000000000100010010000000000000000000000F0010000007056300320150423000101 00000000000000000000000000000000000000000000000000000000000000000000000000000000000000000000000000000000000000000N 00000000000NCONT   00    00000000000          00000000000000000000000000000000000000000000 000000000000000A000000000000000000000000000000000000000000000 000000000000000000000000000000000000000     00000000                                                                                                                        000000000000000000
F0010000007056300004000000431178400023658300000000000000000201504230002001EFRAIN ALVAREZ                                    C000000000024200000000000000000000100010010000000000000000000000F0010000007056300420150423000101 00000000000000000000000000000000000000000000000000000000000000000000000000000000000000000000000000000000000000000N 00000000000NCONT   00    00000000000          00000000000000000000000000000000000000000000 000000000000000A000000000000000000000000000000000000000000000 000000000000000000000000000000000000000     00000000                                                                                                                        000000000000000000
F0010000007056300005000000431178400013552100000000000000000201504230002001EFRAIN ALVAREZ                                    D000000000024200000000000000000000100010010000000000000000000000F0010000007056300520150423000101 00000000000000000000000000000000000000000000000000000000000000000000000000000000000000000000000000000000000000000N 00000000000NCONT   00    00000000000          00000000000000000000000000000000000000000000 000000000000000A000000000000000000000000000000000000000000000 000000000000000000000000000000000000000     00000000                                                                                                                        000000000000000000
F0010000007056400001000000431178400011050500000000000000000201504230002001EFRAIN ALVAREZ                                    D000000001240000000000000000000000100010010000000000000000000000F0010000007056400120150423000101 00000000000000000000000000000000000000000000000000000000000000000000000000000000000000000000000000000000000000000N 00000000000NCONT   00    00000000000          00000000000000000000000000000000000000000000 000000000000000A000000000000000000000000000000000000000000000 000000000000000000000000000000000000000     00000000                                                                                                                        000000000000000000
F0010000007056400002000000431178400041450500000000000000000201504230002001EFRAIN ALVAREZ                                    C000000001190000000000000000000000100010010000000000000000000000F0010000007056400220150423000101 00000000000000000000000000000000000000000000000000000000000000000000000000000000000000000000000000000000000000000N 00000000000NCONT   00    00000000000          00000000000000000000000000000000000000000000 000000000000000A000000000000000000000000000000000000000000000 000000000000000000000000000000000000000     00000000                                                                                                                        000000000000000000
F0010000007056400003000000431178400042505000000000000000000201504230002001EFRAIN ALVAREZ                                    C000000000050000000000000000000000100010010000000000000000000000F0010000007056400320150423000101 00000000000000000000000000000000000000000000000000000000000000000000000000000000000000000000000000000000000000000N 00000000000NCONT   00    00000000000          00000000000000000000000000000000000000000000 000000000000000A000000000000000000000000000000000000000000000 000000000000000000000000000000000000000     00000000                                                                                                                        000000000000000000
F0010000007056400004000000431178400023658300000000000000000201504230002001EFRAIN ALVAREZ                                    C000000000009500000000000000000000100010010000000000000000000000F0010000007056400420150423000101 00000000000000000000000000000000000000000000000000000000000000000000000000000000000000000000000000000000000000000N 00000000000NCONT   00    00000000000          00000000000000000000000000000000000000000000 000000000000000A000000000000000000000000000000000000000000000 000000000000000000000000000000000000000     00000000                                                                                                                        000000000000000000
F0010000007056400005000000431178400013552100000000000000000201504230002001EFRAIN ALVAREZ                                    D000000000009500000000000000000000100010010000000000000000000000F0010000007056400520150423000101 00000000000000000000000000000000000000000000000000000000000000000000000000000000000000000000000000000000000000000N 00000000000NCONT   00    00000000000          00000000000000000000000000000000000000000000 000000000000000A000000000000000000000000000000000000000000000 000000000000000000000000000000000000000     00000000                                                                                                                        000000000000000000
F0010000007056500001000000431178400011050500000000000000000201504230002001EFRAIN ALVAREZ                                    D000000002605000000000000000000000100010010000000000000000000000F0010000007056500120150423000101 00000000000000000000000000000000000000000000000000000000000000000000000000000000000000000000000000000000000000000N 00000000000NCONT   00    00000000000          00000000000000000000000000000000000000000000 000000000000000A000000000000000000000000000000000000000000000 000000000000000000000000000000000000000     00000000                                                                                                                        000000000000000000
F0010000007056500002000000431178400041450500000000000000000201504230002001EFRAIN ALVAREZ                                    C000000002380000000000000000000000100010010000000000000000000000F0010000007056500220150423000101 00000000000000000000000000000000000000000000000000000000000000000000000000000000000000000000000000000000000000000N 00000000000NCONT   00    00000000000          00000000000000000000000000000000000000000000 000000000000000A000000000000000000000000000000000000000000000 000000000000000000000000000000000000000     00000000                                                                                                                        000000000000000000
F0010000007056500003000000431178400042505000000000000000000201504230002001EFRAIN ALVAREZ                                    C000000000225000000000000000000000100010010000000000000000000000F0010000007056500320150423000101 00000000000000000000000000000000000000000000000000000000000000000000000000000000000000000000000000000000000000000N 00000000000NCONT   00    00000000000          00000000000000000000000000000000000000000000 000000000000000A000000000000000000000000000000000000000000000 000000000000000000000000000000000000000     00000000                                                                                                                        000000000000000000
F0010000007056500004000000431178400023658300000000000000000201504230002001EFRAIN ALVAREZ                                    C000000000019000000000000000000000100010010000000000000000000000F0010000007056500420150423000101 00000000000000000000000000000000000000000000000000000000000000000000000000000000000000000000000000000000000000000N 00000000000NCONT   00    00000000000          00000000000000000000000000000000000000000000 000000000000000A000000000000000000000000000000000000000000000 000000000000000000000000000000000000000     00000000                                                                                                                        000000000000000000
F0010000007056500005000000431178400013552100000000000000000201504230002001EFRAIN ALVAREZ                                    D000000000019000000000000000000000100010010000000000000000000000F0010000007056500520150423000101 00000000000000000000000000000000000000000000000000000000000000000000000000000000000000000000000000000000000000000N 00000000000NCONT   00    00000000000          00000000000000000000000000000000000000000000 000000000000000A000000000000000000000000000000000000000000000 000000000000000000000000000000000000000     00000000                                                                                                                        000000000000000000
F0010000007056600001000000431178400011050500000000000000000201504230002001EFRAIN ALVAREZ                                    D000000001240000000000000000000000100010010000000000000000000000F0010000007056600120150423000101 00000000000000000000000000000000000000000000000000000000000000000000000000000000000000000000000000000000000000000N 00000000000NCONT   00    00000000000          00000000000000000000000000000000000000000000 000000000000000A000000000000000000000000000000000000000000000 000000000000000000000000000000000000000     00000000                                                                                                                        000000000000000000
F0010000007056600002000000431178400041450500000000000000000201504230002001EFRAIN ALVAREZ                                    C000000001190000000000000000000000100010010000000000000000000000F0010000007056600220150423000101 00000000000000000000000000000000000000000000000000000000000000000000000000000000000000000000000000000000000000000N 00000000000NCONT   00    00000000000          00000000000000000000000000000000000000000000 000000000000000A000000000000000000000000000000000000000000000 000000000000000000000000000000000000000     00000000                                                                                                                        000000000000000000
F0010000007056600003000000431178400042505000000000000000000201504230002001EFRAIN ALVAREZ                                    C000000000050000000000000000000000100010010000000000000000000000F0010000007056600320150423000101 00000000000000000000000000000000000000000000000000000000000000000000000000000000000000000000000000000000000000000N 00000000000NCONT   00    00000000000          00000000000000000000000000000000000000000000 000000000000000A000000000000000000000000000000000000000000000 000000000000000000000000000000000000000     00000000                                                                                                                        000000000000000000
F0010000007056600004000000431178400023658300000000000000000201504230002001EFRAIN ALVAREZ                                    C000000000009500000000000000000000100010010000000000000000000000F0010000007056600420150423000101 00000000000000000000000000000000000000000000000000000000000000000000000000000000000000000000000000000000000000000N 00000000000NCONT   00    00000000000          00000000000000000000000000000000000000000000 000000000000000A000000000000000000000000000000000000000000000 000000000000000000000000000000000000000     00000000                                                                                                                        000000000000000000
F0010000007056600005000000431178400013552100000000000000000201504230002001EFRAIN ALVAREZ                                    D000000000009500000000000000000000100010010000000000000000000000F0010000007056600520150423000101 00000000000000000000000000000000000000000000000000000000000000000000000000000000000000000000000000000000000000000N 00000000000NCONT   00    00000000000          00000000000000000000000000000000000000000000 000000000000000A000000000000000000000000000000000000000000000 000000000000000000000000000000000000000     00000000                                                                                                                        000000000000000000
F0010000007056700001000000431178400011050500000000000000000201504230002001EFRAIN ALVAREZ                                    D000000001340000000000000000000000100010010000000000000000000000F0010000007056700120150423000101 00000000000000000000000000000000000000000000000000000000000000000000000000000000000000000000000000000000000000000N 00000000000NCONT   00    00000000000          00000000000000000000000000000000000000000000 000000000000000A000000000000000000000000000000000000000000000 000000000000000000000000000000000000000     00000000                                                                                                                        000000000000000000
F0010000007056700002000000431178400041450500000000000000000201504230002001EFRAIN ALVAREZ                                    C000000001190000000000000000000000100010010000000000000000000000F0010000007056700220150423000101 00000000000000000000000000000000000000000000000000000000000000000000000000000000000000000000000000000000000000000N 00000000000NCONT   00    00000000000          00000000000000000000000000000000000000000000 000000000000000A000000000000000000000000000000000000000000000 000000000000000000000000000000000000000     00000000                                                                                                                        000000000000000000
F0010000007056700003000000431178400042505000000000000000000201504230002001EFRAIN ALVAREZ                                    C000000000150000000000000000000000100010010000000000000000000000F0010000007056700320150423000101 00000000000000000000000000000000000000000000000000000000000000000000000000000000000000000000000000000000000000000N 00000000000NCONT   00    00000000000          00000000000000000000000000000000000000000000 000000000000000A000000000000000000000000000000000000000000000 000000000000000000000000000000000000000     00000000                                                                                                                        000000000000000000
F0010000007056700004000000431178400023658300000000000000000201504230002001EFRAIN ALVAREZ                                    C000000000009500000000000000000000100010010000000000000000000000F0010000007056700420150423000101 00000000000000000000000000000000000000000000000000000000000000000000000000000000000000000000000000000000000000000N 00000000000NCONT   00    00000000000          00000000000000000000000000000000000000000000 000000000000000A000000000000000000000000000000000000000000000 000000000000000000000000000000000000000     00000000                                                                                                                        000000000000000000
F0010000007056700005000000431178400013552100000000000000000201504230002001EFRAIN ALVAREZ                                    D000000000009500000000000000000000100010010000000000000000000000F0010000007056700520150423000101 00000000000000000000000000000000000000000000000000000000000000000000000000000000000000000000000000000000000000000N 00000000000NCONT   00    00000000000          00000000000000000000000000000000000000000000 000000000000000A000000000000000000000000000000000000000000000 000000000000000000000000000000000000000     00000000                                                                                                                        000000000000000000
F0010000007056800001000005204371400011050500000000000000000201504230002001MARITZA IMPORTS                                   D000000003200000000000000000000000100010010000000000000000000000F0010000007056800120150423000101 00000000000000000000000000000000000000000000000000000000000000000000000000000000000000000000000000000000000000000N 00000000000NCONT   00    00000000000          00000000000000000000000000000000000000000000 000000000000000A000000000000000000000000000000000000000000000 000000000000000000000000000000000000000     00000000                                                                                                                        000000000000000000
F0010000007056800002000005204371400041450500000000000000000201504230002001MARITZA IMPORTS                                   C000000002200000000000000000000000100010010000000000000000000000F0010000007056800220150423000101 00000000000000000000000000000000000000000000000000000000000000000000000000000000000000000000000000000000000000000N 00000000000NCONT   00    00000000000          00000000000000000000000000000000000000000000 000000000000000A000000000000000000000000000000000000000000000 000000000000000000000000000000000000000     00000000                                                                                                                        000000000000000000
F0010000007056800003000005204371400042505000000000000000000201504230002001MARITZA IMPORTS                                   C000000001000000000000000000000000100010010000000000000000000000F0010000007056800320150423000101 00000000000000000000000000000000000000000000000000000000000000000000000000000000000000000000000000000000000000000N 00000000000NCONT   00    00000000000          00000000000000000000000000000000000000000000 000000000000000A000000000000000000000000000000000000000000000 000000000000000000000000000000000000000     00000000                                                                                                                        000000000000000000
F0010000007056800004000005204371400023658300000000000000000201504230002001MARITZA IMPORTS                                   C000000000017600000000000000000000100010010000000000000000000000F0010000007056800420150423000101 00000000000000000000000000000000000000000000000000000000000000000000000000000000000000000000000000000000000000000N 00000000000NCONT   00    00000000000          00000000000000000000000000000000000000000000 000000000000000A000000000000000000000000000000000000000000000 000000000000000000000000000000000000000     00000000                                                                                                                        000000000000000000
F0010000007056800005000005204371400013552100000000000000000201504230002001MARITZA IMPORTS                                   D000000000017600000000000000000000100010010000000000000000000000F0010000007056800520150423000101 00000000000000000000000000000000000000000000000000000000000000000000000000000000000000000000000000000000000000000N 00000000000NCONT   00    00000000000          00000000000000000000000000000000000000000000 000000000000000A000000000000000000000000000000000000000000000 000000000000000000000000000000000000000     00000000                                                                                                                        000000000000000000
F0010000007056900001000000917568200011050500000000000000000201504230002001LUIS CARLOS LORA CARMONA                          D000000040000000000000000000000000100010010000000000000000000000F0010000007056900120150423000101 00000000000000000000000000000000000000000000000000000000000000000000000000000000000000000000000000000000000000000N 00000000000NCONT   00    00000000000          00000000000000000000000000000000000000000000 000000000000000A000000000000000000000000000000000000000000000 000000000000000000000000000000000000000     00000000                                                                                                                        000000000000000000
F0010000007056900002000000917568200041450500000000000000000201504230002001LUIS CARLOS LORA CARMONA                          C000000037400000000000000000000000100010010000000000000000000000F0010000007056900220150423000101 00000000000000000000000000000000000000000000000000000000000000000000000000000000000000000000000000000000000000000N 00000000000NCONT   00    00000000000          00000000000000000000000000000000000000000000 000000000000000A000000000000000000000000000000000000000000000 000000000000000000000000000000000000000     00000000                                                                                                                        000000000000000000
F0010000007056900003000000917568200042505000000000000000000201504230002001LUIS CARLOS LORA CARMONA                          C000000002600000000000000000000000100010010000000000000000000000F0010000007056900320150423000101 00000000000000000000000000000000000000000000000000000000000000000000000000000000000000000000000000000000000000000N 00000000000NCONT   00    00000000000          00000000000000000000000000000000000000000000 000000000000000A000000000000000000000000000000000000000000000 000000000000000000000000000000000000000     00000000                                                                                                                        000000000000000000
F0010000007056900004000000917568200023658300000000000000000201504230002001LUIS CARLOS LORA CARMONA                          C000000000299200000000000000000000100010010000000000000000000000F0010000007056900420150423000101 00000000000000000000000000000000000000000000000000000000000000000000000000000000000000000000000000000000000000000N 00000000000NCONT   00    00000000000          00000000000000000000000000000000000000000000 000000000000000A000000000000000000000000000000000000000000000 000000000000000000000000000000000000000     00000000                                                                                                                        000000000000000000
F0010000007056900005000000917568200013552100000000000000000201504230002001LUIS CARLOS LORA CARMONA                          D000000000299200000000000000000000100010010000000000000000000000F0010000007056900520150423000101 00000000000000000000000000000000000000000000000000000000000000000000000000000000000000000000000000000000000000000N 00000000000NCONT   00    00000000000          00000000000000000000000000000000000000000000 000000000000000A000000000000000000000000000000000000000000000 000000000000000000000000000000000000000     00000000                                                                                                                        000000000000000000
F0010000007057000001000000431178400011050500000000000000000201504230002001EFRAIN ALVAREZ                                    D000000001240000000000000000000000100010010000000000000000000000F0010000007057000120150423000101 00000000000000000000000000000000000000000000000000000000000000000000000000000000000000000000000000000000000000000N 00000000000NCONT   00    00000000000          00000000000000000000000000000000000000000000 000000000000000A000000000000000000000000000000000000000000000 000000000000000000000000000000000000000     00000000                                                                                                                        000000000000000000
F0010000007057000002000000431178400041450500000000000000000201504230002001EFRAIN ALVAREZ                                    C000000001190000000000000000000000100010010000000000000000000000F0010000007057000220150423000101 00000000000000000000000000000000000000000000000000000000000000000000000000000000000000000000000000000000000000000N 00000000000NCONT   00    00000000000          00000000000000000000000000000000000000000000 000000000000000A000000000000000000000000000000000000000000000 000000000000000000000000000000000000000     00000000                                                                                                                        000000000000000000
F0010000007057000003000000431178400042505000000000000000000201504230002001EFRAIN ALVAREZ                                    C000000000050000000000000000000000100010010000000000000000000000F0010000007057000320150423000101 00000000000000000000000000000000000000000000000000000000000000000000000000000000000000000000000000000000000000000N 00000000000NCONT   00    00000000000          00000000000000000000000000000000000000000000 000000000000000A000000000000000000000000000000000000000000000 000000000000000000000000000000000000000     00000000                                                                                                                        000000000000000000
F0010000007057000004000000431178400023658300000000000000000201504230002001EFRAIN ALVAREZ                                    C000000000009500000000000000000000100010010000000000000000000000F0010000007057000420150423000101 00000000000000000000000000000000000000000000000000000000000000000000000000000000000000000000000000000000000000000N 00000000000NCONT   00    00000000000          00000000000000000000000000000000000000000000 000000000000000A000000000000000000000000000000000000000000000 000000000000000000000000000000000000000     00000000                                                                                                                        000000000000000000
F0010000007057000005000000431178400013552100000000000000000201504230002001EFRAIN ALVAREZ                                    D000000000009500000000000000000000100010010000000000000000000000F0010000007057000520150423000101 00000000000000000000000000000000000000000000000000000000000000000000000000000000000000000000000000000000000000000N 00000000000NCONT   00    00000000000          00000000000000000000000000000000000000000000 000000000000000A000000000000000000000000000000000000000000000 000000000000000000000000000000000000000     00000000                                                                                                                        000000000000000000
F0010000007057100001000080202350700011050500000000000000000201504230002001CONNY DE LA COSTA SAS                             D000000009600000000000000000000000100010010000000000000000000000F0010000007057100120150423000101 00000000000000000000000000000000000000000000000000000000000000000000000000000000000000000000000000000000000000000N 00000000000NCONT   00    00000000000          00000000000000000000000000000000000000000000 000000000000000A000000000000000000000000000000000000000000000 000000000000000000000000000000000000000     00000000                                                                                                                        000000000000000000
F0010000007057100002000080202350700041450500000000000000000201504230002001CONNY DE LA COSTA SAS                             C000000008400000000000000000000000100010010000000000000000000000F0010000007057100220150423000101 00000000000000000000000000000000000000000000000000000000000000000000000000000000000000000000000000000000000000000N 00000000000NCONT   00    00000000000          00000000000000000000000000000000000000000000 000000000000000A000000000000000000000000000000000000000000000 000000000000000000000000000000000000000     00000000                                                                                                                        000000000000000000
F0010000007057100003000080202350700042505000000000000000000201504230002001CONNY DE LA COSTA SAS                             C000000001200000000000000000000000100010010000000000000000000000F0010000007057100320150423000101 00000000000000000000000000000000000000000000000000000000000000000000000000000000000000000000000000000000000000000N 00000000000NCONT   00    00000000000          00000000000000000000000000000000000000000000 000000000000000A000000000000000000000000000000000000000000000 000000000000000000000000000000000000000     00000000                                                                                                                        000000000000000000
F0010000007057100004000080202350700023658300000000000000000201504230002001CONNY DE LA COSTA SAS                             C000000000067200000000000000000000100010010000000000000000000000F0010000007057100420150423000101 00000000000000000000000000000000000000000000000000000000000000000000000000000000000000000000000000000000000000000N 00000000000NCONT   00    00000000000          00000000000000000000000000000000000000000000 000000000000000A000000000000000000000000000000000000000000000 000000000000000000000000000000000000000     00000000                                                                                                                        000000000000000000
F0010000007057100005000080202350700013552100000000000000000201504230002001CONNY DE LA COSTA SAS                             D000000000067200000000000000000000100010010000000000000000000000F0010000007057100520150423000101 00000000000000000000000000000000000000000000000000000000000000000000000000000000000000000000000000000000000000000N 00000000000NCONT   00    00000000000          00000000000000000000000000000000000000000000 000000000000000A000000000000000000000000000000000000000000000 000000000000000000000000000000000000000     00000000                                                                                                                        000000000000000000
F0010000007057200001000000431178400011050500000000000000000201504230002001EFRAIN ALVAREZ                                    D000000001240000000000000000000000100010010000000000000000000000F0010000007057200120150423000101 00000000000000000000000000000000000000000000000000000000000000000000000000000000000000000000000000000000000000000N 00000000000NCONT   00    00000000000          00000000000000000000000000000000000000000000 000000000000000A000000000000000000000000000000000000000000000 000000000000000000000000000000000000000     00000000                                                                                                                        000000000000000000
F0010000007057200002000000431178400041450500000000000000000201504230002001EFRAIN ALVAREZ                                    C000000001190000000000000000000000100010010000000000000000000000F0010000007057200220150423000101 00000000000000000000000000000000000000000000000000000000000000000000000000000000000000000000000000000000000000000N 00000000000NCONT   00    00000000000          00000000000000000000000000000000000000000000 000000000000000A000000000000000000000000000000000000000000000 000000000000000000000000000000000000000     00000000                                                                                                                        000000000000000000
F0010000007057200003000000431178400042505000000000000000000201504230002001EFRAIN ALVAREZ                                    C000000000050000000000000000000000100010010000000000000000000000F0010000007057200320150423000101 00000000000000000000000000000000000000000000000000000000000000000000000000000000000000000000000000000000000000000N 00000000000NCONT   00    00000000000          00000000000000000000000000000000000000000000 000000000000000A000000000000000000000000000000000000000000000 000000000000000000000000000000000000000     00000000                                                                                                                        000000000000000000
F0010000007057200004000000431178400023658300000000000000000201504230002001EFRAIN ALVAREZ                                    C000000000009500000000000000000000100010010000000000000000000000F0010000007057200420150423000101 00000000000000000000000000000000000000000000000000000000000000000000000000000000000000000000000000000000000000000N 00000000000NCONT   00    00000000000          00000000000000000000000000000000000000000000 000000000000000A000000000000000000000000000000000000000000000 000000000000000000000000000000000000000     00000000                                                                                                                        000000000000000000
F0010000007057200005000000431178400013552100000000000000000201504230002001EFRAIN ALVAREZ                                    D000000000009500000000000000000000100010010000000000000000000000F0010000007057200520150423000101 00000000000000000000000000000000000000000000000000000000000000000000000000000000000000000000000000000000000000000N 00000000000NCONT   00    00000000000          00000000000000000000000000000000000000000000 000000000000000A000000000000000000000000000000000000000000000 000000000000000000000000000000000000000     00000000                                                                                                                        000000000000000000
F0010000007057300001000000431178400011050500000000000000000201504230002001EFRAIN ALVAREZ                                    D000000001660000000000000000000000100010010000000000000000000000F0010000007057300120150423000101 00000000000000000000000000000000000000000000000000000000000000000000000000000000000000000000000000000000000000000N 00000000000NCONT   00    00000000000          00000000000000000000000000000000000000000000 000000000000000A000000000000000000000000000000000000000000000 000000000000000000000000000000000000000     00000000                                                                                                                        000000000000000000
F0010000007057300002000000431178400041450500000000000000000201504230002001EFRAIN ALVAREZ                                    C000000001510000000000000000000000100010010000000000000000000000F0010000007057300220150423000101 00000000000000000000000000000000000000000000000000000000000000000000000000000000000000000000000000000000000000000N 00000000000NCONT   00    00000000000          00000000000000000000000000000000000000000000 000000000000000A000000000000000000000000000000000000000000000 000000000000000000000000000000000000000     00000000                                                                                                                        000000000000000000
F0010000007057300003000000431178400042505000000000000000000201504230002001EFRAIN ALVAREZ                                    C000000000150000000000000000000000100010010000000000000000000000F0010000007057300320150423000101 00000000000000000000000000000000000000000000000000000000000000000000000000000000000000000000000000000000000000000N 00000000000NCONT   00    00000000000          00000000000000000000000000000000000000000000 000000000000000A000000000000000000000000000000000000000000000 000000000000000000000000000000000000000     00000000                                                                                                                        000000000000000000
F0010000007057300004000000431178400023658300000000000000000201504230002001EFRAIN ALVAREZ                                    C000000000012100000000000000000000100010010000000000000000000000F0010000007057300420150423000101 00000000000000000000000000000000000000000000000000000000000000000000000000000000000000000000000000000000000000000N 00000000000NCONT   00    00000000000          00000000000000000000000000000000000000000000 000000000000000A000000000000000000000000000000000000000000000 000000000000000000000000000000000000000     00000000                                                                                                                        000000000000000000
F0010000007057300005000000431178400013552100000000000000000201504230002001EFRAIN ALVAREZ                                    D000000000012100000000000000000000100010010000000000000000000000F0010000007057300520150423000101 00000000000000000000000000000000000000000000000000000000000000000000000000000000000000000000000000000000000000000N 00000000000NCONT   00    00000000000          00000000000000000000000000000000000000000000 000000000000000A000000000000000000000000000000000000000000000 000000000000000000000000000000000000000     00000000                                                                                                                        000000000000000000
F0010000007057400001000000431178400011050500000000000000000201504230002001EFRAIN ALVAREZ                                    D000000001240000000000000000000000100010010000000000000000000000F0010000007057400120150423000101 00000000000000000000000000000000000000000000000000000000000000000000000000000000000000000000000000000000000000000N 00000000000NCONT   00    00000000000          00000000000000000000000000000000000000000000 000000000000000A000000000000000000000000000000000000000000000 000000000000000000000000000000000000000     00000000                                                                                                                        000000000000000000
F0010000007057400002000000431178400041450500000000000000000201504230002001EFRAIN ALVAREZ                                    C000000001190000000000000000000000100010010000000000000000000000F0010000007057400220150423000101 00000000000000000000000000000000000000000000000000000000000000000000000000000000000000000000000000000000000000000N 00000000000NCONT   00    00000000000          00000000000000000000000000000000000000000000 000000000000000A000000000000000000000000000000000000000000000 000000000000000000000000000000000000000     00000000                                                                                                                        000000000000000000
F0010000007057400003000000431178400042505000000000000000000201504230002001EFRAIN ALVAREZ                                    C000000000050000000000000000000000100010010000000000000000000000F0010000007057400320150423000101 00000000000000000000000000000000000000000000000000000000000000000000000000000000000000000000000000000000000000000N 00000000000NCONT   00    00000000000          00000000000000000000000000000000000000000000 000000000000000A000000000000000000000000000000000000000000000 000000000000000000000000000000000000000     00000000                                                                                                                        000000000000000000
F0010000007057400004000000431178400023658300000000000000000201504230002001EFRAIN ALVAREZ                                    C000000000009500000000000000000000100010010000000000000000000000F0010000007057400420150423000101 00000000000000000000000000000000000000000000000000000000000000000000000000000000000000000000000000000000000000000N 00000000000NCONT   00    00000000000          00000000000000000000000000000000000000000000 000000000000000A000000000000000000000000000000000000000000000 000000000000000000000000000000000000000     00000000                                                                                                                        000000000000000000
F0010000007057400005000000431178400013552100000000000000000201504230002001EFRAIN ALVAREZ                                    D000000000009500000000000000000000100010010000000000000000000000F0010000007057400520150423000101 00000000000000000000000000000000000000000000000000000000000000000000000000000000000000000000000000000000000000000N 00000000000NCONT   00    00000000000          00000000000000000000000000000000000000000000 000000000000000A000000000000000000000000000000000000000000000 000000000000000000000000000000000000000     00000000                                                                                                                        000000000000000000
F0010000007057500001000080202350700011050500000000000000000201504230002001CONNY DE LA COSTA SAS                             D000000040000000000000000000000000100010010000000000000000000000F0010000007057500120150423000101 00000000000000000000000000000000000000000000000000000000000000000000000000000000000000000000000000000000000000000N 00000000000NCONT   00    00000000000          00000000000000000000000000000000000000000000 000000000000000A000000000000000000000000000000000000000000000 000000000000000000000000000000000000000     00000000                                                                                                                        000000000000000000
F0010000007057500002000080202350700041450500000000000000000201504230002001CONNY DE LA COSTA SAS                             C000000032000000000000000000000000100010010000000000000000000000F0010000007057500220150423000101 00000000000000000000000000000000000000000000000000000000000000000000000000000000000000000000000000000000000000000N 00000000000NCONT   00    00000000000          00000000000000000000000000000000000000000000 000000000000000A000000000000000000000000000000000000000000000 000000000000000000000000000000000000000     00000000                                                                                                                        000000000000000000
F0010000007057500003000080202350700042505000000000000000000201504230002001CONNY DE LA COSTA SAS                             C000000008000000000000000000000000100010010000000000000000000000F0010000007057500320150423000101 00000000000000000000000000000000000000000000000000000000000000000000000000000000000000000000000000000000000000000N 00000000000NCONT   00    00000000000          00000000000000000000000000000000000000000000 000000000000000A000000000000000000000000000000000000000000000 000000000000000000000000000000000000000     00000000                                                                                                                        000000000000000000
F0010000007057500004000080202350700023658300000000000000000201504230002001CONNY DE LA COSTA SAS                             C000000000256000000000000000000000100010010000000000000000000000F0010000007057500420150423000101 00000000000000000000000000000000000000000000000000000000000000000000000000000000000000000000000000000000000000000N 00000000000NCONT   00    00000000000          00000000000000000000000000000000000000000000 000000000000000A000000000000000000000000000000000000000000000 000000000000000000000000000000000000000     00000000                                                                                                                        000000000000000000
F0010000007057500005000080202350700013552100000000000000000201504230002001CONNY DE LA COSTA SAS                             D000000000256000000000000000000000100010010000000000000000000000F0010000007057500520150423000101 00000000000000000000000000000000000000000000000000000000000000000000000000000000000000000000000000000000000000000N 00000000000NCONT   00    00000000000          00000000000000000000000000000000000000000000 000000000000000A000000000000000000000000000000000000000000000 000000000000000000000000000000000000000     00000000                                                                                                                        000000000000000000
F0010000007057600001000080202350700011050500000000000000000201504230002001CONNY DE LA COSTA SAS                             D000000001500000000000000000000000100010010000000000000000000000F0010000007057600120150423000101 00000000000000000000000000000000000000000000000000000000000000000000000000000000000000000000000000000000000000000N 00000000000NCONT   00    00000000000          00000000000000000000000000000000000000000000 000000000000000A000000000000000000000000000000000000000000000 000000000000000000000000000000000000000     00000000                                                                                                                        000000000000000000
F0010000007057600002000080202350700041450500000000000000000201504230002001CONNY DE LA COSTA SAS                             C000000000800000000000000000000000100010010000000000000000000000F0010000007057600220150423000101 00000000000000000000000000000000000000000000000000000000000000000000000000000000000000000000000000000000000000000N 00000000000NCONT   00    00000000000          00000000000000000000000000000000000000000000 000000000000000A000000000000000000000000000000000000000000000 000000000000000000000000000000000000000     00000000                                                                                                                        000000000000000000
F0010000007057600003000080202350700042505000000000000000000201504230002001CONNY DE LA COSTA SAS                             C000000000700000000000000000000000100010010000000000000000000000F0010000007057600320150423000101 00000000000000000000000000000000000000000000000000000000000000000000000000000000000000000000000000000000000000000N 00000000000NCONT   00    00000000000          00000000000000000000000000000000000000000000 000000000000000A000000000000000000000000000000000000000000000 000000000000000000000000000000000000000     00000000                                                                                                                        000000000000000000
F0010000007057600004000080202350700023658300000000000000000201504230002001CONNY DE LA COSTA SAS                             C000000000006400000000000000000000100010010000000000000000000000F0010000007057600420150423000101 00000000000000000000000000000000000000000000000000000000000000000000000000000000000000000000000000000000000000000N 00000000000NCONT   00    00000000000          00000000000000000000000000000000000000000000 000000000000000A000000000000000000000000000000000000000000000 000000000000000000000000000000000000000     00000000                                                                                                                        000000000000000000
F0010000007057600005000080202350700013552100000000000000000201504230002001CONNY DE LA COSTA SAS                             D000000000006400000000000000000000100010010000000000000000000000F0010000007057600520150423000101 00000000000000000000000000000000000000000000000000000000000000000000000000000000000000000000000000000000000000000N 00000000000NCONT   00    00000000000          00000000000000000000000000000000000000000000 000000000000000A000000000000000000000000000000000000000000000 000000000000000000000000000000000000000     00000000                                                                                                                        000000000000000000
F0010000007057700001000000431178400011050500000000000000000201504230002001EFRAIN ALVAREZ                                    D000000001560000000000000000000000100010010000000000000000000000F0010000007057700120150423000101 00000000000000000000000000000000000000000000000000000000000000000000000000000000000000000000000000000000000000000N 00000000000NCONT   00    00000000000          00000000000000000000000000000000000000000000 000000000000000A000000000000000000000000000000000000000000000 000000000000000000000000000000000000000     00000000                                                                                                                        000000000000000000
F0010000007057700002000000431178400041450500000000000000000201504230002001EFRAIN ALVAREZ                                    C000000001510000000000000000000000100010010000000000000000000000F0010000007057700220150423000101 00000000000000000000000000000000000000000000000000000000000000000000000000000000000000000000000000000000000000000N 00000000000NCONT   00    00000000000          00000000000000000000000000000000000000000000 000000000000000A000000000000000000000000000000000000000000000 000000000000000000000000000000000000000     00000000                                                                                                                        000000000000000000
