F0010000006576700001000007225219800011050500000000000000000201412030002001MAURICIO ALVAREZ VARELO                           D000000005600000000000000000000000100010010000000000000000000000F0010000006576700120141203000101 00000000000000000000000000000000000000000000000000000000000000000000000000000000000000000000000000000000000000000N 00000000000NCONT   00    00000000000          00000000000000000000000000000000000000000000 000000000000000A000000000000000000000000000000000000000000000 000000000000000000000000000000000000000     00000000                                                                                                                        000000000000000000
F0010000006576700002000007225219800041450500000000000000000201412030002001MAURICIO ALVAREZ VARELO                           C000000004500000000000000000000000100010010000000000000000000000F0010000006576700220141203000101 00000000000000000000000000000000000000000000000000000000000000000000000000000000000000000000000000000000000000000N 00000000000NCONT   00    00000000000          00000000000000000000000000000000000000000000 000000000000000A000000000000000000000000000000000000000000000 000000000000000000000000000000000000000     00000000                                                                                                                        000000000000000000
F0010000006576700003000007225219800042505000000000000000000201412030002001MAURICIO ALVAREZ VARELO                           C000000001100000000000000000000000100010010000000000000000000000F0010000006576700320141203000101 00000000000000000000000000000000000000000000000000000000000000000000000000000000000000000000000000000000000000000N 00000000000NCONT   00    00000000000          00000000000000000000000000000000000000000000 000000000000000A000000000000000000000000000000000000000000000 000000000000000000000000000000000000000     00000000                                                                                                                        000000000000000000
F0010000006576700004000007225219800023658300000000000000000201412030002001MAURICIO ALVAREZ VARELO                           C000000000036000000000000000000000100010010000000000000000000000F0010000006576700420141203000101 00000000000000000000000000000000000000000000000000000000000000000000000000000000000000000000000000000000000000000N 00000000000NCONT   00    00000000000          00000000000000000000000000000000000000000000 000000000000000A000000000000000000000000000000000000000000000 000000000000000000000000000000000000000     00000000                                                                                                                        000000000000000000
F0010000006576700005000007225219800013552100000000000000000201412030002001MAURICIO ALVAREZ VARELO                           D000000000036000000000000000000000100010010000000000000000000000F0010000006576700520141203000101 00000000000000000000000000000000000000000000000000000000000000000000000000000000000000000000000000000000000000000N 00000000000NCONT   00    00000000000          00000000000000000000000000000000000000000000 000000000000000A000000000000000000000000000000000000000000000 000000000000000000000000000000000000000     00000000                                                                                                                        000000000000000000
F0010000006576800001000089031248700013050500000000000000000201412030002001DISTRIBUIDORA CALIPLASTICOS LTDA                  D000000046761200000000000000000000100010010000000000000000000000F0010000006576800120141203000101 00000000000000000000000000000000000000000000000000000000000000000000000000000000000000000000000000000000000000000N 00000000000NCONT   00    00000000000          00000000000000000000000000000000000000000000 000000000000000A000000000000000000000000000000000000000000000 000000000000000000000000000000000000000     00000000                                                                                                                        000000000000000000
F0010000006576800002000089031248700041450500000000000000000201412030002001DISTRIBUIDORA CALIPLASTICOS LTDA                  C000000045036200000000000000000000100010010000000000000000000000F0010000006576800220141203000101 00000000000000000000000000000000000000000000000000000000000000000000000000000000000000000000000000000000000000000N 00000000000NCONT   00    00000000000          00000000000000000000000000000000000000000000 000000000000000A000000000000000000000000000000000000000000000 000000000000000000000000000000000000000     00000000                                                                                                                        000000000000000000
F0010000006576800003000089031248700042505000000000000000000201412030002001DISTRIBUIDORA CALIPLASTICOS LTDA                  C000000001725000000000000000000000100010010000000000000000000000F0010000006576800320141203000101 00000000000000000000000000000000000000000000000000000000000000000000000000000000000000000000000000000000000000000N 00000000000NCONT   00    00000000000          00000000000000000000000000000000000000000000 000000000000000A000000000000000000000000000000000000000000000 000000000000000000000000000000000000000     00000000                                                                                                                        000000000000000000
F0010000006576800004000089031248700023658300000000000000000201412030002001DISTRIBUIDORA CALIPLASTICOS LTDA                  C000000000360300000000000000000000100010010000000000000000000000F0010000006576800420141203000101 00000000000000000000000000000000000000000000000000000000000000000000000000000000000000000000000000000000000000000N 00000000000NCONT   00    00000000000          00000000000000000000000000000000000000000000 000000000000000A000000000000000000000000000000000000000000000 000000000000000000000000000000000000000     00000000                                                                                                                        000000000000000000
F0010000006576800005000089031248700013552100000000000000000201412030002001DISTRIBUIDORA CALIPLASTICOS LTDA                  D000000000360300000000000000000000100010010000000000000000000000F0010000006576800520141203000101 00000000000000000000000000000000000000000000000000000000000000000000000000000000000000000000000000000000000000000N 00000000000NCONT   00    00000000000          00000000000000000000000000000000000000000000 000000000000000A000000000000000000000000000000000000000000000 000000000000000000000000000000000000000     00000000                                                                                                                        000000000000000000
F0010000006576900001000090049854300013050500000000000000000201412030002001TRAPOS INDUSTRIALES DE COLOMBIA SAS               D000000010410000000000000000000000100010010000000000000000000000F0010000006576900120141203000101 00000000000000000000000000000000000000000000000000000000000000000000000000000000000000000000000000000000000000000N 00000000000NCONT   00    00000000000          00000000000000000000000000000000000000000000 000000000000000A000000000000000000000000000000000000000000000 000000000000000000000000000000000000000     00000000                                                                                                                        000000000000000000
F0010000006576900002000090049854300041450500000000000000000201412030002001TRAPOS INDUSTRIALES DE COLOMBIA SAS               C000000009000000000000000000000000100010010000000000000000000000F0010000006576900220141203000101 00000000000000000000000000000000000000000000000000000000000000000000000000000000000000000000000000000000000000000N 00000000000NCONT   00    00000000000          00000000000000000000000000000000000000000000 000000000000000A000000000000000000000000000000000000000000000 000000000000000000000000000000000000000     00000000                                                                                                                        000000000000000000
F0010000006576900003000090049854300042505000000000000000000201412030002001TRAPOS INDUSTRIALES DE COLOMBIA SAS               C000000001410000000000000000000000100010010000000000000000000000F0010000006576900320141203000101 00000000000000000000000000000000000000000000000000000000000000000000000000000000000000000000000000000000000000000N 00000000000NCONT   00    00000000000          00000000000000000000000000000000000000000000 000000000000000A000000000000000000000000000000000000000000000 000000000000000000000000000000000000000     00000000                                                                                                                        000000000000000000
F0010000006576900004000090049854300023658300000000000000000201412030002001TRAPOS INDUSTRIALES DE COLOMBIA SAS               C000000000072000000000000000000000100010010000000000000000000000F0010000006576900420141203000101 00000000000000000000000000000000000000000000000000000000000000000000000000000000000000000000000000000000000000000N 00000000000NCONT   00    00000000000          00000000000000000000000000000000000000000000 000000000000000A000000000000000000000000000000000000000000000 000000000000000000000000000000000000000     00000000                                                                                                                        000000000000000000
F0010000006576900005000090049854300013552100000000000000000201412030002001TRAPOS INDUSTRIALES DE COLOMBIA SAS               D000000000072000000000000000000000100010010000000000000000000000F0010000006576900520141203000101 00000000000000000000000000000000000000000000000000000000000000000000000000000000000000000000000000000000000000000N 00000000000NCONT   00    00000000000          00000000000000000000000000000000000000000000 000000000000000A000000000000000000000000000000000000000000000 000000000000000000000000000000000000000     00000000                                                                                                                        000000000000000000
F0010000006577000001000090013324200013050500000000000000000201412030002001PLASTICOHEN E.U                                   D000000021800000000000000000000000100010010000000000000000000000F0010000006577000120141203000101 00000000000000000000000000000000000000000000000000000000000000000000000000000000000000000000000000000000000000000N 00000000000NCONT   00    00000000000          00000000000000000000000000000000000000000000 000000000000000A000000000000000000000000000000000000000000000 000000000000000000000000000000000000000     00000000                                                                                                                        000000000000000000
F0010000006577000002000090013324200041450500000000000000000201412030002001PLASTICOHEN E.U                                   C000000019800000000000000000000000100010010000000000000000000000F0010000006577000220141203000101 00000000000000000000000000000000000000000000000000000000000000000000000000000000000000000000000000000000000000000N 00000000000NCONT   00    00000000000          00000000000000000000000000000000000000000000 000000000000000A000000000000000000000000000000000000000000000 000000000000000000000000000000000000000     00000000                                                                                                                        000000000000000000
F0010000006577000003000090013324200042505000000000000000000201412030002001PLASTICOHEN E.U                                   C000000002000000000000000000000000100010010000000000000000000000F0010000006577000320141203000101 00000000000000000000000000000000000000000000000000000000000000000000000000000000000000000000000000000000000000000N 00000000000NCONT   00    00000000000          00000000000000000000000000000000000000000000 000000000000000A000000000000000000000000000000000000000000000 000000000000000000000000000000000000000     00000000                                                                                                                        000000000000000000
F0010000006577000004000090013324200023658300000000000000000201412030002001PLASTICOHEN E.U                                   C000000000158400000000000000000000100010010000000000000000000000F0010000006577000420141203000101 00000000000000000000000000000000000000000000000000000000000000000000000000000000000000000000000000000000000000000N 00000000000NCONT   00    00000000000          00000000000000000000000000000000000000000000 000000000000000A000000000000000000000000000000000000000000000 000000000000000000000000000000000000000     00000000                                                                                                                        000000000000000000
F0010000006577000005000090013324200013552100000000000000000201412030002001PLASTICOHEN E.U                                   D000000000158400000000000000000000100010010000000000000000000000F0010000006577000520141203000101 00000000000000000000000000000000000000000000000000000000000000000000000000000000000000000000000000000000000000000N 00000000000NCONT   00    00000000000          00000000000000000000000000000000000000000000 000000000000000A000000000000000000000000000000000000000000000 000000000000000000000000000000000000000     00000000                                                                                                                        000000000000000000
F0010000006577100001000089010233900013050500000000000000000201412030002001JAIRO ECHEVERRI Y CIA LTDA                        D000000013492000000000000000000000100010010000000000000000000000F0010000006577100120141203000101 00000000000000000000000000000000000000000000000000000000000000000000000000000000000000000000000000000000000000000N 00000000000NCONT   00    00000000000          00000000000000000000000000000000000000000000 000000000000000A000000000000000000000000000000000000000000000 000000000000000000000000000000000000000     00000000                                                                                                                        000000000000000000
F0010000006577100002000089010233900041450500000000000000000201412030002001JAIRO ECHEVERRI Y CIA LTDA                        C000000010800000000000000000000000100010010000000000000000000000F0010000006577100220141203000101 00000000000000000000000000000000000000000000000000000000000000000000000000000000000000000000000000000000000000000N 00000000000NCONT   00    00000000000          00000000000000000000000000000000000000000000 000000000000000A000000000000000000000000000000000000000000000 000000000000000000000000000000000000000     00000000                                                                                                                        000000000000000000
F0010000006577100003000089010233900042505000000000000000000201412030002001JAIRO ECHEVERRI Y CIA LTDA                        C000000002692000000000000000000000100010010000000000000000000000F0010000006577100320141203000101 00000000000000000000000000000000000000000000000000000000000000000000000000000000000000000000000000000000000000000N 00000000000NCONT   00    00000000000          00000000000000000000000000000000000000000000 000000000000000A000000000000000000000000000000000000000000000 000000000000000000000000000000000000000     00000000                                                                                                                        000000000000000000
F0010000006577100004000089010233900023658300000000000000000201412030002001JAIRO ECHEVERRI Y CIA LTDA                        C000000000086400000000000000000000100010010000000000000000000000F0010000006577100420141203000101 00000000000000000000000000000000000000000000000000000000000000000000000000000000000000000000000000000000000000000N 00000000000NCONT   00    00000000000          00000000000000000000000000000000000000000000 000000000000000A000000000000000000000000000000000000000000000 000000000000000000000000000000000000000     00000000                                                                                                                        000000000000000000
F0010000006577100005000089010233900013552100000000000000000201412030002001JAIRO ECHEVERRI Y CIA LTDA                        D000000000086400000000000000000000100010010000000000000000000000F0010000006577100520141203000101 00000000000000000000000000000000000000000000000000000000000000000000000000000000000000000000000000000000000000000N 00000000000NCONT   00    00000000000          00000000000000000000000000000000000000000000 000000000000000A000000000000000000000000000000000000000000000 000000000000000000000000000000000000000     00000000                                                                                                                        000000000000000000
F0010000006577200001000081102758700013050500000000000000000201412030002001C.I. ABRACOL S.A EMA                              D000000133080400000000000000000000100010010000000000000000000000F0010000006577200120141203000101 00000000000000000000000000000000000000000000000000000000000000000000000000000000000000000000000000000000000000000N 00000000000NCONT   00    00000000000          00000000000000000000000000000000000000000000 000000000000000A000000000000000000000000000000000000000000000 000000000000000000000000000000000000000     00000000                                                                                                                        000000000000000000
F0010000006577200002000081102758700041450500000000000000000201412030002001C.I. ABRACOL S.A EMA                              C000000097590000000000000000000000100010010000000000000000000000F0010000006577200220141203000101 00000000000000000000000000000000000000000000000000000000000000000000000000000000000000000000000000000000000000000N 00000000000NCONT   00    00000000000          00000000000000000000000000000000000000000000 000000000000000A000000000000000000000000000000000000000000000 000000000000000000000000000000000000000     00000000                                                                                                                        000000000000000000
F0010000006577200003000081102758700041750100000000000000000201412030002001C.I. ABRACOL S.A EMA                              D000000002927700000000000000000000100010010000000000000000000000F0010000006577200320141203000101 00000000000000000000000000000000000000000000000000000000000000000000000000000000000000000000000000000000000000000N 00000000000NCONT   00    00000000000          00000000000000000000000000000000000000000000 000000000000000A000000000000000000000000000000000000000000000 000000000000000000000000000000000000000     00000000                                                                                                                        000000000000000000
F0010000006577200004000081102758700042505000000000000000000201412030002001C.I. ABRACOL S.A EMA                              C000000038418100000000000000000000100010010000000000000000000000F0010000006577200420141203000101 00000000000000000000000000000000000000000000000000000000000000000000000000000000000000000000000000000000000000000N 00000000000NCONT   00    00000000000          00000000000000000000000000000000000000000000 000000000000000A000000000000000000000000000000000000000000000 000000000000000000000000000000000000000     00000000                                                                                                                        000000000000000000
F0010000006577200005000081102758700023658300000000000000000201412030002001C.I. ABRACOL S.A EMA                              C000000000780700000000000000000000100010010000000000000000000000F0010000006577200520141203000101 00000000000000000000000000000000000000000000000000000000000000000000000000000000000000000000000000000000000000000N 00000000000NCONT   00    00000000000          00000000000000000000000000000000000000000000 000000000000000A000000000000000000000000000000000000000000000 000000000000000000000000000000000000000     00000000                                                                                                                        000000000000000000
F0010000006577200006000081102758700013552100000000000000000201412030002001C.I. ABRACOL S.A EMA                              D000000000780700000000000000000000100010010000000000000000000000F0010000006577200620141203000101 00000000000000000000000000000000000000000000000000000000000000000000000000000000000000000000000000000000000000000N 00000000000NCONT   00    00000000000          00000000000000000000000000000000000000000000 000000000000000A000000000000000000000000000000000000000000000 000000000000000000000000000000000000000     00000000                                                                                                                        000000000000000000
F0010000006577300001000081102758700013050500000000000000000201412030002001C.I. ABRACOL S.A EMA                              D000000013316900000000000000000000100010010000000000000000000000F0010000006577300120141203000101 00000000000000000000000000000000000000000000000000000000000000000000000000000000000000000000000000000000000000000N 00000000000NCONT   00    00000000000          00000000000000000000000000000000000000000000 000000000000000A000000000000000000000000000000000000000000000 000000000000000000000000000000000000000     00000000                                                                                                                        000000000000000000
F0010000006577300002000081102758700041450500000000000000000201412030002001C.I. ABRACOL S.A EMA                              C000000006440000000000000000000000100010010000000000000000000000F0010000006577300220141203000101 00000000000000000000000000000000000000000000000000000000000000000000000000000000000000000000000000000000000000000N 00000000000NCONT   00    00000000000          00000000000000000000000000000000000000000000 000000000000000A000000000000000000000000000000000000000000000 000000000000000000000000000000000000000     00000000                                                                                                                        000000000000000000
F0010000006577300003000081102758700041750100000000000000000201412030002001C.I. ABRACOL S.A EMA                              D000000000193200000000000000000000100010010000000000000000000000F0010000006577300320141203000101 00000000000000000000000000000000000000000000000000000000000000000000000000000000000000000000000000000000000000000N 00000000000NCONT   00    00000000000          00000000000000000000000000000000000000000000 000000000000000A000000000000000000000000000000000000000000000 000000000000000000000000000000000000000     00000000                                                                                                                        000000000000000000
F0010000006577300004000081102758700042505000000000000000000201412030002001C.I. ABRACOL S.A EMA                              C000000007070100000000000000000000100010010000000000000000000000F0010000006577300420141203000101 00000000000000000000000000000000000000000000000000000000000000000000000000000000000000000000000000000000000000000N 00000000000NCONT   00    00000000000          00000000000000000000000000000000000000000000 000000000000000A000000000000000000000000000000000000000000000 000000000000000000000000000000000000000     00000000                                                                                                                        000000000000000000
F0010000006577300005000081102758700023658300000000000000000201412030002001C.I. ABRACOL S.A EMA                              C000000000051500000000000000000000100010010000000000000000000000F0010000006577300520141203000101 00000000000000000000000000000000000000000000000000000000000000000000000000000000000000000000000000000000000000000N 00000000000NCONT   00    00000000000          00000000000000000000000000000000000000000000 000000000000000A000000000000000000000000000000000000000000000 000000000000000000000000000000000000000     00000000                                                                                                                        000000000000000000
F0010000006577300006000081102758700013552100000000000000000201412030002001C.I. ABRACOL S.A EMA                              D000000000051500000000000000000000100010010000000000000000000000F0010000006577300620141203000101 00000000000000000000000000000000000000000000000000000000000000000000000000000000000000000000000000000000000000000N 00000000000NCONT   00    00000000000          00000000000000000000000000000000000000000000 000000000000000A000000000000000000000000000000000000000000000 000000000000000000000000000000000000000     00000000                                                                                                                        000000000000000000
F0010000006577400001000089093802000013050500000000000000000201412030002001INPROQUIM SAS                                     D000000089072600000000000000000000100010010000000000000000000000F0010000006577400120141203000101 00000000000000000000000000000000000000000000000000000000000000000000000000000000000000000000000000000000000000000N 00000000000NCONT   00    00000000000          00000000000000000000000000000000000000000000 000000000000000A000000000000000000000000000000000000000000000 000000000000000000000000000000000000000     00000000                                                                                                                        000000000000000000
F0010000006577400002000089093802000041450500000000000000000201412030002001INPROQUIM SAS                                     C000000079700000000000000000000000100010010000000000000000000000F0010000006577400220141203000101 00000000000000000000000000000000000000000000000000000000000000000000000000000000000000000000000000000000000000000N 00000000000NCONT   00    00000000000          00000000000000000000000000000000000000000000 000000000000000A000000000000000000000000000000000000000000000 000000000000000000000000000000000000000     00000000                                                                                                                        000000000000000000
F0010000006577400003000089093802000042505000000000000000000201412030002001INPROQUIM SAS                                     C000000009372600000000000000000000100010010000000000000000000000F0010000006577400320141203000101 00000000000000000000000000000000000000000000000000000000000000000000000000000000000000000000000000000000000000000N 00000000000NCONT   00    00000000000          00000000000000000000000000000000000000000000 000000000000000A000000000000000000000000000000000000000000000 000000000000000000000000000000000000000     00000000                                                                                                                        000000000000000000
F0010000006577400004000089093802000023658300000000000000000201412030002001INPROQUIM SAS                                     C000000000637600000000000000000000100010010000000000000000000000F0010000006577400420141203000101 00000000000000000000000000000000000000000000000000000000000000000000000000000000000000000000000000000000000000000N 00000000000NCONT   00    00000000000          00000000000000000000000000000000000000000000 000000000000000A000000000000000000000000000000000000000000000 000000000000000000000000000000000000000     00000000                                                                                                                        000000000000000000
F0010000006577400005000089093802000013552100000000000000000201412030002001INPROQUIM SAS                                     D000000000637600000000000000000000100010010000000000000000000000F0010000006577400520141203000101 00000000000000000000000000000000000000000000000000000000000000000000000000000000000000000000000000000000000000000N 00000000000NCONT   00    00000000000          00000000000000000000000000000000000000000000 000000000000000A000000000000000000000000000000000000000000000 000000000000000000000000000000000000000     00000000                                                                                                                        000000000000000000
F0010000006577500001000086000490200013050500000000000000000201412030002001PROV. DE PAPELES ANDINA S.A.                      D000000015367900000000000000000000100010010000000000000000000000F0010000006577500120141203000101 00000000000000000000000000000000000000000000000000000000000000000000000000000000000000000000000000000000000000000N 00000000000NCONT   00    00000000000          00000000000000000000000000000000000000000000 000000000000000A000000000000000000000000000000000000000000000 000000000000000000000000000000000000000     00000000                                                                                                                        000000000000000000
F0010000006577500002000086000490200041450500000000000000000201412030002001PROV. DE PAPELES ANDINA S.A.                      C000000013932900000000000000000000100010010000000000000000000000F0010000006577500220141203000101 00000000000000000000000000000000000000000000000000000000000000000000000000000000000000000000000000000000000000000N 00000000000NCONT   00    00000000000          00000000000000000000000000000000000000000000 000000000000000A000000000000000000000000000000000000000000000 000000000000000000000000000000000000000     00000000                                                                                                                        000000000000000000
F0010000006577500003000086000490200042505000000000000000000201412030002001PROV. DE PAPELES ANDINA S.A.                      C000000001435000000000000000000000100010010000000000000000000000F0010000006577500320141203000101 00000000000000000000000000000000000000000000000000000000000000000000000000000000000000000000000000000000000000000N 00000000000NCONT   00    00000000000          00000000000000000000000000000000000000000000 000000000000000A000000000000000000000000000000000000000000000 000000000000000000000000000000000000000     00000000                                                                                                                        000000000000000000
F0010000006577500004000086000490200023658300000000000000000201412030002001PROV. DE PAPELES ANDINA S.A.                      C000000000111500000000000000000000100010010000000000000000000000F0010000006577500420141203000101 00000000000000000000000000000000000000000000000000000000000000000000000000000000000000000000000000000000000000000N 00000000000NCONT   00    00000000000          00000000000000000000000000000000000000000000 000000000000000A000000000000000000000000000000000000000000000 000000000000000000000000000000000000000     00000000                                                                                                                        000000000000000000
F0010000006577500005000086000490200013552100000000000000000201412030002001PROV. DE PAPELES ANDINA S.A.                      D000000000111500000000000000000000100010010000000000000000000000F0010000006577500520141203000101 00000000000000000000000000000000000000000000000000000000000000000000000000000000000000000000000000000000000000000N 00000000000NCONT   00    00000000000          00000000000000000000000000000000000000000000 000000000000000A000000000000000000000000000000000000000000000 000000000000000000000000000000000000000     00000000                                                                                                                        000000000000000000
F0010000006577600001000089190114700013050500000000000000000201412030002001SUPAPEL S.A.S                                     D000000019175500000000000000000000100010010000000000000000000000F0010000006577600120141203000101 00000000000000000000000000000000000000000000000000000000000000000000000000000000000000000000000000000000000000000N 00000000000NCONT   00    00000000000          00000000000000000000000000000000000000000000 000000000000000A000000000000000000000000000000000000000000000 000000000000000000000000000000000000000     00000000                                                                                                                        000000000000000000
F0010000006577600002000089190114700041450500000000000000000201412030002001SUPAPEL S.A.S                                     C000000017120200000000000000000000100010010000000000000000000000F0010000006577600220141203000101 00000000000000000000000000000000000000000000000000000000000000000000000000000000000000000000000000000000000000000N 00000000000NCONT   00    00000000000          00000000000000000000000000000000000000000000 000000000000000A000000000000000000000000000000000000000000000 000000000000000000000000000000000000000     00000000                                                                                                                        000000000000000000
F0010000006577600003000089190114700042505000000000000000000201412030002001SUPAPEL S.A.S                                     C000000002055300000000000000000000100010010000000000000000000000F0010000006577600320141203000101 00000000000000000000000000000000000000000000000000000000000000000000000000000000000000000000000000000000000000000N 00000000000NCONT   00    00000000000          00000000000000000000000000000000000000000000 000000000000000A000000000000000000000000000000000000000000000 000000000000000000000000000000000000000     00000000                                                                                                                        000000000000000000
F0010000006577600004000089190114700023658300000000000000000201412030002001SUPAPEL S.A.S                                     C000000000137000000000000000000000100010010000000000000000000000F0010000006577600420141203000101 00000000000000000000000000000000000000000000000000000000000000000000000000000000000000000000000000000000000000000N 00000000000NCONT   00    00000000000          00000000000000000000000000000000000000000000 000000000000000A000000000000000000000000000000000000000000000 000000000000000000000000000000000000000     00000000                                                                                                                        000000000000000000
F0010000006577600005000089190114700013552100000000000000000201412030002001SUPAPEL S.A.S                                     D000000000137000000000000000000000100010010000000000000000000000F0010000006577600520141203000101 00000000000000000000000000000000000000000000000000000000000000000000000000000000000000000000000000000000000000000N 00000000000NCONT   00    00000000000          00000000000000000000000000000000000000000000 000000000000000A000000000000000000000000000000000000000000000 000000000000000000000000000000000000000     00000000                                                                                                                        000000000000000000
F0010000006577700001000090013035500013050500000000000000000201412030002001FUJIAN SHAN S.A.                                  D000000051086700000000000000000000100010010000000000000000000000F0010000006577700120141203000101 00000000000000000000000000000000000000000000000000000000000000000000000000000000000000000000000000000000000000000N 00000000000NCONT   00    00000000000          00000000000000000000000000000000000000000000 000000000000000A000000000000000000000000000000000000000000000 000000000000000000000000000000000000000     00000000                                                                                                                        000000000000000000
F0010000006577700002000090013035500041450500000000000000000201412030002001FUJIAN SHAN S.A.                                  C000000049086700000000000000000000100010010000000000000000000000F0010000006577700220141203000101 00000000000000000000000000000000000000000000000000000000000000000000000000000000000000000000000000000000000000000N 00000000000NCONT   00    00000000000          00000000000000000000000000000000000000000000 000000000000000A000000000000000000000000000000000000000000000 000000000000000000000000000000000000000     00000000                                                                                                                        000000000000000000
F0010000006577700003000090013035500042505000000000000000000201412030002001FUJIAN SHAN S.A.                                  C000000002000000000000000000000000100010010000000000000000000000F0010000006577700320141203000101 00000000000000000000000000000000000000000000000000000000000000000000000000000000000000000000000000000000000000000N 00000000000NCONT   00    00000000000          00000000000000000000000000000000000000000000 000000000000000A000000000000000000000000000000000000000000000 000000000000000000000000000000000000000     00000000                                                                                                                        000000000000000000
F0010000006577700004000090013035500023658300000000000000000201412030002001FUJIAN SHAN S.A.                                  C000000000392700000000000000000000100010010000000000000000000000F0010000006577700420141203000101 00000000000000000000000000000000000000000000000000000000000000000000000000000000000000000000000000000000000000000N 00000000000NCONT   00    00000000000          00000000000000000000000000000000000000000000 000000000000000A000000000000000000000000000000000000000000000 000000000000000000000000000000000000000     00000000                                                                                                                        000000000000000000
F0010000006577700005000090013035500013552100000000000000000201412030002001FUJIAN SHAN S.A.                                  D000000000392700000000000000000000100010010000000000000000000000F0010000006577700520141203000101 00000000000000000000000000000000000000000000000000000000000000000000000000000000000000000000000000000000000000000N 00000000000NCONT   00    00000000000          00000000000000000000000000000000000000000000 000000000000000A000000000000000000000000000000000000000000000 000000000000000000000000000000000000000     00000000                                                                                                                        000000000000000000
F0010000006577800001000002245670100013050500000000000000000201412030002001YOLANDA  TOBON                                    D000000103841300000000000000000000100010010000000000000000000000F0010000006577800120141203000101 00000000000000000000000000000000000000000000000000000000000000000000000000000000000000000000000000000000000000000N 00000000000NCONT   00    00000000000          00000000000000000000000000000000000000000000 000000000000000A000000000000000000000000000000000000000000000 000000000000000000000000000000000000000     00000000                                                                                                                        000000000000000000
F0010000006577800002000002245670100041450500000000000000000201412030002001YOLANDA  TOBON                                    C000000085450000000000000000000000100010010000000000000000000000F0010000006577800220141203000101 00000000000000000000000000000000000000000000000000000000000000000000000000000000000000000000000000000000000000000N 00000000000NCONT   00    00000000000          00000000000000000000000000000000000000000000 000000000000000A000000000000000000000000000000000000000000000 000000000000000000000000000000000000000     00000000                                                                                                                        000000000000000000
F0010000006577800003000002245670100042505000000000000000000201412030002001YOLANDA  TOBON                                    C000000018391300000000000000000000100010010000000000000000000000F0010000006577800320141203000101 00000000000000000000000000000000000000000000000000000000000000000000000000000000000000000000000000000000000000000N 00000000000NCONT   00    00000000000          00000000000000000000000000000000000000000000 000000000000000A000000000000000000000000000000000000000000000 000000000000000000000000000000000000000     00000000                                                                                                                        000000000000000000
F0010000006577800004000002245670100023658300000000000000000201412030002001YOLANDA  TOBON                                    C000000000683600000000000000000000100010010000000000000000000000F0010000006577800420141203000101 00000000000000000000000000000000000000000000000000000000000000000000000000000000000000000000000000000000000000000N 00000000000NCONT   00    00000000000          00000000000000000000000000000000000000000000 000000000000000A000000000000000000000000000000000000000000000 000000000000000000000000000000000000000     00000000                                                                                                                        000000000000000000
F0010000006577800005000002245670100013552100000000000000000201412030002001YOLANDA  TOBON                                    D000000000683600000000000000000000100010010000000000000000000000F0010000006577800520141203000101 00000000000000000000000000000000000000000000000000000000000000000000000000000000000000000000000000000000000000000N 00000000000NCONT   00    00000000000          00000000000000000000000000000000000000000000 000000000000000A000000000000000000000000000000000000000000000 000000000000000000000000000000000000000     00000000                                                                                                                        000000000000000000
F0010000006577900001000089011492400013050500000000000000000201412030002001AGE. CAUCHO SOL DE LA COSTA  SAS                  D000000100215300000000000000000000100010010000000000000000000000F0010000006577900120141203000101 00000000000000000000000000000000000000000000000000000000000000000000000000000000000000000000000000000000000000000N 00000000000NCONT   00    00000000000          00000000000000000000000000000000000000000000 000000000000000A000000000000000000000000000000000000000000000 000000000000000000000000000000000000000     00000000                                                                                                                        000000000000000000
F0010000006577900002000089011492400041450500000000000000000201412030002001AGE. CAUCHO SOL DE LA COSTA  SAS                  C000000073870000000000000000000000100010010000000000000000000000F0010000006577900220141203000101 00000000000000000000000000000000000000000000000000000000000000000000000000000000000000000000000000000000000000000N 00000000000NCONT   00    00000000000          00000000000000000000000000000000000000000000 000000000000000A000000000000000000000000000000000000000000000 000000000000000000000000000000000000000     00000000                                                                                                                        000000000000000000
F0010000006577900003000089011492400042505000000000000000000201412030002001AGE. CAUCHO SOL DE LA COSTA  SAS                  C000000026345300000000000000000000100010010000000000000000000000F0010000006577900320141203000101 00000000000000000000000000000000000000000000000000000000000000000000000000000000000000000000000000000000000000000N 00000000000NCONT   00    00000000000          00000000000000000000000000000000000000000000 000000000000000A000000000000000000000000000000000000000000000 000000000000000000000000000000000000000     00000000                                                                                                                        000000000000000000
F0010000006577900004000089011492400023658300000000000000000201412030002001AGE. CAUCHO SOL DE LA COSTA  SAS                  C000000000591000000000000000000000100010010000000000000000000000F0010000006577900420141203000101 00000000000000000000000000000000000000000000000000000000000000000000000000000000000000000000000000000000000000000N 00000000000NCONT   00    00000000000          00000000000000000000000000000000000000000000 000000000000000A000000000000000000000000000000000000000000000 000000000000000000000000000000000000000     00000000                                                                                                                        000000000000000000
F0010000006577900005000089011492400013552100000000000000000201412030002001AGE. CAUCHO SOL DE LA COSTA  SAS                  D000000000591000000000000000000000100010010000000000000000000000F0010000006577900520141203000101 00000000000000000000000000000000000000000000000000000000000000000000000000000000000000000000000000000000000000000N 00000000000NCONT   00    00000000000          00000000000000000000000000000000000000000000 000000000000000A000000000000000000000000000000000000000000000 000000000000000000000000000000000000000     00000000                                                                                                                        000000000000000000
F0010000006578000001000089011492400013050500000000000000000201412030002001AGE. CAUCHO SOL DE LA COSTA  SAS                  D000000081954500000000000000000000100010010000000000000000000000F0010000006578000120141203000101 00000000000000000000000000000000000000000000000000000000000000000000000000000000000000000000000000000000000000000N 00000000000NCONT   00    00000000000          00000000000000000000000000000000000000000000 000000000000000A000000000000000000000000000000000000000000000 000000000000000000000000000000000000000     00000000                                                                                                                        000000000000000000
F0010000006578000002000089011492400041450500000000000000000201412030002001AGE. CAUCHO SOL DE LA COSTA  SAS                  C000000047470000000000000000000000100010010000000000000000000000F0010000006578000220141203000101 00000000000000000000000000000000000000000000000000000000000000000000000000000000000000000000000000000000000000000N 00000000000NCONT   00    00000000000          00000000000000000000000000000000000000000000 000000000000000A000000000000000000000000000000000000000000000 000000000000000000000000000000000000000     00000000                                                                                                                        000000000000000000
F0010000006578000003000089011492400042505000000000000000000201412030002001AGE. CAUCHO SOL DE LA COSTA  SAS                  C000000034484500000000000000000000100010010000000000000000000000F0010000006578000320141203000101 00000000000000000000000000000000000000000000000000000000000000000000000000000000000000000000000000000000000000000N 00000000000NCONT   00    00000000000          00000000000000000000000000000000000000000000 000000000000000A000000000000000000000000000000000000000000000 000000000000000000000000000000000000000     00000000                                                                                                                        000000000000000000
F0010000006578000004000089011492400023658300000000000000000201412030002001AGE. CAUCHO SOL DE LA COSTA  SAS                  C000000000379800000000000000000000100010010000000000000000000000F0010000006578000420141203000101 00000000000000000000000000000000000000000000000000000000000000000000000000000000000000000000000000000000000000000N 00000000000NCONT   00    00000000000          00000000000000000000000000000000000000000000 000000000000000A000000000000000000000000000000000000000000000 000000000000000000000000000000000000000     00000000                                                                                                                        000000000000000000
F0010000006578000005000089011492400013552100000000000000000201412030002001AGE. CAUCHO SOL DE LA COSTA  SAS                  D000000000379800000000000000000000100010010000000000000000000000F0010000006578000520141203000101 00000000000000000000000000000000000000000000000000000000000000000000000000000000000000000000000000000000000000000N 00000000000NCONT   00    00000000000          00000000000000000000000000000000000000000000 000000000000000A000000000000000000000000000000000000000000000 000000000000000000000000000000000000000     00000000                                                                                                                        000000000000000000
F0010000006578100001000003207718300011050500000000000000000201412030002001MARIA GILMA  RAMIREZ GARCIA                       D000000006000000000000000000000000100010010000000000000000000000F0010000006578100120141203000101 00000000000000000000000000000000000000000000000000000000000000000000000000000000000000000000000000000000000000000N 00000000000NCONT   00    00000000000          00000000000000000000000000000000000000000000 000000000000000A000000000000000000000000000000000000000000000 000000000000000000000000000000000000000     00000000                                                                                                                        000000000000000000
F0010000006578100002000003207718300041450500000000000000000201412030002001MARIA GILMA  RAMIREZ GARCIA                       C000000004400000000000000000000000100010010000000000000000000000F0010000006578100220141203000101 00000000000000000000000000000000000000000000000000000000000000000000000000000000000000000000000000000000000000000N 00000000000NCONT   00    00000000000          00000000000000000000000000000000000000000000 000000000000000A000000000000000000000000000000000000000000000 000000000000000000000000000000000000000     00000000                                                                                                                        000000000000000000
F0010000006578100003000003207718300042505000000000000000000201412030002001MARIA GILMA  RAMIREZ GARCIA                       C000000001600000000000000000000000100010010000000000000000000000F0010000006578100320141203000101 00000000000000000000000000000000000000000000000000000000000000000000000000000000000000000000000000000000000000000N 00000000000NCONT   00    00000000000          00000000000000000000000000000000000000000000 000000000000000A000000000000000000000000000000000000000000000 000000000000000000000000000000000000000     00000000                                                                                                                        000000000000000000
F0010000006578100004000003207718300023658300000000000000000201412030002001MARIA GILMA  RAMIREZ GARCIA                       C000000000035200000000000000000000100010010000000000000000000000F0010000006578100420141203000101 00000000000000000000000000000000000000000000000000000000000000000000000000000000000000000000000000000000000000000N 00000000000NCONT   00    00000000000          00000000000000000000000000000000000000000000 000000000000000A000000000000000000000000000000000000000000000 000000000000000000000000000000000000000     00000000                                                                                                                        000000000000000000
F0010000006578100005000003207718300013552100000000000000000201412030002001MARIA GILMA  RAMIREZ GARCIA                       D000000000035200000000000000000000100010010000000000000000000000F0010000006578100520141203000101 00000000000000000000000000000000000000000000000000000000000000000000000000000000000000000000000000000000000000000N 00000000000NCONT   00    00000000000          00000000000000000000000000000000000000000000 000000000000000A000000000000000000000000000000000000000000000 000000000000000000000000000000000000000     00000000                                                                                                                        000000000000000000
F0010000006578200001000001502923600011050500000000000000000201412030002001ALCIDES MARTINEZ                                  D000000001200000000000000000000000100010010000000000000000000000F0010000006578200120141203000101 00000000000000000000000000000000000000000000000000000000000000000000000000000000000000000000000000000000000000000N 00000000000NCONT   00    00000000000          00000000000000000000000000000000000000000000 000000000000000A000000000000000000000000000000000000000000000 000000000000000000000000000000000000000     00000000                                                                                                                        000000000000000000
F0010000006578200002000001502923600041450500000000000000000201412030002001ALCIDES MARTINEZ                                  C000000000900000000000000000000000100010010000000000000000000000F0010000006578200220141203000101 00000000000000000000000000000000000000000000000000000000000000000000000000000000000000000000000000000000000000000N 00000000000NCONT   00    00000000000          00000000000000000000000000000000000000000000 000000000000000A000000000000000000000000000000000000000000000 000000000000000000000000000000000000000     00000000                                                                                                                        000000000000000000
F0010000006578200003000001502923600042505000000000000000000201412030002001ALCIDES MARTINEZ                                  C000000000300000000000000000000000100010010000000000000000000000F0010000006578200320141203000101 00000000000000000000000000000000000000000000000000000000000000000000000000000000000000000000000000000000000000000N 00000000000NCONT   00    00000000000          00000000000000000000000000000000000000000000 000000000000000A000000000000000000000000000000000000000000000 000000000000000000000000000000000000000     00000000                                                                                                                        000000000000000000
F0010000006578200004000001502923600023658300000000000000000201412030002001ALCIDES MARTINEZ                                  C000000000007200000000000000000000100010010000000000000000000000F0010000006578200420141203000101 00000000000000000000000000000000000000000000000000000000000000000000000000000000000000000000000000000000000000000N 00000000000NCONT   00    00000000000          00000000000000000000000000000000000000000000 000000000000000A000000000000000000000000000000000000000000000 000000000000000000000000000000000000000     00000000                                                                                                                        000000000000000000
F0010000006578200005000001502923600013552100000000000000000201412030002001ALCIDES MARTINEZ                                  D000000000007200000000000000000000100010010000000000000000000000F0010000006578200520141203000101 00000000000000000000000000000000000000000000000000000000000000000000000000000000000000000000000000000000000000000N 00000000000NCONT   00    00000000000          00000000000000000000000000000000000000000000 000000000000000A000000000000000000000000000000000000000000000 000000000000000000000000000000000000000     00000000                                                                                                                        000000000000000000
F0010000006578300001000007233680300011050500000000000000000201412030002001DISTRIBUIDORA CUOS Y EVAS RAMBAL                D000000001200000000000000000000000100010010000000000000000000000F0010000006578300120141203000101 00000000000000000000000000000000000000000000000000000000000000000000000000000000000000000000000000000000000000000N 00000000000NCONT   00    00000000000          00000000000000000000000000000000000000000000 000000000000000A000000000000000000000000000000000000000000000 000000000000000000000000000000000000000     00000000                                                                                                                        000000000000000000
F0010000006578300002000007233680300041450500000000000000000201412030002001DISTRIBUIDORA CUOS Y EVAS RAMBAL                C000000001100000000000000000000000100010010000000000000000000000F0010000006578300220141203000101 00000000000000000000000000000000000000000000000000000000000000000000000000000000000000000000000000000000000000000N 00000000000NCONT   00    00000000000          00000000000000000000000000000000000000000000 000000000000000A000000000000000000000000000000000000000000000 000000000000000000000000000000000000000     00000000                                                                                                                        000000000000000000
F0010000006578300003000007233680300042505000000000000000000201412030002001DISTRIBUIDORA CUOS Y EVAS RAMBAL                C000000000100000000000000000000000100010010000000000000000000000F0010000006578300320141203000101 00000000000000000000000000000000000000000000000000000000000000000000000000000000000000000000000000000000000000000N 00000000000NCONT   00    00000000000          00000000000000000000000000000000000000000000 000000000000000A000000000000000000000000000000000000000000000 000000000000000000000000000000000000000     00000000                                                                                                                        000000000000000000
F0010000006578300004000007233680300023658300000000000000000201412030002001DISTRIBUIDORA CUOS Y EVAS RAMBAL                C000000000008800000000000000000000100010010000000000000000000000F0010000006578300420141203000101 00000000000000000000000000000000000000000000000000000000000000000000000000000000000000000000000000000000000000000N 00000000000NCONT   00    00000000000          00000000000000000000000000000000000000000000 000000000000000A000000000000000000000000000000000000000000000 000000000000000000000000000000000000000     00000000                                                                                                                        000000000000000000
F0010000006578300005000007233680300013552100000000000000000201412030002001DISTRIBUIDORA CUOS Y EVAS RAMBAL                D000000000008800000000000000000000100010010000000000000000000000F0010000006578300520141203000101 00000000000000000000000000000000000000000000000000000000000000000000000000000000000000000000000000000000000000000N 00000000000NCONT   00    00000000000          00000000000000000000000000000000000000000000 000000000000000A000000000000000000000000000000000000000000000 000000000000000000000000000000000000000     00000000                                                                                                                        000000000000000000
F0010000006578400001000090055180500011050500000000000000000201412030002001LAMINAS Y SUELAS DE COLOMBIA S.A.S                D000000002000000000000000000000000100010010000000000000000000000F0010000006578400120141203000101 00000000000000000000000000000000000000000000000000000000000000000000000000000000000000000000000000000000000000000N 00000000000NCONT   00    00000000000          00000000000000000000000000000000000000000000 000000000000000A000000000000000000000000000000000000000000000 000000000000000000000000000000000000000     00000000                                                                                                                        000000000000000000
F0010000006578400002000090055180500041450500000000000000000201412030002001LAMINAS Y SUELAS DE COLOMBIA S.A.S                C000000001825000000000000000000000100010010000000000000000000000F0010000006578400220141203000101 00000000000000000000000000000000000000000000000000000000000000000000000000000000000000000000000000000000000000000N 00000000000NCONT   00    00000000000          00000000000000000000000000000000000000000000 000000000000000A000000000000000000000000000000000000000000000 000000000000000000000000000000000000000     00000000                                                                                                                        000000000000000000
F0010000006578400003000090055180500042505000000000000000000201412030002001LAMINAS Y SUELAS DE COLOMBIA S.A.S                C000000000175000000000000000000000100010010000000000000000000000F0010000006578400320141203000101 00000000000000000000000000000000000000000000000000000000000000000000000000000000000000000000000000000000000000000N 00000000000NCONT   00    00000000000          00000000000000000000000000000000000000000000 000000000000000A000000000000000000000000000000000000000000000 000000000000000000000000000000000000000     00000000                                                                                                                        000000000000000000
F0010000006578400004000090055180500023658300000000000000000201412030002001LAMINAS Y SUELAS DE COLOMBIA S.A.S                C000000000014600000000000000000000100010010000000000000000000000F0010000006578400420141203000101 00000000000000000000000000000000000000000000000000000000000000000000000000000000000000000000000000000000000000000N 00000000000NCONT   00    00000000000          00000000000000000000000000000000000000000000 000000000000000A000000000000000000000000000000000000000000000 000000000000000000000000000000000000000     00000000                                                                                                                        000000000000000000
F0010000006578400005000090055180500013552100000000000000000201412030002001LAMINAS Y SUELAS DE COLOMBIA S.A.S                D000000000014600000000000000000000100010010000000000000000000000F0010000006578400520141203000101 00000000000000000000000000000000000000000000000000000000000000000000000000000000000000000000000000000000000000000N 00000000000NCONT   00    00000000000          00000000000000000000000000000000000000000000 000000000000000A000000000000000000000000000000000000000000000 000000000000000000000000000000000000000     00000000                                                                                                                        000000000000000000
F0010000006578500001000086004413600011050500000000000000000201412030002001ESPAOLA S.A.                                    D000000026000000000000000000000000100010010000000000000000000000F0010000006578500120141203000101 00000000000000000000000000000000000000000000000000000000000000000000000000000000000000000000000000000000000000000N 00000000000NCONT   00    00000000000          00000000000000000000000000000000000000000000 000000000000000A000000000000000000000000000000000000000000000 000000000000000000000000000000000000000     00000000                                                                                                                        000000000000000000
F0010000006578500002000086004413600041450500000000000000000201412030002001ESPAOLA S.A.                                    C000000025000000000000000000000000100010010000000000000000000000F0010000006578500220141203000101 00000000000000000000000000000000000000000000000000000000000000000000000000000000000000000000000000000000000000000N 00000000000NCONT   00    00000000000          00000000000000000000000000000000000000000000 000000000000000A000000000000000000000000000000000000000000000 000000000000000000000000000000000000000     00000000                                                                                                                        000000000000000000
F0010000006578500003000086004413600042505000000000000000000201412030002001ESPAOLA S.A.                                    C000000001000000000000000000000000100010010000000000000000000000F0010000006578500320141203000101 00000000000000000000000000000000000000000000000000000000000000000000000000000000000000000000000000000000000000000N 00000000000NCONT   00    00000000000          00000000000000000000000000000000000000000000 000000000000000A000000000000000000000000000000000000000000000 000000000000000000000000000000000000000     00000000                                                                                                                        000000000000000000
F0010000006578500004000086004413600023658300000000000000000201412030002001ESPAOLA S.A.                                    C000000000200000000000000000000000100010010000000000000000000000F0010000006578500420141203000101 00000000000000000000000000000000000000000000000000000000000000000000000000000000000000000000000000000000000000000N 00000000000NCONT   00    00000000000          00000000000000000000000000000000000000000000 000000000000000A000000000000000000000000000000000000000000000 000000000000000000000000000000000000000     00000000                                                                                                                        000000000000000000
F0010000006578500005000086004413600013552100000000000000000201412030002001ESPAOLA S.A.                                    D000000000200000000000000000000000100010010000000000000000000000F0010000006578500520141203000101 00000000000000000000000000000000000000000000000000000000000000000000000000000000000000000000000000000000000000000N 00000000000NCONT   00    00000000000          00000000000000000000000000000000000000000000 000000000000000A000000000000000000000000000000000000000000000 000000000000000000000000000000000000000     00000000                                                                                                                        000000000000000000
F0010000006578600001000003900336900011050500000000000000000201412030002001LUISA FERNANDA BOLAOS                           D000000004300000000000000000000000100010010000000000000000000000F0010000006578600120141203000101 00000000000000000000000000000000000000000000000000000000000000000000000000000000000000000000000000000000000000000N 00000000000NCONT   00    00000000000          00000000000000000000000000000000000000000000 000000000000000A000000000000000000000000000000000000000000000 000000000000000000000000000000000000000     00000000                                                                                                                        000000000000000000
F0010000006578600002000003900336900041450500000000000000000201412030002001LUISA FERNANDA BOLAOS                           C000000004200000000000000000000000100010010000000000000000000000F0010000006578600220141203000101 00000000000000000000000000000000000000000000000000000000000000000000000000000000000000000000000000000000000000000N 00000000000NCONT   00    00000000000          00000000000000000000000000000000000000000000 000000000000000A000000000000000000000000000000000000000000000 000000000000000000000000000000000000000     00000000                                                                                                                        000000000000000000
F0010000006578600003000003900336900042505000000000000000000201412030002001LUISA FERNANDA BOLAOS                           C000000000100000000000000000000000100010010000000000000000000000F0010000006578600320141203000101 00000000000000000000000000000000000000000000000000000000000000000000000000000000000000000000000000000000000000000N 00000000000NCONT   00    00000000000          00000000000000000000000000000000000000000000 000000000000000A000000000000000000000000000000000000000000000 000000000000000000000000000000000000000     00000000                                                                                                                        000000000000000000
F0010000006578600004000003900336900023658300000000000000000201412030002001LUISA FERNANDA BOLAOS                           C000000000033600000000000000000000100010010000000000000000000000F0010000006578600420141203000101 00000000000000000000000000000000000000000000000000000000000000000000000000000000000000000000000000000000000000000N 00000000000NCONT   00    00000000000          00000000000000000000000000000000000000000000 000000000000000A000000000000000000000000000000000000000000000 000000000000000000000000000000000000000     00000000                                                                                                                        000000000000000000
F0010000006578600005000003900336900013552100000000000000000201412030002001LUISA FERNANDA BOLAOS                           D000000000033600000000000000000000100010010000000000000000000000F0010000006578600520141203000101 00000000000000000000000000000000000000000000000000000000000000000000000000000000000000000000000000000000000000000N 00000000000NCONT   00    00000000000          00000000000000000000000000000000000000000000 000000000000000A000000000000000000000000000000000000000000000 000000000000000000000000000000000000000     00000000                                                                                                                        000000000000000000
F0010000006578700001000090020547900011050500000000000000000201412030002001DAC DEL CARIBE S.A.S.                             D000000003100000000000000000000000100010010000000000000000000000F0010000006578700120141203000101 00000000000000000000000000000000000000000000000000000000000000000000000000000000000000000000000000000000000000000N 00000000000NCONT   00    00000000000          00000000000000000000000000000000000000000000 000000000000000A000000000000000000000000000000000000000000000 000000000000000000000000000000000000000     00000000                                                                                                                        000000000000000000
F0010000006578700002000090020547900041450500000000000000000201412030002001DAC DEL CARIBE S.A.S.                             C000000002400000000000000000000000100010010000000000000000000000F0010000006578700220141203000101 00000000000000000000000000000000000000000000000000000000000000000000000000000000000000000000000000000000000000000N 00000000000NCONT   00    00000000000          00000000000000000000000000000000000000000000 000000000000000A000000000000000000000000000000000000000000000 000000000000000000000000000000000000000     00000000                                                                                                                        000000000000000000
F0010000006578700003000090020547900042505000000000000000000201412030002001DAC DEL CARIBE S.A.S.                             C000000000700000000000000000000000100010010000000000000000000000F0010000006578700320141203000101 00000000000000000000000000000000000000000000000000000000000000000000000000000000000000000000000000000000000000000N 00000000000NCONT   00    00000000000          00000000000000000000000000000000000000000000 000000000000000A000000000000000000000000000000000000000000000 000000000000000000000000000000000000000     00000000                                                                                                                        000000000000000000
F0010000006578700004000090020547900023658300000000000000000201412030002001DAC DEL CARIBE S.A.S.                             C000000000019200000000000000000000100010010000000000000000000000F0010000006578700420141203000101 00000000000000000000000000000000000000000000000000000000000000000000000000000000000000000000000000000000000000000N 00000000000NCONT   00    00000000000          00000000000000000000000000000000000000000000 000000000000000A000000000000000000000000000000000000000000000 000000000000000000000000000000000000000     00000000                                                                                                                        000000000000000000
F0010000006578700005000090020547900013552100000000000000000201412030002001DAC DEL CARIBE S.A.S.                             D000000000019200000000000000000000100010010000000000000000000000F0010000006578700520141203000101 00000000000000000000000000000000000000000000000000000000000000000000000000000000000000000000000000000000000000000N 00000000000NCONT   00    00000000000          00000000000000000000000000000000000000000000 000000000000000A000000000000000000000000000000000000000000000 000000000000000000000000000000000000000     00000000                                                                                                                        000000000000000000
F0010000006578800001000003262315300011050500000000000000000201412030002001CACHARRERIA LA PROPIA JICHA                       D000000005000000000000000000000000100010010000000000000000000000F0010000006578800120141203000101 00000000000000000000000000000000000000000000000000000000000000000000000000000000000000000000000000000000000000000N 00000000000NCONT   00    00000000000          00000000000000000000000000000000000000000000 000000000000000A000000000000000000000000000000000000000000000 000000000000000000000000000000000000000     00000000                                                                                                                        000000000000000000
F0010000006578800002000003262315300041450500000000000000000201412030002001CACHARRERIA LA PROPIA JICHA                       C000000004000000000000000000000000100010010000000000000000000000F0010000006578800220141203000101 00000000000000000000000000000000000000000000000000000000000000000000000000000000000000000000000000000000000000000N 00000000000NCONT   00    00000000000          00000000000000000000000000000000000000000000 000000000000000A000000000000000000000000000000000000000000000 000000000000000000000000000000000000000     00000000                                                                                                                        000000000000000000
F0010000006578800003000003262315300042505000000000000000000201412030002001CACHARRERIA LA PROPIA JICHA                       C000000001000000000000000000000000100010010000000000000000000000F0010000006578800320141203000101 00000000000000000000000000000000000000000000000000000000000000000000000000000000000000000000000000000000000000000N 00000000000NCONT   00    00000000000          00000000000000000000000000000000000000000000 000000000000000A000000000000000000000000000000000000000000000 000000000000000000000000000000000000000     00000000                                                                                                                        000000000000000000
F0010000006578800004000003262315300023658300000000000000000201412030002001CACHARRERIA LA PROPIA JICHA                       C000000000032000000000000000000000100010010000000000000000000000F0010000006578800420141203000101 00000000000000000000000000000000000000000000000000000000000000000000000000000000000000000000000000000000000000000N 00000000000NCONT   00    00000000000          00000000000000000000000000000000000000000000 000000000000000A000000000000000000000000000000000000000000000 000000000000000000000000000000000000000     00000000                                                                                                                        000000000000000000
F0010000006578800005000003262315300013552100000000000000000201412030002001CACHARRERIA LA PROPIA JICHA                       D000000000032000000000000000000000100010010000000000000000000000F0010000006578800520141203000101 00000000000000000000000000000000000000000000000000000000000000000000000000000000000000000000000000000000000000000N 00000000000NCONT   00    00000000000          00000000000000000000000000000000000000000000 000000000000000A000000000000000000000000000000000000000000000 000000000000000000000000000000000000000     00000000                                                                                                                        000000000000000000
F0010000006578900001000000742399700011050500000000000000000201412030002001CACHARRERIA EL NUEVO CHADID                       D000000001350000000000000000000000100010010000000000000000000000F0010000006578900120141203000101 00000000000000000000000000000000000000000000000000000000000000000000000000000000000000000000000000000000000000000N 00000000000NCONT   00    00000000000          00000000000000000000000000000000000000000000 000000000000000A000000000000000000000000000000000000000000000 000000000000000000000000000000000000000     00000000                                                                                                                        000000000000000000
F0010000006578900002000000742399700041450500000000000000000201412030002001CACHARRERIA EL NUEVO CHADID                       C000000000750000000000000000000000100010010000000000000000000000F0010000006578900220141203000101 00000000000000000000000000000000000000000000000000000000000000000000000000000000000000000000000000000000000000000N 00000000000NCONT   00    00000000000          00000000000000000000000000000000000000000000 000000000000000A000000000000000000000000000000000000000000000 000000000000000000000000000000000000000     00000000                                                                                                                        000000000000000000
F0010000006578900003000000742399700042505000000000000000000201412030002001CACHARRERIA EL NUEVO CHADID                       C000000000600000000000000000000000100010010000000000000000000000F0010000006578900320141203000101 00000000000000000000000000000000000000000000000000000000000000000000000000000000000000000000000000000000000000000N 00000000000NCONT   00    00000000000          00000000000000000000000000000000000000000000 000000000000000A000000000000000000000000000000000000000000000 000000000000000000000000000000000000000     00000000                                                                                                                        000000000000000000
F0010000006578900004000000742399700023658300000000000000000201412030002001CACHARRERIA EL NUEVO CHADID                       C000000000006000000000000000000000100010010000000000000000000000F0010000006578900420141203000101 00000000000000000000000000000000000000000000000000000000000000000000000000000000000000000000000000000000000000000N 00000000000NCONT   00    00000000000          00000000000000000000000000000000000000000000 000000000000000A000000000000000000000000000000000000000000000 000000000000000000000000000000000000000     00000000                                                                                                                        000000000000000000
F0010000006578900005000000742399700013552100000000000000000201412030002001CACHARRERIA EL NUEVO CHADID                       D000000000006000000000000000000000100010010000000000000000000000F0010000006578900520141203000101 00000000000000000000000000000000000000000000000000000000000000000000000000000000000000000000000000000000000000000N 00000000000NCONT   00    00000000000          00000000000000000000000000000000000000000000 000000000000000A000000000000000000000000000000000000000000000 000000000000000000000000000000000000000     00000000                                                                                                                        000000000000000000
F0010000006579000001000080202350700011050500000000000000000201412030002001CONNY DE LA COSTA SAS                             D000000002000000000000000000000000100010010000000000000000000000F0010000006579000120141203000101 00000000000000000000000000000000000000000000000000000000000000000000000000000000000000000000000000000000000000000N 00000000000NCONT   00    00000000000          00000000000000000000000000000000000000000000 000000000000000A000000000000000000000000000000000000000000000 000000000000000000000000000000000000000     00000000                                                                                                                        000000000000000000
F0010000006579000002000080202350700041450500000000000000000201412030002001CONNY DE LA COSTA SAS                             C000000001600000000000000000000000100010010000000000000000000000F0010000006579000220141203000101 00000000000000000000000000000000000000000000000000000000000000000000000000000000000000000000000000000000000000000N 00000000000NCONT   00    00000000000          00000000000000000000000000000000000000000000 000000000000000A000000000000000000000000000000000000000000000 000000000000000000000000000000000000000     00000000                                                                                                                        000000000000000000
F0010000006579000003000080202350700042505000000000000000000201412030002001CONNY DE LA COSTA SAS                             C000000000400000000000000000000000100010010000000000000000000000F0010000006579000320141203000101 00000000000000000000000000000000000000000000000000000000000000000000000000000000000000000000000000000000000000000N 00000000000NCONT   00    00000000000          00000000000000000000000000000000000000000000 000000000000000A000000000000000000000000000000000000000000000 000000000000000000000000000000000000000     00000000                                                                                                                        000000000000000000
F0010000006579000004000080202350700023658300000000000000000201412030002001CONNY DE LA COSTA SAS                             C000000000012800000000000000000000100010010000000000000000000000F0010000006579000420141203000101 00000000000000000000000000000000000000000000000000000000000000000000000000000000000000000000000000000000000000000N 00000000000NCONT   00    00000000000          00000000000000000000000000000000000000000000 000000000000000A000000000000000000000000000000000000000000000 000000000000000000000000000000000000000     00000000                                                                                                                        000000000000000000
F0010000006579000005000080202350700013552100000000000000000201412030002001CONNY DE LA COSTA SAS                             D000000000012800000000000000000000100010010000000000000000000000F0010000006579000520141203000101 00000000000000000000000000000000000000000000000000000000000000000000000000000000000000000000000000000000000000000N 00000000000NCONT   00    00000000000          00000000000000000000000000000000000000000000 000000000000000A000000000000000000000000000000000000000000000 000000000000000000000000000000000000000     00000000                                                                                                                        000000000000000000
F0010000006579100001000002245670100011050500000000000000000201412030002001YOLANDA  TOBON                                    D000000002350000000000000000000000100010010000000000000000000000F0010000006579100120141203000101 00000000000000000000000000000000000000000000000000000000000000000000000000000000000000000000000000000000000000000N 00000000000NCONT   00    00000000000          00000000000000000000000000000000000000000000 000000000000000A000000000000000000000000000000000000000000000 000000000000000000000000000000000000000     00000000                                                                                                                        000000000000000000
F0010000006579100002000002245670100041450500000000000000000201412030002001YOLANDA  TOBON                                    C000000002000000000000000000000000100010010000000000000000000000F0010000006579100220141203000101 00000000000000000000000000000000000000000000000000000000000000000000000000000000000000000000000000000000000000000N 00000000000NCONT   00    00000000000          00000000000000000000000000000000000000000000 000000000000000A000000000000000000000000000000000000000000000 000000000000000000000000000000000000000     00000000                                                                                                                        000000000000000000
F0010000006579100003000002245670100042505000000000000000000201412030002001YOLANDA  TOBON                                    C000000000350000000000000000000000100010010000000000000000000000F0010000006579100320141203000101 00000000000000000000000000000000000000000000000000000000000000000000000000000000000000000000000000000000000000000N 00000000000NCONT   00    00000000000          00000000000000000000000000000000000000000000 000000000000000A000000000000000000000000000000000000000000000 000000000000000000000000000000000000000     00000000                                                                                                                        000000000000000000
F0010000006579100004000002245670100023658300000000000000000201412030002001YOLANDA  TOBON                                    C000000000016000000000000000000000100010010000000000000000000000F0010000006579100420141203000101 00000000000000000000000000000000000000000000000000000000000000000000000000000000000000000000000000000000000000000N 00000000000NCONT   00    00000000000          00000000000000000000000000000000000000000000 000000000000000A000000000000000000000000000000000000000000000 000000000000000000000000000000000000000     00000000                                                                                                                        000000000000000000
F0010000006579100005000002245670100013552100000000000000000201412030002001YOLANDA  TOBON                                    D000000000016000000000000000000000100010010000000000000000000000F0010000006579100520141203000101 00000000000000000000000000000000000000000000000000000000000000000000000000000000000000000000000000000000000000000N 00000000000NCONT   00    00000000000          00000000000000000000000000000000000000000000 000000000000000A000000000000000000000000000000000000000000000 000000000000000000000000000000000000000     00000000                                                                                                                        000000000000000000
F0010000006579200001000002245670100011050500000000000000000201412030002001YOLANDA  TOBON                                    D000000001800000000000000000000000100010010000000000000000000000F0010000006579200120141203000101 00000000000000000000000000000000000000000000000000000000000000000000000000000000000000000000000000000000000000000N 00000000000NCONT   00    00000000000          00000000000000000000000000000000000000000000 000000000000000A000000000000000000000000000000000000000000000 000000000000000000000000000000000000000     00000000                                                                                                                        000000000000000000
F0010000006579200002000002245670100041450500000000000000000201412030002001YOLANDA  TOBON                                    C000000001500000000000000000000000100010010000000000000000000000F0010000006579200220141203000101 00000000000000000000000000000000000000000000000000000000000000000000000000000000000000000000000000000000000000000N 00000000000NCONT   00    00000000000          00000000000000000000000000000000000000000000 000000000000000A000000000000000000000000000000000000000000000 000000000000000000000000000000000000000     00000000                                                                                                                        000000000000000000
F0010000006579200003000002245670100042505000000000000000000201412030002001YOLANDA  TOBON                                    C000000000300000000000000000000000100010010000000000000000000000F0010000006579200320141203000101 00000000000000000000000000000000000000000000000000000000000000000000000000000000000000000000000000000000000000000N 00000000000NCONT   00    00000000000          00000000000000000000000000000000000000000000 000000000000000A000000000000000000000000000000000000000000000 000000000000000000000000000000000000000     00000000                                                                                                                        000000000000000000
F0010000006579200004000002245670100023658300000000000000000201412030002001YOLANDA  TOBON                                    C000000000012000000000000000000000100010010000000000000000000000F0010000006579200420141203000101 00000000000000000000000000000000000000000000000000000000000000000000000000000000000000000000000000000000000000000N 00000000000NCONT   00    00000000000          00000000000000000000000000000000000000000000 000000000000000A000000000000000000000000000000000000000000000 000000000000000000000000000000000000000     00000000                                                                                                                        000000000000000000
F0010000006579200005000002245670100013552100000000000000000201412030002001YOLANDA  TOBON                                    D000000000012000000000000000000000100010010000000000000000000000F0010000006579200520141203000101 00000000000000000000000000000000000000000000000000000000000000000000000000000000000000000000000000000000000000000N 00000000000NCONT   00    00000000000          00000000000000000000000000000000000000000000 000000000000000A000000000000000000000000000000000000000000000 000000000000000000000000000000000000000     00000000                                                                                                                        000000000000000000
F0010000006579300001000090037881900011050500000000000000000201412030002001COMERCIALIZADORA RACOPI S.A.S                     D000000001200000000000000000000000100010010000000000000000000000F0010000006579300120141203000101 00000000000000000000000000000000000000000000000000000000000000000000000000000000000000000000000000000000000000000N 00000000000NCONT   00    00000000000          00000000000000000000000000000000000000000000 000000000000000A000000000000000000000000000000000000000000000 000000000000000000000000000000000000000     00000000                                                                                                                        000000000000000000
F0010000006579300002000090037881900041450500000000000000000201412030002001COMERCIALIZADORA RACOPI S.A.S                     C000000001100000000000000000000000100010010000000000000000000000F0010000006579300220141203000101 00000000000000000000000000000000000000000000000000000000000000000000000000000000000000000000000000000000000000000N 00000000000NCONT   00    00000000000          00000000000000000000000000000000000000000000 000000000000000A000000000000000000000000000000000000000000000 000000000000000000000000000000000000000     00000000                                                                                                                        000000000000000000
F0010000006579300003000090037881900042505000000000000000000201412030002001COMERCIALIZADORA RACOPI S.A.S                     C000000000100000000000000000000000100010010000000000000000000000F0010000006579300320141203000101 00000000000000000000000000000000000000000000000000000000000000000000000000000000000000000000000000000000000000000N 00000000000NCONT   00    00000000000          00000000000000000000000000000000000000000000 000000000000000A000000000000000000000000000000000000000000000 000000000000000000000000000000000000000     00000000                                                                                                                        000000000000000000
F0010000006579300004000090037881900023658300000000000000000201412030002001COMERCIALIZADORA RACOPI S.A.S                     C000000000008800000000000000000000100010010000000000000000000000F0010000006579300420141203000101 00000000000000000000000000000000000000000000000000000000000000000000000000000000000000000000000000000000000000000N 00000000000NCONT   00    00000000000          00000000000000000000000000000000000000000000 000000000000000A000000000000000000000000000000000000000000000 000000000000000000000000000000000000000     00000000                                                                                                                        000000000000000000
F0010000006579300005000090037881900013552100000000000000000201412030002001COMERCIALIZADORA RACOPI S.A.S                     D000000000008800000000000000000000100010010000000000000000000000F0010000006579300520141203000101 00000000000000000000000000000000000000000000000000000000000000000000000000000000000000000000000000000000000000000N 00000000000NCONT   00    00000000000          00000000000000000000000000000000000000000000 000000000000000A000000000000000000000000000000000000000000000 000000000000000000000000000000000000000     00000000                                                                                                                        000000000000000000
F0010000006579400001000090037881900011050500000000000000000201412030002001COMERCIALIZADORA RACOPI S.A.S                     D000000001500000000000000000000000100010010000000000000000000000F0010000006579400120141203000101 00000000000000000000000000000000000000000000000000000000000000000000000000000000000000000000000000000000000000000N 00000000000NCONT   00    00000000000          00000000000000000000000000000000000000000000 000000000000000A000000000000000000000000000000000000000000000 000000000000000000000000000000000000000     00000000                                                                                                                        000000000000000000
F0010000006579400002000090037881900041450500000000000000000201412030002001COMERCIALIZADORA RACOPI S.A.S                     C000000001000000000000000000000000100010010000000000000000000000F0010000006579400220141203000101 00000000000000000000000000000000000000000000000000000000000000000000000000000000000000000000000000000000000000000N 00000000000NCONT   00    00000000000          00000000000000000000000000000000000000000000 000000000000000A000000000000000000000000000000000000000000000 000000000000000000000000000000000000000     00000000                                                                                                                        000000000000000000
F0010000006579400003000090037881900042505000000000000000000201412030002001COMERCIALIZADORA RACOPI S.A.S                     C000000000500000000000000000000000100010010000000000000000000000F0010000006579400320141203000101 00000000000000000000000000000000000000000000000000000000000000000000000000000000000000000000000000000000000000000N 00000000000NCONT   00    00000000000          00000000000000000000000000000000000000000000 000000000000000A000000000000000000000000000000000000000000000 000000000000000000000000000000000000000     00000000                                                                                                                        000000000000000000
F0010000006579400004000090037881900023658300000000000000000201412030002001COMERCIALIZADORA RACOPI S.A.S                     C000000000008000000000000000000000100010010000000000000000000000F0010000006579400420141203000101 00000000000000000000000000000000000000000000000000000000000000000000000000000000000000000000000000000000000000000N 00000000000NCONT   00    00000000000          00000000000000000000000000000000000000000000 000000000000000A000000000000000000000000000000000000000000000 000000000000000000000000000000000000000     00000000                                                                                                                        000000000000000000
F0010000006579400005000090037881900013552100000000000000000201412030002001COMERCIALIZADORA RACOPI S.A.S                     D000000000008000000000000000000000100010010000000000000000000000F0010000006579400520141203000101 00000000000000000000000000000000000000000000000000000000000000000000000000000000000000000000000000000000000000000N 00000000000NCONT   00    00000000000          00000000000000000000000000000000000000000000 000000000000000A000000000000000000000000000000000000000000000 000000000000000000000000000000000000000     00000000                                                                                                                        000000000000000000
F0010000006579500001000007200205100011050500000000000000000201412030002001LUIS MOLINA                                       D000000001200000000000000000000000100010010000000000000000000000F0010000006579500120141203000101 00000000000000000000000000000000000000000000000000000000000000000000000000000000000000000000000000000000000000000N 00000000000NCONT   00    00000000000          00000000000000000000000000000000000000000000 000000000000000A000000000000000000000000000000000000000000000 000000000000000000000000000000000000000     00000000                                                                                                                        000000000000000000
F0010000006579500002000007200205100041450500000000000000000201412030002001LUIS MOLINA                                       C000000001100000000000000000000000100010010000000000000000000000F0010000006579500220141203000101 00000000000000000000000000000000000000000000000000000000000000000000000000000000000000000000000000000000000000000N 00000000000NCONT   00    00000000000          00000000000000000000000000000000000000000000 000000000000000A000000000000000000000000000000000000000000000 000000000000000000000000000000000000000     00000000                                                                                                                        000000000000000000
F0010000006579500003000007200205100042505000000000000000000201412030002001LUIS MOLINA                                       C000000000100000000000000000000000100010010000000000000000000000F0010000006579500320141203000101 00000000000000000000000000000000000000000000000000000000000000000000000000000000000000000000000000000000000000000N 00000000000NCONT   00    00000000000          00000000000000000000000000000000000000000000 000000000000000A000000000000000000000000000000000000000000000 000000000000000000000000000000000000000     00000000                                                                                                                        000000000000000000
F0010000006579500004000007200205100023658300000000000000000201412030002001LUIS MOLINA                                       C000000000008800000000000000000000100010010000000000000000000000F0010000006579500420141203000101 00000000000000000000000000000000000000000000000000000000000000000000000000000000000000000000000000000000000000000N 00000000000NCONT   00    00000000000          00000000000000000000000000000000000000000000 000000000000000A000000000000000000000000000000000000000000000 000000000000000000000000000000000000000     00000000                                                                                                                        000000000000000000
F0010000006579500005000007200205100013552100000000000000000201412030002001LUIS MOLINA                                       D000000000008800000000000000000000100010010000000000000000000000F0010000006579500520141203000101 00000000000000000000000000000000000000000000000000000000000000000000000000000000000000000000000000000000000000000N 00000000000NCONT   00    00000000000          00000000000000000000000000000000000000000000 000000000000000A000000000000000000000000000000000000000000000 000000000000000000000000000000000000000     00000000                                                                                                                        000000000000000000
