F0010000009002300001000007215902600013050500000000000000000201608180002001KRISS LORENA BLANCO  (BANTEX)                     D000000012730000000000000000000000100010010000000000000000000000F0010000009002300120160818000101 00000000000000000000000000000000000000000000000000000000000000000000000000000000000000000000000000000000000000000N 00000000000NCONT   00    00000000000          00000000000000000000000000000000000000000000 000000000000000A000000000000000000000000000000000000000000000 000000000000000000000000000000000000000     00000000                                                                                                                        000000000000000000
F0010000009002300002000007215902600041450500000000000000000201608180002001KRISS LORENA BLANCO  (BANTEX)                     C000000012030000000000000000000000100010010000000000000000000000F0010000009002300220160818000101 00000000000000000000000000000000000000000000000000000000000000000000000000000000000000000000000000000000000000000N 00000000000NCONT   00    00000000000          00000000000000000000000000000000000000000000 000000000000000A000000000000000000000000000000000000000000000 000000000000000000000000000000000000000     00000000                                                                                                                        000000000000000000
F0010000009002300003000007215902600042505000000000000000000201608180002001KRISS LORENA BLANCO  (BANTEX)                     C000000000700000000000000000000000100010010000000000000000000000F0010000009002300320160818000101 00000000000000000000000000000000000000000000000000000000000000000000000000000000000000000000000000000000000000000N 00000000000NCONT   00    00000000000          00000000000000000000000000000000000000000000 000000000000000A000000000000000000000000000000000000000000000 000000000000000000000000000000000000000     00000000                                                                                                                        000000000000000000
F0010000009002300004000007215902600023658300000000000000000201608180002001KRISS LORENA BLANCO  (BANTEX)                     C000000000096200000000000000000000100010010000000000000000000000F0010000009002300420160818000101 00000000000000000000000000000000000000000000000000000000000000000000000000000000000000000000000000000000000000000N 00000000000NCONT   00    00000000000          00000000000000000000000000000000000000000000 000000000000000A000000000000000000000000000000000000000000000 000000000000000000000000000000000000000     00000000                                                                                                                        000000000000000000
F0010000009002300005000007215902600013552100000000000000000201608180002001KRISS LORENA BLANCO  (BANTEX)                     D000000000096200000000000000000000100010010000000000000000000000F0010000009002300520160818000101 00000000000000000000000000000000000000000000000000000000000000000000000000000000000000000000000000000000000000000N 00000000000NCONT   00    00000000000          00000000000000000000000000000000000000000000 000000000000000A000000000000000000000000000000000000000000000 000000000000000000000000000000000000000     00000000                                                                                                                        000000000000000000
F0010000009002400001000090044920600013050500000000000000000201608180002001QUATRO CARIBE SAS                                 D000000010630000000000000000000000100010010000000000000000000000F0010000009002400120160818000101 00000000000000000000000000000000000000000000000000000000000000000000000000000000000000000000000000000000000000000N 00000000000NCONT   00    00000000000          00000000000000000000000000000000000000000000 000000000000000A000000000000000000000000000000000000000000000 000000000000000000000000000000000000000     00000000                                                                                                                        000000000000000000
F0010000009002400002000090044920600041450500000000000000000201608180002001QUATRO CARIBE SAS                                 C000000007060000000000000000000000100010010000000000000000000000F0010000009002400220160818000101 00000000000000000000000000000000000000000000000000000000000000000000000000000000000000000000000000000000000000000N 00000000000NCONT   00    00000000000          00000000000000000000000000000000000000000000 000000000000000A000000000000000000000000000000000000000000000 000000000000000000000000000000000000000     00000000                                                                                                                        000000000000000000
F0010000009002400003000090044920600042505000000000000000000201608180002001QUATRO CARIBE SAS                                 C000000003570000000000000000000000100010010000000000000000000000F0010000009002400320160818000101 00000000000000000000000000000000000000000000000000000000000000000000000000000000000000000000000000000000000000000N 00000000000NCONT   00    00000000000          00000000000000000000000000000000000000000000 000000000000000A000000000000000000000000000000000000000000000 000000000000000000000000000000000000000     00000000                                                                                                                        000000000000000000
F0010000009002400004000090044920600023658300000000000000000201608180002001QUATRO CARIBE SAS                                 C000000000056500000000000000000000100010010000000000000000000000F0010000009002400420160818000101 00000000000000000000000000000000000000000000000000000000000000000000000000000000000000000000000000000000000000000N 00000000000NCONT   00    00000000000          00000000000000000000000000000000000000000000 000000000000000A000000000000000000000000000000000000000000000 000000000000000000000000000000000000000     00000000                                                                                                                        000000000000000000
F0010000009002400005000090044920600013552100000000000000000201608180002001QUATRO CARIBE SAS                                 D000000000056500000000000000000000100010010000000000000000000000F0010000009002400520160818000101 00000000000000000000000000000000000000000000000000000000000000000000000000000000000000000000000000000000000000000N 00000000000NCONT   00    00000000000          00000000000000000000000000000000000000000000 000000000000000A000000000000000000000000000000000000000000000 000000000000000000000000000000000000000     00000000                                                                                                                        000000000000000000
F0010000009002500001000089031248700013050500000000000000000201608180002001DISTRIBUIDORA CALIPLASTICOS LTDA                  D000000031409500000000000000000000100010010000000000000000000000F0010000009002500120160818000101 00000000000000000000000000000000000000000000000000000000000000000000000000000000000000000000000000000000000000000N 00000000000NCONT   00    00000000000          00000000000000000000000000000000000000000000 000000000000000A000000000000000000000000000000000000000000000 000000000000000000000000000000000000000     00000000                                                                                                                        000000000000000000
F0010000009002500002000089031248700041450500000000000000000201608180002001DISTRIBUIDORA CALIPLASTICOS LTDA                  C000000029159500000000000000000000100010010000000000000000000000F0010000009002500220160818000101 00000000000000000000000000000000000000000000000000000000000000000000000000000000000000000000000000000000000000000N 00000000000NCONT   00    00000000000          00000000000000000000000000000000000000000000 000000000000000A000000000000000000000000000000000000000000000 000000000000000000000000000000000000000     00000000                                                                                                                        000000000000000000
F0010000009002500003000089031248700042505000000000000000000201608180002001DISTRIBUIDORA CALIPLASTICOS LTDA                  C000000002250000000000000000000000100010010000000000000000000000F0010000009002500320160818000101 00000000000000000000000000000000000000000000000000000000000000000000000000000000000000000000000000000000000000000N 00000000000NCONT   00    00000000000          00000000000000000000000000000000000000000000 000000000000000A000000000000000000000000000000000000000000000 000000000000000000000000000000000000000     00000000                                                                                                                        000000000000000000
F0010000009002500004000089031248700023658300000000000000000201608180002001DISTRIBUIDORA CALIPLASTICOS LTDA                  C000000000233300000000000000000000100010010000000000000000000000F0010000009002500420160818000101 00000000000000000000000000000000000000000000000000000000000000000000000000000000000000000000000000000000000000000N 00000000000NCONT   00    00000000000          00000000000000000000000000000000000000000000 000000000000000A000000000000000000000000000000000000000000000 000000000000000000000000000000000000000     00000000                                                                                                                        000000000000000000
F0010000009002500005000089031248700013552100000000000000000201608180002001DISTRIBUIDORA CALIPLASTICOS LTDA                  D000000000233300000000000000000000100010010000000000000000000000F0010000009002500520160818000101 00000000000000000000000000000000000000000000000000000000000000000000000000000000000000000000000000000000000000000N 00000000000NCONT   00    00000000000          00000000000000000000000000000000000000000000 000000000000000A000000000000000000000000000000000000000000000 000000000000000000000000000000000000000     00000000                                                                                                                        000000000000000000
F0010000009002600001000001022529300013050500000000000000000201608180002001ALBERTO ALVAREZ ISAZA                             D000000003651700000000000000000000100010010000000000000000000000F0010000009002600120160818000101 00000000000000000000000000000000000000000000000000000000000000000000000000000000000000000000000000000000000000000N 00000000000NCONT   00    00000000000          00000000000000000000000000000000000000000000 000000000000000A000000000000000000000000000000000000000000000 000000000000000000000000000000000000000     00000000                                                                                                                        000000000000000000
F0010000009002600002000001022529300041450500000000000000000201608180002001ALBERTO ALVAREZ ISAZA                             C000000003450000000000000000000000100010010000000000000000000000F0010000009002600220160818000101 00000000000000000000000000000000000000000000000000000000000000000000000000000000000000000000000000000000000000000N 00000000000NCONT   00    00000000000          00000000000000000000000000000000000000000000 000000000000000A000000000000000000000000000000000000000000000 000000000000000000000000000000000000000     00000000                                                                                                                        000000000000000000
F0010000009002600003000001022529300042505000000000000000000201608180002001ALBERTO ALVAREZ ISAZA                             C000000000201700000000000000000000100010010000000000000000000000F0010000009002600320160818000101 00000000000000000000000000000000000000000000000000000000000000000000000000000000000000000000000000000000000000000N 00000000000NCONT   00    00000000000          00000000000000000000000000000000000000000000 000000000000000A000000000000000000000000000000000000000000000 000000000000000000000000000000000000000     00000000                                                                                                                        000000000000000000
F0010000009002600004000001022529300023658300000000000000000201608180002001ALBERTO ALVAREZ ISAZA                             C000000000027600000000000000000000100010010000000000000000000000F0010000009002600420160818000101 00000000000000000000000000000000000000000000000000000000000000000000000000000000000000000000000000000000000000000N 00000000000NCONT   00    00000000000          00000000000000000000000000000000000000000000 000000000000000A000000000000000000000000000000000000000000000 000000000000000000000000000000000000000     00000000                                                                                                                        000000000000000000
F0010000009002600005000001022529300013552100000000000000000201608180002001ALBERTO ALVAREZ ISAZA                             D000000000027600000000000000000000100010010000000000000000000000F0010000009002600520160818000101 00000000000000000000000000000000000000000000000000000000000000000000000000000000000000000000000000000000000000000N 00000000000NCONT   00    00000000000          00000000000000000000000000000000000000000000 000000000000000A000000000000000000000000000000000000000000000 000000000000000000000000000000000000000     00000000                                                                                                                        000000000000000000
F0010000009002700001000080202132300013050500000000000000000201608180002001SUM Y SERV DE LA COSTA LTDA                       D000000021790000000000000000000000100010010000000000000000000000F0010000009002700120160818000101 00000000000000000000000000000000000000000000000000000000000000000000000000000000000000000000000000000000000000000N 00000000000NCONT   00    00000000000          00000000000000000000000000000000000000000000 000000000000000A000000000000000000000000000000000000000000000 000000000000000000000000000000000000000     00000000                                                                                                                        000000000000000000
F0010000009002700002000080202132300041450500000000000000000201608180002001SUM Y SERV DE LA COSTA LTDA                       C000000020300000000000000000000000100010010000000000000000000000F0010000009002700220160818000101 00000000000000000000000000000000000000000000000000000000000000000000000000000000000000000000000000000000000000000N 00000000000NCONT   00    00000000000          00000000000000000000000000000000000000000000 000000000000000A000000000000000000000000000000000000000000000 000000000000000000000000000000000000000     00000000                                                                                                                        000000000000000000
F0010000009002700003000080202132300042505000000000000000000201608180002001SUM Y SERV DE LA COSTA LTDA                       C000000001490000000000000000000000100010010000000000000000000000F0010000009002700320160818000101 00000000000000000000000000000000000000000000000000000000000000000000000000000000000000000000000000000000000000000N 00000000000NCONT   00    00000000000          00000000000000000000000000000000000000000000 000000000000000A000000000000000000000000000000000000000000000 000000000000000000000000000000000000000     00000000                                                                                                                        000000000000000000
F0010000009002700004000080202132300023658300000000000000000201608180002001SUM Y SERV DE LA COSTA LTDA                       C000000000162400000000000000000000100010010000000000000000000000F0010000009002700420160818000101 00000000000000000000000000000000000000000000000000000000000000000000000000000000000000000000000000000000000000000N 00000000000NCONT   00    00000000000          00000000000000000000000000000000000000000000 000000000000000A000000000000000000000000000000000000000000000 000000000000000000000000000000000000000     00000000                                                                                                                        000000000000000000
F0010000009002700005000080202132300013552100000000000000000201608180002001SUM Y SERV DE LA COSTA LTDA                       D000000000162400000000000000000000100010010000000000000000000000F0010000009002700520160818000101 00000000000000000000000000000000000000000000000000000000000000000000000000000000000000000000000000000000000000000N 00000000000NCONT   00    00000000000          00000000000000000000000000000000000000000000 000000000000000A000000000000000000000000000000000000000000000 000000000000000000000000000000000000000     00000000                                                                                                                        000000000000000000
F0010000009002800001000080010983700013050500000000000000000201608180002001OHM LTDA                                          D000000016950000000000000000000000100010010000000000000000000000F0010000009002800120160818000101 00000000000000000000000000000000000000000000000000000000000000000000000000000000000000000000000000000000000000000N 00000000000NCONT   00    00000000000          00000000000000000000000000000000000000000000 000000000000000A000000000000000000000000000000000000000000000 000000000000000000000000000000000000000     00000000                                                                                                                        000000000000000000
F0010000009002800002000080010983700041450500000000000000000201608180002001OHM LTDA                                          C000000016770000000000000000000000100010010000000000000000000000F0010000009002800220160818000101 00000000000000000000000000000000000000000000000000000000000000000000000000000000000000000000000000000000000000000N 00000000000NCONT   00    00000000000          00000000000000000000000000000000000000000000 000000000000000A000000000000000000000000000000000000000000000 000000000000000000000000000000000000000     00000000                                                                                                                        000000000000000000
F0010000009002800003000080010983700042505000000000000000000201608180002001OHM LTDA                                          C000000000180000000000000000000000100010010000000000000000000000F0010000009002800320160818000101 00000000000000000000000000000000000000000000000000000000000000000000000000000000000000000000000000000000000000000N 00000000000NCONT   00    00000000000          00000000000000000000000000000000000000000000 000000000000000A000000000000000000000000000000000000000000000 000000000000000000000000000000000000000     00000000                                                                                                                        000000000000000000
F0010000009002800004000080010983700023658300000000000000000201608180002001OHM LTDA                                          C000000000134200000000000000000000100010010000000000000000000000F0010000009002800420160818000101 00000000000000000000000000000000000000000000000000000000000000000000000000000000000000000000000000000000000000000N 00000000000NCONT   00    00000000000          00000000000000000000000000000000000000000000 000000000000000A000000000000000000000000000000000000000000000 000000000000000000000000000000000000000     00000000                                                                                                                        000000000000000000
F0010000009002800005000080010983700013552100000000000000000201608180002001OHM LTDA                                          D000000000134200000000000000000000100010010000000000000000000000F0010000009002800520160818000101 00000000000000000000000000000000000000000000000000000000000000000000000000000000000000000000000000000000000000000N 00000000000NCONT   00    00000000000          00000000000000000000000000000000000000000000 000000000000000A000000000000000000000000000000000000000000000 000000000000000000000000000000000000000     00000000                                                                                                                        000000000000000000
F0010000009002900001000000431178400013050500000000000000000201608180002001EFRAIN ALVAREZ                                    D000000009000000000000000000000000100010010000000000000000000000F0010000009002900120160818000101 00000000000000000000000000000000000000000000000000000000000000000000000000000000000000000000000000000000000000000N 00000000000NCONT   00    00000000000          00000000000000000000000000000000000000000000 000000000000000A000000000000000000000000000000000000000000000 000000000000000000000000000000000000000     00000000                                                                                                                        000000000000000000
F0010000009002900002000000431178400041450500000000000000000201608180002001EFRAIN ALVAREZ                                    C000000008300000000000000000000000100010010000000000000000000000F0010000009002900220160818000101 00000000000000000000000000000000000000000000000000000000000000000000000000000000000000000000000000000000000000000N 00000000000NCONT   00    00000000000          00000000000000000000000000000000000000000000 000000000000000A000000000000000000000000000000000000000000000 000000000000000000000000000000000000000     00000000                                                                                                                        000000000000000000
F0010000009002900003000000431178400042505000000000000000000201608180002001EFRAIN ALVAREZ                                    C000000000700000000000000000000000100010010000000000000000000000F0010000009002900320160818000101 00000000000000000000000000000000000000000000000000000000000000000000000000000000000000000000000000000000000000000N 00000000000NCONT   00    00000000000          00000000000000000000000000000000000000000000 000000000000000A000000000000000000000000000000000000000000000 000000000000000000000000000000000000000     00000000                                                                                                                        000000000000000000
F0010000009002900004000000431178400023658300000000000000000201608180002001EFRAIN ALVAREZ                                    C000000000066400000000000000000000100010010000000000000000000000F0010000009002900420160818000101 00000000000000000000000000000000000000000000000000000000000000000000000000000000000000000000000000000000000000000N 00000000000NCONT   00    00000000000          00000000000000000000000000000000000000000000 000000000000000A000000000000000000000000000000000000000000000 000000000000000000000000000000000000000     00000000                                                                                                                        000000000000000000
F0010000009002900005000000431178400013552100000000000000000201608180002001EFRAIN ALVAREZ                                    D000000000066400000000000000000000100010010000000000000000000000F0010000009002900520160818000101 00000000000000000000000000000000000000000000000000000000000000000000000000000000000000000000000000000000000000000N 00000000000NCONT   00    00000000000          00000000000000000000000000000000000000000000 000000000000000A000000000000000000000000000000000000000000000 000000000000000000000000000000000000000     00000000                                                                                                                        000000000000000000
F0010000009003000001000090038852800013050500000000000000000201608180002001EL COMERCIO ELECTRICO DE LA CO                    D000000017280000000000000000000000100010010000000000000000000000F0010000009003000120160818000101 00000000000000000000000000000000000000000000000000000000000000000000000000000000000000000000000000000000000000000N 00000000000NCONT   00    00000000000          00000000000000000000000000000000000000000000 000000000000000A000000000000000000000000000000000000000000000 000000000000000000000000000000000000000     00000000                                                                                                                        000000000000000000
F0010000009003000002000090038852800041450500000000000000000201608180002001EL COMERCIO ELECTRICO DE LA CO                    C000000014550000000000000000000000100010010000000000000000000000F0010000009003000220160818000101 00000000000000000000000000000000000000000000000000000000000000000000000000000000000000000000000000000000000000000N 00000000000NCONT   00    00000000000          00000000000000000000000000000000000000000000 000000000000000A000000000000000000000000000000000000000000000 000000000000000000000000000000000000000     00000000                                                                                                                        000000000000000000
F0010000009003000003000090038852800042505000000000000000000201608180002001EL COMERCIO ELECTRICO DE LA CO                    C000000002730000000000000000000000100010010000000000000000000000F0010000009003000320160818000101 00000000000000000000000000000000000000000000000000000000000000000000000000000000000000000000000000000000000000000N 00000000000NCONT   00    00000000000          00000000000000000000000000000000000000000000 000000000000000A000000000000000000000000000000000000000000000 000000000000000000000000000000000000000     00000000                                                                                                                        000000000000000000
F0010000009003000004000090038852800023658300000000000000000201608180002001EL COMERCIO ELECTRICO DE LA CO                    C000000000116400000000000000000000100010010000000000000000000000F0010000009003000420160818000101 00000000000000000000000000000000000000000000000000000000000000000000000000000000000000000000000000000000000000000N 00000000000NCONT   00    00000000000          00000000000000000000000000000000000000000000 000000000000000A000000000000000000000000000000000000000000000 000000000000000000000000000000000000000     00000000                                                                                                                        000000000000000000
F0010000009003000005000090038852800013552100000000000000000201608180002001EL COMERCIO ELECTRICO DE LA CO                    D000000000116400000000000000000000100010010000000000000000000000F0010000009003000520160818000101 00000000000000000000000000000000000000000000000000000000000000000000000000000000000000000000000000000000000000000N 00000000000NCONT   00    00000000000          00000000000000000000000000000000000000000000 000000000000000A000000000000000000000000000000000000000000000 000000000000000000000000000000000000000     00000000                                                                                                                        000000000000000000
F0010000009003100001000090050863700013050500000000000000000201608180002001COMERCIALIZADORA PERFECT SAS                      D000000004765000000000000000000000100010010000000000000000000000F0010000009003100120160818000101 00000000000000000000000000000000000000000000000000000000000000000000000000000000000000000000000000000000000000000N 00000000000NCONT   00    00000000000          00000000000000000000000000000000000000000000 000000000000000A000000000000000000000000000000000000000000000 000000000000000000000000000000000000000     00000000                                                                                                                        000000000000000000
F0010000009003100002000090050863700041450500000000000000000201608180002001COMERCIALIZADORA PERFECT SAS                      C000000003165000000000000000000000100010010000000000000000000000F0010000009003100220160818000101 00000000000000000000000000000000000000000000000000000000000000000000000000000000000000000000000000000000000000000N 00000000000NCONT   00    00000000000          00000000000000000000000000000000000000000000 000000000000000A000000000000000000000000000000000000000000000 000000000000000000000000000000000000000     00000000                                                                                                                        000000000000000000
F0010000009003100003000090050863700042505000000000000000000201608180002001COMERCIALIZADORA PERFECT SAS                      C000000001600000000000000000000000100010010000000000000000000000F0010000009003100320160818000101 00000000000000000000000000000000000000000000000000000000000000000000000000000000000000000000000000000000000000000N 00000000000NCONT   00    00000000000          00000000000000000000000000000000000000000000 000000000000000A000000000000000000000000000000000000000000000 000000000000000000000000000000000000000     00000000                                                                                                                        000000000000000000
F0010000009003100004000090050863700023658300000000000000000201608180002001COMERCIALIZADORA PERFECT SAS                      C000000000025300000000000000000000100010010000000000000000000000F0010000009003100420160818000101 00000000000000000000000000000000000000000000000000000000000000000000000000000000000000000000000000000000000000000N 00000000000NCONT   00    00000000000          00000000000000000000000000000000000000000000 000000000000000A000000000000000000000000000000000000000000000 000000000000000000000000000000000000000     00000000                                                                                                                        000000000000000000
F0010000009003100005000090050863700013552100000000000000000201608180002001COMERCIALIZADORA PERFECT SAS                      D000000000025300000000000000000000100010010000000000000000000000F0010000009003100520160818000101 00000000000000000000000000000000000000000000000000000000000000000000000000000000000000000000000000000000000000000N 00000000000NCONT   00    00000000000          00000000000000000000000000000000000000000000 000000000000000A000000000000000000000000000000000000000000000 000000000000000000000000000000000000000     00000000                                                                                                                        000000000000000000
F0010000009003200001000007215896800013050500000000000000000201608180002001EDDIER CIRO                                       D000000031105400000000000000000000100010010000000000000000000000F0010000009003200120160818000101 00000000000000000000000000000000000000000000000000000000000000000000000000000000000000000000000000000000000000000N 00000000000NCONT   00    00000000000          00000000000000000000000000000000000000000000 000000000000000A000000000000000000000000000000000000000000000 000000000000000000000000000000000000000     00000000                                                                                                                        000000000000000000
F0010000009003200002000007215896800041450500000000000000000201608180002001EDDIER CIRO                                       C000000022520000000000000000000000100010010000000000000000000000F0010000009003200220160818000101 00000000000000000000000000000000000000000000000000000000000000000000000000000000000000000000000000000000000000000N 00000000000NCONT   00    00000000000          00000000000000000000000000000000000000000000 000000000000000A000000000000000000000000000000000000000000000 000000000000000000000000000000000000000     00000000                                                                                                                        000000000000000000
F0010000009003200003000007215896800042505000000000000000000201608180002001EDDIER CIRO                                       C000000008585400000000000000000000100010010000000000000000000000F0010000009003200320160818000101 00000000000000000000000000000000000000000000000000000000000000000000000000000000000000000000000000000000000000000N 00000000000NCONT   00    00000000000          00000000000000000000000000000000000000000000 000000000000000A000000000000000000000000000000000000000000000 000000000000000000000000000000000000000     00000000                                                                                                                        000000000000000000
F0010000009003200004000007215896800023658300000000000000000201608180002001EDDIER CIRO                                       C000000000180200000000000000000000100010010000000000000000000000F0010000009003200420160818000101 00000000000000000000000000000000000000000000000000000000000000000000000000000000000000000000000000000000000000000N 00000000000NCONT   00    00000000000          00000000000000000000000000000000000000000000 000000000000000A000000000000000000000000000000000000000000000 000000000000000000000000000000000000000     00000000                                                                                                                        000000000000000000
F0010000009003200005000007215896800013552100000000000000000201608180002001EDDIER CIRO                                       D000000000180200000000000000000000100010010000000000000000000000F0010000009003200520160818000101 00000000000000000000000000000000000000000000000000000000000000000000000000000000000000000000000000000000000000000N 00000000000NCONT   00    00000000000          00000000000000000000000000000000000000000000 000000000000000A000000000000000000000000000000000000000000000 000000000000000000000000000000000000000     00000000                                                                                                                        000000000000000000
F0010000009003300001000086003979400013050500000000000000000201608180002001CALYPSO BARRANQUILLA LTDA                         D000000020491600000000000000000000100010010000000000000000000000F0010000009003300120160818000101 00000000000000000000000000000000000000000000000000000000000000000000000000000000000000000000000000000000000000000N 00000000000NCONT   00    00000000000          00000000000000000000000000000000000000000000 000000000000000A000000000000000000000000000000000000000000000 000000000000000000000000000000000000000     00000000                                                                                                                        000000000000000000
F0010000009003300002000086003979400041450500000000000000000201608180002001CALYPSO BARRANQUILLA LTDA                         C000000019100000000000000000000000100010010000000000000000000000F0010000009003300220160818000101 00000000000000000000000000000000000000000000000000000000000000000000000000000000000000000000000000000000000000000N 00000000000NCONT   00    00000000000          00000000000000000000000000000000000000000000 000000000000000A000000000000000000000000000000000000000000000 000000000000000000000000000000000000000     00000000                                                                                                                        000000000000000000
F0010000009003300003000086003979400042505000000000000000000201608180002001CALYPSO BARRANQUILLA LTDA                         C000000001391600000000000000000000100010010000000000000000000000F0010000009003300320160818000101 00000000000000000000000000000000000000000000000000000000000000000000000000000000000000000000000000000000000000000N 00000000000NCONT   00    00000000000          00000000000000000000000000000000000000000000 000000000000000A000000000000000000000000000000000000000000000 000000000000000000000000000000000000000     00000000                                                                                                                        000000000000000000
F0010000009003300004000086003979400023658300000000000000000201608180002001CALYPSO BARRANQUILLA LTDA                         C000000000152800000000000000000000100010010000000000000000000000F0010000009003300420160818000101 00000000000000000000000000000000000000000000000000000000000000000000000000000000000000000000000000000000000000000N 00000000000NCONT   00    00000000000          00000000000000000000000000000000000000000000 000000000000000A000000000000000000000000000000000000000000000 000000000000000000000000000000000000000     00000000                                                                                                                        000000000000000000
F0010000009003300005000086003979400013552100000000000000000201608180002001CALYPSO BARRANQUILLA LTDA                         D000000000152800000000000000000000100010010000000000000000000000F0010000009003300520160818000101 00000000000000000000000000000000000000000000000000000000000000000000000000000000000000000000000000000000000000000N 00000000000NCONT   00    00000000000          00000000000000000000000000000000000000000000 000000000000000A000000000000000000000000000000000000000000000 000000000000000000000000000000000000000     00000000                                                                                                                        000000000000000000
F0010000009003400001000089011719700013050500000000000000000201608180002001REP. MUNERA GALARZA LTDA (FRANCISCO MUNERA)       D000000003520000000000000000000000100010010000000000000000000000F0010000009003400120160818000101 00000000000000000000000000000000000000000000000000000000000000000000000000000000000000000000000000000000000000000N 00000000000NCONT   00    00000000000          00000000000000000000000000000000000000000000 000000000000000A000000000000000000000000000000000000000000000 000000000000000000000000000000000000000     00000000                                                                                                                        000000000000000000
F0010000009003400002000089011719700041450500000000000000000201608180002001REP. MUNERA GALARZA LTDA (FRANCISCO MUNERA)       C000000002660000000000000000000000100010010000000000000000000000F0010000009003400220160818000101 00000000000000000000000000000000000000000000000000000000000000000000000000000000000000000000000000000000000000000N 00000000000NCONT   00    00000000000          00000000000000000000000000000000000000000000 000000000000000A000000000000000000000000000000000000000000000 000000000000000000000000000000000000000     00000000                                                                                                                        000000000000000000
F0010000009003400003000089011719700042505000000000000000000201608180002001REP. MUNERA GALARZA LTDA (FRANCISCO MUNERA)       C000000000860000000000000000000000100010010000000000000000000000F0010000009003400320160818000101 00000000000000000000000000000000000000000000000000000000000000000000000000000000000000000000000000000000000000000N 00000000000NCONT   00    00000000000          00000000000000000000000000000000000000000000 000000000000000A000000000000000000000000000000000000000000000 000000000000000000000000000000000000000     00000000                                                                                                                        000000000000000000
F0010000009003400004000089011719700023658300000000000000000201608180002001REP. MUNERA GALARZA LTDA (FRANCISCO MUNERA)       C000000000021300000000000000000000100010010000000000000000000000F0010000009003400420160818000101 00000000000000000000000000000000000000000000000000000000000000000000000000000000000000000000000000000000000000000N 00000000000NCONT   00    00000000000          00000000000000000000000000000000000000000000 000000000000000A000000000000000000000000000000000000000000000 000000000000000000000000000000000000000     00000000                                                                                                                        000000000000000000
F0010000009003400005000089011719700013552100000000000000000201608180002001REP. MUNERA GALARZA LTDA (FRANCISCO MUNERA)       D000000000021300000000000000000000100010010000000000000000000000F0010000009003400520160818000101 00000000000000000000000000000000000000000000000000000000000000000000000000000000000000000000000000000000000000000N 00000000000NCONT   00    00000000000          00000000000000000000000000000000000000000000 000000000000000A000000000000000000000000000000000000000000000 000000000000000000000000000000000000000     00000000                                                                                                                        000000000000000000
F0010000009003500001000090000859400013050500000000000000000201608180002001COMERCIAL JOTACE LTDA                             D000000015159500000000000000000000100010010000000000000000000000F0010000009003500120160818000101 00000000000000000000000000000000000000000000000000000000000000000000000000000000000000000000000000000000000000000N 00000000000NCONT   00    00000000000          00000000000000000000000000000000000000000000 000000000000000A000000000000000000000000000000000000000000000 000000000000000000000000000000000000000     00000000                                                                                                                        000000000000000000
F0010000009003500002000090000859400041450500000000000000000201608180002001COMERCIAL JOTACE LTDA                             C000000013720000000000000000000000100010010000000000000000000000F0010000009003500220160818000101 00000000000000000000000000000000000000000000000000000000000000000000000000000000000000000000000000000000000000000N 00000000000NCONT   00    00000000000          00000000000000000000000000000000000000000000 000000000000000A000000000000000000000000000000000000000000000 000000000000000000000000000000000000000     00000000                                                                                                                        000000000000000000
F0010000009003500003000090000859400042505000000000000000000201608180002001COMERCIAL JOTACE LTDA                             C000000001439500000000000000000000100010010000000000000000000000F0010000009003500320160818000101 00000000000000000000000000000000000000000000000000000000000000000000000000000000000000000000000000000000000000000N 00000000000NCONT   00    00000000000          00000000000000000000000000000000000000000000 000000000000000A000000000000000000000000000000000000000000000 000000000000000000000000000000000000000     00000000                                                                                                                        000000000000000000
F0010000009003500004000090000859400023658300000000000000000201608180002001COMERCIAL JOTACE LTDA                             C000000000109800000000000000000000100010010000000000000000000000F0010000009003500420160818000101 00000000000000000000000000000000000000000000000000000000000000000000000000000000000000000000000000000000000000000N 00000000000NCONT   00    00000000000          00000000000000000000000000000000000000000000 000000000000000A000000000000000000000000000000000000000000000 000000000000000000000000000000000000000     00000000                                                                                                                        000000000000000000
F0010000009003500005000090000859400013552100000000000000000201608180002001COMERCIAL JOTACE LTDA                             D000000000109800000000000000000000100010010000000000000000000000F0010000009003500520160818000101 00000000000000000000000000000000000000000000000000000000000000000000000000000000000000000000000000000000000000000N 00000000000NCONT   00    00000000000          00000000000000000000000000000000000000000000 000000000000000A000000000000000000000000000000000000000000000 000000000000000000000000000000000000000     00000000                                                                                                                        000000000000000000
F0010000009003600001000000868487100013050500000000000000000201608180002001JAIME PIÑEROS                                    D000000004910000000000000000000000100010010000000000000000000000F0010000009003600120160818000101 00000000000000000000000000000000000000000000000000000000000000000000000000000000000000000000000000000000000000000N 00000000000NCONT   00    00000000000          00000000000000000000000000000000000000000000 000000000000000A000000000000000000000000000000000000000000000 000000000000000000000000000000000000000     00000000                                                                                                                        000000000000000000
F0010000009003600002000000868487100041450500000000000000000201608180002001JAIME PIÑEROS                                    C000000003760000000000000000000000100010010000000000000000000000F0010000009003600220160818000101 00000000000000000000000000000000000000000000000000000000000000000000000000000000000000000000000000000000000000000N 00000000000NCONT   00    00000000000          00000000000000000000000000000000000000000000 000000000000000A000000000000000000000000000000000000000000000 000000000000000000000000000000000000000     00000000                                                                                                                        000000000000000000
F0010000009003600003000000868487100042505000000000000000000201608180002001JAIME PIÑEROS                                    C000000001150000000000000000000000100010010000000000000000000000F0010000009003600320160818000101 00000000000000000000000000000000000000000000000000000000000000000000000000000000000000000000000000000000000000000N 00000000000NCONT   00    00000000000          00000000000000000000000000000000000000000000 000000000000000A000000000000000000000000000000000000000000000 000000000000000000000000000000000000000     00000000                                                                                                                        000000000000000000
F0010000009003600004000000868487100023658300000000000000000201608180002001JAIME PIÑEROS                                    C000000000030100000000000000000000100010010000000000000000000000F0010000009003600420160818000101 00000000000000000000000000000000000000000000000000000000000000000000000000000000000000000000000000000000000000000N 00000000000NCONT   00    00000000000          00000000000000000000000000000000000000000000 000000000000000A000000000000000000000000000000000000000000000 000000000000000000000000000000000000000     00000000                                                                                                                        000000000000000000
F0010000009003600005000000868487100013552100000000000000000201608180002001JAIME PIÑEROS                                    D000000000030100000000000000000000100010010000000000000000000000F0010000009003600520160818000101 00000000000000000000000000000000000000000000000000000000000000000000000000000000000000000000000000000000000000000N 00000000000NCONT   00    00000000000          00000000000000000000000000000000000000000000 000000000000000A000000000000000000000000000000000000000000000 000000000000000000000000000000000000000     00000000                                                                                                                        000000000000000000
F0010000009003700001000080018337600013050500000000000000000201608180002001CENTRO FERRETERO INDUSTRIAL S.A.S                 D000000008350000000000000000000000100010010000000000000000000000F0010000009003700120160818000101 00000000000000000000000000000000000000000000000000000000000000000000000000000000000000000000000000000000000000000N 00000000000NCONT   00    00000000000          00000000000000000000000000000000000000000000 000000000000000A000000000000000000000000000000000000000000000 000000000000000000000000000000000000000     00000000                                                                                                                        000000000000000000
F0010000009003700002000080018337600041450500000000000000000201608180002001CENTRO FERRETERO INDUSTRIAL S.A.S                 C000000008000000000000000000000000100010010000000000000000000000F0010000009003700220160818000101 00000000000000000000000000000000000000000000000000000000000000000000000000000000000000000000000000000000000000000N 00000000000NCONT   00    00000000000          00000000000000000000000000000000000000000000 000000000000000A000000000000000000000000000000000000000000000 000000000000000000000000000000000000000     00000000                                                                                                                        000000000000000000
F0010000009003700003000080018337600042505000000000000000000201608180002001CENTRO FERRETERO INDUSTRIAL S.A.S                 C000000000350000000000000000000000100010010000000000000000000000F0010000009003700320160818000101 00000000000000000000000000000000000000000000000000000000000000000000000000000000000000000000000000000000000000000N 00000000000NCONT   00    00000000000          00000000000000000000000000000000000000000000 000000000000000A000000000000000000000000000000000000000000000 000000000000000000000000000000000000000     00000000                                                                                                                        000000000000000000
F0010000009003700004000080018337600023658300000000000000000201608180002001CENTRO FERRETERO INDUSTRIAL S.A.S                 C000000000064000000000000000000000100010010000000000000000000000F0010000009003700420160818000101 00000000000000000000000000000000000000000000000000000000000000000000000000000000000000000000000000000000000000000N 00000000000NCONT   00    00000000000          00000000000000000000000000000000000000000000 000000000000000A000000000000000000000000000000000000000000000 000000000000000000000000000000000000000     00000000                                                                                                                        000000000000000000
F0010000009003700005000080018337600013552100000000000000000201608180002001CENTRO FERRETERO INDUSTRIAL S.A.S                 D000000000064000000000000000000000100010010000000000000000000000F0010000009003700520160818000101 00000000000000000000000000000000000000000000000000000000000000000000000000000000000000000000000000000000000000000N 00000000000NCONT   00    00000000000          00000000000000000000000000000000000000000000 000000000000000A000000000000000000000000000000000000000000000 000000000000000000000000000000000000000     00000000                                                                                                                        000000000000000000
F0010000009003800001000080001063400013050500000000000000000201608180002001PRODUCTOS JULIAO SAS                              D000000039558500000000000000000000100010010000000000000000000000F0010000009003800120160818000101 00000000000000000000000000000000000000000000000000000000000000000000000000000000000000000000000000000000000000000N 00000000000NCONT   00    00000000000          00000000000000000000000000000000000000000000 000000000000000A000000000000000000000000000000000000000000000 000000000000000000000000000000000000000     00000000                                                                                                                        000000000000000000
F0010000009003800002000080001063400041450500000000000000000201608180002001PRODUCTOS JULIAO SAS                              C000000036960000000000000000000000100010010000000000000000000000F0010000009003800220160818000101 00000000000000000000000000000000000000000000000000000000000000000000000000000000000000000000000000000000000000000N 00000000000NCONT   00    00000000000          00000000000000000000000000000000000000000000 000000000000000A000000000000000000000000000000000000000000000 000000000000000000000000000000000000000     00000000                                                                                                                        000000000000000000
F0010000009003800003000080001063400042505000000000000000000201608180002001PRODUCTOS JULIAO SAS                              C000000002598500000000000000000000100010010000000000000000000000F0010000009003800320160818000101 00000000000000000000000000000000000000000000000000000000000000000000000000000000000000000000000000000000000000000N 00000000000NCONT   00    00000000000          00000000000000000000000000000000000000000000 000000000000000A000000000000000000000000000000000000000000000 000000000000000000000000000000000000000     00000000                                                                                                                        000000000000000000
F0010000009003800004000080001063400023658300000000000000000201608180002001PRODUCTOS JULIAO SAS                              C000000000295700000000000000000000100010010000000000000000000000F0010000009003800420160818000101 00000000000000000000000000000000000000000000000000000000000000000000000000000000000000000000000000000000000000000N 00000000000NCONT   00    00000000000          00000000000000000000000000000000000000000000 000000000000000A000000000000000000000000000000000000000000000 000000000000000000000000000000000000000     00000000                                                                                                                        000000000000000000
F0010000009003800005000080001063400013552100000000000000000201608180002001PRODUCTOS JULIAO SAS                              D000000000295700000000000000000000100010010000000000000000000000F0010000009003800520160818000101 00000000000000000000000000000000000000000000000000000000000000000000000000000000000000000000000000000000000000000N 00000000000NCONT   00    00000000000          00000000000000000000000000000000000000000000 000000000000000A000000000000000000000000000000000000000000000 000000000000000000000000000000000000000     00000000                                                                                                                        000000000000000000
F0010000009003900001000089011078600013050500000000000000000201608180002001DIST. NUEVO MUNDO S.A.S.                          D000000004131100000000000000000000100010010000000000000000000000F0010000009003900120160818000101 00000000000000000000000000000000000000000000000000000000000000000000000000000000000000000000000000000000000000000N 00000000000NCONT   00    00000000000          00000000000000000000000000000000000000000000 000000000000000A000000000000000000000000000000000000000000000 000000000000000000000000000000000000000     00000000                                                                                                                        000000000000000000
F0010000009003900002000089011078600041450500000000000000000201608180002001DIST. NUEVO MUNDO S.A.S.                          C000000003390000000000000000000000100010010000000000000000000000F0010000009003900220160818000101 00000000000000000000000000000000000000000000000000000000000000000000000000000000000000000000000000000000000000000N 00000000000NCONT   00    00000000000          00000000000000000000000000000000000000000000 000000000000000A000000000000000000000000000000000000000000000 000000000000000000000000000000000000000     00000000                                                                                                                        000000000000000000
F0010000009003900003000089011078600042505000000000000000000201608180002001DIST. NUEVO MUNDO S.A.S.                          C000000000741100000000000000000000100010010000000000000000000000F0010000009003900320160818000101 00000000000000000000000000000000000000000000000000000000000000000000000000000000000000000000000000000000000000000N 00000000000NCONT   00    00000000000          00000000000000000000000000000000000000000000 000000000000000A000000000000000000000000000000000000000000000 000000000000000000000000000000000000000     00000000                                                                                                                        000000000000000000
F0010000009003900004000089011078600023658300000000000000000201608180002001DIST. NUEVO MUNDO S.A.S.                          C000000000027100000000000000000000100010010000000000000000000000F0010000009003900420160818000101 00000000000000000000000000000000000000000000000000000000000000000000000000000000000000000000000000000000000000000N 00000000000NCONT   00    00000000000          00000000000000000000000000000000000000000000 000000000000000A000000000000000000000000000000000000000000000 000000000000000000000000000000000000000     00000000                                                                                                                        000000000000000000
F0010000009003900005000089011078600013552100000000000000000201608180002001DIST. NUEVO MUNDO S.A.S.                          D000000000027100000000000000000000100010010000000000000000000000F0010000009003900520160818000101 00000000000000000000000000000000000000000000000000000000000000000000000000000000000000000000000000000000000000000N 00000000000NCONT   00    00000000000          00000000000000000000000000000000000000000000 000000000000000A000000000000000000000000000000000000000000000 000000000000000000000000000000000000000     00000000                                                                                                                        000000000000000000
F0010000009004000001000089030195100013050500000000000000000201608180002001LIBRERIA NACIONAL S.A.                            D000000035000000000000000000000000100010010000000000000000000000F0010000009004000120160818000101 00000000000000000000000000000000000000000000000000000000000000000000000000000000000000000000000000000000000000000N 00000000000NCONT   00    00000000000          00000000000000000000000000000000000000000000 000000000000000A000000000000000000000000000000000000000000000 000000000000000000000000000000000000000     00000000                                                                                                                        000000000000000000
F0010000009004000002000089030195100041450500000000000000000201608180002001LIBRERIA NACIONAL S.A.                            C000000028800000000000000000000000100010010000000000000000000000F0010000009004000220160818000101 00000000000000000000000000000000000000000000000000000000000000000000000000000000000000000000000000000000000000000N 00000000000NCONT   00    00000000000          00000000000000000000000000000000000000000000 000000000000000A000000000000000000000000000000000000000000000 000000000000000000000000000000000000000     00000000                                                                                                                        000000000000000000
F0010000009004000003000089030195100042505000000000000000000201608180002001LIBRERIA NACIONAL S.A.                            C000000006200000000000000000000000100010010000000000000000000000F0010000009004000320160818000101 00000000000000000000000000000000000000000000000000000000000000000000000000000000000000000000000000000000000000000N 00000000000NCONT   00    00000000000          00000000000000000000000000000000000000000000 000000000000000A000000000000000000000000000000000000000000000 000000000000000000000000000000000000000     00000000                                                                                                                        000000000000000000
F0010000009004000004000089030195100023658300000000000000000201608180002001LIBRERIA NACIONAL S.A.                            C000000000230400000000000000000000100010010000000000000000000000F0010000009004000420160818000101 00000000000000000000000000000000000000000000000000000000000000000000000000000000000000000000000000000000000000000N 00000000000NCONT   00    00000000000          00000000000000000000000000000000000000000000 000000000000000A000000000000000000000000000000000000000000000 000000000000000000000000000000000000000     00000000                                                                                                                        000000000000000000
F0010000009004000005000089030195100013552100000000000000000201608180002001LIBRERIA NACIONAL S.A.                            D000000000230400000000000000000000100010010000000000000000000000F0010000009004000520160818000101 00000000000000000000000000000000000000000000000000000000000000000000000000000000000000000000000000000000000000000N 00000000000NCONT   00    00000000000          00000000000000000000000000000000000000000000 000000000000000A000000000000000000000000000000000000000000000 000000000000000000000000000000000000000     00000000                                                                                                                        000000000000000000
F0010000009004100001000004175790100013050500000000000000000201608180002001ROSIRIS FERIA HOYOS  (COSM. SHILLER)              D000000017300000000000000000000000100010010000000000000000000000F0010000009004100120160818000101 00000000000000000000000000000000000000000000000000000000000000000000000000000000000000000000000000000000000000000N 00000000000NCONT   00    00000000000          00000000000000000000000000000000000000000000 000000000000000A000000000000000000000000000000000000000000000 000000000000000000000000000000000000000     00000000                                                                                                                        000000000000000000
F0010000009004100002000004175790100041450500000000000000000201608180002001ROSIRIS FERIA HOYOS  (COSM. SHILLER)              C000000014800000000000000000000000100010010000000000000000000000F0010000009004100220160818000101 00000000000000000000000000000000000000000000000000000000000000000000000000000000000000000000000000000000000000000N 00000000000NCONT   00    00000000000          00000000000000000000000000000000000000000000 000000000000000A000000000000000000000000000000000000000000000 000000000000000000000000000000000000000     00000000                                                                                                                        000000000000000000
F0010000009004100003000004175790100042505000000000000000000201608180002001ROSIRIS FERIA HOYOS  (COSM. SHILLER)              C000000002500000000000000000000000100010010000000000000000000000F0010000009004100320160818000101 00000000000000000000000000000000000000000000000000000000000000000000000000000000000000000000000000000000000000000N 00000000000NCONT   00    00000000000          00000000000000000000000000000000000000000000 000000000000000A000000000000000000000000000000000000000000000 000000000000000000000000000000000000000     00000000                                                                                                                        000000000000000000
F0010000009004100004000004175790100023658300000000000000000201608180002001ROSIRIS FERIA HOYOS  (COSM. SHILLER)              C000000000118400000000000000000000100010010000000000000000000000F0010000009004100420160818000101 00000000000000000000000000000000000000000000000000000000000000000000000000000000000000000000000000000000000000000N 00000000000NCONT   00    00000000000          00000000000000000000000000000000000000000000 000000000000000A000000000000000000000000000000000000000000000 000000000000000000000000000000000000000     00000000                                                                                                                        000000000000000000
F0010000009004100005000004175790100013552100000000000000000201608180002001ROSIRIS FERIA HOYOS  (COSM. SHILLER)              D000000000118400000000000000000000100010010000000000000000000000F0010000009004100520160818000101 00000000000000000000000000000000000000000000000000000000000000000000000000000000000000000000000000000000000000000N 00000000000NCONT   00    00000000000          00000000000000000000000000000000000000000000 000000000000000A000000000000000000000000000000000000000000000 000000000000000000000000000000000000000     00000000                                                                                                                        000000000000000000
F0010000009004200001000089010272700013050500000000000000000201608180002001ALFONSOEME S.A.                                   D000000030318100000000000000000000100010010000000000000000000000F0010000009004200120160818000101 00000000000000000000000000000000000000000000000000000000000000000000000000000000000000000000000000000000000000000N 00000000000NCONT   00    00000000000          00000000000000000000000000000000000000000000 000000000000000A000000000000000000000000000000000000000000000 000000000000000000000000000000000000000     00000000                                                                                                                        000000000000000000
F0010000009004200002000089010272700041450500000000000000000201608180002001ALFONSOEME S.A.                                   C000000030309000000000000000000000100010010000000000000000000000F0010000009004200220160818000101 00000000000000000000000000000000000000000000000000000000000000000000000000000000000000000000000000000000000000000N 00000000000NCONT   00    00000000000          00000000000000000000000000000000000000000000 000000000000000A000000000000000000000000000000000000000000000 000000000000000000000000000000000000000     00000000                                                                                                                        000000000000000000
F0010000009004200003000089010272700041750100000000000000000201608180002001ALFONSOEME S.A.                                   D000000003030900000000000000000000100010010000000000000000000000F0010000009004200320160818000101 00000000000000000000000000000000000000000000000000000000000000000000000000000000000000000000000000000000000000000N 00000000000NCONT   00    00000000000          00000000000000000000000000000000000000000000 000000000000000A000000000000000000000000000000000000000000000 000000000000000000000000000000000000000     00000000                                                                                                                        000000000000000000
F0010000009004200004000089010272700042505000000000000000000201608180002001ALFONSOEME S.A.                                   C000000003040000000000000000000000100010010000000000000000000000F0010000009004200420160818000101 00000000000000000000000000000000000000000000000000000000000000000000000000000000000000000000000000000000000000000N 00000000000NCONT   00    00000000000          00000000000000000000000000000000000000000000 000000000000000A000000000000000000000000000000000000000000000 000000000000000000000000000000000000000     00000000                                                                                                                        000000000000000000
F0010000009004200005000089010272700023658300000000000000000201608180002001ALFONSOEME S.A.                                   C000000000242500000000000000000000100010010000000000000000000000F0010000009004200520160818000101 00000000000000000000000000000000000000000000000000000000000000000000000000000000000000000000000000000000000000000N 00000000000NCONT   00    00000000000          00000000000000000000000000000000000000000000 000000000000000A000000000000000000000000000000000000000000000 000000000000000000000000000000000000000     00000000                                                                                                                        000000000000000000
F0010000009004200006000089010272700013552100000000000000000201608180002001ALFONSOEME S.A.                                   D000000000242500000000000000000000100010010000000000000000000000F0010000009004200620160818000101 00000000000000000000000000000000000000000000000000000000000000000000000000000000000000000000000000000000000000000N 00000000000NCONT   00    00000000000          00000000000000000000000000000000000000000000 000000000000000A000000000000000000000000000000000000000000000 000000000000000000000000000000000000000     00000000                                                                                                                        000000000000000000
F0010000009004300001000089010272700013050500000000000000000201608180002001ALFONSOEME S.A.                                   D000000010838900000000000000000000100010010000000000000000000000F0010000009004300120160818000101 00000000000000000000000000000000000000000000000000000000000000000000000000000000000000000000000000000000000000000N 00000000000NCONT   00    00000000000          00000000000000000000000000000000000000000000 000000000000000A000000000000000000000000000000000000000000000 000000000000000000000000000000000000000     00000000                                                                                                                        000000000000000000
F0010000009004300002000089010272700041450500000000000000000201608180002001ALFONSOEME S.A.                                   C000000010621000000000000000000000100010010000000000000000000000F0010000009004300220160818000101 00000000000000000000000000000000000000000000000000000000000000000000000000000000000000000000000000000000000000000N 00000000000NCONT   00    00000000000          00000000000000000000000000000000000000000000 000000000000000A000000000000000000000000000000000000000000000 000000000000000000000000000000000000000     00000000                                                                                                                        000000000000000000
F0010000009004300003000089010272700041750100000000000000000201608180002001ALFONSOEME S.A.                                   D000000001062100000000000000000000100010010000000000000000000000F0010000009004300320160818000101 00000000000000000000000000000000000000000000000000000000000000000000000000000000000000000000000000000000000000000N 00000000000NCONT   00    00000000000          00000000000000000000000000000000000000000000 000000000000000A000000000000000000000000000000000000000000000 000000000000000000000000000000000000000     00000000                                                                                                                        000000000000000000
F0010000009004300004000089010272700042505000000000000000000201608180002001ALFONSOEME S.A.                                   C000000001280000000000000000000000100010010000000000000000000000F0010000009004300420160818000101 00000000000000000000000000000000000000000000000000000000000000000000000000000000000000000000000000000000000000000N 00000000000NCONT   00    00000000000          00000000000000000000000000000000000000000000 000000000000000A000000000000000000000000000000000000000000000 000000000000000000000000000000000000000     00000000                                                                                                                        000000000000000000
F0010000009004300005000089010272700023658300000000000000000201608180002001ALFONSOEME S.A.                                   C000000000085000000000000000000000100010010000000000000000000000F0010000009004300520160818000101 00000000000000000000000000000000000000000000000000000000000000000000000000000000000000000000000000000000000000000N 00000000000NCONT   00    00000000000          00000000000000000000000000000000000000000000 000000000000000A000000000000000000000000000000000000000000000 000000000000000000000000000000000000000     00000000                                                                                                                        000000000000000000
F0010000009004300006000089010272700013552100000000000000000201608180002001ALFONSOEME S.A.                                   D000000000085000000000000000000000100010010000000000000000000000F0010000009004300620160818000101 00000000000000000000000000000000000000000000000000000000000000000000000000000000000000000000000000000000000000000N 00000000000NCONT   00    00000000000          00000000000000000000000000000000000000000000 000000000000000A000000000000000000000000000000000000000000000 000000000000000000000000000000000000000     00000000                                                                                                                        000000000000000000
F0010000009004400001000089010952800013050500000000000000000201608180002001IND. LITOGRAF. BOSTON S.A.S.                      D000000041472500000000000000000000100010010000000000000000000000F0010000009004400120160818000101 00000000000000000000000000000000000000000000000000000000000000000000000000000000000000000000000000000000000000000N 00000000000NCONT   00    00000000000          00000000000000000000000000000000000000000000 000000000000000A000000000000000000000000000000000000000000000 000000000000000000000000000000000000000     00000000                                                                                                                        000000000000000000
F0010000009004400002000089010952800041450500000000000000000201608180002001IND. LITOGRAF. BOSTON S.A.S.                      C000000037722500000000000000000000100010010000000000000000000000F0010000009004400220160818000101 00000000000000000000000000000000000000000000000000000000000000000000000000000000000000000000000000000000000000000N 00000000000NCONT   00    00000000000          00000000000000000000000000000000000000000000 000000000000000A000000000000000000000000000000000000000000000 000000000000000000000000000000000000000     00000000                                                                                                                        000000000000000000
F0010000009004400003000089010952800042505000000000000000000201608180002001IND. LITOGRAF. BOSTON S.A.S.                      C000000003750000000000000000000000100010010000000000000000000000F0010000009004400320160818000101 00000000000000000000000000000000000000000000000000000000000000000000000000000000000000000000000000000000000000000N 00000000000NCONT   00    00000000000          00000000000000000000000000000000000000000000 000000000000000A000000000000000000000000000000000000000000000 000000000000000000000000000000000000000     00000000                                                                                                                        000000000000000000
F0010000009004400004000089010952800023658300000000000000000201608180002001IND. LITOGRAF. BOSTON S.A.S.                      C000000000301800000000000000000000100010010000000000000000000000F0010000009004400420160818000101 00000000000000000000000000000000000000000000000000000000000000000000000000000000000000000000000000000000000000000N 00000000000NCONT   00    00000000000          00000000000000000000000000000000000000000000 000000000000000A000000000000000000000000000000000000000000000 000000000000000000000000000000000000000     00000000                                                                                                                        000000000000000000
F0010000009004400005000089010952800013552100000000000000000201608180002001IND. LITOGRAF. BOSTON S.A.S.                      D000000000301800000000000000000000100010010000000000000000000000F0010000009004400520160818000101 00000000000000000000000000000000000000000000000000000000000000000000000000000000000000000000000000000000000000000N 00000000000NCONT   00    00000000000          00000000000000000000000000000000000000000000 000000000000000A000000000000000000000000000000000000000000000 000000000000000000000000000000000000000     00000000                                                                                                                        000000000000000000
F0010000009004500001000007213977500011050500000000000000000201608180002001ANTONIO RUDAS GOMEZ                               D000000010000000000000000000000000100010010000000000000000000000F0010000009004500120160818000101 00000000000000000000000000000000000000000000000000000000000000000000000000000000000000000000000000000000000000000N 00000000000NCONT   00    00000000000          00000000000000000000000000000000000000000000 000000000000000A000000000000000000000000000000000000000000000 000000000000000000000000000000000000000     00000000                                                                                                                        000000000000000000
F0010000009004500002000007213977500041450500000000000000000201608180002001ANTONIO RUDAS GOMEZ                               C000000009500000000000000000000000100010010000000000000000000000F0010000009004500220160818000101 00000000000000000000000000000000000000000000000000000000000000000000000000000000000000000000000000000000000000000N 00000000000NCONT   00    00000000000          00000000000000000000000000000000000000000000 000000000000000A000000000000000000000000000000000000000000000 000000000000000000000000000000000000000     00000000                                                                                                                        000000000000000000
F0010000009004500003000007213977500042505000000000000000000201608180002001ANTONIO RUDAS GOMEZ                               C000000000500000000000000000000000100010010000000000000000000000F0010000009004500320160818000101 00000000000000000000000000000000000000000000000000000000000000000000000000000000000000000000000000000000000000000N 00000000000NCONT   00    00000000000          00000000000000000000000000000000000000000000 000000000000000A000000000000000000000000000000000000000000000 000000000000000000000000000000000000000     00000000                                                                                                                        000000000000000000
F0010000009004500004000007213977500023658300000000000000000201608180002001ANTONIO RUDAS GOMEZ                               C000000000076000000000000000000000100010010000000000000000000000F0010000009004500420160818000101 00000000000000000000000000000000000000000000000000000000000000000000000000000000000000000000000000000000000000000N 00000000000NCONT   00    00000000000          00000000000000000000000000000000000000000000 000000000000000A000000000000000000000000000000000000000000000 000000000000000000000000000000000000000     00000000                                                                                                                        000000000000000000
F0010000009004500005000007213977500013552100000000000000000201608180002001ANTONIO RUDAS GOMEZ                               D000000000076000000000000000000000100010010000000000000000000000F0010000009004500520160818000101 00000000000000000000000000000000000000000000000000000000000000000000000000000000000000000000000000000000000000000N 00000000000NCONT   00    00000000000          00000000000000000000000000000000000000000000 000000000000000A000000000000000000000000000000000000000000000 000000000000000000000000000000000000000     00000000                                                                                                                        000000000000000000
F0010000009004600001000090001736600011050500000000000000000201608180002001AF SUMINISTROS E.U.                               D000000005000000000000000000000000100010010000000000000000000000F0010000009004600120160818000101 00000000000000000000000000000000000000000000000000000000000000000000000000000000000000000000000000000000000000000N 00000000000NCONT   00    00000000000          00000000000000000000000000000000000000000000 000000000000000A000000000000000000000000000000000000000000000 000000000000000000000000000000000000000     00000000                                                                                                                        000000000000000000
F0010000009004600002000090001736600041450500000000000000000201608180002001AF SUMINISTROS E.U.                               C000000004900000000000000000000000100010010000000000000000000000F0010000009004600220160818000101 00000000000000000000000000000000000000000000000000000000000000000000000000000000000000000000000000000000000000000N 00000000000NCONT   00    00000000000          00000000000000000000000000000000000000000000 000000000000000A000000000000000000000000000000000000000000000 000000000000000000000000000000000000000     00000000                                                                                                                        000000000000000000
F0010000009004600003000090001736600042505000000000000000000201608180002001AF SUMINISTROS E.U.                               C000000000100000000000000000000000100010010000000000000000000000F0010000009004600320160818000101 00000000000000000000000000000000000000000000000000000000000000000000000000000000000000000000000000000000000000000N 00000000000NCONT   00    00000000000          00000000000000000000000000000000000000000000 000000000000000A000000000000000000000000000000000000000000000 000000000000000000000000000000000000000     00000000                                                                                                                        000000000000000000
F0010000009004600004000090001736600023658300000000000000000201608180002001AF SUMINISTROS E.U.                               C000000000039200000000000000000000100010010000000000000000000000F0010000009004600420160818000101 00000000000000000000000000000000000000000000000000000000000000000000000000000000000000000000000000000000000000000N 00000000000NCONT   00    00000000000          00000000000000000000000000000000000000000000 000000000000000A000000000000000000000000000000000000000000000 000000000000000000000000000000000000000     00000000                                                                                                                        000000000000000000
F0010000009004600005000090001736600013552100000000000000000201608180002001AF SUMINISTROS E.U.                               D000000000039200000000000000000000100010010000000000000000000000F0010000009004600520160818000101 00000000000000000000000000000000000000000000000000000000000000000000000000000000000000000000000000000000000000000N 00000000000NCONT   00    00000000000          00000000000000000000000000000000000000000000 000000000000000A000000000000000000000000000000000000000000000 000000000000000000000000000000000000000     00000000                                                                                                                        000000000000000000
F0010000009004700001000090013859100011050500000000000000000201608180002001ALUMARKET BARRANQUILLA S.A.S.                     D000000006000000000000000000000000100010010000000000000000000000F0010000009004700120160818000101 00000000000000000000000000000000000000000000000000000000000000000000000000000000000000000000000000000000000000000N 00000000000NCONT   00    00000000000          00000000000000000000000000000000000000000000 000000000000000A000000000000000000000000000000000000000000000 000000000000000000000000000000000000000     00000000                                                                                                                        000000000000000000
F0010000009004700002000090013859100041450500000000000000000201608180002001ALUMARKET BARRANQUILLA S.A.S.                     C000000004900000000000000000000000100010010000000000000000000000F0010000009004700220160818000101 00000000000000000000000000000000000000000000000000000000000000000000000000000000000000000000000000000000000000000N 00000000000NCONT   00    00000000000          00000000000000000000000000000000000000000000 000000000000000A000000000000000000000000000000000000000000000 000000000000000000000000000000000000000     00000000                                                                                                                        000000000000000000
F0010000009004700003000090013859100042505000000000000000000201608180002001ALUMARKET BARRANQUILLA S.A.S.                     C000000001100000000000000000000000100010010000000000000000000000F0010000009004700320160818000101 00000000000000000000000000000000000000000000000000000000000000000000000000000000000000000000000000000000000000000N 00000000000NCONT   00    00000000000          00000000000000000000000000000000000000000000 000000000000000A000000000000000000000000000000000000000000000 000000000000000000000000000000000000000     00000000                                                                                                                        000000000000000000
F0010000009004700004000090013859100023658300000000000000000201608180002001ALUMARKET BARRANQUILLA S.A.S.                     C000000000039200000000000000000000100010010000000000000000000000F0010000009004700420160818000101 00000000000000000000000000000000000000000000000000000000000000000000000000000000000000000000000000000000000000000N 00000000000NCONT   00    00000000000          00000000000000000000000000000000000000000000 000000000000000A000000000000000000000000000000000000000000000 000000000000000000000000000000000000000     00000000                                                                                                                        000000000000000000
F0010000009004700005000090013859100013552100000000000000000201608180002001ALUMARKET BARRANQUILLA S.A.S.                     D000000000039200000000000000000000100010010000000000000000000000F0010000009004700520160818000101 00000000000000000000000000000000000000000000000000000000000000000000000000000000000000000000000000000000000000000N 00000000000NCONT   00    00000000000          00000000000000000000000000000000000000000000 000000000000000A000000000000000000000000000000000000000000000 000000000000000000000000000000000000000     00000000                                                                                                                        000000000000000000
F0010000009004800001000007225801400011050500000000000000000201608180002001PAUL HERNANDEZ ALVAREZ                            D000000010000000000000000000000000100010010000000000000000000000F0010000009004800120160818000101 00000000000000000000000000000000000000000000000000000000000000000000000000000000000000000000000000000000000000000N 00000000000NCONT   00    00000000000          00000000000000000000000000000000000000000000 000000000000000A000000000000000000000000000000000000000000000 000000000000000000000000000000000000000     00000000                                                                                                                        000000000000000000
F0010000009004800002000007225801400041450500000000000000000201608180002001PAUL HERNANDEZ ALVAREZ                            C000000009900000000000000000000000100010010000000000000000000000F0010000009004800220160818000101 00000000000000000000000000000000000000000000000000000000000000000000000000000000000000000000000000000000000000000N 00000000000NCONT   00    00000000000          00000000000000000000000000000000000000000000 000000000000000A000000000000000000000000000000000000000000000 000000000000000000000000000000000000000     00000000                                                                                                                        000000000000000000
F0010000009004800003000007225801400042505000000000000000000201608180002001PAUL HERNANDEZ ALVAREZ                            C000000000100000000000000000000000100010010000000000000000000000F0010000009004800320160818000101 00000000000000000000000000000000000000000000000000000000000000000000000000000000000000000000000000000000000000000N 00000000000NCONT   00    00000000000          00000000000000000000000000000000000000000000 000000000000000A000000000000000000000000000000000000000000000 000000000000000000000000000000000000000     00000000                                                                                                                        000000000000000000
F0010000009004800004000007225801400023658300000000000000000201608180002001PAUL HERNANDEZ ALVAREZ                            C000000000079200000000000000000000100010010000000000000000000000F0010000009004800420160818000101 00000000000000000000000000000000000000000000000000000000000000000000000000000000000000000000000000000000000000000N 00000000000NCONT   00    00000000000          00000000000000000000000000000000000000000000 000000000000000A000000000000000000000000000000000000000000000 000000000000000000000000000000000000000     00000000                                                                                                                        000000000000000000
F0010000009004800005000007225801400013552100000000000000000201608180002001PAUL HERNANDEZ ALVAREZ                            D000000000079200000000000000000000100010010000000000000000000000F0010000009004800520160818000101 00000000000000000000000000000000000000000000000000000000000000000000000000000000000000000000000000000000000000000N 00000000000NCONT   00    00000000000          00000000000000000000000000000000000000000000 000000000000000A000000000000000000000000000000000000000000000 000000000000000000000000000000000000000     00000000                                                                                                                        000000000000000000
F0010000009004900001000000869402400011050500000000000000000201608180002001ISRAEL MANGA                                      D000000006500000000000000000000000100010010000000000000000000000F0010000009004900120160818000101 00000000000000000000000000000000000000000000000000000000000000000000000000000000000000000000000000000000000000000N 00000000000NCONT   00    00000000000          00000000000000000000000000000000000000000000 000000000000000A000000000000000000000000000000000000000000000 000000000000000000000000000000000000000     00000000                                                                                                                        000000000000000000
F0010000009004900002000000869402400041450500000000000000000201608180002001ISRAEL MANGA                                      C000000005400000000000000000000000100010010000000000000000000000F0010000009004900220160818000101 00000000000000000000000000000000000000000000000000000000000000000000000000000000000000000000000000000000000000000N 00000000000NCONT   00    00000000000          00000000000000000000000000000000000000000000 000000000000000A000000000000000000000000000000000000000000000 000000000000000000000000000000000000000     00000000                                                                                                                        000000000000000000
F0010000009004900003000000869402400042505000000000000000000201608180002001ISRAEL MANGA                                      C000000001100000000000000000000000100010010000000000000000000000F0010000009004900320160818000101 00000000000000000000000000000000000000000000000000000000000000000000000000000000000000000000000000000000000000000N 00000000000NCONT   00    00000000000          00000000000000000000000000000000000000000000 000000000000000A000000000000000000000000000000000000000000000 000000000000000000000000000000000000000     00000000                                                                                                                        000000000000000000
F0010000009004900004000000869402400023658300000000000000000201608180002001ISRAEL MANGA                                      C000000000043200000000000000000000100010010000000000000000000000F0010000009004900420160818000101 00000000000000000000000000000000000000000000000000000000000000000000000000000000000000000000000000000000000000000N 00000000000NCONT   00    00000000000          00000000000000000000000000000000000000000000 000000000000000A000000000000000000000000000000000000000000000 000000000000000000000000000000000000000     00000000                                                                                                                        000000000000000000
F0010000009004900005000000869402400013552100000000000000000201608180002001ISRAEL MANGA                                      D000000000043200000000000000000000100010010000000000000000000000F0010000009004900520160818000101 00000000000000000000000000000000000000000000000000000000000000000000000000000000000000000000000000000000000000000N 00000000000NCONT   00    00000000000          00000000000000000000000000000000000000000000 000000000000000A000000000000000000000000000000000000000000000 000000000000000000000000000000000000000     00000000                                                                                                                        000000000000000000
F0010000009005000001000000869402400011050500000000000000000201608180002001ISRAEL MANGA                                      D000000012300000000000000000000000100010010000000000000000000000F0010000009005000120160818000101 00000000000000000000000000000000000000000000000000000000000000000000000000000000000000000000000000000000000000000N 00000000000NCONT   00    00000000000          00000000000000000000000000000000000000000000 000000000000000A000000000000000000000000000000000000000000000 000000000000000000000000000000000000000     00000000                                                                                                                        000000000000000000
F0010000009005000002000000869402400041450500000000000000000201608180002001ISRAEL MANGA                                      C000000011000000000000000000000000100010010000000000000000000000F0010000009005000220160818000101 00000000000000000000000000000000000000000000000000000000000000000000000000000000000000000000000000000000000000000N 00000000000NCONT   00    00000000000          00000000000000000000000000000000000000000000 000000000000000A000000000000000000000000000000000000000000000 000000000000000000000000000000000000000     00000000                                                                                                                        000000000000000000
F0010000009005000003000000869402400042505000000000000000000201608180002001ISRAEL MANGA                                      C000000001300000000000000000000000100010010000000000000000000000F0010000009005000320160818000101 00000000000000000000000000000000000000000000000000000000000000000000000000000000000000000000000000000000000000000N 00000000000NCONT   00    00000000000          00000000000000000000000000000000000000000000 000000000000000A000000000000000000000000000000000000000000000 000000000000000000000000000000000000000     00000000                                                                                                                        000000000000000000
F0010000009005000004000000869402400023658300000000000000000201608180002001ISRAEL MANGA                                      C000000000088000000000000000000000100010010000000000000000000000F0010000009005000420160818000101 00000000000000000000000000000000000000000000000000000000000000000000000000000000000000000000000000000000000000000N 00000000000NCONT   00    00000000000          00000000000000000000000000000000000000000000 000000000000000A000000000000000000000000000000000000000000000 000000000000000000000000000000000000000     00000000                                                                                                                        000000000000000000
F0010000009005000005000000869402400013552100000000000000000201608180002001ISRAEL MANGA                                      D000000000088000000000000000000000100010010000000000000000000000F0010000009005000520160818000101 00000000000000000000000000000000000000000000000000000000000000000000000000000000000000000000000000000000000000000N 00000000000NCONT   00    00000000000          00000000000000000000000000000000000000000000 000000000000000A000000000000000000000000000000000000000000000 000000000000000000000000000000000000000     00000000                                                                                                                        000000000000000000
F0010000009005100001000080202363700011050500000000000000000201608180002001ELECTRO DE LA HOZ SAS                             D000000001200000000000000000000000100010010000000000000000000000F0010000009005100120160818000101 00000000000000000000000000000000000000000000000000000000000000000000000000000000000000000000000000000000000000000N 00000000000NCONT   00    00000000000          00000000000000000000000000000000000000000000 000000000000000A000000000000000000000000000000000000000000000 000000000000000000000000000000000000000     00000000                                                                                                                        000000000000000000
F0010000009005100002000080202363700041450500000000000000000201608180002001ELECTRO DE LA HOZ SAS                             C000000001000000000000000000000000100010010000000000000000000000F0010000009005100220160818000101 00000000000000000000000000000000000000000000000000000000000000000000000000000000000000000000000000000000000000000N 00000000000NCONT   00    00000000000          00000000000000000000000000000000000000000000 000000000000000A000000000000000000000000000000000000000000000 000000000000000000000000000000000000000     00000000                                                                                                                        000000000000000000
F0010000009005100003000080202363700042505000000000000000000201608180002001ELECTRO DE LA HOZ SAS                             C000000000200000000000000000000000100010010000000000000000000000F0010000009005100320160818000101 00000000000000000000000000000000000000000000000000000000000000000000000000000000000000000000000000000000000000000N 00000000000NCONT   00    00000000000          00000000000000000000000000000000000000000000 000000000000000A000000000000000000000000000000000000000000000 000000000000000000000000000000000000000     00000000                                                                                                                        000000000000000000
F0010000009005100004000080202363700023658300000000000000000201608180002001ELECTRO DE LA HOZ SAS                             C000000000008000000000000000000000100010010000000000000000000000F0010000009005100420160818000101 00000000000000000000000000000000000000000000000000000000000000000000000000000000000000000000000000000000000000000N 00000000000NCONT   00    00000000000          00000000000000000000000000000000000000000000 000000000000000A000000000000000000000000000000000000000000000 000000000000000000000000000000000000000     00000000                                                                                                                        000000000000000000
F0010000009005100005000080202363700013552100000000000000000201608180002001ELECTRO DE LA HOZ SAS                             D000000000008000000000000000000000100010010000000000000000000000F0010000009005100520160818000101 00000000000000000000000000000000000000000000000000000000000000000000000000000000000000000000000000000000000000000N 00000000000NCONT   00    00000000000          00000000000000000000000000000000000000000000 000000000000000A000000000000000000000000000000000000000000000 000000000000000000000000000000000000000     00000000                                                                                                                        000000000000000000
