F0010000007679500001000089011033000011050500000000000000000201509280002001INDUSTRIAS CRUZ & CAÑON LTDA                     D000000007000000000000000000000000100010010000000000000000000000F0010000007679500120150928000101 00000000000000000000000000000000000000000000000000000000000000000000000000000000000000000000000000000000000000000N 00000000000NCONT   00    00000000000          00000000000000000000000000000000000000000000 000000000000000A000000000000000000000000000000000000000000000 000000000000000000000000000000000000000     00000000                                                                                                                        000000000000000000
F0010000007679500002000089011033000041450500000000000000000201509280002001INDUSTRIAS CRUZ & CAÑON LTDA                     C000000006000000000000000000000000100010010000000000000000000000F0010000007679500220150928000101 00000000000000000000000000000000000000000000000000000000000000000000000000000000000000000000000000000000000000000N 00000000000NCONT   00    00000000000          00000000000000000000000000000000000000000000 000000000000000A000000000000000000000000000000000000000000000 000000000000000000000000000000000000000     00000000                                                                                                                        000000000000000000
F0010000007679500003000089011033000042505000000000000000000201509280002001INDUSTRIAS CRUZ & CAÑON LTDA                     C000000001000000000000000000000000100010010000000000000000000000F0010000007679500320150928000101 00000000000000000000000000000000000000000000000000000000000000000000000000000000000000000000000000000000000000000N 00000000000NCONT   00    00000000000          00000000000000000000000000000000000000000000 000000000000000A000000000000000000000000000000000000000000000 000000000000000000000000000000000000000     00000000                                                                                                                        000000000000000000
F0010000007679500004000089011033000023658300000000000000000201509280002001INDUSTRIAS CRUZ & CAÑON LTDA                     C000000000048000000000000000000000100010010000000000000000000000F0010000007679500420150928000101 00000000000000000000000000000000000000000000000000000000000000000000000000000000000000000000000000000000000000000N 00000000000NCONT   00    00000000000          00000000000000000000000000000000000000000000 000000000000000A000000000000000000000000000000000000000000000 000000000000000000000000000000000000000     00000000                                                                                                                        000000000000000000
F0010000007679500005000089011033000013552100000000000000000201509280002001INDUSTRIAS CRUZ & CAÑON LTDA                     D000000000048000000000000000000000100010010000000000000000000000F0010000007679500520150928000101 00000000000000000000000000000000000000000000000000000000000000000000000000000000000000000000000000000000000000000N 00000000000NCONT   00    00000000000          00000000000000000000000000000000000000000000 000000000000000A000000000000000000000000000000000000000000000 000000000000000000000000000000000000000     00000000                                                                                                                        000000000000000000
F0010000007679600001000090013324200013050500000000000000000201509280002001PLASTICOHEN E.U                                   D000000020810000000000000000000000100010010000000000000000000000F0010000007679600120150928000101 00000000000000000000000000000000000000000000000000000000000000000000000000000000000000000000000000000000000000000N 00000000000NCONT   00    00000000000          00000000000000000000000000000000000000000000 000000000000000A000000000000000000000000000000000000000000000 000000000000000000000000000000000000000     00000000                                                                                                                        000000000000000000
F0010000007679600002000090013324200041450500000000000000000201509280002001PLASTICOHEN E.U                                   C000000018810000000000000000000000100010010000000000000000000000F0010000007679600220150928000101 00000000000000000000000000000000000000000000000000000000000000000000000000000000000000000000000000000000000000000N 00000000000NCONT   00    00000000000          00000000000000000000000000000000000000000000 000000000000000A000000000000000000000000000000000000000000000 000000000000000000000000000000000000000     00000000                                                                                                                        000000000000000000
F0010000007679600003000090013324200042505000000000000000000201509280002001PLASTICOHEN E.U                                   C000000002000000000000000000000000100010010000000000000000000000F0010000007679600320150928000101 00000000000000000000000000000000000000000000000000000000000000000000000000000000000000000000000000000000000000000N 00000000000NCONT   00    00000000000          00000000000000000000000000000000000000000000 000000000000000A000000000000000000000000000000000000000000000 000000000000000000000000000000000000000     00000000                                                                                                                        000000000000000000
F0010000007679600004000090013324200023658300000000000000000201509280002001PLASTICOHEN E.U                                   C000000000150500000000000000000000100010010000000000000000000000F0010000007679600420150928000101 00000000000000000000000000000000000000000000000000000000000000000000000000000000000000000000000000000000000000000N 00000000000NCONT   00    00000000000          00000000000000000000000000000000000000000000 000000000000000A000000000000000000000000000000000000000000000 000000000000000000000000000000000000000     00000000                                                                                                                        000000000000000000
F0010000007679600005000090013324200013552100000000000000000201509280002001PLASTICOHEN E.U                                   D000000000150500000000000000000000100010010000000000000000000000F0010000007679600520150928000101 00000000000000000000000000000000000000000000000000000000000000000000000000000000000000000000000000000000000000000N 00000000000NCONT   00    00000000000          00000000000000000000000000000000000000000000 000000000000000A000000000000000000000000000000000000000000000 000000000000000000000000000000000000000     00000000                                                                                                                        000000000000000000
F0010000007679700001000003207718300011050500000000000000000201509280002001MARIA GILMA  RAMIREZ GARCIA                       D000000011000000000000000000000000100010010000000000000000000000F0010000007679700120150928000101 00000000000000000000000000000000000000000000000000000000000000000000000000000000000000000000000000000000000000000N 00000000000NCONT   00    00000000000          00000000000000000000000000000000000000000000 000000000000000A000000000000000000000000000000000000000000000 000000000000000000000000000000000000000     00000000                                                                                                                        000000000000000000
F0010000007679700002000003207718300041450500000000000000000201509280002001MARIA GILMA  RAMIREZ GARCIA                       C000000010000000000000000000000000100010010000000000000000000000F0010000007679700220150928000101 00000000000000000000000000000000000000000000000000000000000000000000000000000000000000000000000000000000000000000N 00000000000NCONT   00    00000000000          00000000000000000000000000000000000000000000 000000000000000A000000000000000000000000000000000000000000000 000000000000000000000000000000000000000     00000000                                                                                                                        000000000000000000
F0010000007679700003000003207718300042505000000000000000000201509280002001MARIA GILMA  RAMIREZ GARCIA                       C000000001000000000000000000000000100010010000000000000000000000F0010000007679700320150928000101 00000000000000000000000000000000000000000000000000000000000000000000000000000000000000000000000000000000000000000N 00000000000NCONT   00    00000000000          00000000000000000000000000000000000000000000 000000000000000A000000000000000000000000000000000000000000000 000000000000000000000000000000000000000     00000000                                                                                                                        000000000000000000
F0010000007679700004000003207718300023658300000000000000000201509280002001MARIA GILMA  RAMIREZ GARCIA                       C000000000080000000000000000000000100010010000000000000000000000F0010000007679700420150928000101 00000000000000000000000000000000000000000000000000000000000000000000000000000000000000000000000000000000000000000N 00000000000NCONT   00    00000000000          00000000000000000000000000000000000000000000 000000000000000A000000000000000000000000000000000000000000000 000000000000000000000000000000000000000     00000000                                                                                                                        000000000000000000
F0010000007679700005000003207718300013552100000000000000000201509280002001MARIA GILMA  RAMIREZ GARCIA                       D000000000080000000000000000000000100010010000000000000000000000F0010000007679700520150928000101 00000000000000000000000000000000000000000000000000000000000000000000000000000000000000000000000000000000000000000N 00000000000NCONT   00    00000000000          00000000000000000000000000000000000000000000 000000000000000A000000000000000000000000000000000000000000000 000000000000000000000000000000000000000     00000000                                                                                                                        000000000000000000
F0010000007679800001000086053108300011050500000000000000000201509280002001EL PALACIO DEL ALUMINIO  LTDA                     D000000002500000000000000000000000100010010000000000000000000000F0010000007679800120150928000101 00000000000000000000000000000000000000000000000000000000000000000000000000000000000000000000000000000000000000000N 00000000000NCONT   00    00000000000          00000000000000000000000000000000000000000000 000000000000000A000000000000000000000000000000000000000000000 000000000000000000000000000000000000000     00000000                                                                                                                        000000000000000000
F0010000007679800002000086053108300041450500000000000000000201509280002001EL PALACIO DEL ALUMINIO  LTDA                     C000000002100000000000000000000000100010010000000000000000000000F0010000007679800220150928000101 00000000000000000000000000000000000000000000000000000000000000000000000000000000000000000000000000000000000000000N 00000000000NCONT   00    00000000000          00000000000000000000000000000000000000000000 000000000000000A000000000000000000000000000000000000000000000 000000000000000000000000000000000000000     00000000                                                                                                                        000000000000000000
F0010000007679800003000086053108300042505000000000000000000201509280002001EL PALACIO DEL ALUMINIO  LTDA                     C000000000400000000000000000000000100010010000000000000000000000F0010000007679800320150928000101 00000000000000000000000000000000000000000000000000000000000000000000000000000000000000000000000000000000000000000N 00000000000NCONT   00    00000000000          00000000000000000000000000000000000000000000 000000000000000A000000000000000000000000000000000000000000000 000000000000000000000000000000000000000     00000000                                                                                                                        000000000000000000
F0010000007679800004000086053108300023658300000000000000000201509280002001EL PALACIO DEL ALUMINIO  LTDA                     C000000000016800000000000000000000100010010000000000000000000000F0010000007679800420150928000101 00000000000000000000000000000000000000000000000000000000000000000000000000000000000000000000000000000000000000000N 00000000000NCONT   00    00000000000          00000000000000000000000000000000000000000000 000000000000000A000000000000000000000000000000000000000000000 000000000000000000000000000000000000000     00000000                                                                                                                        000000000000000000
F0010000007679800005000086053108300013552100000000000000000201509280002001EL PALACIO DEL ALUMINIO  LTDA                     D000000000016800000000000000000000100010010000000000000000000000F0010000007679800520150928000101 00000000000000000000000000000000000000000000000000000000000000000000000000000000000000000000000000000000000000000N 00000000000NCONT   00    00000000000          00000000000000000000000000000000000000000000 000000000000000A000000000000000000000000000000000000000000000 000000000000000000000000000000000000000     00000000                                                                                                                        000000000000000000
F0010000007679900001000003265780700011050500000000000000000201509280002001ZUNILDA GUERRERO                                  D000000006300000000000000000000000100010010000000000000000000000F0010000007679900120150928000101 00000000000000000000000000000000000000000000000000000000000000000000000000000000000000000000000000000000000000000N 00000000000NCONT   00    00000000000          00000000000000000000000000000000000000000000 000000000000000A000000000000000000000000000000000000000000000 000000000000000000000000000000000000000     00000000                                                                                                                        000000000000000000
F0010000007679900002000003265780700041450500000000000000000201509280002001ZUNILDA GUERRERO                                  C000000005500000000000000000000000100010010000000000000000000000F0010000007679900220150928000101 00000000000000000000000000000000000000000000000000000000000000000000000000000000000000000000000000000000000000000N 00000000000NCONT   00    00000000000          00000000000000000000000000000000000000000000 000000000000000A000000000000000000000000000000000000000000000 000000000000000000000000000000000000000     00000000                                                                                                                        000000000000000000
F0010000007679900003000003265780700042505000000000000000000201509280002001ZUNILDA GUERRERO                                  C000000000800000000000000000000000100010010000000000000000000000F0010000007679900320150928000101 00000000000000000000000000000000000000000000000000000000000000000000000000000000000000000000000000000000000000000N 00000000000NCONT   00    00000000000          00000000000000000000000000000000000000000000 000000000000000A000000000000000000000000000000000000000000000 000000000000000000000000000000000000000     00000000                                                                                                                        000000000000000000
F0010000007679900004000003265780700023658300000000000000000201509280002001ZUNILDA GUERRERO                                  C000000000044000000000000000000000100010010000000000000000000000F0010000007679900420150928000101 00000000000000000000000000000000000000000000000000000000000000000000000000000000000000000000000000000000000000000N 00000000000NCONT   00    00000000000          00000000000000000000000000000000000000000000 000000000000000A000000000000000000000000000000000000000000000 000000000000000000000000000000000000000     00000000                                                                                                                        000000000000000000
F0010000007679900005000003265780700013552100000000000000000201509280002001ZUNILDA GUERRERO                                  D000000000044000000000000000000000100010010000000000000000000000F0010000007679900520150928000101 00000000000000000000000000000000000000000000000000000000000000000000000000000000000000000000000000000000000000000N 00000000000NCONT   00    00000000000          00000000000000000000000000000000000000000000 000000000000000A000000000000000000000000000000000000000000000 000000000000000000000000000000000000000     00000000                                                                                                                        000000000000000000
F0010000007680000001000000869805000011050500000000000000000201509280002001WILMAN RAMBAL LARA                                D000000001300000000000000000000000100010010000000000000000000000F0010000007680000120150928000101 00000000000000000000000000000000000000000000000000000000000000000000000000000000000000000000000000000000000000000N 00000000000NCONT   00    00000000000          00000000000000000000000000000000000000000000 000000000000000A000000000000000000000000000000000000000000000 000000000000000000000000000000000000000     00000000                                                                                                                        000000000000000000
F0010000007680000002000000869805000041450500000000000000000201509280002001WILMAN RAMBAL LARA                                C000000001200000000000000000000000100010010000000000000000000000F0010000007680000220150928000101 00000000000000000000000000000000000000000000000000000000000000000000000000000000000000000000000000000000000000000N 00000000000NCONT   00    00000000000          00000000000000000000000000000000000000000000 000000000000000A000000000000000000000000000000000000000000000 000000000000000000000000000000000000000     00000000                                                                                                                        000000000000000000
F0010000007680000003000000869805000042505000000000000000000201509280002001WILMAN RAMBAL LARA                                C000000000100000000000000000000000100010010000000000000000000000F0010000007680000320150928000101 00000000000000000000000000000000000000000000000000000000000000000000000000000000000000000000000000000000000000000N 00000000000NCONT   00    00000000000          00000000000000000000000000000000000000000000 000000000000000A000000000000000000000000000000000000000000000 000000000000000000000000000000000000000     00000000                                                                                                                        000000000000000000
F0010000007680000004000000869805000023658300000000000000000201509280002001WILMAN RAMBAL LARA                                C000000000009600000000000000000000100010010000000000000000000000F0010000007680000420150928000101 00000000000000000000000000000000000000000000000000000000000000000000000000000000000000000000000000000000000000000N 00000000000NCONT   00    00000000000          00000000000000000000000000000000000000000000 000000000000000A000000000000000000000000000000000000000000000 000000000000000000000000000000000000000     00000000                                                                                                                        000000000000000000
F0010000007680000005000000869805000013552100000000000000000201509280002001WILMAN RAMBAL LARA                                D000000000009600000000000000000000100010010000000000000000000000F0010000007680000520150928000101 00000000000000000000000000000000000000000000000000000000000000000000000000000000000000000000000000000000000000000N 00000000000NCONT   00    00000000000          00000000000000000000000000000000000000000000 000000000000000A000000000000000000000000000000000000000000000 000000000000000000000000000000000000000     00000000                                                                                                                        000000000000000000
F0010000007680100001000000869805000011050500000000000000000201509280002001WILMAN RAMBAL LARA                                D000000002600000000000000000000000100010010000000000000000000000F0010000007680100120150928000101 00000000000000000000000000000000000000000000000000000000000000000000000000000000000000000000000000000000000000000N 00000000000NCONT   00    00000000000          00000000000000000000000000000000000000000000 000000000000000A000000000000000000000000000000000000000000000 000000000000000000000000000000000000000     00000000                                                                                                                        000000000000000000
F0010000007680100002000000869805000041450500000000000000000201509280002001WILMAN RAMBAL LARA                                C000000002400000000000000000000000100010010000000000000000000000F0010000007680100220150928000101 00000000000000000000000000000000000000000000000000000000000000000000000000000000000000000000000000000000000000000N 00000000000NCONT   00    00000000000          00000000000000000000000000000000000000000000 000000000000000A000000000000000000000000000000000000000000000 000000000000000000000000000000000000000     00000000                                                                                                                        000000000000000000
F0010000007680100003000000869805000042505000000000000000000201509280002001WILMAN RAMBAL LARA                                C000000000200000000000000000000000100010010000000000000000000000F0010000007680100320150928000101 00000000000000000000000000000000000000000000000000000000000000000000000000000000000000000000000000000000000000000N 00000000000NCONT   00    00000000000          00000000000000000000000000000000000000000000 000000000000000A000000000000000000000000000000000000000000000 000000000000000000000000000000000000000     00000000                                                                                                                        000000000000000000
F0010000007680100004000000869805000023658300000000000000000201509280002001WILMAN RAMBAL LARA                                C000000000019200000000000000000000100010010000000000000000000000F0010000007680100420150928000101 00000000000000000000000000000000000000000000000000000000000000000000000000000000000000000000000000000000000000000N 00000000000NCONT   00    00000000000          00000000000000000000000000000000000000000000 000000000000000A000000000000000000000000000000000000000000000 000000000000000000000000000000000000000     00000000                                                                                                                        000000000000000000
F0010000007680100005000000869805000013552100000000000000000201509280002001WILMAN RAMBAL LARA                                D000000000019200000000000000000000100010010000000000000000000000F0010000007680100520150928000101 00000000000000000000000000000000000000000000000000000000000000000000000000000000000000000000000000000000000000000N 00000000000NCONT   00    00000000000          00000000000000000000000000000000000000000000 000000000000000A000000000000000000000000000000000000000000000 000000000000000000000000000000000000000     00000000                                                                                                                        000000000000000000
F0010000007680200001000000869805000011050500000000000000000201509280002001WILMAN RAMBAL LARA                                D000000008880000000000000000000000100010010000000000000000000000F0010000007680200120150928000101 00000000000000000000000000000000000000000000000000000000000000000000000000000000000000000000000000000000000000000N 00000000000NCONT   00    00000000000          00000000000000000000000000000000000000000000 000000000000000A000000000000000000000000000000000000000000000 000000000000000000000000000000000000000     00000000                                                                                                                        000000000000000000
F0010000007680200002000000869805000041450500000000000000000201509280002001WILMAN RAMBAL LARA                                C000000008400000000000000000000000100010010000000000000000000000F0010000007680200220150928000101 00000000000000000000000000000000000000000000000000000000000000000000000000000000000000000000000000000000000000000N 00000000000NCONT   00    00000000000          00000000000000000000000000000000000000000000 000000000000000A000000000000000000000000000000000000000000000 000000000000000000000000000000000000000     00000000                                                                                                                        000000000000000000
F0010000007680200003000000869805000042505000000000000000000201509280002001WILMAN RAMBAL LARA                                C000000000480000000000000000000000100010010000000000000000000000F0010000007680200320150928000101 00000000000000000000000000000000000000000000000000000000000000000000000000000000000000000000000000000000000000000N 00000000000NCONT   00    00000000000          00000000000000000000000000000000000000000000 000000000000000A000000000000000000000000000000000000000000000 000000000000000000000000000000000000000     00000000                                                                                                                        000000000000000000
F0010000007680200004000000869805000023658300000000000000000201509280002001WILMAN RAMBAL LARA                                C000000000067200000000000000000000100010010000000000000000000000F0010000007680200420150928000101 00000000000000000000000000000000000000000000000000000000000000000000000000000000000000000000000000000000000000000N 00000000000NCONT   00    00000000000          00000000000000000000000000000000000000000000 000000000000000A000000000000000000000000000000000000000000000 000000000000000000000000000000000000000     00000000                                                                                                                        000000000000000000
F0010000007680200005000000869805000013552100000000000000000201509280002001WILMAN RAMBAL LARA                                D000000000067200000000000000000000100010010000000000000000000000F0010000007680200520150928000101 00000000000000000000000000000000000000000000000000000000000000000000000000000000000000000000000000000000000000000N 00000000000NCONT   00    00000000000          00000000000000000000000000000000000000000000 000000000000000A000000000000000000000000000000000000000000000 000000000000000000000000000000000000000     00000000                                                                                                                        000000000000000000
F0010000007680300001000090034602400011050500000000000000000201509280002001PRODUCTOS NACIONALES PARAFINICOS LA CUSTODIA S.A.SD000000004500000000000000000000000100010010000000000000000000000F0010000007680300120150928000101 00000000000000000000000000000000000000000000000000000000000000000000000000000000000000000000000000000000000000000N 00000000000NCONT   00    00000000000          00000000000000000000000000000000000000000000 000000000000000A000000000000000000000000000000000000000000000 000000000000000000000000000000000000000     00000000                                                                                                                        000000000000000000
F0010000007680300002000090034602400041450500000000000000000201509280002001PRODUCTOS NACIONALES PARAFINICOS LA CUSTODIA S.A.SC000000004200000000000000000000000100010010000000000000000000000F0010000007680300220150928000101 00000000000000000000000000000000000000000000000000000000000000000000000000000000000000000000000000000000000000000N 00000000000NCONT   00    00000000000          00000000000000000000000000000000000000000000 000000000000000A000000000000000000000000000000000000000000000 000000000000000000000000000000000000000     00000000                                                                                                                        000000000000000000
F0010000007680300003000090034602400042505000000000000000000201509280002001PRODUCTOS NACIONALES PARAFINICOS LA CUSTODIA S.A.SC000000000300000000000000000000000100010010000000000000000000000F0010000007680300320150928000101 00000000000000000000000000000000000000000000000000000000000000000000000000000000000000000000000000000000000000000N 00000000000NCONT   00    00000000000          00000000000000000000000000000000000000000000 000000000000000A000000000000000000000000000000000000000000000 000000000000000000000000000000000000000     00000000                                                                                                                        000000000000000000
F0010000007680300004000090034602400023658300000000000000000201509280002001PRODUCTOS NACIONALES PARAFINICOS LA CUSTODIA S.A.SC000000000033600000000000000000000100010010000000000000000000000F0010000007680300420150928000101 00000000000000000000000000000000000000000000000000000000000000000000000000000000000000000000000000000000000000000N 00000000000NCONT   00    00000000000          00000000000000000000000000000000000000000000 000000000000000A000000000000000000000000000000000000000000000 000000000000000000000000000000000000000     00000000                                                                                                                        000000000000000000
F0010000007680300005000090034602400013552100000000000000000201509280002001PRODUCTOS NACIONALES PARAFINICOS LA CUSTODIA S.A.SD000000000033600000000000000000000100010010000000000000000000000F0010000007680300520150928000101 00000000000000000000000000000000000000000000000000000000000000000000000000000000000000000000000000000000000000000N 00000000000NCONT   00    00000000000          00000000000000000000000000000000000000000000 000000000000000A000000000000000000000000000000000000000000000 000000000000000000000000000000000000000     00000000                                                                                                                        000000000000000000
F0010000007680400001000090034602400011050500000000000000000201509280002001PRODUCTOS NACIONALES PARAFINICOS LA CUSTODIA S.A.SD000000002000000000000000000000000100010010000000000000000000000F0010000007680400120150928000101 00000000000000000000000000000000000000000000000000000000000000000000000000000000000000000000000000000000000000000N 00000000000NCONT   00    00000000000          00000000000000000000000000000000000000000000 000000000000000A000000000000000000000000000000000000000000000 000000000000000000000000000000000000000     00000000                                                                                                                        000000000000000000
F0010000007680400002000090034602400041450500000000000000000201509280002001PRODUCTOS NACIONALES PARAFINICOS LA CUSTODIA S.A.SC000000001800000000000000000000000100010010000000000000000000000F0010000007680400220150928000101 00000000000000000000000000000000000000000000000000000000000000000000000000000000000000000000000000000000000000000N 00000000000NCONT   00    00000000000          00000000000000000000000000000000000000000000 000000000000000A000000000000000000000000000000000000000000000 000000000000000000000000000000000000000     00000000                                                                                                                        000000000000000000
F0010000007680400003000090034602400042505000000000000000000201509280002001PRODUCTOS NACIONALES PARAFINICOS LA CUSTODIA S.A.SC000000000200000000000000000000000100010010000000000000000000000F0010000007680400320150928000101 00000000000000000000000000000000000000000000000000000000000000000000000000000000000000000000000000000000000000000N 00000000000NCONT   00    00000000000          00000000000000000000000000000000000000000000 000000000000000A000000000000000000000000000000000000000000000 000000000000000000000000000000000000000     00000000                                                                                                                        000000000000000000
F0010000007680400004000090034602400023658300000000000000000201509280002001PRODUCTOS NACIONALES PARAFINICOS LA CUSTODIA S.A.SC000000000014400000000000000000000100010010000000000000000000000F0010000007680400420150928000101 00000000000000000000000000000000000000000000000000000000000000000000000000000000000000000000000000000000000000000N 00000000000NCONT   00    00000000000          00000000000000000000000000000000000000000000 000000000000000A000000000000000000000000000000000000000000000 000000000000000000000000000000000000000     00000000                                                                                                                        000000000000000000
F0010000007680400005000090034602400013552100000000000000000201509280002001PRODUCTOS NACIONALES PARAFINICOS LA CUSTODIA S.A.SD000000000014400000000000000000000100010010000000000000000000000F0010000007680400520150928000101 00000000000000000000000000000000000000000000000000000000000000000000000000000000000000000000000000000000000000000N 00000000000NCONT   00    00000000000          00000000000000000000000000000000000000000000 000000000000000A000000000000000000000000000000000000000000000 000000000000000000000000000000000000000     00000000                                                                                                                        000000000000000000
F0010000007680500001000090034602400011050500000000000000000201509280002001PRODUCTOS NACIONALES PARAFINICOS LA CUSTODIA S.A.SD000000003000000000000000000000000100010010000000000000000000000F0010000007680500120150928000101 00000000000000000000000000000000000000000000000000000000000000000000000000000000000000000000000000000000000000000N 00000000000NCONT   00    00000000000          00000000000000000000000000000000000000000000 000000000000000A000000000000000000000000000000000000000000000 000000000000000000000000000000000000000     00000000                                                                                                                        000000000000000000
F0010000007680500002000090034602400041450500000000000000000201509280002001PRODUCTOS NACIONALES PARAFINICOS LA CUSTODIA S.A.SC000000002700000000000000000000000100010010000000000000000000000F0010000007680500220150928000101 00000000000000000000000000000000000000000000000000000000000000000000000000000000000000000000000000000000000000000N 00000000000NCONT   00    00000000000          00000000000000000000000000000000000000000000 000000000000000A000000000000000000000000000000000000000000000 000000000000000000000000000000000000000     00000000                                                                                                                        000000000000000000
F0010000007680500003000090034602400042505000000000000000000201509280002001PRODUCTOS NACIONALES PARAFINICOS LA CUSTODIA S.A.SC000000000300000000000000000000000100010010000000000000000000000F0010000007680500320150928000101 00000000000000000000000000000000000000000000000000000000000000000000000000000000000000000000000000000000000000000N 00000000000NCONT   00    00000000000          00000000000000000000000000000000000000000000 000000000000000A000000000000000000000000000000000000000000000 000000000000000000000000000000000000000     00000000                                                                                                                        000000000000000000
F0010000007680500004000090034602400023658300000000000000000201509280002001PRODUCTOS NACIONALES PARAFINICOS LA CUSTODIA S.A.SC000000000021600000000000000000000100010010000000000000000000000F0010000007680500420150928000101 00000000000000000000000000000000000000000000000000000000000000000000000000000000000000000000000000000000000000000N 00000000000NCONT   00    00000000000          00000000000000000000000000000000000000000000 000000000000000A000000000000000000000000000000000000000000000 000000000000000000000000000000000000000     00000000                                                                                                                        000000000000000000
F0010000007680500005000090034602400013552100000000000000000201509280002001PRODUCTOS NACIONALES PARAFINICOS LA CUSTODIA S.A.SD000000000021600000000000000000000100010010000000000000000000000F0010000007680500520150928000101 00000000000000000000000000000000000000000000000000000000000000000000000000000000000000000000000000000000000000000N 00000000000NCONT   00    00000000000          00000000000000000000000000000000000000000000 000000000000000A000000000000000000000000000000000000000000000 000000000000000000000000000000000000000     00000000                                                                                                                        000000000000000000
F0010000007680600001000003319910700011050500000000000000000201509280002001LUZ DARY JIMENEZ MARTINEZ                         D000000001100000000000000000000000100010010000000000000000000000F0010000007680600120150928000101 00000000000000000000000000000000000000000000000000000000000000000000000000000000000000000000000000000000000000000N 00000000000NCONT   00    00000000000          00000000000000000000000000000000000000000000 000000000000000A000000000000000000000000000000000000000000000 000000000000000000000000000000000000000     00000000                                                                                                                        000000000000000000
F0010000007680600002000003319910700041450500000000000000000201509280002001LUZ DARY JIMENEZ MARTINEZ                         C000000001000000000000000000000000100010010000000000000000000000F0010000007680600220150928000101 00000000000000000000000000000000000000000000000000000000000000000000000000000000000000000000000000000000000000000N 00000000000NCONT   00    00000000000          00000000000000000000000000000000000000000000 000000000000000A000000000000000000000000000000000000000000000 000000000000000000000000000000000000000     00000000                                                                                                                        000000000000000000
F0010000007680600003000003319910700042505000000000000000000201509280002001LUZ DARY JIMENEZ MARTINEZ                         C000000000100000000000000000000000100010010000000000000000000000F0010000007680600320150928000101 00000000000000000000000000000000000000000000000000000000000000000000000000000000000000000000000000000000000000000N 00000000000NCONT   00    00000000000          00000000000000000000000000000000000000000000 000000000000000A000000000000000000000000000000000000000000000 000000000000000000000000000000000000000     00000000                                                                                                                        000000000000000000
F0010000007680600004000003319910700023658300000000000000000201509280002001LUZ DARY JIMENEZ MARTINEZ                         C000000000008000000000000000000000100010010000000000000000000000F0010000007680600420150928000101 00000000000000000000000000000000000000000000000000000000000000000000000000000000000000000000000000000000000000000N 00000000000NCONT   00    00000000000          00000000000000000000000000000000000000000000 000000000000000A000000000000000000000000000000000000000000000 000000000000000000000000000000000000000     00000000                                                                                                                        000000000000000000
F0010000007680600005000003319910700013552100000000000000000201509280002001LUZ DARY JIMENEZ MARTINEZ                         D000000000008000000000000000000000100010010000000000000000000000F0010000007680600520150928000101 00000000000000000000000000000000000000000000000000000000000000000000000000000000000000000000000000000000000000000N 00000000000NCONT   00    00000000000          00000000000000000000000000000000000000000000 000000000000000A000000000000000000000000000000000000000000000 000000000000000000000000000000000000000     00000000                                                                                                                        000000000000000000
F0010000007680700001000080014190300011050500000000000000000201509280002001QUIMINSA LTDA                                     D000000003000000000000000000000000100010010000000000000000000000F0010000007680700120150928000101 00000000000000000000000000000000000000000000000000000000000000000000000000000000000000000000000000000000000000000N 00000000000NCONT   00    00000000000          00000000000000000000000000000000000000000000 000000000000000A000000000000000000000000000000000000000000000 000000000000000000000000000000000000000     00000000                                                                                                                        000000000000000000
F0010000007680700002000080014190300041450500000000000000000201509280002001QUIMINSA LTDA                                     C000000002500000000000000000000000100010010000000000000000000000F0010000007680700220150928000101 00000000000000000000000000000000000000000000000000000000000000000000000000000000000000000000000000000000000000000N 00000000000NCONT   00    00000000000          00000000000000000000000000000000000000000000 000000000000000A000000000000000000000000000000000000000000000 000000000000000000000000000000000000000     00000000                                                                                                                        000000000000000000
F0010000007680700003000080014190300042505000000000000000000201509280002001QUIMINSA LTDA                                     C000000000500000000000000000000000100010010000000000000000000000F0010000007680700320150928000101 00000000000000000000000000000000000000000000000000000000000000000000000000000000000000000000000000000000000000000N 00000000000NCONT   00    00000000000          00000000000000000000000000000000000000000000 000000000000000A000000000000000000000000000000000000000000000 000000000000000000000000000000000000000     00000000                                                                                                                        000000000000000000
F0010000007680700004000080014190300023658300000000000000000201509280002001QUIMINSA LTDA                                     C000000000020000000000000000000000100010010000000000000000000000F0010000007680700420150928000101 00000000000000000000000000000000000000000000000000000000000000000000000000000000000000000000000000000000000000000N 00000000000NCONT   00    00000000000          00000000000000000000000000000000000000000000 000000000000000A000000000000000000000000000000000000000000000 000000000000000000000000000000000000000     00000000                                                                                                                        000000000000000000
F0010000007680700005000080014190300013552100000000000000000201509280002001QUIMINSA LTDA                                     D000000000020000000000000000000000100010010000000000000000000000F0010000007680700520150928000101 00000000000000000000000000000000000000000000000000000000000000000000000000000000000000000000000000000000000000000N 00000000000NCONT   00    00000000000          00000000000000000000000000000000000000000000 000000000000000A000000000000000000000000000000000000000000000 000000000000000000000000000000000000000     00000000                                                                                                                        000000000000000000
F0010000007680800001000080201703900011050500000000000000000201509280002001MUNDIAL CHEMICAL LTDA                             D000000000970000000000000000000000100010010000000000000000000000F0010000007680800120150928000101 00000000000000000000000000000000000000000000000000000000000000000000000000000000000000000000000000000000000000000N 00000000000NCONT   00    00000000000          00000000000000000000000000000000000000000000 000000000000000A000000000000000000000000000000000000000000000 000000000000000000000000000000000000000     00000000                                                                                                                        000000000000000000
F0010000007680800002000080201703900041450500000000000000000201509280002001MUNDIAL CHEMICAL LTDA                             C000000000830000000000000000000000100010010000000000000000000000F0010000007680800220150928000101 00000000000000000000000000000000000000000000000000000000000000000000000000000000000000000000000000000000000000000N 00000000000NCONT   00    00000000000          00000000000000000000000000000000000000000000 000000000000000A000000000000000000000000000000000000000000000 000000000000000000000000000000000000000     00000000                                                                                                                        000000000000000000
F0010000007680800003000080201703900042505000000000000000000201509280002001MUNDIAL CHEMICAL LTDA                             C000000000140000000000000000000000100010010000000000000000000000F0010000007680800320150928000101 00000000000000000000000000000000000000000000000000000000000000000000000000000000000000000000000000000000000000000N 00000000000NCONT   00    00000000000          00000000000000000000000000000000000000000000 000000000000000A000000000000000000000000000000000000000000000 000000000000000000000000000000000000000     00000000                                                                                                                        000000000000000000
F0010000007680800004000080201703900023658300000000000000000201509280002001MUNDIAL CHEMICAL LTDA                             C000000000006600000000000000000000100010010000000000000000000000F0010000007680800420150928000101 00000000000000000000000000000000000000000000000000000000000000000000000000000000000000000000000000000000000000000N 00000000000NCONT   00    00000000000          00000000000000000000000000000000000000000000 000000000000000A000000000000000000000000000000000000000000000 000000000000000000000000000000000000000     00000000                                                                                                                        000000000000000000
F0010000007680800005000080201703900013552100000000000000000201509280002001MUNDIAL CHEMICAL LTDA                             D000000000006600000000000000000000100010010000000000000000000000F0010000007680800520150928000101 00000000000000000000000000000000000000000000000000000000000000000000000000000000000000000000000000000000000000000N 00000000000NCONT   00    00000000000          00000000000000000000000000000000000000000000 000000000000000A000000000000000000000000000000000000000000000 000000000000000000000000000000000000000     00000000                                                                                                                        000000000000000000
F0010000007680900001000080002840900011050500000000000000000201509280002001DIAGO MATERIALES                                  D000000005500000000000000000000000100010010000000000000000000000F0010000007680900120150928000101 00000000000000000000000000000000000000000000000000000000000000000000000000000000000000000000000000000000000000000N 00000000000NCONT   00    00000000000          00000000000000000000000000000000000000000000 000000000000000A000000000000000000000000000000000000000000000 000000000000000000000000000000000000000     00000000                                                                                                                        000000000000000000
F0010000007680900002000080002840900041450500000000000000000201509280002001DIAGO MATERIALES                                  C000000004000000000000000000000000100010010000000000000000000000F0010000007680900220150928000101 00000000000000000000000000000000000000000000000000000000000000000000000000000000000000000000000000000000000000000N 00000000000NCONT   00    00000000000          00000000000000000000000000000000000000000000 000000000000000A000000000000000000000000000000000000000000000 000000000000000000000000000000000000000     00000000                                                                                                                        000000000000000000
F0010000007680900003000080002840900042505000000000000000000201509280002001DIAGO MATERIALES                                  C000000001500000000000000000000000100010010000000000000000000000F0010000007680900320150928000101 00000000000000000000000000000000000000000000000000000000000000000000000000000000000000000000000000000000000000000N 00000000000NCONT   00    00000000000          00000000000000000000000000000000000000000000 000000000000000A000000000000000000000000000000000000000000000 000000000000000000000000000000000000000     00000000                                                                                                                        000000000000000000
F0010000007680900004000080002840900023658300000000000000000201509280002001DIAGO MATERIALES                                  C000000000032000000000000000000000100010010000000000000000000000F0010000007680900420150928000101 00000000000000000000000000000000000000000000000000000000000000000000000000000000000000000000000000000000000000000N 00000000000NCONT   00    00000000000          00000000000000000000000000000000000000000000 000000000000000A000000000000000000000000000000000000000000000 000000000000000000000000000000000000000     00000000                                                                                                                        000000000000000000
F0010000007680900005000080002840900013552100000000000000000201509280002001DIAGO MATERIALES                                  D000000000032000000000000000000000100010010000000000000000000000F0010000007680900520150928000101 00000000000000000000000000000000000000000000000000000000000000000000000000000000000000000000000000000000000000000N 00000000000NCONT   00    00000000000          00000000000000000000000000000000000000000000 000000000000000A000000000000000000000000000000000000000000000 000000000000000000000000000000000000000     00000000                                                                                                                        000000000000000000
F0010000007681000001000007223972300011050500000000000000000201509280002001LUIS VALENCIA                                     D000000004800000000000000000000000100010010000000000000000000000F0010000007681000120150928000101 00000000000000000000000000000000000000000000000000000000000000000000000000000000000000000000000000000000000000000N 00000000000NCONT   00    00000000000          00000000000000000000000000000000000000000000 000000000000000A000000000000000000000000000000000000000000000 000000000000000000000000000000000000000     00000000                                                                                                                        000000000000000000
F0010000007681000002000007223972300041450500000000000000000201509280002001LUIS VALENCIA                                     C000000004500000000000000000000000100010010000000000000000000000F0010000007681000220150928000101 00000000000000000000000000000000000000000000000000000000000000000000000000000000000000000000000000000000000000000N 00000000000NCONT   00    00000000000          00000000000000000000000000000000000000000000 000000000000000A000000000000000000000000000000000000000000000 000000000000000000000000000000000000000     00000000                                                                                                                        000000000000000000
F0010000007681000003000007223972300042505000000000000000000201509280002001LUIS VALENCIA                                     C000000000300000000000000000000000100010010000000000000000000000F0010000007681000320150928000101 00000000000000000000000000000000000000000000000000000000000000000000000000000000000000000000000000000000000000000N 00000000000NCONT   00    00000000000          00000000000000000000000000000000000000000000 000000000000000A000000000000000000000000000000000000000000000 000000000000000000000000000000000000000     00000000                                                                                                                        000000000000000000
F0010000007681000004000007223972300023658300000000000000000201509280002001LUIS VALENCIA                                     C000000000036000000000000000000000100010010000000000000000000000F0010000007681000420150928000101 00000000000000000000000000000000000000000000000000000000000000000000000000000000000000000000000000000000000000000N 00000000000NCONT   00    00000000000          00000000000000000000000000000000000000000000 000000000000000A000000000000000000000000000000000000000000000 000000000000000000000000000000000000000     00000000                                                                                                                        000000000000000000
F0010000007681000005000007223972300013552100000000000000000201509280002001LUIS VALENCIA                                     D000000000036000000000000000000000100010010000000000000000000000F0010000007681000520150928000101 00000000000000000000000000000000000000000000000000000000000000000000000000000000000000000000000000000000000000000N 00000000000NCONT   00    00000000000          00000000000000000000000000000000000000000000 000000000000000A000000000000000000000000000000000000000000000 000000000000000000000000000000000000000     00000000                                                                                                                        000000000000000000
F0010000007681100001000090007142100011050500000000000000000201509280002001TODO BELLEZA Y MAX S.A.S                          D000000008650000000000000000000000100010010000000000000000000000F0010000007681100120150928000101 00000000000000000000000000000000000000000000000000000000000000000000000000000000000000000000000000000000000000000N 00000000000NCONT   00    00000000000          00000000000000000000000000000000000000000000 000000000000000A000000000000000000000000000000000000000000000 000000000000000000000000000000000000000     00000000                                                                                                                        000000000000000000
F0010000007681100002000090007142100041450500000000000000000201509280002001TODO BELLEZA Y MAX S.A.S                          C000000008550000000000000000000000100010010000000000000000000000F0010000007681100220150928000101 00000000000000000000000000000000000000000000000000000000000000000000000000000000000000000000000000000000000000000N 00000000000NCONT   00    00000000000          00000000000000000000000000000000000000000000 000000000000000A000000000000000000000000000000000000000000000 000000000000000000000000000000000000000     00000000                                                                                                                        000000000000000000
F0010000007681100003000090007142100042505000000000000000000201509280002001TODO BELLEZA Y MAX S.A.S                          C000000000100000000000000000000000100010010000000000000000000000F0010000007681100320150928000101 00000000000000000000000000000000000000000000000000000000000000000000000000000000000000000000000000000000000000000N 00000000000NCONT   00    00000000000          00000000000000000000000000000000000000000000 000000000000000A000000000000000000000000000000000000000000000 000000000000000000000000000000000000000     00000000                                                                                                                        000000000000000000
F0010000007681100004000090007142100023658300000000000000000201509280002001TODO BELLEZA Y MAX S.A.S                          C000000000068400000000000000000000100010010000000000000000000000F0010000007681100420150928000101 00000000000000000000000000000000000000000000000000000000000000000000000000000000000000000000000000000000000000000N 00000000000NCONT   00    00000000000          00000000000000000000000000000000000000000000 000000000000000A000000000000000000000000000000000000000000000 000000000000000000000000000000000000000     00000000                                                                                                                        000000000000000000
F0010000007681100005000090007142100013552100000000000000000201509280002001TODO BELLEZA Y MAX S.A.S                          D000000000068400000000000000000000100010010000000000000000000000F0010000007681100520150928000101 00000000000000000000000000000000000000000000000000000000000000000000000000000000000000000000000000000000000000000N 00000000000NCONT   00    00000000000          00000000000000000000000000000000000000000000 000000000000000A000000000000000000000000000000000000000000000 000000000000000000000000000000000000000     00000000                                                                                                                        000000000000000000
F0010000007681200001000002245670100011050500000000000000000201509280002001YOLANDA  TOBON                                    D000000002800000000000000000000000100010010000000000000000000000F0010000007681200120150928000101 00000000000000000000000000000000000000000000000000000000000000000000000000000000000000000000000000000000000000000N 00000000000NCONT   00    00000000000          00000000000000000000000000000000000000000000 000000000000000A000000000000000000000000000000000000000000000 000000000000000000000000000000000000000     00000000                                                                                                                        000000000000000000
F0010000007681200002000002245670100041450500000000000000000201509280002001YOLANDA  TOBON                                    C000000002500000000000000000000000100010010000000000000000000000F0010000007681200220150928000101 00000000000000000000000000000000000000000000000000000000000000000000000000000000000000000000000000000000000000000N 00000000000NCONT   00    00000000000          00000000000000000000000000000000000000000000 000000000000000A000000000000000000000000000000000000000000000 000000000000000000000000000000000000000     00000000                                                                                                                        000000000000000000
F0010000007681200003000002245670100042505000000000000000000201509280002001YOLANDA  TOBON                                    C000000000300000000000000000000000100010010000000000000000000000F0010000007681200320150928000101 00000000000000000000000000000000000000000000000000000000000000000000000000000000000000000000000000000000000000000N 00000000000NCONT   00    00000000000          00000000000000000000000000000000000000000000 000000000000000A000000000000000000000000000000000000000000000 000000000000000000000000000000000000000     00000000                                                                                                                        000000000000000000
F0010000007681200004000002245670100023658300000000000000000201509280002001YOLANDA  TOBON                                    C000000000020000000000000000000000100010010000000000000000000000F0010000007681200420150928000101 00000000000000000000000000000000000000000000000000000000000000000000000000000000000000000000000000000000000000000N 00000000000NCONT   00    00000000000          00000000000000000000000000000000000000000000 000000000000000A000000000000000000000000000000000000000000000 000000000000000000000000000000000000000     00000000                                                                                                                        000000000000000000
F0010000007681200005000002245670100013552100000000000000000201509280002001YOLANDA  TOBON                                    D000000000020000000000000000000000100010010000000000000000000000F0010000007681200520150928000101 00000000000000000000000000000000000000000000000000000000000000000000000000000000000000000000000000000000000000000N 00000000000NCONT   00    00000000000          00000000000000000000000000000000000000000000 000000000000000A000000000000000000000000000000000000000000000 000000000000000000000000000000000000000     00000000                                                                                                                        000000000000000000
F0010000007681300001000090050144800011050500000000000000000201509280002001PLASTICOS JR ASOCIADOS SAS                        D000000003900000000000000000000000100010010000000000000000000000F0010000007681300120150928000101 00000000000000000000000000000000000000000000000000000000000000000000000000000000000000000000000000000000000000000N 00000000000NCONT   00    00000000000          00000000000000000000000000000000000000000000 000000000000000A000000000000000000000000000000000000000000000 000000000000000000000000000000000000000     00000000                                                                                                                        000000000000000000
F0010000007681300002000090050144800041450500000000000000000201509280002001PLASTICOS JR ASOCIADOS SAS                        C000000003400000000000000000000000100010010000000000000000000000F0010000007681300220150928000101 00000000000000000000000000000000000000000000000000000000000000000000000000000000000000000000000000000000000000000N 00000000000NCONT   00    00000000000          00000000000000000000000000000000000000000000 000000000000000A000000000000000000000000000000000000000000000 000000000000000000000000000000000000000     00000000                                                                                                                        000000000000000000
F0010000007681300003000090050144800042505000000000000000000201509280002001PLASTICOS JR ASOCIADOS SAS                        C000000000500000000000000000000000100010010000000000000000000000F0010000007681300320150928000101 00000000000000000000000000000000000000000000000000000000000000000000000000000000000000000000000000000000000000000N 00000000000NCONT   00    00000000000          00000000000000000000000000000000000000000000 000000000000000A000000000000000000000000000000000000000000000 000000000000000000000000000000000000000     00000000                                                                                                                        000000000000000000
F0010000007681300004000090050144800023658300000000000000000201509280002001PLASTICOS JR ASOCIADOS SAS                        C000000000027200000000000000000000100010010000000000000000000000F0010000007681300420150928000101 00000000000000000000000000000000000000000000000000000000000000000000000000000000000000000000000000000000000000000N 00000000000NCONT   00    00000000000          00000000000000000000000000000000000000000000 000000000000000A000000000000000000000000000000000000000000000 000000000000000000000000000000000000000     00000000                                                                                                                        000000000000000000
F0010000007681300005000090050144800013552100000000000000000201509280002001PLASTICOS JR ASOCIADOS SAS                        D000000000027200000000000000000000100010010000000000000000000000F0010000007681300520150928000101 00000000000000000000000000000000000000000000000000000000000000000000000000000000000000000000000000000000000000000N 00000000000NCONT   00    00000000000          00000000000000000000000000000000000000000000 000000000000000A000000000000000000000000000000000000000000000 000000000000000000000000000000000000000     00000000                                                                                                                        000000000000000000
F0010000007681400001000090050144800011050500000000000000000201509280002001PLASTICOS JR ASOCIADOS SAS                        D000000002900000000000000000000000100010010000000000000000000000F0010000007681400120150928000101 00000000000000000000000000000000000000000000000000000000000000000000000000000000000000000000000000000000000000000N 00000000000NCONT   00    00000000000          00000000000000000000000000000000000000000000 000000000000000A000000000000000000000000000000000000000000000 000000000000000000000000000000000000000     00000000                                                                                                                        000000000000000000
F0010000007681400002000090050144800041450500000000000000000201509280002001PLASTICOS JR ASOCIADOS SAS                        C000000002600000000000000000000000100010010000000000000000000000F0010000007681400220150928000101 00000000000000000000000000000000000000000000000000000000000000000000000000000000000000000000000000000000000000000N 00000000000NCONT   00    00000000000          00000000000000000000000000000000000000000000 000000000000000A000000000000000000000000000000000000000000000 000000000000000000000000000000000000000     00000000                                                                                                                        000000000000000000
F0010000007681400003000090050144800042505000000000000000000201509280002001PLASTICOS JR ASOCIADOS SAS                        C000000000300000000000000000000000100010010000000000000000000000F0010000007681400320150928000101 00000000000000000000000000000000000000000000000000000000000000000000000000000000000000000000000000000000000000000N 00000000000NCONT   00    00000000000          00000000000000000000000000000000000000000000 000000000000000A000000000000000000000000000000000000000000000 000000000000000000000000000000000000000     00000000                                                                                                                        000000000000000000
F0010000007681400004000090050144800023658300000000000000000201509280002001PLASTICOS JR ASOCIADOS SAS                        C000000000020800000000000000000000100010010000000000000000000000F0010000007681400420150928000101 00000000000000000000000000000000000000000000000000000000000000000000000000000000000000000000000000000000000000000N 00000000000NCONT   00    00000000000          00000000000000000000000000000000000000000000 000000000000000A000000000000000000000000000000000000000000000 000000000000000000000000000000000000000     00000000                                                                                                                        000000000000000000
F0010000007681400005000090050144800013552100000000000000000201509280002001PLASTICOS JR ASOCIADOS SAS                        D000000000020800000000000000000000100010010000000000000000000000F0010000007681400520150928000101 00000000000000000000000000000000000000000000000000000000000000000000000000000000000000000000000000000000000000000N 00000000000NCONT   00    00000000000          00000000000000000000000000000000000000000000 000000000000000A000000000000000000000000000000000000000000000 000000000000000000000000000000000000000     00000000                                                                                                                        000000000000000000
F0010000007681500001000090050144800011050500000000000000000201509280002001PLASTICOS JR ASOCIADOS SAS                        D000000001900000000000000000000000100010010000000000000000000000F0010000007681500120150928000101 00000000000000000000000000000000000000000000000000000000000000000000000000000000000000000000000000000000000000000N 00000000000NCONT   00    00000000000          00000000000000000000000000000000000000000000 000000000000000A000000000000000000000000000000000000000000000 000000000000000000000000000000000000000     00000000                                                                                                                        000000000000000000
F0010000007681500002000090050144800041450500000000000000000201509280002001PLASTICOS JR ASOCIADOS SAS                        C000000001700000000000000000000000100010010000000000000000000000F0010000007681500220150928000101 00000000000000000000000000000000000000000000000000000000000000000000000000000000000000000000000000000000000000000N 00000000000NCONT   00    00000000000          00000000000000000000000000000000000000000000 000000000000000A000000000000000000000000000000000000000000000 000000000000000000000000000000000000000     00000000                                                                                                                        000000000000000000
F0010000007681500003000090050144800042505000000000000000000201509280002001PLASTICOS JR ASOCIADOS SAS                        C000000000200000000000000000000000100010010000000000000000000000F0010000007681500320150928000101 00000000000000000000000000000000000000000000000000000000000000000000000000000000000000000000000000000000000000000N 00000000000NCONT   00    00000000000          00000000000000000000000000000000000000000000 000000000000000A000000000000000000000000000000000000000000000 000000000000000000000000000000000000000     00000000                                                                                                                        000000000000000000
F0010000007681500004000090050144800023658300000000000000000201509280002001PLASTICOS JR ASOCIADOS SAS                        C000000000013600000000000000000000100010010000000000000000000000F0010000007681500420150928000101 00000000000000000000000000000000000000000000000000000000000000000000000000000000000000000000000000000000000000000N 00000000000NCONT   00    00000000000          00000000000000000000000000000000000000000000 000000000000000A000000000000000000000000000000000000000000000 000000000000000000000000000000000000000     00000000                                                                                                                        000000000000000000
F0010000007681500005000090050144800013552100000000000000000201509280002001PLASTICOS JR ASOCIADOS SAS                        D000000000013600000000000000000000100010010000000000000000000000F0010000007681500520150928000101 00000000000000000000000000000000000000000000000000000000000000000000000000000000000000000000000000000000000000000N 00000000000NCONT   00    00000000000          00000000000000000000000000000000000000000000 000000000000000A000000000000000000000000000000000000000000000 000000000000000000000000000000000000000     00000000                                                                                                                        000000000000000000
F0010000007681600001000003287795000011050500000000000000000201509280002001COMERCIALIZADORA KUZMAR                           D000000011400000000000000000000000100010010000000000000000000000F0010000007681600120150928000101 00000000000000000000000000000000000000000000000000000000000000000000000000000000000000000000000000000000000000000N 00000000000NCONT   00    00000000000          00000000000000000000000000000000000000000000 000000000000000A000000000000000000000000000000000000000000000 000000000000000000000000000000000000000     00000000                                                                                                                        000000000000000000
F0010000007681600002000003287795000041450500000000000000000201509280002001COMERCIALIZADORA KUZMAR                           C000000010700000000000000000000000100010010000000000000000000000F0010000007681600220150928000101 00000000000000000000000000000000000000000000000000000000000000000000000000000000000000000000000000000000000000000N 00000000000NCONT   00    00000000000          00000000000000000000000000000000000000000000 000000000000000A000000000000000000000000000000000000000000000 000000000000000000000000000000000000000     00000000                                                                                                                        000000000000000000
F0010000007681600003000003287795000042505000000000000000000201509280002001COMERCIALIZADORA KUZMAR                           C000000000700000000000000000000000100010010000000000000000000000F0010000007681600320150928000101 00000000000000000000000000000000000000000000000000000000000000000000000000000000000000000000000000000000000000000N 00000000000NCONT   00    00000000000          00000000000000000000000000000000000000000000 000000000000000A000000000000000000000000000000000000000000000 000000000000000000000000000000000000000     00000000                                                                                                                        000000000000000000
F0010000007681600004000003287795000023658300000000000000000201509280002001COMERCIALIZADORA KUZMAR                           C000000000085600000000000000000000100010010000000000000000000000F0010000007681600420150928000101 00000000000000000000000000000000000000000000000000000000000000000000000000000000000000000000000000000000000000000N 00000000000NCONT   00    00000000000          00000000000000000000000000000000000000000000 000000000000000A000000000000000000000000000000000000000000000 000000000000000000000000000000000000000     00000000                                                                                                                        000000000000000000
F0010000007681600005000003287795000013552100000000000000000201509280002001COMERCIALIZADORA KUZMAR                           D000000000085600000000000000000000100010010000000000000000000000F0010000007681600520150928000101 00000000000000000000000000000000000000000000000000000000000000000000000000000000000000000000000000000000000000000N 00000000000NCONT   00    00000000000          00000000000000000000000000000000000000000000 000000000000000A000000000000000000000000000000000000000000000 000000000000000000000000000000000000000     00000000                                                                                                                        000000000000000000
F0010000007681700001000000742399700011050500000000000000000201509280002001CACHARRERIA EL NUEVO CHADID                       D000000001600000000000000000000000100010010000000000000000000000F0010000007681700120150928000101 00000000000000000000000000000000000000000000000000000000000000000000000000000000000000000000000000000000000000000N 00000000000NCONT   00    00000000000          00000000000000000000000000000000000000000000 000000000000000A000000000000000000000000000000000000000000000 000000000000000000000000000000000000000     00000000                                                                                                                        000000000000000000
F0010000007681700002000000742399700041450500000000000000000201509280002001CACHARRERIA EL NUEVO CHADID                       C000000001100000000000000000000000100010010000000000000000000000F0010000007681700220150928000101 00000000000000000000000000000000000000000000000000000000000000000000000000000000000000000000000000000000000000000N 00000000000NCONT   00    00000000000          00000000000000000000000000000000000000000000 000000000000000A000000000000000000000000000000000000000000000 000000000000000000000000000000000000000     00000000                                                                                                                        000000000000000000
F0010000007681700003000000742399700042505000000000000000000201509280002001CACHARRERIA EL NUEVO CHADID                       C000000000500000000000000000000000100010010000000000000000000000F0010000007681700320150928000101 00000000000000000000000000000000000000000000000000000000000000000000000000000000000000000000000000000000000000000N 00000000000NCONT   00    00000000000          00000000000000000000000000000000000000000000 000000000000000A000000000000000000000000000000000000000000000 000000000000000000000000000000000000000     00000000                                                                                                                        000000000000000000
F0010000007681700004000000742399700023658300000000000000000201509280002001CACHARRERIA EL NUEVO CHADID                       C000000000008800000000000000000000100010010000000000000000000000F0010000007681700420150928000101 00000000000000000000000000000000000000000000000000000000000000000000000000000000000000000000000000000000000000000N 00000000000NCONT   00    00000000000          00000000000000000000000000000000000000000000 000000000000000A000000000000000000000000000000000000000000000 000000000000000000000000000000000000000     00000000                                                                                                                        000000000000000000
F0010000007681700005000000742399700013552100000000000000000201509280002001CACHARRERIA EL NUEVO CHADID                       D000000000008800000000000000000000100010010000000000000000000000F0010000007681700520150928000101 00000000000000000000000000000000000000000000000000000000000000000000000000000000000000000000000000000000000000000N 00000000000NCONT   00    00000000000          00000000000000000000000000000000000000000000 000000000000000A000000000000000000000000000000000000000000000 000000000000000000000000000000000000000     00000000                                                                                                                        000000000000000000
F0010000007681800001000080202350700011050500000000000000000201509280002001CONNY DE LA COSTA SAS                             D000000001200000000000000000000000100010010000000000000000000000F0010000007681800120150928000101 00000000000000000000000000000000000000000000000000000000000000000000000000000000000000000000000000000000000000000N 00000000000NCONT   00    00000000000          00000000000000000000000000000000000000000000 000000000000000A000000000000000000000000000000000000000000000 000000000000000000000000000000000000000     00000000                                                                                                                        000000000000000000
F0010000007681800002000080202350700041450500000000000000000201509280002001CONNY DE LA COSTA SAS                             C000000000800000000000000000000000100010010000000000000000000000F0010000007681800220150928000101 00000000000000000000000000000000000000000000000000000000000000000000000000000000000000000000000000000000000000000N 00000000000NCONT   00    00000000000          00000000000000000000000000000000000000000000 000000000000000A000000000000000000000000000000000000000000000 000000000000000000000000000000000000000     00000000                                                                                                                        000000000000000000
F0010000007681800003000080202350700042505000000000000000000201509280002001CONNY DE LA COSTA SAS                             C000000000400000000000000000000000100010010000000000000000000000F0010000007681800320150928000101 00000000000000000000000000000000000000000000000000000000000000000000000000000000000000000000000000000000000000000N 00000000000NCONT   00    00000000000          00000000000000000000000000000000000000000000 000000000000000A000000000000000000000000000000000000000000000 000000000000000000000000000000000000000     00000000                                                                                                                        000000000000000000
F0010000007681800004000080202350700023658300000000000000000201509280002001CONNY DE LA COSTA SAS                             C000000000006400000000000000000000100010010000000000000000000000F0010000007681800420150928000101 00000000000000000000000000000000000000000000000000000000000000000000000000000000000000000000000000000000000000000N 00000000000NCONT   00    00000000000          00000000000000000000000000000000000000000000 000000000000000A000000000000000000000000000000000000000000000 000000000000000000000000000000000000000     00000000                                                                                                                        000000000000000000
F0010000007681800005000080202350700013552100000000000000000201509280002001CONNY DE LA COSTA SAS                             D000000000006400000000000000000000100010010000000000000000000000F0010000007681800520150928000101 00000000000000000000000000000000000000000000000000000000000000000000000000000000000000000000000000000000000000000N 00000000000NCONT   00    00000000000          00000000000000000000000000000000000000000000 000000000000000A000000000000000000000000000000000000000000000 000000000000000000000000000000000000000     00000000                                                                                                                        000000000000000000
F0010000007681900001000080202350700011050500000000000000000201509280002001CONNY DE LA COSTA SAS                             D000000009500000000000000000000000100010010000000000000000000000F0010000007681900120150928000101 00000000000000000000000000000000000000000000000000000000000000000000000000000000000000000000000000000000000000000N 00000000000NCONT   00    00000000000          00000000000000000000000000000000000000000000 000000000000000A000000000000000000000000000000000000000000000 000000000000000000000000000000000000000     00000000                                                                                                                        000000000000000000
F0010000007681900002000080202350700041450500000000000000000201509280002001CONNY DE LA COSTA SAS                             C000000007000000000000000000000000100010010000000000000000000000F0010000007681900220150928000101 00000000000000000000000000000000000000000000000000000000000000000000000000000000000000000000000000000000000000000N 00000000000NCONT   00    00000000000          00000000000000000000000000000000000000000000 000000000000000A000000000000000000000000000000000000000000000 000000000000000000000000000000000000000     00000000                                                                                                                        000000000000000000
F0010000007681900003000080202350700042505000000000000000000201509280002001CONNY DE LA COSTA SAS                             C000000002500000000000000000000000100010010000000000000000000000F0010000007681900320150928000101 00000000000000000000000000000000000000000000000000000000000000000000000000000000000000000000000000000000000000000N 00000000000NCONT   00    00000000000          00000000000000000000000000000000000000000000 000000000000000A000000000000000000000000000000000000000000000 000000000000000000000000000000000000000     00000000                                                                                                                        000000000000000000
F0010000007681900004000080202350700023658300000000000000000201509280002001CONNY DE LA COSTA SAS                             C000000000056000000000000000000000100010010000000000000000000000F0010000007681900420150928000101 00000000000000000000000000000000000000000000000000000000000000000000000000000000000000000000000000000000000000000N 00000000000NCONT   00    00000000000          00000000000000000000000000000000000000000000 000000000000000A000000000000000000000000000000000000000000000 000000000000000000000000000000000000000     00000000                                                                                                                        000000000000000000
F0010000007681900005000080202350700013552100000000000000000201509280002001CONNY DE LA COSTA SAS                             D000000000056000000000000000000000100010010000000000000000000000F0010000007681900520150928000101 00000000000000000000000000000000000000000000000000000000000000000000000000000000000000000000000000000000000000000N 00000000000NCONT   00    00000000000          00000000000000000000000000000000000000000000 000000000000000A000000000000000000000000000000000000000000000 000000000000000000000000000000000000000     00000000                                                                                                                        000000000000000000
F0010000007682000001000090041529500011050500000000000000000201509280002001EME IMPORTACIONES ELECTRICA                       D000000003750000000000000000000000100010010000000000000000000000F0010000007682000120150928000101 00000000000000000000000000000000000000000000000000000000000000000000000000000000000000000000000000000000000000000N 00000000000NCONT   00    00000000000          00000000000000000000000000000000000000000000 000000000000000A000000000000000000000000000000000000000000000 000000000000000000000000000000000000000     00000000                                                                                                                        000000000000000000
F0010000007682000002000090041529500041450500000000000000000201509280002001EME IMPORTACIONES ELECTRICA                       C000000003250000000000000000000000100010010000000000000000000000F0010000007682000220150928000101 00000000000000000000000000000000000000000000000000000000000000000000000000000000000000000000000000000000000000000N 00000000000NCONT   00    00000000000          00000000000000000000000000000000000000000000 000000000000000A000000000000000000000000000000000000000000000 000000000000000000000000000000000000000     00000000                                                                                                                        000000000000000000
F0010000007682000003000090041529500042505000000000000000000201509280002001EME IMPORTACIONES ELECTRICA                       C000000000500000000000000000000000100010010000000000000000000000F0010000007682000320150928000101 00000000000000000000000000000000000000000000000000000000000000000000000000000000000000000000000000000000000000000N 00000000000NCONT   00    00000000000          00000000000000000000000000000000000000000000 000000000000000A000000000000000000000000000000000000000000000 000000000000000000000000000000000000000     00000000                                                                                                                        000000000000000000
F0010000007682000004000090041529500023658300000000000000000201509280002001EME IMPORTACIONES ELECTRICA                       C000000000026000000000000000000000100010010000000000000000000000F0010000007682000420150928000101 00000000000000000000000000000000000000000000000000000000000000000000000000000000000000000000000000000000000000000N 00000000000NCONT   00    00000000000          00000000000000000000000000000000000000000000 000000000000000A000000000000000000000000000000000000000000000 000000000000000000000000000000000000000     00000000                                                                                                                        000000000000000000
F0010000007682000005000090041529500013552100000000000000000201509280002001EME IMPORTACIONES ELECTRICA                       D000000000026000000000000000000000100010010000000000000000000000F0010000007682000520150928000101 00000000000000000000000000000000000000000000000000000000000000000000000000000000000000000000000000000000000000000N 00000000000NCONT   00    00000000000          00000000000000000000000000000000000000000000 000000000000000A000000000000000000000000000000000000000000000 000000000000000000000000000000000000000     00000000                                                                                                                        000000000000000000
F0010000007682100001000000742399700011050500000000000000000201509280002001CACHARRERIA EL NUEVO CHADID                       D000000004000000000000000000000000100010010000000000000000000000F0010000007682100120150928000101 00000000000000000000000000000000000000000000000000000000000000000000000000000000000000000000000000000000000000000N 00000000000NCONT   00    00000000000          00000000000000000000000000000000000000000000 000000000000000A000000000000000000000000000000000000000000000 000000000000000000000000000000000000000     00000000                                                                                                                        000000000000000000
F0010000007682100002000000742399700041450500000000000000000201509280002001CACHARRERIA EL NUEVO CHADID                       C000000003300000000000000000000000100010010000000000000000000000F0010000007682100220150928000101 00000000000000000000000000000000000000000000000000000000000000000000000000000000000000000000000000000000000000000N 00000000000NCONT   00    00000000000          00000000000000000000000000000000000000000000 000000000000000A000000000000000000000000000000000000000000000 000000000000000000000000000000000000000     00000000                                                                                                                        000000000000000000
F0010000007682100003000000742399700042505000000000000000000201509280002001CACHARRERIA EL NUEVO CHADID                       C000000000700000000000000000000000100010010000000000000000000000F0010000007682100320150928000101 00000000000000000000000000000000000000000000000000000000000000000000000000000000000000000000000000000000000000000N 00000000000NCONT   00    00000000000          00000000000000000000000000000000000000000000 000000000000000A000000000000000000000000000000000000000000000 000000000000000000000000000000000000000     00000000                                                                                                                        000000000000000000
F0010000007682100004000000742399700023658300000000000000000201509280002001CACHARRERIA EL NUEVO CHADID                       C000000000026400000000000000000000100010010000000000000000000000F0010000007682100420150928000101 00000000000000000000000000000000000000000000000000000000000000000000000000000000000000000000000000000000000000000N 00000000000NCONT   00    00000000000          00000000000000000000000000000000000000000000 000000000000000A000000000000000000000000000000000000000000000 000000000000000000000000000000000000000     00000000                                                                                                                        000000000000000000
F0010000007682100005000000742399700013552100000000000000000201509280002001CACHARRERIA EL NUEVO CHADID                       D000000000026400000000000000000000100010010000000000000000000000F0010000007682100520150928000101 00000000000000000000000000000000000000000000000000000000000000000000000000000000000000000000000000000000000000000N 00000000000NCONT   00    00000000000          00000000000000000000000000000000000000000000 000000000000000A000000000000000000000000000000000000000000000 000000000000000000000000000000000000000     00000000                                                                                                                        000000000000000000
F0010000007682200001000003287795000011050500000000000000000201509280002001COMERCIALIZADORA KUZMAR                           D000000004100000000000000000000000100010010000000000000000000000F0010000007682200120150928000101 00000000000000000000000000000000000000000000000000000000000000000000000000000000000000000000000000000000000000000N 00000000000NCONT   00    00000000000          00000000000000000000000000000000000000000000 000000000000000A000000000000000000000000000000000000000000000 000000000000000000000000000000000000000     00000000                                                                                                                        000000000000000000
F0010000007682200002000003287795000041450500000000000000000201509280002001COMERCIALIZADORA KUZMAR                           C000000003500000000000000000000000100010010000000000000000000000F0010000007682200220150928000101 00000000000000000000000000000000000000000000000000000000000000000000000000000000000000000000000000000000000000000N 00000000000NCONT   00    00000000000          00000000000000000000000000000000000000000000 000000000000000A000000000000000000000000000000000000000000000 000000000000000000000000000000000000000     00000000                                                                                                                        000000000000000000
F0010000007682200003000003287795000042505000000000000000000201509280002001COMERCIALIZADORA KUZMAR                           C000000000600000000000000000000000100010010000000000000000000000F0010000007682200320150928000101 00000000000000000000000000000000000000000000000000000000000000000000000000000000000000000000000000000000000000000N 00000000000NCONT   00    00000000000          00000000000000000000000000000000000000000000 000000000000000A000000000000000000000000000000000000000000000 000000000000000000000000000000000000000     00000000                                                                                                                        000000000000000000
F0010000007682200004000003287795000023658300000000000000000201509280002001COMERCIALIZADORA KUZMAR                           C000000000028000000000000000000000100010010000000000000000000000F0010000007682200420150928000101 00000000000000000000000000000000000000000000000000000000000000000000000000000000000000000000000000000000000000000N 00000000000NCONT   00    00000000000          00000000000000000000000000000000000000000000 000000000000000A000000000000000000000000000000000000000000000 000000000000000000000000000000000000000     00000000                                                                                                                        000000000000000000
F0010000007682200005000003287795000013552100000000000000000201509280002001COMERCIALIZADORA KUZMAR                           D000000000028000000000000000000000100010010000000000000000000000F0010000007682200520150928000101 00000000000000000000000000000000000000000000000000000000000000000000000000000000000000000000000000000000000000000N 00000000000NCONT   00    00000000000          00000000000000000000000000000000000000000000 000000000000000A000000000000000000000000000000000000000000000 000000000000000000000000000000000000000     00000000                                                                                                                        000000000000000000
F0010000007682300001000000431178400011050500000000000000000201509280002001EFRAIN ALVAREZ                                    D000000001970000000000000000000000100010010000000000000000000000F0010000007682300120150928000101 00000000000000000000000000000000000000000000000000000000000000000000000000000000000000000000000000000000000000000N 00000000000NCONT   00    00000000000          00000000000000000000000000000000000000000000 000000000000000A000000000000000000000000000000000000000000000 000000000000000000000000000000000000000     00000000                                                                                                                        000000000000000000
F0010000007682300002000000431178400041450500000000000000000201509280002001EFRAIN ALVAREZ                                    C000000001720000000000000000000000100010010000000000000000000000F0010000007682300220150928000101 00000000000000000000000000000000000000000000000000000000000000000000000000000000000000000000000000000000000000000N 00000000000NCONT   00    00000000000          00000000000000000000000000000000000000000000 000000000000000A000000000000000000000000000000000000000000000 000000000000000000000000000000000000000     00000000                                                                                                                        000000000000000000
F0010000007682300003000000431178400042505000000000000000000201509280002001EFRAIN ALVAREZ                                    C000000000250000000000000000000000100010010000000000000000000000F0010000007682300320150928000101 00000000000000000000000000000000000000000000000000000000000000000000000000000000000000000000000000000000000000000N 00000000000NCONT   00    00000000000          00000000000000000000000000000000000000000000 000000000000000A000000000000000000000000000000000000000000000 000000000000000000000000000000000000000     00000000                                                                                                                        000000000000000000
F0010000007682300004000000431178400023658300000000000000000201509280002001EFRAIN ALVAREZ                                    C000000000013800000000000000000000100010010000000000000000000000F0010000007682300420150928000101 00000000000000000000000000000000000000000000000000000000000000000000000000000000000000000000000000000000000000000N 00000000000NCONT   00    00000000000          00000000000000000000000000000000000000000000 000000000000000A000000000000000000000000000000000000000000000 000000000000000000000000000000000000000     00000000                                                                                                                        000000000000000000
F0010000007682300005000000431178400013552100000000000000000201509280002001EFRAIN ALVAREZ                                    D000000000013800000000000000000000100010010000000000000000000000F0010000007682300520150928000101 00000000000000000000000000000000000000000000000000000000000000000000000000000000000000000000000000000000000000000N 00000000000NCONT   00    00000000000          00000000000000000000000000000000000000000000 000000000000000A000000000000000000000000000000000000000000000 000000000000000000000000000000000000000     00000000                                                                                                                        000000000000000000
F0010000007682400001000000431178400011050500000000000000000201509280002001EFRAIN ALVAREZ                                    D000000001240000000000000000000000100010010000000000000000000000F0010000007682400120150928000101 00000000000000000000000000000000000000000000000000000000000000000000000000000000000000000000000000000000000000000N 00000000000NCONT   00    00000000000          00000000000000000000000000000000000000000000 000000000000000A000000000000000000000000000000000000000000000 000000000000000000000000000000000000000     00000000                                                                                                                        000000000000000000
F0010000007682400002000000431178400041450500000000000000000201509280002001EFRAIN ALVAREZ                                    C000000001190000000000000000000000100010010000000000000000000000F0010000007682400220150928000101 00000000000000000000000000000000000000000000000000000000000000000000000000000000000000000000000000000000000000000N 00000000000NCONT   00    00000000000          00000000000000000000000000000000000000000000 000000000000000A000000000000000000000000000000000000000000000 000000000000000000000000000000000000000     00000000                                                                                                                        000000000000000000
