F0010000008855200001000000866531000011050500000000000000000201607150002001CLAUDIO LLINAS MOLINA                             D000000001500000000000000000000000100010010000000000000000000000F0010000008855200120160715000101 00000000000000000000000000000000000000000000000000000000000000000000000000000000000000000000000000000000000000000N 00000000000NCONT   00    00000000000          00000000000000000000000000000000000000000000 000000000000000A000000000000000000000000000000000000000000000 000000000000000000000000000000000000000     00000000                                                                                                                        000000000000000000
F0010000008855200002000000866531000041450500000000000000000201607150002001CLAUDIO LLINAS MOLINA                             C000000001200000000000000000000000100010010000000000000000000000F0010000008855200220160715000101 00000000000000000000000000000000000000000000000000000000000000000000000000000000000000000000000000000000000000000N 00000000000NCONT   00    00000000000          00000000000000000000000000000000000000000000 000000000000000A000000000000000000000000000000000000000000000 000000000000000000000000000000000000000     00000000                                                                                                                        000000000000000000
F0010000008855200003000000866531000042505000000000000000000201607150002001CLAUDIO LLINAS MOLINA                             C000000000300000000000000000000000100010010000000000000000000000F0010000008855200320160715000101 00000000000000000000000000000000000000000000000000000000000000000000000000000000000000000000000000000000000000000N 00000000000NCONT   00    00000000000          00000000000000000000000000000000000000000000 000000000000000A000000000000000000000000000000000000000000000 000000000000000000000000000000000000000     00000000                                                                                                                        000000000000000000
F0010000008855200004000000866531000023658300000000000000000201607150002001CLAUDIO LLINAS MOLINA                             C000000000009600000000000000000000100010010000000000000000000000F0010000008855200420160715000101 00000000000000000000000000000000000000000000000000000000000000000000000000000000000000000000000000000000000000000N 00000000000NCONT   00    00000000000          00000000000000000000000000000000000000000000 000000000000000A000000000000000000000000000000000000000000000 000000000000000000000000000000000000000     00000000                                                                                                                        000000000000000000
F0010000008855200005000000866531000013552100000000000000000201607150002001CLAUDIO LLINAS MOLINA                             D000000000009600000000000000000000100010010000000000000000000000F0010000008855200520160715000101 00000000000000000000000000000000000000000000000000000000000000000000000000000000000000000000000000000000000000000N 00000000000NCONT   00    00000000000          00000000000000000000000000000000000000000000 000000000000000A000000000000000000000000000000000000000000000 000000000000000000000000000000000000000     00000000                                                                                                                        000000000000000000
F0010000008855300001000090073498600011050500000000000000000201607150002001VALTAC S.A.S                                      D000000001200000000000000000000000100010010000000000000000000000F0010000008855300120160715000101 00000000000000000000000000000000000000000000000000000000000000000000000000000000000000000000000000000000000000000N 00000000000NCONT   00    00000000000          00000000000000000000000000000000000000000000 000000000000000A000000000000000000000000000000000000000000000 000000000000000000000000000000000000000     00000000                                                                                                                        000000000000000000
F0010000008855300002000090073498600041450500000000000000000201607150002001VALTAC S.A.S                                      C000000000900000000000000000000000100010010000000000000000000000F0010000008855300220160715000101 00000000000000000000000000000000000000000000000000000000000000000000000000000000000000000000000000000000000000000N 00000000000NCONT   00    00000000000          00000000000000000000000000000000000000000000 000000000000000A000000000000000000000000000000000000000000000 000000000000000000000000000000000000000     00000000                                                                                                                        000000000000000000
F0010000008855300003000090073498600042505000000000000000000201607150002001VALTAC S.A.S                                      C000000000300000000000000000000000100010010000000000000000000000F0010000008855300320160715000101 00000000000000000000000000000000000000000000000000000000000000000000000000000000000000000000000000000000000000000N 00000000000NCONT   00    00000000000          00000000000000000000000000000000000000000000 000000000000000A000000000000000000000000000000000000000000000 000000000000000000000000000000000000000     00000000                                                                                                                        000000000000000000
F0010000008855300004000090073498600023658300000000000000000201607150002001VALTAC S.A.S                                      C000000000007200000000000000000000100010010000000000000000000000F0010000008855300420160715000101 00000000000000000000000000000000000000000000000000000000000000000000000000000000000000000000000000000000000000000N 00000000000NCONT   00    00000000000          00000000000000000000000000000000000000000000 000000000000000A000000000000000000000000000000000000000000000 000000000000000000000000000000000000000     00000000                                                                                                                        000000000000000000
F0010000008855300005000090073498600013552100000000000000000201607150002001VALTAC S.A.S                                      D000000000007200000000000000000000100010010000000000000000000000F0010000008855300520160715000101 00000000000000000000000000000000000000000000000000000000000000000000000000000000000000000000000000000000000000000N 00000000000NCONT   00    00000000000          00000000000000000000000000000000000000000000 000000000000000A000000000000000000000000000000000000000000000 000000000000000000000000000000000000000     00000000                                                                                                                        000000000000000000
F0010000008855400001000003207718300011050500000000000000000201607150002001MARIA GILMA RAMIREZ GARCIA                        D000000003500000000000000000000000100010010000000000000000000000F0010000008855400120160715000101 00000000000000000000000000000000000000000000000000000000000000000000000000000000000000000000000000000000000000000N 00000000000NCONT   00    00000000000          00000000000000000000000000000000000000000000 000000000000000A000000000000000000000000000000000000000000000 000000000000000000000000000000000000000     00000000                                                                                                                        000000000000000000
F0010000008855400002000003207718300041450500000000000000000201607150002001MARIA GILMA RAMIREZ GARCIA                        C000000003200000000000000000000000100010010000000000000000000000F0010000008855400220160715000101 00000000000000000000000000000000000000000000000000000000000000000000000000000000000000000000000000000000000000000N 00000000000NCONT   00    00000000000          00000000000000000000000000000000000000000000 000000000000000A000000000000000000000000000000000000000000000 000000000000000000000000000000000000000     00000000                                                                                                                        000000000000000000
F0010000008855400003000003207718300042505000000000000000000201607150002001MARIA GILMA RAMIREZ GARCIA                        C000000000300000000000000000000000100010010000000000000000000000F0010000008855400320160715000101 00000000000000000000000000000000000000000000000000000000000000000000000000000000000000000000000000000000000000000N 00000000000NCONT   00    00000000000          00000000000000000000000000000000000000000000 000000000000000A000000000000000000000000000000000000000000000 000000000000000000000000000000000000000     00000000                                                                                                                        000000000000000000
F0010000008855400004000003207718300023658300000000000000000201607150002001MARIA GILMA RAMIREZ GARCIA                        C000000000025600000000000000000000100010010000000000000000000000F0010000008855400420160715000101 00000000000000000000000000000000000000000000000000000000000000000000000000000000000000000000000000000000000000000N 00000000000NCONT   00    00000000000          00000000000000000000000000000000000000000000 000000000000000A000000000000000000000000000000000000000000000 000000000000000000000000000000000000000     00000000                                                                                                                        000000000000000000
F0010000008855400005000003207718300013552100000000000000000201607150002001MARIA GILMA RAMIREZ GARCIA                        D000000000025600000000000000000000100010010000000000000000000000F0010000008855400520160715000101 00000000000000000000000000000000000000000000000000000000000000000000000000000000000000000000000000000000000000000N 00000000000NCONT   00    00000000000          00000000000000000000000000000000000000000000 000000000000000A000000000000000000000000000000000000000000000 000000000000000000000000000000000000000     00000000                                                                                                                        000000000000000000
F0010000008855500001000009313581500011050500000000000000000201607150002001JUAN ARCE NUÑEZ                                  D000000004000000000000000000000000100010010000000000000000000000F0010000008855500120160715000101 00000000000000000000000000000000000000000000000000000000000000000000000000000000000000000000000000000000000000000N 00000000000NCONT   00    00000000000          00000000000000000000000000000000000000000000 000000000000000A000000000000000000000000000000000000000000000 000000000000000000000000000000000000000     00000000                                                                                                                        000000000000000000
F0010000008855500002000009313581500041450500000000000000000201607150002001JUAN ARCE NUÑEZ                                  C000000003500000000000000000000000100010010000000000000000000000F0010000008855500220160715000101 00000000000000000000000000000000000000000000000000000000000000000000000000000000000000000000000000000000000000000N 00000000000NCONT   00    00000000000          00000000000000000000000000000000000000000000 000000000000000A000000000000000000000000000000000000000000000 000000000000000000000000000000000000000     00000000                                                                                                                        000000000000000000
F0010000008855500003000009313581500042505000000000000000000201607150002001JUAN ARCE NUÑEZ                                  C000000000500000000000000000000000100010010000000000000000000000F0010000008855500320160715000101 00000000000000000000000000000000000000000000000000000000000000000000000000000000000000000000000000000000000000000N 00000000000NCONT   00    00000000000          00000000000000000000000000000000000000000000 000000000000000A000000000000000000000000000000000000000000000 000000000000000000000000000000000000000     00000000                                                                                                                        000000000000000000
F0010000008855500004000009313581500023658300000000000000000201607150002001JUAN ARCE NUÑEZ                                  C000000000028000000000000000000000100010010000000000000000000000F0010000008855500420160715000101 00000000000000000000000000000000000000000000000000000000000000000000000000000000000000000000000000000000000000000N 00000000000NCONT   00    00000000000          00000000000000000000000000000000000000000000 000000000000000A000000000000000000000000000000000000000000000 000000000000000000000000000000000000000     00000000                                                                                                                        000000000000000000
F0010000008855500005000009313581500013552100000000000000000201607150002001JUAN ARCE NUÑEZ                                  D000000000028000000000000000000000100010010000000000000000000000F0010000008855500520160715000101 00000000000000000000000000000000000000000000000000000000000000000000000000000000000000000000000000000000000000000N 00000000000NCONT   00    00000000000          00000000000000000000000000000000000000000000 000000000000000A000000000000000000000000000000000000000000000 000000000000000000000000000000000000000     00000000                                                                                                                        000000000000000000
F0010000008855600001000114084725100011050500000000000000000201607150002001COMERCIALIZADORA KONAR .. ..                      D000000001800000000000000000000000100010010000000000000000000000F0010000008855600120160715000101 00000000000000000000000000000000000000000000000000000000000000000000000000000000000000000000000000000000000000000N 00000000000NCONT   00    00000000000          00000000000000000000000000000000000000000000 000000000000000A000000000000000000000000000000000000000000000 000000000000000000000000000000000000000     00000000                                                                                                                        000000000000000000
F0010000008855600002000114084725100041450500000000000000000201607150002001COMERCIALIZADORA KONAR .. ..                      C000000001500000000000000000000000100010010000000000000000000000F0010000008855600220160715000101 00000000000000000000000000000000000000000000000000000000000000000000000000000000000000000000000000000000000000000N 00000000000NCONT   00    00000000000          00000000000000000000000000000000000000000000 000000000000000A000000000000000000000000000000000000000000000 000000000000000000000000000000000000000     00000000                                                                                                                        000000000000000000
F0010000008855600003000114084725100042505000000000000000000201607150002001COMERCIALIZADORA KONAR .. ..                      C000000000300000000000000000000000100010010000000000000000000000F0010000008855600320160715000101 00000000000000000000000000000000000000000000000000000000000000000000000000000000000000000000000000000000000000000N 00000000000NCONT   00    00000000000          00000000000000000000000000000000000000000000 000000000000000A000000000000000000000000000000000000000000000 000000000000000000000000000000000000000     00000000                                                                                                                        000000000000000000
F0010000008855600004000114084725100023658300000000000000000201607150002001COMERCIALIZADORA KONAR .. ..                      C000000000012000000000000000000000100010010000000000000000000000F0010000008855600420160715000101 00000000000000000000000000000000000000000000000000000000000000000000000000000000000000000000000000000000000000000N 00000000000NCONT   00    00000000000          00000000000000000000000000000000000000000000 000000000000000A000000000000000000000000000000000000000000000 000000000000000000000000000000000000000     00000000                                                                                                                        000000000000000000
F0010000008855600005000114084725100013552100000000000000000201607150002001COMERCIALIZADORA KONAR .. ..                      D000000000012000000000000000000000100010010000000000000000000000F0010000008855600520160715000101 00000000000000000000000000000000000000000000000000000000000000000000000000000000000000000000000000000000000000000N 00000000000NCONT   00    00000000000          00000000000000000000000000000000000000000000 000000000000000A000000000000000000000000000000000000000000000 000000000000000000000000000000000000000     00000000                                                                                                                        000000000000000000
F0010000008855700001000090073498600011050500000000000000000201607150002001VALTAC S.A.S                                      D000000001000000000000000000000000100010010000000000000000000000F0010000008855700120160715000101 00000000000000000000000000000000000000000000000000000000000000000000000000000000000000000000000000000000000000000N 00000000000NCONT   00    00000000000          00000000000000000000000000000000000000000000 000000000000000A000000000000000000000000000000000000000000000 000000000000000000000000000000000000000     00000000                                                                                                                        000000000000000000
F0010000008855700002000090073498600041450500000000000000000201607150002001VALTAC S.A.S                                      C000000000900000000000000000000000100010010000000000000000000000F0010000008855700220160715000101 00000000000000000000000000000000000000000000000000000000000000000000000000000000000000000000000000000000000000000N 00000000000NCONT   00    00000000000          00000000000000000000000000000000000000000000 000000000000000A000000000000000000000000000000000000000000000 000000000000000000000000000000000000000     00000000                                                                                                                        000000000000000000
F0010000008855700003000090073498600042505000000000000000000201607150002001VALTAC S.A.S                                      C000000000100000000000000000000000100010010000000000000000000000F0010000008855700320160715000101 00000000000000000000000000000000000000000000000000000000000000000000000000000000000000000000000000000000000000000N 00000000000NCONT   00    00000000000          00000000000000000000000000000000000000000000 000000000000000A000000000000000000000000000000000000000000000 000000000000000000000000000000000000000     00000000                                                                                                                        000000000000000000
F0010000008855700004000090073498600023658300000000000000000201607150002001VALTAC S.A.S                                      C000000000007200000000000000000000100010010000000000000000000000F0010000008855700420160715000101 00000000000000000000000000000000000000000000000000000000000000000000000000000000000000000000000000000000000000000N 00000000000NCONT   00    00000000000          00000000000000000000000000000000000000000000 000000000000000A000000000000000000000000000000000000000000000 000000000000000000000000000000000000000     00000000                                                                                                                        000000000000000000
F0010000008855700005000090073498600013552100000000000000000201607150002001VALTAC S.A.S                                      D000000000007200000000000000000000100010010000000000000000000000F0010000008855700520160715000101 00000000000000000000000000000000000000000000000000000000000000000000000000000000000000000000000000000000000000000N 00000000000NCONT   00    00000000000          00000000000000000000000000000000000000000000 000000000000000A000000000000000000000000000000000000000000000 000000000000000000000000000000000000000     00000000                                                                                                                        000000000000000000
F0010000008855800001000086053108300011050500000000000000000201607150002001EL PALACIO DEL ALUMINIO  LTDA                     D000000003500000000000000000000000100010010000000000000000000000F0010000008855800120160715000101 00000000000000000000000000000000000000000000000000000000000000000000000000000000000000000000000000000000000000000N 00000000000NCONT   00    00000000000          00000000000000000000000000000000000000000000 000000000000000A000000000000000000000000000000000000000000000 000000000000000000000000000000000000000     00000000                                                                                                                        000000000000000000
F0010000008855800002000086053108300041450500000000000000000201607150002001EL PALACIO DEL ALUMINIO  LTDA                     C000000002400000000000000000000000100010010000000000000000000000F0010000008855800220160715000101 00000000000000000000000000000000000000000000000000000000000000000000000000000000000000000000000000000000000000000N 00000000000NCONT   00    00000000000          00000000000000000000000000000000000000000000 000000000000000A000000000000000000000000000000000000000000000 000000000000000000000000000000000000000     00000000                                                                                                                        000000000000000000
F0010000008855800003000086053108300042505000000000000000000201607150002001EL PALACIO DEL ALUMINIO  LTDA                     C000000001100000000000000000000000100010010000000000000000000000F0010000008855800320160715000101 00000000000000000000000000000000000000000000000000000000000000000000000000000000000000000000000000000000000000000N 00000000000NCONT   00    00000000000          00000000000000000000000000000000000000000000 000000000000000A000000000000000000000000000000000000000000000 000000000000000000000000000000000000000     00000000                                                                                                                        000000000000000000
F0010000008855800004000086053108300023658300000000000000000201607150002001EL PALACIO DEL ALUMINIO  LTDA                     C000000000019200000000000000000000100010010000000000000000000000F0010000008855800420160715000101 00000000000000000000000000000000000000000000000000000000000000000000000000000000000000000000000000000000000000000N 00000000000NCONT   00    00000000000          00000000000000000000000000000000000000000000 000000000000000A000000000000000000000000000000000000000000000 000000000000000000000000000000000000000     00000000                                                                                                                        000000000000000000
F0010000008855800005000086053108300013552100000000000000000201607150002001EL PALACIO DEL ALUMINIO  LTDA                     D000000000019200000000000000000000100010010000000000000000000000F0010000008855800520160715000101 00000000000000000000000000000000000000000000000000000000000000000000000000000000000000000000000000000000000000000N 00000000000NCONT   00    00000000000          00000000000000000000000000000000000000000000 000000000000000A000000000000000000000000000000000000000000000 000000000000000000000000000000000000000     00000000                                                                                                                        000000000000000000
F0010000008855900001000007213133300011050500000000000000000201607150002001ALVARO ALBERTO FANDIÑO GOMEZ                     D000000001100000000000000000000000100010010000000000000000000000F0010000008855900120160715000101 00000000000000000000000000000000000000000000000000000000000000000000000000000000000000000000000000000000000000000N 00000000000NCONT   00    00000000000          00000000000000000000000000000000000000000000 000000000000000A000000000000000000000000000000000000000000000 000000000000000000000000000000000000000     00000000                                                                                                                        000000000000000000
F0010000008855900002000007213133300041450500000000000000000201607150002001ALVARO ALBERTO FANDIÑO GOMEZ                     C000000001000000000000000000000000100010010000000000000000000000F0010000008855900220160715000101 00000000000000000000000000000000000000000000000000000000000000000000000000000000000000000000000000000000000000000N 00000000000NCONT   00    00000000000          00000000000000000000000000000000000000000000 000000000000000A000000000000000000000000000000000000000000000 000000000000000000000000000000000000000     00000000                                                                                                                        000000000000000000
F0010000008855900003000007213133300042505000000000000000000201607150002001ALVARO ALBERTO FANDIÑO GOMEZ                     C000000000100000000000000000000000100010010000000000000000000000F0010000008855900320160715000101 00000000000000000000000000000000000000000000000000000000000000000000000000000000000000000000000000000000000000000N 00000000000NCONT   00    00000000000          00000000000000000000000000000000000000000000 000000000000000A000000000000000000000000000000000000000000000 000000000000000000000000000000000000000     00000000                                                                                                                        000000000000000000
F0010000008855900004000007213133300023658300000000000000000201607150002001ALVARO ALBERTO FANDIÑO GOMEZ                     C000000000008000000000000000000000100010010000000000000000000000F0010000008855900420160715000101 00000000000000000000000000000000000000000000000000000000000000000000000000000000000000000000000000000000000000000N 00000000000NCONT   00    00000000000          00000000000000000000000000000000000000000000 000000000000000A000000000000000000000000000000000000000000000 000000000000000000000000000000000000000     00000000                                                                                                                        000000000000000000
F0010000008855900005000007213133300013552100000000000000000201607150002001ALVARO ALBERTO FANDIÑO GOMEZ                     D000000000008000000000000000000000100010010000000000000000000000F0010000008855900520160715000101 00000000000000000000000000000000000000000000000000000000000000000000000000000000000000000000000000000000000000000N 00000000000NCONT   00    00000000000          00000000000000000000000000000000000000000000 000000000000000A000000000000000000000000000000000000000000000 000000000000000000000000000000000000000     00000000                                                                                                                        000000000000000000
F0010000008856000001000000868846900011050500000000000000000201607150002001NICOLAS DE LA HOZ SAUCEDO                         D000000001100000000000000000000000100010010000000000000000000000F0010000008856000120160715000101 00000000000000000000000000000000000000000000000000000000000000000000000000000000000000000000000000000000000000000N 00000000000NCONT   00    00000000000          00000000000000000000000000000000000000000000 000000000000000A000000000000000000000000000000000000000000000 000000000000000000000000000000000000000     00000000                                                                                                                        000000000000000000
F0010000008856000002000000868846900041450500000000000000000201607150002001NICOLAS DE LA HOZ SAUCEDO                         C000000000950000000000000000000000100010010000000000000000000000F0010000008856000220160715000101 00000000000000000000000000000000000000000000000000000000000000000000000000000000000000000000000000000000000000000N 00000000000NCONT   00    00000000000          00000000000000000000000000000000000000000000 000000000000000A000000000000000000000000000000000000000000000 000000000000000000000000000000000000000     00000000                                                                                                                        000000000000000000
F0010000008856000003000000868846900042505000000000000000000201607150002001NICOLAS DE LA HOZ SAUCEDO                         C000000000150000000000000000000000100010010000000000000000000000F0010000008856000320160715000101 00000000000000000000000000000000000000000000000000000000000000000000000000000000000000000000000000000000000000000N 00000000000NCONT   00    00000000000          00000000000000000000000000000000000000000000 000000000000000A000000000000000000000000000000000000000000000 000000000000000000000000000000000000000     00000000                                                                                                                        000000000000000000
F0010000008856000004000000868846900023658300000000000000000201607150002001NICOLAS DE LA HOZ SAUCEDO                         C000000000007600000000000000000000100010010000000000000000000000F0010000008856000420160715000101 00000000000000000000000000000000000000000000000000000000000000000000000000000000000000000000000000000000000000000N 00000000000NCONT   00    00000000000          00000000000000000000000000000000000000000000 000000000000000A000000000000000000000000000000000000000000000 000000000000000000000000000000000000000     00000000                                                                                                                        000000000000000000
F0010000008856000005000000868846900013552100000000000000000201607150002001NICOLAS DE LA HOZ SAUCEDO                         D000000000007600000000000000000000100010010000000000000000000000F0010000008856000520160715000101 00000000000000000000000000000000000000000000000000000000000000000000000000000000000000000000000000000000000000000N 00000000000NCONT   00    00000000000          00000000000000000000000000000000000000000000 000000000000000A000000000000000000000000000000000000000000000 000000000000000000000000000000000000000     00000000                                                                                                                        000000000000000000
F0010000008856100001000090020547900011050500000000000000000201607150002001COMERCIALIZADORA DAC DEL CARIBE S.A.S.            D000000005200000000000000000000000100010010000000000000000000000F0010000008856100120160715000101 00000000000000000000000000000000000000000000000000000000000000000000000000000000000000000000000000000000000000000N 00000000000NCONT   00    00000000000          00000000000000000000000000000000000000000000 000000000000000A000000000000000000000000000000000000000000000 000000000000000000000000000000000000000     00000000                                                                                                                        000000000000000000
F0010000008856100002000090020547900041450500000000000000000201607150002001COMERCIALIZADORA DAC DEL CARIBE S.A.S.            C000000004400000000000000000000000100010010000000000000000000000F0010000008856100220160715000101 00000000000000000000000000000000000000000000000000000000000000000000000000000000000000000000000000000000000000000N 00000000000NCONT   00    00000000000          00000000000000000000000000000000000000000000 000000000000000A000000000000000000000000000000000000000000000 000000000000000000000000000000000000000     00000000                                                                                                                        000000000000000000
F0010000008856100003000090020547900042505000000000000000000201607150002001COMERCIALIZADORA DAC DEL CARIBE S.A.S.            C000000000800000000000000000000000100010010000000000000000000000F0010000008856100320160715000101 00000000000000000000000000000000000000000000000000000000000000000000000000000000000000000000000000000000000000000N 00000000000NCONT   00    00000000000          00000000000000000000000000000000000000000000 000000000000000A000000000000000000000000000000000000000000000 000000000000000000000000000000000000000     00000000                                                                                                                        000000000000000000
F0010000008856100004000090020547900023658300000000000000000201607150002001COMERCIALIZADORA DAC DEL CARIBE S.A.S.            C000000000035200000000000000000000100010010000000000000000000000F0010000008856100420160715000101 00000000000000000000000000000000000000000000000000000000000000000000000000000000000000000000000000000000000000000N 00000000000NCONT   00    00000000000          00000000000000000000000000000000000000000000 000000000000000A000000000000000000000000000000000000000000000 000000000000000000000000000000000000000     00000000                                                                                                                        000000000000000000
F0010000008856100005000090020547900013552100000000000000000201607150002001COMERCIALIZADORA DAC DEL CARIBE S.A.S.            D000000000035200000000000000000000100010010000000000000000000000F0010000008856100520160715000101 00000000000000000000000000000000000000000000000000000000000000000000000000000000000000000000000000000000000000000N 00000000000NCONT   00    00000000000          00000000000000000000000000000000000000000000 000000000000000A000000000000000000000000000000000000000000000 000000000000000000000000000000000000000     00000000                                                                                                                        000000000000000000
F0010000008856200001000090020547900011050500000000000000000201607150002001COMERCIALIZADORA DAC DEL CARIBE S.A.S.            D000000004200000000000000000000000100010010000000000000000000000F0010000008856200120160715000101 00000000000000000000000000000000000000000000000000000000000000000000000000000000000000000000000000000000000000000N 00000000000NCONT   00    00000000000          00000000000000000000000000000000000000000000 000000000000000A000000000000000000000000000000000000000000000 000000000000000000000000000000000000000     00000000                                                                                                                        000000000000000000
F0010000008856200002000090020547900041450500000000000000000201607150002001COMERCIALIZADORA DAC DEL CARIBE S.A.S.            C000000003000000000000000000000000100010010000000000000000000000F0010000008856200220160715000101 00000000000000000000000000000000000000000000000000000000000000000000000000000000000000000000000000000000000000000N 00000000000NCONT   00    00000000000          00000000000000000000000000000000000000000000 000000000000000A000000000000000000000000000000000000000000000 000000000000000000000000000000000000000     00000000                                                                                                                        000000000000000000
F0010000008856200003000090020547900042505000000000000000000201607150002001COMERCIALIZADORA DAC DEL CARIBE S.A.S.            C000000001200000000000000000000000100010010000000000000000000000F0010000008856200320160715000101 00000000000000000000000000000000000000000000000000000000000000000000000000000000000000000000000000000000000000000N 00000000000NCONT   00    00000000000          00000000000000000000000000000000000000000000 000000000000000A000000000000000000000000000000000000000000000 000000000000000000000000000000000000000     00000000                                                                                                                        000000000000000000
F0010000008856200004000090020547900023658300000000000000000201607150002001COMERCIALIZADORA DAC DEL CARIBE S.A.S.            C000000000024000000000000000000000100010010000000000000000000000F0010000008856200420160715000101 00000000000000000000000000000000000000000000000000000000000000000000000000000000000000000000000000000000000000000N 00000000000NCONT   00    00000000000          00000000000000000000000000000000000000000000 000000000000000A000000000000000000000000000000000000000000000 000000000000000000000000000000000000000     00000000                                                                                                                        000000000000000000
F0010000008856200005000090020547900013552100000000000000000201607150002001COMERCIALIZADORA DAC DEL CARIBE S.A.S.            D000000000024000000000000000000000100010010000000000000000000000F0010000008856200520160715000101 00000000000000000000000000000000000000000000000000000000000000000000000000000000000000000000000000000000000000000N 00000000000NCONT   00    00000000000          00000000000000000000000000000000000000000000 000000000000000A000000000000000000000000000000000000000000000 000000000000000000000000000000000000000     00000000                                                                                                                        000000000000000000
F0010000008856300001000090020547900011050500000000000000000201607150002001COMERCIALIZADORA DAC DEL CARIBE S.A.S.            D000000003200000000000000000000000100010010000000000000000000000F0010000008856300120160715000101 00000000000000000000000000000000000000000000000000000000000000000000000000000000000000000000000000000000000000000N 00000000000NCONT   00    00000000000          00000000000000000000000000000000000000000000 000000000000000A000000000000000000000000000000000000000000000 000000000000000000000000000000000000000     00000000                                                                                                                        000000000000000000
F0010000008856300002000090020547900041450500000000000000000201607150002001COMERCIALIZADORA DAC DEL CARIBE S.A.S.            C000000002600000000000000000000000100010010000000000000000000000F0010000008856300220160715000101 00000000000000000000000000000000000000000000000000000000000000000000000000000000000000000000000000000000000000000N 00000000000NCONT   00    00000000000          00000000000000000000000000000000000000000000 000000000000000A000000000000000000000000000000000000000000000 000000000000000000000000000000000000000     00000000                                                                                                                        000000000000000000
F0010000008856300003000090020547900042505000000000000000000201607150002001COMERCIALIZADORA DAC DEL CARIBE S.A.S.            C000000000600000000000000000000000100010010000000000000000000000F0010000008856300320160715000101 00000000000000000000000000000000000000000000000000000000000000000000000000000000000000000000000000000000000000000N 00000000000NCONT   00    00000000000          00000000000000000000000000000000000000000000 000000000000000A000000000000000000000000000000000000000000000 000000000000000000000000000000000000000     00000000                                                                                                                        000000000000000000
F0010000008856300004000090020547900023658300000000000000000201607150002001COMERCIALIZADORA DAC DEL CARIBE S.A.S.            C000000000020800000000000000000000100010010000000000000000000000F0010000008856300420160715000101 00000000000000000000000000000000000000000000000000000000000000000000000000000000000000000000000000000000000000000N 00000000000NCONT   00    00000000000          00000000000000000000000000000000000000000000 000000000000000A000000000000000000000000000000000000000000000 000000000000000000000000000000000000000     00000000                                                                                                                        000000000000000000
F0010000008856300005000090020547900013552100000000000000000201607150002001COMERCIALIZADORA DAC DEL CARIBE S.A.S.            D000000000020800000000000000000000100010010000000000000000000000F0010000008856300520160715000101 00000000000000000000000000000000000000000000000000000000000000000000000000000000000000000000000000000000000000000N 00000000000NCONT   00    00000000000          00000000000000000000000000000000000000000000 000000000000000A000000000000000000000000000000000000000000000 000000000000000000000000000000000000000     00000000                                                                                                                        000000000000000000
F0010000008856400001000007213653800011050500000000000000000201607150002001VICTOR ECHAVEZ                                    D000000001600000000000000000000000100010010000000000000000000000F0010000008856400120160715000101 00000000000000000000000000000000000000000000000000000000000000000000000000000000000000000000000000000000000000000N 00000000000NCONT   00    00000000000          00000000000000000000000000000000000000000000 000000000000000A000000000000000000000000000000000000000000000 000000000000000000000000000000000000000     00000000                                                                                                                        000000000000000000
F0010000008856400002000007213653800041450500000000000000000201607150002001VICTOR ECHAVEZ                                    C000000000900000000000000000000000100010010000000000000000000000F0010000008856400220160715000101 00000000000000000000000000000000000000000000000000000000000000000000000000000000000000000000000000000000000000000N 00000000000NCONT   00    00000000000          00000000000000000000000000000000000000000000 000000000000000A000000000000000000000000000000000000000000000 000000000000000000000000000000000000000     00000000                                                                                                                        000000000000000000
F0010000008856400003000007213653800042505000000000000000000201607150002001VICTOR ECHAVEZ                                    C000000000700000000000000000000000100010010000000000000000000000F0010000008856400320160715000101 00000000000000000000000000000000000000000000000000000000000000000000000000000000000000000000000000000000000000000N 00000000000NCONT   00    00000000000          00000000000000000000000000000000000000000000 000000000000000A000000000000000000000000000000000000000000000 000000000000000000000000000000000000000     00000000                                                                                                                        000000000000000000
F0010000008856400004000007213653800023658300000000000000000201607150002001VICTOR ECHAVEZ                                    C000000000007200000000000000000000100010010000000000000000000000F0010000008856400420160715000101 00000000000000000000000000000000000000000000000000000000000000000000000000000000000000000000000000000000000000000N 00000000000NCONT   00    00000000000          00000000000000000000000000000000000000000000 000000000000000A000000000000000000000000000000000000000000000 000000000000000000000000000000000000000     00000000                                                                                                                        000000000000000000
F0010000008856400005000007213653800013552100000000000000000201607150002001VICTOR ECHAVEZ                                    D000000000007200000000000000000000100010010000000000000000000000F0010000008856400520160715000101 00000000000000000000000000000000000000000000000000000000000000000000000000000000000000000000000000000000000000000N 00000000000NCONT   00    00000000000          00000000000000000000000000000000000000000000 000000000000000A000000000000000000000000000000000000000000000 000000000000000000000000000000000000000     00000000                                                                                                                        000000000000000000
F0010000008856500001000007213653800011050500000000000000000201607150002001VICTOR ECHAVEZ                                    D000000010000000000000000000000000100010010000000000000000000000F0010000008856500120160715000101 00000000000000000000000000000000000000000000000000000000000000000000000000000000000000000000000000000000000000000N 00000000000NCONT   00    00000000000          00000000000000000000000000000000000000000000 000000000000000A000000000000000000000000000000000000000000000 000000000000000000000000000000000000000     00000000                                                                                                                        000000000000000000
F0010000008856500002000007213653800041450500000000000000000201607150002001VICTOR ECHAVEZ                                    C000000006300000000000000000000000100010010000000000000000000000F0010000008856500220160715000101 00000000000000000000000000000000000000000000000000000000000000000000000000000000000000000000000000000000000000000N 00000000000NCONT   00    00000000000          00000000000000000000000000000000000000000000 000000000000000A000000000000000000000000000000000000000000000 000000000000000000000000000000000000000     00000000                                                                                                                        000000000000000000
F0010000008856500003000007213653800042505000000000000000000201607150002001VICTOR ECHAVEZ                                    C000000003700000000000000000000000100010010000000000000000000000F0010000008856500320160715000101 00000000000000000000000000000000000000000000000000000000000000000000000000000000000000000000000000000000000000000N 00000000000NCONT   00    00000000000          00000000000000000000000000000000000000000000 000000000000000A000000000000000000000000000000000000000000000 000000000000000000000000000000000000000     00000000                                                                                                                        000000000000000000
F0010000008856500004000007213653800023658300000000000000000201607150002001VICTOR ECHAVEZ                                    C000000000050400000000000000000000100010010000000000000000000000F0010000008856500420160715000101 00000000000000000000000000000000000000000000000000000000000000000000000000000000000000000000000000000000000000000N 00000000000NCONT   00    00000000000          00000000000000000000000000000000000000000000 000000000000000A000000000000000000000000000000000000000000000 000000000000000000000000000000000000000     00000000                                                                                                                        000000000000000000
F0010000008856500005000007213653800013552100000000000000000201607150002001VICTOR ECHAVEZ                                    D000000000050400000000000000000000100010010000000000000000000000F0010000008856500520160715000101 00000000000000000000000000000000000000000000000000000000000000000000000000000000000000000000000000000000000000000N 00000000000NCONT   00    00000000000          00000000000000000000000000000000000000000000 000000000000000A000000000000000000000000000000000000000000000 000000000000000000000000000000000000000     00000000                                                                                                                        000000000000000000
F0010000008856600001000090087846000011050500000000000000000201607150002001INTERCOMERCIAL DL SAS                             D000000002300000000000000000000000100010010000000000000000000000F0010000008856600120160715000101 00000000000000000000000000000000000000000000000000000000000000000000000000000000000000000000000000000000000000000N 00000000000NCONT   00    00000000000          00000000000000000000000000000000000000000000 000000000000000A000000000000000000000000000000000000000000000 000000000000000000000000000000000000000     00000000                                                                                                                        000000000000000000
F0010000008856600002000090087846000041450500000000000000000201607150002001INTERCOMERCIAL DL SAS                             C000000002200000000000000000000000100010010000000000000000000000F0010000008856600220160715000101 00000000000000000000000000000000000000000000000000000000000000000000000000000000000000000000000000000000000000000N 00000000000NCONT   00    00000000000          00000000000000000000000000000000000000000000 000000000000000A000000000000000000000000000000000000000000000 000000000000000000000000000000000000000     00000000                                                                                                                        000000000000000000
F0010000008856600003000090087846000042505000000000000000000201607150002001INTERCOMERCIAL DL SAS                             C000000000100000000000000000000000100010010000000000000000000000F0010000008856600320160715000101 00000000000000000000000000000000000000000000000000000000000000000000000000000000000000000000000000000000000000000N 00000000000NCONT   00    00000000000          00000000000000000000000000000000000000000000 000000000000000A000000000000000000000000000000000000000000000 000000000000000000000000000000000000000     00000000                                                                                                                        000000000000000000
F0010000008856600004000090087846000023658300000000000000000201607150002001INTERCOMERCIAL DL SAS                             C000000000017600000000000000000000100010010000000000000000000000F0010000008856600420160715000101 00000000000000000000000000000000000000000000000000000000000000000000000000000000000000000000000000000000000000000N 00000000000NCONT   00    00000000000          00000000000000000000000000000000000000000000 000000000000000A000000000000000000000000000000000000000000000 000000000000000000000000000000000000000     00000000                                                                                                                        000000000000000000
F0010000008856600005000090087846000013552100000000000000000201607150002001INTERCOMERCIAL DL SAS                             D000000000017600000000000000000000100010010000000000000000000000F0010000008856600520160715000101 00000000000000000000000000000000000000000000000000000000000000000000000000000000000000000000000000000000000000000N 00000000000NCONT   00    00000000000          00000000000000000000000000000000000000000000 000000000000000A000000000000000000000000000000000000000000000 000000000000000000000000000000000000000     00000000                                                                                                                        000000000000000000
F0010000008856700001000090087846000011050500000000000000000201607150002001INTERCOMERCIAL DL SAS                             D000000001400000000000000000000000100010010000000000000000000000F0010000008856700120160715000101 00000000000000000000000000000000000000000000000000000000000000000000000000000000000000000000000000000000000000000N 00000000000NCONT   00    00000000000          00000000000000000000000000000000000000000000 000000000000000A000000000000000000000000000000000000000000000 000000000000000000000000000000000000000     00000000                                                                                                                        000000000000000000
F0010000008856700002000090087846000041450500000000000000000201607150002001INTERCOMERCIAL DL SAS                             C000000001300000000000000000000000100010010000000000000000000000F0010000008856700220160715000101 00000000000000000000000000000000000000000000000000000000000000000000000000000000000000000000000000000000000000000N 00000000000NCONT   00    00000000000          00000000000000000000000000000000000000000000 000000000000000A000000000000000000000000000000000000000000000 000000000000000000000000000000000000000     00000000                                                                                                                        000000000000000000
F0010000008856700003000090087846000042505000000000000000000201607150002001INTERCOMERCIAL DL SAS                             C000000000100000000000000000000000100010010000000000000000000000F0010000008856700320160715000101 00000000000000000000000000000000000000000000000000000000000000000000000000000000000000000000000000000000000000000N 00000000000NCONT   00    00000000000          00000000000000000000000000000000000000000000 000000000000000A000000000000000000000000000000000000000000000 000000000000000000000000000000000000000     00000000                                                                                                                        000000000000000000
F0010000008856700004000090087846000023658300000000000000000201607150002001INTERCOMERCIAL DL SAS                             C000000000010400000000000000000000100010010000000000000000000000F0010000008856700420160715000101 00000000000000000000000000000000000000000000000000000000000000000000000000000000000000000000000000000000000000000N 00000000000NCONT   00    00000000000          00000000000000000000000000000000000000000000 000000000000000A000000000000000000000000000000000000000000000 000000000000000000000000000000000000000     00000000                                                                                                                        000000000000000000
F0010000008856700005000090087846000013552100000000000000000201607150002001INTERCOMERCIAL DL SAS                             D000000000010400000000000000000000100010010000000000000000000000F0010000008856700520160715000101 00000000000000000000000000000000000000000000000000000000000000000000000000000000000000000000000000000000000000000N 00000000000NCONT   00    00000000000          00000000000000000000000000000000000000000000 000000000000000A000000000000000000000000000000000000000000000 000000000000000000000000000000000000000     00000000                                                                                                                        000000000000000000
F0010000008856800001000000866840800011050500000000000000000201607150002001CACHARRERIA MARTIN                                D000000000950000000000000000000000100010010000000000000000000000F0010000008856800120160715000101 00000000000000000000000000000000000000000000000000000000000000000000000000000000000000000000000000000000000000000N 00000000000NCONT   00    00000000000          00000000000000000000000000000000000000000000 000000000000000A000000000000000000000000000000000000000000000 000000000000000000000000000000000000000     00000000                                                                                                                        000000000000000000
F0010000008856800002000000866840800041450500000000000000000201607150002001CACHARRERIA MARTIN                                C000000000850000000000000000000000100010010000000000000000000000F0010000008856800220160715000101 00000000000000000000000000000000000000000000000000000000000000000000000000000000000000000000000000000000000000000N 00000000000NCONT   00    00000000000          00000000000000000000000000000000000000000000 000000000000000A000000000000000000000000000000000000000000000 000000000000000000000000000000000000000     00000000                                                                                                                        000000000000000000
F0010000008856800003000000866840800042505000000000000000000201607150002001CACHARRERIA MARTIN                                C000000000100000000000000000000000100010010000000000000000000000F0010000008856800320160715000101 00000000000000000000000000000000000000000000000000000000000000000000000000000000000000000000000000000000000000000N 00000000000NCONT   00    00000000000          00000000000000000000000000000000000000000000 000000000000000A000000000000000000000000000000000000000000000 000000000000000000000000000000000000000     00000000                                                                                                                        000000000000000000
F0010000008856800004000000866840800023658300000000000000000201607150002001CACHARRERIA MARTIN                                C000000000006800000000000000000000100010010000000000000000000000F0010000008856800420160715000101 00000000000000000000000000000000000000000000000000000000000000000000000000000000000000000000000000000000000000000N 00000000000NCONT   00    00000000000          00000000000000000000000000000000000000000000 000000000000000A000000000000000000000000000000000000000000000 000000000000000000000000000000000000000     00000000                                                                                                                        000000000000000000
F0010000008856800005000000866840800013552100000000000000000201607150002001CACHARRERIA MARTIN                                D000000000006800000000000000000000100010010000000000000000000000F0010000008856800520160715000101 00000000000000000000000000000000000000000000000000000000000000000000000000000000000000000000000000000000000000000N 00000000000NCONT   00    00000000000          00000000000000000000000000000000000000000000 000000000000000A000000000000000000000000000000000000000000000 000000000000000000000000000000000000000     00000000                                                                                                                        000000000000000000
F0010000008856900001000090061985600011050500000000000000000201607150002001COMERCIALIZADORA PATRY SAS                        D000000001100000000000000000000000100010010000000000000000000000F0010000008856900120160715000101 00000000000000000000000000000000000000000000000000000000000000000000000000000000000000000000000000000000000000000N 00000000000NCONT   00    00000000000          00000000000000000000000000000000000000000000 000000000000000A000000000000000000000000000000000000000000000 000000000000000000000000000000000000000     00000000                                                                                                                        000000000000000000
F0010000008856900002000090061985600041450500000000000000000201607150002001COMERCIALIZADORA PATRY SAS                        C000000000900000000000000000000000100010010000000000000000000000F0010000008856900220160715000101 00000000000000000000000000000000000000000000000000000000000000000000000000000000000000000000000000000000000000000N 00000000000NCONT   00    00000000000          00000000000000000000000000000000000000000000 000000000000000A000000000000000000000000000000000000000000000 000000000000000000000000000000000000000     00000000                                                                                                                        000000000000000000
F0010000008856900003000090061985600042505000000000000000000201607150002001COMERCIALIZADORA PATRY SAS                        C000000000200000000000000000000000100010010000000000000000000000F0010000008856900320160715000101 00000000000000000000000000000000000000000000000000000000000000000000000000000000000000000000000000000000000000000N 00000000000NCONT   00    00000000000          00000000000000000000000000000000000000000000 000000000000000A000000000000000000000000000000000000000000000 000000000000000000000000000000000000000     00000000                                                                                                                        000000000000000000
F0010000008856900004000090061985600023658300000000000000000201607150002001COMERCIALIZADORA PATRY SAS                        C000000000007200000000000000000000100010010000000000000000000000F0010000008856900420160715000101 00000000000000000000000000000000000000000000000000000000000000000000000000000000000000000000000000000000000000000N 00000000000NCONT   00    00000000000          00000000000000000000000000000000000000000000 000000000000000A000000000000000000000000000000000000000000000 000000000000000000000000000000000000000     00000000                                                                                                                        000000000000000000
F0010000008856900005000090061985600013552100000000000000000201607150002001COMERCIALIZADORA PATRY SAS                        D000000000007200000000000000000000100010010000000000000000000000F0010000008856900520160715000101 00000000000000000000000000000000000000000000000000000000000000000000000000000000000000000000000000000000000000000N 00000000000NCONT   00    00000000000          00000000000000000000000000000000000000000000 000000000000000A000000000000000000000000000000000000000000000 000000000000000000000000000000000000000     00000000                                                                                                                        000000000000000000
F0010000008857000001000090061985600011050500000000000000000201607150002001COMERCIALIZADORA PATRY SAS                        D000000001200000000000000000000000100010010000000000000000000000F0010000008857000120160715000101 00000000000000000000000000000000000000000000000000000000000000000000000000000000000000000000000000000000000000000N 00000000000NCONT   00    00000000000          00000000000000000000000000000000000000000000 000000000000000A000000000000000000000000000000000000000000000 000000000000000000000000000000000000000     00000000                                                                                                                        000000000000000000
F0010000008857000002000090061985600041450500000000000000000201607150002001COMERCIALIZADORA PATRY SAS                        C000000000900000000000000000000000100010010000000000000000000000F0010000008857000220160715000101 00000000000000000000000000000000000000000000000000000000000000000000000000000000000000000000000000000000000000000N 00000000000NCONT   00    00000000000          00000000000000000000000000000000000000000000 000000000000000A000000000000000000000000000000000000000000000 000000000000000000000000000000000000000     00000000                                                                                                                        000000000000000000
F0010000008857000003000090061985600042505000000000000000000201607150002001COMERCIALIZADORA PATRY SAS                        C000000000300000000000000000000000100010010000000000000000000000F0010000008857000320160715000101 00000000000000000000000000000000000000000000000000000000000000000000000000000000000000000000000000000000000000000N 00000000000NCONT   00    00000000000          00000000000000000000000000000000000000000000 000000000000000A000000000000000000000000000000000000000000000 000000000000000000000000000000000000000     00000000                                                                                                                        000000000000000000
F0010000008857000004000090061985600023658300000000000000000201607150002001COMERCIALIZADORA PATRY SAS                        C000000000007200000000000000000000100010010000000000000000000000F0010000008857000420160715000101 00000000000000000000000000000000000000000000000000000000000000000000000000000000000000000000000000000000000000000N 00000000000NCONT   00    00000000000          00000000000000000000000000000000000000000000 000000000000000A000000000000000000000000000000000000000000000 000000000000000000000000000000000000000     00000000                                                                                                                        000000000000000000
F0010000008857000005000090061985600013552100000000000000000201607150002001COMERCIALIZADORA PATRY SAS                        D000000000007200000000000000000000100010010000000000000000000000F0010000008857000520160715000101 00000000000000000000000000000000000000000000000000000000000000000000000000000000000000000000000000000000000000000N 00000000000NCONT   00    00000000000          00000000000000000000000000000000000000000000 000000000000000A000000000000000000000000000000000000000000000 000000000000000000000000000000000000000     00000000                                                                                                                        000000000000000000
F0010000008857100001000090061985600011050500000000000000000201607150002001COMERCIALIZADORA PATRY SAS                        D000000001400000000000000000000000100010010000000000000000000000F0010000008857100120160715000101 00000000000000000000000000000000000000000000000000000000000000000000000000000000000000000000000000000000000000000N 00000000000NCONT   00    00000000000          00000000000000000000000000000000000000000000 000000000000000A000000000000000000000000000000000000000000000 000000000000000000000000000000000000000     00000000                                                                                                                        000000000000000000
F0010000008857100002000090061985600041450500000000000000000201607150002001COMERCIALIZADORA PATRY SAS                        C000000000900000000000000000000000100010010000000000000000000000F0010000008857100220160715000101 00000000000000000000000000000000000000000000000000000000000000000000000000000000000000000000000000000000000000000N 00000000000NCONT   00    00000000000          00000000000000000000000000000000000000000000 000000000000000A000000000000000000000000000000000000000000000 000000000000000000000000000000000000000     00000000                                                                                                                        000000000000000000
F0010000008857100003000090061985600042505000000000000000000201607150002001COMERCIALIZADORA PATRY SAS                        C000000000500000000000000000000000100010010000000000000000000000F0010000008857100320160715000101 00000000000000000000000000000000000000000000000000000000000000000000000000000000000000000000000000000000000000000N 00000000000NCONT   00    00000000000          00000000000000000000000000000000000000000000 000000000000000A000000000000000000000000000000000000000000000 000000000000000000000000000000000000000     00000000                                                                                                                        000000000000000000
F0010000008857100004000090061985600023658300000000000000000201607150002001COMERCIALIZADORA PATRY SAS                        C000000000007200000000000000000000100010010000000000000000000000F0010000008857100420160715000101 00000000000000000000000000000000000000000000000000000000000000000000000000000000000000000000000000000000000000000N 00000000000NCONT   00    00000000000          00000000000000000000000000000000000000000000 000000000000000A000000000000000000000000000000000000000000000 000000000000000000000000000000000000000     00000000                                                                                                                        000000000000000000
F0010000008857100005000090061985600013552100000000000000000201607150002001COMERCIALIZADORA PATRY SAS                        D000000000007200000000000000000000100010010000000000000000000000F0010000008857100520160715000101 00000000000000000000000000000000000000000000000000000000000000000000000000000000000000000000000000000000000000000N 00000000000NCONT   00    00000000000          00000000000000000000000000000000000000000000 000000000000000A000000000000000000000000000000000000000000000 000000000000000000000000000000000000000     00000000                                                                                                                        000000000000000000
F0010000008857200001000102390001700011050500000000000000000201607150002001LILIANA HERNANDEZ PINILLA                         D000000006400000000000000000000000100010010000000000000000000000F0010000008857200120160715000101 00000000000000000000000000000000000000000000000000000000000000000000000000000000000000000000000000000000000000000N 00000000000NCONT   00    00000000000          00000000000000000000000000000000000000000000 000000000000000A000000000000000000000000000000000000000000000 000000000000000000000000000000000000000     00000000                                                                                                                        000000000000000000
F0010000008857200002000102390001700041450500000000000000000201607150002001LILIANA HERNANDEZ PINILLA                         C000000005400000000000000000000000100010010000000000000000000000F0010000008857200220160715000101 00000000000000000000000000000000000000000000000000000000000000000000000000000000000000000000000000000000000000000N 00000000000NCONT   00    00000000000          00000000000000000000000000000000000000000000 000000000000000A000000000000000000000000000000000000000000000 000000000000000000000000000000000000000     00000000                                                                                                                        000000000000000000
F0010000008857200003000102390001700042505000000000000000000201607150002001LILIANA HERNANDEZ PINILLA                         C000000001000000000000000000000000100010010000000000000000000000F0010000008857200320160715000101 00000000000000000000000000000000000000000000000000000000000000000000000000000000000000000000000000000000000000000N 00000000000NCONT   00    00000000000          00000000000000000000000000000000000000000000 000000000000000A000000000000000000000000000000000000000000000 000000000000000000000000000000000000000     00000000                                                                                                                        000000000000000000
F0010000008857200004000102390001700023658300000000000000000201607150002001LILIANA HERNANDEZ PINILLA                         C000000000043200000000000000000000100010010000000000000000000000F0010000008857200420160715000101 00000000000000000000000000000000000000000000000000000000000000000000000000000000000000000000000000000000000000000N 00000000000NCONT   00    00000000000          00000000000000000000000000000000000000000000 000000000000000A000000000000000000000000000000000000000000000 000000000000000000000000000000000000000     00000000                                                                                                                        000000000000000000
F0010000008857200005000102390001700013552100000000000000000201607150002001LILIANA HERNANDEZ PINILLA                         D000000000043200000000000000000000100010010000000000000000000000F0010000008857200520160715000101 00000000000000000000000000000000000000000000000000000000000000000000000000000000000000000000000000000000000000000N 00000000000NCONT   00    00000000000          00000000000000000000000000000000000000000000 000000000000000A000000000000000000000000000000000000000000000 000000000000000000000000000000000000000     00000000                                                                                                                        000000000000000000
F0010000008857300001000102390001700011050500000000000000000201607150002001LILIANA HERNANDEZ PINILLA                         D000000003000000000000000000000000100010010000000000000000000000F0010000008857300120160715000101 00000000000000000000000000000000000000000000000000000000000000000000000000000000000000000000000000000000000000000N 00000000000NCONT   00    00000000000          00000000000000000000000000000000000000000000 000000000000000A000000000000000000000000000000000000000000000 000000000000000000000000000000000000000     00000000                                                                                                                        000000000000000000
F0010000008857300002000102390001700041450500000000000000000201607150002001LILIANA HERNANDEZ PINILLA                         C000000002000000000000000000000000100010010000000000000000000000F0010000008857300220160715000101 00000000000000000000000000000000000000000000000000000000000000000000000000000000000000000000000000000000000000000N 00000000000NCONT   00    00000000000          00000000000000000000000000000000000000000000 000000000000000A000000000000000000000000000000000000000000000 000000000000000000000000000000000000000     00000000                                                                                                                        000000000000000000
F0010000008857300003000102390001700042505000000000000000000201607150002001LILIANA HERNANDEZ PINILLA                         C000000001000000000000000000000000100010010000000000000000000000F0010000008857300320160715000101 00000000000000000000000000000000000000000000000000000000000000000000000000000000000000000000000000000000000000000N 00000000000NCONT   00    00000000000          00000000000000000000000000000000000000000000 000000000000000A000000000000000000000000000000000000000000000 000000000000000000000000000000000000000     00000000                                                                                                                        000000000000000000
F0010000008857300004000102390001700023658300000000000000000201607150002001LILIANA HERNANDEZ PINILLA                         C000000000016000000000000000000000100010010000000000000000000000F0010000008857300420160715000101 00000000000000000000000000000000000000000000000000000000000000000000000000000000000000000000000000000000000000000N 00000000000NCONT   00    00000000000          00000000000000000000000000000000000000000000 000000000000000A000000000000000000000000000000000000000000000 000000000000000000000000000000000000000     00000000                                                                                                                        000000000000000000
F0010000008857300005000102390001700013552100000000000000000201607150002001LILIANA HERNANDEZ PINILLA                         D000000000016000000000000000000000100010010000000000000000000000F0010000008857300520160715000101 00000000000000000000000000000000000000000000000000000000000000000000000000000000000000000000000000000000000000000N 00000000000NCONT   00    00000000000          00000000000000000000000000000000000000000000 000000000000000A000000000000000000000000000000000000000000000 000000000000000000000000000000000000000     00000000                                                                                                                        000000000000000000
F0010000008857400001000002245670100011050500000000000000000201607150002001YOLANDA  TOBON                                    D000000001342800000000000000000000100010010000000000000000000000F0010000008857400120160715000101 00000000000000000000000000000000000000000000000000000000000000000000000000000000000000000000000000000000000000000N 00000000000NCONT   00    00000000000          00000000000000000000000000000000000000000000 000000000000000A000000000000000000000000000000000000000000000 000000000000000000000000000000000000000     00000000                                                                                                                        000000000000000000
F0010000008857400002000002245670100041450500000000000000000201607150002001YOLANDA  TOBON                                    C000000000970000000000000000000000100010010000000000000000000000F0010000008857400220160715000101 00000000000000000000000000000000000000000000000000000000000000000000000000000000000000000000000000000000000000000N 00000000000NCONT   00    00000000000          00000000000000000000000000000000000000000000 000000000000000A000000000000000000000000000000000000000000000 000000000000000000000000000000000000000     00000000                                                                                                                        000000000000000000
F0010000008857400003000002245670100042505000000000000000000201607150002001YOLANDA  TOBON                                    C000000000372800000000000000000000100010010000000000000000000000F0010000008857400320160715000101 00000000000000000000000000000000000000000000000000000000000000000000000000000000000000000000000000000000000000000N 00000000000NCONT   00    00000000000          00000000000000000000000000000000000000000000 000000000000000A000000000000000000000000000000000000000000000 000000000000000000000000000000000000000     00000000                                                                                                                        000000000000000000
F0010000008857400004000002245670100023658300000000000000000201607150002001YOLANDA  TOBON                                    C000000000007800000000000000000000100010010000000000000000000000F0010000008857400420160715000101 00000000000000000000000000000000000000000000000000000000000000000000000000000000000000000000000000000000000000000N 00000000000NCONT   00    00000000000          00000000000000000000000000000000000000000000 000000000000000A000000000000000000000000000000000000000000000 000000000000000000000000000000000000000     00000000                                                                                                                        000000000000000000
F0010000008857400005000002245670100013552100000000000000000201607150002001YOLANDA  TOBON                                    D000000000007800000000000000000000100010010000000000000000000000F0010000008857400520160715000101 00000000000000000000000000000000000000000000000000000000000000000000000000000000000000000000000000000000000000000N 00000000000NCONT   00    00000000000          00000000000000000000000000000000000000000000 000000000000000A000000000000000000000000000000000000000000000 000000000000000000000000000000000000000     00000000                                                                                                                        000000000000000000
F0010000008857500001000090020872300011050500000000000000000201607150002001INTERSOLES SAS                                    D000000004400000000000000000000000100010010000000000000000000000F0010000008857500120160715000101 00000000000000000000000000000000000000000000000000000000000000000000000000000000000000000000000000000000000000000N 00000000000NCONT   00    00000000000          00000000000000000000000000000000000000000000 000000000000000A000000000000000000000000000000000000000000000 000000000000000000000000000000000000000     00000000                                                                                                                        000000000000000000
F0010000008857500002000090020872300041450500000000000000000201607150002001INTERSOLES SAS                                    C000000004000000000000000000000000100010010000000000000000000000F0010000008857500220160715000101 00000000000000000000000000000000000000000000000000000000000000000000000000000000000000000000000000000000000000000N 00000000000NCONT   00    00000000000          00000000000000000000000000000000000000000000 000000000000000A000000000000000000000000000000000000000000000 000000000000000000000000000000000000000     00000000                                                                                                                        000000000000000000
F0010000008857500003000090020872300042505000000000000000000201607150002001INTERSOLES SAS                                    C000000000400000000000000000000000100010010000000000000000000000F0010000008857500320160715000101 00000000000000000000000000000000000000000000000000000000000000000000000000000000000000000000000000000000000000000N 00000000000NCONT   00    00000000000          00000000000000000000000000000000000000000000 000000000000000A000000000000000000000000000000000000000000000 000000000000000000000000000000000000000     00000000                                                                                                                        000000000000000000
F0010000008857500004000090020872300023658300000000000000000201607150002001INTERSOLES SAS                                    C000000000032000000000000000000000100010010000000000000000000000F0010000008857500420160715000101 00000000000000000000000000000000000000000000000000000000000000000000000000000000000000000000000000000000000000000N 00000000000NCONT   00    00000000000          00000000000000000000000000000000000000000000 000000000000000A000000000000000000000000000000000000000000000 000000000000000000000000000000000000000     00000000                                                                                                                        000000000000000000
F0010000008857500005000090020872300013552100000000000000000201607150002001INTERSOLES SAS                                    D000000000032000000000000000000000100010010000000000000000000000F0010000008857500520160715000101 00000000000000000000000000000000000000000000000000000000000000000000000000000000000000000000000000000000000000000N 00000000000NCONT   00    00000000000          00000000000000000000000000000000000000000000 000000000000000A000000000000000000000000000000000000000000000 000000000000000000000000000000000000000     00000000                                                                                                                        000000000000000000
F0010000008857600001000086000259000011050500000000000000000201607150002001BRENNTAG COLOMBIA S.A.                            D000000007440000000000000000000000100010010000000000000000000000F0010000008857600120160715000101 00000000000000000000000000000000000000000000000000000000000000000000000000000000000000000000000000000000000000000N 00000000000NCONT   00    00000000000          00000000000000000000000000000000000000000000 000000000000000A000000000000000000000000000000000000000000000 000000000000000000000000000000000000000     00000000                                                                                                                        000000000000000000
F0010000008857600002000086000259000041450500000000000000000201607150002001BRENNTAG COLOMBIA S.A.                            C000000006940000000000000000000000100010010000000000000000000000F0010000008857600220160715000101 00000000000000000000000000000000000000000000000000000000000000000000000000000000000000000000000000000000000000000N 00000000000NCONT   00    00000000000          00000000000000000000000000000000000000000000 000000000000000A000000000000000000000000000000000000000000000 000000000000000000000000000000000000000     00000000                                                                                                                        000000000000000000
F0010000008857600003000086000259000042505000000000000000000201607150002001BRENNTAG COLOMBIA S.A.                            C000000000500000000000000000000000100010010000000000000000000000F0010000008857600320160715000101 00000000000000000000000000000000000000000000000000000000000000000000000000000000000000000000000000000000000000000N 00000000000NCONT   00    00000000000          00000000000000000000000000000000000000000000 000000000000000A000000000000000000000000000000000000000000000 000000000000000000000000000000000000000     00000000                                                                                                                        000000000000000000
F0010000008857600004000086000259000023658300000000000000000201607150002001BRENNTAG COLOMBIA S.A.                            C000000000055500000000000000000000100010010000000000000000000000F0010000008857600420160715000101 00000000000000000000000000000000000000000000000000000000000000000000000000000000000000000000000000000000000000000N 00000000000NCONT   00    00000000000          00000000000000000000000000000000000000000000 000000000000000A000000000000000000000000000000000000000000000 000000000000000000000000000000000000000     00000000                                                                                                                        000000000000000000
F0010000008857600005000086000259000013552100000000000000000201607150002001BRENNTAG COLOMBIA S.A.                            D000000000055500000000000000000000100010010000000000000000000000F0010000008857600520160715000101 00000000000000000000000000000000000000000000000000000000000000000000000000000000000000000000000000000000000000000N 00000000000NCONT   00    00000000000          00000000000000000000000000000000000000000000 000000000000000A000000000000000000000000000000000000000000000 000000000000000000000000000000000000000     00000000                                                                                                                        000000000000000000
F0010000008857700001000002242325800011050500000000000000000201607150002001JULIA ORTEGA                                      D000000013200000000000000000000000100010010000000000000000000000F0010000008857700120160715000101 00000000000000000000000000000000000000000000000000000000000000000000000000000000000000000000000000000000000000000N 00000000000NCONT   00    00000000000          00000000000000000000000000000000000000000000 000000000000000A000000000000000000000000000000000000000000000 000000000000000000000000000000000000000     00000000                                                                                                                        000000000000000000
F0010000008857700002000002242325800041450500000000000000000201607150002001JULIA ORTEGA                                      C000000013000000000000000000000000100010010000000000000000000000F0010000008857700220160715000101 00000000000000000000000000000000000000000000000000000000000000000000000000000000000000000000000000000000000000000N 00000000000NCONT   00    00000000000          00000000000000000000000000000000000000000000 000000000000000A000000000000000000000000000000000000000000000 000000000000000000000000000000000000000     00000000                                                                                                                        000000000000000000
F0010000008857700003000002242325800042505000000000000000000201607150002001JULIA ORTEGA                                      C000000000200000000000000000000000100010010000000000000000000000F0010000008857700320160715000101 00000000000000000000000000000000000000000000000000000000000000000000000000000000000000000000000000000000000000000N 00000000000NCONT   00    00000000000          00000000000000000000000000000000000000000000 000000000000000A000000000000000000000000000000000000000000000 000000000000000000000000000000000000000     00000000                                                                                                                        000000000000000000
F0010000008857700004000002242325800023658300000000000000000201607150002001JULIA ORTEGA                                      C000000000104000000000000000000000100010010000000000000000000000F0010000008857700420160715000101 00000000000000000000000000000000000000000000000000000000000000000000000000000000000000000000000000000000000000000N 00000000000NCONT   00    00000000000          00000000000000000000000000000000000000000000 000000000000000A000000000000000000000000000000000000000000000 000000000000000000000000000000000000000     00000000                                                                                                                        000000000000000000
F0010000008857700005000002242325800013552100000000000000000201607150002001JULIA ORTEGA                                      D000000000104000000000000000000000100010010000000000000000000000F0010000008857700520160715000101 00000000000000000000000000000000000000000000000000000000000000000000000000000000000000000000000000000000000000000N 00000000000NCONT   00    00000000000          00000000000000000000000000000000000000000000 000000000000000A000000000000000000000000000000000000000000000 000000000000000000000000000000000000000     00000000                                                                                                                        000000000000000000
F0010000008857800001000090001736600011050500000000000000000201607150002001AF SUMINISTROS E.U.                               D000000011000000000000000000000000100010010000000000000000000000F0010000008857800120160715000101 00000000000000000000000000000000000000000000000000000000000000000000000000000000000000000000000000000000000000000N 00000000000NCONT   00    00000000000          00000000000000000000000000000000000000000000 000000000000000A000000000000000000000000000000000000000000000 000000000000000000000000000000000000000     00000000                                                                                                                        000000000000000000
F0010000008857800002000090001736600041450500000000000000000201607150002001AF SUMINISTROS E.U.                               C000000010500000000000000000000000100010010000000000000000000000F0010000008857800220160715000101 00000000000000000000000000000000000000000000000000000000000000000000000000000000000000000000000000000000000000000N 00000000000NCONT   00    00000000000          00000000000000000000000000000000000000000000 000000000000000A000000000000000000000000000000000000000000000 000000000000000000000000000000000000000     00000000                                                                                                                        000000000000000000
F0010000008857800003000090001736600042505000000000000000000201607150002001AF SUMINISTROS E.U.                               C000000000500000000000000000000000100010010000000000000000000000F0010000008857800320160715000101 00000000000000000000000000000000000000000000000000000000000000000000000000000000000000000000000000000000000000000N 00000000000NCONT   00    00000000000          00000000000000000000000000000000000000000000 000000000000000A000000000000000000000000000000000000000000000 000000000000000000000000000000000000000     00000000                                                                                                                        000000000000000000
F0010000008857800004000090001736600023658300000000000000000201607150002001AF SUMINISTROS E.U.                               C000000000084000000000000000000000100010010000000000000000000000F0010000008857800420160715000101 00000000000000000000000000000000000000000000000000000000000000000000000000000000000000000000000000000000000000000N 00000000000NCONT   00    00000000000          00000000000000000000000000000000000000000000 000000000000000A000000000000000000000000000000000000000000000 000000000000000000000000000000000000000     00000000                                                                                                                        000000000000000000
F0010000008857800005000090001736600013552100000000000000000201607150002001AF SUMINISTROS E.U.                               D000000000084000000000000000000000100010010000000000000000000000F0010000008857800520160715000101 00000000000000000000000000000000000000000000000000000000000000000000000000000000000000000000000000000000000000000N 00000000000NCONT   00    00000000000          00000000000000000000000000000000000000000000 000000000000000A000000000000000000000000000000000000000000000 000000000000000000000000000000000000000     00000000                                                                                                                        000000000000000000
F0010000008857900001000000871573200011050500000000000000000201607150002001ACCESORIAS ARQUITECTONI KJ                        D000000002600000000000000000000000100010010000000000000000000000F0010000008857900120160715000101 00000000000000000000000000000000000000000000000000000000000000000000000000000000000000000000000000000000000000000N 00000000000NCONT   00    00000000000          00000000000000000000000000000000000000000000 000000000000000A000000000000000000000000000000000000000000000 000000000000000000000000000000000000000     00000000                                                                                                                        000000000000000000
F0010000008857900002000000871573200041450500000000000000000201607150002001ACCESORIAS ARQUITECTONI KJ                        C000000001300000000000000000000000100010010000000000000000000000F0010000008857900220160715000101 00000000000000000000000000000000000000000000000000000000000000000000000000000000000000000000000000000000000000000N 00000000000NCONT   00    00000000000          00000000000000000000000000000000000000000000 000000000000000A000000000000000000000000000000000000000000000 000000000000000000000000000000000000000     00000000                                                                                                                        000000000000000000
F0010000008857900003000000871573200042505000000000000000000201607150002001ACCESORIAS ARQUITECTONI KJ                        C000000001300000000000000000000000100010010000000000000000000000F0010000008857900320160715000101 00000000000000000000000000000000000000000000000000000000000000000000000000000000000000000000000000000000000000000N 00000000000NCONT   00    00000000000          00000000000000000000000000000000000000000000 000000000000000A000000000000000000000000000000000000000000000 000000000000000000000000000000000000000     00000000                                                                                                                        000000000000000000
F0010000008857900004000000871573200023658300000000000000000201607150002001ACCESORIAS ARQUITECTONI KJ                        C000000000010400000000000000000000100010010000000000000000000000F0010000008857900420160715000101 00000000000000000000000000000000000000000000000000000000000000000000000000000000000000000000000000000000000000000N 00000000000NCONT   00    00000000000          00000000000000000000000000000000000000000000 000000000000000A000000000000000000000000000000000000000000000 000000000000000000000000000000000000000     00000000                                                                                                                        000000000000000000
F0010000008857900005000000871573200013552100000000000000000201607150002001ACCESORIAS ARQUITECTONI KJ                        D000000000010400000000000000000000100010010000000000000000000000F0010000008857900520160715000101 00000000000000000000000000000000000000000000000000000000000000000000000000000000000000000000000000000000000000000N 00000000000NCONT   00    00000000000          00000000000000000000000000000000000000000000 000000000000000A000000000000000000000000000000000000000000000 000000000000000000000000000000000000000     00000000                                                                                                                        000000000000000000
F0010000008858000001000000431178400011050500000000000000000201607150002001EFRAIN ALVAREZ                                    D000000001855000000000000000000000100010010000000000000000000000F0010000008858000120160715000101 00000000000000000000000000000000000000000000000000000000000000000000000000000000000000000000000000000000000000000N 00000000000NCONT   00    00000000000          00000000000000000000000000000000000000000000 000000000000000A000000000000000000000000000000000000000000000 000000000000000000000000000000000000000     00000000                                                                                                                        000000000000000000
F0010000008858000002000000431178400041450500000000000000000201607150002001EFRAIN ALVAREZ                                    C000000001730000000000000000000000100010010000000000000000000000F0010000008858000220160715000101 00000000000000000000000000000000000000000000000000000000000000000000000000000000000000000000000000000000000000000N 00000000000NCONT   00    00000000000          00000000000000000000000000000000000000000000 000000000000000A000000000000000000000000000000000000000000000 000000000000000000000000000000000000000     00000000                                                                                                                        000000000000000000
F0010000008858000003000000431178400042505000000000000000000201607150002001EFRAIN ALVAREZ                                    C000000000125000000000000000000000100010010000000000000000000000F0010000008858000320160715000101 00000000000000000000000000000000000000000000000000000000000000000000000000000000000000000000000000000000000000000N 00000000000NCONT   00    00000000000          00000000000000000000000000000000000000000000 000000000000000A000000000000000000000000000000000000000000000 000000000000000000000000000000000000000     00000000                                                                                                                        000000000000000000
F0010000008858000004000000431178400023658300000000000000000201607150002001EFRAIN ALVAREZ                                    C000000000013800000000000000000000100010010000000000000000000000F0010000008858000420160715000101 00000000000000000000000000000000000000000000000000000000000000000000000000000000000000000000000000000000000000000N 00000000000NCONT   00    00000000000          00000000000000000000000000000000000000000000 000000000000000A000000000000000000000000000000000000000000000 000000000000000000000000000000000000000     00000000                                                                                                                        000000000000000000
F0010000008858000005000000431178400013552100000000000000000201607150002001EFRAIN ALVAREZ                                    D000000000013800000000000000000000100010010000000000000000000000F0010000008858000520160715000101 00000000000000000000000000000000000000000000000000000000000000000000000000000000000000000000000000000000000000000N 00000000000NCONT   00    00000000000          00000000000000000000000000000000000000000000 000000000000000A000000000000000000000000000000000000000000000 000000000000000000000000000000000000000     00000000                                                                                                                        000000000000000000
F0010000008858100001000000431178400011050500000000000000000201607150002001EFRAIN ALVAREZ                                    D000000001370000000000000000000000100010010000000000000000000000F0010000008858100120160715000101 00000000000000000000000000000000000000000000000000000000000000000000000000000000000000000000000000000000000000000N 00000000000NCONT   00    00000000000          00000000000000000000000000000000000000000000 000000000000000A000000000000000000000000000000000000000000000 000000000000000000000000000000000000000     00000000                                                                                                                        000000000000000000
F0010000008858100002000000431178400041450500000000000000000201607150002001EFRAIN ALVAREZ                                    C000000001270000000000000000000000100010010000000000000000000000F0010000008858100220160715000101 00000000000000000000000000000000000000000000000000000000000000000000000000000000000000000000000000000000000000000N 00000000000NCONT   00    00000000000          00000000000000000000000000000000000000000000 000000000000000A000000000000000000000000000000000000000000000 000000000000000000000000000000000000000     00000000                                                                                                                        000000000000000000
