F0010000006683800001000007225219800011050500000000000000000201501090002001MAURICIO ALVAREZ VARELO                           D000000005440000000000000000000000100010010000000000000000000000F0010000006683800120150109000101 00000000000000000000000000000000000000000000000000000000000000000000000000000000000000000000000000000000000000000N 00000000000NCONT   00    00000000000          00000000000000000000000000000000000000000000 000000000000000A000000000000000000000000000000000000000000000 000000000000000000000000000000000000000     00000000                                                                                                                        000000000000000000
F0010000006683800002000007225219800041450500000000000000000201501090002001MAURICIO ALVAREZ VARELO                           C000000004340000000000000000000000100010010000000000000000000000F0010000006683800220150109000101 00000000000000000000000000000000000000000000000000000000000000000000000000000000000000000000000000000000000000000N 00000000000NCONT   00    00000000000          00000000000000000000000000000000000000000000 000000000000000A000000000000000000000000000000000000000000000 000000000000000000000000000000000000000     00000000                                                                                                                        000000000000000000
F0010000006683800003000007225219800042505000000000000000000201501090002001MAURICIO ALVAREZ VARELO                           C000000001100000000000000000000000100010010000000000000000000000F0010000006683800320150109000101 00000000000000000000000000000000000000000000000000000000000000000000000000000000000000000000000000000000000000000N 00000000000NCONT   00    00000000000          00000000000000000000000000000000000000000000 000000000000000A000000000000000000000000000000000000000000000 000000000000000000000000000000000000000     00000000                                                                                                                        000000000000000000
F0010000006683800004000007225219800023658300000000000000000201501090002001MAURICIO ALVAREZ VARELO                           C000000000034700000000000000000000100010010000000000000000000000F0010000006683800420150109000101 00000000000000000000000000000000000000000000000000000000000000000000000000000000000000000000000000000000000000000N 00000000000NCONT   00    00000000000          00000000000000000000000000000000000000000000 000000000000000A000000000000000000000000000000000000000000000 000000000000000000000000000000000000000     00000000                                                                                                                        000000000000000000
F0010000006683800005000007225219800013552100000000000000000201501090002001MAURICIO ALVAREZ VARELO                           D000000000034700000000000000000000100010010000000000000000000000F0010000006683800520150109000101 00000000000000000000000000000000000000000000000000000000000000000000000000000000000000000000000000000000000000000N 00000000000NCONT   00    00000000000          00000000000000000000000000000000000000000000 000000000000000A000000000000000000000000000000000000000000000 000000000000000000000000000000000000000     00000000                                                                                                                        000000000000000000
F0010000006683900001000089011033000011050500000000000000000201501090002001INDUSTRIAS CRUZ & CAÑON LTDA                     D000000020000000000000000000000000100010010000000000000000000000F0010000006683900120150109000101 00000000000000000000000000000000000000000000000000000000000000000000000000000000000000000000000000000000000000000N 00000000000NCONT   00    00000000000          00000000000000000000000000000000000000000000 000000000000000A000000000000000000000000000000000000000000000 000000000000000000000000000000000000000     00000000                                                                                                                        000000000000000000
F0010000006683900002000089011033000041450500000000000000000201501090002001INDUSTRIAS CRUZ & CAÑON LTDA                     C000000019000000000000000000000000100010010000000000000000000000F0010000006683900220150109000101 00000000000000000000000000000000000000000000000000000000000000000000000000000000000000000000000000000000000000000N 00000000000NCONT   00    00000000000          00000000000000000000000000000000000000000000 000000000000000A000000000000000000000000000000000000000000000 000000000000000000000000000000000000000     00000000                                                                                                                        000000000000000000
F0010000006683900003000089011033000042505000000000000000000201501090002001INDUSTRIAS CRUZ & CAÑON LTDA                     C000000001000000000000000000000000100010010000000000000000000000F0010000006683900320150109000101 00000000000000000000000000000000000000000000000000000000000000000000000000000000000000000000000000000000000000000N 00000000000NCONT   00    00000000000          00000000000000000000000000000000000000000000 000000000000000A000000000000000000000000000000000000000000000 000000000000000000000000000000000000000     00000000                                                                                                                        000000000000000000
F0010000006683900004000089011033000023658300000000000000000201501090002001INDUSTRIAS CRUZ & CAÑON LTDA                     C000000000152000000000000000000000100010010000000000000000000000F0010000006683900420150109000101 00000000000000000000000000000000000000000000000000000000000000000000000000000000000000000000000000000000000000000N 00000000000NCONT   00    00000000000          00000000000000000000000000000000000000000000 000000000000000A000000000000000000000000000000000000000000000 000000000000000000000000000000000000000     00000000                                                                                                                        000000000000000000
F0010000006683900005000089011033000013552100000000000000000201501090002001INDUSTRIAS CRUZ & CAÑON LTDA                     D000000000152000000000000000000000100010010000000000000000000000F0010000006683900520150109000101 00000000000000000000000000000000000000000000000000000000000000000000000000000000000000000000000000000000000000000N 00000000000NCONT   00    00000000000          00000000000000000000000000000000000000000000 000000000000000A000000000000000000000000000000000000000000000 000000000000000000000000000000000000000     00000000                                                                                                                        000000000000000000
F0010000006684000001000000745551800011050500000000000000000201501090002001DEPOSITO LA PIMIENTA                              D000000001300000000000000000000000100010010000000000000000000000F0010000006684000120150109000101 00000000000000000000000000000000000000000000000000000000000000000000000000000000000000000000000000000000000000000N 00000000000NCONT   00    00000000000          00000000000000000000000000000000000000000000 000000000000000A000000000000000000000000000000000000000000000 000000000000000000000000000000000000000     00000000                                                                                                                        000000000000000000
F0010000006684000002000000745551800041450500000000000000000201501090002001DEPOSITO LA PIMIENTA                              C000000001200000000000000000000000100010010000000000000000000000F0010000006684000220150109000101 00000000000000000000000000000000000000000000000000000000000000000000000000000000000000000000000000000000000000000N 00000000000NCONT   00    00000000000          00000000000000000000000000000000000000000000 000000000000000A000000000000000000000000000000000000000000000 000000000000000000000000000000000000000     00000000                                                                                                                        000000000000000000
F0010000006684000003000000745551800042505000000000000000000201501090002001DEPOSITO LA PIMIENTA                              C000000000100000000000000000000000100010010000000000000000000000F0010000006684000320150109000101 00000000000000000000000000000000000000000000000000000000000000000000000000000000000000000000000000000000000000000N 00000000000NCONT   00    00000000000          00000000000000000000000000000000000000000000 000000000000000A000000000000000000000000000000000000000000000 000000000000000000000000000000000000000     00000000                                                                                                                        000000000000000000
F0010000006684000004000000745551800023658300000000000000000201501090002001DEPOSITO LA PIMIENTA                              C000000000009600000000000000000000100010010000000000000000000000F0010000006684000420150109000101 00000000000000000000000000000000000000000000000000000000000000000000000000000000000000000000000000000000000000000N 00000000000NCONT   00    00000000000          00000000000000000000000000000000000000000000 000000000000000A000000000000000000000000000000000000000000000 000000000000000000000000000000000000000     00000000                                                                                                                        000000000000000000
F0010000006684000005000000745551800013552100000000000000000201501090002001DEPOSITO LA PIMIENTA                              D000000000009600000000000000000000100010010000000000000000000000F0010000006684000520150109000101 00000000000000000000000000000000000000000000000000000000000000000000000000000000000000000000000000000000000000000N 00000000000NCONT   00    00000000000          00000000000000000000000000000000000000000000 000000000000000A000000000000000000000000000000000000000000000 000000000000000000000000000000000000000     00000000                                                                                                                        000000000000000000
F0010000006684100001000090027633800011050500000000000000000201501090002001MALLAS Y CERRAMIENTOS DEL ATLANTICO LTDA          D000000004000000000000000000000000100010010000000000000000000000F0010000006684100120150109000101 00000000000000000000000000000000000000000000000000000000000000000000000000000000000000000000000000000000000000000N 00000000000NCONT   00    00000000000          00000000000000000000000000000000000000000000 000000000000000A000000000000000000000000000000000000000000000 000000000000000000000000000000000000000     00000000                                                                                                                        000000000000000000
F0010000006684100002000090027633800041450500000000000000000201501090002001MALLAS Y CERRAMIENTOS DEL ATLANTICO LTDA          C000000003500000000000000000000000100010010000000000000000000000F0010000006684100220150109000101 00000000000000000000000000000000000000000000000000000000000000000000000000000000000000000000000000000000000000000N 00000000000NCONT   00    00000000000          00000000000000000000000000000000000000000000 000000000000000A000000000000000000000000000000000000000000000 000000000000000000000000000000000000000     00000000                                                                                                                        000000000000000000
F0010000006684100003000090027633800042505000000000000000000201501090002001MALLAS Y CERRAMIENTOS DEL ATLANTICO LTDA          C000000000500000000000000000000000100010010000000000000000000000F0010000006684100320150109000101 00000000000000000000000000000000000000000000000000000000000000000000000000000000000000000000000000000000000000000N 00000000000NCONT   00    00000000000          00000000000000000000000000000000000000000000 000000000000000A000000000000000000000000000000000000000000000 000000000000000000000000000000000000000     00000000                                                                                                                        000000000000000000
F0010000006684100004000090027633800023658300000000000000000201501090002001MALLAS Y CERRAMIENTOS DEL ATLANTICO LTDA          C000000000028000000000000000000000100010010000000000000000000000F0010000006684100420150109000101 00000000000000000000000000000000000000000000000000000000000000000000000000000000000000000000000000000000000000000N 00000000000NCONT   00    00000000000          00000000000000000000000000000000000000000000 000000000000000A000000000000000000000000000000000000000000000 000000000000000000000000000000000000000     00000000                                                                                                                        000000000000000000
F0010000006684100005000090027633800013552100000000000000000201501090002001MALLAS Y CERRAMIENTOS DEL ATLANTICO LTDA          D000000000028000000000000000000000100010010000000000000000000000F0010000006684100520150109000101 00000000000000000000000000000000000000000000000000000000000000000000000000000000000000000000000000000000000000000N 00000000000NCONT   00    00000000000          00000000000000000000000000000000000000000000 000000000000000A000000000000000000000000000000000000000000000 000000000000000000000000000000000000000     00000000                                                                                                                        000000000000000000
F0010000006684200001000090034602400011050500000000000000000201501090002001LA CUSTODIA                                       D000000002600000000000000000000000100010010000000000000000000000F0010000006684200120150109000101 00000000000000000000000000000000000000000000000000000000000000000000000000000000000000000000000000000000000000000N 00000000000NCONT   00    00000000000          00000000000000000000000000000000000000000000 000000000000000A000000000000000000000000000000000000000000000 000000000000000000000000000000000000000     00000000                                                                                                                        000000000000000000
F0010000006684200002000090034602400041450500000000000000000201501090002001LA CUSTODIA                                       C000000002400000000000000000000000100010010000000000000000000000F0010000006684200220150109000101 00000000000000000000000000000000000000000000000000000000000000000000000000000000000000000000000000000000000000000N 00000000000NCONT   00    00000000000          00000000000000000000000000000000000000000000 000000000000000A000000000000000000000000000000000000000000000 000000000000000000000000000000000000000     00000000                                                                                                                        000000000000000000
F0010000006684200003000090034602400042505000000000000000000201501090002001LA CUSTODIA                                       C000000000200000000000000000000000100010010000000000000000000000F0010000006684200320150109000101 00000000000000000000000000000000000000000000000000000000000000000000000000000000000000000000000000000000000000000N 00000000000NCONT   00    00000000000          00000000000000000000000000000000000000000000 000000000000000A000000000000000000000000000000000000000000000 000000000000000000000000000000000000000     00000000                                                                                                                        000000000000000000
F0010000006684200004000090034602400023658300000000000000000201501090002001LA CUSTODIA                                       C000000000019200000000000000000000100010010000000000000000000000F0010000006684200420150109000101 00000000000000000000000000000000000000000000000000000000000000000000000000000000000000000000000000000000000000000N 00000000000NCONT   00    00000000000          00000000000000000000000000000000000000000000 000000000000000A000000000000000000000000000000000000000000000 000000000000000000000000000000000000000     00000000                                                                                                                        000000000000000000
F0010000006684200005000090034602400013552100000000000000000201501090002001LA CUSTODIA                                       D000000000019200000000000000000000100010010000000000000000000000F0010000006684200520150109000101 00000000000000000000000000000000000000000000000000000000000000000000000000000000000000000000000000000000000000000N 00000000000NCONT   00    00000000000          00000000000000000000000000000000000000000000 000000000000000A000000000000000000000000000000000000000000000 000000000000000000000000000000000000000     00000000                                                                                                                        000000000000000000
F0010000006684300001000007233989800011050500000000000000000201501090002001DEIVIS AGUERO VALIENTE                            D000000001500000000000000000000000100010010000000000000000000000F0010000006684300120150109000101 00000000000000000000000000000000000000000000000000000000000000000000000000000000000000000000000000000000000000000N 00000000000NCONT   00    00000000000          00000000000000000000000000000000000000000000 000000000000000A000000000000000000000000000000000000000000000 000000000000000000000000000000000000000     00000000                                                                                                                        000000000000000000
F0010000006684300002000007233989800041450500000000000000000201501090002001DEIVIS AGUERO VALIENTE                            C000000001200000000000000000000000100010010000000000000000000000F0010000006684300220150109000101 00000000000000000000000000000000000000000000000000000000000000000000000000000000000000000000000000000000000000000N 00000000000NCONT   00    00000000000          00000000000000000000000000000000000000000000 000000000000000A000000000000000000000000000000000000000000000 000000000000000000000000000000000000000     00000000                                                                                                                        000000000000000000
F0010000006684300003000007233989800042505000000000000000000201501090002001DEIVIS AGUERO VALIENTE                            C000000000300000000000000000000000100010010000000000000000000000F0010000006684300320150109000101 00000000000000000000000000000000000000000000000000000000000000000000000000000000000000000000000000000000000000000N 00000000000NCONT   00    00000000000          00000000000000000000000000000000000000000000 000000000000000A000000000000000000000000000000000000000000000 000000000000000000000000000000000000000     00000000                                                                                                                        000000000000000000
F0010000006684300004000007233989800023658300000000000000000201501090002001DEIVIS AGUERO VALIENTE                            C000000000009600000000000000000000100010010000000000000000000000F0010000006684300420150109000101 00000000000000000000000000000000000000000000000000000000000000000000000000000000000000000000000000000000000000000N 00000000000NCONT   00    00000000000          00000000000000000000000000000000000000000000 000000000000000A000000000000000000000000000000000000000000000 000000000000000000000000000000000000000     00000000                                                                                                                        000000000000000000
F0010000006684300005000007233989800013552100000000000000000201501090002001DEIVIS AGUERO VALIENTE                            D000000000009600000000000000000000100010010000000000000000000000F0010000006684300520150109000101 00000000000000000000000000000000000000000000000000000000000000000000000000000000000000000000000000000000000000000N 00000000000NCONT   00    00000000000          00000000000000000000000000000000000000000000 000000000000000A000000000000000000000000000000000000000000000 000000000000000000000000000000000000000     00000000                                                                                                                        000000000000000000
F0010000006684400001000090027500500011050500000000000000000201501090002001MULTIALUMINIO LA 30 S.A.S.                        D000000002000000000000000000000000100010010000000000000000000000F0010000006684400120150109000101 00000000000000000000000000000000000000000000000000000000000000000000000000000000000000000000000000000000000000000N 00000000000NCONT   00    00000000000          00000000000000000000000000000000000000000000 000000000000000A000000000000000000000000000000000000000000000 000000000000000000000000000000000000000     00000000                                                                                                                        000000000000000000
F0010000006684400002000090027500500041450500000000000000000201501090002001MULTIALUMINIO LA 30 S.A.S.                        C000000001700000000000000000000000100010010000000000000000000000F0010000006684400220150109000101 00000000000000000000000000000000000000000000000000000000000000000000000000000000000000000000000000000000000000000N 00000000000NCONT   00    00000000000          00000000000000000000000000000000000000000000 000000000000000A000000000000000000000000000000000000000000000 000000000000000000000000000000000000000     00000000                                                                                                                        000000000000000000
F0010000006684400003000090027500500042505000000000000000000201501090002001MULTIALUMINIO LA 30 S.A.S.                        C000000000300000000000000000000000100010010000000000000000000000F0010000006684400320150109000101 00000000000000000000000000000000000000000000000000000000000000000000000000000000000000000000000000000000000000000N 00000000000NCONT   00    00000000000          00000000000000000000000000000000000000000000 000000000000000A000000000000000000000000000000000000000000000 000000000000000000000000000000000000000     00000000                                                                                                                        000000000000000000
F0010000006684400004000090027500500023658300000000000000000201501090002001MULTIALUMINIO LA 30 S.A.S.                        C000000000013600000000000000000000100010010000000000000000000000F0010000006684400420150109000101 00000000000000000000000000000000000000000000000000000000000000000000000000000000000000000000000000000000000000000N 00000000000NCONT   00    00000000000          00000000000000000000000000000000000000000000 000000000000000A000000000000000000000000000000000000000000000 000000000000000000000000000000000000000     00000000                                                                                                                        000000000000000000
F0010000006684400005000090027500500013552100000000000000000201501090002001MULTIALUMINIO LA 30 S.A.S.                        D000000000013600000000000000000000100010010000000000000000000000F0010000006684400520150109000101 00000000000000000000000000000000000000000000000000000000000000000000000000000000000000000000000000000000000000000N 00000000000NCONT   00    00000000000          00000000000000000000000000000000000000000000 000000000000000A000000000000000000000000000000000000000000000 000000000000000000000000000000000000000     00000000                                                                                                                        000000000000000000
F0010000006684500001000080201411900011050500000000000000000201501090002001PLASTISERVICIOS S DE H                            D000000002100000000000000000000000100010010000000000000000000000F0010000006684500120150109000101 00000000000000000000000000000000000000000000000000000000000000000000000000000000000000000000000000000000000000000N 00000000000NCONT   00    00000000000          00000000000000000000000000000000000000000000 000000000000000A000000000000000000000000000000000000000000000 000000000000000000000000000000000000000     00000000                                                                                                                        000000000000000000
F0010000006684500002000080201411900041450500000000000000000201501090002001PLASTISERVICIOS S DE H                            C000000001800000000000000000000000100010010000000000000000000000F0010000006684500220150109000101 00000000000000000000000000000000000000000000000000000000000000000000000000000000000000000000000000000000000000000N 00000000000NCONT   00    00000000000          00000000000000000000000000000000000000000000 000000000000000A000000000000000000000000000000000000000000000 000000000000000000000000000000000000000     00000000                                                                                                                        000000000000000000
F0010000006684500003000080201411900042505000000000000000000201501090002001PLASTISERVICIOS S DE H                            C000000000300000000000000000000000100010010000000000000000000000F0010000006684500320150109000101 00000000000000000000000000000000000000000000000000000000000000000000000000000000000000000000000000000000000000000N 00000000000NCONT   00    00000000000          00000000000000000000000000000000000000000000 000000000000000A000000000000000000000000000000000000000000000 000000000000000000000000000000000000000     00000000                                                                                                                        000000000000000000
F0010000006684500004000080201411900023658300000000000000000201501090002001PLASTISERVICIOS S DE H                            C000000000014400000000000000000000100010010000000000000000000000F0010000006684500420150109000101 00000000000000000000000000000000000000000000000000000000000000000000000000000000000000000000000000000000000000000N 00000000000NCONT   00    00000000000          00000000000000000000000000000000000000000000 000000000000000A000000000000000000000000000000000000000000000 000000000000000000000000000000000000000     00000000                                                                                                                        000000000000000000
F0010000006684500005000080201411900013552100000000000000000201501090002001PLASTISERVICIOS S DE H                            D000000000014400000000000000000000100010010000000000000000000000F0010000006684500520150109000101 00000000000000000000000000000000000000000000000000000000000000000000000000000000000000000000000000000000000000000N 00000000000NCONT   00    00000000000          00000000000000000000000000000000000000000000 000000000000000A000000000000000000000000000000000000000000000 000000000000000000000000000000000000000     00000000                                                                                                                        000000000000000000
F0010000006684600001000090050144800011050500000000000000000201501090002001PLASTICOS JR ASOCIADOS SAS                        D000000006600000000000000000000000100010010000000000000000000000F0010000006684600120150109000101 00000000000000000000000000000000000000000000000000000000000000000000000000000000000000000000000000000000000000000N 00000000000NCONT   00    00000000000          00000000000000000000000000000000000000000000 000000000000000A000000000000000000000000000000000000000000000 000000000000000000000000000000000000000     00000000                                                                                                                        000000000000000000
F0010000006684600002000090050144800041450500000000000000000201501090002001PLASTICOS JR ASOCIADOS SAS                        C000000006000000000000000000000000100010010000000000000000000000F0010000006684600220150109000101 00000000000000000000000000000000000000000000000000000000000000000000000000000000000000000000000000000000000000000N 00000000000NCONT   00    00000000000          00000000000000000000000000000000000000000000 000000000000000A000000000000000000000000000000000000000000000 000000000000000000000000000000000000000     00000000                                                                                                                        000000000000000000
F0010000006684600003000090050144800042505000000000000000000201501090002001PLASTICOS JR ASOCIADOS SAS                        C000000000600000000000000000000000100010010000000000000000000000F0010000006684600320150109000101 00000000000000000000000000000000000000000000000000000000000000000000000000000000000000000000000000000000000000000N 00000000000NCONT   00    00000000000          00000000000000000000000000000000000000000000 000000000000000A000000000000000000000000000000000000000000000 000000000000000000000000000000000000000     00000000                                                                                                                        000000000000000000
F0010000006684600004000090050144800023658300000000000000000201501090002001PLASTICOS JR ASOCIADOS SAS                        C000000000048000000000000000000000100010010000000000000000000000F0010000006684600420150109000101 00000000000000000000000000000000000000000000000000000000000000000000000000000000000000000000000000000000000000000N 00000000000NCONT   00    00000000000          00000000000000000000000000000000000000000000 000000000000000A000000000000000000000000000000000000000000000 000000000000000000000000000000000000000     00000000                                                                                                                        000000000000000000
F0010000006684600005000090050144800013552100000000000000000201501090002001PLASTICOS JR ASOCIADOS SAS                        D000000000048000000000000000000000100010010000000000000000000000F0010000006684600520150109000101 00000000000000000000000000000000000000000000000000000000000000000000000000000000000000000000000000000000000000000N 00000000000NCONT   00    00000000000          00000000000000000000000000000000000000000000 000000000000000A000000000000000000000000000000000000000000000 000000000000000000000000000000000000000     00000000                                                                                                                        000000000000000000
F0010000006684700001000000870907300011050500000000000000000201501090002001SURTIDOR FERRETERO                                D000000011000000000000000000000000100010010000000000000000000000F0010000006684700120150109000101 00000000000000000000000000000000000000000000000000000000000000000000000000000000000000000000000000000000000000000N 00000000000NCONT   00    00000000000          00000000000000000000000000000000000000000000 000000000000000A000000000000000000000000000000000000000000000 000000000000000000000000000000000000000     00000000                                                                                                                        000000000000000000
F0010000006684700002000000870907300041450500000000000000000201501090002001SURTIDOR FERRETERO                                C000000006600000000000000000000000100010010000000000000000000000F0010000006684700220150109000101 00000000000000000000000000000000000000000000000000000000000000000000000000000000000000000000000000000000000000000N 00000000000NCONT   00    00000000000          00000000000000000000000000000000000000000000 000000000000000A000000000000000000000000000000000000000000000 000000000000000000000000000000000000000     00000000                                                                                                                        000000000000000000
F0010000006684700003000000870907300042505000000000000000000201501090002001SURTIDOR FERRETERO                                C000000004400000000000000000000000100010010000000000000000000000F0010000006684700320150109000101 00000000000000000000000000000000000000000000000000000000000000000000000000000000000000000000000000000000000000000N 00000000000NCONT   00    00000000000          00000000000000000000000000000000000000000000 000000000000000A000000000000000000000000000000000000000000000 000000000000000000000000000000000000000     00000000                                                                                                                        000000000000000000
F0010000006684700004000000870907300023658300000000000000000201501090002001SURTIDOR FERRETERO                                C000000000052800000000000000000000100010010000000000000000000000F0010000006684700420150109000101 00000000000000000000000000000000000000000000000000000000000000000000000000000000000000000000000000000000000000000N 00000000000NCONT   00    00000000000          00000000000000000000000000000000000000000000 000000000000000A000000000000000000000000000000000000000000000 000000000000000000000000000000000000000     00000000                                                                                                                        000000000000000000
F0010000006684700005000000870907300013552100000000000000000201501090002001SURTIDOR FERRETERO                                D000000000052800000000000000000000100010010000000000000000000000F0010000006684700520150109000101 00000000000000000000000000000000000000000000000000000000000000000000000000000000000000000000000000000000000000000N 00000000000NCONT   00    00000000000          00000000000000000000000000000000000000000000 000000000000000A000000000000000000000000000000000000000000000 000000000000000000000000000000000000000     00000000                                                                                                                        000000000000000000
F0010000006684800001000083007900600011050500000000000000000201501090002001EXPRESO ANDINO DE CARGA SA                        D000000001000000000000000000000000100010010000000000000000000000F0010000006684800120150109000101 00000000000000000000000000000000000000000000000000000000000000000000000000000000000000000000000000000000000000000N 00000000000NCONT   00    00000000000          00000000000000000000000000000000000000000000 000000000000000A000000000000000000000000000000000000000000000 000000000000000000000000000000000000000     00000000                                                                                                                        000000000000000000
F0010000006684800002000083007900600041450500000000000000000201501090002001EXPRESO ANDINO DE CARGA SA                        C000000000900000000000000000000000100010010000000000000000000000F0010000006684800220150109000101 00000000000000000000000000000000000000000000000000000000000000000000000000000000000000000000000000000000000000000N 00000000000NCONT   00    00000000000          00000000000000000000000000000000000000000000 000000000000000A000000000000000000000000000000000000000000000 000000000000000000000000000000000000000     00000000                                                                                                                        000000000000000000
F0010000006684800003000083007900600042505000000000000000000201501090002001EXPRESO ANDINO DE CARGA SA                        C000000000100000000000000000000000100010010000000000000000000000F0010000006684800320150109000101 00000000000000000000000000000000000000000000000000000000000000000000000000000000000000000000000000000000000000000N 00000000000NCONT   00    00000000000          00000000000000000000000000000000000000000000 000000000000000A000000000000000000000000000000000000000000000 000000000000000000000000000000000000000     00000000                                                                                                                        000000000000000000
F0010000006684800004000083007900600023658300000000000000000201501090002001EXPRESO ANDINO DE CARGA SA                        C000000000007200000000000000000000100010010000000000000000000000F0010000006684800420150109000101 00000000000000000000000000000000000000000000000000000000000000000000000000000000000000000000000000000000000000000N 00000000000NCONT   00    00000000000          00000000000000000000000000000000000000000000 000000000000000A000000000000000000000000000000000000000000000 000000000000000000000000000000000000000     00000000                                                                                                                        000000000000000000
F0010000006684800005000083007900600013552100000000000000000201501090002001EXPRESO ANDINO DE CARGA SA                        D000000000007200000000000000000000100010010000000000000000000000F0010000006684800520150109000101 00000000000000000000000000000000000000000000000000000000000000000000000000000000000000000000000000000000000000000N 00000000000NCONT   00    00000000000          00000000000000000000000000000000000000000000 000000000000000A000000000000000000000000000000000000000000000 000000000000000000000000000000000000000     00000000                                                                                                                        000000000000000000
F0010000006684900001000080201703900011050500000000000000000201501090002001MUNDIAL CHEMICAL LTDA                             D000000003500000000000000000000000100010010000000000000000000000F0010000006684900120150109000101 00000000000000000000000000000000000000000000000000000000000000000000000000000000000000000000000000000000000000000N 00000000000NCONT   00    00000000000          00000000000000000000000000000000000000000000 000000000000000A000000000000000000000000000000000000000000000 000000000000000000000000000000000000000     00000000                                                                                                                        000000000000000000
F0010000006684900002000080201703900041450500000000000000000201501090002001MUNDIAL CHEMICAL LTDA                             C000000002800000000000000000000000100010010000000000000000000000F0010000006684900220150109000101 00000000000000000000000000000000000000000000000000000000000000000000000000000000000000000000000000000000000000000N 00000000000NCONT   00    00000000000          00000000000000000000000000000000000000000000 000000000000000A000000000000000000000000000000000000000000000 000000000000000000000000000000000000000     00000000                                                                                                                        000000000000000000
F0010000006684900003000080201703900042505000000000000000000201501090002001MUNDIAL CHEMICAL LTDA                             C000000000700000000000000000000000100010010000000000000000000000F0010000006684900320150109000101 00000000000000000000000000000000000000000000000000000000000000000000000000000000000000000000000000000000000000000N 00000000000NCONT   00    00000000000          00000000000000000000000000000000000000000000 000000000000000A000000000000000000000000000000000000000000000 000000000000000000000000000000000000000     00000000                                                                                                                        000000000000000000
F0010000006684900004000080201703900023658300000000000000000201501090002001MUNDIAL CHEMICAL LTDA                             C000000000022400000000000000000000100010010000000000000000000000F0010000006684900420150109000101 00000000000000000000000000000000000000000000000000000000000000000000000000000000000000000000000000000000000000000N 00000000000NCONT   00    00000000000          00000000000000000000000000000000000000000000 000000000000000A000000000000000000000000000000000000000000000 000000000000000000000000000000000000000     00000000                                                                                                                        000000000000000000
F0010000006684900005000080201703900013552100000000000000000201501090002001MUNDIAL CHEMICAL LTDA                             D000000000022400000000000000000000100010010000000000000000000000F0010000006684900520150109000101 00000000000000000000000000000000000000000000000000000000000000000000000000000000000000000000000000000000000000000N 00000000000NCONT   00    00000000000          00000000000000000000000000000000000000000000 000000000000000A000000000000000000000000000000000000000000000 000000000000000000000000000000000000000     00000000                                                                                                                        000000000000000000
F0010000006685000001000002245670100011050500000000000000000201501090002001YOLANDA  TOBON                                    D000000004000000000000000000000000100010010000000000000000000000F0010000006685000120150109000101 00000000000000000000000000000000000000000000000000000000000000000000000000000000000000000000000000000000000000000N 00000000000NCONT   00    00000000000          00000000000000000000000000000000000000000000 000000000000000A000000000000000000000000000000000000000000000 000000000000000000000000000000000000000     00000000                                                                                                                        000000000000000000
F0010000006685000002000002245670100041450500000000000000000201501090002001YOLANDA  TOBON                                    C000000003300000000000000000000000100010010000000000000000000000F0010000006685000220150109000101 00000000000000000000000000000000000000000000000000000000000000000000000000000000000000000000000000000000000000000N 00000000000NCONT   00    00000000000          00000000000000000000000000000000000000000000 000000000000000A000000000000000000000000000000000000000000000 000000000000000000000000000000000000000     00000000                                                                                                                        000000000000000000
F0010000006685000003000002245670100042505000000000000000000201501090002001YOLANDA  TOBON                                    C000000000700000000000000000000000100010010000000000000000000000F0010000006685000320150109000101 00000000000000000000000000000000000000000000000000000000000000000000000000000000000000000000000000000000000000000N 00000000000NCONT   00    00000000000          00000000000000000000000000000000000000000000 000000000000000A000000000000000000000000000000000000000000000 000000000000000000000000000000000000000     00000000                                                                                                                        000000000000000000
F0010000006685000004000002245670100023658300000000000000000201501090002001YOLANDA  TOBON                                    C000000000026400000000000000000000100010010000000000000000000000F0010000006685000420150109000101 00000000000000000000000000000000000000000000000000000000000000000000000000000000000000000000000000000000000000000N 00000000000NCONT   00    00000000000          00000000000000000000000000000000000000000000 000000000000000A000000000000000000000000000000000000000000000 000000000000000000000000000000000000000     00000000                                                                                                                        000000000000000000
F0010000006685000005000002245670100013552100000000000000000201501090002001YOLANDA  TOBON                                    D000000000026400000000000000000000100010010000000000000000000000F0010000006685000520150109000101 00000000000000000000000000000000000000000000000000000000000000000000000000000000000000000000000000000000000000000N 00000000000NCONT   00    00000000000          00000000000000000000000000000000000000000000 000000000000000A000000000000000000000000000000000000000000000 000000000000000000000000000000000000000     00000000                                                                                                                        000000000000000000
F0010000006685100001000003319910700011050500000000000000000201501090002001LUZ DARY JIMENEZ MARTINEZ                         D000000001100000000000000000000000100010010000000000000000000000F0010000006685100120150109000101 00000000000000000000000000000000000000000000000000000000000000000000000000000000000000000000000000000000000000000N 00000000000NCONT   00    00000000000          00000000000000000000000000000000000000000000 000000000000000A000000000000000000000000000000000000000000000 000000000000000000000000000000000000000     00000000                                                                                                                        000000000000000000
F0010000006685100002000003319910700041450500000000000000000201501090002001LUZ DARY JIMENEZ MARTINEZ                         C000000001000000000000000000000000100010010000000000000000000000F0010000006685100220150109000101 00000000000000000000000000000000000000000000000000000000000000000000000000000000000000000000000000000000000000000N 00000000000NCONT   00    00000000000          00000000000000000000000000000000000000000000 000000000000000A000000000000000000000000000000000000000000000 000000000000000000000000000000000000000     00000000                                                                                                                        000000000000000000
F0010000006685100003000003319910700042505000000000000000000201501090002001LUZ DARY JIMENEZ MARTINEZ                         C000000000100000000000000000000000100010010000000000000000000000F0010000006685100320150109000101 00000000000000000000000000000000000000000000000000000000000000000000000000000000000000000000000000000000000000000N 00000000000NCONT   00    00000000000          00000000000000000000000000000000000000000000 000000000000000A000000000000000000000000000000000000000000000 000000000000000000000000000000000000000     00000000                                                                                                                        000000000000000000
F0010000006685100004000003319910700023658300000000000000000201501090002001LUZ DARY JIMENEZ MARTINEZ                         C000000000008000000000000000000000100010010000000000000000000000F0010000006685100420150109000101 00000000000000000000000000000000000000000000000000000000000000000000000000000000000000000000000000000000000000000N 00000000000NCONT   00    00000000000          00000000000000000000000000000000000000000000 000000000000000A000000000000000000000000000000000000000000000 000000000000000000000000000000000000000     00000000                                                                                                                        000000000000000000
F0010000006685100005000003319910700013552100000000000000000201501090002001LUZ DARY JIMENEZ MARTINEZ                         D000000000008000000000000000000000100010010000000000000000000000F0010000006685100520150109000101 00000000000000000000000000000000000000000000000000000000000000000000000000000000000000000000000000000000000000000N 00000000000NCONT   00    00000000000          00000000000000000000000000000000000000000000 000000000000000A000000000000000000000000000000000000000000000 000000000000000000000000000000000000000     00000000                                                                                                                        000000000000000000
F0010000006685200001000086000061500011050500000000000000000201501090002001DISTRIBUIDORA CORDOBA                             D000000008400000000000000000000000100010010000000000000000000000F0010000006685200120150109000101 00000000000000000000000000000000000000000000000000000000000000000000000000000000000000000000000000000000000000000N 00000000000NCONT   00    00000000000          00000000000000000000000000000000000000000000 000000000000000A000000000000000000000000000000000000000000000 000000000000000000000000000000000000000     00000000                                                                                                                        000000000000000000
F0010000006685200002000086000061500041450500000000000000000201501090002001DISTRIBUIDORA CORDOBA                             C000000007500000000000000000000000100010010000000000000000000000F0010000006685200220150109000101 00000000000000000000000000000000000000000000000000000000000000000000000000000000000000000000000000000000000000000N 00000000000NCONT   00    00000000000          00000000000000000000000000000000000000000000 000000000000000A000000000000000000000000000000000000000000000 000000000000000000000000000000000000000     00000000                                                                                                                        000000000000000000
F0010000006685200003000086000061500042505000000000000000000201501090002001DISTRIBUIDORA CORDOBA                             C000000000900000000000000000000000100010010000000000000000000000F0010000006685200320150109000101 00000000000000000000000000000000000000000000000000000000000000000000000000000000000000000000000000000000000000000N 00000000000NCONT   00    00000000000          00000000000000000000000000000000000000000000 000000000000000A000000000000000000000000000000000000000000000 000000000000000000000000000000000000000     00000000                                                                                                                        000000000000000000
F0010000006685200004000086000061500023658300000000000000000201501090002001DISTRIBUIDORA CORDOBA                             C000000000060000000000000000000000100010010000000000000000000000F0010000006685200420150109000101 00000000000000000000000000000000000000000000000000000000000000000000000000000000000000000000000000000000000000000N 00000000000NCONT   00    00000000000          00000000000000000000000000000000000000000000 000000000000000A000000000000000000000000000000000000000000000 000000000000000000000000000000000000000     00000000                                                                                                                        000000000000000000
F0010000006685200005000086000061500013552100000000000000000201501090002001DISTRIBUIDORA CORDOBA                             D000000000060000000000000000000000100010010000000000000000000000F0010000006685200520150109000101 00000000000000000000000000000000000000000000000000000000000000000000000000000000000000000000000000000000000000000N 00000000000NCONT   00    00000000000          00000000000000000000000000000000000000000000 000000000000000A000000000000000000000000000000000000000000000 000000000000000000000000000000000000000     00000000                                                                                                                        000000000000000000
F0010000006685300001000080202350700011050500000000000000000201501090002001CONNY DE LA COSTA SAS                             D000000002200000000000000000000000100010010000000000000000000000F0010000006685300120150109000101 00000000000000000000000000000000000000000000000000000000000000000000000000000000000000000000000000000000000000000N 00000000000NCONT   00    00000000000          00000000000000000000000000000000000000000000 000000000000000A000000000000000000000000000000000000000000000 000000000000000000000000000000000000000     00000000                                                                                                                        000000000000000000
F0010000006685300002000080202350700041450500000000000000000201501090002001CONNY DE LA COSTA SAS                             C000000001600000000000000000000000100010010000000000000000000000F0010000006685300220150109000101 00000000000000000000000000000000000000000000000000000000000000000000000000000000000000000000000000000000000000000N 00000000000NCONT   00    00000000000          00000000000000000000000000000000000000000000 000000000000000A000000000000000000000000000000000000000000000 000000000000000000000000000000000000000     00000000                                                                                                                        000000000000000000
F0010000006685300003000080202350700042505000000000000000000201501090002001CONNY DE LA COSTA SAS                             C000000000600000000000000000000000100010010000000000000000000000F0010000006685300320150109000101 00000000000000000000000000000000000000000000000000000000000000000000000000000000000000000000000000000000000000000N 00000000000NCONT   00    00000000000          00000000000000000000000000000000000000000000 000000000000000A000000000000000000000000000000000000000000000 000000000000000000000000000000000000000     00000000                                                                                                                        000000000000000000
F0010000006685300004000080202350700023658300000000000000000201501090002001CONNY DE LA COSTA SAS                             C000000000012800000000000000000000100010010000000000000000000000F0010000006685300420150109000101 00000000000000000000000000000000000000000000000000000000000000000000000000000000000000000000000000000000000000000N 00000000000NCONT   00    00000000000          00000000000000000000000000000000000000000000 000000000000000A000000000000000000000000000000000000000000000 000000000000000000000000000000000000000     00000000                                                                                                                        000000000000000000
F0010000006685300005000080202350700013552100000000000000000201501090002001CONNY DE LA COSTA SAS                             D000000000012800000000000000000000100010010000000000000000000000F0010000006685300520150109000101 00000000000000000000000000000000000000000000000000000000000000000000000000000000000000000000000000000000000000000N 00000000000NCONT   00    00000000000          00000000000000000000000000000000000000000000 000000000000000A000000000000000000000000000000000000000000000 000000000000000000000000000000000000000     00000000                                                                                                                        000000000000000000
F0010000006685400001000000742399700011050500000000000000000201501090002001CACHARRERIA EL NUEVO CHADID                       D000000018000000000000000000000000100010010000000000000000000000F0010000006685400120150109000101 00000000000000000000000000000000000000000000000000000000000000000000000000000000000000000000000000000000000000000N 00000000000NCONT   00    00000000000          00000000000000000000000000000000000000000000 000000000000000A000000000000000000000000000000000000000000000 000000000000000000000000000000000000000     00000000                                                                                                                        000000000000000000
F0010000006685400002000000742399700041450500000000000000000201501090002001CACHARRERIA EL NUEVO CHADID                       C000000017500000000000000000000000100010010000000000000000000000F0010000006685400220150109000101 00000000000000000000000000000000000000000000000000000000000000000000000000000000000000000000000000000000000000000N 00000000000NCONT   00    00000000000          00000000000000000000000000000000000000000000 000000000000000A000000000000000000000000000000000000000000000 000000000000000000000000000000000000000     00000000                                                                                                                        000000000000000000
F0010000006685400003000000742399700042505000000000000000000201501090002001CACHARRERIA EL NUEVO CHADID                       C000000000500000000000000000000000100010010000000000000000000000F0010000006685400320150109000101 00000000000000000000000000000000000000000000000000000000000000000000000000000000000000000000000000000000000000000N 00000000000NCONT   00    00000000000          00000000000000000000000000000000000000000000 000000000000000A000000000000000000000000000000000000000000000 000000000000000000000000000000000000000     00000000                                                                                                                        000000000000000000
F0010000006685400004000000742399700023658300000000000000000201501090002001CACHARRERIA EL NUEVO CHADID                       C000000000140000000000000000000000100010010000000000000000000000F0010000006685400420150109000101 00000000000000000000000000000000000000000000000000000000000000000000000000000000000000000000000000000000000000000N 00000000000NCONT   00    00000000000          00000000000000000000000000000000000000000000 000000000000000A000000000000000000000000000000000000000000000 000000000000000000000000000000000000000     00000000                                                                                                                        000000000000000000
F0010000006685400005000000742399700013552100000000000000000201501090002001CACHARRERIA EL NUEVO CHADID                       D000000000140000000000000000000000100010010000000000000000000000F0010000006685400520150109000101 00000000000000000000000000000000000000000000000000000000000000000000000000000000000000000000000000000000000000000N 00000000000NCONT   00    00000000000          00000000000000000000000000000000000000000000 000000000000000A000000000000000000000000000000000000000000000 000000000000000000000000000000000000000     00000000                                                                                                                        000000000000000000
F0010000006685500001000086003979400011050500000000000000000201501090002001CALYPSO BARRANQUILLA LTDA                         D000000000700000000000000000000000100010010000000000000000000000F0010000006685500120150109000101 00000000000000000000000000000000000000000000000000000000000000000000000000000000000000000000000000000000000000000N 00000000000NCONT   00    00000000000          00000000000000000000000000000000000000000000 000000000000000A000000000000000000000000000000000000000000000 000000000000000000000000000000000000000     00000000                                                                                                                        000000000000000000
F0010000006685500002000086003979400041450500000000000000000201501090002001CALYPSO BARRANQUILLA LTDA                         C000000000660000000000000000000000100010010000000000000000000000F0010000006685500220150109000101 00000000000000000000000000000000000000000000000000000000000000000000000000000000000000000000000000000000000000000N 00000000000NCONT   00    00000000000          00000000000000000000000000000000000000000000 000000000000000A000000000000000000000000000000000000000000000 000000000000000000000000000000000000000     00000000                                                                                                                        000000000000000000
F0010000006685500003000086003979400042505000000000000000000201501090002001CALYPSO BARRANQUILLA LTDA                         C000000000040000000000000000000000100010010000000000000000000000F0010000006685500320150109000101 00000000000000000000000000000000000000000000000000000000000000000000000000000000000000000000000000000000000000000N 00000000000NCONT   00    00000000000          00000000000000000000000000000000000000000000 000000000000000A000000000000000000000000000000000000000000000 000000000000000000000000000000000000000     00000000                                                                                                                        000000000000000000
F0010000006685500004000086003979400023658300000000000000000201501090002001CALYPSO BARRANQUILLA LTDA                         C000000000005300000000000000000000100010010000000000000000000000F0010000006685500420150109000101 00000000000000000000000000000000000000000000000000000000000000000000000000000000000000000000000000000000000000000N 00000000000NCONT   00    00000000000          00000000000000000000000000000000000000000000 000000000000000A000000000000000000000000000000000000000000000 000000000000000000000000000000000000000     00000000                                                                                                                        000000000000000000
F0010000006685500005000086003979400013552100000000000000000201501090002001CALYPSO BARRANQUILLA LTDA                         D000000000005300000000000000000000100010010000000000000000000000F0010000006685500520150109000101 00000000000000000000000000000000000000000000000000000000000000000000000000000000000000000000000000000000000000000N 00000000000NCONT   00    00000000000          00000000000000000000000000000000000000000000 000000000000000A000000000000000000000000000000000000000000000 000000000000000000000000000000000000000     00000000                                                                                                                        000000000000000000
F0010000006685600001000080200919100011050500000000000000000201501090002001V Y V LITOFLEX LTDA                               D000000001000000000000000000000000100010010000000000000000000000F0010000006685600120150109000101 00000000000000000000000000000000000000000000000000000000000000000000000000000000000000000000000000000000000000000N 00000000000NCONT   00    00000000000          00000000000000000000000000000000000000000000 000000000000000A000000000000000000000000000000000000000000000 000000000000000000000000000000000000000     00000000                                                                                                                        000000000000000000
F0010000006685600002000080200919100041450500000000000000000201501090002001V Y V LITOFLEX LTDA                               C000000000900000000000000000000000100010010000000000000000000000F0010000006685600220150109000101 00000000000000000000000000000000000000000000000000000000000000000000000000000000000000000000000000000000000000000N 00000000000NCONT   00    00000000000          00000000000000000000000000000000000000000000 000000000000000A000000000000000000000000000000000000000000000 000000000000000000000000000000000000000     00000000                                                                                                                        000000000000000000
F0010000006685600003000080200919100042505000000000000000000201501090002001V Y V LITOFLEX LTDA                               C000000000100000000000000000000000100010010000000000000000000000F0010000006685600320150109000101 00000000000000000000000000000000000000000000000000000000000000000000000000000000000000000000000000000000000000000N 00000000000NCONT   00    00000000000          00000000000000000000000000000000000000000000 000000000000000A000000000000000000000000000000000000000000000 000000000000000000000000000000000000000     00000000                                                                                                                        000000000000000000
F0010000006685600004000080200919100023658300000000000000000201501090002001V Y V LITOFLEX LTDA                               C000000000007200000000000000000000100010010000000000000000000000F0010000006685600420150109000101 00000000000000000000000000000000000000000000000000000000000000000000000000000000000000000000000000000000000000000N 00000000000NCONT   00    00000000000          00000000000000000000000000000000000000000000 000000000000000A000000000000000000000000000000000000000000000 000000000000000000000000000000000000000     00000000                                                                                                                        000000000000000000
F0010000006685600005000080200919100013552100000000000000000201501090002001V Y V LITOFLEX LTDA                               D000000000007200000000000000000000100010010000000000000000000000F0010000006685600520150109000101 00000000000000000000000000000000000000000000000000000000000000000000000000000000000000000000000000000000000000000N 00000000000NCONT   00    00000000000          00000000000000000000000000000000000000000000 000000000000000A000000000000000000000000000000000000000000000 000000000000000000000000000000000000000     00000000                                                                                                                        000000000000000000
