F0010000006602400001000001502923600011050500000000000000000201412080002001ALCIDES MARTINEZ                                  D000000001100000000000000000000000100010010000000000000000000000F0010000006602400120141208000101 00000000000000000000000000000000000000000000000000000000000000000000000000000000000000000000000000000000000000000N 00000000000NCONT   00    00000000000          00000000000000000000000000000000000000000000 000000000000000A000000000000000000000000000000000000000000000 000000000000000000000000000000000000000     00000000                                                                                                                        000000000000000000
F0010000006602400002000001502923600041450500000000000000000201412080002001ALCIDES MARTINEZ                                  C000000001000000000000000000000000100010010000000000000000000000F0010000006602400220141208000101 00000000000000000000000000000000000000000000000000000000000000000000000000000000000000000000000000000000000000000N 00000000000NCONT   00    00000000000          00000000000000000000000000000000000000000000 000000000000000A000000000000000000000000000000000000000000000 000000000000000000000000000000000000000     00000000                                                                                                                        000000000000000000
F0010000006602400003000001502923600042505000000000000000000201412080002001ALCIDES MARTINEZ                                  C000000000100000000000000000000000100010010000000000000000000000F0010000006602400320141208000101 00000000000000000000000000000000000000000000000000000000000000000000000000000000000000000000000000000000000000000N 00000000000NCONT   00    00000000000          00000000000000000000000000000000000000000000 000000000000000A000000000000000000000000000000000000000000000 000000000000000000000000000000000000000     00000000                                                                                                                        000000000000000000
F0010000006602400004000001502923600023658300000000000000000201412080002001ALCIDES MARTINEZ                                  C000000000008000000000000000000000100010010000000000000000000000F0010000006602400420141208000101 00000000000000000000000000000000000000000000000000000000000000000000000000000000000000000000000000000000000000000N 00000000000NCONT   00    00000000000          00000000000000000000000000000000000000000000 000000000000000A000000000000000000000000000000000000000000000 000000000000000000000000000000000000000     00000000                                                                                                                        000000000000000000
F0010000006602400005000001502923600013552100000000000000000201412080002001ALCIDES MARTINEZ                                  D000000000008000000000000000000000100010010000000000000000000000F0010000006602400520141208000101 00000000000000000000000000000000000000000000000000000000000000000000000000000000000000000000000000000000000000000N 00000000000NCONT   00    00000000000          00000000000000000000000000000000000000000000 000000000000000A000000000000000000000000000000000000000000000 000000000000000000000000000000000000000     00000000                                                                                                                        000000000000000000
F0010000006602500001000000872487800011050500000000000000000201412080002001CALIXTO CORREA PINTO                              D000000002800000000000000000000000100010010000000000000000000000F0010000006602500120141208000101 00000000000000000000000000000000000000000000000000000000000000000000000000000000000000000000000000000000000000000N 00000000000NCONT   00    00000000000          00000000000000000000000000000000000000000000 000000000000000A000000000000000000000000000000000000000000000 000000000000000000000000000000000000000     00000000                                                                                                                        000000000000000000
F0010000006602500002000000872487800041450500000000000000000201412080002001CALIXTO CORREA PINTO                              C000000002600000000000000000000000100010010000000000000000000000F0010000006602500220141208000101 00000000000000000000000000000000000000000000000000000000000000000000000000000000000000000000000000000000000000000N 00000000000NCONT   00    00000000000          00000000000000000000000000000000000000000000 000000000000000A000000000000000000000000000000000000000000000 000000000000000000000000000000000000000     00000000                                                                                                                        000000000000000000
F0010000006602500003000000872487800042505000000000000000000201412080002001CALIXTO CORREA PINTO                              C000000000200000000000000000000000100010010000000000000000000000F0010000006602500320141208000101 00000000000000000000000000000000000000000000000000000000000000000000000000000000000000000000000000000000000000000N 00000000000NCONT   00    00000000000          00000000000000000000000000000000000000000000 000000000000000A000000000000000000000000000000000000000000000 000000000000000000000000000000000000000     00000000                                                                                                                        000000000000000000
F0010000006602500004000000872487800023658300000000000000000201412080002001CALIXTO CORREA PINTO                              C000000000020800000000000000000000100010010000000000000000000000F0010000006602500420141208000101 00000000000000000000000000000000000000000000000000000000000000000000000000000000000000000000000000000000000000000N 00000000000NCONT   00    00000000000          00000000000000000000000000000000000000000000 000000000000000A000000000000000000000000000000000000000000000 000000000000000000000000000000000000000     00000000                                                                                                                        000000000000000000
F0010000006602500005000000872487800013552100000000000000000201412080002001CALIXTO CORREA PINTO                              D000000000020800000000000000000000100010010000000000000000000000F0010000006602500520141208000101 00000000000000000000000000000000000000000000000000000000000000000000000000000000000000000000000000000000000000000N 00000000000NCONT   00    00000000000          00000000000000000000000000000000000000000000 000000000000000A000000000000000000000000000000000000000000000 000000000000000000000000000000000000000     00000000                                                                                                                        000000000000000000
