F0010000006705200001000090049854300013050500000000000000000201501190002001TRAPOS INDUSTRIALES DE COLOMBIA SAS               D000000003498000000000000000000000100010010000000000000000000000F0010000006705200120150119000101 00000000000000000000000000000000000000000000000000000000000000000000000000000000000000000000000000000000000000000N 00000000000NCONT   00    00000000000          00000000000000000000000000000000000000000000 000000000000000A000000000000000000000000000000000000000000000 000000000000000000000000000000000000000     00000000                                                                                                                        000000000000000000
F0010000006705200002000090049854300041450500000000000000000201501190002001TRAPOS INDUSTRIALES DE COLOMBIA SAS               C000000003000000000000000000000000100010010000000000000000000000F0010000006705200220150119000101 00000000000000000000000000000000000000000000000000000000000000000000000000000000000000000000000000000000000000000N 00000000000NCONT   00    00000000000          00000000000000000000000000000000000000000000 000000000000000A000000000000000000000000000000000000000000000 000000000000000000000000000000000000000     00000000                                                                                                                        000000000000000000
F0010000006705200003000090049854300042505000000000000000000201501190002001TRAPOS INDUSTRIALES DE COLOMBIA SAS               C000000000498000000000000000000000100010010000000000000000000000F0010000006705200320150119000101 00000000000000000000000000000000000000000000000000000000000000000000000000000000000000000000000000000000000000000N 00000000000NCONT   00    00000000000          00000000000000000000000000000000000000000000 000000000000000A000000000000000000000000000000000000000000000 000000000000000000000000000000000000000     00000000                                                                                                                        000000000000000000
F0010000006705200004000090049854300023658300000000000000000201501190002001TRAPOS INDUSTRIALES DE COLOMBIA SAS               C000000000024000000000000000000000100010010000000000000000000000F0010000006705200420150119000101 00000000000000000000000000000000000000000000000000000000000000000000000000000000000000000000000000000000000000000N 00000000000NCONT   00    00000000000          00000000000000000000000000000000000000000000 000000000000000A000000000000000000000000000000000000000000000 000000000000000000000000000000000000000     00000000                                                                                                                        000000000000000000
F0010000006705200005000090049854300013552100000000000000000201501190002001TRAPOS INDUSTRIALES DE COLOMBIA SAS               D000000000024000000000000000000000100010010000000000000000000000F0010000006705200520150119000101 00000000000000000000000000000000000000000000000000000000000000000000000000000000000000000000000000000000000000000N 00000000000NCONT   00    00000000000          00000000000000000000000000000000000000000000 000000000000000A000000000000000000000000000000000000000000000 000000000000000000000000000000000000000     00000000                                                                                                                        000000000000000000
F0010000006705300001000080200225800013050500000000000000000201501190002001PERF. TECNICOS DE LA COSTA S.A.S                  D000000172486900000000000000000000100010010000000000000000000000F0010000006705300120150119000101 00000000000000000000000000000000000000000000000000000000000000000000000000000000000000000000000000000000000000000N 00000000000NCONT   00    00000000000          00000000000000000000000000000000000000000000 000000000000000A000000000000000000000000000000000000000000000 000000000000000000000000000000000000000     00000000                                                                                                                        000000000000000000
F0010000006705300002000080200225800041450500000000000000000201501190002001PERF. TECNICOS DE LA COSTA S.A.S                  C000000146674000000000000000000000100010010000000000000000000000F0010000006705300220150119000101 00000000000000000000000000000000000000000000000000000000000000000000000000000000000000000000000000000000000000000N 00000000000NCONT   00    00000000000          00000000000000000000000000000000000000000000 000000000000000A000000000000000000000000000000000000000000000 000000000000000000000000000000000000000     00000000                                                                                                                        000000000000000000
F0010000006705300003000080200225800042505000000000000000000201501190002001PERF. TECNICOS DE LA COSTA S.A.S                  C000000025812900000000000000000000100010010000000000000000000000F0010000006705300320150119000101 00000000000000000000000000000000000000000000000000000000000000000000000000000000000000000000000000000000000000000N 00000000000NCONT   00    00000000000          00000000000000000000000000000000000000000000 000000000000000A000000000000000000000000000000000000000000000 000000000000000000000000000000000000000     00000000                                                                                                                        000000000000000000
F0010000006705300004000080200225800023658300000000000000000201501190002001PERF. TECNICOS DE LA COSTA S.A.S                  C000000001173400000000000000000000100010010000000000000000000000F0010000006705300420150119000101 00000000000000000000000000000000000000000000000000000000000000000000000000000000000000000000000000000000000000000N 00000000000NCONT   00    00000000000          00000000000000000000000000000000000000000000 000000000000000A000000000000000000000000000000000000000000000 000000000000000000000000000000000000000     00000000                                                                                                                        000000000000000000
F0010000006705300005000080200225800013552100000000000000000201501190002001PERF. TECNICOS DE LA COSTA S.A.S                  D000000001173400000000000000000000100010010000000000000000000000F0010000006705300520150119000101 00000000000000000000000000000000000000000000000000000000000000000000000000000000000000000000000000000000000000000N 00000000000NCONT   00    00000000000          00000000000000000000000000000000000000000000 000000000000000A000000000000000000000000000000000000000000000 000000000000000000000000000000000000000     00000000                                                                                                                        000000000000000000
F0010000006705400001000086000490200013050500000000000000000201501190002001PROV. DE PAPELES ANDINA S.A.                      D000000086181800000000000000000000100010010000000000000000000000F0010000006705400120150119000101 00000000000000000000000000000000000000000000000000000000000000000000000000000000000000000000000000000000000000000N 00000000000NCONT   00    00000000000          00000000000000000000000000000000000000000000 000000000000000A000000000000000000000000000000000000000000000 000000000000000000000000000000000000000     00000000                                                                                                                        000000000000000000
F0010000006705400002000086000490200041450500000000000000000201501190002001PROV. DE PAPELES ANDINA S.A.                      C000000081732800000000000000000000100010010000000000000000000000F0010000006705400220150119000101 00000000000000000000000000000000000000000000000000000000000000000000000000000000000000000000000000000000000000000N 00000000000NCONT   00    00000000000          00000000000000000000000000000000000000000000 000000000000000A000000000000000000000000000000000000000000000 000000000000000000000000000000000000000     00000000                                                                                                                        000000000000000000
F0010000006705400003000086000490200042505000000000000000000201501190002001PROV. DE PAPELES ANDINA S.A.                      C000000004449000000000000000000000100010010000000000000000000000F0010000006705400320150119000101 00000000000000000000000000000000000000000000000000000000000000000000000000000000000000000000000000000000000000000N 00000000000NCONT   00    00000000000          00000000000000000000000000000000000000000000 000000000000000A000000000000000000000000000000000000000000000 000000000000000000000000000000000000000     00000000                                                                                                                        000000000000000000
F0010000006705400004000086000490200023658300000000000000000201501190002001PROV. DE PAPELES ANDINA S.A.                      C000000000653900000000000000000000100010010000000000000000000000F0010000006705400420150119000101 00000000000000000000000000000000000000000000000000000000000000000000000000000000000000000000000000000000000000000N 00000000000NCONT   00    00000000000          00000000000000000000000000000000000000000000 000000000000000A000000000000000000000000000000000000000000000 000000000000000000000000000000000000000     00000000                                                                                                                        000000000000000000
F0010000006705400005000086000490200013552100000000000000000201501190002001PROV. DE PAPELES ANDINA S.A.                      D000000000653900000000000000000000100010010000000000000000000000F0010000006705400520150119000101 00000000000000000000000000000000000000000000000000000000000000000000000000000000000000000000000000000000000000000N 00000000000NCONT   00    00000000000          00000000000000000000000000000000000000000000 000000000000000A000000000000000000000000000000000000000000000 000000000000000000000000000000000000000     00000000                                                                                                                        000000000000000000
F0010000006705500001000090013035500013050500000000000000000201501190002001FUJIAN SHAN S.A.                                  D000000029410600000000000000000000100010010000000000000000000000F0010000006705500120150119000101 00000000000000000000000000000000000000000000000000000000000000000000000000000000000000000000000000000000000000000N 00000000000NCONT   00    00000000000          00000000000000000000000000000000000000000000 000000000000000A000000000000000000000000000000000000000000000 000000000000000000000000000000000000000     00000000                                                                                                                        000000000000000000
F0010000006705500002000090013035500041450500000000000000000201501190002001FUJIAN SHAN S.A.                                  C000000028710600000000000000000000100010010000000000000000000000F0010000006705500220150119000101 00000000000000000000000000000000000000000000000000000000000000000000000000000000000000000000000000000000000000000N 00000000000NCONT   00    00000000000          00000000000000000000000000000000000000000000 000000000000000A000000000000000000000000000000000000000000000 000000000000000000000000000000000000000     00000000                                                                                                                        000000000000000000
F0010000006705500003000090013035500042505000000000000000000201501190002001FUJIAN SHAN S.A.                                  C000000000700000000000000000000000100010010000000000000000000000F0010000006705500320150119000101 00000000000000000000000000000000000000000000000000000000000000000000000000000000000000000000000000000000000000000N 00000000000NCONT   00    00000000000          00000000000000000000000000000000000000000000 000000000000000A000000000000000000000000000000000000000000000 000000000000000000000000000000000000000     00000000                                                                                                                        000000000000000000
F0010000006705500004000090013035500023658300000000000000000201501190002001FUJIAN SHAN S.A.                                  C000000000229700000000000000000000100010010000000000000000000000F0010000006705500420150119000101 00000000000000000000000000000000000000000000000000000000000000000000000000000000000000000000000000000000000000000N 00000000000NCONT   00    00000000000          00000000000000000000000000000000000000000000 000000000000000A000000000000000000000000000000000000000000000 000000000000000000000000000000000000000     00000000                                                                                                                        000000000000000000
F0010000006705500005000090013035500013552100000000000000000201501190002001FUJIAN SHAN S.A.                                  D000000000229700000000000000000000100010010000000000000000000000F0010000006705500520150119000101 00000000000000000000000000000000000000000000000000000000000000000000000000000000000000000000000000000000000000000N 00000000000NCONT   00    00000000000          00000000000000000000000000000000000000000000 000000000000000A000000000000000000000000000000000000000000000 000000000000000000000000000000000000000     00000000                                                                                                                        000000000000000000
F0010000006705600001000083005311500013050500000000000000000201501190002001GIRALDO Y CIA S.A.S                               D000000061915000000000000000000000100010010000000000000000000000F0010000006705600120150119000101 00000000000000000000000000000000000000000000000000000000000000000000000000000000000000000000000000000000000000000N 00000000000NCONT   00    00000000000          00000000000000000000000000000000000000000000 000000000000000A000000000000000000000000000000000000000000000 000000000000000000000000000000000000000     00000000                                                                                                                        000000000000000000
F0010000006705600002000083005311500041450500000000000000000201501190002001GIRALDO Y CIA S.A.S                               C000000060000000000000000000000000100010010000000000000000000000F0010000006705600220150119000101 00000000000000000000000000000000000000000000000000000000000000000000000000000000000000000000000000000000000000000N 00000000000NCONT   00    00000000000          00000000000000000000000000000000000000000000 000000000000000A000000000000000000000000000000000000000000000 000000000000000000000000000000000000000     00000000                                                                                                                        000000000000000000
F0010000006705600003000083005311500042505000000000000000000201501190002001GIRALDO Y CIA S.A.S                               C000000001915000000000000000000000100010010000000000000000000000F0010000006705600320150119000101 00000000000000000000000000000000000000000000000000000000000000000000000000000000000000000000000000000000000000000N 00000000000NCONT   00    00000000000          00000000000000000000000000000000000000000000 000000000000000A000000000000000000000000000000000000000000000 000000000000000000000000000000000000000     00000000                                                                                                                        000000000000000000
F0010000006705600004000083005311500023658300000000000000000201501190002001GIRALDO Y CIA S.A.S                               C000000000480000000000000000000000100010010000000000000000000000F0010000006705600420150119000101 00000000000000000000000000000000000000000000000000000000000000000000000000000000000000000000000000000000000000000N 00000000000NCONT   00    00000000000          00000000000000000000000000000000000000000000 000000000000000A000000000000000000000000000000000000000000000 000000000000000000000000000000000000000     00000000                                                                                                                        000000000000000000
F0010000006705600005000083005311500013552100000000000000000201501190002001GIRALDO Y CIA S.A.S                               D000000000480000000000000000000000100010010000000000000000000000F0010000006705600520150119000101 00000000000000000000000000000000000000000000000000000000000000000000000000000000000000000000000000000000000000000N 00000000000NCONT   00    00000000000          00000000000000000000000000000000000000000000 000000000000000A000000000000000000000000000000000000000000000 000000000000000000000000000000000000000     00000000                                                                                                                        000000000000000000
F0010000006705700001000089011072600013050500000000000000000201501190002001GRAFICAS DEL LITORAL SAS                          D000000013360000000000000000000000100010010000000000000000000000F0010000006705700120150119000101 00000000000000000000000000000000000000000000000000000000000000000000000000000000000000000000000000000000000000000N 00000000000NCONT   00    00000000000          00000000000000000000000000000000000000000000 000000000000000A000000000000000000000000000000000000000000000 000000000000000000000000000000000000000     00000000                                                                                                                        000000000000000000
F0010000006705700002000089011072600041450500000000000000000201501190002001GRAFICAS DEL LITORAL SAS                          C000000012360000000000000000000000100010010000000000000000000000F0010000006705700220150119000101 00000000000000000000000000000000000000000000000000000000000000000000000000000000000000000000000000000000000000000N 00000000000NCONT   00    00000000000          00000000000000000000000000000000000000000000 000000000000000A000000000000000000000000000000000000000000000 000000000000000000000000000000000000000     00000000                                                                                                                        000000000000000000
F0010000006705700003000089011072600042505000000000000000000201501190002001GRAFICAS DEL LITORAL SAS                          C000000001000000000000000000000000100010010000000000000000000000F0010000006705700320150119000101 00000000000000000000000000000000000000000000000000000000000000000000000000000000000000000000000000000000000000000N 00000000000NCONT   00    00000000000          00000000000000000000000000000000000000000000 000000000000000A000000000000000000000000000000000000000000000 000000000000000000000000000000000000000     00000000                                                                                                                        000000000000000000
F0010000006705700004000089011072600023658300000000000000000201501190002001GRAFICAS DEL LITORAL SAS                          C000000000098900000000000000000000100010010000000000000000000000F0010000006705700420150119000101 00000000000000000000000000000000000000000000000000000000000000000000000000000000000000000000000000000000000000000N 00000000000NCONT   00    00000000000          00000000000000000000000000000000000000000000 000000000000000A000000000000000000000000000000000000000000000 000000000000000000000000000000000000000     00000000                                                                                                                        000000000000000000
F0010000006705700005000089011072600013552100000000000000000201501190002001GRAFICAS DEL LITORAL SAS                          D000000000098900000000000000000000100010010000000000000000000000F0010000006705700520150119000101 00000000000000000000000000000000000000000000000000000000000000000000000000000000000000000000000000000000000000000N 00000000000NCONT   00    00000000000          00000000000000000000000000000000000000000000 000000000000000A000000000000000000000000000000000000000000000 000000000000000000000000000000000000000     00000000                                                                                                                        000000000000000000
F0010000006705800001000080018337600013050500000000000000000201501190002001CENTRO FERRETERO INDUSTRIAL S.A.S                 D000000024500000000000000000000000100010010000000000000000000000F0010000006705800120150119000101 00000000000000000000000000000000000000000000000000000000000000000000000000000000000000000000000000000000000000000N 00000000000NCONT   00    00000000000          00000000000000000000000000000000000000000000 000000000000000A000000000000000000000000000000000000000000000 000000000000000000000000000000000000000     00000000                                                                                                                        000000000000000000
F0010000006705800002000080018337600041450500000000000000000201501190002001CENTRO FERRETERO INDUSTRIAL S.A.S                 C000000024000000000000000000000000100010010000000000000000000000F0010000006705800220150119000101 00000000000000000000000000000000000000000000000000000000000000000000000000000000000000000000000000000000000000000N 00000000000NCONT   00    00000000000          00000000000000000000000000000000000000000000 000000000000000A000000000000000000000000000000000000000000000 000000000000000000000000000000000000000     00000000                                                                                                                        000000000000000000
F0010000006705800003000080018337600042505000000000000000000201501190002001CENTRO FERRETERO INDUSTRIAL S.A.S                 C000000000500000000000000000000000100010010000000000000000000000F0010000006705800320150119000101 00000000000000000000000000000000000000000000000000000000000000000000000000000000000000000000000000000000000000000N 00000000000NCONT   00    00000000000          00000000000000000000000000000000000000000000 000000000000000A000000000000000000000000000000000000000000000 000000000000000000000000000000000000000     00000000                                                                                                                        000000000000000000
F0010000006705800004000080018337600023658300000000000000000201501190002001CENTRO FERRETERO INDUSTRIAL S.A.S                 C000000000192000000000000000000000100010010000000000000000000000F0010000006705800420150119000101 00000000000000000000000000000000000000000000000000000000000000000000000000000000000000000000000000000000000000000N 00000000000NCONT   00    00000000000          00000000000000000000000000000000000000000000 000000000000000A000000000000000000000000000000000000000000000 000000000000000000000000000000000000000     00000000                                                                                                                        000000000000000000
F0010000006705800005000080018337600013552100000000000000000201501190002001CENTRO FERRETERO INDUSTRIAL S.A.S                 D000000000192000000000000000000000100010010000000000000000000000F0010000006705800520150119000101 00000000000000000000000000000000000000000000000000000000000000000000000000000000000000000000000000000000000000000N 00000000000NCONT   00    00000000000          00000000000000000000000000000000000000000000 000000000000000A000000000000000000000000000000000000000000000 000000000000000000000000000000000000000     00000000                                                                                                                        000000000000000000
F0010000006705900001000089010081800013050500000000000000000201501190002001NORTON LTDA                                       D000000015300000000000000000000000100010010000000000000000000000F0010000006705900120150119000101 00000000000000000000000000000000000000000000000000000000000000000000000000000000000000000000000000000000000000000N 00000000000NCONT   00    00000000000          00000000000000000000000000000000000000000000 000000000000000A000000000000000000000000000000000000000000000 000000000000000000000000000000000000000     00000000                                                                                                                        000000000000000000
F0010000006705900002000089010081800041450500000000000000000201501190002001NORTON LTDA                                       C000000008800000000000000000000000100010010000000000000000000000F0010000006705900220150119000101 00000000000000000000000000000000000000000000000000000000000000000000000000000000000000000000000000000000000000000N 00000000000NCONT   00    00000000000          00000000000000000000000000000000000000000000 000000000000000A000000000000000000000000000000000000000000000 000000000000000000000000000000000000000     00000000                                                                                                                        000000000000000000
F0010000006705900003000089010081800042505000000000000000000201501190002001NORTON LTDA                                       C000000006500000000000000000000000100010010000000000000000000000F0010000006705900320150119000101 00000000000000000000000000000000000000000000000000000000000000000000000000000000000000000000000000000000000000000N 00000000000NCONT   00    00000000000          00000000000000000000000000000000000000000000 000000000000000A000000000000000000000000000000000000000000000 000000000000000000000000000000000000000     00000000                                                                                                                        000000000000000000
F0010000006705900004000089010081800023658300000000000000000201501190002001NORTON LTDA                                       C000000000070400000000000000000000100010010000000000000000000000F0010000006705900420150119000101 00000000000000000000000000000000000000000000000000000000000000000000000000000000000000000000000000000000000000000N 00000000000NCONT   00    00000000000          00000000000000000000000000000000000000000000 000000000000000A000000000000000000000000000000000000000000000 000000000000000000000000000000000000000     00000000                                                                                                                        000000000000000000
F0010000006705900005000089010081800013552100000000000000000201501190002001NORTON LTDA                                       D000000000070400000000000000000000100010010000000000000000000000F0010000006705900520150119000101 00000000000000000000000000000000000000000000000000000000000000000000000000000000000000000000000000000000000000000N 00000000000NCONT   00    00000000000          00000000000000000000000000000000000000000000 000000000000000A000000000000000000000000000000000000000000000 000000000000000000000000000000000000000     00000000                                                                                                                        000000000000000000
F0010000006706000001000080019113900013050500000000000000000201501190002001COMERCIAL NOVAPEL LTDA                            D000000045700000000000000000000000100010010000000000000000000000F0010000006706000120150119000101 00000000000000000000000000000000000000000000000000000000000000000000000000000000000000000000000000000000000000000N 00000000000NCONT   00    00000000000          00000000000000000000000000000000000000000000 000000000000000A000000000000000000000000000000000000000000000 000000000000000000000000000000000000000     00000000                                                                                                                        000000000000000000
F0010000006706000002000080019113900041450500000000000000000201501190002001COMERCIAL NOVAPEL LTDA                            C000000040400000000000000000000000100010010000000000000000000000F0010000006706000220150119000101 00000000000000000000000000000000000000000000000000000000000000000000000000000000000000000000000000000000000000000N 00000000000NCONT   00    00000000000          00000000000000000000000000000000000000000000 000000000000000A000000000000000000000000000000000000000000000 000000000000000000000000000000000000000     00000000                                                                                                                        000000000000000000
F0010000006706000003000080019113900042505000000000000000000201501190002001COMERCIAL NOVAPEL LTDA                            C000000005300000000000000000000000100010010000000000000000000000F0010000006706000320150119000101 00000000000000000000000000000000000000000000000000000000000000000000000000000000000000000000000000000000000000000N 00000000000NCONT   00    00000000000          00000000000000000000000000000000000000000000 000000000000000A000000000000000000000000000000000000000000000 000000000000000000000000000000000000000     00000000                                                                                                                        000000000000000000
F0010000006706000004000080019113900023658300000000000000000201501190002001COMERCIAL NOVAPEL LTDA                            C000000000323200000000000000000000100010010000000000000000000000F0010000006706000420150119000101 00000000000000000000000000000000000000000000000000000000000000000000000000000000000000000000000000000000000000000N 00000000000NCONT   00    00000000000          00000000000000000000000000000000000000000000 000000000000000A000000000000000000000000000000000000000000000 000000000000000000000000000000000000000     00000000                                                                                                                        000000000000000000
F0010000006706000005000080019113900013552100000000000000000201501190002001COMERCIAL NOVAPEL LTDA                            D000000000323200000000000000000000100010010000000000000000000000F0010000006706000520150119000101 00000000000000000000000000000000000000000000000000000000000000000000000000000000000000000000000000000000000000000N 00000000000NCONT   00    00000000000          00000000000000000000000000000000000000000000 000000000000000A000000000000000000000000000000000000000000000 000000000000000000000000000000000000000     00000000                                                                                                                        000000000000000000
F0010000006706100001000090036646700013050500000000000000000201501190002001FERREPROYECTOS S.A.S                              D000000061269000000000000000000000100010010000000000000000000000F0010000006706100120150119000101 00000000000000000000000000000000000000000000000000000000000000000000000000000000000000000000000000000000000000000N 00000000000NCONT   00    00000000000          00000000000000000000000000000000000000000000 000000000000000A000000000000000000000000000000000000000000000 000000000000000000000000000000000000000     00000000                                                                                                                        000000000000000000
F0010000006706100002000090036646700041450500000000000000000201501190002001FERREPROYECTOS S.A.S                              C000000060700000000000000000000000100010010000000000000000000000F0010000006706100220150119000101 00000000000000000000000000000000000000000000000000000000000000000000000000000000000000000000000000000000000000000N 00000000000NCONT   00    00000000000          00000000000000000000000000000000000000000000 000000000000000A000000000000000000000000000000000000000000000 000000000000000000000000000000000000000     00000000                                                                                                                        000000000000000000
F0010000006706100003000090036646700042505000000000000000000201501190002001FERREPROYECTOS S.A.S                              C000000000569000000000000000000000100010010000000000000000000000F0010000006706100320150119000101 00000000000000000000000000000000000000000000000000000000000000000000000000000000000000000000000000000000000000000N 00000000000NCONT   00    00000000000          00000000000000000000000000000000000000000000 000000000000000A000000000000000000000000000000000000000000000 000000000000000000000000000000000000000     00000000                                                                                                                        000000000000000000
F0010000006706100004000090036646700023658300000000000000000201501190002001FERREPROYECTOS S.A.S                              C000000000485600000000000000000000100010010000000000000000000000F0010000006706100420150119000101 00000000000000000000000000000000000000000000000000000000000000000000000000000000000000000000000000000000000000000N 00000000000NCONT   00    00000000000          00000000000000000000000000000000000000000000 000000000000000A000000000000000000000000000000000000000000000 000000000000000000000000000000000000000     00000000                                                                                                                        000000000000000000
F0010000006706100005000090036646700013552100000000000000000201501190002001FERREPROYECTOS S.A.S                              D000000000485600000000000000000000100010010000000000000000000000F0010000006706100520150119000101 00000000000000000000000000000000000000000000000000000000000000000000000000000000000000000000000000000000000000000N 00000000000NCONT   00    00000000000          00000000000000000000000000000000000000000000 000000000000000A000000000000000000000000000000000000000000000 000000000000000000000000000000000000000     00000000                                                                                                                        000000000000000000
F0010000006706200001000090013324200013050500000000000000000201501190002001PLASTICOHEN E.U                                   D000000044590000000000000000000000100010010000000000000000000000F0010000006706200120150119000101 00000000000000000000000000000000000000000000000000000000000000000000000000000000000000000000000000000000000000000N 00000000000NCONT   00    00000000000          00000000000000000000000000000000000000000000 000000000000000A000000000000000000000000000000000000000000000 000000000000000000000000000000000000000     00000000                                                                                                                        000000000000000000
F0010000006706200002000090013324200041450500000000000000000201501190002001PLASTICOHEN E.U                                   C000000040590000000000000000000000100010010000000000000000000000F0010000006706200220150119000101 00000000000000000000000000000000000000000000000000000000000000000000000000000000000000000000000000000000000000000N 00000000000NCONT   00    00000000000          00000000000000000000000000000000000000000000 000000000000000A000000000000000000000000000000000000000000000 000000000000000000000000000000000000000     00000000                                                                                                                        000000000000000000
F0010000006706200003000090013324200042505000000000000000000201501190002001PLASTICOHEN E.U                                   C000000004000000000000000000000000100010010000000000000000000000F0010000006706200320150119000101 00000000000000000000000000000000000000000000000000000000000000000000000000000000000000000000000000000000000000000N 00000000000NCONT   00    00000000000          00000000000000000000000000000000000000000000 000000000000000A000000000000000000000000000000000000000000000 000000000000000000000000000000000000000     00000000                                                                                                                        000000000000000000
F0010000006706200004000090013324200023658300000000000000000201501190002001PLASTICOHEN E.U                                   C000000000324700000000000000000000100010010000000000000000000000F0010000006706200420150119000101 00000000000000000000000000000000000000000000000000000000000000000000000000000000000000000000000000000000000000000N 00000000000NCONT   00    00000000000          00000000000000000000000000000000000000000000 000000000000000A000000000000000000000000000000000000000000000 000000000000000000000000000000000000000     00000000                                                                                                                        000000000000000000
F0010000006706200005000090013324200013552100000000000000000201501190002001PLASTICOHEN E.U                                   D000000000324700000000000000000000100010010000000000000000000000F0010000006706200520150119000101 00000000000000000000000000000000000000000000000000000000000000000000000000000000000000000000000000000000000000000N 00000000000NCONT   00    00000000000          00000000000000000000000000000000000000000000 000000000000000A000000000000000000000000000000000000000000000 000000000000000000000000000000000000000     00000000                                                                                                                        000000000000000000
F0010000006706300001000089070997800013050500000000000000000201501190002001CENTRAL DE TORNILLOS                              D000000030308600000000000000000000100010010000000000000000000000F0010000006706300120150119000101 00000000000000000000000000000000000000000000000000000000000000000000000000000000000000000000000000000000000000000N 00000000000NCONT   00    00000000000          00000000000000000000000000000000000000000000 000000000000000A000000000000000000000000000000000000000000000 000000000000000000000000000000000000000     00000000                                                                                                                        000000000000000000
F0010000006706300002000089070997800041450500000000000000000201501190002001CENTRAL DE TORNILLOS                              C000000027720000000000000000000000100010010000000000000000000000F0010000006706300220150119000101 00000000000000000000000000000000000000000000000000000000000000000000000000000000000000000000000000000000000000000N 00000000000NCONT   00    00000000000          00000000000000000000000000000000000000000000 000000000000000A000000000000000000000000000000000000000000000 000000000000000000000000000000000000000     00000000                                                                                                                        000000000000000000
F0010000006706300003000089070997800042505000000000000000000201501190002001CENTRAL DE TORNILLOS                              C000000002588600000000000000000000100010010000000000000000000000F0010000006706300320150119000101 00000000000000000000000000000000000000000000000000000000000000000000000000000000000000000000000000000000000000000N 00000000000NCONT   00    00000000000          00000000000000000000000000000000000000000000 000000000000000A000000000000000000000000000000000000000000000 000000000000000000000000000000000000000     00000000                                                                                                                        000000000000000000
F0010000006706300004000089070997800023658300000000000000000201501190002001CENTRAL DE TORNILLOS                              C000000000221800000000000000000000100010010000000000000000000000F0010000006706300420150119000101 00000000000000000000000000000000000000000000000000000000000000000000000000000000000000000000000000000000000000000N 00000000000NCONT   00    00000000000          00000000000000000000000000000000000000000000 000000000000000A000000000000000000000000000000000000000000000 000000000000000000000000000000000000000     00000000                                                                                                                        000000000000000000
F0010000006706300005000089070997800013552100000000000000000201501190002001CENTRAL DE TORNILLOS                              D000000000221800000000000000000000100010010000000000000000000000F0010000006706300520150119000101 00000000000000000000000000000000000000000000000000000000000000000000000000000000000000000000000000000000000000000N 00000000000NCONT   00    00000000000          00000000000000000000000000000000000000000000 000000000000000A000000000000000000000000000000000000000000000 000000000000000000000000000000000000000     00000000                                                                                                                        000000000000000000
F0010000006706400001000080016664500013050500000000000000000201501190002001TELAPLAS PANCER SAS                               D000000133326200000000000000000000100010010000000000000000000000F0010000006706400120150119000101 00000000000000000000000000000000000000000000000000000000000000000000000000000000000000000000000000000000000000000N 00000000000NCONT   00    00000000000          00000000000000000000000000000000000000000000 000000000000000A000000000000000000000000000000000000000000000 000000000000000000000000000000000000000     00000000                                                                                                                        000000000000000000
F0010000006706400002000080016664500041450500000000000000000201501190002001TELAPLAS PANCER SAS                               C000000108920000000000000000000000100010010000000000000000000000F0010000006706400220150119000101 00000000000000000000000000000000000000000000000000000000000000000000000000000000000000000000000000000000000000000N 00000000000NCONT   00    00000000000          00000000000000000000000000000000000000000000 000000000000000A000000000000000000000000000000000000000000000 000000000000000000000000000000000000000     00000000                                                                                                                        000000000000000000
F0010000006706400003000080016664500042505000000000000000000201501190002001TELAPLAS PANCER SAS                               C000000024406200000000000000000000100010010000000000000000000000F0010000006706400320150119000101 00000000000000000000000000000000000000000000000000000000000000000000000000000000000000000000000000000000000000000N 00000000000NCONT   00    00000000000          00000000000000000000000000000000000000000000 000000000000000A000000000000000000000000000000000000000000000 000000000000000000000000000000000000000     00000000                                                                                                                        000000000000000000
F0010000006706400004000080016664500023658300000000000000000201501190002001TELAPLAS PANCER SAS                               C000000000871400000000000000000000100010010000000000000000000000F0010000006706400420150119000101 00000000000000000000000000000000000000000000000000000000000000000000000000000000000000000000000000000000000000000N 00000000000NCONT   00    00000000000          00000000000000000000000000000000000000000000 000000000000000A000000000000000000000000000000000000000000000 000000000000000000000000000000000000000     00000000                                                                                                                        000000000000000000
F0010000006706400005000080016664500013552100000000000000000201501190002001TELAPLAS PANCER SAS                               D000000000871400000000000000000000100010010000000000000000000000F0010000006706400520150119000101 00000000000000000000000000000000000000000000000000000000000000000000000000000000000000000000000000000000000000000N 00000000000NCONT   00    00000000000          00000000000000000000000000000000000000000000 000000000000000A000000000000000000000000000000000000000000000 000000000000000000000000000000000000000     00000000                                                                                                                        000000000000000000
F0010000006706500001000090008711200013050500000000000000000201501190002001PACKAGING SUPPLIERS S.A.                          D000000141268000000000000000000000100010010000000000000000000000F0010000006706500120150119000101 00000000000000000000000000000000000000000000000000000000000000000000000000000000000000000000000000000000000000000N 00000000000NCONT   00    00000000000          00000000000000000000000000000000000000000000 000000000000000A000000000000000000000000000000000000000000000 000000000000000000000000000000000000000     00000000                                                                                                                        000000000000000000
F0010000006706500002000090008711200041450500000000000000000201501190002001PACKAGING SUPPLIERS S.A.                          C000000128791300000000000000000000100010010000000000000000000000F0010000006706500220150119000101 00000000000000000000000000000000000000000000000000000000000000000000000000000000000000000000000000000000000000000N 00000000000NCONT   00    00000000000          00000000000000000000000000000000000000000000 000000000000000A000000000000000000000000000000000000000000000 000000000000000000000000000000000000000     00000000                                                                                                                        000000000000000000
F0010000006706500003000090008711200042505000000000000000000201501190002001PACKAGING SUPPLIERS S.A.                          C000000012476700000000000000000000100010010000000000000000000000F0010000006706500320150119000101 00000000000000000000000000000000000000000000000000000000000000000000000000000000000000000000000000000000000000000N 00000000000NCONT   00    00000000000          00000000000000000000000000000000000000000000 000000000000000A000000000000000000000000000000000000000000000 000000000000000000000000000000000000000     00000000                                                                                                                        000000000000000000
F0010000006706500004000090008711200023658300000000000000000201501190002001PACKAGING SUPPLIERS S.A.                          C000000001030300000000000000000000100010010000000000000000000000F0010000006706500420150119000101 00000000000000000000000000000000000000000000000000000000000000000000000000000000000000000000000000000000000000000N 00000000000NCONT   00    00000000000          00000000000000000000000000000000000000000000 000000000000000A000000000000000000000000000000000000000000000 000000000000000000000000000000000000000     00000000                                                                                                                        000000000000000000
F0010000006706500005000090008711200013552100000000000000000201501190002001PACKAGING SUPPLIERS S.A.                          D000000001030300000000000000000000100010010000000000000000000000F0010000006706500520150119000101 00000000000000000000000000000000000000000000000000000000000000000000000000000000000000000000000000000000000000000N 00000000000NCONT   00    00000000000          00000000000000000000000000000000000000000000 000000000000000A000000000000000000000000000000000000000000000 000000000000000000000000000000000000000     00000000                                                                                                                        000000000000000000
F0010000006706600001000090008711200013050500000000000000000201501190002001PACKAGING SUPPLIERS S.A.                          D000000094211600000000000000000000100010010000000000000000000000F0010000006706600120150119000101 00000000000000000000000000000000000000000000000000000000000000000000000000000000000000000000000000000000000000000N 00000000000NCONT   00    00000000000          00000000000000000000000000000000000000000000 000000000000000A000000000000000000000000000000000000000000000 000000000000000000000000000000000000000     00000000                                                                                                                        000000000000000000
F0010000006706600002000090008711200041450500000000000000000201501190002001PACKAGING SUPPLIERS S.A.                          C000000086611400000000000000000000100010010000000000000000000000F0010000006706600220150119000101 00000000000000000000000000000000000000000000000000000000000000000000000000000000000000000000000000000000000000000N 00000000000NCONT   00    00000000000          00000000000000000000000000000000000000000000 000000000000000A000000000000000000000000000000000000000000000 000000000000000000000000000000000000000     00000000                                                                                                                        000000000000000000
F0010000006706600003000090008711200042505000000000000000000201501190002001PACKAGING SUPPLIERS S.A.                          C000000007600200000000000000000000100010010000000000000000000000F0010000006706600320150119000101 00000000000000000000000000000000000000000000000000000000000000000000000000000000000000000000000000000000000000000N 00000000000NCONT   00    00000000000          00000000000000000000000000000000000000000000 000000000000000A000000000000000000000000000000000000000000000 000000000000000000000000000000000000000     00000000                                                                                                                        000000000000000000
F0010000006706600004000090008711200023658300000000000000000201501190002001PACKAGING SUPPLIERS S.A.                          C000000000692900000000000000000000100010010000000000000000000000F0010000006706600420150119000101 00000000000000000000000000000000000000000000000000000000000000000000000000000000000000000000000000000000000000000N 00000000000NCONT   00    00000000000          00000000000000000000000000000000000000000000 000000000000000A000000000000000000000000000000000000000000000 000000000000000000000000000000000000000     00000000                                                                                                                        000000000000000000
F0010000006706600005000090008711200013552100000000000000000201501190002001PACKAGING SUPPLIERS S.A.                          D000000000692900000000000000000000100010010000000000000000000000F0010000006706600520150119000101 00000000000000000000000000000000000000000000000000000000000000000000000000000000000000000000000000000000000000000N 00000000000NCONT   00    00000000000          00000000000000000000000000000000000000000000 000000000000000A000000000000000000000000000000000000000000000 000000000000000000000000000000000000000     00000000                                                                                                                        000000000000000000
F0010000006706700001000080004943800013050500000000000000000201501190002001PAPELERIA EL CID S.A.                             D000000045195000000000000000000000100010010000000000000000000000F0010000006706700120150119000101 00000000000000000000000000000000000000000000000000000000000000000000000000000000000000000000000000000000000000000N 00000000000NCONT   00    00000000000          00000000000000000000000000000000000000000000 000000000000000A000000000000000000000000000000000000000000000 000000000000000000000000000000000000000     00000000                                                                                                                        000000000000000000
F0010000006706700002000080004943800041450500000000000000000201501190002001PAPELERIA EL CID S.A.                             C000000042400000000000000000000000100010010000000000000000000000F0010000006706700220150119000101 00000000000000000000000000000000000000000000000000000000000000000000000000000000000000000000000000000000000000000N 00000000000NCONT   00    00000000000          00000000000000000000000000000000000000000000 000000000000000A000000000000000000000000000000000000000000000 000000000000000000000000000000000000000     00000000                                                                                                                        000000000000000000
F0010000006706700003000080004943800042505000000000000000000201501190002001PAPELERIA EL CID S.A.                             C000000002795000000000000000000000100010010000000000000000000000F0010000006706700320150119000101 00000000000000000000000000000000000000000000000000000000000000000000000000000000000000000000000000000000000000000N 00000000000NCONT   00    00000000000          00000000000000000000000000000000000000000000 000000000000000A000000000000000000000000000000000000000000000 000000000000000000000000000000000000000     00000000                                                                                                                        000000000000000000
F0010000006706700004000080004943800023658300000000000000000201501190002001PAPELERIA EL CID S.A.                             C000000000339200000000000000000000100010010000000000000000000000F0010000006706700420150119000101 00000000000000000000000000000000000000000000000000000000000000000000000000000000000000000000000000000000000000000N 00000000000NCONT   00    00000000000          00000000000000000000000000000000000000000000 000000000000000A000000000000000000000000000000000000000000000 000000000000000000000000000000000000000     00000000                                                                                                                        000000000000000000
F0010000006706700005000080004943800013552100000000000000000201501190002001PAPELERIA EL CID S.A.                             D000000000339200000000000000000000100010010000000000000000000000F0010000006706700520150119000101 00000000000000000000000000000000000000000000000000000000000000000000000000000000000000000000000000000000000000000N 00000000000NCONT   00    00000000000          00000000000000000000000000000000000000000000 000000000000000A000000000000000000000000000000000000000000000 000000000000000000000000000000000000000     00000000                                                                                                                        000000000000000000
F0010000006706800001000080004943800013050500000000000000000201501190002001PAPELERIA EL CID S.A.                             D000000057712500000000000000000000100010010000000000000000000000F0010000006706800120150119000101 00000000000000000000000000000000000000000000000000000000000000000000000000000000000000000000000000000000000000000N 00000000000NCONT   00    00000000000          00000000000000000000000000000000000000000000 000000000000000A000000000000000000000000000000000000000000000 000000000000000000000000000000000000000     00000000                                                                                                                        000000000000000000
F0010000006706800002000080004943800041450500000000000000000201501190002001PAPELERIA EL CID S.A.                             C000000052140000000000000000000000100010010000000000000000000000F0010000006706800220150119000101 00000000000000000000000000000000000000000000000000000000000000000000000000000000000000000000000000000000000000000N 00000000000NCONT   00    00000000000          00000000000000000000000000000000000000000000 000000000000000A000000000000000000000000000000000000000000000 000000000000000000000000000000000000000     00000000                                                                                                                        000000000000000000
F0010000006706800003000080004943800042505000000000000000000201501190002001PAPELERIA EL CID S.A.                             C000000005572500000000000000000000100010010000000000000000000000F0010000006706800320150119000101 00000000000000000000000000000000000000000000000000000000000000000000000000000000000000000000000000000000000000000N 00000000000NCONT   00    00000000000          00000000000000000000000000000000000000000000 000000000000000A000000000000000000000000000000000000000000000 000000000000000000000000000000000000000     00000000                                                                                                                        000000000000000000
F0010000006706800004000080004943800023658300000000000000000201501190002001PAPELERIA EL CID S.A.                             C000000000417100000000000000000000100010010000000000000000000000F0010000006706800420150119000101 00000000000000000000000000000000000000000000000000000000000000000000000000000000000000000000000000000000000000000N 00000000000NCONT   00    00000000000          00000000000000000000000000000000000000000000 000000000000000A000000000000000000000000000000000000000000000 000000000000000000000000000000000000000     00000000                                                                                                                        000000000000000000
F0010000006706800005000080004943800013552100000000000000000201501190002001PAPELERIA EL CID S.A.                             D000000000417100000000000000000000100010010000000000000000000000F0010000006706800520150119000101 00000000000000000000000000000000000000000000000000000000000000000000000000000000000000000000000000000000000000000N 00000000000NCONT   00    00000000000          00000000000000000000000000000000000000000000 000000000000000A000000000000000000000000000000000000000000000 000000000000000000000000000000000000000     00000000                                                                                                                        000000000000000000
F0010000006706900001000080002300200013050500000000000000000201501190002001DISREL S.A.                                       D000000061750000000000000000000000100010010000000000000000000000F0010000006706900120150119000101 00000000000000000000000000000000000000000000000000000000000000000000000000000000000000000000000000000000000000000N 00000000000NCONT   00    00000000000          00000000000000000000000000000000000000000000 000000000000000A000000000000000000000000000000000000000000000 000000000000000000000000000000000000000     00000000                                                                                                                        000000000000000000
F0010000006706900002000080002300200041450500000000000000000201501190002001DISREL S.A.                                       C000000049400000000000000000000000100010010000000000000000000000F0010000006706900220150119000101 00000000000000000000000000000000000000000000000000000000000000000000000000000000000000000000000000000000000000000N 00000000000NCONT   00    00000000000          00000000000000000000000000000000000000000000 000000000000000A000000000000000000000000000000000000000000000 000000000000000000000000000000000000000     00000000                                                                                                                        000000000000000000
F0010000006706900003000080002300200042505000000000000000000201501190002001DISREL S.A.                                       C000000012350000000000000000000000100010010000000000000000000000F0010000006706900320150119000101 00000000000000000000000000000000000000000000000000000000000000000000000000000000000000000000000000000000000000000N 00000000000NCONT   00    00000000000          00000000000000000000000000000000000000000000 000000000000000A000000000000000000000000000000000000000000000 000000000000000000000000000000000000000     00000000                                                                                                                        000000000000000000
F0010000006706900004000080002300200023658300000000000000000201501190002001DISREL S.A.                                       C000000000395200000000000000000000100010010000000000000000000000F0010000006706900420150119000101 00000000000000000000000000000000000000000000000000000000000000000000000000000000000000000000000000000000000000000N 00000000000NCONT   00    00000000000          00000000000000000000000000000000000000000000 000000000000000A000000000000000000000000000000000000000000000 000000000000000000000000000000000000000     00000000                                                                                                                        000000000000000000
F0010000006706900005000080002300200013552100000000000000000201501190002001DISREL S.A.                                       D000000000395200000000000000000000100010010000000000000000000000F0010000006706900520150119000101 00000000000000000000000000000000000000000000000000000000000000000000000000000000000000000000000000000000000000000N 00000000000NCONT   00    00000000000          00000000000000000000000000000000000000000000 000000000000000A000000000000000000000000000000000000000000000 000000000000000000000000000000000000000     00000000                                                                                                                        000000000000000000
F0010000006707000001000080200863700013050500000000000000000201501190002001COPIN LTDA                                        D000000157047600000000000000000000100010010000000000000000000000F0010000006707000120150119000101 00000000000000000000000000000000000000000000000000000000000000000000000000000000000000000000000000000000000000000N 00000000000NCONT   00    00000000000          00000000000000000000000000000000000000000000 000000000000000A000000000000000000000000000000000000000000000 000000000000000000000000000000000000000     00000000                                                                                                                        000000000000000000
F0010000006707000002000080200863700041450500000000000000000201501190002001COPIN LTDA                                        C000000143635000000000000000000000100010010000000000000000000000F0010000006707000220150119000101 00000000000000000000000000000000000000000000000000000000000000000000000000000000000000000000000000000000000000000N 00000000000NCONT   00    00000000000          00000000000000000000000000000000000000000000 000000000000000A000000000000000000000000000000000000000000000 000000000000000000000000000000000000000     00000000                                                                                                                        000000000000000000
F0010000006707000003000080200863700042505000000000000000000201501190002001COPIN LTDA                                        C000000013412600000000000000000000100010010000000000000000000000F0010000006707000320150119000101 00000000000000000000000000000000000000000000000000000000000000000000000000000000000000000000000000000000000000000N 00000000000NCONT   00    00000000000          00000000000000000000000000000000000000000000 000000000000000A000000000000000000000000000000000000000000000 000000000000000000000000000000000000000     00000000                                                                                                                        000000000000000000
F0010000006707000004000080200863700023658300000000000000000201501190002001COPIN LTDA                                        C000000001149100000000000000000000100010010000000000000000000000F0010000006707000420150119000101 00000000000000000000000000000000000000000000000000000000000000000000000000000000000000000000000000000000000000000N 00000000000NCONT   00    00000000000          00000000000000000000000000000000000000000000 000000000000000A000000000000000000000000000000000000000000000 000000000000000000000000000000000000000     00000000                                                                                                                        000000000000000000
F0010000006707000005000080200863700013552100000000000000000201501190002001COPIN LTDA                                        D000000001149100000000000000000000100010010000000000000000000000F0010000006707000520150119000101 00000000000000000000000000000000000000000000000000000000000000000000000000000000000000000000000000000000000000000N 00000000000NCONT   00    00000000000          00000000000000000000000000000000000000000000 000000000000000A000000000000000000000000000000000000000000000 000000000000000000000000000000000000000     00000000                                                                                                                        000000000000000000
F0010000006707100001000090009800500013050500000000000000000201501190002001GLORIANT CHEMICAL DE COLOMBIA LTDA                D000000175006000000000000000000000100010010000000000000000000000F0010000006707100120150119000101 00000000000000000000000000000000000000000000000000000000000000000000000000000000000000000000000000000000000000000N 00000000000NCONT   00    00000000000          00000000000000000000000000000000000000000000 000000000000000A000000000000000000000000000000000000000000000 000000000000000000000000000000000000000     00000000                                                                                                                        000000000000000000
F0010000006707100002000090009800500041450500000000000000000201501190002001GLORIANT CHEMICAL DE COLOMBIA LTDA                C000000147590000000000000000000000100010010000000000000000000000F0010000006707100220150119000101 00000000000000000000000000000000000000000000000000000000000000000000000000000000000000000000000000000000000000000N 00000000000NCONT   00    00000000000          00000000000000000000000000000000000000000000 000000000000000A000000000000000000000000000000000000000000000 000000000000000000000000000000000000000     00000000                                                                                                                        000000000000000000
F0010000006707100003000090009800500042505000000000000000000201501190002001GLORIANT CHEMICAL DE COLOMBIA LTDA                C000000027416000000000000000000000100010010000000000000000000000F0010000006707100320150119000101 00000000000000000000000000000000000000000000000000000000000000000000000000000000000000000000000000000000000000000N 00000000000NCONT   00    00000000000          00000000000000000000000000000000000000000000 000000000000000A000000000000000000000000000000000000000000000 000000000000000000000000000000000000000     00000000                                                                                                                        000000000000000000
F0010000006707100004000090009800500023658300000000000000000201501190002001GLORIANT CHEMICAL DE COLOMBIA LTDA                C000000001180700000000000000000000100010010000000000000000000000F0010000006707100420150119000101 00000000000000000000000000000000000000000000000000000000000000000000000000000000000000000000000000000000000000000N 00000000000NCONT   00    00000000000          00000000000000000000000000000000000000000000 000000000000000A000000000000000000000000000000000000000000000 000000000000000000000000000000000000000     00000000                                                                                                                        000000000000000000
F0010000006707100005000090009800500013552100000000000000000201501190002001GLORIANT CHEMICAL DE COLOMBIA LTDA                D000000001180700000000000000000000100010010000000000000000000000F0010000006707100520150119000101 00000000000000000000000000000000000000000000000000000000000000000000000000000000000000000000000000000000000000000N 00000000000NCONT   00    00000000000          00000000000000000000000000000000000000000000 000000000000000A000000000000000000000000000000000000000000000 000000000000000000000000000000000000000     00000000                                                                                                                        000000000000000000
F0010000006707200001000002257933700013050500000000000000000201501190002001ROSA MARGARITA  PUCCINI SU HERRAMIENTAS Y ELECTRICD000000002828200000000000000000000100010010000000000000000000000F0010000006707200120150119000101 00000000000000000000000000000000000000000000000000000000000000000000000000000000000000000000000000000000000000000N 00000000000NCONT   00    00000000000          00000000000000000000000000000000000000000000 000000000000000A000000000000000000000000000000000000000000000 000000000000000000000000000000000000000     00000000                                                                                                                        000000000000000000
F0010000006707200002000002257933700041450500000000000000000201501190002001ROSA MARGARITA  PUCCINI SU HERRAMIENTAS Y ELECTRICC000000002150000000000000000000000100010010000000000000000000000F0010000006707200220150119000101 00000000000000000000000000000000000000000000000000000000000000000000000000000000000000000000000000000000000000000N 00000000000NCONT   00    00000000000          00000000000000000000000000000000000000000000 000000000000000A000000000000000000000000000000000000000000000 000000000000000000000000000000000000000     00000000                                                                                                                        000000000000000000
F0010000006707200003000002257933700042505000000000000000000201501190002001ROSA MARGARITA  PUCCINI SU HERRAMIENTAS Y ELECTRICC000000000678200000000000000000000100010010000000000000000000000F0010000006707200320150119000101 00000000000000000000000000000000000000000000000000000000000000000000000000000000000000000000000000000000000000000N 00000000000NCONT   00    00000000000          00000000000000000000000000000000000000000000 000000000000000A000000000000000000000000000000000000000000000 000000000000000000000000000000000000000     00000000                                                                                                                        000000000000000000
F0010000006707200004000002257933700023658300000000000000000201501190002001ROSA MARGARITA  PUCCINI SU HERRAMIENTAS Y ELECTRICC000000000017200000000000000000000100010010000000000000000000000F0010000006707200420150119000101 00000000000000000000000000000000000000000000000000000000000000000000000000000000000000000000000000000000000000000N 00000000000NCONT   00    00000000000          00000000000000000000000000000000000000000000 000000000000000A000000000000000000000000000000000000000000000 000000000000000000000000000000000000000     00000000                                                                                                                        000000000000000000
F0010000006707200005000002257933700013552100000000000000000201501190002001ROSA MARGARITA  PUCCINI SU HERRAMIENTAS Y ELECTRICD000000000017200000000000000000000100010010000000000000000000000F0010000006707200520150119000101 00000000000000000000000000000000000000000000000000000000000000000000000000000000000000000000000000000000000000000N 00000000000NCONT   00    00000000000          00000000000000000000000000000000000000000000 000000000000000A000000000000000000000000000000000000000000000 000000000000000000000000000000000000000     00000000                                                                                                                        000000000000000000
F0010000006707300001000000376399500013050500000000000000000201501190002001FORDPLAST                                         D000000016330000000000000000000000100010010000000000000000000000F0010000006707300120150119000101 00000000000000000000000000000000000000000000000000000000000000000000000000000000000000000000000000000000000000000N 00000000000NCONT   00    00000000000          00000000000000000000000000000000000000000000 000000000000000A000000000000000000000000000000000000000000000 000000000000000000000000000000000000000     00000000                                                                                                                        000000000000000000
F0010000006707300002000000376399500041450500000000000000000201501190002001FORDPLAST                                         C000000013730000000000000000000000100010010000000000000000000000F0010000006707300220150119000101 00000000000000000000000000000000000000000000000000000000000000000000000000000000000000000000000000000000000000000N 00000000000NCONT   00    00000000000          00000000000000000000000000000000000000000000 000000000000000A000000000000000000000000000000000000000000000 000000000000000000000000000000000000000     00000000                                                                                                                        000000000000000000
F0010000006707300003000000376399500042505000000000000000000201501190002001FORDPLAST                                         C000000002600000000000000000000000100010010000000000000000000000F0010000006707300320150119000101 00000000000000000000000000000000000000000000000000000000000000000000000000000000000000000000000000000000000000000N 00000000000NCONT   00    00000000000          00000000000000000000000000000000000000000000 000000000000000A000000000000000000000000000000000000000000000 000000000000000000000000000000000000000     00000000                                                                                                                        000000000000000000
F0010000006707300004000000376399500023658300000000000000000201501190002001FORDPLAST                                         C000000000109800000000000000000000100010010000000000000000000000F0010000006707300420150119000101 00000000000000000000000000000000000000000000000000000000000000000000000000000000000000000000000000000000000000000N 00000000000NCONT   00    00000000000          00000000000000000000000000000000000000000000 000000000000000A000000000000000000000000000000000000000000000 000000000000000000000000000000000000000     00000000                                                                                                                        000000000000000000
F0010000006707300005000000376399500013552100000000000000000201501190002001FORDPLAST                                         D000000000109800000000000000000000100010010000000000000000000000F0010000006707300520150119000101 00000000000000000000000000000000000000000000000000000000000000000000000000000000000000000000000000000000000000000N 00000000000NCONT   00    00000000000          00000000000000000000000000000000000000000000 000000000000000A000000000000000000000000000000000000000000000 000000000000000000000000000000000000000     00000000                                                                                                                        000000000000000000
F0010000006707400001000089010526900013050500000000000000000201501190002001DISTRIBUCIONES CANAL Y CIA S.A.S                  D000000049258000000000000000000000100010010000000000000000000000F0010000006707400120150119000101 00000000000000000000000000000000000000000000000000000000000000000000000000000000000000000000000000000000000000000N 00000000000NCONT   00    00000000000          00000000000000000000000000000000000000000000 000000000000000A000000000000000000000000000000000000000000000 000000000000000000000000000000000000000     00000000                                                                                                                        000000000000000000
F0010000006707400002000089010526900041450500000000000000000201501190002001DISTRIBUCIONES CANAL Y CIA S.A.S                  C000000033930000000000000000000000100010010000000000000000000000F0010000006707400220150119000101 00000000000000000000000000000000000000000000000000000000000000000000000000000000000000000000000000000000000000000N 00000000000NCONT   00    00000000000          00000000000000000000000000000000000000000000 000000000000000A000000000000000000000000000000000000000000000 000000000000000000000000000000000000000     00000000                                                                                                                        000000000000000000
F0010000006707400003000089010526900042505000000000000000000201501190002001DISTRIBUCIONES CANAL Y CIA S.A.S                  C000000015328000000000000000000000100010010000000000000000000000F0010000006707400320150119000101 00000000000000000000000000000000000000000000000000000000000000000000000000000000000000000000000000000000000000000N 00000000000NCONT   00    00000000000          00000000000000000000000000000000000000000000 000000000000000A000000000000000000000000000000000000000000000 000000000000000000000000000000000000000     00000000                                                                                                                        000000000000000000
F0010000006707400004000089010526900023658300000000000000000201501190002001DISTRIBUCIONES CANAL Y CIA S.A.S                  C000000000271400000000000000000000100010010000000000000000000000F0010000006707400420150119000101 00000000000000000000000000000000000000000000000000000000000000000000000000000000000000000000000000000000000000000N 00000000000NCONT   00    00000000000          00000000000000000000000000000000000000000000 000000000000000A000000000000000000000000000000000000000000000 000000000000000000000000000000000000000     00000000                                                                                                                        000000000000000000
F0010000006707400005000089010526900013552100000000000000000201501190002001DISTRIBUCIONES CANAL Y CIA S.A.S                  D000000000271400000000000000000000100010010000000000000000000000F0010000006707400520150119000101 00000000000000000000000000000000000000000000000000000000000000000000000000000000000000000000000000000000000000000N 00000000000NCONT   00    00000000000          00000000000000000000000000000000000000000000 000000000000000A000000000000000000000000000000000000000000000 000000000000000000000000000000000000000     00000000                                                                                                                        000000000000000000
F0010000006707500001000090031658200013050500000000000000000201501190002001ABAOS S.A.S.                                      D000000011801300000000000000000000100010010000000000000000000000F0010000006707500120150119000101 00000000000000000000000000000000000000000000000000000000000000000000000000000000000000000000000000000000000000000N 00000000000NCONT   00    00000000000          00000000000000000000000000000000000000000000 000000000000000A000000000000000000000000000000000000000000000 000000000000000000000000000000000000000     00000000                                                                                                                        000000000000000000
F0010000006707500002000090031658200041450500000000000000000201501190002001ABAOS S.A.S.                                      C000000009660000000000000000000000100010010000000000000000000000F0010000006707500220150119000101 00000000000000000000000000000000000000000000000000000000000000000000000000000000000000000000000000000000000000000N 00000000000NCONT   00    00000000000          00000000000000000000000000000000000000000000 000000000000000A000000000000000000000000000000000000000000000 000000000000000000000000000000000000000     00000000                                                                                                                        000000000000000000
F0010000006707500003000090031658200042505000000000000000000201501190002001ABAOS S.A.S.                                      C000000002141300000000000000000000100010010000000000000000000000F0010000006707500320150119000101 00000000000000000000000000000000000000000000000000000000000000000000000000000000000000000000000000000000000000000N 00000000000NCONT   00    00000000000          00000000000000000000000000000000000000000000 000000000000000A000000000000000000000000000000000000000000000 000000000000000000000000000000000000000     00000000                                                                                                                        000000000000000000
F0010000006707500004000090031658200023658300000000000000000201501190002001ABAOS S.A.S.                                      C000000000077300000000000000000000100010010000000000000000000000F0010000006707500420150119000101 00000000000000000000000000000000000000000000000000000000000000000000000000000000000000000000000000000000000000000N 00000000000NCONT   00    00000000000          00000000000000000000000000000000000000000000 000000000000000A000000000000000000000000000000000000000000000 000000000000000000000000000000000000000     00000000                                                                                                                        000000000000000000
F0010000006707500005000090031658200013552100000000000000000201501190002001ABAOS S.A.S.                                      D000000000077300000000000000000000100010010000000000000000000000F0010000006707500520150119000101 00000000000000000000000000000000000000000000000000000000000000000000000000000000000000000000000000000000000000000N 00000000000NCONT   00    00000000000          00000000000000000000000000000000000000000000 000000000000000A000000000000000000000000000000000000000000000 000000000000000000000000000000000000000     00000000                                                                                                                        000000000000000000
F0010000006707600001000080200962900013050500000000000000000201501190002001ACERO & MALLAS S.A.S.                             D000000002520000000000000000000000100010010000000000000000000000F0010000006707600120150119000101 00000000000000000000000000000000000000000000000000000000000000000000000000000000000000000000000000000000000000000N 00000000000NCONT   00    00000000000          00000000000000000000000000000000000000000000 000000000000000A000000000000000000000000000000000000000000000 000000000000000000000000000000000000000     00000000                                                                                                                        000000000000000000
F0010000006707600002000080200962900041450500000000000000000201501190002001ACERO & MALLAS S.A.S.                             C000000002420000000000000000000000100010010000000000000000000000F0010000006707600220150119000101 00000000000000000000000000000000000000000000000000000000000000000000000000000000000000000000000000000000000000000N 00000000000NCONT   00    00000000000          00000000000000000000000000000000000000000000 000000000000000A000000000000000000000000000000000000000000000 000000000000000000000000000000000000000     00000000                                                                                                                        000000000000000000
F0010000006707600003000080200962900042505000000000000000000201501190002001ACERO & MALLAS S.A.S.                             C000000000100000000000000000000000100010010000000000000000000000F0010000006707600320150119000101 00000000000000000000000000000000000000000000000000000000000000000000000000000000000000000000000000000000000000000N 00000000000NCONT   00    00000000000          00000000000000000000000000000000000000000000 000000000000000A000000000000000000000000000000000000000000000 000000000000000000000000000000000000000     00000000                                                                                                                        000000000000000000
F0010000006707600004000080200962900023658300000000000000000201501190002001ACERO & MALLAS S.A.S.                             C000000000019400000000000000000000100010010000000000000000000000F0010000006707600420150119000101 00000000000000000000000000000000000000000000000000000000000000000000000000000000000000000000000000000000000000000N 00000000000NCONT   00    00000000000          00000000000000000000000000000000000000000000 000000000000000A000000000000000000000000000000000000000000000 000000000000000000000000000000000000000     00000000                                                                                                                        000000000000000000
F0010000006707600005000080200962900013552100000000000000000201501190002001ACERO & MALLAS S.A.S.                             D000000000019400000000000000000000100010010000000000000000000000F0010000006707600520150119000101 00000000000000000000000000000000000000000000000000000000000000000000000000000000000000000000000000000000000000000N 00000000000NCONT   00    00000000000          00000000000000000000000000000000000000000000 000000000000000A000000000000000000000000000000000000000000000 000000000000000000000000000000000000000     00000000                                                                                                                        000000000000000000
F0010000006707700001000080016665600013050500000000000000000201501190002001SUMICAL DE ANTIOQUIA S.A.S                        D000000094397200000000000000000000100010010000000000000000000000F0010000006707700120150119000101 00000000000000000000000000000000000000000000000000000000000000000000000000000000000000000000000000000000000000000N 00000000000NCONT   00    00000000000          00000000000000000000000000000000000000000000 000000000000000A000000000000000000000000000000000000000000000 000000000000000000000000000000000000000     00000000                                                                                                                        000000000000000000
F0010000006707700002000080016665600041450500000000000000000201501190002001SUMICAL DE ANTIOQUIA S.A.S                        C000000083370000000000000000000000100010010000000000000000000000F0010000006707700220150119000101 00000000000000000000000000000000000000000000000000000000000000000000000000000000000000000000000000000000000000000N 00000000000NCONT   00    00000000000          00000000000000000000000000000000000000000000 000000000000000A000000000000000000000000000000000000000000000 000000000000000000000000000000000000000     00000000                                                                                                                        000000000000000000
F0010000006707700003000080016665600042505000000000000000000201501190002001SUMICAL DE ANTIOQUIA S.A.S                        C000000011027200000000000000000000100010010000000000000000000000F0010000006707700320150119000101 00000000000000000000000000000000000000000000000000000000000000000000000000000000000000000000000000000000000000000N 00000000000NCONT   00    00000000000          00000000000000000000000000000000000000000000 000000000000000A000000000000000000000000000000000000000000000 000000000000000000000000000000000000000     00000000                                                                                                                        000000000000000000
F0010000006707700004000080016665600023658300000000000000000201501190002001SUMICAL DE ANTIOQUIA S.A.S                        C000000000667000000000000000000000100010010000000000000000000000F0010000006707700420150119000101 00000000000000000000000000000000000000000000000000000000000000000000000000000000000000000000000000000000000000000N 00000000000NCONT   00    00000000000          00000000000000000000000000000000000000000000 000000000000000A000000000000000000000000000000000000000000000 000000000000000000000000000000000000000     00000000                                                                                                                        000000000000000000
F0010000006707700005000080016665600013552100000000000000000201501190002001SUMICAL DE ANTIOQUIA S.A.S                        D000000000667000000000000000000000100010010000000000000000000000F0010000006707700520150119000101 00000000000000000000000000000000000000000000000000000000000000000000000000000000000000000000000000000000000000000N 00000000000NCONT   00    00000000000          00000000000000000000000000000000000000000000 000000000000000A000000000000000000000000000000000000000000000 000000000000000000000000000000000000000     00000000                                                                                                                        000000000000000000
F0010000006707800001000090048173700013050500000000000000000201501190002001ESPECIALIDADES QUIMICAS DEL NORTE SAS             D000000016820000000000000000000000100010010000000000000000000000F0010000006707800120150119000101 00000000000000000000000000000000000000000000000000000000000000000000000000000000000000000000000000000000000000000N 00000000000NCONT   00    00000000000          00000000000000000000000000000000000000000000 000000000000000A000000000000000000000000000000000000000000000 000000000000000000000000000000000000000     00000000                                                                                                                        000000000000000000
F0010000006707800002000090048173700041450500000000000000000201501190002001ESPECIALIDADES QUIMICAS DEL NORTE SAS             C000000016270000000000000000000000100010010000000000000000000000F0010000006707800220150119000101 00000000000000000000000000000000000000000000000000000000000000000000000000000000000000000000000000000000000000000N 00000000000NCONT   00    00000000000          00000000000000000000000000000000000000000000 000000000000000A000000000000000000000000000000000000000000000 000000000000000000000000000000000000000     00000000                                                                                                                        000000000000000000
F0010000006707800003000090048173700042505000000000000000000201501190002001ESPECIALIDADES QUIMICAS DEL NORTE SAS             C000000000550000000000000000000000100010010000000000000000000000F0010000006707800320150119000101 00000000000000000000000000000000000000000000000000000000000000000000000000000000000000000000000000000000000000000N 00000000000NCONT   00    00000000000          00000000000000000000000000000000000000000000 000000000000000A000000000000000000000000000000000000000000000 000000000000000000000000000000000000000     00000000                                                                                                                        000000000000000000
F0010000006707800004000090048173700023658300000000000000000201501190002001ESPECIALIDADES QUIMICAS DEL NORTE SAS             C000000000130200000000000000000000100010010000000000000000000000F0010000006707800420150119000101 00000000000000000000000000000000000000000000000000000000000000000000000000000000000000000000000000000000000000000N 00000000000NCONT   00    00000000000          00000000000000000000000000000000000000000000 000000000000000A000000000000000000000000000000000000000000000 000000000000000000000000000000000000000     00000000                                                                                                                        000000000000000000
F0010000006707800005000090048173700013552100000000000000000201501190002001ESPECIALIDADES QUIMICAS DEL NORTE SAS             D000000000130200000000000000000000100010010000000000000000000000F0010000006707800520150119000101 00000000000000000000000000000000000000000000000000000000000000000000000000000000000000000000000000000000000000000N 00000000000NCONT   00    00000000000          00000000000000000000000000000000000000000000 000000000000000A000000000000000000000000000000000000000000000 000000000000000000000000000000000000000     00000000                                                                                                                        000000000000000000
F0010000006707900001000089011492400013050500000000000000000201501190002001AGE. CAUCHO SOL DE LA COSTA  SAS                  D000000145171100000000000000000000100010010000000000000000000000F0010000006707900120150119000101 00000000000000000000000000000000000000000000000000000000000000000000000000000000000000000000000000000000000000000N 00000000000NCONT   00    00000000000          00000000000000000000000000000000000000000000 000000000000000A000000000000000000000000000000000000000000000 000000000000000000000000000000000000000     00000000                                                                                                                        000000000000000000
F0010000006707900002000089011492400041450500000000000000000201501190002001AGE. CAUCHO SOL DE LA COSTA  SAS                  C000000098430000000000000000000000100010010000000000000000000000F0010000006707900220150119000101 00000000000000000000000000000000000000000000000000000000000000000000000000000000000000000000000000000000000000000N 00000000000NCONT   00    00000000000          00000000000000000000000000000000000000000000 000000000000000A000000000000000000000000000000000000000000000 000000000000000000000000000000000000000     00000000                                                                                                                        000000000000000000
F0010000006707900003000089011492400042505000000000000000000201501190002001AGE. CAUCHO SOL DE LA COSTA  SAS                  C000000046741100000000000000000000100010010000000000000000000000F0010000006707900320150119000101 00000000000000000000000000000000000000000000000000000000000000000000000000000000000000000000000000000000000000000N 00000000000NCONT   00    00000000000          00000000000000000000000000000000000000000000 000000000000000A000000000000000000000000000000000000000000000 000000000000000000000000000000000000000     00000000                                                                                                                        000000000000000000
F0010000006707900004000089011492400023658300000000000000000201501190002001AGE. CAUCHO SOL DE LA COSTA  SAS                  C000000000787400000000000000000000100010010000000000000000000000F0010000006707900420150119000101 00000000000000000000000000000000000000000000000000000000000000000000000000000000000000000000000000000000000000000N 00000000000NCONT   00    00000000000          00000000000000000000000000000000000000000000 000000000000000A000000000000000000000000000000000000000000000 000000000000000000000000000000000000000     00000000                                                                                                                        000000000000000000
F0010000006707900005000089011492400013552100000000000000000201501190002001AGE. CAUCHO SOL DE LA COSTA  SAS                  D000000000787400000000000000000000100010010000000000000000000000F0010000006707900520150119000101 00000000000000000000000000000000000000000000000000000000000000000000000000000000000000000000000000000000000000000N 00000000000NCONT   00    00000000000          00000000000000000000000000000000000000000000 000000000000000A000000000000000000000000000000000000000000000 000000000000000000000000000000000000000     00000000                                                                                                                        000000000000000000
F0010000006708000001000089011492400013050500000000000000000201501190002001AGE. CAUCHO SOL DE LA COSTA  SAS                  D000000152900700000000000000000000100010010000000000000000000000F0010000006708000120150119000101 00000000000000000000000000000000000000000000000000000000000000000000000000000000000000000000000000000000000000000N 00000000000NCONT   00    00000000000          00000000000000000000000000000000000000000000 000000000000000A000000000000000000000000000000000000000000000 000000000000000000000000000000000000000     00000000                                                                                                                        000000000000000000
F0010000006708000002000089011492400041450500000000000000000201501190002001AGE. CAUCHO SOL DE LA COSTA  SAS                  C000000089400000000000000000000000100010010000000000000000000000F0010000006708000220150119000101 00000000000000000000000000000000000000000000000000000000000000000000000000000000000000000000000000000000000000000N 00000000000NCONT   00    00000000000          00000000000000000000000000000000000000000000 000000000000000A000000000000000000000000000000000000000000000 000000000000000000000000000000000000000     00000000                                                                                                                        000000000000000000
F0010000006708000003000089011492400042505000000000000000000201501190002001AGE. CAUCHO SOL DE LA COSTA  SAS                  C000000063500700000000000000000000100010010000000000000000000000F0010000006708000320150119000101 00000000000000000000000000000000000000000000000000000000000000000000000000000000000000000000000000000000000000000N 00000000000NCONT   00    00000000000          00000000000000000000000000000000000000000000 000000000000000A000000000000000000000000000000000000000000000 000000000000000000000000000000000000000     00000000                                                                                                                        000000000000000000
F0010000006708000004000089011492400023658300000000000000000201501190002001AGE. CAUCHO SOL DE LA COSTA  SAS                  C000000000715200000000000000000000100010010000000000000000000000F0010000006708000420150119000101 00000000000000000000000000000000000000000000000000000000000000000000000000000000000000000000000000000000000000000N 00000000000NCONT   00    00000000000          00000000000000000000000000000000000000000000 000000000000000A000000000000000000000000000000000000000000000 000000000000000000000000000000000000000     00000000                                                                                                                        000000000000000000
F0010000006708000005000089011492400013552100000000000000000201501190002001AGE. CAUCHO SOL DE LA COSTA  SAS                  D000000000715200000000000000000000100010010000000000000000000000F0010000006708000520150119000101 00000000000000000000000000000000000000000000000000000000000000000000000000000000000000000000000000000000000000000N 00000000000NCONT   00    00000000000          00000000000000000000000000000000000000000000 000000000000000A000000000000000000000000000000000000000000000 000000000000000000000000000000000000000     00000000                                                                                                                        000000000000000000
F0010000006708100001000089011492400013050500000000000000000201501190002001AGE. CAUCHO SOL DE LA COSTA  SAS                  D000000055680400000000000000000000100010010000000000000000000000F0010000006708100120150119000101 00000000000000000000000000000000000000000000000000000000000000000000000000000000000000000000000000000000000000000N 00000000000NCONT   00    00000000000          00000000000000000000000000000000000000000000 000000000000000A000000000000000000000000000000000000000000000 000000000000000000000000000000000000000     00000000                                                                                                                        000000000000000000
F0010000006708100002000089011492400041450500000000000000000201501190002001AGE. CAUCHO SOL DE LA COSTA  SAS                  C000000034510000000000000000000000100010010000000000000000000000F0010000006708100220150119000101 00000000000000000000000000000000000000000000000000000000000000000000000000000000000000000000000000000000000000000N 00000000000NCONT   00    00000000000          00000000000000000000000000000000000000000000 000000000000000A000000000000000000000000000000000000000000000 000000000000000000000000000000000000000     00000000                                                                                                                        000000000000000000
