F0010000009346100001000090091760300011050500000000000000000201610300002001MAX IMPORT                                        D000000013000000000000000000000000100010010000000000000000000000F0019346100120161030000101 00000000000000000000000000000000000000000000000000000000000000000000000000000000000000000000000000000000000000000N 00000000000NCONT   00    00000000000          00000000000000000000000000000000000000000000 000000000000000A000000000000000000000000000000000000000000000 000000000000000000000000000000000000000     00000000                                                                                                                        000000000000000000
F0010000009346100002000090091760300041450500000000000000000201610300002001MAX IMPORT                                        C000000012000000000000000000000000100010010000000000000000000000F0019346100220161030000101 00000000000000000000000000000000000000000000000000000000000000000000000000000000000000000000000000000000000000000N 00000000000NCONT   00    00000000000          00000000000000000000000000000000000000000000 000000000000000A000000000000000000000000000000000000000000000 000000000000000000000000000000000000000     00000000                                                                                                                        000000000000000000
F0010000009346100003000090091760300042505000000000000000000201610300002001MAX IMPORT                                        C000000001000000000000000000000000100010010000000000000000000000F0019346100320161030000101 00000000000000000000000000000000000000000000000000000000000000000000000000000000000000000000000000000000000000000N 00000000000NCONT   00    00000000000          00000000000000000000000000000000000000000000 000000000000000A000000000000000000000000000000000000000000000 000000000000000000000000000000000000000     00000000                                                                                                                        000000000000000000
F0010000009346100004000090091760300023658300000000000000000201610300002001MAX IMPORT                                        C000000000096000000000000000000000100010010000000000000000000000F0019346100420161030000101 00000000000000000000000000000000000000000000000000000000000000000000000000000000000000000000000000000000000000000N 00000000000NCONT   00    00000000000          00000000000000000000000000000000000000000000 000000000000000A000000000000000000000000000000000000000000000 000000000000000000000000000000000000000     00000000                                                                                                                        000000000000000000
F0010000009346100005000090091760300013552100000000000000000201610300002001MAX IMPORT                                        D000000000096000000000000000000000100010010000000000000000000000F0019346100520161030000101 00000000000000000000000000000000000000000000000000000000000000000000000000000000000000000000000000000000000000000N 00000000000NCONT   00    00000000000          00000000000000000000000000000000000000000000 000000000000000A000000000000000000000000000000000000000000000 000000000000000000000000000000000000000     00000000                                                                                                                        000000000000000000
