F0010000009274600001000090027500500011050500000000000000000201610150002001MULTIALUMINIOS LA 30 SAS                          D000000002500000000000000000000000100010010000000000000000000000F0010000009274600120161015000101 00000000000000000000000000000000000000000000000000000000000000000000000000000000000000000000000000000000000000000N 00000000000NCONT   00    00000000000          00000000000000000000000000000000000000000000 000000000000000A000000000000000000000000000000000000000000000 000000000000000000000000000000000000000     00000000                                                                                                                        000000000000000000
F0010000009274600002000090027500500041450500000000000000000201610150002001MULTIALUMINIOS LA 30 SAS                          C000000002100000000000000000000000100010010000000000000000000000F0010000009274600220161015000101 00000000000000000000000000000000000000000000000000000000000000000000000000000000000000000000000000000000000000000N 00000000000NCONT   00    00000000000          00000000000000000000000000000000000000000000 000000000000000A000000000000000000000000000000000000000000000 000000000000000000000000000000000000000     00000000                                                                                                                        000000000000000000
F0010000009274600003000090027500500042505000000000000000000201610150002001MULTIALUMINIOS LA 30 SAS                          C000000000400000000000000000000000100010010000000000000000000000F0010000009274600320161015000101 00000000000000000000000000000000000000000000000000000000000000000000000000000000000000000000000000000000000000000N 00000000000NCONT   00    00000000000          00000000000000000000000000000000000000000000 000000000000000A000000000000000000000000000000000000000000000 000000000000000000000000000000000000000     00000000                                                                                                                        000000000000000000
F0010000009274600004000090027500500023658300000000000000000201610150002001MULTIALUMINIOS LA 30 SAS                          C000000000016800000000000000000000100010010000000000000000000000F0010000009274600420161015000101 00000000000000000000000000000000000000000000000000000000000000000000000000000000000000000000000000000000000000000N 00000000000NCONT   00    00000000000          00000000000000000000000000000000000000000000 000000000000000A000000000000000000000000000000000000000000000 000000000000000000000000000000000000000     00000000                                                                                                                        000000000000000000
F0010000009274600005000090027500500013552100000000000000000201610150002001MULTIALUMINIOS LA 30 SAS                          D000000000016800000000000000000000100010010000000000000000000000F0010000009274600520161015000101 00000000000000000000000000000000000000000000000000000000000000000000000000000000000000000000000000000000000000000N 00000000000NCONT   00    00000000000          00000000000000000000000000000000000000000000 000000000000000A000000000000000000000000000000000000000000000 000000000000000000000000000000000000000     00000000                                                                                                                        000000000000000000
F0010000009274700001000089011193000011050500000000000000000201610150002001DOQUIMICA DE LA COSTA LT DA                       D000000017000000000000000000000000100010010000000000000000000000F0010000009274700120161015000101 00000000000000000000000000000000000000000000000000000000000000000000000000000000000000000000000000000000000000000N 00000000000NCONT   00    00000000000          00000000000000000000000000000000000000000000 000000000000000A000000000000000000000000000000000000000000000 000000000000000000000000000000000000000     00000000                                                                                                                        000000000000000000
F0010000009274700002000089011193000041450500000000000000000201610150002001DOQUIMICA DE LA COSTA LT DA                       C000000016000000000000000000000000100010010000000000000000000000F0010000009274700220161015000101 00000000000000000000000000000000000000000000000000000000000000000000000000000000000000000000000000000000000000000N 00000000000NCONT   00    00000000000          00000000000000000000000000000000000000000000 000000000000000A000000000000000000000000000000000000000000000 000000000000000000000000000000000000000     00000000                                                                                                                        000000000000000000
F0010000009274700003000089011193000042505000000000000000000201610150002001DOQUIMICA DE LA COSTA LT DA                       C000000001000000000000000000000000100010010000000000000000000000F0010000009274700320161015000101 00000000000000000000000000000000000000000000000000000000000000000000000000000000000000000000000000000000000000000N 00000000000NCONT   00    00000000000          00000000000000000000000000000000000000000000 000000000000000A000000000000000000000000000000000000000000000 000000000000000000000000000000000000000     00000000                                                                                                                        000000000000000000
F0010000009274700004000089011193000023658300000000000000000201610150002001DOQUIMICA DE LA COSTA LT DA                       C000000000128000000000000000000000100010010000000000000000000000F0010000009274700420161015000101 00000000000000000000000000000000000000000000000000000000000000000000000000000000000000000000000000000000000000000N 00000000000NCONT   00    00000000000          00000000000000000000000000000000000000000000 000000000000000A000000000000000000000000000000000000000000000 000000000000000000000000000000000000000     00000000                                                                                                                        000000000000000000
F0010000009274700005000089011193000013552100000000000000000201610150002001DOQUIMICA DE LA COSTA LT DA                       D000000000128000000000000000000000100010010000000000000000000000F0010000009274700520161015000101 00000000000000000000000000000000000000000000000000000000000000000000000000000000000000000000000000000000000000000N 00000000000NCONT   00    00000000000          00000000000000000000000000000000000000000000 000000000000000A000000000000000000000000000000000000000000000 000000000000000000000000000000000000000     00000000                                                                                                                        000000000000000000
F0010000009274800001000080201703900011050500000000000000000201610150002001MUNDIAL CHEMICAL LTDA                             D000000003100000000000000000000000100010010000000000000000000000F0010000009274800120161015000101 00000000000000000000000000000000000000000000000000000000000000000000000000000000000000000000000000000000000000000N 00000000000NCONT   00    00000000000          00000000000000000000000000000000000000000000 000000000000000A000000000000000000000000000000000000000000000 000000000000000000000000000000000000000     00000000                                                                                                                        000000000000000000
F0010000009274800002000080201703900041450500000000000000000201610150002001MUNDIAL CHEMICAL LTDA                             C000000003000000000000000000000000100010010000000000000000000000F0010000009274800220161015000101 00000000000000000000000000000000000000000000000000000000000000000000000000000000000000000000000000000000000000000N 00000000000NCONT   00    00000000000          00000000000000000000000000000000000000000000 000000000000000A000000000000000000000000000000000000000000000 000000000000000000000000000000000000000     00000000                                                                                                                        000000000000000000
F0010000009274800003000080201703900042505000000000000000000201610150002001MUNDIAL CHEMICAL LTDA                             C000000000100000000000000000000000100010010000000000000000000000F0010000009274800320161015000101 00000000000000000000000000000000000000000000000000000000000000000000000000000000000000000000000000000000000000000N 00000000000NCONT   00    00000000000          00000000000000000000000000000000000000000000 000000000000000A000000000000000000000000000000000000000000000 000000000000000000000000000000000000000     00000000                                                                                                                        000000000000000000
F0010000009274800004000080201703900023658300000000000000000201610150002001MUNDIAL CHEMICAL LTDA                             C000000000024000000000000000000000100010010000000000000000000000F0010000009274800420161015000101 00000000000000000000000000000000000000000000000000000000000000000000000000000000000000000000000000000000000000000N 00000000000NCONT   00    00000000000          00000000000000000000000000000000000000000000 000000000000000A000000000000000000000000000000000000000000000 000000000000000000000000000000000000000     00000000                                                                                                                        000000000000000000
F0010000009274800005000080201703900013552100000000000000000201610150002001MUNDIAL CHEMICAL LTDA                             D000000000024000000000000000000000100010010000000000000000000000F0010000009274800520161015000101 00000000000000000000000000000000000000000000000000000000000000000000000000000000000000000000000000000000000000000N 00000000000NCONT   00    00000000000          00000000000000000000000000000000000000000000 000000000000000A000000000000000000000000000000000000000000000 000000000000000000000000000000000000000     00000000                                                                                                                        000000000000000000
F0010000009274900001000000742399700011050500000000000000000201610150002001CACHARRERIA EL NUEVO CHADID                       D000000005000000000000000000000000100010010000000000000000000000F0010000009274900120161015000101 00000000000000000000000000000000000000000000000000000000000000000000000000000000000000000000000000000000000000000N 00000000000NCONT   00    00000000000          00000000000000000000000000000000000000000000 000000000000000A000000000000000000000000000000000000000000000 000000000000000000000000000000000000000     00000000                                                                                                                        000000000000000000
F0010000009274900002000000742399700041450500000000000000000201610150002001CACHARRERIA EL NUEVO CHADID                       C000000004300000000000000000000000100010010000000000000000000000F0010000009274900220161015000101 00000000000000000000000000000000000000000000000000000000000000000000000000000000000000000000000000000000000000000N 00000000000NCONT   00    00000000000          00000000000000000000000000000000000000000000 000000000000000A000000000000000000000000000000000000000000000 000000000000000000000000000000000000000     00000000                                                                                                                        000000000000000000
F0010000009274900003000000742399700042505000000000000000000201610150002001CACHARRERIA EL NUEVO CHADID                       C000000000700000000000000000000000100010010000000000000000000000F0010000009274900320161015000101 00000000000000000000000000000000000000000000000000000000000000000000000000000000000000000000000000000000000000000N 00000000000NCONT   00    00000000000          00000000000000000000000000000000000000000000 000000000000000A000000000000000000000000000000000000000000000 000000000000000000000000000000000000000     00000000                                                                                                                        000000000000000000
F0010000009274900004000000742399700023658300000000000000000201610150002001CACHARRERIA EL NUEVO CHADID                       C000000000034400000000000000000000100010010000000000000000000000F0010000009274900420161015000101 00000000000000000000000000000000000000000000000000000000000000000000000000000000000000000000000000000000000000000N 00000000000NCONT   00    00000000000          00000000000000000000000000000000000000000000 000000000000000A000000000000000000000000000000000000000000000 000000000000000000000000000000000000000     00000000                                                                                                                        000000000000000000
F0010000009274900005000000742399700013552100000000000000000201610150002001CACHARRERIA EL NUEVO CHADID                       D000000000034400000000000000000000100010010000000000000000000000F0010000009274900520161015000101 00000000000000000000000000000000000000000000000000000000000000000000000000000000000000000000000000000000000000000N 00000000000NCONT   00    00000000000          00000000000000000000000000000000000000000000 000000000000000A000000000000000000000000000000000000000000000 000000000000000000000000000000000000000     00000000                                                                                                                        000000000000000000
F0010000009275000001000086003979400011050500000000000000000201610150002001CALYPSO BARRANQUILLA LTDA                         D000000001690000000000000000000000100010010000000000000000000000F0010000009275000120161015000101 00000000000000000000000000000000000000000000000000000000000000000000000000000000000000000000000000000000000000000N 00000000000NCONT   00    00000000000          00000000000000000000000000000000000000000000 000000000000000A000000000000000000000000000000000000000000000 000000000000000000000000000000000000000     00000000                                                                                                                        000000000000000000
F0010000009275000002000086003979400041450500000000000000000201610150002001CALYPSO BARRANQUILLA LTDA                         C000000001320000000000000000000000100010010000000000000000000000F0010000009275000220161015000101 00000000000000000000000000000000000000000000000000000000000000000000000000000000000000000000000000000000000000000N 00000000000NCONT   00    00000000000          00000000000000000000000000000000000000000000 000000000000000A000000000000000000000000000000000000000000000 000000000000000000000000000000000000000     00000000                                                                                                                        000000000000000000
F0010000009275000003000086003979400042505000000000000000000201610150002001CALYPSO BARRANQUILLA LTDA                         C000000000370000000000000000000000100010010000000000000000000000F0010000009275000320161015000101 00000000000000000000000000000000000000000000000000000000000000000000000000000000000000000000000000000000000000000N 00000000000NCONT   00    00000000000          00000000000000000000000000000000000000000000 000000000000000A000000000000000000000000000000000000000000000 000000000000000000000000000000000000000     00000000                                                                                                                        000000000000000000
F0010000009275000004000086003979400023658300000000000000000201610150002001CALYPSO BARRANQUILLA LTDA                         C000000000010600000000000000000000100010010000000000000000000000F0010000009275000420161015000101 00000000000000000000000000000000000000000000000000000000000000000000000000000000000000000000000000000000000000000N 00000000000NCONT   00    00000000000          00000000000000000000000000000000000000000000 000000000000000A000000000000000000000000000000000000000000000 000000000000000000000000000000000000000     00000000                                                                                                                        000000000000000000
F0010000009275000005000086003979400013552100000000000000000201610150002001CALYPSO BARRANQUILLA LTDA                         D000000000010600000000000000000000100010010000000000000000000000F0010000009275000520161015000101 00000000000000000000000000000000000000000000000000000000000000000000000000000000000000000000000000000000000000000N 00000000000NCONT   00    00000000000          00000000000000000000000000000000000000000000 000000000000000A000000000000000000000000000000000000000000000 000000000000000000000000000000000000000     00000000                                                                                                                        000000000000000000
F0010000009275100001000007225511500011050500000000000000000201610150002001MAIGEL CHADID                                     D000000005000000000000000000000000100010010000000000000000000000F0010000009275100120161015000101 00000000000000000000000000000000000000000000000000000000000000000000000000000000000000000000000000000000000000000N 00000000000NCONT   00    00000000000          00000000000000000000000000000000000000000000 000000000000000A000000000000000000000000000000000000000000000 000000000000000000000000000000000000000     00000000                                                                                                                        000000000000000000
F0010000009275100002000007225511500041450500000000000000000201610150002001MAIGEL CHADID                                     C000000004400000000000000000000000100010010000000000000000000000F0010000009275100220161015000101 00000000000000000000000000000000000000000000000000000000000000000000000000000000000000000000000000000000000000000N 00000000000NCONT   00    00000000000          00000000000000000000000000000000000000000000 000000000000000A000000000000000000000000000000000000000000000 000000000000000000000000000000000000000     00000000                                                                                                                        000000000000000000
F0010000009275100003000007225511500042505000000000000000000201610150002001MAIGEL CHADID                                     C000000000600000000000000000000000100010010000000000000000000000F0010000009275100320161015000101 00000000000000000000000000000000000000000000000000000000000000000000000000000000000000000000000000000000000000000N 00000000000NCONT   00    00000000000          00000000000000000000000000000000000000000000 000000000000000A000000000000000000000000000000000000000000000 000000000000000000000000000000000000000     00000000                                                                                                                        000000000000000000
F0010000009275100004000007225511500023658300000000000000000201610150002001MAIGEL CHADID                                     C000000000035200000000000000000000100010010000000000000000000000F0010000009275100420161015000101 00000000000000000000000000000000000000000000000000000000000000000000000000000000000000000000000000000000000000000N 00000000000NCONT   00    00000000000          00000000000000000000000000000000000000000000 000000000000000A000000000000000000000000000000000000000000000 000000000000000000000000000000000000000     00000000                                                                                                                        000000000000000000
F0010000009275100005000007225511500013552100000000000000000201610150002001MAIGEL CHADID                                     D000000000035200000000000000000000100010010000000000000000000000F0010000009275100520161015000101 00000000000000000000000000000000000000000000000000000000000000000000000000000000000000000000000000000000000000000N 00000000000NCONT   00    00000000000          00000000000000000000000000000000000000000000 000000000000000A000000000000000000000000000000000000000000000 000000000000000000000000000000000000000     00000000                                                                                                                        000000000000000000
F0010000009275200001000000742399700011050500000000000000000201610150002001CACHARRERIA EL NUEVO CHADID                       D000000001400000000000000000000000100010010000000000000000000000F0010000009275200120161015000101 00000000000000000000000000000000000000000000000000000000000000000000000000000000000000000000000000000000000000000N 00000000000NCONT   00    00000000000          00000000000000000000000000000000000000000000 000000000000000A000000000000000000000000000000000000000000000 000000000000000000000000000000000000000     00000000                                                                                                                        000000000000000000
F0010000009275200002000000742399700041450500000000000000000201610150002001CACHARRERIA EL NUEVO CHADID                       C000000001100000000000000000000000100010010000000000000000000000F0010000009275200220161015000101 00000000000000000000000000000000000000000000000000000000000000000000000000000000000000000000000000000000000000000N 00000000000NCONT   00    00000000000          00000000000000000000000000000000000000000000 000000000000000A000000000000000000000000000000000000000000000 000000000000000000000000000000000000000     00000000                                                                                                                        000000000000000000
F0010000009275200003000000742399700042505000000000000000000201610150002001CACHARRERIA EL NUEVO CHADID                       C000000000300000000000000000000000100010010000000000000000000000F0010000009275200320161015000101 00000000000000000000000000000000000000000000000000000000000000000000000000000000000000000000000000000000000000000N 00000000000NCONT   00    00000000000          00000000000000000000000000000000000000000000 000000000000000A000000000000000000000000000000000000000000000 000000000000000000000000000000000000000     00000000                                                                                                                        000000000000000000
F0010000009275200004000000742399700023658300000000000000000201610150002001CACHARRERIA EL NUEVO CHADID                       C000000000008800000000000000000000100010010000000000000000000000F0010000009275200420161015000101 00000000000000000000000000000000000000000000000000000000000000000000000000000000000000000000000000000000000000000N 00000000000NCONT   00    00000000000          00000000000000000000000000000000000000000000 000000000000000A000000000000000000000000000000000000000000000 000000000000000000000000000000000000000     00000000                                                                                                                        000000000000000000
F0010000009275200005000000742399700013552100000000000000000201610150002001CACHARRERIA EL NUEVO CHADID                       D000000000008800000000000000000000100010010000000000000000000000F0010000009275200520161015000101 00000000000000000000000000000000000000000000000000000000000000000000000000000000000000000000000000000000000000000N 00000000000NCONT   00    00000000000          00000000000000000000000000000000000000000000 000000000000000A000000000000000000000000000000000000000000000 000000000000000000000000000000000000000     00000000                                                                                                                        000000000000000000
F0010000009275300001000089031248700011050500000000000000000201610150002001DISTRIBUIDORA CALIPLASTICOS LTDA                  D000000001720000000000000000000000100010010000000000000000000000F0010000009275300120161015000101 00000000000000000000000000000000000000000000000000000000000000000000000000000000000000000000000000000000000000000N 00000000000NCONT   00    00000000000          00000000000000000000000000000000000000000000 000000000000000A000000000000000000000000000000000000000000000 000000000000000000000000000000000000000     00000000                                                                                                                        000000000000000000
F0010000009275300002000089031248700041450500000000000000000201610150002001DISTRIBUIDORA CALIPLASTICOS LTDA                  C000000001620000000000000000000000100010010000000000000000000000F0010000009275300220161015000101 00000000000000000000000000000000000000000000000000000000000000000000000000000000000000000000000000000000000000000N 00000000000NCONT   00    00000000000          00000000000000000000000000000000000000000000 000000000000000A000000000000000000000000000000000000000000000 000000000000000000000000000000000000000     00000000                                                                                                                        000000000000000000
F0010000009275300003000089031248700042505000000000000000000201610150002001DISTRIBUIDORA CALIPLASTICOS LTDA                  C000000000100000000000000000000000100010010000000000000000000000F0010000009275300320161015000101 00000000000000000000000000000000000000000000000000000000000000000000000000000000000000000000000000000000000000000N 00000000000NCONT   00    00000000000          00000000000000000000000000000000000000000000 000000000000000A000000000000000000000000000000000000000000000 000000000000000000000000000000000000000     00000000                                                                                                                        000000000000000000
F0010000009275300004000089031248700023658300000000000000000201610150002001DISTRIBUIDORA CALIPLASTICOS LTDA                  C000000000013000000000000000000000100010010000000000000000000000F0010000009275300420161015000101 00000000000000000000000000000000000000000000000000000000000000000000000000000000000000000000000000000000000000000N 00000000000NCONT   00    00000000000          00000000000000000000000000000000000000000000 000000000000000A000000000000000000000000000000000000000000000 000000000000000000000000000000000000000     00000000                                                                                                                        000000000000000000
F0010000009275300005000089031248700013552100000000000000000201610150002001DISTRIBUIDORA CALIPLASTICOS LTDA                  D000000000013000000000000000000000100010010000000000000000000000F0010000009275300520161015000101 00000000000000000000000000000000000000000000000000000000000000000000000000000000000000000000000000000000000000000N 00000000000NCONT   00    00000000000          00000000000000000000000000000000000000000000 000000000000000A000000000000000000000000000000000000000000000 000000000000000000000000000000000000000     00000000                                                                                                                        000000000000000000
F0010000009275400001000003129177700011050500000000000000000201610150002001GLORIA STELLA ORDOÑEZ REALPE                     D000000001500000000000000000000000100010010000000000000000000000F0010000009275400120161015000101 00000000000000000000000000000000000000000000000000000000000000000000000000000000000000000000000000000000000000000N 00000000000NCONT   00    00000000000          00000000000000000000000000000000000000000000 000000000000000A000000000000000000000000000000000000000000000 000000000000000000000000000000000000000     00000000                                                                                                                        000000000000000000
F0010000009275400002000003129177700041450500000000000000000201610150002001GLORIA STELLA ORDOÑEZ REALPE                     C000000001000000000000000000000000100010010000000000000000000000F0010000009275400220161015000101 00000000000000000000000000000000000000000000000000000000000000000000000000000000000000000000000000000000000000000N 00000000000NCONT   00    00000000000          00000000000000000000000000000000000000000000 000000000000000A000000000000000000000000000000000000000000000 000000000000000000000000000000000000000     00000000                                                                                                                        000000000000000000
F0010000009275400003000003129177700042505000000000000000000201610150002001GLORIA STELLA ORDOÑEZ REALPE                     C000000000500000000000000000000000100010010000000000000000000000F0010000009275400320161015000101 00000000000000000000000000000000000000000000000000000000000000000000000000000000000000000000000000000000000000000N 00000000000NCONT   00    00000000000          00000000000000000000000000000000000000000000 000000000000000A000000000000000000000000000000000000000000000 000000000000000000000000000000000000000     00000000                                                                                                                        000000000000000000
F0010000009275400004000003129177700023658300000000000000000201610150002001GLORIA STELLA ORDOÑEZ REALPE                     C000000000008000000000000000000000100010010000000000000000000000F0010000009275400420161015000101 00000000000000000000000000000000000000000000000000000000000000000000000000000000000000000000000000000000000000000N 00000000000NCONT   00    00000000000          00000000000000000000000000000000000000000000 000000000000000A000000000000000000000000000000000000000000000 000000000000000000000000000000000000000     00000000                                                                                                                        000000000000000000
F0010000009275400005000003129177700013552100000000000000000201610150002001GLORIA STELLA ORDOÑEZ REALPE                     D000000000008000000000000000000000100010010000000000000000000000F0010000009275400520161015000101 00000000000000000000000000000000000000000000000000000000000000000000000000000000000000000000000000000000000000000N 00000000000NCONT   00    00000000000          00000000000000000000000000000000000000000000 000000000000000A000000000000000000000000000000000000000000000 000000000000000000000000000000000000000     00000000                                                                                                                        000000000000000000
F0010000009275500001000001719393900011050500000000000000000201610150002001JAIRO BASTIDAS RAMIREZ                            D000000008200000000000000000000000100010010000000000000000000000F0010000009275500120161015000101 00000000000000000000000000000000000000000000000000000000000000000000000000000000000000000000000000000000000000000N 00000000000NCONT   00    00000000000          00000000000000000000000000000000000000000000 000000000000000A000000000000000000000000000000000000000000000 000000000000000000000000000000000000000     00000000                                                                                                                        000000000000000000
F0010000009275500002000001719393900041450500000000000000000201610150002001JAIRO BASTIDAS RAMIREZ                            C000000007200000000000000000000000100010010000000000000000000000F0010000009275500220161015000101 00000000000000000000000000000000000000000000000000000000000000000000000000000000000000000000000000000000000000000N 00000000000NCONT   00    00000000000          00000000000000000000000000000000000000000000 000000000000000A000000000000000000000000000000000000000000000 000000000000000000000000000000000000000     00000000                                                                                                                        000000000000000000
F0010000009275500003000001719393900042505000000000000000000201610150002001JAIRO BASTIDAS RAMIREZ                            C000000001000000000000000000000000100010010000000000000000000000F0010000009275500320161015000101 00000000000000000000000000000000000000000000000000000000000000000000000000000000000000000000000000000000000000000N 00000000000NCONT   00    00000000000          00000000000000000000000000000000000000000000 000000000000000A000000000000000000000000000000000000000000000 000000000000000000000000000000000000000     00000000                                                                                                                        000000000000000000
F0010000009275500004000001719393900023658300000000000000000201610150002001JAIRO BASTIDAS RAMIREZ                            C000000000057600000000000000000000100010010000000000000000000000F0010000009275500420161015000101 00000000000000000000000000000000000000000000000000000000000000000000000000000000000000000000000000000000000000000N 00000000000NCONT   00    00000000000          00000000000000000000000000000000000000000000 000000000000000A000000000000000000000000000000000000000000000 000000000000000000000000000000000000000     00000000                                                                                                                        000000000000000000
F0010000009275500005000001719393900013552100000000000000000201610150002001JAIRO BASTIDAS RAMIREZ                            D000000000057600000000000000000000100010010000000000000000000000F0010000009275500520161015000101 00000000000000000000000000000000000000000000000000000000000000000000000000000000000000000000000000000000000000000N 00000000000NCONT   00    00000000000          00000000000000000000000000000000000000000000 000000000000000A000000000000000000000000000000000000000000000 000000000000000000000000000000000000000     00000000                                                                                                                        000000000000000000
F0010000009275600001000007904689600011050500000000000000000201610150002001VICTOR MANUEL BOCANEGRA RAMIREZ                   D000000001400000000000000000000000100010010000000000000000000000F0010000009275600120161015000101 00000000000000000000000000000000000000000000000000000000000000000000000000000000000000000000000000000000000000000N 00000000000NCONT   00    00000000000          00000000000000000000000000000000000000000000 000000000000000A000000000000000000000000000000000000000000000 000000000000000000000000000000000000000     00000000                                                                                                                        000000000000000000
F0010000009275600002000007904689600041450500000000000000000201610150002001VICTOR MANUEL BOCANEGRA RAMIREZ                   C000000001300000000000000000000000100010010000000000000000000000F0010000009275600220161015000101 00000000000000000000000000000000000000000000000000000000000000000000000000000000000000000000000000000000000000000N 00000000000NCONT   00    00000000000          00000000000000000000000000000000000000000000 000000000000000A000000000000000000000000000000000000000000000 000000000000000000000000000000000000000     00000000                                                                                                                        000000000000000000
F0010000009275600003000007904689600042505000000000000000000201610150002001VICTOR MANUEL BOCANEGRA RAMIREZ                   C000000000100000000000000000000000100010010000000000000000000000F0010000009275600320161015000101 00000000000000000000000000000000000000000000000000000000000000000000000000000000000000000000000000000000000000000N 00000000000NCONT   00    00000000000          00000000000000000000000000000000000000000000 000000000000000A000000000000000000000000000000000000000000000 000000000000000000000000000000000000000     00000000                                                                                                                        000000000000000000
F0010000009275600004000007904689600023658300000000000000000201610150002001VICTOR MANUEL BOCANEGRA RAMIREZ                   C000000000010400000000000000000000100010010000000000000000000000F0010000009275600420161015000101 00000000000000000000000000000000000000000000000000000000000000000000000000000000000000000000000000000000000000000N 00000000000NCONT   00    00000000000          00000000000000000000000000000000000000000000 000000000000000A000000000000000000000000000000000000000000000 000000000000000000000000000000000000000     00000000                                                                                                                        000000000000000000
F0010000009275600005000007904689600013552100000000000000000201610150002001VICTOR MANUEL BOCANEGRA RAMIREZ                   D000000000010400000000000000000000100010010000000000000000000000F0010000009275600520161015000101 00000000000000000000000000000000000000000000000000000000000000000000000000000000000000000000000000000000000000000N 00000000000NCONT   00    00000000000          00000000000000000000000000000000000000000000 000000000000000A000000000000000000000000000000000000000000000 000000000000000000000000000000000000000     00000000                                                                                                                        000000000000000000
F0010000009275700001000007904689600011050500000000000000000201610150002001VICTOR MANUEL BOCANEGRA RAMIREZ                   D000000005500000000000000000000000100010010000000000000000000000F0010000009275700120161015000101 00000000000000000000000000000000000000000000000000000000000000000000000000000000000000000000000000000000000000000N 00000000000NCONT   00    00000000000          00000000000000000000000000000000000000000000 000000000000000A000000000000000000000000000000000000000000000 000000000000000000000000000000000000000     00000000                                                                                                                        000000000000000000
F0010000009275700002000007904689600041450500000000000000000201610150002001VICTOR MANUEL BOCANEGRA RAMIREZ                   C000000005000000000000000000000000100010010000000000000000000000F0010000009275700220161015000101 00000000000000000000000000000000000000000000000000000000000000000000000000000000000000000000000000000000000000000N 00000000000NCONT   00    00000000000          00000000000000000000000000000000000000000000 000000000000000A000000000000000000000000000000000000000000000 000000000000000000000000000000000000000     00000000                                                                                                                        000000000000000000
F0010000009275700003000007904689600042505000000000000000000201610150002001VICTOR MANUEL BOCANEGRA RAMIREZ                   C000000000500000000000000000000000100010010000000000000000000000F0010000009275700320161015000101 00000000000000000000000000000000000000000000000000000000000000000000000000000000000000000000000000000000000000000N 00000000000NCONT   00    00000000000          00000000000000000000000000000000000000000000 000000000000000A000000000000000000000000000000000000000000000 000000000000000000000000000000000000000     00000000                                                                                                                        000000000000000000
F0010000009275700004000007904689600023658300000000000000000201610150002001VICTOR MANUEL BOCANEGRA RAMIREZ                   C000000000040000000000000000000000100010010000000000000000000000F0010000009275700420161015000101 00000000000000000000000000000000000000000000000000000000000000000000000000000000000000000000000000000000000000000N 00000000000NCONT   00    00000000000          00000000000000000000000000000000000000000000 000000000000000A000000000000000000000000000000000000000000000 000000000000000000000000000000000000000     00000000                                                                                                                        000000000000000000
F0010000009275700005000007904689600013552100000000000000000201610150002001VICTOR MANUEL BOCANEGRA RAMIREZ                   D000000000040000000000000000000000100010010000000000000000000000F0010000009275700520161015000101 00000000000000000000000000000000000000000000000000000000000000000000000000000000000000000000000000000000000000000N 00000000000NCONT   00    00000000000          00000000000000000000000000000000000000000000 000000000000000A000000000000000000000000000000000000000000000 000000000000000000000000000000000000000     00000000                                                                                                                        000000000000000000
F0010000009275800001000007213653800011050500000000000000000201610150002001VICTOR ECHAVEZ                                    D000000002900000000000000000000000100010010000000000000000000000F0010000009275800120161015000101 00000000000000000000000000000000000000000000000000000000000000000000000000000000000000000000000000000000000000000N 00000000000NCONT   00    00000000000          00000000000000000000000000000000000000000000 000000000000000A000000000000000000000000000000000000000000000 000000000000000000000000000000000000000     00000000                                                                                                                        000000000000000000
F0010000009275800002000007213653800041450500000000000000000201610150002001VICTOR ECHAVEZ                                    C000000002000000000000000000000000100010010000000000000000000000F0010000009275800220161015000101 00000000000000000000000000000000000000000000000000000000000000000000000000000000000000000000000000000000000000000N 00000000000NCONT   00    00000000000          00000000000000000000000000000000000000000000 000000000000000A000000000000000000000000000000000000000000000 000000000000000000000000000000000000000     00000000                                                                                                                        000000000000000000
F0010000009275800003000007213653800042505000000000000000000201610150002001VICTOR ECHAVEZ                                    C000000000900000000000000000000000100010010000000000000000000000F0010000009275800320161015000101 00000000000000000000000000000000000000000000000000000000000000000000000000000000000000000000000000000000000000000N 00000000000NCONT   00    00000000000          00000000000000000000000000000000000000000000 000000000000000A000000000000000000000000000000000000000000000 000000000000000000000000000000000000000     00000000                                                                                                                        000000000000000000
F0010000009275800004000007213653800023658300000000000000000201610150002001VICTOR ECHAVEZ                                    C000000000016000000000000000000000100010010000000000000000000000F0010000009275800420161015000101 00000000000000000000000000000000000000000000000000000000000000000000000000000000000000000000000000000000000000000N 00000000000NCONT   00    00000000000          00000000000000000000000000000000000000000000 000000000000000A000000000000000000000000000000000000000000000 000000000000000000000000000000000000000     00000000                                                                                                                        000000000000000000
F0010000009275800005000007213653800013552100000000000000000201610150002001VICTOR ECHAVEZ                                    D000000000016000000000000000000000100010010000000000000000000000F0010000009275800520161015000101 00000000000000000000000000000000000000000000000000000000000000000000000000000000000000000000000000000000000000000N 00000000000NCONT   00    00000000000          00000000000000000000000000000000000000000000 000000000000000A000000000000000000000000000000000000000000000 000000000000000000000000000000000000000     00000000                                                                                                                        000000000000000000
F0010000009275900001000004544401900011050500000000000000000201610150002001FISIOTER                                          D000000005000000000000000000000000100010010000000000000000000000F0010000009275900120161015000101 00000000000000000000000000000000000000000000000000000000000000000000000000000000000000000000000000000000000000000N 00000000000NCONT   00    00000000000          00000000000000000000000000000000000000000000 000000000000000A000000000000000000000000000000000000000000000 000000000000000000000000000000000000000     00000000                                                                                                                        000000000000000000
F0010000009275900002000004544401900041450500000000000000000201610150002001FISIOTER                                          C000000004800000000000000000000000100010010000000000000000000000F0010000009275900220161015000101 00000000000000000000000000000000000000000000000000000000000000000000000000000000000000000000000000000000000000000N 00000000000NCONT   00    00000000000          00000000000000000000000000000000000000000000 000000000000000A000000000000000000000000000000000000000000000 000000000000000000000000000000000000000     00000000                                                                                                                        000000000000000000
F0010000009275900003000004544401900042505000000000000000000201610150002001FISIOTER                                          C000000000200000000000000000000000100010010000000000000000000000F0010000009275900320161015000101 00000000000000000000000000000000000000000000000000000000000000000000000000000000000000000000000000000000000000000N 00000000000NCONT   00    00000000000          00000000000000000000000000000000000000000000 000000000000000A000000000000000000000000000000000000000000000 000000000000000000000000000000000000000     00000000                                                                                                                        000000000000000000
F0010000009275900004000004544401900023658300000000000000000201610150002001FISIOTER                                          C000000000038400000000000000000000100010010000000000000000000000F0010000009275900420161015000101 00000000000000000000000000000000000000000000000000000000000000000000000000000000000000000000000000000000000000000N 00000000000NCONT   00    00000000000          00000000000000000000000000000000000000000000 000000000000000A000000000000000000000000000000000000000000000 000000000000000000000000000000000000000     00000000                                                                                                                        000000000000000000
F0010000009275900005000004544401900013552100000000000000000201610150002001FISIOTER                                          D000000000038400000000000000000000100010010000000000000000000000F0010000009275900520161015000101 00000000000000000000000000000000000000000000000000000000000000000000000000000000000000000000000000000000000000000N 00000000000NCONT   00    00000000000          00000000000000000000000000000000000000000000 000000000000000A000000000000000000000000000000000000000000000 000000000000000000000000000000000000000     00000000                                                                                                                        000000000000000000
F0010000009276000001000090039833800011050500000000000000000201610150002001AGROGANADERO DEL CARIBE S.A.S                     D000000001700000000000000000000000100010010000000000000000000000F0010000009276000120161015000101 00000000000000000000000000000000000000000000000000000000000000000000000000000000000000000000000000000000000000000N 00000000000NCONT   00    00000000000          00000000000000000000000000000000000000000000 000000000000000A000000000000000000000000000000000000000000000 000000000000000000000000000000000000000     00000000                                                                                                                        000000000000000000
F0010000009276000002000090039833800041450500000000000000000201610150002001AGROGANADERO DEL CARIBE S.A.S                     C000000001300000000000000000000000100010010000000000000000000000F0010000009276000220161015000101 00000000000000000000000000000000000000000000000000000000000000000000000000000000000000000000000000000000000000000N 00000000000NCONT   00    00000000000          00000000000000000000000000000000000000000000 000000000000000A000000000000000000000000000000000000000000000 000000000000000000000000000000000000000     00000000                                                                                                                        000000000000000000
F0010000009276000003000090039833800042505000000000000000000201610150002001AGROGANADERO DEL CARIBE S.A.S                     C000000000400000000000000000000000100010010000000000000000000000F0010000009276000320161015000101 00000000000000000000000000000000000000000000000000000000000000000000000000000000000000000000000000000000000000000N 00000000000NCONT   00    00000000000          00000000000000000000000000000000000000000000 000000000000000A000000000000000000000000000000000000000000000 000000000000000000000000000000000000000     00000000                                                                                                                        000000000000000000
F0010000009276000004000090039833800023658300000000000000000201610150002001AGROGANADERO DEL CARIBE S.A.S                     C000000000010400000000000000000000100010010000000000000000000000F0010000009276000420161015000101 00000000000000000000000000000000000000000000000000000000000000000000000000000000000000000000000000000000000000000N 00000000000NCONT   00    00000000000          00000000000000000000000000000000000000000000 000000000000000A000000000000000000000000000000000000000000000 000000000000000000000000000000000000000     00000000                                                                                                                        000000000000000000
F0010000009276000005000090039833800013552100000000000000000201610150002001AGROGANADERO DEL CARIBE S.A.S                     D000000000010400000000000000000000100010010000000000000000000000F0010000009276000520161015000101 00000000000000000000000000000000000000000000000000000000000000000000000000000000000000000000000000000000000000000N 00000000000NCONT   00    00000000000          00000000000000000000000000000000000000000000 000000000000000A000000000000000000000000000000000000000000000 000000000000000000000000000000000000000     00000000                                                                                                                        000000000000000000
F0010000009276100001000000431178400011050500000000000000000201610150002001EFRAIN ALVAREZ                                    D000000001940000000000000000000000100010010000000000000000000000F0010000009276100120161015000101 00000000000000000000000000000000000000000000000000000000000000000000000000000000000000000000000000000000000000000N 00000000000NCONT   00    00000000000          00000000000000000000000000000000000000000000 000000000000000A000000000000000000000000000000000000000000000 000000000000000000000000000000000000000     00000000                                                                                                                        000000000000000000
F0010000009276100002000000431178400041450500000000000000000201610150002001EFRAIN ALVAREZ                                    C000000001840000000000000000000000100010010000000000000000000000F0010000009276100220161015000101 00000000000000000000000000000000000000000000000000000000000000000000000000000000000000000000000000000000000000000N 00000000000NCONT   00    00000000000          00000000000000000000000000000000000000000000 000000000000000A000000000000000000000000000000000000000000000 000000000000000000000000000000000000000     00000000                                                                                                                        000000000000000000
F0010000009276100003000000431178400042505000000000000000000201610150002001EFRAIN ALVAREZ                                    C000000000100000000000000000000000100010010000000000000000000000F0010000009276100320161015000101 00000000000000000000000000000000000000000000000000000000000000000000000000000000000000000000000000000000000000000N 00000000000NCONT   00    00000000000          00000000000000000000000000000000000000000000 000000000000000A000000000000000000000000000000000000000000000 000000000000000000000000000000000000000     00000000                                                                                                                        000000000000000000
F0010000009276100004000000431178400023658300000000000000000201610150002001EFRAIN ALVAREZ                                    C000000000014700000000000000000000100010010000000000000000000000F0010000009276100420161015000101 00000000000000000000000000000000000000000000000000000000000000000000000000000000000000000000000000000000000000000N 00000000000NCONT   00    00000000000          00000000000000000000000000000000000000000000 000000000000000A000000000000000000000000000000000000000000000 000000000000000000000000000000000000000     00000000                                                                                                                        000000000000000000
F0010000009276100005000000431178400013552100000000000000000201610150002001EFRAIN ALVAREZ                                    D000000000014700000000000000000000100010010000000000000000000000F0010000009276100520161015000101 00000000000000000000000000000000000000000000000000000000000000000000000000000000000000000000000000000000000000000N 00000000000NCONT   00    00000000000          00000000000000000000000000000000000000000000 000000000000000A000000000000000000000000000000000000000000000 000000000000000000000000000000000000000     00000000                                                                                                                        000000000000000000
F0010000009276200001000001022529300011050500000000000000000201610150002001ALBERTO ALVAREZ ISAZA                             D000000000350000000000000000000000100010010000000000000000000000F0010000009276200120161015000101 00000000000000000000000000000000000000000000000000000000000000000000000000000000000000000000000000000000000000000N 00000000000NCONT   00    00000000000          00000000000000000000000000000000000000000000 000000000000000A000000000000000000000000000000000000000000000 000000000000000000000000000000000000000     00000000                                                                                                                        000000000000000000
F0010000009276200002000001022529300041450500000000000000000201610150002001ALBERTO ALVAREZ ISAZA                             C000000000350000000000000000000000100010010000000000000000000000F0010000009276200220161015000101 00000000000000000000000000000000000000000000000000000000000000000000000000000000000000000000000000000000000000000N 00000000000NCONT   00    00000000000          00000000000000000000000000000000000000000000 000000000000000A000000000000000000000000000000000000000000000 000000000000000000000000000000000000000     00000000                                                                                                                        000000000000000000
F0010000009276200003000001022529300042505000000000000000000201610150002001ALBERTO ALVAREZ ISAZA                             C000000000000000000000000000000000100010010000000000000000000000F0010000009276200320161015000101 00000000000000000000000000000000000000000000000000000000000000000000000000000000000000000000000000000000000000000N 00000000000NCONT   00    00000000000          00000000000000000000000000000000000000000000 000000000000000A000000000000000000000000000000000000000000000 000000000000000000000000000000000000000     00000000                                                                                                                        000000000000000000
F0010000009276200004000001022529300023658300000000000000000201610150002001ALBERTO ALVAREZ ISAZA                             C000000000002800000000000000000000100010010000000000000000000000F0010000009276200420161015000101 00000000000000000000000000000000000000000000000000000000000000000000000000000000000000000000000000000000000000000N 00000000000NCONT   00    00000000000          00000000000000000000000000000000000000000000 000000000000000A000000000000000000000000000000000000000000000 000000000000000000000000000000000000000     00000000                                                                                                                        000000000000000000
F0010000009276200005000001022529300013552100000000000000000201610150002001ALBERTO ALVAREZ ISAZA                             D000000000002800000000000000000000100010010000000000000000000000F0010000009276200520161015000101 00000000000000000000000000000000000000000000000000000000000000000000000000000000000000000000000000000000000000000N 00000000000NCONT   00    00000000000          00000000000000000000000000000000000000000000 000000000000000A000000000000000000000000000000000000000000000 000000000000000000000000000000000000000     00000000                                                                                                                        000000000000000000
F0010000009276300001000004544401900011050500000000000000000201610150002001FISIOTER                                          D000000005000000000000000000000000100010010000000000000000000000F0010000009276300120161015000101 00000000000000000000000000000000000000000000000000000000000000000000000000000000000000000000000000000000000000000N 00000000000NCONT   00    00000000000          00000000000000000000000000000000000000000000 000000000000000A000000000000000000000000000000000000000000000 000000000000000000000000000000000000000     00000000                                                                                                                        000000000000000000
F0010000009276300002000004544401900041450500000000000000000201610150002001FISIOTER                                          C000000004000000000000000000000000100010010000000000000000000000F0010000009276300220161015000101 00000000000000000000000000000000000000000000000000000000000000000000000000000000000000000000000000000000000000000N 00000000000NCONT   00    00000000000          00000000000000000000000000000000000000000000 000000000000000A000000000000000000000000000000000000000000000 000000000000000000000000000000000000000     00000000                                                                                                                        000000000000000000
F0010000009276300003000004544401900042505000000000000000000201610150002001FISIOTER                                          C000000001000000000000000000000000100010010000000000000000000000F0010000009276300320161015000101 00000000000000000000000000000000000000000000000000000000000000000000000000000000000000000000000000000000000000000N 00000000000NCONT   00    00000000000          00000000000000000000000000000000000000000000 000000000000000A000000000000000000000000000000000000000000000 000000000000000000000000000000000000000     00000000                                                                                                                        000000000000000000
F0010000009276300004000004544401900023658300000000000000000201610150002001FISIOTER                                          C000000000032000000000000000000000100010010000000000000000000000F0010000009276300420161015000101 00000000000000000000000000000000000000000000000000000000000000000000000000000000000000000000000000000000000000000N 00000000000NCONT   00    00000000000          00000000000000000000000000000000000000000000 000000000000000A000000000000000000000000000000000000000000000 000000000000000000000000000000000000000     00000000                                                                                                                        000000000000000000
F0010000009276300005000004544401900013552100000000000000000201610150002001FISIOTER                                          D000000000032000000000000000000000100010010000000000000000000000F0010000009276300520161015000101 00000000000000000000000000000000000000000000000000000000000000000000000000000000000000000000000000000000000000000N 00000000000NCONT   00    00000000000          00000000000000000000000000000000000000000000 000000000000000A000000000000000000000000000000000000000000000 000000000000000000000000000000000000000     00000000                                                                                                                        000000000000000000
F0010000009276400001000001022529300011050500000000000000000201610150002001ALBERTO ALVAREZ ISAZA                             D000000000350000000000000000000000100010010000000000000000000000F0010000009276400120161015000101 00000000000000000000000000000000000000000000000000000000000000000000000000000000000000000000000000000000000000000N 00000000000NCONT   00    00000000000          00000000000000000000000000000000000000000000 000000000000000A000000000000000000000000000000000000000000000 000000000000000000000000000000000000000     00000000                                                                                                                        000000000000000000
F0010000009276400002000001022529300041450500000000000000000201610150002001ALBERTO ALVAREZ ISAZA                             C000000000350000000000000000000000100010010000000000000000000000F0010000009276400220161015000101 00000000000000000000000000000000000000000000000000000000000000000000000000000000000000000000000000000000000000000N 00000000000NCONT   00    00000000000          00000000000000000000000000000000000000000000 000000000000000A000000000000000000000000000000000000000000000 000000000000000000000000000000000000000     00000000                                                                                                                        000000000000000000
F0010000009276400003000001022529300042505000000000000000000201610150002001ALBERTO ALVAREZ ISAZA                             C000000000000000000000000000000000100010010000000000000000000000F0010000009276400320161015000101 00000000000000000000000000000000000000000000000000000000000000000000000000000000000000000000000000000000000000000N 00000000000NCONT   00    00000000000          00000000000000000000000000000000000000000000 000000000000000A000000000000000000000000000000000000000000000 000000000000000000000000000000000000000     00000000                                                                                                                        000000000000000000
F0010000009276400004000001022529300023658300000000000000000201610150002001ALBERTO ALVAREZ ISAZA                             C000000000002800000000000000000000100010010000000000000000000000F0010000009276400420161015000101 00000000000000000000000000000000000000000000000000000000000000000000000000000000000000000000000000000000000000000N 00000000000NCONT   00    00000000000          00000000000000000000000000000000000000000000 000000000000000A000000000000000000000000000000000000000000000 000000000000000000000000000000000000000     00000000                                                                                                                        000000000000000000
F0010000009276400005000001022529300013552100000000000000000201610150002001ALBERTO ALVAREZ ISAZA                             D000000000002800000000000000000000100010010000000000000000000000F0010000009276400520161015000101 00000000000000000000000000000000000000000000000000000000000000000000000000000000000000000000000000000000000000000N 00000000000NCONT   00    00000000000          00000000000000000000000000000000000000000000 000000000000000A000000000000000000000000000000000000000000000 000000000000000000000000000000000000000     00000000                                                                                                                        000000000000000000
F0010000009276500001000001022529300011050500000000000000000201610150002001ALBERTO ALVAREZ ISAZA                             D000000002038900000000000000000000100010010000000000000000000000F0010000009276500120161015000101 00000000000000000000000000000000000000000000000000000000000000000000000000000000000000000000000000000000000000000N 00000000000NCONT   00    00000000000          00000000000000000000000000000000000000000000 000000000000000A000000000000000000000000000000000000000000000 000000000000000000000000000000000000000     00000000                                                                                                                        000000000000000000
F0010000009276500002000001022529300041450500000000000000000201610150002001ALBERTO ALVAREZ ISAZA                             C000000001730000000000000000000000100010010000000000000000000000F0010000009276500220161015000101 00000000000000000000000000000000000000000000000000000000000000000000000000000000000000000000000000000000000000000N 00000000000NCONT   00    00000000000          00000000000000000000000000000000000000000000 000000000000000A000000000000000000000000000000000000000000000 000000000000000000000000000000000000000     00000000                                                                                                                        000000000000000000
F0010000009276500003000001022529300042505000000000000000000201610150002001ALBERTO ALVAREZ ISAZA                             C000000000308900000000000000000000100010010000000000000000000000F0010000009276500320161015000101 00000000000000000000000000000000000000000000000000000000000000000000000000000000000000000000000000000000000000000N 00000000000NCONT   00    00000000000          00000000000000000000000000000000000000000000 000000000000000A000000000000000000000000000000000000000000000 000000000000000000000000000000000000000     00000000                                                                                                                        000000000000000000
F0010000009276500004000001022529300023658300000000000000000201610150002001ALBERTO ALVAREZ ISAZA                             C000000000013800000000000000000000100010010000000000000000000000F0010000009276500420161015000101 00000000000000000000000000000000000000000000000000000000000000000000000000000000000000000000000000000000000000000N 00000000000NCONT   00    00000000000          00000000000000000000000000000000000000000000 000000000000000A000000000000000000000000000000000000000000000 000000000000000000000000000000000000000     00000000                                                                                                                        000000000000000000
F0010000009276500005000001022529300013552100000000000000000201610150002001ALBERTO ALVAREZ ISAZA                             D000000000013800000000000000000000100010010000000000000000000000F0010000009276500520161015000101 00000000000000000000000000000000000000000000000000000000000000000000000000000000000000000000000000000000000000000N 00000000000NCONT   00    00000000000          00000000000000000000000000000000000000000000 000000000000000A000000000000000000000000000000000000000000000 000000000000000000000000000000000000000     00000000                                                                                                                        000000000000000000
F0010000009276600001000000431178400011050500000000000000000201610150002001EFRAIN ALVAREZ                                    D000000001890000000000000000000000100010010000000000000000000000F0010000009276600120161015000101 00000000000000000000000000000000000000000000000000000000000000000000000000000000000000000000000000000000000000000N 00000000000NCONT   00    00000000000          00000000000000000000000000000000000000000000 000000000000000A000000000000000000000000000000000000000000000 000000000000000000000000000000000000000     00000000                                                                                                                        000000000000000000
F0010000009276600002000000431178400041450500000000000000000201610150002001EFRAIN ALVAREZ                                    C000000001840000000000000000000000100010010000000000000000000000F0010000009276600220161015000101 00000000000000000000000000000000000000000000000000000000000000000000000000000000000000000000000000000000000000000N 00000000000NCONT   00    00000000000          00000000000000000000000000000000000000000000 000000000000000A000000000000000000000000000000000000000000000 000000000000000000000000000000000000000     00000000                                                                                                                        000000000000000000
F0010000009276600003000000431178400042505000000000000000000201610150002001EFRAIN ALVAREZ                                    C000000000050000000000000000000000100010010000000000000000000000F0010000009276600320161015000101 00000000000000000000000000000000000000000000000000000000000000000000000000000000000000000000000000000000000000000N 00000000000NCONT   00    00000000000          00000000000000000000000000000000000000000000 000000000000000A000000000000000000000000000000000000000000000 000000000000000000000000000000000000000     00000000                                                                                                                        000000000000000000
F0010000009276600004000000431178400023658300000000000000000201610150002001EFRAIN ALVAREZ                                    C000000000014700000000000000000000100010010000000000000000000000F0010000009276600420161015000101 00000000000000000000000000000000000000000000000000000000000000000000000000000000000000000000000000000000000000000N 00000000000NCONT   00    00000000000          00000000000000000000000000000000000000000000 000000000000000A000000000000000000000000000000000000000000000 000000000000000000000000000000000000000     00000000                                                                                                                        000000000000000000
F0010000009276600005000000431178400013552100000000000000000201610150002001EFRAIN ALVAREZ                                    D000000000014700000000000000000000100010010000000000000000000000F0010000009276600520161015000101 00000000000000000000000000000000000000000000000000000000000000000000000000000000000000000000000000000000000000000N 00000000000NCONT   00    00000000000          00000000000000000000000000000000000000000000 000000000000000A000000000000000000000000000000000000000000000 000000000000000000000000000000000000000     00000000                                                                                                                        000000000000000000
F0010000009276700001000090067091400011050500000000000000000201610150002001COMERCIALIZADORA ESCOBAR ORTIZ                    D000000003638000000000000000000000100010010000000000000000000000F0010000009276700120161015000101 00000000000000000000000000000000000000000000000000000000000000000000000000000000000000000000000000000000000000000N 00000000000NCONT   00    00000000000          00000000000000000000000000000000000000000000 000000000000000A000000000000000000000000000000000000000000000 000000000000000000000000000000000000000     00000000                                                                                                                        000000000000000000
F0010000009276700002000090067091400041450500000000000000000201610150002001COMERCIALIZADORA ESCOBAR ORTIZ                    C000000002600000000000000000000000100010010000000000000000000000F0010000009276700220161015000101 00000000000000000000000000000000000000000000000000000000000000000000000000000000000000000000000000000000000000000N 00000000000NCONT   00    00000000000          00000000000000000000000000000000000000000000 000000000000000A000000000000000000000000000000000000000000000 000000000000000000000000000000000000000     00000000                                                                                                                        000000000000000000
F0010000009276700003000090067091400042505000000000000000000201610150002001COMERCIALIZADORA ESCOBAR ORTIZ                    C000000001038000000000000000000000100010010000000000000000000000F0010000009276700320161015000101 00000000000000000000000000000000000000000000000000000000000000000000000000000000000000000000000000000000000000000N 00000000000NCONT   00    00000000000          00000000000000000000000000000000000000000000 000000000000000A000000000000000000000000000000000000000000000 000000000000000000000000000000000000000     00000000                                                                                                                        000000000000000000
F0010000009276700004000090067091400023658300000000000000000201610150002001COMERCIALIZADORA ESCOBAR ORTIZ                    C000000000020800000000000000000000100010010000000000000000000000F0010000009276700420161015000101 00000000000000000000000000000000000000000000000000000000000000000000000000000000000000000000000000000000000000000N 00000000000NCONT   00    00000000000          00000000000000000000000000000000000000000000 000000000000000A000000000000000000000000000000000000000000000 000000000000000000000000000000000000000     00000000                                                                                                                        000000000000000000
F0010000009276700005000090067091400013552100000000000000000201610150002001COMERCIALIZADORA ESCOBAR ORTIZ                    D000000000020800000000000000000000100010010000000000000000000000F0010000009276700520161015000101 00000000000000000000000000000000000000000000000000000000000000000000000000000000000000000000000000000000000000000N 00000000000NCONT   00    00000000000          00000000000000000000000000000000000000000000 000000000000000A000000000000000000000000000000000000000000000 000000000000000000000000000000000000000     00000000                                                                                                                        000000000000000000
F0010000009276800001000090067091400011050500000000000000000201610150002001COMERCIALIZADORA ESCOBAR ORTIZ                    D000000003005000000000000000000000100010010000000000000000000000F0010000009276800120161015000101 00000000000000000000000000000000000000000000000000000000000000000000000000000000000000000000000000000000000000000N 00000000000NCONT   00    00000000000          00000000000000000000000000000000000000000000 000000000000000A000000000000000000000000000000000000000000000 000000000000000000000000000000000000000     00000000                                                                                                                        000000000000000000
F0010000009276800002000090067091400041450500000000000000000201610150002001COMERCIALIZADORA ESCOBAR ORTIZ                    C000000002600000000000000000000000100010010000000000000000000000F0010000009276800220161015000101 00000000000000000000000000000000000000000000000000000000000000000000000000000000000000000000000000000000000000000N 00000000000NCONT   00    00000000000          00000000000000000000000000000000000000000000 000000000000000A000000000000000000000000000000000000000000000 000000000000000000000000000000000000000     00000000                                                                                                                        000000000000000000
F0010000009276800003000090067091400042505000000000000000000201610150002001COMERCIALIZADORA ESCOBAR ORTIZ                    C000000000405000000000000000000000100010010000000000000000000000F0010000009276800320161015000101 00000000000000000000000000000000000000000000000000000000000000000000000000000000000000000000000000000000000000000N 00000000000NCONT   00    00000000000          00000000000000000000000000000000000000000000 000000000000000A000000000000000000000000000000000000000000000 000000000000000000000000000000000000000     00000000                                                                                                                        000000000000000000
F0010000009276800004000090067091400023658300000000000000000201610150002001COMERCIALIZADORA ESCOBAR ORTIZ                    C000000000020800000000000000000000100010010000000000000000000000F0010000009276800420161015000101 00000000000000000000000000000000000000000000000000000000000000000000000000000000000000000000000000000000000000000N 00000000000NCONT   00    00000000000          00000000000000000000000000000000000000000000 000000000000000A000000000000000000000000000000000000000000000 000000000000000000000000000000000000000     00000000                                                                                                                        000000000000000000
F0010000009276800005000090067091400013552100000000000000000201610150002001COMERCIALIZADORA ESCOBAR ORTIZ                    D000000000020800000000000000000000100010010000000000000000000000F0010000009276800520161015000101 00000000000000000000000000000000000000000000000000000000000000000000000000000000000000000000000000000000000000000N 00000000000NCONT   00    00000000000          00000000000000000000000000000000000000000000 000000000000000A000000000000000000000000000000000000000000000 000000000000000000000000000000000000000     00000000                                                                                                                        000000000000000000
F0010000009276900001000090067091400011050500000000000000000201610150002001COMERCIALIZADORA ESCOBAR ORTIZ                    D000000001521000000000000000000000100010010000000000000000000000F0010000009276900120161015000101 00000000000000000000000000000000000000000000000000000000000000000000000000000000000000000000000000000000000000000N 00000000000NCONT   00    00000000000          00000000000000000000000000000000000000000000 000000000000000A000000000000000000000000000000000000000000000 000000000000000000000000000000000000000     00000000                                                                                                                        000000000000000000
F0010000009276900002000090067091400041450500000000000000000201610150002001COMERCIALIZADORA ESCOBAR ORTIZ                    C000000000900000000000000000000000100010010000000000000000000000F0010000009276900220161015000101 00000000000000000000000000000000000000000000000000000000000000000000000000000000000000000000000000000000000000000N 00000000000NCONT   00    00000000000          00000000000000000000000000000000000000000000 000000000000000A000000000000000000000000000000000000000000000 000000000000000000000000000000000000000     00000000                                                                                                                        000000000000000000
F0010000009276900003000090067091400042505000000000000000000201610150002001COMERCIALIZADORA ESCOBAR ORTIZ                    C000000000621000000000000000000000100010010000000000000000000000F0010000009276900320161015000101 00000000000000000000000000000000000000000000000000000000000000000000000000000000000000000000000000000000000000000N 00000000000NCONT   00    00000000000          00000000000000000000000000000000000000000000 000000000000000A000000000000000000000000000000000000000000000 000000000000000000000000000000000000000     00000000                                                                                                                        000000000000000000
F0010000009276900004000090067091400023658300000000000000000201610150002001COMERCIALIZADORA ESCOBAR ORTIZ                    C000000000007200000000000000000000100010010000000000000000000000F0010000009276900420161015000101 00000000000000000000000000000000000000000000000000000000000000000000000000000000000000000000000000000000000000000N 00000000000NCONT   00    00000000000          00000000000000000000000000000000000000000000 000000000000000A000000000000000000000000000000000000000000000 000000000000000000000000000000000000000     00000000                                                                                                                        000000000000000000
F0010000009276900005000090067091400013552100000000000000000201610150002001COMERCIALIZADORA ESCOBAR ORTIZ                    D000000000007200000000000000000000100010010000000000000000000000F0010000009276900520161015000101 00000000000000000000000000000000000000000000000000000000000000000000000000000000000000000000000000000000000000000N 00000000000NCONT   00    00000000000          00000000000000000000000000000000000000000000 000000000000000A000000000000000000000000000000000000000000000 000000000000000000000000000000000000000     00000000                                                                                                                        000000000000000000
F0010000009277000001000090067091400011050500000000000000000201610150002001COMERCIALIZADORA ESCOBAR ORTIZ                    D000000003243000000000000000000000100010010000000000000000000000F0010000009277000120161015000101 00000000000000000000000000000000000000000000000000000000000000000000000000000000000000000000000000000000000000000N 00000000000NCONT   00    00000000000          00000000000000000000000000000000000000000000 000000000000000A000000000000000000000000000000000000000000000 000000000000000000000000000000000000000     00000000                                                                                                                        000000000000000000
F0010000009277000002000090067091400041450500000000000000000201610150002001COMERCIALIZADORA ESCOBAR ORTIZ                    C000000002600000000000000000000000100010010000000000000000000000F0010000009277000220161015000101 00000000000000000000000000000000000000000000000000000000000000000000000000000000000000000000000000000000000000000N 00000000000NCONT   00    00000000000          00000000000000000000000000000000000000000000 000000000000000A000000000000000000000000000000000000000000000 000000000000000000000000000000000000000     00000000                                                                                                                        000000000000000000
F0010000009277000003000090067091400042505000000000000000000201610150002001COMERCIALIZADORA ESCOBAR ORTIZ                    C000000000643000000000000000000000100010010000000000000000000000F0010000009277000320161015000101 00000000000000000000000000000000000000000000000000000000000000000000000000000000000000000000000000000000000000000N 00000000000NCONT   00    00000000000          00000000000000000000000000000000000000000000 000000000000000A000000000000000000000000000000000000000000000 000000000000000000000000000000000000000     00000000                                                                                                                        000000000000000000
F0010000009277000004000090067091400023658300000000000000000201610150002001COMERCIALIZADORA ESCOBAR ORTIZ                    C000000000020800000000000000000000100010010000000000000000000000F0010000009277000420161015000101 00000000000000000000000000000000000000000000000000000000000000000000000000000000000000000000000000000000000000000N 00000000000NCONT   00    00000000000          00000000000000000000000000000000000000000000 000000000000000A000000000000000000000000000000000000000000000 000000000000000000000000000000000000000     00000000                                                                                                                        000000000000000000
F0010000009277000005000090067091400013552100000000000000000201610150002001COMERCIALIZADORA ESCOBAR ORTIZ                    D000000000020800000000000000000000100010010000000000000000000000F0010000009277000520161015000101 00000000000000000000000000000000000000000000000000000000000000000000000000000000000000000000000000000000000000000N 00000000000NCONT   00    00000000000          00000000000000000000000000000000000000000000 000000000000000A000000000000000000000000000000000000000000000 000000000000000000000000000000000000000     00000000                                                                                                                        000000000000000000
F0010000009277100001000090067091400011050500000000000000000201610150002001COMERCIALIZADORA ESCOBAR ORTIZ                    D000000001430000000000000000000000100010010000000000000000000000F0010000009277100120161015000101 00000000000000000000000000000000000000000000000000000000000000000000000000000000000000000000000000000000000000000N 00000000000NCONT   00    00000000000          00000000000000000000000000000000000000000000 000000000000000A000000000000000000000000000000000000000000000 000000000000000000000000000000000000000     00000000                                                                                                                        000000000000000000
F0010000009277100002000090067091400041450500000000000000000201610150002001COMERCIALIZADORA ESCOBAR ORTIZ                    C000000001000000000000000000000000100010010000000000000000000000F0010000009277100220161015000101 00000000000000000000000000000000000000000000000000000000000000000000000000000000000000000000000000000000000000000N 00000000000NCONT   00    00000000000          00000000000000000000000000000000000000000000 000000000000000A000000000000000000000000000000000000000000000 000000000000000000000000000000000000000     00000000                                                                                                                        000000000000000000
F0010000009277100003000090067091400042505000000000000000000201610150002001COMERCIALIZADORA ESCOBAR ORTIZ                    C000000000430000000000000000000000100010010000000000000000000000F0010000009277100320161015000101 00000000000000000000000000000000000000000000000000000000000000000000000000000000000000000000000000000000000000000N 00000000000NCONT   00    00000000000          00000000000000000000000000000000000000000000 000000000000000A000000000000000000000000000000000000000000000 000000000000000000000000000000000000000     00000000                                                                                                                        000000000000000000
F0010000009277100004000090067091400023658300000000000000000201610150002001COMERCIALIZADORA ESCOBAR ORTIZ                    C000000000008000000000000000000000100010010000000000000000000000F0010000009277100420161015000101 00000000000000000000000000000000000000000000000000000000000000000000000000000000000000000000000000000000000000000N 00000000000NCONT   00    00000000000          00000000000000000000000000000000000000000000 000000000000000A000000000000000000000000000000000000000000000 000000000000000000000000000000000000000     00000000                                                                                                                        000000000000000000
F0010000009277100005000090067091400013552100000000000000000201610150002001COMERCIALIZADORA ESCOBAR ORTIZ                    D000000000008000000000000000000000100010010000000000000000000000F0010000009277100520161015000101 00000000000000000000000000000000000000000000000000000000000000000000000000000000000000000000000000000000000000000N 00000000000NCONT   00    00000000000          00000000000000000000000000000000000000000000 000000000000000A000000000000000000000000000000000000000000000 000000000000000000000000000000000000000     00000000                                                                                                                        000000000000000000
F0010000009277200001000090067091400011050500000000000000000201610150002001COMERCIALIZADORA ESCOBAR ORTIZ                    D000000002273000000000000000000000100010010000000000000000000000F0010000009277200120161015000101 00000000000000000000000000000000000000000000000000000000000000000000000000000000000000000000000000000000000000000N 00000000000NCONT   00    00000000000          00000000000000000000000000000000000000000000 000000000000000A000000000000000000000000000000000000000000000 000000000000000000000000000000000000000     00000000                                                                                                                        000000000000000000
F0010000009277200002000090067091400041450500000000000000000201610150002001COMERCIALIZADORA ESCOBAR ORTIZ                    C000000000900000000000000000000000100010010000000000000000000000F0010000009277200220161015000101 00000000000000000000000000000000000000000000000000000000000000000000000000000000000000000000000000000000000000000N 00000000000NCONT   00    00000000000          00000000000000000000000000000000000000000000 000000000000000A000000000000000000000000000000000000000000000 000000000000000000000000000000000000000     00000000                                                                                                                        000000000000000000
F0010000009277200003000090067091400042505000000000000000000201610150002001COMERCIALIZADORA ESCOBAR ORTIZ                    C000000001373000000000000000000000100010010000000000000000000000F0010000009277200320161015000101 00000000000000000000000000000000000000000000000000000000000000000000000000000000000000000000000000000000000000000N 00000000000NCONT   00    00000000000          00000000000000000000000000000000000000000000 000000000000000A000000000000000000000000000000000000000000000 000000000000000000000000000000000000000     00000000                                                                                                                        000000000000000000
F0010000009277200004000090067091400023658300000000000000000201610150002001COMERCIALIZADORA ESCOBAR ORTIZ                    C000000000007200000000000000000000100010010000000000000000000000F0010000009277200420161015000101 00000000000000000000000000000000000000000000000000000000000000000000000000000000000000000000000000000000000000000N 00000000000NCONT   00    00000000000          00000000000000000000000000000000000000000000 000000000000000A000000000000000000000000000000000000000000000 000000000000000000000000000000000000000     00000000                                                                                                                        000000000000000000
F0010000009277200005000090067091400013552100000000000000000201610150002001COMERCIALIZADORA ESCOBAR ORTIZ                    D000000000007200000000000000000000100010010000000000000000000000F0010000009277200520161015000101 00000000000000000000000000000000000000000000000000000000000000000000000000000000000000000000000000000000000000000N 00000000000NCONT   00    00000000000          00000000000000000000000000000000000000000000 000000000000000A000000000000000000000000000000000000000000000 000000000000000000000000000000000000000     00000000                                                                                                                        000000000000000000
F0010000009277300001000090067091400011050500000000000000000201610150002001COMERCIALIZADORA ESCOBAR ORTIZ                    D000000002897000000000000000000000100010010000000000000000000000F0010000009277300120161015000101 00000000000000000000000000000000000000000000000000000000000000000000000000000000000000000000000000000000000000000N 00000000000NCONT   00    00000000000          00000000000000000000000000000000000000000000 000000000000000A000000000000000000000000000000000000000000000 000000000000000000000000000000000000000     00000000                                                                                                                        000000000000000000
F0010000009277300002000090067091400041450500000000000000000201610150002001COMERCIALIZADORA ESCOBAR ORTIZ                    C000000000900000000000000000000000100010010000000000000000000000F0010000009277300220161015000101 00000000000000000000000000000000000000000000000000000000000000000000000000000000000000000000000000000000000000000N 00000000000NCONT   00    00000000000          00000000000000000000000000000000000000000000 000000000000000A000000000000000000000000000000000000000000000 000000000000000000000000000000000000000     00000000                                                                                                                        000000000000000000
F0010000009277300003000090067091400042505000000000000000000201610150002001COMERCIALIZADORA ESCOBAR ORTIZ                    C000000001997000000000000000000000100010010000000000000000000000F0010000009277300320161015000101 00000000000000000000000000000000000000000000000000000000000000000000000000000000000000000000000000000000000000000N 00000000000NCONT   00    00000000000          00000000000000000000000000000000000000000000 000000000000000A000000000000000000000000000000000000000000000 000000000000000000000000000000000000000     00000000                                                                                                                        000000000000000000
F0010000009277300004000090067091400023658300000000000000000201610150002001COMERCIALIZADORA ESCOBAR ORTIZ                    C000000000007200000000000000000000100010010000000000000000000000F0010000009277300420161015000101 00000000000000000000000000000000000000000000000000000000000000000000000000000000000000000000000000000000000000000N 00000000000NCONT   00    00000000000          00000000000000000000000000000000000000000000 000000000000000A000000000000000000000000000000000000000000000 000000000000000000000000000000000000000     00000000                                                                                                                        000000000000000000
F0010000009277300005000090067091400013552100000000000000000201610150002001COMERCIALIZADORA ESCOBAR ORTIZ                    D000000000007200000000000000000000100010010000000000000000000000F0010000009277300520161015000101 00000000000000000000000000000000000000000000000000000000000000000000000000000000000000000000000000000000000000000N 00000000000NCONT   00    00000000000          00000000000000000000000000000000000000000000 000000000000000A000000000000000000000000000000000000000000000 000000000000000000000000000000000000000     00000000                                                                                                                        000000000000000000
F0010000009277400001000090067091400011050500000000000000000201610150002001COMERCIALIZADORA ESCOBAR ORTIZ                    D000000000703000000000000000000000100010010000000000000000000000F0010000009277400120161015000101 00000000000000000000000000000000000000000000000000000000000000000000000000000000000000000000000000000000000000000N 00000000000NCONT   00    00000000000          00000000000000000000000000000000000000000000 000000000000000A000000000000000000000000000000000000000000000 000000000000000000000000000000000000000     00000000                                                                                                                        000000000000000000
F0010000009277400002000090067091400041450500000000000000000201610150002001COMERCIALIZADORA ESCOBAR ORTIZ                    C000000000300000000000000000000000100010010000000000000000000000F0010000009277400220161015000101 00000000000000000000000000000000000000000000000000000000000000000000000000000000000000000000000000000000000000000N 00000000000NCONT   00    00000000000          00000000000000000000000000000000000000000000 000000000000000A000000000000000000000000000000000000000000000 000000000000000000000000000000000000000     00000000                                                                                                                        000000000000000000
F0010000009277400003000090067091400042505000000000000000000201610150002001COMERCIALIZADORA ESCOBAR ORTIZ                    C000000000403000000000000000000000100010010000000000000000000000F0010000009277400320161015000101 00000000000000000000000000000000000000000000000000000000000000000000000000000000000000000000000000000000000000000N 00000000000NCONT   00    00000000000          00000000000000000000000000000000000000000000 000000000000000A000000000000000000000000000000000000000000000 000000000000000000000000000000000000000     00000000                                                                                                                        000000000000000000
F0010000009277400004000090067091400023658300000000000000000201610150002001COMERCIALIZADORA ESCOBAR ORTIZ                    C000000000002400000000000000000000100010010000000000000000000000F0010000009277400420161015000101 00000000000000000000000000000000000000000000000000000000000000000000000000000000000000000000000000000000000000000N 00000000000NCONT   00    00000000000          00000000000000000000000000000000000000000000 000000000000000A000000000000000000000000000000000000000000000 000000000000000000000000000000000000000     00000000                                                                                                                        000000000000000000
F0010000009277400005000090067091400013552100000000000000000201610150002001COMERCIALIZADORA ESCOBAR ORTIZ                    D000000000002400000000000000000000100010010000000000000000000000F0010000009277400520161015000101 00000000000000000000000000000000000000000000000000000000000000000000000000000000000000000000000000000000000000000N 00000000000NCONT   00    00000000000          00000000000000000000000000000000000000000000 000000000000000A000000000000000000000000000000000000000000000 000000000000000000000000000000000000000     00000000                                                                                                                        000000000000000000
F0010000009277500001000090067091400011050500000000000000000201610150002001COMERCIALIZADORA ESCOBAR ORTIZ                    D000000001676000000000000000000000100010010000000000000000000000F0010000009277500120161015000101 00000000000000000000000000000000000000000000000000000000000000000000000000000000000000000000000000000000000000000N 00000000000NCONT   00    00000000000          00000000000000000000000000000000000000000000 000000000000000A000000000000000000000000000000000000000000000 000000000000000000000000000000000000000     00000000                                                                                                                        000000000000000000
F0010000009277500002000090067091400041450500000000000000000201610150002001COMERCIALIZADORA ESCOBAR ORTIZ                    C000000001300000000000000000000000100010010000000000000000000000F0010000009277500220161015000101 00000000000000000000000000000000000000000000000000000000000000000000000000000000000000000000000000000000000000000N 00000000000NCONT   00    00000000000          00000000000000000000000000000000000000000000 000000000000000A000000000000000000000000000000000000000000000 000000000000000000000000000000000000000     00000000                                                                                                                        000000000000000000
