F0010000008689000001000104568343300011050500000000000000000201606070002001DISTRIBUIDORA VICTORIA                            D000000001400000000000000000000000100010010000000000000000000000F0010000008689000120160607000101 00000000000000000000000000000000000000000000000000000000000000000000000000000000000000000000000000000000000000000N 00000000000NCONT   00    00000000000          00000000000000000000000000000000000000000000 000000000000000A000000000000000000000000000000000000000000000 000000000000000000000000000000000000000     00000000                                                                                                                        000000000000000000
F0010000008689000002000104568343300041450500000000000000000201606070002001DISTRIBUIDORA VICTORIA                            C000000001300000000000000000000000100010010000000000000000000000F0010000008689000220160607000101 00000000000000000000000000000000000000000000000000000000000000000000000000000000000000000000000000000000000000000N 00000000000NCONT   00    00000000000          00000000000000000000000000000000000000000000 000000000000000A000000000000000000000000000000000000000000000 000000000000000000000000000000000000000     00000000                                                                                                                        000000000000000000
F0010000008689000003000104568343300042505000000000000000000201606070002001DISTRIBUIDORA VICTORIA                            C000000000100000000000000000000000100010010000000000000000000000F0010000008689000320160607000101 00000000000000000000000000000000000000000000000000000000000000000000000000000000000000000000000000000000000000000N 00000000000NCONT   00    00000000000          00000000000000000000000000000000000000000000 000000000000000A000000000000000000000000000000000000000000000 000000000000000000000000000000000000000     00000000                                                                                                                        000000000000000000
F0010000008689000004000104568343300023658300000000000000000201606070002001DISTRIBUIDORA VICTORIA                            C000000000010400000000000000000000100010010000000000000000000000F0010000008689000420160607000101 00000000000000000000000000000000000000000000000000000000000000000000000000000000000000000000000000000000000000000N 00000000000NCONT   00    00000000000          00000000000000000000000000000000000000000000 000000000000000A000000000000000000000000000000000000000000000 000000000000000000000000000000000000000     00000000                                                                                                                        000000000000000000
F0010000008689000005000104568343300013552100000000000000000201606070002001DISTRIBUIDORA VICTORIA                            D000000000010400000000000000000000100010010000000000000000000000F0010000008689000520160607000101 00000000000000000000000000000000000000000000000000000000000000000000000000000000000000000000000000000000000000000N 00000000000NCONT   00    00000000000          00000000000000000000000000000000000000000000 000000000000000A000000000000000000000000000000000000000000000 000000000000000000000000000000000000000     00000000                                                                                                                        000000000000000000
F0010000008689100001000089080176300013050500000000000000000201606070002001SEGAR S.A.                                        D000000040431200000000000000000000100010010000000000000000000000F0010000008689100120160607000101 00000000000000000000000000000000000000000000000000000000000000000000000000000000000000000000000000000000000000000N 00000000000NCONT   00    00000000000          00000000000000000000000000000000000000000000 000000000000000A000000000000000000000000000000000000000000000 000000000000000000000000000000000000000     00000000                                                                                                                        000000000000000000
F0010000008689100002000089080176300041450500000000000000000201606070002001SEGAR S.A.                                        C000000032962000000000000000000000100010010000000000000000000000F0010000008689100220160607000101 00000000000000000000000000000000000000000000000000000000000000000000000000000000000000000000000000000000000000000N 00000000000NCONT   00    00000000000          00000000000000000000000000000000000000000000 000000000000000A000000000000000000000000000000000000000000000 000000000000000000000000000000000000000     00000000                                                                                                                        000000000000000000
F0010000008689100003000089080176300042505000000000000000000201606070002001SEGAR S.A.                                        C000000007469200000000000000000000100010010000000000000000000000F0010000008689100320160607000101 00000000000000000000000000000000000000000000000000000000000000000000000000000000000000000000000000000000000000000N 00000000000NCONT   00    00000000000          00000000000000000000000000000000000000000000 000000000000000A000000000000000000000000000000000000000000000 000000000000000000000000000000000000000     00000000                                                                                                                        000000000000000000
F0010000008689100004000089080176300023658300000000000000000201606070002001SEGAR S.A.                                        C000000000263700000000000000000000100010010000000000000000000000F0010000008689100420160607000101 00000000000000000000000000000000000000000000000000000000000000000000000000000000000000000000000000000000000000000N 00000000000NCONT   00    00000000000          00000000000000000000000000000000000000000000 000000000000000A000000000000000000000000000000000000000000000 000000000000000000000000000000000000000     00000000                                                                                                                        000000000000000000
F0010000008689100005000089080176300013552100000000000000000201606070002001SEGAR S.A.                                        D000000000263700000000000000000000100010010000000000000000000000F0010000008689100520160607000101 00000000000000000000000000000000000000000000000000000000000000000000000000000000000000000000000000000000000000000N 00000000000NCONT   00    00000000000          00000000000000000000000000000000000000000000 000000000000000A000000000000000000000000000000000000000000000 000000000000000000000000000000000000000     00000000                                                                                                                        000000000000000000
F0010000008689200001000089011492400013050500000000000000000201606070002001AGE. CAUCHO SOL DE LA COSTA  SAS                  D000000062592700000000000000000000100010010000000000000000000000F0010000008689200120160607000101 00000000000000000000000000000000000000000000000000000000000000000000000000000000000000000000000000000000000000000N 00000000000NCONT   00    00000000000          00000000000000000000000000000000000000000000 000000000000000A000000000000000000000000000000000000000000000 000000000000000000000000000000000000000     00000000                                                                                                                        000000000000000000
F0010000008689200002000089011492400041450500000000000000000201606070002001AGE. CAUCHO SOL DE LA COSTA  SAS                  C000000031020000000000000000000000100010010000000000000000000000F0010000008689200220160607000101 00000000000000000000000000000000000000000000000000000000000000000000000000000000000000000000000000000000000000000N 00000000000NCONT   00    00000000000          00000000000000000000000000000000000000000000 000000000000000A000000000000000000000000000000000000000000000 000000000000000000000000000000000000000     00000000                                                                                                                        000000000000000000
F0010000008689200003000089011492400042505000000000000000000201606070002001AGE. CAUCHO SOL DE LA COSTA  SAS                  C000000031572700000000000000000000100010010000000000000000000000F0010000008689200320160607000101 00000000000000000000000000000000000000000000000000000000000000000000000000000000000000000000000000000000000000000N 00000000000NCONT   00    00000000000          00000000000000000000000000000000000000000000 000000000000000A000000000000000000000000000000000000000000000 000000000000000000000000000000000000000     00000000                                                                                                                        000000000000000000
F0010000008689200004000089011492400023658300000000000000000201606070002001AGE. CAUCHO SOL DE LA COSTA  SAS                  C000000000248200000000000000000000100010010000000000000000000000F0010000008689200420160607000101 00000000000000000000000000000000000000000000000000000000000000000000000000000000000000000000000000000000000000000N 00000000000NCONT   00    00000000000          00000000000000000000000000000000000000000000 000000000000000A000000000000000000000000000000000000000000000 000000000000000000000000000000000000000     00000000                                                                                                                        000000000000000000
F0010000008689200005000089011492400013552100000000000000000201606070002001AGE. CAUCHO SOL DE LA COSTA  SAS                  D000000000248200000000000000000000100010010000000000000000000000F0010000008689200520160607000101 00000000000000000000000000000000000000000000000000000000000000000000000000000000000000000000000000000000000000000N 00000000000NCONT   00    00000000000          00000000000000000000000000000000000000000000 000000000000000A000000000000000000000000000000000000000000000 000000000000000000000000000000000000000     00000000                                                                                                                        000000000000000000
F0010000008689300001000080201127600013050500000000000000000201606070002001ELECTRICOS DEL RUIZ S.A.S.                        D000000105924300000000000000000000100010010000000000000000000000F0010000008689300120160607000101 00000000000000000000000000000000000000000000000000000000000000000000000000000000000000000000000000000000000000000N 00000000000NCONT   00    00000000000          00000000000000000000000000000000000000000000 000000000000000A000000000000000000000000000000000000000000000 000000000000000000000000000000000000000     00000000                                                                                                                        000000000000000000
F0010000008689300002000080201127600041450500000000000000000201606070002001ELECTRICOS DEL RUIZ S.A.S.                        C000000086970000000000000000000000100010010000000000000000000000F0010000008689300220160607000101 00000000000000000000000000000000000000000000000000000000000000000000000000000000000000000000000000000000000000000N 00000000000NCONT   00    00000000000          00000000000000000000000000000000000000000000 000000000000000A000000000000000000000000000000000000000000000 000000000000000000000000000000000000000     00000000                                                                                                                        000000000000000000
F0010000008689300003000080201127600042505000000000000000000201606070002001ELECTRICOS DEL RUIZ S.A.S.                        C000000018954300000000000000000000100010010000000000000000000000F0010000008689300320160607000101 00000000000000000000000000000000000000000000000000000000000000000000000000000000000000000000000000000000000000000N 00000000000NCONT   00    00000000000          00000000000000000000000000000000000000000000 000000000000000A000000000000000000000000000000000000000000000 000000000000000000000000000000000000000     00000000                                                                                                                        000000000000000000
F0010000008689300004000080201127600023658300000000000000000201606070002001ELECTRICOS DEL RUIZ S.A.S.                        C000000000695800000000000000000000100010010000000000000000000000F0010000008689300420160607000101 00000000000000000000000000000000000000000000000000000000000000000000000000000000000000000000000000000000000000000N 00000000000NCONT   00    00000000000          00000000000000000000000000000000000000000000 000000000000000A000000000000000000000000000000000000000000000 000000000000000000000000000000000000000     00000000                                                                                                                        000000000000000000
F0010000008689300005000080201127600013552100000000000000000201606070002001ELECTRICOS DEL RUIZ S.A.S.                        D000000000695800000000000000000000100010010000000000000000000000F0010000008689300520160607000101 00000000000000000000000000000000000000000000000000000000000000000000000000000000000000000000000000000000000000000N 00000000000NCONT   00    00000000000          00000000000000000000000000000000000000000000 000000000000000A000000000000000000000000000000000000000000000 000000000000000000000000000000000000000     00000000                                                                                                                        000000000000000000
F0010000008689400001000080202094000013050500000000000000000201606070002001DISTRIB. OMAR ORREGO S.A.                         D000000047811700000000000000000000100010010000000000000000000000F0010000008689400120160607000101 00000000000000000000000000000000000000000000000000000000000000000000000000000000000000000000000000000000000000000N 00000000000NCONT   00    00000000000          00000000000000000000000000000000000000000000 000000000000000A000000000000000000000000000000000000000000000 000000000000000000000000000000000000000     00000000                                                                                                                        000000000000000000
F0010000008689400002000080202094000041450500000000000000000201606070002001DISTRIB. OMAR ORREGO S.A.                         C000000032430000000000000000000000100010010000000000000000000000F0010000008689400220160607000101 00000000000000000000000000000000000000000000000000000000000000000000000000000000000000000000000000000000000000000N 00000000000NCONT   00    00000000000          00000000000000000000000000000000000000000000 000000000000000A000000000000000000000000000000000000000000000 000000000000000000000000000000000000000     00000000                                                                                                                        000000000000000000
F0010000008689400003000080202094000042505000000000000000000201606070002001DISTRIB. OMAR ORREGO S.A.                         C000000015381700000000000000000000100010010000000000000000000000F0010000008689400320160607000101 00000000000000000000000000000000000000000000000000000000000000000000000000000000000000000000000000000000000000000N 00000000000NCONT   00    00000000000          00000000000000000000000000000000000000000000 000000000000000A000000000000000000000000000000000000000000000 000000000000000000000000000000000000000     00000000                                                                                                                        000000000000000000
F0010000008689400004000080202094000023658300000000000000000201606070002001DISTRIB. OMAR ORREGO S.A.                         C000000000259400000000000000000000100010010000000000000000000000F0010000008689400420160607000101 00000000000000000000000000000000000000000000000000000000000000000000000000000000000000000000000000000000000000000N 00000000000NCONT   00    00000000000          00000000000000000000000000000000000000000000 000000000000000A000000000000000000000000000000000000000000000 000000000000000000000000000000000000000     00000000                                                                                                                        000000000000000000
F0010000008689400005000080202094000013552100000000000000000201606070002001DISTRIB. OMAR ORREGO S.A.                         D000000000259400000000000000000000100010010000000000000000000000F0010000008689400520160607000101 00000000000000000000000000000000000000000000000000000000000000000000000000000000000000000000000000000000000000000N 00000000000NCONT   00    00000000000          00000000000000000000000000000000000000000000 000000000000000A000000000000000000000000000000000000000000000 000000000000000000000000000000000000000     00000000                                                                                                                        000000000000000000
F0010000008689600001000090064982900013050500000000000000000201606070002001DISDIES S.A.S                                     D000000045647200000000000000000000100010010000000000000000000000F0010000008689600120160607000101 00000000000000000000000000000000000000000000000000000000000000000000000000000000000000000000000000000000000000000N 00000000000NCONT   00    00000000000          00000000000000000000000000000000000000000000 000000000000000A000000000000000000000000000000000000000000000 000000000000000000000000000000000000000     00000000                                                                                                                        000000000000000000
F0010000008689600002000090064982900041450500000000000000000201606070002001DISDIES S.A.S                                     C000000040877200000000000000000000100010010000000000000000000000F0010000008689600220160607000101 00000000000000000000000000000000000000000000000000000000000000000000000000000000000000000000000000000000000000000N 00000000000NCONT   00    00000000000          00000000000000000000000000000000000000000000 000000000000000A000000000000000000000000000000000000000000000 000000000000000000000000000000000000000     00000000                                                                                                                        000000000000000000
F0010000008689600003000090064982900042505000000000000000000201606070002001DISDIES S.A.S                                     C000000004770000000000000000000000100010010000000000000000000000F0010000008689600320160607000101 00000000000000000000000000000000000000000000000000000000000000000000000000000000000000000000000000000000000000000N 00000000000NCONT   00    00000000000          00000000000000000000000000000000000000000000 000000000000000A000000000000000000000000000000000000000000000 000000000000000000000000000000000000000     00000000                                                                                                                        000000000000000000
F0010000008689600004000090064982900023658300000000000000000201606070002001DISDIES S.A.S                                     C000000000327000000000000000000000100010010000000000000000000000F0010000008689600420160607000101 00000000000000000000000000000000000000000000000000000000000000000000000000000000000000000000000000000000000000000N 00000000000NCONT   00    00000000000          00000000000000000000000000000000000000000000 000000000000000A000000000000000000000000000000000000000000000 000000000000000000000000000000000000000     00000000                                                                                                                        000000000000000000
F0010000008689600005000090064982900013552100000000000000000201606070002001DISDIES S.A.S                                     D000000000327000000000000000000000100010010000000000000000000000F0010000008689600520160607000101 00000000000000000000000000000000000000000000000000000000000000000000000000000000000000000000000000000000000000000N 00000000000NCONT   00    00000000000          00000000000000000000000000000000000000000000 000000000000000A000000000000000000000000000000000000000000000 000000000000000000000000000000000000000     00000000                                                                                                                        000000000000000000
F0010000008689700001000090073498600011050500000000000000000201606070002001VALTAC S.A.S                                      D000000003500000000000000000000000100010010000000000000000000000F0010000008689700120160607000101 00000000000000000000000000000000000000000000000000000000000000000000000000000000000000000000000000000000000000000N 00000000000NCONT   00    00000000000          00000000000000000000000000000000000000000000 000000000000000A000000000000000000000000000000000000000000000 000000000000000000000000000000000000000     00000000                                                                                                                        000000000000000000
F0010000008689700002000090073498600041450500000000000000000201606070002001VALTAC S.A.S                                      C000000003200000000000000000000000100010010000000000000000000000F0010000008689700220160607000101 00000000000000000000000000000000000000000000000000000000000000000000000000000000000000000000000000000000000000000N 00000000000NCONT   00    00000000000          00000000000000000000000000000000000000000000 000000000000000A000000000000000000000000000000000000000000000 000000000000000000000000000000000000000     00000000                                                                                                                        000000000000000000
F0010000008689700003000090073498600042505000000000000000000201606070002001VALTAC S.A.S                                      C000000000300000000000000000000000100010010000000000000000000000F0010000008689700320160607000101 00000000000000000000000000000000000000000000000000000000000000000000000000000000000000000000000000000000000000000N 00000000000NCONT   00    00000000000          00000000000000000000000000000000000000000000 000000000000000A000000000000000000000000000000000000000000000 000000000000000000000000000000000000000     00000000                                                                                                                        000000000000000000
F0010000008689700004000090073498600023658300000000000000000201606070002001VALTAC S.A.S                                      C000000000025600000000000000000000100010010000000000000000000000F0010000008689700420160607000101 00000000000000000000000000000000000000000000000000000000000000000000000000000000000000000000000000000000000000000N 00000000000NCONT   00    00000000000          00000000000000000000000000000000000000000000 000000000000000A000000000000000000000000000000000000000000000 000000000000000000000000000000000000000     00000000                                                                                                                        000000000000000000
F0010000008689700005000090073498600013552100000000000000000201606070002001VALTAC S.A.S                                      D000000000025600000000000000000000100010010000000000000000000000F0010000008689700520160607000101 00000000000000000000000000000000000000000000000000000000000000000000000000000000000000000000000000000000000000000N 00000000000NCONT   00    00000000000          00000000000000000000000000000000000000000000 000000000000000A000000000000000000000000000000000000000000000 000000000000000000000000000000000000000     00000000                                                                                                                        000000000000000000
F0010000008689800001000089080078800013050500000000000000000201606070002001SUMATEC S.A.                                      D000000016471900000000000000000000100010010000000000000000000000F0010000008689800120160607000101 00000000000000000000000000000000000000000000000000000000000000000000000000000000000000000000000000000000000000000N 00000000000NCONT   00    00000000000          00000000000000000000000000000000000000000000 000000000000000A000000000000000000000000000000000000000000000 000000000000000000000000000000000000000     00000000                                                                                                                        000000000000000000
F0010000008689800002000089080078800041450500000000000000000201606070002001SUMATEC S.A.                                      C000000014020000000000000000000000100010010000000000000000000000F0010000008689800220160607000101 00000000000000000000000000000000000000000000000000000000000000000000000000000000000000000000000000000000000000000N 00000000000NCONT   00    00000000000          00000000000000000000000000000000000000000000 000000000000000A000000000000000000000000000000000000000000000 000000000000000000000000000000000000000     00000000                                                                                                                        000000000000000000
F0010000008689800003000089080078800042505000000000000000000201606070002001SUMATEC S.A.                                      C000000002451900000000000000000000100010010000000000000000000000F0010000008689800320160607000101 00000000000000000000000000000000000000000000000000000000000000000000000000000000000000000000000000000000000000000N 00000000000NCONT   00    00000000000          00000000000000000000000000000000000000000000 000000000000000A000000000000000000000000000000000000000000000 000000000000000000000000000000000000000     00000000                                                                                                                        000000000000000000
F0010000008689800004000089080078800023658300000000000000000201606070002001SUMATEC S.A.                                      C000000000112200000000000000000000100010010000000000000000000000F0010000008689800420160607000101 00000000000000000000000000000000000000000000000000000000000000000000000000000000000000000000000000000000000000000N 00000000000NCONT   00    00000000000          00000000000000000000000000000000000000000000 000000000000000A000000000000000000000000000000000000000000000 000000000000000000000000000000000000000     00000000                                                                                                                        000000000000000000
F0010000008689800005000089080078800013552100000000000000000201606070002001SUMATEC S.A.                                      D000000000112200000000000000000000100010010000000000000000000000F0010000008689800520160607000101 00000000000000000000000000000000000000000000000000000000000000000000000000000000000000000000000000000000000000000N 00000000000NCONT   00    00000000000          00000000000000000000000000000000000000000000 000000000000000A000000000000000000000000000000000000000000000 000000000000000000000000000000000000000     00000000                                                                                                                        000000000000000000
F0010000008689900001000090060531100013050500000000000000000201606070002001RECUBRIMIENTOS ESENCIALES SAS                     D000000019460000000000000000000000100010010000000000000000000000F0010000008689900120160607000101 00000000000000000000000000000000000000000000000000000000000000000000000000000000000000000000000000000000000000000N 00000000000NCONT   00    00000000000          00000000000000000000000000000000000000000000 000000000000000A000000000000000000000000000000000000000000000 000000000000000000000000000000000000000     00000000                                                                                                                        000000000000000000
F0010000008689900002000090060531100041450500000000000000000201606070002001RECUBRIMIENTOS ESENCIALES SAS                     C000000018960000000000000000000000100010010000000000000000000000F0010000008689900220160607000101 00000000000000000000000000000000000000000000000000000000000000000000000000000000000000000000000000000000000000000N 00000000000NCONT   00    00000000000          00000000000000000000000000000000000000000000 000000000000000A000000000000000000000000000000000000000000000 000000000000000000000000000000000000000     00000000                                                                                                                        000000000000000000
F0010000008689900003000090060531100042505000000000000000000201606070002001RECUBRIMIENTOS ESENCIALES SAS                     C000000000500000000000000000000000100010010000000000000000000000F0010000008689900320160607000101 00000000000000000000000000000000000000000000000000000000000000000000000000000000000000000000000000000000000000000N 00000000000NCONT   00    00000000000          00000000000000000000000000000000000000000000 000000000000000A000000000000000000000000000000000000000000000 000000000000000000000000000000000000000     00000000                                                                                                                        000000000000000000
F0010000008689900004000090060531100023658300000000000000000201606070002001RECUBRIMIENTOS ESENCIALES SAS                     C000000000151700000000000000000000100010010000000000000000000000F0010000008689900420160607000101 00000000000000000000000000000000000000000000000000000000000000000000000000000000000000000000000000000000000000000N 00000000000NCONT   00    00000000000          00000000000000000000000000000000000000000000 000000000000000A000000000000000000000000000000000000000000000 000000000000000000000000000000000000000     00000000                                                                                                                        000000000000000000
F0010000008689900005000090060531100013552100000000000000000201606070002001RECUBRIMIENTOS ESENCIALES SAS                     D000000000151700000000000000000000100010010000000000000000000000F0010000008689900520160607000101 00000000000000000000000000000000000000000000000000000000000000000000000000000000000000000000000000000000000000000N 00000000000NCONT   00    00000000000          00000000000000000000000000000000000000000000 000000000000000A000000000000000000000000000000000000000000000 000000000000000000000000000000000000000     00000000                                                                                                                        000000000000000000
F0010000008690000001000090048173700013050500000000000000000201606070002001ESPECIALIDADES QUIMICAS DEL NORTE SAS             D000000015680000000000000000000000100010010000000000000000000000F0010000008690000120160607000101 00000000000000000000000000000000000000000000000000000000000000000000000000000000000000000000000000000000000000000N 00000000000NCONT   00    00000000000          00000000000000000000000000000000000000000000 000000000000000A000000000000000000000000000000000000000000000 000000000000000000000000000000000000000     00000000                                                                                                                        000000000000000000
F0010000008690000002000090048173700041450500000000000000000201606070002001ESPECIALIDADES QUIMICAS DEL NORTE SAS             C000000014880000000000000000000000100010010000000000000000000000F0010000008690000220160607000101 00000000000000000000000000000000000000000000000000000000000000000000000000000000000000000000000000000000000000000N 00000000000NCONT   00    00000000000          00000000000000000000000000000000000000000000 000000000000000A000000000000000000000000000000000000000000000 000000000000000000000000000000000000000     00000000                                                                                                                        000000000000000000
F0010000008690000003000090048173700042505000000000000000000201606070002001ESPECIALIDADES QUIMICAS DEL NORTE SAS             C000000000800000000000000000000000100010010000000000000000000000F0010000008690000320160607000101 00000000000000000000000000000000000000000000000000000000000000000000000000000000000000000000000000000000000000000N 00000000000NCONT   00    00000000000          00000000000000000000000000000000000000000000 000000000000000A000000000000000000000000000000000000000000000 000000000000000000000000000000000000000     00000000                                                                                                                        000000000000000000
F0010000008690000004000090048173700023658300000000000000000201606070002001ESPECIALIDADES QUIMICAS DEL NORTE SAS             C000000000119000000000000000000000100010010000000000000000000000F0010000008690000420160607000101 00000000000000000000000000000000000000000000000000000000000000000000000000000000000000000000000000000000000000000N 00000000000NCONT   00    00000000000          00000000000000000000000000000000000000000000 000000000000000A000000000000000000000000000000000000000000000 000000000000000000000000000000000000000     00000000                                                                                                                        000000000000000000
F0010000008690000005000090048173700013552100000000000000000201606070002001ESPECIALIDADES QUIMICAS DEL NORTE SAS             D000000000119000000000000000000000100010010000000000000000000000F0010000008690000520160607000101 00000000000000000000000000000000000000000000000000000000000000000000000000000000000000000000000000000000000000000N 00000000000NCONT   00    00000000000          00000000000000000000000000000000000000000000 000000000000000A000000000000000000000000000000000000000000000 000000000000000000000000000000000000000     00000000                                                                                                                        000000000000000000
F0010000008690100001000000748239700013050500000000000000000201606070002001RAFAEL NAVARRO URIBE                              D000000040058500000000000000000000100010010000000000000000000000F0010000008690100120160607000101 00000000000000000000000000000000000000000000000000000000000000000000000000000000000000000000000000000000000000000N 00000000000NCONT   00    00000000000          00000000000000000000000000000000000000000000 000000000000000A000000000000000000000000000000000000000000000 000000000000000000000000000000000000000     00000000                                                                                                                        000000000000000000
F0010000008690100002000000748239700041450500000000000000000201606070002001RAFAEL NAVARRO URIBE                              C000000029010000000000000000000000100010010000000000000000000000F0010000008690100220160607000101 00000000000000000000000000000000000000000000000000000000000000000000000000000000000000000000000000000000000000000N 00000000000NCONT   00    00000000000          00000000000000000000000000000000000000000000 000000000000000A000000000000000000000000000000000000000000000 000000000000000000000000000000000000000     00000000                                                                                                                        000000000000000000
F0010000008690100003000000748239700042505000000000000000000201606070002001RAFAEL NAVARRO URIBE                              C000000011048500000000000000000000100010010000000000000000000000F0010000008690100320160607000101 00000000000000000000000000000000000000000000000000000000000000000000000000000000000000000000000000000000000000000N 00000000000NCONT   00    00000000000          00000000000000000000000000000000000000000000 000000000000000A000000000000000000000000000000000000000000000 000000000000000000000000000000000000000     00000000                                                                                                                        000000000000000000
F0010000008690100004000000748239700023658300000000000000000201606070002001RAFAEL NAVARRO URIBE                              C000000000232100000000000000000000100010010000000000000000000000F0010000008690100420160607000101 00000000000000000000000000000000000000000000000000000000000000000000000000000000000000000000000000000000000000000N 00000000000NCONT   00    00000000000          00000000000000000000000000000000000000000000 000000000000000A000000000000000000000000000000000000000000000 000000000000000000000000000000000000000     00000000                                                                                                                        000000000000000000
F0010000008690100005000000748239700013552100000000000000000201606070002001RAFAEL NAVARRO URIBE                              D000000000232100000000000000000000100010010000000000000000000000F0010000008690100520160607000101 00000000000000000000000000000000000000000000000000000000000000000000000000000000000000000000000000000000000000000N 00000000000NCONT   00    00000000000          00000000000000000000000000000000000000000000 000000000000000A000000000000000000000000000000000000000000000 000000000000000000000000000000000000000     00000000                                                                                                                        000000000000000000
F0010000008690200001000081102758700013050500000000000000000201606070002001C.I. ABRACOL S.A EMA                              D000000072042400000000000000000000100010010000000000000000000000F0010000008690200120160607000101 00000000000000000000000000000000000000000000000000000000000000000000000000000000000000000000000000000000000000000N 00000000000NCONT   00    00000000000          00000000000000000000000000000000000000000000 000000000000000A000000000000000000000000000000000000000000000 000000000000000000000000000000000000000     00000000                                                                                                                        000000000000000000
F0010000008690200002000081102758700041450500000000000000000201606070002001C.I. ABRACOL S.A EMA                              C000000050570000000000000000000000100010010000000000000000000000F0010000008690200220160607000101 00000000000000000000000000000000000000000000000000000000000000000000000000000000000000000000000000000000000000000N 00000000000NCONT   00    00000000000          00000000000000000000000000000000000000000000 000000000000000A000000000000000000000000000000000000000000000 000000000000000000000000000000000000000     00000000                                                                                                                        000000000000000000
F0010000008690200003000081102758700041750100000000000000000201606070002001C.I. ABRACOL S.A EMA                              D000000001517100000000000000000000100010010000000000000000000000F0010000008690200320160607000101 00000000000000000000000000000000000000000000000000000000000000000000000000000000000000000000000000000000000000000N 00000000000NCONT   00    00000000000          00000000000000000000000000000000000000000000 000000000000000A000000000000000000000000000000000000000000000 000000000000000000000000000000000000000     00000000                                                                                                                        000000000000000000
F0010000008690200004000081102758700042505000000000000000000201606070002001C.I. ABRACOL S.A EMA                              C000000022989500000000000000000000100010010000000000000000000000F0010000008690200420160607000101 00000000000000000000000000000000000000000000000000000000000000000000000000000000000000000000000000000000000000000N 00000000000NCONT   00    00000000000          00000000000000000000000000000000000000000000 000000000000000A000000000000000000000000000000000000000000000 000000000000000000000000000000000000000     00000000                                                                                                                        000000000000000000
F0010000008690200005000081102758700023658300000000000000000201606070002001C.I. ABRACOL S.A EMA                              C000000000404600000000000000000000100010010000000000000000000000F0010000008690200520160607000101 00000000000000000000000000000000000000000000000000000000000000000000000000000000000000000000000000000000000000000N 00000000000NCONT   00    00000000000          00000000000000000000000000000000000000000000 000000000000000A000000000000000000000000000000000000000000000 000000000000000000000000000000000000000     00000000                                                                                                                        000000000000000000
F0010000008690200006000081102758700013552100000000000000000201606070002001C.I. ABRACOL S.A EMA                              D000000000404600000000000000000000100010010000000000000000000000F0010000008690200620160607000101 00000000000000000000000000000000000000000000000000000000000000000000000000000000000000000000000000000000000000000N 00000000000NCONT   00    00000000000          00000000000000000000000000000000000000000000 000000000000000A000000000000000000000000000000000000000000000 000000000000000000000000000000000000000     00000000                                                                                                                        000000000000000000
F0010000008690300001000081102758700013050500000000000000000201606070002001C.I. ABRACOL S.A EMA                              D000000007318600000000000000000000100010010000000000000000000000F0010000008690300120160607000101 00000000000000000000000000000000000000000000000000000000000000000000000000000000000000000000000000000000000000000N 00000000000NCONT   00    00000000000          00000000000000000000000000000000000000000000 000000000000000A000000000000000000000000000000000000000000000 000000000000000000000000000000000000000     00000000                                                                                                                        000000000000000000
F0010000008690300002000081102758700041450500000000000000000201606070002001C.I. ABRACOL S.A EMA                              C000000004500000000000000000000000100010010000000000000000000000F0010000008690300220160607000101 00000000000000000000000000000000000000000000000000000000000000000000000000000000000000000000000000000000000000000N 00000000000NCONT   00    00000000000          00000000000000000000000000000000000000000000 000000000000000A000000000000000000000000000000000000000000000 000000000000000000000000000000000000000     00000000                                                                                                                        000000000000000000
F0010000008690300003000081102758700041750100000000000000000201606070002001C.I. ABRACOL S.A EMA                              D000000000135000000000000000000000100010010000000000000000000000F0010000008690300320160607000101 00000000000000000000000000000000000000000000000000000000000000000000000000000000000000000000000000000000000000000N 00000000000NCONT   00    00000000000          00000000000000000000000000000000000000000000 000000000000000A000000000000000000000000000000000000000000000 000000000000000000000000000000000000000     00000000                                                                                                                        000000000000000000
F0010000008690300004000081102758700042505000000000000000000201606070002001C.I. ABRACOL S.A EMA                              C000000002953600000000000000000000100010010000000000000000000000F0010000008690300420160607000101 00000000000000000000000000000000000000000000000000000000000000000000000000000000000000000000000000000000000000000N 00000000000NCONT   00    00000000000          00000000000000000000000000000000000000000000 000000000000000A000000000000000000000000000000000000000000000 000000000000000000000000000000000000000     00000000                                                                                                                        000000000000000000
F0010000008690300005000081102758700023658300000000000000000201606070002001C.I. ABRACOL S.A EMA                              C000000000036000000000000000000000100010010000000000000000000000F0010000008690300520160607000101 00000000000000000000000000000000000000000000000000000000000000000000000000000000000000000000000000000000000000000N 00000000000NCONT   00    00000000000          00000000000000000000000000000000000000000000 000000000000000A000000000000000000000000000000000000000000000 000000000000000000000000000000000000000     00000000                                                                                                                        000000000000000000
F0010000008690300006000081102758700013552100000000000000000201606070002001C.I. ABRACOL S.A EMA                              D000000000036000000000000000000000100010010000000000000000000000F0010000008690300620160607000101 00000000000000000000000000000000000000000000000000000000000000000000000000000000000000000000000000000000000000000N 00000000000NCONT   00    00000000000          00000000000000000000000000000000000000000000 000000000000000A000000000000000000000000000000000000000000000 000000000000000000000000000000000000000     00000000                                                                                                                        000000000000000000
F0010000008690400001000089011033000011050500000000000000000201606070002001INDUSTRIAS CRUZ & CAÑON LTDA                     D000000005400000000000000000000000100010010000000000000000000000F0010000008690400120160607000101 00000000000000000000000000000000000000000000000000000000000000000000000000000000000000000000000000000000000000000N 00000000000NCONT   00    00000000000          00000000000000000000000000000000000000000000 000000000000000A000000000000000000000000000000000000000000000 000000000000000000000000000000000000000     00000000                                                                                                                        000000000000000000
F0010000008690400002000089011033000041450500000000000000000201606070002001INDUSTRIAS CRUZ & CAÑON LTDA                     C000000005000000000000000000000000100010010000000000000000000000F0010000008690400220160607000101 00000000000000000000000000000000000000000000000000000000000000000000000000000000000000000000000000000000000000000N 00000000000NCONT   00    00000000000          00000000000000000000000000000000000000000000 000000000000000A000000000000000000000000000000000000000000000 000000000000000000000000000000000000000     00000000                                                                                                                        000000000000000000
F0010000008690400003000089011033000042505000000000000000000201606070002001INDUSTRIAS CRUZ & CAÑON LTDA                     C000000000400000000000000000000000100010010000000000000000000000F0010000008690400320160607000101 00000000000000000000000000000000000000000000000000000000000000000000000000000000000000000000000000000000000000000N 00000000000NCONT   00    00000000000          00000000000000000000000000000000000000000000 000000000000000A000000000000000000000000000000000000000000000 000000000000000000000000000000000000000     00000000                                                                                                                        000000000000000000
F0010000008690400004000089011033000023658300000000000000000201606070002001INDUSTRIAS CRUZ & CAÑON LTDA                     C000000000040000000000000000000000100010010000000000000000000000F0010000008690400420160607000101 00000000000000000000000000000000000000000000000000000000000000000000000000000000000000000000000000000000000000000N 00000000000NCONT   00    00000000000          00000000000000000000000000000000000000000000 000000000000000A000000000000000000000000000000000000000000000 000000000000000000000000000000000000000     00000000                                                                                                                        000000000000000000
F0010000008690400005000089011033000013552100000000000000000201606070002001INDUSTRIAS CRUZ & CAÑON LTDA                     D000000000040000000000000000000000100010010000000000000000000000F0010000008690400520160607000101 00000000000000000000000000000000000000000000000000000000000000000000000000000000000000000000000000000000000000000N 00000000000NCONT   00    00000000000          00000000000000000000000000000000000000000000 000000000000000A000000000000000000000000000000000000000000000 000000000000000000000000000000000000000     00000000                                                                                                                        000000000000000000
F0010000008690500001000089011033000011050500000000000000000201606070002001INDUSTRIAS CRUZ & CAÑON LTDA                     D000000005400000000000000000000000100010010000000000000000000000F0010000008690500120160607000101 00000000000000000000000000000000000000000000000000000000000000000000000000000000000000000000000000000000000000000N 00000000000NCONT   00    00000000000          00000000000000000000000000000000000000000000 000000000000000A000000000000000000000000000000000000000000000 000000000000000000000000000000000000000     00000000                                                                                                                        000000000000000000
F0010000008690500002000089011033000041450500000000000000000201606070002001INDUSTRIAS CRUZ & CAÑON LTDA                     C000000005000000000000000000000000100010010000000000000000000000F0010000008690500220160607000101 00000000000000000000000000000000000000000000000000000000000000000000000000000000000000000000000000000000000000000N 00000000000NCONT   00    00000000000          00000000000000000000000000000000000000000000 000000000000000A000000000000000000000000000000000000000000000 000000000000000000000000000000000000000     00000000                                                                                                                        000000000000000000
F0010000008690500003000089011033000042505000000000000000000201606070002001INDUSTRIAS CRUZ & CAÑON LTDA                     C000000000400000000000000000000000100010010000000000000000000000F0010000008690500320160607000101 00000000000000000000000000000000000000000000000000000000000000000000000000000000000000000000000000000000000000000N 00000000000NCONT   00    00000000000          00000000000000000000000000000000000000000000 000000000000000A000000000000000000000000000000000000000000000 000000000000000000000000000000000000000     00000000                                                                                                                        000000000000000000
F0010000008690500004000089011033000023658300000000000000000201606070002001INDUSTRIAS CRUZ & CAÑON LTDA                     C000000000040000000000000000000000100010010000000000000000000000F0010000008690500420160607000101 00000000000000000000000000000000000000000000000000000000000000000000000000000000000000000000000000000000000000000N 00000000000NCONT   00    00000000000          00000000000000000000000000000000000000000000 000000000000000A000000000000000000000000000000000000000000000 000000000000000000000000000000000000000     00000000                                                                                                                        000000000000000000
F0010000008690500005000089011033000013552100000000000000000201606070002001INDUSTRIAS CRUZ & CAÑON LTDA                     D000000000040000000000000000000000100010010000000000000000000000F0010000008690500520160607000101 00000000000000000000000000000000000000000000000000000000000000000000000000000000000000000000000000000000000000000N 00000000000NCONT   00    00000000000          00000000000000000000000000000000000000000000 000000000000000A000000000000000000000000000000000000000000000 000000000000000000000000000000000000000     00000000                                                                                                                        000000000000000000
F0010000008690600001000089010260300013050500000000000000000201606070002001FEDERICO OSORIO A. S.A.                           D000000219784400000000000000000000100010010000000000000000000000F0010000008690600120160607000101 00000000000000000000000000000000000000000000000000000000000000000000000000000000000000000000000000000000000000000N 00000000000NCONT   00    00000000000          00000000000000000000000000000000000000000000 000000000000000A000000000000000000000000000000000000000000000 000000000000000000000000000000000000000     00000000                                                                                                                        000000000000000000
F0010000008690600002000089010260300041450500000000000000000201606070002001FEDERICO OSORIO A. S.A.                           C000000208670000000000000000000000100010010000000000000000000000F0010000008690600220160607000101 00000000000000000000000000000000000000000000000000000000000000000000000000000000000000000000000000000000000000000N 00000000000NCONT   00    00000000000          00000000000000000000000000000000000000000000 000000000000000A000000000000000000000000000000000000000000000 000000000000000000000000000000000000000     00000000                                                                                                                        000000000000000000
F0010000008690600003000089010260300042505000000000000000000201606070002001FEDERICO OSORIO A. S.A.                           C000000011114400000000000000000000100010010000000000000000000000F0010000008690600320160607000101 00000000000000000000000000000000000000000000000000000000000000000000000000000000000000000000000000000000000000000N 00000000000NCONT   00    00000000000          00000000000000000000000000000000000000000000 000000000000000A000000000000000000000000000000000000000000000 000000000000000000000000000000000000000     00000000                                                                                                                        000000000000000000
F0010000008690600004000089010260300023658300000000000000000201606070002001FEDERICO OSORIO A. S.A.                           C000000001669400000000000000000000100010010000000000000000000000F0010000008690600420160607000101 00000000000000000000000000000000000000000000000000000000000000000000000000000000000000000000000000000000000000000N 00000000000NCONT   00    00000000000          00000000000000000000000000000000000000000000 000000000000000A000000000000000000000000000000000000000000000 000000000000000000000000000000000000000     00000000                                                                                                                        000000000000000000
F0010000008690600005000089010260300013552100000000000000000201606070002001FEDERICO OSORIO A. S.A.                           D000000001669400000000000000000000100010010000000000000000000000F0010000008690600520160607000101 00000000000000000000000000000000000000000000000000000000000000000000000000000000000000000000000000000000000000000N 00000000000NCONT   00    00000000000          00000000000000000000000000000000000000000000 000000000000000A000000000000000000000000000000000000000000000 000000000000000000000000000000000000000     00000000                                                                                                                        000000000000000000
F0010000008690700001000089011033000011050500000000000000000201606070002001INDUSTRIAS CRUZ & CAÑON LTDA                     D000000005000000000000000000000000100010010000000000000000000000F0010000008690700120160607000101 00000000000000000000000000000000000000000000000000000000000000000000000000000000000000000000000000000000000000000N 00000000000NCONT   00    00000000000          00000000000000000000000000000000000000000000 000000000000000A000000000000000000000000000000000000000000000 000000000000000000000000000000000000000     00000000                                                                                                                        000000000000000000
F0010000008690700002000089011033000041450500000000000000000201606070002001INDUSTRIAS CRUZ & CAÑON LTDA                     C000000004600000000000000000000000100010010000000000000000000000F0010000008690700220160607000101 00000000000000000000000000000000000000000000000000000000000000000000000000000000000000000000000000000000000000000N 00000000000NCONT   00    00000000000          00000000000000000000000000000000000000000000 000000000000000A000000000000000000000000000000000000000000000 000000000000000000000000000000000000000     00000000                                                                                                                        000000000000000000
F0010000008690700003000089011033000042505000000000000000000201606070002001INDUSTRIAS CRUZ & CAÑON LTDA                     C000000000400000000000000000000000100010010000000000000000000000F0010000008690700320160607000101 00000000000000000000000000000000000000000000000000000000000000000000000000000000000000000000000000000000000000000N 00000000000NCONT   00    00000000000          00000000000000000000000000000000000000000000 000000000000000A000000000000000000000000000000000000000000000 000000000000000000000000000000000000000     00000000                                                                                                                        000000000000000000
F0010000008690700004000089011033000023658300000000000000000201606070002001INDUSTRIAS CRUZ & CAÑON LTDA                     C000000000036800000000000000000000100010010000000000000000000000F0010000008690700420160607000101 00000000000000000000000000000000000000000000000000000000000000000000000000000000000000000000000000000000000000000N 00000000000NCONT   00    00000000000          00000000000000000000000000000000000000000000 000000000000000A000000000000000000000000000000000000000000000 000000000000000000000000000000000000000     00000000                                                                                                                        000000000000000000
F0010000008690700005000089011033000013552100000000000000000201606070002001INDUSTRIAS CRUZ & CAÑON LTDA                     D000000000036800000000000000000000100010010000000000000000000000F0010000008690700520160607000101 00000000000000000000000000000000000000000000000000000000000000000000000000000000000000000000000000000000000000000N 00000000000NCONT   00    00000000000          00000000000000000000000000000000000000000000 000000000000000A000000000000000000000000000000000000000000000 000000000000000000000000000000000000000     00000000                                                                                                                        000000000000000000
F0010000008690800001000089011033000011050500000000000000000201606070002001INDUSTRIAS CRUZ & CAÑON LTDA                     D000000002000000000000000000000000100010010000000000000000000000F0010000008690800120160607000101 00000000000000000000000000000000000000000000000000000000000000000000000000000000000000000000000000000000000000000N 00000000000NCONT   00    00000000000          00000000000000000000000000000000000000000000 000000000000000A000000000000000000000000000000000000000000000 000000000000000000000000000000000000000     00000000                                                                                                                        000000000000000000
F0010000008690800002000089011033000041450500000000000000000201606070002001INDUSTRIAS CRUZ & CAÑON LTDA                     C000000001900000000000000000000000100010010000000000000000000000F0010000008690800220160607000101 00000000000000000000000000000000000000000000000000000000000000000000000000000000000000000000000000000000000000000N 00000000000NCONT   00    00000000000          00000000000000000000000000000000000000000000 000000000000000A000000000000000000000000000000000000000000000 000000000000000000000000000000000000000     00000000                                                                                                                        000000000000000000
F0010000008690800003000089011033000042505000000000000000000201606070002001INDUSTRIAS CRUZ & CAÑON LTDA                     C000000000100000000000000000000000100010010000000000000000000000F0010000008690800320160607000101 00000000000000000000000000000000000000000000000000000000000000000000000000000000000000000000000000000000000000000N 00000000000NCONT   00    00000000000          00000000000000000000000000000000000000000000 000000000000000A000000000000000000000000000000000000000000000 000000000000000000000000000000000000000     00000000                                                                                                                        000000000000000000
F0010000008690800004000089011033000023658300000000000000000201606070002001INDUSTRIAS CRUZ & CAÑON LTDA                     C000000000015200000000000000000000100010010000000000000000000000F0010000008690800420160607000101 00000000000000000000000000000000000000000000000000000000000000000000000000000000000000000000000000000000000000000N 00000000000NCONT   00    00000000000          00000000000000000000000000000000000000000000 000000000000000A000000000000000000000000000000000000000000000 000000000000000000000000000000000000000     00000000                                                                                                                        000000000000000000
F0010000008690800005000089011033000013552100000000000000000201606070002001INDUSTRIAS CRUZ & CAÑON LTDA                     D000000000015200000000000000000000100010010000000000000000000000F0010000008690800520160607000101 00000000000000000000000000000000000000000000000000000000000000000000000000000000000000000000000000000000000000000N 00000000000NCONT   00    00000000000          00000000000000000000000000000000000000000000 000000000000000A000000000000000000000000000000000000000000000 000000000000000000000000000000000000000     00000000                                                                                                                        000000000000000000
F0010000008690900001000089010260300013050500000000000000000201606070002001FEDERICO OSORIO A. S.A.                           D000000022267100000000000000000000100010010000000000000000000000F0010000008690900120160607000101 00000000000000000000000000000000000000000000000000000000000000000000000000000000000000000000000000000000000000000N 00000000000NCONT   00    00000000000          00000000000000000000000000000000000000000000 000000000000000A000000000000000000000000000000000000000000000 000000000000000000000000000000000000000     00000000                                                                                                                        000000000000000000
F0010000008690900002000089010260300041450500000000000000000201606070002001FEDERICO OSORIO A. S.A.                           C000000021360000000000000000000000100010010000000000000000000000F0010000008690900220160607000101 00000000000000000000000000000000000000000000000000000000000000000000000000000000000000000000000000000000000000000N 00000000000NCONT   00    00000000000          00000000000000000000000000000000000000000000 000000000000000A000000000000000000000000000000000000000000000 000000000000000000000000000000000000000     00000000                                                                                                                        000000000000000000
F0010000008690900003000089010260300042505000000000000000000201606070002001FEDERICO OSORIO A. S.A.                           C000000000907100000000000000000000100010010000000000000000000000F0010000008690900320160607000101 00000000000000000000000000000000000000000000000000000000000000000000000000000000000000000000000000000000000000000N 00000000000NCONT   00    00000000000          00000000000000000000000000000000000000000000 000000000000000A000000000000000000000000000000000000000000000 000000000000000000000000000000000000000     00000000                                                                                                                        000000000000000000
F0010000008690900004000089010260300023658300000000000000000201606070002001FEDERICO OSORIO A. S.A.                           C000000000170900000000000000000000100010010000000000000000000000F0010000008690900420160607000101 00000000000000000000000000000000000000000000000000000000000000000000000000000000000000000000000000000000000000000N 00000000000NCONT   00    00000000000          00000000000000000000000000000000000000000000 000000000000000A000000000000000000000000000000000000000000000 000000000000000000000000000000000000000     00000000                                                                                                                        000000000000000000
F0010000008690900005000089010260300013552100000000000000000201606070002001FEDERICO OSORIO A. S.A.                           D000000000170900000000000000000000100010010000000000000000000000F0010000008690900520160607000101 00000000000000000000000000000000000000000000000000000000000000000000000000000000000000000000000000000000000000000N 00000000000NCONT   00    00000000000          00000000000000000000000000000000000000000000 000000000000000A000000000000000000000000000000000000000000000 000000000000000000000000000000000000000     00000000                                                                                                                        000000000000000000
F0010000008691000001000000868846900011050500000000000000000201606070002001NICOLAS DE LA HOZ SAUCEDO                         D000000001400000000000000000000000100010010000000000000000000000F0010000008691000120160607000101 00000000000000000000000000000000000000000000000000000000000000000000000000000000000000000000000000000000000000000N 00000000000NCONT   00    00000000000          00000000000000000000000000000000000000000000 000000000000000A000000000000000000000000000000000000000000000 000000000000000000000000000000000000000     00000000                                                                                                                        000000000000000000
F0010000008691000002000000868846900041450500000000000000000201606070002001NICOLAS DE LA HOZ SAUCEDO                         C000000001000000000000000000000000100010010000000000000000000000F0010000008691000220160607000101 00000000000000000000000000000000000000000000000000000000000000000000000000000000000000000000000000000000000000000N 00000000000NCONT   00    00000000000          00000000000000000000000000000000000000000000 000000000000000A000000000000000000000000000000000000000000000 000000000000000000000000000000000000000     00000000                                                                                                                        000000000000000000
F0010000008691000003000000868846900042505000000000000000000201606070002001NICOLAS DE LA HOZ SAUCEDO                         C000000000400000000000000000000000100010010000000000000000000000F0010000008691000320160607000101 00000000000000000000000000000000000000000000000000000000000000000000000000000000000000000000000000000000000000000N 00000000000NCONT   00    00000000000          00000000000000000000000000000000000000000000 000000000000000A000000000000000000000000000000000000000000000 000000000000000000000000000000000000000     00000000                                                                                                                        000000000000000000
F0010000008691000004000000868846900023658300000000000000000201606070002001NICOLAS DE LA HOZ SAUCEDO                         C000000000008000000000000000000000100010010000000000000000000000F0010000008691000420160607000101 00000000000000000000000000000000000000000000000000000000000000000000000000000000000000000000000000000000000000000N 00000000000NCONT   00    00000000000          00000000000000000000000000000000000000000000 000000000000000A000000000000000000000000000000000000000000000 000000000000000000000000000000000000000     00000000                                                                                                                        000000000000000000
F0010000008691000005000000868846900013552100000000000000000201606070002001NICOLAS DE LA HOZ SAUCEDO                         D000000000008000000000000000000000100010010000000000000000000000F0010000008691000520160607000101 00000000000000000000000000000000000000000000000000000000000000000000000000000000000000000000000000000000000000000N 00000000000NCONT   00    00000000000          00000000000000000000000000000000000000000000 000000000000000A000000000000000000000000000000000000000000000 000000000000000000000000000000000000000     00000000                                                                                                                        000000000000000000
F0010000008691100001000080201112800013050500000000000000000201606070002001CANGURO INTERNATIONAL S.A.                        D000000157017000000000000000000000100010010000000000000000000000F0010000008691100120160607000101 00000000000000000000000000000000000000000000000000000000000000000000000000000000000000000000000000000000000000000N 00000000000NCONT   00    00000000000          00000000000000000000000000000000000000000000 000000000000000A000000000000000000000000000000000000000000000 000000000000000000000000000000000000000     00000000                                                                                                                        000000000000000000
F0010000008691100002000080201112800041450500000000000000000201606070002001CANGURO INTERNATIONAL S.A.                        C000000157017000000000000000000000100010010000000000000000000000F0010000008691100220160607000101 00000000000000000000000000000000000000000000000000000000000000000000000000000000000000000000000000000000000000000N 00000000000NCONT   00    00000000000          00000000000000000000000000000000000000000000 000000000000000A000000000000000000000000000000000000000000000 000000000000000000000000000000000000000     00000000                                                                                                                        000000000000000000
F0010000008691100003000080201112800042505000000000000000000201606070002001CANGURO INTERNATIONAL S.A.                        C000000000000000000000000000000000100010010000000000000000000000F0010000008691100320160607000101 00000000000000000000000000000000000000000000000000000000000000000000000000000000000000000000000000000000000000000N 00000000000NCONT   00    00000000000          00000000000000000000000000000000000000000000 000000000000000A000000000000000000000000000000000000000000000 000000000000000000000000000000000000000     00000000                                                                                                                        000000000000000000
F0010000008691100004000080201112800023658300000000000000000201606070002001CANGURO INTERNATIONAL S.A.                        C000000001256100000000000000000000100010010000000000000000000000F0010000008691100420160607000101 00000000000000000000000000000000000000000000000000000000000000000000000000000000000000000000000000000000000000000N 00000000000NCONT   00    00000000000          00000000000000000000000000000000000000000000 000000000000000A000000000000000000000000000000000000000000000 000000000000000000000000000000000000000     00000000                                                                                                                        000000000000000000
F0010000008691100005000080201112800013552100000000000000000201606070002001CANGURO INTERNATIONAL S.A.                        D000000001256100000000000000000000100010010000000000000000000000F0010000008691100520160607000101 00000000000000000000000000000000000000000000000000000000000000000000000000000000000000000000000000000000000000000N 00000000000NCONT   00    00000000000          00000000000000000000000000000000000000000000 000000000000000A000000000000000000000000000000000000000000000 000000000000000000000000000000000000000     00000000                                                                                                                        000000000000000000
F0010000008691200001000080201112800013050500000000000000000201606070002001CANGURO INTERNATIONAL S.A.                        D000000021270800000000000000000000100010010000000000000000000000F0010000008691200120160607000101 00000000000000000000000000000000000000000000000000000000000000000000000000000000000000000000000000000000000000000N 00000000000NCONT   00    00000000000          00000000000000000000000000000000000000000000 000000000000000A000000000000000000000000000000000000000000000 000000000000000000000000000000000000000     00000000                                                                                                                        000000000000000000
F0010000008691200002000080201112800041450500000000000000000201606070002001CANGURO INTERNATIONAL S.A.                        C000000021270800000000000000000000100010010000000000000000000000F0010000008691200220160607000101 00000000000000000000000000000000000000000000000000000000000000000000000000000000000000000000000000000000000000000N 00000000000NCONT   00    00000000000          00000000000000000000000000000000000000000000 000000000000000A000000000000000000000000000000000000000000000 000000000000000000000000000000000000000     00000000                                                                                                                        000000000000000000
F0010000008691200003000080201112800042505000000000000000000201606070002001CANGURO INTERNATIONAL S.A.                        C000000000000000000000000000000000100010010000000000000000000000F0010000008691200320160607000101 00000000000000000000000000000000000000000000000000000000000000000000000000000000000000000000000000000000000000000N 00000000000NCONT   00    00000000000          00000000000000000000000000000000000000000000 000000000000000A000000000000000000000000000000000000000000000 000000000000000000000000000000000000000     00000000                                                                                                                        000000000000000000
F0010000008691200004000080201112800023658300000000000000000201606070002001CANGURO INTERNATIONAL S.A.                        C000000000170200000000000000000000100010010000000000000000000000F0010000008691200420160607000101 00000000000000000000000000000000000000000000000000000000000000000000000000000000000000000000000000000000000000000N 00000000000NCONT   00    00000000000          00000000000000000000000000000000000000000000 000000000000000A000000000000000000000000000000000000000000000 000000000000000000000000000000000000000     00000000                                                                                                                        000000000000000000
F0010000008691200005000080201112800013552100000000000000000201606070002001CANGURO INTERNATIONAL S.A.                        D000000000170200000000000000000000100010010000000000000000000000F0010000008691200520160607000101 00000000000000000000000000000000000000000000000000000000000000000000000000000000000000000000000000000000000000000N 00000000000NCONT   00    00000000000          00000000000000000000000000000000000000000000 000000000000000A000000000000000000000000000000000000000000000 000000000000000000000000000000000000000     00000000                                                                                                                        000000000000000000
F0010000008691300001000000460251100011050500000000000000000201606070002001JORGE GONZALEZ                                    D000000001300000000000000000000000100010010000000000000000000000F0010000008691300120160607000101 00000000000000000000000000000000000000000000000000000000000000000000000000000000000000000000000000000000000000000N 00000000000NCONT   00    00000000000          00000000000000000000000000000000000000000000 000000000000000A000000000000000000000000000000000000000000000 000000000000000000000000000000000000000     00000000                                                                                                                        000000000000000000
F0010000008691300002000000460251100041450500000000000000000201606070002001JORGE GONZALEZ                                    C000000001000000000000000000000000100010010000000000000000000000F0010000008691300220160607000101 00000000000000000000000000000000000000000000000000000000000000000000000000000000000000000000000000000000000000000N 00000000000NCONT   00    00000000000          00000000000000000000000000000000000000000000 000000000000000A000000000000000000000000000000000000000000000 000000000000000000000000000000000000000     00000000                                                                                                                        000000000000000000
F0010000008691300003000000460251100042505000000000000000000201606070002001JORGE GONZALEZ                                    C000000000300000000000000000000000100010010000000000000000000000F0010000008691300320160607000101 00000000000000000000000000000000000000000000000000000000000000000000000000000000000000000000000000000000000000000N 00000000000NCONT   00    00000000000          00000000000000000000000000000000000000000000 000000000000000A000000000000000000000000000000000000000000000 000000000000000000000000000000000000000     00000000                                                                                                                        000000000000000000
F0010000008691300004000000460251100023658300000000000000000201606070002001JORGE GONZALEZ                                    C000000000008000000000000000000000100010010000000000000000000000F0010000008691300420160607000101 00000000000000000000000000000000000000000000000000000000000000000000000000000000000000000000000000000000000000000N 00000000000NCONT   00    00000000000          00000000000000000000000000000000000000000000 000000000000000A000000000000000000000000000000000000000000000 000000000000000000000000000000000000000     00000000                                                                                                                        000000000000000000
F0010000008691300005000000460251100013552100000000000000000201606070002001JORGE GONZALEZ                                    D000000000008000000000000000000000100010010000000000000000000000F0010000008691300520160607000101 00000000000000000000000000000000000000000000000000000000000000000000000000000000000000000000000000000000000000000N 00000000000NCONT   00    00000000000          00000000000000000000000000000000000000000000 000000000000000A000000000000000000000000000000000000000000000 000000000000000000000000000000000000000     00000000                                                                                                                        000000000000000000
F0010000008691400001000080201411900011050500000000000000000201606070002001PLASTISERVICIOS S DE H                            D000000002500000000000000000000000100010010000000000000000000000F0010000008691400120160607000101 00000000000000000000000000000000000000000000000000000000000000000000000000000000000000000000000000000000000000000N 00000000000NCONT   00    00000000000          00000000000000000000000000000000000000000000 000000000000000A000000000000000000000000000000000000000000000 000000000000000000000000000000000000000     00000000                                                                                                                        000000000000000000
F0010000008691400002000080201411900041450500000000000000000201606070002001PLASTISERVICIOS S DE H                            C000000001900000000000000000000000100010010000000000000000000000F0010000008691400220160607000101 00000000000000000000000000000000000000000000000000000000000000000000000000000000000000000000000000000000000000000N 00000000000NCONT   00    00000000000          00000000000000000000000000000000000000000000 000000000000000A000000000000000000000000000000000000000000000 000000000000000000000000000000000000000     00000000                                                                                                                        000000000000000000
F0010000008691400003000080201411900042505000000000000000000201606070002001PLASTISERVICIOS S DE H                            C000000000600000000000000000000000100010010000000000000000000000F0010000008691400320160607000101 00000000000000000000000000000000000000000000000000000000000000000000000000000000000000000000000000000000000000000N 00000000000NCONT   00    00000000000          00000000000000000000000000000000000000000000 000000000000000A000000000000000000000000000000000000000000000 000000000000000000000000000000000000000     00000000                                                                                                                        000000000000000000
F0010000008691400004000080201411900023658300000000000000000201606070002001PLASTISERVICIOS S DE H                            C000000000015200000000000000000000100010010000000000000000000000F0010000008691400420160607000101 00000000000000000000000000000000000000000000000000000000000000000000000000000000000000000000000000000000000000000N 00000000000NCONT   00    00000000000          00000000000000000000000000000000000000000000 000000000000000A000000000000000000000000000000000000000000000 000000000000000000000000000000000000000     00000000                                                                                                                        000000000000000000
F0010000008691400005000080201411900013552100000000000000000201606070002001PLASTISERVICIOS S DE H                            D000000000015200000000000000000000100010010000000000000000000000F0010000008691400520160607000101 00000000000000000000000000000000000000000000000000000000000000000000000000000000000000000000000000000000000000000N 00000000000NCONT   00    00000000000          00000000000000000000000000000000000000000000 000000000000000A000000000000000000000000000000000000000000000 000000000000000000000000000000000000000     00000000                                                                                                                        000000000000000000
F0010000008691500001000080201411900011050500000000000000000201606070002001PLASTISERVICIOS S DE H                            D000000002000000000000000000000000100010010000000000000000000000F0010000008691500120160607000101 00000000000000000000000000000000000000000000000000000000000000000000000000000000000000000000000000000000000000000N 00000000000NCONT   00    00000000000          00000000000000000000000000000000000000000000 000000000000000A000000000000000000000000000000000000000000000 000000000000000000000000000000000000000     00000000                                                                                                                        000000000000000000
F0010000008691500002000080201411900041450500000000000000000201606070002001PLASTISERVICIOS S DE H                            C000000001900000000000000000000000100010010000000000000000000000F0010000008691500220160607000101 00000000000000000000000000000000000000000000000000000000000000000000000000000000000000000000000000000000000000000N 00000000000NCONT   00    00000000000          00000000000000000000000000000000000000000000 000000000000000A000000000000000000000000000000000000000000000 000000000000000000000000000000000000000     00000000                                                                                                                        000000000000000000
F0010000008691500003000080201411900042505000000000000000000201606070002001PLASTISERVICIOS S DE H                            C000000000100000000000000000000000100010010000000000000000000000F0010000008691500320160607000101 00000000000000000000000000000000000000000000000000000000000000000000000000000000000000000000000000000000000000000N 00000000000NCONT   00    00000000000          00000000000000000000000000000000000000000000 000000000000000A000000000000000000000000000000000000000000000 000000000000000000000000000000000000000     00000000                                                                                                                        000000000000000000
F0010000008691500004000080201411900023658300000000000000000201606070002001PLASTISERVICIOS S DE H                            C000000000015200000000000000000000100010010000000000000000000000F0010000008691500420160607000101 00000000000000000000000000000000000000000000000000000000000000000000000000000000000000000000000000000000000000000N 00000000000NCONT   00    00000000000          00000000000000000000000000000000000000000000 000000000000000A000000000000000000000000000000000000000000000 000000000000000000000000000000000000000     00000000                                                                                                                        000000000000000000
F0010000008691500005000080201411900013552100000000000000000201606070002001PLASTISERVICIOS S DE H                            D000000000015200000000000000000000100010010000000000000000000000F0010000008691500520160607000101 00000000000000000000000000000000000000000000000000000000000000000000000000000000000000000000000000000000000000000N 00000000000NCONT   00    00000000000          00000000000000000000000000000000000000000000 000000000000000A000000000000000000000000000000000000000000000 000000000000000000000000000000000000000     00000000                                                                                                                        000000000000000000
F0010000008691600001000000870907300011050500000000000000000201606070002001SURTIDOR FERRETERO                                D000000003480000000000000000000000100010010000000000000000000000F0010000008691600120160607000101 00000000000000000000000000000000000000000000000000000000000000000000000000000000000000000000000000000000000000000N 00000000000NCONT   00    00000000000          00000000000000000000000000000000000000000000 000000000000000A000000000000000000000000000000000000000000000 000000000000000000000000000000000000000     00000000                                                                                                                        000000000000000000
F0010000008691600002000000870907300041450500000000000000000201606070002001SURTIDOR FERRETERO                                C000000001680000000000000000000000100010010000000000000000000000F0010000008691600220160607000101 00000000000000000000000000000000000000000000000000000000000000000000000000000000000000000000000000000000000000000N 00000000000NCONT   00    00000000000          00000000000000000000000000000000000000000000 000000000000000A000000000000000000000000000000000000000000000 000000000000000000000000000000000000000     00000000                                                                                                                        000000000000000000
F0010000008691600003000000870907300042505000000000000000000201606070002001SURTIDOR FERRETERO                                C000000001800000000000000000000000100010010000000000000000000000F0010000008691600320160607000101 00000000000000000000000000000000000000000000000000000000000000000000000000000000000000000000000000000000000000000N 00000000000NCONT   00    00000000000          00000000000000000000000000000000000000000000 000000000000000A000000000000000000000000000000000000000000000 000000000000000000000000000000000000000     00000000                                                                                                                        000000000000000000
F0010000008691600004000000870907300023658300000000000000000201606070002001SURTIDOR FERRETERO                                C000000000013400000000000000000000100010010000000000000000000000F0010000008691600420160607000101 00000000000000000000000000000000000000000000000000000000000000000000000000000000000000000000000000000000000000000N 00000000000NCONT   00    00000000000          00000000000000000000000000000000000000000000 000000000000000A000000000000000000000000000000000000000000000 000000000000000000000000000000000000000     00000000                                                                                                                        000000000000000000
F0010000008691600005000000870907300013552100000000000000000201606070002001SURTIDOR FERRETERO                                D000000000013400000000000000000000100010010000000000000000000000F0010000008691600520160607000101 00000000000000000000000000000000000000000000000000000000000000000000000000000000000000000000000000000000000000000N 00000000000NCONT   00    00000000000          00000000000000000000000000000000000000000000 000000000000000A000000000000000000000000000000000000000000000 000000000000000000000000000000000000000     00000000                                                                                                                        000000000000000000
F0010000008691700001000080001063400011050500000000000000000201606070002001PRODUCTOS JULIAO SAS                              D000000003000000000000000000000000100010010000000000000000000000F0010000008691700120160607000101 00000000000000000000000000000000000000000000000000000000000000000000000000000000000000000000000000000000000000000N 00000000000NCONT   00    00000000000          00000000000000000000000000000000000000000000 000000000000000A000000000000000000000000000000000000000000000 000000000000000000000000000000000000000     00000000                                                                                                                        000000000000000000
F0010000008691700002000080001063400041450500000000000000000201606070002001PRODUCTOS JULIAO SAS                              C000000002700000000000000000000000100010010000000000000000000000F0010000008691700220160607000101 00000000000000000000000000000000000000000000000000000000000000000000000000000000000000000000000000000000000000000N 00000000000NCONT   00    00000000000          00000000000000000000000000000000000000000000 000000000000000A000000000000000000000000000000000000000000000 000000000000000000000000000000000000000     00000000                                                                                                                        000000000000000000
F0010000008691700003000080001063400042505000000000000000000201606070002001PRODUCTOS JULIAO SAS                              C000000000300000000000000000000000100010010000000000000000000000F0010000008691700320160607000101 00000000000000000000000000000000000000000000000000000000000000000000000000000000000000000000000000000000000000000N 00000000000NCONT   00    00000000000          00000000000000000000000000000000000000000000 000000000000000A000000000000000000000000000000000000000000000 000000000000000000000000000000000000000     00000000                                                                                                                        000000000000000000
F0010000008691700004000080001063400023658300000000000000000201606070002001PRODUCTOS JULIAO SAS                              C000000000021600000000000000000000100010010000000000000000000000F0010000008691700420160607000101 00000000000000000000000000000000000000000000000000000000000000000000000000000000000000000000000000000000000000000N 00000000000NCONT   00    00000000000          00000000000000000000000000000000000000000000 000000000000000A000000000000000000000000000000000000000000000 000000000000000000000000000000000000000     00000000                                                                                                                        000000000000000000
F0010000008691700005000080001063400013552100000000000000000201606070002001PRODUCTOS JULIAO SAS                              D000000000021600000000000000000000100010010000000000000000000000F0010000008691700520160607000101 00000000000000000000000000000000000000000000000000000000000000000000000000000000000000000000000000000000000000000N 00000000000NCONT   00    00000000000          00000000000000000000000000000000000000000000 000000000000000A000000000000000000000000000000000000000000000 000000000000000000000000000000000000000     00000000                                                                                                                        000000000000000000
F0010000008691800001000080202350700011050500000000000000000201606070002001CONNY DE LA COSTA SAS                             D000000000900000000000000000000000100010010000000000000000000000F0010000008691800120160607000101 00000000000000000000000000000000000000000000000000000000000000000000000000000000000000000000000000000000000000000N 00000000000NCONT   00    00000000000          00000000000000000000000000000000000000000000 000000000000000A000000000000000000000000000000000000000000000 000000000000000000000000000000000000000     00000000                                                                                                                        000000000000000000
F0010000008691800002000080202350700041450500000000000000000201606070002001CONNY DE LA COSTA SAS                             C000000000850000000000000000000000100010010000000000000000000000F0010000008691800220160607000101 00000000000000000000000000000000000000000000000000000000000000000000000000000000000000000000000000000000000000000N 00000000000NCONT   00    00000000000          00000000000000000000000000000000000000000000 000000000000000A000000000000000000000000000000000000000000000 000000000000000000000000000000000000000     00000000                                                                                                                        000000000000000000
F0010000008691800003000080202350700042505000000000000000000201606070002001CONNY DE LA COSTA SAS                             C000000000050000000000000000000000100010010000000000000000000000F0010000008691800320160607000101 00000000000000000000000000000000000000000000000000000000000000000000000000000000000000000000000000000000000000000N 00000000000NCONT   00    00000000000          00000000000000000000000000000000000000000000 000000000000000A000000000000000000000000000000000000000000000 000000000000000000000000000000000000000     00000000                                                                                                                        000000000000000000
F0010000008691800004000080202350700023658300000000000000000201606070002001CONNY DE LA COSTA SAS                             C000000000006800000000000000000000100010010000000000000000000000F0010000008691800420160607000101 00000000000000000000000000000000000000000000000000000000000000000000000000000000000000000000000000000000000000000N 00000000000NCONT   00    00000000000          00000000000000000000000000000000000000000000 000000000000000A000000000000000000000000000000000000000000000 000000000000000000000000000000000000000     00000000                                                                                                                        000000000000000000
F0010000008691800005000080202350700013552100000000000000000201606070002001CONNY DE LA COSTA SAS                             D000000000006800000000000000000000100010010000000000000000000000F0010000008691800520160607000101 00000000000000000000000000000000000000000000000000000000000000000000000000000000000000000000000000000000000000000N 00000000000NCONT   00    00000000000          00000000000000000000000000000000000000000000 000000000000000A000000000000000000000000000000000000000000000 000000000000000000000000000000000000000     00000000                                                                                                                        000000000000000000
F0010000008691900001000090038852800011050500000000000000000201606070002001EL COMERCIO ELECTRICO DE LA CO                    D000000001170000000000000000000000100010010000000000000000000000F0010000008691900120160607000101 00000000000000000000000000000000000000000000000000000000000000000000000000000000000000000000000000000000000000000N 00000000000NCONT   00    00000000000          00000000000000000000000000000000000000000000 000000000000000A000000000000000000000000000000000000000000000 000000000000000000000000000000000000000     00000000                                                                                                                        000000000000000000
F0010000008691900002000090038852800041450500000000000000000201606070002001EL COMERCIO ELECTRICO DE LA CO                    C000000000970000000000000000000000100010010000000000000000000000F0010000008691900220160607000101 00000000000000000000000000000000000000000000000000000000000000000000000000000000000000000000000000000000000000000N 00000000000NCONT   00    00000000000          00000000000000000000000000000000000000000000 000000000000000A000000000000000000000000000000000000000000000 000000000000000000000000000000000000000     00000000                                                                                                                        000000000000000000
F0010000008691900003000090038852800042505000000000000000000201606070002001EL COMERCIO ELECTRICO DE LA CO                    C000000000200000000000000000000000100010010000000000000000000000F0010000008691900320160607000101 00000000000000000000000000000000000000000000000000000000000000000000000000000000000000000000000000000000000000000N 00000000000NCONT   00    00000000000          00000000000000000000000000000000000000000000 000000000000000A000000000000000000000000000000000000000000000 000000000000000000000000000000000000000     00000000                                                                                                                        000000000000000000
F0010000008691900004000090038852800023658300000000000000000201606070002001EL COMERCIO ELECTRICO DE LA CO                    C000000000007800000000000000000000100010010000000000000000000000F0010000008691900420160607000101 00000000000000000000000000000000000000000000000000000000000000000000000000000000000000000000000000000000000000000N 00000000000NCONT   00    00000000000          00000000000000000000000000000000000000000000 000000000000000A000000000000000000000000000000000000000000000 000000000000000000000000000000000000000     00000000                                                                                                                        000000000000000000
F0010000008691900005000090038852800013552100000000000000000201606070002001EL COMERCIO ELECTRICO DE LA CO                    D000000000007800000000000000000000100010010000000000000000000000F0010000008691900520160607000101 00000000000000000000000000000000000000000000000000000000000000000000000000000000000000000000000000000000000000000N 00000000000NCONT   00    00000000000          00000000000000000000000000000000000000000000 000000000000000A000000000000000000000000000000000000000000000 000000000000000000000000000000000000000     00000000                                                                                                                        000000000000000000
