F0010000008616200001000080201112800013050500000000000000000201605170002001CANGURO INTERNATIONAL S.A.                        D000000098863700000000000000000000100010010000000000000000000000F0010000008616200120160517000101 00000000000000000000000000000000000000000000000000000000000000000000000000000000000000000000000000000000000000000N 00000000000NCONT   00    00000000000          00000000000000000000000000000000000000000000 000000000000000A000000000000000000000000000000000000000000000 000000000000000000000000000000000000000     00000000                                                                                                                        000000000000000000
F0010000008616200002000080201112800041450500000000000000000201605170002001CANGURO INTERNATIONAL S.A.                        C000000098863700000000000000000000100010010000000000000000000000F0010000008616200220160517000101 00000000000000000000000000000000000000000000000000000000000000000000000000000000000000000000000000000000000000000N 00000000000NCONT   00    00000000000          00000000000000000000000000000000000000000000 000000000000000A000000000000000000000000000000000000000000000 000000000000000000000000000000000000000     00000000                                                                                                                        000000000000000000
F0010000008616200003000080201112800042505000000000000000000201605170002001CANGURO INTERNATIONAL S.A.                        C000000000000000000000000000000000100010010000000000000000000000F0010000008616200320160517000101 00000000000000000000000000000000000000000000000000000000000000000000000000000000000000000000000000000000000000000N 00000000000NCONT   00    00000000000          00000000000000000000000000000000000000000000 000000000000000A000000000000000000000000000000000000000000000 000000000000000000000000000000000000000     00000000                                                                                                                        000000000000000000
F0010000008616200004000080201112800023658300000000000000000201605170002001CANGURO INTERNATIONAL S.A.                        C000000000790900000000000000000000100010010000000000000000000000F0010000008616200420160517000101 00000000000000000000000000000000000000000000000000000000000000000000000000000000000000000000000000000000000000000N 00000000000NCONT   00    00000000000          00000000000000000000000000000000000000000000 000000000000000A000000000000000000000000000000000000000000000 000000000000000000000000000000000000000     00000000                                                                                                                        000000000000000000
F0010000008616200005000080201112800013552100000000000000000201605170002001CANGURO INTERNATIONAL S.A.                        D000000000790900000000000000000000100010010000000000000000000000F0010000008616200520160517000101 00000000000000000000000000000000000000000000000000000000000000000000000000000000000000000000000000000000000000000N 00000000000NCONT   00    00000000000          00000000000000000000000000000000000000000000 000000000000000A000000000000000000000000000000000000000000000 000000000000000000000000000000000000000     00000000                                                                                                                        000000000000000000
F0010000008616300001000080201112800013050500000000000000000201605170002001CANGURO INTERNATIONAL S.A.                        D000000299730900000000000000000000100010010000000000000000000000F0010000008616300120160517000101 00000000000000000000000000000000000000000000000000000000000000000000000000000000000000000000000000000000000000000N 00000000000NCONT   00    00000000000          00000000000000000000000000000000000000000000 000000000000000A000000000000000000000000000000000000000000000 000000000000000000000000000000000000000     00000000                                                                                                                        000000000000000000
F0010000008616300002000080201112800041450500000000000000000201605170002001CANGURO INTERNATIONAL S.A.                        C000000299730900000000000000000000100010010000000000000000000000F0010000008616300220160517000101 00000000000000000000000000000000000000000000000000000000000000000000000000000000000000000000000000000000000000000N 00000000000NCONT   00    00000000000          00000000000000000000000000000000000000000000 000000000000000A000000000000000000000000000000000000000000000 000000000000000000000000000000000000000     00000000                                                                                                                        000000000000000000
F0010000008616300003000080201112800042505000000000000000000201605170002001CANGURO INTERNATIONAL S.A.                        C000000000000000000000000000000000100010010000000000000000000000F0010000008616300320160517000101 00000000000000000000000000000000000000000000000000000000000000000000000000000000000000000000000000000000000000000N 00000000000NCONT   00    00000000000          00000000000000000000000000000000000000000000 000000000000000A000000000000000000000000000000000000000000000 000000000000000000000000000000000000000     00000000                                                                                                                        000000000000000000
F0010000008616300004000080201112800023658300000000000000000201605170002001CANGURO INTERNATIONAL S.A.                        C000000002397800000000000000000000100010010000000000000000000000F0010000008616300420160517000101 00000000000000000000000000000000000000000000000000000000000000000000000000000000000000000000000000000000000000000N 00000000000NCONT   00    00000000000          00000000000000000000000000000000000000000000 000000000000000A000000000000000000000000000000000000000000000 000000000000000000000000000000000000000     00000000                                                                                                                        000000000000000000
F0010000008616300005000080201112800013552100000000000000000201605170002001CANGURO INTERNATIONAL S.A.                        D000000002397800000000000000000000100010010000000000000000000000F0010000008616300520160517000101 00000000000000000000000000000000000000000000000000000000000000000000000000000000000000000000000000000000000000000N 00000000000NCONT   00    00000000000          00000000000000000000000000000000000000000000 000000000000000A000000000000000000000000000000000000000000000 000000000000000000000000000000000000000     00000000                                                                                                                        000000000000000000
F0010000008616400001000080201112800013050500000000000000000201605170002001CANGURO INTERNATIONAL S.A.                        D000000035856400000000000000000000100010010000000000000000000000F0010000008616400120160517000101 00000000000000000000000000000000000000000000000000000000000000000000000000000000000000000000000000000000000000000N 00000000000NCONT   00    00000000000          00000000000000000000000000000000000000000000 000000000000000A000000000000000000000000000000000000000000000 000000000000000000000000000000000000000     00000000                                                                                                                        000000000000000000
F0010000008616400002000080201112800041450500000000000000000201605170002001CANGURO INTERNATIONAL S.A.                        C000000035856400000000000000000000100010010000000000000000000000F0010000008616400220160517000101 00000000000000000000000000000000000000000000000000000000000000000000000000000000000000000000000000000000000000000N 00000000000NCONT   00    00000000000          00000000000000000000000000000000000000000000 000000000000000A000000000000000000000000000000000000000000000 000000000000000000000000000000000000000     00000000                                                                                                                        000000000000000000
F0010000008616400003000080201112800042505000000000000000000201605170002001CANGURO INTERNATIONAL S.A.                        C000000000000000000000000000000000100010010000000000000000000000F0010000008616400320160517000101 00000000000000000000000000000000000000000000000000000000000000000000000000000000000000000000000000000000000000000N 00000000000NCONT   00    00000000000          00000000000000000000000000000000000000000000 000000000000000A000000000000000000000000000000000000000000000 000000000000000000000000000000000000000     00000000                                                                                                                        000000000000000000
F0010000008616400004000080201112800023658300000000000000000201605170002001CANGURO INTERNATIONAL S.A.                        C000000000286900000000000000000000100010010000000000000000000000F0010000008616400420160517000101 00000000000000000000000000000000000000000000000000000000000000000000000000000000000000000000000000000000000000000N 00000000000NCONT   00    00000000000          00000000000000000000000000000000000000000000 000000000000000A000000000000000000000000000000000000000000000 000000000000000000000000000000000000000     00000000                                                                                                                        000000000000000000
F0010000008616400005000080201112800013552100000000000000000201605170002001CANGURO INTERNATIONAL S.A.                        D000000000286900000000000000000000100010010000000000000000000000F0010000008616400520160517000101 00000000000000000000000000000000000000000000000000000000000000000000000000000000000000000000000000000000000000000N 00000000000NCONT   00    00000000000          00000000000000000000000000000000000000000000 000000000000000A000000000000000000000000000000000000000000000 000000000000000000000000000000000000000     00000000                                                                                                                        000000000000000000
F0010000008616500001000007228990400011050500000000000000000201605170002001JUAN MIGUEL ESCUDERO CABARCAS                     D000000002100000000000000000000000100010010000000000000000000000F0010000008616500120160517000101 00000000000000000000000000000000000000000000000000000000000000000000000000000000000000000000000000000000000000000N 00000000000NCONT   00    00000000000          00000000000000000000000000000000000000000000 000000000000000A000000000000000000000000000000000000000000000 000000000000000000000000000000000000000     00000000                                                                                                                        000000000000000000
F0010000008616500002000007228990400041450500000000000000000201605170002001JUAN MIGUEL ESCUDERO CABARCAS                     C000000001700000000000000000000000100010010000000000000000000000F0010000008616500220160517000101 00000000000000000000000000000000000000000000000000000000000000000000000000000000000000000000000000000000000000000N 00000000000NCONT   00    00000000000          00000000000000000000000000000000000000000000 000000000000000A000000000000000000000000000000000000000000000 000000000000000000000000000000000000000     00000000                                                                                                                        000000000000000000
F0010000008616500003000007228990400042505000000000000000000201605170002001JUAN MIGUEL ESCUDERO CABARCAS                     C000000000400000000000000000000000100010010000000000000000000000F0010000008616500320160517000101 00000000000000000000000000000000000000000000000000000000000000000000000000000000000000000000000000000000000000000N 00000000000NCONT   00    00000000000          00000000000000000000000000000000000000000000 000000000000000A000000000000000000000000000000000000000000000 000000000000000000000000000000000000000     00000000                                                                                                                        000000000000000000
F0010000008616500004000007228990400023658300000000000000000201605170002001JUAN MIGUEL ESCUDERO CABARCAS                     C000000000013600000000000000000000100010010000000000000000000000F0010000008616500420160517000101 00000000000000000000000000000000000000000000000000000000000000000000000000000000000000000000000000000000000000000N 00000000000NCONT   00    00000000000          00000000000000000000000000000000000000000000 000000000000000A000000000000000000000000000000000000000000000 000000000000000000000000000000000000000     00000000                                                                                                                        000000000000000000
F0010000008616500005000007228990400013552100000000000000000201605170002001JUAN MIGUEL ESCUDERO CABARCAS                     D000000000013600000000000000000000100010010000000000000000000000F0010000008616500520160517000101 00000000000000000000000000000000000000000000000000000000000000000000000000000000000000000000000000000000000000000N 00000000000NCONT   00    00000000000          00000000000000000000000000000000000000000000 000000000000000A000000000000000000000000000000000000000000000 000000000000000000000000000000000000000     00000000                                                                                                                        000000000000000000
F0010000008616600001000086053108300011050500000000000000000201605170002001EL PALACIO DEL ALUMINIO  LTDA                     D000000002000000000000000000000000100010010000000000000000000000F0010000008616600120160517000101 00000000000000000000000000000000000000000000000000000000000000000000000000000000000000000000000000000000000000000N 00000000000NCONT   00    00000000000          00000000000000000000000000000000000000000000 000000000000000A000000000000000000000000000000000000000000000 000000000000000000000000000000000000000     00000000                                                                                                                        000000000000000000
F0010000008616600002000086053108300041450500000000000000000201605170002001EL PALACIO DEL ALUMINIO  LTDA                     C000000001500000000000000000000000100010010000000000000000000000F0010000008616600220160517000101 00000000000000000000000000000000000000000000000000000000000000000000000000000000000000000000000000000000000000000N 00000000000NCONT   00    00000000000          00000000000000000000000000000000000000000000 000000000000000A000000000000000000000000000000000000000000000 000000000000000000000000000000000000000     00000000                                                                                                                        000000000000000000
F0010000008616600003000086053108300042505000000000000000000201605170002001EL PALACIO DEL ALUMINIO  LTDA                     C000000000500000000000000000000000100010010000000000000000000000F0010000008616600320160517000101 00000000000000000000000000000000000000000000000000000000000000000000000000000000000000000000000000000000000000000N 00000000000NCONT   00    00000000000          00000000000000000000000000000000000000000000 000000000000000A000000000000000000000000000000000000000000000 000000000000000000000000000000000000000     00000000                                                                                                                        000000000000000000
F0010000008616600004000086053108300023658300000000000000000201605170002001EL PALACIO DEL ALUMINIO  LTDA                     C000000000012000000000000000000000100010010000000000000000000000F0010000008616600420160517000101 00000000000000000000000000000000000000000000000000000000000000000000000000000000000000000000000000000000000000000N 00000000000NCONT   00    00000000000          00000000000000000000000000000000000000000000 000000000000000A000000000000000000000000000000000000000000000 000000000000000000000000000000000000000     00000000                                                                                                                        000000000000000000
F0010000008616600005000086053108300013552100000000000000000201605170002001EL PALACIO DEL ALUMINIO  LTDA                     D000000000012000000000000000000000100010010000000000000000000000F0010000008616600520160517000101 00000000000000000000000000000000000000000000000000000000000000000000000000000000000000000000000000000000000000000N 00000000000NCONT   00    00000000000          00000000000000000000000000000000000000000000 000000000000000A000000000000000000000000000000000000000000000 000000000000000000000000000000000000000     00000000                                                                                                                        000000000000000000
F0010000008616700001000090034602400011050500000000000000000201605170002001PRODUCTOS NACIONALES PARAFINICOS LA CUSTODIA S.A.SD000000001050000000000000000000000100010010000000000000000000000F0010000008616700120160517000101 00000000000000000000000000000000000000000000000000000000000000000000000000000000000000000000000000000000000000000N 00000000000NCONT   00    00000000000          00000000000000000000000000000000000000000000 000000000000000A000000000000000000000000000000000000000000000 000000000000000000000000000000000000000     00000000                                                                                                                        000000000000000000
F0010000008616700002000090034602400041450500000000000000000201605170002001PRODUCTOS NACIONALES PARAFINICOS LA CUSTODIA S.A.SC000000000950000000000000000000000100010010000000000000000000000F0010000008616700220160517000101 00000000000000000000000000000000000000000000000000000000000000000000000000000000000000000000000000000000000000000N 00000000000NCONT   00    00000000000          00000000000000000000000000000000000000000000 000000000000000A000000000000000000000000000000000000000000000 000000000000000000000000000000000000000     00000000                                                                                                                        000000000000000000
F0010000008616700003000090034602400042505000000000000000000201605170002001PRODUCTOS NACIONALES PARAFINICOS LA CUSTODIA S.A.SC000000000100000000000000000000000100010010000000000000000000000F0010000008616700320160517000101 00000000000000000000000000000000000000000000000000000000000000000000000000000000000000000000000000000000000000000N 00000000000NCONT   00    00000000000          00000000000000000000000000000000000000000000 000000000000000A000000000000000000000000000000000000000000000 000000000000000000000000000000000000000     00000000                                                                                                                        000000000000000000
F0010000008616700004000090034602400023658300000000000000000201605170002001PRODUCTOS NACIONALES PARAFINICOS LA CUSTODIA S.A.SC000000000007600000000000000000000100010010000000000000000000000F0010000008616700420160517000101 00000000000000000000000000000000000000000000000000000000000000000000000000000000000000000000000000000000000000000N 00000000000NCONT   00    00000000000          00000000000000000000000000000000000000000000 000000000000000A000000000000000000000000000000000000000000000 000000000000000000000000000000000000000     00000000                                                                                                                        000000000000000000
F0010000008616700005000090034602400013552100000000000000000201605170002001PRODUCTOS NACIONALES PARAFINICOS LA CUSTODIA S.A.SD000000000007600000000000000000000100010010000000000000000000000F0010000008616700520160517000101 00000000000000000000000000000000000000000000000000000000000000000000000000000000000000000000000000000000000000000N 00000000000NCONT   00    00000000000          00000000000000000000000000000000000000000000 000000000000000A000000000000000000000000000000000000000000000 000000000000000000000000000000000000000     00000000                                                                                                                        000000000000000000
F0010000008616800001000090020547900011050500000000000000000201605170002001COMERCIALIZADORA DAC DEL CARIBE S.A.S.            D000000009800000000000000000000000100010010000000000000000000000F0010000008616800120160517000101 00000000000000000000000000000000000000000000000000000000000000000000000000000000000000000000000000000000000000000N 00000000000NCONT   00    00000000000          00000000000000000000000000000000000000000000 000000000000000A000000000000000000000000000000000000000000000 000000000000000000000000000000000000000     00000000                                                                                                                        000000000000000000
F0010000008616800002000090020547900041450500000000000000000201605170002001COMERCIALIZADORA DAC DEL CARIBE S.A.S.            C000000007800000000000000000000000100010010000000000000000000000F0010000008616800220160517000101 00000000000000000000000000000000000000000000000000000000000000000000000000000000000000000000000000000000000000000N 00000000000NCONT   00    00000000000          00000000000000000000000000000000000000000000 000000000000000A000000000000000000000000000000000000000000000 000000000000000000000000000000000000000     00000000                                                                                                                        000000000000000000
F0010000008616800003000090020547900042505000000000000000000201605170002001COMERCIALIZADORA DAC DEL CARIBE S.A.S.            C000000002000000000000000000000000100010010000000000000000000000F0010000008616800320160517000101 00000000000000000000000000000000000000000000000000000000000000000000000000000000000000000000000000000000000000000N 00000000000NCONT   00    00000000000          00000000000000000000000000000000000000000000 000000000000000A000000000000000000000000000000000000000000000 000000000000000000000000000000000000000     00000000                                                                                                                        000000000000000000
F0010000008616800004000090020547900023658300000000000000000201605170002001COMERCIALIZADORA DAC DEL CARIBE S.A.S.            C000000000062400000000000000000000100010010000000000000000000000F0010000008616800420160517000101 00000000000000000000000000000000000000000000000000000000000000000000000000000000000000000000000000000000000000000N 00000000000NCONT   00    00000000000          00000000000000000000000000000000000000000000 000000000000000A000000000000000000000000000000000000000000000 000000000000000000000000000000000000000     00000000                                                                                                                        000000000000000000
F0010000008616800005000090020547900013552100000000000000000201605170002001COMERCIALIZADORA DAC DEL CARIBE S.A.S.            D000000000062400000000000000000000100010010000000000000000000000F0010000008616800520160517000101 00000000000000000000000000000000000000000000000000000000000000000000000000000000000000000000000000000000000000000N 00000000000NCONT   00    00000000000          00000000000000000000000000000000000000000000 000000000000000A000000000000000000000000000000000000000000000 000000000000000000000000000000000000000     00000000                                                                                                                        000000000000000000
F0010000008616900001000090020547900011050500000000000000000201605170002001COMERCIALIZADORA DAC DEL CARIBE S.A.S.            D000000004900000000000000000000000100010010000000000000000000000F0010000008616900120160517000101 00000000000000000000000000000000000000000000000000000000000000000000000000000000000000000000000000000000000000000N 00000000000NCONT   00    00000000000          00000000000000000000000000000000000000000000 000000000000000A000000000000000000000000000000000000000000000 000000000000000000000000000000000000000     00000000                                                                                                                        000000000000000000
F0010000008616900002000090020547900041450500000000000000000201605170002001COMERCIALIZADORA DAC DEL CARIBE S.A.S.            C000000003900000000000000000000000100010010000000000000000000000F0010000008616900220160517000101 00000000000000000000000000000000000000000000000000000000000000000000000000000000000000000000000000000000000000000N 00000000000NCONT   00    00000000000          00000000000000000000000000000000000000000000 000000000000000A000000000000000000000000000000000000000000000 000000000000000000000000000000000000000     00000000                                                                                                                        000000000000000000
F0010000008616900003000090020547900042505000000000000000000201605170002001COMERCIALIZADORA DAC DEL CARIBE S.A.S.            C000000001000000000000000000000000100010010000000000000000000000F0010000008616900320160517000101 00000000000000000000000000000000000000000000000000000000000000000000000000000000000000000000000000000000000000000N 00000000000NCONT   00    00000000000          00000000000000000000000000000000000000000000 000000000000000A000000000000000000000000000000000000000000000 000000000000000000000000000000000000000     00000000                                                                                                                        000000000000000000
F0010000008616900004000090020547900023658300000000000000000201605170002001COMERCIALIZADORA DAC DEL CARIBE S.A.S.            C000000000031200000000000000000000100010010000000000000000000000F0010000008616900420160517000101 00000000000000000000000000000000000000000000000000000000000000000000000000000000000000000000000000000000000000000N 00000000000NCONT   00    00000000000          00000000000000000000000000000000000000000000 000000000000000A000000000000000000000000000000000000000000000 000000000000000000000000000000000000000     00000000                                                                                                                        000000000000000000
F0010000008616900005000090020547900013552100000000000000000201605170002001COMERCIALIZADORA DAC DEL CARIBE S.A.S.            D000000000031200000000000000000000100010010000000000000000000000F0010000008616900520160517000101 00000000000000000000000000000000000000000000000000000000000000000000000000000000000000000000000000000000000000000N 00000000000NCONT   00    00000000000          00000000000000000000000000000000000000000000 000000000000000A000000000000000000000000000000000000000000000 000000000000000000000000000000000000000     00000000                                                                                                                        000000000000000000
F0010000008617000001000090047878200011050500000000000000000201605170002001GRUMAD SAS                                        D000000005000000000000000000000000100010010000000000000000000000F0010000008617000120160517000101 00000000000000000000000000000000000000000000000000000000000000000000000000000000000000000000000000000000000000000N 00000000000NCONT   00    00000000000          00000000000000000000000000000000000000000000 000000000000000A000000000000000000000000000000000000000000000 000000000000000000000000000000000000000     00000000                                                                                                                        000000000000000000
F0010000008617000002000090047878200041450500000000000000000201605170002001GRUMAD SAS                                        C000000004300000000000000000000000100010010000000000000000000000F0010000008617000220160517000101 00000000000000000000000000000000000000000000000000000000000000000000000000000000000000000000000000000000000000000N 00000000000NCONT   00    00000000000          00000000000000000000000000000000000000000000 000000000000000A000000000000000000000000000000000000000000000 000000000000000000000000000000000000000     00000000                                                                                                                        000000000000000000
F0010000008617000003000090047878200042505000000000000000000201605170002001GRUMAD SAS                                        C000000000700000000000000000000000100010010000000000000000000000F0010000008617000320160517000101 00000000000000000000000000000000000000000000000000000000000000000000000000000000000000000000000000000000000000000N 00000000000NCONT   00    00000000000          00000000000000000000000000000000000000000000 000000000000000A000000000000000000000000000000000000000000000 000000000000000000000000000000000000000     00000000                                                                                                                        000000000000000000
F0010000008617000004000090047878200023658300000000000000000201605170002001GRUMAD SAS                                        C000000000034400000000000000000000100010010000000000000000000000F0010000008617000420160517000101 00000000000000000000000000000000000000000000000000000000000000000000000000000000000000000000000000000000000000000N 00000000000NCONT   00    00000000000          00000000000000000000000000000000000000000000 000000000000000A000000000000000000000000000000000000000000000 000000000000000000000000000000000000000     00000000                                                                                                                        000000000000000000
F0010000008617000005000090047878200013552100000000000000000201605170002001GRUMAD SAS                                        D000000000034400000000000000000000100010010000000000000000000000F0010000008617000520160517000101 00000000000000000000000000000000000000000000000000000000000000000000000000000000000000000000000000000000000000000N 00000000000NCONT   00    00000000000          00000000000000000000000000000000000000000000 000000000000000A000000000000000000000000000000000000000000000 000000000000000000000000000000000000000     00000000                                                                                                                        000000000000000000
F0010000008617100001000083008772100011050500000000000000000201605170002001ILUMEC SAS                                        D000000001130000000000000000000000100010010000000000000000000000F0010000008617100120160517000101 00000000000000000000000000000000000000000000000000000000000000000000000000000000000000000000000000000000000000000N 00000000000NCONT   00    00000000000          00000000000000000000000000000000000000000000 000000000000000A000000000000000000000000000000000000000000000 000000000000000000000000000000000000000     00000000                                                                                                                        000000000000000000
F0010000008617100002000083008772100041450500000000000000000201605170002001ILUMEC SAS                                        C000000000880000000000000000000000100010010000000000000000000000F0010000008617100220160517000101 00000000000000000000000000000000000000000000000000000000000000000000000000000000000000000000000000000000000000000N 00000000000NCONT   00    00000000000          00000000000000000000000000000000000000000000 000000000000000A000000000000000000000000000000000000000000000 000000000000000000000000000000000000000     00000000                                                                                                                        000000000000000000
F0010000008617100003000083008772100042505000000000000000000201605170002001ILUMEC SAS                                        C000000000250000000000000000000000100010010000000000000000000000F0010000008617100320160517000101 00000000000000000000000000000000000000000000000000000000000000000000000000000000000000000000000000000000000000000N 00000000000NCONT   00    00000000000          00000000000000000000000000000000000000000000 000000000000000A000000000000000000000000000000000000000000000 000000000000000000000000000000000000000     00000000                                                                                                                        000000000000000000
F0010000008617100004000083008772100023658300000000000000000201605170002001ILUMEC SAS                                        C000000000007000000000000000000000100010010000000000000000000000F0010000008617100420160517000101 00000000000000000000000000000000000000000000000000000000000000000000000000000000000000000000000000000000000000000N 00000000000NCONT   00    00000000000          00000000000000000000000000000000000000000000 000000000000000A000000000000000000000000000000000000000000000 000000000000000000000000000000000000000     00000000                                                                                                                        000000000000000000
F0010000008617100005000083008772100013552100000000000000000201605170002001ILUMEC SAS                                        D000000000007000000000000000000000100010010000000000000000000000F0010000008617100520160517000101 00000000000000000000000000000000000000000000000000000000000000000000000000000000000000000000000000000000000000000N 00000000000NCONT   00    00000000000          00000000000000000000000000000000000000000000 000000000000000A000000000000000000000000000000000000000000000 000000000000000000000000000000000000000     00000000                                                                                                                        000000000000000000
F0010000008617200001000083008772100011050500000000000000000201605170002001ILUMEC SAS                                        D000000001105000000000000000000000100010010000000000000000000000F0010000008617200120160517000101 00000000000000000000000000000000000000000000000000000000000000000000000000000000000000000000000000000000000000000N 00000000000NCONT   00    00000000000          00000000000000000000000000000000000000000000 000000000000000A000000000000000000000000000000000000000000000 000000000000000000000000000000000000000     00000000                                                                                                                        000000000000000000
F0010000008617200002000083008772100041450500000000000000000201605170002001ILUMEC SAS                                        C000000000880000000000000000000000100010010000000000000000000000F0010000008617200220160517000101 00000000000000000000000000000000000000000000000000000000000000000000000000000000000000000000000000000000000000000N 00000000000NCONT   00    00000000000          00000000000000000000000000000000000000000000 000000000000000A000000000000000000000000000000000000000000000 000000000000000000000000000000000000000     00000000                                                                                                                        000000000000000000
F0010000008617200003000083008772100042505000000000000000000201605170002001ILUMEC SAS                                        C000000000225000000000000000000000100010010000000000000000000000F0010000008617200320160517000101 00000000000000000000000000000000000000000000000000000000000000000000000000000000000000000000000000000000000000000N 00000000000NCONT   00    00000000000          00000000000000000000000000000000000000000000 000000000000000A000000000000000000000000000000000000000000000 000000000000000000000000000000000000000     00000000                                                                                                                        000000000000000000
F0010000008617200004000083008772100023658300000000000000000201605170002001ILUMEC SAS                                        C000000000007000000000000000000000100010010000000000000000000000F0010000008617200420160517000101 00000000000000000000000000000000000000000000000000000000000000000000000000000000000000000000000000000000000000000N 00000000000NCONT   00    00000000000          00000000000000000000000000000000000000000000 000000000000000A000000000000000000000000000000000000000000000 000000000000000000000000000000000000000     00000000                                                                                                                        000000000000000000
F0010000008617200005000083008772100013552100000000000000000201605170002001ILUMEC SAS                                        D000000000007000000000000000000000100010010000000000000000000000F0010000008617200520160517000101 00000000000000000000000000000000000000000000000000000000000000000000000000000000000000000000000000000000000000000N 00000000000NCONT   00    00000000000          00000000000000000000000000000000000000000000 000000000000000A000000000000000000000000000000000000000000000 000000000000000000000000000000000000000     00000000                                                                                                                        000000000000000000
F0010000008617300001000000431178400011050500000000000000000201605170002001EFRAIN ALVAREZ                                    D000000003060000000000000000000000100010010000000000000000000000F0010000008617300120160517000101 00000000000000000000000000000000000000000000000000000000000000000000000000000000000000000000000000000000000000000N 00000000000NCONT   00    00000000000          00000000000000000000000000000000000000000000 000000000000000A000000000000000000000000000000000000000000000 000000000000000000000000000000000000000     00000000                                                                                                                        000000000000000000
F0010000008617300002000000431178400041450500000000000000000201605170002001EFRAIN ALVAREZ                                    C000000002760000000000000000000000100010010000000000000000000000F0010000008617300220160517000101 00000000000000000000000000000000000000000000000000000000000000000000000000000000000000000000000000000000000000000N 00000000000NCONT   00    00000000000          00000000000000000000000000000000000000000000 000000000000000A000000000000000000000000000000000000000000000 000000000000000000000000000000000000000     00000000                                                                                                                        000000000000000000
F0010000008617300003000000431178400042505000000000000000000201605170002001EFRAIN ALVAREZ                                    C000000000300000000000000000000000100010010000000000000000000000F0010000008617300320160517000101 00000000000000000000000000000000000000000000000000000000000000000000000000000000000000000000000000000000000000000N 00000000000NCONT   00    00000000000          00000000000000000000000000000000000000000000 000000000000000A000000000000000000000000000000000000000000000 000000000000000000000000000000000000000     00000000                                                                                                                        000000000000000000
F0010000008617300004000000431178400023658300000000000000000201605170002001EFRAIN ALVAREZ                                    C000000000022100000000000000000000100010010000000000000000000000F0010000008617300420160517000101 00000000000000000000000000000000000000000000000000000000000000000000000000000000000000000000000000000000000000000N 00000000000NCONT   00    00000000000          00000000000000000000000000000000000000000000 000000000000000A000000000000000000000000000000000000000000000 000000000000000000000000000000000000000     00000000                                                                                                                        000000000000000000
F0010000008617300005000000431178400013552100000000000000000201605170002001EFRAIN ALVAREZ                                    D000000000022100000000000000000000100010010000000000000000000000F0010000008617300520160517000101 00000000000000000000000000000000000000000000000000000000000000000000000000000000000000000000000000000000000000000N 00000000000NCONT   00    00000000000          00000000000000000000000000000000000000000000 000000000000000A000000000000000000000000000000000000000000000 000000000000000000000000000000000000000     00000000                                                                                                                        000000000000000000
F0010000008617400001000000431178400011050500000000000000000201605170002001EFRAIN ALVAREZ                                    D000000000970000000000000000000000100010010000000000000000000000F0010000008617400120160517000101 00000000000000000000000000000000000000000000000000000000000000000000000000000000000000000000000000000000000000000N 00000000000NCONT   00    00000000000          00000000000000000000000000000000000000000000 000000000000000A000000000000000000000000000000000000000000000 000000000000000000000000000000000000000     00000000                                                                                                                        000000000000000000
F0010000008617400002000000431178400041450500000000000000000201605170002001EFRAIN ALVAREZ                                    C000000000920000000000000000000000100010010000000000000000000000F0010000008617400220160517000101 00000000000000000000000000000000000000000000000000000000000000000000000000000000000000000000000000000000000000000N 00000000000NCONT   00    00000000000          00000000000000000000000000000000000000000000 000000000000000A000000000000000000000000000000000000000000000 000000000000000000000000000000000000000     00000000                                                                                                                        000000000000000000
F0010000008617400003000000431178400042505000000000000000000201605170002001EFRAIN ALVAREZ                                    C000000000050000000000000000000000100010010000000000000000000000F0010000008617400320160517000101 00000000000000000000000000000000000000000000000000000000000000000000000000000000000000000000000000000000000000000N 00000000000NCONT   00    00000000000          00000000000000000000000000000000000000000000 000000000000000A000000000000000000000000000000000000000000000 000000000000000000000000000000000000000     00000000                                                                                                                        000000000000000000
F0010000008617400004000000431178400023658300000000000000000201605170002001EFRAIN ALVAREZ                                    C000000000007400000000000000000000100010010000000000000000000000F0010000008617400420160517000101 00000000000000000000000000000000000000000000000000000000000000000000000000000000000000000000000000000000000000000N 00000000000NCONT   00    00000000000          00000000000000000000000000000000000000000000 000000000000000A000000000000000000000000000000000000000000000 000000000000000000000000000000000000000     00000000                                                                                                                        000000000000000000
F0010000008617400005000000431178400013552100000000000000000201605170002001EFRAIN ALVAREZ                                    D000000000007400000000000000000000100010010000000000000000000000F0010000008617400520160517000101 00000000000000000000000000000000000000000000000000000000000000000000000000000000000000000000000000000000000000000N 00000000000NCONT   00    00000000000          00000000000000000000000000000000000000000000 000000000000000A000000000000000000000000000000000000000000000 000000000000000000000000000000000000000     00000000                                                                                                                        000000000000000000
F0010000008617500001000007200023300011050500000000000000000201605170002001WILLIAM ORTEGA                                    D000000001200000000000000000000000100010010000000000000000000000F0010000008617500120160517000101 00000000000000000000000000000000000000000000000000000000000000000000000000000000000000000000000000000000000000000N 00000000000NCONT   00    00000000000          00000000000000000000000000000000000000000000 000000000000000A000000000000000000000000000000000000000000000 000000000000000000000000000000000000000     00000000                                                                                                                        000000000000000000
F0010000008617500002000007200023300041450500000000000000000201605170002001WILLIAM ORTEGA                                    C000000001000000000000000000000000100010010000000000000000000000F0010000008617500220160517000101 00000000000000000000000000000000000000000000000000000000000000000000000000000000000000000000000000000000000000000N 00000000000NCONT   00    00000000000          00000000000000000000000000000000000000000000 000000000000000A000000000000000000000000000000000000000000000 000000000000000000000000000000000000000     00000000                                                                                                                        000000000000000000
F0010000008617500003000007200023300042505000000000000000000201605170002001WILLIAM ORTEGA                                    C000000000200000000000000000000000100010010000000000000000000000F0010000008617500320160517000101 00000000000000000000000000000000000000000000000000000000000000000000000000000000000000000000000000000000000000000N 00000000000NCONT   00    00000000000          00000000000000000000000000000000000000000000 000000000000000A000000000000000000000000000000000000000000000 000000000000000000000000000000000000000     00000000                                                                                                                        000000000000000000
F0010000008617500004000007200023300023658300000000000000000201605170002001WILLIAM ORTEGA                                    C000000000008000000000000000000000100010010000000000000000000000F0010000008617500420160517000101 00000000000000000000000000000000000000000000000000000000000000000000000000000000000000000000000000000000000000000N 00000000000NCONT   00    00000000000          00000000000000000000000000000000000000000000 000000000000000A000000000000000000000000000000000000000000000 000000000000000000000000000000000000000     00000000                                                                                                                        000000000000000000
F0010000008617500005000007200023300013552100000000000000000201605170002001WILLIAM ORTEGA                                    D000000000008000000000000000000000100010010000000000000000000000F0010000008617500520160517000101 00000000000000000000000000000000000000000000000000000000000000000000000000000000000000000000000000000000000000000N 00000000000NCONT   00    00000000000          00000000000000000000000000000000000000000000 000000000000000A000000000000000000000000000000000000000000000 000000000000000000000000000000000000000     00000000                                                                                                                        000000000000000000
F0010000008617600001000007200023300011050500000000000000000201605170002001WILLIAM ORTEGA                                    D000000001500000000000000000000000100010010000000000000000000000F0010000008617600120160517000101 00000000000000000000000000000000000000000000000000000000000000000000000000000000000000000000000000000000000000000N 00000000000NCONT   00    00000000000          00000000000000000000000000000000000000000000 000000000000000A000000000000000000000000000000000000000000000 000000000000000000000000000000000000000     00000000                                                                                                                        000000000000000000
F0010000008617600002000007200023300041450500000000000000000201605170002001WILLIAM ORTEGA                                    C000000001300000000000000000000000100010010000000000000000000000F0010000008617600220160517000101 00000000000000000000000000000000000000000000000000000000000000000000000000000000000000000000000000000000000000000N 00000000000NCONT   00    00000000000          00000000000000000000000000000000000000000000 000000000000000A000000000000000000000000000000000000000000000 000000000000000000000000000000000000000     00000000                                                                                                                        000000000000000000
F0010000008617600003000007200023300042505000000000000000000201605170002001WILLIAM ORTEGA                                    C000000000200000000000000000000000100010010000000000000000000000F0010000008617600320160517000101 00000000000000000000000000000000000000000000000000000000000000000000000000000000000000000000000000000000000000000N 00000000000NCONT   00    00000000000          00000000000000000000000000000000000000000000 000000000000000A000000000000000000000000000000000000000000000 000000000000000000000000000000000000000     00000000                                                                                                                        000000000000000000
F0010000008617600004000007200023300023658300000000000000000201605170002001WILLIAM ORTEGA                                    C000000000010400000000000000000000100010010000000000000000000000F0010000008617600420160517000101 00000000000000000000000000000000000000000000000000000000000000000000000000000000000000000000000000000000000000000N 00000000000NCONT   00    00000000000          00000000000000000000000000000000000000000000 000000000000000A000000000000000000000000000000000000000000000 000000000000000000000000000000000000000     00000000                                                                                                                        000000000000000000
F0010000008617600005000007200023300013552100000000000000000201605170002001WILLIAM ORTEGA                                    D000000000010400000000000000000000100010010000000000000000000000F0010000008617600520160517000101 00000000000000000000000000000000000000000000000000000000000000000000000000000000000000000000000000000000000000000N 00000000000NCONT   00    00000000000          00000000000000000000000000000000000000000000 000000000000000A000000000000000000000000000000000000000000000 000000000000000000000000000000000000000     00000000                                                                                                                        000000000000000000
F0010000008617700001000007200023300011050500000000000000000201605170002001WILLIAM ORTEGA                                    D000000001200000000000000000000000100010010000000000000000000000F0010000008617700120160517000101 00000000000000000000000000000000000000000000000000000000000000000000000000000000000000000000000000000000000000000N 00000000000NCONT   00    00000000000          00000000000000000000000000000000000000000000 000000000000000A000000000000000000000000000000000000000000000 000000000000000000000000000000000000000     00000000                                                                                                                        000000000000000000
F0010000008617700002000007200023300041450500000000000000000201605170002001WILLIAM ORTEGA                                    C000000001000000000000000000000000100010010000000000000000000000F0010000008617700220160517000101 00000000000000000000000000000000000000000000000000000000000000000000000000000000000000000000000000000000000000000N 00000000000NCONT   00    00000000000          00000000000000000000000000000000000000000000 000000000000000A000000000000000000000000000000000000000000000 000000000000000000000000000000000000000     00000000                                                                                                                        000000000000000000
F0010000008617700003000007200023300042505000000000000000000201605170002001WILLIAM ORTEGA                                    C000000000200000000000000000000000100010010000000000000000000000F0010000008617700320160517000101 00000000000000000000000000000000000000000000000000000000000000000000000000000000000000000000000000000000000000000N 00000000000NCONT   00    00000000000          00000000000000000000000000000000000000000000 000000000000000A000000000000000000000000000000000000000000000 000000000000000000000000000000000000000     00000000                                                                                                                        000000000000000000
F0010000008617700004000007200023300023658300000000000000000201605170002001WILLIAM ORTEGA                                    C000000000008000000000000000000000100010010000000000000000000000F0010000008617700420160517000101 00000000000000000000000000000000000000000000000000000000000000000000000000000000000000000000000000000000000000000N 00000000000NCONT   00    00000000000          00000000000000000000000000000000000000000000 000000000000000A000000000000000000000000000000000000000000000 000000000000000000000000000000000000000     00000000                                                                                                                        000000000000000000
F0010000008617700005000007200023300013552100000000000000000201605170002001WILLIAM ORTEGA                                    D000000000008000000000000000000000100010010000000000000000000000F0010000008617700520160517000101 00000000000000000000000000000000000000000000000000000000000000000000000000000000000000000000000000000000000000000N 00000000000NCONT   00    00000000000          00000000000000000000000000000000000000000000 000000000000000A000000000000000000000000000000000000000000000 000000000000000000000000000000000000000     00000000                                                                                                                        000000000000000000
F0010000008617800001000000870907300011050500000000000000000201605170002001SURTIDOR FERRETERO                                D000000010700000000000000000000000100010010000000000000000000000F0010000008617800120160517000101 00000000000000000000000000000000000000000000000000000000000000000000000000000000000000000000000000000000000000000N 00000000000NCONT   00    00000000000          00000000000000000000000000000000000000000000 000000000000000A000000000000000000000000000000000000000000000 000000000000000000000000000000000000000     00000000                                                                                                                        000000000000000000
F0010000008617800002000000870907300041450500000000000000000201605170002001SURTIDOR FERRETERO                                C000000008400000000000000000000000100010010000000000000000000000F0010000008617800220160517000101 00000000000000000000000000000000000000000000000000000000000000000000000000000000000000000000000000000000000000000N 00000000000NCONT   00    00000000000          00000000000000000000000000000000000000000000 000000000000000A000000000000000000000000000000000000000000000 000000000000000000000000000000000000000     00000000                                                                                                                        000000000000000000
F0010000008617800003000000870907300042505000000000000000000201605170002001SURTIDOR FERRETERO                                C000000002300000000000000000000000100010010000000000000000000000F0010000008617800320160517000101 00000000000000000000000000000000000000000000000000000000000000000000000000000000000000000000000000000000000000000N 00000000000NCONT   00    00000000000          00000000000000000000000000000000000000000000 000000000000000A000000000000000000000000000000000000000000000 000000000000000000000000000000000000000     00000000                                                                                                                        000000000000000000
F0010000008617800004000000870907300023658300000000000000000201605170002001SURTIDOR FERRETERO                                C000000000067200000000000000000000100010010000000000000000000000F0010000008617800420160517000101 00000000000000000000000000000000000000000000000000000000000000000000000000000000000000000000000000000000000000000N 00000000000NCONT   00    00000000000          00000000000000000000000000000000000000000000 000000000000000A000000000000000000000000000000000000000000000 000000000000000000000000000000000000000     00000000                                                                                                                        000000000000000000
F0010000008617800005000000870907300013552100000000000000000201605170002001SURTIDOR FERRETERO                                D000000000067200000000000000000000100010010000000000000000000000F0010000008617800520160517000101 00000000000000000000000000000000000000000000000000000000000000000000000000000000000000000000000000000000000000000N 00000000000NCONT   00    00000000000          00000000000000000000000000000000000000000000 000000000000000A000000000000000000000000000000000000000000000 000000000000000000000000000000000000000     00000000                                                                                                                        000000000000000000
F0010000008617900001000009251886200011050500000000000000000201605170002001ANTONIO SIERRA -- CASA FINCA                      D000000008000000000000000000000000100010010000000000000000000000F0010000008617900120160517000101 00000000000000000000000000000000000000000000000000000000000000000000000000000000000000000000000000000000000000000N 00000000000NCONT   00    00000000000          00000000000000000000000000000000000000000000 000000000000000A000000000000000000000000000000000000000000000 000000000000000000000000000000000000000     00000000                                                                                                                        000000000000000000
F0010000008617900002000009251886200041450500000000000000000201605170002001ANTONIO SIERRA -- CASA FINCA                      C000000007900000000000000000000000100010010000000000000000000000F0010000008617900220160517000101 00000000000000000000000000000000000000000000000000000000000000000000000000000000000000000000000000000000000000000N 00000000000NCONT   00    00000000000          00000000000000000000000000000000000000000000 000000000000000A000000000000000000000000000000000000000000000 000000000000000000000000000000000000000     00000000                                                                                                                        000000000000000000
F0010000008617900003000009251886200042505000000000000000000201605170002001ANTONIO SIERRA -- CASA FINCA                      C000000000100000000000000000000000100010010000000000000000000000F0010000008617900320160517000101 00000000000000000000000000000000000000000000000000000000000000000000000000000000000000000000000000000000000000000N 00000000000NCONT   00    00000000000          00000000000000000000000000000000000000000000 000000000000000A000000000000000000000000000000000000000000000 000000000000000000000000000000000000000     00000000                                                                                                                        000000000000000000
F0010000008617900004000009251886200023658300000000000000000201605170002001ANTONIO SIERRA -- CASA FINCA                      C000000000063200000000000000000000100010010000000000000000000000F0010000008617900420160517000101 00000000000000000000000000000000000000000000000000000000000000000000000000000000000000000000000000000000000000000N 00000000000NCONT   00    00000000000          00000000000000000000000000000000000000000000 000000000000000A000000000000000000000000000000000000000000000 000000000000000000000000000000000000000     00000000                                                                                                                        000000000000000000
F0010000008617900005000009251886200013552100000000000000000201605170002001ANTONIO SIERRA -- CASA FINCA                      D000000000063200000000000000000000100010010000000000000000000000F0010000008617900520160517000101 00000000000000000000000000000000000000000000000000000000000000000000000000000000000000000000000000000000000000000N 00000000000NCONT   00    00000000000          00000000000000000000000000000000000000000000 000000000000000A000000000000000000000000000000000000000000000 000000000000000000000000000000000000000     00000000                                                                                                                        000000000000000000
F0010000008618000001000102390001700011050500000000000000000201605170002001LILIANA HERNANDEZ PINILLA                         D000000004000000000000000000000000100010010000000000000000000000F0010000008618000120160517000101 00000000000000000000000000000000000000000000000000000000000000000000000000000000000000000000000000000000000000000N 00000000000NCONT   00    00000000000          00000000000000000000000000000000000000000000 000000000000000A000000000000000000000000000000000000000000000 000000000000000000000000000000000000000     00000000                                                                                                                        000000000000000000
F0010000008618000002000102390001700041450500000000000000000201605170002001LILIANA HERNANDEZ PINILLA                         C000000003000000000000000000000000100010010000000000000000000000F0010000008618000220160517000101 00000000000000000000000000000000000000000000000000000000000000000000000000000000000000000000000000000000000000000N 00000000000NCONT   00    00000000000          00000000000000000000000000000000000000000000 000000000000000A000000000000000000000000000000000000000000000 000000000000000000000000000000000000000     00000000                                                                                                                        000000000000000000
F0010000008618000003000102390001700042505000000000000000000201605170002001LILIANA HERNANDEZ PINILLA                         C000000001000000000000000000000000100010010000000000000000000000F0010000008618000320160517000101 00000000000000000000000000000000000000000000000000000000000000000000000000000000000000000000000000000000000000000N 00000000000NCONT   00    00000000000          00000000000000000000000000000000000000000000 000000000000000A000000000000000000000000000000000000000000000 000000000000000000000000000000000000000     00000000                                                                                                                        000000000000000000
F0010000008618000004000102390001700023658300000000000000000201605170002001LILIANA HERNANDEZ PINILLA                         C000000000024000000000000000000000100010010000000000000000000000F0010000008618000420160517000101 00000000000000000000000000000000000000000000000000000000000000000000000000000000000000000000000000000000000000000N 00000000000NCONT   00    00000000000          00000000000000000000000000000000000000000000 000000000000000A000000000000000000000000000000000000000000000 000000000000000000000000000000000000000     00000000                                                                                                                        000000000000000000
F0010000008618000005000102390001700013552100000000000000000201605170002001LILIANA HERNANDEZ PINILLA                         D000000000024000000000000000000000100010010000000000000000000000F0010000008618000520160517000101 00000000000000000000000000000000000000000000000000000000000000000000000000000000000000000000000000000000000000000N 00000000000NCONT   00    00000000000          00000000000000000000000000000000000000000000 000000000000000A000000000000000000000000000000000000000000000 000000000000000000000000000000000000000     00000000                                                                                                                        000000000000000000
F0010000008618100001000003263562600011050500000000000000000201605170002001LOCAL 50 - MERCEDES ARAGUREN DE CHADID (MANUEL CHAD000000000950000000000000000000000100010010000000000000000000000F0010000008618100120160517000101 00000000000000000000000000000000000000000000000000000000000000000000000000000000000000000000000000000000000000000N 00000000000NCONT   00    00000000000          00000000000000000000000000000000000000000000 000000000000000A000000000000000000000000000000000000000000000 000000000000000000000000000000000000000     00000000                                                                                                                        000000000000000000
F0010000008618100002000003263562600041450500000000000000000201605170002001LOCAL 50 - MERCEDES ARAGUREN DE CHADID (MANUEL CHAC000000000850000000000000000000000100010010000000000000000000000F0010000008618100220160517000101 00000000000000000000000000000000000000000000000000000000000000000000000000000000000000000000000000000000000000000N 00000000000NCONT   00    00000000000          00000000000000000000000000000000000000000000 000000000000000A000000000000000000000000000000000000000000000 000000000000000000000000000000000000000     00000000                                                                                                                        000000000000000000
F0010000008618100003000003263562600042505000000000000000000201605170002001LOCAL 50 - MERCEDES ARAGUREN DE CHADID (MANUEL CHAC000000000100000000000000000000000100010010000000000000000000000F0010000008618100320160517000101 00000000000000000000000000000000000000000000000000000000000000000000000000000000000000000000000000000000000000000N 00000000000NCONT   00    00000000000          00000000000000000000000000000000000000000000 000000000000000A000000000000000000000000000000000000000000000 000000000000000000000000000000000000000     00000000                                                                                                                        000000000000000000
F0010000008618100004000003263562600023658300000000000000000201605170002001LOCAL 50 - MERCEDES ARAGUREN DE CHADID (MANUEL CHAC000000000006800000000000000000000100010010000000000000000000000F0010000008618100420160517000101 00000000000000000000000000000000000000000000000000000000000000000000000000000000000000000000000000000000000000000N 00000000000NCONT   00    00000000000          00000000000000000000000000000000000000000000 000000000000000A000000000000000000000000000000000000000000000 000000000000000000000000000000000000000     00000000                                                                                                                        000000000000000000
F0010000008618100005000003263562600013552100000000000000000201605170002001LOCAL 50 - MERCEDES ARAGUREN DE CHADID (MANUEL CHAD000000000006800000000000000000000100010010000000000000000000000F0010000008618100520160517000101 00000000000000000000000000000000000000000000000000000000000000000000000000000000000000000000000000000000000000000N 00000000000NCONT   00    00000000000          00000000000000000000000000000000000000000000 000000000000000A000000000000000000000000000000000000000000000 000000000000000000000000000000000000000     00000000                                                                                                                        000000000000000000
F0010000008618200001000080202350700011050500000000000000000201605170002001CONNY DE LA COSTA SAS                             D000000000900000000000000000000000100010010000000000000000000000F0010000008618200120160517000101 00000000000000000000000000000000000000000000000000000000000000000000000000000000000000000000000000000000000000000N 00000000000NCONT   00    00000000000          00000000000000000000000000000000000000000000 000000000000000A000000000000000000000000000000000000000000000 000000000000000000000000000000000000000     00000000                                                                                                                        000000000000000000
F0010000008618200002000080202350700041450500000000000000000201605170002001CONNY DE LA COSTA SAS                             C000000000850000000000000000000000100010010000000000000000000000F0010000008618200220160517000101 00000000000000000000000000000000000000000000000000000000000000000000000000000000000000000000000000000000000000000N 00000000000NCONT   00    00000000000          00000000000000000000000000000000000000000000 000000000000000A000000000000000000000000000000000000000000000 000000000000000000000000000000000000000     00000000                                                                                                                        000000000000000000
F0010000008618200003000080202350700042505000000000000000000201605170002001CONNY DE LA COSTA SAS                             C000000000050000000000000000000000100010010000000000000000000000F0010000008618200320160517000101 00000000000000000000000000000000000000000000000000000000000000000000000000000000000000000000000000000000000000000N 00000000000NCONT   00    00000000000          00000000000000000000000000000000000000000000 000000000000000A000000000000000000000000000000000000000000000 000000000000000000000000000000000000000     00000000                                                                                                                        000000000000000000
F0010000008618200004000080202350700023658300000000000000000201605170002001CONNY DE LA COSTA SAS                             C000000000006800000000000000000000100010010000000000000000000000F0010000008618200420160517000101 00000000000000000000000000000000000000000000000000000000000000000000000000000000000000000000000000000000000000000N 00000000000NCONT   00    00000000000          00000000000000000000000000000000000000000000 000000000000000A000000000000000000000000000000000000000000000 000000000000000000000000000000000000000     00000000                                                                                                                        000000000000000000
F0010000008618200005000080202350700013552100000000000000000201605170002001CONNY DE LA COSTA SAS                             D000000000006800000000000000000000100010010000000000000000000000F0010000008618200520160517000101 00000000000000000000000000000000000000000000000000000000000000000000000000000000000000000000000000000000000000000N 00000000000NCONT   00    00000000000          00000000000000000000000000000000000000000000 000000000000000A000000000000000000000000000000000000000000000 000000000000000000000000000000000000000     00000000                                                                                                                        000000000000000000
F0010000008618300001000002245670100011050500000000000000000201605170002001YOLANDA  TOBON                                    D000000002000000000000000000000000100010010000000000000000000000F0010000008618300120160517000101 00000000000000000000000000000000000000000000000000000000000000000000000000000000000000000000000000000000000000000N 00000000000NCONT   00    00000000000          00000000000000000000000000000000000000000000 000000000000000A000000000000000000000000000000000000000000000 000000000000000000000000000000000000000     00000000                                                                                                                        000000000000000000
F0010000008618300002000002245670100041450500000000000000000201605170002001YOLANDA  TOBON                                    C000000001500000000000000000000000100010010000000000000000000000F0010000008618300220160517000101 00000000000000000000000000000000000000000000000000000000000000000000000000000000000000000000000000000000000000000N 00000000000NCONT   00    00000000000          00000000000000000000000000000000000000000000 000000000000000A000000000000000000000000000000000000000000000 000000000000000000000000000000000000000     00000000                                                                                                                        000000000000000000
F0010000008618300003000002245670100042505000000000000000000201605170002001YOLANDA  TOBON                                    C000000000500000000000000000000000100010010000000000000000000000F0010000008618300320160517000101 00000000000000000000000000000000000000000000000000000000000000000000000000000000000000000000000000000000000000000N 00000000000NCONT   00    00000000000          00000000000000000000000000000000000000000000 000000000000000A000000000000000000000000000000000000000000000 000000000000000000000000000000000000000     00000000                                                                                                                        000000000000000000
F0010000008618300004000002245670100023658300000000000000000201605170002001YOLANDA  TOBON                                    C000000000012000000000000000000000100010010000000000000000000000F0010000008618300420160517000101 00000000000000000000000000000000000000000000000000000000000000000000000000000000000000000000000000000000000000000N 00000000000NCONT   00    00000000000          00000000000000000000000000000000000000000000 000000000000000A000000000000000000000000000000000000000000000 000000000000000000000000000000000000000     00000000                                                                                                                        000000000000000000
F0010000008618300005000002245670100013552100000000000000000201605170002001YOLANDA  TOBON                                    D000000000012000000000000000000000100010010000000000000000000000F0010000008618300520160517000101 00000000000000000000000000000000000000000000000000000000000000000000000000000000000000000000000000000000000000000N 00000000000NCONT   00    00000000000          00000000000000000000000000000000000000000000 000000000000000A000000000000000000000000000000000000000000000 000000000000000000000000000000000000000     00000000                                                                                                                        000000000000000000
F0010000008618400001000007201916800011050500000000000000000201605170002001RICARDO ARCHILA                                   D000000000800000000000000000000000100010010000000000000000000000F0010000008618400120160517000101 00000000000000000000000000000000000000000000000000000000000000000000000000000000000000000000000000000000000000000N 00000000000NCONT   00    00000000000          00000000000000000000000000000000000000000000 000000000000000A000000000000000000000000000000000000000000000 000000000000000000000000000000000000000     00000000                                                                                                                        000000000000000000
F0010000008618400002000007201916800041450500000000000000000201605170002001RICARDO ARCHILA                                   C000000000650000000000000000000000100010010000000000000000000000F0010000008618400220160517000101 00000000000000000000000000000000000000000000000000000000000000000000000000000000000000000000000000000000000000000N 00000000000NCONT   00    00000000000          00000000000000000000000000000000000000000000 000000000000000A000000000000000000000000000000000000000000000 000000000000000000000000000000000000000     00000000                                                                                                                        000000000000000000
F0010000008618400003000007201916800042505000000000000000000201605170002001RICARDO ARCHILA                                   C000000000150000000000000000000000100010010000000000000000000000F0010000008618400320160517000101 00000000000000000000000000000000000000000000000000000000000000000000000000000000000000000000000000000000000000000N 00000000000NCONT   00    00000000000          00000000000000000000000000000000000000000000 000000000000000A000000000000000000000000000000000000000000000 000000000000000000000000000000000000000     00000000                                                                                                                        000000000000000000
F0010000008618400004000007201916800023658300000000000000000201605170002001RICARDO ARCHILA                                   C000000000005200000000000000000000100010010000000000000000000000F0010000008618400420160517000101 00000000000000000000000000000000000000000000000000000000000000000000000000000000000000000000000000000000000000000N 00000000000NCONT   00    00000000000          00000000000000000000000000000000000000000000 000000000000000A000000000000000000000000000000000000000000000 000000000000000000000000000000000000000     00000000                                                                                                                        000000000000000000
F0010000008618400005000007201916800013552100000000000000000201605170002001RICARDO ARCHILA                                   D000000000005200000000000000000000100010010000000000000000000000F0010000008618400520160517000101 00000000000000000000000000000000000000000000000000000000000000000000000000000000000000000000000000000000000000000N 00000000000NCONT   00    00000000000          00000000000000000000000000000000000000000000 000000000000000A000000000000000000000000000000000000000000000 000000000000000000000000000000000000000     00000000                                                                                                                        000000000000000000
F0010000008618500001000007200023300011050500000000000000000201605170002001WILLIAM ORTEGA                                    D000000012200000000000000000000000100010010000000000000000000000F0010000008618500120160517000101 00000000000000000000000000000000000000000000000000000000000000000000000000000000000000000000000000000000000000000N 00000000000NCONT   00    00000000000          00000000000000000000000000000000000000000000 000000000000000A000000000000000000000000000000000000000000000 000000000000000000000000000000000000000     00000000                                                                                                                        000000000000000000
F0010000008618500002000007200023300041450500000000000000000201605170002001WILLIAM ORTEGA                                    C000000010000000000000000000000000100010010000000000000000000000F0010000008618500220160517000101 00000000000000000000000000000000000000000000000000000000000000000000000000000000000000000000000000000000000000000N 00000000000NCONT   00    00000000000          00000000000000000000000000000000000000000000 000000000000000A000000000000000000000000000000000000000000000 000000000000000000000000000000000000000     00000000                                                                                                                        000000000000000000
F0010000008618500003000007200023300042505000000000000000000201605170002001WILLIAM ORTEGA                                    C000000002200000000000000000000000100010010000000000000000000000F0010000008618500320160517000101 00000000000000000000000000000000000000000000000000000000000000000000000000000000000000000000000000000000000000000N 00000000000NCONT   00    00000000000          00000000000000000000000000000000000000000000 000000000000000A000000000000000000000000000000000000000000000 000000000000000000000000000000000000000     00000000                                                                                                                        000000000000000000
F0010000008618500004000007200023300023658300000000000000000201605170002001WILLIAM ORTEGA                                    C000000000080000000000000000000000100010010000000000000000000000F0010000008618500420160517000101 00000000000000000000000000000000000000000000000000000000000000000000000000000000000000000000000000000000000000000N 00000000000NCONT   00    00000000000          00000000000000000000000000000000000000000000 000000000000000A000000000000000000000000000000000000000000000 000000000000000000000000000000000000000     00000000                                                                                                                        000000000000000000
F0010000008618500005000007200023300013552100000000000000000201605170002001WILLIAM ORTEGA                                    D000000000080000000000000000000000100010010000000000000000000000F0010000008618500520160517000101 00000000000000000000000000000000000000000000000000000000000000000000000000000000000000000000000000000000000000000N 00000000000NCONT   00    00000000000          00000000000000000000000000000000000000000000 000000000000000A000000000000000000000000000000000000000000000 000000000000000000000000000000000000000     00000000                                                                                                                        000000000000000000
F0010000008618600001000003129177700011050500000000000000000201605170002001GLORIA STELLA ORDOEZ REALPE                     D000000005000000000000000000000000100010010000000000000000000000F0010000008618600120160517000101 00000000000000000000000000000000000000000000000000000000000000000000000000000000000000000000000000000000000000000N 00000000000NCONT   00    00000000000          00000000000000000000000000000000000000000000 000000000000000A000000000000000000000000000000000000000000000 000000000000000000000000000000000000000     00000000                                                                                                                        000000000000000000
F0010000008618600002000003129177700041450500000000000000000201605170002001GLORIA STELLA ORDOEZ REALPE                     C000000004500000000000000000000000100010010000000000000000000000F0010000008618600220160517000101 00000000000000000000000000000000000000000000000000000000000000000000000000000000000000000000000000000000000000000N 00000000000NCONT   00    00000000000          00000000000000000000000000000000000000000000 000000000000000A000000000000000000000000000000000000000000000 000000000000000000000000000000000000000     00000000                                                                                                                        000000000000000000
F0010000008618600003000003129177700042505000000000000000000201605170002001GLORIA STELLA ORDOEZ REALPE                     C000000000500000000000000000000000100010010000000000000000000000F0010000008618600320160517000101 00000000000000000000000000000000000000000000000000000000000000000000000000000000000000000000000000000000000000000N 00000000000NCONT   00    00000000000          00000000000000000000000000000000000000000000 000000000000000A000000000000000000000000000000000000000000000 000000000000000000000000000000000000000     00000000                                                                                                                        000000000000000000
F0010000008618600004000003129177700023658300000000000000000201605170002001GLORIA STELLA ORDOEZ REALPE                     C000000000036000000000000000000000100010010000000000000000000000F0010000008618600420160517000101 00000000000000000000000000000000000000000000000000000000000000000000000000000000000000000000000000000000000000000N 00000000000NCONT   00    00000000000          00000000000000000000000000000000000000000000 000000000000000A000000000000000000000000000000000000000000000 000000000000000000000000000000000000000     00000000                                                                                                                        000000000000000000
F0010000008618600005000003129177700013552100000000000000000201605170002001GLORIA STELLA ORDOEZ REALPE                     D000000000036000000000000000000000100010010000000000000000000000F0010000008618600520160517000101 00000000000000000000000000000000000000000000000000000000000000000000000000000000000000000000000000000000000000000N 00000000000NCONT   00    00000000000          00000000000000000000000000000000000000000000 000000000000000A000000000000000000000000000000000000000000000 000000000000000000000000000000000000000     00000000                                                                                                                        000000000000000000
F0010000008618700001000086000061500011050500000000000000000201605170002001DISTRIBUIDORA CORDOBA                             D000000007700000000000000000000000100010010000000000000000000000F0010000008618700120160517000101 00000000000000000000000000000000000000000000000000000000000000000000000000000000000000000000000000000000000000000N 00000000000NCONT   00    00000000000          00000000000000000000000000000000000000000000 000000000000000A000000000000000000000000000000000000000000000 000000000000000000000000000000000000000     00000000                                                                                                                        000000000000000000
F0010000008618700002000086000061500041450500000000000000000201605170002001DISTRIBUIDORA CORDOBA                             C000000006800000000000000000000000100010010000000000000000000000F0010000008618700220160517000101 00000000000000000000000000000000000000000000000000000000000000000000000000000000000000000000000000000000000000000N 00000000000NCONT   00    00000000000          00000000000000000000000000000000000000000000 000000000000000A000000000000000000000000000000000000000000000 000000000000000000000000000000000000000     00000000                                                                                                                        000000000000000000
F0010000008618700003000086000061500042505000000000000000000201605170002001DISTRIBUIDORA CORDOBA                             C000000000900000000000000000000000100010010000000000000000000000F0010000008618700320160517000101 00000000000000000000000000000000000000000000000000000000000000000000000000000000000000000000000000000000000000000N 00000000000NCONT   00    00000000000          00000000000000000000000000000000000000000000 000000000000000A000000000000000000000000000000000000000000000 000000000000000000000000000000000000000     00000000                                                                                                                        000000000000000000
F0010000008618700004000086000061500023658300000000000000000201605170002001DISTRIBUIDORA CORDOBA                             C000000000054400000000000000000000100010010000000000000000000000F0010000008618700420160517000101 00000000000000000000000000000000000000000000000000000000000000000000000000000000000000000000000000000000000000000N 00000000000NCONT   00    00000000000          00000000000000000000000000000000000000000000 000000000000000A000000000000000000000000000000000000000000000 000000000000000000000000000000000000000     00000000                                                                                                                        000000000000000000
F0010000008618700005000086000061500013552100000000000000000201605170002001DISTRIBUIDORA CORDOBA                             D000000000054400000000000000000000100010010000000000000000000000F0010000008618700520160517000101 00000000000000000000000000000000000000000000000000000000000000000000000000000000000000000000000000000000000000000N 00000000000NCONT   00    00000000000          00000000000000000000000000000000000000000000 000000000000000A000000000000000000000000000000000000000000000 000000000000000000000000000000000000000     00000000                                                                                                                        000000000000000000
F0010000008618800001000001719393900011050500000000000000000201605170002001JAIRO BASTIDAS RAMIREZ                            D000000001600000000000000000000000100010010000000000000000000000F0010000008618800120160517000101 00000000000000000000000000000000000000000000000000000000000000000000000000000000000000000000000000000000000000000N 00000000000NCONT   00    00000000000          00000000000000000000000000000000000000000000 000000000000000A000000000000000000000000000000000000000000000 000000000000000000000000000000000000000     00000000                                                                                                                        000000000000000000
F0010000008618800002000001719393900041450500000000000000000201605170002001JAIRO BASTIDAS RAMIREZ                            C000000001300000000000000000000000100010010000000000000000000000F0010000008618800220160517000101 00000000000000000000000000000000000000000000000000000000000000000000000000000000000000000000000000000000000000000N 00000000000NCONT   00    00000000000          00000000000000000000000000000000000000000000 000000000000000A000000000000000000000000000000000000000000000 000000000000000000000000000000000000000     00000000                                                                                                                        000000000000000000
F0010000008618800003000001719393900042505000000000000000000201605170002001JAIRO BASTIDAS RAMIREZ                            C000000000300000000000000000000000100010010000000000000000000000F0010000008618800320160517000101 00000000000000000000000000000000000000000000000000000000000000000000000000000000000000000000000000000000000000000N 00000000000NCONT   00    00000000000          00000000000000000000000000000000000000000000 000000000000000A000000000000000000000000000000000000000000000 000000000000000000000000000000000000000     00000000                                                                                                                        000000000000000000
F0010000008618800004000001719393900023658300000000000000000201605170002001JAIRO BASTIDAS RAMIREZ                            C000000000010400000000000000000000100010010000000000000000000000F0010000008618800420160517000101 00000000000000000000000000000000000000000000000000000000000000000000000000000000000000000000000000000000000000000N 00000000000NCONT   00    00000000000          00000000000000000000000000000000000000000000 000000000000000A000000000000000000000000000000000000000000000 000000000000000000000000000000000000000     00000000                                                                                                                        000000000000000000
F0010000008618800005000001719393900013552100000000000000000201605170002001JAIRO BASTIDAS RAMIREZ                            D000000000010400000000000000000000100010010000000000000000000000F0010000008618800520160517000101 00000000000000000000000000000000000000000000000000000000000000000000000000000000000000000000000000000000000000000N 00000000000NCONT   00    00000000000          00000000000000000000000000000000000000000000 000000000000000A000000000000000000000000000000000000000000000 000000000000000000000000000000000000000     00000000                                                                                                                        000000000000000000
F0010000008618900001000001719393900011050500000000000000000201605170002001JAIRO BASTIDAS RAMIREZ                            D000000004200000000000000000000000100010010000000000000000000000F0010000008618900120160517000101 00000000000000000000000000000000000000000000000000000000000000000000000000000000000000000000000000000000000000000N 00000000000NCONT   00    00000000000          00000000000000000000000000000000000000000000 000000000000000A000000000000000000000000000000000000000000000 000000000000000000000000000000000000000     00000000                                                                                                                        000000000000000000
F0010000008618900002000001719393900041450500000000000000000201605170002001JAIRO BASTIDAS RAMIREZ                            C000000003900000000000000000000000100010010000000000000000000000F0010000008618900220160517000101 00000000000000000000000000000000000000000000000000000000000000000000000000000000000000000000000000000000000000000N 00000000000NCONT   00    00000000000          00000000000000000000000000000000000000000000 000000000000000A000000000000000000000000000000000000000000000 000000000000000000000000000000000000000     00000000                                                                                                                        000000000000000000
F0010000008618900003000001719393900042505000000000000000000201605170002001JAIRO BASTIDAS RAMIREZ                            C000000000300000000000000000000000100010010000000000000000000000F0010000008618900320160517000101 00000000000000000000000000000000000000000000000000000000000000000000000000000000000000000000000000000000000000000N 00000000000NCONT   00    00000000000          00000000000000000000000000000000000000000000 000000000000000A000000000000000000000000000000000000000000000 000000000000000000000000000000000000000     00000000                                                                                                                        000000000000000000
F0010000008618900004000001719393900023658300000000000000000201605170002001JAIRO BASTIDAS RAMIREZ                            C000000000031200000000000000000000100010010000000000000000000000F0010000008618900420160517000101 00000000000000000000000000000000000000000000000000000000000000000000000000000000000000000000000000000000000000000N 00000000000NCONT   00    00000000000          00000000000000000000000000000000000000000000 000000000000000A000000000000000000000000000000000000000000000 000000000000000000000000000000000000000     00000000                                                                                                                        000000000000000000
F0010000008618900005000001719393900013552100000000000000000201605170002001JAIRO BASTIDAS RAMIREZ                            D000000000031200000000000000000000100010010000000000000000000000F0010000008618900520160517000101 00000000000000000000000000000000000000000000000000000000000000000000000000000000000000000000000000000000000000000N 00000000000NCONT   00    00000000000          00000000000000000000000000000000000000000000 000000000000000A000000000000000000000000000000000000000000000 000000000000000000000000000000000000000     00000000                                                                                                                        000000000000000000
F0010000008619000001000001719393900011050500000000000000000201605170002001JAIRO BASTIDAS RAMIREZ                            D000000007850000000000000000000000100010010000000000000000000000F0010000008619000120160517000101 00000000000000000000000000000000000000000000000000000000000000000000000000000000000000000000000000000000000000000N 00000000000NCONT   00    00000000000          00000000000000000000000000000000000000000000 000000000000000A000000000000000000000000000000000000000000000 000000000000000000000000000000000000000     00000000                                                                                                                        000000000000000000
F0010000008619000002000001719393900041450500000000000000000201605170002001JAIRO BASTIDAS RAMIREZ                            C000000006650000000000000000000000100010010000000000000000000000F0010000008619000220160517000101 00000000000000000000000000000000000000000000000000000000000000000000000000000000000000000000000000000000000000000N 00000000000NCONT   00    00000000000          00000000000000000000000000000000000000000000 000000000000000A000000000000000000000000000000000000000000000 000000000000000000000000000000000000000     00000000                                                                                                                        000000000000000000
F0010000008619000003000001719393900042505000000000000000000201605170002001JAIRO BASTIDAS RAMIREZ                            C000000001200000000000000000000000100010010000000000000000000000F0010000008619000320160517000101 00000000000000000000000000000000000000000000000000000000000000000000000000000000000000000000000000000000000000000N 00000000000NCONT   00    00000000000          00000000000000000000000000000000000000000000 000000000000000A000000000000000000000000000000000000000000000 000000000000000000000000000000000000000     00000000                                                                                                                        000000000000000000
F0010000008619000004000001719393900023658300000000000000000201605170002001JAIRO BASTIDAS RAMIREZ                            C000000000053200000000000000000000100010010000000000000000000000F0010000008619000420160517000101 00000000000000000000000000000000000000000000000000000000000000000000000000000000000000000000000000000000000000000N 00000000000NCONT   00    00000000000          00000000000000000000000000000000000000000000 000000000000000A000000000000000000000000000000000000000000000 000000000000000000000000000000000000000     00000000                                                                                                                        000000000000000000
F0010000008619000005000001719393900013552100000000000000000201605170002001JAIRO BASTIDAS RAMIREZ                            D000000000053200000000000000000000100010010000000000000000000000F0010000008619000520160517000101 00000000000000000000000000000000000000000000000000000000000000000000000000000000000000000000000000000000000000000N 00000000000NCONT   00    00000000000          00000000000000000000000000000000000000000000 000000000000000A000000000000000000000000000000000000000000000 000000000000000000000000000000000000000     00000000                                                                                                                        000000000000000000
F0010000008619100001000000908086400011050500000000000000000201605170002001JOSE DEL CRISTO SANES FERNANDEZ                   D000000001200000000000000000000000100010010000000000000000000000F0010000008619100120160517000101 00000000000000000000000000000000000000000000000000000000000000000000000000000000000000000000000000000000000000000N 00000000000NCONT   00    00000000000          00000000000000000000000000000000000000000000 000000000000000A000000000000000000000000000000000000000000000 000000000000000000000000000000000000000     00000000                                                                                                                        000000000000000000
F0010000008619100002000000908086400041450500000000000000000201605170002001JOSE DEL CRISTO SANES FERNANDEZ                   C000000000800000000000000000000000100010010000000000000000000000F0010000008619100220160517000101 00000000000000000000000000000000000000000000000000000000000000000000000000000000000000000000000000000000000000000N 00000000000NCONT   00    00000000000          00000000000000000000000000000000000000000000 000000000000000A000000000000000000000000000000000000000000000 000000000000000000000000000000000000000     00000000                                                                                                                        000000000000000000
