F0010000006088000001000080200624000011050500000000000000000201407290002001INCLICOL VALVULAS Y CONEXIONES                    D000000003000000000000000000000000100010010000000000000000000000F0010000006088000120140729000101 00000000000000000000000000000000000000000000000000000000000000000000000000000000000000000000000000000000000000000N 00000000000NCONT   00    00000000000          00000000000000000000000000000000000000000000 000000000000000A000000000000000000000000000000000000000000000 000000000000000000000000000000000000000     00000000                                                                                                                        000000000000000000
F0010000006088000002000080200624000041450500000000000000000201407290002001INCLICOL VALVULAS Y CONEXIONES                    C000000002900000000000000000000000100010010000000000000000000000F0010000006088000220140729000101 00000000000000000000000000000000000000000000000000000000000000000000000000000000000000000000000000000000000000000N 00000000000NCONT   00    00000000000          00000000000000000000000000000000000000000000 000000000000000A000000000000000000000000000000000000000000000 000000000000000000000000000000000000000     00000000                                                                                                                        000000000000000000
F0010000006088000003000080200624000042505000000000000000000201407290002001INCLICOL VALVULAS Y CONEXIONES                    C000000000100000000000000000000000100010010000000000000000000000F0010000006088000320140729000101 00000000000000000000000000000000000000000000000000000000000000000000000000000000000000000000000000000000000000000N 00000000000NCONT   00    00000000000          00000000000000000000000000000000000000000000 000000000000000A000000000000000000000000000000000000000000000 000000000000000000000000000000000000000     00000000                                                                                                                        000000000000000000
F0010000006088000004000080200624000023658300000000000000000201407290002001INCLICOL VALVULAS Y CONEXIONES                    C000000000023200000000000000000000100010010000000000000000000000F0010000006088000420140729000101 00000000000000000000000000000000000000000000000000000000000000000000000000000000000000000000000000000000000000000N 00000000000NCONT   00    00000000000          00000000000000000000000000000000000000000000 000000000000000A000000000000000000000000000000000000000000000 000000000000000000000000000000000000000     00000000                                                                                                                        000000000000000000
F0010000006088000005000080200624000013552100000000000000000201407290002001INCLICOL VALVULAS Y CONEXIONES                    D000000000023200000000000000000000100010010000000000000000000000F0010000006088000520140729000101 00000000000000000000000000000000000000000000000000000000000000000000000000000000000000000000000000000000000000000N 00000000000NCONT   00    00000000000          00000000000000000000000000000000000000000000 000000000000000A000000000000000000000000000000000000000000000 000000000000000000000000000000000000000     00000000                                                                                                                        000000000000000000
F0010000006088100001000089090287500011050500000000000000000201407290002001TRANSPORTES RAPIDO                                D000000025000000000000000000000000100010010000000000000000000000F0010000006088100120140729000101 00000000000000000000000000000000000000000000000000000000000000000000000000000000000000000000000000000000000000000N 00000000000NCONT   00    00000000000          00000000000000000000000000000000000000000000 000000000000000A000000000000000000000000000000000000000000000 000000000000000000000000000000000000000     00000000                                                                                                                        000000000000000000
F0010000006088100002000089090287500041450500000000000000000201407290002001TRANSPORTES RAPIDO                                C000000021000000000000000000000000100010010000000000000000000000F0010000006088100220140729000101 00000000000000000000000000000000000000000000000000000000000000000000000000000000000000000000000000000000000000000N 00000000000NCONT   00    00000000000          00000000000000000000000000000000000000000000 000000000000000A000000000000000000000000000000000000000000000 000000000000000000000000000000000000000     00000000                                                                                                                        000000000000000000
F0010000006088100003000089090287500042505000000000000000000201407290002001TRANSPORTES RAPIDO                                C000000004000000000000000000000000100010010000000000000000000000F0010000006088100320140729000101 00000000000000000000000000000000000000000000000000000000000000000000000000000000000000000000000000000000000000000N 00000000000NCONT   00    00000000000          00000000000000000000000000000000000000000000 000000000000000A000000000000000000000000000000000000000000000 000000000000000000000000000000000000000     00000000                                                                                                                        000000000000000000
F0010000006088100004000089090287500023658300000000000000000201407290002001TRANSPORTES RAPIDO                                C000000000168000000000000000000000100010010000000000000000000000F0010000006088100420140729000101 00000000000000000000000000000000000000000000000000000000000000000000000000000000000000000000000000000000000000000N 00000000000NCONT   00    00000000000          00000000000000000000000000000000000000000000 000000000000000A000000000000000000000000000000000000000000000 000000000000000000000000000000000000000     00000000                                                                                                                        000000000000000000
F0010000006088100005000089090287500013552100000000000000000201407290002001TRANSPORTES RAPIDO                                D000000000168000000000000000000000100010010000000000000000000000F0010000006088100520140729000101 00000000000000000000000000000000000000000000000000000000000000000000000000000000000000000000000000000000000000000N 00000000000NCONT   00    00000000000          00000000000000000000000000000000000000000000 000000000000000A000000000000000000000000000000000000000000000 000000000000000000000000000000000000000     00000000                                                                                                                        000000000000000000
F0010000006088200001000000808409100011050500000000000000000201407290002001JOSE LUIS TRILLOS BAYONA                          D000000001300000000000000000000000100010010000000000000000000000F0010000006088200120140729000101 00000000000000000000000000000000000000000000000000000000000000000000000000000000000000000000000000000000000000000N 00000000000NCONT   00    00000000000          00000000000000000000000000000000000000000000 000000000000000A000000000000000000000000000000000000000000000 000000000000000000000000000000000000000     00000000                                                                                                                        000000000000000000
F0010000006088200002000000808409100041450500000000000000000201407290002001JOSE LUIS TRILLOS BAYONA                          C000000001200000000000000000000000100010010000000000000000000000F0010000006088200220140729000101 00000000000000000000000000000000000000000000000000000000000000000000000000000000000000000000000000000000000000000N 00000000000NCONT   00    00000000000          00000000000000000000000000000000000000000000 000000000000000A000000000000000000000000000000000000000000000 000000000000000000000000000000000000000     00000000                                                                                                                        000000000000000000
F0010000006088200003000000808409100042505000000000000000000201407290002001JOSE LUIS TRILLOS BAYONA                          C000000000100000000000000000000000100010010000000000000000000000F0010000006088200320140729000101 00000000000000000000000000000000000000000000000000000000000000000000000000000000000000000000000000000000000000000N 00000000000NCONT   00    00000000000          00000000000000000000000000000000000000000000 000000000000000A000000000000000000000000000000000000000000000 000000000000000000000000000000000000000     00000000                                                                                                                        000000000000000000
F0010000006088200004000000808409100023658300000000000000000201407290002001JOSE LUIS TRILLOS BAYONA                          C000000000009600000000000000000000100010010000000000000000000000F0010000006088200420140729000101 00000000000000000000000000000000000000000000000000000000000000000000000000000000000000000000000000000000000000000N 00000000000NCONT   00    00000000000          00000000000000000000000000000000000000000000 000000000000000A000000000000000000000000000000000000000000000 000000000000000000000000000000000000000     00000000                                                                                                                        000000000000000000
F0010000006088200005000000808409100013552100000000000000000201407290002001JOSE LUIS TRILLOS BAYONA                          D000000000009600000000000000000000100010010000000000000000000000F0010000006088200520140729000101 00000000000000000000000000000000000000000000000000000000000000000000000000000000000000000000000000000000000000000N 00000000000NCONT   00    00000000000          00000000000000000000000000000000000000000000 000000000000000A000000000000000000000000000000000000000000000 000000000000000000000000000000000000000     00000000                                                                                                                        000000000000000000
F0010000006088300001000000747559300011050500000000000000000201407290002001RAFAEL SERRANO                                    D000000001300000000000000000000000100010010000000000000000000000F0010000006088300120140729000101 00000000000000000000000000000000000000000000000000000000000000000000000000000000000000000000000000000000000000000N 00000000000NCONT   00    00000000000          00000000000000000000000000000000000000000000 000000000000000A000000000000000000000000000000000000000000000 000000000000000000000000000000000000000     00000000                                                                                                                        000000000000000000
F0010000006088300002000000747559300041450500000000000000000201407290002001RAFAEL SERRANO                                    C000000001000000000000000000000000100010010000000000000000000000F0010000006088300220140729000101 00000000000000000000000000000000000000000000000000000000000000000000000000000000000000000000000000000000000000000N 00000000000NCONT   00    00000000000          00000000000000000000000000000000000000000000 000000000000000A000000000000000000000000000000000000000000000 000000000000000000000000000000000000000     00000000                                                                                                                        000000000000000000
F0010000006088300003000000747559300042505000000000000000000201407290002001RAFAEL SERRANO                                    C000000000300000000000000000000000100010010000000000000000000000F0010000006088300320140729000101 00000000000000000000000000000000000000000000000000000000000000000000000000000000000000000000000000000000000000000N 00000000000NCONT   00    00000000000          00000000000000000000000000000000000000000000 000000000000000A000000000000000000000000000000000000000000000 000000000000000000000000000000000000000     00000000                                                                                                                        000000000000000000
F0010000006088300004000000747559300023658300000000000000000201407290002001RAFAEL SERRANO                                    C000000000008000000000000000000000100010010000000000000000000000F0010000006088300420140729000101 00000000000000000000000000000000000000000000000000000000000000000000000000000000000000000000000000000000000000000N 00000000000NCONT   00    00000000000          00000000000000000000000000000000000000000000 000000000000000A000000000000000000000000000000000000000000000 000000000000000000000000000000000000000     00000000                                                                                                                        000000000000000000
F0010000006088300005000000747559300013552100000000000000000201407290002001RAFAEL SERRANO                                    D000000000008000000000000000000000100010010000000000000000000000F0010000006088300520140729000101 00000000000000000000000000000000000000000000000000000000000000000000000000000000000000000000000000000000000000000N 00000000000NCONT   00    00000000000          00000000000000000000000000000000000000000000 000000000000000A000000000000000000000000000000000000000000000 000000000000000000000000000000000000000     00000000                                                                                                                        000000000000000000
F0010000006088400001000000747559300011050500000000000000000201407290002001RAFAEL SERRANO                                    D000000001400000000000000000000000100010010000000000000000000000F0010000006088400120140729000101 00000000000000000000000000000000000000000000000000000000000000000000000000000000000000000000000000000000000000000N 00000000000NCONT   00    00000000000          00000000000000000000000000000000000000000000 000000000000000A000000000000000000000000000000000000000000000 000000000000000000000000000000000000000     00000000                                                                                                                        000000000000000000
F0010000006088400002000000747559300041450500000000000000000201407290002001RAFAEL SERRANO                                    C000000001000000000000000000000000100010010000000000000000000000F0010000006088400220140729000101 00000000000000000000000000000000000000000000000000000000000000000000000000000000000000000000000000000000000000000N 00000000000NCONT   00    00000000000          00000000000000000000000000000000000000000000 000000000000000A000000000000000000000000000000000000000000000 000000000000000000000000000000000000000     00000000                                                                                                                        000000000000000000
F0010000006088400003000000747559300042505000000000000000000201407290002001RAFAEL SERRANO                                    C000000000400000000000000000000000100010010000000000000000000000F0010000006088400320140729000101 00000000000000000000000000000000000000000000000000000000000000000000000000000000000000000000000000000000000000000N 00000000000NCONT   00    00000000000          00000000000000000000000000000000000000000000 000000000000000A000000000000000000000000000000000000000000000 000000000000000000000000000000000000000     00000000                                                                                                                        000000000000000000
F0010000006088400004000000747559300023658300000000000000000201407290002001RAFAEL SERRANO                                    C000000000008000000000000000000000100010010000000000000000000000F0010000006088400420140729000101 00000000000000000000000000000000000000000000000000000000000000000000000000000000000000000000000000000000000000000N 00000000000NCONT   00    00000000000          00000000000000000000000000000000000000000000 000000000000000A000000000000000000000000000000000000000000000 000000000000000000000000000000000000000     00000000                                                                                                                        000000000000000000
F0010000006088400005000000747559300013552100000000000000000201407290002001RAFAEL SERRANO                                    D000000000008000000000000000000000100010010000000000000000000000F0010000006088400520140729000101 00000000000000000000000000000000000000000000000000000000000000000000000000000000000000000000000000000000000000000N 00000000000NCONT   00    00000000000          00000000000000000000000000000000000000000000 000000000000000A000000000000000000000000000000000000000000000 000000000000000000000000000000000000000     00000000                                                                                                                        000000000000000000
F0010000006088500001000001502923600011050500000000000000000201407290002001ALCIDES MARTINEZ                                  D000000001000000000000000000000000100010010000000000000000000000F0010000006088500120140729000101 00000000000000000000000000000000000000000000000000000000000000000000000000000000000000000000000000000000000000000N 00000000000NCONT   00    00000000000          00000000000000000000000000000000000000000000 000000000000000A000000000000000000000000000000000000000000000 000000000000000000000000000000000000000     00000000                                                                                                                        000000000000000000
F0010000006088500002000001502923600041450500000000000000000201407290002001ALCIDES MARTINEZ                                  C000000000900000000000000000000000100010010000000000000000000000F0010000006088500220140729000101 00000000000000000000000000000000000000000000000000000000000000000000000000000000000000000000000000000000000000000N 00000000000NCONT   00    00000000000          00000000000000000000000000000000000000000000 000000000000000A000000000000000000000000000000000000000000000 000000000000000000000000000000000000000     00000000                                                                                                                        000000000000000000
F0010000006088500003000001502923600042505000000000000000000201407290002001ALCIDES MARTINEZ                                  C000000000100000000000000000000000100010010000000000000000000000F0010000006088500320140729000101 00000000000000000000000000000000000000000000000000000000000000000000000000000000000000000000000000000000000000000N 00000000000NCONT   00    00000000000          00000000000000000000000000000000000000000000 000000000000000A000000000000000000000000000000000000000000000 000000000000000000000000000000000000000     00000000                                                                                                                        000000000000000000
F0010000006088500004000001502923600023658300000000000000000201407290002001ALCIDES MARTINEZ                                  C000000000007200000000000000000000100010010000000000000000000000F0010000006088500420140729000101 00000000000000000000000000000000000000000000000000000000000000000000000000000000000000000000000000000000000000000N 00000000000NCONT   00    00000000000          00000000000000000000000000000000000000000000 000000000000000A000000000000000000000000000000000000000000000 000000000000000000000000000000000000000     00000000                                                                                                                        000000000000000000
F0010000006088500005000001502923600013552100000000000000000201407290002001ALCIDES MARTINEZ                                  D000000000007200000000000000000000100010010000000000000000000000F0010000006088500520140729000101 00000000000000000000000000000000000000000000000000000000000000000000000000000000000000000000000000000000000000000N 00000000000NCONT   00    00000000000          00000000000000000000000000000000000000000000 000000000000000A000000000000000000000000000000000000000000000 000000000000000000000000000000000000000     00000000                                                                                                                        000000000000000000
F0010000006088600001000001502923600011050500000000000000000201407290002001ALCIDES MARTINEZ                                  D000000001300000000000000000000000100010010000000000000000000000F0010000006088600120140729000101 00000000000000000000000000000000000000000000000000000000000000000000000000000000000000000000000000000000000000000N 00000000000NCONT   00    00000000000          00000000000000000000000000000000000000000000 000000000000000A000000000000000000000000000000000000000000000 000000000000000000000000000000000000000     00000000                                                                                                                        000000000000000000
F0010000006088600002000001502923600041450500000000000000000201407290002001ALCIDES MARTINEZ                                  C000000000900000000000000000000000100010010000000000000000000000F0010000006088600220140729000101 00000000000000000000000000000000000000000000000000000000000000000000000000000000000000000000000000000000000000000N 00000000000NCONT   00    00000000000          00000000000000000000000000000000000000000000 000000000000000A000000000000000000000000000000000000000000000 000000000000000000000000000000000000000     00000000                                                                                                                        000000000000000000
F0010000006088600003000001502923600042505000000000000000000201407290002001ALCIDES MARTINEZ                                  C000000000400000000000000000000000100010010000000000000000000000F0010000006088600320140729000101 00000000000000000000000000000000000000000000000000000000000000000000000000000000000000000000000000000000000000000N 00000000000NCONT   00    00000000000          00000000000000000000000000000000000000000000 000000000000000A000000000000000000000000000000000000000000000 000000000000000000000000000000000000000     00000000                                                                                                                        000000000000000000
F0010000006088600004000001502923600023658300000000000000000201407290002001ALCIDES MARTINEZ                                  C000000000007200000000000000000000100010010000000000000000000000F0010000006088600420140729000101 00000000000000000000000000000000000000000000000000000000000000000000000000000000000000000000000000000000000000000N 00000000000NCONT   00    00000000000          00000000000000000000000000000000000000000000 000000000000000A000000000000000000000000000000000000000000000 000000000000000000000000000000000000000     00000000                                                                                                                        000000000000000000
F0010000006088600005000001502923600013552100000000000000000201407290002001ALCIDES MARTINEZ                                  D000000000007200000000000000000000100010010000000000000000000000F0010000006088600520140729000101 00000000000000000000000000000000000000000000000000000000000000000000000000000000000000000000000000000000000000000N 00000000000NCONT   00    00000000000          00000000000000000000000000000000000000000000 000000000000000A000000000000000000000000000000000000000000000 000000000000000000000000000000000000000     00000000                                                                                                                        000000000000000000
F0010000006088700001000090027633800011050500000000000000000201407290002001MALLAS Y CERRAMIENTOS DEL ATLANTICO LTDA          D000000002000000000000000000000000100010010000000000000000000000F0010000006088700120140729000101 00000000000000000000000000000000000000000000000000000000000000000000000000000000000000000000000000000000000000000N 00000000000NCONT   00    00000000000          00000000000000000000000000000000000000000000 000000000000000A000000000000000000000000000000000000000000000 000000000000000000000000000000000000000     00000000                                                                                                                        000000000000000000
F0010000006088700002000090027633800041450500000000000000000201407290002001MALLAS Y CERRAMIENTOS DEL ATLANTICO LTDA          C000000001800000000000000000000000100010010000000000000000000000F0010000006088700220140729000101 00000000000000000000000000000000000000000000000000000000000000000000000000000000000000000000000000000000000000000N 00000000000NCONT   00    00000000000          00000000000000000000000000000000000000000000 000000000000000A000000000000000000000000000000000000000000000 000000000000000000000000000000000000000     00000000                                                                                                                        000000000000000000
F0010000006088700003000090027633800042505000000000000000000201407290002001MALLAS Y CERRAMIENTOS DEL ATLANTICO LTDA          C000000000200000000000000000000000100010010000000000000000000000F0010000006088700320140729000101 00000000000000000000000000000000000000000000000000000000000000000000000000000000000000000000000000000000000000000N 00000000000NCONT   00    00000000000          00000000000000000000000000000000000000000000 000000000000000A000000000000000000000000000000000000000000000 000000000000000000000000000000000000000     00000000                                                                                                                        000000000000000000
F0010000006088700004000090027633800023658300000000000000000201407290002001MALLAS Y CERRAMIENTOS DEL ATLANTICO LTDA          C000000000014400000000000000000000100010010000000000000000000000F0010000006088700420140729000101 00000000000000000000000000000000000000000000000000000000000000000000000000000000000000000000000000000000000000000N 00000000000NCONT   00    00000000000          00000000000000000000000000000000000000000000 000000000000000A000000000000000000000000000000000000000000000 000000000000000000000000000000000000000     00000000                                                                                                                        000000000000000000
F0010000006088700005000090027633800013552100000000000000000201407290002001MALLAS Y CERRAMIENTOS DEL ATLANTICO LTDA          D000000000014400000000000000000000100010010000000000000000000000F0010000006088700520140729000101 00000000000000000000000000000000000000000000000000000000000000000000000000000000000000000000000000000000000000000N 00000000000NCONT   00    00000000000          00000000000000000000000000000000000000000000 000000000000000A000000000000000000000000000000000000000000000 000000000000000000000000000000000000000     00000000                                                                                                                        000000000000000000
F0010000006088800001000005525050200011050500000000000000000201407290002001PLASTICOS  DE LA COSTA                            D000000000760000000000000000000000100010010000000000000000000000F0010000006088800120140729000101 00000000000000000000000000000000000000000000000000000000000000000000000000000000000000000000000000000000000000000N 00000000000NCONT   00    00000000000          00000000000000000000000000000000000000000000 000000000000000A000000000000000000000000000000000000000000000 000000000000000000000000000000000000000     00000000                                                                                                                        000000000000000000
F0010000006088800002000005525050200041450500000000000000000201407290002001PLASTICOS  DE LA COSTA                            C000000000660000000000000000000000100010010000000000000000000000F0010000006088800220140729000101 00000000000000000000000000000000000000000000000000000000000000000000000000000000000000000000000000000000000000000N 00000000000NCONT   00    00000000000          00000000000000000000000000000000000000000000 000000000000000A000000000000000000000000000000000000000000000 000000000000000000000000000000000000000     00000000                                                                                                                        000000000000000000
F0010000006088800003000005525050200042505000000000000000000201407290002001PLASTICOS  DE LA COSTA                            C000000000100000000000000000000000100010010000000000000000000000F0010000006088800320140729000101 00000000000000000000000000000000000000000000000000000000000000000000000000000000000000000000000000000000000000000N 00000000000NCONT   00    00000000000          00000000000000000000000000000000000000000000 000000000000000A000000000000000000000000000000000000000000000 000000000000000000000000000000000000000     00000000                                                                                                                        000000000000000000
F0010000006088800004000005525050200023658300000000000000000201407290002001PLASTICOS  DE LA COSTA                            C000000000005300000000000000000000100010010000000000000000000000F0010000006088800420140729000101 00000000000000000000000000000000000000000000000000000000000000000000000000000000000000000000000000000000000000000N 00000000000NCONT   00    00000000000          00000000000000000000000000000000000000000000 000000000000000A000000000000000000000000000000000000000000000 000000000000000000000000000000000000000     00000000                                                                                                                        000000000000000000
F0010000006088800005000005525050200013552100000000000000000201407290002001PLASTICOS  DE LA COSTA                            D000000000005300000000000000000000100010010000000000000000000000F0010000006088800520140729000101 00000000000000000000000000000000000000000000000000000000000000000000000000000000000000000000000000000000000000000N 00000000000NCONT   00    00000000000          00000000000000000000000000000000000000000000 000000000000000A000000000000000000000000000000000000000000000 000000000000000000000000000000000000000     00000000                                                                                                                        000000000000000000
F0010000006088900001000000431178400011050500000000000000000201407290002001EFRAIN ALVAREZ                                    D000000000900000000000000000000000100010010000000000000000000000F0010000006088900120140729000101 00000000000000000000000000000000000000000000000000000000000000000000000000000000000000000000000000000000000000000N 00000000000NCONT   00    00000000000          00000000000000000000000000000000000000000000 000000000000000A000000000000000000000000000000000000000000000 000000000000000000000000000000000000000     00000000                                                                                                                        000000000000000000
F0010000006088900002000000431178400041450500000000000000000201407290002001EFRAIN ALVAREZ                                    C000000000850000000000000000000000100010010000000000000000000000F0010000006088900220140729000101 00000000000000000000000000000000000000000000000000000000000000000000000000000000000000000000000000000000000000000N 00000000000NCONT   00    00000000000          00000000000000000000000000000000000000000000 000000000000000A000000000000000000000000000000000000000000000 000000000000000000000000000000000000000     00000000                                                                                                                        000000000000000000
F0010000006088900003000000431178400042505000000000000000000201407290002001EFRAIN ALVAREZ                                    C000000000050000000000000000000000100010010000000000000000000000F0010000006088900320140729000101 00000000000000000000000000000000000000000000000000000000000000000000000000000000000000000000000000000000000000000N 00000000000NCONT   00    00000000000          00000000000000000000000000000000000000000000 000000000000000A000000000000000000000000000000000000000000000 000000000000000000000000000000000000000     00000000                                                                                                                        000000000000000000
F0010000006088900004000000431178400023658300000000000000000201407290002001EFRAIN ALVAREZ                                    C000000000006800000000000000000000100010010000000000000000000000F0010000006088900420140729000101 00000000000000000000000000000000000000000000000000000000000000000000000000000000000000000000000000000000000000000N 00000000000NCONT   00    00000000000          00000000000000000000000000000000000000000000 000000000000000A000000000000000000000000000000000000000000000 000000000000000000000000000000000000000     00000000                                                                                                                        000000000000000000
F0010000006088900005000000431178400013552100000000000000000201407290002001EFRAIN ALVAREZ                                    D000000000006800000000000000000000100010010000000000000000000000F0010000006088900520140729000101 00000000000000000000000000000000000000000000000000000000000000000000000000000000000000000000000000000000000000000N 00000000000NCONT   00    00000000000          00000000000000000000000000000000000000000000 000000000000000A000000000000000000000000000000000000000000000 000000000000000000000000000000000000000     00000000                                                                                                                        000000000000000000
F0010000006089000001000000431178400011050500000000000000000201407290002001EFRAIN ALVAREZ                                    D000000001900000000000000000000000100010010000000000000000000000F0010000006089000120140729000101 00000000000000000000000000000000000000000000000000000000000000000000000000000000000000000000000000000000000000000N 00000000000NCONT   00    00000000000          00000000000000000000000000000000000000000000 000000000000000A000000000000000000000000000000000000000000000 000000000000000000000000000000000000000     00000000                                                                                                                        000000000000000000
F0010000006089000002000000431178400041450500000000000000000201407290002001EFRAIN ALVAREZ                                    C000000001700000000000000000000000100010010000000000000000000000F0010000006089000220140729000101 00000000000000000000000000000000000000000000000000000000000000000000000000000000000000000000000000000000000000000N 00000000000NCONT   00    00000000000          00000000000000000000000000000000000000000000 000000000000000A000000000000000000000000000000000000000000000 000000000000000000000000000000000000000     00000000                                                                                                                        000000000000000000
F0010000006089000003000000431178400042505000000000000000000201407290002001EFRAIN ALVAREZ                                    C000000000200000000000000000000000100010010000000000000000000000F0010000006089000320140729000101 00000000000000000000000000000000000000000000000000000000000000000000000000000000000000000000000000000000000000000N 00000000000NCONT   00    00000000000          00000000000000000000000000000000000000000000 000000000000000A000000000000000000000000000000000000000000000 000000000000000000000000000000000000000     00000000                                                                                                                        000000000000000000
F0010000006089000004000000431178400023658300000000000000000201407290002001EFRAIN ALVAREZ                                    C000000000013600000000000000000000100010010000000000000000000000F0010000006089000420140729000101 00000000000000000000000000000000000000000000000000000000000000000000000000000000000000000000000000000000000000000N 00000000000NCONT   00    00000000000          00000000000000000000000000000000000000000000 000000000000000A000000000000000000000000000000000000000000000 000000000000000000000000000000000000000     00000000                                                                                                                        000000000000000000
F0010000006089000005000000431178400013552100000000000000000201407290002001EFRAIN ALVAREZ                                    D000000000013600000000000000000000100010010000000000000000000000F0010000006089000520140729000101 00000000000000000000000000000000000000000000000000000000000000000000000000000000000000000000000000000000000000000N 00000000000NCONT   00    00000000000          00000000000000000000000000000000000000000000 000000000000000A000000000000000000000000000000000000000000000 000000000000000000000000000000000000000     00000000                                                                                                                        000000000000000000
F0010000006089100001000000431178400011050500000000000000000201407290002001EFRAIN ALVAREZ                                    D000000000950000000000000000000000100010010000000000000000000000F0010000006089100120140729000101 00000000000000000000000000000000000000000000000000000000000000000000000000000000000000000000000000000000000000000N 00000000000NCONT   00    00000000000          00000000000000000000000000000000000000000000 000000000000000A000000000000000000000000000000000000000000000 000000000000000000000000000000000000000     00000000                                                                                                                        000000000000000000
F0010000006089100002000000431178400041450500000000000000000201407290002001EFRAIN ALVAREZ                                    C000000000850000000000000000000000100010010000000000000000000000F0010000006089100220140729000101 00000000000000000000000000000000000000000000000000000000000000000000000000000000000000000000000000000000000000000N 00000000000NCONT   00    00000000000          00000000000000000000000000000000000000000000 000000000000000A000000000000000000000000000000000000000000000 000000000000000000000000000000000000000     00000000                                                                                                                        000000000000000000
F0010000006089100003000000431178400042505000000000000000000201407290002001EFRAIN ALVAREZ                                    C000000000100000000000000000000000100010010000000000000000000000F0010000006089100320140729000101 00000000000000000000000000000000000000000000000000000000000000000000000000000000000000000000000000000000000000000N 00000000000NCONT   00    00000000000          00000000000000000000000000000000000000000000 000000000000000A000000000000000000000000000000000000000000000 000000000000000000000000000000000000000     00000000                                                                                                                        000000000000000000
F0010000006089100004000000431178400023658300000000000000000201407290002001EFRAIN ALVAREZ                                    C000000000006800000000000000000000100010010000000000000000000000F0010000006089100420140729000101 00000000000000000000000000000000000000000000000000000000000000000000000000000000000000000000000000000000000000000N 00000000000NCONT   00    00000000000          00000000000000000000000000000000000000000000 000000000000000A000000000000000000000000000000000000000000000 000000000000000000000000000000000000000     00000000                                                                                                                        000000000000000000
F0010000006089100005000000431178400013552100000000000000000201407290002001EFRAIN ALVAREZ                                    D000000000006800000000000000000000100010010000000000000000000000F0010000006089100520140729000101 00000000000000000000000000000000000000000000000000000000000000000000000000000000000000000000000000000000000000000N 00000000000NCONT   00    00000000000          00000000000000000000000000000000000000000000 000000000000000A000000000000000000000000000000000000000000000 000000000000000000000000000000000000000     00000000                                                                                                                        000000000000000000
F0010000006089200001000007213653800011050500000000000000000201407290002001VICTOR ECHAVEZ                                    D000000002400000000000000000000000100010010000000000000000000000F0010000006089200120140729000101 00000000000000000000000000000000000000000000000000000000000000000000000000000000000000000000000000000000000000000N 00000000000NCONT   00    00000000000          00000000000000000000000000000000000000000000 000000000000000A000000000000000000000000000000000000000000000 000000000000000000000000000000000000000     00000000                                                                                                                        000000000000000000
F0010000006089200002000007213653800041450500000000000000000201407290002001VICTOR ECHAVEZ                                    C000000001800000000000000000000000100010010000000000000000000000F0010000006089200220140729000101 00000000000000000000000000000000000000000000000000000000000000000000000000000000000000000000000000000000000000000N 00000000000NCONT   00    00000000000          00000000000000000000000000000000000000000000 000000000000000A000000000000000000000000000000000000000000000 000000000000000000000000000000000000000     00000000                                                                                                                        000000000000000000
F0010000006089200003000007213653800042505000000000000000000201407290002001VICTOR ECHAVEZ                                    C000000000600000000000000000000000100010010000000000000000000000F0010000006089200320140729000101 00000000000000000000000000000000000000000000000000000000000000000000000000000000000000000000000000000000000000000N 00000000000NCONT   00    00000000000          00000000000000000000000000000000000000000000 000000000000000A000000000000000000000000000000000000000000000 000000000000000000000000000000000000000     00000000                                                                                                                        000000000000000000
F0010000006089200004000007213653800023658300000000000000000201407290002001VICTOR ECHAVEZ                                    C000000000014400000000000000000000100010010000000000000000000000F0010000006089200420140729000101 00000000000000000000000000000000000000000000000000000000000000000000000000000000000000000000000000000000000000000N 00000000000NCONT   00    00000000000          00000000000000000000000000000000000000000000 000000000000000A000000000000000000000000000000000000000000000 000000000000000000000000000000000000000     00000000                                                                                                                        000000000000000000
F0010000006089200005000007213653800013552100000000000000000201407290002001VICTOR ECHAVEZ                                    D000000000014400000000000000000000100010010000000000000000000000F0010000006089200520140729000101 00000000000000000000000000000000000000000000000000000000000000000000000000000000000000000000000000000000000000000N 00000000000NCONT   00    00000000000          00000000000000000000000000000000000000000000 000000000000000A000000000000000000000000000000000000000000000 000000000000000000000000000000000000000     00000000                                                                                                                        000000000000000000
F0010000006089300001000090050144800011050500000000000000000201407290002001PLASTICOS JR ASOCIADOS SAS                        D000000004700000000000000000000000100010010000000000000000000000F0010000006089300120140729000101 00000000000000000000000000000000000000000000000000000000000000000000000000000000000000000000000000000000000000000N 00000000000NCONT   00    00000000000          00000000000000000000000000000000000000000000 000000000000000A000000000000000000000000000000000000000000000 000000000000000000000000000000000000000     00000000                                                                                                                        000000000000000000
F0010000006089300002000090050144800041450500000000000000000201407290002001PLASTICOS JR ASOCIADOS SAS                        C000000003400000000000000000000000100010010000000000000000000000F0010000006089300220140729000101 00000000000000000000000000000000000000000000000000000000000000000000000000000000000000000000000000000000000000000N 00000000000NCONT   00    00000000000          00000000000000000000000000000000000000000000 000000000000000A000000000000000000000000000000000000000000000 000000000000000000000000000000000000000     00000000                                                                                                                        000000000000000000
F0010000006089300003000090050144800042505000000000000000000201407290002001PLASTICOS JR ASOCIADOS SAS                        C000000001300000000000000000000000100010010000000000000000000000F0010000006089300320140729000101 00000000000000000000000000000000000000000000000000000000000000000000000000000000000000000000000000000000000000000N 00000000000NCONT   00    00000000000          00000000000000000000000000000000000000000000 000000000000000A000000000000000000000000000000000000000000000 000000000000000000000000000000000000000     00000000                                                                                                                        000000000000000000
F0010000006089300004000090050144800023658300000000000000000201407290002001PLASTICOS JR ASOCIADOS SAS                        C000000000027200000000000000000000100010010000000000000000000000F0010000006089300420140729000101 00000000000000000000000000000000000000000000000000000000000000000000000000000000000000000000000000000000000000000N 00000000000NCONT   00    00000000000          00000000000000000000000000000000000000000000 000000000000000A000000000000000000000000000000000000000000000 000000000000000000000000000000000000000     00000000                                                                                                                        000000000000000000
F0010000006089300005000090050144800013552100000000000000000201407290002001PLASTICOS JR ASOCIADOS SAS                        D000000000027200000000000000000000100010010000000000000000000000F0010000006089300520140729000101 00000000000000000000000000000000000000000000000000000000000000000000000000000000000000000000000000000000000000000N 00000000000NCONT   00    00000000000          00000000000000000000000000000000000000000000 000000000000000A000000000000000000000000000000000000000000000 000000000000000000000000000000000000000     00000000                                                                                                                        000000000000000000
F0010000006089400001000002245670100011050500000000000000000201407290002001YOLANDA  TOBON                                    D000000002700000000000000000000000100010010000000000000000000000F0010000006089400120140729000101 00000000000000000000000000000000000000000000000000000000000000000000000000000000000000000000000000000000000000000N 00000000000NCONT   00    00000000000          00000000000000000000000000000000000000000000 000000000000000A000000000000000000000000000000000000000000000 000000000000000000000000000000000000000     00000000                                                                                                                        000000000000000000
F0010000006089400002000002245670100041450500000000000000000201407290002001YOLANDA  TOBON                                    C000000002200000000000000000000000100010010000000000000000000000F0010000006089400220140729000101 00000000000000000000000000000000000000000000000000000000000000000000000000000000000000000000000000000000000000000N 00000000000NCONT   00    00000000000          00000000000000000000000000000000000000000000 000000000000000A000000000000000000000000000000000000000000000 000000000000000000000000000000000000000     00000000                                                                                                                        000000000000000000
F0010000006089400003000002245670100042505000000000000000000201407290002001YOLANDA  TOBON                                    C000000000500000000000000000000000100010010000000000000000000000F0010000006089400320140729000101 00000000000000000000000000000000000000000000000000000000000000000000000000000000000000000000000000000000000000000N 00000000000NCONT   00    00000000000          00000000000000000000000000000000000000000000 000000000000000A000000000000000000000000000000000000000000000 000000000000000000000000000000000000000     00000000                                                                                                                        000000000000000000
F0010000006089400004000002245670100023658300000000000000000201407290002001YOLANDA  TOBON                                    C000000000017600000000000000000000100010010000000000000000000000F0010000006089400420140729000101 00000000000000000000000000000000000000000000000000000000000000000000000000000000000000000000000000000000000000000N 00000000000NCONT   00    00000000000          00000000000000000000000000000000000000000000 000000000000000A000000000000000000000000000000000000000000000 000000000000000000000000000000000000000     00000000                                                                                                                        000000000000000000
F0010000006089400005000002245670100013552100000000000000000201407290002001YOLANDA  TOBON                                    D000000000017600000000000000000000100010010000000000000000000000F0010000006089400520140729000101 00000000000000000000000000000000000000000000000000000000000000000000000000000000000000000000000000000000000000000N 00000000000NCONT   00    00000000000          00000000000000000000000000000000000000000000 000000000000000A000000000000000000000000000000000000000000000 000000000000000000000000000000000000000     00000000                                                                                                                        000000000000000000
F0010000006089500001000080202350700011050500000000000000000201407290002001CONNY DE LA COSTA SAS                             D000000000900000000000000000000000100010010000000000000000000000F0010000006089500120140729000101 00000000000000000000000000000000000000000000000000000000000000000000000000000000000000000000000000000000000000000N 00000000000NCONT   00    00000000000          00000000000000000000000000000000000000000000 000000000000000A000000000000000000000000000000000000000000000 000000000000000000000000000000000000000     00000000                                                                                                                        000000000000000000
F0010000006089500002000080202350700041450500000000000000000201407290002001CONNY DE LA COSTA SAS                             C000000000750000000000000000000000100010010000000000000000000000F0010000006089500220140729000101 00000000000000000000000000000000000000000000000000000000000000000000000000000000000000000000000000000000000000000N 00000000000NCONT   00    00000000000          00000000000000000000000000000000000000000000 000000000000000A000000000000000000000000000000000000000000000 000000000000000000000000000000000000000     00000000                                                                                                                        000000000000000000
F0010000006089500003000080202350700042505000000000000000000201407290002001CONNY DE LA COSTA SAS                             C000000000150000000000000000000000100010010000000000000000000000F0010000006089500320140729000101 00000000000000000000000000000000000000000000000000000000000000000000000000000000000000000000000000000000000000000N 00000000000NCONT   00    00000000000          00000000000000000000000000000000000000000000 000000000000000A000000000000000000000000000000000000000000000 000000000000000000000000000000000000000     00000000                                                                                                                        000000000000000000
F0010000006089500004000080202350700023658300000000000000000201407290002001CONNY DE LA COSTA SAS                             C000000000006000000000000000000000100010010000000000000000000000F0010000006089500420140729000101 00000000000000000000000000000000000000000000000000000000000000000000000000000000000000000000000000000000000000000N 00000000000NCONT   00    00000000000          00000000000000000000000000000000000000000000 000000000000000A000000000000000000000000000000000000000000000 000000000000000000000000000000000000000     00000000                                                                                                                        000000000000000000
F0010000006089500005000080202350700013552100000000000000000201407290002001CONNY DE LA COSTA SAS                             D000000000006000000000000000000000100010010000000000000000000000F0010000006089500520140729000101 00000000000000000000000000000000000000000000000000000000000000000000000000000000000000000000000000000000000000000N 00000000000NCONT   00    00000000000          00000000000000000000000000000000000000000000 000000000000000A000000000000000000000000000000000000000000000 000000000000000000000000000000000000000     00000000                                                                                                                        000000000000000000
F0010000006089600001000090043608200011050500000000000000000201407290002001COMERCIALIZADORA LISEB SAS                        D000000009000000000000000000000000100010010000000000000000000000F0010000006089600120140729000101 00000000000000000000000000000000000000000000000000000000000000000000000000000000000000000000000000000000000000000N 00000000000NCONT   00    00000000000          00000000000000000000000000000000000000000000 000000000000000A000000000000000000000000000000000000000000000 000000000000000000000000000000000000000     00000000                                                                                                                        000000000000000000
F0010000006089600002000090043608200041450500000000000000000201407290002001COMERCIALIZADORA LISEB SAS                        C000000008000000000000000000000000100010010000000000000000000000F0010000006089600220140729000101 00000000000000000000000000000000000000000000000000000000000000000000000000000000000000000000000000000000000000000N 00000000000NCONT   00    00000000000          00000000000000000000000000000000000000000000 000000000000000A000000000000000000000000000000000000000000000 000000000000000000000000000000000000000     00000000                                                                                                                        000000000000000000
F0010000006089600003000090043608200042505000000000000000000201407290002001COMERCIALIZADORA LISEB SAS                        C000000001000000000000000000000000100010010000000000000000000000F0010000006089600320140729000101 00000000000000000000000000000000000000000000000000000000000000000000000000000000000000000000000000000000000000000N 00000000000NCONT   00    00000000000          00000000000000000000000000000000000000000000 000000000000000A000000000000000000000000000000000000000000000 000000000000000000000000000000000000000     00000000                                                                                                                        000000000000000000
F0010000006089600004000090043608200023658300000000000000000201407290002001COMERCIALIZADORA LISEB SAS                        C000000000064000000000000000000000100010010000000000000000000000F0010000006089600420140729000101 00000000000000000000000000000000000000000000000000000000000000000000000000000000000000000000000000000000000000000N 00000000000NCONT   00    00000000000          00000000000000000000000000000000000000000000 000000000000000A000000000000000000000000000000000000000000000 000000000000000000000000000000000000000     00000000                                                                                                                        000000000000000000
F0010000006089600005000090043608200013552100000000000000000201407290002001COMERCIALIZADORA LISEB SAS                        D000000000064000000000000000000000100010010000000000000000000000F0010000006089600520140729000101 00000000000000000000000000000000000000000000000000000000000000000000000000000000000000000000000000000000000000000N 00000000000NCONT   00    00000000000          00000000000000000000000000000000000000000000 000000000000000A000000000000000000000000000000000000000000000 000000000000000000000000000000000000000     00000000                                                                                                                        000000000000000000
F0010000006089700001000000870907300011050500000000000000000201407290002001SURTIDOR FERRETERO                                D000000001750000000000000000000000100010010000000000000000000000F0010000006089700120140729000101 00000000000000000000000000000000000000000000000000000000000000000000000000000000000000000000000000000000000000000N 00000000000NCONT   00    00000000000          00000000000000000000000000000000000000000000 000000000000000A000000000000000000000000000000000000000000000 000000000000000000000000000000000000000     00000000                                                                                                                        000000000000000000
F0010000006089700002000000870907300041450500000000000000000201407290002001SURTIDOR FERRETERO                                C000000000750000000000000000000000100010010000000000000000000000F0010000006089700220140729000101 00000000000000000000000000000000000000000000000000000000000000000000000000000000000000000000000000000000000000000N 00000000000NCONT   00    00000000000          00000000000000000000000000000000000000000000 000000000000000A000000000000000000000000000000000000000000000 000000000000000000000000000000000000000     00000000                                                                                                                        000000000000000000
F0010000006089700003000000870907300042505000000000000000000201407290002001SURTIDOR FERRETERO                                C000000001000000000000000000000000100010010000000000000000000000F0010000006089700320140729000101 00000000000000000000000000000000000000000000000000000000000000000000000000000000000000000000000000000000000000000N 00000000000NCONT   00    00000000000          00000000000000000000000000000000000000000000 000000000000000A000000000000000000000000000000000000000000000 000000000000000000000000000000000000000     00000000                                                                                                                        000000000000000000
F0010000006089700004000000870907300023658300000000000000000201407290002001SURTIDOR FERRETERO                                C000000000006000000000000000000000100010010000000000000000000000F0010000006089700420140729000101 00000000000000000000000000000000000000000000000000000000000000000000000000000000000000000000000000000000000000000N 00000000000NCONT   00    00000000000          00000000000000000000000000000000000000000000 000000000000000A000000000000000000000000000000000000000000000 000000000000000000000000000000000000000     00000000                                                                                                                        000000000000000000
F0010000006089700005000000870907300013552100000000000000000201407290002001SURTIDOR FERRETERO                                D000000000006000000000000000000000100010010000000000000000000000F0010000006089700520140729000101 00000000000000000000000000000000000000000000000000000000000000000000000000000000000000000000000000000000000000000N 00000000000NCONT   00    00000000000          00000000000000000000000000000000000000000000 000000000000000A000000000000000000000000000000000000000000000 000000000000000000000000000000000000000     00000000                                                                                                                        000000000000000000
F0010000006089800001000003319910700011050500000000000000000201407290002001LUZ DARY JIMENEZ MARTINEZ                         D000000001100000000000000000000000100010010000000000000000000000F0010000006089800120140729000101 00000000000000000000000000000000000000000000000000000000000000000000000000000000000000000000000000000000000000000N 00000000000NCONT   00    00000000000          00000000000000000000000000000000000000000000 000000000000000A000000000000000000000000000000000000000000000 000000000000000000000000000000000000000     00000000                                                                                                                        000000000000000000
F0010000006089800002000003319910700041450500000000000000000201407290002001LUZ DARY JIMENEZ MARTINEZ                         C000000001000000000000000000000000100010010000000000000000000000F0010000006089800220140729000101 00000000000000000000000000000000000000000000000000000000000000000000000000000000000000000000000000000000000000000N 00000000000NCONT   00    00000000000          00000000000000000000000000000000000000000000 000000000000000A000000000000000000000000000000000000000000000 000000000000000000000000000000000000000     00000000                                                                                                                        000000000000000000
F0010000006089800003000003319910700042505000000000000000000201407290002001LUZ DARY JIMENEZ MARTINEZ                         C000000000100000000000000000000000100010010000000000000000000000F0010000006089800320140729000101 00000000000000000000000000000000000000000000000000000000000000000000000000000000000000000000000000000000000000000N 00000000000NCONT   00    00000000000          00000000000000000000000000000000000000000000 000000000000000A000000000000000000000000000000000000000000000 000000000000000000000000000000000000000     00000000                                                                                                                        000000000000000000
F0010000006089800004000003319910700023658300000000000000000201407290002001LUZ DARY JIMENEZ MARTINEZ                         C000000000008000000000000000000000100010010000000000000000000000F0010000006089800420140729000101 00000000000000000000000000000000000000000000000000000000000000000000000000000000000000000000000000000000000000000N 00000000000NCONT   00    00000000000          00000000000000000000000000000000000000000000 000000000000000A000000000000000000000000000000000000000000000 000000000000000000000000000000000000000     00000000                                                                                                                        000000000000000000
F0010000006089800005000003319910700013552100000000000000000201407290002001LUZ DARY JIMENEZ MARTINEZ                         D000000000008000000000000000000000100010010000000000000000000000F0010000006089800520140729000101 00000000000000000000000000000000000000000000000000000000000000000000000000000000000000000000000000000000000000000N 00000000000NCONT   00    00000000000          00000000000000000000000000000000000000000000 000000000000000A000000000000000000000000000000000000000000000 000000000000000000000000000000000000000     00000000                                                                                                                        000000000000000000
F0010000006089900001000003319910700011050500000000000000000201407290002001LUZ DARY JIMENEZ MARTINEZ                         D000000001100000000000000000000000100010010000000000000000000000F0010000006089900120140729000101 00000000000000000000000000000000000000000000000000000000000000000000000000000000000000000000000000000000000000000N 00000000000NCONT   00    00000000000          00000000000000000000000000000000000000000000 000000000000000A000000000000000000000000000000000000000000000 000000000000000000000000000000000000000     00000000                                                                                                                        000000000000000000
F0010000006089900002000003319910700041450500000000000000000201407290002001LUZ DARY JIMENEZ MARTINEZ                         C000000001000000000000000000000000100010010000000000000000000000F0010000006089900220140729000101 00000000000000000000000000000000000000000000000000000000000000000000000000000000000000000000000000000000000000000N 00000000000NCONT   00    00000000000          00000000000000000000000000000000000000000000 000000000000000A000000000000000000000000000000000000000000000 000000000000000000000000000000000000000     00000000                                                                                                                        000000000000000000
F0010000006089900003000003319910700042505000000000000000000201407290002001LUZ DARY JIMENEZ MARTINEZ                         C000000000100000000000000000000000100010010000000000000000000000F0010000006089900320140729000101 00000000000000000000000000000000000000000000000000000000000000000000000000000000000000000000000000000000000000000N 00000000000NCONT   00    00000000000          00000000000000000000000000000000000000000000 000000000000000A000000000000000000000000000000000000000000000 000000000000000000000000000000000000000     00000000                                                                                                                        000000000000000000
F0010000006089900004000003319910700023658300000000000000000201407290002001LUZ DARY JIMENEZ MARTINEZ                         C000000000008000000000000000000000100010010000000000000000000000F0010000006089900420140729000101 00000000000000000000000000000000000000000000000000000000000000000000000000000000000000000000000000000000000000000N 00000000000NCONT   00    00000000000          00000000000000000000000000000000000000000000 000000000000000A000000000000000000000000000000000000000000000 000000000000000000000000000000000000000     00000000                                                                                                                        000000000000000000
F0010000006089900005000003319910700013552100000000000000000201407290002001LUZ DARY JIMENEZ MARTINEZ                         D000000000008000000000000000000000100010010000000000000000000000F0010000006089900520140729000101 00000000000000000000000000000000000000000000000000000000000000000000000000000000000000000000000000000000000000000N 00000000000NCONT   00    00000000000          00000000000000000000000000000000000000000000 000000000000000A000000000000000000000000000000000000000000000 000000000000000000000000000000000000000     00000000                                                                                                                        000000000000000000
F0010000006090000001000083007900600011050500000000000000000201407290002001EXPRESO ANDINO DE CARGA SA                        D000000014500000000000000000000000100010010000000000000000000000F0010000006090000120140729000101 00000000000000000000000000000000000000000000000000000000000000000000000000000000000000000000000000000000000000000N 00000000000NCONT   00    00000000000          00000000000000000000000000000000000000000000 000000000000000A000000000000000000000000000000000000000000000 000000000000000000000000000000000000000     00000000                                                                                                                        000000000000000000
F0010000006090000002000083007900600041450500000000000000000201407290002001EXPRESO ANDINO DE CARGA SA                        C000000014400000000000000000000000100010010000000000000000000000F0010000006090000220140729000101 00000000000000000000000000000000000000000000000000000000000000000000000000000000000000000000000000000000000000000N 00000000000NCONT   00    00000000000          00000000000000000000000000000000000000000000 000000000000000A000000000000000000000000000000000000000000000 000000000000000000000000000000000000000     00000000                                                                                                                        000000000000000000
F0010000006090000003000083007900600042505000000000000000000201407290002001EXPRESO ANDINO DE CARGA SA                        C000000000100000000000000000000000100010010000000000000000000000F0010000006090000320140729000101 00000000000000000000000000000000000000000000000000000000000000000000000000000000000000000000000000000000000000000N 00000000000NCONT   00    00000000000          00000000000000000000000000000000000000000000 000000000000000A000000000000000000000000000000000000000000000 000000000000000000000000000000000000000     00000000                                                                                                                        000000000000000000
F0010000006090000004000083007900600023658300000000000000000201407290002001EXPRESO ANDINO DE CARGA SA                        C000000000115200000000000000000000100010010000000000000000000000F0010000006090000420140729000101 00000000000000000000000000000000000000000000000000000000000000000000000000000000000000000000000000000000000000000N 00000000000NCONT   00    00000000000          00000000000000000000000000000000000000000000 000000000000000A000000000000000000000000000000000000000000000 000000000000000000000000000000000000000     00000000                                                                                                                        000000000000000000
F0010000006090000005000083007900600013552100000000000000000201407290002001EXPRESO ANDINO DE CARGA SA                        D000000000115200000000000000000000100010010000000000000000000000F0010000006090000520140729000101 00000000000000000000000000000000000000000000000000000000000000000000000000000000000000000000000000000000000000000N 00000000000NCONT   00    00000000000          00000000000000000000000000000000000000000000 000000000000000A000000000000000000000000000000000000000000000 000000000000000000000000000000000000000     00000000                                                                                                                        000000000000000000
F0010000006090100001000083007900600011050500000000000000000201407290002001EXPRESO ANDINO DE CARGA SA                        D000000007300000000000000000000000100010010000000000000000000000F0010000006090100120140729000101 00000000000000000000000000000000000000000000000000000000000000000000000000000000000000000000000000000000000000000N 00000000000NCONT   00    00000000000          00000000000000000000000000000000000000000000 000000000000000A000000000000000000000000000000000000000000000 000000000000000000000000000000000000000     00000000                                                                                                                        000000000000000000
F0010000006090100002000083007900600041450500000000000000000201407290002001EXPRESO ANDINO DE CARGA SA                        C000000007200000000000000000000000100010010000000000000000000000F0010000006090100220140729000101 00000000000000000000000000000000000000000000000000000000000000000000000000000000000000000000000000000000000000000N 00000000000NCONT   00    00000000000          00000000000000000000000000000000000000000000 000000000000000A000000000000000000000000000000000000000000000 000000000000000000000000000000000000000     00000000                                                                                                                        000000000000000000
F0010000006090100003000083007900600042505000000000000000000201407290002001EXPRESO ANDINO DE CARGA SA                        C000000000100000000000000000000000100010010000000000000000000000F0010000006090100320140729000101 00000000000000000000000000000000000000000000000000000000000000000000000000000000000000000000000000000000000000000N 00000000000NCONT   00    00000000000          00000000000000000000000000000000000000000000 000000000000000A000000000000000000000000000000000000000000000 000000000000000000000000000000000000000     00000000                                                                                                                        000000000000000000
F0010000006090100004000083007900600023658300000000000000000201407290002001EXPRESO ANDINO DE CARGA SA                        C000000000057600000000000000000000100010010000000000000000000000F0010000006090100420140729000101 00000000000000000000000000000000000000000000000000000000000000000000000000000000000000000000000000000000000000000N 00000000000NCONT   00    00000000000          00000000000000000000000000000000000000000000 000000000000000A000000000000000000000000000000000000000000000 000000000000000000000000000000000000000     00000000                                                                                                                        000000000000000000
F0010000006090100005000083007900600013552100000000000000000201407290002001EXPRESO ANDINO DE CARGA SA                        D000000000057600000000000000000000100010010000000000000000000000F0010000006090100520140729000101 00000000000000000000000000000000000000000000000000000000000000000000000000000000000000000000000000000000000000000N 00000000000NCONT   00    00000000000          00000000000000000000000000000000000000000000 000000000000000A000000000000000000000000000000000000000000000 000000000000000000000000000000000000000     00000000                                                                                                                        000000000000000000
F0010000006090200001000007229328500011050500000000000000000201407290002001PV ELECTRIC   DEL CARIBE                          D000000001600000000000000000000000100010010000000000000000000000F0010000006090200120140729000101 00000000000000000000000000000000000000000000000000000000000000000000000000000000000000000000000000000000000000000N 00000000000NCONT   00    00000000000          00000000000000000000000000000000000000000000 000000000000000A000000000000000000000000000000000000000000000 000000000000000000000000000000000000000     00000000                                                                                                                        000000000000000000
F0010000006090200002000007229328500041450500000000000000000201407290002001PV ELECTRIC   DEL CARIBE                          C000000001500000000000000000000000100010010000000000000000000000F0010000006090200220140729000101 00000000000000000000000000000000000000000000000000000000000000000000000000000000000000000000000000000000000000000N 00000000000NCONT   00    00000000000          00000000000000000000000000000000000000000000 000000000000000A000000000000000000000000000000000000000000000 000000000000000000000000000000000000000     00000000                                                                                                                        000000000000000000
F0010000006090200003000007229328500042505000000000000000000201407290002001PV ELECTRIC   DEL CARIBE                          C000000000100000000000000000000000100010010000000000000000000000F0010000006090200320140729000101 00000000000000000000000000000000000000000000000000000000000000000000000000000000000000000000000000000000000000000N 00000000000NCONT   00    00000000000          00000000000000000000000000000000000000000000 000000000000000A000000000000000000000000000000000000000000000 000000000000000000000000000000000000000     00000000                                                                                                                        000000000000000000
F0010000006090200004000007229328500023658300000000000000000201407290002001PV ELECTRIC   DEL CARIBE                          C000000000012000000000000000000000100010010000000000000000000000F0010000006090200420140729000101 00000000000000000000000000000000000000000000000000000000000000000000000000000000000000000000000000000000000000000N 00000000000NCONT   00    00000000000          00000000000000000000000000000000000000000000 000000000000000A000000000000000000000000000000000000000000000 000000000000000000000000000000000000000     00000000                                                                                                                        000000000000000000
F0010000006090200005000007229328500013552100000000000000000201407290002001PV ELECTRIC   DEL CARIBE                          D000000000012000000000000000000000100010010000000000000000000000F0010000006090200520140729000101 00000000000000000000000000000000000000000000000000000000000000000000000000000000000000000000000000000000000000000N 00000000000NCONT   00    00000000000          00000000000000000000000000000000000000000000 000000000000000A000000000000000000000000000000000000000000000 000000000000000000000000000000000000000     00000000                                                                                                                        000000000000000000
F0010000006090300001000007229328500011050500000000000000000201407290002001PV ELECTRIC   DEL CARIBE                          D000000005950000000000000000000000100010010000000000000000000000F0010000006090300120140729000101 00000000000000000000000000000000000000000000000000000000000000000000000000000000000000000000000000000000000000000N 00000000000NCONT   00    00000000000          00000000000000000000000000000000000000000000 000000000000000A000000000000000000000000000000000000000000000 000000000000000000000000000000000000000     00000000                                                                                                                        000000000000000000
F0010000006090300002000007229328500041450500000000000000000201407290002001PV ELECTRIC   DEL CARIBE                          C000000005250000000000000000000000100010010000000000000000000000F0010000006090300220140729000101 00000000000000000000000000000000000000000000000000000000000000000000000000000000000000000000000000000000000000000N 00000000000NCONT   00    00000000000          00000000000000000000000000000000000000000000 000000000000000A000000000000000000000000000000000000000000000 000000000000000000000000000000000000000     00000000                                                                                                                        000000000000000000
F0010000006090300003000007229328500042505000000000000000000201407290002001PV ELECTRIC   DEL CARIBE                          C000000000700000000000000000000000100010010000000000000000000000F0010000006090300320140729000101 00000000000000000000000000000000000000000000000000000000000000000000000000000000000000000000000000000000000000000N 00000000000NCONT   00    00000000000          00000000000000000000000000000000000000000000 000000000000000A000000000000000000000000000000000000000000000 000000000000000000000000000000000000000     00000000                                                                                                                        000000000000000000
F0010000006090300004000007229328500023658300000000000000000201407290002001PV ELECTRIC   DEL CARIBE                          C000000000042000000000000000000000100010010000000000000000000000F0010000006090300420140729000101 00000000000000000000000000000000000000000000000000000000000000000000000000000000000000000000000000000000000000000N 00000000000NCONT   00    00000000000          00000000000000000000000000000000000000000000 000000000000000A000000000000000000000000000000000000000000000 000000000000000000000000000000000000000     00000000                                                                                                                        000000000000000000
F0010000006090300005000007229328500013552100000000000000000201407290002001PV ELECTRIC   DEL CARIBE                          D000000000042000000000000000000000100010010000000000000000000000F0010000006090300520140729000101 00000000000000000000000000000000000000000000000000000000000000000000000000000000000000000000000000000000000000000N 00000000000NCONT   00    00000000000          00000000000000000000000000000000000000000000 000000000000000A000000000000000000000000000000000000000000000 000000000000000000000000000000000000000     00000000                                                                                                                        000000000000000000
F0010000006090400001000007229328500011050500000000000000000201407290002001PV ELECTRIC   DEL CARIBE                          D000000013300000000000000000000000100010010000000000000000000000F0010000006090400120140729000101 00000000000000000000000000000000000000000000000000000000000000000000000000000000000000000000000000000000000000000N 00000000000NCONT   00    00000000000          00000000000000000000000000000000000000000000 000000000000000A000000000000000000000000000000000000000000000 000000000000000000000000000000000000000     00000000                                                                                                                        000000000000000000
F0010000006090400002000007229328500041450500000000000000000201407290002001PV ELECTRIC   DEL CARIBE                          C000000012000000000000000000000000100010010000000000000000000000F0010000006090400220140729000101 00000000000000000000000000000000000000000000000000000000000000000000000000000000000000000000000000000000000000000N 00000000000NCONT   00    00000000000          00000000000000000000000000000000000000000000 000000000000000A000000000000000000000000000000000000000000000 000000000000000000000000000000000000000     00000000                                                                                                                        000000000000000000
F0010000006090400003000007229328500042505000000000000000000201407290002001PV ELECTRIC   DEL CARIBE                          C000000001300000000000000000000000100010010000000000000000000000F0010000006090400320140729000101 00000000000000000000000000000000000000000000000000000000000000000000000000000000000000000000000000000000000000000N 00000000000NCONT   00    00000000000          00000000000000000000000000000000000000000000 000000000000000A000000000000000000000000000000000000000000000 000000000000000000000000000000000000000     00000000                                                                                                                        000000000000000000
F0010000006090400004000007229328500023658300000000000000000201407290002001PV ELECTRIC   DEL CARIBE                          C000000000096000000000000000000000100010010000000000000000000000F0010000006090400420140729000101 00000000000000000000000000000000000000000000000000000000000000000000000000000000000000000000000000000000000000000N 00000000000NCONT   00    00000000000          00000000000000000000000000000000000000000000 000000000000000A000000000000000000000000000000000000000000000 000000000000000000000000000000000000000     00000000                                                                                                                        000000000000000000
F0010000006090400005000007229328500013552100000000000000000201407290002001PV ELECTRIC   DEL CARIBE                          D000000000096000000000000000000000100010010000000000000000000000F0010000006090400520140729000101 00000000000000000000000000000000000000000000000000000000000000000000000000000000000000000000000000000000000000000N 00000000000NCONT   00    00000000000          00000000000000000000000000000000000000000000 000000000000000A000000000000000000000000000000000000000000000 000000000000000000000000000000000000000     00000000                                                                                                                        000000000000000000
F0010000006090500001000003314755400011050500000000000000000201407290002001DISTRIBUCIONES RUMA                               D000000001700000000000000000000000100010010000000000000000000000F0010000006090500120140729000101 00000000000000000000000000000000000000000000000000000000000000000000000000000000000000000000000000000000000000000N 00000000000NCONT   00    00000000000          00000000000000000000000000000000000000000000 000000000000000A000000000000000000000000000000000000000000000 000000000000000000000000000000000000000     00000000                                                                                                                        000000000000000000
F0010000006090500002000003314755400041450500000000000000000201407290002001DISTRIBUCIONES RUMA                               C000000001200000000000000000000000100010010000000000000000000000F0010000006090500220140729000101 00000000000000000000000000000000000000000000000000000000000000000000000000000000000000000000000000000000000000000N 00000000000NCONT   00    00000000000          00000000000000000000000000000000000000000000 000000000000000A000000000000000000000000000000000000000000000 000000000000000000000000000000000000000     00000000                                                                                                                        000000000000000000
F0010000006090500003000003314755400042505000000000000000000201407290002001DISTRIBUCIONES RUMA                               C000000000500000000000000000000000100010010000000000000000000000F0010000006090500320140729000101 00000000000000000000000000000000000000000000000000000000000000000000000000000000000000000000000000000000000000000N 00000000000NCONT   00    00000000000          00000000000000000000000000000000000000000000 000000000000000A000000000000000000000000000000000000000000000 000000000000000000000000000000000000000     00000000                                                                                                                        000000000000000000
F0010000006090500004000003314755400023658300000000000000000201407290002001DISTRIBUCIONES RUMA                               C000000000009600000000000000000000100010010000000000000000000000F0010000006090500420140729000101 00000000000000000000000000000000000000000000000000000000000000000000000000000000000000000000000000000000000000000N 00000000000NCONT   00    00000000000          00000000000000000000000000000000000000000000 000000000000000A000000000000000000000000000000000000000000000 000000000000000000000000000000000000000     00000000                                                                                                                        000000000000000000
F0010000006090500005000003314755400013552100000000000000000201407290002001DISTRIBUCIONES RUMA                               D000000000009600000000000000000000100010010000000000000000000000F0010000006090500520140729000101 00000000000000000000000000000000000000000000000000000000000000000000000000000000000000000000000000000000000000000N 00000000000NCONT   00    00000000000          00000000000000000000000000000000000000000000 000000000000000A000000000000000000000000000000000000000000000 000000000000000000000000000000000000000     00000000                                                                                                                        000000000000000000
F0010000006090600001000080002353300011050500000000000000000201407290002001RUMATEX DE COLOMBIA                               D000000001100000000000000000000000100010010000000000000000000000F0010000006090600120140729000101 00000000000000000000000000000000000000000000000000000000000000000000000000000000000000000000000000000000000000000N 00000000000NCONT   00    00000000000          00000000000000000000000000000000000000000000 000000000000000A000000000000000000000000000000000000000000000 000000000000000000000000000000000000000     00000000                                                                                                                        000000000000000000
F0010000006090600002000080002353300041450500000000000000000201407290002001RUMATEX DE COLOMBIA                               C000000000900000000000000000000000100010010000000000000000000000F0010000006090600220140729000101 00000000000000000000000000000000000000000000000000000000000000000000000000000000000000000000000000000000000000000N 00000000000NCONT   00    00000000000          00000000000000000000000000000000000000000000 000000000000000A000000000000000000000000000000000000000000000 000000000000000000000000000000000000000     00000000                                                                                                                        000000000000000000
F0010000006090600003000080002353300042505000000000000000000201407290002001RUMATEX DE COLOMBIA                               C000000000200000000000000000000000100010010000000000000000000000F0010000006090600320140729000101 00000000000000000000000000000000000000000000000000000000000000000000000000000000000000000000000000000000000000000N 00000000000NCONT   00    00000000000          00000000000000000000000000000000000000000000 000000000000000A000000000000000000000000000000000000000000000 000000000000000000000000000000000000000     00000000                                                                                                                        000000000000000000
F0010000006090600004000080002353300023658300000000000000000201407290002001RUMATEX DE COLOMBIA                               C000000000007200000000000000000000100010010000000000000000000000F0010000006090600420140729000101 00000000000000000000000000000000000000000000000000000000000000000000000000000000000000000000000000000000000000000N 00000000000NCONT   00    00000000000          00000000000000000000000000000000000000000000 000000000000000A000000000000000000000000000000000000000000000 000000000000000000000000000000000000000     00000000                                                                                                                        000000000000000000
F0010000006090600005000080002353300013552100000000000000000201407290002001RUMATEX DE COLOMBIA                               D000000000007200000000000000000000100010010000000000000000000000F0010000006090600520140729000101 00000000000000000000000000000000000000000000000000000000000000000000000000000000000000000000000000000000000000000N 00000000000NCONT   00    00000000000          00000000000000000000000000000000000000000000 000000000000000A000000000000000000000000000000000000000000000 000000000000000000000000000000000000000     00000000                                                                                                                        000000000000000000
F0010000006090700001000080002353300011050500000000000000000201407290002001RUMATEX DE COLOMBIA                               D000000001500000000000000000000000100010010000000000000000000000F0010000006090700120140729000101 00000000000000000000000000000000000000000000000000000000000000000000000000000000000000000000000000000000000000000N 00000000000NCONT   00    00000000000          00000000000000000000000000000000000000000000 000000000000000A000000000000000000000000000000000000000000000 000000000000000000000000000000000000000     00000000                                                                                                                        000000000000000000
F0010000006090700002000080002353300041450500000000000000000201407290002001RUMATEX DE COLOMBIA                               C000000001200000000000000000000000100010010000000000000000000000F0010000006090700220140729000101 00000000000000000000000000000000000000000000000000000000000000000000000000000000000000000000000000000000000000000N 00000000000NCONT   00    00000000000          00000000000000000000000000000000000000000000 000000000000000A000000000000000000000000000000000000000000000 000000000000000000000000000000000000000     00000000                                                                                                                        000000000000000000
F0010000006090700003000080002353300042505000000000000000000201407290002001RUMATEX DE COLOMBIA                               C000000000300000000000000000000000100010010000000000000000000000F0010000006090700320140729000101 00000000000000000000000000000000000000000000000000000000000000000000000000000000000000000000000000000000000000000N 00000000000NCONT   00    00000000000          00000000000000000000000000000000000000000000 000000000000000A000000000000000000000000000000000000000000000 000000000000000000000000000000000000000     00000000                                                                                                                        000000000000000000
F0010000006090700004000080002353300023658300000000000000000201407290002001RUMATEX DE COLOMBIA                               C000000000009600000000000000000000100010010000000000000000000000F0010000006090700420140729000101 00000000000000000000000000000000000000000000000000000000000000000000000000000000000000000000000000000000000000000N 00000000000NCONT   00    00000000000          00000000000000000000000000000000000000000000 000000000000000A000000000000000000000000000000000000000000000 000000000000000000000000000000000000000     00000000                                                                                                                        000000000000000000
F0010000006090700005000080002353300013552100000000000000000201407290002001RUMATEX DE COLOMBIA                               D000000000009600000000000000000000100010010000000000000000000000F0010000006090700520140729000101 00000000000000000000000000000000000000000000000000000000000000000000000000000000000000000000000000000000000000000N 00000000000NCONT   00    00000000000          00000000000000000000000000000000000000000000 000000000000000A000000000000000000000000000000000000000000000 000000000000000000000000000000000000000     00000000                                                                                                                        000000000000000000
F0010000006090800001000090007142100011050500000000000000000201407290002001TODO BELLEZA Y MAX S.A.S                          D000000001250000000000000000000000100010010000000000000000000000F0010000006090800120140729000101 00000000000000000000000000000000000000000000000000000000000000000000000000000000000000000000000000000000000000000N 00000000000NCONT   00    00000000000          00000000000000000000000000000000000000000000 000000000000000A000000000000000000000000000000000000000000000 000000000000000000000000000000000000000     00000000                                                                                                                        000000000000000000
F0010000006090800002000090007142100041450500000000000000000201407290002001TODO BELLEZA Y MAX S.A.S                          C000000001200000000000000000000000100010010000000000000000000000F0010000006090800220140729000101 00000000000000000000000000000000000000000000000000000000000000000000000000000000000000000000000000000000000000000N 00000000000NCONT   00    00000000000          00000000000000000000000000000000000000000000 000000000000000A000000000000000000000000000000000000000000000 000000000000000000000000000000000000000     00000000                                                                                                                        000000000000000000
F0010000006090800003000090007142100042505000000000000000000201407290002001TODO BELLEZA Y MAX S.A.S                          C000000000050000000000000000000000100010010000000000000000000000F0010000006090800320140729000101 00000000000000000000000000000000000000000000000000000000000000000000000000000000000000000000000000000000000000000N 00000000000NCONT   00    00000000000          00000000000000000000000000000000000000000000 000000000000000A000000000000000000000000000000000000000000000 000000000000000000000000000000000000000     00000000                                                                                                                        000000000000000000
F0010000006090800004000090007142100023658300000000000000000201407290002001TODO BELLEZA Y MAX S.A.S                          C000000000009600000000000000000000100010010000000000000000000000F0010000006090800420140729000101 00000000000000000000000000000000000000000000000000000000000000000000000000000000000000000000000000000000000000000N 00000000000NCONT   00    00000000000          00000000000000000000000000000000000000000000 000000000000000A000000000000000000000000000000000000000000000 000000000000000000000000000000000000000     00000000                                                                                                                        000000000000000000
F0010000006090800005000090007142100013552100000000000000000201407290002001TODO BELLEZA Y MAX S.A.S                          D000000000009600000000000000000000100010010000000000000000000000F0010000006090800520140729000101 00000000000000000000000000000000000000000000000000000000000000000000000000000000000000000000000000000000000000000N 00000000000NCONT   00    00000000000          00000000000000000000000000000000000000000000 000000000000000A000000000000000000000000000000000000000000000 000000000000000000000000000000000000000     00000000                                                                                                                        000000000000000000
F0010000006090900001000090007142100011050500000000000000000201407290002001TODO BELLEZA Y MAX S.A.S                          D000000003675000000000000000000000100010010000000000000000000000F0010000006090900120140729000101 00000000000000000000000000000000000000000000000000000000000000000000000000000000000000000000000000000000000000000N 00000000000NCONT   00    00000000000          00000000000000000000000000000000000000000000 000000000000000A000000000000000000000000000000000000000000000 000000000000000000000000000000000000000     00000000                                                                                                                        000000000000000000
F0010000006090900002000090007142100041450500000000000000000201407290002001TODO BELLEZA Y MAX S.A.S                          C000000003600000000000000000000000100010010000000000000000000000F0010000006090900220140729000101 00000000000000000000000000000000000000000000000000000000000000000000000000000000000000000000000000000000000000000N 00000000000NCONT   00    00000000000          00000000000000000000000000000000000000000000 000000000000000A000000000000000000000000000000000000000000000 000000000000000000000000000000000000000     00000000                                                                                                                        000000000000000000
