F0010000007821700001000000866048200011050500000000000000000201510290002001REGINALDO TURIZO                                  D000000001900000000000000000000000100010010000000000000000000000F0010000007821700120151029000101 00000000000000000000000000000000000000000000000000000000000000000000000000000000000000000000000000000000000000000N 00000000000NCONT   00    00000000000          00000000000000000000000000000000000000000000 000000000000000A000000000000000000000000000000000000000000000 000000000000000000000000000000000000000     00000000                                                                                                                        000000000000000000
F0010000007821700002000000866048200041450500000000000000000201510290002001REGINALDO TURIZO                                  C000000001200000000000000000000000100010010000000000000000000000F0010000007821700220151029000101 00000000000000000000000000000000000000000000000000000000000000000000000000000000000000000000000000000000000000000N 00000000000NCONT   00    00000000000          00000000000000000000000000000000000000000000 000000000000000A000000000000000000000000000000000000000000000 000000000000000000000000000000000000000     00000000                                                                                                                        000000000000000000
F0010000007821700003000000866048200042505000000000000000000201510290002001REGINALDO TURIZO                                  C000000000700000000000000000000000100010010000000000000000000000F0010000007821700320151029000101 00000000000000000000000000000000000000000000000000000000000000000000000000000000000000000000000000000000000000000N 00000000000NCONT   00    00000000000          00000000000000000000000000000000000000000000 000000000000000A000000000000000000000000000000000000000000000 000000000000000000000000000000000000000     00000000                                                                                                                        000000000000000000
F0010000007821700004000000866048200023658300000000000000000201510290002001REGINALDO TURIZO                                  C000000000009600000000000000000000100010010000000000000000000000F0010000007821700420151029000101 00000000000000000000000000000000000000000000000000000000000000000000000000000000000000000000000000000000000000000N 00000000000NCONT   00    00000000000          00000000000000000000000000000000000000000000 000000000000000A000000000000000000000000000000000000000000000 000000000000000000000000000000000000000     00000000                                                                                                                        000000000000000000
F0010000007821700005000000866048200013552100000000000000000201510290002001REGINALDO TURIZO                                  D000000000009600000000000000000000100010010000000000000000000000F0010000007821700520151029000101 00000000000000000000000000000000000000000000000000000000000000000000000000000000000000000000000000000000000000000N 00000000000NCONT   00    00000000000          00000000000000000000000000000000000000000000 000000000000000A000000000000000000000000000000000000000000000 000000000000000000000000000000000000000     00000000                                                                                                                        000000000000000000
F0010000007821800001000002245670100013050500000000000000000201510290002001YOLANDA  TOBON                                    D000000041399800000000000000000000100010010000000000000000000000F0010000007821800120151029000101 00000000000000000000000000000000000000000000000000000000000000000000000000000000000000000000000000000000000000000N 00000000000NCONT   00    00000000000          00000000000000000000000000000000000000000000 000000000000000A000000000000000000000000000000000000000000000 000000000000000000000000000000000000000     00000000                                                                                                                        000000000000000000
F0010000007821800002000002245670100041450500000000000000000201510290002001YOLANDA  TOBON                                    C000000032440000000000000000000000100010010000000000000000000000F0010000007821800220151029000101 00000000000000000000000000000000000000000000000000000000000000000000000000000000000000000000000000000000000000000N 00000000000NCONT   00    00000000000          00000000000000000000000000000000000000000000 000000000000000A000000000000000000000000000000000000000000000 000000000000000000000000000000000000000     00000000                                                                                                                        000000000000000000
F0010000007821800003000002245670100042505000000000000000000201510290002001YOLANDA  TOBON                                    C000000008959800000000000000000000100010010000000000000000000000F0010000007821800320151029000101 00000000000000000000000000000000000000000000000000000000000000000000000000000000000000000000000000000000000000000N 00000000000NCONT   00    00000000000          00000000000000000000000000000000000000000000 000000000000000A000000000000000000000000000000000000000000000 000000000000000000000000000000000000000     00000000                                                                                                                        000000000000000000
F0010000007821800004000002245670100023658300000000000000000201510290002001YOLANDA  TOBON                                    C000000000259500000000000000000000100010010000000000000000000000F0010000007821800420151029000101 00000000000000000000000000000000000000000000000000000000000000000000000000000000000000000000000000000000000000000N 00000000000NCONT   00    00000000000          00000000000000000000000000000000000000000000 000000000000000A000000000000000000000000000000000000000000000 000000000000000000000000000000000000000     00000000                                                                                                                        000000000000000000
F0010000007821800005000002245670100013552100000000000000000201510290002001YOLANDA  TOBON                                    D000000000259500000000000000000000100010010000000000000000000000F0010000007821800520151029000101 00000000000000000000000000000000000000000000000000000000000000000000000000000000000000000000000000000000000000000N 00000000000NCONT   00    00000000000          00000000000000000000000000000000000000000000 000000000000000A000000000000000000000000000000000000000000000 000000000000000000000000000000000000000     00000000                                                                                                                        000000000000000000
F0010000007821900001000000748239700013050500000000000000000201510290002001RAFAEL NAVARRO URIBE                              D000000054074000000000000000000000100010010000000000000000000000F0010000007821900120151029000101 00000000000000000000000000000000000000000000000000000000000000000000000000000000000000000000000000000000000000000N 00000000000NCONT   00    00000000000          00000000000000000000000000000000000000000000 000000000000000A000000000000000000000000000000000000000000000 000000000000000000000000000000000000000     00000000                                                                                                                        000000000000000000
F0010000007821900002000000748239700041450500000000000000000201510290002001RAFAEL NAVARRO URIBE                              C000000044910000000000000000000000100010010000000000000000000000F0010000007821900220151029000101 00000000000000000000000000000000000000000000000000000000000000000000000000000000000000000000000000000000000000000N 00000000000NCONT   00    00000000000          00000000000000000000000000000000000000000000 000000000000000A000000000000000000000000000000000000000000000 000000000000000000000000000000000000000     00000000                                                                                                                        000000000000000000
F0010000007821900003000000748239700042505000000000000000000201510290002001RAFAEL NAVARRO URIBE                              C000000009164000000000000000000000100010010000000000000000000000F0010000007821900320151029000101 00000000000000000000000000000000000000000000000000000000000000000000000000000000000000000000000000000000000000000N 00000000000NCONT   00    00000000000          00000000000000000000000000000000000000000000 000000000000000A000000000000000000000000000000000000000000000 000000000000000000000000000000000000000     00000000                                                                                                                        000000000000000000
F0010000007821900004000000748239700023658300000000000000000201510290002001RAFAEL NAVARRO URIBE                              C000000000359300000000000000000000100010010000000000000000000000F0010000007821900420151029000101 00000000000000000000000000000000000000000000000000000000000000000000000000000000000000000000000000000000000000000N 00000000000NCONT   00    00000000000          00000000000000000000000000000000000000000000 000000000000000A000000000000000000000000000000000000000000000 000000000000000000000000000000000000000     00000000                                                                                                                        000000000000000000
F0010000007821900005000000748239700013552100000000000000000201510290002001RAFAEL NAVARRO URIBE                              D000000000359300000000000000000000100010010000000000000000000000F0010000007821900520151029000101 00000000000000000000000000000000000000000000000000000000000000000000000000000000000000000000000000000000000000000N 00000000000NCONT   00    00000000000          00000000000000000000000000000000000000000000 000000000000000A000000000000000000000000000000000000000000000 000000000000000000000000000000000000000     00000000                                                                                                                        000000000000000000
F0010000007822000001000090009800500013050500000000000000000201510290002001GLORIANT CHEMICAL DE COLOMBIA LTDA                D000000067972000000000000000000000100010010000000000000000000000F0010000007822000120151029000101 00000000000000000000000000000000000000000000000000000000000000000000000000000000000000000000000000000000000000000N 00000000000NCONT   00    00000000000          00000000000000000000000000000000000000000000 000000000000000A000000000000000000000000000000000000000000000 000000000000000000000000000000000000000     00000000                                                                                                                        000000000000000000
F0010000007822000002000090009800500041450500000000000000000201510290002001GLORIANT CHEMICAL DE COLOMBIA LTDA                C000000057720000000000000000000000100010010000000000000000000000F0010000007822000220151029000101 00000000000000000000000000000000000000000000000000000000000000000000000000000000000000000000000000000000000000000N 00000000000NCONT   00    00000000000          00000000000000000000000000000000000000000000 000000000000000A000000000000000000000000000000000000000000000 000000000000000000000000000000000000000     00000000                                                                                                                        000000000000000000
F0010000007822000003000090009800500042505000000000000000000201510290002001GLORIANT CHEMICAL DE COLOMBIA LTDA                C000000010252000000000000000000000100010010000000000000000000000F0010000007822000320151029000101 00000000000000000000000000000000000000000000000000000000000000000000000000000000000000000000000000000000000000000N 00000000000NCONT   00    00000000000          00000000000000000000000000000000000000000000 000000000000000A000000000000000000000000000000000000000000000 000000000000000000000000000000000000000     00000000                                                                                                                        000000000000000000
F0010000007822000004000090009800500023658300000000000000000201510290002001GLORIANT CHEMICAL DE COLOMBIA LTDA                C000000000461800000000000000000000100010010000000000000000000000F0010000007822000420151029000101 00000000000000000000000000000000000000000000000000000000000000000000000000000000000000000000000000000000000000000N 00000000000NCONT   00    00000000000          00000000000000000000000000000000000000000000 000000000000000A000000000000000000000000000000000000000000000 000000000000000000000000000000000000000     00000000                                                                                                                        000000000000000000
F0010000007822000005000090009800500013552100000000000000000201510290002001GLORIANT CHEMICAL DE COLOMBIA LTDA                D000000000461800000000000000000000100010010000000000000000000000F0010000007822000520151029000101 00000000000000000000000000000000000000000000000000000000000000000000000000000000000000000000000000000000000000000N 00000000000NCONT   00    00000000000          00000000000000000000000000000000000000000000 000000000000000A000000000000000000000000000000000000000000000 000000000000000000000000000000000000000     00000000                                                                                                                        000000000000000000
F0010000007822100001000080022903500013050500000000000000000201510290002001TECNOGLASS S.A                                    D000000093791700000000000000000000100010010000000000000000000000F0010000007822100120151029000101 00000000000000000000000000000000000000000000000000000000000000000000000000000000000000000000000000000000000000000N 00000000000NCONT   00    00000000000          00000000000000000000000000000000000000000000 000000000000000A000000000000000000000000000000000000000000000 000000000000000000000000000000000000000     00000000                                                                                                                        000000000000000000
F0010000007822100002000080022903500041450500000000000000000201510290002001TECNOGLASS S.A                                    C000000082430000000000000000000000100010010000000000000000000000F0010000007822100220151029000101 00000000000000000000000000000000000000000000000000000000000000000000000000000000000000000000000000000000000000000N 00000000000NCONT   00    00000000000          00000000000000000000000000000000000000000000 000000000000000A000000000000000000000000000000000000000000000 000000000000000000000000000000000000000     00000000                                                                                                                        000000000000000000
F0010000007822100003000080022903500042505000000000000000000201510290002001TECNOGLASS S.A                                    C000000011361700000000000000000000100010010000000000000000000000F0010000007822100320151029000101 00000000000000000000000000000000000000000000000000000000000000000000000000000000000000000000000000000000000000000N 00000000000NCONT   00    00000000000          00000000000000000000000000000000000000000000 000000000000000A000000000000000000000000000000000000000000000 000000000000000000000000000000000000000     00000000                                                                                                                        000000000000000000
F0010000007822100004000080022903500023658300000000000000000201510290002001TECNOGLASS S.A                                    C000000000659400000000000000000000100010010000000000000000000000F0010000007822100420151029000101 00000000000000000000000000000000000000000000000000000000000000000000000000000000000000000000000000000000000000000N 00000000000NCONT   00    00000000000          00000000000000000000000000000000000000000000 000000000000000A000000000000000000000000000000000000000000000 000000000000000000000000000000000000000     00000000                                                                                                                        000000000000000000
F0010000007822100005000080022903500013552100000000000000000201510290002001TECNOGLASS S.A                                    D000000000659400000000000000000000100010010000000000000000000000F0010000007822100520151029000101 00000000000000000000000000000000000000000000000000000000000000000000000000000000000000000000000000000000000000000N 00000000000NCONT   00    00000000000          00000000000000000000000000000000000000000000 000000000000000A000000000000000000000000000000000000000000000 000000000000000000000000000000000000000     00000000                                                                                                                        000000000000000000
F0010000007822200001000000871714900013050500000000000000000201510290002001ROLNAN DE LA ROSA  INSIGNARES                     D000000045528000000000000000000000100010010000000000000000000000F0010000007822200120151029000101 00000000000000000000000000000000000000000000000000000000000000000000000000000000000000000000000000000000000000000N 00000000000NCONT   00    00000000000          00000000000000000000000000000000000000000000 000000000000000A000000000000000000000000000000000000000000000 000000000000000000000000000000000000000     00000000                                                                                                                        000000000000000000
F0010000007822200002000000871714900041450500000000000000000201510290002001ROLNAN DE LA ROSA  INSIGNARES                     C000000037878800000000000000000000100010010000000000000000000000F0010000007822200220151029000101 00000000000000000000000000000000000000000000000000000000000000000000000000000000000000000000000000000000000000000N 00000000000NCONT   00    00000000000          00000000000000000000000000000000000000000000 000000000000000A000000000000000000000000000000000000000000000 000000000000000000000000000000000000000     00000000                                                                                                                        000000000000000000
F0010000007822200003000000871714900042505000000000000000000201510290002001ROLNAN DE LA ROSA  INSIGNARES                     C000000007649200000000000000000000100010010000000000000000000000F0010000007822200320151029000101 00000000000000000000000000000000000000000000000000000000000000000000000000000000000000000000000000000000000000000N 00000000000NCONT   00    00000000000          00000000000000000000000000000000000000000000 000000000000000A000000000000000000000000000000000000000000000 000000000000000000000000000000000000000     00000000                                                                                                                        000000000000000000
F0010000007822200004000000871714900023658300000000000000000201510290002001ROLNAN DE LA ROSA  INSIGNARES                     C000000000303000000000000000000000100010010000000000000000000000F0010000007822200420151029000101 00000000000000000000000000000000000000000000000000000000000000000000000000000000000000000000000000000000000000000N 00000000000NCONT   00    00000000000          00000000000000000000000000000000000000000000 000000000000000A000000000000000000000000000000000000000000000 000000000000000000000000000000000000000     00000000                                                                                                                        000000000000000000
F0010000007822200005000000871714900013552100000000000000000201510290002001ROLNAN DE LA ROSA  INSIGNARES                     D000000000303000000000000000000000100010010000000000000000000000F0010000007822200520151029000101 00000000000000000000000000000000000000000000000000000000000000000000000000000000000000000000000000000000000000000N 00000000000NCONT   00    00000000000          00000000000000000000000000000000000000000000 000000000000000A000000000000000000000000000000000000000000000 000000000000000000000000000000000000000     00000000                                                                                                                        000000000000000000
F0010000007822300001000089010260300013050500000000000000000201510290002001FEDERICO OSORIO A. S.A.                           D000000041206600000000000000000000100010010000000000000000000000F0010000007822300120151029000101 00000000000000000000000000000000000000000000000000000000000000000000000000000000000000000000000000000000000000000N 00000000000NCONT   00    00000000000          00000000000000000000000000000000000000000000 000000000000000A000000000000000000000000000000000000000000000 000000000000000000000000000000000000000     00000000                                                                                                                        000000000000000000
F0010000007822300002000089010260300041450500000000000000000201510290002001FEDERICO OSORIO A. S.A.                           C000000037598000000000000000000000100010010000000000000000000000F0010000007822300220151029000101 00000000000000000000000000000000000000000000000000000000000000000000000000000000000000000000000000000000000000000N 00000000000NCONT   00    00000000000          00000000000000000000000000000000000000000000 000000000000000A000000000000000000000000000000000000000000000 000000000000000000000000000000000000000     00000000                                                                                                                        000000000000000000
F0010000007822300003000089010260300042505000000000000000000201510290002001FEDERICO OSORIO A. S.A.                           C000000003608600000000000000000000100010010000000000000000000000F0010000007822300320151029000101 00000000000000000000000000000000000000000000000000000000000000000000000000000000000000000000000000000000000000000N 00000000000NCONT   00    00000000000          00000000000000000000000000000000000000000000 000000000000000A000000000000000000000000000000000000000000000 000000000000000000000000000000000000000     00000000                                                                                                                        000000000000000000
F0010000007822300004000089010260300023658300000000000000000201510290002001FEDERICO OSORIO A. S.A.                           C000000000300800000000000000000000100010010000000000000000000000F0010000007822300420151029000101 00000000000000000000000000000000000000000000000000000000000000000000000000000000000000000000000000000000000000000N 00000000000NCONT   00    00000000000          00000000000000000000000000000000000000000000 000000000000000A000000000000000000000000000000000000000000000 000000000000000000000000000000000000000     00000000                                                                                                                        000000000000000000
F0010000007822300005000089010260300013552100000000000000000201510290002001FEDERICO OSORIO A. S.A.                           D000000000300800000000000000000000100010010000000000000000000000F0010000007822300520151029000101 00000000000000000000000000000000000000000000000000000000000000000000000000000000000000000000000000000000000000000N 00000000000NCONT   00    00000000000          00000000000000000000000000000000000000000000 000000000000000A000000000000000000000000000000000000000000000 000000000000000000000000000000000000000     00000000                                                                                                                        000000000000000000
F0010000007822400001000083008772100011050500000000000000000201510290002001ILUMEC SAS                                        D000000001450000000000000000000000100010010000000000000000000000F0010000007822400120151029000101 00000000000000000000000000000000000000000000000000000000000000000000000000000000000000000000000000000000000000000N 00000000000NCONT   00    00000000000          00000000000000000000000000000000000000000000 000000000000000A000000000000000000000000000000000000000000000 000000000000000000000000000000000000000     00000000                                                                                                                        000000000000000000
F0010000007822400002000083008772100041450500000000000000000201510290002001ILUMEC SAS                                        C000000000800000000000000000000000100010010000000000000000000000F0010000007822400220151029000101 00000000000000000000000000000000000000000000000000000000000000000000000000000000000000000000000000000000000000000N 00000000000NCONT   00    00000000000          00000000000000000000000000000000000000000000 000000000000000A000000000000000000000000000000000000000000000 000000000000000000000000000000000000000     00000000                                                                                                                        000000000000000000
F0010000007822400003000083008772100042505000000000000000000201510290002001ILUMEC SAS                                        C000000000650000000000000000000000100010010000000000000000000000F0010000007822400320151029000101 00000000000000000000000000000000000000000000000000000000000000000000000000000000000000000000000000000000000000000N 00000000000NCONT   00    00000000000          00000000000000000000000000000000000000000000 000000000000000A000000000000000000000000000000000000000000000 000000000000000000000000000000000000000     00000000                                                                                                                        000000000000000000
F0010000007822400004000083008772100023658300000000000000000201510290002001ILUMEC SAS                                        C000000000006400000000000000000000100010010000000000000000000000F0010000007822400420151029000101 00000000000000000000000000000000000000000000000000000000000000000000000000000000000000000000000000000000000000000N 00000000000NCONT   00    00000000000          00000000000000000000000000000000000000000000 000000000000000A000000000000000000000000000000000000000000000 000000000000000000000000000000000000000     00000000                                                                                                                        000000000000000000
F0010000007822400005000083008772100013552100000000000000000201510290002001ILUMEC SAS                                        D000000000006400000000000000000000100010010000000000000000000000F0010000007822400520151029000101 00000000000000000000000000000000000000000000000000000000000000000000000000000000000000000000000000000000000000000N 00000000000NCONT   00    00000000000          00000000000000000000000000000000000000000000 000000000000000A000000000000000000000000000000000000000000000 000000000000000000000000000000000000000     00000000                                                                                                                        000000000000000000
F0010000007822500001000000835166600011050500000000000000000201510290002001DANILO RAMIREZ ZAPATA                             D000000003000000000000000000000000100010010000000000000000000000F0010000007822500120151029000101 00000000000000000000000000000000000000000000000000000000000000000000000000000000000000000000000000000000000000000N 00000000000NCONT   00    00000000000          00000000000000000000000000000000000000000000 000000000000000A000000000000000000000000000000000000000000000 000000000000000000000000000000000000000     00000000                                                                                                                        000000000000000000
F0010000007822500002000000835166600041450500000000000000000201510290002001DANILO RAMIREZ ZAPATA                             C000000002800000000000000000000000100010010000000000000000000000F0010000007822500220151029000101 00000000000000000000000000000000000000000000000000000000000000000000000000000000000000000000000000000000000000000N 00000000000NCONT   00    00000000000          00000000000000000000000000000000000000000000 000000000000000A000000000000000000000000000000000000000000000 000000000000000000000000000000000000000     00000000                                                                                                                        000000000000000000
F0010000007822500003000000835166600042505000000000000000000201510290002001DANILO RAMIREZ ZAPATA                             C000000000200000000000000000000000100010010000000000000000000000F0010000007822500320151029000101 00000000000000000000000000000000000000000000000000000000000000000000000000000000000000000000000000000000000000000N 00000000000NCONT   00    00000000000          00000000000000000000000000000000000000000000 000000000000000A000000000000000000000000000000000000000000000 000000000000000000000000000000000000000     00000000                                                                                                                        000000000000000000
F0010000007822500004000000835166600023658300000000000000000201510290002001DANILO RAMIREZ ZAPATA                             C000000000022400000000000000000000100010010000000000000000000000F0010000007822500420151029000101 00000000000000000000000000000000000000000000000000000000000000000000000000000000000000000000000000000000000000000N 00000000000NCONT   00    00000000000          00000000000000000000000000000000000000000000 000000000000000A000000000000000000000000000000000000000000000 000000000000000000000000000000000000000     00000000                                                                                                                        000000000000000000
F0010000007822500005000000835166600013552100000000000000000201510290002001DANILO RAMIREZ ZAPATA                             D000000000022400000000000000000000100010010000000000000000000000F0010000007822500520151029000101 00000000000000000000000000000000000000000000000000000000000000000000000000000000000000000000000000000000000000000N 00000000000NCONT   00    00000000000          00000000000000000000000000000000000000000000 000000000000000A000000000000000000000000000000000000000000000 000000000000000000000000000000000000000     00000000                                                                                                                        000000000000000000
F0010000007822600001000004977415500011050500000000000000000201510290002001NINFA  FONSECA ROMERO                             D000000001300000000000000000000000100010010000000000000000000000F0010000007822600120151029000101 00000000000000000000000000000000000000000000000000000000000000000000000000000000000000000000000000000000000000000N 00000000000NCONT   00    00000000000          00000000000000000000000000000000000000000000 000000000000000A000000000000000000000000000000000000000000000 000000000000000000000000000000000000000     00000000                                                                                                                        000000000000000000
F0010000007822600002000004977415500041450500000000000000000201510290002001NINFA  FONSECA ROMERO                             C000000000900000000000000000000000100010010000000000000000000000F0010000007822600220151029000101 00000000000000000000000000000000000000000000000000000000000000000000000000000000000000000000000000000000000000000N 00000000000NCONT   00    00000000000          00000000000000000000000000000000000000000000 000000000000000A000000000000000000000000000000000000000000000 000000000000000000000000000000000000000     00000000                                                                                                                        000000000000000000
F0010000007822600003000004977415500042505000000000000000000201510290002001NINFA  FONSECA ROMERO                             C000000000400000000000000000000000100010010000000000000000000000F0010000007822600320151029000101 00000000000000000000000000000000000000000000000000000000000000000000000000000000000000000000000000000000000000000N 00000000000NCONT   00    00000000000          00000000000000000000000000000000000000000000 000000000000000A000000000000000000000000000000000000000000000 000000000000000000000000000000000000000     00000000                                                                                                                        000000000000000000
F0010000007822600004000004977415500023658300000000000000000201510290002001NINFA  FONSECA ROMERO                             C000000000007200000000000000000000100010010000000000000000000000F0010000007822600420151029000101 00000000000000000000000000000000000000000000000000000000000000000000000000000000000000000000000000000000000000000N 00000000000NCONT   00    00000000000          00000000000000000000000000000000000000000000 000000000000000A000000000000000000000000000000000000000000000 000000000000000000000000000000000000000     00000000                                                                                                                        000000000000000000
F0010000007822600005000004977415500013552100000000000000000201510290002001NINFA  FONSECA ROMERO                             D000000000007200000000000000000000100010010000000000000000000000F0010000007822600520151029000101 00000000000000000000000000000000000000000000000000000000000000000000000000000000000000000000000000000000000000000N 00000000000NCONT   00    00000000000          00000000000000000000000000000000000000000000 000000000000000A000000000000000000000000000000000000000000000 000000000000000000000000000000000000000     00000000                                                                                                                        000000000000000000
F0010000007822700001000005525050200011050500000000000000000201510290002001PLASTICOS  DE LA COSTA                            D000000002300000000000000000000000100010010000000000000000000000F0010000007822700120151029000101 00000000000000000000000000000000000000000000000000000000000000000000000000000000000000000000000000000000000000000N 00000000000NCONT   00    00000000000          00000000000000000000000000000000000000000000 000000000000000A000000000000000000000000000000000000000000000 000000000000000000000000000000000000000     00000000                                                                                                                        000000000000000000
F0010000007822700002000005525050200041450500000000000000000201510290002001PLASTICOS  DE LA COSTA                            C000000002200000000000000000000000100010010000000000000000000000F0010000007822700220151029000101 00000000000000000000000000000000000000000000000000000000000000000000000000000000000000000000000000000000000000000N 00000000000NCONT   00    00000000000          00000000000000000000000000000000000000000000 000000000000000A000000000000000000000000000000000000000000000 000000000000000000000000000000000000000     00000000                                                                                                                        000000000000000000
F0010000007822700003000005525050200042505000000000000000000201510290002001PLASTICOS  DE LA COSTA                            C000000000100000000000000000000000100010010000000000000000000000F0010000007822700320151029000101 00000000000000000000000000000000000000000000000000000000000000000000000000000000000000000000000000000000000000000N 00000000000NCONT   00    00000000000          00000000000000000000000000000000000000000000 000000000000000A000000000000000000000000000000000000000000000 000000000000000000000000000000000000000     00000000                                                                                                                        000000000000000000
F0010000007822700004000005525050200023658300000000000000000201510290002001PLASTICOS  DE LA COSTA                            C000000000017600000000000000000000100010010000000000000000000000F0010000007822700420151029000101 00000000000000000000000000000000000000000000000000000000000000000000000000000000000000000000000000000000000000000N 00000000000NCONT   00    00000000000          00000000000000000000000000000000000000000000 000000000000000A000000000000000000000000000000000000000000000 000000000000000000000000000000000000000     00000000                                                                                                                        000000000000000000
F0010000007822700005000005525050200013552100000000000000000201510290002001PLASTICOS  DE LA COSTA                            D000000000017600000000000000000000100010010000000000000000000000F0010000007822700520151029000101 00000000000000000000000000000000000000000000000000000000000000000000000000000000000000000000000000000000000000000N 00000000000NCONT   00    00000000000          00000000000000000000000000000000000000000000 000000000000000A000000000000000000000000000000000000000000000 000000000000000000000000000000000000000     00000000                                                                                                                        000000000000000000
F0010000007822800001000089031248700011050500000000000000000201510290002001DISTRIBUIDORA CALIPLASTICOS LTDA                  D000000001000000000000000000000000100010010000000000000000000000F0010000007822800120151029000101 00000000000000000000000000000000000000000000000000000000000000000000000000000000000000000000000000000000000000000N 00000000000NCONT   00    00000000000          00000000000000000000000000000000000000000000 000000000000000A000000000000000000000000000000000000000000000 000000000000000000000000000000000000000     00000000                                                                                                                        000000000000000000
F0010000007822800002000089031248700041450500000000000000000201510290002001DISTRIBUIDORA CALIPLASTICOS LTDA                  C000000000950000000000000000000000100010010000000000000000000000F0010000007822800220151029000101 00000000000000000000000000000000000000000000000000000000000000000000000000000000000000000000000000000000000000000N 00000000000NCONT   00    00000000000          00000000000000000000000000000000000000000000 000000000000000A000000000000000000000000000000000000000000000 000000000000000000000000000000000000000     00000000                                                                                                                        000000000000000000
F0010000007822800003000089031248700042505000000000000000000201510290002001DISTRIBUIDORA CALIPLASTICOS LTDA                  C000000000050000000000000000000000100010010000000000000000000000F0010000007822800320151029000101 00000000000000000000000000000000000000000000000000000000000000000000000000000000000000000000000000000000000000000N 00000000000NCONT   00    00000000000          00000000000000000000000000000000000000000000 000000000000000A000000000000000000000000000000000000000000000 000000000000000000000000000000000000000     00000000                                                                                                                        000000000000000000
F0010000007822800004000089031248700023658300000000000000000201510290002001DISTRIBUIDORA CALIPLASTICOS LTDA                  C000000000007600000000000000000000100010010000000000000000000000F0010000007822800420151029000101 00000000000000000000000000000000000000000000000000000000000000000000000000000000000000000000000000000000000000000N 00000000000NCONT   00    00000000000          00000000000000000000000000000000000000000000 000000000000000A000000000000000000000000000000000000000000000 000000000000000000000000000000000000000     00000000                                                                                                                        000000000000000000
F0010000007822800005000089031248700013552100000000000000000201510290002001DISTRIBUIDORA CALIPLASTICOS LTDA                  D000000000007600000000000000000000100010010000000000000000000000F0010000007822800520151029000101 00000000000000000000000000000000000000000000000000000000000000000000000000000000000000000000000000000000000000000N 00000000000NCONT   00    00000000000          00000000000000000000000000000000000000000000 000000000000000A000000000000000000000000000000000000000000000 000000000000000000000000000000000000000     00000000                                                                                                                        000000000000000000
F0010000007822900001000000870907300011050500000000000000000201510290002001SURTIDOR FERRETERO                                D000000001074000000000000000000000100010010000000000000000000000F0010000007822900120151029000101 00000000000000000000000000000000000000000000000000000000000000000000000000000000000000000000000000000000000000000N 00000000000NCONT   00    00000000000          00000000000000000000000000000000000000000000 000000000000000A000000000000000000000000000000000000000000000 000000000000000000000000000000000000000     00000000                                                                                                                        000000000000000000
F0010000007822900002000000870907300041450500000000000000000201510290002001SURTIDOR FERRETERO                                C000000000760000000000000000000000100010010000000000000000000000F0010000007822900220151029000101 00000000000000000000000000000000000000000000000000000000000000000000000000000000000000000000000000000000000000000N 00000000000NCONT   00    00000000000          00000000000000000000000000000000000000000000 000000000000000A000000000000000000000000000000000000000000000 000000000000000000000000000000000000000     00000000                                                                                                                        000000000000000000
F0010000007822900003000000870907300042505000000000000000000201510290002001SURTIDOR FERRETERO                                C000000000314000000000000000000000100010010000000000000000000000F0010000007822900320151029000101 00000000000000000000000000000000000000000000000000000000000000000000000000000000000000000000000000000000000000000N 00000000000NCONT   00    00000000000          00000000000000000000000000000000000000000000 000000000000000A000000000000000000000000000000000000000000000 000000000000000000000000000000000000000     00000000                                                                                                                        000000000000000000
F0010000007822900004000000870907300023658300000000000000000201510290002001SURTIDOR FERRETERO                                C000000000006100000000000000000000100010010000000000000000000000F0010000007822900420151029000101 00000000000000000000000000000000000000000000000000000000000000000000000000000000000000000000000000000000000000000N 00000000000NCONT   00    00000000000          00000000000000000000000000000000000000000000 000000000000000A000000000000000000000000000000000000000000000 000000000000000000000000000000000000000     00000000                                                                                                                        000000000000000000
F0010000007822900005000000870907300013552100000000000000000201510290002001SURTIDOR FERRETERO                                D000000000006100000000000000000000100010010000000000000000000000F0010000007822900520151029000101 00000000000000000000000000000000000000000000000000000000000000000000000000000000000000000000000000000000000000000N 00000000000NCONT   00    00000000000          00000000000000000000000000000000000000000000 000000000000000A000000000000000000000000000000000000000000000 000000000000000000000000000000000000000     00000000                                                                                                                        000000000000000000
F0010000007823000001000000744496800011050500000000000000000201510290002001TOMAS SANCHEZ                                     D000000002800000000000000000000000100010010000000000000000000000F0010000007823000120151029000101 00000000000000000000000000000000000000000000000000000000000000000000000000000000000000000000000000000000000000000N 00000000000NCONT   00    00000000000          00000000000000000000000000000000000000000000 000000000000000A000000000000000000000000000000000000000000000 000000000000000000000000000000000000000     00000000                                                                                                                        000000000000000000
F0010000007823000002000000744496800041450500000000000000000201510290002001TOMAS SANCHEZ                                     C000000002700000000000000000000000100010010000000000000000000000F0010000007823000220151029000101 00000000000000000000000000000000000000000000000000000000000000000000000000000000000000000000000000000000000000000N 00000000000NCONT   00    00000000000          00000000000000000000000000000000000000000000 000000000000000A000000000000000000000000000000000000000000000 000000000000000000000000000000000000000     00000000                                                                                                                        000000000000000000
F0010000007823000003000000744496800042505000000000000000000201510290002001TOMAS SANCHEZ                                     C000000000100000000000000000000000100010010000000000000000000000F0010000007823000320151029000101 00000000000000000000000000000000000000000000000000000000000000000000000000000000000000000000000000000000000000000N 00000000000NCONT   00    00000000000          00000000000000000000000000000000000000000000 000000000000000A000000000000000000000000000000000000000000000 000000000000000000000000000000000000000     00000000                                                                                                                        000000000000000000
F0010000007823000004000000744496800023658300000000000000000201510290002001TOMAS SANCHEZ                                     C000000000021600000000000000000000100010010000000000000000000000F0010000007823000420151029000101 00000000000000000000000000000000000000000000000000000000000000000000000000000000000000000000000000000000000000000N 00000000000NCONT   00    00000000000          00000000000000000000000000000000000000000000 000000000000000A000000000000000000000000000000000000000000000 000000000000000000000000000000000000000     00000000                                                                                                                        000000000000000000
F0010000007823000005000000744496800013552100000000000000000201510290002001TOMAS SANCHEZ                                     D000000000021600000000000000000000100010010000000000000000000000F0010000007823000520151029000101 00000000000000000000000000000000000000000000000000000000000000000000000000000000000000000000000000000000000000000N 00000000000NCONT   00    00000000000          00000000000000000000000000000000000000000000 000000000000000A000000000000000000000000000000000000000000000 000000000000000000000000000000000000000     00000000                                                                                                                        000000000000000000
F0010000007823100001000002245670100011050500000000000000000201510290002001YOLANDA  TOBON                                    D000000000700000000000000000000000100010010000000000000000000000F0010000007823100120151029000101 00000000000000000000000000000000000000000000000000000000000000000000000000000000000000000000000000000000000000000N 00000000000NCONT   00    00000000000          00000000000000000000000000000000000000000000 000000000000000A000000000000000000000000000000000000000000000 000000000000000000000000000000000000000     00000000                                                                                                                        000000000000000000
F0010000007823100002000002245670100041450500000000000000000201510290002001YOLANDA  TOBON                                    C000000000600000000000000000000000100010010000000000000000000000F0010000007823100220151029000101 00000000000000000000000000000000000000000000000000000000000000000000000000000000000000000000000000000000000000000N 00000000000NCONT   00    00000000000          00000000000000000000000000000000000000000000 000000000000000A000000000000000000000000000000000000000000000 000000000000000000000000000000000000000     00000000                                                                                                                        000000000000000000
F0010000007823100003000002245670100042505000000000000000000201510290002001YOLANDA  TOBON                                    C000000000100000000000000000000000100010010000000000000000000000F0010000007823100320151029000101 00000000000000000000000000000000000000000000000000000000000000000000000000000000000000000000000000000000000000000N 00000000000NCONT   00    00000000000          00000000000000000000000000000000000000000000 000000000000000A000000000000000000000000000000000000000000000 000000000000000000000000000000000000000     00000000                                                                                                                        000000000000000000
F0010000007823100004000002245670100023658300000000000000000201510290002001YOLANDA  TOBON                                    C000000000004800000000000000000000100010010000000000000000000000F0010000007823100420151029000101 00000000000000000000000000000000000000000000000000000000000000000000000000000000000000000000000000000000000000000N 00000000000NCONT   00    00000000000          00000000000000000000000000000000000000000000 000000000000000A000000000000000000000000000000000000000000000 000000000000000000000000000000000000000     00000000                                                                                                                        000000000000000000
F0010000007823100005000002245670100013552100000000000000000201510290002001YOLANDA  TOBON                                    D000000000004800000000000000000000100010010000000000000000000000F0010000007823100520151029000101 00000000000000000000000000000000000000000000000000000000000000000000000000000000000000000000000000000000000000000N 00000000000NCONT   00    00000000000          00000000000000000000000000000000000000000000 000000000000000A000000000000000000000000000000000000000000000 000000000000000000000000000000000000000     00000000                                                                                                                        000000000000000000
F0010000007823200001000002245670100011050500000000000000000201510290002001YOLANDA  TOBON                                    D000000005100000000000000000000000100010010000000000000000000000F0010000007823200120151029000101 00000000000000000000000000000000000000000000000000000000000000000000000000000000000000000000000000000000000000000N 00000000000NCONT   00    00000000000          00000000000000000000000000000000000000000000 000000000000000A000000000000000000000000000000000000000000000 000000000000000000000000000000000000000     00000000                                                                                                                        000000000000000000
F0010000007823200002000002245670100041450500000000000000000201510290002001YOLANDA  TOBON                                    C000000004000000000000000000000000100010010000000000000000000000F0010000007823200220151029000101 00000000000000000000000000000000000000000000000000000000000000000000000000000000000000000000000000000000000000000N 00000000000NCONT   00    00000000000          00000000000000000000000000000000000000000000 000000000000000A000000000000000000000000000000000000000000000 000000000000000000000000000000000000000     00000000                                                                                                                        000000000000000000
F0010000007823200003000002245670100042505000000000000000000201510290002001YOLANDA  TOBON                                    C000000001100000000000000000000000100010010000000000000000000000F0010000007823200320151029000101 00000000000000000000000000000000000000000000000000000000000000000000000000000000000000000000000000000000000000000N 00000000000NCONT   00    00000000000          00000000000000000000000000000000000000000000 000000000000000A000000000000000000000000000000000000000000000 000000000000000000000000000000000000000     00000000                                                                                                                        000000000000000000
F0010000007823200004000002245670100023658300000000000000000201510290002001YOLANDA  TOBON                                    C000000000032000000000000000000000100010010000000000000000000000F0010000007823200420151029000101 00000000000000000000000000000000000000000000000000000000000000000000000000000000000000000000000000000000000000000N 00000000000NCONT   00    00000000000          00000000000000000000000000000000000000000000 000000000000000A000000000000000000000000000000000000000000000 000000000000000000000000000000000000000     00000000                                                                                                                        000000000000000000
F0010000007823200005000002245670100013552100000000000000000201510290002001YOLANDA  TOBON                                    D000000000032000000000000000000000100010010000000000000000000000F0010000007823200520151029000101 00000000000000000000000000000000000000000000000000000000000000000000000000000000000000000000000000000000000000000N 00000000000NCONT   00    00000000000          00000000000000000000000000000000000000000000 000000000000000A000000000000000000000000000000000000000000000 000000000000000000000000000000000000000     00000000                                                                                                                        000000000000000000
F0010000007823300001000007970264500011050500000000000000000201510290002001VELAS Y AROMAS LA FE                              D000000006400000000000000000000000100010010000000000000000000000F0010000007823300120151029000101 00000000000000000000000000000000000000000000000000000000000000000000000000000000000000000000000000000000000000000N 00000000000NCONT   00    00000000000          00000000000000000000000000000000000000000000 000000000000000A000000000000000000000000000000000000000000000 000000000000000000000000000000000000000     00000000                                                                                                                        000000000000000000
F0010000007823300002000007970264500041450500000000000000000201510290002001VELAS Y AROMAS LA FE                              C000000006000000000000000000000000100010010000000000000000000000F0010000007823300220151029000101 00000000000000000000000000000000000000000000000000000000000000000000000000000000000000000000000000000000000000000N 00000000000NCONT   00    00000000000          00000000000000000000000000000000000000000000 000000000000000A000000000000000000000000000000000000000000000 000000000000000000000000000000000000000     00000000                                                                                                                        000000000000000000
F0010000007823300003000007970264500042505000000000000000000201510290002001VELAS Y AROMAS LA FE                              C000000000400000000000000000000000100010010000000000000000000000F0010000007823300320151029000101 00000000000000000000000000000000000000000000000000000000000000000000000000000000000000000000000000000000000000000N 00000000000NCONT   00    00000000000          00000000000000000000000000000000000000000000 000000000000000A000000000000000000000000000000000000000000000 000000000000000000000000000000000000000     00000000                                                                                                                        000000000000000000
F0010000007823300004000007970264500023658300000000000000000201510290002001VELAS Y AROMAS LA FE                              C000000000048000000000000000000000100010010000000000000000000000F0010000007823300420151029000101 00000000000000000000000000000000000000000000000000000000000000000000000000000000000000000000000000000000000000000N 00000000000NCONT   00    00000000000          00000000000000000000000000000000000000000000 000000000000000A000000000000000000000000000000000000000000000 000000000000000000000000000000000000000     00000000                                                                                                                        000000000000000000
F0010000007823300005000007970264500013552100000000000000000201510290002001VELAS Y AROMAS LA FE                              D000000000048000000000000000000000100010010000000000000000000000F0010000007823300520151029000101 00000000000000000000000000000000000000000000000000000000000000000000000000000000000000000000000000000000000000000N 00000000000NCONT   00    00000000000          00000000000000000000000000000000000000000000 000000000000000A000000000000000000000000000000000000000000000 000000000000000000000000000000000000000     00000000                                                                                                                        000000000000000000
F0010000007823400001000080202350700011050500000000000000000201510290002001CONNY DE LA COSTA SAS                             D000000001000000000000000000000000100010010000000000000000000000F0010000007823400120151029000101 00000000000000000000000000000000000000000000000000000000000000000000000000000000000000000000000000000000000000000N 00000000000NCONT   00    00000000000          00000000000000000000000000000000000000000000 000000000000000A000000000000000000000000000000000000000000000 000000000000000000000000000000000000000     00000000                                                                                                                        000000000000000000
F0010000007823400002000080202350700041450500000000000000000201510290002001CONNY DE LA COSTA SAS                             C000000000800000000000000000000000100010010000000000000000000000F0010000007823400220151029000101 00000000000000000000000000000000000000000000000000000000000000000000000000000000000000000000000000000000000000000N 00000000000NCONT   00    00000000000          00000000000000000000000000000000000000000000 000000000000000A000000000000000000000000000000000000000000000 000000000000000000000000000000000000000     00000000                                                                                                                        000000000000000000
F0010000007823400003000080202350700042505000000000000000000201510290002001CONNY DE LA COSTA SAS                             C000000000200000000000000000000000100010010000000000000000000000F0010000007823400320151029000101 00000000000000000000000000000000000000000000000000000000000000000000000000000000000000000000000000000000000000000N 00000000000NCONT   00    00000000000          00000000000000000000000000000000000000000000 000000000000000A000000000000000000000000000000000000000000000 000000000000000000000000000000000000000     00000000                                                                                                                        000000000000000000
F0010000007823400004000080202350700023658300000000000000000201510290002001CONNY DE LA COSTA SAS                             C000000000006400000000000000000000100010010000000000000000000000F0010000007823400420151029000101 00000000000000000000000000000000000000000000000000000000000000000000000000000000000000000000000000000000000000000N 00000000000NCONT   00    00000000000          00000000000000000000000000000000000000000000 000000000000000A000000000000000000000000000000000000000000000 000000000000000000000000000000000000000     00000000                                                                                                                        000000000000000000
F0010000007823400005000080202350700013552100000000000000000201510290002001CONNY DE LA COSTA SAS                             D000000000006400000000000000000000100010010000000000000000000000F0010000007823400520151029000101 00000000000000000000000000000000000000000000000000000000000000000000000000000000000000000000000000000000000000000N 00000000000NCONT   00    00000000000          00000000000000000000000000000000000000000000 000000000000000A000000000000000000000000000000000000000000000 000000000000000000000000000000000000000     00000000                                                                                                                        000000000000000000
F0010000007823500001000080201490100011050500000000000000000201510290002001COMERCIALIZADORA PAITILLA                         D000000001100000000000000000000000100010010000000000000000000000F0010000007823500120151029000101 00000000000000000000000000000000000000000000000000000000000000000000000000000000000000000000000000000000000000000N 00000000000NCONT   00    00000000000          00000000000000000000000000000000000000000000 000000000000000A000000000000000000000000000000000000000000000 000000000000000000000000000000000000000     00000000                                                                                                                        000000000000000000
F0010000007823500002000080201490100041450500000000000000000201510290002001COMERCIALIZADORA PAITILLA                         C000000000800000000000000000000000100010010000000000000000000000F0010000007823500220151029000101 00000000000000000000000000000000000000000000000000000000000000000000000000000000000000000000000000000000000000000N 00000000000NCONT   00    00000000000          00000000000000000000000000000000000000000000 000000000000000A000000000000000000000000000000000000000000000 000000000000000000000000000000000000000     00000000                                                                                                                        000000000000000000
F0010000007823500003000080201490100042505000000000000000000201510290002001COMERCIALIZADORA PAITILLA                         C000000000300000000000000000000000100010010000000000000000000000F0010000007823500320151029000101 00000000000000000000000000000000000000000000000000000000000000000000000000000000000000000000000000000000000000000N 00000000000NCONT   00    00000000000          00000000000000000000000000000000000000000000 000000000000000A000000000000000000000000000000000000000000000 000000000000000000000000000000000000000     00000000                                                                                                                        000000000000000000
F0010000007823500004000080201490100023658300000000000000000201510290002001COMERCIALIZADORA PAITILLA                         C000000000006400000000000000000000100010010000000000000000000000F0010000007823500420151029000101 00000000000000000000000000000000000000000000000000000000000000000000000000000000000000000000000000000000000000000N 00000000000NCONT   00    00000000000          00000000000000000000000000000000000000000000 000000000000000A000000000000000000000000000000000000000000000 000000000000000000000000000000000000000     00000000                                                                                                                        000000000000000000
F0010000007823500005000080201490100013552100000000000000000201510290002001COMERCIALIZADORA PAITILLA                         D000000000006400000000000000000000100010010000000000000000000000F0010000007823500520151029000101 00000000000000000000000000000000000000000000000000000000000000000000000000000000000000000000000000000000000000000N 00000000000NCONT   00    00000000000          00000000000000000000000000000000000000000000 000000000000000A000000000000000000000000000000000000000000000 000000000000000000000000000000000000000     00000000                                                                                                                        000000000000000000
F0010000007823600001000000742399700011050500000000000000000201510290002001CACHARRERIA EL NUEVO CHADID                       D000000001600000000000000000000000100010010000000000000000000000F0010000007823600120151029000101 00000000000000000000000000000000000000000000000000000000000000000000000000000000000000000000000000000000000000000N 00000000000NCONT   00    00000000000          00000000000000000000000000000000000000000000 000000000000000A000000000000000000000000000000000000000000000 000000000000000000000000000000000000000     00000000                                                                                                                        000000000000000000
F0010000007823600002000000742399700041450500000000000000000201510290002001CACHARRERIA EL NUEVO CHADID                       C000000001200000000000000000000000100010010000000000000000000000F0010000007823600220151029000101 00000000000000000000000000000000000000000000000000000000000000000000000000000000000000000000000000000000000000000N 00000000000NCONT   00    00000000000          00000000000000000000000000000000000000000000 000000000000000A000000000000000000000000000000000000000000000 000000000000000000000000000000000000000     00000000                                                                                                                        000000000000000000
F0010000007823600003000000742399700042505000000000000000000201510290002001CACHARRERIA EL NUEVO CHADID                       C000000000400000000000000000000000100010010000000000000000000000F0010000007823600320151029000101 00000000000000000000000000000000000000000000000000000000000000000000000000000000000000000000000000000000000000000N 00000000000NCONT   00    00000000000          00000000000000000000000000000000000000000000 000000000000000A000000000000000000000000000000000000000000000 000000000000000000000000000000000000000     00000000                                                                                                                        000000000000000000
F0010000007823600004000000742399700023658300000000000000000201510290002001CACHARRERIA EL NUEVO CHADID                       C000000000009600000000000000000000100010010000000000000000000000F0010000007823600420151029000101 00000000000000000000000000000000000000000000000000000000000000000000000000000000000000000000000000000000000000000N 00000000000NCONT   00    00000000000          00000000000000000000000000000000000000000000 000000000000000A000000000000000000000000000000000000000000000 000000000000000000000000000000000000000     00000000                                                                                                                        000000000000000000
F0010000007823600005000000742399700013552100000000000000000201510290002001CACHARRERIA EL NUEVO CHADID                       D000000000009600000000000000000000100010010000000000000000000000F0010000007823600520151029000101 00000000000000000000000000000000000000000000000000000000000000000000000000000000000000000000000000000000000000000N 00000000000NCONT   00    00000000000          00000000000000000000000000000000000000000000 000000000000000A000000000000000000000000000000000000000000000 000000000000000000000000000000000000000     00000000                                                                                                                        000000000000000000
F0010000007823700001000080202350700011050500000000000000000201510290002001CONNY DE LA COSTA SAS                             D000000001200000000000000000000000100010010000000000000000000000F0010000007823700120151029000101 00000000000000000000000000000000000000000000000000000000000000000000000000000000000000000000000000000000000000000N 00000000000NCONT   00    00000000000          00000000000000000000000000000000000000000000 000000000000000A000000000000000000000000000000000000000000000 000000000000000000000000000000000000000     00000000                                                                                                                        000000000000000000
F0010000007823700002000080202350700041450500000000000000000201510290002001CONNY DE LA COSTA SAS                             C000000001100000000000000000000000100010010000000000000000000000F0010000007823700220151029000101 00000000000000000000000000000000000000000000000000000000000000000000000000000000000000000000000000000000000000000N 00000000000NCONT   00    00000000000          00000000000000000000000000000000000000000000 000000000000000A000000000000000000000000000000000000000000000 000000000000000000000000000000000000000     00000000                                                                                                                        000000000000000000
F0010000007823700003000080202350700042505000000000000000000201510290002001CONNY DE LA COSTA SAS                             C000000000100000000000000000000000100010010000000000000000000000F0010000007823700320151029000101 00000000000000000000000000000000000000000000000000000000000000000000000000000000000000000000000000000000000000000N 00000000000NCONT   00    00000000000          00000000000000000000000000000000000000000000 000000000000000A000000000000000000000000000000000000000000000 000000000000000000000000000000000000000     00000000                                                                                                                        000000000000000000
F0010000007823700004000080202350700023658300000000000000000201510290002001CONNY DE LA COSTA SAS                             C000000000008800000000000000000000100010010000000000000000000000F0010000007823700420151029000101 00000000000000000000000000000000000000000000000000000000000000000000000000000000000000000000000000000000000000000N 00000000000NCONT   00    00000000000          00000000000000000000000000000000000000000000 000000000000000A000000000000000000000000000000000000000000000 000000000000000000000000000000000000000     00000000                                                                                                                        000000000000000000
F0010000007823700005000080202350700013552100000000000000000201510290002001CONNY DE LA COSTA SAS                             D000000000008800000000000000000000100010010000000000000000000000F0010000007823700520151029000101 00000000000000000000000000000000000000000000000000000000000000000000000000000000000000000000000000000000000000000N 00000000000NCONT   00    00000000000          00000000000000000000000000000000000000000000 000000000000000A000000000000000000000000000000000000000000000 000000000000000000000000000000000000000     00000000                                                                                                                        000000000000000000
F0010000007823800001000090047878200011050500000000000000000201510290002001GRUMAD SAS                                        D000000003500000000000000000000000100010010000000000000000000000F0010000007823800120151029000101 00000000000000000000000000000000000000000000000000000000000000000000000000000000000000000000000000000000000000000N 00000000000NCONT   00    00000000000          00000000000000000000000000000000000000000000 000000000000000A000000000000000000000000000000000000000000000 000000000000000000000000000000000000000     00000000                                                                                                                        000000000000000000
F0010000007823800002000090047878200041450500000000000000000201510290002001GRUMAD SAS                                        C000000003000000000000000000000000100010010000000000000000000000F0010000007823800220151029000101 00000000000000000000000000000000000000000000000000000000000000000000000000000000000000000000000000000000000000000N 00000000000NCONT   00    00000000000          00000000000000000000000000000000000000000000 000000000000000A000000000000000000000000000000000000000000000 000000000000000000000000000000000000000     00000000                                                                                                                        000000000000000000
F0010000007823800003000090047878200042505000000000000000000201510290002001GRUMAD SAS                                        C000000000500000000000000000000000100010010000000000000000000000F0010000007823800320151029000101 00000000000000000000000000000000000000000000000000000000000000000000000000000000000000000000000000000000000000000N 00000000000NCONT   00    00000000000          00000000000000000000000000000000000000000000 000000000000000A000000000000000000000000000000000000000000000 000000000000000000000000000000000000000     00000000                                                                                                                        000000000000000000
F0010000007823800004000090047878200023658300000000000000000201510290002001GRUMAD SAS                                        C000000000024000000000000000000000100010010000000000000000000000F0010000007823800420151029000101 00000000000000000000000000000000000000000000000000000000000000000000000000000000000000000000000000000000000000000N 00000000000NCONT   00    00000000000          00000000000000000000000000000000000000000000 000000000000000A000000000000000000000000000000000000000000000 000000000000000000000000000000000000000     00000000                                                                                                                        000000000000000000
F0010000007823800005000090047878200013552100000000000000000201510290002001GRUMAD SAS                                        D000000000024000000000000000000000100010010000000000000000000000F0010000007823800520151029000101 00000000000000000000000000000000000000000000000000000000000000000000000000000000000000000000000000000000000000000N 00000000000NCONT   00    00000000000          00000000000000000000000000000000000000000000 000000000000000A000000000000000000000000000000000000000000000 000000000000000000000000000000000000000     00000000                                                                                                                        000000000000000000
F0010000007823900001000007035286400011050500000000000000000201510290002001MANUEL ANTONIO GOMEZ GOMEZ                        D000000004000000000000000000000000100010010000000000000000000000F0010000007823900120151029000101 00000000000000000000000000000000000000000000000000000000000000000000000000000000000000000000000000000000000000000N 00000000000NCONT   00    00000000000          00000000000000000000000000000000000000000000 000000000000000A000000000000000000000000000000000000000000000 000000000000000000000000000000000000000     00000000                                                                                                                        000000000000000000
F0010000007823900002000007035286400041450500000000000000000201510290002001MANUEL ANTONIO GOMEZ GOMEZ                        C000000003600000000000000000000000100010010000000000000000000000F0010000007823900220151029000101 00000000000000000000000000000000000000000000000000000000000000000000000000000000000000000000000000000000000000000N 00000000000NCONT   00    00000000000          00000000000000000000000000000000000000000000 000000000000000A000000000000000000000000000000000000000000000 000000000000000000000000000000000000000     00000000                                                                                                                        000000000000000000
F0010000007823900003000007035286400042505000000000000000000201510290002001MANUEL ANTONIO GOMEZ GOMEZ                        C000000000400000000000000000000000100010010000000000000000000000F0010000007823900320151029000101 00000000000000000000000000000000000000000000000000000000000000000000000000000000000000000000000000000000000000000N 00000000000NCONT   00    00000000000          00000000000000000000000000000000000000000000 000000000000000A000000000000000000000000000000000000000000000 000000000000000000000000000000000000000     00000000                                                                                                                        000000000000000000
F0010000007823900004000007035286400023658300000000000000000201510290002001MANUEL ANTONIO GOMEZ GOMEZ                        C000000000028800000000000000000000100010010000000000000000000000F0010000007823900420151029000101 00000000000000000000000000000000000000000000000000000000000000000000000000000000000000000000000000000000000000000N 00000000000NCONT   00    00000000000          00000000000000000000000000000000000000000000 000000000000000A000000000000000000000000000000000000000000000 000000000000000000000000000000000000000     00000000                                                                                                                        000000000000000000
F0010000007823900005000007035286400013552100000000000000000201510290002001MANUEL ANTONIO GOMEZ GOMEZ                        D000000000028800000000000000000000100010010000000000000000000000F0010000007823900520151029000101 00000000000000000000000000000000000000000000000000000000000000000000000000000000000000000000000000000000000000000N 00000000000NCONT   00    00000000000          00000000000000000000000000000000000000000000 000000000000000A000000000000000000000000000000000000000000000 000000000000000000000000000000000000000     00000000                                                                                                                        000000000000000000
F0010000007824000001000003287795000011050500000000000000000201510290002001COMERCIALIZADORA KUZMAR                           D000000002800000000000000000000000100010010000000000000000000000F0010000007824000120151029000101 00000000000000000000000000000000000000000000000000000000000000000000000000000000000000000000000000000000000000000N 00000000000NCONT   00    00000000000          00000000000000000000000000000000000000000000 000000000000000A000000000000000000000000000000000000000000000 000000000000000000000000000000000000000     00000000                                                                                                                        000000000000000000
F0010000007824000002000003287795000041450500000000000000000201510290002001COMERCIALIZADORA KUZMAR                           C000000002100000000000000000000000100010010000000000000000000000F0010000007824000220151029000101 00000000000000000000000000000000000000000000000000000000000000000000000000000000000000000000000000000000000000000N 00000000000NCONT   00    00000000000          00000000000000000000000000000000000000000000 000000000000000A000000000000000000000000000000000000000000000 000000000000000000000000000000000000000     00000000                                                                                                                        000000000000000000
F0010000007824000003000003287795000042505000000000000000000201510290002001COMERCIALIZADORA KUZMAR                           C000000000700000000000000000000000100010010000000000000000000000F0010000007824000320151029000101 00000000000000000000000000000000000000000000000000000000000000000000000000000000000000000000000000000000000000000N 00000000000NCONT   00    00000000000          00000000000000000000000000000000000000000000 000000000000000A000000000000000000000000000000000000000000000 000000000000000000000000000000000000000     00000000                                                                                                                        000000000000000000
F0010000007824000004000003287795000023658300000000000000000201510290002001COMERCIALIZADORA KUZMAR                           C000000000016800000000000000000000100010010000000000000000000000F0010000007824000420151029000101 00000000000000000000000000000000000000000000000000000000000000000000000000000000000000000000000000000000000000000N 00000000000NCONT   00    00000000000          00000000000000000000000000000000000000000000 000000000000000A000000000000000000000000000000000000000000000 000000000000000000000000000000000000000     00000000                                                                                                                        000000000000000000
F0010000007824000005000003287795000013552100000000000000000201510290002001COMERCIALIZADORA KUZMAR                           D000000000016800000000000000000000100010010000000000000000000000F0010000007824000520151029000101 00000000000000000000000000000000000000000000000000000000000000000000000000000000000000000000000000000000000000000N 00000000000NCONT   00    00000000000          00000000000000000000000000000000000000000000 000000000000000A000000000000000000000000000000000000000000000 000000000000000000000000000000000000000     00000000                                                                                                                        000000000000000000
F0010000007824100001000090036991700011050500000000000000000201510290002001DELTA INTERNACIONAL  S.A.S                        D000000001400000000000000000000000100010010000000000000000000000F0010000007824100120151029000101 00000000000000000000000000000000000000000000000000000000000000000000000000000000000000000000000000000000000000000N 00000000000NCONT   00    00000000000          00000000000000000000000000000000000000000000 000000000000000A000000000000000000000000000000000000000000000 000000000000000000000000000000000000000     00000000                                                                                                                        000000000000000000
F0010000007824100002000090036991700041450500000000000000000201510290002001DELTA INTERNACIONAL  S.A.S                        C000000001200000000000000000000000100010010000000000000000000000F0010000007824100220151029000101 00000000000000000000000000000000000000000000000000000000000000000000000000000000000000000000000000000000000000000N 00000000000NCONT   00    00000000000          00000000000000000000000000000000000000000000 000000000000000A000000000000000000000000000000000000000000000 000000000000000000000000000000000000000     00000000                                                                                                                        000000000000000000
F0010000007824100003000090036991700042505000000000000000000201510290002001DELTA INTERNACIONAL  S.A.S                        C000000000200000000000000000000000100010010000000000000000000000F0010000007824100320151029000101 00000000000000000000000000000000000000000000000000000000000000000000000000000000000000000000000000000000000000000N 00000000000NCONT   00    00000000000          00000000000000000000000000000000000000000000 000000000000000A000000000000000000000000000000000000000000000 000000000000000000000000000000000000000     00000000                                                                                                                        000000000000000000
F0010000007824100004000090036991700023658300000000000000000201510290002001DELTA INTERNACIONAL  S.A.S                        C000000000009600000000000000000000100010010000000000000000000000F0010000007824100420151029000101 00000000000000000000000000000000000000000000000000000000000000000000000000000000000000000000000000000000000000000N 00000000000NCONT   00    00000000000          00000000000000000000000000000000000000000000 000000000000000A000000000000000000000000000000000000000000000 000000000000000000000000000000000000000     00000000                                                                                                                        000000000000000000
F0010000007824100005000090036991700013552100000000000000000201510290002001DELTA INTERNACIONAL  S.A.S                        D000000000009600000000000000000000100010010000000000000000000000F0010000007824100520151029000101 00000000000000000000000000000000000000000000000000000000000000000000000000000000000000000000000000000000000000000N 00000000000NCONT   00    00000000000          00000000000000000000000000000000000000000000 000000000000000A000000000000000000000000000000000000000000000 000000000000000000000000000000000000000     00000000                                                                                                                        000000000000000000
F0010000007824200001000083007900600011050500000000000000000201510290002001EXPRESO ANDINO DE CARGA SA                        D000000001000000000000000000000000100010010000000000000000000000F0010000007824200120151029000101 00000000000000000000000000000000000000000000000000000000000000000000000000000000000000000000000000000000000000000N 00000000000NCONT   00    00000000000          00000000000000000000000000000000000000000000 000000000000000A000000000000000000000000000000000000000000000 000000000000000000000000000000000000000     00000000                                                                                                                        000000000000000000
F0010000007824200002000083007900600041450500000000000000000201510290002001EXPRESO ANDINO DE CARGA SA                        C000000000900000000000000000000000100010010000000000000000000000F0010000007824200220151029000101 00000000000000000000000000000000000000000000000000000000000000000000000000000000000000000000000000000000000000000N 00000000000NCONT   00    00000000000          00000000000000000000000000000000000000000000 000000000000000A000000000000000000000000000000000000000000000 000000000000000000000000000000000000000     00000000                                                                                                                        000000000000000000
F0010000007824200003000083007900600042505000000000000000000201510290002001EXPRESO ANDINO DE CARGA SA                        C000000000100000000000000000000000100010010000000000000000000000F0010000007824200320151029000101 00000000000000000000000000000000000000000000000000000000000000000000000000000000000000000000000000000000000000000N 00000000000NCONT   00    00000000000          00000000000000000000000000000000000000000000 000000000000000A000000000000000000000000000000000000000000000 000000000000000000000000000000000000000     00000000                                                                                                                        000000000000000000
F0010000007824200004000083007900600023658300000000000000000201510290002001EXPRESO ANDINO DE CARGA SA                        C000000000007200000000000000000000100010010000000000000000000000F0010000007824200420151029000101 00000000000000000000000000000000000000000000000000000000000000000000000000000000000000000000000000000000000000000N 00000000000NCONT   00    00000000000          00000000000000000000000000000000000000000000 000000000000000A000000000000000000000000000000000000000000000 000000000000000000000000000000000000000     00000000                                                                                                                        000000000000000000
F0010000007824200005000083007900600013552100000000000000000201510290002001EXPRESO ANDINO DE CARGA SA                        D000000000007200000000000000000000100010010000000000000000000000F0010000007824200520151029000101 00000000000000000000000000000000000000000000000000000000000000000000000000000000000000000000000000000000000000000N 00000000000NCONT   00    00000000000          00000000000000000000000000000000000000000000 000000000000000A000000000000000000000000000000000000000000000 000000000000000000000000000000000000000     00000000                                                                                                                        000000000000000000
F0010000007824300001000083007900600011050500000000000000000201510290002001EXPRESO ANDINO DE CARGA SA                        D000000009100000000000000000000000100010010000000000000000000000F0010000007824300120151029000101 00000000000000000000000000000000000000000000000000000000000000000000000000000000000000000000000000000000000000000N 00000000000NCONT   00    00000000000          00000000000000000000000000000000000000000000 000000000000000A000000000000000000000000000000000000000000000 000000000000000000000000000000000000000     00000000                                                                                                                        000000000000000000
F0010000007824300002000083007900600041450500000000000000000201510290002001EXPRESO ANDINO DE CARGA SA                        C000000009000000000000000000000000100010010000000000000000000000F0010000007824300220151029000101 00000000000000000000000000000000000000000000000000000000000000000000000000000000000000000000000000000000000000000N 00000000000NCONT   00    00000000000          00000000000000000000000000000000000000000000 000000000000000A000000000000000000000000000000000000000000000 000000000000000000000000000000000000000     00000000                                                                                                                        000000000000000000
F0010000007824300003000083007900600042505000000000000000000201510290002001EXPRESO ANDINO DE CARGA SA                        C000000000100000000000000000000000100010010000000000000000000000F0010000007824300320151029000101 00000000000000000000000000000000000000000000000000000000000000000000000000000000000000000000000000000000000000000N 00000000000NCONT   00    00000000000          00000000000000000000000000000000000000000000 000000000000000A000000000000000000000000000000000000000000000 000000000000000000000000000000000000000     00000000                                                                                                                        000000000000000000
F0010000007824300004000083007900600023658300000000000000000201510290002001EXPRESO ANDINO DE CARGA SA                        C000000000072000000000000000000000100010010000000000000000000000F0010000007824300420151029000101 00000000000000000000000000000000000000000000000000000000000000000000000000000000000000000000000000000000000000000N 00000000000NCONT   00    00000000000          00000000000000000000000000000000000000000000 000000000000000A000000000000000000000000000000000000000000000 000000000000000000000000000000000000000     00000000                                                                                                                        000000000000000000
F0010000007824300005000083007900600013552100000000000000000201510290002001EXPRESO ANDINO DE CARGA SA                        D000000000072000000000000000000000100010010000000000000000000000F0010000007824300520151029000101 00000000000000000000000000000000000000000000000000000000000000000000000000000000000000000000000000000000000000000N 00000000000NCONT   00    00000000000          00000000000000000000000000000000000000000000 000000000000000A000000000000000000000000000000000000000000000 000000000000000000000000000000000000000     00000000                                                                                                                        000000000000000000
F0010000007824400001000083007900600011050500000000000000000201510290002001EXPRESO ANDINO DE CARGA SA                        D000000001000000000000000000000000100010010000000000000000000000F0010000007824400120151029000101 00000000000000000000000000000000000000000000000000000000000000000000000000000000000000000000000000000000000000000N 00000000000NCONT   00    00000000000          00000000000000000000000000000000000000000000 000000000000000A000000000000000000000000000000000000000000000 000000000000000000000000000000000000000     00000000                                                                                                                        000000000000000000
F0010000007824400002000083007900600041450500000000000000000201510290002001EXPRESO ANDINO DE CARGA SA                        C000000000900000000000000000000000100010010000000000000000000000F0010000007824400220151029000101 00000000000000000000000000000000000000000000000000000000000000000000000000000000000000000000000000000000000000000N 00000000000NCONT   00    00000000000          00000000000000000000000000000000000000000000 000000000000000A000000000000000000000000000000000000000000000 000000000000000000000000000000000000000     00000000                                                                                                                        000000000000000000
F0010000007824400003000083007900600042505000000000000000000201510290002001EXPRESO ANDINO DE CARGA SA                        C000000000100000000000000000000000100010010000000000000000000000F0010000007824400320151029000101 00000000000000000000000000000000000000000000000000000000000000000000000000000000000000000000000000000000000000000N 00000000000NCONT   00    00000000000          00000000000000000000000000000000000000000000 000000000000000A000000000000000000000000000000000000000000000 000000000000000000000000000000000000000     00000000                                                                                                                        000000000000000000
F0010000007824400004000083007900600023658300000000000000000201510290002001EXPRESO ANDINO DE CARGA SA                        C000000000007200000000000000000000100010010000000000000000000000F0010000007824400420151029000101 00000000000000000000000000000000000000000000000000000000000000000000000000000000000000000000000000000000000000000N 00000000000NCONT   00    00000000000          00000000000000000000000000000000000000000000 000000000000000A000000000000000000000000000000000000000000000 000000000000000000000000000000000000000     00000000                                                                                                                        000000000000000000
F0010000007824400005000083007900600013552100000000000000000201510290002001EXPRESO ANDINO DE CARGA SA                        D000000000007200000000000000000000100010010000000000000000000000F0010000007824400520151029000101 00000000000000000000000000000000000000000000000000000000000000000000000000000000000000000000000000000000000000000N 00000000000NCONT   00    00000000000          00000000000000000000000000000000000000000000 000000000000000A000000000000000000000000000000000000000000000 000000000000000000000000000000000000000     00000000                                                                                                                        000000000000000000
F0010000007824500001000090050144800011050500000000000000000201510290002001PLASTICOS JR ASOCIADOS SAS                        D000000001200000000000000000000000100010010000000000000000000000F0010000007824500120151029000101 00000000000000000000000000000000000000000000000000000000000000000000000000000000000000000000000000000000000000000N 00000000000NCONT   00    00000000000          00000000000000000000000000000000000000000000 000000000000000A000000000000000000000000000000000000000000000 000000000000000000000000000000000000000     00000000                                                                                                                        000000000000000000
F0010000007824500002000090050144800041450500000000000000000201510290002001PLASTICOS JR ASOCIADOS SAS                        C000000000850000000000000000000000100010010000000000000000000000F0010000007824500220151029000101 00000000000000000000000000000000000000000000000000000000000000000000000000000000000000000000000000000000000000000N 00000000000NCONT   00    00000000000          00000000000000000000000000000000000000000000 000000000000000A000000000000000000000000000000000000000000000 000000000000000000000000000000000000000     00000000                                                                                                                        000000000000000000
F0010000007824500003000090050144800042505000000000000000000201510290002001PLASTICOS JR ASOCIADOS SAS                        C000000000350000000000000000000000100010010000000000000000000000F0010000007824500320151029000101 00000000000000000000000000000000000000000000000000000000000000000000000000000000000000000000000000000000000000000N 00000000000NCONT   00    00000000000          00000000000000000000000000000000000000000000 000000000000000A000000000000000000000000000000000000000000000 000000000000000000000000000000000000000     00000000                                                                                                                        000000000000000000
F0010000007824500004000090050144800023658300000000000000000201510290002001PLASTICOS JR ASOCIADOS SAS                        C000000000006800000000000000000000100010010000000000000000000000F0010000007824500420151029000101 00000000000000000000000000000000000000000000000000000000000000000000000000000000000000000000000000000000000000000N 00000000000NCONT   00    00000000000          00000000000000000000000000000000000000000000 000000000000000A000000000000000000000000000000000000000000000 000000000000000000000000000000000000000     00000000                                                                                                                        000000000000000000
F0010000007824500005000090050144800013552100000000000000000201510290002001PLASTICOS JR ASOCIADOS SAS                        D000000000006800000000000000000000100010010000000000000000000000F0010000007824500520151029000101 00000000000000000000000000000000000000000000000000000000000000000000000000000000000000000000000000000000000000000N 00000000000NCONT   00    00000000000          00000000000000000000000000000000000000000000 000000000000000A000000000000000000000000000000000000000000000 000000000000000000000000000000000000000     00000000                                                                                                                        000000000000000000
F0010000007824600001000090050144800011050500000000000000000201510290002001PLASTICOS JR ASOCIADOS SAS                        D000000001900000000000000000000000100010010000000000000000000000F0010000007824600120151029000101 00000000000000000000000000000000000000000000000000000000000000000000000000000000000000000000000000000000000000000N 00000000000NCONT   00    00000000000          00000000000000000000000000000000000000000000 000000000000000A000000000000000000000000000000000000000000000 000000000000000000000000000000000000000     00000000                                                                                                                        000000000000000000
F0010000007824600002000090050144800041450500000000000000000201510290002001PLASTICOS JR ASOCIADOS SAS                        C000000001700000000000000000000000100010010000000000000000000000F0010000007824600220151029000101 00000000000000000000000000000000000000000000000000000000000000000000000000000000000000000000000000000000000000000N 00000000000NCONT   00    00000000000          00000000000000000000000000000000000000000000 000000000000000A000000000000000000000000000000000000000000000 000000000000000000000000000000000000000     00000000                                                                                                                        000000000000000000
