F0010000006933000001000089011033000011050500000000000000000201503180002001INDUSTRIAS CRUZ & CAÑON LTDA                     D000000005000000000000000000000000100010010000000000000000000000F0010000006933000120150318000101 00000000000000000000000000000000000000000000000000000000000000000000000000000000000000000000000000000000000000000N 00000000000NCONT   00    00000000000          00000000000000000000000000000000000000000000 000000000000000A000000000000000000000000000000000000000000000 000000000000000000000000000000000000000     00000000                                                                                                                        000000000000000000
F0010000006933000002000089011033000041450500000000000000000201503180002001INDUSTRIAS CRUZ & CAÑON LTDA                     C000000004800000000000000000000000100010010000000000000000000000F0010000006933000220150318000101 00000000000000000000000000000000000000000000000000000000000000000000000000000000000000000000000000000000000000000N 00000000000NCONT   00    00000000000          00000000000000000000000000000000000000000000 000000000000000A000000000000000000000000000000000000000000000 000000000000000000000000000000000000000     00000000                                                                                                                        000000000000000000
F0010000006933000003000089011033000042505000000000000000000201503180002001INDUSTRIAS CRUZ & CAÑON LTDA                     C000000000200000000000000000000000100010010000000000000000000000F0010000006933000320150318000101 00000000000000000000000000000000000000000000000000000000000000000000000000000000000000000000000000000000000000000N 00000000000NCONT   00    00000000000          00000000000000000000000000000000000000000000 000000000000000A000000000000000000000000000000000000000000000 000000000000000000000000000000000000000     00000000                                                                                                                        000000000000000000
F0010000006933000004000089011033000023658300000000000000000201503180002001INDUSTRIAS CRUZ & CAÑON LTDA                     C000000000038400000000000000000000100010010000000000000000000000F0010000006933000420150318000101 00000000000000000000000000000000000000000000000000000000000000000000000000000000000000000000000000000000000000000N 00000000000NCONT   00    00000000000          00000000000000000000000000000000000000000000 000000000000000A000000000000000000000000000000000000000000000 000000000000000000000000000000000000000     00000000                                                                                                                        000000000000000000
F0010000006933000005000089011033000013552100000000000000000201503180002001INDUSTRIAS CRUZ & CAÑON LTDA                     D000000000038400000000000000000000100010010000000000000000000000F0010000006933000520150318000101 00000000000000000000000000000000000000000000000000000000000000000000000000000000000000000000000000000000000000000N 00000000000NCONT   00    00000000000          00000000000000000000000000000000000000000000 000000000000000A000000000000000000000000000000000000000000000 000000000000000000000000000000000000000     00000000                                                                                                                        000000000000000000
F0010000006933100001000090048173700013050500000000000000000201503180002001ESPECIALIDADES QUIMICAS DEL NORTE SAS             D000000005470000000000000000000000100010010000000000000000000000F0010000006933100120150318000101 00000000000000000000000000000000000000000000000000000000000000000000000000000000000000000000000000000000000000000N 00000000000NCONT   00    00000000000          00000000000000000000000000000000000000000000 000000000000000A000000000000000000000000000000000000000000000 000000000000000000000000000000000000000     00000000                                                                                                                        000000000000000000
F0010000006933100002000090048173700041450500000000000000000201503180002001ESPECIALIDADES QUIMICAS DEL NORTE SAS             C000000005370000000000000000000000100010010000000000000000000000F0010000006933100220150318000101 00000000000000000000000000000000000000000000000000000000000000000000000000000000000000000000000000000000000000000N 00000000000NCONT   00    00000000000          00000000000000000000000000000000000000000000 000000000000000A000000000000000000000000000000000000000000000 000000000000000000000000000000000000000     00000000                                                                                                                        000000000000000000
F0010000006933100003000090048173700042505000000000000000000201503180002001ESPECIALIDADES QUIMICAS DEL NORTE SAS             C000000000100000000000000000000000100010010000000000000000000000F0010000006933100320150318000101 00000000000000000000000000000000000000000000000000000000000000000000000000000000000000000000000000000000000000000N 00000000000NCONT   00    00000000000          00000000000000000000000000000000000000000000 000000000000000A000000000000000000000000000000000000000000000 000000000000000000000000000000000000000     00000000                                                                                                                        000000000000000000
F0010000006933100004000090048173700023658300000000000000000201503180002001ESPECIALIDADES QUIMICAS DEL NORTE SAS             C000000000043000000000000000000000100010010000000000000000000000F0010000006933100420150318000101 00000000000000000000000000000000000000000000000000000000000000000000000000000000000000000000000000000000000000000N 00000000000NCONT   00    00000000000          00000000000000000000000000000000000000000000 000000000000000A000000000000000000000000000000000000000000000 000000000000000000000000000000000000000     00000000                                                                                                                        000000000000000000
F0010000006933100005000090048173700013552100000000000000000201503180002001ESPECIALIDADES QUIMICAS DEL NORTE SAS             D000000000043000000000000000000000100010010000000000000000000000F0010000006933100520150318000101 00000000000000000000000000000000000000000000000000000000000000000000000000000000000000000000000000000000000000000N 00000000000NCONT   00    00000000000          00000000000000000000000000000000000000000000 000000000000000A000000000000000000000000000000000000000000000 000000000000000000000000000000000000000     00000000                                                                                                                        000000000000000000
F0010000006933200001000090054716100013050500000000000000000201503180002001IMPORTVAL SAS                                     D000000033200000000000000000000000100010010000000000000000000000F0010000006933200120150318000101 00000000000000000000000000000000000000000000000000000000000000000000000000000000000000000000000000000000000000000N 00000000000NCONT   00    00000000000          00000000000000000000000000000000000000000000 000000000000000A000000000000000000000000000000000000000000000 000000000000000000000000000000000000000     00000000                                                                                                                        000000000000000000
F0010000006933200002000090054716100041450500000000000000000201503180002001IMPORTVAL SAS                                     C000000030000000000000000000000000100010010000000000000000000000F0010000006933200220150318000101 00000000000000000000000000000000000000000000000000000000000000000000000000000000000000000000000000000000000000000N 00000000000NCONT   00    00000000000          00000000000000000000000000000000000000000000 000000000000000A000000000000000000000000000000000000000000000 000000000000000000000000000000000000000     00000000                                                                                                                        000000000000000000
F0010000006933200003000090054716100042505000000000000000000201503180002001IMPORTVAL SAS                                     C000000003200000000000000000000000100010010000000000000000000000F0010000006933200320150318000101 00000000000000000000000000000000000000000000000000000000000000000000000000000000000000000000000000000000000000000N 00000000000NCONT   00    00000000000          00000000000000000000000000000000000000000000 000000000000000A000000000000000000000000000000000000000000000 000000000000000000000000000000000000000     00000000                                                                                                                        000000000000000000
F0010000006933200004000090054716100023658300000000000000000201503180002001IMPORTVAL SAS                                     C000000000240000000000000000000000100010010000000000000000000000F0010000006933200420150318000101 00000000000000000000000000000000000000000000000000000000000000000000000000000000000000000000000000000000000000000N 00000000000NCONT   00    00000000000          00000000000000000000000000000000000000000000 000000000000000A000000000000000000000000000000000000000000000 000000000000000000000000000000000000000     00000000                                                                                                                        000000000000000000
F0010000006933200005000090054716100013552100000000000000000201503180002001IMPORTVAL SAS                                     D000000000240000000000000000000000100010010000000000000000000000F0010000006933200520150318000101 00000000000000000000000000000000000000000000000000000000000000000000000000000000000000000000000000000000000000000N 00000000000NCONT   00    00000000000          00000000000000000000000000000000000000000000 000000000000000A000000000000000000000000000000000000000000000 000000000000000000000000000000000000000     00000000                                                                                                                        000000000000000000
F0010000006933500001000080002300200013050500000000000000000201503180002001DISREL S.A.                                       D000000025750000000000000000000000100010010000000000000000000000F0010000006933500120150318000101 00000000000000000000000000000000000000000000000000000000000000000000000000000000000000000000000000000000000000000N 00000000000NCONT   00    00000000000          00000000000000000000000000000000000000000000 000000000000000A000000000000000000000000000000000000000000000 000000000000000000000000000000000000000     00000000                                                                                                                        000000000000000000
F0010000006933500002000080002300200041450500000000000000000201503180002001DISREL S.A.                                       C000000021000000000000000000000000100010010000000000000000000000F0010000006933500220150318000101 00000000000000000000000000000000000000000000000000000000000000000000000000000000000000000000000000000000000000000N 00000000000NCONT   00    00000000000          00000000000000000000000000000000000000000000 000000000000000A000000000000000000000000000000000000000000000 000000000000000000000000000000000000000     00000000                                                                                                                        000000000000000000
F0010000006933500003000080002300200042505000000000000000000201503180002001DISREL S.A.                                       C000000004750000000000000000000000100010010000000000000000000000F0010000006933500320150318000101 00000000000000000000000000000000000000000000000000000000000000000000000000000000000000000000000000000000000000000N 00000000000NCONT   00    00000000000          00000000000000000000000000000000000000000000 000000000000000A000000000000000000000000000000000000000000000 000000000000000000000000000000000000000     00000000                                                                                                                        000000000000000000
F0010000006933500004000080002300200023658300000000000000000201503180002001DISREL S.A.                                       C000000000168000000000000000000000100010010000000000000000000000F0010000006933500420150318000101 00000000000000000000000000000000000000000000000000000000000000000000000000000000000000000000000000000000000000000N 00000000000NCONT   00    00000000000          00000000000000000000000000000000000000000000 000000000000000A000000000000000000000000000000000000000000000 000000000000000000000000000000000000000     00000000                                                                                                                        000000000000000000
F0010000006933500005000080002300200013552100000000000000000201503180002001DISREL S.A.                                       D000000000168000000000000000000000100010010000000000000000000000F0010000006933500520150318000101 00000000000000000000000000000000000000000000000000000000000000000000000000000000000000000000000000000000000000000N 00000000000NCONT   00    00000000000          00000000000000000000000000000000000000000000 000000000000000A000000000000000000000000000000000000000000000 000000000000000000000000000000000000000     00000000                                                                                                                        000000000000000000
F0010000006933600001000090064982900013050500000000000000000201503180002001DISDIES S.A.S                                     D000000031580000000000000000000000100010010000000000000000000000F0010000006933600120150318000101 00000000000000000000000000000000000000000000000000000000000000000000000000000000000000000000000000000000000000000N 00000000000NCONT   00    00000000000          00000000000000000000000000000000000000000000 000000000000000A000000000000000000000000000000000000000000000 000000000000000000000000000000000000000     00000000                                                                                                                        000000000000000000
F0010000006933600002000090064982900041450500000000000000000201503180002001DISDIES S.A.S                                     C000000028410000000000000000000000100010010000000000000000000000F0010000006933600220150318000101 00000000000000000000000000000000000000000000000000000000000000000000000000000000000000000000000000000000000000000N 00000000000NCONT   00    00000000000          00000000000000000000000000000000000000000000 000000000000000A000000000000000000000000000000000000000000000 000000000000000000000000000000000000000     00000000                                                                                                                        000000000000000000
F0010000006933600003000090064982900042505000000000000000000201503180002001DISDIES S.A.S                                     C000000003170000000000000000000000100010010000000000000000000000F0010000006933600320150318000101 00000000000000000000000000000000000000000000000000000000000000000000000000000000000000000000000000000000000000000N 00000000000NCONT   00    00000000000          00000000000000000000000000000000000000000000 000000000000000A000000000000000000000000000000000000000000000 000000000000000000000000000000000000000     00000000                                                                                                                        000000000000000000
F0010000006933600004000090064982900023658300000000000000000201503180002001DISDIES S.A.S                                     C000000000227300000000000000000000100010010000000000000000000000F0010000006933600420150318000101 00000000000000000000000000000000000000000000000000000000000000000000000000000000000000000000000000000000000000000N 00000000000NCONT   00    00000000000          00000000000000000000000000000000000000000000 000000000000000A000000000000000000000000000000000000000000000 000000000000000000000000000000000000000     00000000                                                                                                                        000000000000000000
F0010000006933600005000090064982900013552100000000000000000201503180002001DISDIES S.A.S                                     D000000000227300000000000000000000100010010000000000000000000000F0010000006933600520150318000101 00000000000000000000000000000000000000000000000000000000000000000000000000000000000000000000000000000000000000000N 00000000000NCONT   00    00000000000          00000000000000000000000000000000000000000000 000000000000000A000000000000000000000000000000000000000000000 000000000000000000000000000000000000000     00000000                                                                                                                        000000000000000000
F0010000006933700001000090010880700013050500000000000000000201503180002001PROELECTRICAS DE BARRANQUILLA LTDA                D000000007830000000000000000000000100010010000000000000000000000F0010000006933700120150318000101 00000000000000000000000000000000000000000000000000000000000000000000000000000000000000000000000000000000000000000N 00000000000NCONT   00    00000000000          00000000000000000000000000000000000000000000 000000000000000A000000000000000000000000000000000000000000000 000000000000000000000000000000000000000     00000000                                                                                                                        000000000000000000
F0010000006933700002000090010880700041450500000000000000000201503180002001PROELECTRICAS DE BARRANQUILLA LTDA                C000000007480000000000000000000000100010010000000000000000000000F0010000006933700220150318000101 00000000000000000000000000000000000000000000000000000000000000000000000000000000000000000000000000000000000000000N 00000000000NCONT   00    00000000000          00000000000000000000000000000000000000000000 000000000000000A000000000000000000000000000000000000000000000 000000000000000000000000000000000000000     00000000                                                                                                                        000000000000000000
F0010000006933700003000090010880700042505000000000000000000201503180002001PROELECTRICAS DE BARRANQUILLA LTDA                C000000000350000000000000000000000100010010000000000000000000000F0010000006933700320150318000101 00000000000000000000000000000000000000000000000000000000000000000000000000000000000000000000000000000000000000000N 00000000000NCONT   00    00000000000          00000000000000000000000000000000000000000000 000000000000000A000000000000000000000000000000000000000000000 000000000000000000000000000000000000000     00000000                                                                                                                        000000000000000000
F0010000006933700004000090010880700023658300000000000000000201503180002001PROELECTRICAS DE BARRANQUILLA LTDA                C000000000059800000000000000000000100010010000000000000000000000F0010000006933700420150318000101 00000000000000000000000000000000000000000000000000000000000000000000000000000000000000000000000000000000000000000N 00000000000NCONT   00    00000000000          00000000000000000000000000000000000000000000 000000000000000A000000000000000000000000000000000000000000000 000000000000000000000000000000000000000     00000000                                                                                                                        000000000000000000
F0010000006933700005000090010880700013552100000000000000000201503180002001PROELECTRICAS DE BARRANQUILLA LTDA                D000000000059800000000000000000000100010010000000000000000000000F0010000006933700520150318000101 00000000000000000000000000000000000000000000000000000000000000000000000000000000000000000000000000000000000000000N 00000000000NCONT   00    00000000000          00000000000000000000000000000000000000000000 000000000000000A000000000000000000000000000000000000000000000 000000000000000000000000000000000000000     00000000                                                                                                                        000000000000000000
F0010000006933800001000080016665600013050500000000000000000201503180002001SUMICAL DE ANTIOQUIA S.A.S                        D000000061365200000000000000000000100010010000000000000000000000F0010000006933800120150318000101 00000000000000000000000000000000000000000000000000000000000000000000000000000000000000000000000000000000000000000N 00000000000NCONT   00    00000000000          00000000000000000000000000000000000000000000 000000000000000A000000000000000000000000000000000000000000000 000000000000000000000000000000000000000     00000000                                                                                                                        000000000000000000
F0010000006933800002000080016665600041450500000000000000000201503180002001SUMICAL DE ANTIOQUIA S.A.S                        C000000052270000000000000000000000100010010000000000000000000000F0010000006933800220150318000101 00000000000000000000000000000000000000000000000000000000000000000000000000000000000000000000000000000000000000000N 00000000000NCONT   00    00000000000          00000000000000000000000000000000000000000000 000000000000000A000000000000000000000000000000000000000000000 000000000000000000000000000000000000000     00000000                                                                                                                        000000000000000000
F0010000006933800003000080016665600042505000000000000000000201503180002001SUMICAL DE ANTIOQUIA S.A.S                        C000000009095200000000000000000000100010010000000000000000000000F0010000006933800320150318000101 00000000000000000000000000000000000000000000000000000000000000000000000000000000000000000000000000000000000000000N 00000000000NCONT   00    00000000000          00000000000000000000000000000000000000000000 000000000000000A000000000000000000000000000000000000000000000 000000000000000000000000000000000000000     00000000                                                                                                                        000000000000000000
F0010000006933800004000080016665600023658300000000000000000201503180002001SUMICAL DE ANTIOQUIA S.A.S                        C000000000418200000000000000000000100010010000000000000000000000F0010000006933800420150318000101 00000000000000000000000000000000000000000000000000000000000000000000000000000000000000000000000000000000000000000N 00000000000NCONT   00    00000000000          00000000000000000000000000000000000000000000 000000000000000A000000000000000000000000000000000000000000000 000000000000000000000000000000000000000     00000000                                                                                                                        000000000000000000
F0010000006933800005000080016665600013552100000000000000000201503180002001SUMICAL DE ANTIOQUIA S.A.S                        D000000000418200000000000000000000100010010000000000000000000000F0010000006933800520150318000101 00000000000000000000000000000000000000000000000000000000000000000000000000000000000000000000000000000000000000000N 00000000000NCONT   00    00000000000          00000000000000000000000000000000000000000000 000000000000000A000000000000000000000000000000000000000000000 000000000000000000000000000000000000000     00000000                                                                                                                        000000000000000000
F0010000006933900001000089010526900013050500000000000000000201503180002001DISTRIBUCIONES CANAL Y CIA S.A.S                  D000000018687200000000000000000000100010010000000000000000000000F0010000006933900120150318000101 00000000000000000000000000000000000000000000000000000000000000000000000000000000000000000000000000000000000000000N 00000000000NCONT   00    00000000000          00000000000000000000000000000000000000000000 000000000000000A000000000000000000000000000000000000000000000 000000000000000000000000000000000000000     00000000                                                                                                                        000000000000000000
F0010000006933900002000089010526900041450500000000000000000201503180002001DISTRIBUCIONES CANAL Y CIA S.A.S                  C000000013450000000000000000000000100010010000000000000000000000F0010000006933900220150318000101 00000000000000000000000000000000000000000000000000000000000000000000000000000000000000000000000000000000000000000N 00000000000NCONT   00    00000000000          00000000000000000000000000000000000000000000 000000000000000A000000000000000000000000000000000000000000000 000000000000000000000000000000000000000     00000000                                                                                                                        000000000000000000
F0010000006933900003000089010526900042505000000000000000000201503180002001DISTRIBUCIONES CANAL Y CIA S.A.S                  C000000005237200000000000000000000100010010000000000000000000000F0010000006933900320150318000101 00000000000000000000000000000000000000000000000000000000000000000000000000000000000000000000000000000000000000000N 00000000000NCONT   00    00000000000          00000000000000000000000000000000000000000000 000000000000000A000000000000000000000000000000000000000000000 000000000000000000000000000000000000000     00000000                                                                                                                        000000000000000000
F0010000006933900004000089010526900023658300000000000000000201503180002001DISTRIBUCIONES CANAL Y CIA S.A.S                  C000000000107600000000000000000000100010010000000000000000000000F0010000006933900420150318000101 00000000000000000000000000000000000000000000000000000000000000000000000000000000000000000000000000000000000000000N 00000000000NCONT   00    00000000000          00000000000000000000000000000000000000000000 000000000000000A000000000000000000000000000000000000000000000 000000000000000000000000000000000000000     00000000                                                                                                                        000000000000000000
F0010000006933900005000089010526900013552100000000000000000201503180002001DISTRIBUCIONES CANAL Y CIA S.A.S                  D000000000107600000000000000000000100010010000000000000000000000F0010000006933900520150318000101 00000000000000000000000000000000000000000000000000000000000000000000000000000000000000000000000000000000000000000N 00000000000NCONT   00    00000000000          00000000000000000000000000000000000000000000 000000000000000A000000000000000000000000000000000000000000000 000000000000000000000000000000000000000     00000000                                                                                                                        000000000000000000
F0010000006934000001000080200225800013050500000000000000000201503180002001PERF. TECNICOS DE LA COSTA S.A.S                  D000000097004300000000000000000000100010010000000000000000000000F0010000006934000120150318000101 00000000000000000000000000000000000000000000000000000000000000000000000000000000000000000000000000000000000000000N 00000000000NCONT   00    00000000000          00000000000000000000000000000000000000000000 000000000000000A000000000000000000000000000000000000000000000 000000000000000000000000000000000000000     00000000                                                                                                                        000000000000000000
F0010000006934000002000080200225800041450500000000000000000201503180002001PERF. TECNICOS DE LA COSTA S.A.S                  C000000084754600000000000000000000100010010000000000000000000000F0010000006934000220150318000101 00000000000000000000000000000000000000000000000000000000000000000000000000000000000000000000000000000000000000000N 00000000000NCONT   00    00000000000          00000000000000000000000000000000000000000000 000000000000000A000000000000000000000000000000000000000000000 000000000000000000000000000000000000000     00000000                                                                                                                        000000000000000000
F0010000006934000003000080200225800042505000000000000000000201503180002001PERF. TECNICOS DE LA COSTA S.A.S                  C000000012249700000000000000000000100010010000000000000000000000F0010000006934000320150318000101 00000000000000000000000000000000000000000000000000000000000000000000000000000000000000000000000000000000000000000N 00000000000NCONT   00    00000000000          00000000000000000000000000000000000000000000 000000000000000A000000000000000000000000000000000000000000000 000000000000000000000000000000000000000     00000000                                                                                                                        000000000000000000
F0010000006934000004000080200225800023658300000000000000000201503180002001PERF. TECNICOS DE LA COSTA S.A.S                  C000000000678000000000000000000000100010010000000000000000000000F0010000006934000420150318000101 00000000000000000000000000000000000000000000000000000000000000000000000000000000000000000000000000000000000000000N 00000000000NCONT   00    00000000000          00000000000000000000000000000000000000000000 000000000000000A000000000000000000000000000000000000000000000 000000000000000000000000000000000000000     00000000                                                                                                                        000000000000000000
F0010000006934000005000080200225800013552100000000000000000201503180002001PERF. TECNICOS DE LA COSTA S.A.S                  D000000000678000000000000000000000100010010000000000000000000000F0010000006934000520150318000101 00000000000000000000000000000000000000000000000000000000000000000000000000000000000000000000000000000000000000000N 00000000000NCONT   00    00000000000          00000000000000000000000000000000000000000000 000000000000000A000000000000000000000000000000000000000000000 000000000000000000000000000000000000000     00000000                                                                                                                        000000000000000000
F0010000006934100001000089021246300013050500000000000000000201503180002001LUBRIGRAS S.A.                                    D000000005301200000000000000000000100010010000000000000000000000F0010000006934100120150318000101 00000000000000000000000000000000000000000000000000000000000000000000000000000000000000000000000000000000000000000N 00000000000NCONT   00    00000000000          00000000000000000000000000000000000000000000 000000000000000A000000000000000000000000000000000000000000000 000000000000000000000000000000000000000     00000000                                                                                                                        000000000000000000
F0010000006934100002000089021246300041450500000000000000000201503180002001LUBRIGRAS S.A.                                    C000000004800000000000000000000000100010010000000000000000000000F0010000006934100220150318000101 00000000000000000000000000000000000000000000000000000000000000000000000000000000000000000000000000000000000000000N 00000000000NCONT   00    00000000000          00000000000000000000000000000000000000000000 000000000000000A000000000000000000000000000000000000000000000 000000000000000000000000000000000000000     00000000                                                                                                                        000000000000000000
F0010000006934100003000089021246300042505000000000000000000201503180002001LUBRIGRAS S.A.                                    C000000000501200000000000000000000100010010000000000000000000000F0010000006934100320150318000101 00000000000000000000000000000000000000000000000000000000000000000000000000000000000000000000000000000000000000000N 00000000000NCONT   00    00000000000          00000000000000000000000000000000000000000000 000000000000000A000000000000000000000000000000000000000000000 000000000000000000000000000000000000000     00000000                                                                                                                        000000000000000000
F0010000006934100004000089021246300023658300000000000000000201503180002001LUBRIGRAS S.A.                                    C000000000038400000000000000000000100010010000000000000000000000F0010000006934100420150318000101 00000000000000000000000000000000000000000000000000000000000000000000000000000000000000000000000000000000000000000N 00000000000NCONT   00    00000000000          00000000000000000000000000000000000000000000 000000000000000A000000000000000000000000000000000000000000000 000000000000000000000000000000000000000     00000000                                                                                                                        000000000000000000
F0010000006934100005000089021246300013552100000000000000000201503180002001LUBRIGRAS S.A.                                    D000000000038400000000000000000000100010010000000000000000000000F0010000006934100520150318000101 00000000000000000000000000000000000000000000000000000000000000000000000000000000000000000000000000000000000000000N 00000000000NCONT   00    00000000000          00000000000000000000000000000000000000000000 000000000000000A000000000000000000000000000000000000000000000 000000000000000000000000000000000000000     00000000                                                                                                                        000000000000000000
F0010000006934200001000090031658200013050500000000000000000201503180002001ABAOS S.A.S.                                      D000000009439900000000000000000000100010010000000000000000000000F0010000006934200120150318000101 00000000000000000000000000000000000000000000000000000000000000000000000000000000000000000000000000000000000000000N 00000000000NCONT   00    00000000000          00000000000000000000000000000000000000000000 000000000000000A000000000000000000000000000000000000000000000 000000000000000000000000000000000000000     00000000                                                                                                                        000000000000000000
F0010000006934200002000090031658200041450500000000000000000201503180002001ABAOS S.A.S.                                      C000000007840000000000000000000000100010010000000000000000000000F0010000006934200220150318000101 00000000000000000000000000000000000000000000000000000000000000000000000000000000000000000000000000000000000000000N 00000000000NCONT   00    00000000000          00000000000000000000000000000000000000000000 000000000000000A000000000000000000000000000000000000000000000 000000000000000000000000000000000000000     00000000                                                                                                                        000000000000000000
F0010000006934200003000090031658200042505000000000000000000201503180002001ABAOS S.A.S.                                      C000000001599900000000000000000000100010010000000000000000000000F0010000006934200320150318000101 00000000000000000000000000000000000000000000000000000000000000000000000000000000000000000000000000000000000000000N 00000000000NCONT   00    00000000000          00000000000000000000000000000000000000000000 000000000000000A000000000000000000000000000000000000000000000 000000000000000000000000000000000000000     00000000                                                                                                                        000000000000000000
F0010000006934200004000090031658200023658300000000000000000201503180002001ABAOS S.A.S.                                      C000000000062700000000000000000000100010010000000000000000000000F0010000006934200420150318000101 00000000000000000000000000000000000000000000000000000000000000000000000000000000000000000000000000000000000000000N 00000000000NCONT   00    00000000000          00000000000000000000000000000000000000000000 000000000000000A000000000000000000000000000000000000000000000 000000000000000000000000000000000000000     00000000                                                                                                                        000000000000000000
F0010000006934200005000090031658200013552100000000000000000201503180002001ABAOS S.A.S.                                      D000000000062700000000000000000000100010010000000000000000000000F0010000006934200520150318000101 00000000000000000000000000000000000000000000000000000000000000000000000000000000000000000000000000000000000000000N 00000000000NCONT   00    00000000000          00000000000000000000000000000000000000000000 000000000000000A000000000000000000000000000000000000000000000 000000000000000000000000000000000000000     00000000                                                                                                                        000000000000000000
F0010000006934300001000090013859100013050500000000000000000201503180002001ALUMARKET BARRANQUILLA S.A.S.                     D000000009073200000000000000000000100010010000000000000000000000F0010000006934300120150318000101 00000000000000000000000000000000000000000000000000000000000000000000000000000000000000000000000000000000000000000N 00000000000NCONT   00    00000000000          00000000000000000000000000000000000000000000 000000000000000A000000000000000000000000000000000000000000000 000000000000000000000000000000000000000     00000000                                                                                                                        000000000000000000
F0010000006934300002000090013859100041450500000000000000000201503180002001ALUMARKET BARRANQUILLA S.A.S.                     C000000008323200000000000000000000100010010000000000000000000000F0010000006934300220150318000101 00000000000000000000000000000000000000000000000000000000000000000000000000000000000000000000000000000000000000000N 00000000000NCONT   00    00000000000          00000000000000000000000000000000000000000000 000000000000000A000000000000000000000000000000000000000000000 000000000000000000000000000000000000000     00000000                                                                                                                        000000000000000000
F0010000006934300003000090013859100042505000000000000000000201503180002001ALUMARKET BARRANQUILLA S.A.S.                     C000000000750000000000000000000000100010010000000000000000000000F0010000006934300320150318000101 00000000000000000000000000000000000000000000000000000000000000000000000000000000000000000000000000000000000000000N 00000000000NCONT   00    00000000000          00000000000000000000000000000000000000000000 000000000000000A000000000000000000000000000000000000000000000 000000000000000000000000000000000000000     00000000                                                                                                                        000000000000000000
F0010000006934300004000090013859100023658300000000000000000201503180002001ALUMARKET BARRANQUILLA S.A.S.                     C000000000066600000000000000000000100010010000000000000000000000F0010000006934300420150318000101 00000000000000000000000000000000000000000000000000000000000000000000000000000000000000000000000000000000000000000N 00000000000NCONT   00    00000000000          00000000000000000000000000000000000000000000 000000000000000A000000000000000000000000000000000000000000000 000000000000000000000000000000000000000     00000000                                                                                                                        000000000000000000
F0010000006934300005000090013859100013552100000000000000000201503180002001ALUMARKET BARRANQUILLA S.A.S.                     D000000000066600000000000000000000100010010000000000000000000000F0010000006934300520150318000101 00000000000000000000000000000000000000000000000000000000000000000000000000000000000000000000000000000000000000000N 00000000000NCONT   00    00000000000          00000000000000000000000000000000000000000000 000000000000000A000000000000000000000000000000000000000000000 000000000000000000000000000000000000000     00000000                                                                                                                        000000000000000000
F0010000006934400001000090013035500013050500000000000000000201503180002001FUJIAN SHAN S.A.                                  D000000037532000000000000000000000100010010000000000000000000000F0010000006934400120150318000101 00000000000000000000000000000000000000000000000000000000000000000000000000000000000000000000000000000000000000000N 00000000000NCONT   00    00000000000          00000000000000000000000000000000000000000000 000000000000000A000000000000000000000000000000000000000000000 000000000000000000000000000000000000000     00000000                                                                                                                        000000000000000000
F0010000006934400002000090013035500041450500000000000000000201503180002001FUJIAN SHAN S.A.                                  C000000036532000000000000000000000100010010000000000000000000000F0010000006934400220150318000101 00000000000000000000000000000000000000000000000000000000000000000000000000000000000000000000000000000000000000000N 00000000000NCONT   00    00000000000          00000000000000000000000000000000000000000000 000000000000000A000000000000000000000000000000000000000000000 000000000000000000000000000000000000000     00000000                                                                                                                        000000000000000000
F0010000006934400003000090013035500042505000000000000000000201503180002001FUJIAN SHAN S.A.                                  C000000001000000000000000000000000100010010000000000000000000000F0010000006934400320150318000101 00000000000000000000000000000000000000000000000000000000000000000000000000000000000000000000000000000000000000000N 00000000000NCONT   00    00000000000          00000000000000000000000000000000000000000000 000000000000000A000000000000000000000000000000000000000000000 000000000000000000000000000000000000000     00000000                                                                                                                        000000000000000000
F0010000006934400004000090013035500023658300000000000000000201503180002001FUJIAN SHAN S.A.                                  C000000000292300000000000000000000100010010000000000000000000000F0010000006934400420150318000101 00000000000000000000000000000000000000000000000000000000000000000000000000000000000000000000000000000000000000000N 00000000000NCONT   00    00000000000          00000000000000000000000000000000000000000000 000000000000000A000000000000000000000000000000000000000000000 000000000000000000000000000000000000000     00000000                                                                                                                        000000000000000000
F0010000006934400005000090013035500013552100000000000000000201503180002001FUJIAN SHAN S.A.                                  D000000000292300000000000000000000100010010000000000000000000000F0010000006934400520150318000101 00000000000000000000000000000000000000000000000000000000000000000000000000000000000000000000000000000000000000000N 00000000000NCONT   00    00000000000          00000000000000000000000000000000000000000000 000000000000000A000000000000000000000000000000000000000000000 000000000000000000000000000000000000000     00000000                                                                                                                        000000000000000000
F0010000006934500001000080018525700013050500000000000000000201503180002001SUMINISTROS Y ACABADOS LTDA                       D000000004053900000000000000000000100010010000000000000000000000F0010000006934500120150318000101 00000000000000000000000000000000000000000000000000000000000000000000000000000000000000000000000000000000000000000N 00000000000NCONT   00    00000000000          00000000000000000000000000000000000000000000 000000000000000A000000000000000000000000000000000000000000000 000000000000000000000000000000000000000     00000000                                                                                                                        000000000000000000
F0010000006934500002000080018525700041450500000000000000000201503180002001SUMINISTROS Y ACABADOS LTDA                       C000000003080000000000000000000000100010010000000000000000000000F0010000006934500220150318000101 00000000000000000000000000000000000000000000000000000000000000000000000000000000000000000000000000000000000000000N 00000000000NCONT   00    00000000000          00000000000000000000000000000000000000000000 000000000000000A000000000000000000000000000000000000000000000 000000000000000000000000000000000000000     00000000                                                                                                                        000000000000000000
F0010000006934500003000080018525700042505000000000000000000201503180002001SUMINISTROS Y ACABADOS LTDA                       C000000000973900000000000000000000100010010000000000000000000000F0010000006934500320150318000101 00000000000000000000000000000000000000000000000000000000000000000000000000000000000000000000000000000000000000000N 00000000000NCONT   00    00000000000          00000000000000000000000000000000000000000000 000000000000000A000000000000000000000000000000000000000000000 000000000000000000000000000000000000000     00000000                                                                                                                        000000000000000000
F0010000006934500004000080018525700023658300000000000000000201503180002001SUMINISTROS Y ACABADOS LTDA                       C000000000024600000000000000000000100010010000000000000000000000F0010000006934500420150318000101 00000000000000000000000000000000000000000000000000000000000000000000000000000000000000000000000000000000000000000N 00000000000NCONT   00    00000000000          00000000000000000000000000000000000000000000 000000000000000A000000000000000000000000000000000000000000000 000000000000000000000000000000000000000     00000000                                                                                                                        000000000000000000
F0010000006934500005000080018525700013552100000000000000000201503180002001SUMINISTROS Y ACABADOS LTDA                       D000000000024600000000000000000000100010010000000000000000000000F0010000006934500520150318000101 00000000000000000000000000000000000000000000000000000000000000000000000000000000000000000000000000000000000000000N 00000000000NCONT   00    00000000000          00000000000000000000000000000000000000000000 000000000000000A000000000000000000000000000000000000000000000 000000000000000000000000000000000000000     00000000                                                                                                                        000000000000000000
F0010000006934600001000080200962900013050500000000000000000201503180002001ACERO & MALLAS S.A.S.                             D000000004841000000000000000000000100010010000000000000000000000F0010000006934600120150318000101 00000000000000000000000000000000000000000000000000000000000000000000000000000000000000000000000000000000000000000N 00000000000NCONT   00    00000000000          00000000000000000000000000000000000000000000 000000000000000A000000000000000000000000000000000000000000000 000000000000000000000000000000000000000     00000000                                                                                                                        000000000000000000
F0010000006934600002000080200962900041450500000000000000000201503180002001ACERO & MALLAS S.A.S.                             C000000004500000000000000000000000100010010000000000000000000000F0010000006934600220150318000101 00000000000000000000000000000000000000000000000000000000000000000000000000000000000000000000000000000000000000000N 00000000000NCONT   00    00000000000          00000000000000000000000000000000000000000000 000000000000000A000000000000000000000000000000000000000000000 000000000000000000000000000000000000000     00000000                                                                                                                        000000000000000000
F0010000006934600003000080200962900042505000000000000000000201503180002001ACERO & MALLAS S.A.S.                             C000000000341000000000000000000000100010010000000000000000000000F0010000006934600320150318000101 00000000000000000000000000000000000000000000000000000000000000000000000000000000000000000000000000000000000000000N 00000000000NCONT   00    00000000000          00000000000000000000000000000000000000000000 000000000000000A000000000000000000000000000000000000000000000 000000000000000000000000000000000000000     00000000                                                                                                                        000000000000000000
F0010000006934600004000080200962900023658300000000000000000201503180002001ACERO & MALLAS S.A.S.                             C000000000036000000000000000000000100010010000000000000000000000F0010000006934600420150318000101 00000000000000000000000000000000000000000000000000000000000000000000000000000000000000000000000000000000000000000N 00000000000NCONT   00    00000000000          00000000000000000000000000000000000000000000 000000000000000A000000000000000000000000000000000000000000000 000000000000000000000000000000000000000     00000000                                                                                                                        000000000000000000
F0010000006934600005000080200962900013552100000000000000000201503180002001ACERO & MALLAS S.A.S.                             D000000000036000000000000000000000100010010000000000000000000000F0010000006934600520150318000101 00000000000000000000000000000000000000000000000000000000000000000000000000000000000000000000000000000000000000000N 00000000000NCONT   00    00000000000          00000000000000000000000000000000000000000000 000000000000000A000000000000000000000000000000000000000000000 000000000000000000000000000000000000000     00000000                                                                                                                        000000000000000000
F0010000006934700001000090009800500013050500000000000000000201503180002001GLORIANT CHEMICAL DE COLOMBIA LTDA                D000000041605000000000000000000000100010010000000000000000000000F0010000006934700120150318000101 00000000000000000000000000000000000000000000000000000000000000000000000000000000000000000000000000000000000000000N 00000000000NCONT   00    00000000000          00000000000000000000000000000000000000000000 000000000000000A000000000000000000000000000000000000000000000 000000000000000000000000000000000000000     00000000                                                                                                                        000000000000000000
F0010000006934700002000090009800500041450500000000000000000201503180002001GLORIANT CHEMICAL DE COLOMBIA LTDA                C000000037390000000000000000000000100010010000000000000000000000F0010000006934700220150318000101 00000000000000000000000000000000000000000000000000000000000000000000000000000000000000000000000000000000000000000N 00000000000NCONT   00    00000000000          00000000000000000000000000000000000000000000 000000000000000A000000000000000000000000000000000000000000000 000000000000000000000000000000000000000     00000000                                                                                                                        000000000000000000
F0010000006934700003000090009800500042505000000000000000000201503180002001GLORIANT CHEMICAL DE COLOMBIA LTDA                C000000004215000000000000000000000100010010000000000000000000000F0010000006934700320150318000101 00000000000000000000000000000000000000000000000000000000000000000000000000000000000000000000000000000000000000000N 00000000000NCONT   00    00000000000          00000000000000000000000000000000000000000000 000000000000000A000000000000000000000000000000000000000000000 000000000000000000000000000000000000000     00000000                                                                                                                        000000000000000000
F0010000006934700004000090009800500023658300000000000000000201503180002001GLORIANT CHEMICAL DE COLOMBIA LTDA                C000000000299100000000000000000000100010010000000000000000000000F0010000006934700420150318000101 00000000000000000000000000000000000000000000000000000000000000000000000000000000000000000000000000000000000000000N 00000000000NCONT   00    00000000000          00000000000000000000000000000000000000000000 000000000000000A000000000000000000000000000000000000000000000 000000000000000000000000000000000000000     00000000                                                                                                                        000000000000000000
F0010000006934700005000090009800500013552100000000000000000201503180002001GLORIANT CHEMICAL DE COLOMBIA LTDA                D000000000299100000000000000000000100010010000000000000000000000F0010000006934700520150318000101 00000000000000000000000000000000000000000000000000000000000000000000000000000000000000000000000000000000000000000N 00000000000NCONT   00    00000000000          00000000000000000000000000000000000000000000 000000000000000A000000000000000000000000000000000000000000000 000000000000000000000000000000000000000     00000000                                                                                                                        000000000000000000
F0010000006934800001000090044443800013050500000000000000000201503180002001DISTRIBUCIONES UFRE S.A.S.                        D000000000700000000000000000000000100010010000000000000000000000F0010000006934800120150318000101 00000000000000000000000000000000000000000000000000000000000000000000000000000000000000000000000000000000000000000N 00000000000NCONT   00    00000000000          00000000000000000000000000000000000000000000 000000000000000A000000000000000000000000000000000000000000000 000000000000000000000000000000000000000     00000000                                                                                                                        000000000000000000
F0010000006934800002000090044443800041450500000000000000000201503180002001DISTRIBUCIONES UFRE S.A.S.                        C000000000400000000000000000000000100010010000000000000000000000F0010000006934800220150318000101 00000000000000000000000000000000000000000000000000000000000000000000000000000000000000000000000000000000000000000N 00000000000NCONT   00    00000000000          00000000000000000000000000000000000000000000 000000000000000A000000000000000000000000000000000000000000000 000000000000000000000000000000000000000     00000000                                                                                                                        000000000000000000
F0010000006934800003000090044443800042505000000000000000000201503180002001DISTRIBUCIONES UFRE S.A.S.                        C000000000300000000000000000000000100010010000000000000000000000F0010000006934800320150318000101 00000000000000000000000000000000000000000000000000000000000000000000000000000000000000000000000000000000000000000N 00000000000NCONT   00    00000000000          00000000000000000000000000000000000000000000 000000000000000A000000000000000000000000000000000000000000000 000000000000000000000000000000000000000     00000000                                                                                                                        000000000000000000
F0010000006934800004000090044443800023658300000000000000000201503180002001DISTRIBUCIONES UFRE S.A.S.                        C000000000003200000000000000000000100010010000000000000000000000F0010000006934800420150318000101 00000000000000000000000000000000000000000000000000000000000000000000000000000000000000000000000000000000000000000N 00000000000NCONT   00    00000000000          00000000000000000000000000000000000000000000 000000000000000A000000000000000000000000000000000000000000000 000000000000000000000000000000000000000     00000000                                                                                                                        000000000000000000
F0010000006934800005000090044443800013552100000000000000000201503180002001DISTRIBUCIONES UFRE S.A.S.                        D000000000003200000000000000000000100010010000000000000000000000F0010000006934800520150318000101 00000000000000000000000000000000000000000000000000000000000000000000000000000000000000000000000000000000000000000N 00000000000NCONT   00    00000000000          00000000000000000000000000000000000000000000 000000000000000A000000000000000000000000000000000000000000000 000000000000000000000000000000000000000     00000000                                                                                                                        000000000000000000
F0010000006934900001000090050863700013050500000000000000000201503180002001COMERCIALIZADORA PERFECT SAS                      D000000006823700000000000000000000100010010000000000000000000000F0010000006934900120150318000101 00000000000000000000000000000000000000000000000000000000000000000000000000000000000000000000000000000000000000000N 00000000000NCONT   00    00000000000          00000000000000000000000000000000000000000000 000000000000000A000000000000000000000000000000000000000000000 000000000000000000000000000000000000000     00000000                                                                                                                        000000000000000000
F0010000006934900002000090050863700041450500000000000000000201503180002001COMERCIALIZADORA PERFECT SAS                      C000000004873700000000000000000000100010010000000000000000000000F0010000006934900220150318000101 00000000000000000000000000000000000000000000000000000000000000000000000000000000000000000000000000000000000000000N 00000000000NCONT   00    00000000000          00000000000000000000000000000000000000000000 000000000000000A000000000000000000000000000000000000000000000 000000000000000000000000000000000000000     00000000                                                                                                                        000000000000000000
F0010000006934900003000090050863700042505000000000000000000201503180002001COMERCIALIZADORA PERFECT SAS                      C000000001950000000000000000000000100010010000000000000000000000F0010000006934900320150318000101 00000000000000000000000000000000000000000000000000000000000000000000000000000000000000000000000000000000000000000N 00000000000NCONT   00    00000000000          00000000000000000000000000000000000000000000 000000000000000A000000000000000000000000000000000000000000000 000000000000000000000000000000000000000     00000000                                                                                                                        000000000000000000
F0010000006934900004000090050863700023658300000000000000000201503180002001COMERCIALIZADORA PERFECT SAS                      C000000000039000000000000000000000100010010000000000000000000000F0010000006934900420150318000101 00000000000000000000000000000000000000000000000000000000000000000000000000000000000000000000000000000000000000000N 00000000000NCONT   00    00000000000          00000000000000000000000000000000000000000000 000000000000000A000000000000000000000000000000000000000000000 000000000000000000000000000000000000000     00000000                                                                                                                        000000000000000000
F0010000006934900005000090050863700013552100000000000000000201503180002001COMERCIALIZADORA PERFECT SAS                      D000000000039000000000000000000000100010010000000000000000000000F0010000006934900520150318000101 00000000000000000000000000000000000000000000000000000000000000000000000000000000000000000000000000000000000000000N 00000000000NCONT   00    00000000000          00000000000000000000000000000000000000000000 000000000000000A000000000000000000000000000000000000000000000 000000000000000000000000000000000000000     00000000                                                                                                                        000000000000000000
F0010000006935000001000000827614700013050500000000000000000201503180002001ALVARO  HERNAN  PEREZ ALVAREZ                     D000000010450000000000000000000000100010010000000000000000000000F0010000006935000120150318000101 00000000000000000000000000000000000000000000000000000000000000000000000000000000000000000000000000000000000000000N 00000000000NCONT   00    00000000000          00000000000000000000000000000000000000000000 000000000000000A000000000000000000000000000000000000000000000 000000000000000000000000000000000000000     00000000                                                                                                                        000000000000000000
F0010000006935000002000000827614700041450500000000000000000201503180002001ALVARO  HERNAN  PEREZ ALVAREZ                     C000000009600000000000000000000000100010010000000000000000000000F0010000006935000220150318000101 00000000000000000000000000000000000000000000000000000000000000000000000000000000000000000000000000000000000000000N 00000000000NCONT   00    00000000000          00000000000000000000000000000000000000000000 000000000000000A000000000000000000000000000000000000000000000 000000000000000000000000000000000000000     00000000                                                                                                                        000000000000000000
F0010000006935000003000000827614700042505000000000000000000201503180002001ALVARO  HERNAN  PEREZ ALVAREZ                     C000000000850000000000000000000000100010010000000000000000000000F0010000006935000320150318000101 00000000000000000000000000000000000000000000000000000000000000000000000000000000000000000000000000000000000000000N 00000000000NCONT   00    00000000000          00000000000000000000000000000000000000000000 000000000000000A000000000000000000000000000000000000000000000 000000000000000000000000000000000000000     00000000                                                                                                                        000000000000000000
F0010000006935000004000000827614700023658300000000000000000201503180002001ALVARO  HERNAN  PEREZ ALVAREZ                     C000000000076800000000000000000000100010010000000000000000000000F0010000006935000420150318000101 00000000000000000000000000000000000000000000000000000000000000000000000000000000000000000000000000000000000000000N 00000000000NCONT   00    00000000000          00000000000000000000000000000000000000000000 000000000000000A000000000000000000000000000000000000000000000 000000000000000000000000000000000000000     00000000                                                                                                                        000000000000000000
F0010000006935000005000000827614700013552100000000000000000201503180002001ALVARO  HERNAN  PEREZ ALVAREZ                     D000000000076800000000000000000000100010010000000000000000000000F0010000006935000520150318000101 00000000000000000000000000000000000000000000000000000000000000000000000000000000000000000000000000000000000000000N 00000000000NCONT   00    00000000000          00000000000000000000000000000000000000000000 000000000000000A000000000000000000000000000000000000000000000 000000000000000000000000000000000000000     00000000                                                                                                                        000000000000000000
F0010000006935100001000089030195100013050500000000000000000201503180002001LIBRERIA NACIONAL S.A.                            D000000046980000000000000000000000100010010000000000000000000000F0010000006935100120150318000101 00000000000000000000000000000000000000000000000000000000000000000000000000000000000000000000000000000000000000000N 00000000000NCONT   00    00000000000          00000000000000000000000000000000000000000000 000000000000000A000000000000000000000000000000000000000000000 000000000000000000000000000000000000000     00000000                                                                                                                        000000000000000000
F0010000006935100002000089030195100041450500000000000000000201503180002001LIBRERIA NACIONAL S.A.                            C000000037830000000000000000000000100010010000000000000000000000F0010000006935100220150318000101 00000000000000000000000000000000000000000000000000000000000000000000000000000000000000000000000000000000000000000N 00000000000NCONT   00    00000000000          00000000000000000000000000000000000000000000 000000000000000A000000000000000000000000000000000000000000000 000000000000000000000000000000000000000     00000000                                                                                                                        000000000000000000
F0010000006935100003000089030195100042505000000000000000000201503180002001LIBRERIA NACIONAL S.A.                            C000000009150000000000000000000000100010010000000000000000000000F0010000006935100320150318000101 00000000000000000000000000000000000000000000000000000000000000000000000000000000000000000000000000000000000000000N 00000000000NCONT   00    00000000000          00000000000000000000000000000000000000000000 000000000000000A000000000000000000000000000000000000000000000 000000000000000000000000000000000000000     00000000                                                                                                                        000000000000000000
F0010000006935100004000089030195100023658300000000000000000201503180002001LIBRERIA NACIONAL S.A.                            C000000000302600000000000000000000100010010000000000000000000000F0010000006935100420150318000101 00000000000000000000000000000000000000000000000000000000000000000000000000000000000000000000000000000000000000000N 00000000000NCONT   00    00000000000          00000000000000000000000000000000000000000000 000000000000000A000000000000000000000000000000000000000000000 000000000000000000000000000000000000000     00000000                                                                                                                        000000000000000000
F0010000006935100005000089030195100013552100000000000000000201503180002001LIBRERIA NACIONAL S.A.                            D000000000302600000000000000000000100010010000000000000000000000F0010000006935100520150318000101 00000000000000000000000000000000000000000000000000000000000000000000000000000000000000000000000000000000000000000N 00000000000NCONT   00    00000000000          00000000000000000000000000000000000000000000 000000000000000A000000000000000000000000000000000000000000000 000000000000000000000000000000000000000     00000000                                                                                                                        000000000000000000
F0010000006935200001000001022529300013050500000000000000000201503180002001ALBERTO ALVAREZ ISAZA                             D000000016002500000000000000000000100010010000000000000000000000F0010000006935200120150318000101 00000000000000000000000000000000000000000000000000000000000000000000000000000000000000000000000000000000000000000N 00000000000NCONT   00    00000000000          00000000000000000000000000000000000000000000 000000000000000A000000000000000000000000000000000000000000000 000000000000000000000000000000000000000     00000000                                                                                                                        000000000000000000
F0010000006935200002000001022529300041450500000000000000000201503180002001ALBERTO ALVAREZ ISAZA                             C000000014920000000000000000000000100010010000000000000000000000F0010000006935200220150318000101 00000000000000000000000000000000000000000000000000000000000000000000000000000000000000000000000000000000000000000N 00000000000NCONT   00    00000000000          00000000000000000000000000000000000000000000 000000000000000A000000000000000000000000000000000000000000000 000000000000000000000000000000000000000     00000000                                                                                                                        000000000000000000
F0010000006935200003000001022529300042505000000000000000000201503180002001ALBERTO ALVAREZ ISAZA                             C000000001082500000000000000000000100010010000000000000000000000F0010000006935200320150318000101 00000000000000000000000000000000000000000000000000000000000000000000000000000000000000000000000000000000000000000N 00000000000NCONT   00    00000000000          00000000000000000000000000000000000000000000 000000000000000A000000000000000000000000000000000000000000000 000000000000000000000000000000000000000     00000000                                                                                                                        000000000000000000
F0010000006935200004000001022529300023658300000000000000000201503180002001ALBERTO ALVAREZ ISAZA                             C000000000119400000000000000000000100010010000000000000000000000F0010000006935200420150318000101 00000000000000000000000000000000000000000000000000000000000000000000000000000000000000000000000000000000000000000N 00000000000NCONT   00    00000000000          00000000000000000000000000000000000000000000 000000000000000A000000000000000000000000000000000000000000000 000000000000000000000000000000000000000     00000000                                                                                                                        000000000000000000
F0010000006935200005000001022529300013552100000000000000000201503180002001ALBERTO ALVAREZ ISAZA                             D000000000119400000000000000000000100010010000000000000000000000F0010000006935200520150318000101 00000000000000000000000000000000000000000000000000000000000000000000000000000000000000000000000000000000000000000N 00000000000NCONT   00    00000000000          00000000000000000000000000000000000000000000 000000000000000A000000000000000000000000000000000000000000000 000000000000000000000000000000000000000     00000000                                                                                                                        000000000000000000
F0010000006935300001000000431178400013050500000000000000000201503180002001EFRAIN ALVAREZ                                    D000000026860000000000000000000000100010010000000000000000000000F0010000006935300120150318000101 00000000000000000000000000000000000000000000000000000000000000000000000000000000000000000000000000000000000000000N 00000000000NCONT   00    00000000000          00000000000000000000000000000000000000000000 000000000000000A000000000000000000000000000000000000000000000 000000000000000000000000000000000000000     00000000                                                                                                                        000000000000000000
F0010000006935300002000000431178400041450500000000000000000201503180002001EFRAIN ALVAREZ                                    C000000025030000000000000000000000100010010000000000000000000000F0010000006935300220150318000101 00000000000000000000000000000000000000000000000000000000000000000000000000000000000000000000000000000000000000000N 00000000000NCONT   00    00000000000          00000000000000000000000000000000000000000000 000000000000000A000000000000000000000000000000000000000000000 000000000000000000000000000000000000000     00000000                                                                                                                        000000000000000000
F0010000006935300003000000431178400042505000000000000000000201503180002001EFRAIN ALVAREZ                                    C000000001830000000000000000000000100010010000000000000000000000F0010000006935300320150318000101 00000000000000000000000000000000000000000000000000000000000000000000000000000000000000000000000000000000000000000N 00000000000NCONT   00    00000000000          00000000000000000000000000000000000000000000 000000000000000A000000000000000000000000000000000000000000000 000000000000000000000000000000000000000     00000000                                                                                                                        000000000000000000
F0010000006935300004000000431178400023658300000000000000000201503180002001EFRAIN ALVAREZ                                    C000000000200200000000000000000000100010010000000000000000000000F0010000006935300420150318000101 00000000000000000000000000000000000000000000000000000000000000000000000000000000000000000000000000000000000000000N 00000000000NCONT   00    00000000000          00000000000000000000000000000000000000000000 000000000000000A000000000000000000000000000000000000000000000 000000000000000000000000000000000000000     00000000                                                                                                                        000000000000000000
F0010000006935300005000000431178400013552100000000000000000201503180002001EFRAIN ALVAREZ                                    D000000000200200000000000000000000100010010000000000000000000000F0010000006935300520150318000101 00000000000000000000000000000000000000000000000000000000000000000000000000000000000000000000000000000000000000000N 00000000000NCONT   00    00000000000          00000000000000000000000000000000000000000000 000000000000000A000000000000000000000000000000000000000000000 000000000000000000000000000000000000000     00000000                                                                                                                        000000000000000000
F0010000006935400001000090019362000013050500000000000000000201503180002001GENERAL SUPPLIES CIA LTDA                         D000000018506000000000000000000000100010010000000000000000000000F0010000006935400120150318000101 00000000000000000000000000000000000000000000000000000000000000000000000000000000000000000000000000000000000000000N 00000000000NCONT   00    00000000000          00000000000000000000000000000000000000000000 000000000000000A000000000000000000000000000000000000000000000 000000000000000000000000000000000000000     00000000                                                                                                                        000000000000000000
F0010000006935400002000090019362000041450500000000000000000201503180002001GENERAL SUPPLIES CIA LTDA                         C000000014700000000000000000000000100010010000000000000000000000F0010000006935400220150318000101 00000000000000000000000000000000000000000000000000000000000000000000000000000000000000000000000000000000000000000N 00000000000NCONT   00    00000000000          00000000000000000000000000000000000000000000 000000000000000A000000000000000000000000000000000000000000000 000000000000000000000000000000000000000     00000000                                                                                                                        000000000000000000
F0010000006935400003000090019362000042505000000000000000000201503180002001GENERAL SUPPLIES CIA LTDA                         C000000003806000000000000000000000100010010000000000000000000000F0010000006935400320150318000101 00000000000000000000000000000000000000000000000000000000000000000000000000000000000000000000000000000000000000000N 00000000000NCONT   00    00000000000          00000000000000000000000000000000000000000000 000000000000000A000000000000000000000000000000000000000000000 000000000000000000000000000000000000000     00000000                                                                                                                        000000000000000000
F0010000006935400004000090019362000023658300000000000000000201503180002001GENERAL SUPPLIES CIA LTDA                         C000000000117600000000000000000000100010010000000000000000000000F0010000006935400420150318000101 00000000000000000000000000000000000000000000000000000000000000000000000000000000000000000000000000000000000000000N 00000000000NCONT   00    00000000000          00000000000000000000000000000000000000000000 000000000000000A000000000000000000000000000000000000000000000 000000000000000000000000000000000000000     00000000                                                                                                                        000000000000000000
F0010000006935400005000090019362000013552100000000000000000201503180002001GENERAL SUPPLIES CIA LTDA                         D000000000117600000000000000000000100010010000000000000000000000F0010000006935400520150318000101 00000000000000000000000000000000000000000000000000000000000000000000000000000000000000000000000000000000000000000N 00000000000NCONT   00    00000000000          00000000000000000000000000000000000000000000 000000000000000A000000000000000000000000000000000000000000000 000000000000000000000000000000000000000     00000000                                                                                                                        000000000000000000
F0010000006935500001000080201654800011050500000000000000000201503180002001MULTIALUMINIOS NO 1                               D000000026000000000000000000000000100010010000000000000000000000F0010000006935500120150318000101 00000000000000000000000000000000000000000000000000000000000000000000000000000000000000000000000000000000000000000N 00000000000NCONT   00    00000000000          00000000000000000000000000000000000000000000 000000000000000A000000000000000000000000000000000000000000000 000000000000000000000000000000000000000     00000000                                                                                                                        000000000000000000
F0010000006935500002000080201654800041450500000000000000000201503180002001MULTIALUMINIOS NO 1                               C000000019000000000000000000000000100010010000000000000000000000F0010000006935500220150318000101 00000000000000000000000000000000000000000000000000000000000000000000000000000000000000000000000000000000000000000N 00000000000NCONT   00    00000000000          00000000000000000000000000000000000000000000 000000000000000A000000000000000000000000000000000000000000000 000000000000000000000000000000000000000     00000000                                                                                                                        000000000000000000
F0010000006935500003000080201654800042505000000000000000000201503180002001MULTIALUMINIOS NO 1                               C000000007000000000000000000000000100010010000000000000000000000F0010000006935500320150318000101 00000000000000000000000000000000000000000000000000000000000000000000000000000000000000000000000000000000000000000N 00000000000NCONT   00    00000000000          00000000000000000000000000000000000000000000 000000000000000A000000000000000000000000000000000000000000000 000000000000000000000000000000000000000     00000000                                                                                                                        000000000000000000
F0010000006935500004000080201654800023658300000000000000000201503180002001MULTIALUMINIOS NO 1                               C000000000152000000000000000000000100010010000000000000000000000F0010000006935500420150318000101 00000000000000000000000000000000000000000000000000000000000000000000000000000000000000000000000000000000000000000N 00000000000NCONT   00    00000000000          00000000000000000000000000000000000000000000 000000000000000A000000000000000000000000000000000000000000000 000000000000000000000000000000000000000     00000000                                                                                                                        000000000000000000
F0010000006935500005000080201654800013552100000000000000000201503180002001MULTIALUMINIOS NO 1                               D000000000152000000000000000000000100010010000000000000000000000F0010000006935500520150318000101 00000000000000000000000000000000000000000000000000000000000000000000000000000000000000000000000000000000000000000N 00000000000NCONT   00    00000000000          00000000000000000000000000000000000000000000 000000000000000A000000000000000000000000000000000000000000000 000000000000000000000000000000000000000     00000000                                                                                                                        000000000000000000
F0010000006935600001000090066098300011050500000000000000000201503180002001IMPORTACIONES FERRETEROS DE COLOMBIA SAS /IMFERCO D000000002000000000000000000000000100010010000000000000000000000F0010000006935600120150318000101 00000000000000000000000000000000000000000000000000000000000000000000000000000000000000000000000000000000000000000N 00000000000NCONT   00    00000000000          00000000000000000000000000000000000000000000 000000000000000A000000000000000000000000000000000000000000000 000000000000000000000000000000000000000     00000000                                                                                                                        000000000000000000
F0010000006935600002000090066098300041450500000000000000000201503180002001IMPORTACIONES FERRETEROS DE COLOMBIA SAS /IMFERCO C000000001800000000000000000000000100010010000000000000000000000F0010000006935600220150318000101 00000000000000000000000000000000000000000000000000000000000000000000000000000000000000000000000000000000000000000N 00000000000NCONT   00    00000000000          00000000000000000000000000000000000000000000 000000000000000A000000000000000000000000000000000000000000000 000000000000000000000000000000000000000     00000000                                                                                                                        000000000000000000
F0010000006935600003000090066098300042505000000000000000000201503180002001IMPORTACIONES FERRETEROS DE COLOMBIA SAS /IMFERCO C000000000200000000000000000000000100010010000000000000000000000F0010000006935600320150318000101 00000000000000000000000000000000000000000000000000000000000000000000000000000000000000000000000000000000000000000N 00000000000NCONT   00    00000000000          00000000000000000000000000000000000000000000 000000000000000A000000000000000000000000000000000000000000000 000000000000000000000000000000000000000     00000000                                                                                                                        000000000000000000
F0010000006935600004000090066098300023658300000000000000000201503180002001IMPORTACIONES FERRETEROS DE COLOMBIA SAS /IMFERCO C000000000014400000000000000000000100010010000000000000000000000F0010000006935600420150318000101 00000000000000000000000000000000000000000000000000000000000000000000000000000000000000000000000000000000000000000N 00000000000NCONT   00    00000000000          00000000000000000000000000000000000000000000 000000000000000A000000000000000000000000000000000000000000000 000000000000000000000000000000000000000     00000000                                                                                                                        000000000000000000
F0010000006935600005000090066098300013552100000000000000000201503180002001IMPORTACIONES FERRETEROS DE COLOMBIA SAS /IMFERCO D000000000014400000000000000000000100010010000000000000000000000F0010000006935600520150318000101 00000000000000000000000000000000000000000000000000000000000000000000000000000000000000000000000000000000000000000N 00000000000NCONT   00    00000000000          00000000000000000000000000000000000000000000 000000000000000A000000000000000000000000000000000000000000000 000000000000000000000000000000000000000     00000000                                                                                                                        000000000000000000
F0010000006935700001000080012418800011050500000000000000000201503180002001DISTRITEC S.A.S                                   D000000003700000000000000000000000100010010000000000000000000000F0010000006935700120150318000101 00000000000000000000000000000000000000000000000000000000000000000000000000000000000000000000000000000000000000000N 00000000000NCONT   00    00000000000          00000000000000000000000000000000000000000000 000000000000000A000000000000000000000000000000000000000000000 000000000000000000000000000000000000000     00000000                                                                                                                        000000000000000000
F0010000006935700002000080012418800041450500000000000000000201503180002001DISTRITEC S.A.S                                   C000000003600000000000000000000000100010010000000000000000000000F0010000006935700220150318000101 00000000000000000000000000000000000000000000000000000000000000000000000000000000000000000000000000000000000000000N 00000000000NCONT   00    00000000000          00000000000000000000000000000000000000000000 000000000000000A000000000000000000000000000000000000000000000 000000000000000000000000000000000000000     00000000                                                                                                                        000000000000000000
F0010000006935700003000080012418800042505000000000000000000201503180002001DISTRITEC S.A.S                                   C000000000100000000000000000000000100010010000000000000000000000F0010000006935700320150318000101 00000000000000000000000000000000000000000000000000000000000000000000000000000000000000000000000000000000000000000N 00000000000NCONT   00    00000000000          00000000000000000000000000000000000000000000 000000000000000A000000000000000000000000000000000000000000000 000000000000000000000000000000000000000     00000000                                                                                                                        000000000000000000
F0010000006935700004000080012418800023658300000000000000000201503180002001DISTRITEC S.A.S                                   C000000000028800000000000000000000100010010000000000000000000000F0010000006935700420150318000101 00000000000000000000000000000000000000000000000000000000000000000000000000000000000000000000000000000000000000000N 00000000000NCONT   00    00000000000          00000000000000000000000000000000000000000000 000000000000000A000000000000000000000000000000000000000000000 000000000000000000000000000000000000000     00000000                                                                                                                        000000000000000000
F0010000006935700005000080012418800013552100000000000000000201503180002001DISTRITEC S.A.S                                   D000000000028800000000000000000000100010010000000000000000000000F0010000006935700520150318000101 00000000000000000000000000000000000000000000000000000000000000000000000000000000000000000000000000000000000000000N 00000000000NCONT   00    00000000000          00000000000000000000000000000000000000000000 000000000000000A000000000000000000000000000000000000000000000 000000000000000000000000000000000000000     00000000                                                                                                                        000000000000000000
F0010000006935800001000090072516300011050500000000000000000201503180002001COM. GARCIA Y MELENDEZ                            D000000002100000000000000000000000100010010000000000000000000000F0010000006935800120150318000101 00000000000000000000000000000000000000000000000000000000000000000000000000000000000000000000000000000000000000000N 00000000000NCONT   00    00000000000          00000000000000000000000000000000000000000000 000000000000000A000000000000000000000000000000000000000000000 000000000000000000000000000000000000000     00000000                                                                                                                        000000000000000000
F0010000006935800002000090072516300041450500000000000000000201503180002001COM. GARCIA Y MELENDEZ                            C000000001800000000000000000000000100010010000000000000000000000F0010000006935800220150318000101 00000000000000000000000000000000000000000000000000000000000000000000000000000000000000000000000000000000000000000N 00000000000NCONT   00    00000000000          00000000000000000000000000000000000000000000 000000000000000A000000000000000000000000000000000000000000000 000000000000000000000000000000000000000     00000000                                                                                                                        000000000000000000
F0010000006935800003000090072516300042505000000000000000000201503180002001COM. GARCIA Y MELENDEZ                            C000000000300000000000000000000000100010010000000000000000000000F0010000006935800320150318000101 00000000000000000000000000000000000000000000000000000000000000000000000000000000000000000000000000000000000000000N 00000000000NCONT   00    00000000000          00000000000000000000000000000000000000000000 000000000000000A000000000000000000000000000000000000000000000 000000000000000000000000000000000000000     00000000                                                                                                                        000000000000000000
F0010000006935800004000090072516300023658300000000000000000201503180002001COM. GARCIA Y MELENDEZ                            C000000000014400000000000000000000100010010000000000000000000000F0010000006935800420150318000101 00000000000000000000000000000000000000000000000000000000000000000000000000000000000000000000000000000000000000000N 00000000000NCONT   00    00000000000          00000000000000000000000000000000000000000000 000000000000000A000000000000000000000000000000000000000000000 000000000000000000000000000000000000000     00000000                                                                                                                        000000000000000000
F0010000006935800005000090072516300013552100000000000000000201503180002001COM. GARCIA Y MELENDEZ                            D000000000014400000000000000000000100010010000000000000000000000F0010000006935800520150318000101 00000000000000000000000000000000000000000000000000000000000000000000000000000000000000000000000000000000000000000N 00000000000NCONT   00    00000000000          00000000000000000000000000000000000000000000 000000000000000A000000000000000000000000000000000000000000000 000000000000000000000000000000000000000     00000000                                                                                                                        000000000000000000
F0010000006935900001000090072516300011050500000000000000000201503180002001COM. GARCIA Y MELENDEZ                            D000000001000000000000000000000000100010010000000000000000000000F0010000006935900120150318000101 00000000000000000000000000000000000000000000000000000000000000000000000000000000000000000000000000000000000000000N 00000000000NCONT   00    00000000000          00000000000000000000000000000000000000000000 000000000000000A000000000000000000000000000000000000000000000 000000000000000000000000000000000000000     00000000                                                                                                                        000000000000000000
F0010000006935900002000090072516300041450500000000000000000201503180002001COM. GARCIA Y MELENDEZ                            C000000000900000000000000000000000100010010000000000000000000000F0010000006935900220150318000101 00000000000000000000000000000000000000000000000000000000000000000000000000000000000000000000000000000000000000000N 00000000000NCONT   00    00000000000          00000000000000000000000000000000000000000000 000000000000000A000000000000000000000000000000000000000000000 000000000000000000000000000000000000000     00000000                                                                                                                        000000000000000000
F0010000006935900003000090072516300042505000000000000000000201503180002001COM. GARCIA Y MELENDEZ                            C000000000100000000000000000000000100010010000000000000000000000F0010000006935900320150318000101 00000000000000000000000000000000000000000000000000000000000000000000000000000000000000000000000000000000000000000N 00000000000NCONT   00    00000000000          00000000000000000000000000000000000000000000 000000000000000A000000000000000000000000000000000000000000000 000000000000000000000000000000000000000     00000000                                                                                                                        000000000000000000
F0010000006935900004000090072516300023658300000000000000000201503180002001COM. GARCIA Y MELENDEZ                            C000000000007200000000000000000000100010010000000000000000000000F0010000006935900420150318000101 00000000000000000000000000000000000000000000000000000000000000000000000000000000000000000000000000000000000000000N 00000000000NCONT   00    00000000000          00000000000000000000000000000000000000000000 000000000000000A000000000000000000000000000000000000000000000 000000000000000000000000000000000000000     00000000                                                                                                                        000000000000000000
F0010000006935900005000090072516300013552100000000000000000201503180002001COM. GARCIA Y MELENDEZ                            D000000000007200000000000000000000100010010000000000000000000000F0010000006935900520150318000101 00000000000000000000000000000000000000000000000000000000000000000000000000000000000000000000000000000000000000000N 00000000000NCONT   00    00000000000          00000000000000000000000000000000000000000000 000000000000000A000000000000000000000000000000000000000000000 000000000000000000000000000000000000000     00000000                                                                                                                        000000000000000000
F0010000006936000001000000871573200011050500000000000000000201503180002001ACCESORIAS ARQUITECTONI KJ                        D000000001500000000000000000000000100010010000000000000000000000F0010000006936000120150318000101 00000000000000000000000000000000000000000000000000000000000000000000000000000000000000000000000000000000000000000N 00000000000NCONT   00    00000000000          00000000000000000000000000000000000000000000 000000000000000A000000000000000000000000000000000000000000000 000000000000000000000000000000000000000     00000000                                                                                                                        000000000000000000
F0010000006936000002000000871573200041450500000000000000000201503180002001ACCESORIAS ARQUITECTONI KJ                        C000000001200000000000000000000000100010010000000000000000000000F0010000006936000220150318000101 00000000000000000000000000000000000000000000000000000000000000000000000000000000000000000000000000000000000000000N 00000000000NCONT   00    00000000000          00000000000000000000000000000000000000000000 000000000000000A000000000000000000000000000000000000000000000 000000000000000000000000000000000000000     00000000                                                                                                                        000000000000000000
F0010000006936000003000000871573200042505000000000000000000201503180002001ACCESORIAS ARQUITECTONI KJ                        C000000000300000000000000000000000100010010000000000000000000000F0010000006936000320150318000101 00000000000000000000000000000000000000000000000000000000000000000000000000000000000000000000000000000000000000000N 00000000000NCONT   00    00000000000          00000000000000000000000000000000000000000000 000000000000000A000000000000000000000000000000000000000000000 000000000000000000000000000000000000000     00000000                                                                                                                        000000000000000000
F0010000006936000004000000871573200023658300000000000000000201503180002001ACCESORIAS ARQUITECTONI KJ                        C000000000009600000000000000000000100010010000000000000000000000F0010000006936000420150318000101 00000000000000000000000000000000000000000000000000000000000000000000000000000000000000000000000000000000000000000N 00000000000NCONT   00    00000000000          00000000000000000000000000000000000000000000 000000000000000A000000000000000000000000000000000000000000000 000000000000000000000000000000000000000     00000000                                                                                                                        000000000000000000
F0010000006936000005000000871573200013552100000000000000000201503180002001ACCESORIAS ARQUITECTONI KJ                        D000000000009600000000000000000000100010010000000000000000000000F0010000006936000520150318000101 00000000000000000000000000000000000000000000000000000000000000000000000000000000000000000000000000000000000000000N 00000000000NCONT   00    00000000000          00000000000000000000000000000000000000000000 000000000000000A000000000000000000000000000000000000000000000 000000000000000000000000000000000000000     00000000                                                                                                                        000000000000000000
F0010000006936100001000000871573200011050500000000000000000201503180002001ACCESORIAS ARQUITECTONI KJ                        D000000001500000000000000000000000100010010000000000000000000000F0010000006936100120150318000101 00000000000000000000000000000000000000000000000000000000000000000000000000000000000000000000000000000000000000000N 00000000000NCONT   00    00000000000          00000000000000000000000000000000000000000000 000000000000000A000000000000000000000000000000000000000000000 000000000000000000000000000000000000000     00000000                                                                                                                        000000000000000000
F0010000006936100002000000871573200041450500000000000000000201503180002001ACCESORIAS ARQUITECTONI KJ                        C000000001200000000000000000000000100010010000000000000000000000F0010000006936100220150318000101 00000000000000000000000000000000000000000000000000000000000000000000000000000000000000000000000000000000000000000N 00000000000NCONT   00    00000000000          00000000000000000000000000000000000000000000 000000000000000A000000000000000000000000000000000000000000000 000000000000000000000000000000000000000     00000000                                                                                                                        000000000000000000
