F0010000005803000001000000868308800011050500000000000000000201405130002001GUSTAVO DONADO GARCIA                             D000000040000000000000000000000000100010010000000000000000000000F0010000005803000120140513000101 00000000000000000000000000000000000000000000000000000000000000000000000000000000000000000000000000000000000000000N 00000000000NCONT   00    00000000000          00000000000000000000000000000000000000000000 000000000000000A000000000000000000000000000000000000000000000 000000000000000000000000000000000000000     00000000                                                                                                                        000000000000000000
F0010000005803000002000000868308800041450500000000000000000201405130002001GUSTAVO DONADO GARCIA                             C000000038000000000000000000000000100010010000000000000000000000F0010000005803000220140513000101 00000000000000000000000000000000000000000000000000000000000000000000000000000000000000000000000000000000000000000N 00000000000NCONT   00    00000000000          00000000000000000000000000000000000000000000 000000000000000A000000000000000000000000000000000000000000000 000000000000000000000000000000000000000     00000000                                                                                                                        000000000000000000
F0010000005803000003000000868308800042505000000000000000000201405130002001GUSTAVO DONADO GARCIA                             C000000002000000000000000000000000100010010000000000000000000000F0010000005803000320140513000101 00000000000000000000000000000000000000000000000000000000000000000000000000000000000000000000000000000000000000000N 00000000000NCONT   00    00000000000          00000000000000000000000000000000000000000000 000000000000000A000000000000000000000000000000000000000000000 000000000000000000000000000000000000000     00000000                                                                                                                        000000000000000000
F0010000005803000004000000868308800023658300000000000000000201405130002001GUSTAVO DONADO GARCIA                             C000000000304000000000000000000000100010010000000000000000000000F0010000005803000420140513000101 00000000000000000000000000000000000000000000000000000000000000000000000000000000000000000000000000000000000000000N 00000000000NCONT   00    00000000000          00000000000000000000000000000000000000000000 000000000000000A000000000000000000000000000000000000000000000 000000000000000000000000000000000000000     00000000                                                                                                                        000000000000000000
F0010000005803000005000000868308800013552100000000000000000201405130002001GUSTAVO DONADO GARCIA                             D000000000304000000000000000000000100010010000000000000000000000F0010000005803000520140513000101 00000000000000000000000000000000000000000000000000000000000000000000000000000000000000000000000000000000000000000N 00000000000NCONT   00    00000000000          00000000000000000000000000000000000000000000 000000000000000A000000000000000000000000000000000000000000000 000000000000000000000000000000000000000     00000000                                                                                                                        000000000000000000
F0010000005803100001000000917734000011050500000000000000000201405130002001ENRIQUE LARA ..                                   D000000002400000000000000000000000100010010000000000000000000000F0010000005803100120140513000101 00000000000000000000000000000000000000000000000000000000000000000000000000000000000000000000000000000000000000000N 00000000000NCONT   00    00000000000          00000000000000000000000000000000000000000000 000000000000000A000000000000000000000000000000000000000000000 000000000000000000000000000000000000000     00000000                                                                                                                        000000000000000000
F0010000005803100002000000917734000041450500000000000000000201405130002001ENRIQUE LARA ..                                   C000000002000000000000000000000000100010010000000000000000000000F0010000005803100220140513000101 00000000000000000000000000000000000000000000000000000000000000000000000000000000000000000000000000000000000000000N 00000000000NCONT   00    00000000000          00000000000000000000000000000000000000000000 000000000000000A000000000000000000000000000000000000000000000 000000000000000000000000000000000000000     00000000                                                                                                                        000000000000000000
F0010000005803100003000000917734000042505000000000000000000201405130002001ENRIQUE LARA ..                                   C000000000400000000000000000000000100010010000000000000000000000F0010000005803100320140513000101 00000000000000000000000000000000000000000000000000000000000000000000000000000000000000000000000000000000000000000N 00000000000NCONT   00    00000000000          00000000000000000000000000000000000000000000 000000000000000A000000000000000000000000000000000000000000000 000000000000000000000000000000000000000     00000000                                                                                                                        000000000000000000
F0010000005803100004000000917734000023658300000000000000000201405130002001ENRIQUE LARA ..                                   C000000000016000000000000000000000100010010000000000000000000000F0010000005803100420140513000101 00000000000000000000000000000000000000000000000000000000000000000000000000000000000000000000000000000000000000000N 00000000000NCONT   00    00000000000          00000000000000000000000000000000000000000000 000000000000000A000000000000000000000000000000000000000000000 000000000000000000000000000000000000000     00000000                                                                                                                        000000000000000000
F0010000005803100005000000917734000013552100000000000000000201405130002001ENRIQUE LARA ..                                   D000000000016000000000000000000000100010010000000000000000000000F0010000005803100520140513000101 00000000000000000000000000000000000000000000000000000000000000000000000000000000000000000000000000000000000000000N 00000000000NCONT   00    00000000000          00000000000000000000000000000000000000000000 000000000000000A000000000000000000000000000000000000000000000 000000000000000000000000000000000000000     00000000                                                                                                                        000000000000000000
F0010000005803200001000000869402400011050500000000000000000201405130002001ISRAEL MANGA                                      D000000001400000000000000000000000100010010000000000000000000000F0010000005803200120140513000101 00000000000000000000000000000000000000000000000000000000000000000000000000000000000000000000000000000000000000000N 00000000000NCONT   00    00000000000          00000000000000000000000000000000000000000000 000000000000000A000000000000000000000000000000000000000000000 000000000000000000000000000000000000000     00000000                                                                                                                        000000000000000000
F0010000005803200002000000869402400041450500000000000000000201405130002001ISRAEL MANGA                                      C000000001200000000000000000000000100010010000000000000000000000F0010000005803200220140513000101 00000000000000000000000000000000000000000000000000000000000000000000000000000000000000000000000000000000000000000N 00000000000NCONT   00    00000000000          00000000000000000000000000000000000000000000 000000000000000A000000000000000000000000000000000000000000000 000000000000000000000000000000000000000     00000000                                                                                                                        000000000000000000
F0010000005803200003000000869402400042505000000000000000000201405130002001ISRAEL MANGA                                      C000000000200000000000000000000000100010010000000000000000000000F0010000005803200320140513000101 00000000000000000000000000000000000000000000000000000000000000000000000000000000000000000000000000000000000000000N 00000000000NCONT   00    00000000000          00000000000000000000000000000000000000000000 000000000000000A000000000000000000000000000000000000000000000 000000000000000000000000000000000000000     00000000                                                                                                                        000000000000000000
F0010000005803200004000000869402400023658300000000000000000201405130002001ISRAEL MANGA                                      C000000000009600000000000000000000100010010000000000000000000000F0010000005803200420140513000101 00000000000000000000000000000000000000000000000000000000000000000000000000000000000000000000000000000000000000000N 00000000000NCONT   00    00000000000          00000000000000000000000000000000000000000000 000000000000000A000000000000000000000000000000000000000000000 000000000000000000000000000000000000000     00000000                                                                                                                        000000000000000000
F0010000005803200005000000869402400013552100000000000000000201405130002001ISRAEL MANGA                                      D000000000009600000000000000000000100010010000000000000000000000F0010000005803200520140513000101 00000000000000000000000000000000000000000000000000000000000000000000000000000000000000000000000000000000000000000N 00000000000NCONT   00    00000000000          00000000000000000000000000000000000000000000 000000000000000A000000000000000000000000000000000000000000000 000000000000000000000000000000000000000     00000000                                                                                                                        000000000000000000
F0010000005803300001000083050133900011050500000000000000000201405130002001VALTAC DEL CARIBE LTDA                            D000000008500000000000000000000000100010010000000000000000000000F0010000005803300120140513000101 00000000000000000000000000000000000000000000000000000000000000000000000000000000000000000000000000000000000000000N 00000000000NCONT   00    00000000000          00000000000000000000000000000000000000000000 000000000000000A000000000000000000000000000000000000000000000 000000000000000000000000000000000000000     00000000                                                                                                                        000000000000000000
F0010000005803300002000083050133900041450500000000000000000201405130002001VALTAC DEL CARIBE LTDA                            C000000007500000000000000000000000100010010000000000000000000000F0010000005803300220140513000101 00000000000000000000000000000000000000000000000000000000000000000000000000000000000000000000000000000000000000000N 00000000000NCONT   00    00000000000          00000000000000000000000000000000000000000000 000000000000000A000000000000000000000000000000000000000000000 000000000000000000000000000000000000000     00000000                                                                                                                        000000000000000000
F0010000005803300003000083050133900042505000000000000000000201405130002001VALTAC DEL CARIBE LTDA                            C000000001000000000000000000000000100010010000000000000000000000F0010000005803300320140513000101 00000000000000000000000000000000000000000000000000000000000000000000000000000000000000000000000000000000000000000N 00000000000NCONT   00    00000000000          00000000000000000000000000000000000000000000 000000000000000A000000000000000000000000000000000000000000000 000000000000000000000000000000000000000     00000000                                                                                                                        000000000000000000
F0010000005803300004000083050133900023658300000000000000000201405130002001VALTAC DEL CARIBE LTDA                            C000000000060000000000000000000000100010010000000000000000000000F0010000005803300420140513000101 00000000000000000000000000000000000000000000000000000000000000000000000000000000000000000000000000000000000000000N 00000000000NCONT   00    00000000000          00000000000000000000000000000000000000000000 000000000000000A000000000000000000000000000000000000000000000 000000000000000000000000000000000000000     00000000                                                                                                                        000000000000000000
F0010000005803300005000083050133900013552100000000000000000201405130002001VALTAC DEL CARIBE LTDA                            D000000000060000000000000000000000100010010000000000000000000000F0010000005803300520140513000101 00000000000000000000000000000000000000000000000000000000000000000000000000000000000000000000000000000000000000000N 00000000000NCONT   00    00000000000          00000000000000000000000000000000000000000000 000000000000000A000000000000000000000000000000000000000000000 000000000000000000000000000000000000000     00000000                                                                                                                        000000000000000000
F0010000005803400001000090046558600011050500000000000000000201405130002001ALUMGLASS DEL CARIBE S.A.S.                       D000000006000000000000000000000000100010010000000000000000000000F0010000005803400120140513000101 00000000000000000000000000000000000000000000000000000000000000000000000000000000000000000000000000000000000000000N 00000000000NCONT   00    00000000000          00000000000000000000000000000000000000000000 000000000000000A000000000000000000000000000000000000000000000 000000000000000000000000000000000000000     00000000                                                                                                                        000000000000000000
F0010000005803400002000090046558600041450500000000000000000201405130002001ALUMGLASS DEL CARIBE S.A.S.                       C000000004700000000000000000000000100010010000000000000000000000F0010000005803400220140513000101 00000000000000000000000000000000000000000000000000000000000000000000000000000000000000000000000000000000000000000N 00000000000NCONT   00    00000000000          00000000000000000000000000000000000000000000 000000000000000A000000000000000000000000000000000000000000000 000000000000000000000000000000000000000     00000000                                                                                                                        000000000000000000
F0010000005803400003000090046558600042505000000000000000000201405130002001ALUMGLASS DEL CARIBE S.A.S.                       C000000001300000000000000000000000100010010000000000000000000000F0010000005803400320140513000101 00000000000000000000000000000000000000000000000000000000000000000000000000000000000000000000000000000000000000000N 00000000000NCONT   00    00000000000          00000000000000000000000000000000000000000000 000000000000000A000000000000000000000000000000000000000000000 000000000000000000000000000000000000000     00000000                                                                                                                        000000000000000000
F0010000005803400004000090046558600023658300000000000000000201405130002001ALUMGLASS DEL CARIBE S.A.S.                       C000000000037600000000000000000000100010010000000000000000000000F0010000005803400420140513000101 00000000000000000000000000000000000000000000000000000000000000000000000000000000000000000000000000000000000000000N 00000000000NCONT   00    00000000000          00000000000000000000000000000000000000000000 000000000000000A000000000000000000000000000000000000000000000 000000000000000000000000000000000000000     00000000                                                                                                                        000000000000000000
F0010000005803400005000090046558600013552100000000000000000201405130002001ALUMGLASS DEL CARIBE S.A.S.                       D000000000037600000000000000000000100010010000000000000000000000F0010000005803400520140513000101 00000000000000000000000000000000000000000000000000000000000000000000000000000000000000000000000000000000000000000N 00000000000NCONT   00    00000000000          00000000000000000000000000000000000000000000 000000000000000A000000000000000000000000000000000000000000000 000000000000000000000000000000000000000     00000000                                                                                                                        000000000000000000
F0010000005803500001000000554377700011050500000000000000000201405130002001TECNICARPAS BARRANQUILLA                          D000000001100000000000000000000000100010010000000000000000000000F0010000005803500120140513000101 00000000000000000000000000000000000000000000000000000000000000000000000000000000000000000000000000000000000000000N 00000000000NCONT   00    00000000000          00000000000000000000000000000000000000000000 000000000000000A000000000000000000000000000000000000000000000 000000000000000000000000000000000000000     00000000                                                                                                                        000000000000000000
F0010000005803500002000000554377700041450500000000000000000201405130002001TECNICARPAS BARRANQUILLA                          C000000000900000000000000000000000100010010000000000000000000000F0010000005803500220140513000101 00000000000000000000000000000000000000000000000000000000000000000000000000000000000000000000000000000000000000000N 00000000000NCONT   00    00000000000          00000000000000000000000000000000000000000000 000000000000000A000000000000000000000000000000000000000000000 000000000000000000000000000000000000000     00000000                                                                                                                        000000000000000000
F0010000005803500003000000554377700042505000000000000000000201405130002001TECNICARPAS BARRANQUILLA                          C000000000200000000000000000000000100010010000000000000000000000F0010000005803500320140513000101 00000000000000000000000000000000000000000000000000000000000000000000000000000000000000000000000000000000000000000N 00000000000NCONT   00    00000000000          00000000000000000000000000000000000000000000 000000000000000A000000000000000000000000000000000000000000000 000000000000000000000000000000000000000     00000000                                                                                                                        000000000000000000
F0010000005803500004000000554377700023658300000000000000000201405130002001TECNICARPAS BARRANQUILLA                          C000000000007200000000000000000000100010010000000000000000000000F0010000005803500420140513000101 00000000000000000000000000000000000000000000000000000000000000000000000000000000000000000000000000000000000000000N 00000000000NCONT   00    00000000000          00000000000000000000000000000000000000000000 000000000000000A000000000000000000000000000000000000000000000 000000000000000000000000000000000000000     00000000                                                                                                                        000000000000000000
F0010000005803500005000000554377700013552100000000000000000201405130002001TECNICARPAS BARRANQUILLA                          D000000000007200000000000000000000100010010000000000000000000000F0010000005803500520140513000101 00000000000000000000000000000000000000000000000000000000000000000000000000000000000000000000000000000000000000000N 00000000000NCONT   00    00000000000          00000000000000000000000000000000000000000000 000000000000000A000000000000000000000000000000000000000000000 000000000000000000000000000000000000000     00000000                                                                                                                        000000000000000000
F0010000005803600001000003279700500011050500000000000000000201405130002001MARLY GARCIA CASTELLANOS                          D000000003000000000000000000000000100010010000000000000000000000F0010000005803600120140513000101 00000000000000000000000000000000000000000000000000000000000000000000000000000000000000000000000000000000000000000N 00000000000NCONT   00    00000000000          00000000000000000000000000000000000000000000 000000000000000A000000000000000000000000000000000000000000000 000000000000000000000000000000000000000     00000000                                                                                                                        000000000000000000
F0010000005803600002000003279700500041450500000000000000000201405130002001MARLY GARCIA CASTELLANOS                          C000000002500000000000000000000000100010010000000000000000000000F0010000005803600220140513000101 00000000000000000000000000000000000000000000000000000000000000000000000000000000000000000000000000000000000000000N 00000000000NCONT   00    00000000000          00000000000000000000000000000000000000000000 000000000000000A000000000000000000000000000000000000000000000 000000000000000000000000000000000000000     00000000                                                                                                                        000000000000000000
F0010000005803600003000003279700500042505000000000000000000201405130002001MARLY GARCIA CASTELLANOS                          C000000000500000000000000000000000100010010000000000000000000000F0010000005803600320140513000101 00000000000000000000000000000000000000000000000000000000000000000000000000000000000000000000000000000000000000000N 00000000000NCONT   00    00000000000          00000000000000000000000000000000000000000000 000000000000000A000000000000000000000000000000000000000000000 000000000000000000000000000000000000000     00000000                                                                                                                        000000000000000000
F0010000005803600004000003279700500023658300000000000000000201405130002001MARLY GARCIA CASTELLANOS                          C000000000020000000000000000000000100010010000000000000000000000F0010000005803600420140513000101 00000000000000000000000000000000000000000000000000000000000000000000000000000000000000000000000000000000000000000N 00000000000NCONT   00    00000000000          00000000000000000000000000000000000000000000 000000000000000A000000000000000000000000000000000000000000000 000000000000000000000000000000000000000     00000000                                                                                                                        000000000000000000
F0010000005803600005000003279700500013552100000000000000000201405130002001MARLY GARCIA CASTELLANOS                          D000000000020000000000000000000000100010010000000000000000000000F0010000005803600520140513000101 00000000000000000000000000000000000000000000000000000000000000000000000000000000000000000000000000000000000000000N 00000000000NCONT   00    00000000000          00000000000000000000000000000000000000000000 000000000000000A000000000000000000000000000000000000000000000 000000000000000000000000000000000000000     00000000                                                                                                                        000000000000000000
F0010000005803700001000086053108300011050500000000000000000201405130002001EL PALACIO DEL ALUMINIO  LTDA                     D000000003560000000000000000000000100010010000000000000000000000F0010000005803700120140513000101 00000000000000000000000000000000000000000000000000000000000000000000000000000000000000000000000000000000000000000N 00000000000NCONT   00    00000000000          00000000000000000000000000000000000000000000 000000000000000A000000000000000000000000000000000000000000000 000000000000000000000000000000000000000     00000000                                                                                                                        000000000000000000
F0010000005803700002000086053108300041450500000000000000000201405130002001EL PALACIO DEL ALUMINIO  LTDA                     C000000003060000000000000000000000100010010000000000000000000000F0010000005803700220140513000101 00000000000000000000000000000000000000000000000000000000000000000000000000000000000000000000000000000000000000000N 00000000000NCONT   00    00000000000          00000000000000000000000000000000000000000000 000000000000000A000000000000000000000000000000000000000000000 000000000000000000000000000000000000000     00000000                                                                                                                        000000000000000000
F0010000005803700003000086053108300042505000000000000000000201405130002001EL PALACIO DEL ALUMINIO  LTDA                     C000000000500000000000000000000000100010010000000000000000000000F0010000005803700320140513000101 00000000000000000000000000000000000000000000000000000000000000000000000000000000000000000000000000000000000000000N 00000000000NCONT   00    00000000000          00000000000000000000000000000000000000000000 000000000000000A000000000000000000000000000000000000000000000 000000000000000000000000000000000000000     00000000                                                                                                                        000000000000000000
F0010000005803700004000086053108300023658300000000000000000201405130002001EL PALACIO DEL ALUMINIO  LTDA                     C000000000024500000000000000000000100010010000000000000000000000F0010000005803700420140513000101 00000000000000000000000000000000000000000000000000000000000000000000000000000000000000000000000000000000000000000N 00000000000NCONT   00    00000000000          00000000000000000000000000000000000000000000 000000000000000A000000000000000000000000000000000000000000000 000000000000000000000000000000000000000     00000000                                                                                                                        000000000000000000
F0010000005803700005000086053108300013552100000000000000000201405130002001EL PALACIO DEL ALUMINIO  LTDA                     D000000000024500000000000000000000100010010000000000000000000000F0010000005803700520140513000101 00000000000000000000000000000000000000000000000000000000000000000000000000000000000000000000000000000000000000000N 00000000000NCONT   00    00000000000          00000000000000000000000000000000000000000000 000000000000000A000000000000000000000000000000000000000000000 000000000000000000000000000000000000000     00000000                                                                                                                        000000000000000000
F0010000005803800001000003319910700011050500000000000000000201405130002001LUZ DARY JIMENEZ MARTINEZ                         D000000001100000000000000000000000100010010000000000000000000000F0010000005803800120140513000101 00000000000000000000000000000000000000000000000000000000000000000000000000000000000000000000000000000000000000000N 00000000000NCONT   00    00000000000          00000000000000000000000000000000000000000000 000000000000000A000000000000000000000000000000000000000000000 000000000000000000000000000000000000000     00000000                                                                                                                        000000000000000000
F0010000005803800002000003319910700041450500000000000000000201405130002001LUZ DARY JIMENEZ MARTINEZ                         C000000001000000000000000000000000100010010000000000000000000000F0010000005803800220140513000101 00000000000000000000000000000000000000000000000000000000000000000000000000000000000000000000000000000000000000000N 00000000000NCONT   00    00000000000          00000000000000000000000000000000000000000000 000000000000000A000000000000000000000000000000000000000000000 000000000000000000000000000000000000000     00000000                                                                                                                        000000000000000000
F0010000005803800003000003319910700042505000000000000000000201405130002001LUZ DARY JIMENEZ MARTINEZ                         C000000000100000000000000000000000100010010000000000000000000000F0010000005803800320140513000101 00000000000000000000000000000000000000000000000000000000000000000000000000000000000000000000000000000000000000000N 00000000000NCONT   00    00000000000          00000000000000000000000000000000000000000000 000000000000000A000000000000000000000000000000000000000000000 000000000000000000000000000000000000000     00000000                                                                                                                        000000000000000000
F0010000005803800004000003319910700023658300000000000000000201405130002001LUZ DARY JIMENEZ MARTINEZ                         C000000000008000000000000000000000100010010000000000000000000000F0010000005803800420140513000101 00000000000000000000000000000000000000000000000000000000000000000000000000000000000000000000000000000000000000000N 00000000000NCONT   00    00000000000          00000000000000000000000000000000000000000000 000000000000000A000000000000000000000000000000000000000000000 000000000000000000000000000000000000000     00000000                                                                                                                        000000000000000000
F0010000005803800005000003319910700013552100000000000000000201405130002001LUZ DARY JIMENEZ MARTINEZ                         D000000000008000000000000000000000100010010000000000000000000000F0010000005803800520140513000101 00000000000000000000000000000000000000000000000000000000000000000000000000000000000000000000000000000000000000000N 00000000000NCONT   00    00000000000          00000000000000000000000000000000000000000000 000000000000000A000000000000000000000000000000000000000000000 000000000000000000000000000000000000000     00000000                                                                                                                        000000000000000000
F0010000005803900001000001502923600011050500000000000000000201405130002001ALCIDES MARTINEZ                                  D000000001400000000000000000000000100010010000000000000000000000F0010000005803900120140513000101 00000000000000000000000000000000000000000000000000000000000000000000000000000000000000000000000000000000000000000N 00000000000NCONT   00    00000000000          00000000000000000000000000000000000000000000 000000000000000A000000000000000000000000000000000000000000000 000000000000000000000000000000000000000     00000000                                                                                                                        000000000000000000
F0010000005803900002000001502923600041450500000000000000000201405130002001ALCIDES MARTINEZ                                  C000000001000000000000000000000000100010010000000000000000000000F0010000005803900220140513000101 00000000000000000000000000000000000000000000000000000000000000000000000000000000000000000000000000000000000000000N 00000000000NCONT   00    00000000000          00000000000000000000000000000000000000000000 000000000000000A000000000000000000000000000000000000000000000 000000000000000000000000000000000000000     00000000                                                                                                                        000000000000000000
F0010000005803900003000001502923600042505000000000000000000201405130002001ALCIDES MARTINEZ                                  C000000000400000000000000000000000100010010000000000000000000000F0010000005803900320140513000101 00000000000000000000000000000000000000000000000000000000000000000000000000000000000000000000000000000000000000000N 00000000000NCONT   00    00000000000          00000000000000000000000000000000000000000000 000000000000000A000000000000000000000000000000000000000000000 000000000000000000000000000000000000000     00000000                                                                                                                        000000000000000000
F0010000005803900004000001502923600023658300000000000000000201405130002001ALCIDES MARTINEZ                                  C000000000008000000000000000000000100010010000000000000000000000F0010000005803900420140513000101 00000000000000000000000000000000000000000000000000000000000000000000000000000000000000000000000000000000000000000N 00000000000NCONT   00    00000000000          00000000000000000000000000000000000000000000 000000000000000A000000000000000000000000000000000000000000000 000000000000000000000000000000000000000     00000000                                                                                                                        000000000000000000
F0010000005803900005000001502923600013552100000000000000000201405130002001ALCIDES MARTINEZ                                  D000000000008000000000000000000000100010010000000000000000000000F0010000005803900520140513000101 00000000000000000000000000000000000000000000000000000000000000000000000000000000000000000000000000000000000000000N 00000000000NCONT   00    00000000000          00000000000000000000000000000000000000000000 000000000000000A000000000000000000000000000000000000000000000 000000000000000000000000000000000000000     00000000                                                                                                                        000000000000000000
F0010000005804000001000090050144800011050500000000000000000201405130002001PLASTICOS JR ASOCIADOS SAS                        D000000001200000000000000000000000100010010000000000000000000000F0010000005804000120140513000101 00000000000000000000000000000000000000000000000000000000000000000000000000000000000000000000000000000000000000000N 00000000000NCONT   00    00000000000          00000000000000000000000000000000000000000000 000000000000000A000000000000000000000000000000000000000000000 000000000000000000000000000000000000000     00000000                                                                                                                        000000000000000000
F0010000005804000002000090050144800041450500000000000000000201405130002001PLASTICOS JR ASOCIADOS SAS                        C000000000850000000000000000000000100010010000000000000000000000F0010000005804000220140513000101 00000000000000000000000000000000000000000000000000000000000000000000000000000000000000000000000000000000000000000N 00000000000NCONT   00    00000000000          00000000000000000000000000000000000000000000 000000000000000A000000000000000000000000000000000000000000000 000000000000000000000000000000000000000     00000000                                                                                                                        000000000000000000
F0010000005804000003000090050144800042505000000000000000000201405130002001PLASTICOS JR ASOCIADOS SAS                        C000000000350000000000000000000000100010010000000000000000000000F0010000005804000320140513000101 00000000000000000000000000000000000000000000000000000000000000000000000000000000000000000000000000000000000000000N 00000000000NCONT   00    00000000000          00000000000000000000000000000000000000000000 000000000000000A000000000000000000000000000000000000000000000 000000000000000000000000000000000000000     00000000                                                                                                                        000000000000000000
F0010000005804000004000090050144800023658300000000000000000201405130002001PLASTICOS JR ASOCIADOS SAS                        C000000000006800000000000000000000100010010000000000000000000000F0010000005804000420140513000101 00000000000000000000000000000000000000000000000000000000000000000000000000000000000000000000000000000000000000000N 00000000000NCONT   00    00000000000          00000000000000000000000000000000000000000000 000000000000000A000000000000000000000000000000000000000000000 000000000000000000000000000000000000000     00000000                                                                                                                        000000000000000000
F0010000005804000005000090050144800013552100000000000000000201405130002001PLASTICOS JR ASOCIADOS SAS                        D000000000006800000000000000000000100010010000000000000000000000F0010000005804000520140513000101 00000000000000000000000000000000000000000000000000000000000000000000000000000000000000000000000000000000000000000N 00000000000NCONT   00    00000000000          00000000000000000000000000000000000000000000 000000000000000A000000000000000000000000000000000000000000000 000000000000000000000000000000000000000     00000000                                                                                                                        000000000000000000
F0010000005804100001000089021246300011050500000000000000000201405130002001LUBRIGRAS S.A.                                    D000000007500000000000000000000000100010010000000000000000000000F0010000005804100120140513000101 00000000000000000000000000000000000000000000000000000000000000000000000000000000000000000000000000000000000000000N 00000000000NCONT   00    00000000000          00000000000000000000000000000000000000000000 000000000000000A000000000000000000000000000000000000000000000 000000000000000000000000000000000000000     00000000                                                                                                                        000000000000000000
F0010000005804100002000089021246300041450500000000000000000201405130002001LUBRIGRAS S.A.                                    C000000006000000000000000000000000100010010000000000000000000000F0010000005804100220140513000101 00000000000000000000000000000000000000000000000000000000000000000000000000000000000000000000000000000000000000000N 00000000000NCONT   00    00000000000          00000000000000000000000000000000000000000000 000000000000000A000000000000000000000000000000000000000000000 000000000000000000000000000000000000000     00000000                                                                                                                        000000000000000000
F0010000005804100003000089021246300042505000000000000000000201405130002001LUBRIGRAS S.A.                                    C000000001500000000000000000000000100010010000000000000000000000F0010000005804100320140513000101 00000000000000000000000000000000000000000000000000000000000000000000000000000000000000000000000000000000000000000N 00000000000NCONT   00    00000000000          00000000000000000000000000000000000000000000 000000000000000A000000000000000000000000000000000000000000000 000000000000000000000000000000000000000     00000000                                                                                                                        000000000000000000
F0010000005804100004000089021246300023658300000000000000000201405130002001LUBRIGRAS S.A.                                    C000000000048000000000000000000000100010010000000000000000000000F0010000005804100420140513000101 00000000000000000000000000000000000000000000000000000000000000000000000000000000000000000000000000000000000000000N 00000000000NCONT   00    00000000000          00000000000000000000000000000000000000000000 000000000000000A000000000000000000000000000000000000000000000 000000000000000000000000000000000000000     00000000                                                                                                                        000000000000000000
F0010000005804100005000089021246300013552100000000000000000201405130002001LUBRIGRAS S.A.                                    D000000000048000000000000000000000100010010000000000000000000000F0010000005804100520140513000101 00000000000000000000000000000000000000000000000000000000000000000000000000000000000000000000000000000000000000000N 00000000000NCONT   00    00000000000          00000000000000000000000000000000000000000000 000000000000000A000000000000000000000000000000000000000000000 000000000000000000000000000000000000000     00000000                                                                                                                        000000000000000000
F0010000005804200001000090047878200011050500000000000000000201405130002001GRUMAD SAS                                        D000000023300000000000000000000000100010010000000000000000000000F0010000005804200120140513000101 00000000000000000000000000000000000000000000000000000000000000000000000000000000000000000000000000000000000000000N 00000000000NCONT   00    00000000000          00000000000000000000000000000000000000000000 000000000000000A000000000000000000000000000000000000000000000 000000000000000000000000000000000000000     00000000                                                                                                                        000000000000000000
F0010000005804200002000090047878200041450500000000000000000201405130002001GRUMAD SAS                                        C000000020000000000000000000000000100010010000000000000000000000F0010000005804200220140513000101 00000000000000000000000000000000000000000000000000000000000000000000000000000000000000000000000000000000000000000N 00000000000NCONT   00    00000000000          00000000000000000000000000000000000000000000 000000000000000A000000000000000000000000000000000000000000000 000000000000000000000000000000000000000     00000000                                                                                                                        000000000000000000
F0010000005804200003000090047878200042505000000000000000000201405130002001GRUMAD SAS                                        C000000003300000000000000000000000100010010000000000000000000000F0010000005804200320140513000101 00000000000000000000000000000000000000000000000000000000000000000000000000000000000000000000000000000000000000000N 00000000000NCONT   00    00000000000          00000000000000000000000000000000000000000000 000000000000000A000000000000000000000000000000000000000000000 000000000000000000000000000000000000000     00000000                                                                                                                        000000000000000000
F0010000005804200004000090047878200023658300000000000000000201405130002001GRUMAD SAS                                        C000000000160000000000000000000000100010010000000000000000000000F0010000005804200420140513000101 00000000000000000000000000000000000000000000000000000000000000000000000000000000000000000000000000000000000000000N 00000000000NCONT   00    00000000000          00000000000000000000000000000000000000000000 000000000000000A000000000000000000000000000000000000000000000 000000000000000000000000000000000000000     00000000                                                                                                                        000000000000000000
F0010000005804200005000090047878200013552100000000000000000201405130002001GRUMAD SAS                                        D000000000160000000000000000000000100010010000000000000000000000F0010000005804200520140513000101 00000000000000000000000000000000000000000000000000000000000000000000000000000000000000000000000000000000000000000N 00000000000NCONT   00    00000000000          00000000000000000000000000000000000000000000 000000000000000A000000000000000000000000000000000000000000000 000000000000000000000000000000000000000     00000000                                                                                                                        000000000000000000
F0010000005804300001000090047878200011050500000000000000000201405130002001GRUMAD SAS                                        D000000010500000000000000000000000100010010000000000000000000000F0010000005804300120140513000101 00000000000000000000000000000000000000000000000000000000000000000000000000000000000000000000000000000000000000000N 00000000000NCONT   00    00000000000          00000000000000000000000000000000000000000000 000000000000000A000000000000000000000000000000000000000000000 000000000000000000000000000000000000000     00000000                                                                                                                        000000000000000000
F0010000005804300002000090047878200041450500000000000000000201405130002001GRUMAD SAS                                        C000000009000000000000000000000000100010010000000000000000000000F0010000005804300220140513000101 00000000000000000000000000000000000000000000000000000000000000000000000000000000000000000000000000000000000000000N 00000000000NCONT   00    00000000000          00000000000000000000000000000000000000000000 000000000000000A000000000000000000000000000000000000000000000 000000000000000000000000000000000000000     00000000                                                                                                                        000000000000000000
F0010000005804300003000090047878200042505000000000000000000201405130002001GRUMAD SAS                                        C000000001500000000000000000000000100010010000000000000000000000F0010000005804300320140513000101 00000000000000000000000000000000000000000000000000000000000000000000000000000000000000000000000000000000000000000N 00000000000NCONT   00    00000000000          00000000000000000000000000000000000000000000 000000000000000A000000000000000000000000000000000000000000000 000000000000000000000000000000000000000     00000000                                                                                                                        000000000000000000
F0010000005804300004000090047878200023658300000000000000000201405130002001GRUMAD SAS                                        C000000000072000000000000000000000100010010000000000000000000000F0010000005804300420140513000101 00000000000000000000000000000000000000000000000000000000000000000000000000000000000000000000000000000000000000000N 00000000000NCONT   00    00000000000          00000000000000000000000000000000000000000000 000000000000000A000000000000000000000000000000000000000000000 000000000000000000000000000000000000000     00000000                                                                                                                        000000000000000000
F0010000005804300005000090047878200013552100000000000000000201405130002001GRUMAD SAS                                        D000000000072000000000000000000000100010010000000000000000000000F0010000005804300520140513000101 00000000000000000000000000000000000000000000000000000000000000000000000000000000000000000000000000000000000000000N 00000000000NCONT   00    00000000000          00000000000000000000000000000000000000000000 000000000000000A000000000000000000000000000000000000000000000 000000000000000000000000000000000000000     00000000                                                                                                                        000000000000000000
F0010000005804400001000005523851000011050500000000000000000201405130002001ARISODELI PORTILLO BALLENA                        D000000001850000000000000000000000100010010000000000000000000000F0010000005804400120140513000101 00000000000000000000000000000000000000000000000000000000000000000000000000000000000000000000000000000000000000000N 00000000000NCONT   00    00000000000          00000000000000000000000000000000000000000000 000000000000000A000000000000000000000000000000000000000000000 000000000000000000000000000000000000000     00000000                                                                                                                        000000000000000000
F0010000005804400002000005523851000041450500000000000000000201405130002001ARISODELI PORTILLO BALLENA                        C000000001800000000000000000000000100010010000000000000000000000F0010000005804400220140513000101 00000000000000000000000000000000000000000000000000000000000000000000000000000000000000000000000000000000000000000N 00000000000NCONT   00    00000000000          00000000000000000000000000000000000000000000 000000000000000A000000000000000000000000000000000000000000000 000000000000000000000000000000000000000     00000000                                                                                                                        000000000000000000
F0010000005804400003000005523851000042505000000000000000000201405130002001ARISODELI PORTILLO BALLENA                        C000000000050000000000000000000000100010010000000000000000000000F0010000005804400320140513000101 00000000000000000000000000000000000000000000000000000000000000000000000000000000000000000000000000000000000000000N 00000000000NCONT   00    00000000000          00000000000000000000000000000000000000000000 000000000000000A000000000000000000000000000000000000000000000 000000000000000000000000000000000000000     00000000                                                                                                                        000000000000000000
F0010000005804400004000005523851000023658300000000000000000201405130002001ARISODELI PORTILLO BALLENA                        C000000000014400000000000000000000100010010000000000000000000000F0010000005804400420140513000101 00000000000000000000000000000000000000000000000000000000000000000000000000000000000000000000000000000000000000000N 00000000000NCONT   00    00000000000          00000000000000000000000000000000000000000000 000000000000000A000000000000000000000000000000000000000000000 000000000000000000000000000000000000000     00000000                                                                                                                        000000000000000000
F0010000005804400005000005523851000013552100000000000000000201405130002001ARISODELI PORTILLO BALLENA                        D000000000014400000000000000000000100010010000000000000000000000F0010000005804400520140513000101 00000000000000000000000000000000000000000000000000000000000000000000000000000000000000000000000000000000000000000N 00000000000NCONT   00    00000000000          00000000000000000000000000000000000000000000 000000000000000A000000000000000000000000000000000000000000000 000000000000000000000000000000000000000     00000000                                                                                                                        000000000000000000
F0010000005804500001000001719393900011050500000000000000000201405130002001JAIRO BASTIDAS RAMIREZ                            D000000002800000000000000000000000100010010000000000000000000000F0010000005804500120140513000101 00000000000000000000000000000000000000000000000000000000000000000000000000000000000000000000000000000000000000000N 00000000000NCONT   00    00000000000          00000000000000000000000000000000000000000000 000000000000000A000000000000000000000000000000000000000000000 000000000000000000000000000000000000000     00000000                                                                                                                        000000000000000000
F0010000005804500002000001719393900041450500000000000000000201405130002001JAIRO BASTIDAS RAMIREZ                            C000000002400000000000000000000000100010010000000000000000000000F0010000005804500220140513000101 00000000000000000000000000000000000000000000000000000000000000000000000000000000000000000000000000000000000000000N 00000000000NCONT   00    00000000000          00000000000000000000000000000000000000000000 000000000000000A000000000000000000000000000000000000000000000 000000000000000000000000000000000000000     00000000                                                                                                                        000000000000000000
F0010000005804500003000001719393900042505000000000000000000201405130002001JAIRO BASTIDAS RAMIREZ                            C000000000400000000000000000000000100010010000000000000000000000F0010000005804500320140513000101 00000000000000000000000000000000000000000000000000000000000000000000000000000000000000000000000000000000000000000N 00000000000NCONT   00    00000000000          00000000000000000000000000000000000000000000 000000000000000A000000000000000000000000000000000000000000000 000000000000000000000000000000000000000     00000000                                                                                                                        000000000000000000
F0010000005804500004000001719393900023658300000000000000000201405130002001JAIRO BASTIDAS RAMIREZ                            C000000000019200000000000000000000100010010000000000000000000000F0010000005804500420140513000101 00000000000000000000000000000000000000000000000000000000000000000000000000000000000000000000000000000000000000000N 00000000000NCONT   00    00000000000          00000000000000000000000000000000000000000000 000000000000000A000000000000000000000000000000000000000000000 000000000000000000000000000000000000000     00000000                                                                                                                        000000000000000000
F0010000005804500005000001719393900013552100000000000000000201405130002001JAIRO BASTIDAS RAMIREZ                            D000000000019200000000000000000000100010010000000000000000000000F0010000005804500520140513000101 00000000000000000000000000000000000000000000000000000000000000000000000000000000000000000000000000000000000000000N 00000000000NCONT   00    00000000000          00000000000000000000000000000000000000000000 000000000000000A000000000000000000000000000000000000000000000 000000000000000000000000000000000000000     00000000                                                                                                                        000000000000000000
F0010000005804600001000090055180500011050500000000000000000201405130002001LAMINAS Y SUELAS DE COLOMBIA S.A.S                D000000006000000000000000000000000100010010000000000000000000000F0010000005804600120140513000101 00000000000000000000000000000000000000000000000000000000000000000000000000000000000000000000000000000000000000000N 00000000000NCONT   00    00000000000          00000000000000000000000000000000000000000000 000000000000000A000000000000000000000000000000000000000000000 000000000000000000000000000000000000000     00000000                                                                                                                        000000000000000000
F0010000005804600002000090055180500041450500000000000000000201405130002001LAMINAS Y SUELAS DE COLOMBIA S.A.S                C000000004500000000000000000000000100010010000000000000000000000F0010000005804600220140513000101 00000000000000000000000000000000000000000000000000000000000000000000000000000000000000000000000000000000000000000N 00000000000NCONT   00    00000000000          00000000000000000000000000000000000000000000 000000000000000A000000000000000000000000000000000000000000000 000000000000000000000000000000000000000     00000000                                                                                                                        000000000000000000
F0010000005804600003000090055180500042505000000000000000000201405130002001LAMINAS Y SUELAS DE COLOMBIA S.A.S                C000000001500000000000000000000000100010010000000000000000000000F0010000005804600320140513000101 00000000000000000000000000000000000000000000000000000000000000000000000000000000000000000000000000000000000000000N 00000000000NCONT   00    00000000000          00000000000000000000000000000000000000000000 000000000000000A000000000000000000000000000000000000000000000 000000000000000000000000000000000000000     00000000                                                                                                                        000000000000000000
F0010000005804600004000090055180500023658300000000000000000201405130002001LAMINAS Y SUELAS DE COLOMBIA S.A.S                C000000000036000000000000000000000100010010000000000000000000000F0010000005804600420140513000101 00000000000000000000000000000000000000000000000000000000000000000000000000000000000000000000000000000000000000000N 00000000000NCONT   00    00000000000          00000000000000000000000000000000000000000000 000000000000000A000000000000000000000000000000000000000000000 000000000000000000000000000000000000000     00000000                                                                                                                        000000000000000000
F0010000005804600005000090055180500013552100000000000000000201405130002001LAMINAS Y SUELAS DE COLOMBIA S.A.S                D000000000036000000000000000000000100010010000000000000000000000F0010000005804600520140513000101 00000000000000000000000000000000000000000000000000000000000000000000000000000000000000000000000000000000000000000N 00000000000NCONT   00    00000000000          00000000000000000000000000000000000000000000 000000000000000A000000000000000000000000000000000000000000000 000000000000000000000000000000000000000     00000000                                                                                                                        000000000000000000
F0010000005804700001000089011069100011050500000000000000000201405130002001LA CASA DE LAS ALFOMBRAS LTDA                     D000000001500000000000000000000000100010010000000000000000000000F0010000005804700120140513000101 00000000000000000000000000000000000000000000000000000000000000000000000000000000000000000000000000000000000000000N 00000000000NCONT   00    00000000000          00000000000000000000000000000000000000000000 000000000000000A000000000000000000000000000000000000000000000 000000000000000000000000000000000000000     00000000                                                                                                                        000000000000000000
F0010000005804700002000089011069100041450500000000000000000201405130002001LA CASA DE LAS ALFOMBRAS LTDA                     C000000001200000000000000000000000100010010000000000000000000000F0010000005804700220140513000101 00000000000000000000000000000000000000000000000000000000000000000000000000000000000000000000000000000000000000000N 00000000000NCONT   00    00000000000          00000000000000000000000000000000000000000000 000000000000000A000000000000000000000000000000000000000000000 000000000000000000000000000000000000000     00000000                                                                                                                        000000000000000000
F0010000005804700003000089011069100042505000000000000000000201405130002001LA CASA DE LAS ALFOMBRAS LTDA                     C000000000300000000000000000000000100010010000000000000000000000F0010000005804700320140513000101 00000000000000000000000000000000000000000000000000000000000000000000000000000000000000000000000000000000000000000N 00000000000NCONT   00    00000000000          00000000000000000000000000000000000000000000 000000000000000A000000000000000000000000000000000000000000000 000000000000000000000000000000000000000     00000000                                                                                                                        000000000000000000
F0010000005804700004000089011069100023658300000000000000000201405130002001LA CASA DE LAS ALFOMBRAS LTDA                     C000000000009600000000000000000000100010010000000000000000000000F0010000005804700420140513000101 00000000000000000000000000000000000000000000000000000000000000000000000000000000000000000000000000000000000000000N 00000000000NCONT   00    00000000000          00000000000000000000000000000000000000000000 000000000000000A000000000000000000000000000000000000000000000 000000000000000000000000000000000000000     00000000                                                                                                                        000000000000000000
F0010000005804700005000089011069100013552100000000000000000201405130002001LA CASA DE LAS ALFOMBRAS LTDA                     D000000000009600000000000000000000100010010000000000000000000000F0010000005804700520140513000101 00000000000000000000000000000000000000000000000000000000000000000000000000000000000000000000000000000000000000000N 00000000000NCONT   00    00000000000          00000000000000000000000000000000000000000000 000000000000000A000000000000000000000000000000000000000000000 000000000000000000000000000000000000000     00000000                                                                                                                        000000000000000000
F0010000005804800001000090020547900011050500000000000000000201405130002001DAC DEL CARIBE S.A.S.                             D000000003100000000000000000000000100010010000000000000000000000F0010000005804800120140513000101 00000000000000000000000000000000000000000000000000000000000000000000000000000000000000000000000000000000000000000N 00000000000NCONT   00    00000000000          00000000000000000000000000000000000000000000 000000000000000A000000000000000000000000000000000000000000000 000000000000000000000000000000000000000     00000000                                                                                                                        000000000000000000
F0010000005804800002000090020547900041450500000000000000000201405130002001DAC DEL CARIBE S.A.S.                             C000000002400000000000000000000000100010010000000000000000000000F0010000005804800220140513000101 00000000000000000000000000000000000000000000000000000000000000000000000000000000000000000000000000000000000000000N 00000000000NCONT   00    00000000000          00000000000000000000000000000000000000000000 000000000000000A000000000000000000000000000000000000000000000 000000000000000000000000000000000000000     00000000                                                                                                                        000000000000000000
F0010000005804800003000090020547900042505000000000000000000201405130002001DAC DEL CARIBE S.A.S.                             C000000000700000000000000000000000100010010000000000000000000000F0010000005804800320140513000101 00000000000000000000000000000000000000000000000000000000000000000000000000000000000000000000000000000000000000000N 00000000000NCONT   00    00000000000          00000000000000000000000000000000000000000000 000000000000000A000000000000000000000000000000000000000000000 000000000000000000000000000000000000000     00000000                                                                                                                        000000000000000000
F0010000005804800004000090020547900023658300000000000000000201405130002001DAC DEL CARIBE S.A.S.                             C000000000019200000000000000000000100010010000000000000000000000F0010000005804800420140513000101 00000000000000000000000000000000000000000000000000000000000000000000000000000000000000000000000000000000000000000N 00000000000NCONT   00    00000000000          00000000000000000000000000000000000000000000 000000000000000A000000000000000000000000000000000000000000000 000000000000000000000000000000000000000     00000000                                                                                                                        000000000000000000
F0010000005804800005000090020547900013552100000000000000000201405130002001DAC DEL CARIBE S.A.S.                             D000000000019200000000000000000000100010010000000000000000000000F0010000005804800520140513000101 00000000000000000000000000000000000000000000000000000000000000000000000000000000000000000000000000000000000000000N 00000000000NCONT   00    00000000000          00000000000000000000000000000000000000000000 000000000000000A000000000000000000000000000000000000000000000 000000000000000000000000000000000000000     00000000                                                                                                                        000000000000000000
F0010000005804900001000090020547900011050500000000000000000201405130002001DAC DEL CARIBE S.A.S.                             D000000003100000000000000000000000100010010000000000000000000000F0010000005804900120140513000101 00000000000000000000000000000000000000000000000000000000000000000000000000000000000000000000000000000000000000000N 00000000000NCONT   00    00000000000          00000000000000000000000000000000000000000000 000000000000000A000000000000000000000000000000000000000000000 000000000000000000000000000000000000000     00000000                                                                                                                        000000000000000000
F0010000005804900002000090020547900041450500000000000000000201405130002001DAC DEL CARIBE S.A.S.                             C000000002400000000000000000000000100010010000000000000000000000F0010000005804900220140513000101 00000000000000000000000000000000000000000000000000000000000000000000000000000000000000000000000000000000000000000N 00000000000NCONT   00    00000000000          00000000000000000000000000000000000000000000 000000000000000A000000000000000000000000000000000000000000000 000000000000000000000000000000000000000     00000000                                                                                                                        000000000000000000
F0010000005804900003000090020547900042505000000000000000000201405130002001DAC DEL CARIBE S.A.S.                             C000000000700000000000000000000000100010010000000000000000000000F0010000005804900320140513000101 00000000000000000000000000000000000000000000000000000000000000000000000000000000000000000000000000000000000000000N 00000000000NCONT   00    00000000000          00000000000000000000000000000000000000000000 000000000000000A000000000000000000000000000000000000000000000 000000000000000000000000000000000000000     00000000                                                                                                                        000000000000000000
F0010000005804900004000090020547900023658300000000000000000201405130002001DAC DEL CARIBE S.A.S.                             C000000000019200000000000000000000100010010000000000000000000000F0010000005804900420140513000101 00000000000000000000000000000000000000000000000000000000000000000000000000000000000000000000000000000000000000000N 00000000000NCONT   00    00000000000          00000000000000000000000000000000000000000000 000000000000000A000000000000000000000000000000000000000000000 000000000000000000000000000000000000000     00000000                                                                                                                        000000000000000000
F0010000005804900005000090020547900013552100000000000000000201405130002001DAC DEL CARIBE S.A.S.                             D000000000019200000000000000000000100010010000000000000000000000F0010000005804900520140513000101 00000000000000000000000000000000000000000000000000000000000000000000000000000000000000000000000000000000000000000N 00000000000NCONT   00    00000000000          00000000000000000000000000000000000000000000 000000000000000A000000000000000000000000000000000000000000000 000000000000000000000000000000000000000     00000000                                                                                                                        000000000000000000
F0010000005805000001000090020547900011050500000000000000000201405130002001DAC DEL CARIBE S.A.S.                             D000000003100000000000000000000000100010010000000000000000000000F0010000005805000120140513000101 00000000000000000000000000000000000000000000000000000000000000000000000000000000000000000000000000000000000000000N 00000000000NCONT   00    00000000000          00000000000000000000000000000000000000000000 000000000000000A000000000000000000000000000000000000000000000 000000000000000000000000000000000000000     00000000                                                                                                                        000000000000000000
F0010000005805000002000090020547900041450500000000000000000201405130002001DAC DEL CARIBE S.A.S.                             C000000002400000000000000000000000100010010000000000000000000000F0010000005805000220140513000101 00000000000000000000000000000000000000000000000000000000000000000000000000000000000000000000000000000000000000000N 00000000000NCONT   00    00000000000          00000000000000000000000000000000000000000000 000000000000000A000000000000000000000000000000000000000000000 000000000000000000000000000000000000000     00000000                                                                                                                        000000000000000000
F0010000005805000003000090020547900042505000000000000000000201405130002001DAC DEL CARIBE S.A.S.                             C000000000700000000000000000000000100010010000000000000000000000F0010000005805000320140513000101 00000000000000000000000000000000000000000000000000000000000000000000000000000000000000000000000000000000000000000N 00000000000NCONT   00    00000000000          00000000000000000000000000000000000000000000 000000000000000A000000000000000000000000000000000000000000000 000000000000000000000000000000000000000     00000000                                                                                                                        000000000000000000
F0010000005805000004000090020547900023658300000000000000000201405130002001DAC DEL CARIBE S.A.S.                             C000000000019200000000000000000000100010010000000000000000000000F0010000005805000420140513000101 00000000000000000000000000000000000000000000000000000000000000000000000000000000000000000000000000000000000000000N 00000000000NCONT   00    00000000000          00000000000000000000000000000000000000000000 000000000000000A000000000000000000000000000000000000000000000 000000000000000000000000000000000000000     00000000                                                                                                                        000000000000000000
F0010000005805000005000090020547900013552100000000000000000201405130002001DAC DEL CARIBE S.A.S.                             D000000000019200000000000000000000100010010000000000000000000000F0010000005805000520140513000101 00000000000000000000000000000000000000000000000000000000000000000000000000000000000000000000000000000000000000000N 00000000000NCONT   00    00000000000          00000000000000000000000000000000000000000000 000000000000000A000000000000000000000000000000000000000000000 000000000000000000000000000000000000000     00000000                                                                                                                        000000000000000000
F0010000005805100001000090020547900011050500000000000000000201405130002001DAC DEL CARIBE S.A.S.                             D000000001700000000000000000000000100010010000000000000000000000F0010000005805100120140513000101 00000000000000000000000000000000000000000000000000000000000000000000000000000000000000000000000000000000000000000N 00000000000NCONT   00    00000000000          00000000000000000000000000000000000000000000 000000000000000A000000000000000000000000000000000000000000000 000000000000000000000000000000000000000     00000000                                                                                                                        000000000000000000
F0010000005805100002000090020547900041450500000000000000000201405130002001DAC DEL CARIBE S.A.S.                             C000000001200000000000000000000000100010010000000000000000000000F0010000005805100220140513000101 00000000000000000000000000000000000000000000000000000000000000000000000000000000000000000000000000000000000000000N 00000000000NCONT   00    00000000000          00000000000000000000000000000000000000000000 000000000000000A000000000000000000000000000000000000000000000 000000000000000000000000000000000000000     00000000                                                                                                                        000000000000000000
F0010000005805100003000090020547900042505000000000000000000201405130002001DAC DEL CARIBE S.A.S.                             C000000000500000000000000000000000100010010000000000000000000000F0010000005805100320140513000101 00000000000000000000000000000000000000000000000000000000000000000000000000000000000000000000000000000000000000000N 00000000000NCONT   00    00000000000          00000000000000000000000000000000000000000000 000000000000000A000000000000000000000000000000000000000000000 000000000000000000000000000000000000000     00000000                                                                                                                        000000000000000000
F0010000005805100004000090020547900023658300000000000000000201405130002001DAC DEL CARIBE S.A.S.                             C000000000009600000000000000000000100010010000000000000000000000F0010000005805100420140513000101 00000000000000000000000000000000000000000000000000000000000000000000000000000000000000000000000000000000000000000N 00000000000NCONT   00    00000000000          00000000000000000000000000000000000000000000 000000000000000A000000000000000000000000000000000000000000000 000000000000000000000000000000000000000     00000000                                                                                                                        000000000000000000
F0010000005805100005000090020547900013552100000000000000000201405130002001DAC DEL CARIBE S.A.S.                             D000000000009600000000000000000000100010010000000000000000000000F0010000005805100520140513000101 00000000000000000000000000000000000000000000000000000000000000000000000000000000000000000000000000000000000000000N 00000000000NCONT   00    00000000000          00000000000000000000000000000000000000000000 000000000000000A000000000000000000000000000000000000000000000 000000000000000000000000000000000000000     00000000                                                                                                                        000000000000000000
F0010000005805200001000090020547900011050500000000000000000201405130002001DAC DEL CARIBE S.A.S.                             D000000001700000000000000000000000100010010000000000000000000000F0010000005805200120140513000101 00000000000000000000000000000000000000000000000000000000000000000000000000000000000000000000000000000000000000000N 00000000000NCONT   00    00000000000          00000000000000000000000000000000000000000000 000000000000000A000000000000000000000000000000000000000000000 000000000000000000000000000000000000000     00000000                                                                                                                        000000000000000000
F0010000005805200002000090020547900041450500000000000000000201405130002001DAC DEL CARIBE S.A.S.                             C000000001200000000000000000000000100010010000000000000000000000F0010000005805200220140513000101 00000000000000000000000000000000000000000000000000000000000000000000000000000000000000000000000000000000000000000N 00000000000NCONT   00    00000000000          00000000000000000000000000000000000000000000 000000000000000A000000000000000000000000000000000000000000000 000000000000000000000000000000000000000     00000000                                                                                                                        000000000000000000
F0010000005805200003000090020547900042505000000000000000000201405130002001DAC DEL CARIBE S.A.S.                             C000000000500000000000000000000000100010010000000000000000000000F0010000005805200320140513000101 00000000000000000000000000000000000000000000000000000000000000000000000000000000000000000000000000000000000000000N 00000000000NCONT   00    00000000000          00000000000000000000000000000000000000000000 000000000000000A000000000000000000000000000000000000000000000 000000000000000000000000000000000000000     00000000                                                                                                                        000000000000000000
F0010000005805200004000090020547900023658300000000000000000201405130002001DAC DEL CARIBE S.A.S.                             C000000000009600000000000000000000100010010000000000000000000000F0010000005805200420140513000101 00000000000000000000000000000000000000000000000000000000000000000000000000000000000000000000000000000000000000000N 00000000000NCONT   00    00000000000          00000000000000000000000000000000000000000000 000000000000000A000000000000000000000000000000000000000000000 000000000000000000000000000000000000000     00000000                                                                                                                        000000000000000000
F0010000005805200005000090020547900013552100000000000000000201405130002001DAC DEL CARIBE S.A.S.                             D000000000009600000000000000000000100010010000000000000000000000F0010000005805200520140513000101 00000000000000000000000000000000000000000000000000000000000000000000000000000000000000000000000000000000000000000N 00000000000NCONT   00    00000000000          00000000000000000000000000000000000000000000 000000000000000A000000000000000000000000000000000000000000000 000000000000000000000000000000000000000     00000000                                                                                                                        000000000000000000
F0010000005805300001000007222012100011050500000000000000000201405130002001LUIS NAVARRO AVILA                                D000000001100000000000000000000000100010010000000000000000000000F0010000005805300120140513000101 00000000000000000000000000000000000000000000000000000000000000000000000000000000000000000000000000000000000000000N 00000000000NCONT   00    00000000000          00000000000000000000000000000000000000000000 000000000000000A000000000000000000000000000000000000000000000 000000000000000000000000000000000000000     00000000                                                                                                                        000000000000000000
F0010000005805300002000007222012100041450500000000000000000201405130002001LUIS NAVARRO AVILA                                C000000001000000000000000000000000100010010000000000000000000000F0010000005805300220140513000101 00000000000000000000000000000000000000000000000000000000000000000000000000000000000000000000000000000000000000000N 00000000000NCONT   00    00000000000          00000000000000000000000000000000000000000000 000000000000000A000000000000000000000000000000000000000000000 000000000000000000000000000000000000000     00000000                                                                                                                        000000000000000000
F0010000005805300003000007222012100042505000000000000000000201405130002001LUIS NAVARRO AVILA                                C000000000100000000000000000000000100010010000000000000000000000F0010000005805300320140513000101 00000000000000000000000000000000000000000000000000000000000000000000000000000000000000000000000000000000000000000N 00000000000NCONT   00    00000000000          00000000000000000000000000000000000000000000 000000000000000A000000000000000000000000000000000000000000000 000000000000000000000000000000000000000     00000000                                                                                                                        000000000000000000
F0010000005805300004000007222012100023658300000000000000000201405130002001LUIS NAVARRO AVILA                                C000000000008000000000000000000000100010010000000000000000000000F0010000005805300420140513000101 00000000000000000000000000000000000000000000000000000000000000000000000000000000000000000000000000000000000000000N 00000000000NCONT   00    00000000000          00000000000000000000000000000000000000000000 000000000000000A000000000000000000000000000000000000000000000 000000000000000000000000000000000000000     00000000                                                                                                                        000000000000000000
F0010000005805300005000007222012100013552100000000000000000201405130002001LUIS NAVARRO AVILA                                D000000000008000000000000000000000100010010000000000000000000000F0010000005805300520140513000101 00000000000000000000000000000000000000000000000000000000000000000000000000000000000000000000000000000000000000000N 00000000000NCONT   00    00000000000          00000000000000000000000000000000000000000000 000000000000000A000000000000000000000000000000000000000000000 000000000000000000000000000000000000000     00000000                                                                                                                        000000000000000000
F0010000005805400001000004175790100011050500000000000000000201405130002001ROSIRIS FERIA HOYOS  (COSM. SHILLER)              D000000000900000000000000000000000100010010000000000000000000000F0010000005805400120140513000101 00000000000000000000000000000000000000000000000000000000000000000000000000000000000000000000000000000000000000000N 00000000000NCONT   00    00000000000          00000000000000000000000000000000000000000000 000000000000000A000000000000000000000000000000000000000000000 000000000000000000000000000000000000000     00000000                                                                                                                        000000000000000000
F0010000005805400002000004175790100041450500000000000000000201405130002001ROSIRIS FERIA HOYOS  (COSM. SHILLER)              C000000000800000000000000000000000100010010000000000000000000000F0010000005805400220140513000101 00000000000000000000000000000000000000000000000000000000000000000000000000000000000000000000000000000000000000000N 00000000000NCONT   00    00000000000          00000000000000000000000000000000000000000000 000000000000000A000000000000000000000000000000000000000000000 000000000000000000000000000000000000000     00000000                                                                                                                        000000000000000000
F0010000005805400003000004175790100042505000000000000000000201405130002001ROSIRIS FERIA HOYOS  (COSM. SHILLER)              C000000000100000000000000000000000100010010000000000000000000000F0010000005805400320140513000101 00000000000000000000000000000000000000000000000000000000000000000000000000000000000000000000000000000000000000000N 00000000000NCONT   00    00000000000          00000000000000000000000000000000000000000000 000000000000000A000000000000000000000000000000000000000000000 000000000000000000000000000000000000000     00000000                                                                                                                        000000000000000000
F0010000005805400004000004175790100023658300000000000000000201405130002001ROSIRIS FERIA HOYOS  (COSM. SHILLER)              C000000000006400000000000000000000100010010000000000000000000000F0010000005805400420140513000101 00000000000000000000000000000000000000000000000000000000000000000000000000000000000000000000000000000000000000000N 00000000000NCONT   00    00000000000          00000000000000000000000000000000000000000000 000000000000000A000000000000000000000000000000000000000000000 000000000000000000000000000000000000000     00000000                                                                                                                        000000000000000000
F0010000005805400005000004175790100013552100000000000000000201405130002001ROSIRIS FERIA HOYOS  (COSM. SHILLER)              D000000000006400000000000000000000100010010000000000000000000000F0010000005805400520140513000101 00000000000000000000000000000000000000000000000000000000000000000000000000000000000000000000000000000000000000000N 00000000000NCONT   00    00000000000          00000000000000000000000000000000000000000000 000000000000000A000000000000000000000000000000000000000000000 000000000000000000000000000000000000000     00000000                                                                                                                        000000000000000000
F0010000005805500001000004175790100011050500000000000000000201405130002001ROSIRIS FERIA HOYOS  (COSM. SHILLER)              D000000001400000000000000000000000100010010000000000000000000000F0010000005805500120140513000101 00000000000000000000000000000000000000000000000000000000000000000000000000000000000000000000000000000000000000000N 00000000000NCONT   00    00000000000          00000000000000000000000000000000000000000000 000000000000000A000000000000000000000000000000000000000000000 000000000000000000000000000000000000000     00000000                                                                                                                        000000000000000000
F0010000005805500002000004175790100041450500000000000000000201405130002001ROSIRIS FERIA HOYOS  (COSM. SHILLER)              C000000001300000000000000000000000100010010000000000000000000000F0010000005805500220140513000101 00000000000000000000000000000000000000000000000000000000000000000000000000000000000000000000000000000000000000000N 00000000000NCONT   00    00000000000          00000000000000000000000000000000000000000000 000000000000000A000000000000000000000000000000000000000000000 000000000000000000000000000000000000000     00000000                                                                                                                        000000000000000000
F0010000005805500003000004175790100042505000000000000000000201405130002001ROSIRIS FERIA HOYOS  (COSM. SHILLER)              C000000000100000000000000000000000100010010000000000000000000000F0010000005805500320140513000101 00000000000000000000000000000000000000000000000000000000000000000000000000000000000000000000000000000000000000000N 00000000000NCONT   00    00000000000          00000000000000000000000000000000000000000000 000000000000000A000000000000000000000000000000000000000000000 000000000000000000000000000000000000000     00000000                                                                                                                        000000000000000000
F0010000005805500004000004175790100023658300000000000000000201405130002001ROSIRIS FERIA HOYOS  (COSM. SHILLER)              C000000000010400000000000000000000100010010000000000000000000000F0010000005805500420140513000101 00000000000000000000000000000000000000000000000000000000000000000000000000000000000000000000000000000000000000000N 00000000000NCONT   00    00000000000          00000000000000000000000000000000000000000000 000000000000000A000000000000000000000000000000000000000000000 000000000000000000000000000000000000000     00000000                                                                                                                        000000000000000000
F0010000005805500005000004175790100013552100000000000000000201405130002001ROSIRIS FERIA HOYOS  (COSM. SHILLER)              D000000000010400000000000000000000100010010000000000000000000000F0010000005805500520140513000101 00000000000000000000000000000000000000000000000000000000000000000000000000000000000000000000000000000000000000000N 00000000000NCONT   00    00000000000          00000000000000000000000000000000000000000000 000000000000000A000000000000000000000000000000000000000000000 000000000000000000000000000000000000000     00000000                                                                                                                        000000000000000000
F0010000005805600001000004175790100011050500000000000000000201405130002001ROSIRIS FERIA HOYOS  (COSM. SHILLER)              D000000000900000000000000000000000100010010000000000000000000000F0010000005805600120140513000101 00000000000000000000000000000000000000000000000000000000000000000000000000000000000000000000000000000000000000000N 00000000000NCONT   00    00000000000          00000000000000000000000000000000000000000000 000000000000000A000000000000000000000000000000000000000000000 000000000000000000000000000000000000000     00000000                                                                                                                        000000000000000000
F0010000005805600002000004175790100041450500000000000000000201405130002001ROSIRIS FERIA HOYOS  (COSM. SHILLER)              C000000000800000000000000000000000100010010000000000000000000000F0010000005805600220140513000101 00000000000000000000000000000000000000000000000000000000000000000000000000000000000000000000000000000000000000000N 00000000000NCONT   00    00000000000          00000000000000000000000000000000000000000000 000000000000000A000000000000000000000000000000000000000000000 000000000000000000000000000000000000000     00000000                                                                                                                        000000000000000000
F0010000005805600003000004175790100042505000000000000000000201405130002001ROSIRIS FERIA HOYOS  (COSM. SHILLER)              C000000000100000000000000000000000100010010000000000000000000000F0010000005805600320140513000101 00000000000000000000000000000000000000000000000000000000000000000000000000000000000000000000000000000000000000000N 00000000000NCONT   00    00000000000          00000000000000000000000000000000000000000000 000000000000000A000000000000000000000000000000000000000000000 000000000000000000000000000000000000000     00000000                                                                                                                        000000000000000000
F0010000005805600004000004175790100023658300000000000000000201405130002001ROSIRIS FERIA HOYOS  (COSM. SHILLER)              C000000000006400000000000000000000100010010000000000000000000000F0010000005805600420140513000101 00000000000000000000000000000000000000000000000000000000000000000000000000000000000000000000000000000000000000000N 00000000000NCONT   00    00000000000          00000000000000000000000000000000000000000000 000000000000000A000000000000000000000000000000000000000000000 000000000000000000000000000000000000000     00000000                                                                                                                        000000000000000000
F0010000005805600005000004175790100013552100000000000000000201405130002001ROSIRIS FERIA HOYOS  (COSM. SHILLER)              D000000000006400000000000000000000100010010000000000000000000000F0010000005805600520140513000101 00000000000000000000000000000000000000000000000000000000000000000000000000000000000000000000000000000000000000000N 00000000000NCONT   00    00000000000          00000000000000000000000000000000000000000000 000000000000000A000000000000000000000000000000000000000000000 000000000000000000000000000000000000000     00000000                                                                                                                        000000000000000000
F0010000005805700001000004175790100011050500000000000000000201405130002001ROSIRIS FERIA HOYOS  (COSM. SHILLER)              D000000000900000000000000000000000100010010000000000000000000000F0010000005805700120140513000101 00000000000000000000000000000000000000000000000000000000000000000000000000000000000000000000000000000000000000000N 00000000000NCONT   00    00000000000          00000000000000000000000000000000000000000000 000000000000000A000000000000000000000000000000000000000000000 000000000000000000000000000000000000000     00000000                                                                                                                        000000000000000000
F0010000005805700002000004175790100041450500000000000000000201405130002001ROSIRIS FERIA HOYOS  (COSM. SHILLER)              C000000000800000000000000000000000100010010000000000000000000000F0010000005805700220140513000101 00000000000000000000000000000000000000000000000000000000000000000000000000000000000000000000000000000000000000000N 00000000000NCONT   00    00000000000          00000000000000000000000000000000000000000000 000000000000000A000000000000000000000000000000000000000000000 000000000000000000000000000000000000000     00000000                                                                                                                        000000000000000000
F0010000005805700003000004175790100042505000000000000000000201405130002001ROSIRIS FERIA HOYOS  (COSM. SHILLER)              C000000000100000000000000000000000100010010000000000000000000000F0010000005805700320140513000101 00000000000000000000000000000000000000000000000000000000000000000000000000000000000000000000000000000000000000000N 00000000000NCONT   00    00000000000          00000000000000000000000000000000000000000000 000000000000000A000000000000000000000000000000000000000000000 000000000000000000000000000000000000000     00000000                                                                                                                        000000000000000000
F0010000005805700004000004175790100023658300000000000000000201405130002001ROSIRIS FERIA HOYOS  (COSM. SHILLER)              C000000000006400000000000000000000100010010000000000000000000000F0010000005805700420140513000101 00000000000000000000000000000000000000000000000000000000000000000000000000000000000000000000000000000000000000000N 00000000000NCONT   00    00000000000          00000000000000000000000000000000000000000000 000000000000000A000000000000000000000000000000000000000000000 000000000000000000000000000000000000000     00000000                                                                                                                        000000000000000000
F0010000005805700005000004175790100013552100000000000000000201405130002001ROSIRIS FERIA HOYOS  (COSM. SHILLER)              D000000000006400000000000000000000100010010000000000000000000000F0010000005805700520140513000101 00000000000000000000000000000000000000000000000000000000000000000000000000000000000000000000000000000000000000000N 00000000000NCONT   00    00000000000          00000000000000000000000000000000000000000000 000000000000000A000000000000000000000000000000000000000000000 000000000000000000000000000000000000000     00000000                                                                                                                        000000000000000000
F0010000005805800001000004175790100011050500000000000000000201405130002001ROSIRIS FERIA HOYOS  (COSM. SHILLER)              D000000000900000000000000000000000100010010000000000000000000000F0010000005805800120140513000101 00000000000000000000000000000000000000000000000000000000000000000000000000000000000000000000000000000000000000000N 00000000000NCONT   00    00000000000          00000000000000000000000000000000000000000000 000000000000000A000000000000000000000000000000000000000000000 000000000000000000000000000000000000000     00000000                                                                                                                        000000000000000000
F0010000005805800002000004175790100041450500000000000000000201405130002001ROSIRIS FERIA HOYOS  (COSM. SHILLER)              C000000000800000000000000000000000100010010000000000000000000000F0010000005805800220140513000101 00000000000000000000000000000000000000000000000000000000000000000000000000000000000000000000000000000000000000000N 00000000000NCONT   00    00000000000          00000000000000000000000000000000000000000000 000000000000000A000000000000000000000000000000000000000000000 000000000000000000000000000000000000000     00000000                                                                                                                        000000000000000000
F0010000005805800003000004175790100042505000000000000000000201405130002001ROSIRIS FERIA HOYOS  (COSM. SHILLER)              C000000000100000000000000000000000100010010000000000000000000000F0010000005805800320140513000101 00000000000000000000000000000000000000000000000000000000000000000000000000000000000000000000000000000000000000000N 00000000000NCONT   00    00000000000          00000000000000000000000000000000000000000000 000000000000000A000000000000000000000000000000000000000000000 000000000000000000000000000000000000000     00000000                                                                                                                        000000000000000000
F0010000005805800004000004175790100023658300000000000000000201405130002001ROSIRIS FERIA HOYOS  (COSM. SHILLER)              C000000000006400000000000000000000100010010000000000000000000000F0010000005805800420140513000101 00000000000000000000000000000000000000000000000000000000000000000000000000000000000000000000000000000000000000000N 00000000000NCONT   00    00000000000          00000000000000000000000000000000000000000000 000000000000000A000000000000000000000000000000000000000000000 000000000000000000000000000000000000000     00000000                                                                                                                        000000000000000000
F0010000005805800005000004175790100013552100000000000000000201405130002001ROSIRIS FERIA HOYOS  (COSM. SHILLER)              D000000000006400000000000000000000100010010000000000000000000000F0010000005805800520140513000101 00000000000000000000000000000000000000000000000000000000000000000000000000000000000000000000000000000000000000000N 00000000000NCONT   00    00000000000          00000000000000000000000000000000000000000000 000000000000000A000000000000000000000000000000000000000000000 000000000000000000000000000000000000000     00000000                                                                                                                        000000000000000000
F0010000005805900001000004175790100011050500000000000000000201405130002001ROSIRIS FERIA HOYOS  (COSM. SHILLER)              D000000000900000000000000000000000100010010000000000000000000000F0010000005805900120140513000101 00000000000000000000000000000000000000000000000000000000000000000000000000000000000000000000000000000000000000000N 00000000000NCONT   00    00000000000          00000000000000000000000000000000000000000000 000000000000000A000000000000000000000000000000000000000000000 000000000000000000000000000000000000000     00000000                                                                                                                        000000000000000000
F0010000005805900002000004175790100041450500000000000000000201405130002001ROSIRIS FERIA HOYOS  (COSM. SHILLER)              C000000000800000000000000000000000100010010000000000000000000000F0010000005805900220140513000101 00000000000000000000000000000000000000000000000000000000000000000000000000000000000000000000000000000000000000000N 00000000000NCONT   00    00000000000          00000000000000000000000000000000000000000000 000000000000000A000000000000000000000000000000000000000000000 000000000000000000000000000000000000000     00000000                                                                                                                        000000000000000000
