F0010000006117900001000089011033000011050500000000000000000201408050002001INDUSTRIAS CRUZ & CAÑON LTDA                     D000000008000000000000000000000000100010010000000000000000000000F0010000006117900120140805000101 00000000000000000000000000000000000000000000000000000000000000000000000000000000000000000000000000000000000000000N 00000000000NCONT   00    00000000000          00000000000000000000000000000000000000000000 000000000000000A000000000000000000000000000000000000000000000 000000000000000000000000000000000000000     00000000                                                                                                                        000000000000000000
F0010000006117900002000089011033000041450500000000000000000201408050002001INDUSTRIAS CRUZ & CAÑON LTDA                     C000000006500000000000000000000000100010010000000000000000000000F0010000006117900220140805000101 00000000000000000000000000000000000000000000000000000000000000000000000000000000000000000000000000000000000000000N 00000000000NCONT   00    00000000000          00000000000000000000000000000000000000000000 000000000000000A000000000000000000000000000000000000000000000 000000000000000000000000000000000000000     00000000                                                                                                                        000000000000000000
F0010000006117900003000089011033000042505000000000000000000201408050002001INDUSTRIAS CRUZ & CAÑON LTDA                     C000000001500000000000000000000000100010010000000000000000000000F0010000006117900320140805000101 00000000000000000000000000000000000000000000000000000000000000000000000000000000000000000000000000000000000000000N 00000000000NCONT   00    00000000000          00000000000000000000000000000000000000000000 000000000000000A000000000000000000000000000000000000000000000 000000000000000000000000000000000000000     00000000                                                                                                                        000000000000000000
F0010000006117900004000089011033000023658300000000000000000201408050002001INDUSTRIAS CRUZ & CAÑON LTDA                     C000000000052000000000000000000000100010010000000000000000000000F0010000006117900420140805000101 00000000000000000000000000000000000000000000000000000000000000000000000000000000000000000000000000000000000000000N 00000000000NCONT   00    00000000000          00000000000000000000000000000000000000000000 000000000000000A000000000000000000000000000000000000000000000 000000000000000000000000000000000000000     00000000                                                                                                                        000000000000000000
F0010000006117900005000089011033000013552100000000000000000201408050002001INDUSTRIAS CRUZ & CAÑON LTDA                     D000000000052000000000000000000000100010010000000000000000000000F0010000006117900520140805000101 00000000000000000000000000000000000000000000000000000000000000000000000000000000000000000000000000000000000000000N 00000000000NCONT   00    00000000000          00000000000000000000000000000000000000000000 000000000000000A000000000000000000000000000000000000000000000 000000000000000000000000000000000000000     00000000                                                                                                                        000000000000000000
F0010000006118000001000000866048200011050500000000000000000201408050002001REGINALDO TURIZO                                  D000000002500000000000000000000000100010010000000000000000000000F0010000006118000120140805000101 00000000000000000000000000000000000000000000000000000000000000000000000000000000000000000000000000000000000000000N 00000000000NCONT   00    00000000000          00000000000000000000000000000000000000000000 000000000000000A000000000000000000000000000000000000000000000 000000000000000000000000000000000000000     00000000                                                                                                                        000000000000000000
F0010000006118000002000000866048200041450500000000000000000201408050002001REGINALDO TURIZO                                  C000000001500000000000000000000000100010010000000000000000000000F0010000006118000220140805000101 00000000000000000000000000000000000000000000000000000000000000000000000000000000000000000000000000000000000000000N 00000000000NCONT   00    00000000000          00000000000000000000000000000000000000000000 000000000000000A000000000000000000000000000000000000000000000 000000000000000000000000000000000000000     00000000                                                                                                                        000000000000000000
F0010000006118000003000000866048200042505000000000000000000201408050002001REGINALDO TURIZO                                  C000000001000000000000000000000000100010010000000000000000000000F0010000006118000320140805000101 00000000000000000000000000000000000000000000000000000000000000000000000000000000000000000000000000000000000000000N 00000000000NCONT   00    00000000000          00000000000000000000000000000000000000000000 000000000000000A000000000000000000000000000000000000000000000 000000000000000000000000000000000000000     00000000                                                                                                                        000000000000000000
F0010000006118000004000000866048200023658300000000000000000201408050002001REGINALDO TURIZO                                  C000000000012000000000000000000000100010010000000000000000000000F0010000006118000420140805000101 00000000000000000000000000000000000000000000000000000000000000000000000000000000000000000000000000000000000000000N 00000000000NCONT   00    00000000000          00000000000000000000000000000000000000000000 000000000000000A000000000000000000000000000000000000000000000 000000000000000000000000000000000000000     00000000                                                                                                                        000000000000000000
F0010000006118000005000000866048200013552100000000000000000201408050002001REGINALDO TURIZO                                  D000000000012000000000000000000000100010010000000000000000000000F0010000006118000520140805000101 00000000000000000000000000000000000000000000000000000000000000000000000000000000000000000000000000000000000000000N 00000000000NCONT   00    00000000000          00000000000000000000000000000000000000000000 000000000000000A000000000000000000000000000000000000000000000 000000000000000000000000000000000000000     00000000                                                                                                                        000000000000000000
F0010000006118100001000114081940500011050500000000000000000201408050002001JOAQUIN BALLESTAS POLO                            D000000003000000000000000000000000100010010000000000000000000000F0010000006118100120140805000101 00000000000000000000000000000000000000000000000000000000000000000000000000000000000000000000000000000000000000000N 00000000000NCONT   00    00000000000          00000000000000000000000000000000000000000000 000000000000000A000000000000000000000000000000000000000000000 000000000000000000000000000000000000000     00000000                                                                                                                        000000000000000000
F0010000006118100002000114081940500041450500000000000000000201408050002001JOAQUIN BALLESTAS POLO                            C000000002500000000000000000000000100010010000000000000000000000F0010000006118100220140805000101 00000000000000000000000000000000000000000000000000000000000000000000000000000000000000000000000000000000000000000N 00000000000NCONT   00    00000000000          00000000000000000000000000000000000000000000 000000000000000A000000000000000000000000000000000000000000000 000000000000000000000000000000000000000     00000000                                                                                                                        000000000000000000
F0010000006118100003000114081940500042505000000000000000000201408050002001JOAQUIN BALLESTAS POLO                            C000000000500000000000000000000000100010010000000000000000000000F0010000006118100320140805000101 00000000000000000000000000000000000000000000000000000000000000000000000000000000000000000000000000000000000000000N 00000000000NCONT   00    00000000000          00000000000000000000000000000000000000000000 000000000000000A000000000000000000000000000000000000000000000 000000000000000000000000000000000000000     00000000                                                                                                                        000000000000000000
F0010000006118100004000114081940500023658300000000000000000201408050002001JOAQUIN BALLESTAS POLO                            C000000000020000000000000000000000100010010000000000000000000000F0010000006118100420140805000101 00000000000000000000000000000000000000000000000000000000000000000000000000000000000000000000000000000000000000000N 00000000000NCONT   00    00000000000          00000000000000000000000000000000000000000000 000000000000000A000000000000000000000000000000000000000000000 000000000000000000000000000000000000000     00000000                                                                                                                        000000000000000000
F0010000006118100005000114081940500013552100000000000000000201408050002001JOAQUIN BALLESTAS POLO                            D000000000020000000000000000000000100010010000000000000000000000F0010000006118100520140805000101 00000000000000000000000000000000000000000000000000000000000000000000000000000000000000000000000000000000000000000N 00000000000NCONT   00    00000000000          00000000000000000000000000000000000000000000 000000000000000A000000000000000000000000000000000000000000000 000000000000000000000000000000000000000     00000000                                                                                                                        000000000000000000
F0010000006118200001000114081940500011050500000000000000000201408050002001JOAQUIN BALLESTAS POLO                            D000000008500000000000000000000000100010010000000000000000000000F0010000006118200120140805000101 00000000000000000000000000000000000000000000000000000000000000000000000000000000000000000000000000000000000000000N 00000000000NCONT   00    00000000000          00000000000000000000000000000000000000000000 000000000000000A000000000000000000000000000000000000000000000 000000000000000000000000000000000000000     00000000                                                                                                                        000000000000000000
F0010000006118200002000114081940500041450500000000000000000201408050002001JOAQUIN BALLESTAS POLO                            C000000007000000000000000000000000100010010000000000000000000000F0010000006118200220140805000101 00000000000000000000000000000000000000000000000000000000000000000000000000000000000000000000000000000000000000000N 00000000000NCONT   00    00000000000          00000000000000000000000000000000000000000000 000000000000000A000000000000000000000000000000000000000000000 000000000000000000000000000000000000000     00000000                                                                                                                        000000000000000000
F0010000006118200003000114081940500042505000000000000000000201408050002001JOAQUIN BALLESTAS POLO                            C000000001500000000000000000000000100010010000000000000000000000F0010000006118200320140805000101 00000000000000000000000000000000000000000000000000000000000000000000000000000000000000000000000000000000000000000N 00000000000NCONT   00    00000000000          00000000000000000000000000000000000000000000 000000000000000A000000000000000000000000000000000000000000000 000000000000000000000000000000000000000     00000000                                                                                                                        000000000000000000
F0010000006118200004000114081940500023658300000000000000000201408050002001JOAQUIN BALLESTAS POLO                            C000000000056000000000000000000000100010010000000000000000000000F0010000006118200420140805000101 00000000000000000000000000000000000000000000000000000000000000000000000000000000000000000000000000000000000000000N 00000000000NCONT   00    00000000000          00000000000000000000000000000000000000000000 000000000000000A000000000000000000000000000000000000000000000 000000000000000000000000000000000000000     00000000                                                                                                                        000000000000000000
F0010000006118200005000114081940500013552100000000000000000201408050002001JOAQUIN BALLESTAS POLO                            D000000000056000000000000000000000100010010000000000000000000000F0010000006118200520140805000101 00000000000000000000000000000000000000000000000000000000000000000000000000000000000000000000000000000000000000000N 00000000000NCONT   00    00000000000          00000000000000000000000000000000000000000000 000000000000000A000000000000000000000000000000000000000000000 000000000000000000000000000000000000000     00000000                                                                                                                        000000000000000000
F0010000006118300001000083050133900011050500000000000000000201408050002001VALTAC DEL CARIBE LTDA                            D000000002800000000000000000000000100010010000000000000000000000F0010000006118300120140805000101 00000000000000000000000000000000000000000000000000000000000000000000000000000000000000000000000000000000000000000N 00000000000NCONT   00    00000000000          00000000000000000000000000000000000000000000 000000000000000A000000000000000000000000000000000000000000000 000000000000000000000000000000000000000     00000000                                                                                                                        000000000000000000
F0010000006118300002000083050133900041450500000000000000000201408050002001VALTAC DEL CARIBE LTDA                            C000000002500000000000000000000000100010010000000000000000000000F0010000006118300220140805000101 00000000000000000000000000000000000000000000000000000000000000000000000000000000000000000000000000000000000000000N 00000000000NCONT   00    00000000000          00000000000000000000000000000000000000000000 000000000000000A000000000000000000000000000000000000000000000 000000000000000000000000000000000000000     00000000                                                                                                                        000000000000000000
F0010000006118300003000083050133900042505000000000000000000201408050002001VALTAC DEL CARIBE LTDA                            C000000000300000000000000000000000100010010000000000000000000000F0010000006118300320140805000101 00000000000000000000000000000000000000000000000000000000000000000000000000000000000000000000000000000000000000000N 00000000000NCONT   00    00000000000          00000000000000000000000000000000000000000000 000000000000000A000000000000000000000000000000000000000000000 000000000000000000000000000000000000000     00000000                                                                                                                        000000000000000000
F0010000006118300004000083050133900023658300000000000000000201408050002001VALTAC DEL CARIBE LTDA                            C000000000020000000000000000000000100010010000000000000000000000F0010000006118300420140805000101 00000000000000000000000000000000000000000000000000000000000000000000000000000000000000000000000000000000000000000N 00000000000NCONT   00    00000000000          00000000000000000000000000000000000000000000 000000000000000A000000000000000000000000000000000000000000000 000000000000000000000000000000000000000     00000000                                                                                                                        000000000000000000
F0010000006118300005000083050133900013552100000000000000000201408050002001VALTAC DEL CARIBE LTDA                            D000000000020000000000000000000000100010010000000000000000000000F0010000006118300520140805000101 00000000000000000000000000000000000000000000000000000000000000000000000000000000000000000000000000000000000000000N 00000000000NCONT   00    00000000000          00000000000000000000000000000000000000000000 000000000000000A000000000000000000000000000000000000000000000 000000000000000000000000000000000000000     00000000                                                                                                                        000000000000000000
F0010000006118400001000003265780700011050500000000000000000201408050002001ZUNILDA GUERRERO                                  D000000002700000000000000000000000100010010000000000000000000000F0010000006118400120140805000101 00000000000000000000000000000000000000000000000000000000000000000000000000000000000000000000000000000000000000000N 00000000000NCONT   00    00000000000          00000000000000000000000000000000000000000000 000000000000000A000000000000000000000000000000000000000000000 000000000000000000000000000000000000000     00000000                                                                                                                        000000000000000000
F0010000006118400002000003265780700041450500000000000000000201408050002001ZUNILDA GUERRERO                                  C000000002000000000000000000000000100010010000000000000000000000F0010000006118400220140805000101 00000000000000000000000000000000000000000000000000000000000000000000000000000000000000000000000000000000000000000N 00000000000NCONT   00    00000000000          00000000000000000000000000000000000000000000 000000000000000A000000000000000000000000000000000000000000000 000000000000000000000000000000000000000     00000000                                                                                                                        000000000000000000
F0010000006118400003000003265780700042505000000000000000000201408050002001ZUNILDA GUERRERO                                  C000000000700000000000000000000000100010010000000000000000000000F0010000006118400320140805000101 00000000000000000000000000000000000000000000000000000000000000000000000000000000000000000000000000000000000000000N 00000000000NCONT   00    00000000000          00000000000000000000000000000000000000000000 000000000000000A000000000000000000000000000000000000000000000 000000000000000000000000000000000000000     00000000                                                                                                                        000000000000000000
F0010000006118400004000003265780700023658300000000000000000201408050002001ZUNILDA GUERRERO                                  C000000000016000000000000000000000100010010000000000000000000000F0010000006118400420140805000101 00000000000000000000000000000000000000000000000000000000000000000000000000000000000000000000000000000000000000000N 00000000000NCONT   00    00000000000          00000000000000000000000000000000000000000000 000000000000000A000000000000000000000000000000000000000000000 000000000000000000000000000000000000000     00000000                                                                                                                        000000000000000000
F0010000006118400005000003265780700013552100000000000000000201408050002001ZUNILDA GUERRERO                                  D000000000016000000000000000000000100010010000000000000000000000F0010000006118400520140805000101 00000000000000000000000000000000000000000000000000000000000000000000000000000000000000000000000000000000000000000N 00000000000NCONT   00    00000000000          00000000000000000000000000000000000000000000 000000000000000A000000000000000000000000000000000000000000000 000000000000000000000000000000000000000     00000000                                                                                                                        000000000000000000
F0010000006118500001000090013035500013050500000000000000000201408050002001FUJIAN SHAN S.A.                                  D000000111552400000000000000000000100010010000000000000000000000F0010000006118500120140805000101 00000000000000000000000000000000000000000000000000000000000000000000000000000000000000000000000000000000000000000N 00000000000NCONT   00    00000000000          00000000000000000000000000000000000000000000 000000000000000A000000000000000000000000000000000000000000000 000000000000000000000000000000000000000     00000000                                                                                                                        000000000000000000
F0010000006118500002000090013035500041450500000000000000000201408050002001FUJIAN SHAN S.A.                                  C000000109552400000000000000000000100010010000000000000000000000F0010000006118500220140805000101 00000000000000000000000000000000000000000000000000000000000000000000000000000000000000000000000000000000000000000N 00000000000NCONT   00    00000000000          00000000000000000000000000000000000000000000 000000000000000A000000000000000000000000000000000000000000000 000000000000000000000000000000000000000     00000000                                                                                                                        000000000000000000
F0010000006118500003000090013035500042505000000000000000000201408050002001FUJIAN SHAN S.A.                                  C000000002000000000000000000000000100010010000000000000000000000F0010000006118500320140805000101 00000000000000000000000000000000000000000000000000000000000000000000000000000000000000000000000000000000000000000N 00000000000NCONT   00    00000000000          00000000000000000000000000000000000000000000 000000000000000A000000000000000000000000000000000000000000000 000000000000000000000000000000000000000     00000000                                                                                                                        000000000000000000
F0010000006118500004000090013035500023658300000000000000000201408050002001FUJIAN SHAN S.A.                                  C000000000876400000000000000000000100010010000000000000000000000F0010000006118500420140805000101 00000000000000000000000000000000000000000000000000000000000000000000000000000000000000000000000000000000000000000N 00000000000NCONT   00    00000000000          00000000000000000000000000000000000000000000 000000000000000A000000000000000000000000000000000000000000000 000000000000000000000000000000000000000     00000000                                                                                                                        000000000000000000
F0010000006118500005000090013035500013552100000000000000000201408050002001FUJIAN SHAN S.A.                                  D000000000876400000000000000000000100010010000000000000000000000F0010000006118500520140805000101 00000000000000000000000000000000000000000000000000000000000000000000000000000000000000000000000000000000000000000N 00000000000NCONT   00    00000000000          00000000000000000000000000000000000000000000 000000000000000A000000000000000000000000000000000000000000000 000000000000000000000000000000000000000     00000000                                                                                                                        000000000000000000
F0010000006118600001000080200863700013050500000000000000000201408050002001COPIN LTDA                                        D000000036473300000000000000000000100010010000000000000000000000F0010000006118600120140805000101 00000000000000000000000000000000000000000000000000000000000000000000000000000000000000000000000000000000000000000N 00000000000NCONT   00    00000000000          00000000000000000000000000000000000000000000 000000000000000A000000000000000000000000000000000000000000000 000000000000000000000000000000000000000     00000000                                                                                                                        000000000000000000
F0010000006118600002000080200863700041450500000000000000000201408050002001COPIN LTDA                                        C000000034980000000000000000000000100010010000000000000000000000F0010000006118600220140805000101 00000000000000000000000000000000000000000000000000000000000000000000000000000000000000000000000000000000000000000N 00000000000NCONT   00    00000000000          00000000000000000000000000000000000000000000 000000000000000A000000000000000000000000000000000000000000000 000000000000000000000000000000000000000     00000000                                                                                                                        000000000000000000
F0010000006118600003000080200863700042505000000000000000000201408050002001COPIN LTDA                                        C000000001493300000000000000000000100010010000000000000000000000F0010000006118600320140805000101 00000000000000000000000000000000000000000000000000000000000000000000000000000000000000000000000000000000000000000N 00000000000NCONT   00    00000000000          00000000000000000000000000000000000000000000 000000000000000A000000000000000000000000000000000000000000000 000000000000000000000000000000000000000     00000000                                                                                                                        000000000000000000
F0010000006118600004000080200863700023658300000000000000000201408050002001COPIN LTDA                                        C000000000279800000000000000000000100010010000000000000000000000F0010000006118600420140805000101 00000000000000000000000000000000000000000000000000000000000000000000000000000000000000000000000000000000000000000N 00000000000NCONT   00    00000000000          00000000000000000000000000000000000000000000 000000000000000A000000000000000000000000000000000000000000000 000000000000000000000000000000000000000     00000000                                                                                                                        000000000000000000
F0010000006118600005000080200863700013552100000000000000000201408050002001COPIN LTDA                                        D000000000279800000000000000000000100010010000000000000000000000F0010000006118600520140805000101 00000000000000000000000000000000000000000000000000000000000000000000000000000000000000000000000000000000000000000N 00000000000NCONT   00    00000000000          00000000000000000000000000000000000000000000 000000000000000A000000000000000000000000000000000000000000000 000000000000000000000000000000000000000     00000000                                                                                                                        000000000000000000
F0010000006118700001000089011492400013050500000000000000000201408050002001AGE. CAUCHO SOL DE LA COSTA  SAS                  D000000061137100000000000000000000100010010000000000000000000000F0010000006118700120140805000101 00000000000000000000000000000000000000000000000000000000000000000000000000000000000000000000000000000000000000000N 00000000000NCONT   00    00000000000          00000000000000000000000000000000000000000000 000000000000000A000000000000000000000000000000000000000000000 000000000000000000000000000000000000000     00000000                                                                                                                        000000000000000000
F0010000006118700002000089011492400041450500000000000000000201408050002001AGE. CAUCHO SOL DE LA COSTA  SAS                  C000000036570000000000000000000000100010010000000000000000000000F0010000006118700220140805000101 00000000000000000000000000000000000000000000000000000000000000000000000000000000000000000000000000000000000000000N 00000000000NCONT   00    00000000000          00000000000000000000000000000000000000000000 000000000000000A000000000000000000000000000000000000000000000 000000000000000000000000000000000000000     00000000                                                                                                                        000000000000000000
F0010000006118700003000089011492400042505000000000000000000201408050002001AGE. CAUCHO SOL DE LA COSTA  SAS                  C000000024567100000000000000000000100010010000000000000000000000F0010000006118700320140805000101 00000000000000000000000000000000000000000000000000000000000000000000000000000000000000000000000000000000000000000N 00000000000NCONT   00    00000000000          00000000000000000000000000000000000000000000 000000000000000A000000000000000000000000000000000000000000000 000000000000000000000000000000000000000     00000000                                                                                                                        000000000000000000
F0010000006118700004000089011492400023658300000000000000000201408050002001AGE. CAUCHO SOL DE LA COSTA  SAS                  C000000000292600000000000000000000100010010000000000000000000000F0010000006118700420140805000101 00000000000000000000000000000000000000000000000000000000000000000000000000000000000000000000000000000000000000000N 00000000000NCONT   00    00000000000          00000000000000000000000000000000000000000000 000000000000000A000000000000000000000000000000000000000000000 000000000000000000000000000000000000000     00000000                                                                                                                        000000000000000000
F0010000006118700005000089011492400013552100000000000000000201408050002001AGE. CAUCHO SOL DE LA COSTA  SAS                  D000000000292600000000000000000000100010010000000000000000000000F0010000006118700520140805000101 00000000000000000000000000000000000000000000000000000000000000000000000000000000000000000000000000000000000000000N 00000000000NCONT   00    00000000000          00000000000000000000000000000000000000000000 000000000000000A000000000000000000000000000000000000000000000 000000000000000000000000000000000000000     00000000                                                                                                                        000000000000000000
F0010000006118800001000080016664500013050500000000000000000201408050002001TELAPLAS PANCER SAS                               D000000026441300000000000000000000100010010000000000000000000000F0010000006118800120140805000101 00000000000000000000000000000000000000000000000000000000000000000000000000000000000000000000000000000000000000000N 00000000000NCONT   00    00000000000          00000000000000000000000000000000000000000000 000000000000000A000000000000000000000000000000000000000000000 000000000000000000000000000000000000000     00000000                                                                                                                        000000000000000000
F0010000006118800002000080016664500041450500000000000000000201408050002001TELAPLAS PANCER SAS                               C000000020440000000000000000000000100010010000000000000000000000F0010000006118800220140805000101 00000000000000000000000000000000000000000000000000000000000000000000000000000000000000000000000000000000000000000N 00000000000NCONT   00    00000000000          00000000000000000000000000000000000000000000 000000000000000A000000000000000000000000000000000000000000000 000000000000000000000000000000000000000     00000000                                                                                                                        000000000000000000
F0010000006118800003000080016664500042505000000000000000000201408050002001TELAPLAS PANCER SAS                               C000000006001300000000000000000000100010010000000000000000000000F0010000006118800320140805000101 00000000000000000000000000000000000000000000000000000000000000000000000000000000000000000000000000000000000000000N 00000000000NCONT   00    00000000000          00000000000000000000000000000000000000000000 000000000000000A000000000000000000000000000000000000000000000 000000000000000000000000000000000000000     00000000                                                                                                                        000000000000000000
F0010000006118800004000080016664500023658300000000000000000201408050002001TELAPLAS PANCER SAS                               C000000000163500000000000000000000100010010000000000000000000000F0010000006118800420140805000101 00000000000000000000000000000000000000000000000000000000000000000000000000000000000000000000000000000000000000000N 00000000000NCONT   00    00000000000          00000000000000000000000000000000000000000000 000000000000000A000000000000000000000000000000000000000000000 000000000000000000000000000000000000000     00000000                                                                                                                        000000000000000000
F0010000006118800005000080016664500013552100000000000000000201408050002001TELAPLAS PANCER SAS                               D000000000163500000000000000000000100010010000000000000000000000F0010000006118800520140805000101 00000000000000000000000000000000000000000000000000000000000000000000000000000000000000000000000000000000000000000N 00000000000NCONT   00    00000000000          00000000000000000000000000000000000000000000 000000000000000A000000000000000000000000000000000000000000000 000000000000000000000000000000000000000     00000000                                                                                                                        000000000000000000
F0010000006118900001000090064982900013050500000000000000000201408050002001DISDIES S.A.S                                     D000000016953200000000000000000000100010010000000000000000000000F0010000006118900120140805000101 00000000000000000000000000000000000000000000000000000000000000000000000000000000000000000000000000000000000000000N 00000000000NCONT   00    00000000000          00000000000000000000000000000000000000000000 000000000000000A000000000000000000000000000000000000000000000 000000000000000000000000000000000000000     00000000                                                                                                                        000000000000000000
F0010000006118900002000090064982900041450500000000000000000201408050002001DISDIES S.A.S                                     C000000015265500000000000000000000100010010000000000000000000000F0010000006118900220140805000101 00000000000000000000000000000000000000000000000000000000000000000000000000000000000000000000000000000000000000000N 00000000000NCONT   00    00000000000          00000000000000000000000000000000000000000000 000000000000000A000000000000000000000000000000000000000000000 000000000000000000000000000000000000000     00000000                                                                                                                        000000000000000000
F0010000006118900003000090064982900042505000000000000000000201408050002001DISDIES S.A.S                                     C000000001687700000000000000000000100010010000000000000000000000F0010000006118900320140805000101 00000000000000000000000000000000000000000000000000000000000000000000000000000000000000000000000000000000000000000N 00000000000NCONT   00    00000000000          00000000000000000000000000000000000000000000 000000000000000A000000000000000000000000000000000000000000000 000000000000000000000000000000000000000     00000000                                                                                                                        000000000000000000
F0010000006118900004000090064982900023658300000000000000000201408050002001DISDIES S.A.S                                     C000000000122100000000000000000000100010010000000000000000000000F0010000006118900420140805000101 00000000000000000000000000000000000000000000000000000000000000000000000000000000000000000000000000000000000000000N 00000000000NCONT   00    00000000000          00000000000000000000000000000000000000000000 000000000000000A000000000000000000000000000000000000000000000 000000000000000000000000000000000000000     00000000                                                                                                                        000000000000000000
F0010000006118900005000090064982900013552100000000000000000201408050002001DISDIES S.A.S                                     D000000000122100000000000000000000100010010000000000000000000000F0010000006118900520140805000101 00000000000000000000000000000000000000000000000000000000000000000000000000000000000000000000000000000000000000000N 00000000000NCONT   00    00000000000          00000000000000000000000000000000000000000000 000000000000000A000000000000000000000000000000000000000000000 000000000000000000000000000000000000000     00000000                                                                                                                        000000000000000000
F0010000006119000001000000748239700013050500000000000000000201408050002001RAFAEL NAVARRO URIBE                              D000000010453200000000000000000000100010010000000000000000000000F0010000006119000120140805000101 00000000000000000000000000000000000000000000000000000000000000000000000000000000000000000000000000000000000000000N 00000000000NCONT   00    00000000000          00000000000000000000000000000000000000000000 000000000000000A000000000000000000000000000000000000000000000 000000000000000000000000000000000000000     00000000                                                                                                                        000000000000000000
F0010000006119000002000000748239700041450500000000000000000201408050002001RAFAEL NAVARRO URIBE                              C000000007020000000000000000000000100010010000000000000000000000F0010000006119000220140805000101 00000000000000000000000000000000000000000000000000000000000000000000000000000000000000000000000000000000000000000N 00000000000NCONT   00    00000000000          00000000000000000000000000000000000000000000 000000000000000A000000000000000000000000000000000000000000000 000000000000000000000000000000000000000     00000000                                                                                                                        000000000000000000
F0010000006119000003000000748239700042505000000000000000000201408050002001RAFAEL NAVARRO URIBE                              C000000003433200000000000000000000100010010000000000000000000000F0010000006119000320140805000101 00000000000000000000000000000000000000000000000000000000000000000000000000000000000000000000000000000000000000000N 00000000000NCONT   00    00000000000          00000000000000000000000000000000000000000000 000000000000000A000000000000000000000000000000000000000000000 000000000000000000000000000000000000000     00000000                                                                                                                        000000000000000000
F0010000006119000004000000748239700023658300000000000000000201408050002001RAFAEL NAVARRO URIBE                              C000000000056200000000000000000000100010010000000000000000000000F0010000006119000420140805000101 00000000000000000000000000000000000000000000000000000000000000000000000000000000000000000000000000000000000000000N 00000000000NCONT   00    00000000000          00000000000000000000000000000000000000000000 000000000000000A000000000000000000000000000000000000000000000 000000000000000000000000000000000000000     00000000                                                                                                                        000000000000000000
F0010000006119000005000000748239700013552100000000000000000201408050002001RAFAEL NAVARRO URIBE                              D000000000056200000000000000000000100010010000000000000000000000F0010000006119000520140805000101 00000000000000000000000000000000000000000000000000000000000000000000000000000000000000000000000000000000000000000N 00000000000NCONT   00    00000000000          00000000000000000000000000000000000000000000 000000000000000A000000000000000000000000000000000000000000000 000000000000000000000000000000000000000     00000000                                                                                                                        000000000000000000
F0010000006119100001000086000490200013050500000000000000000201408050002001PROV. DE PAPELES ANDINA S.A.                      D000000007658200000000000000000000100010010000000000000000000000F0010000006119100120140805000101 00000000000000000000000000000000000000000000000000000000000000000000000000000000000000000000000000000000000000000N 00000000000NCONT   00    00000000000          00000000000000000000000000000000000000000000 000000000000000A000000000000000000000000000000000000000000000 000000000000000000000000000000000000000     00000000                                                                                                                        000000000000000000
F0010000006119100002000086000490200041450500000000000000000201408050002001PROV. DE PAPELES ANDINA S.A.                      C000000007283000000000000000000000100010010000000000000000000000F0010000006119100220140805000101 00000000000000000000000000000000000000000000000000000000000000000000000000000000000000000000000000000000000000000N 00000000000NCONT   00    00000000000          00000000000000000000000000000000000000000000 000000000000000A000000000000000000000000000000000000000000000 000000000000000000000000000000000000000     00000000                                                                                                                        000000000000000000
F0010000006119100003000086000490200042505000000000000000000201408050002001PROV. DE PAPELES ANDINA S.A.                      C000000000375200000000000000000000100010010000000000000000000000F0010000006119100320140805000101 00000000000000000000000000000000000000000000000000000000000000000000000000000000000000000000000000000000000000000N 00000000000NCONT   00    00000000000          00000000000000000000000000000000000000000000 000000000000000A000000000000000000000000000000000000000000000 000000000000000000000000000000000000000     00000000                                                                                                                        000000000000000000
F0010000006119100004000086000490200023658300000000000000000201408050002001PROV. DE PAPELES ANDINA S.A.                      C000000000058300000000000000000000100010010000000000000000000000F0010000006119100420140805000101 00000000000000000000000000000000000000000000000000000000000000000000000000000000000000000000000000000000000000000N 00000000000NCONT   00    00000000000          00000000000000000000000000000000000000000000 000000000000000A000000000000000000000000000000000000000000000 000000000000000000000000000000000000000     00000000                                                                                                                        000000000000000000
F0010000006119100005000086000490200013552100000000000000000201408050002001PROV. DE PAPELES ANDINA S.A.                      D000000000058300000000000000000000100010010000000000000000000000F0010000006119100520140805000101 00000000000000000000000000000000000000000000000000000000000000000000000000000000000000000000000000000000000000000N 00000000000NCONT   00    00000000000          00000000000000000000000000000000000000000000 000000000000000A000000000000000000000000000000000000000000000 000000000000000000000000000000000000000     00000000                                                                                                                        000000000000000000
F0010000006119200001000090009800500013050500000000000000000201408050002001GLORIANT CHEMICAL DE COLOMBIA LTDA                D000000029375000000000000000000000100010010000000000000000000000F0010000006119200120140805000101 00000000000000000000000000000000000000000000000000000000000000000000000000000000000000000000000000000000000000000N 00000000000NCONT   00    00000000000          00000000000000000000000000000000000000000000 000000000000000A000000000000000000000000000000000000000000000 000000000000000000000000000000000000000     00000000                                                                                                                        000000000000000000
F0010000006119200002000090009800500041450500000000000000000201408050002001GLORIANT CHEMICAL DE COLOMBIA LTDA                C000000025690000000000000000000000100010010000000000000000000000F0010000006119200220140805000101 00000000000000000000000000000000000000000000000000000000000000000000000000000000000000000000000000000000000000000N 00000000000NCONT   00    00000000000          00000000000000000000000000000000000000000000 000000000000000A000000000000000000000000000000000000000000000 000000000000000000000000000000000000000     00000000                                                                                                                        000000000000000000
F0010000006119200003000090009800500042505000000000000000000201408050002001GLORIANT CHEMICAL DE COLOMBIA LTDA                C000000003685000000000000000000000100010010000000000000000000000F0010000006119200320140805000101 00000000000000000000000000000000000000000000000000000000000000000000000000000000000000000000000000000000000000000N 00000000000NCONT   00    00000000000          00000000000000000000000000000000000000000000 000000000000000A000000000000000000000000000000000000000000000 000000000000000000000000000000000000000     00000000                                                                                                                        000000000000000000
F0010000006119200004000090009800500023658300000000000000000201408050002001GLORIANT CHEMICAL DE COLOMBIA LTDA                C000000000205500000000000000000000100010010000000000000000000000F0010000006119200420140805000101 00000000000000000000000000000000000000000000000000000000000000000000000000000000000000000000000000000000000000000N 00000000000NCONT   00    00000000000          00000000000000000000000000000000000000000000 000000000000000A000000000000000000000000000000000000000000000 000000000000000000000000000000000000000     00000000                                                                                                                        000000000000000000
F0010000006119200005000090009800500013552100000000000000000201408050002001GLORIANT CHEMICAL DE COLOMBIA LTDA                D000000000205500000000000000000000100010010000000000000000000000F0010000006119200520140805000101 00000000000000000000000000000000000000000000000000000000000000000000000000000000000000000000000000000000000000000N 00000000000NCONT   00    00000000000          00000000000000000000000000000000000000000000 000000000000000A000000000000000000000000000000000000000000000 000000000000000000000000000000000000000     00000000                                                                                                                        000000000000000000
F0010000006119300001000090008711200013050500000000000000000201408050002001PACKAGING SUPPLIERS S.A.                          D000000051890000000000000000000000100010010000000000000000000000F0010000006119300120140805000101 00000000000000000000000000000000000000000000000000000000000000000000000000000000000000000000000000000000000000000N 00000000000NCONT   00    00000000000          00000000000000000000000000000000000000000000 000000000000000A000000000000000000000000000000000000000000000 000000000000000000000000000000000000000     00000000                                                                                                                        000000000000000000
F0010000006119300002000090008711200041450500000000000000000201408050002001PACKAGING SUPPLIERS S.A.                          C000000049250000000000000000000000100010010000000000000000000000F0010000006119300220140805000101 00000000000000000000000000000000000000000000000000000000000000000000000000000000000000000000000000000000000000000N 00000000000NCONT   00    00000000000          00000000000000000000000000000000000000000000 000000000000000A000000000000000000000000000000000000000000000 000000000000000000000000000000000000000     00000000                                                                                                                        000000000000000000
F0010000006119300003000090008711200042505000000000000000000201408050002001PACKAGING SUPPLIERS S.A.                          C000000002640000000000000000000000100010010000000000000000000000F0010000006119300320140805000101 00000000000000000000000000000000000000000000000000000000000000000000000000000000000000000000000000000000000000000N 00000000000NCONT   00    00000000000          00000000000000000000000000000000000000000000 000000000000000A000000000000000000000000000000000000000000000 000000000000000000000000000000000000000     00000000                                                                                                                        000000000000000000
F0010000006119300004000090008711200023658300000000000000000201408050002001PACKAGING SUPPLIERS S.A.                          C000000000394000000000000000000000100010010000000000000000000000F0010000006119300420140805000101 00000000000000000000000000000000000000000000000000000000000000000000000000000000000000000000000000000000000000000N 00000000000NCONT   00    00000000000          00000000000000000000000000000000000000000000 000000000000000A000000000000000000000000000000000000000000000 000000000000000000000000000000000000000     00000000                                                                                                                        000000000000000000
F0010000006119300005000090008711200013552100000000000000000201408050002001PACKAGING SUPPLIERS S.A.                          D000000000394000000000000000000000100010010000000000000000000000F0010000006119300520140805000101 00000000000000000000000000000000000000000000000000000000000000000000000000000000000000000000000000000000000000000N 00000000000NCONT   00    00000000000          00000000000000000000000000000000000000000000 000000000000000A000000000000000000000000000000000000000000000 000000000000000000000000000000000000000     00000000                                                                                                                        000000000000000000
F0010000006119400001000000808409100011050500000000000000000201408050002001JOSE LUIS TRILLOS BAYONA                          D000000002100000000000000000000000100010010000000000000000000000F0010000006119400120140805000101 00000000000000000000000000000000000000000000000000000000000000000000000000000000000000000000000000000000000000000N 00000000000NCONT   00    00000000000          00000000000000000000000000000000000000000000 000000000000000A000000000000000000000000000000000000000000000 000000000000000000000000000000000000000     00000000                                                                                                                        000000000000000000
F0010000006119400002000000808409100041450500000000000000000201408050002001JOSE LUIS TRILLOS BAYONA                          C000000001850000000000000000000000100010010000000000000000000000F0010000006119400220140805000101 00000000000000000000000000000000000000000000000000000000000000000000000000000000000000000000000000000000000000000N 00000000000NCONT   00    00000000000          00000000000000000000000000000000000000000000 000000000000000A000000000000000000000000000000000000000000000 000000000000000000000000000000000000000     00000000                                                                                                                        000000000000000000
F0010000006119400003000000808409100042505000000000000000000201408050002001JOSE LUIS TRILLOS BAYONA                          C000000000250000000000000000000000100010010000000000000000000000F0010000006119400320140805000101 00000000000000000000000000000000000000000000000000000000000000000000000000000000000000000000000000000000000000000N 00000000000NCONT   00    00000000000          00000000000000000000000000000000000000000000 000000000000000A000000000000000000000000000000000000000000000 000000000000000000000000000000000000000     00000000                                                                                                                        000000000000000000
F0010000006119400004000000808409100023658300000000000000000201408050002001JOSE LUIS TRILLOS BAYONA                          C000000000014800000000000000000000100010010000000000000000000000F0010000006119400420140805000101 00000000000000000000000000000000000000000000000000000000000000000000000000000000000000000000000000000000000000000N 00000000000NCONT   00    00000000000          00000000000000000000000000000000000000000000 000000000000000A000000000000000000000000000000000000000000000 000000000000000000000000000000000000000     00000000                                                                                                                        000000000000000000
F0010000006119400005000000808409100013552100000000000000000201408050002001JOSE LUIS TRILLOS BAYONA                          D000000000014800000000000000000000100010010000000000000000000000F0010000006119400520140805000101 00000000000000000000000000000000000000000000000000000000000000000000000000000000000000000000000000000000000000000N 00000000000NCONT   00    00000000000          00000000000000000000000000000000000000000000 000000000000000A000000000000000000000000000000000000000000000 000000000000000000000000000000000000000     00000000                                                                                                                        000000000000000000
F0010000006119500001000000871745700011050500000000000000000201408050002001CONFECCIONES ORO SPORT 33                         D000000001500000000000000000000000100010010000000000000000000000F0010000006119500120140805000101 00000000000000000000000000000000000000000000000000000000000000000000000000000000000000000000000000000000000000000N 00000000000NCONT   00    00000000000          00000000000000000000000000000000000000000000 000000000000000A000000000000000000000000000000000000000000000 000000000000000000000000000000000000000     00000000                                                                                                                        000000000000000000
F0010000006119500002000000871745700041450500000000000000000201408050002001CONFECCIONES ORO SPORT 33                         C000000001000000000000000000000000100010010000000000000000000000F0010000006119500220140805000101 00000000000000000000000000000000000000000000000000000000000000000000000000000000000000000000000000000000000000000N 00000000000NCONT   00    00000000000          00000000000000000000000000000000000000000000 000000000000000A000000000000000000000000000000000000000000000 000000000000000000000000000000000000000     00000000                                                                                                                        000000000000000000
F0010000006119500003000000871745700042505000000000000000000201408050002001CONFECCIONES ORO SPORT 33                         C000000000500000000000000000000000100010010000000000000000000000F0010000006119500320140805000101 00000000000000000000000000000000000000000000000000000000000000000000000000000000000000000000000000000000000000000N 00000000000NCONT   00    00000000000          00000000000000000000000000000000000000000000 000000000000000A000000000000000000000000000000000000000000000 000000000000000000000000000000000000000     00000000                                                                                                                        000000000000000000
F0010000006119500004000000871745700023658300000000000000000201408050002001CONFECCIONES ORO SPORT 33                         C000000000008000000000000000000000100010010000000000000000000000F0010000006119500420140805000101 00000000000000000000000000000000000000000000000000000000000000000000000000000000000000000000000000000000000000000N 00000000000NCONT   00    00000000000          00000000000000000000000000000000000000000000 000000000000000A000000000000000000000000000000000000000000000 000000000000000000000000000000000000000     00000000                                                                                                                        000000000000000000
F0010000006119500005000000871745700013552100000000000000000201408050002001CONFECCIONES ORO SPORT 33                         D000000000008000000000000000000000100010010000000000000000000000F0010000006119500520140805000101 00000000000000000000000000000000000000000000000000000000000000000000000000000000000000000000000000000000000000000N 00000000000NCONT   00    00000000000          00000000000000000000000000000000000000000000 000000000000000A000000000000000000000000000000000000000000000 000000000000000000000000000000000000000     00000000                                                                                                                        000000000000000000
F0010000006119600001000003314755400011050500000000000000000201408050002001DISTRIBUCIONES RUMA                               D000000001400000000000000000000000100010010000000000000000000000F0010000006119600120140805000101 00000000000000000000000000000000000000000000000000000000000000000000000000000000000000000000000000000000000000000N 00000000000NCONT   00    00000000000          00000000000000000000000000000000000000000000 000000000000000A000000000000000000000000000000000000000000000 000000000000000000000000000000000000000     00000000                                                                                                                        000000000000000000
F0010000006119600002000003314755400041450500000000000000000201408050002001DISTRIBUCIONES RUMA                               C000000001200000000000000000000000100010010000000000000000000000F0010000006119600220140805000101 00000000000000000000000000000000000000000000000000000000000000000000000000000000000000000000000000000000000000000N 00000000000NCONT   00    00000000000          00000000000000000000000000000000000000000000 000000000000000A000000000000000000000000000000000000000000000 000000000000000000000000000000000000000     00000000                                                                                                                        000000000000000000
F0010000006119600003000003314755400042505000000000000000000201408050002001DISTRIBUCIONES RUMA                               C000000000200000000000000000000000100010010000000000000000000000F0010000006119600320140805000101 00000000000000000000000000000000000000000000000000000000000000000000000000000000000000000000000000000000000000000N 00000000000NCONT   00    00000000000          00000000000000000000000000000000000000000000 000000000000000A000000000000000000000000000000000000000000000 000000000000000000000000000000000000000     00000000                                                                                                                        000000000000000000
F0010000006119600004000003314755400023658300000000000000000201408050002001DISTRIBUCIONES RUMA                               C000000000009600000000000000000000100010010000000000000000000000F0010000006119600420140805000101 00000000000000000000000000000000000000000000000000000000000000000000000000000000000000000000000000000000000000000N 00000000000NCONT   00    00000000000          00000000000000000000000000000000000000000000 000000000000000A000000000000000000000000000000000000000000000 000000000000000000000000000000000000000     00000000                                                                                                                        000000000000000000
F0010000006119600005000003314755400013552100000000000000000201408050002001DISTRIBUCIONES RUMA                               D000000000009600000000000000000000100010010000000000000000000000F0010000006119600520140805000101 00000000000000000000000000000000000000000000000000000000000000000000000000000000000000000000000000000000000000000N 00000000000NCONT   00    00000000000          00000000000000000000000000000000000000000000 000000000000000A000000000000000000000000000000000000000000000 000000000000000000000000000000000000000     00000000                                                                                                                        000000000000000000
F0010000006119700001000090034602400011050500000000000000000201408050002001LA CUSTODIA                                       D000000002000000000000000000000000100010010000000000000000000000F0010000006119700120140805000101 00000000000000000000000000000000000000000000000000000000000000000000000000000000000000000000000000000000000000000N 00000000000NCONT   00    00000000000          00000000000000000000000000000000000000000000 000000000000000A000000000000000000000000000000000000000000000 000000000000000000000000000000000000000     00000000                                                                                                                        000000000000000000
F0010000006119700002000090034602400041450500000000000000000201408050002001LA CUSTODIA                                       C000000001800000000000000000000000100010010000000000000000000000F0010000006119700220140805000101 00000000000000000000000000000000000000000000000000000000000000000000000000000000000000000000000000000000000000000N 00000000000NCONT   00    00000000000          00000000000000000000000000000000000000000000 000000000000000A000000000000000000000000000000000000000000000 000000000000000000000000000000000000000     00000000                                                                                                                        000000000000000000
F0010000006119700003000090034602400042505000000000000000000201408050002001LA CUSTODIA                                       C000000000200000000000000000000000100010010000000000000000000000F0010000006119700320140805000101 00000000000000000000000000000000000000000000000000000000000000000000000000000000000000000000000000000000000000000N 00000000000NCONT   00    00000000000          00000000000000000000000000000000000000000000 000000000000000A000000000000000000000000000000000000000000000 000000000000000000000000000000000000000     00000000                                                                                                                        000000000000000000
F0010000006119700004000090034602400023658300000000000000000201408050002001LA CUSTODIA                                       C000000000014400000000000000000000100010010000000000000000000000F0010000006119700420140805000101 00000000000000000000000000000000000000000000000000000000000000000000000000000000000000000000000000000000000000000N 00000000000NCONT   00    00000000000          00000000000000000000000000000000000000000000 000000000000000A000000000000000000000000000000000000000000000 000000000000000000000000000000000000000     00000000                                                                                                                        000000000000000000
F0010000006119700005000090034602400013552100000000000000000201408050002001LA CUSTODIA                                       D000000000014400000000000000000000100010010000000000000000000000F0010000006119700520140805000101 00000000000000000000000000000000000000000000000000000000000000000000000000000000000000000000000000000000000000000N 00000000000NCONT   00    00000000000          00000000000000000000000000000000000000000000 000000000000000A000000000000000000000000000000000000000000000 000000000000000000000000000000000000000     00000000                                                                                                                        000000000000000000
F0010000006119800001000090034602400011050500000000000000000201408050002001LA CUSTODIA                                       D000000001000000000000000000000000100010010000000000000000000000F0010000006119800120140805000101 00000000000000000000000000000000000000000000000000000000000000000000000000000000000000000000000000000000000000000N 00000000000NCONT   00    00000000000          00000000000000000000000000000000000000000000 000000000000000A000000000000000000000000000000000000000000000 000000000000000000000000000000000000000     00000000                                                                                                                        000000000000000000
F0010000006119800002000090034602400041450500000000000000000201408050002001LA CUSTODIA                                       C000000000900000000000000000000000100010010000000000000000000000F0010000006119800220140805000101 00000000000000000000000000000000000000000000000000000000000000000000000000000000000000000000000000000000000000000N 00000000000NCONT   00    00000000000          00000000000000000000000000000000000000000000 000000000000000A000000000000000000000000000000000000000000000 000000000000000000000000000000000000000     00000000                                                                                                                        000000000000000000
F0010000006119800003000090034602400042505000000000000000000201408050002001LA CUSTODIA                                       C000000000100000000000000000000000100010010000000000000000000000F0010000006119800320140805000101 00000000000000000000000000000000000000000000000000000000000000000000000000000000000000000000000000000000000000000N 00000000000NCONT   00    00000000000          00000000000000000000000000000000000000000000 000000000000000A000000000000000000000000000000000000000000000 000000000000000000000000000000000000000     00000000                                                                                                                        000000000000000000
F0010000006119800004000090034602400023658300000000000000000201408050002001LA CUSTODIA                                       C000000000007200000000000000000000100010010000000000000000000000F0010000006119800420140805000101 00000000000000000000000000000000000000000000000000000000000000000000000000000000000000000000000000000000000000000N 00000000000NCONT   00    00000000000          00000000000000000000000000000000000000000000 000000000000000A000000000000000000000000000000000000000000000 000000000000000000000000000000000000000     00000000                                                                                                                        000000000000000000
F0010000006119800005000090034602400013552100000000000000000201408050002001LA CUSTODIA                                       D000000000007200000000000000000000100010010000000000000000000000F0010000006119800520140805000101 00000000000000000000000000000000000000000000000000000000000000000000000000000000000000000000000000000000000000000N 00000000000NCONT   00    00000000000          00000000000000000000000000000000000000000000 000000000000000A000000000000000000000000000000000000000000000 000000000000000000000000000000000000000     00000000                                                                                                                        000000000000000000
F0010000006119900001000090050144800011050500000000000000000201408050002001PLASTICOS JR ASOCIADOS SAS                        D000000001000000000000000000000000100010010000000000000000000000F0010000006119900120140805000101 00000000000000000000000000000000000000000000000000000000000000000000000000000000000000000000000000000000000000000N 00000000000NCONT   00    00000000000          00000000000000000000000000000000000000000000 000000000000000A000000000000000000000000000000000000000000000 000000000000000000000000000000000000000     00000000                                                                                                                        000000000000000000
F0010000006119900002000090050144800041450500000000000000000201408050002001PLASTICOS JR ASOCIADOS SAS                        C000000000850000000000000000000000100010010000000000000000000000F0010000006119900220140805000101 00000000000000000000000000000000000000000000000000000000000000000000000000000000000000000000000000000000000000000N 00000000000NCONT   00    00000000000          00000000000000000000000000000000000000000000 000000000000000A000000000000000000000000000000000000000000000 000000000000000000000000000000000000000     00000000                                                                                                                        000000000000000000
F0010000006119900003000090050144800042505000000000000000000201408050002001PLASTICOS JR ASOCIADOS SAS                        C000000000150000000000000000000000100010010000000000000000000000F0010000006119900320140805000101 00000000000000000000000000000000000000000000000000000000000000000000000000000000000000000000000000000000000000000N 00000000000NCONT   00    00000000000          00000000000000000000000000000000000000000000 000000000000000A000000000000000000000000000000000000000000000 000000000000000000000000000000000000000     00000000                                                                                                                        000000000000000000
F0010000006119900004000090050144800023658300000000000000000201408050002001PLASTICOS JR ASOCIADOS SAS                        C000000000006800000000000000000000100010010000000000000000000000F0010000006119900420140805000101 00000000000000000000000000000000000000000000000000000000000000000000000000000000000000000000000000000000000000000N 00000000000NCONT   00    00000000000          00000000000000000000000000000000000000000000 000000000000000A000000000000000000000000000000000000000000000 000000000000000000000000000000000000000     00000000                                                                                                                        000000000000000000
F0010000006119900005000090050144800013552100000000000000000201408050002001PLASTICOS JR ASOCIADOS SAS                        D000000000006800000000000000000000100010010000000000000000000000F0010000006119900520140805000101 00000000000000000000000000000000000000000000000000000000000000000000000000000000000000000000000000000000000000000N 00000000000NCONT   00    00000000000          00000000000000000000000000000000000000000000 000000000000000A000000000000000000000000000000000000000000000 000000000000000000000000000000000000000     00000000                                                                                                                        000000000000000000
F0010000006120000001000000431178400011050500000000000000000201408050002001EFRAIN ALVAREZ                                    D000000000900000000000000000000000100010010000000000000000000000F0010000006120000120140805000101 00000000000000000000000000000000000000000000000000000000000000000000000000000000000000000000000000000000000000000N 00000000000NCONT   00    00000000000          00000000000000000000000000000000000000000000 000000000000000A000000000000000000000000000000000000000000000 000000000000000000000000000000000000000     00000000                                                                                                                        000000000000000000
F0010000006120000002000000431178400041450500000000000000000201408050002001EFRAIN ALVAREZ                                    C000000000850000000000000000000000100010010000000000000000000000F0010000006120000220140805000101 00000000000000000000000000000000000000000000000000000000000000000000000000000000000000000000000000000000000000000N 00000000000NCONT   00    00000000000          00000000000000000000000000000000000000000000 000000000000000A000000000000000000000000000000000000000000000 000000000000000000000000000000000000000     00000000                                                                                                                        000000000000000000
F0010000006120000003000000431178400042505000000000000000000201408050002001EFRAIN ALVAREZ                                    C000000000050000000000000000000000100010010000000000000000000000F0010000006120000320140805000101 00000000000000000000000000000000000000000000000000000000000000000000000000000000000000000000000000000000000000000N 00000000000NCONT   00    00000000000          00000000000000000000000000000000000000000000 000000000000000A000000000000000000000000000000000000000000000 000000000000000000000000000000000000000     00000000                                                                                                                        000000000000000000
F0010000006120000004000000431178400023658300000000000000000201408050002001EFRAIN ALVAREZ                                    C000000000006800000000000000000000100010010000000000000000000000F0010000006120000420140805000101 00000000000000000000000000000000000000000000000000000000000000000000000000000000000000000000000000000000000000000N 00000000000NCONT   00    00000000000          00000000000000000000000000000000000000000000 000000000000000A000000000000000000000000000000000000000000000 000000000000000000000000000000000000000     00000000                                                                                                                        000000000000000000
F0010000006120000005000000431178400013552100000000000000000201408050002001EFRAIN ALVAREZ                                    D000000000006800000000000000000000100010010000000000000000000000F0010000006120000520140805000101 00000000000000000000000000000000000000000000000000000000000000000000000000000000000000000000000000000000000000000N 00000000000NCONT   00    00000000000          00000000000000000000000000000000000000000000 000000000000000A000000000000000000000000000000000000000000000 000000000000000000000000000000000000000     00000000                                                                                                                        000000000000000000
F0010000006120100001000000431178400011050500000000000000000201408050002001EFRAIN ALVAREZ                                    D000000003700000000000000000000000100010010000000000000000000000F0010000006120100120140805000101 00000000000000000000000000000000000000000000000000000000000000000000000000000000000000000000000000000000000000000N 00000000000NCONT   00    00000000000          00000000000000000000000000000000000000000000 000000000000000A000000000000000000000000000000000000000000000 000000000000000000000000000000000000000     00000000                                                                                                                        000000000000000000
F0010000006120100002000000431178400041450500000000000000000201408050002001EFRAIN ALVAREZ                                    C000000003400000000000000000000000100010010000000000000000000000F0010000006120100220140805000101 00000000000000000000000000000000000000000000000000000000000000000000000000000000000000000000000000000000000000000N 00000000000NCONT   00    00000000000          00000000000000000000000000000000000000000000 000000000000000A000000000000000000000000000000000000000000000 000000000000000000000000000000000000000     00000000                                                                                                                        000000000000000000
F0010000006120100003000000431178400042505000000000000000000201408050002001EFRAIN ALVAREZ                                    C000000000300000000000000000000000100010010000000000000000000000F0010000006120100320140805000101 00000000000000000000000000000000000000000000000000000000000000000000000000000000000000000000000000000000000000000N 00000000000NCONT   00    00000000000          00000000000000000000000000000000000000000000 000000000000000A000000000000000000000000000000000000000000000 000000000000000000000000000000000000000     00000000                                                                                                                        000000000000000000
F0010000006120100004000000431178400023658300000000000000000201408050002001EFRAIN ALVAREZ                                    C000000000027200000000000000000000100010010000000000000000000000F0010000006120100420140805000101 00000000000000000000000000000000000000000000000000000000000000000000000000000000000000000000000000000000000000000N 00000000000NCONT   00    00000000000          00000000000000000000000000000000000000000000 000000000000000A000000000000000000000000000000000000000000000 000000000000000000000000000000000000000     00000000                                                                                                                        000000000000000000
F0010000006120100005000000431178400013552100000000000000000201408050002001EFRAIN ALVAREZ                                    D000000000027200000000000000000000100010010000000000000000000000F0010000006120100520140805000101 00000000000000000000000000000000000000000000000000000000000000000000000000000000000000000000000000000000000000000N 00000000000NCONT   00    00000000000          00000000000000000000000000000000000000000000 000000000000000A000000000000000000000000000000000000000000000 000000000000000000000000000000000000000     00000000                                                                                                                        000000000000000000
F0010000006120200001000000431178400011050500000000000000000201408050002001EFRAIN ALVAREZ                                    D000000000900000000000000000000000100010010000000000000000000000F0010000006120200120140805000101 00000000000000000000000000000000000000000000000000000000000000000000000000000000000000000000000000000000000000000N 00000000000NCONT   00    00000000000          00000000000000000000000000000000000000000000 000000000000000A000000000000000000000000000000000000000000000 000000000000000000000000000000000000000     00000000                                                                                                                        000000000000000000
F0010000006120200002000000431178400041450500000000000000000201408050002001EFRAIN ALVAREZ                                    C000000000850000000000000000000000100010010000000000000000000000F0010000006120200220140805000101 00000000000000000000000000000000000000000000000000000000000000000000000000000000000000000000000000000000000000000N 00000000000NCONT   00    00000000000          00000000000000000000000000000000000000000000 000000000000000A000000000000000000000000000000000000000000000 000000000000000000000000000000000000000     00000000                                                                                                                        000000000000000000
F0010000006120200003000000431178400042505000000000000000000201408050002001EFRAIN ALVAREZ                                    C000000000050000000000000000000000100010010000000000000000000000F0010000006120200320140805000101 00000000000000000000000000000000000000000000000000000000000000000000000000000000000000000000000000000000000000000N 00000000000NCONT   00    00000000000          00000000000000000000000000000000000000000000 000000000000000A000000000000000000000000000000000000000000000 000000000000000000000000000000000000000     00000000                                                                                                                        000000000000000000
F0010000006120200004000000431178400023658300000000000000000201408050002001EFRAIN ALVAREZ                                    C000000000006800000000000000000000100010010000000000000000000000F0010000006120200420140805000101 00000000000000000000000000000000000000000000000000000000000000000000000000000000000000000000000000000000000000000N 00000000000NCONT   00    00000000000          00000000000000000000000000000000000000000000 000000000000000A000000000000000000000000000000000000000000000 000000000000000000000000000000000000000     00000000                                                                                                                        000000000000000000
F0010000006120200005000000431178400013552100000000000000000201408050002001EFRAIN ALVAREZ                                    D000000000006800000000000000000000100010010000000000000000000000F0010000006120200520140805000101 00000000000000000000000000000000000000000000000000000000000000000000000000000000000000000000000000000000000000000N 00000000000NCONT   00    00000000000          00000000000000000000000000000000000000000000 000000000000000A000000000000000000000000000000000000000000000 000000000000000000000000000000000000000     00000000                                                                                                                        000000000000000000
F0010000006120300001000000431178400011050500000000000000000201408050002001EFRAIN ALVAREZ                                    D000000001200000000000000000000000100010010000000000000000000000F0010000006120300120140805000101 00000000000000000000000000000000000000000000000000000000000000000000000000000000000000000000000000000000000000000N 00000000000NCONT   00    00000000000          00000000000000000000000000000000000000000000 000000000000000A000000000000000000000000000000000000000000000 000000000000000000000000000000000000000     00000000                                                                                                                        000000000000000000
F0010000006120300002000000431178400041450500000000000000000201408050002001EFRAIN ALVAREZ                                    C000000001150000000000000000000000100010010000000000000000000000F0010000006120300220140805000101 00000000000000000000000000000000000000000000000000000000000000000000000000000000000000000000000000000000000000000N 00000000000NCONT   00    00000000000          00000000000000000000000000000000000000000000 000000000000000A000000000000000000000000000000000000000000000 000000000000000000000000000000000000000     00000000                                                                                                                        000000000000000000
F0010000006120300003000000431178400042505000000000000000000201408050002001EFRAIN ALVAREZ                                    C000000000050000000000000000000000100010010000000000000000000000F0010000006120300320140805000101 00000000000000000000000000000000000000000000000000000000000000000000000000000000000000000000000000000000000000000N 00000000000NCONT   00    00000000000          00000000000000000000000000000000000000000000 000000000000000A000000000000000000000000000000000000000000000 000000000000000000000000000000000000000     00000000                                                                                                                        000000000000000000
F0010000006120300004000000431178400023658300000000000000000201408050002001EFRAIN ALVAREZ                                    C000000000009200000000000000000000100010010000000000000000000000F0010000006120300420140805000101 00000000000000000000000000000000000000000000000000000000000000000000000000000000000000000000000000000000000000000N 00000000000NCONT   00    00000000000          00000000000000000000000000000000000000000000 000000000000000A000000000000000000000000000000000000000000000 000000000000000000000000000000000000000     00000000                                                                                                                        000000000000000000
F0010000006120300005000000431178400013552100000000000000000201408050002001EFRAIN ALVAREZ                                    D000000000009200000000000000000000100010010000000000000000000000F0010000006120300520140805000101 00000000000000000000000000000000000000000000000000000000000000000000000000000000000000000000000000000000000000000N 00000000000NCONT   00    00000000000          00000000000000000000000000000000000000000000 000000000000000A000000000000000000000000000000000000000000000 000000000000000000000000000000000000000     00000000                                                                                                                        000000000000000000
F0010000006120400001000000431178400011050500000000000000000201408050002001EFRAIN ALVAREZ                                    D000000002450000000000000000000000100010010000000000000000000000F0010000006120400120140805000101 00000000000000000000000000000000000000000000000000000000000000000000000000000000000000000000000000000000000000000N 00000000000NCONT   00    00000000000          00000000000000000000000000000000000000000000 000000000000000A000000000000000000000000000000000000000000000 000000000000000000000000000000000000000     00000000                                                                                                                        000000000000000000
F0010000006120400002000000431178400041450500000000000000000201408050002001EFRAIN ALVAREZ                                    C000000002300000000000000000000000100010010000000000000000000000F0010000006120400220140805000101 00000000000000000000000000000000000000000000000000000000000000000000000000000000000000000000000000000000000000000N 00000000000NCONT   00    00000000000          00000000000000000000000000000000000000000000 000000000000000A000000000000000000000000000000000000000000000 000000000000000000000000000000000000000     00000000                                                                                                                        000000000000000000
F0010000006120400003000000431178400042505000000000000000000201408050002001EFRAIN ALVAREZ                                    C000000000150000000000000000000000100010010000000000000000000000F0010000006120400320140805000101 00000000000000000000000000000000000000000000000000000000000000000000000000000000000000000000000000000000000000000N 00000000000NCONT   00    00000000000          00000000000000000000000000000000000000000000 000000000000000A000000000000000000000000000000000000000000000 000000000000000000000000000000000000000     00000000                                                                                                                        000000000000000000
F0010000006120400004000000431178400023658300000000000000000201408050002001EFRAIN ALVAREZ                                    C000000000018400000000000000000000100010010000000000000000000000F0010000006120400420140805000101 00000000000000000000000000000000000000000000000000000000000000000000000000000000000000000000000000000000000000000N 00000000000NCONT   00    00000000000          00000000000000000000000000000000000000000000 000000000000000A000000000000000000000000000000000000000000000 000000000000000000000000000000000000000     00000000                                                                                                                        000000000000000000
F0010000006120400005000000431178400013552100000000000000000201408050002001EFRAIN ALVAREZ                                    D000000000018400000000000000000000100010010000000000000000000000F0010000006120400520140805000101 00000000000000000000000000000000000000000000000000000000000000000000000000000000000000000000000000000000000000000N 00000000000NCONT   00    00000000000          00000000000000000000000000000000000000000000 000000000000000A000000000000000000000000000000000000000000000 000000000000000000000000000000000000000     00000000                                                                                                                        000000000000000000
F0010000006120500001000000431178400011050500000000000000000201408050002001EFRAIN ALVAREZ                                    D000000000900000000000000000000000100010010000000000000000000000F0010000006120500120140805000101 00000000000000000000000000000000000000000000000000000000000000000000000000000000000000000000000000000000000000000N 00000000000NCONT   00    00000000000          00000000000000000000000000000000000000000000 000000000000000A000000000000000000000000000000000000000000000 000000000000000000000000000000000000000     00000000                                                                                                                        000000000000000000
F0010000006120500002000000431178400041450500000000000000000201408050002001EFRAIN ALVAREZ                                    C000000000850000000000000000000000100010010000000000000000000000F0010000006120500220140805000101 00000000000000000000000000000000000000000000000000000000000000000000000000000000000000000000000000000000000000000N 00000000000NCONT   00    00000000000          00000000000000000000000000000000000000000000 000000000000000A000000000000000000000000000000000000000000000 000000000000000000000000000000000000000     00000000                                                                                                                        000000000000000000
F0010000006120500003000000431178400042505000000000000000000201408050002001EFRAIN ALVAREZ                                    C000000000050000000000000000000000100010010000000000000000000000F0010000006120500320140805000101 00000000000000000000000000000000000000000000000000000000000000000000000000000000000000000000000000000000000000000N 00000000000NCONT   00    00000000000          00000000000000000000000000000000000000000000 000000000000000A000000000000000000000000000000000000000000000 000000000000000000000000000000000000000     00000000                                                                                                                        000000000000000000
F0010000006120500004000000431178400023658300000000000000000201408050002001EFRAIN ALVAREZ                                    C000000000006800000000000000000000100010010000000000000000000000F0010000006120500420140805000101 00000000000000000000000000000000000000000000000000000000000000000000000000000000000000000000000000000000000000000N 00000000000NCONT   00    00000000000          00000000000000000000000000000000000000000000 000000000000000A000000000000000000000000000000000000000000000 000000000000000000000000000000000000000     00000000                                                                                                                        000000000000000000
F0010000006120500005000000431178400013552100000000000000000201408050002001EFRAIN ALVAREZ                                    D000000000006800000000000000000000100010010000000000000000000000F0010000006120500520140805000101 00000000000000000000000000000000000000000000000000000000000000000000000000000000000000000000000000000000000000000N 00000000000NCONT   00    00000000000          00000000000000000000000000000000000000000000 000000000000000A000000000000000000000000000000000000000000000 000000000000000000000000000000000000000     00000000                                                                                                                        000000000000000000
F0010000006120600001000004175790100011050500000000000000000201408050002001ROSIRIS FERIA HOYOS  (COSM. SHILLER)              D000000001200000000000000000000000100010010000000000000000000000F0010000006120600120140805000101 00000000000000000000000000000000000000000000000000000000000000000000000000000000000000000000000000000000000000000N 00000000000NCONT   00    00000000000          00000000000000000000000000000000000000000000 000000000000000A000000000000000000000000000000000000000000000 000000000000000000000000000000000000000     00000000                                                                                                                        000000000000000000
F0010000006120600002000004175790100041450500000000000000000201408050002001ROSIRIS FERIA HOYOS  (COSM. SHILLER)              C000000001100000000000000000000000100010010000000000000000000000F0010000006120600220140805000101 00000000000000000000000000000000000000000000000000000000000000000000000000000000000000000000000000000000000000000N 00000000000NCONT   00    00000000000          00000000000000000000000000000000000000000000 000000000000000A000000000000000000000000000000000000000000000 000000000000000000000000000000000000000     00000000                                                                                                                        000000000000000000
F0010000006120600003000004175790100042505000000000000000000201408050002001ROSIRIS FERIA HOYOS  (COSM. SHILLER)              C000000000100000000000000000000000100010010000000000000000000000F0010000006120600320140805000101 00000000000000000000000000000000000000000000000000000000000000000000000000000000000000000000000000000000000000000N 00000000000NCONT   00    00000000000          00000000000000000000000000000000000000000000 000000000000000A000000000000000000000000000000000000000000000 000000000000000000000000000000000000000     00000000                                                                                                                        000000000000000000
F0010000006120600004000004175790100023658300000000000000000201408050002001ROSIRIS FERIA HOYOS  (COSM. SHILLER)              C000000000008800000000000000000000100010010000000000000000000000F0010000006120600420140805000101 00000000000000000000000000000000000000000000000000000000000000000000000000000000000000000000000000000000000000000N 00000000000NCONT   00    00000000000          00000000000000000000000000000000000000000000 000000000000000A000000000000000000000000000000000000000000000 000000000000000000000000000000000000000     00000000                                                                                                                        000000000000000000
F0010000006120600005000004175790100013552100000000000000000201408050002001ROSIRIS FERIA HOYOS  (COSM. SHILLER)              D000000000008800000000000000000000100010010000000000000000000000F0010000006120600520140805000101 00000000000000000000000000000000000000000000000000000000000000000000000000000000000000000000000000000000000000000N 00000000000NCONT   00    00000000000          00000000000000000000000000000000000000000000 000000000000000A000000000000000000000000000000000000000000000 000000000000000000000000000000000000000     00000000                                                                                                                        000000000000000000
F0010000006120700001000004175790100011050500000000000000000201408050002001ROSIRIS FERIA HOYOS  (COSM. SHILLER)              D000000001100000000000000000000000100010010000000000000000000000F0010000006120700120140805000101 00000000000000000000000000000000000000000000000000000000000000000000000000000000000000000000000000000000000000000N 00000000000NCONT   00    00000000000          00000000000000000000000000000000000000000000 000000000000000A000000000000000000000000000000000000000000000 000000000000000000000000000000000000000     00000000                                                                                                                        000000000000000000
F0010000006120700002000004175790100041450500000000000000000201408050002001ROSIRIS FERIA HOYOS  (COSM. SHILLER)              C000000001000000000000000000000000100010010000000000000000000000F0010000006120700220140805000101 00000000000000000000000000000000000000000000000000000000000000000000000000000000000000000000000000000000000000000N 00000000000NCONT   00    00000000000          00000000000000000000000000000000000000000000 000000000000000A000000000000000000000000000000000000000000000 000000000000000000000000000000000000000     00000000                                                                                                                        000000000000000000
F0010000006120700003000004175790100042505000000000000000000201408050002001ROSIRIS FERIA HOYOS  (COSM. SHILLER)              C000000000100000000000000000000000100010010000000000000000000000F0010000006120700320140805000101 00000000000000000000000000000000000000000000000000000000000000000000000000000000000000000000000000000000000000000N 00000000000NCONT   00    00000000000          00000000000000000000000000000000000000000000 000000000000000A000000000000000000000000000000000000000000000 000000000000000000000000000000000000000     00000000                                                                                                                        000000000000000000
F0010000006120700004000004175790100023658300000000000000000201408050002001ROSIRIS FERIA HOYOS  (COSM. SHILLER)              C000000000008000000000000000000000100010010000000000000000000000F0010000006120700420140805000101 00000000000000000000000000000000000000000000000000000000000000000000000000000000000000000000000000000000000000000N 00000000000NCONT   00    00000000000          00000000000000000000000000000000000000000000 000000000000000A000000000000000000000000000000000000000000000 000000000000000000000000000000000000000     00000000                                                                                                                        000000000000000000
F0010000006120700005000004175790100013552100000000000000000201408050002001ROSIRIS FERIA HOYOS  (COSM. SHILLER)              D000000000008000000000000000000000100010010000000000000000000000F0010000006120700520140805000101 00000000000000000000000000000000000000000000000000000000000000000000000000000000000000000000000000000000000000000N 00000000000NCONT   00    00000000000          00000000000000000000000000000000000000000000 000000000000000A000000000000000000000000000000000000000000000 000000000000000000000000000000000000000     00000000                                                                                                                        000000000000000000
F0010000006120800001000004175790100011050500000000000000000201408050002001ROSIRIS FERIA HOYOS  (COSM. SHILLER)              D000000001200000000000000000000000100010010000000000000000000000F0010000006120800120140805000101 00000000000000000000000000000000000000000000000000000000000000000000000000000000000000000000000000000000000000000N 00000000000NCONT   00    00000000000          00000000000000000000000000000000000000000000 000000000000000A000000000000000000000000000000000000000000000 000000000000000000000000000000000000000     00000000                                                                                                                        000000000000000000
F0010000006120800002000004175790100041450500000000000000000201408050002001ROSIRIS FERIA HOYOS  (COSM. SHILLER)              C000000001100000000000000000000000100010010000000000000000000000F0010000006120800220140805000101 00000000000000000000000000000000000000000000000000000000000000000000000000000000000000000000000000000000000000000N 00000000000NCONT   00    00000000000          00000000000000000000000000000000000000000000 000000000000000A000000000000000000000000000000000000000000000 000000000000000000000000000000000000000     00000000                                                                                                                        000000000000000000
