F0010000007839300001000009120302700011050500000000000000000201511030002001CALZADO REY ESTEBAN                               D000000002000000000000000000000000100010010000000000000000000000F0010000007839300120151103000101 00000000000000000000000000000000000000000000000000000000000000000000000000000000000000000000000000000000000000000N 00000000000NCONT   00    00000000000          00000000000000000000000000000000000000000000 000000000000000A000000000000000000000000000000000000000000000 000000000000000000000000000000000000000     00000000                                                                                                                        000000000000000000
F0010000007839300002000009120302700041450500000000000000000201511030002001CALZADO REY ESTEBAN                               C000000001500000000000000000000000100010010000000000000000000000F0010000007839300220151103000101 00000000000000000000000000000000000000000000000000000000000000000000000000000000000000000000000000000000000000000N 00000000000NCONT   00    00000000000          00000000000000000000000000000000000000000000 000000000000000A000000000000000000000000000000000000000000000 000000000000000000000000000000000000000     00000000                                                                                                                        000000000000000000
F0010000007839300003000009120302700042505000000000000000000201511030002001CALZADO REY ESTEBAN                               C000000000500000000000000000000000100010010000000000000000000000F0010000007839300320151103000101 00000000000000000000000000000000000000000000000000000000000000000000000000000000000000000000000000000000000000000N 00000000000NCONT   00    00000000000          00000000000000000000000000000000000000000000 000000000000000A000000000000000000000000000000000000000000000 000000000000000000000000000000000000000     00000000                                                                                                                        000000000000000000
F0010000007839300004000009120302700023658300000000000000000201511030002001CALZADO REY ESTEBAN                               C000000000012000000000000000000000100010010000000000000000000000F0010000007839300420151103000101 00000000000000000000000000000000000000000000000000000000000000000000000000000000000000000000000000000000000000000N 00000000000NCONT   00    00000000000          00000000000000000000000000000000000000000000 000000000000000A000000000000000000000000000000000000000000000 000000000000000000000000000000000000000     00000000                                                                                                                        000000000000000000
F0010000007839300005000009120302700013552100000000000000000201511030002001CALZADO REY ESTEBAN                               D000000000012000000000000000000000100010010000000000000000000000F0010000007839300520151103000101 00000000000000000000000000000000000000000000000000000000000000000000000000000000000000000000000000000000000000000N 00000000000NCONT   00    00000000000          00000000000000000000000000000000000000000000 000000000000000A000000000000000000000000000000000000000000000 000000000000000000000000000000000000000     00000000                                                                                                                        000000000000000000
F0010000007839400001000089070997800013050500000000000000000201511030002001CENTRAL DE TORNILLOS                              D000000031900000000000000000000000100010010000000000000000000000F0010000007839400120151103000101 00000000000000000000000000000000000000000000000000000000000000000000000000000000000000000000000000000000000000000N 00000000000NCONT   00    00000000000          00000000000000000000000000000000000000000000 000000000000000A000000000000000000000000000000000000000000000 000000000000000000000000000000000000000     00000000                                                                                                                        000000000000000000
F0010000007839400002000089070997800041450500000000000000000201511030002001CENTRAL DE TORNILLOS                              C000000028850000000000000000000000100010010000000000000000000000F0010000007839400220151103000101 00000000000000000000000000000000000000000000000000000000000000000000000000000000000000000000000000000000000000000N 00000000000NCONT   00    00000000000          00000000000000000000000000000000000000000000 000000000000000A000000000000000000000000000000000000000000000 000000000000000000000000000000000000000     00000000                                                                                                                        000000000000000000
F0010000007839400003000089070997800042505000000000000000000201511030002001CENTRAL DE TORNILLOS                              C000000003050000000000000000000000100010010000000000000000000000F0010000007839400320151103000101 00000000000000000000000000000000000000000000000000000000000000000000000000000000000000000000000000000000000000000N 00000000000NCONT   00    00000000000          00000000000000000000000000000000000000000000 000000000000000A000000000000000000000000000000000000000000000 000000000000000000000000000000000000000     00000000                                                                                                                        000000000000000000
F0010000007839400004000089070997800023658300000000000000000201511030002001CENTRAL DE TORNILLOS                              C000000000230800000000000000000000100010010000000000000000000000F0010000007839400420151103000101 00000000000000000000000000000000000000000000000000000000000000000000000000000000000000000000000000000000000000000N 00000000000NCONT   00    00000000000          00000000000000000000000000000000000000000000 000000000000000A000000000000000000000000000000000000000000000 000000000000000000000000000000000000000     00000000                                                                                                                        000000000000000000
F0010000007839400005000089070997800013552100000000000000000201511030002001CENTRAL DE TORNILLOS                              D000000000230800000000000000000000100010010000000000000000000000F0010000007839400520151103000101 00000000000000000000000000000000000000000000000000000000000000000000000000000000000000000000000000000000000000000N 00000000000NCONT   00    00000000000          00000000000000000000000000000000000000000000 000000000000000A000000000000000000000000000000000000000000000 000000000000000000000000000000000000000     00000000                                                                                                                        000000000000000000
F0010000007839500001000080202094000013050500000000000000000201511030002001DISTRIB. OMAR ORREGO S.A.                         D000000053253900000000000000000000100010010000000000000000000000F0010000007839500120151103000101 00000000000000000000000000000000000000000000000000000000000000000000000000000000000000000000000000000000000000000N 00000000000NCONT   00    00000000000          00000000000000000000000000000000000000000000 000000000000000A000000000000000000000000000000000000000000000 000000000000000000000000000000000000000     00000000                                                                                                                        000000000000000000
F0010000007839500002000080202094000041450500000000000000000201511030002001DISTRIB. OMAR ORREGO S.A.                         C000000029620000000000000000000000100010010000000000000000000000F0010000007839500220151103000101 00000000000000000000000000000000000000000000000000000000000000000000000000000000000000000000000000000000000000000N 00000000000NCONT   00    00000000000          00000000000000000000000000000000000000000000 000000000000000A000000000000000000000000000000000000000000000 000000000000000000000000000000000000000     00000000                                                                                                                        000000000000000000
F0010000007839500003000080202094000042505000000000000000000201511030002001DISTRIB. OMAR ORREGO S.A.                         C000000023633900000000000000000000100010010000000000000000000000F0010000007839500320151103000101 00000000000000000000000000000000000000000000000000000000000000000000000000000000000000000000000000000000000000000N 00000000000NCONT   00    00000000000          00000000000000000000000000000000000000000000 000000000000000A000000000000000000000000000000000000000000000 000000000000000000000000000000000000000     00000000                                                                                                                        000000000000000000
F0010000007839500004000080202094000023658300000000000000000201511030002001DISTRIB. OMAR ORREGO S.A.                         C000000000237000000000000000000000100010010000000000000000000000F0010000007839500420151103000101 00000000000000000000000000000000000000000000000000000000000000000000000000000000000000000000000000000000000000000N 00000000000NCONT   00    00000000000          00000000000000000000000000000000000000000000 000000000000000A000000000000000000000000000000000000000000000 000000000000000000000000000000000000000     00000000                                                                                                                        000000000000000000
F0010000007839500005000080202094000013552100000000000000000201511030002001DISTRIB. OMAR ORREGO S.A.                         D000000000237000000000000000000000100010010000000000000000000000F0010000007839500520151103000101 00000000000000000000000000000000000000000000000000000000000000000000000000000000000000000000000000000000000000000N 00000000000NCONT   00    00000000000          00000000000000000000000000000000000000000000 000000000000000A000000000000000000000000000000000000000000000 000000000000000000000000000000000000000     00000000                                                                                                                        000000000000000000
F0010000007839600001000090035510100013050500000000000000000201511030002001GRAINGER COLOMBIA S.A.S.                          D000000076085800000000000000000000100010010000000000000000000000F0010000007839600120151103000101 00000000000000000000000000000000000000000000000000000000000000000000000000000000000000000000000000000000000000000N 00000000000NCONT   00    00000000000          00000000000000000000000000000000000000000000 000000000000000A000000000000000000000000000000000000000000000 000000000000000000000000000000000000000     00000000                                                                                                                        000000000000000000
F0010000007839600002000090035510100041450500000000000000000201511030002001GRAINGER COLOMBIA S.A.S.                          C000000055388000000000000000000000100010010000000000000000000000F0010000007839600220151103000101 00000000000000000000000000000000000000000000000000000000000000000000000000000000000000000000000000000000000000000N 00000000000NCONT   00    00000000000          00000000000000000000000000000000000000000000 000000000000000A000000000000000000000000000000000000000000000 000000000000000000000000000000000000000     00000000                                                                                                                        000000000000000000
F0010000007839600003000090035510100042505000000000000000000201511030002001GRAINGER COLOMBIA S.A.S.                          C000000020697800000000000000000000100010010000000000000000000000F0010000007839600320151103000101 00000000000000000000000000000000000000000000000000000000000000000000000000000000000000000000000000000000000000000N 00000000000NCONT   00    00000000000          00000000000000000000000000000000000000000000 000000000000000A000000000000000000000000000000000000000000000 000000000000000000000000000000000000000     00000000                                                                                                                        000000000000000000
F0010000007839600004000090035510100023658300000000000000000201511030002001GRAINGER COLOMBIA S.A.S.                          C000000000443100000000000000000000100010010000000000000000000000F0010000007839600420151103000101 00000000000000000000000000000000000000000000000000000000000000000000000000000000000000000000000000000000000000000N 00000000000NCONT   00    00000000000          00000000000000000000000000000000000000000000 000000000000000A000000000000000000000000000000000000000000000 000000000000000000000000000000000000000     00000000                                                                                                                        000000000000000000
F0010000007839600005000090035510100013552100000000000000000201511030002001GRAINGER COLOMBIA S.A.S.                          D000000000443100000000000000000000100010010000000000000000000000F0010000007839600520151103000101 00000000000000000000000000000000000000000000000000000000000000000000000000000000000000000000000000000000000000000N 00000000000NCONT   00    00000000000          00000000000000000000000000000000000000000000 000000000000000A000000000000000000000000000000000000000000000 000000000000000000000000000000000000000     00000000                                                                                                                        000000000000000000
F0010000007839700001000090073498600011050500000000000000000201511030002001VALTAC S.A.S                                      D000000005000000000000000000000000100010010000000000000000000000F0010000007839700120151103000101 00000000000000000000000000000000000000000000000000000000000000000000000000000000000000000000000000000000000000000N 00000000000NCONT   00    00000000000          00000000000000000000000000000000000000000000 000000000000000A000000000000000000000000000000000000000000000 000000000000000000000000000000000000000     00000000                                                                                                                        000000000000000000
F0010000007839700002000090073498600041450500000000000000000201511030002001VALTAC S.A.S                                      C000000004500000000000000000000000100010010000000000000000000000F0010000007839700220151103000101 00000000000000000000000000000000000000000000000000000000000000000000000000000000000000000000000000000000000000000N 00000000000NCONT   00    00000000000          00000000000000000000000000000000000000000000 000000000000000A000000000000000000000000000000000000000000000 000000000000000000000000000000000000000     00000000                                                                                                                        000000000000000000
F0010000007839700003000090073498600042505000000000000000000201511030002001VALTAC S.A.S                                      C000000000500000000000000000000000100010010000000000000000000000F0010000007839700320151103000101 00000000000000000000000000000000000000000000000000000000000000000000000000000000000000000000000000000000000000000N 00000000000NCONT   00    00000000000          00000000000000000000000000000000000000000000 000000000000000A000000000000000000000000000000000000000000000 000000000000000000000000000000000000000     00000000                                                                                                                        000000000000000000
F0010000007839700004000090073498600023658300000000000000000201511030002001VALTAC S.A.S                                      C000000000036000000000000000000000100010010000000000000000000000F0010000007839700420151103000101 00000000000000000000000000000000000000000000000000000000000000000000000000000000000000000000000000000000000000000N 00000000000NCONT   00    00000000000          00000000000000000000000000000000000000000000 000000000000000A000000000000000000000000000000000000000000000 000000000000000000000000000000000000000     00000000                                                                                                                        000000000000000000
F0010000007839700005000090073498600013552100000000000000000201511030002001VALTAC S.A.S                                      D000000000036000000000000000000000100010010000000000000000000000F0010000007839700520151103000101 00000000000000000000000000000000000000000000000000000000000000000000000000000000000000000000000000000000000000000N 00000000000NCONT   00    00000000000          00000000000000000000000000000000000000000000 000000000000000A000000000000000000000000000000000000000000000 000000000000000000000000000000000000000     00000000                                                                                                                        000000000000000000
F0010000007839800001000080201112800013050500000000000000000201511030002001CANGURO INTERNATIONAL S.A.                        D000000278935300000000000000000000100010010000000000000000000000F0010000007839800120151103000101 00000000000000000000000000000000000000000000000000000000000000000000000000000000000000000000000000000000000000000N 00000000000NCONT   00    00000000000          00000000000000000000000000000000000000000000 000000000000000A000000000000000000000000000000000000000000000 000000000000000000000000000000000000000     00000000                                                                                                                        000000000000000000
F0010000007839800002000080201112800041450500000000000000000201511030002001CANGURO INTERNATIONAL S.A.                        C000000278935300000000000000000000100010010000000000000000000000F0010000007839800220151103000101 00000000000000000000000000000000000000000000000000000000000000000000000000000000000000000000000000000000000000000N 00000000000NCONT   00    00000000000          00000000000000000000000000000000000000000000 000000000000000A000000000000000000000000000000000000000000000 000000000000000000000000000000000000000     00000000                                                                                                                        000000000000000000
F0010000007839800003000080201112800042505000000000000000000201511030002001CANGURO INTERNATIONAL S.A.                        C000000000000000000000000000000000100010010000000000000000000000F0010000007839800320151103000101 00000000000000000000000000000000000000000000000000000000000000000000000000000000000000000000000000000000000000000N 00000000000NCONT   00    00000000000          00000000000000000000000000000000000000000000 000000000000000A000000000000000000000000000000000000000000000 000000000000000000000000000000000000000     00000000                                                                                                                        000000000000000000
F0010000007839800004000080201112800023658300000000000000000201511030002001CANGURO INTERNATIONAL S.A.                        C000000002231500000000000000000000100010010000000000000000000000F0010000007839800420151103000101 00000000000000000000000000000000000000000000000000000000000000000000000000000000000000000000000000000000000000000N 00000000000NCONT   00    00000000000          00000000000000000000000000000000000000000000 000000000000000A000000000000000000000000000000000000000000000 000000000000000000000000000000000000000     00000000                                                                                                                        000000000000000000
F0010000007839800005000080201112800013552100000000000000000201511030002001CANGURO INTERNATIONAL S.A.                        D000000002231500000000000000000000100010010000000000000000000000F0010000007839800520151103000101 00000000000000000000000000000000000000000000000000000000000000000000000000000000000000000000000000000000000000000N 00000000000NCONT   00    00000000000          00000000000000000000000000000000000000000000 000000000000000A000000000000000000000000000000000000000000000 000000000000000000000000000000000000000     00000000                                                                                                                        000000000000000000
F0010000007839900001000080201112800013050500000000000000000201511030002001CANGURO INTERNATIONAL S.A.                        D000000176068000000000000000000000100010010000000000000000000000F0010000007839900120151103000101 00000000000000000000000000000000000000000000000000000000000000000000000000000000000000000000000000000000000000000N 00000000000NCONT   00    00000000000          00000000000000000000000000000000000000000000 000000000000000A000000000000000000000000000000000000000000000 000000000000000000000000000000000000000     00000000                                                                                                                        000000000000000000
F0010000007839900002000080201112800041450500000000000000000201511030002001CANGURO INTERNATIONAL S.A.                        C000000175804600000000000000000000100010010000000000000000000000F0010000007839900220151103000101 00000000000000000000000000000000000000000000000000000000000000000000000000000000000000000000000000000000000000000N 00000000000NCONT   00    00000000000          00000000000000000000000000000000000000000000 000000000000000A000000000000000000000000000000000000000000000 000000000000000000000000000000000000000     00000000                                                                                                                        000000000000000000
F0010000007839900003000080201112800042505000000000000000000201511030002001CANGURO INTERNATIONAL S.A.                        C000000000263400000000000000000000100010010000000000000000000000F0010000007839900320151103000101 00000000000000000000000000000000000000000000000000000000000000000000000000000000000000000000000000000000000000000N 00000000000NCONT   00    00000000000          00000000000000000000000000000000000000000000 000000000000000A000000000000000000000000000000000000000000000 000000000000000000000000000000000000000     00000000                                                                                                                        000000000000000000
F0010000007839900004000080201112800023658300000000000000000201511030002001CANGURO INTERNATIONAL S.A.                        C000000001406400000000000000000000100010010000000000000000000000F0010000007839900420151103000101 00000000000000000000000000000000000000000000000000000000000000000000000000000000000000000000000000000000000000000N 00000000000NCONT   00    00000000000          00000000000000000000000000000000000000000000 000000000000000A000000000000000000000000000000000000000000000 000000000000000000000000000000000000000     00000000                                                                                                                        000000000000000000
F0010000007839900005000080201112800013552100000000000000000201511030002001CANGURO INTERNATIONAL S.A.                        D000000001406400000000000000000000100010010000000000000000000000F0010000007839900520151103000101 00000000000000000000000000000000000000000000000000000000000000000000000000000000000000000000000000000000000000000N 00000000000NCONT   00    00000000000          00000000000000000000000000000000000000000000 000000000000000A000000000000000000000000000000000000000000000 000000000000000000000000000000000000000     00000000                                                                                                                        000000000000000000
F0010000007840000001000080201112800013050500000000000000000201511030002001CANGURO INTERNATIONAL S.A.                        D000000226397000000000000000000000100010010000000000000000000000F0010000007840000120151103000101 00000000000000000000000000000000000000000000000000000000000000000000000000000000000000000000000000000000000000000N 00000000000NCONT   00    00000000000          00000000000000000000000000000000000000000000 000000000000000A000000000000000000000000000000000000000000000 000000000000000000000000000000000000000     00000000                                                                                                                        000000000000000000
F0010000007840000002000080201112800041450500000000000000000201511030002001CANGURO INTERNATIONAL S.A.                        C000000226397000000000000000000000100010010000000000000000000000F0010000007840000220151103000101 00000000000000000000000000000000000000000000000000000000000000000000000000000000000000000000000000000000000000000N 00000000000NCONT   00    00000000000          00000000000000000000000000000000000000000000 000000000000000A000000000000000000000000000000000000000000000 000000000000000000000000000000000000000     00000000                                                                                                                        000000000000000000
F0010000007840000003000080201112800042505000000000000000000201511030002001CANGURO INTERNATIONAL S.A.                        C000000000000000000000000000000000100010010000000000000000000000F0010000007840000320151103000101 00000000000000000000000000000000000000000000000000000000000000000000000000000000000000000000000000000000000000000N 00000000000NCONT   00    00000000000          00000000000000000000000000000000000000000000 000000000000000A000000000000000000000000000000000000000000000 000000000000000000000000000000000000000     00000000                                                                                                                        000000000000000000
F0010000007840000004000080201112800023658300000000000000000201511030002001CANGURO INTERNATIONAL S.A.                        C000000001811200000000000000000000100010010000000000000000000000F0010000007840000420151103000101 00000000000000000000000000000000000000000000000000000000000000000000000000000000000000000000000000000000000000000N 00000000000NCONT   00    00000000000          00000000000000000000000000000000000000000000 000000000000000A000000000000000000000000000000000000000000000 000000000000000000000000000000000000000     00000000                                                                                                                        000000000000000000
F0010000007840000005000080201112800013552100000000000000000201511030002001CANGURO INTERNATIONAL S.A.                        D000000001811200000000000000000000100010010000000000000000000000F0010000007840000520151103000101 00000000000000000000000000000000000000000000000000000000000000000000000000000000000000000000000000000000000000000N 00000000000NCONT   00    00000000000          00000000000000000000000000000000000000000000 000000000000000A000000000000000000000000000000000000000000000 000000000000000000000000000000000000000     00000000                                                                                                                        000000000000000000
F0010000007840100001000081102758700013050500000000000000000201511030002001C.I. ABRACOL S.A EMA                              D000000113649600000000000000000000100010010000000000000000000000F0010000007840100120151103000101 00000000000000000000000000000000000000000000000000000000000000000000000000000000000000000000000000000000000000000N 00000000000NCONT   00    00000000000          00000000000000000000000000000000000000000000 000000000000000A000000000000000000000000000000000000000000000 000000000000000000000000000000000000000     00000000                                                                                                                        000000000000000000
F0010000007840100002000081102758700041450500000000000000000201511030002001C.I. ABRACOL S.A EMA                              C000000066820000000000000000000000100010010000000000000000000000F0010000007840100220151103000101 00000000000000000000000000000000000000000000000000000000000000000000000000000000000000000000000000000000000000000N 00000000000NCONT   00    00000000000          00000000000000000000000000000000000000000000 000000000000000A000000000000000000000000000000000000000000000 000000000000000000000000000000000000000     00000000                                                                                                                        000000000000000000
F0010000007840100003000081102758700041750100000000000000000201511030002001C.I. ABRACOL S.A EMA                              D000000002004600000000000000000000100010010000000000000000000000F0010000007840100320151103000101 00000000000000000000000000000000000000000000000000000000000000000000000000000000000000000000000000000000000000000N 00000000000NCONT   00    00000000000          00000000000000000000000000000000000000000000 000000000000000A000000000000000000000000000000000000000000000 000000000000000000000000000000000000000     00000000                                                                                                                        000000000000000000
F0010000007840100004000081102758700042505000000000000000000201511030002001C.I. ABRACOL S.A EMA                              C000000048834200000000000000000000100010010000000000000000000000F0010000007840100420151103000101 00000000000000000000000000000000000000000000000000000000000000000000000000000000000000000000000000000000000000000N 00000000000NCONT   00    00000000000          00000000000000000000000000000000000000000000 000000000000000A000000000000000000000000000000000000000000000 000000000000000000000000000000000000000     00000000                                                                                                                        000000000000000000
F0010000007840100005000081102758700023658300000000000000000201511030002001C.I. ABRACOL S.A EMA                              C000000000534600000000000000000000100010010000000000000000000000F0010000007840100520151103000101 00000000000000000000000000000000000000000000000000000000000000000000000000000000000000000000000000000000000000000N 00000000000NCONT   00    00000000000          00000000000000000000000000000000000000000000 000000000000000A000000000000000000000000000000000000000000000 000000000000000000000000000000000000000     00000000                                                                                                                        000000000000000000
F0010000007840100006000081102758700013552100000000000000000201511030002001C.I. ABRACOL S.A EMA                              D000000000534600000000000000000000100010010000000000000000000000F0010000007840100620151103000101 00000000000000000000000000000000000000000000000000000000000000000000000000000000000000000000000000000000000000000N 00000000000NCONT   00    00000000000          00000000000000000000000000000000000000000000 000000000000000A000000000000000000000000000000000000000000000 000000000000000000000000000000000000000     00000000                                                                                                                        000000000000000000
F0010000007840200001000081102758700013050500000000000000000201511030002001C.I. ABRACOL S.A EMA                              D000000113949400000000000000000000100010010000000000000000000000F0010000007840200120151103000101 00000000000000000000000000000000000000000000000000000000000000000000000000000000000000000000000000000000000000000N 00000000000NCONT   00    00000000000          00000000000000000000000000000000000000000000 000000000000000A000000000000000000000000000000000000000000000 000000000000000000000000000000000000000     00000000                                                                                                                        000000000000000000
F0010000007840200002000081102758700041450500000000000000000201511030002001C.I. ABRACOL S.A EMA                              C000000080880000000000000000000000100010010000000000000000000000F0010000007840200220151103000101 00000000000000000000000000000000000000000000000000000000000000000000000000000000000000000000000000000000000000000N 00000000000NCONT   00    00000000000          00000000000000000000000000000000000000000000 000000000000000A000000000000000000000000000000000000000000000 000000000000000000000000000000000000000     00000000                                                                                                                        000000000000000000
F0010000007840200003000081102758700041750100000000000000000201511030002001C.I. ABRACOL S.A EMA                              D000000002426400000000000000000000100010010000000000000000000000F0010000007840200320151103000101 00000000000000000000000000000000000000000000000000000000000000000000000000000000000000000000000000000000000000000N 00000000000NCONT   00    00000000000          00000000000000000000000000000000000000000000 000000000000000A000000000000000000000000000000000000000000000 000000000000000000000000000000000000000     00000000                                                                                                                        000000000000000000
F0010000007840200004000081102758700042505000000000000000000201511030002001C.I. ABRACOL S.A EMA                              C000000035495800000000000000000000100010010000000000000000000000F0010000007840200420151103000101 00000000000000000000000000000000000000000000000000000000000000000000000000000000000000000000000000000000000000000N 00000000000NCONT   00    00000000000          00000000000000000000000000000000000000000000 000000000000000A000000000000000000000000000000000000000000000 000000000000000000000000000000000000000     00000000                                                                                                                        000000000000000000
F0010000007840200005000081102758700023658300000000000000000201511030002001C.I. ABRACOL S.A EMA                              C000000000647000000000000000000000100010010000000000000000000000F0010000007840200520151103000101 00000000000000000000000000000000000000000000000000000000000000000000000000000000000000000000000000000000000000000N 00000000000NCONT   00    00000000000          00000000000000000000000000000000000000000000 000000000000000A000000000000000000000000000000000000000000000 000000000000000000000000000000000000000     00000000                                                                                                                        000000000000000000
F0010000007840200006000081102758700013552100000000000000000201511030002001C.I. ABRACOL S.A EMA                              D000000000647000000000000000000000100010010000000000000000000000F0010000007840200620151103000101 00000000000000000000000000000000000000000000000000000000000000000000000000000000000000000000000000000000000000000N 00000000000NCONT   00    00000000000          00000000000000000000000000000000000000000000 000000000000000A000000000000000000000000000000000000000000000 000000000000000000000000000000000000000     00000000                                                                                                                        000000000000000000
F0010000007840300001000081102758700013050500000000000000000201511030002001C.I. ABRACOL S.A EMA                              D000000100812100000000000000000000100010010000000000000000000000F0010000007840300120151103000101 00000000000000000000000000000000000000000000000000000000000000000000000000000000000000000000000000000000000000000N 00000000000NCONT   00    00000000000          00000000000000000000000000000000000000000000 000000000000000A000000000000000000000000000000000000000000000 000000000000000000000000000000000000000     00000000                                                                                                                        000000000000000000
F0010000007840300002000081102758700041450500000000000000000201511030002001C.I. ABRACOL S.A EMA                              C000000067460000000000000000000000100010010000000000000000000000F0010000007840300220151103000101 00000000000000000000000000000000000000000000000000000000000000000000000000000000000000000000000000000000000000000N 00000000000NCONT   00    00000000000          00000000000000000000000000000000000000000000 000000000000000A000000000000000000000000000000000000000000000 000000000000000000000000000000000000000     00000000                                                                                                                        000000000000000000
F0010000007840300003000081102758700041750100000000000000000201511030002001C.I. ABRACOL S.A EMA                              D000000002023800000000000000000000100010010000000000000000000000F0010000007840300320151103000101 00000000000000000000000000000000000000000000000000000000000000000000000000000000000000000000000000000000000000000N 00000000000NCONT   00    00000000000          00000000000000000000000000000000000000000000 000000000000000A000000000000000000000000000000000000000000000 000000000000000000000000000000000000000     00000000                                                                                                                        000000000000000000
F0010000007840300004000081102758700042505000000000000000000201511030002001C.I. ABRACOL S.A EMA                              C000000035375900000000000000000000100010010000000000000000000000F0010000007840300420151103000101 00000000000000000000000000000000000000000000000000000000000000000000000000000000000000000000000000000000000000000N 00000000000NCONT   00    00000000000          00000000000000000000000000000000000000000000 000000000000000A000000000000000000000000000000000000000000000 000000000000000000000000000000000000000     00000000                                                                                                                        000000000000000000
F0010000007840300005000081102758700023658300000000000000000201511030002001C.I. ABRACOL S.A EMA                              C000000000539700000000000000000000100010010000000000000000000000F0010000007840300520151103000101 00000000000000000000000000000000000000000000000000000000000000000000000000000000000000000000000000000000000000000N 00000000000NCONT   00    00000000000          00000000000000000000000000000000000000000000 000000000000000A000000000000000000000000000000000000000000000 000000000000000000000000000000000000000     00000000                                                                                                                        000000000000000000
F0010000007840300006000081102758700013552100000000000000000201511030002001C.I. ABRACOL S.A EMA                              D000000000539700000000000000000000100010010000000000000000000000F0010000007840300620151103000101 00000000000000000000000000000000000000000000000000000000000000000000000000000000000000000000000000000000000000000N 00000000000NCONT   00    00000000000          00000000000000000000000000000000000000000000 000000000000000A000000000000000000000000000000000000000000000 000000000000000000000000000000000000000     00000000                                                                                                                        000000000000000000
F0010000007840400001000081102758700013050500000000000000000201511030002001C.I. ABRACOL S.A EMA                              D000000058542300000000000000000000100010010000000000000000000000F0010000007840400120151103000101 00000000000000000000000000000000000000000000000000000000000000000000000000000000000000000000000000000000000000000N 00000000000NCONT   00    00000000000          00000000000000000000000000000000000000000000 000000000000000A000000000000000000000000000000000000000000000 000000000000000000000000000000000000000     00000000                                                                                                                        000000000000000000
F0010000007840400002000081102758700041450500000000000000000201511030002001C.I. ABRACOL S.A EMA                              C000000042636800000000000000000000100010010000000000000000000000F0010000007840400220151103000101 00000000000000000000000000000000000000000000000000000000000000000000000000000000000000000000000000000000000000000N 00000000000NCONT   00    00000000000          00000000000000000000000000000000000000000000 000000000000000A000000000000000000000000000000000000000000000 000000000000000000000000000000000000000     00000000                                                                                                                        000000000000000000
F0010000007840400003000081102758700041750100000000000000000201511030002001C.I. ABRACOL S.A EMA                              D000000001279100000000000000000000100010010000000000000000000000F0010000007840400320151103000101 00000000000000000000000000000000000000000000000000000000000000000000000000000000000000000000000000000000000000000N 00000000000NCONT   00    00000000000          00000000000000000000000000000000000000000000 000000000000000A000000000000000000000000000000000000000000000 000000000000000000000000000000000000000     00000000                                                                                                                        000000000000000000
F0010000007840400004000081102758700042505000000000000000000201511030002001C.I. ABRACOL S.A EMA                              C000000017184600000000000000000000100010010000000000000000000000F0010000007840400420151103000101 00000000000000000000000000000000000000000000000000000000000000000000000000000000000000000000000000000000000000000N 00000000000NCONT   00    00000000000          00000000000000000000000000000000000000000000 000000000000000A000000000000000000000000000000000000000000000 000000000000000000000000000000000000000     00000000                                                                                                                        000000000000000000
F0010000007840400005000081102758700023658300000000000000000201511030002001C.I. ABRACOL S.A EMA                              C000000000341100000000000000000000100010010000000000000000000000F0010000007840400520151103000101 00000000000000000000000000000000000000000000000000000000000000000000000000000000000000000000000000000000000000000N 00000000000NCONT   00    00000000000          00000000000000000000000000000000000000000000 000000000000000A000000000000000000000000000000000000000000000 000000000000000000000000000000000000000     00000000                                                                                                                        000000000000000000
F0010000007840400006000081102758700013552100000000000000000201511030002001C.I. ABRACOL S.A EMA                              D000000000341100000000000000000000100010010000000000000000000000F0010000007840400620151103000101 00000000000000000000000000000000000000000000000000000000000000000000000000000000000000000000000000000000000000000N 00000000000NCONT   00    00000000000          00000000000000000000000000000000000000000000 000000000000000A000000000000000000000000000000000000000000000 000000000000000000000000000000000000000     00000000                                                                                                                        000000000000000000
F0010000007840500001000086003365300011050500000000000000000201511030002001IMPOFER                                           D000000006000000000000000000000000100010010000000000000000000000F0010000007840500120151103000101 00000000000000000000000000000000000000000000000000000000000000000000000000000000000000000000000000000000000000000N 00000000000NCONT   00    00000000000          00000000000000000000000000000000000000000000 000000000000000A000000000000000000000000000000000000000000000 000000000000000000000000000000000000000     00000000                                                                                                                        000000000000000000
F0010000007840500002000086003365300041450500000000000000000201511030002001IMPOFER                                           C000000005000000000000000000000000100010010000000000000000000000F0010000007840500220151103000101 00000000000000000000000000000000000000000000000000000000000000000000000000000000000000000000000000000000000000000N 00000000000NCONT   00    00000000000          00000000000000000000000000000000000000000000 000000000000000A000000000000000000000000000000000000000000000 000000000000000000000000000000000000000     00000000                                                                                                                        000000000000000000
F0010000007840500003000086003365300042505000000000000000000201511030002001IMPOFER                                           C000000001000000000000000000000000100010010000000000000000000000F0010000007840500320151103000101 00000000000000000000000000000000000000000000000000000000000000000000000000000000000000000000000000000000000000000N 00000000000NCONT   00    00000000000          00000000000000000000000000000000000000000000 000000000000000A000000000000000000000000000000000000000000000 000000000000000000000000000000000000000     00000000                                                                                                                        000000000000000000
F0010000007840500004000086003365300023658300000000000000000201511030002001IMPOFER                                           C000000000040000000000000000000000100010010000000000000000000000F0010000007840500420151103000101 00000000000000000000000000000000000000000000000000000000000000000000000000000000000000000000000000000000000000000N 00000000000NCONT   00    00000000000          00000000000000000000000000000000000000000000 000000000000000A000000000000000000000000000000000000000000000 000000000000000000000000000000000000000     00000000                                                                                                                        000000000000000000
F0010000007840500005000086003365300013552100000000000000000201511030002001IMPOFER                                           D000000000040000000000000000000000100010010000000000000000000000F0010000007840500520151103000101 00000000000000000000000000000000000000000000000000000000000000000000000000000000000000000000000000000000000000000N 00000000000NCONT   00    00000000000          00000000000000000000000000000000000000000000 000000000000000A000000000000000000000000000000000000000000000 000000000000000000000000000000000000000     00000000                                                                                                                        000000000000000000
F0010000007840600001000083008772100011050500000000000000000201511030002001ILUMEC SAS                                        D000000003800000000000000000000000100010010000000000000000000000F0010000007840600120151103000101 00000000000000000000000000000000000000000000000000000000000000000000000000000000000000000000000000000000000000000N 00000000000NCONT   00    00000000000          00000000000000000000000000000000000000000000 000000000000000A000000000000000000000000000000000000000000000 000000000000000000000000000000000000000     00000000                                                                                                                        000000000000000000
F0010000007840600002000083008772100041450500000000000000000201511030002001ILUMEC SAS                                        C000000002400000000000000000000000100010010000000000000000000000F0010000007840600220151103000101 00000000000000000000000000000000000000000000000000000000000000000000000000000000000000000000000000000000000000000N 00000000000NCONT   00    00000000000          00000000000000000000000000000000000000000000 000000000000000A000000000000000000000000000000000000000000000 000000000000000000000000000000000000000     00000000                                                                                                                        000000000000000000
F0010000007840600003000083008772100042505000000000000000000201511030002001ILUMEC SAS                                        C000000001400000000000000000000000100010010000000000000000000000F0010000007840600320151103000101 00000000000000000000000000000000000000000000000000000000000000000000000000000000000000000000000000000000000000000N 00000000000NCONT   00    00000000000          00000000000000000000000000000000000000000000 000000000000000A000000000000000000000000000000000000000000000 000000000000000000000000000000000000000     00000000                                                                                                                        000000000000000000
F0010000007840600004000083008772100023658300000000000000000201511030002001ILUMEC SAS                                        C000000000019200000000000000000000100010010000000000000000000000F0010000007840600420151103000101 00000000000000000000000000000000000000000000000000000000000000000000000000000000000000000000000000000000000000000N 00000000000NCONT   00    00000000000          00000000000000000000000000000000000000000000 000000000000000A000000000000000000000000000000000000000000000 000000000000000000000000000000000000000     00000000                                                                                                                        000000000000000000
F0010000007840600005000083008772100013552100000000000000000201511030002001ILUMEC SAS                                        D000000000019200000000000000000000100010010000000000000000000000F0010000007840600520151103000101 00000000000000000000000000000000000000000000000000000000000000000000000000000000000000000000000000000000000000000N 00000000000NCONT   00    00000000000          00000000000000000000000000000000000000000000 000000000000000A000000000000000000000000000000000000000000000 000000000000000000000000000000000000000     00000000                                                                                                                        000000000000000000
F0010000007840700001000007233680300011050500000000000000000201511030002001FERMIN RAMBAL SANCHEZ                             D000000005500000000000000000000000100010010000000000000000000000F0010000007840700120151103000101 00000000000000000000000000000000000000000000000000000000000000000000000000000000000000000000000000000000000000000N 00000000000NCONT   00    00000000000          00000000000000000000000000000000000000000000 000000000000000A000000000000000000000000000000000000000000000 000000000000000000000000000000000000000     00000000                                                                                                                        000000000000000000
F0010000007840700002000007233680300041450500000000000000000201511030002001FERMIN RAMBAL SANCHEZ                             C000000005200000000000000000000000100010010000000000000000000000F0010000007840700220151103000101 00000000000000000000000000000000000000000000000000000000000000000000000000000000000000000000000000000000000000000N 00000000000NCONT   00    00000000000          00000000000000000000000000000000000000000000 000000000000000A000000000000000000000000000000000000000000000 000000000000000000000000000000000000000     00000000                                                                                                                        000000000000000000
F0010000007840700003000007233680300042505000000000000000000201511030002001FERMIN RAMBAL SANCHEZ                             C000000000300000000000000000000000100010010000000000000000000000F0010000007840700320151103000101 00000000000000000000000000000000000000000000000000000000000000000000000000000000000000000000000000000000000000000N 00000000000NCONT   00    00000000000          00000000000000000000000000000000000000000000 000000000000000A000000000000000000000000000000000000000000000 000000000000000000000000000000000000000     00000000                                                                                                                        000000000000000000
F0010000007840700004000007233680300023658300000000000000000201511030002001FERMIN RAMBAL SANCHEZ                             C000000000041600000000000000000000100010010000000000000000000000F0010000007840700420151103000101 00000000000000000000000000000000000000000000000000000000000000000000000000000000000000000000000000000000000000000N 00000000000NCONT   00    00000000000          00000000000000000000000000000000000000000000 000000000000000A000000000000000000000000000000000000000000000 000000000000000000000000000000000000000     00000000                                                                                                                        000000000000000000
F0010000007840700005000007233680300013552100000000000000000201511030002001FERMIN RAMBAL SANCHEZ                             D000000000041600000000000000000000100010010000000000000000000000F0010000007840700520151103000101 00000000000000000000000000000000000000000000000000000000000000000000000000000000000000000000000000000000000000000N 00000000000NCONT   00    00000000000          00000000000000000000000000000000000000000000 000000000000000A000000000000000000000000000000000000000000000 000000000000000000000000000000000000000     00000000                                                                                                                        000000000000000000
F0010000007840800001000080201703900011050500000000000000000201511030002001MUNDIAL CHEMICAL LTDA                             D000000015000000000000000000000000100010010000000000000000000000F0010000007840800120151103000101 00000000000000000000000000000000000000000000000000000000000000000000000000000000000000000000000000000000000000000N 00000000000NCONT   00    00000000000          00000000000000000000000000000000000000000000 000000000000000A000000000000000000000000000000000000000000000 000000000000000000000000000000000000000     00000000                                                                                                                        000000000000000000
F0010000007840800002000080201703900041450500000000000000000201511030002001MUNDIAL CHEMICAL LTDA                             C000000013280000000000000000000000100010010000000000000000000000F0010000007840800220151103000101 00000000000000000000000000000000000000000000000000000000000000000000000000000000000000000000000000000000000000000N 00000000000NCONT   00    00000000000          00000000000000000000000000000000000000000000 000000000000000A000000000000000000000000000000000000000000000 000000000000000000000000000000000000000     00000000                                                                                                                        000000000000000000
F0010000007840800003000080201703900042505000000000000000000201511030002001MUNDIAL CHEMICAL LTDA                             C000000001720000000000000000000000100010010000000000000000000000F0010000007840800320151103000101 00000000000000000000000000000000000000000000000000000000000000000000000000000000000000000000000000000000000000000N 00000000000NCONT   00    00000000000          00000000000000000000000000000000000000000000 000000000000000A000000000000000000000000000000000000000000000 000000000000000000000000000000000000000     00000000                                                                                                                        000000000000000000
F0010000007840800004000080201703900023658300000000000000000201511030002001MUNDIAL CHEMICAL LTDA                             C000000000106200000000000000000000100010010000000000000000000000F0010000007840800420151103000101 00000000000000000000000000000000000000000000000000000000000000000000000000000000000000000000000000000000000000000N 00000000000NCONT   00    00000000000          00000000000000000000000000000000000000000000 000000000000000A000000000000000000000000000000000000000000000 000000000000000000000000000000000000000     00000000                                                                                                                        000000000000000000
F0010000007840800005000080201703900013552100000000000000000201511030002001MUNDIAL CHEMICAL LTDA                             D000000000106200000000000000000000100010010000000000000000000000F0010000007840800520151103000101 00000000000000000000000000000000000000000000000000000000000000000000000000000000000000000000000000000000000000000N 00000000000NCONT   00    00000000000          00000000000000000000000000000000000000000000 000000000000000A000000000000000000000000000000000000000000000 000000000000000000000000000000000000000     00000000                                                                                                                        000000000000000000
F0010000007840900001000003287795000011050500000000000000000201511030002001COMERCIALIZADORA KUZMAR                           D000000001700000000000000000000000100010010000000000000000000000F0010000007840900120151103000101 00000000000000000000000000000000000000000000000000000000000000000000000000000000000000000000000000000000000000000N 00000000000NCONT   00    00000000000          00000000000000000000000000000000000000000000 000000000000000A000000000000000000000000000000000000000000000 000000000000000000000000000000000000000     00000000                                                                                                                        000000000000000000
F0010000007840900002000003287795000041450500000000000000000201511030002001COMERCIALIZADORA KUZMAR                           C000000001400000000000000000000000100010010000000000000000000000F0010000007840900220151103000101 00000000000000000000000000000000000000000000000000000000000000000000000000000000000000000000000000000000000000000N 00000000000NCONT   00    00000000000          00000000000000000000000000000000000000000000 000000000000000A000000000000000000000000000000000000000000000 000000000000000000000000000000000000000     00000000                                                                                                                        000000000000000000
F0010000007840900003000003287795000042505000000000000000000201511030002001COMERCIALIZADORA KUZMAR                           C000000000300000000000000000000000100010010000000000000000000000F0010000007840900320151103000101 00000000000000000000000000000000000000000000000000000000000000000000000000000000000000000000000000000000000000000N 00000000000NCONT   00    00000000000          00000000000000000000000000000000000000000000 000000000000000A000000000000000000000000000000000000000000000 000000000000000000000000000000000000000     00000000                                                                                                                        000000000000000000
F0010000007840900004000003287795000023658300000000000000000201511030002001COMERCIALIZADORA KUZMAR                           C000000000011200000000000000000000100010010000000000000000000000F0010000007840900420151103000101 00000000000000000000000000000000000000000000000000000000000000000000000000000000000000000000000000000000000000000N 00000000000NCONT   00    00000000000          00000000000000000000000000000000000000000000 000000000000000A000000000000000000000000000000000000000000000 000000000000000000000000000000000000000     00000000                                                                                                                        000000000000000000
F0010000007840900005000003287795000013552100000000000000000201511030002001COMERCIALIZADORA KUZMAR                           D000000000011200000000000000000000100010010000000000000000000000F0010000007840900520151103000101 00000000000000000000000000000000000000000000000000000000000000000000000000000000000000000000000000000000000000000N 00000000000NCONT   00    00000000000          00000000000000000000000000000000000000000000 000000000000000A000000000000000000000000000000000000000000000 000000000000000000000000000000000000000     00000000                                                                                                                        000000000000000000
F0010000007841000001000080202435000011050500000000000000000201511030002001DISTRIBUIDORA MACEA SAS                           D000000003700000000000000000000000100010010000000000000000000000F0010000007841000120151103000101 00000000000000000000000000000000000000000000000000000000000000000000000000000000000000000000000000000000000000000N 00000000000NCONT   00    00000000000          00000000000000000000000000000000000000000000 000000000000000A000000000000000000000000000000000000000000000 000000000000000000000000000000000000000     00000000                                                                                                                        000000000000000000
F0010000007841000002000080202435000041450500000000000000000201511030002001DISTRIBUIDORA MACEA SAS                           C000000003300000000000000000000000100010010000000000000000000000F0010000007841000220151103000101 00000000000000000000000000000000000000000000000000000000000000000000000000000000000000000000000000000000000000000N 00000000000NCONT   00    00000000000          00000000000000000000000000000000000000000000 000000000000000A000000000000000000000000000000000000000000000 000000000000000000000000000000000000000     00000000                                                                                                                        000000000000000000
F0010000007841000003000080202435000042505000000000000000000201511030002001DISTRIBUIDORA MACEA SAS                           C000000000400000000000000000000000100010010000000000000000000000F0010000007841000320151103000101 00000000000000000000000000000000000000000000000000000000000000000000000000000000000000000000000000000000000000000N 00000000000NCONT   00    00000000000          00000000000000000000000000000000000000000000 000000000000000A000000000000000000000000000000000000000000000 000000000000000000000000000000000000000     00000000                                                                                                                        000000000000000000
F0010000007841000004000080202435000023658300000000000000000201511030002001DISTRIBUIDORA MACEA SAS                           C000000000026400000000000000000000100010010000000000000000000000F0010000007841000420151103000101 00000000000000000000000000000000000000000000000000000000000000000000000000000000000000000000000000000000000000000N 00000000000NCONT   00    00000000000          00000000000000000000000000000000000000000000 000000000000000A000000000000000000000000000000000000000000000 000000000000000000000000000000000000000     00000000                                                                                                                        000000000000000000
F0010000007841000005000080202435000013552100000000000000000201511030002001DISTRIBUIDORA MACEA SAS                           D000000000026400000000000000000000100010010000000000000000000000F0010000007841000520151103000101 00000000000000000000000000000000000000000000000000000000000000000000000000000000000000000000000000000000000000000N 00000000000NCONT   00    00000000000          00000000000000000000000000000000000000000000 000000000000000A000000000000000000000000000000000000000000000 000000000000000000000000000000000000000     00000000                                                                                                                        000000000000000000
F0010000007841100001000000866840800011050500000000000000000201511030002001CACHARRERIA MARTIN                                D000000002600000000000000000000000100010010000000000000000000000F0010000007841100120151103000101 00000000000000000000000000000000000000000000000000000000000000000000000000000000000000000000000000000000000000000N 00000000000NCONT   00    00000000000          00000000000000000000000000000000000000000000 000000000000000A000000000000000000000000000000000000000000000 000000000000000000000000000000000000000     00000000                                                                                                                        000000000000000000
F0010000007841100002000000866840800041450500000000000000000201511030002001CACHARRERIA MARTIN                                C000000002200000000000000000000000100010010000000000000000000000F0010000007841100220151103000101 00000000000000000000000000000000000000000000000000000000000000000000000000000000000000000000000000000000000000000N 00000000000NCONT   00    00000000000          00000000000000000000000000000000000000000000 000000000000000A000000000000000000000000000000000000000000000 000000000000000000000000000000000000000     00000000                                                                                                                        000000000000000000
F0010000007841100003000000866840800042505000000000000000000201511030002001CACHARRERIA MARTIN                                C000000000400000000000000000000000100010010000000000000000000000F0010000007841100320151103000101 00000000000000000000000000000000000000000000000000000000000000000000000000000000000000000000000000000000000000000N 00000000000NCONT   00    00000000000          00000000000000000000000000000000000000000000 000000000000000A000000000000000000000000000000000000000000000 000000000000000000000000000000000000000     00000000                                                                                                                        000000000000000000
F0010000007841100004000000866840800023658300000000000000000201511030002001CACHARRERIA MARTIN                                C000000000017600000000000000000000100010010000000000000000000000F0010000007841100420151103000101 00000000000000000000000000000000000000000000000000000000000000000000000000000000000000000000000000000000000000000N 00000000000NCONT   00    00000000000          00000000000000000000000000000000000000000000 000000000000000A000000000000000000000000000000000000000000000 000000000000000000000000000000000000000     00000000                                                                                                                        000000000000000000
F0010000007841100005000000866840800013552100000000000000000201511030002001CACHARRERIA MARTIN                                D000000000017600000000000000000000100010010000000000000000000000F0010000007841100520151103000101 00000000000000000000000000000000000000000000000000000000000000000000000000000000000000000000000000000000000000000N 00000000000NCONT   00    00000000000          00000000000000000000000000000000000000000000 000000000000000A000000000000000000000000000000000000000000000 000000000000000000000000000000000000000     00000000                                                                                                                        000000000000000000
F0010000007841200001000000866840800011050500000000000000000201511030002001CACHARRERIA MARTIN                                D000000005500000000000000000000000100010010000000000000000000000F0010000007841200120151103000101 00000000000000000000000000000000000000000000000000000000000000000000000000000000000000000000000000000000000000000N 00000000000NCONT   00    00000000000          00000000000000000000000000000000000000000000 000000000000000A000000000000000000000000000000000000000000000 000000000000000000000000000000000000000     00000000                                                                                                                        000000000000000000
F0010000007841200002000000866840800041450500000000000000000201511030002001CACHARRERIA MARTIN                                C000000004400000000000000000000000100010010000000000000000000000F0010000007841200220151103000101 00000000000000000000000000000000000000000000000000000000000000000000000000000000000000000000000000000000000000000N 00000000000NCONT   00    00000000000          00000000000000000000000000000000000000000000 000000000000000A000000000000000000000000000000000000000000000 000000000000000000000000000000000000000     00000000                                                                                                                        000000000000000000
F0010000007841200003000000866840800042505000000000000000000201511030002001CACHARRERIA MARTIN                                C000000001100000000000000000000000100010010000000000000000000000F0010000007841200320151103000101 00000000000000000000000000000000000000000000000000000000000000000000000000000000000000000000000000000000000000000N 00000000000NCONT   00    00000000000          00000000000000000000000000000000000000000000 000000000000000A000000000000000000000000000000000000000000000 000000000000000000000000000000000000000     00000000                                                                                                                        000000000000000000
F0010000007841200004000000866840800023658300000000000000000201511030002001CACHARRERIA MARTIN                                C000000000035200000000000000000000100010010000000000000000000000F0010000007841200420151103000101 00000000000000000000000000000000000000000000000000000000000000000000000000000000000000000000000000000000000000000N 00000000000NCONT   00    00000000000          00000000000000000000000000000000000000000000 000000000000000A000000000000000000000000000000000000000000000 000000000000000000000000000000000000000     00000000                                                                                                                        000000000000000000
F0010000007841200005000000866840800013552100000000000000000201511030002001CACHARRERIA MARTIN                                D000000000035200000000000000000000100010010000000000000000000000F0010000007841200520151103000101 00000000000000000000000000000000000000000000000000000000000000000000000000000000000000000000000000000000000000000N 00000000000NCONT   00    00000000000          00000000000000000000000000000000000000000000 000000000000000A000000000000000000000000000000000000000000000 000000000000000000000000000000000000000     00000000                                                                                                                        000000000000000000
F0010000007841300001000080202350700011050500000000000000000201511030002001CONNY DE LA COSTA SAS                             D000000001100000000000000000000000100010010000000000000000000000F0010000007841300120151103000101 00000000000000000000000000000000000000000000000000000000000000000000000000000000000000000000000000000000000000000N 00000000000NCONT   00    00000000000          00000000000000000000000000000000000000000000 000000000000000A000000000000000000000000000000000000000000000 000000000000000000000000000000000000000     00000000                                                                                                                        000000000000000000
F0010000007841300002000080202350700041450500000000000000000201511030002001CONNY DE LA COSTA SAS                             C000000000800000000000000000000000100010010000000000000000000000F0010000007841300220151103000101 00000000000000000000000000000000000000000000000000000000000000000000000000000000000000000000000000000000000000000N 00000000000NCONT   00    00000000000          00000000000000000000000000000000000000000000 000000000000000A000000000000000000000000000000000000000000000 000000000000000000000000000000000000000     00000000                                                                                                                        000000000000000000
F0010000007841300003000080202350700042505000000000000000000201511030002001CONNY DE LA COSTA SAS                             C000000000300000000000000000000000100010010000000000000000000000F0010000007841300320151103000101 00000000000000000000000000000000000000000000000000000000000000000000000000000000000000000000000000000000000000000N 00000000000NCONT   00    00000000000          00000000000000000000000000000000000000000000 000000000000000A000000000000000000000000000000000000000000000 000000000000000000000000000000000000000     00000000                                                                                                                        000000000000000000
F0010000007841300004000080202350700023658300000000000000000201511030002001CONNY DE LA COSTA SAS                             C000000000006400000000000000000000100010010000000000000000000000F0010000007841300420151103000101 00000000000000000000000000000000000000000000000000000000000000000000000000000000000000000000000000000000000000000N 00000000000NCONT   00    00000000000          00000000000000000000000000000000000000000000 000000000000000A000000000000000000000000000000000000000000000 000000000000000000000000000000000000000     00000000                                                                                                                        000000000000000000
F0010000007841300005000080202350700013552100000000000000000201511030002001CONNY DE LA COSTA SAS                             D000000000006400000000000000000000100010010000000000000000000000F0010000007841300520151103000101 00000000000000000000000000000000000000000000000000000000000000000000000000000000000000000000000000000000000000000N 00000000000NCONT   00    00000000000          00000000000000000000000000000000000000000000 000000000000000A000000000000000000000000000000000000000000000 000000000000000000000000000000000000000     00000000                                                                                                                        000000000000000000
F0010000007841400001000080202435000011050500000000000000000201511030002001DISTRIBUIDORA MACEA SAS                           D000000001600000000000000000000000100010010000000000000000000000F0010000007841400120151103000101 00000000000000000000000000000000000000000000000000000000000000000000000000000000000000000000000000000000000000000N 00000000000NCONT   00    00000000000          00000000000000000000000000000000000000000000 000000000000000A000000000000000000000000000000000000000000000 000000000000000000000000000000000000000     00000000                                                                                                                        000000000000000000
F0010000007841400002000080202435000041450500000000000000000201511030002001DISTRIBUIDORA MACEA SAS                           C000000001350000000000000000000000100010010000000000000000000000F0010000007841400220151103000101 00000000000000000000000000000000000000000000000000000000000000000000000000000000000000000000000000000000000000000N 00000000000NCONT   00    00000000000          00000000000000000000000000000000000000000000 000000000000000A000000000000000000000000000000000000000000000 000000000000000000000000000000000000000     00000000                                                                                                                        000000000000000000
F0010000007841400003000080202435000042505000000000000000000201511030002001DISTRIBUIDORA MACEA SAS                           C000000000250000000000000000000000100010010000000000000000000000F0010000007841400320151103000101 00000000000000000000000000000000000000000000000000000000000000000000000000000000000000000000000000000000000000000N 00000000000NCONT   00    00000000000          00000000000000000000000000000000000000000000 000000000000000A000000000000000000000000000000000000000000000 000000000000000000000000000000000000000     00000000                                                                                                                        000000000000000000
F0010000007841400004000080202435000023658300000000000000000201511030002001DISTRIBUIDORA MACEA SAS                           C000000000010800000000000000000000100010010000000000000000000000F0010000007841400420151103000101 00000000000000000000000000000000000000000000000000000000000000000000000000000000000000000000000000000000000000000N 00000000000NCONT   00    00000000000          00000000000000000000000000000000000000000000 000000000000000A000000000000000000000000000000000000000000000 000000000000000000000000000000000000000     00000000                                                                                                                        000000000000000000
F0010000007841400005000080202435000013552100000000000000000201511030002001DISTRIBUIDORA MACEA SAS                           D000000000010800000000000000000000100010010000000000000000000000F0010000007841400520151103000101 00000000000000000000000000000000000000000000000000000000000000000000000000000000000000000000000000000000000000000N 00000000000NCONT   00    00000000000          00000000000000000000000000000000000000000000 000000000000000A000000000000000000000000000000000000000000000 000000000000000000000000000000000000000     00000000                                                                                                                        000000000000000000
F0010000007841500001000080202350700011050500000000000000000201511030002001CONNY DE LA COSTA SAS                             D000000035000000000000000000000000100010010000000000000000000000F0010000007841500120151103000101 00000000000000000000000000000000000000000000000000000000000000000000000000000000000000000000000000000000000000000N 00000000000NCONT   00    00000000000          00000000000000000000000000000000000000000000 000000000000000A000000000000000000000000000000000000000000000 000000000000000000000000000000000000000     00000000                                                                                                                        000000000000000000
F0010000007841500002000080202350700041450500000000000000000201511030002001CONNY DE LA COSTA SAS                             C000000025000000000000000000000000100010010000000000000000000000F0010000007841500220151103000101 00000000000000000000000000000000000000000000000000000000000000000000000000000000000000000000000000000000000000000N 00000000000NCONT   00    00000000000          00000000000000000000000000000000000000000000 000000000000000A000000000000000000000000000000000000000000000 000000000000000000000000000000000000000     00000000                                                                                                                        000000000000000000
F0010000007841500003000080202350700042505000000000000000000201511030002001CONNY DE LA COSTA SAS                             C000000010000000000000000000000000100010010000000000000000000000F0010000007841500320151103000101 00000000000000000000000000000000000000000000000000000000000000000000000000000000000000000000000000000000000000000N 00000000000NCONT   00    00000000000          00000000000000000000000000000000000000000000 000000000000000A000000000000000000000000000000000000000000000 000000000000000000000000000000000000000     00000000                                                                                                                        000000000000000000
F0010000007841500004000080202350700023658300000000000000000201511030002001CONNY DE LA COSTA SAS                             C000000000200000000000000000000000100010010000000000000000000000F0010000007841500420151103000101 00000000000000000000000000000000000000000000000000000000000000000000000000000000000000000000000000000000000000000N 00000000000NCONT   00    00000000000          00000000000000000000000000000000000000000000 000000000000000A000000000000000000000000000000000000000000000 000000000000000000000000000000000000000     00000000                                                                                                                        000000000000000000
F0010000007841500005000080202350700013552100000000000000000201511030002001CONNY DE LA COSTA SAS                             D000000000200000000000000000000000100010010000000000000000000000F0010000007841500520151103000101 00000000000000000000000000000000000000000000000000000000000000000000000000000000000000000000000000000000000000000N 00000000000NCONT   00    00000000000          00000000000000000000000000000000000000000000 000000000000000A000000000000000000000000000000000000000000000 000000000000000000000000000000000000000     00000000                                                                                                                        000000000000000000
F0010000007841600001000090053611800011050500000000000000000201511030002001PELETERIA COSTA CARIBE S.A .S                     D000000002184000000000000000000000100010010000000000000000000000F0010000007841600120151103000101 00000000000000000000000000000000000000000000000000000000000000000000000000000000000000000000000000000000000000000N 00000000000NCONT   00    00000000000          00000000000000000000000000000000000000000000 000000000000000A000000000000000000000000000000000000000000000 000000000000000000000000000000000000000     00000000                                                                                                                        000000000000000000
F0010000007841600002000090053611800041450500000000000000000201511030002001PELETERIA COSTA CARIBE S.A .S                     C000000001664000000000000000000000100010010000000000000000000000F0010000007841600220151103000101 00000000000000000000000000000000000000000000000000000000000000000000000000000000000000000000000000000000000000000N 00000000000NCONT   00    00000000000          00000000000000000000000000000000000000000000 000000000000000A000000000000000000000000000000000000000000000 000000000000000000000000000000000000000     00000000                                                                                                                        000000000000000000
F0010000007841600003000090053611800042505000000000000000000201511030002001PELETERIA COSTA CARIBE S.A .S                     C000000000520000000000000000000000100010010000000000000000000000F0010000007841600320151103000101 00000000000000000000000000000000000000000000000000000000000000000000000000000000000000000000000000000000000000000N 00000000000NCONT   00    00000000000          00000000000000000000000000000000000000000000 000000000000000A000000000000000000000000000000000000000000000 000000000000000000000000000000000000000     00000000                                                                                                                        000000000000000000
F0010000007841600004000090053611800023658300000000000000000201511030002001PELETERIA COSTA CARIBE S.A .S                     C000000000013300000000000000000000100010010000000000000000000000F0010000007841600420151103000101 00000000000000000000000000000000000000000000000000000000000000000000000000000000000000000000000000000000000000000N 00000000000NCONT   00    00000000000          00000000000000000000000000000000000000000000 000000000000000A000000000000000000000000000000000000000000000 000000000000000000000000000000000000000     00000000                                                                                                                        000000000000000000
F0010000007841600005000090053611800013552100000000000000000201511030002001PELETERIA COSTA CARIBE S.A .S                     D000000000013300000000000000000000100010010000000000000000000000F0010000007841600520151103000101 00000000000000000000000000000000000000000000000000000000000000000000000000000000000000000000000000000000000000000N 00000000000NCONT   00    00000000000          00000000000000000000000000000000000000000000 000000000000000A000000000000000000000000000000000000000000000 000000000000000000000000000000000000000     00000000                                                                                                                        000000000000000000
F0010000007841700001000002245670100011050500000000000000000201511030002001YOLANDA  TOBON                                    D000000002710000000000000000000000100010010000000000000000000000F0010000007841700120151103000101 00000000000000000000000000000000000000000000000000000000000000000000000000000000000000000000000000000000000000000N 00000000000NCONT   00    00000000000          00000000000000000000000000000000000000000000 000000000000000A000000000000000000000000000000000000000000000 000000000000000000000000000000000000000     00000000                                                                                                                        000000000000000000
F0010000007841700002000002245670100041450500000000000000000201511030002001YOLANDA  TOBON                                    C000000002160000000000000000000000100010010000000000000000000000F0010000007841700220151103000101 00000000000000000000000000000000000000000000000000000000000000000000000000000000000000000000000000000000000000000N 00000000000NCONT   00    00000000000          00000000000000000000000000000000000000000000 000000000000000A000000000000000000000000000000000000000000000 000000000000000000000000000000000000000     00000000                                                                                                                        000000000000000000
F0010000007841700003000002245670100042505000000000000000000201511030002001YOLANDA  TOBON                                    C000000000550000000000000000000000100010010000000000000000000000F0010000007841700320151103000101 00000000000000000000000000000000000000000000000000000000000000000000000000000000000000000000000000000000000000000N 00000000000NCONT   00    00000000000          00000000000000000000000000000000000000000000 000000000000000A000000000000000000000000000000000000000000000 000000000000000000000000000000000000000     00000000                                                                                                                        000000000000000000
F0010000007841700004000002245670100023658300000000000000000201511030002001YOLANDA  TOBON                                    C000000000017300000000000000000000100010010000000000000000000000F0010000007841700420151103000101 00000000000000000000000000000000000000000000000000000000000000000000000000000000000000000000000000000000000000000N 00000000000NCONT   00    00000000000          00000000000000000000000000000000000000000000 000000000000000A000000000000000000000000000000000000000000000 000000000000000000000000000000000000000     00000000                                                                                                                        000000000000000000
F0010000007841700005000002245670100013552100000000000000000201511030002001YOLANDA  TOBON                                    D000000000017300000000000000000000100010010000000000000000000000F0010000007841700520151103000101 00000000000000000000000000000000000000000000000000000000000000000000000000000000000000000000000000000000000000000N 00000000000NCONT   00    00000000000          00000000000000000000000000000000000000000000 000000000000000A000000000000000000000000000000000000000000000 000000000000000000000000000000000000000     00000000                                                                                                                        000000000000000000
F0010000007841800001000000870907300011050500000000000000000201511030002001SURTIDOR FERRETERO                                D000000008226700000000000000000000100010010000000000000000000000F0010000007841800120151103000101 00000000000000000000000000000000000000000000000000000000000000000000000000000000000000000000000000000000000000000N 00000000000NCONT   00    00000000000          00000000000000000000000000000000000000000000 000000000000000A000000000000000000000000000000000000000000000 000000000000000000000000000000000000000     00000000                                                                                                                        000000000000000000
F0010000007841800002000000870907300041450500000000000000000201511030002001SURTIDOR FERRETERO                                C000000006426700000000000000000000100010010000000000000000000000F0010000007841800220151103000101 00000000000000000000000000000000000000000000000000000000000000000000000000000000000000000000000000000000000000000N 00000000000NCONT   00    00000000000          00000000000000000000000000000000000000000000 000000000000000A000000000000000000000000000000000000000000000 000000000000000000000000000000000000000     00000000                                                                                                                        000000000000000000
F0010000007841800003000000870907300042505000000000000000000201511030002001SURTIDOR FERRETERO                                C000000001800000000000000000000000100010010000000000000000000000F0010000007841800320151103000101 00000000000000000000000000000000000000000000000000000000000000000000000000000000000000000000000000000000000000000N 00000000000NCONT   00    00000000000          00000000000000000000000000000000000000000000 000000000000000A000000000000000000000000000000000000000000000 000000000000000000000000000000000000000     00000000                                                                                                                        000000000000000000
F0010000007841800004000000870907300023658300000000000000000201511030002001SURTIDOR FERRETERO                                C000000000051400000000000000000000100010010000000000000000000000F0010000007841800420151103000101 00000000000000000000000000000000000000000000000000000000000000000000000000000000000000000000000000000000000000000N 00000000000NCONT   00    00000000000          00000000000000000000000000000000000000000000 000000000000000A000000000000000000000000000000000000000000000 000000000000000000000000000000000000000     00000000                                                                                                                        000000000000000000
F0010000007841800005000000870907300013552100000000000000000201511030002001SURTIDOR FERRETERO                                D000000000051400000000000000000000100010010000000000000000000000F0010000007841800520151103000101 00000000000000000000000000000000000000000000000000000000000000000000000000000000000000000000000000000000000000000N 00000000000NCONT   00    00000000000          00000000000000000000000000000000000000000000 000000000000000A000000000000000000000000000000000000000000000 000000000000000000000000000000000000000     00000000                                                                                                                        000000000000000000
F0010000007841900001000000870907300011050500000000000000000201511030002001SURTIDOR FERRETERO                                D000000002600000000000000000000000100010010000000000000000000000F0010000007841900120151103000101 00000000000000000000000000000000000000000000000000000000000000000000000000000000000000000000000000000000000000000N 00000000000NCONT   00    00000000000          00000000000000000000000000000000000000000000 000000000000000A000000000000000000000000000000000000000000000 000000000000000000000000000000000000000     00000000                                                                                                                        000000000000000000
F0010000007841900002000000870907300041450500000000000000000201511030002001SURTIDOR FERRETERO                                C000000001600000000000000000000000100010010000000000000000000000F0010000007841900220151103000101 00000000000000000000000000000000000000000000000000000000000000000000000000000000000000000000000000000000000000000N 00000000000NCONT   00    00000000000          00000000000000000000000000000000000000000000 000000000000000A000000000000000000000000000000000000000000000 000000000000000000000000000000000000000     00000000                                                                                                                        000000000000000000
F0010000007841900003000000870907300042505000000000000000000201511030002001SURTIDOR FERRETERO                                C000000001000000000000000000000000100010010000000000000000000000F0010000007841900320151103000101 00000000000000000000000000000000000000000000000000000000000000000000000000000000000000000000000000000000000000000N 00000000000NCONT   00    00000000000          00000000000000000000000000000000000000000000 000000000000000A000000000000000000000000000000000000000000000 000000000000000000000000000000000000000     00000000                                                                                                                        000000000000000000
F0010000007841900004000000870907300023658300000000000000000201511030002001SURTIDOR FERRETERO                                C000000000012800000000000000000000100010010000000000000000000000F0010000007841900420151103000101 00000000000000000000000000000000000000000000000000000000000000000000000000000000000000000000000000000000000000000N 00000000000NCONT   00    00000000000          00000000000000000000000000000000000000000000 000000000000000A000000000000000000000000000000000000000000000 000000000000000000000000000000000000000     00000000                                                                                                                        000000000000000000
F0010000007841900005000000870907300013552100000000000000000201511030002001SURTIDOR FERRETERO                                D000000000012800000000000000000000100010010000000000000000000000F0010000007841900520151103000101 00000000000000000000000000000000000000000000000000000000000000000000000000000000000000000000000000000000000000000N 00000000000NCONT   00    00000000000          00000000000000000000000000000000000000000000 000000000000000A000000000000000000000000000000000000000000000 000000000000000000000000000000000000000     00000000                                                                                                                        000000000000000000
F0010000007842000001000000870907300011050500000000000000000201511030002001SURTIDOR FERRETERO                                D000000001020000000000000000000000100010010000000000000000000000F0010000007842000120151103000101 00000000000000000000000000000000000000000000000000000000000000000000000000000000000000000000000000000000000000000N 00000000000NCONT   00    00000000000          00000000000000000000000000000000000000000000 000000000000000A000000000000000000000000000000000000000000000 000000000000000000000000000000000000000     00000000                                                                                                                        000000000000000000
F0010000007842000002000000870907300041450500000000000000000201511030002001SURTIDOR FERRETERO                                C000000000800000000000000000000000100010010000000000000000000000F0010000007842000220151103000101 00000000000000000000000000000000000000000000000000000000000000000000000000000000000000000000000000000000000000000N 00000000000NCONT   00    00000000000          00000000000000000000000000000000000000000000 000000000000000A000000000000000000000000000000000000000000000 000000000000000000000000000000000000000     00000000                                                                                                                        000000000000000000
F0010000007842000003000000870907300042505000000000000000000201511030002001SURTIDOR FERRETERO                                C000000000220000000000000000000000100010010000000000000000000000F0010000007842000320151103000101 00000000000000000000000000000000000000000000000000000000000000000000000000000000000000000000000000000000000000000N 00000000000NCONT   00    00000000000          00000000000000000000000000000000000000000000 000000000000000A000000000000000000000000000000000000000000000 000000000000000000000000000000000000000     00000000                                                                                                                        000000000000000000
F0010000007842000004000000870907300023658300000000000000000201511030002001SURTIDOR FERRETERO                                C000000000006400000000000000000000100010010000000000000000000000F0010000007842000420151103000101 00000000000000000000000000000000000000000000000000000000000000000000000000000000000000000000000000000000000000000N 00000000000NCONT   00    00000000000          00000000000000000000000000000000000000000000 000000000000000A000000000000000000000000000000000000000000000 000000000000000000000000000000000000000     00000000                                                                                                                        000000000000000000
F0010000007842000005000000870907300013552100000000000000000201511030002001SURTIDOR FERRETERO                                D000000000006400000000000000000000100010010000000000000000000000F0010000007842000520151103000101 00000000000000000000000000000000000000000000000000000000000000000000000000000000000000000000000000000000000000000N 00000000000NCONT   00    00000000000          00000000000000000000000000000000000000000000 000000000000000A000000000000000000000000000000000000000000000 000000000000000000000000000000000000000     00000000                                                                                                                        000000000000000000
F0010000007842100001000000431178400011050500000000000000000201511030002001EFRAIN ALVAREZ                                    D000000000910000000000000000000000100010010000000000000000000000F0010000007842100120151103000101 00000000000000000000000000000000000000000000000000000000000000000000000000000000000000000000000000000000000000000N 00000000000NCONT   00    00000000000          00000000000000000000000000000000000000000000 000000000000000A000000000000000000000000000000000000000000000 000000000000000000000000000000000000000     00000000                                                                                                                        000000000000000000
F0010000007842100002000000431178400041450500000000000000000201511030002001EFRAIN ALVAREZ                                    C000000000860000000000000000000000100010010000000000000000000000F0010000007842100220151103000101 00000000000000000000000000000000000000000000000000000000000000000000000000000000000000000000000000000000000000000N 00000000000NCONT   00    00000000000          00000000000000000000000000000000000000000000 000000000000000A000000000000000000000000000000000000000000000 000000000000000000000000000000000000000     00000000                                                                                                                        000000000000000000
F0010000007842100003000000431178400042505000000000000000000201511030002001EFRAIN ALVAREZ                                    C000000000050000000000000000000000100010010000000000000000000000F0010000007842100320151103000101 00000000000000000000000000000000000000000000000000000000000000000000000000000000000000000000000000000000000000000N 00000000000NCONT   00    00000000000          00000000000000000000000000000000000000000000 000000000000000A000000000000000000000000000000000000000000000 000000000000000000000000000000000000000     00000000                                                                                                                        000000000000000000
