F0010000008966800001000080002300200013050500000000000000000201608090002001DISREL S.A.                                       D000000042675000000000000000000000100010010000000000000000000000F0010000008966800120160809000101 00000000000000000000000000000000000000000000000000000000000000000000000000000000000000000000000000000000000000000N 00000000000NCONT   00    00000000000          00000000000000000000000000000000000000000000 000000000000000A000000000000000000000000000000000000000000000 000000000000000000000000000000000000000     00000000                                                                                                                        000000000000000000
F0010000008966800002000080002300200041450500000000000000000201608090002001DISREL S.A.                                       C000000034530000000000000000000000100010010000000000000000000000F0010000008966800220160809000101 00000000000000000000000000000000000000000000000000000000000000000000000000000000000000000000000000000000000000000N 00000000000NCONT   00    00000000000          00000000000000000000000000000000000000000000 000000000000000A000000000000000000000000000000000000000000000 000000000000000000000000000000000000000     00000000                                                                                                                        000000000000000000
F0010000008966800003000080002300200042505000000000000000000201608090002001DISREL S.A.                                       C000000008145000000000000000000000100010010000000000000000000000F0010000008966800320160809000101 00000000000000000000000000000000000000000000000000000000000000000000000000000000000000000000000000000000000000000N 00000000000NCONT   00    00000000000          00000000000000000000000000000000000000000000 000000000000000A000000000000000000000000000000000000000000000 000000000000000000000000000000000000000     00000000                                                                                                                        000000000000000000
F0010000008966800004000080002300200023658300000000000000000201608090002001DISREL S.A.                                       C000000000276200000000000000000000100010010000000000000000000000F0010000008966800420160809000101 00000000000000000000000000000000000000000000000000000000000000000000000000000000000000000000000000000000000000000N 00000000000NCONT   00    00000000000          00000000000000000000000000000000000000000000 000000000000000A000000000000000000000000000000000000000000000 000000000000000000000000000000000000000     00000000                                                                                                                        000000000000000000
F0010000008966800005000080002300200013552100000000000000000201608090002001DISREL S.A.                                       D000000000276200000000000000000000100010010000000000000000000000F0010000008966800520160809000101 00000000000000000000000000000000000000000000000000000000000000000000000000000000000000000000000000000000000000000N 00000000000NCONT   00    00000000000          00000000000000000000000000000000000000000000 000000000000000A000000000000000000000000000000000000000000000 000000000000000000000000000000000000000     00000000                                                                                                                        000000000000000000
F0010000008966900001000086000490200013050500000000000000000201608090002001PROV. DE PAPELES ANDINA S.A.                      D000000048880000000000000000000000100010010000000000000000000000F0010000008966900120160809000101 00000000000000000000000000000000000000000000000000000000000000000000000000000000000000000000000000000000000000000N 00000000000NCONT   00    00000000000          00000000000000000000000000000000000000000000 000000000000000A000000000000000000000000000000000000000000000 000000000000000000000000000000000000000     00000000                                                                                                                        000000000000000000
F0010000008966900002000086000490200041450500000000000000000201608090002001PROV. DE PAPELES ANDINA S.A.                      C000000044276900000000000000000000100010010000000000000000000000F0010000008966900220160809000101 00000000000000000000000000000000000000000000000000000000000000000000000000000000000000000000000000000000000000000N 00000000000NCONT   00    00000000000          00000000000000000000000000000000000000000000 000000000000000A000000000000000000000000000000000000000000000 000000000000000000000000000000000000000     00000000                                                                                                                        000000000000000000
F0010000008966900003000086000490200042505000000000000000000201608090002001PROV. DE PAPELES ANDINA S.A.                      C000000004603100000000000000000000100010010000000000000000000000F0010000008966900320160809000101 00000000000000000000000000000000000000000000000000000000000000000000000000000000000000000000000000000000000000000N 00000000000NCONT   00    00000000000          00000000000000000000000000000000000000000000 000000000000000A000000000000000000000000000000000000000000000 000000000000000000000000000000000000000     00000000                                                                                                                        000000000000000000
F0010000008966900004000086000490200023658300000000000000000201608090002001PROV. DE PAPELES ANDINA S.A.                      C000000000354200000000000000000000100010010000000000000000000000F0010000008966900420160809000101 00000000000000000000000000000000000000000000000000000000000000000000000000000000000000000000000000000000000000000N 00000000000NCONT   00    00000000000          00000000000000000000000000000000000000000000 000000000000000A000000000000000000000000000000000000000000000 000000000000000000000000000000000000000     00000000                                                                                                                        000000000000000000
F0010000008966900005000086000490200013552100000000000000000201608090002001PROV. DE PAPELES ANDINA S.A.                      D000000000354200000000000000000000100010010000000000000000000000F0010000008966900520160809000101 00000000000000000000000000000000000000000000000000000000000000000000000000000000000000000000000000000000000000000N 00000000000NCONT   00    00000000000          00000000000000000000000000000000000000000000 000000000000000A000000000000000000000000000000000000000000000 000000000000000000000000000000000000000     00000000                                                                                                                        000000000000000000
F0010000008967000001000089011492400013050500000000000000000201608090002001AGE. CAUCHO SOL DE LA COSTA  SAS                  D000000113564500000000000000000000100010010000000000000000000000F0010000008967000120160809000101 00000000000000000000000000000000000000000000000000000000000000000000000000000000000000000000000000000000000000000N 00000000000NCONT   00    00000000000          00000000000000000000000000000000000000000000 000000000000000A000000000000000000000000000000000000000000000 000000000000000000000000000000000000000     00000000                                                                                                                        000000000000000000
F0010000008967000002000089011492400041450500000000000000000201608090002001AGE. CAUCHO SOL DE LA COSTA  SAS                  C000000060000000000000000000000000100010010000000000000000000000F0010000008967000220160809000101 00000000000000000000000000000000000000000000000000000000000000000000000000000000000000000000000000000000000000000N 00000000000NCONT   00    00000000000          00000000000000000000000000000000000000000000 000000000000000A000000000000000000000000000000000000000000000 000000000000000000000000000000000000000     00000000                                                                                                                        000000000000000000
F0010000008967000003000089011492400042505000000000000000000201608090002001AGE. CAUCHO SOL DE LA COSTA  SAS                  C000000053564500000000000000000000100010010000000000000000000000F0010000008967000320160809000101 00000000000000000000000000000000000000000000000000000000000000000000000000000000000000000000000000000000000000000N 00000000000NCONT   00    00000000000          00000000000000000000000000000000000000000000 000000000000000A000000000000000000000000000000000000000000000 000000000000000000000000000000000000000     00000000                                                                                                                        000000000000000000
F0010000008967000004000089011492400023658300000000000000000201608090002001AGE. CAUCHO SOL DE LA COSTA  SAS                  C000000000480000000000000000000000100010010000000000000000000000F0010000008967000420160809000101 00000000000000000000000000000000000000000000000000000000000000000000000000000000000000000000000000000000000000000N 00000000000NCONT   00    00000000000          00000000000000000000000000000000000000000000 000000000000000A000000000000000000000000000000000000000000000 000000000000000000000000000000000000000     00000000                                                                                                                        000000000000000000
F0010000008967000005000089011492400013552100000000000000000201608090002001AGE. CAUCHO SOL DE LA COSTA  SAS                  D000000000480000000000000000000000100010010000000000000000000000F0010000008967000520160809000101 00000000000000000000000000000000000000000000000000000000000000000000000000000000000000000000000000000000000000000N 00000000000NCONT   00    00000000000          00000000000000000000000000000000000000000000 000000000000000A000000000000000000000000000000000000000000000 000000000000000000000000000000000000000     00000000                                                                                                                        000000000000000000
F0010000008967100001000000748239700013050500000000000000000201608090002001RAFAEL NAVARRO URIBE                              D000000059357600000000000000000000100010010000000000000000000000F0010000008967100120160809000101 00000000000000000000000000000000000000000000000000000000000000000000000000000000000000000000000000000000000000000N 00000000000NCONT   00    00000000000          00000000000000000000000000000000000000000000 000000000000000A000000000000000000000000000000000000000000000 000000000000000000000000000000000000000     00000000                                                                                                                        000000000000000000
F0010000008967100002000000748239700041450500000000000000000201608090002001RAFAEL NAVARRO URIBE                              C000000044750000000000000000000000100010010000000000000000000000F0010000008967100220160809000101 00000000000000000000000000000000000000000000000000000000000000000000000000000000000000000000000000000000000000000N 00000000000NCONT   00    00000000000          00000000000000000000000000000000000000000000 000000000000000A000000000000000000000000000000000000000000000 000000000000000000000000000000000000000     00000000                                                                                                                        000000000000000000
F0010000008967100003000000748239700042505000000000000000000201608090002001RAFAEL NAVARRO URIBE                              C000000014607600000000000000000000100010010000000000000000000000F0010000008967100320160809000101 00000000000000000000000000000000000000000000000000000000000000000000000000000000000000000000000000000000000000000N 00000000000NCONT   00    00000000000          00000000000000000000000000000000000000000000 000000000000000A000000000000000000000000000000000000000000000 000000000000000000000000000000000000000     00000000                                                                                                                        000000000000000000
F0010000008967100004000000748239700023658300000000000000000201608090002001RAFAEL NAVARRO URIBE                              C000000000358000000000000000000000100010010000000000000000000000F0010000008967100420160809000101 00000000000000000000000000000000000000000000000000000000000000000000000000000000000000000000000000000000000000000N 00000000000NCONT   00    00000000000          00000000000000000000000000000000000000000000 000000000000000A000000000000000000000000000000000000000000000 000000000000000000000000000000000000000     00000000                                                                                                                        000000000000000000
F0010000008967100005000000748239700013552100000000000000000201608090002001RAFAEL NAVARRO URIBE                              D000000000358000000000000000000000100010010000000000000000000000F0010000008967100520160809000101 00000000000000000000000000000000000000000000000000000000000000000000000000000000000000000000000000000000000000000N 00000000000NCONT   00    00000000000          00000000000000000000000000000000000000000000 000000000000000A000000000000000000000000000000000000000000000 000000000000000000000000000000000000000     00000000                                                                                                                        000000000000000000
F0010000008967200001000090064982900013050500000000000000000201608090002001DISDIES S.A.S                                     D000000076252400000000000000000000100010010000000000000000000000F0010000008967200120160809000101 00000000000000000000000000000000000000000000000000000000000000000000000000000000000000000000000000000000000000000N 00000000000NCONT   00    00000000000          00000000000000000000000000000000000000000000 000000000000000A000000000000000000000000000000000000000000000 000000000000000000000000000000000000000     00000000                                                                                                                        000000000000000000
F0010000008967200002000090064982900041450500000000000000000201608090002001DISDIES S.A.S                                     C000000068477400000000000000000000100010010000000000000000000000F0010000008967200220160809000101 00000000000000000000000000000000000000000000000000000000000000000000000000000000000000000000000000000000000000000N 00000000000NCONT   00    00000000000          00000000000000000000000000000000000000000000 000000000000000A000000000000000000000000000000000000000000000 000000000000000000000000000000000000000     00000000                                                                                                                        000000000000000000
F0010000008967200003000090064982900042505000000000000000000201608090002001DISDIES S.A.S                                     C000000007775000000000000000000000100010010000000000000000000000F0010000008967200320160809000101 00000000000000000000000000000000000000000000000000000000000000000000000000000000000000000000000000000000000000000N 00000000000NCONT   00    00000000000          00000000000000000000000000000000000000000000 000000000000000A000000000000000000000000000000000000000000000 000000000000000000000000000000000000000     00000000                                                                                                                        000000000000000000
F0010000008967200004000090064982900023658300000000000000000201608090002001DISDIES S.A.S                                     C000000000547800000000000000000000100010010000000000000000000000F0010000008967200420160809000101 00000000000000000000000000000000000000000000000000000000000000000000000000000000000000000000000000000000000000000N 00000000000NCONT   00    00000000000          00000000000000000000000000000000000000000000 000000000000000A000000000000000000000000000000000000000000000 000000000000000000000000000000000000000     00000000                                                                                                                        000000000000000000
F0010000008967200005000090064982900013552100000000000000000201608090002001DISDIES S.A.S                                     D000000000547800000000000000000000100010010000000000000000000000F0010000008967200520160809000101 00000000000000000000000000000000000000000000000000000000000000000000000000000000000000000000000000000000000000000N 00000000000NCONT   00    00000000000          00000000000000000000000000000000000000000000 000000000000000A000000000000000000000000000000000000000000000 000000000000000000000000000000000000000     00000000                                                                                                                        000000000000000000
F0010000008967300001000090008711200013050500000000000000000201608090002001PACKAGING SUPPLIERS S.A.                          D000000058002300000000000000000000100010010000000000000000000000F0010000008967300120160809000101 00000000000000000000000000000000000000000000000000000000000000000000000000000000000000000000000000000000000000000N 00000000000NCONT   00    00000000000          00000000000000000000000000000000000000000000 000000000000000A000000000000000000000000000000000000000000000 000000000000000000000000000000000000000     00000000                                                                                                                        000000000000000000
F0010000008967300002000090008711200041450500000000000000000201608090002001PACKAGING SUPPLIERS S.A.                          C000000052861800000000000000000000100010010000000000000000000000F0010000008967300220160809000101 00000000000000000000000000000000000000000000000000000000000000000000000000000000000000000000000000000000000000000N 00000000000NCONT   00    00000000000          00000000000000000000000000000000000000000000 000000000000000A000000000000000000000000000000000000000000000 000000000000000000000000000000000000000     00000000                                                                                                                        000000000000000000
F0010000008967300003000090008711200042505000000000000000000201608090002001PACKAGING SUPPLIERS S.A.                          C000000005140500000000000000000000100010010000000000000000000000F0010000008967300320160809000101 00000000000000000000000000000000000000000000000000000000000000000000000000000000000000000000000000000000000000000N 00000000000NCONT   00    00000000000          00000000000000000000000000000000000000000000 000000000000000A000000000000000000000000000000000000000000000 000000000000000000000000000000000000000     00000000                                                                                                                        000000000000000000
F0010000008967300004000090008711200023658300000000000000000201608090002001PACKAGING SUPPLIERS S.A.                          C000000000422900000000000000000000100010010000000000000000000000F0010000008967300420160809000101 00000000000000000000000000000000000000000000000000000000000000000000000000000000000000000000000000000000000000000N 00000000000NCONT   00    00000000000          00000000000000000000000000000000000000000000 000000000000000A000000000000000000000000000000000000000000000 000000000000000000000000000000000000000     00000000                                                                                                                        000000000000000000
F0010000008967300005000090008711200013552100000000000000000201608090002001PACKAGING SUPPLIERS S.A.                          D000000000422900000000000000000000100010010000000000000000000000F0010000008967300520160809000101 00000000000000000000000000000000000000000000000000000000000000000000000000000000000000000000000000000000000000000N 00000000000NCONT   00    00000000000          00000000000000000000000000000000000000000000 000000000000000A000000000000000000000000000000000000000000000 000000000000000000000000000000000000000     00000000                                                                                                                        000000000000000000
F0010000008967400001000080202094000013050500000000000000000201608090002001DISTRIB. OMAR ORREGO S.A.                         D000000076853700000000000000000000100010010000000000000000000000F0010000008967400120160809000101 00000000000000000000000000000000000000000000000000000000000000000000000000000000000000000000000000000000000000000N 00000000000NCONT   00    00000000000          00000000000000000000000000000000000000000000 000000000000000A000000000000000000000000000000000000000000000 000000000000000000000000000000000000000     00000000                                                                                                                        000000000000000000
F0010000008967400002000080202094000041450500000000000000000201608090002001DISTRIB. OMAR ORREGO S.A.                         C000000049500000000000000000000000100010010000000000000000000000F0010000008967400220160809000101 00000000000000000000000000000000000000000000000000000000000000000000000000000000000000000000000000000000000000000N 00000000000NCONT   00    00000000000          00000000000000000000000000000000000000000000 000000000000000A000000000000000000000000000000000000000000000 000000000000000000000000000000000000000     00000000                                                                                                                        000000000000000000
F0010000008967400003000080202094000042505000000000000000000201608090002001DISTRIB. OMAR ORREGO S.A.                         C000000027353700000000000000000000100010010000000000000000000000F0010000008967400320160809000101 00000000000000000000000000000000000000000000000000000000000000000000000000000000000000000000000000000000000000000N 00000000000NCONT   00    00000000000          00000000000000000000000000000000000000000000 000000000000000A000000000000000000000000000000000000000000000 000000000000000000000000000000000000000     00000000                                                                                                                        000000000000000000
F0010000008967400004000080202094000023658300000000000000000201608090002001DISTRIB. OMAR ORREGO S.A.                         C000000000396000000000000000000000100010010000000000000000000000F0010000008967400420160809000101 00000000000000000000000000000000000000000000000000000000000000000000000000000000000000000000000000000000000000000N 00000000000NCONT   00    00000000000          00000000000000000000000000000000000000000000 000000000000000A000000000000000000000000000000000000000000000 000000000000000000000000000000000000000     00000000                                                                                                                        000000000000000000
F0010000008967400005000080202094000013552100000000000000000201608090002001DISTRIB. OMAR ORREGO S.A.                         D000000000396000000000000000000000100010010000000000000000000000F0010000008967400520160809000101 00000000000000000000000000000000000000000000000000000000000000000000000000000000000000000000000000000000000000000N 00000000000NCONT   00    00000000000          00000000000000000000000000000000000000000000 000000000000000A000000000000000000000000000000000000000000000 000000000000000000000000000000000000000     00000000                                                                                                                        000000000000000000
F0010000008967500001000080202094000013050500000000000000000201608090002001DISTRIB. OMAR ORREGO S.A.                         D000000014558500000000000000000000100010010000000000000000000000F0010000008967500120160809000101 00000000000000000000000000000000000000000000000000000000000000000000000000000000000000000000000000000000000000000N 00000000000NCONT   00    00000000000          00000000000000000000000000000000000000000000 000000000000000A000000000000000000000000000000000000000000000 000000000000000000000000000000000000000     00000000                                                                                                                        000000000000000000
F0010000008967500002000080202094000041450500000000000000000201608090002001DISTRIB. OMAR ORREGO S.A.                         C000000010770000000000000000000000100010010000000000000000000000F0010000008967500220160809000101 00000000000000000000000000000000000000000000000000000000000000000000000000000000000000000000000000000000000000000N 00000000000NCONT   00    00000000000          00000000000000000000000000000000000000000000 000000000000000A000000000000000000000000000000000000000000000 000000000000000000000000000000000000000     00000000                                                                                                                        000000000000000000
F0010000008967500003000080202094000042505000000000000000000201608090002001DISTRIB. OMAR ORREGO S.A.                         C000000003788500000000000000000000100010010000000000000000000000F0010000008967500320160809000101 00000000000000000000000000000000000000000000000000000000000000000000000000000000000000000000000000000000000000000N 00000000000NCONT   00    00000000000          00000000000000000000000000000000000000000000 000000000000000A000000000000000000000000000000000000000000000 000000000000000000000000000000000000000     00000000                                                                                                                        000000000000000000
F0010000008967500004000080202094000023658300000000000000000201608090002001DISTRIB. OMAR ORREGO S.A.                         C000000000086200000000000000000000100010010000000000000000000000F0010000008967500420160809000101 00000000000000000000000000000000000000000000000000000000000000000000000000000000000000000000000000000000000000000N 00000000000NCONT   00    00000000000          00000000000000000000000000000000000000000000 000000000000000A000000000000000000000000000000000000000000000 000000000000000000000000000000000000000     00000000                                                                                                                        000000000000000000
F0010000008967500005000080202094000013552100000000000000000201608090002001DISTRIB. OMAR ORREGO S.A.                         D000000000086200000000000000000000100010010000000000000000000000F0010000008967500520160809000101 00000000000000000000000000000000000000000000000000000000000000000000000000000000000000000000000000000000000000000N 00000000000NCONT   00    00000000000          00000000000000000000000000000000000000000000 000000000000000A000000000000000000000000000000000000000000000 000000000000000000000000000000000000000     00000000                                                                                                                        000000000000000000
F0010000008967600001000089010260300013050500000000000000000201608090002001FEDERICO OSORIO A. S.A.                           D000000127171000000000000000000000100010010000000000000000000000F0010000008967600120160809000101 00000000000000000000000000000000000000000000000000000000000000000000000000000000000000000000000000000000000000000N 00000000000NCONT   00    00000000000          00000000000000000000000000000000000000000000 000000000000000A000000000000000000000000000000000000000000000 000000000000000000000000000000000000000     00000000                                                                                                                        000000000000000000
F0010000008967600002000089010260300041450500000000000000000201608090002001FEDERICO OSORIO A. S.A.                           C000000118460000000000000000000000100010010000000000000000000000F0010000008967600220160809000101 00000000000000000000000000000000000000000000000000000000000000000000000000000000000000000000000000000000000000000N 00000000000NCONT   00    00000000000          00000000000000000000000000000000000000000000 000000000000000A000000000000000000000000000000000000000000000 000000000000000000000000000000000000000     00000000                                                                                                                        000000000000000000
F0010000008967600003000089010260300042505000000000000000000201608090002001FEDERICO OSORIO A. S.A.                           C000000008711000000000000000000000100010010000000000000000000000F0010000008967600320160809000101 00000000000000000000000000000000000000000000000000000000000000000000000000000000000000000000000000000000000000000N 00000000000NCONT   00    00000000000          00000000000000000000000000000000000000000000 000000000000000A000000000000000000000000000000000000000000000 000000000000000000000000000000000000000     00000000                                                                                                                        000000000000000000
F0010000008967600004000089010260300023658300000000000000000201608090002001FEDERICO OSORIO A. S.A.                           C000000000947700000000000000000000100010010000000000000000000000F0010000008967600420160809000101 00000000000000000000000000000000000000000000000000000000000000000000000000000000000000000000000000000000000000000N 00000000000NCONT   00    00000000000          00000000000000000000000000000000000000000000 000000000000000A000000000000000000000000000000000000000000000 000000000000000000000000000000000000000     00000000                                                                                                                        000000000000000000
F0010000008967600005000089010260300013552100000000000000000201608090002001FEDERICO OSORIO A. S.A.                           D000000000947700000000000000000000100010010000000000000000000000F0010000008967600520160809000101 00000000000000000000000000000000000000000000000000000000000000000000000000000000000000000000000000000000000000000N 00000000000NCONT   00    00000000000          00000000000000000000000000000000000000000000 000000000000000A000000000000000000000000000000000000000000000 000000000000000000000000000000000000000     00000000                                                                                                                        000000000000000000
F0010000008967700001000089010260300013050500000000000000000201608090002001FEDERICO OSORIO A. S.A.                           D000000191488000000000000000000000100010010000000000000000000000F0010000008967700120160809000101 00000000000000000000000000000000000000000000000000000000000000000000000000000000000000000000000000000000000000000N 00000000000NCONT   00    00000000000          00000000000000000000000000000000000000000000 000000000000000A000000000000000000000000000000000000000000000 000000000000000000000000000000000000000     00000000                                                                                                                        000000000000000000
F0010000008967700002000089010260300041450500000000000000000201608090002001FEDERICO OSORIO A. S.A.                           C000000182390000000000000000000000100010010000000000000000000000F0010000008967700220160809000101 00000000000000000000000000000000000000000000000000000000000000000000000000000000000000000000000000000000000000000N 00000000000NCONT   00    00000000000          00000000000000000000000000000000000000000000 000000000000000A000000000000000000000000000000000000000000000 000000000000000000000000000000000000000     00000000                                                                                                                        000000000000000000
F0010000008967700003000089010260300042505000000000000000000201608090002001FEDERICO OSORIO A. S.A.                           C000000009098000000000000000000000100010010000000000000000000000F0010000008967700320160809000101 00000000000000000000000000000000000000000000000000000000000000000000000000000000000000000000000000000000000000000N 00000000000NCONT   00    00000000000          00000000000000000000000000000000000000000000 000000000000000A000000000000000000000000000000000000000000000 000000000000000000000000000000000000000     00000000                                                                                                                        000000000000000000
F0010000008967700004000089010260300023658300000000000000000201608090002001FEDERICO OSORIO A. S.A.                           C000000001459100000000000000000000100010010000000000000000000000F0010000008967700420160809000101 00000000000000000000000000000000000000000000000000000000000000000000000000000000000000000000000000000000000000000N 00000000000NCONT   00    00000000000          00000000000000000000000000000000000000000000 000000000000000A000000000000000000000000000000000000000000000 000000000000000000000000000000000000000     00000000                                                                                                                        000000000000000000
F0010000008967700005000089010260300013552100000000000000000201608090002001FEDERICO OSORIO A. S.A.                           D000000001459100000000000000000000100010010000000000000000000000F0010000008967700520160809000101 00000000000000000000000000000000000000000000000000000000000000000000000000000000000000000000000000000000000000000N 00000000000NCONT   00    00000000000          00000000000000000000000000000000000000000000 000000000000000A000000000000000000000000000000000000000000000 000000000000000000000000000000000000000     00000000                                                                                                                        000000000000000000
F0010000008967800001000080004943800013050500000000000000000201608090002001PAPELERIA EL CID S.A.                             D000000040392500000000000000000000100010010000000000000000000000F0010000008967800120160809000101 00000000000000000000000000000000000000000000000000000000000000000000000000000000000000000000000000000000000000000N 00000000000NCONT   00    00000000000          00000000000000000000000000000000000000000000 000000000000000A000000000000000000000000000000000000000000000 000000000000000000000000000000000000000     00000000                                                                                                                        000000000000000000
F0010000008967800002000080004943800041450500000000000000000201608090002001PAPELERIA EL CID S.A.                             C000000031000000000000000000000000100010010000000000000000000000F0010000008967800220160809000101 00000000000000000000000000000000000000000000000000000000000000000000000000000000000000000000000000000000000000000N 00000000000NCONT   00    00000000000          00000000000000000000000000000000000000000000 000000000000000A000000000000000000000000000000000000000000000 000000000000000000000000000000000000000     00000000                                                                                                                        000000000000000000
F0010000008967800003000080004943800042505000000000000000000201608090002001PAPELERIA EL CID S.A.                             C000000009392500000000000000000000100010010000000000000000000000F0010000008967800320160809000101 00000000000000000000000000000000000000000000000000000000000000000000000000000000000000000000000000000000000000000N 00000000000NCONT   00    00000000000          00000000000000000000000000000000000000000000 000000000000000A000000000000000000000000000000000000000000000 000000000000000000000000000000000000000     00000000                                                                                                                        000000000000000000
F0010000008967800004000080004943800023658300000000000000000201608090002001PAPELERIA EL CID S.A.                             C000000000248000000000000000000000100010010000000000000000000000F0010000008967800420160809000101 00000000000000000000000000000000000000000000000000000000000000000000000000000000000000000000000000000000000000000N 00000000000NCONT   00    00000000000          00000000000000000000000000000000000000000000 000000000000000A000000000000000000000000000000000000000000000 000000000000000000000000000000000000000     00000000                                                                                                                        000000000000000000
F0010000008967800005000080004943800013552100000000000000000201608090002001PAPELERIA EL CID S.A.                             D000000000248000000000000000000000100010010000000000000000000000F0010000008967800520160809000101 00000000000000000000000000000000000000000000000000000000000000000000000000000000000000000000000000000000000000000N 00000000000NCONT   00    00000000000          00000000000000000000000000000000000000000000 000000000000000A000000000000000000000000000000000000000000000 000000000000000000000000000000000000000     00000000                                                                                                                        000000000000000000
F0010000008967900001000080004943800013050500000000000000000201608090002001PAPELERIA EL CID S.A.                             D000000042290000000000000000000000100010010000000000000000000000F0010000008967900120160809000101 00000000000000000000000000000000000000000000000000000000000000000000000000000000000000000000000000000000000000000N 00000000000NCONT   00    00000000000          00000000000000000000000000000000000000000000 000000000000000A000000000000000000000000000000000000000000000 000000000000000000000000000000000000000     00000000                                                                                                                        000000000000000000
F0010000008967900002000080004943800041450500000000000000000201608090002001PAPELERIA EL CID S.A.                             C000000032470000000000000000000000100010010000000000000000000000F0010000008967900220160809000101 00000000000000000000000000000000000000000000000000000000000000000000000000000000000000000000000000000000000000000N 00000000000NCONT   00    00000000000          00000000000000000000000000000000000000000000 000000000000000A000000000000000000000000000000000000000000000 000000000000000000000000000000000000000     00000000                                                                                                                        000000000000000000
F0010000008967900003000080004943800042505000000000000000000201608090002001PAPELERIA EL CID S.A.                             C000000009820000000000000000000000100010010000000000000000000000F0010000008967900320160809000101 00000000000000000000000000000000000000000000000000000000000000000000000000000000000000000000000000000000000000000N 00000000000NCONT   00    00000000000          00000000000000000000000000000000000000000000 000000000000000A000000000000000000000000000000000000000000000 000000000000000000000000000000000000000     00000000                                                                                                                        000000000000000000
F0010000008967900004000080004943800023658300000000000000000201608090002001PAPELERIA EL CID S.A.                             C000000000259800000000000000000000100010010000000000000000000000F0010000008967900420160809000101 00000000000000000000000000000000000000000000000000000000000000000000000000000000000000000000000000000000000000000N 00000000000NCONT   00    00000000000          00000000000000000000000000000000000000000000 000000000000000A000000000000000000000000000000000000000000000 000000000000000000000000000000000000000     00000000                                                                                                                        000000000000000000
F0010000008967900005000080004943800013552100000000000000000201608090002001PAPELERIA EL CID S.A.                             D000000000259800000000000000000000100010010000000000000000000000F0010000008967900520160809000101 00000000000000000000000000000000000000000000000000000000000000000000000000000000000000000000000000000000000000000N 00000000000NCONT   00    00000000000          00000000000000000000000000000000000000000000 000000000000000A000000000000000000000000000000000000000000000 000000000000000000000000000000000000000     00000000                                                                                                                        000000000000000000
F0010000008968000001000080004943800013050500000000000000000201608090002001PAPELERIA EL CID S.A.                             D000000005445000000000000000000000100010010000000000000000000000F0010000008968000120160809000101 00000000000000000000000000000000000000000000000000000000000000000000000000000000000000000000000000000000000000000N 00000000000NCONT   00    00000000000          00000000000000000000000000000000000000000000 000000000000000A000000000000000000000000000000000000000000000 000000000000000000000000000000000000000     00000000                                                                                                                        000000000000000000
F0010000008968000002000080004943800041450500000000000000000201608090002001PAPELERIA EL CID S.A.                             C000000004250000000000000000000000100010010000000000000000000000F0010000008968000220160809000101 00000000000000000000000000000000000000000000000000000000000000000000000000000000000000000000000000000000000000000N 00000000000NCONT   00    00000000000          00000000000000000000000000000000000000000000 000000000000000A000000000000000000000000000000000000000000000 000000000000000000000000000000000000000     00000000                                                                                                                        000000000000000000
F0010000008968000003000080004943800042505000000000000000000201608090002001PAPELERIA EL CID S.A.                             C000000001195000000000000000000000100010010000000000000000000000F0010000008968000320160809000101 00000000000000000000000000000000000000000000000000000000000000000000000000000000000000000000000000000000000000000N 00000000000NCONT   00    00000000000          00000000000000000000000000000000000000000000 000000000000000A000000000000000000000000000000000000000000000 000000000000000000000000000000000000000     00000000                                                                                                                        000000000000000000
F0010000008968000004000080004943800023658300000000000000000201608090002001PAPELERIA EL CID S.A.                             C000000000034000000000000000000000100010010000000000000000000000F0010000008968000420160809000101 00000000000000000000000000000000000000000000000000000000000000000000000000000000000000000000000000000000000000000N 00000000000NCONT   00    00000000000          00000000000000000000000000000000000000000000 000000000000000A000000000000000000000000000000000000000000000 000000000000000000000000000000000000000     00000000                                                                                                                        000000000000000000
F0010000008968000005000080004943800013552100000000000000000201608090002001PAPELERIA EL CID S.A.                             D000000000034000000000000000000000100010010000000000000000000000F0010000008968000520160809000101 00000000000000000000000000000000000000000000000000000000000000000000000000000000000000000000000000000000000000000N 00000000000NCONT   00    00000000000          00000000000000000000000000000000000000000000 000000000000000A000000000000000000000000000000000000000000000 000000000000000000000000000000000000000     00000000                                                                                                                        000000000000000000
F0010000008968100001000080201112800013050500000000000000000201608090002001CANGURO INTERNATIONAL S.A.                        D000000124422500000000000000000000100010010000000000000000000000F0010000008968100120160809000101 00000000000000000000000000000000000000000000000000000000000000000000000000000000000000000000000000000000000000000N 00000000000NCONT   00    00000000000          00000000000000000000000000000000000000000000 000000000000000A000000000000000000000000000000000000000000000 000000000000000000000000000000000000000     00000000                                                                                                                        000000000000000000
F0010000008968100002000080201112800041450500000000000000000201608090002001CANGURO INTERNATIONAL S.A.                        C000000124422500000000000000000000100010010000000000000000000000F0010000008968100220160809000101 00000000000000000000000000000000000000000000000000000000000000000000000000000000000000000000000000000000000000000N 00000000000NCONT   00    00000000000          00000000000000000000000000000000000000000000 000000000000000A000000000000000000000000000000000000000000000 000000000000000000000000000000000000000     00000000                                                                                                                        000000000000000000
F0010000008968100003000080201112800042505000000000000000000201608090002001CANGURO INTERNATIONAL S.A.                        C000000000000000000000000000000000100010010000000000000000000000F0010000008968100320160809000101 00000000000000000000000000000000000000000000000000000000000000000000000000000000000000000000000000000000000000000N 00000000000NCONT   00    00000000000          00000000000000000000000000000000000000000000 000000000000000A000000000000000000000000000000000000000000000 000000000000000000000000000000000000000     00000000                                                                                                                        000000000000000000
F0010000008968100004000080201112800023658300000000000000000201608090002001CANGURO INTERNATIONAL S.A.                        C000000000995400000000000000000000100010010000000000000000000000F0010000008968100420160809000101 00000000000000000000000000000000000000000000000000000000000000000000000000000000000000000000000000000000000000000N 00000000000NCONT   00    00000000000          00000000000000000000000000000000000000000000 000000000000000A000000000000000000000000000000000000000000000 000000000000000000000000000000000000000     00000000                                                                                                                        000000000000000000
F0010000008968100005000080201112800013552100000000000000000201608090002001CANGURO INTERNATIONAL S.A.                        D000000000995400000000000000000000100010010000000000000000000000F0010000008968100520160809000101 00000000000000000000000000000000000000000000000000000000000000000000000000000000000000000000000000000000000000000N 00000000000NCONT   00    00000000000          00000000000000000000000000000000000000000000 000000000000000A000000000000000000000000000000000000000000000 000000000000000000000000000000000000000     00000000                                                                                                                        000000000000000000
F0010000008968200001000080201112800013050500000000000000000201608090002001CANGURO INTERNATIONAL S.A.                        D000000155249200000000000000000000100010010000000000000000000000F0010000008968200120160809000101 00000000000000000000000000000000000000000000000000000000000000000000000000000000000000000000000000000000000000000N 00000000000NCONT   00    00000000000          00000000000000000000000000000000000000000000 000000000000000A000000000000000000000000000000000000000000000 000000000000000000000000000000000000000     00000000                                                                                                                        000000000000000000
F0010000008968200002000080201112800041450500000000000000000201608090002001CANGURO INTERNATIONAL S.A.                        C000000155249200000000000000000000100010010000000000000000000000F0010000008968200220160809000101 00000000000000000000000000000000000000000000000000000000000000000000000000000000000000000000000000000000000000000N 00000000000NCONT   00    00000000000          00000000000000000000000000000000000000000000 000000000000000A000000000000000000000000000000000000000000000 000000000000000000000000000000000000000     00000000                                                                                                                        000000000000000000
F0010000008968200003000080201112800042505000000000000000000201608090002001CANGURO INTERNATIONAL S.A.                        C000000000000000000000000000000000100010010000000000000000000000F0010000008968200320160809000101 00000000000000000000000000000000000000000000000000000000000000000000000000000000000000000000000000000000000000000N 00000000000NCONT   00    00000000000          00000000000000000000000000000000000000000000 000000000000000A000000000000000000000000000000000000000000000 000000000000000000000000000000000000000     00000000                                                                                                                        000000000000000000
F0010000008968200004000080201112800023658300000000000000000201608090002001CANGURO INTERNATIONAL S.A.                        C000000001242000000000000000000000100010010000000000000000000000F0010000008968200420160809000101 00000000000000000000000000000000000000000000000000000000000000000000000000000000000000000000000000000000000000000N 00000000000NCONT   00    00000000000          00000000000000000000000000000000000000000000 000000000000000A000000000000000000000000000000000000000000000 000000000000000000000000000000000000000     00000000                                                                                                                        000000000000000000
F0010000008968200005000080201112800013552100000000000000000201608090002001CANGURO INTERNATIONAL S.A.                        D000000001242000000000000000000000100010010000000000000000000000F0010000008968200520160809000101 00000000000000000000000000000000000000000000000000000000000000000000000000000000000000000000000000000000000000000N 00000000000NCONT   00    00000000000          00000000000000000000000000000000000000000000 000000000000000A000000000000000000000000000000000000000000000 000000000000000000000000000000000000000     00000000                                                                                                                        000000000000000000
F0010000008968300001000080201112800013050500000000000000000201608090002001CANGURO INTERNATIONAL S.A.                        D000000089820100000000000000000000100010010000000000000000000000F0010000008968300120160809000101 00000000000000000000000000000000000000000000000000000000000000000000000000000000000000000000000000000000000000000N 00000000000NCONT   00    00000000000          00000000000000000000000000000000000000000000 000000000000000A000000000000000000000000000000000000000000000 000000000000000000000000000000000000000     00000000                                                                                                                        000000000000000000
F0010000008968300002000080201112800041450500000000000000000201608090002001CANGURO INTERNATIONAL S.A.                        C000000088515800000000000000000000100010010000000000000000000000F0010000008968300220160809000101 00000000000000000000000000000000000000000000000000000000000000000000000000000000000000000000000000000000000000000N 00000000000NCONT   00    00000000000          00000000000000000000000000000000000000000000 000000000000000A000000000000000000000000000000000000000000000 000000000000000000000000000000000000000     00000000                                                                                                                        000000000000000000
F0010000008968300003000080201112800042505000000000000000000201608090002001CANGURO INTERNATIONAL S.A.                        C000000001304300000000000000000000100010010000000000000000000000F0010000008968300320160809000101 00000000000000000000000000000000000000000000000000000000000000000000000000000000000000000000000000000000000000000N 00000000000NCONT   00    00000000000          00000000000000000000000000000000000000000000 000000000000000A000000000000000000000000000000000000000000000 000000000000000000000000000000000000000     00000000                                                                                                                        000000000000000000
F0010000008968300004000080201112800023658300000000000000000201608090002001CANGURO INTERNATIONAL S.A.                        C000000000708100000000000000000000100010010000000000000000000000F0010000008968300420160809000101 00000000000000000000000000000000000000000000000000000000000000000000000000000000000000000000000000000000000000000N 00000000000NCONT   00    00000000000          00000000000000000000000000000000000000000000 000000000000000A000000000000000000000000000000000000000000000 000000000000000000000000000000000000000     00000000                                                                                                                        000000000000000000
F0010000008968300005000080201112800013552100000000000000000201608090002001CANGURO INTERNATIONAL S.A.                        D000000000708100000000000000000000100010010000000000000000000000F0010000008968300520160809000101 00000000000000000000000000000000000000000000000000000000000000000000000000000000000000000000000000000000000000000N 00000000000NCONT   00    00000000000          00000000000000000000000000000000000000000000 000000000000000A000000000000000000000000000000000000000000000 000000000000000000000000000000000000000     00000000                                                                                                                        000000000000000000
F0010000008968400001000081102758700013050500000000000000000201608090002001C.I. ABRACOL S.A EMA                              D000000109854400000000000000000000100010010000000000000000000000F0010000008968400120160809000101 00000000000000000000000000000000000000000000000000000000000000000000000000000000000000000000000000000000000000000N 00000000000NCONT   00    00000000000          00000000000000000000000000000000000000000000 000000000000000A000000000000000000000000000000000000000000000 000000000000000000000000000000000000000     00000000                                                                                                                        000000000000000000
F0010000008968400002000081102758700041450500000000000000000201608090002001C.I. ABRACOL S.A EMA                              C000000088800000000000000000000000100010010000000000000000000000F0010000008968400220160809000101 00000000000000000000000000000000000000000000000000000000000000000000000000000000000000000000000000000000000000000N 00000000000NCONT   00    00000000000          00000000000000000000000000000000000000000000 000000000000000A000000000000000000000000000000000000000000000 000000000000000000000000000000000000000     00000000                                                                                                                        000000000000000000
F0010000008968400003000081102758700041750100000000000000000201608090002001C.I. ABRACOL S.A EMA                              D000000002664000000000000000000000100010010000000000000000000000F0010000008968400320160809000101 00000000000000000000000000000000000000000000000000000000000000000000000000000000000000000000000000000000000000000N 00000000000NCONT   00    00000000000          00000000000000000000000000000000000000000000 000000000000000A000000000000000000000000000000000000000000000 000000000000000000000000000000000000000     00000000                                                                                                                        000000000000000000
F0010000008968400004000081102758700042505000000000000000000201608090002001C.I. ABRACOL S.A EMA                              C000000023718400000000000000000000100010010000000000000000000000F0010000008968400420160809000101 00000000000000000000000000000000000000000000000000000000000000000000000000000000000000000000000000000000000000000N 00000000000NCONT   00    00000000000          00000000000000000000000000000000000000000000 000000000000000A000000000000000000000000000000000000000000000 000000000000000000000000000000000000000     00000000                                                                                                                        000000000000000000
F0010000008968400005000081102758700023658300000000000000000201608090002001C.I. ABRACOL S.A EMA                              C000000000710400000000000000000000100010010000000000000000000000F0010000008968400520160809000101 00000000000000000000000000000000000000000000000000000000000000000000000000000000000000000000000000000000000000000N 00000000000NCONT   00    00000000000          00000000000000000000000000000000000000000000 000000000000000A000000000000000000000000000000000000000000000 000000000000000000000000000000000000000     00000000                                                                                                                        000000000000000000
F0010000008968400006000081102758700013552100000000000000000201608090002001C.I. ABRACOL S.A EMA                              D000000000710400000000000000000000100010010000000000000000000000F0010000008968400620160809000101 00000000000000000000000000000000000000000000000000000000000000000000000000000000000000000000000000000000000000000N 00000000000NCONT   00    00000000000          00000000000000000000000000000000000000000000 000000000000000A000000000000000000000000000000000000000000000 000000000000000000000000000000000000000     00000000                                                                                                                        000000000000000000
F0010000008968500001000081102758700013050500000000000000000201608090002001C.I. ABRACOL S.A EMA                              D000000087771300000000000000000000100010010000000000000000000000F0010000008968500120160809000101 00000000000000000000000000000000000000000000000000000000000000000000000000000000000000000000000000000000000000000N 00000000000NCONT   00    00000000000          00000000000000000000000000000000000000000000 000000000000000A000000000000000000000000000000000000000000000 000000000000000000000000000000000000000     00000000                                                                                                                        000000000000000000
F0010000008968500002000081102758700041450500000000000000000201608090002001C.I. ABRACOL S.A EMA                              C000000066987500000000000000000000100010010000000000000000000000F0010000008968500220160809000101 00000000000000000000000000000000000000000000000000000000000000000000000000000000000000000000000000000000000000000N 00000000000NCONT   00    00000000000          00000000000000000000000000000000000000000000 000000000000000A000000000000000000000000000000000000000000000 000000000000000000000000000000000000000     00000000                                                                                                                        000000000000000000
F0010000008968500003000081102758700041750100000000000000000201608090002001C.I. ABRACOL S.A EMA                              D000000002009600000000000000000000100010010000000000000000000000F0010000008968500320160809000101 00000000000000000000000000000000000000000000000000000000000000000000000000000000000000000000000000000000000000000N 00000000000NCONT   00    00000000000          00000000000000000000000000000000000000000000 000000000000000A000000000000000000000000000000000000000000000 000000000000000000000000000000000000000     00000000                                                                                                                        000000000000000000
F0010000008968500004000081102758700042505000000000000000000201608090002001C.I. ABRACOL S.A EMA                              C000000022793400000000000000000000100010010000000000000000000000F0010000008968500420160809000101 00000000000000000000000000000000000000000000000000000000000000000000000000000000000000000000000000000000000000000N 00000000000NCONT   00    00000000000          00000000000000000000000000000000000000000000 000000000000000A000000000000000000000000000000000000000000000 000000000000000000000000000000000000000     00000000                                                                                                                        000000000000000000
F0010000008968500005000081102758700023658300000000000000000201608090002001C.I. ABRACOL S.A EMA                              C000000000535900000000000000000000100010010000000000000000000000F0010000008968500520160809000101 00000000000000000000000000000000000000000000000000000000000000000000000000000000000000000000000000000000000000000N 00000000000NCONT   00    00000000000          00000000000000000000000000000000000000000000 000000000000000A000000000000000000000000000000000000000000000 000000000000000000000000000000000000000     00000000                                                                                                                        000000000000000000
F0010000008968500006000081102758700013552100000000000000000201608090002001C.I. ABRACOL S.A EMA                              D000000000535900000000000000000000100010010000000000000000000000F0010000008968500620160809000101 00000000000000000000000000000000000000000000000000000000000000000000000000000000000000000000000000000000000000000N 00000000000NCONT   00    00000000000          00000000000000000000000000000000000000000000 000000000000000A000000000000000000000000000000000000000000000 000000000000000000000000000000000000000     00000000                                                                                                                        000000000000000000
F0010000008968600001000000870907300013050500000000000000000201608090002001SURTIDOR FERRETERO                                D000000060894000000000000000000000100010010000000000000000000000F0010000008968600120160809000101 00000000000000000000000000000000000000000000000000000000000000000000000000000000000000000000000000000000000000000N 00000000000NCONT   00    00000000000          00000000000000000000000000000000000000000000 000000000000000A000000000000000000000000000000000000000000000 000000000000000000000000000000000000000     00000000                                                                                                                        000000000000000000
F0010000008968600002000000870907300041450500000000000000000201608090002001SURTIDOR FERRETERO                                C000000053950000000000000000000000100010010000000000000000000000F0010000008968600220160809000101 00000000000000000000000000000000000000000000000000000000000000000000000000000000000000000000000000000000000000000N 00000000000NCONT   00    00000000000          00000000000000000000000000000000000000000000 000000000000000A000000000000000000000000000000000000000000000 000000000000000000000000000000000000000     00000000                                                                                                                        000000000000000000
F0010000008968600003000000870907300041750100000000000000000201608090002001SURTIDOR FERRETERO                                D000000005395000000000000000000000100010010000000000000000000000F0010000008968600320160809000101 00000000000000000000000000000000000000000000000000000000000000000000000000000000000000000000000000000000000000000N 00000000000NCONT   00    00000000000          00000000000000000000000000000000000000000000 000000000000000A000000000000000000000000000000000000000000000 000000000000000000000000000000000000000     00000000                                                                                                                        000000000000000000
F0010000008968600004000000870907300042505000000000000000000201608090002001SURTIDOR FERRETERO                                C000000012339000000000000000000000100010010000000000000000000000F0010000008968600420160809000101 00000000000000000000000000000000000000000000000000000000000000000000000000000000000000000000000000000000000000000N 00000000000NCONT   00    00000000000          00000000000000000000000000000000000000000000 000000000000000A000000000000000000000000000000000000000000000 000000000000000000000000000000000000000     00000000                                                                                                                        000000000000000000
F0010000008968600005000000870907300023658300000000000000000201608090002001SURTIDOR FERRETERO                                C000000000431600000000000000000000100010010000000000000000000000F0010000008968600520160809000101 00000000000000000000000000000000000000000000000000000000000000000000000000000000000000000000000000000000000000000N 00000000000NCONT   00    00000000000          00000000000000000000000000000000000000000000 000000000000000A000000000000000000000000000000000000000000000 000000000000000000000000000000000000000     00000000                                                                                                                        000000000000000000
F0010000008968600006000000870907300013552100000000000000000201608090002001SURTIDOR FERRETERO                                D000000000431600000000000000000000100010010000000000000000000000F0010000008968600620160809000101 00000000000000000000000000000000000000000000000000000000000000000000000000000000000000000000000000000000000000000N 00000000000NCONT   00    00000000000          00000000000000000000000000000000000000000000 000000000000000A000000000000000000000000000000000000000000000 000000000000000000000000000000000000000     00000000                                                                                                                        000000000000000000
F0010000008968700001000090050863700013050500000000000000000201608090002001COMERCIALIZADORA PERFECT SAS                      D000000008150000000000000000000000100010010000000000000000000000F0010000008968700120160809000101 00000000000000000000000000000000000000000000000000000000000000000000000000000000000000000000000000000000000000000N 00000000000NCONT   00    00000000000          00000000000000000000000000000000000000000000 000000000000000A000000000000000000000000000000000000000000000 000000000000000000000000000000000000000     00000000                                                                                                                        000000000000000000
F0010000008968700002000090050863700041450500000000000000000201608090002001COMERCIALIZADORA PERFECT SAS                      C000000006300000000000000000000000100010010000000000000000000000F0010000008968700220160809000101 00000000000000000000000000000000000000000000000000000000000000000000000000000000000000000000000000000000000000000N 00000000000NCONT   00    00000000000          00000000000000000000000000000000000000000000 000000000000000A000000000000000000000000000000000000000000000 000000000000000000000000000000000000000     00000000                                                                                                                        000000000000000000
F0010000008968700003000090050863700042505000000000000000000201608090002001COMERCIALIZADORA PERFECT SAS                      C000000001850000000000000000000000100010010000000000000000000000F0010000008968700320160809000101 00000000000000000000000000000000000000000000000000000000000000000000000000000000000000000000000000000000000000000N 00000000000NCONT   00    00000000000          00000000000000000000000000000000000000000000 000000000000000A000000000000000000000000000000000000000000000 000000000000000000000000000000000000000     00000000                                                                                                                        000000000000000000
F0010000008968700004000090050863700023658300000000000000000201608090002001COMERCIALIZADORA PERFECT SAS                      C000000000050400000000000000000000100010010000000000000000000000F0010000008968700420160809000101 00000000000000000000000000000000000000000000000000000000000000000000000000000000000000000000000000000000000000000N 00000000000NCONT   00    00000000000          00000000000000000000000000000000000000000000 000000000000000A000000000000000000000000000000000000000000000 000000000000000000000000000000000000000     00000000                                                                                                                        000000000000000000
F0010000008968700005000090050863700013552100000000000000000201608090002001COMERCIALIZADORA PERFECT SAS                      D000000000050400000000000000000000100010010000000000000000000000F0010000008968700520160809000101 00000000000000000000000000000000000000000000000000000000000000000000000000000000000000000000000000000000000000000N 00000000000NCONT   00    00000000000          00000000000000000000000000000000000000000000 000000000000000A000000000000000000000000000000000000000000000 000000000000000000000000000000000000000     00000000                                                                                                                        000000000000000000
F0010000008968800001000090036646700013050500000000000000000201608090002001FERREPROYECTOS S.A.S                              D000000003100000000000000000000000100010010000000000000000000000F0010000008968800120160809000101 00000000000000000000000000000000000000000000000000000000000000000000000000000000000000000000000000000000000000000N 00000000000NCONT   00    00000000000          00000000000000000000000000000000000000000000 000000000000000A000000000000000000000000000000000000000000000 000000000000000000000000000000000000000     00000000                                                                                                                        000000000000000000
F0010000008968800002000090036646700041450500000000000000000201608090002001FERREPROYECTOS S.A.S                              C000000003000000000000000000000000100010010000000000000000000000F0010000008968800220160809000101 00000000000000000000000000000000000000000000000000000000000000000000000000000000000000000000000000000000000000000N 00000000000NCONT   00    00000000000          00000000000000000000000000000000000000000000 000000000000000A000000000000000000000000000000000000000000000 000000000000000000000000000000000000000     00000000                                                                                                                        000000000000000000
F0010000008968800003000090036646700042505000000000000000000201608090002001FERREPROYECTOS S.A.S                              C000000000100000000000000000000000100010010000000000000000000000F0010000008968800320160809000101 00000000000000000000000000000000000000000000000000000000000000000000000000000000000000000000000000000000000000000N 00000000000NCONT   00    00000000000          00000000000000000000000000000000000000000000 000000000000000A000000000000000000000000000000000000000000000 000000000000000000000000000000000000000     00000000                                                                                                                        000000000000000000
F0010000008968800004000090036646700023658300000000000000000201608090002001FERREPROYECTOS S.A.S                              C000000000024000000000000000000000100010010000000000000000000000F0010000008968800420160809000101 00000000000000000000000000000000000000000000000000000000000000000000000000000000000000000000000000000000000000000N 00000000000NCONT   00    00000000000          00000000000000000000000000000000000000000000 000000000000000A000000000000000000000000000000000000000000000 000000000000000000000000000000000000000     00000000                                                                                                                        000000000000000000
F0010000008968800005000090036646700013552100000000000000000201608090002001FERREPROYECTOS S.A.S                              D000000000024000000000000000000000100010010000000000000000000000F0010000008968800520160809000101 00000000000000000000000000000000000000000000000000000000000000000000000000000000000000000000000000000000000000000N 00000000000NCONT   00    00000000000          00000000000000000000000000000000000000000000 000000000000000A000000000000000000000000000000000000000000000 000000000000000000000000000000000000000     00000000                                                                                                                        000000000000000000
F0010000008968900001000003264509600013050500000000000000000201608090002001ROSA E. AGAMEZ                                    D000000003100000000000000000000000100010010000000000000000000000F0010000008968900120160809000101 00000000000000000000000000000000000000000000000000000000000000000000000000000000000000000000000000000000000000000N 00000000000NCONT   00    00000000000          00000000000000000000000000000000000000000000 000000000000000A000000000000000000000000000000000000000000000 000000000000000000000000000000000000000     00000000                                                                                                                        000000000000000000
F0010000008968900002000003264509600041450500000000000000000201608090002001ROSA E. AGAMEZ                                    C000000001980000000000000000000000100010010000000000000000000000F0010000008968900220160809000101 00000000000000000000000000000000000000000000000000000000000000000000000000000000000000000000000000000000000000000N 00000000000NCONT   00    00000000000          00000000000000000000000000000000000000000000 000000000000000A000000000000000000000000000000000000000000000 000000000000000000000000000000000000000     00000000                                                                                                                        000000000000000000
F0010000008968900003000003264509600042505000000000000000000201608090002001ROSA E. AGAMEZ                                    C000000001120000000000000000000000100010010000000000000000000000F0010000008968900320160809000101 00000000000000000000000000000000000000000000000000000000000000000000000000000000000000000000000000000000000000000N 00000000000NCONT   00    00000000000          00000000000000000000000000000000000000000000 000000000000000A000000000000000000000000000000000000000000000 000000000000000000000000000000000000000     00000000                                                                                                                        000000000000000000
F0010000008968900004000003264509600023658300000000000000000201608090002001ROSA E. AGAMEZ                                    C000000000015800000000000000000000100010010000000000000000000000F0010000008968900420160809000101 00000000000000000000000000000000000000000000000000000000000000000000000000000000000000000000000000000000000000000N 00000000000NCONT   00    00000000000          00000000000000000000000000000000000000000000 000000000000000A000000000000000000000000000000000000000000000 000000000000000000000000000000000000000     00000000                                                                                                                        000000000000000000
F0010000008968900005000003264509600013552100000000000000000201608090002001ROSA E. AGAMEZ                                    D000000000015800000000000000000000100010010000000000000000000000F0010000008968900520160809000101 00000000000000000000000000000000000000000000000000000000000000000000000000000000000000000000000000000000000000000N 00000000000NCONT   00    00000000000          00000000000000000000000000000000000000000000 000000000000000A000000000000000000000000000000000000000000000 000000000000000000000000000000000000000     00000000                                                                                                                        000000000000000000
F0010000008969000001000000827614700013050500000000000000000201608090002001ALVARO  HERNAN  PEREZ ALVAREZ                     D000000002700000000000000000000000100010010000000000000000000000F0010000008969000120160809000101 00000000000000000000000000000000000000000000000000000000000000000000000000000000000000000000000000000000000000000N 00000000000NCONT   00    00000000000          00000000000000000000000000000000000000000000 000000000000000A000000000000000000000000000000000000000000000 000000000000000000000000000000000000000     00000000                                                                                                                        000000000000000000
F0010000008969000002000000827614700041450500000000000000000201608090002001ALVARO  HERNAN  PEREZ ALVAREZ                     C000000002400000000000000000000000100010010000000000000000000000F0010000008969000220160809000101 00000000000000000000000000000000000000000000000000000000000000000000000000000000000000000000000000000000000000000N 00000000000NCONT   00    00000000000          00000000000000000000000000000000000000000000 000000000000000A000000000000000000000000000000000000000000000 000000000000000000000000000000000000000     00000000                                                                                                                        000000000000000000
F0010000008969000003000000827614700042505000000000000000000201608090002001ALVARO  HERNAN  PEREZ ALVAREZ                     C000000000300000000000000000000000100010010000000000000000000000F0010000008969000320160809000101 00000000000000000000000000000000000000000000000000000000000000000000000000000000000000000000000000000000000000000N 00000000000NCONT   00    00000000000          00000000000000000000000000000000000000000000 000000000000000A000000000000000000000000000000000000000000000 000000000000000000000000000000000000000     00000000                                                                                                                        000000000000000000
F0010000008969000004000000827614700023658300000000000000000201608090002001ALVARO  HERNAN  PEREZ ALVAREZ                     C000000000019200000000000000000000100010010000000000000000000000F0010000008969000420160809000101 00000000000000000000000000000000000000000000000000000000000000000000000000000000000000000000000000000000000000000N 00000000000NCONT   00    00000000000          00000000000000000000000000000000000000000000 000000000000000A000000000000000000000000000000000000000000000 000000000000000000000000000000000000000     00000000                                                                                                                        000000000000000000
F0010000008969000005000000827614700013552100000000000000000201608090002001ALVARO  HERNAN  PEREZ ALVAREZ                     D000000000019200000000000000000000100010010000000000000000000000F0010000008969000520160809000101 00000000000000000000000000000000000000000000000000000000000000000000000000000000000000000000000000000000000000000N 00000000000NCONT   00    00000000000          00000000000000000000000000000000000000000000 000000000000000A000000000000000000000000000000000000000000000 000000000000000000000000000000000000000     00000000                                                                                                                        000000000000000000
F0010000008969100001000090007142100013050500000000000000000201608090002001TODO BELLEZA Y MAX S.A.S                          D000000004955000000000000000000000100010010000000000000000000000F0010000008969100120160809000101 00000000000000000000000000000000000000000000000000000000000000000000000000000000000000000000000000000000000000000N 00000000000NCONT   00    00000000000          00000000000000000000000000000000000000000000 000000000000000A000000000000000000000000000000000000000000000 000000000000000000000000000000000000000     00000000                                                                                                                        000000000000000000
F0010000008969100002000090007142100041450500000000000000000201608090002001TODO BELLEZA Y MAX S.A.S                          C000000004480000000000000000000000100010010000000000000000000000F0010000008969100220160809000101 00000000000000000000000000000000000000000000000000000000000000000000000000000000000000000000000000000000000000000N 00000000000NCONT   00    00000000000          00000000000000000000000000000000000000000000 000000000000000A000000000000000000000000000000000000000000000 000000000000000000000000000000000000000     00000000                                                                                                                        000000000000000000
F0010000008969100003000090007142100042505000000000000000000201608090002001TODO BELLEZA Y MAX S.A.S                          C000000000475000000000000000000000100010010000000000000000000000F0010000008969100320160809000101 00000000000000000000000000000000000000000000000000000000000000000000000000000000000000000000000000000000000000000N 00000000000NCONT   00    00000000000          00000000000000000000000000000000000000000000 000000000000000A000000000000000000000000000000000000000000000 000000000000000000000000000000000000000     00000000                                                                                                                        000000000000000000
F0010000008969100004000090007142100023658300000000000000000201608090002001TODO BELLEZA Y MAX S.A.S                          C000000000035800000000000000000000100010010000000000000000000000F0010000008969100420160809000101 00000000000000000000000000000000000000000000000000000000000000000000000000000000000000000000000000000000000000000N 00000000000NCONT   00    00000000000          00000000000000000000000000000000000000000000 000000000000000A000000000000000000000000000000000000000000000 000000000000000000000000000000000000000     00000000                                                                                                                        000000000000000000
F0010000008969100005000090007142100013552100000000000000000201608090002001TODO BELLEZA Y MAX S.A.S                          D000000000035800000000000000000000100010010000000000000000000000F0010000008969100520160809000101 00000000000000000000000000000000000000000000000000000000000000000000000000000000000000000000000000000000000000000N 00000000000NCONT   00    00000000000          00000000000000000000000000000000000000000000 000000000000000A000000000000000000000000000000000000000000000 000000000000000000000000000000000000000     00000000                                                                                                                        000000000000000000
F0010000008969200001000086003979400013050500000000000000000201608090002001CALYPSO BARRANQUILLA LTDA                         D000000007440300000000000000000000100010010000000000000000000000F0010000008969200120160809000101 00000000000000000000000000000000000000000000000000000000000000000000000000000000000000000000000000000000000000000N 00000000000NCONT   00    00000000000          00000000000000000000000000000000000000000000 000000000000000A000000000000000000000000000000000000000000000 000000000000000000000000000000000000000     00000000                                                                                                                        000000000000000000
F0010000008969200002000086003979400041450500000000000000000201608090002001CALYPSO BARRANQUILLA LTDA                         C000000006600000000000000000000000100010010000000000000000000000F0010000008969200220160809000101 00000000000000000000000000000000000000000000000000000000000000000000000000000000000000000000000000000000000000000N 00000000000NCONT   00    00000000000          00000000000000000000000000000000000000000000 000000000000000A000000000000000000000000000000000000000000000 000000000000000000000000000000000000000     00000000                                                                                                                        000000000000000000
F0010000008969200003000086003979400042505000000000000000000201608090002001CALYPSO BARRANQUILLA LTDA                         C000000000840300000000000000000000100010010000000000000000000000F0010000008969200320160809000101 00000000000000000000000000000000000000000000000000000000000000000000000000000000000000000000000000000000000000000N 00000000000NCONT   00    00000000000          00000000000000000000000000000000000000000000 000000000000000A000000000000000000000000000000000000000000000 000000000000000000000000000000000000000     00000000                                                                                                                        000000000000000000
F0010000008969200004000086003979400023658300000000000000000201608090002001CALYPSO BARRANQUILLA LTDA                         C000000000052800000000000000000000100010010000000000000000000000F0010000008969200420160809000101 00000000000000000000000000000000000000000000000000000000000000000000000000000000000000000000000000000000000000000N 00000000000NCONT   00    00000000000          00000000000000000000000000000000000000000000 000000000000000A000000000000000000000000000000000000000000000 000000000000000000000000000000000000000     00000000                                                                                                                        000000000000000000
F0010000008969200005000086003979400013552100000000000000000201608090002001CALYPSO BARRANQUILLA LTDA                         D000000000052800000000000000000000100010010000000000000000000000F0010000008969200520160809000101 00000000000000000000000000000000000000000000000000000000000000000000000000000000000000000000000000000000000000000N 00000000000NCONT   00    00000000000          00000000000000000000000000000000000000000000 000000000000000A000000000000000000000000000000000000000000000 000000000000000000000000000000000000000     00000000                                                                                                                        000000000000000000
F0010000008969300001000080010983700013050500000000000000000201608090002001OHM LTDA                                          D000000006345000000000000000000000100010010000000000000000000000F0010000008969300120160809000101 00000000000000000000000000000000000000000000000000000000000000000000000000000000000000000000000000000000000000000N 00000000000NCONT   00    00000000000          00000000000000000000000000000000000000000000 000000000000000A000000000000000000000000000000000000000000000 000000000000000000000000000000000000000     00000000                                                                                                                        000000000000000000
F0010000008969300002000080010983700041450500000000000000000201608090002001OHM LTDA                                          C000000006270000000000000000000000100010010000000000000000000000F0010000008969300220160809000101 00000000000000000000000000000000000000000000000000000000000000000000000000000000000000000000000000000000000000000N 00000000000NCONT   00    00000000000          00000000000000000000000000000000000000000000 000000000000000A000000000000000000000000000000000000000000000 000000000000000000000000000000000000000     00000000                                                                                                                        000000000000000000
F0010000008969300003000080010983700042505000000000000000000201608090002001OHM LTDA                                          C000000000075000000000000000000000100010010000000000000000000000F0010000008969300320160809000101 00000000000000000000000000000000000000000000000000000000000000000000000000000000000000000000000000000000000000000N 00000000000NCONT   00    00000000000          00000000000000000000000000000000000000000000 000000000000000A000000000000000000000000000000000000000000000 000000000000000000000000000000000000000     00000000                                                                                                                        000000000000000000
F0010000008969300004000080010983700023658300000000000000000201608090002001OHM LTDA                                          C000000000050200000000000000000000100010010000000000000000000000F0010000008969300420160809000101 00000000000000000000000000000000000000000000000000000000000000000000000000000000000000000000000000000000000000000N 00000000000NCONT   00    00000000000          00000000000000000000000000000000000000000000 000000000000000A000000000000000000000000000000000000000000000 000000000000000000000000000000000000000     00000000                                                                                                                        000000000000000000
F0010000008969300005000080010983700013552100000000000000000201608090002001OHM LTDA                                          D000000000050200000000000000000000100010010000000000000000000000F0010000008969300520160809000101 00000000000000000000000000000000000000000000000000000000000000000000000000000000000000000000000000000000000000000N 00000000000NCONT   00    00000000000          00000000000000000000000000000000000000000000 000000000000000A000000000000000000000000000000000000000000000 000000000000000000000000000000000000000     00000000                                                                                                                        000000000000000000
F0010000008969400001000090087617400013050500000000000000000201608090002001MASTERGLASS PREMIUM GROUP SAS                     D000000015841600000000000000000000100010010000000000000000000000F0010000008969400120160809000101 00000000000000000000000000000000000000000000000000000000000000000000000000000000000000000000000000000000000000000N 00000000000NCONT   00    00000000000          00000000000000000000000000000000000000000000 000000000000000A000000000000000000000000000000000000000000000 000000000000000000000000000000000000000     00000000                                                                                                                        000000000000000000
F0010000008969400002000090087617400041450500000000000000000201608090002001MASTERGLASS PREMIUM GROUP SAS                     C000000013320000000000000000000000100010010000000000000000000000F0010000008969400220160809000101 00000000000000000000000000000000000000000000000000000000000000000000000000000000000000000000000000000000000000000N 00000000000NCONT   00    00000000000          00000000000000000000000000000000000000000000 000000000000000A000000000000000000000000000000000000000000000 000000000000000000000000000000000000000     00000000                                                                                                                        000000000000000000
F0010000008969400003000090087617400042505000000000000000000201608090002001MASTERGLASS PREMIUM GROUP SAS                     C000000002521600000000000000000000100010010000000000000000000000F0010000008969400320160809000101 00000000000000000000000000000000000000000000000000000000000000000000000000000000000000000000000000000000000000000N 00000000000NCONT   00    00000000000          00000000000000000000000000000000000000000000 000000000000000A000000000000000000000000000000000000000000000 000000000000000000000000000000000000000     00000000                                                                                                                        000000000000000000
F0010000008969400004000090087617400023658300000000000000000201608090002001MASTERGLASS PREMIUM GROUP SAS                     C000000000106600000000000000000000100010010000000000000000000000F0010000008969400420160809000101 00000000000000000000000000000000000000000000000000000000000000000000000000000000000000000000000000000000000000000N 00000000000NCONT   00    00000000000          00000000000000000000000000000000000000000000 000000000000000A000000000000000000000000000000000000000000000 000000000000000000000000000000000000000     00000000                                                                                                                        000000000000000000
F0010000008969400005000090087617400013552100000000000000000201608090002001MASTERGLASS PREMIUM GROUP SAS                     D000000000106600000000000000000000100010010000000000000000000000F0010000008969400520160809000101 00000000000000000000000000000000000000000000000000000000000000000000000000000000000000000000000000000000000000000N 00000000000NCONT   00    00000000000          00000000000000000000000000000000000000000000 000000000000000A000000000000000000000000000000000000000000000 000000000000000000000000000000000000000     00000000                                                                                                                        000000000000000000
F0010000008969500001000089011078600013050500000000000000000201608090002001DIST. NUEVO MUNDO S.A.S.                          D000000006827900000000000000000000100010010000000000000000000000F0010000008969500120160809000101 00000000000000000000000000000000000000000000000000000000000000000000000000000000000000000000000000000000000000000N 00000000000NCONT   00    00000000000          00000000000000000000000000000000000000000000 000000000000000A000000000000000000000000000000000000000000000 000000000000000000000000000000000000000     00000000                                                                                                                        000000000000000000
F0010000008969500002000089011078600041450500000000000000000201608090002001DIST. NUEVO MUNDO S.A.S.                          C000000006520000000000000000000000100010010000000000000000000000F0010000008969500220160809000101 00000000000000000000000000000000000000000000000000000000000000000000000000000000000000000000000000000000000000000N 00000000000NCONT   00    00000000000          00000000000000000000000000000000000000000000 000000000000000A000000000000000000000000000000000000000000000 000000000000000000000000000000000000000     00000000                                                                                                                        000000000000000000
F0010000008969500003000089011078600042505000000000000000000201608090002001DIST. NUEVO MUNDO S.A.S.                          C000000000307900000000000000000000100010010000000000000000000000F0010000008969500320160809000101 00000000000000000000000000000000000000000000000000000000000000000000000000000000000000000000000000000000000000000N 00000000000NCONT   00    00000000000          00000000000000000000000000000000000000000000 000000000000000A000000000000000000000000000000000000000000000 000000000000000000000000000000000000000     00000000                                                                                                                        000000000000000000
F0010000008969500004000089011078600023658300000000000000000201608090002001DIST. NUEVO MUNDO S.A.S.                          C000000000052200000000000000000000100010010000000000000000000000F0010000008969500420160809000101 00000000000000000000000000000000000000000000000000000000000000000000000000000000000000000000000000000000000000000N 00000000000NCONT   00    00000000000          00000000000000000000000000000000000000000000 000000000000000A000000000000000000000000000000000000000000000 000000000000000000000000000000000000000     00000000                                                                                                                        000000000000000000
F0010000008969500005000089011078600013552100000000000000000201608090002001DIST. NUEVO MUNDO S.A.S.                          D000000000052200000000000000000000100010010000000000000000000000F0010000008969500520160809000101 00000000000000000000000000000000000000000000000000000000000000000000000000000000000000000000000000000000000000000N 00000000000NCONT   00    00000000000          00000000000000000000000000000000000000000000 000000000000000A000000000000000000000000000000000000000000000 000000000000000000000000000000000000000     00000000                                                                                                                        000000000000000000
F0010000008969600001000080001063400013050500000000000000000201608090002001PRODUCTOS JULIAO SAS                              D000000025127600000000000000000000100010010000000000000000000000F0010000008969600120160809000101 00000000000000000000000000000000000000000000000000000000000000000000000000000000000000000000000000000000000000000N 00000000000NCONT   00    00000000000          00000000000000000000000000000000000000000000 000000000000000A000000000000000000000000000000000000000000000 000000000000000000000000000000000000000     00000000                                                                                                                        000000000000000000
F0010000008969600002000080001063400041450500000000000000000201608090002001PRODUCTOS JULIAO SAS                              C000000024030000000000000000000000100010010000000000000000000000F0010000008969600220160809000101 00000000000000000000000000000000000000000000000000000000000000000000000000000000000000000000000000000000000000000N 00000000000NCONT   00    00000000000          00000000000000000000000000000000000000000000 000000000000000A000000000000000000000000000000000000000000000 000000000000000000000000000000000000000     00000000                                                                                                                        000000000000000000
F0010000008969600003000080001063400042505000000000000000000201608090002001PRODUCTOS JULIAO SAS                              C000000001097600000000000000000000100010010000000000000000000000F0010000008969600320160809000101 00000000000000000000000000000000000000000000000000000000000000000000000000000000000000000000000000000000000000000N 00000000000NCONT   00    00000000000          00000000000000000000000000000000000000000000 000000000000000A000000000000000000000000000000000000000000000 000000000000000000000000000000000000000     00000000                                                                                                                        000000000000000000
F0010000008969600004000080001063400023658300000000000000000201608090002001PRODUCTOS JULIAO SAS                              C000000000192200000000000000000000100010010000000000000000000000F0010000008969600420160809000101 00000000000000000000000000000000000000000000000000000000000000000000000000000000000000000000000000000000000000000N 00000000000NCONT   00    00000000000          00000000000000000000000000000000000000000000 000000000000000A000000000000000000000000000000000000000000000 000000000000000000000000000000000000000     00000000                                                                                                                        000000000000000000
