F0010000009438000001000090094314800011050500000000000000000201611190002001PINTURA Y SOLVENTE ARCO SAS                       D000000006700000000000000000000000100010010000000000000000000000F0019438000120161119000101 00000000000000000000000000000000000000000000000000000000000000000000000000000000000000000000000000000000000000000N 00000000000NCONT   00    00000000000          00000000000000000000000000000000000000000000 000000000000000A000000000000000000000000000000000000000000000 000000000000000000000000000000000000000     00000000                                                                                                                        000000000000000000
F0010000009438000002000090094314800041450500000000000000000201611190002001PINTURA Y SOLVENTE ARCO SAS                       C000000006000000000000000000000000100010010000000000000000000000F0019438000220161119000101 00000000000000000000000000000000000000000000000000000000000000000000000000000000000000000000000000000000000000000N 00000000000NCONT   00    00000000000          00000000000000000000000000000000000000000000 000000000000000A000000000000000000000000000000000000000000000 000000000000000000000000000000000000000     00000000                                                                                                                        000000000000000000
F0010000009438000003000090094314800042505000000000000000000201611190002001PINTURA Y SOLVENTE ARCO SAS                       C000000000700000000000000000000000100010010000000000000000000000F0019438000320161119000101 00000000000000000000000000000000000000000000000000000000000000000000000000000000000000000000000000000000000000000N 00000000000NCONT   00    00000000000          00000000000000000000000000000000000000000000 000000000000000A000000000000000000000000000000000000000000000 000000000000000000000000000000000000000     00000000                                                                                                                        000000000000000000
F0010000009438000004000090094314800023658300000000000000000201611190002001PINTURA Y SOLVENTE ARCO SAS                       C000000000048000000000000000000000100010010000000000000000000000F0019438000420161119000101 00000000000000000000000000000000000000000000000000000000000000000000000000000000000000000000000000000000000000000N 00000000000NCONT   00    00000000000          00000000000000000000000000000000000000000000 000000000000000A000000000000000000000000000000000000000000000 000000000000000000000000000000000000000     00000000                                                                                                                        000000000000000000
F0010000009438000005000090094314800013552100000000000000000201611190002001PINTURA Y SOLVENTE ARCO SAS                       D000000000048000000000000000000000100010010000000000000000000000F0019438000520161119000101 00000000000000000000000000000000000000000000000000000000000000000000000000000000000000000000000000000000000000000N 00000000000NCONT   00    00000000000          00000000000000000000000000000000000000000000 000000000000000A000000000000000000000000000000000000000000000 000000000000000000000000000000000000000     00000000                                                                                                                        000000000000000000
F0010000009438100001000001022529300011050500000000000000000201611190002001ALBERTO ALVAREZ ISAZA                             D000000000880000000000000000000000100010010000000000000000000000F0019438100120161119000101 00000000000000000000000000000000000000000000000000000000000000000000000000000000000000000000000000000000000000000N 00000000000NCONT   00    00000000000          00000000000000000000000000000000000000000000 000000000000000A000000000000000000000000000000000000000000000 000000000000000000000000000000000000000     00000000                                                                                                                        000000000000000000
F0010000009438100002000001022529300041450500000000000000000201611190002001ALBERTO ALVAREZ ISAZA                             C000000000880000000000000000000000100010010000000000000000000000F0019438100220161119000101 00000000000000000000000000000000000000000000000000000000000000000000000000000000000000000000000000000000000000000N 00000000000NCONT   00    00000000000          00000000000000000000000000000000000000000000 000000000000000A000000000000000000000000000000000000000000000 000000000000000000000000000000000000000     00000000                                                                                                                        000000000000000000
F0010000009438100003000001022529300042505000000000000000000201611190002001ALBERTO ALVAREZ ISAZA                             C000000000000000000000000000000000100010010000000000000000000000F0019438100320161119000101 00000000000000000000000000000000000000000000000000000000000000000000000000000000000000000000000000000000000000000N 00000000000NCONT   00    00000000000          00000000000000000000000000000000000000000000 000000000000000A000000000000000000000000000000000000000000000 000000000000000000000000000000000000000     00000000                                                                                                                        000000000000000000
F0010000009438100004000001022529300023658300000000000000000201611190002001ALBERTO ALVAREZ ISAZA                             C000000000007000000000000000000000100010010000000000000000000000F0019438100420161119000101 00000000000000000000000000000000000000000000000000000000000000000000000000000000000000000000000000000000000000000N 00000000000NCONT   00    00000000000          00000000000000000000000000000000000000000000 000000000000000A000000000000000000000000000000000000000000000 000000000000000000000000000000000000000     00000000                                                                                                                        000000000000000000
F0010000009438100005000001022529300013552100000000000000000201611190002001ALBERTO ALVAREZ ISAZA                             D000000000007000000000000000000000100010010000000000000000000000F0019438100520161119000101 00000000000000000000000000000000000000000000000000000000000000000000000000000000000000000000000000000000000000000N 00000000000NCONT   00    00000000000          00000000000000000000000000000000000000000000 000000000000000A000000000000000000000000000000000000000000000 000000000000000000000000000000000000000     00000000                                                                                                                        000000000000000000
F0010000009438200001000001022529300011050500000000000000000201611190002001ALBERTO ALVAREZ ISAZA                             D000000000700000000000000000000000100010010000000000000000000000F0019438200120161119000101 00000000000000000000000000000000000000000000000000000000000000000000000000000000000000000000000000000000000000000N 00000000000NCONT   00    00000000000          00000000000000000000000000000000000000000000 000000000000000A000000000000000000000000000000000000000000000 000000000000000000000000000000000000000     00000000                                                                                                                        000000000000000000
F0010000009438200002000001022529300041450500000000000000000201611190002001ALBERTO ALVAREZ ISAZA                             C000000000700000000000000000000000100010010000000000000000000000F0019438200220161119000101 00000000000000000000000000000000000000000000000000000000000000000000000000000000000000000000000000000000000000000N 00000000000NCONT   00    00000000000          00000000000000000000000000000000000000000000 000000000000000A000000000000000000000000000000000000000000000 000000000000000000000000000000000000000     00000000                                                                                                                        000000000000000000
F0010000009438200003000001022529300042505000000000000000000201611190002001ALBERTO ALVAREZ ISAZA                             C000000000000000000000000000000000100010010000000000000000000000F0019438200320161119000101 00000000000000000000000000000000000000000000000000000000000000000000000000000000000000000000000000000000000000000N 00000000000NCONT   00    00000000000          00000000000000000000000000000000000000000000 000000000000000A000000000000000000000000000000000000000000000 000000000000000000000000000000000000000     00000000                                                                                                                        000000000000000000
F0010000009438200004000001022529300023658300000000000000000201611190002001ALBERTO ALVAREZ ISAZA                             C000000000005600000000000000000000100010010000000000000000000000F0019438200420161119000101 00000000000000000000000000000000000000000000000000000000000000000000000000000000000000000000000000000000000000000N 00000000000NCONT   00    00000000000          00000000000000000000000000000000000000000000 000000000000000A000000000000000000000000000000000000000000000 000000000000000000000000000000000000000     00000000                                                                                                                        000000000000000000
F0010000009438200005000001022529300013552100000000000000000201611190002001ALBERTO ALVAREZ ISAZA                             D000000000005600000000000000000000100010010000000000000000000000F0019438200520161119000101 00000000000000000000000000000000000000000000000000000000000000000000000000000000000000000000000000000000000000000N 00000000000NCONT   00    00000000000          00000000000000000000000000000000000000000000 000000000000000A000000000000000000000000000000000000000000000 000000000000000000000000000000000000000     00000000                                                                                                                        000000000000000000
F0010000009438300001000001022529300011050500000000000000000201611190002001ALBERTO ALVAREZ ISAZA                             D000000001760000000000000000000000100010010000000000000000000000F0019438300120161119000101 00000000000000000000000000000000000000000000000000000000000000000000000000000000000000000000000000000000000000000N 00000000000NCONT   00    00000000000          00000000000000000000000000000000000000000000 000000000000000A000000000000000000000000000000000000000000000 000000000000000000000000000000000000000     00000000                                                                                                                        000000000000000000
F0010000009438300002000001022529300041450500000000000000000201611190002001ALBERTO ALVAREZ ISAZA                             C000000001760000000000000000000000100010010000000000000000000000F0019438300220161119000101 00000000000000000000000000000000000000000000000000000000000000000000000000000000000000000000000000000000000000000N 00000000000NCONT   00    00000000000          00000000000000000000000000000000000000000000 000000000000000A000000000000000000000000000000000000000000000 000000000000000000000000000000000000000     00000000                                                                                                                        000000000000000000
F0010000009438300003000001022529300042505000000000000000000201611190002001ALBERTO ALVAREZ ISAZA                             C000000000000000000000000000000000100010010000000000000000000000F0019438300320161119000101 00000000000000000000000000000000000000000000000000000000000000000000000000000000000000000000000000000000000000000N 00000000000NCONT   00    00000000000          00000000000000000000000000000000000000000000 000000000000000A000000000000000000000000000000000000000000000 000000000000000000000000000000000000000     00000000                                                                                                                        000000000000000000
F0010000009438300004000001022529300023658300000000000000000201611190002001ALBERTO ALVAREZ ISAZA                             C000000000014100000000000000000000100010010000000000000000000000F0019438300420161119000101 00000000000000000000000000000000000000000000000000000000000000000000000000000000000000000000000000000000000000000N 00000000000NCONT   00    00000000000          00000000000000000000000000000000000000000000 000000000000000A000000000000000000000000000000000000000000000 000000000000000000000000000000000000000     00000000                                                                                                                        000000000000000000
F0010000009438300005000001022529300013552100000000000000000201611190002001ALBERTO ALVAREZ ISAZA                             D000000000014100000000000000000000100010010000000000000000000000F0019438300520161119000101 00000000000000000000000000000000000000000000000000000000000000000000000000000000000000000000000000000000000000000N 00000000000NCONT   00    00000000000          00000000000000000000000000000000000000000000 000000000000000A000000000000000000000000000000000000000000000 000000000000000000000000000000000000000     00000000                                                                                                                        000000000000000000
F0010000009438400001000007213653800011050500000000000000000201611190002001VICTOR ECHAVEZ                                    D000000001300000000000000000000000100010010000000000000000000000F0019438400120161119000101 00000000000000000000000000000000000000000000000000000000000000000000000000000000000000000000000000000000000000000N 00000000000NCONT   00    00000000000          00000000000000000000000000000000000000000000 000000000000000A000000000000000000000000000000000000000000000 000000000000000000000000000000000000000     00000000                                                                                                                        000000000000000000
F0010000009438400002000007213653800041450500000000000000000201611190002001VICTOR ECHAVEZ                                    C000000001000000000000000000000000100010010000000000000000000000F0019438400220161119000101 00000000000000000000000000000000000000000000000000000000000000000000000000000000000000000000000000000000000000000N 00000000000NCONT   00    00000000000          00000000000000000000000000000000000000000000 000000000000000A000000000000000000000000000000000000000000000 000000000000000000000000000000000000000     00000000                                                                                                                        000000000000000000
F0010000009438400003000007213653800042505000000000000000000201611190002001VICTOR ECHAVEZ                                    C000000000300000000000000000000000100010010000000000000000000000F0019438400320161119000101 00000000000000000000000000000000000000000000000000000000000000000000000000000000000000000000000000000000000000000N 00000000000NCONT   00    00000000000          00000000000000000000000000000000000000000000 000000000000000A000000000000000000000000000000000000000000000 000000000000000000000000000000000000000     00000000                                                                                                                        000000000000000000
F0010000009438400004000007213653800023658300000000000000000201611190002001VICTOR ECHAVEZ                                    C000000000008000000000000000000000100010010000000000000000000000F0019438400420161119000101 00000000000000000000000000000000000000000000000000000000000000000000000000000000000000000000000000000000000000000N 00000000000NCONT   00    00000000000          00000000000000000000000000000000000000000000 000000000000000A000000000000000000000000000000000000000000000 000000000000000000000000000000000000000     00000000                                                                                                                        000000000000000000
F0010000009438400005000007213653800013552100000000000000000201611190002001VICTOR ECHAVEZ                                    D000000000008000000000000000000000100010010000000000000000000000F0019438400520161119000101 00000000000000000000000000000000000000000000000000000000000000000000000000000000000000000000000000000000000000000N 00000000000NCONT   00    00000000000          00000000000000000000000000000000000000000000 000000000000000A000000000000000000000000000000000000000000000 000000000000000000000000000000000000000     00000000                                                                                                                        000000000000000000
F0010000009438500001000007213653800011050500000000000000000201611190002001VICTOR ECHAVEZ                                    D000000003000000000000000000000000100010010000000000000000000000F0019438500120161119000101 00000000000000000000000000000000000000000000000000000000000000000000000000000000000000000000000000000000000000000N 00000000000NCONT   00    00000000000          00000000000000000000000000000000000000000000 000000000000000A000000000000000000000000000000000000000000000 000000000000000000000000000000000000000     00000000                                                                                                                        000000000000000000
F0010000009438500002000007213653800041450500000000000000000201611190002001VICTOR ECHAVEZ                                    C000000002000000000000000000000000100010010000000000000000000000F0019438500220161119000101 00000000000000000000000000000000000000000000000000000000000000000000000000000000000000000000000000000000000000000N 00000000000NCONT   00    00000000000          00000000000000000000000000000000000000000000 000000000000000A000000000000000000000000000000000000000000000 000000000000000000000000000000000000000     00000000                                                                                                                        000000000000000000
F0010000009438500003000007213653800042505000000000000000000201611190002001VICTOR ECHAVEZ                                    C000000001000000000000000000000000100010010000000000000000000000F0019438500320161119000101 00000000000000000000000000000000000000000000000000000000000000000000000000000000000000000000000000000000000000000N 00000000000NCONT   00    00000000000          00000000000000000000000000000000000000000000 000000000000000A000000000000000000000000000000000000000000000 000000000000000000000000000000000000000     00000000                                                                                                                        000000000000000000
F0010000009438500004000007213653800023658300000000000000000201611190002001VICTOR ECHAVEZ                                    C000000000016000000000000000000000100010010000000000000000000000F0019438500420161119000101 00000000000000000000000000000000000000000000000000000000000000000000000000000000000000000000000000000000000000000N 00000000000NCONT   00    00000000000          00000000000000000000000000000000000000000000 000000000000000A000000000000000000000000000000000000000000000 000000000000000000000000000000000000000     00000000                                                                                                                        000000000000000000
F0010000009438500005000007213653800013552100000000000000000201611190002001VICTOR ECHAVEZ                                    D000000000016000000000000000000000100010010000000000000000000000F0019438500520161119000101 00000000000000000000000000000000000000000000000000000000000000000000000000000000000000000000000000000000000000000N 00000000000NCONT   00    00000000000          00000000000000000000000000000000000000000000 000000000000000A000000000000000000000000000000000000000000000 000000000000000000000000000000000000000     00000000                                                                                                                        000000000000000000
F0010000009438600001000007213653800011050500000000000000000201611190002001VICTOR ECHAVEZ                                    D000000002500000000000000000000000100010010000000000000000000000F0019438600120161119000101 00000000000000000000000000000000000000000000000000000000000000000000000000000000000000000000000000000000000000000N 00000000000NCONT   00    00000000000          00000000000000000000000000000000000000000000 000000000000000A000000000000000000000000000000000000000000000 000000000000000000000000000000000000000     00000000                                                                                                                        000000000000000000
F0010000009438600002000007213653800041450500000000000000000201611190002001VICTOR ECHAVEZ                                    C000000002000000000000000000000000100010010000000000000000000000F0019438600220161119000101 00000000000000000000000000000000000000000000000000000000000000000000000000000000000000000000000000000000000000000N 00000000000NCONT   00    00000000000          00000000000000000000000000000000000000000000 000000000000000A000000000000000000000000000000000000000000000 000000000000000000000000000000000000000     00000000                                                                                                                        000000000000000000
F0010000009438600003000007213653800042505000000000000000000201611190002001VICTOR ECHAVEZ                                    C000000000500000000000000000000000100010010000000000000000000000F0019438600320161119000101 00000000000000000000000000000000000000000000000000000000000000000000000000000000000000000000000000000000000000000N 00000000000NCONT   00    00000000000          00000000000000000000000000000000000000000000 000000000000000A000000000000000000000000000000000000000000000 000000000000000000000000000000000000000     00000000                                                                                                                        000000000000000000
F0010000009438600004000007213653800023658300000000000000000201611190002001VICTOR ECHAVEZ                                    C000000000016000000000000000000000100010010000000000000000000000F0019438600420161119000101 00000000000000000000000000000000000000000000000000000000000000000000000000000000000000000000000000000000000000000N 00000000000NCONT   00    00000000000          00000000000000000000000000000000000000000000 000000000000000A000000000000000000000000000000000000000000000 000000000000000000000000000000000000000     00000000                                                                                                                        000000000000000000
F0010000009438600005000007213653800013552100000000000000000201611190002001VICTOR ECHAVEZ                                    D000000000016000000000000000000000100010010000000000000000000000F0019438600520161119000101 00000000000000000000000000000000000000000000000000000000000000000000000000000000000000000000000000000000000000000N 00000000000NCONT   00    00000000000          00000000000000000000000000000000000000000000 000000000000000A000000000000000000000000000000000000000000000 000000000000000000000000000000000000000     00000000                                                                                                                        000000000000000000
F0010000009438700001000007213653800011050500000000000000000201611190002001VICTOR ECHAVEZ                                    D000000003700000000000000000000000100010010000000000000000000000F0019438700120161119000101 00000000000000000000000000000000000000000000000000000000000000000000000000000000000000000000000000000000000000000N 00000000000NCONT   00    00000000000          00000000000000000000000000000000000000000000 000000000000000A000000000000000000000000000000000000000000000 000000000000000000000000000000000000000     00000000                                                                                                                        000000000000000000
F0010000009438700002000007213653800041450500000000000000000201611190002001VICTOR ECHAVEZ                                    C000000003000000000000000000000000100010010000000000000000000000F0019438700220161119000101 00000000000000000000000000000000000000000000000000000000000000000000000000000000000000000000000000000000000000000N 00000000000NCONT   00    00000000000          00000000000000000000000000000000000000000000 000000000000000A000000000000000000000000000000000000000000000 000000000000000000000000000000000000000     00000000                                                                                                                        000000000000000000
F0010000009438700003000007213653800042505000000000000000000201611190002001VICTOR ECHAVEZ                                    C000000000700000000000000000000000100010010000000000000000000000F0019438700320161119000101 00000000000000000000000000000000000000000000000000000000000000000000000000000000000000000000000000000000000000000N 00000000000NCONT   00    00000000000          00000000000000000000000000000000000000000000 000000000000000A000000000000000000000000000000000000000000000 000000000000000000000000000000000000000     00000000                                                                                                                        000000000000000000
F0010000009438700004000007213653800023658300000000000000000201611190002001VICTOR ECHAVEZ                                    C000000000024000000000000000000000100010010000000000000000000000F0019438700420161119000101 00000000000000000000000000000000000000000000000000000000000000000000000000000000000000000000000000000000000000000N 00000000000NCONT   00    00000000000          00000000000000000000000000000000000000000000 000000000000000A000000000000000000000000000000000000000000000 000000000000000000000000000000000000000     00000000                                                                                                                        000000000000000000
F0010000009438700005000007213653800013552100000000000000000201611190002001VICTOR ECHAVEZ                                    D000000000024000000000000000000000100010010000000000000000000000F0019438700520161119000101 00000000000000000000000000000000000000000000000000000000000000000000000000000000000000000000000000000000000000000N 00000000000NCONT   00    00000000000          00000000000000000000000000000000000000000000 000000000000000A000000000000000000000000000000000000000000000 000000000000000000000000000000000000000     00000000                                                                                                                        000000000000000000
F0010000009438800001000007213653800011050500000000000000000201611190002001VICTOR ECHAVEZ                                    D000000001400000000000000000000000100010010000000000000000000000F0019438800120161119000101 00000000000000000000000000000000000000000000000000000000000000000000000000000000000000000000000000000000000000000N 00000000000NCONT   00    00000000000          00000000000000000000000000000000000000000000 000000000000000A000000000000000000000000000000000000000000000 000000000000000000000000000000000000000     00000000                                                                                                                        000000000000000000
F0010000009438800002000007213653800041450500000000000000000201611190002001VICTOR ECHAVEZ                                    C000000001000000000000000000000000100010010000000000000000000000F0019438800220161119000101 00000000000000000000000000000000000000000000000000000000000000000000000000000000000000000000000000000000000000000N 00000000000NCONT   00    00000000000          00000000000000000000000000000000000000000000 000000000000000A000000000000000000000000000000000000000000000 000000000000000000000000000000000000000     00000000                                                                                                                        000000000000000000
F0010000009438800003000007213653800042505000000000000000000201611190002001VICTOR ECHAVEZ                                    C000000000400000000000000000000000100010010000000000000000000000F0019438800320161119000101 00000000000000000000000000000000000000000000000000000000000000000000000000000000000000000000000000000000000000000N 00000000000NCONT   00    00000000000          00000000000000000000000000000000000000000000 000000000000000A000000000000000000000000000000000000000000000 000000000000000000000000000000000000000     00000000                                                                                                                        000000000000000000
F0010000009438800004000007213653800023658300000000000000000201611190002001VICTOR ECHAVEZ                                    C000000000008000000000000000000000100010010000000000000000000000F0019438800420161119000101 00000000000000000000000000000000000000000000000000000000000000000000000000000000000000000000000000000000000000000N 00000000000NCONT   00    00000000000          00000000000000000000000000000000000000000000 000000000000000A000000000000000000000000000000000000000000000 000000000000000000000000000000000000000     00000000                                                                                                                        000000000000000000
F0010000009438800005000007213653800013552100000000000000000201611190002001VICTOR ECHAVEZ                                    D000000000008000000000000000000000100010010000000000000000000000F0019438800520161119000101 00000000000000000000000000000000000000000000000000000000000000000000000000000000000000000000000000000000000000000N 00000000000NCONT   00    00000000000          00000000000000000000000000000000000000000000 000000000000000A000000000000000000000000000000000000000000000 000000000000000000000000000000000000000     00000000                                                                                                                        000000000000000000
F0010000009438900001000007213653800011050500000000000000000201611190002001VICTOR ECHAVEZ                                    D000000001200000000000000000000000100010010000000000000000000000F0019438900120161119000101 00000000000000000000000000000000000000000000000000000000000000000000000000000000000000000000000000000000000000000N 00000000000NCONT   00    00000000000          00000000000000000000000000000000000000000000 000000000000000A000000000000000000000000000000000000000000000 000000000000000000000000000000000000000     00000000                                                                                                                        000000000000000000
F0010000009438900002000007213653800041450500000000000000000201611190002001VICTOR ECHAVEZ                                    C000000001000000000000000000000000100010010000000000000000000000F0019438900220161119000101 00000000000000000000000000000000000000000000000000000000000000000000000000000000000000000000000000000000000000000N 00000000000NCONT   00    00000000000          00000000000000000000000000000000000000000000 000000000000000A000000000000000000000000000000000000000000000 000000000000000000000000000000000000000     00000000                                                                                                                        000000000000000000
F0010000009438900003000007213653800042505000000000000000000201611190002001VICTOR ECHAVEZ                                    C000000000200000000000000000000000100010010000000000000000000000F0019438900320161119000101 00000000000000000000000000000000000000000000000000000000000000000000000000000000000000000000000000000000000000000N 00000000000NCONT   00    00000000000          00000000000000000000000000000000000000000000 000000000000000A000000000000000000000000000000000000000000000 000000000000000000000000000000000000000     00000000                                                                                                                        000000000000000000
F0010000009438900004000007213653800023658300000000000000000201611190002001VICTOR ECHAVEZ                                    C000000000008000000000000000000000100010010000000000000000000000F0019438900420161119000101 00000000000000000000000000000000000000000000000000000000000000000000000000000000000000000000000000000000000000000N 00000000000NCONT   00    00000000000          00000000000000000000000000000000000000000000 000000000000000A000000000000000000000000000000000000000000000 000000000000000000000000000000000000000     00000000                                                                                                                        000000000000000000
F0010000009438900005000007213653800013552100000000000000000201611190002001VICTOR ECHAVEZ                                    D000000000008000000000000000000000100010010000000000000000000000F0019438900520161119000101 00000000000000000000000000000000000000000000000000000000000000000000000000000000000000000000000000000000000000000N 00000000000NCONT   00    00000000000          00000000000000000000000000000000000000000000 000000000000000A000000000000000000000000000000000000000000000 000000000000000000000000000000000000000     00000000                                                                                                                        000000000000000000
F0010000009439000001000007213653800011050500000000000000000201611190002001VICTOR ECHAVEZ                                    D000000001200000000000000000000000100010010000000000000000000000F0019439000120161119000101 00000000000000000000000000000000000000000000000000000000000000000000000000000000000000000000000000000000000000000N 00000000000NCONT   00    00000000000          00000000000000000000000000000000000000000000 000000000000000A000000000000000000000000000000000000000000000 000000000000000000000000000000000000000     00000000                                                                                                                        000000000000000000
F0010000009439000002000007213653800041450500000000000000000201611190002001VICTOR ECHAVEZ                                    C000000001000000000000000000000000100010010000000000000000000000F0019439000220161119000101 00000000000000000000000000000000000000000000000000000000000000000000000000000000000000000000000000000000000000000N 00000000000NCONT   00    00000000000          00000000000000000000000000000000000000000000 000000000000000A000000000000000000000000000000000000000000000 000000000000000000000000000000000000000     00000000                                                                                                                        000000000000000000
F0010000009439000003000007213653800042505000000000000000000201611190002001VICTOR ECHAVEZ                                    C000000000200000000000000000000000100010010000000000000000000000F0019439000320161119000101 00000000000000000000000000000000000000000000000000000000000000000000000000000000000000000000000000000000000000000N 00000000000NCONT   00    00000000000          00000000000000000000000000000000000000000000 000000000000000A000000000000000000000000000000000000000000000 000000000000000000000000000000000000000     00000000                                                                                                                        000000000000000000
F0010000009439000004000007213653800023658300000000000000000201611190002001VICTOR ECHAVEZ                                    C000000000008000000000000000000000100010010000000000000000000000F0019439000420161119000101 00000000000000000000000000000000000000000000000000000000000000000000000000000000000000000000000000000000000000000N 00000000000NCONT   00    00000000000          00000000000000000000000000000000000000000000 000000000000000A000000000000000000000000000000000000000000000 000000000000000000000000000000000000000     00000000                                                                                                                        000000000000000000
F0010000009439000005000007213653800013552100000000000000000201611190002001VICTOR ECHAVEZ                                    D000000000008000000000000000000000100010010000000000000000000000F0019439000520161119000101 00000000000000000000000000000000000000000000000000000000000000000000000000000000000000000000000000000000000000000N 00000000000NCONT   00    00000000000          00000000000000000000000000000000000000000000 000000000000000A000000000000000000000000000000000000000000000 000000000000000000000000000000000000000     00000000                                                                                                                        000000000000000000
F0010000009439100001000080012418800011050500000000000000000201611190002001DISTRITEC S.A.S                                   D000000004100000000000000000000000100010010000000000000000000000F0019439100120161119000101 00000000000000000000000000000000000000000000000000000000000000000000000000000000000000000000000000000000000000000N 00000000000NCONT   00    00000000000          00000000000000000000000000000000000000000000 000000000000000A000000000000000000000000000000000000000000000 000000000000000000000000000000000000000     00000000                                                                                                                        000000000000000000
F0010000009439100002000080012418800041450500000000000000000201611190002001DISTRITEC S.A.S                                   C000000003900000000000000000000000100010010000000000000000000000F0019439100220161119000101 00000000000000000000000000000000000000000000000000000000000000000000000000000000000000000000000000000000000000000N 00000000000NCONT   00    00000000000          00000000000000000000000000000000000000000000 000000000000000A000000000000000000000000000000000000000000000 000000000000000000000000000000000000000     00000000                                                                                                                        000000000000000000
F0010000009439100003000080012418800042505000000000000000000201611190002001DISTRITEC S.A.S                                   C000000000200000000000000000000000100010010000000000000000000000F0019439100320161119000101 00000000000000000000000000000000000000000000000000000000000000000000000000000000000000000000000000000000000000000N 00000000000NCONT   00    00000000000          00000000000000000000000000000000000000000000 000000000000000A000000000000000000000000000000000000000000000 000000000000000000000000000000000000000     00000000                                                                                                                        000000000000000000
F0010000009439100004000080012418800023658300000000000000000201611190002001DISTRITEC S.A.S                                   C000000000031200000000000000000000100010010000000000000000000000F0019439100420161119000101 00000000000000000000000000000000000000000000000000000000000000000000000000000000000000000000000000000000000000000N 00000000000NCONT   00    00000000000          00000000000000000000000000000000000000000000 000000000000000A000000000000000000000000000000000000000000000 000000000000000000000000000000000000000     00000000                                                                                                                        000000000000000000
F0010000009439100005000080012418800013552100000000000000000201611190002001DISTRITEC S.A.S                                   D000000000031200000000000000000000100010010000000000000000000000F0019439100520161119000101 00000000000000000000000000000000000000000000000000000000000000000000000000000000000000000000000000000000000000000N 00000000000NCONT   00    00000000000          00000000000000000000000000000000000000000000 000000000000000A000000000000000000000000000000000000000000000 000000000000000000000000000000000000000     00000000                                                                                                                        000000000000000000
F0010000009439200001000080202350700011050500000000000000000201611190002001CONNY DE LA COSTA SAS                             D000000000900000000000000000000000100010010000000000000000000000F0019439200120161119000101 00000000000000000000000000000000000000000000000000000000000000000000000000000000000000000000000000000000000000000N 00000000000NCONT   00    00000000000          00000000000000000000000000000000000000000000 000000000000000A000000000000000000000000000000000000000000000 000000000000000000000000000000000000000     00000000                                                                                                                        000000000000000000
F0010000009439200002000080202350700041450500000000000000000201611190002001CONNY DE LA COSTA SAS                             C000000000850000000000000000000000100010010000000000000000000000F0019439200220161119000101 00000000000000000000000000000000000000000000000000000000000000000000000000000000000000000000000000000000000000000N 00000000000NCONT   00    00000000000          00000000000000000000000000000000000000000000 000000000000000A000000000000000000000000000000000000000000000 000000000000000000000000000000000000000     00000000                                                                                                                        000000000000000000
F0010000009439200003000080202350700042505000000000000000000201611190002001CONNY DE LA COSTA SAS                             C000000000050000000000000000000000100010010000000000000000000000F0019439200320161119000101 00000000000000000000000000000000000000000000000000000000000000000000000000000000000000000000000000000000000000000N 00000000000NCONT   00    00000000000          00000000000000000000000000000000000000000000 000000000000000A000000000000000000000000000000000000000000000 000000000000000000000000000000000000000     00000000                                                                                                                        000000000000000000
F0010000009439200004000080202350700023658300000000000000000201611190002001CONNY DE LA COSTA SAS                             C000000000006800000000000000000000100010010000000000000000000000F0019439200420161119000101 00000000000000000000000000000000000000000000000000000000000000000000000000000000000000000000000000000000000000000N 00000000000NCONT   00    00000000000          00000000000000000000000000000000000000000000 000000000000000A000000000000000000000000000000000000000000000 000000000000000000000000000000000000000     00000000                                                                                                                        000000000000000000
F0010000009439200005000080202350700013552100000000000000000201611190002001CONNY DE LA COSTA SAS                             D000000000006800000000000000000000100010010000000000000000000000F0019439200520161119000101 00000000000000000000000000000000000000000000000000000000000000000000000000000000000000000000000000000000000000000N 00000000000NCONT   00    00000000000          00000000000000000000000000000000000000000000 000000000000000A000000000000000000000000000000000000000000000 000000000000000000000000000000000000000     00000000                                                                                                                        000000000000000000
F0010000009439300001000102390001700011050500000000000000000201611190002001LILIANA HERNANDEZ PINILLA                         D000000005400000000000000000000000100010010000000000000000000000F0019439300120161119000101 00000000000000000000000000000000000000000000000000000000000000000000000000000000000000000000000000000000000000000N 00000000000NCONT   00    00000000000          00000000000000000000000000000000000000000000 000000000000000A000000000000000000000000000000000000000000000 000000000000000000000000000000000000000     00000000                                                                                                                        000000000000000000
F0010000009439300002000102390001700041450500000000000000000201611190002001LILIANA HERNANDEZ PINILLA                         C000000003900000000000000000000000100010010000000000000000000000F0019439300220161119000101 00000000000000000000000000000000000000000000000000000000000000000000000000000000000000000000000000000000000000000N 00000000000NCONT   00    00000000000          00000000000000000000000000000000000000000000 000000000000000A000000000000000000000000000000000000000000000 000000000000000000000000000000000000000     00000000                                                                                                                        000000000000000000
F0010000009439300003000102390001700042505000000000000000000201611190002001LILIANA HERNANDEZ PINILLA                         C000000001500000000000000000000000100010010000000000000000000000F0019439300320161119000101 00000000000000000000000000000000000000000000000000000000000000000000000000000000000000000000000000000000000000000N 00000000000NCONT   00    00000000000          00000000000000000000000000000000000000000000 000000000000000A000000000000000000000000000000000000000000000 000000000000000000000000000000000000000     00000000                                                                                                                        000000000000000000
F0010000009439300004000102390001700023658300000000000000000201611190002001LILIANA HERNANDEZ PINILLA                         C000000000031200000000000000000000100010010000000000000000000000F0019439300420161119000101 00000000000000000000000000000000000000000000000000000000000000000000000000000000000000000000000000000000000000000N 00000000000NCONT   00    00000000000          00000000000000000000000000000000000000000000 000000000000000A000000000000000000000000000000000000000000000 000000000000000000000000000000000000000     00000000                                                                                                                        000000000000000000
F0010000009439300005000102390001700013552100000000000000000201611190002001LILIANA HERNANDEZ PINILLA                         D000000000031200000000000000000000100010010000000000000000000000F0019439300520161119000101 00000000000000000000000000000000000000000000000000000000000000000000000000000000000000000000000000000000000000000N 00000000000NCONT   00    00000000000          00000000000000000000000000000000000000000000 000000000000000A000000000000000000000000000000000000000000000 000000000000000000000000000000000000000     00000000                                                                                                                        000000000000000000
F0010000009439400001000090051494400011050500000000000000000201611190002001MUNDINOX SAS                                      D000000005900000000000000000000000100010010000000000000000000000F0019439400120161119000101 00000000000000000000000000000000000000000000000000000000000000000000000000000000000000000000000000000000000000000N 00000000000NCONT   00    00000000000          00000000000000000000000000000000000000000000 000000000000000A000000000000000000000000000000000000000000000 000000000000000000000000000000000000000     00000000                                                                                                                        000000000000000000
F0010000009439400002000090051494400041450500000000000000000201611190002001MUNDINOX SAS                                      C000000005600000000000000000000000100010010000000000000000000000F0019439400220161119000101 00000000000000000000000000000000000000000000000000000000000000000000000000000000000000000000000000000000000000000N 00000000000NCONT   00    00000000000          00000000000000000000000000000000000000000000 000000000000000A000000000000000000000000000000000000000000000 000000000000000000000000000000000000000     00000000                                                                                                                        000000000000000000
F0010000009439400003000090051494400042505000000000000000000201611190002001MUNDINOX SAS                                      C000000000300000000000000000000000100010010000000000000000000000F0019439400320161119000101 00000000000000000000000000000000000000000000000000000000000000000000000000000000000000000000000000000000000000000N 00000000000NCONT   00    00000000000          00000000000000000000000000000000000000000000 000000000000000A000000000000000000000000000000000000000000000 000000000000000000000000000000000000000     00000000                                                                                                                        000000000000000000
F0010000009439400004000090051494400023658300000000000000000201611190002001MUNDINOX SAS                                      C000000000044800000000000000000000100010010000000000000000000000F0019439400420161119000101 00000000000000000000000000000000000000000000000000000000000000000000000000000000000000000000000000000000000000000N 00000000000NCONT   00    00000000000          00000000000000000000000000000000000000000000 000000000000000A000000000000000000000000000000000000000000000 000000000000000000000000000000000000000     00000000                                                                                                                        000000000000000000
F0010000009439400005000090051494400013552100000000000000000201611190002001MUNDINOX SAS                                      D000000000044800000000000000000000100010010000000000000000000000F0019439400520161119000101 00000000000000000000000000000000000000000000000000000000000000000000000000000000000000000000000000000000000000000N 00000000000NCONT   00    00000000000          00000000000000000000000000000000000000000000 000000000000000A000000000000000000000000000000000000000000000 000000000000000000000000000000000000000     00000000                                                                                                                        000000000000000000
F0010000009439500001000007090373900011050500000000000000000201611190002001CACHARRERIA LOS MARINILLOS                        D000000014500000000000000000000000100010010000000000000000000000F0019439500120161119000101 00000000000000000000000000000000000000000000000000000000000000000000000000000000000000000000000000000000000000000N 00000000000NCONT   00    00000000000          00000000000000000000000000000000000000000000 000000000000000A000000000000000000000000000000000000000000000 000000000000000000000000000000000000000     00000000                                                                                                                        000000000000000000
F0010000009439500002000007090373900041450500000000000000000201611190002001CACHARRERIA LOS MARINILLOS                        C000000011500000000000000000000000100010010000000000000000000000F0019439500220161119000101 00000000000000000000000000000000000000000000000000000000000000000000000000000000000000000000000000000000000000000N 00000000000NCONT   00    00000000000          00000000000000000000000000000000000000000000 000000000000000A000000000000000000000000000000000000000000000 000000000000000000000000000000000000000     00000000                                                                                                                        000000000000000000
F0010000009439500003000007090373900042505000000000000000000201611190002001CACHARRERIA LOS MARINILLOS                        C000000003000000000000000000000000100010010000000000000000000000F0019439500320161119000101 00000000000000000000000000000000000000000000000000000000000000000000000000000000000000000000000000000000000000000N 00000000000NCONT   00    00000000000          00000000000000000000000000000000000000000000 000000000000000A000000000000000000000000000000000000000000000 000000000000000000000000000000000000000     00000000                                                                                                                        000000000000000000
F0010000009439500004000007090373900023658300000000000000000201611190002001CACHARRERIA LOS MARINILLOS                        C000000000092000000000000000000000100010010000000000000000000000F0019439500420161119000101 00000000000000000000000000000000000000000000000000000000000000000000000000000000000000000000000000000000000000000N 00000000000NCONT   00    00000000000          00000000000000000000000000000000000000000000 000000000000000A000000000000000000000000000000000000000000000 000000000000000000000000000000000000000     00000000                                                                                                                        000000000000000000
F0010000009439500005000007090373900013552100000000000000000201611190002001CACHARRERIA LOS MARINILLOS                        D000000000092000000000000000000000100010010000000000000000000000F0019439500520161119000101 00000000000000000000000000000000000000000000000000000000000000000000000000000000000000000000000000000000000000000N 00000000000NCONT   00    00000000000          00000000000000000000000000000000000000000000 000000000000000A000000000000000000000000000000000000000000000 000000000000000000000000000000000000000     00000000                                                                                                                        000000000000000000
F0010000009439600001000086003979400011050500000000000000000201611190002001CALYPSO BARRANQUILLA LTDA                         D000000000750500000000000000000000100010010000000000000000000000F0019439600120161119000101 00000000000000000000000000000000000000000000000000000000000000000000000000000000000000000000000000000000000000000N 00000000000NCONT   00    00000000000          00000000000000000000000000000000000000000000 000000000000000A000000000000000000000000000000000000000000000 000000000000000000000000000000000000000     00000000                                                                                                                        000000000000000000
F0010000009439600002000086003979400041450500000000000000000201611190002001CALYPSO BARRANQUILLA LTDA                         C000000000660000000000000000000000100010010000000000000000000000F0019439600220161119000101 00000000000000000000000000000000000000000000000000000000000000000000000000000000000000000000000000000000000000000N 00000000000NCONT   00    00000000000          00000000000000000000000000000000000000000000 000000000000000A000000000000000000000000000000000000000000000 000000000000000000000000000000000000000     00000000                                                                                                                        000000000000000000
F0010000009439600003000086003979400042505000000000000000000201611190002001CALYPSO BARRANQUILLA LTDA                         C000000000090500000000000000000000100010010000000000000000000000F0019439600320161119000101 00000000000000000000000000000000000000000000000000000000000000000000000000000000000000000000000000000000000000000N 00000000000NCONT   00    00000000000          00000000000000000000000000000000000000000000 000000000000000A000000000000000000000000000000000000000000000 000000000000000000000000000000000000000     00000000                                                                                                                        000000000000000000
F0010000009439600004000086003979400023658300000000000000000201611190002001CALYPSO BARRANQUILLA LTDA                         C000000000005300000000000000000000100010010000000000000000000000F0019439600420161119000101 00000000000000000000000000000000000000000000000000000000000000000000000000000000000000000000000000000000000000000N 00000000000NCONT   00    00000000000          00000000000000000000000000000000000000000000 000000000000000A000000000000000000000000000000000000000000000 000000000000000000000000000000000000000     00000000                                                                                                                        000000000000000000
F0010000009439600005000086003979400013552100000000000000000201611190002001CALYPSO BARRANQUILLA LTDA                         D000000000005300000000000000000000100010010000000000000000000000F0019439600520161119000101 00000000000000000000000000000000000000000000000000000000000000000000000000000000000000000000000000000000000000000N 00000000000NCONT   00    00000000000          00000000000000000000000000000000000000000000 000000000000000A000000000000000000000000000000000000000000000 000000000000000000000000000000000000000     00000000                                                                                                                        000000000000000000
F0010000009439700001000090050144800011050500000000000000000201611190002001PLASTICOS JR ASOCIADOS SAS                        D000000004700000000000000000000000100010010000000000000000000000F0019439700120161119000101 00000000000000000000000000000000000000000000000000000000000000000000000000000000000000000000000000000000000000000N 00000000000NCONT   00    00000000000          00000000000000000000000000000000000000000000 000000000000000A000000000000000000000000000000000000000000000 000000000000000000000000000000000000000     00000000                                                                                                                        000000000000000000
F0010000009439700002000090050144800041450500000000000000000201611190002001PLASTICOS JR ASOCIADOS SAS                        C000000004000000000000000000000000100010010000000000000000000000F0019439700220161119000101 00000000000000000000000000000000000000000000000000000000000000000000000000000000000000000000000000000000000000000N 00000000000NCONT   00    00000000000          00000000000000000000000000000000000000000000 000000000000000A000000000000000000000000000000000000000000000 000000000000000000000000000000000000000     00000000                                                                                                                        000000000000000000
F0010000009439700003000090050144800042505000000000000000000201611190002001PLASTICOS JR ASOCIADOS SAS                        C000000000700000000000000000000000100010010000000000000000000000F0019439700320161119000101 00000000000000000000000000000000000000000000000000000000000000000000000000000000000000000000000000000000000000000N 00000000000NCONT   00    00000000000          00000000000000000000000000000000000000000000 000000000000000A000000000000000000000000000000000000000000000 000000000000000000000000000000000000000     00000000                                                                                                                        000000000000000000
F0010000009439700004000090050144800023658300000000000000000201611190002001PLASTICOS JR ASOCIADOS SAS                        C000000000032000000000000000000000100010010000000000000000000000F0019439700420161119000101 00000000000000000000000000000000000000000000000000000000000000000000000000000000000000000000000000000000000000000N 00000000000NCONT   00    00000000000          00000000000000000000000000000000000000000000 000000000000000A000000000000000000000000000000000000000000000 000000000000000000000000000000000000000     00000000                                                                                                                        000000000000000000
F0010000009439700005000090050144800013552100000000000000000201611190002001PLASTICOS JR ASOCIADOS SAS                        D000000000032000000000000000000000100010010000000000000000000000F0019439700520161119000101 00000000000000000000000000000000000000000000000000000000000000000000000000000000000000000000000000000000000000000N 00000000000NCONT   00    00000000000          00000000000000000000000000000000000000000000 000000000000000A000000000000000000000000000000000000000000000 000000000000000000000000000000000000000     00000000                                                                                                                        000000000000000000
F0010000009439800001000003264654300011050500000000000000000201611190002001MELBA ECHEVERRIA PINTO                            D000000008000000000000000000000000100010010000000000000000000000F0019439800120161119000101 00000000000000000000000000000000000000000000000000000000000000000000000000000000000000000000000000000000000000000N 00000000000NCONT   00    00000000000          00000000000000000000000000000000000000000000 000000000000000A000000000000000000000000000000000000000000000 000000000000000000000000000000000000000     00000000                                                                                                                        000000000000000000
F0010000009439800002000003264654300041450500000000000000000201611190002001MELBA ECHEVERRIA PINTO                            C000000007600000000000000000000000100010010000000000000000000000F0019439800220161119000101 00000000000000000000000000000000000000000000000000000000000000000000000000000000000000000000000000000000000000000N 00000000000NCONT   00    00000000000          00000000000000000000000000000000000000000000 000000000000000A000000000000000000000000000000000000000000000 000000000000000000000000000000000000000     00000000                                                                                                                        000000000000000000
F0010000009439800003000003264654300042505000000000000000000201611190002001MELBA ECHEVERRIA PINTO                            C000000000400000000000000000000000100010010000000000000000000000F0019439800320161119000101 00000000000000000000000000000000000000000000000000000000000000000000000000000000000000000000000000000000000000000N 00000000000NCONT   00    00000000000          00000000000000000000000000000000000000000000 000000000000000A000000000000000000000000000000000000000000000 000000000000000000000000000000000000000     00000000                                                                                                                        000000000000000000
F0010000009439800004000003264654300023658300000000000000000201611190002001MELBA ECHEVERRIA PINTO                            C000000000060800000000000000000000100010010000000000000000000000F0019439800420161119000101 00000000000000000000000000000000000000000000000000000000000000000000000000000000000000000000000000000000000000000N 00000000000NCONT   00    00000000000          00000000000000000000000000000000000000000000 000000000000000A000000000000000000000000000000000000000000000 000000000000000000000000000000000000000     00000000                                                                                                                        000000000000000000
F0010000009439800005000003264654300013552100000000000000000201611190002001MELBA ECHEVERRIA PINTO                            D000000000060800000000000000000000100010010000000000000000000000F0019439800520161119000101 00000000000000000000000000000000000000000000000000000000000000000000000000000000000000000000000000000000000000000N 00000000000NCONT   00    00000000000          00000000000000000000000000000000000000000000 000000000000000A000000000000000000000000000000000000000000000 000000000000000000000000000000000000000     00000000                                                                                                                        000000000000000000
F0010000009439900001000081300029800011050500000000000000000201611190002001SURENVIOS                                         D000000017160000000000000000000000100010010000000000000000000000F0019439900120161119000101 00000000000000000000000000000000000000000000000000000000000000000000000000000000000000000000000000000000000000000N 00000000000NCONT   00    00000000000          00000000000000000000000000000000000000000000 000000000000000A000000000000000000000000000000000000000000000 000000000000000000000000000000000000000     00000000                                                                                                                        000000000000000000
F0010000009439900002000081300029800041450500000000000000000201611190002001SURENVIOS                                         C000000016500000000000000000000000100010010000000000000000000000F0019439900220161119000101 00000000000000000000000000000000000000000000000000000000000000000000000000000000000000000000000000000000000000000N 00000000000NCONT   00    00000000000          00000000000000000000000000000000000000000000 000000000000000A000000000000000000000000000000000000000000000 000000000000000000000000000000000000000     00000000                                                                                                                        000000000000000000
F0010000009439900003000081300029800042505000000000000000000201611190002001SURENVIOS                                         C000000000660000000000000000000000100010010000000000000000000000F0019439900320161119000101 00000000000000000000000000000000000000000000000000000000000000000000000000000000000000000000000000000000000000000N 00000000000NCONT   00    00000000000          00000000000000000000000000000000000000000000 000000000000000A000000000000000000000000000000000000000000000 000000000000000000000000000000000000000     00000000                                                                                                                        000000000000000000
F0010000009439900004000081300029800023658300000000000000000201611190002001SURENVIOS                                         C000000000132000000000000000000000100010010000000000000000000000F0019439900420161119000101 00000000000000000000000000000000000000000000000000000000000000000000000000000000000000000000000000000000000000000N 00000000000NCONT   00    00000000000          00000000000000000000000000000000000000000000 000000000000000A000000000000000000000000000000000000000000000 000000000000000000000000000000000000000     00000000                                                                                                                        000000000000000000
F0010000009439900005000081300029800013552100000000000000000201611190002001SURENVIOS                                         D000000000132000000000000000000000100010010000000000000000000000F0019439900520161119000101 00000000000000000000000000000000000000000000000000000000000000000000000000000000000000000000000000000000000000000N 00000000000NCONT   00    00000000000          00000000000000000000000000000000000000000000 000000000000000A000000000000000000000000000000000000000000000 000000000000000000000000000000000000000     00000000                                                                                                                        000000000000000000
F0010000009440000001000081300029800011050500000000000000000201611190002001SURENVIOS                                         D000000007800000000000000000000000100010010000000000000000000000F0019440000120161119000101 00000000000000000000000000000000000000000000000000000000000000000000000000000000000000000000000000000000000000000N 00000000000NCONT   00    00000000000          00000000000000000000000000000000000000000000 000000000000000A000000000000000000000000000000000000000000000 000000000000000000000000000000000000000     00000000                                                                                                                        000000000000000000
F0010000009440000002000081300029800041450500000000000000000201611190002001SURENVIOS                                         C000000007500000000000000000000000100010010000000000000000000000F0019440000220161119000101 00000000000000000000000000000000000000000000000000000000000000000000000000000000000000000000000000000000000000000N 00000000000NCONT   00    00000000000          00000000000000000000000000000000000000000000 000000000000000A000000000000000000000000000000000000000000000 000000000000000000000000000000000000000     00000000                                                                                                                        000000000000000000
F0010000009440000003000081300029800042505000000000000000000201611190002001SURENVIOS                                         C000000000300000000000000000000000100010010000000000000000000000F0019440000320161119000101 00000000000000000000000000000000000000000000000000000000000000000000000000000000000000000000000000000000000000000N 00000000000NCONT   00    00000000000          00000000000000000000000000000000000000000000 000000000000000A000000000000000000000000000000000000000000000 000000000000000000000000000000000000000     00000000                                                                                                                        000000000000000000
F0010000009440000004000081300029800023658300000000000000000201611190002001SURENVIOS                                         C000000000060000000000000000000000100010010000000000000000000000F0019440000420161119000101 00000000000000000000000000000000000000000000000000000000000000000000000000000000000000000000000000000000000000000N 00000000000NCONT   00    00000000000          00000000000000000000000000000000000000000000 000000000000000A000000000000000000000000000000000000000000000 000000000000000000000000000000000000000     00000000                                                                                                                        000000000000000000
F0010000009440000005000081300029800013552100000000000000000201611190002001SURENVIOS                                         D000000000060000000000000000000000100010010000000000000000000000F0019440000520161119000101 00000000000000000000000000000000000000000000000000000000000000000000000000000000000000000000000000000000000000000N 00000000000NCONT   00    00000000000          00000000000000000000000000000000000000000000 000000000000000A000000000000000000000000000000000000000000000 000000000000000000000000000000000000000     00000000                                                                                                                        000000000000000000
F0010000009440100001000090064474900011050500000000000000000201611190002001CENTRO ARTE PAPERIA SAS                           D000000003100000000000000000000000100010010000000000000000000000F0019440100120161119000101 00000000000000000000000000000000000000000000000000000000000000000000000000000000000000000000000000000000000000000N 00000000000NCONT   00    00000000000          00000000000000000000000000000000000000000000 000000000000000A000000000000000000000000000000000000000000000 000000000000000000000000000000000000000     00000000                                                                                                                        000000000000000000
F0010000009440100002000090064474900041450500000000000000000201611190002001CENTRO ARTE PAPERIA SAS                           C000000002700000000000000000000000100010010000000000000000000000F0019440100220161119000101 00000000000000000000000000000000000000000000000000000000000000000000000000000000000000000000000000000000000000000N 00000000000NCONT   00    00000000000          00000000000000000000000000000000000000000000 000000000000000A000000000000000000000000000000000000000000000 000000000000000000000000000000000000000     00000000                                                                                                                        000000000000000000
F0010000009440100003000090064474900042505000000000000000000201611190002001CENTRO ARTE PAPERIA SAS                           C000000000400000000000000000000000100010010000000000000000000000F0019440100320161119000101 00000000000000000000000000000000000000000000000000000000000000000000000000000000000000000000000000000000000000000N 00000000000NCONT   00    00000000000          00000000000000000000000000000000000000000000 000000000000000A000000000000000000000000000000000000000000000 000000000000000000000000000000000000000     00000000                                                                                                                        000000000000000000
F0010000009440100004000090064474900023658300000000000000000201611190002001CENTRO ARTE PAPERIA SAS                           C000000000021600000000000000000000100010010000000000000000000000F0019440100420161119000101 00000000000000000000000000000000000000000000000000000000000000000000000000000000000000000000000000000000000000000N 00000000000NCONT   00    00000000000          00000000000000000000000000000000000000000000 000000000000000A000000000000000000000000000000000000000000000 000000000000000000000000000000000000000     00000000                                                                                                                        000000000000000000
F0010000009440100005000090064474900013552100000000000000000201611190002001CENTRO ARTE PAPERIA SAS                           D000000000021600000000000000000000100010010000000000000000000000F0019440100520161119000101 00000000000000000000000000000000000000000000000000000000000000000000000000000000000000000000000000000000000000000N 00000000000NCONT   00    00000000000          00000000000000000000000000000000000000000000 000000000000000A000000000000000000000000000000000000000000000 000000000000000000000000000000000000000     00000000                                                                                                                        000000000000000000
F0010000009440200001000090064474900011050500000000000000000201611190002001CENTRO ARTE PAPERIA SAS                           D000000001000000000000000000000000100010010000000000000000000000F0019440200120161119000101 00000000000000000000000000000000000000000000000000000000000000000000000000000000000000000000000000000000000000000N 00000000000NCONT   00    00000000000          00000000000000000000000000000000000000000000 000000000000000A000000000000000000000000000000000000000000000 000000000000000000000000000000000000000     00000000                                                                                                                        000000000000000000
F0010000009440200002000090064474900041450500000000000000000201611190002001CENTRO ARTE PAPERIA SAS                           C000000000900000000000000000000000100010010000000000000000000000F0019440200220161119000101 00000000000000000000000000000000000000000000000000000000000000000000000000000000000000000000000000000000000000000N 00000000000NCONT   00    00000000000          00000000000000000000000000000000000000000000 000000000000000A000000000000000000000000000000000000000000000 000000000000000000000000000000000000000     00000000                                                                                                                        000000000000000000
F0010000009440200003000090064474900042505000000000000000000201611190002001CENTRO ARTE PAPERIA SAS                           C000000000100000000000000000000000100010010000000000000000000000F0019440200320161119000101 00000000000000000000000000000000000000000000000000000000000000000000000000000000000000000000000000000000000000000N 00000000000NCONT   00    00000000000          00000000000000000000000000000000000000000000 000000000000000A000000000000000000000000000000000000000000000 000000000000000000000000000000000000000     00000000                                                                                                                        000000000000000000
F0010000009440200004000090064474900023658300000000000000000201611190002001CENTRO ARTE PAPERIA SAS                           C000000000007200000000000000000000100010010000000000000000000000F0019440200420161119000101 00000000000000000000000000000000000000000000000000000000000000000000000000000000000000000000000000000000000000000N 00000000000NCONT   00    00000000000          00000000000000000000000000000000000000000000 000000000000000A000000000000000000000000000000000000000000000 000000000000000000000000000000000000000     00000000                                                                                                                        000000000000000000
F0010000009440200005000090064474900013552100000000000000000201611190002001CENTRO ARTE PAPERIA SAS                           D000000000007200000000000000000000100010010000000000000000000000F0019440200520161119000101 00000000000000000000000000000000000000000000000000000000000000000000000000000000000000000000000000000000000000000N 00000000000NCONT   00    00000000000          00000000000000000000000000000000000000000000 000000000000000A000000000000000000000000000000000000000000000 000000000000000000000000000000000000000     00000000                                                                                                                        000000000000000000
F0010000009440300001000090064474900011050500000000000000000201611190002001CENTRO ARTE PAPERIA SAS                           D000000001300000000000000000000000100010010000000000000000000000F0019440300120161119000101 00000000000000000000000000000000000000000000000000000000000000000000000000000000000000000000000000000000000000000N 00000000000NCONT   00    00000000000          00000000000000000000000000000000000000000000 000000000000000A000000000000000000000000000000000000000000000 000000000000000000000000000000000000000     00000000                                                                                                                        000000000000000000
F0010000009440300002000090064474900041450500000000000000000201611190002001CENTRO ARTE PAPERIA SAS                           C000000001200000000000000000000000100010010000000000000000000000F0019440300220161119000101 00000000000000000000000000000000000000000000000000000000000000000000000000000000000000000000000000000000000000000N 00000000000NCONT   00    00000000000          00000000000000000000000000000000000000000000 000000000000000A000000000000000000000000000000000000000000000 000000000000000000000000000000000000000     00000000                                                                                                                        000000000000000000
F0010000009440300003000090064474900042505000000000000000000201611190002001CENTRO ARTE PAPERIA SAS                           C000000000100000000000000000000000100010010000000000000000000000F0019440300320161119000101 00000000000000000000000000000000000000000000000000000000000000000000000000000000000000000000000000000000000000000N 00000000000NCONT   00    00000000000          00000000000000000000000000000000000000000000 000000000000000A000000000000000000000000000000000000000000000 000000000000000000000000000000000000000     00000000                                                                                                                        000000000000000000
F0010000009440300004000090064474900023658300000000000000000201611190002001CENTRO ARTE PAPERIA SAS                           C000000000009600000000000000000000100010010000000000000000000000F0019440300420161119000101 00000000000000000000000000000000000000000000000000000000000000000000000000000000000000000000000000000000000000000N 00000000000NCONT   00    00000000000          00000000000000000000000000000000000000000000 000000000000000A000000000000000000000000000000000000000000000 000000000000000000000000000000000000000     00000000                                                                                                                        000000000000000000
F0010000009440300005000090064474900013552100000000000000000201611190002001CENTRO ARTE PAPERIA SAS                           D000000000009600000000000000000000100010010000000000000000000000F0019440300520161119000101 00000000000000000000000000000000000000000000000000000000000000000000000000000000000000000000000000000000000000000N 00000000000NCONT   00    00000000000          00000000000000000000000000000000000000000000 000000000000000A000000000000000000000000000000000000000000000 000000000000000000000000000000000000000     00000000                                                                                                                        000000000000000000
F0010000009440400001000090064474900011050500000000000000000201611190002001CENTRO ARTE PAPERIA SAS                           D000000002750000000000000000000000100010010000000000000000000000F0019440400120161119000101 00000000000000000000000000000000000000000000000000000000000000000000000000000000000000000000000000000000000000000N 00000000000NCONT   00    00000000000          00000000000000000000000000000000000000000000 000000000000000A000000000000000000000000000000000000000000000 000000000000000000000000000000000000000     00000000                                                                                                                        000000000000000000
F0010000009440400002000090064474900041450500000000000000000201611190002001CENTRO ARTE PAPERIA SAS                           C000000002600000000000000000000000100010010000000000000000000000F0019440400220161119000101 00000000000000000000000000000000000000000000000000000000000000000000000000000000000000000000000000000000000000000N 00000000000NCONT   00    00000000000          00000000000000000000000000000000000000000000 000000000000000A000000000000000000000000000000000000000000000 000000000000000000000000000000000000000     00000000                                                                                                                        000000000000000000
F0010000009440400003000090064474900042505000000000000000000201611190002001CENTRO ARTE PAPERIA SAS                           C000000000150000000000000000000000100010010000000000000000000000F0019440400320161119000101 00000000000000000000000000000000000000000000000000000000000000000000000000000000000000000000000000000000000000000N 00000000000NCONT   00    00000000000          00000000000000000000000000000000000000000000 000000000000000A000000000000000000000000000000000000000000000 000000000000000000000000000000000000000     00000000                                                                                                                        000000000000000000
F0010000009440400004000090064474900023658300000000000000000201611190002001CENTRO ARTE PAPERIA SAS                           C000000000020800000000000000000000100010010000000000000000000000F0019440400420161119000101 00000000000000000000000000000000000000000000000000000000000000000000000000000000000000000000000000000000000000000N 00000000000NCONT   00    00000000000          00000000000000000000000000000000000000000000 000000000000000A000000000000000000000000000000000000000000000 000000000000000000000000000000000000000     00000000                                                                                                                        000000000000000000
F0010000009440400005000090064474900013552100000000000000000201611190002001CENTRO ARTE PAPERIA SAS                           D000000000020800000000000000000000100010010000000000000000000000F0019440400520161119000101 00000000000000000000000000000000000000000000000000000000000000000000000000000000000000000000000000000000000000000N 00000000000NCONT   00    00000000000          00000000000000000000000000000000000000000000 000000000000000A000000000000000000000000000000000000000000000 000000000000000000000000000000000000000     00000000                                                                                                                        000000000000000000
F0010000009440500001000090064474900011050500000000000000000201611190002001CENTRO ARTE PAPERIA SAS                           D000000001250000000000000000000000100010010000000000000000000000F0019440500120161119000101 00000000000000000000000000000000000000000000000000000000000000000000000000000000000000000000000000000000000000000N 00000000000NCONT   00    00000000000          00000000000000000000000000000000000000000000 000000000000000A000000000000000000000000000000000000000000000 000000000000000000000000000000000000000     00000000                                                                                                                        000000000000000000
F0010000009440500002000090064474900041450500000000000000000201611190002001CENTRO ARTE PAPERIA SAS                           C000000001200000000000000000000000100010010000000000000000000000F0019440500220161119000101 00000000000000000000000000000000000000000000000000000000000000000000000000000000000000000000000000000000000000000N 00000000000NCONT   00    00000000000          00000000000000000000000000000000000000000000 000000000000000A000000000000000000000000000000000000000000000 000000000000000000000000000000000000000     00000000                                                                                                                        000000000000000000
F0010000009440500003000090064474900042505000000000000000000201611190002001CENTRO ARTE PAPERIA SAS                           C000000000050000000000000000000000100010010000000000000000000000F0019440500320161119000101 00000000000000000000000000000000000000000000000000000000000000000000000000000000000000000000000000000000000000000N 00000000000NCONT   00    00000000000          00000000000000000000000000000000000000000000 000000000000000A000000000000000000000000000000000000000000000 000000000000000000000000000000000000000     00000000                                                                                                                        000000000000000000
F0010000009440500004000090064474900023658300000000000000000201611190002001CENTRO ARTE PAPERIA SAS                           C000000000009600000000000000000000100010010000000000000000000000F0019440500420161119000101 00000000000000000000000000000000000000000000000000000000000000000000000000000000000000000000000000000000000000000N 00000000000NCONT   00    00000000000          00000000000000000000000000000000000000000000 000000000000000A000000000000000000000000000000000000000000000 000000000000000000000000000000000000000     00000000                                                                                                                        000000000000000000
F0010000009440500005000090064474900013552100000000000000000201611190002001CENTRO ARTE PAPERIA SAS                           D000000000009600000000000000000000100010010000000000000000000000F0019440500520161119000101 00000000000000000000000000000000000000000000000000000000000000000000000000000000000000000000000000000000000000000N 00000000000NCONT   00    00000000000          00000000000000000000000000000000000000000000 000000000000000A000000000000000000000000000000000000000000000 000000000000000000000000000000000000000     00000000                                                                                                                        000000000000000000
F0010000009440600001000090087846000011050500000000000000000201611190002001INTERCOMERCIAL DL SAS                             D000000003700000000000000000000000100010010000000000000000000000F0019440600120161119000101 00000000000000000000000000000000000000000000000000000000000000000000000000000000000000000000000000000000000000000N 00000000000NCONT   00    00000000000          00000000000000000000000000000000000000000000 000000000000000A000000000000000000000000000000000000000000000 000000000000000000000000000000000000000     00000000                                                                                                                        000000000000000000
F0010000009440600002000090087846000041450500000000000000000201611190002001INTERCOMERCIAL DL SAS                             C000000003600000000000000000000000100010010000000000000000000000F0019440600220161119000101 00000000000000000000000000000000000000000000000000000000000000000000000000000000000000000000000000000000000000000N 00000000000NCONT   00    00000000000          00000000000000000000000000000000000000000000 000000000000000A000000000000000000000000000000000000000000000 000000000000000000000000000000000000000     00000000                                                                                                                        000000000000000000
F0010000009440600003000090087846000042505000000000000000000201611190002001INTERCOMERCIAL DL SAS                             C000000000100000000000000000000000100010010000000000000000000000F0019440600320161119000101 00000000000000000000000000000000000000000000000000000000000000000000000000000000000000000000000000000000000000000N 00000000000NCONT   00    00000000000          00000000000000000000000000000000000000000000 000000000000000A000000000000000000000000000000000000000000000 000000000000000000000000000000000000000     00000000                                                                                                                        000000000000000000
F0010000009440600004000090087846000023658300000000000000000201611190002001INTERCOMERCIAL DL SAS                             C000000000028800000000000000000000100010010000000000000000000000F0019440600420161119000101 00000000000000000000000000000000000000000000000000000000000000000000000000000000000000000000000000000000000000000N 00000000000NCONT   00    00000000000          00000000000000000000000000000000000000000000 000000000000000A000000000000000000000000000000000000000000000 000000000000000000000000000000000000000     00000000                                                                                                                        000000000000000000
F0010000009440600005000090087846000013552100000000000000000201611190002001INTERCOMERCIAL DL SAS                             D000000000028800000000000000000000100010010000000000000000000000F0019440600520161119000101 00000000000000000000000000000000000000000000000000000000000000000000000000000000000000000000000000000000000000000N 00000000000NCONT   00    00000000000          00000000000000000000000000000000000000000000 000000000000000A000000000000000000000000000000000000000000000 000000000000000000000000000000000000000     00000000                                                                                                                        000000000000000000
F0010000009440700001000090087846000011050500000000000000000201611190002001INTERCOMERCIAL DL SAS                             D000000001400000000000000000000000100010010000000000000000000000F0019440700120161119000101 00000000000000000000000000000000000000000000000000000000000000000000000000000000000000000000000000000000000000000N 00000000000NCONT   00    00000000000          00000000000000000000000000000000000000000000 000000000000000A000000000000000000000000000000000000000000000 000000000000000000000000000000000000000     00000000                                                                                                                        000000000000000000
F0010000009440700002000090087846000041450500000000000000000201611190002001INTERCOMERCIAL DL SAS                             C000000001300000000000000000000000100010010000000000000000000000F0019440700220161119000101 00000000000000000000000000000000000000000000000000000000000000000000000000000000000000000000000000000000000000000N 00000000000NCONT   00    00000000000          00000000000000000000000000000000000000000000 000000000000000A000000000000000000000000000000000000000000000 000000000000000000000000000000000000000     00000000                                                                                                                        000000000000000000
F0010000009440700003000090087846000042505000000000000000000201611190002001INTERCOMERCIAL DL SAS                             C000000000100000000000000000000000100010010000000000000000000000F0019440700320161119000101 00000000000000000000000000000000000000000000000000000000000000000000000000000000000000000000000000000000000000000N 00000000000NCONT   00    00000000000          00000000000000000000000000000000000000000000 000000000000000A000000000000000000000000000000000000000000000 000000000000000000000000000000000000000     00000000                                                                                                                        000000000000000000
F0010000009440700004000090087846000023658300000000000000000201611190002001INTERCOMERCIAL DL SAS                             C000000000010400000000000000000000100010010000000000000000000000F0019440700420161119000101 00000000000000000000000000000000000000000000000000000000000000000000000000000000000000000000000000000000000000000N 00000000000NCONT   00    00000000000          00000000000000000000000000000000000000000000 000000000000000A000000000000000000000000000000000000000000000 000000000000000000000000000000000000000     00000000                                                                                                                        000000000000000000
F0010000009440700005000090087846000013552100000000000000000201611190002001INTERCOMERCIAL DL SAS                             D000000000010400000000000000000000100010010000000000000000000000F0019440700520161119000101 00000000000000000000000000000000000000000000000000000000000000000000000000000000000000000000000000000000000000000N 00000000000NCONT   00    00000000000          00000000000000000000000000000000000000000000 000000000000000A000000000000000000000000000000000000000000000 000000000000000000000000000000000000000     00000000                                                                                                                        000000000000000000
F0010000009440800001000001022529300011050500000000000000000201611190002001ALBERTO ALVAREZ ISAZA                             D000000001760000000000000000000000100010010000000000000000000000F0019440800120161119000101 00000000000000000000000000000000000000000000000000000000000000000000000000000000000000000000000000000000000000000N 00000000000NCONT   00    00000000000          00000000000000000000000000000000000000000000 000000000000000A000000000000000000000000000000000000000000000 000000000000000000000000000000000000000     00000000                                                                                                                        000000000000000000
F0010000009440800002000001022529300041450500000000000000000201611190002001ALBERTO ALVAREZ ISAZA                             C000000001760000000000000000000000100010010000000000000000000000F0019440800220161119000101 00000000000000000000000000000000000000000000000000000000000000000000000000000000000000000000000000000000000000000N 00000000000NCONT   00    00000000000          00000000000000000000000000000000000000000000 000000000000000A000000000000000000000000000000000000000000000 000000000000000000000000000000000000000     00000000                                                                                                                        000000000000000000
F0010000009440800003000001022529300042505000000000000000000201611190002001ALBERTO ALVAREZ ISAZA                             C000000000000000000000000000000000100010010000000000000000000000F0019440800320161119000101 00000000000000000000000000000000000000000000000000000000000000000000000000000000000000000000000000000000000000000N 00000000000NCONT   00    00000000000          00000000000000000000000000000000000000000000 000000000000000A000000000000000000000000000000000000000000000 000000000000000000000000000000000000000     00000000                                                                                                                        000000000000000000
F0010000009440800004000001022529300023658300000000000000000201611190002001ALBERTO ALVAREZ ISAZA                             C000000000014100000000000000000000100010010000000000000000000000F0019440800420161119000101 00000000000000000000000000000000000000000000000000000000000000000000000000000000000000000000000000000000000000000N 00000000000NCONT   00    00000000000          00000000000000000000000000000000000000000000 000000000000000A000000000000000000000000000000000000000000000 000000000000000000000000000000000000000     00000000                                                                                                                        000000000000000000
F0010000009440800005000001022529300013552100000000000000000201611190002001ALBERTO ALVAREZ ISAZA                             D000000000014100000000000000000000100010010000000000000000000000F0019440800520161119000101 00000000000000000000000000000000000000000000000000000000000000000000000000000000000000000000000000000000000000000N 00000000000NCONT   00    00000000000          00000000000000000000000000000000000000000000 000000000000000A000000000000000000000000000000000000000000000 000000000000000000000000000000000000000     00000000                                                                                                                        000000000000000000
F0010000009440900001000001022529300011050500000000000000000201611190002001ALBERTO ALVAREZ ISAZA                             D000000000700000000000000000000000100010010000000000000000000000F0019440900120161119000101 00000000000000000000000000000000000000000000000000000000000000000000000000000000000000000000000000000000000000000N 00000000000NCONT   00    00000000000          00000000000000000000000000000000000000000000 000000000000000A000000000000000000000000000000000000000000000 000000000000000000000000000000000000000     00000000                                                                                                                        000000000000000000
F0010000009440900002000001022529300041450500000000000000000201611190002001ALBERTO ALVAREZ ISAZA                             C000000000700000000000000000000000100010010000000000000000000000F0019440900220161119000101 00000000000000000000000000000000000000000000000000000000000000000000000000000000000000000000000000000000000000000N 00000000000NCONT   00    00000000000          00000000000000000000000000000000000000000000 000000000000000A000000000000000000000000000000000000000000000 000000000000000000000000000000000000000     00000000                                                                                                                        000000000000000000
F0010000009440900003000001022529300042505000000000000000000201611190002001ALBERTO ALVAREZ ISAZA                             C000000000000000000000000000000000100010010000000000000000000000F0019440900320161119000101 00000000000000000000000000000000000000000000000000000000000000000000000000000000000000000000000000000000000000000N 00000000000NCONT   00    00000000000          00000000000000000000000000000000000000000000 000000000000000A000000000000000000000000000000000000000000000 000000000000000000000000000000000000000     00000000                                                                                                                        000000000000000000
