F0010000008620000001000089011033000011050500000000000000000201605180002001INDUSTRIAS CRUZ & CAÑON LTDA                     D000000006000000000000000000000000100010010000000000000000000000F0010000008620000120160518000101 00000000000000000000000000000000000000000000000000000000000000000000000000000000000000000000000000000000000000000N 00000000000NCONT   00    00000000000          00000000000000000000000000000000000000000000 000000000000000A000000000000000000000000000000000000000000000 000000000000000000000000000000000000000     00000000                                                                                                                        000000000000000000
F0010000008620000002000089011033000041450500000000000000000201605180002001INDUSTRIAS CRUZ & CAÑON LTDA                     C000000005500000000000000000000000100010010000000000000000000000F0010000008620000220160518000101 00000000000000000000000000000000000000000000000000000000000000000000000000000000000000000000000000000000000000000N 00000000000NCONT   00    00000000000          00000000000000000000000000000000000000000000 000000000000000A000000000000000000000000000000000000000000000 000000000000000000000000000000000000000     00000000                                                                                                                        000000000000000000
F0010000008620000003000089011033000042505000000000000000000201605180002001INDUSTRIAS CRUZ & CAÑON LTDA                     C000000000500000000000000000000000100010010000000000000000000000F0010000008620000320160518000101 00000000000000000000000000000000000000000000000000000000000000000000000000000000000000000000000000000000000000000N 00000000000NCONT   00    00000000000          00000000000000000000000000000000000000000000 000000000000000A000000000000000000000000000000000000000000000 000000000000000000000000000000000000000     00000000                                                                                                                        000000000000000000
F0010000008620000004000089011033000023658300000000000000000201605180002001INDUSTRIAS CRUZ & CAÑON LTDA                     C000000000044000000000000000000000100010010000000000000000000000F0010000008620000420160518000101 00000000000000000000000000000000000000000000000000000000000000000000000000000000000000000000000000000000000000000N 00000000000NCONT   00    00000000000          00000000000000000000000000000000000000000000 000000000000000A000000000000000000000000000000000000000000000 000000000000000000000000000000000000000     00000000                                                                                                                        000000000000000000
F0010000008620000005000089011033000013552100000000000000000201605180002001INDUSTRIAS CRUZ & CAÑON LTDA                     D000000000044000000000000000000000100010010000000000000000000000F0010000008620000520160518000101 00000000000000000000000000000000000000000000000000000000000000000000000000000000000000000000000000000000000000000N 00000000000NCONT   00    00000000000          00000000000000000000000000000000000000000000 000000000000000A000000000000000000000000000000000000000000000 000000000000000000000000000000000000000     00000000                                                                                                                        000000000000000000
F0010000008620100001000007719033000011050500000000000000000201605180002001ALMACEN SALPICON                                  D000000001600000000000000000000000100010010000000000000000000000F0010000008620100120160518000101 00000000000000000000000000000000000000000000000000000000000000000000000000000000000000000000000000000000000000000N 00000000000NCONT   00    00000000000          00000000000000000000000000000000000000000000 000000000000000A000000000000000000000000000000000000000000000 000000000000000000000000000000000000000     00000000                                                                                                                        000000000000000000
F0010000008620100002000007719033000041450500000000000000000201605180002001ALMACEN SALPICON                                  C000000001300000000000000000000000100010010000000000000000000000F0010000008620100220160518000101 00000000000000000000000000000000000000000000000000000000000000000000000000000000000000000000000000000000000000000N 00000000000NCONT   00    00000000000          00000000000000000000000000000000000000000000 000000000000000A000000000000000000000000000000000000000000000 000000000000000000000000000000000000000     00000000                                                                                                                        000000000000000000
F0010000008620100003000007719033000042505000000000000000000201605180002001ALMACEN SALPICON                                  C000000000300000000000000000000000100010010000000000000000000000F0010000008620100320160518000101 00000000000000000000000000000000000000000000000000000000000000000000000000000000000000000000000000000000000000000N 00000000000NCONT   00    00000000000          00000000000000000000000000000000000000000000 000000000000000A000000000000000000000000000000000000000000000 000000000000000000000000000000000000000     00000000                                                                                                                        000000000000000000
F0010000008620100004000007719033000023658300000000000000000201605180002001ALMACEN SALPICON                                  C000000000010400000000000000000000100010010000000000000000000000F0010000008620100420160518000101 00000000000000000000000000000000000000000000000000000000000000000000000000000000000000000000000000000000000000000N 00000000000NCONT   00    00000000000          00000000000000000000000000000000000000000000 000000000000000A000000000000000000000000000000000000000000000 000000000000000000000000000000000000000     00000000                                                                                                                        000000000000000000
F0010000008620100005000007719033000013552100000000000000000201605180002001ALMACEN SALPICON                                  D000000000010400000000000000000000100010010000000000000000000000F0010000008620100520160518000101 00000000000000000000000000000000000000000000000000000000000000000000000000000000000000000000000000000000000000000N 00000000000NCONT   00    00000000000          00000000000000000000000000000000000000000000 000000000000000A000000000000000000000000000000000000000000000 000000000000000000000000000000000000000     00000000                                                                                                                        000000000000000000
F0010000008620200001000007225219800011050500000000000000000201605180002001MAURICIO ALVAREZ VARELO                           D000000013200000000000000000000000100010010000000000000000000000F0010000008620200120160518000101 00000000000000000000000000000000000000000000000000000000000000000000000000000000000000000000000000000000000000000N 00000000000NCONT   00    00000000000          00000000000000000000000000000000000000000000 000000000000000A000000000000000000000000000000000000000000000 000000000000000000000000000000000000000     00000000                                                                                                                        000000000000000000
F0010000008620200002000007225219800041450500000000000000000201605180002001MAURICIO ALVAREZ VARELO                           C000000009500000000000000000000000100010010000000000000000000000F0010000008620200220160518000101 00000000000000000000000000000000000000000000000000000000000000000000000000000000000000000000000000000000000000000N 00000000000NCONT   00    00000000000          00000000000000000000000000000000000000000000 000000000000000A000000000000000000000000000000000000000000000 000000000000000000000000000000000000000     00000000                                                                                                                        000000000000000000
F0010000008620200003000007225219800042505000000000000000000201605180002001MAURICIO ALVAREZ VARELO                           C000000003700000000000000000000000100010010000000000000000000000F0010000008620200320160518000101 00000000000000000000000000000000000000000000000000000000000000000000000000000000000000000000000000000000000000000N 00000000000NCONT   00    00000000000          00000000000000000000000000000000000000000000 000000000000000A000000000000000000000000000000000000000000000 000000000000000000000000000000000000000     00000000                                                                                                                        000000000000000000
F0010000008620200004000007225219800023658300000000000000000201605180002001MAURICIO ALVAREZ VARELO                           C000000000076000000000000000000000100010010000000000000000000000F0010000008620200420160518000101 00000000000000000000000000000000000000000000000000000000000000000000000000000000000000000000000000000000000000000N 00000000000NCONT   00    00000000000          00000000000000000000000000000000000000000000 000000000000000A000000000000000000000000000000000000000000000 000000000000000000000000000000000000000     00000000                                                                                                                        000000000000000000
F0010000008620200005000007225219800013552100000000000000000201605180002001MAURICIO ALVAREZ VARELO                           D000000000076000000000000000000000100010010000000000000000000000F0010000008620200520160518000101 00000000000000000000000000000000000000000000000000000000000000000000000000000000000000000000000000000000000000000N 00000000000NCONT   00    00000000000          00000000000000000000000000000000000000000000 000000000000000A000000000000000000000000000000000000000000000 000000000000000000000000000000000000000     00000000                                                                                                                        000000000000000000
F0010000008620300001000000460251100011050500000000000000000201605180002001JORGE GONZALEZ                                    D000000001650000000000000000000000100010010000000000000000000000F0010000008620300120160518000101 00000000000000000000000000000000000000000000000000000000000000000000000000000000000000000000000000000000000000000N 00000000000NCONT   00    00000000000          00000000000000000000000000000000000000000000 000000000000000A000000000000000000000000000000000000000000000 000000000000000000000000000000000000000     00000000                                                                                                                        000000000000000000
F0010000008620300002000000460251100041450500000000000000000201605180002001JORGE GONZALEZ                                    C000000000950000000000000000000000100010010000000000000000000000F0010000008620300220160518000101 00000000000000000000000000000000000000000000000000000000000000000000000000000000000000000000000000000000000000000N 00000000000NCONT   00    00000000000          00000000000000000000000000000000000000000000 000000000000000A000000000000000000000000000000000000000000000 000000000000000000000000000000000000000     00000000                                                                                                                        000000000000000000
F0010000008620300003000000460251100042505000000000000000000201605180002001JORGE GONZALEZ                                    C000000000700000000000000000000000100010010000000000000000000000F0010000008620300320160518000101 00000000000000000000000000000000000000000000000000000000000000000000000000000000000000000000000000000000000000000N 00000000000NCONT   00    00000000000          00000000000000000000000000000000000000000000 000000000000000A000000000000000000000000000000000000000000000 000000000000000000000000000000000000000     00000000                                                                                                                        000000000000000000
F0010000008620300004000000460251100023658300000000000000000201605180002001JORGE GONZALEZ                                    C000000000007600000000000000000000100010010000000000000000000000F0010000008620300420160518000101 00000000000000000000000000000000000000000000000000000000000000000000000000000000000000000000000000000000000000000N 00000000000NCONT   00    00000000000          00000000000000000000000000000000000000000000 000000000000000A000000000000000000000000000000000000000000000 000000000000000000000000000000000000000     00000000                                                                                                                        000000000000000000
F0010000008620300005000000460251100013552100000000000000000201605180002001JORGE GONZALEZ                                    D000000000007600000000000000000000100010010000000000000000000000F0010000008620300520160518000101 00000000000000000000000000000000000000000000000000000000000000000000000000000000000000000000000000000000000000000N 00000000000NCONT   00    00000000000          00000000000000000000000000000000000000000000 000000000000000A000000000000000000000000000000000000000000000 000000000000000000000000000000000000000     00000000                                                                                                                        000000000000000000
F0010000008620400001000007215263900011050500000000000000000201605180002001OCTAVIO MIGUEL PAEZ                               D000000018000000000000000000000000100010010000000000000000000000F0010000008620400120160518000101 00000000000000000000000000000000000000000000000000000000000000000000000000000000000000000000000000000000000000000N 00000000000NCONT   00    00000000000          00000000000000000000000000000000000000000000 000000000000000A000000000000000000000000000000000000000000000 000000000000000000000000000000000000000     00000000                                                                                                                        000000000000000000
F0010000008620400002000007215263900041450500000000000000000201605180002001OCTAVIO MIGUEL PAEZ                               C000000016000000000000000000000000100010010000000000000000000000F0010000008620400220160518000101 00000000000000000000000000000000000000000000000000000000000000000000000000000000000000000000000000000000000000000N 00000000000NCONT   00    00000000000          00000000000000000000000000000000000000000000 000000000000000A000000000000000000000000000000000000000000000 000000000000000000000000000000000000000     00000000                                                                                                                        000000000000000000
F0010000008620400003000007215263900042505000000000000000000201605180002001OCTAVIO MIGUEL PAEZ                               C000000002000000000000000000000000100010010000000000000000000000F0010000008620400320160518000101 00000000000000000000000000000000000000000000000000000000000000000000000000000000000000000000000000000000000000000N 00000000000NCONT   00    00000000000          00000000000000000000000000000000000000000000 000000000000000A000000000000000000000000000000000000000000000 000000000000000000000000000000000000000     00000000                                                                                                                        000000000000000000
F0010000008620400004000007215263900023658300000000000000000201605180002001OCTAVIO MIGUEL PAEZ                               C000000000128000000000000000000000100010010000000000000000000000F0010000008620400420160518000101 00000000000000000000000000000000000000000000000000000000000000000000000000000000000000000000000000000000000000000N 00000000000NCONT   00    00000000000          00000000000000000000000000000000000000000000 000000000000000A000000000000000000000000000000000000000000000 000000000000000000000000000000000000000     00000000                                                                                                                        000000000000000000
F0010000008620400005000007215263900013552100000000000000000201605180002001OCTAVIO MIGUEL PAEZ                               D000000000128000000000000000000000100010010000000000000000000000F0010000008620400520160518000101 00000000000000000000000000000000000000000000000000000000000000000000000000000000000000000000000000000000000000000N 00000000000NCONT   00    00000000000          00000000000000000000000000000000000000000000 000000000000000A000000000000000000000000000000000000000000000 000000000000000000000000000000000000000     00000000                                                                                                                        000000000000000000
F0010000008620500001000007228990400011050500000000000000000201605180002001JUAN MIGUEL ESCUDERO CABARCAS                     D000000005000000000000000000000000100010010000000000000000000000F0010000008620500120160518000101 00000000000000000000000000000000000000000000000000000000000000000000000000000000000000000000000000000000000000000N 00000000000NCONT   00    00000000000          00000000000000000000000000000000000000000000 000000000000000A000000000000000000000000000000000000000000000 000000000000000000000000000000000000000     00000000                                                                                                                        000000000000000000
F0010000008620500002000007228990400041450500000000000000000201605180002001JUAN MIGUEL ESCUDERO CABARCAS                     C000000004600000000000000000000000100010010000000000000000000000F0010000008620500220160518000101 00000000000000000000000000000000000000000000000000000000000000000000000000000000000000000000000000000000000000000N 00000000000NCONT   00    00000000000          00000000000000000000000000000000000000000000 000000000000000A000000000000000000000000000000000000000000000 000000000000000000000000000000000000000     00000000                                                                                                                        000000000000000000
F0010000008620500003000007228990400042505000000000000000000201605180002001JUAN MIGUEL ESCUDERO CABARCAS                     C000000000400000000000000000000000100010010000000000000000000000F0010000008620500320160518000101 00000000000000000000000000000000000000000000000000000000000000000000000000000000000000000000000000000000000000000N 00000000000NCONT   00    00000000000          00000000000000000000000000000000000000000000 000000000000000A000000000000000000000000000000000000000000000 000000000000000000000000000000000000000     00000000                                                                                                                        000000000000000000
F0010000008620500004000007228990400023658300000000000000000201605180002001JUAN MIGUEL ESCUDERO CABARCAS                     C000000000036800000000000000000000100010010000000000000000000000F0010000008620500420160518000101 00000000000000000000000000000000000000000000000000000000000000000000000000000000000000000000000000000000000000000N 00000000000NCONT   00    00000000000          00000000000000000000000000000000000000000000 000000000000000A000000000000000000000000000000000000000000000 000000000000000000000000000000000000000     00000000                                                                                                                        000000000000000000
F0010000008620500005000007228990400013552100000000000000000201605180002001JUAN MIGUEL ESCUDERO CABARCAS                     D000000000036800000000000000000000100010010000000000000000000000F0010000008620500520160518000101 00000000000000000000000000000000000000000000000000000000000000000000000000000000000000000000000000000000000000000N 00000000000NCONT   00    00000000000          00000000000000000000000000000000000000000000 000000000000000A000000000000000000000000000000000000000000000 000000000000000000000000000000000000000     00000000                                                                                                                        000000000000000000
F0010000008620600001000001502923600011050500000000000000000201605180002001ALCIDES MARTINEZ MARTINEZ                         D000000003300000000000000000000000100010010000000000000000000000F0010000008620600120160518000101 00000000000000000000000000000000000000000000000000000000000000000000000000000000000000000000000000000000000000000N 00000000000NCONT   00    00000000000          00000000000000000000000000000000000000000000 000000000000000A000000000000000000000000000000000000000000000 000000000000000000000000000000000000000     00000000                                                                                                                        000000000000000000
F0010000008620600002000001502923600041450500000000000000000201605180002001ALCIDES MARTINEZ MARTINEZ                         C000000002550000000000000000000000100010010000000000000000000000F0010000008620600220160518000101 00000000000000000000000000000000000000000000000000000000000000000000000000000000000000000000000000000000000000000N 00000000000NCONT   00    00000000000          00000000000000000000000000000000000000000000 000000000000000A000000000000000000000000000000000000000000000 000000000000000000000000000000000000000     00000000                                                                                                                        000000000000000000
F0010000008620600003000001502923600042505000000000000000000201605180002001ALCIDES MARTINEZ MARTINEZ                         C000000000750000000000000000000000100010010000000000000000000000F0010000008620600320160518000101 00000000000000000000000000000000000000000000000000000000000000000000000000000000000000000000000000000000000000000N 00000000000NCONT   00    00000000000          00000000000000000000000000000000000000000000 000000000000000A000000000000000000000000000000000000000000000 000000000000000000000000000000000000000     00000000                                                                                                                        000000000000000000
F0010000008620600004000001502923600023658300000000000000000201605180002001ALCIDES MARTINEZ MARTINEZ                         C000000000020400000000000000000000100010010000000000000000000000F0010000008620600420160518000101 00000000000000000000000000000000000000000000000000000000000000000000000000000000000000000000000000000000000000000N 00000000000NCONT   00    00000000000          00000000000000000000000000000000000000000000 000000000000000A000000000000000000000000000000000000000000000 000000000000000000000000000000000000000     00000000                                                                                                                        000000000000000000
F0010000008620600005000001502923600013552100000000000000000201605180002001ALCIDES MARTINEZ MARTINEZ                         D000000000020400000000000000000000100010010000000000000000000000F0010000008620600520160518000101 00000000000000000000000000000000000000000000000000000000000000000000000000000000000000000000000000000000000000000N 00000000000NCONT   00    00000000000          00000000000000000000000000000000000000000000 000000000000000A000000000000000000000000000000000000000000000 000000000000000000000000000000000000000     00000000                                                                                                                        000000000000000000
F0010000008620700001000080201411900011050500000000000000000201605180002001PLASTISERVICIOS S DE H                            D000000002000000000000000000000000100010010000000000000000000000F0010000008620700120160518000101 00000000000000000000000000000000000000000000000000000000000000000000000000000000000000000000000000000000000000000N 00000000000NCONT   00    00000000000          00000000000000000000000000000000000000000000 000000000000000A000000000000000000000000000000000000000000000 000000000000000000000000000000000000000     00000000                                                                                                                        000000000000000000
F0010000008620700002000080201411900041450500000000000000000201605180002001PLASTISERVICIOS S DE H                            C000000001000000000000000000000000100010010000000000000000000000F0010000008620700220160518000101 00000000000000000000000000000000000000000000000000000000000000000000000000000000000000000000000000000000000000000N 00000000000NCONT   00    00000000000          00000000000000000000000000000000000000000000 000000000000000A000000000000000000000000000000000000000000000 000000000000000000000000000000000000000     00000000                                                                                                                        000000000000000000
F0010000008620700003000080201411900042505000000000000000000201605180002001PLASTISERVICIOS S DE H                            C000000001000000000000000000000000100010010000000000000000000000F0010000008620700320160518000101 00000000000000000000000000000000000000000000000000000000000000000000000000000000000000000000000000000000000000000N 00000000000NCONT   00    00000000000          00000000000000000000000000000000000000000000 000000000000000A000000000000000000000000000000000000000000000 000000000000000000000000000000000000000     00000000                                                                                                                        000000000000000000
F0010000008620700004000080201411900023658300000000000000000201605180002001PLASTISERVICIOS S DE H                            C000000000008000000000000000000000100010010000000000000000000000F0010000008620700420160518000101 00000000000000000000000000000000000000000000000000000000000000000000000000000000000000000000000000000000000000000N 00000000000NCONT   00    00000000000          00000000000000000000000000000000000000000000 000000000000000A000000000000000000000000000000000000000000000 000000000000000000000000000000000000000     00000000                                                                                                                        000000000000000000
F0010000008620700005000080201411900013552100000000000000000201605180002001PLASTISERVICIOS S DE H                            D000000000008000000000000000000000100010010000000000000000000000F0010000008620700520160518000101 00000000000000000000000000000000000000000000000000000000000000000000000000000000000000000000000000000000000000000N 00000000000NCONT   00    00000000000          00000000000000000000000000000000000000000000 000000000000000A000000000000000000000000000000000000000000000 000000000000000000000000000000000000000     00000000                                                                                                                        000000000000000000
F0010000008620800001000001022529300011050500000000000000000201605180002001ALBERTO ALVAREZ ISAZA                             D000000000350000000000000000000000100010010000000000000000000000F0010000008620800120160518000101 00000000000000000000000000000000000000000000000000000000000000000000000000000000000000000000000000000000000000000N 00000000000NCONT   00    00000000000          00000000000000000000000000000000000000000000 000000000000000A000000000000000000000000000000000000000000000 000000000000000000000000000000000000000     00000000                                                                                                                        000000000000000000
F0010000008620800002000001022529300041450500000000000000000201605180002001ALBERTO ALVAREZ ISAZA                             C000000000350000000000000000000000100010010000000000000000000000F0010000008620800220160518000101 00000000000000000000000000000000000000000000000000000000000000000000000000000000000000000000000000000000000000000N 00000000000NCONT   00    00000000000          00000000000000000000000000000000000000000000 000000000000000A000000000000000000000000000000000000000000000 000000000000000000000000000000000000000     00000000                                                                                                                        000000000000000000
F0010000008620800003000001022529300042505000000000000000000201605180002001ALBERTO ALVAREZ ISAZA                             C000000000000000000000000000000000100010010000000000000000000000F0010000008620800320160518000101 00000000000000000000000000000000000000000000000000000000000000000000000000000000000000000000000000000000000000000N 00000000000NCONT   00    00000000000          00000000000000000000000000000000000000000000 000000000000000A000000000000000000000000000000000000000000000 000000000000000000000000000000000000000     00000000                                                                                                                        000000000000000000
F0010000008620800004000001022529300023658300000000000000000201605180002001ALBERTO ALVAREZ ISAZA                             C000000000002800000000000000000000100010010000000000000000000000F0010000008620800420160518000101 00000000000000000000000000000000000000000000000000000000000000000000000000000000000000000000000000000000000000000N 00000000000NCONT   00    00000000000          00000000000000000000000000000000000000000000 000000000000000A000000000000000000000000000000000000000000000 000000000000000000000000000000000000000     00000000                                                                                                                        000000000000000000
F0010000008620800005000001022529300013552100000000000000000201605180002001ALBERTO ALVAREZ ISAZA                             D000000000002800000000000000000000100010010000000000000000000000F0010000008620800520160518000101 00000000000000000000000000000000000000000000000000000000000000000000000000000000000000000000000000000000000000000N 00000000000NCONT   00    00000000000          00000000000000000000000000000000000000000000 000000000000000A000000000000000000000000000000000000000000000 000000000000000000000000000000000000000     00000000                                                                                                                        000000000000000000
F0010000008620900001000000908086400011050500000000000000000201605180002001JOSE DEL CRISTO SANES FERNANDEZ                   D000000001800000000000000000000000100010010000000000000000000000F0010000008620900120160518000101 00000000000000000000000000000000000000000000000000000000000000000000000000000000000000000000000000000000000000000N 00000000000NCONT   00    00000000000          00000000000000000000000000000000000000000000 000000000000000A000000000000000000000000000000000000000000000 000000000000000000000000000000000000000     00000000                                                                                                                        000000000000000000
F0010000008620900002000000908086400041450500000000000000000201605180002001JOSE DEL CRISTO SANES FERNANDEZ                   C000000001700000000000000000000000100010010000000000000000000000F0010000008620900220160518000101 00000000000000000000000000000000000000000000000000000000000000000000000000000000000000000000000000000000000000000N 00000000000NCONT   00    00000000000          00000000000000000000000000000000000000000000 000000000000000A000000000000000000000000000000000000000000000 000000000000000000000000000000000000000     00000000                                                                                                                        000000000000000000
F0010000008620900003000000908086400042505000000000000000000201605180002001JOSE DEL CRISTO SANES FERNANDEZ                   C000000000100000000000000000000000100010010000000000000000000000F0010000008620900320160518000101 00000000000000000000000000000000000000000000000000000000000000000000000000000000000000000000000000000000000000000N 00000000000NCONT   00    00000000000          00000000000000000000000000000000000000000000 000000000000000A000000000000000000000000000000000000000000000 000000000000000000000000000000000000000     00000000                                                                                                                        000000000000000000
F0010000008620900004000000908086400023658300000000000000000201605180002001JOSE DEL CRISTO SANES FERNANDEZ                   C000000000013600000000000000000000100010010000000000000000000000F0010000008620900420160518000101 00000000000000000000000000000000000000000000000000000000000000000000000000000000000000000000000000000000000000000N 00000000000NCONT   00    00000000000          00000000000000000000000000000000000000000000 000000000000000A000000000000000000000000000000000000000000000 000000000000000000000000000000000000000     00000000                                                                                                                        000000000000000000
F0010000008620900005000000908086400013552100000000000000000201605180002001JOSE DEL CRISTO SANES FERNANDEZ                   D000000000013600000000000000000000100010010000000000000000000000F0010000008620900520160518000101 00000000000000000000000000000000000000000000000000000000000000000000000000000000000000000000000000000000000000000N 00000000000NCONT   00    00000000000          00000000000000000000000000000000000000000000 000000000000000A000000000000000000000000000000000000000000000 000000000000000000000000000000000000000     00000000                                                                                                                        000000000000000000
F0010000008621000001000090040615800011050500000000000000000201605180002001EMPAQUES INDUSTRIALES DE COLOMBIA                 D000000032000000000000000000000000100010010000000000000000000000F0010000008621000120160518000101 00000000000000000000000000000000000000000000000000000000000000000000000000000000000000000000000000000000000000000N 00000000000NCONT   00    00000000000          00000000000000000000000000000000000000000000 000000000000000A000000000000000000000000000000000000000000000 000000000000000000000000000000000000000     00000000                                                                                                                        000000000000000000
F0010000008621000002000090040615800041450500000000000000000201605180002001EMPAQUES INDUSTRIALES DE COLOMBIA                 C000000028000000000000000000000000100010010000000000000000000000F0010000008621000220160518000101 00000000000000000000000000000000000000000000000000000000000000000000000000000000000000000000000000000000000000000N 00000000000NCONT   00    00000000000          00000000000000000000000000000000000000000000 000000000000000A000000000000000000000000000000000000000000000 000000000000000000000000000000000000000     00000000                                                                                                                        000000000000000000
F0010000008621000003000090040615800042505000000000000000000201605180002001EMPAQUES INDUSTRIALES DE COLOMBIA                 C000000004000000000000000000000000100010010000000000000000000000F0010000008621000320160518000101 00000000000000000000000000000000000000000000000000000000000000000000000000000000000000000000000000000000000000000N 00000000000NCONT   00    00000000000          00000000000000000000000000000000000000000000 000000000000000A000000000000000000000000000000000000000000000 000000000000000000000000000000000000000     00000000                                                                                                                        000000000000000000
F0010000008621000004000090040615800023658300000000000000000201605180002001EMPAQUES INDUSTRIALES DE COLOMBIA                 C000000000224000000000000000000000100010010000000000000000000000F0010000008621000420160518000101 00000000000000000000000000000000000000000000000000000000000000000000000000000000000000000000000000000000000000000N 00000000000NCONT   00    00000000000          00000000000000000000000000000000000000000000 000000000000000A000000000000000000000000000000000000000000000 000000000000000000000000000000000000000     00000000                                                                                                                        000000000000000000
F0010000008621000005000090040615800013552100000000000000000201605180002001EMPAQUES INDUSTRIALES DE COLOMBIA                 D000000000224000000000000000000000100010010000000000000000000000F0010000008621000520160518000101 00000000000000000000000000000000000000000000000000000000000000000000000000000000000000000000000000000000000000000N 00000000000NCONT   00    00000000000          00000000000000000000000000000000000000000000 000000000000000A000000000000000000000000000000000000000000000 000000000000000000000000000000000000000     00000000                                                                                                                        000000000000000000
F0010000008621100001000090050144800011050500000000000000000201605180002001PLASTICOS JR ASOCIADOS SAS                        D000000005400000000000000000000000100010010000000000000000000000F0010000008621100120160518000101 00000000000000000000000000000000000000000000000000000000000000000000000000000000000000000000000000000000000000000N 00000000000NCONT   00    00000000000          00000000000000000000000000000000000000000000 000000000000000A000000000000000000000000000000000000000000000 000000000000000000000000000000000000000     00000000                                                                                                                        000000000000000000
F0010000008621100002000090050144800041450500000000000000000201605180002001PLASTICOS JR ASOCIADOS SAS                        C000000004800000000000000000000000100010010000000000000000000000F0010000008621100220160518000101 00000000000000000000000000000000000000000000000000000000000000000000000000000000000000000000000000000000000000000N 00000000000NCONT   00    00000000000          00000000000000000000000000000000000000000000 000000000000000A000000000000000000000000000000000000000000000 000000000000000000000000000000000000000     00000000                                                                                                                        000000000000000000
F0010000008621100003000090050144800042505000000000000000000201605180002001PLASTICOS JR ASOCIADOS SAS                        C000000000600000000000000000000000100010010000000000000000000000F0010000008621100320160518000101 00000000000000000000000000000000000000000000000000000000000000000000000000000000000000000000000000000000000000000N 00000000000NCONT   00    00000000000          00000000000000000000000000000000000000000000 000000000000000A000000000000000000000000000000000000000000000 000000000000000000000000000000000000000     00000000                                                                                                                        000000000000000000
F0010000008621100004000090050144800023658300000000000000000201605180002001PLASTICOS JR ASOCIADOS SAS                        C000000000038400000000000000000000100010010000000000000000000000F0010000008621100420160518000101 00000000000000000000000000000000000000000000000000000000000000000000000000000000000000000000000000000000000000000N 00000000000NCONT   00    00000000000          00000000000000000000000000000000000000000000 000000000000000A000000000000000000000000000000000000000000000 000000000000000000000000000000000000000     00000000                                                                                                                        000000000000000000
F0010000008621100005000090050144800013552100000000000000000201605180002001PLASTICOS JR ASOCIADOS SAS                        D000000000038400000000000000000000100010010000000000000000000000F0010000008621100520160518000101 00000000000000000000000000000000000000000000000000000000000000000000000000000000000000000000000000000000000000000N 00000000000NCONT   00    00000000000          00000000000000000000000000000000000000000000 000000000000000A000000000000000000000000000000000000000000000 000000000000000000000000000000000000000     00000000                                                                                                                        000000000000000000
F0010000008621200001000090050144800011050500000000000000000201605180002001PLASTICOS JR ASOCIADOS SAS                        D000000004300000000000000000000000100010010000000000000000000000F0010000008621200120160518000101 00000000000000000000000000000000000000000000000000000000000000000000000000000000000000000000000000000000000000000N 00000000000NCONT   00    00000000000          00000000000000000000000000000000000000000000 000000000000000A000000000000000000000000000000000000000000000 000000000000000000000000000000000000000     00000000                                                                                                                        000000000000000000
F0010000008621200002000090050144800041450500000000000000000201605180002001PLASTICOS JR ASOCIADOS SAS                        C000000003800000000000000000000000100010010000000000000000000000F0010000008621200220160518000101 00000000000000000000000000000000000000000000000000000000000000000000000000000000000000000000000000000000000000000N 00000000000NCONT   00    00000000000          00000000000000000000000000000000000000000000 000000000000000A000000000000000000000000000000000000000000000 000000000000000000000000000000000000000     00000000                                                                                                                        000000000000000000
F0010000008621200003000090050144800042505000000000000000000201605180002001PLASTICOS JR ASOCIADOS SAS                        C000000000500000000000000000000000100010010000000000000000000000F0010000008621200320160518000101 00000000000000000000000000000000000000000000000000000000000000000000000000000000000000000000000000000000000000000N 00000000000NCONT   00    00000000000          00000000000000000000000000000000000000000000 000000000000000A000000000000000000000000000000000000000000000 000000000000000000000000000000000000000     00000000                                                                                                                        000000000000000000
F0010000008621200004000090050144800023658300000000000000000201605180002001PLASTICOS JR ASOCIADOS SAS                        C000000000030400000000000000000000100010010000000000000000000000F0010000008621200420160518000101 00000000000000000000000000000000000000000000000000000000000000000000000000000000000000000000000000000000000000000N 00000000000NCONT   00    00000000000          00000000000000000000000000000000000000000000 000000000000000A000000000000000000000000000000000000000000000 000000000000000000000000000000000000000     00000000                                                                                                                        000000000000000000
F0010000008621200005000090050144800013552100000000000000000201605180002001PLASTICOS JR ASOCIADOS SAS                        D000000000030400000000000000000000100010010000000000000000000000F0010000008621200520160518000101 00000000000000000000000000000000000000000000000000000000000000000000000000000000000000000000000000000000000000000N 00000000000NCONT   00    00000000000          00000000000000000000000000000000000000000000 000000000000000A000000000000000000000000000000000000000000000 000000000000000000000000000000000000000     00000000                                                                                                                        000000000000000000
F0010000008621300001000002245670100011050500000000000000000201605180002001YOLANDA  TOBON                                    D000000005000000000000000000000000100010010000000000000000000000F0010000008621300120160518000101 00000000000000000000000000000000000000000000000000000000000000000000000000000000000000000000000000000000000000000N 00000000000NCONT   00    00000000000          00000000000000000000000000000000000000000000 000000000000000A000000000000000000000000000000000000000000000 000000000000000000000000000000000000000     00000000                                                                                                                        000000000000000000
F0010000008621300002000002245670100041450500000000000000000201605180002001YOLANDA  TOBON                                    C000000003600000000000000000000000100010010000000000000000000000F0010000008621300220160518000101 00000000000000000000000000000000000000000000000000000000000000000000000000000000000000000000000000000000000000000N 00000000000NCONT   00    00000000000          00000000000000000000000000000000000000000000 000000000000000A000000000000000000000000000000000000000000000 000000000000000000000000000000000000000     00000000                                                                                                                        000000000000000000
F0010000008621300003000002245670100042505000000000000000000201605180002001YOLANDA  TOBON                                    C000000001400000000000000000000000100010010000000000000000000000F0010000008621300320160518000101 00000000000000000000000000000000000000000000000000000000000000000000000000000000000000000000000000000000000000000N 00000000000NCONT   00    00000000000          00000000000000000000000000000000000000000000 000000000000000A000000000000000000000000000000000000000000000 000000000000000000000000000000000000000     00000000                                                                                                                        000000000000000000
F0010000008621300004000002245670100023658300000000000000000201605180002001YOLANDA  TOBON                                    C000000000028800000000000000000000100010010000000000000000000000F0010000008621300420160518000101 00000000000000000000000000000000000000000000000000000000000000000000000000000000000000000000000000000000000000000N 00000000000NCONT   00    00000000000          00000000000000000000000000000000000000000000 000000000000000A000000000000000000000000000000000000000000000 000000000000000000000000000000000000000     00000000                                                                                                                        000000000000000000
F0010000008621300005000002245670100013552100000000000000000201605180002001YOLANDA  TOBON                                    D000000000028800000000000000000000100010010000000000000000000000F0010000008621300520160518000101 00000000000000000000000000000000000000000000000000000000000000000000000000000000000000000000000000000000000000000N 00000000000NCONT   00    00000000000          00000000000000000000000000000000000000000000 000000000000000A000000000000000000000000000000000000000000000 000000000000000000000000000000000000000     00000000                                                                                                                        000000000000000000
F0010000008621400001000083008772100011050500000000000000000201605180002001ILUMEC SAS                                        D000000000980000000000000000000000100010010000000000000000000000F0010000008621400120160518000101 00000000000000000000000000000000000000000000000000000000000000000000000000000000000000000000000000000000000000000N 00000000000NCONT   00    00000000000          00000000000000000000000000000000000000000000 000000000000000A000000000000000000000000000000000000000000000 000000000000000000000000000000000000000     00000000                                                                                                                        000000000000000000
F0010000008621400002000083008772100041450500000000000000000201605180002001ILUMEC SAS                                        C000000000880000000000000000000000100010010000000000000000000000F0010000008621400220160518000101 00000000000000000000000000000000000000000000000000000000000000000000000000000000000000000000000000000000000000000N 00000000000NCONT   00    00000000000          00000000000000000000000000000000000000000000 000000000000000A000000000000000000000000000000000000000000000 000000000000000000000000000000000000000     00000000                                                                                                                        000000000000000000
F0010000008621400003000083008772100042505000000000000000000201605180002001ILUMEC SAS                                        C000000000100000000000000000000000100010010000000000000000000000F0010000008621400320160518000101 00000000000000000000000000000000000000000000000000000000000000000000000000000000000000000000000000000000000000000N 00000000000NCONT   00    00000000000          00000000000000000000000000000000000000000000 000000000000000A000000000000000000000000000000000000000000000 000000000000000000000000000000000000000     00000000                                                                                                                        000000000000000000
F0010000008621400004000083008772100023658300000000000000000201605180002001ILUMEC SAS                                        C000000000007000000000000000000000100010010000000000000000000000F0010000008621400420160518000101 00000000000000000000000000000000000000000000000000000000000000000000000000000000000000000000000000000000000000000N 00000000000NCONT   00    00000000000          00000000000000000000000000000000000000000000 000000000000000A000000000000000000000000000000000000000000000 000000000000000000000000000000000000000     00000000                                                                                                                        000000000000000000
F0010000008621400005000083008772100013552100000000000000000201605180002001ILUMEC SAS                                        D000000000007000000000000000000000100010010000000000000000000000F0010000008621400520160518000101 00000000000000000000000000000000000000000000000000000000000000000000000000000000000000000000000000000000000000000N 00000000000NCONT   00    00000000000          00000000000000000000000000000000000000000000 000000000000000A000000000000000000000000000000000000000000000 000000000000000000000000000000000000000     00000000                                                                                                                        000000000000000000
F0010000008621500001000000742399700011050500000000000000000201605180002001CACHARRERIA EL NUEVO CHADID                       D000000000950000000000000000000000100010010000000000000000000000F0010000008621500120160518000101 00000000000000000000000000000000000000000000000000000000000000000000000000000000000000000000000000000000000000000N 00000000000NCONT   00    00000000000          00000000000000000000000000000000000000000000 000000000000000A000000000000000000000000000000000000000000000 000000000000000000000000000000000000000     00000000                                                                                                                        000000000000000000
F0010000008621500002000000742399700041450500000000000000000201605180002001CACHARRERIA EL NUEVO CHADID                       C000000000850000000000000000000000100010010000000000000000000000F0010000008621500220160518000101 00000000000000000000000000000000000000000000000000000000000000000000000000000000000000000000000000000000000000000N 00000000000NCONT   00    00000000000          00000000000000000000000000000000000000000000 000000000000000A000000000000000000000000000000000000000000000 000000000000000000000000000000000000000     00000000                                                                                                                        000000000000000000
F0010000008621500003000000742399700042505000000000000000000201605180002001CACHARRERIA EL NUEVO CHADID                       C000000000100000000000000000000000100010010000000000000000000000F0010000008621500320160518000101 00000000000000000000000000000000000000000000000000000000000000000000000000000000000000000000000000000000000000000N 00000000000NCONT   00    00000000000          00000000000000000000000000000000000000000000 000000000000000A000000000000000000000000000000000000000000000 000000000000000000000000000000000000000     00000000                                                                                                                        000000000000000000
F0010000008621500004000000742399700023658300000000000000000201605180002001CACHARRERIA EL NUEVO CHADID                       C000000000006800000000000000000000100010010000000000000000000000F0010000008621500420160518000101 00000000000000000000000000000000000000000000000000000000000000000000000000000000000000000000000000000000000000000N 00000000000NCONT   00    00000000000          00000000000000000000000000000000000000000000 000000000000000A000000000000000000000000000000000000000000000 000000000000000000000000000000000000000     00000000                                                                                                                        000000000000000000
F0010000008621500005000000742399700013552100000000000000000201605180002001CACHARRERIA EL NUEVO CHADID                       D000000000006800000000000000000000100010010000000000000000000000F0010000008621500520160518000101 00000000000000000000000000000000000000000000000000000000000000000000000000000000000000000000000000000000000000000N 00000000000NCONT   00    00000000000          00000000000000000000000000000000000000000000 000000000000000A000000000000000000000000000000000000000000000 000000000000000000000000000000000000000     00000000                                                                                                                        000000000000000000
F0010000008621600001000102390001700011050500000000000000000201605180002001LILIANA HERNANDEZ PINILLA                         D000000002000000000000000000000000100010010000000000000000000000F0010000008621600120160518000101 00000000000000000000000000000000000000000000000000000000000000000000000000000000000000000000000000000000000000000N 00000000000NCONT   00    00000000000          00000000000000000000000000000000000000000000 000000000000000A000000000000000000000000000000000000000000000 000000000000000000000000000000000000000     00000000                                                                                                                        000000000000000000
F0010000008621600002000102390001700041450500000000000000000201605180002001LILIANA HERNANDEZ PINILLA                         C000000001500000000000000000000000100010010000000000000000000000F0010000008621600220160518000101 00000000000000000000000000000000000000000000000000000000000000000000000000000000000000000000000000000000000000000N 00000000000NCONT   00    00000000000          00000000000000000000000000000000000000000000 000000000000000A000000000000000000000000000000000000000000000 000000000000000000000000000000000000000     00000000                                                                                                                        000000000000000000
F0010000008621600003000102390001700042505000000000000000000201605180002001LILIANA HERNANDEZ PINILLA                         C000000000500000000000000000000000100010010000000000000000000000F0010000008621600320160518000101 00000000000000000000000000000000000000000000000000000000000000000000000000000000000000000000000000000000000000000N 00000000000NCONT   00    00000000000          00000000000000000000000000000000000000000000 000000000000000A000000000000000000000000000000000000000000000 000000000000000000000000000000000000000     00000000                                                                                                                        000000000000000000
F0010000008621600004000102390001700023658300000000000000000201605180002001LILIANA HERNANDEZ PINILLA                         C000000000012000000000000000000000100010010000000000000000000000F0010000008621600420160518000101 00000000000000000000000000000000000000000000000000000000000000000000000000000000000000000000000000000000000000000N 00000000000NCONT   00    00000000000          00000000000000000000000000000000000000000000 000000000000000A000000000000000000000000000000000000000000000 000000000000000000000000000000000000000     00000000                                                                                                                        000000000000000000
F0010000008621600005000102390001700013552100000000000000000201605180002001LILIANA HERNANDEZ PINILLA                         D000000000012000000000000000000000100010010000000000000000000000F0010000008621600520160518000101 00000000000000000000000000000000000000000000000000000000000000000000000000000000000000000000000000000000000000000N 00000000000NCONT   00    00000000000          00000000000000000000000000000000000000000000 000000000000000A000000000000000000000000000000000000000000000 000000000000000000000000000000000000000     00000000                                                                                                                        000000000000000000
F0010000008621700001000090061985600011050500000000000000000201605180002001COMERCIALIZADORA PATRY SAS                        D000000003000000000000000000000000100010010000000000000000000000F0010000008621700120160518000101 00000000000000000000000000000000000000000000000000000000000000000000000000000000000000000000000000000000000000000N 00000000000NCONT   00    00000000000          00000000000000000000000000000000000000000000 000000000000000A000000000000000000000000000000000000000000000 000000000000000000000000000000000000000     00000000                                                                                                                        000000000000000000
F0010000008621700002000090061985600041450500000000000000000201605180002001COMERCIALIZADORA PATRY SAS                        C000000002000000000000000000000000100010010000000000000000000000F0010000008621700220160518000101 00000000000000000000000000000000000000000000000000000000000000000000000000000000000000000000000000000000000000000N 00000000000NCONT   00    00000000000          00000000000000000000000000000000000000000000 000000000000000A000000000000000000000000000000000000000000000 000000000000000000000000000000000000000     00000000                                                                                                                        000000000000000000
F0010000008621700003000090061985600042505000000000000000000201605180002001COMERCIALIZADORA PATRY SAS                        C000000001000000000000000000000000100010010000000000000000000000F0010000008621700320160518000101 00000000000000000000000000000000000000000000000000000000000000000000000000000000000000000000000000000000000000000N 00000000000NCONT   00    00000000000          00000000000000000000000000000000000000000000 000000000000000A000000000000000000000000000000000000000000000 000000000000000000000000000000000000000     00000000                                                                                                                        000000000000000000
F0010000008621700004000090061985600023658300000000000000000201605180002001COMERCIALIZADORA PATRY SAS                        C000000000016000000000000000000000100010010000000000000000000000F0010000008621700420160518000101 00000000000000000000000000000000000000000000000000000000000000000000000000000000000000000000000000000000000000000N 00000000000NCONT   00    00000000000          00000000000000000000000000000000000000000000 000000000000000A000000000000000000000000000000000000000000000 000000000000000000000000000000000000000     00000000                                                                                                                        000000000000000000
F0010000008621700005000090061985600013552100000000000000000201605180002001COMERCIALIZADORA PATRY SAS                        D000000000016000000000000000000000100010010000000000000000000000F0010000008621700520160518000101 00000000000000000000000000000000000000000000000000000000000000000000000000000000000000000000000000000000000000000N 00000000000NCONT   00    00000000000          00000000000000000000000000000000000000000000 000000000000000A000000000000000000000000000000000000000000000 000000000000000000000000000000000000000     00000000                                                                                                                        000000000000000000
F0010000008621800001000000871573200011050500000000000000000201605180002001ACCESORIAS ARQUITECTONI KJ                        D000000003400000000000000000000000100010010000000000000000000000F0010000008621800120160518000101 00000000000000000000000000000000000000000000000000000000000000000000000000000000000000000000000000000000000000000N 00000000000NCONT   00    00000000000          00000000000000000000000000000000000000000000 000000000000000A000000000000000000000000000000000000000000000 000000000000000000000000000000000000000     00000000                                                                                                                        000000000000000000
F0010000008621800002000000871573200041450500000000000000000201605180002001ACCESORIAS ARQUITECTONI KJ                        C000000002600000000000000000000000100010010000000000000000000000F0010000008621800220160518000101 00000000000000000000000000000000000000000000000000000000000000000000000000000000000000000000000000000000000000000N 00000000000NCONT   00    00000000000          00000000000000000000000000000000000000000000 000000000000000A000000000000000000000000000000000000000000000 000000000000000000000000000000000000000     00000000                                                                                                                        000000000000000000
F0010000008621800003000000871573200042505000000000000000000201605180002001ACCESORIAS ARQUITECTONI KJ                        C000000000800000000000000000000000100010010000000000000000000000F0010000008621800320160518000101 00000000000000000000000000000000000000000000000000000000000000000000000000000000000000000000000000000000000000000N 00000000000NCONT   00    00000000000          00000000000000000000000000000000000000000000 000000000000000A000000000000000000000000000000000000000000000 000000000000000000000000000000000000000     00000000                                                                                                                        000000000000000000
F0010000008621800004000000871573200023658300000000000000000201605180002001ACCESORIAS ARQUITECTONI KJ                        C000000000020800000000000000000000100010010000000000000000000000F0010000008621800420160518000101 00000000000000000000000000000000000000000000000000000000000000000000000000000000000000000000000000000000000000000N 00000000000NCONT   00    00000000000          00000000000000000000000000000000000000000000 000000000000000A000000000000000000000000000000000000000000000 000000000000000000000000000000000000000     00000000                                                                                                                        000000000000000000
F0010000008621800005000000871573200013552100000000000000000201605180002001ACCESORIAS ARQUITECTONI KJ                        D000000000020800000000000000000000100010010000000000000000000000F0010000008621800520160518000101 00000000000000000000000000000000000000000000000000000000000000000000000000000000000000000000000000000000000000000N 00000000000NCONT   00    00000000000          00000000000000000000000000000000000000000000 000000000000000A000000000000000000000000000000000000000000000 000000000000000000000000000000000000000     00000000                                                                                                                        000000000000000000
F0010000008621900001000000871573200011050500000000000000000201605180002001ACCESORIAS ARQUITECTONI KJ                        D000000001900000000000000000000000100010010000000000000000000000F0010000008621900120160518000101 00000000000000000000000000000000000000000000000000000000000000000000000000000000000000000000000000000000000000000N 00000000000NCONT   00    00000000000          00000000000000000000000000000000000000000000 000000000000000A000000000000000000000000000000000000000000000 000000000000000000000000000000000000000     00000000                                                                                                                        000000000000000000
F0010000008621900002000000871573200041450500000000000000000201605180002001ACCESORIAS ARQUITECTONI KJ                        C000000001300000000000000000000000100010010000000000000000000000F0010000008621900220160518000101 00000000000000000000000000000000000000000000000000000000000000000000000000000000000000000000000000000000000000000N 00000000000NCONT   00    00000000000          00000000000000000000000000000000000000000000 000000000000000A000000000000000000000000000000000000000000000 000000000000000000000000000000000000000     00000000                                                                                                                        000000000000000000
F0010000008621900003000000871573200042505000000000000000000201605180002001ACCESORIAS ARQUITECTONI KJ                        C000000000600000000000000000000000100010010000000000000000000000F0010000008621900320160518000101 00000000000000000000000000000000000000000000000000000000000000000000000000000000000000000000000000000000000000000N 00000000000NCONT   00    00000000000          00000000000000000000000000000000000000000000 000000000000000A000000000000000000000000000000000000000000000 000000000000000000000000000000000000000     00000000                                                                                                                        000000000000000000
F0010000008621900004000000871573200023658300000000000000000201605180002001ACCESORIAS ARQUITECTONI KJ                        C000000000010400000000000000000000100010010000000000000000000000F0010000008621900420160518000101 00000000000000000000000000000000000000000000000000000000000000000000000000000000000000000000000000000000000000000N 00000000000NCONT   00    00000000000          00000000000000000000000000000000000000000000 000000000000000A000000000000000000000000000000000000000000000 000000000000000000000000000000000000000     00000000                                                                                                                        000000000000000000
F0010000008621900005000000871573200013552100000000000000000201605180002001ACCESORIAS ARQUITECTONI KJ                        D000000000010400000000000000000000100010010000000000000000000000F0010000008621900520160518000101 00000000000000000000000000000000000000000000000000000000000000000000000000000000000000000000000000000000000000000N 00000000000NCONT   00    00000000000          00000000000000000000000000000000000000000000 000000000000000A000000000000000000000000000000000000000000000 000000000000000000000000000000000000000     00000000                                                                                                                        000000000000000000
F0010000008622000001000000871573200011050500000000000000000201605180002001ACCESORIAS ARQUITECTONI KJ                        D000000004000000000000000000000000100010010000000000000000000000F0010000008622000120160518000101 00000000000000000000000000000000000000000000000000000000000000000000000000000000000000000000000000000000000000000N 00000000000NCONT   00    00000000000          00000000000000000000000000000000000000000000 000000000000000A000000000000000000000000000000000000000000000 000000000000000000000000000000000000000     00000000                                                                                                                        000000000000000000
F0010000008622000002000000871573200041450500000000000000000201605180002001ACCESORIAS ARQUITECTONI KJ                        C000000002600000000000000000000000100010010000000000000000000000F0010000008622000220160518000101 00000000000000000000000000000000000000000000000000000000000000000000000000000000000000000000000000000000000000000N 00000000000NCONT   00    00000000000          00000000000000000000000000000000000000000000 000000000000000A000000000000000000000000000000000000000000000 000000000000000000000000000000000000000     00000000                                                                                                                        000000000000000000
F0010000008622000003000000871573200042505000000000000000000201605180002001ACCESORIAS ARQUITECTONI KJ                        C000000001400000000000000000000000100010010000000000000000000000F0010000008622000320160518000101 00000000000000000000000000000000000000000000000000000000000000000000000000000000000000000000000000000000000000000N 00000000000NCONT   00    00000000000          00000000000000000000000000000000000000000000 000000000000000A000000000000000000000000000000000000000000000 000000000000000000000000000000000000000     00000000                                                                                                                        000000000000000000
F0010000008622000004000000871573200023658300000000000000000201605180002001ACCESORIAS ARQUITECTONI KJ                        C000000000020800000000000000000000100010010000000000000000000000F0010000008622000420160518000101 00000000000000000000000000000000000000000000000000000000000000000000000000000000000000000000000000000000000000000N 00000000000NCONT   00    00000000000          00000000000000000000000000000000000000000000 000000000000000A000000000000000000000000000000000000000000000 000000000000000000000000000000000000000     00000000                                                                                                                        000000000000000000
F0010000008622000005000000871573200013552100000000000000000201605180002001ACCESORIAS ARQUITECTONI KJ                        D000000000020800000000000000000000100010010000000000000000000000F0010000008622000520160518000101 00000000000000000000000000000000000000000000000000000000000000000000000000000000000000000000000000000000000000000N 00000000000NCONT   00    00000000000          00000000000000000000000000000000000000000000 000000000000000A000000000000000000000000000000000000000000000 000000000000000000000000000000000000000     00000000                                                                                                                        000000000000000000
F0010000008622100001000000871573200011050500000000000000000201605180002001ACCESORIAS ARQUITECTONI KJ                        D000000001400000000000000000000000100010010000000000000000000000F0010000008622100120160518000101 00000000000000000000000000000000000000000000000000000000000000000000000000000000000000000000000000000000000000000N 00000000000NCONT   00    00000000000          00000000000000000000000000000000000000000000 000000000000000A000000000000000000000000000000000000000000000 000000000000000000000000000000000000000     00000000                                                                                                                        000000000000000000
F0010000008622100002000000871573200041450500000000000000000201605180002001ACCESORIAS ARQUITECTONI KJ                        C000000001300000000000000000000000100010010000000000000000000000F0010000008622100220160518000101 00000000000000000000000000000000000000000000000000000000000000000000000000000000000000000000000000000000000000000N 00000000000NCONT   00    00000000000          00000000000000000000000000000000000000000000 000000000000000A000000000000000000000000000000000000000000000 000000000000000000000000000000000000000     00000000                                                                                                                        000000000000000000
F0010000008622100003000000871573200042505000000000000000000201605180002001ACCESORIAS ARQUITECTONI KJ                        C000000000100000000000000000000000100010010000000000000000000000F0010000008622100320160518000101 00000000000000000000000000000000000000000000000000000000000000000000000000000000000000000000000000000000000000000N 00000000000NCONT   00    00000000000          00000000000000000000000000000000000000000000 000000000000000A000000000000000000000000000000000000000000000 000000000000000000000000000000000000000     00000000                                                                                                                        000000000000000000
F0010000008622100004000000871573200023658300000000000000000201605180002001ACCESORIAS ARQUITECTONI KJ                        C000000000010400000000000000000000100010010000000000000000000000F0010000008622100420160518000101 00000000000000000000000000000000000000000000000000000000000000000000000000000000000000000000000000000000000000000N 00000000000NCONT   00    00000000000          00000000000000000000000000000000000000000000 000000000000000A000000000000000000000000000000000000000000000 000000000000000000000000000000000000000     00000000                                                                                                                        000000000000000000
F0010000008622100005000000871573200013552100000000000000000201605180002001ACCESORIAS ARQUITECTONI KJ                        D000000000010400000000000000000000100010010000000000000000000000F0010000008622100520160518000101 00000000000000000000000000000000000000000000000000000000000000000000000000000000000000000000000000000000000000000N 00000000000NCONT   00    00000000000          00000000000000000000000000000000000000000000 000000000000000A000000000000000000000000000000000000000000000 000000000000000000000000000000000000000     00000000                                                                                                                        000000000000000000
F0010000008622200001000090007142100011050500000000000000000201605180002001TODO BELLEZA Y MAX S.A.S                          D000000008400000000000000000000000100010010000000000000000000000F0010000008622200120160518000101 00000000000000000000000000000000000000000000000000000000000000000000000000000000000000000000000000000000000000000N 00000000000NCONT   00    00000000000          00000000000000000000000000000000000000000000 000000000000000A000000000000000000000000000000000000000000000 000000000000000000000000000000000000000     00000000                                                                                                                        000000000000000000
F0010000008622200002000090007142100041450500000000000000000201605180002001TODO BELLEZA Y MAX S.A.S                          C000000008100000000000000000000000100010010000000000000000000000F0010000008622200220160518000101 00000000000000000000000000000000000000000000000000000000000000000000000000000000000000000000000000000000000000000N 00000000000NCONT   00    00000000000          00000000000000000000000000000000000000000000 000000000000000A000000000000000000000000000000000000000000000 000000000000000000000000000000000000000     00000000                                                                                                                        000000000000000000
F0010000008622200003000090007142100042505000000000000000000201605180002001TODO BELLEZA Y MAX S.A.S                          C000000000300000000000000000000000100010010000000000000000000000F0010000008622200320160518000101 00000000000000000000000000000000000000000000000000000000000000000000000000000000000000000000000000000000000000000N 00000000000NCONT   00    00000000000          00000000000000000000000000000000000000000000 000000000000000A000000000000000000000000000000000000000000000 000000000000000000000000000000000000000     00000000                                                                                                                        000000000000000000
F0010000008622200004000090007142100023658300000000000000000201605180002001TODO BELLEZA Y MAX S.A.S                          C000000000064800000000000000000000100010010000000000000000000000F0010000008622200420160518000101 00000000000000000000000000000000000000000000000000000000000000000000000000000000000000000000000000000000000000000N 00000000000NCONT   00    00000000000          00000000000000000000000000000000000000000000 000000000000000A000000000000000000000000000000000000000000000 000000000000000000000000000000000000000     00000000                                                                                                                        000000000000000000
F0010000008622200005000090007142100013552100000000000000000201605180002001TODO BELLEZA Y MAX S.A.S                          D000000000064800000000000000000000100010010000000000000000000000F0010000008622200520160518000101 00000000000000000000000000000000000000000000000000000000000000000000000000000000000000000000000000000000000000000N 00000000000NCONT   00    00000000000          00000000000000000000000000000000000000000000 000000000000000A000000000000000000000000000000000000000000000 000000000000000000000000000000000000000     00000000                                                                                                                        000000000000000000
F0010000008622300001000090007142100011050500000000000000000201605180002001TODO BELLEZA Y MAX S.A.S                          D000000004550000000000000000000000100010010000000000000000000000F0010000008622300120160518000101 00000000000000000000000000000000000000000000000000000000000000000000000000000000000000000000000000000000000000000N 00000000000NCONT   00    00000000000          00000000000000000000000000000000000000000000 000000000000000A000000000000000000000000000000000000000000000 000000000000000000000000000000000000000     00000000                                                                                                                        000000000000000000
F0010000008622300002000090007142100041450500000000000000000201605180002001TODO BELLEZA Y MAX S.A.S                          C000000004400000000000000000000000100010010000000000000000000000F0010000008622300220160518000101 00000000000000000000000000000000000000000000000000000000000000000000000000000000000000000000000000000000000000000N 00000000000NCONT   00    00000000000          00000000000000000000000000000000000000000000 000000000000000A000000000000000000000000000000000000000000000 000000000000000000000000000000000000000     00000000                                                                                                                        000000000000000000
F0010000008622300003000090007142100042505000000000000000000201605180002001TODO BELLEZA Y MAX S.A.S                          C000000000150000000000000000000000100010010000000000000000000000F0010000008622300320160518000101 00000000000000000000000000000000000000000000000000000000000000000000000000000000000000000000000000000000000000000N 00000000000NCONT   00    00000000000          00000000000000000000000000000000000000000000 000000000000000A000000000000000000000000000000000000000000000 000000000000000000000000000000000000000     00000000                                                                                                                        000000000000000000
F0010000008622300004000090007142100023658300000000000000000201605180002001TODO BELLEZA Y MAX S.A.S                          C000000000035200000000000000000000100010010000000000000000000000F0010000008622300420160518000101 00000000000000000000000000000000000000000000000000000000000000000000000000000000000000000000000000000000000000000N 00000000000NCONT   00    00000000000          00000000000000000000000000000000000000000000 000000000000000A000000000000000000000000000000000000000000000 000000000000000000000000000000000000000     00000000                                                                                                                        000000000000000000
F0010000008622300005000090007142100013552100000000000000000201605180002001TODO BELLEZA Y MAX S.A.S                          D000000000035200000000000000000000100010010000000000000000000000F0010000008622300520160518000101 00000000000000000000000000000000000000000000000000000000000000000000000000000000000000000000000000000000000000000N 00000000000NCONT   00    00000000000          00000000000000000000000000000000000000000000 000000000000000A000000000000000000000000000000000000000000000 000000000000000000000000000000000000000     00000000                                                                                                                        000000000000000000
F0010000008622400001000003269375300011050500000000000000000201605180002001ROSALY SANCHEZ DUQUE                              D000000008500000000000000000000000100010010000000000000000000000F0010000008622400120160518000101 00000000000000000000000000000000000000000000000000000000000000000000000000000000000000000000000000000000000000000N 00000000000NCONT   00    00000000000          00000000000000000000000000000000000000000000 000000000000000A000000000000000000000000000000000000000000000 000000000000000000000000000000000000000     00000000                                                                                                                        000000000000000000
F0010000008622400002000003269375300041450500000000000000000201605180002001ROSALY SANCHEZ DUQUE                              C000000008200000000000000000000000100010010000000000000000000000F0010000008622400220160518000101 00000000000000000000000000000000000000000000000000000000000000000000000000000000000000000000000000000000000000000N 00000000000NCONT   00    00000000000          00000000000000000000000000000000000000000000 000000000000000A000000000000000000000000000000000000000000000 000000000000000000000000000000000000000     00000000                                                                                                                        000000000000000000
F0010000008622400003000003269375300042505000000000000000000201605180002001ROSALY SANCHEZ DUQUE                              C000000000300000000000000000000000100010010000000000000000000000F0010000008622400320160518000101 00000000000000000000000000000000000000000000000000000000000000000000000000000000000000000000000000000000000000000N 00000000000NCONT   00    00000000000          00000000000000000000000000000000000000000000 000000000000000A000000000000000000000000000000000000000000000 000000000000000000000000000000000000000     00000000                                                                                                                        000000000000000000
F0010000008622400004000003269375300023658300000000000000000201605180002001ROSALY SANCHEZ DUQUE                              C000000000065600000000000000000000100010010000000000000000000000F0010000008622400420160518000101 00000000000000000000000000000000000000000000000000000000000000000000000000000000000000000000000000000000000000000N 00000000000NCONT   00    00000000000          00000000000000000000000000000000000000000000 000000000000000A000000000000000000000000000000000000000000000 000000000000000000000000000000000000000     00000000                                                                                                                        000000000000000000
F0010000008622400005000003269375300013552100000000000000000201605180002001ROSALY SANCHEZ DUQUE                              D000000000065600000000000000000000100010010000000000000000000000F0010000008622400520160518000101 00000000000000000000000000000000000000000000000000000000000000000000000000000000000000000000000000000000000000000N 00000000000NCONT   00    00000000000          00000000000000000000000000000000000000000000 000000000000000A000000000000000000000000000000000000000000000 000000000000000000000000000000000000000     00000000                                                                                                                        000000000000000000
F0010000008622500001000003269375300011050500000000000000000201605180002001ROSALY SANCHEZ DUQUE                              D000000002000000000000000000000000100010010000000000000000000000F0010000008622500120160518000101 00000000000000000000000000000000000000000000000000000000000000000000000000000000000000000000000000000000000000000N 00000000000NCONT   00    00000000000          00000000000000000000000000000000000000000000 000000000000000A000000000000000000000000000000000000000000000 000000000000000000000000000000000000000     00000000                                                                                                                        000000000000000000
F0010000008622500002000003269375300041450500000000000000000201605180002001ROSALY SANCHEZ DUQUE                              C000000001800000000000000000000000100010010000000000000000000000F0010000008622500220160518000101 00000000000000000000000000000000000000000000000000000000000000000000000000000000000000000000000000000000000000000N 00000000000NCONT   00    00000000000          00000000000000000000000000000000000000000000 000000000000000A000000000000000000000000000000000000000000000 000000000000000000000000000000000000000     00000000                                                                                                                        000000000000000000
F0010000008622500003000003269375300042505000000000000000000201605180002001ROSALY SANCHEZ DUQUE                              C000000000200000000000000000000000100010010000000000000000000000F0010000008622500320160518000101 00000000000000000000000000000000000000000000000000000000000000000000000000000000000000000000000000000000000000000N 00000000000NCONT   00    00000000000          00000000000000000000000000000000000000000000 000000000000000A000000000000000000000000000000000000000000000 000000000000000000000000000000000000000     00000000                                                                                                                        000000000000000000
F0010000008622500004000003269375300023658300000000000000000201605180002001ROSALY SANCHEZ DUQUE                              C000000000014400000000000000000000100010010000000000000000000000F0010000008622500420160518000101 00000000000000000000000000000000000000000000000000000000000000000000000000000000000000000000000000000000000000000N 00000000000NCONT   00    00000000000          00000000000000000000000000000000000000000000 000000000000000A000000000000000000000000000000000000000000000 000000000000000000000000000000000000000     00000000                                                                                                                        000000000000000000
F0010000008622500005000003269375300013552100000000000000000201605180002001ROSALY SANCHEZ DUQUE                              D000000000014400000000000000000000100010010000000000000000000000F0010000008622500520160518000101 00000000000000000000000000000000000000000000000000000000000000000000000000000000000000000000000000000000000000000N 00000000000NCONT   00    00000000000          00000000000000000000000000000000000000000000 000000000000000A000000000000000000000000000000000000000000000 000000000000000000000000000000000000000     00000000                                                                                                                        000000000000000000
F0010000008622600001000001022529300011050500000000000000000201605180002001ALBERTO ALVAREZ ISAZA                             D000000000700000000000000000000000100010010000000000000000000000F0010000008622600120160518000101 00000000000000000000000000000000000000000000000000000000000000000000000000000000000000000000000000000000000000000N 00000000000NCONT   00    00000000000          00000000000000000000000000000000000000000000 000000000000000A000000000000000000000000000000000000000000000 000000000000000000000000000000000000000     00000000                                                                                                                        000000000000000000
F0010000008622600002000001022529300041450500000000000000000201605180002001ALBERTO ALVAREZ ISAZA                             C000000000700000000000000000000000100010010000000000000000000000F0010000008622600220160518000101 00000000000000000000000000000000000000000000000000000000000000000000000000000000000000000000000000000000000000000N 00000000000NCONT   00    00000000000          00000000000000000000000000000000000000000000 000000000000000A000000000000000000000000000000000000000000000 000000000000000000000000000000000000000     00000000                                                                                                                        000000000000000000
F0010000008622600003000001022529300042505000000000000000000201605180002001ALBERTO ALVAREZ ISAZA                             C000000000000000000000000000000000100010010000000000000000000000F0010000008622600320160518000101 00000000000000000000000000000000000000000000000000000000000000000000000000000000000000000000000000000000000000000N 00000000000NCONT   00    00000000000          00000000000000000000000000000000000000000000 000000000000000A000000000000000000000000000000000000000000000 000000000000000000000000000000000000000     00000000                                                                                                                        000000000000000000
F0010000008622600004000001022529300023658300000000000000000201605180002001ALBERTO ALVAREZ ISAZA                             C000000000005600000000000000000000100010010000000000000000000000F0010000008622600420160518000101 00000000000000000000000000000000000000000000000000000000000000000000000000000000000000000000000000000000000000000N 00000000000NCONT   00    00000000000          00000000000000000000000000000000000000000000 000000000000000A000000000000000000000000000000000000000000000 000000000000000000000000000000000000000     00000000                                                                                                                        000000000000000000
F0010000008622600005000001022529300013552100000000000000000201605180002001ALBERTO ALVAREZ ISAZA                             D000000000005600000000000000000000100010010000000000000000000000F0010000008622600520160518000101 00000000000000000000000000000000000000000000000000000000000000000000000000000000000000000000000000000000000000000N 00000000000NCONT   00    00000000000          00000000000000000000000000000000000000000000 000000000000000A000000000000000000000000000000000000000000000 000000000000000000000000000000000000000     00000000                                                                                                                        000000000000000000
F0010000008622700001000001022529300011050500000000000000000201605180002001ALBERTO ALVAREZ ISAZA                             D000000001760000000000000000000000100010010000000000000000000000F0010000008622700120160518000101 00000000000000000000000000000000000000000000000000000000000000000000000000000000000000000000000000000000000000000N 00000000000NCONT   00    00000000000          00000000000000000000000000000000000000000000 000000000000000A000000000000000000000000000000000000000000000 000000000000000000000000000000000000000     00000000                                                                                                                        000000000000000000
F0010000008622700002000001022529300041450500000000000000000201605180002001ALBERTO ALVAREZ ISAZA                             C000000001760000000000000000000000100010010000000000000000000000F0010000008622700220160518000101 00000000000000000000000000000000000000000000000000000000000000000000000000000000000000000000000000000000000000000N 00000000000NCONT   00    00000000000          00000000000000000000000000000000000000000000 000000000000000A000000000000000000000000000000000000000000000 000000000000000000000000000000000000000     00000000                                                                                                                        000000000000000000
F0010000008622700003000001022529300042505000000000000000000201605180002001ALBERTO ALVAREZ ISAZA                             C000000000000000000000000000000000100010010000000000000000000000F0010000008622700320160518000101 00000000000000000000000000000000000000000000000000000000000000000000000000000000000000000000000000000000000000000N 00000000000NCONT   00    00000000000          00000000000000000000000000000000000000000000 000000000000000A000000000000000000000000000000000000000000000 000000000000000000000000000000000000000     00000000                                                                                                                        000000000000000000
F0010000008622700004000001022529300023658300000000000000000201605180002001ALBERTO ALVAREZ ISAZA                             C000000000014100000000000000000000100010010000000000000000000000F0010000008622700420160518000101 00000000000000000000000000000000000000000000000000000000000000000000000000000000000000000000000000000000000000000N 00000000000NCONT   00    00000000000          00000000000000000000000000000000000000000000 000000000000000A000000000000000000000000000000000000000000000 000000000000000000000000000000000000000     00000000                                                                                                                        000000000000000000
F0010000008622700005000001022529300013552100000000000000000201605180002001ALBERTO ALVAREZ ISAZA                             D000000000014100000000000000000000100010010000000000000000000000F0010000008622700520160518000101 00000000000000000000000000000000000000000000000000000000000000000000000000000000000000000000000000000000000000000N 00000000000NCONT   00    00000000000          00000000000000000000000000000000000000000000 000000000000000A000000000000000000000000000000000000000000000 000000000000000000000000000000000000000     00000000                                                                                                                        000000000000000000
F0010000008622800001000007200023300011050500000000000000000201605180002001WILLIAM ORTEGA                                    D000000001500000000000000000000000100010010000000000000000000000F0010000008622800120160518000101 00000000000000000000000000000000000000000000000000000000000000000000000000000000000000000000000000000000000000000N 00000000000NCONT   00    00000000000          00000000000000000000000000000000000000000000 000000000000000A000000000000000000000000000000000000000000000 000000000000000000000000000000000000000     00000000                                                                                                                        000000000000000000
F0010000008622800002000007200023300041450500000000000000000201605180002001WILLIAM ORTEGA                                    C000000001300000000000000000000000100010010000000000000000000000F0010000008622800220160518000101 00000000000000000000000000000000000000000000000000000000000000000000000000000000000000000000000000000000000000000N 00000000000NCONT   00    00000000000          00000000000000000000000000000000000000000000 000000000000000A000000000000000000000000000000000000000000000 000000000000000000000000000000000000000     00000000                                                                                                                        000000000000000000
F0010000008622800003000007200023300042505000000000000000000201605180002001WILLIAM ORTEGA                                    C000000000200000000000000000000000100010010000000000000000000000F0010000008622800320160518000101 00000000000000000000000000000000000000000000000000000000000000000000000000000000000000000000000000000000000000000N 00000000000NCONT   00    00000000000          00000000000000000000000000000000000000000000 000000000000000A000000000000000000000000000000000000000000000 000000000000000000000000000000000000000     00000000                                                                                                                        000000000000000000
F0010000008622800004000007200023300023658300000000000000000201605180002001WILLIAM ORTEGA                                    C000000000010400000000000000000000100010010000000000000000000000F0010000008622800420160518000101 00000000000000000000000000000000000000000000000000000000000000000000000000000000000000000000000000000000000000000N 00000000000NCONT   00    00000000000          00000000000000000000000000000000000000000000 000000000000000A000000000000000000000000000000000000000000000 000000000000000000000000000000000000000     00000000                                                                                                                        000000000000000000
F0010000008622800005000007200023300013552100000000000000000201605180002001WILLIAM ORTEGA                                    D000000000010400000000000000000000100010010000000000000000000000F0010000008622800520160518000101 00000000000000000000000000000000000000000000000000000000000000000000000000000000000000000000000000000000000000000N 00000000000NCONT   00    00000000000          00000000000000000000000000000000000000000000 000000000000000A000000000000000000000000000000000000000000000 000000000000000000000000000000000000000     00000000                                                                                                                        000000000000000000
F0010000008622900001000007200023300011050500000000000000000201605180002001WILLIAM ORTEGA                                    D000000002200000000000000000000000100010010000000000000000000000F0010000008622900120160518000101 00000000000000000000000000000000000000000000000000000000000000000000000000000000000000000000000000000000000000000N 00000000000NCONT   00    00000000000          00000000000000000000000000000000000000000000 000000000000000A000000000000000000000000000000000000000000000 000000000000000000000000000000000000000     00000000                                                                                                                        000000000000000000
F0010000008622900002000007200023300041450500000000000000000201605180002001WILLIAM ORTEGA                                    C000000002000000000000000000000000100010010000000000000000000000F0010000008622900220160518000101 00000000000000000000000000000000000000000000000000000000000000000000000000000000000000000000000000000000000000000N 00000000000NCONT   00    00000000000          00000000000000000000000000000000000000000000 000000000000000A000000000000000000000000000000000000000000000 000000000000000000000000000000000000000     00000000                                                                                                                        000000000000000000
