F0010000009113700001000003207718300011050500000000000000000201609120002001MARIA GILMA RAMIREZ GARCIA                        D000000005000000000000000000000000100010010000000000000000000000F0010000009113700120160912000101 00000000000000000000000000000000000000000000000000000000000000000000000000000000000000000000000000000000000000000N 00000000000NCONT   00    00000000000          00000000000000000000000000000000000000000000 000000000000000A000000000000000000000000000000000000000000000 000000000000000000000000000000000000000     00000000                                                                                                                        000000000000000000
F0010000009113700002000003207718300041450500000000000000000201609120002001MARIA GILMA RAMIREZ GARCIA                        C000000004000000000000000000000000100010010000000000000000000000F0010000009113700220160912000101 00000000000000000000000000000000000000000000000000000000000000000000000000000000000000000000000000000000000000000N 00000000000NCONT   00    00000000000          00000000000000000000000000000000000000000000 000000000000000A000000000000000000000000000000000000000000000 000000000000000000000000000000000000000     00000000                                                                                                                        000000000000000000
F0010000009113700003000003207718300042505000000000000000000201609120002001MARIA GILMA RAMIREZ GARCIA                        C000000001000000000000000000000000100010010000000000000000000000F0010000009113700320160912000101 00000000000000000000000000000000000000000000000000000000000000000000000000000000000000000000000000000000000000000N 00000000000NCONT   00    00000000000          00000000000000000000000000000000000000000000 000000000000000A000000000000000000000000000000000000000000000 000000000000000000000000000000000000000     00000000                                                                                                                        000000000000000000
F0010000009113700004000003207718300023658300000000000000000201609120002001MARIA GILMA RAMIREZ GARCIA                        C000000000032000000000000000000000100010010000000000000000000000F0010000009113700420160912000101 00000000000000000000000000000000000000000000000000000000000000000000000000000000000000000000000000000000000000000N 00000000000NCONT   00    00000000000          00000000000000000000000000000000000000000000 000000000000000A000000000000000000000000000000000000000000000 000000000000000000000000000000000000000     00000000                                                                                                                        000000000000000000
F0010000009113700005000003207718300013552100000000000000000201609120002001MARIA GILMA RAMIREZ GARCIA                        D000000000032000000000000000000000100010010000000000000000000000F0010000009113700520160912000101 00000000000000000000000000000000000000000000000000000000000000000000000000000000000000000000000000000000000000000N 00000000000NCONT   00    00000000000          00000000000000000000000000000000000000000000 000000000000000A000000000000000000000000000000000000000000000 000000000000000000000000000000000000000     00000000                                                                                                                        000000000000000000
F0010000009113800001000003207718300011050500000000000000000201609120002001MARIA GILMA RAMIREZ GARCIA                        D000000002200000000000000000000000100010010000000000000000000000F0010000009113800120160912000101 00000000000000000000000000000000000000000000000000000000000000000000000000000000000000000000000000000000000000000N 00000000000NCONT   00    00000000000          00000000000000000000000000000000000000000000 000000000000000A000000000000000000000000000000000000000000000 000000000000000000000000000000000000000     00000000                                                                                                                        000000000000000000
F0010000009113800002000003207718300041450500000000000000000201609120002001MARIA GILMA RAMIREZ GARCIA                        C000000002000000000000000000000000100010010000000000000000000000F0010000009113800220160912000101 00000000000000000000000000000000000000000000000000000000000000000000000000000000000000000000000000000000000000000N 00000000000NCONT   00    00000000000          00000000000000000000000000000000000000000000 000000000000000A000000000000000000000000000000000000000000000 000000000000000000000000000000000000000     00000000                                                                                                                        000000000000000000
F0010000009113800003000003207718300042505000000000000000000201609120002001MARIA GILMA RAMIREZ GARCIA                        C000000000200000000000000000000000100010010000000000000000000000F0010000009113800320160912000101 00000000000000000000000000000000000000000000000000000000000000000000000000000000000000000000000000000000000000000N 00000000000NCONT   00    00000000000          00000000000000000000000000000000000000000000 000000000000000A000000000000000000000000000000000000000000000 000000000000000000000000000000000000000     00000000                                                                                                                        000000000000000000
F0010000009113800004000003207718300023658300000000000000000201609120002001MARIA GILMA RAMIREZ GARCIA                        C000000000016000000000000000000000100010010000000000000000000000F0010000009113800420160912000101 00000000000000000000000000000000000000000000000000000000000000000000000000000000000000000000000000000000000000000N 00000000000NCONT   00    00000000000          00000000000000000000000000000000000000000000 000000000000000A000000000000000000000000000000000000000000000 000000000000000000000000000000000000000     00000000                                                                                                                        000000000000000000
F0010000009113800005000003207718300013552100000000000000000201609120002001MARIA GILMA RAMIREZ GARCIA                        D000000000016000000000000000000000100010010000000000000000000000F0010000009113800520160912000101 00000000000000000000000000000000000000000000000000000000000000000000000000000000000000000000000000000000000000000N 00000000000NCONT   00    00000000000          00000000000000000000000000000000000000000000 000000000000000A000000000000000000000000000000000000000000000 000000000000000000000000000000000000000     00000000                                                                                                                        000000000000000000
F0010000009113900001000003207718300011050500000000000000000201609120002001MARIA GILMA RAMIREZ GARCIA                        D000000002700000000000000000000000100010010000000000000000000000F0010000009113900120160912000101 00000000000000000000000000000000000000000000000000000000000000000000000000000000000000000000000000000000000000000N 00000000000NCONT   00    00000000000          00000000000000000000000000000000000000000000 000000000000000A000000000000000000000000000000000000000000000 000000000000000000000000000000000000000     00000000                                                                                                                        000000000000000000
F0010000009113900002000003207718300041450500000000000000000201609120002001MARIA GILMA RAMIREZ GARCIA                        C000000002500000000000000000000000100010010000000000000000000000F0010000009113900220160912000101 00000000000000000000000000000000000000000000000000000000000000000000000000000000000000000000000000000000000000000N 00000000000NCONT   00    00000000000          00000000000000000000000000000000000000000000 000000000000000A000000000000000000000000000000000000000000000 000000000000000000000000000000000000000     00000000                                                                                                                        000000000000000000
F0010000009113900003000003207718300042505000000000000000000201609120002001MARIA GILMA RAMIREZ GARCIA                        C000000000200000000000000000000000100010010000000000000000000000F0010000009113900320160912000101 00000000000000000000000000000000000000000000000000000000000000000000000000000000000000000000000000000000000000000N 00000000000NCONT   00    00000000000          00000000000000000000000000000000000000000000 000000000000000A000000000000000000000000000000000000000000000 000000000000000000000000000000000000000     00000000                                                                                                                        000000000000000000
F0010000009113900004000003207718300023658300000000000000000201609120002001MARIA GILMA RAMIREZ GARCIA                        C000000000020000000000000000000000100010010000000000000000000000F0010000009113900420160912000101 00000000000000000000000000000000000000000000000000000000000000000000000000000000000000000000000000000000000000000N 00000000000NCONT   00    00000000000          00000000000000000000000000000000000000000000 000000000000000A000000000000000000000000000000000000000000000 000000000000000000000000000000000000000     00000000                                                                                                                        000000000000000000
F0010000009113900005000003207718300013552100000000000000000201609120002001MARIA GILMA RAMIREZ GARCIA                        D000000000020000000000000000000000100010010000000000000000000000F0010000009113900520160912000101 00000000000000000000000000000000000000000000000000000000000000000000000000000000000000000000000000000000000000000N 00000000000NCONT   00    00000000000          00000000000000000000000000000000000000000000 000000000000000A000000000000000000000000000000000000000000000 000000000000000000000000000000000000000     00000000                                                                                                                        000000000000000000
F0010000009114000001000089080176300013050500000000000000000201609120002001SEGAR S.A.                                        D000000136656000000000000000000000100010010000000000000000000000F0010000009114000120160912000101 00000000000000000000000000000000000000000000000000000000000000000000000000000000000000000000000000000000000000000N 00000000000NCONT   00    00000000000          00000000000000000000000000000000000000000000 000000000000000A000000000000000000000000000000000000000000000 000000000000000000000000000000000000000     00000000                                                                                                                        000000000000000000
F0010000009114000002000089080176300041450500000000000000000201609120002001SEGAR S.A.                                        C000000122906000000000000000000000100010010000000000000000000000F0010000009114000220160912000101 00000000000000000000000000000000000000000000000000000000000000000000000000000000000000000000000000000000000000000N 00000000000NCONT   00    00000000000          00000000000000000000000000000000000000000000 000000000000000A000000000000000000000000000000000000000000000 000000000000000000000000000000000000000     00000000                                                                                                                        000000000000000000
F0010000009114000003000089080176300042505000000000000000000201609120002001SEGAR S.A.                                        C000000013750000000000000000000000100010010000000000000000000000F0010000009114000320160912000101 00000000000000000000000000000000000000000000000000000000000000000000000000000000000000000000000000000000000000000N 00000000000NCONT   00    00000000000          00000000000000000000000000000000000000000000 000000000000000A000000000000000000000000000000000000000000000 000000000000000000000000000000000000000     00000000                                                                                                                        000000000000000000
F0010000009114000004000089080176300023658300000000000000000201609120002001SEGAR S.A.                                        C000000000983200000000000000000000100010010000000000000000000000F0010000009114000420160912000101 00000000000000000000000000000000000000000000000000000000000000000000000000000000000000000000000000000000000000000N 00000000000NCONT   00    00000000000          00000000000000000000000000000000000000000000 000000000000000A000000000000000000000000000000000000000000000 000000000000000000000000000000000000000     00000000                                                                                                                        000000000000000000
F0010000009114000005000089080176300013552100000000000000000201609120002001SEGAR S.A.                                        D000000000983200000000000000000000100010010000000000000000000000F0010000009114000520160912000101 00000000000000000000000000000000000000000000000000000000000000000000000000000000000000000000000000000000000000000N 00000000000NCONT   00    00000000000          00000000000000000000000000000000000000000000 000000000000000A000000000000000000000000000000000000000000000 000000000000000000000000000000000000000     00000000                                                                                                                        000000000000000000
F0010000009114100001000080200863700013050500000000000000000201609120002001COPIN S.A.S                                       D000000042037300000000000000000000100010010000000000000000000000F0010000009114100120160912000101 00000000000000000000000000000000000000000000000000000000000000000000000000000000000000000000000000000000000000000N 00000000000NCONT   00    00000000000          00000000000000000000000000000000000000000000 000000000000000A000000000000000000000000000000000000000000000 000000000000000000000000000000000000000     00000000                                                                                                                        000000000000000000
F0010000009114100002000080200863700041450500000000000000000201609120002001COPIN S.A.S                                       C000000037126000000000000000000000100010010000000000000000000000F0010000009114100220160912000101 00000000000000000000000000000000000000000000000000000000000000000000000000000000000000000000000000000000000000000N 00000000000NCONT   00    00000000000          00000000000000000000000000000000000000000000 000000000000000A000000000000000000000000000000000000000000000 000000000000000000000000000000000000000     00000000                                                                                                                        000000000000000000
F0010000009114100003000080200863700042505000000000000000000201609120002001COPIN S.A.S                                       C000000004911300000000000000000000100010010000000000000000000000F0010000009114100320160912000101 00000000000000000000000000000000000000000000000000000000000000000000000000000000000000000000000000000000000000000N 00000000000NCONT   00    00000000000          00000000000000000000000000000000000000000000 000000000000000A000000000000000000000000000000000000000000000 000000000000000000000000000000000000000     00000000                                                                                                                        000000000000000000
F0010000009114100004000080200863700023658300000000000000000201609120002001COPIN S.A.S                                       C000000000297000000000000000000000100010010000000000000000000000F0010000009114100420160912000101 00000000000000000000000000000000000000000000000000000000000000000000000000000000000000000000000000000000000000000N 00000000000NCONT   00    00000000000          00000000000000000000000000000000000000000000 000000000000000A000000000000000000000000000000000000000000000 000000000000000000000000000000000000000     00000000                                                                                                                        000000000000000000
F0010000009114100005000080200863700013552100000000000000000201609120002001COPIN S.A.S                                       D000000000297000000000000000000000100010010000000000000000000000F0010000009114100520160912000101 00000000000000000000000000000000000000000000000000000000000000000000000000000000000000000000000000000000000000000N 00000000000NCONT   00    00000000000          00000000000000000000000000000000000000000000 000000000000000A000000000000000000000000000000000000000000000 000000000000000000000000000000000000000     00000000                                                                                                                        000000000000000000
F0010000009114200001000089010526900013050500000000000000000201609120002001DISTRIBUCIONES CANAL Y CIA S.A.S                  D000000013089600000000000000000000100010010000000000000000000000F0010000009114200120160912000101 00000000000000000000000000000000000000000000000000000000000000000000000000000000000000000000000000000000000000000N 00000000000NCONT   00    00000000000          00000000000000000000000000000000000000000000 000000000000000A000000000000000000000000000000000000000000000 000000000000000000000000000000000000000     00000000                                                                                                                        000000000000000000
F0010000009114200002000089010526900041450500000000000000000201609120002001DISTRIBUCIONES CANAL Y CIA S.A.S                  C000000008690000000000000000000000100010010000000000000000000000F0010000009114200220160912000101 00000000000000000000000000000000000000000000000000000000000000000000000000000000000000000000000000000000000000000N 00000000000NCONT   00    00000000000          00000000000000000000000000000000000000000000 000000000000000A000000000000000000000000000000000000000000000 000000000000000000000000000000000000000     00000000                                                                                                                        000000000000000000
F0010000009114200003000089010526900042505000000000000000000201609120002001DISTRIBUCIONES CANAL Y CIA S.A.S                  C000000004399600000000000000000000100010010000000000000000000000F0010000009114200320160912000101 00000000000000000000000000000000000000000000000000000000000000000000000000000000000000000000000000000000000000000N 00000000000NCONT   00    00000000000          00000000000000000000000000000000000000000000 000000000000000A000000000000000000000000000000000000000000000 000000000000000000000000000000000000000     00000000                                                                                                                        000000000000000000
F0010000009114200004000089010526900023658300000000000000000201609120002001DISTRIBUCIONES CANAL Y CIA S.A.S                  C000000000069500000000000000000000100010010000000000000000000000F0010000009114200420160912000101 00000000000000000000000000000000000000000000000000000000000000000000000000000000000000000000000000000000000000000N 00000000000NCONT   00    00000000000          00000000000000000000000000000000000000000000 000000000000000A000000000000000000000000000000000000000000000 000000000000000000000000000000000000000     00000000                                                                                                                        000000000000000000
F0010000009114200005000089010526900013552100000000000000000201609120002001DISTRIBUCIONES CANAL Y CIA S.A.S                  D000000000069500000000000000000000100010010000000000000000000000F0010000009114200520160912000101 00000000000000000000000000000000000000000000000000000000000000000000000000000000000000000000000000000000000000000N 00000000000NCONT   00    00000000000          00000000000000000000000000000000000000000000 000000000000000A000000000000000000000000000000000000000000000 000000000000000000000000000000000000000     00000000                                                                                                                        000000000000000000
F0010000009114300001000000748239700013050500000000000000000201609120002001RAFAEL NAVARRO URIBE                              D000000037657900000000000000000000100010010000000000000000000000F0010000009114300120160912000101 00000000000000000000000000000000000000000000000000000000000000000000000000000000000000000000000000000000000000000N 00000000000NCONT   00    00000000000          00000000000000000000000000000000000000000000 000000000000000A000000000000000000000000000000000000000000000 000000000000000000000000000000000000000     00000000                                                                                                                        000000000000000000
F0010000009114300002000000748239700041450500000000000000000201609120002001RAFAEL NAVARRO URIBE                              C000000020810000000000000000000000100010010000000000000000000000F0010000009114300220160912000101 00000000000000000000000000000000000000000000000000000000000000000000000000000000000000000000000000000000000000000N 00000000000NCONT   00    00000000000          00000000000000000000000000000000000000000000 000000000000000A000000000000000000000000000000000000000000000 000000000000000000000000000000000000000     00000000                                                                                                                        000000000000000000
F0010000009114300003000000748239700042505000000000000000000201609120002001RAFAEL NAVARRO URIBE                              C000000016847900000000000000000000100010010000000000000000000000F0010000009114300320160912000101 00000000000000000000000000000000000000000000000000000000000000000000000000000000000000000000000000000000000000000N 00000000000NCONT   00    00000000000          00000000000000000000000000000000000000000000 000000000000000A000000000000000000000000000000000000000000000 000000000000000000000000000000000000000     00000000                                                                                                                        000000000000000000
F0010000009114300004000000748239700023658300000000000000000201609120002001RAFAEL NAVARRO URIBE                              C000000000166500000000000000000000100010010000000000000000000000F0010000009114300420160912000101 00000000000000000000000000000000000000000000000000000000000000000000000000000000000000000000000000000000000000000N 00000000000NCONT   00    00000000000          00000000000000000000000000000000000000000000 000000000000000A000000000000000000000000000000000000000000000 000000000000000000000000000000000000000     00000000                                                                                                                        000000000000000000
F0010000009114300005000000748239700013552100000000000000000201609120002001RAFAEL NAVARRO URIBE                              D000000000166500000000000000000000100010010000000000000000000000F0010000009114300520160912000101 00000000000000000000000000000000000000000000000000000000000000000000000000000000000000000000000000000000000000000N 00000000000NCONT   00    00000000000          00000000000000000000000000000000000000000000 000000000000000A000000000000000000000000000000000000000000000 000000000000000000000000000000000000000     00000000                                                                                                                        000000000000000000
F0010000009114400001000002245670100013050500000000000000000201609120002001YOLANDA  TOBON                                    D000000060499600000000000000000000100010010000000000000000000000F0010000009114400120160912000101 00000000000000000000000000000000000000000000000000000000000000000000000000000000000000000000000000000000000000000N 00000000000NCONT   00    00000000000          00000000000000000000000000000000000000000000 000000000000000A000000000000000000000000000000000000000000000 000000000000000000000000000000000000000     00000000                                                                                                                        000000000000000000
F0010000009114400002000002245670100041450500000000000000000201609120002001YOLANDA  TOBON                                    C000000047880000000000000000000000100010010000000000000000000000F0010000009114400220160912000101 00000000000000000000000000000000000000000000000000000000000000000000000000000000000000000000000000000000000000000N 00000000000NCONT   00    00000000000          00000000000000000000000000000000000000000000 000000000000000A000000000000000000000000000000000000000000000 000000000000000000000000000000000000000     00000000                                                                                                                        000000000000000000
F0010000009114400003000002245670100042505000000000000000000201609120002001YOLANDA  TOBON                                    C000000012619600000000000000000000100010010000000000000000000000F0010000009114400320160912000101 00000000000000000000000000000000000000000000000000000000000000000000000000000000000000000000000000000000000000000N 00000000000NCONT   00    00000000000          00000000000000000000000000000000000000000000 000000000000000A000000000000000000000000000000000000000000000 000000000000000000000000000000000000000     00000000                                                                                                                        000000000000000000
F0010000009114400004000002245670100023658300000000000000000201609120002001YOLANDA  TOBON                                    C000000000383000000000000000000000100010010000000000000000000000F0010000009114400420160912000101 00000000000000000000000000000000000000000000000000000000000000000000000000000000000000000000000000000000000000000N 00000000000NCONT   00    00000000000          00000000000000000000000000000000000000000000 000000000000000A000000000000000000000000000000000000000000000 000000000000000000000000000000000000000     00000000                                                                                                                        000000000000000000
F0010000009114400005000002245670100013552100000000000000000201609120002001YOLANDA  TOBON                                    D000000000383000000000000000000000100010010000000000000000000000F0010000009114400520160912000101 00000000000000000000000000000000000000000000000000000000000000000000000000000000000000000000000000000000000000000N 00000000000NCONT   00    00000000000          00000000000000000000000000000000000000000000 000000000000000A000000000000000000000000000000000000000000000 000000000000000000000000000000000000000     00000000                                                                                                                        000000000000000000
F0010000009114500001000086000490200013050500000000000000000201609120002001PROV. DE PAPELES ANDINA S.A.                      D000000009705900000000000000000000100010010000000000000000000000F0010000009114500120160912000101 00000000000000000000000000000000000000000000000000000000000000000000000000000000000000000000000000000000000000000N 00000000000NCONT   00    00000000000          00000000000000000000000000000000000000000000 000000000000000A000000000000000000000000000000000000000000000 000000000000000000000000000000000000000     00000000                                                                                                                        000000000000000000
F0010000009114500002000086000490200041450500000000000000000201609120002001PROV. DE PAPELES ANDINA S.A.                      C000000009138400000000000000000000100010010000000000000000000000F0010000009114500220160912000101 00000000000000000000000000000000000000000000000000000000000000000000000000000000000000000000000000000000000000000N 00000000000NCONT   00    00000000000          00000000000000000000000000000000000000000000 000000000000000A000000000000000000000000000000000000000000000 000000000000000000000000000000000000000     00000000                                                                                                                        000000000000000000
F0010000009114500003000086000490200042505000000000000000000201609120002001PROV. DE PAPELES ANDINA S.A.                      C000000000567500000000000000000000100010010000000000000000000000F0010000009114500320160912000101 00000000000000000000000000000000000000000000000000000000000000000000000000000000000000000000000000000000000000000N 00000000000NCONT   00    00000000000          00000000000000000000000000000000000000000000 000000000000000A000000000000000000000000000000000000000000000 000000000000000000000000000000000000000     00000000                                                                                                                        000000000000000000
F0010000009114500004000086000490200023658300000000000000000201609120002001PROV. DE PAPELES ANDINA S.A.                      C000000000073100000000000000000000100010010000000000000000000000F0010000009114500420160912000101 00000000000000000000000000000000000000000000000000000000000000000000000000000000000000000000000000000000000000000N 00000000000NCONT   00    00000000000          00000000000000000000000000000000000000000000 000000000000000A000000000000000000000000000000000000000000000 000000000000000000000000000000000000000     00000000                                                                                                                        000000000000000000
F0010000009114500005000086000490200013552100000000000000000201609120002001PROV. DE PAPELES ANDINA S.A.                      D000000000073100000000000000000000100010010000000000000000000000F0010000009114500520160912000101 00000000000000000000000000000000000000000000000000000000000000000000000000000000000000000000000000000000000000000N 00000000000NCONT   00    00000000000          00000000000000000000000000000000000000000000 000000000000000A000000000000000000000000000000000000000000000 000000000000000000000000000000000000000     00000000                                                                                                                        000000000000000000
F0010000009114600001000090009800500013050500000000000000000201609120002001GLORIANT CHEMICHALS DE COLOMBIA LTDA              D000000037079000000000000000000000100010010000000000000000000000F0010000009114600120160912000101 00000000000000000000000000000000000000000000000000000000000000000000000000000000000000000000000000000000000000000N 00000000000NCONT   00    00000000000          00000000000000000000000000000000000000000000 000000000000000A000000000000000000000000000000000000000000000 000000000000000000000000000000000000000     00000000                                                                                                                        000000000000000000
F0010000009114600002000090009800500041450500000000000000000201609120002001GLORIANT CHEMICHALS DE COLOMBIA LTDA              C000000033040000000000000000000000100010010000000000000000000000F0010000009114600220160912000101 00000000000000000000000000000000000000000000000000000000000000000000000000000000000000000000000000000000000000000N 00000000000NCONT   00    00000000000          00000000000000000000000000000000000000000000 000000000000000A000000000000000000000000000000000000000000000 000000000000000000000000000000000000000     00000000                                                                                                                        000000000000000000
F0010000009114600003000090009800500042505000000000000000000201609120002001GLORIANT CHEMICHALS DE COLOMBIA LTDA              C000000004039000000000000000000000100010010000000000000000000000F0010000009114600320160912000101 00000000000000000000000000000000000000000000000000000000000000000000000000000000000000000000000000000000000000000N 00000000000NCONT   00    00000000000          00000000000000000000000000000000000000000000 000000000000000A000000000000000000000000000000000000000000000 000000000000000000000000000000000000000     00000000                                                                                                                        000000000000000000
F0010000009114600004000090009800500023658300000000000000000201609120002001GLORIANT CHEMICHALS DE COLOMBIA LTDA              C000000000264300000000000000000000100010010000000000000000000000F0010000009114600420160912000101 00000000000000000000000000000000000000000000000000000000000000000000000000000000000000000000000000000000000000000N 00000000000NCONT   00    00000000000          00000000000000000000000000000000000000000000 000000000000000A000000000000000000000000000000000000000000000 000000000000000000000000000000000000000     00000000                                                                                                                        000000000000000000
F0010000009114600005000090009800500013552100000000000000000201609120002001GLORIANT CHEMICHALS DE COLOMBIA LTDA              D000000000264300000000000000000000100010010000000000000000000000F0010000009114600520160912000101 00000000000000000000000000000000000000000000000000000000000000000000000000000000000000000000000000000000000000000N 00000000000NCONT   00    00000000000          00000000000000000000000000000000000000000000 000000000000000A000000000000000000000000000000000000000000000 000000000000000000000000000000000000000     00000000                                                                                                                        000000000000000000
F0010000009114700001000090064982900013050500000000000000000201609120002001DISDIES S.A.S                                     D000000102262900000000000000000000100010010000000000000000000000F0010000009114700120160912000101 00000000000000000000000000000000000000000000000000000000000000000000000000000000000000000000000000000000000000000N 00000000000NCONT   00    00000000000          00000000000000000000000000000000000000000000 000000000000000A000000000000000000000000000000000000000000000 000000000000000000000000000000000000000     00000000                                                                                                                        000000000000000000
F0010000009114700002000090064982900041450500000000000000000201609120002001DISDIES S.A.S                                     C000000089626100000000000000000000100010010000000000000000000000F0010000009114700220160912000101 00000000000000000000000000000000000000000000000000000000000000000000000000000000000000000000000000000000000000000N 00000000000NCONT   00    00000000000          00000000000000000000000000000000000000000000 000000000000000A000000000000000000000000000000000000000000000 000000000000000000000000000000000000000     00000000                                                                                                                        000000000000000000
F0010000009114700003000090064982900042505000000000000000000201609120002001DISDIES S.A.S                                     C000000012636800000000000000000000100010010000000000000000000000F0010000009114700320160912000101 00000000000000000000000000000000000000000000000000000000000000000000000000000000000000000000000000000000000000000N 00000000000NCONT   00    00000000000          00000000000000000000000000000000000000000000 000000000000000A000000000000000000000000000000000000000000000 000000000000000000000000000000000000000     00000000                                                                                                                        000000000000000000
F0010000009114700004000090064982900023658300000000000000000201609120002001DISDIES S.A.S                                     C000000000717000000000000000000000100010010000000000000000000000F0010000009114700420160912000101 00000000000000000000000000000000000000000000000000000000000000000000000000000000000000000000000000000000000000000N 00000000000NCONT   00    00000000000          00000000000000000000000000000000000000000000 000000000000000A000000000000000000000000000000000000000000000 000000000000000000000000000000000000000     00000000                                                                                                                        000000000000000000
F0010000009114700005000090064982900013552100000000000000000201609120002001DISDIES S.A.S                                     D000000000717000000000000000000000100010010000000000000000000000F0010000009114700520160912000101 00000000000000000000000000000000000000000000000000000000000000000000000000000000000000000000000000000000000000000N 00000000000NCONT   00    00000000000          00000000000000000000000000000000000000000000 000000000000000A000000000000000000000000000000000000000000000 000000000000000000000000000000000000000     00000000                                                                                                                        000000000000000000
F0010000009114800001000000871714900013050500000000000000000201609120002001ROLNAN DE LA ROSA  INSIGNARES                     D000000086479500000000000000000000100010010000000000000000000000F0010000009114800120160912000101 00000000000000000000000000000000000000000000000000000000000000000000000000000000000000000000000000000000000000000N 00000000000NCONT   00    00000000000          00000000000000000000000000000000000000000000 000000000000000A000000000000000000000000000000000000000000000 000000000000000000000000000000000000000     00000000                                                                                                                        000000000000000000
F0010000009114800002000000871714900041450500000000000000000201609120002001ROLNAN DE LA ROSA  INSIGNARES                     C000000073946100000000000000000000100010010000000000000000000000F0010000009114800220160912000101 00000000000000000000000000000000000000000000000000000000000000000000000000000000000000000000000000000000000000000N 00000000000NCONT   00    00000000000          00000000000000000000000000000000000000000000 000000000000000A000000000000000000000000000000000000000000000 000000000000000000000000000000000000000     00000000                                                                                                                        000000000000000000
F0010000009114800003000000871714900042505000000000000000000201609120002001ROLNAN DE LA ROSA  INSIGNARES                     C000000012533400000000000000000000100010010000000000000000000000F0010000009114800320160912000101 00000000000000000000000000000000000000000000000000000000000000000000000000000000000000000000000000000000000000000N 00000000000NCONT   00    00000000000          00000000000000000000000000000000000000000000 000000000000000A000000000000000000000000000000000000000000000 000000000000000000000000000000000000000     00000000                                                                                                                        000000000000000000
F0010000009114800004000000871714900023658300000000000000000201609120002001ROLNAN DE LA ROSA  INSIGNARES                     C000000000591600000000000000000000100010010000000000000000000000F0010000009114800420160912000101 00000000000000000000000000000000000000000000000000000000000000000000000000000000000000000000000000000000000000000N 00000000000NCONT   00    00000000000          00000000000000000000000000000000000000000000 000000000000000A000000000000000000000000000000000000000000000 000000000000000000000000000000000000000     00000000                                                                                                                        000000000000000000
F0010000009114800005000000871714900013552100000000000000000201609120002001ROLNAN DE LA ROSA  INSIGNARES                     D000000000591600000000000000000000100010010000000000000000000000F0010000009114800520160912000101 00000000000000000000000000000000000000000000000000000000000000000000000000000000000000000000000000000000000000000N 00000000000NCONT   00    00000000000          00000000000000000000000000000000000000000000 000000000000000A000000000000000000000000000000000000000000000 000000000000000000000000000000000000000     00000000                                                                                                                        000000000000000000
F0010000009114900001000080201127600013050500000000000000000201609120002001ELECTRICOS DEL RUIZ S.A.S.                        D000000030961000000000000000000000100010010000000000000000000000F0010000009114900120160912000101 00000000000000000000000000000000000000000000000000000000000000000000000000000000000000000000000000000000000000000N 00000000000NCONT   00    00000000000          00000000000000000000000000000000000000000000 000000000000000A000000000000000000000000000000000000000000000 000000000000000000000000000000000000000     00000000                                                                                                                        000000000000000000
F0010000009114900002000080201127600041450500000000000000000201609120002001ELECTRICOS DEL RUIZ S.A.S.                        C000000015600000000000000000000000100010010000000000000000000000F0010000009114900220160912000101 00000000000000000000000000000000000000000000000000000000000000000000000000000000000000000000000000000000000000000N 00000000000NCONT   00    00000000000          00000000000000000000000000000000000000000000 000000000000000A000000000000000000000000000000000000000000000 000000000000000000000000000000000000000     00000000                                                                                                                        000000000000000000
F0010000009114900003000080201127600042505000000000000000000201609120002001ELECTRICOS DEL RUIZ S.A.S.                        C000000015361000000000000000000000100010010000000000000000000000F0010000009114900320160912000101 00000000000000000000000000000000000000000000000000000000000000000000000000000000000000000000000000000000000000000N 00000000000NCONT   00    00000000000          00000000000000000000000000000000000000000000 000000000000000A000000000000000000000000000000000000000000000 000000000000000000000000000000000000000     00000000                                                                                                                        000000000000000000
F0010000009114900004000080201127600023658300000000000000000201609120002001ELECTRICOS DEL RUIZ S.A.S.                        C000000000124800000000000000000000100010010000000000000000000000F0010000009114900420160912000101 00000000000000000000000000000000000000000000000000000000000000000000000000000000000000000000000000000000000000000N 00000000000NCONT   00    00000000000          00000000000000000000000000000000000000000000 000000000000000A000000000000000000000000000000000000000000000 000000000000000000000000000000000000000     00000000                                                                                                                        000000000000000000
F0010000009114900005000080201127600013552100000000000000000201609120002001ELECTRICOS DEL RUIZ S.A.S.                        D000000000124800000000000000000000100010010000000000000000000000F0010000009114900520160912000101 00000000000000000000000000000000000000000000000000000000000000000000000000000000000000000000000000000000000000000N 00000000000NCONT   00    00000000000          00000000000000000000000000000000000000000000 000000000000000A000000000000000000000000000000000000000000000 000000000000000000000000000000000000000     00000000                                                                                                                        000000000000000000
F0010000009115000001000080022903500013050500000000000000000201609120002001TECNOGLASS S.A                                    D000000050399200000000000000000000100010010000000000000000000000F0010000009115000120160912000101 00000000000000000000000000000000000000000000000000000000000000000000000000000000000000000000000000000000000000000N 00000000000NCONT   00    00000000000          00000000000000000000000000000000000000000000 000000000000000A000000000000000000000000000000000000000000000 000000000000000000000000000000000000000     00000000                                                                                                                        000000000000000000
F0010000009115000002000080022903500041450500000000000000000201609120002001TECNOGLASS S.A                                    C000000046700000000000000000000000100010010000000000000000000000F0010000009115000220160912000101 00000000000000000000000000000000000000000000000000000000000000000000000000000000000000000000000000000000000000000N 00000000000NCONT   00    00000000000          00000000000000000000000000000000000000000000 000000000000000A000000000000000000000000000000000000000000000 000000000000000000000000000000000000000     00000000                                                                                                                        000000000000000000
F0010000009115000003000080022903500042505000000000000000000201609120002001TECNOGLASS S.A                                    C000000003699200000000000000000000100010010000000000000000000000F0010000009115000320160912000101 00000000000000000000000000000000000000000000000000000000000000000000000000000000000000000000000000000000000000000N 00000000000NCONT   00    00000000000          00000000000000000000000000000000000000000000 000000000000000A000000000000000000000000000000000000000000000 000000000000000000000000000000000000000     00000000                                                                                                                        000000000000000000
F0010000009115000004000080022903500023658300000000000000000201609120002001TECNOGLASS S.A                                    C000000000373600000000000000000000100010010000000000000000000000F0010000009115000420160912000101 00000000000000000000000000000000000000000000000000000000000000000000000000000000000000000000000000000000000000000N 00000000000NCONT   00    00000000000          00000000000000000000000000000000000000000000 000000000000000A000000000000000000000000000000000000000000000 000000000000000000000000000000000000000     00000000                                                                                                                        000000000000000000
F0010000009115000005000080022903500013552100000000000000000201609120002001TECNOGLASS S.A                                    D000000000373600000000000000000000100010010000000000000000000000F0010000009115000520160912000101 00000000000000000000000000000000000000000000000000000000000000000000000000000000000000000000000000000000000000000N 00000000000NCONT   00    00000000000          00000000000000000000000000000000000000000000 000000000000000A000000000000000000000000000000000000000000000 000000000000000000000000000000000000000     00000000                                                                                                                        000000000000000000
F0010000009115100001000086053108300013050500000000000000000201609120002001EL PALACIO DEL ALUMINIO  LTDA                     D000000004500000000000000000000000100010010000000000000000000000F0010000009115100120160912000101 00000000000000000000000000000000000000000000000000000000000000000000000000000000000000000000000000000000000000000N 00000000000NCONT   00    00000000000          00000000000000000000000000000000000000000000 000000000000000A000000000000000000000000000000000000000000000 000000000000000000000000000000000000000     00000000                                                                                                                        000000000000000000
F0010000009115100002000086053108300041450500000000000000000201609120002001EL PALACIO DEL ALUMINIO  LTDA                     C000000003700000000000000000000000100010010000000000000000000000F0010000009115100220160912000101 00000000000000000000000000000000000000000000000000000000000000000000000000000000000000000000000000000000000000000N 00000000000NCONT   00    00000000000          00000000000000000000000000000000000000000000 000000000000000A000000000000000000000000000000000000000000000 000000000000000000000000000000000000000     00000000                                                                                                                        000000000000000000
F0010000009115100003000086053108300042505000000000000000000201609120002001EL PALACIO DEL ALUMINIO  LTDA                     C000000000800000000000000000000000100010010000000000000000000000F0010000009115100320160912000101 00000000000000000000000000000000000000000000000000000000000000000000000000000000000000000000000000000000000000000N 00000000000NCONT   00    00000000000          00000000000000000000000000000000000000000000 000000000000000A000000000000000000000000000000000000000000000 000000000000000000000000000000000000000     00000000                                                                                                                        000000000000000000
F0010000009115100004000086053108300023658300000000000000000201609120002001EL PALACIO DEL ALUMINIO  LTDA                     C000000000029600000000000000000000100010010000000000000000000000F0010000009115100420160912000101 00000000000000000000000000000000000000000000000000000000000000000000000000000000000000000000000000000000000000000N 00000000000NCONT   00    00000000000          00000000000000000000000000000000000000000000 000000000000000A000000000000000000000000000000000000000000000 000000000000000000000000000000000000000     00000000                                                                                                                        000000000000000000
F0010000009115100005000086053108300013552100000000000000000201609120002001EL PALACIO DEL ALUMINIO  LTDA                     D000000000029600000000000000000000100010010000000000000000000000F0010000009115100520160912000101 00000000000000000000000000000000000000000000000000000000000000000000000000000000000000000000000000000000000000000N 00000000000NCONT   00    00000000000          00000000000000000000000000000000000000000000 000000000000000A000000000000000000000000000000000000000000000 000000000000000000000000000000000000000     00000000                                                                                                                        000000000000000000
F0010000009115200001000090008711200013050500000000000000000201609120002001PACKAGING SUPPLIERS S.A.                          D000000042287900000000000000000000100010010000000000000000000000F0010000009115200120160912000101 00000000000000000000000000000000000000000000000000000000000000000000000000000000000000000000000000000000000000000N 00000000000NCONT   00    00000000000          00000000000000000000000000000000000000000000 000000000000000A000000000000000000000000000000000000000000000 000000000000000000000000000000000000000     00000000                                                                                                                        000000000000000000
F0010000009115200002000090008711200041450500000000000000000201609120002001PACKAGING SUPPLIERS S.A.                          C000000038551900000000000000000000100010010000000000000000000000F0010000009115200220160912000101 00000000000000000000000000000000000000000000000000000000000000000000000000000000000000000000000000000000000000000N 00000000000NCONT   00    00000000000          00000000000000000000000000000000000000000000 000000000000000A000000000000000000000000000000000000000000000 000000000000000000000000000000000000000     00000000                                                                                                                        000000000000000000
F0010000009115200003000090008711200042505000000000000000000201609120002001PACKAGING SUPPLIERS S.A.                          C000000003736000000000000000000000100010010000000000000000000000F0010000009115200320160912000101 00000000000000000000000000000000000000000000000000000000000000000000000000000000000000000000000000000000000000000N 00000000000NCONT   00    00000000000          00000000000000000000000000000000000000000000 000000000000000A000000000000000000000000000000000000000000000 000000000000000000000000000000000000000     00000000                                                                                                                        000000000000000000
F0010000009115200004000090008711200023658300000000000000000201609120002001PACKAGING SUPPLIERS S.A.                          C000000000308400000000000000000000100010010000000000000000000000F0010000009115200420160912000101 00000000000000000000000000000000000000000000000000000000000000000000000000000000000000000000000000000000000000000N 00000000000NCONT   00    00000000000          00000000000000000000000000000000000000000000 000000000000000A000000000000000000000000000000000000000000000 000000000000000000000000000000000000000     00000000                                                                                                                        000000000000000000
F0010000009115200005000090008711200013552100000000000000000201609120002001PACKAGING SUPPLIERS S.A.                          D000000000308400000000000000000000100010010000000000000000000000F0010000009115200520160912000101 00000000000000000000000000000000000000000000000000000000000000000000000000000000000000000000000000000000000000000N 00000000000NCONT   00    00000000000          00000000000000000000000000000000000000000000 000000000000000A000000000000000000000000000000000000000000000 000000000000000000000000000000000000000     00000000                                                                                                                        000000000000000000
F0010000009115300001000080002300200013050500000000000000000201609120002001DISREL S.A.                                       D000000055430000000000000000000000100010010000000000000000000000F0010000009115300120160912000101 00000000000000000000000000000000000000000000000000000000000000000000000000000000000000000000000000000000000000000N 00000000000NCONT   00    00000000000          00000000000000000000000000000000000000000000 000000000000000A000000000000000000000000000000000000000000000 000000000000000000000000000000000000000     00000000                                                                                                                        000000000000000000
F0010000009115300002000080002300200041450500000000000000000201609120002001DISREL S.A.                                       C000000047160000000000000000000000100010010000000000000000000000F0010000009115300220160912000101 00000000000000000000000000000000000000000000000000000000000000000000000000000000000000000000000000000000000000000N 00000000000NCONT   00    00000000000          00000000000000000000000000000000000000000000 000000000000000A000000000000000000000000000000000000000000000 000000000000000000000000000000000000000     00000000                                                                                                                        000000000000000000
F0010000009115300003000080002300200042505000000000000000000201609120002001DISREL S.A.                                       C000000008270000000000000000000000100010010000000000000000000000F0010000009115300320160912000101 00000000000000000000000000000000000000000000000000000000000000000000000000000000000000000000000000000000000000000N 00000000000NCONT   00    00000000000          00000000000000000000000000000000000000000000 000000000000000A000000000000000000000000000000000000000000000 000000000000000000000000000000000000000     00000000                                                                                                                        000000000000000000
F0010000009115300004000080002300200023658300000000000000000201609120002001DISREL S.A.                                       C000000000377300000000000000000000100010010000000000000000000000F0010000009115300420160912000101 00000000000000000000000000000000000000000000000000000000000000000000000000000000000000000000000000000000000000000N 00000000000NCONT   00    00000000000          00000000000000000000000000000000000000000000 000000000000000A000000000000000000000000000000000000000000000 000000000000000000000000000000000000000     00000000                                                                                                                        000000000000000000
F0010000009115300005000080002300200013552100000000000000000201609120002001DISREL S.A.                                       D000000000377300000000000000000000100010010000000000000000000000F0010000009115300520160912000101 00000000000000000000000000000000000000000000000000000000000000000000000000000000000000000000000000000000000000000N 00000000000NCONT   00    00000000000          00000000000000000000000000000000000000000000 000000000000000A000000000000000000000000000000000000000000000 000000000000000000000000000000000000000     00000000                                                                                                                        000000000000000000
F0010000009115400001000080019113900013050500000000000000000201609120002001COMERCIAL NOVAPEL LTDA                            D000000017970000000000000000000000100010010000000000000000000000F0010000009115400120160912000101 00000000000000000000000000000000000000000000000000000000000000000000000000000000000000000000000000000000000000000N 00000000000NCONT   00    00000000000          00000000000000000000000000000000000000000000 000000000000000A000000000000000000000000000000000000000000000 000000000000000000000000000000000000000     00000000                                                                                                                        000000000000000000
F0010000009115400002000080019113900041450500000000000000000201609120002001COMERCIAL NOVAPEL LTDA                            C000000015800000000000000000000000100010010000000000000000000000F0010000009115400220160912000101 00000000000000000000000000000000000000000000000000000000000000000000000000000000000000000000000000000000000000000N 00000000000NCONT   00    00000000000          00000000000000000000000000000000000000000000 000000000000000A000000000000000000000000000000000000000000000 000000000000000000000000000000000000000     00000000                                                                                                                        000000000000000000
F0010000009115400003000080019113900042505000000000000000000201609120002001COMERCIAL NOVAPEL LTDA                            C000000002170000000000000000000000100010010000000000000000000000F0010000009115400320160912000101 00000000000000000000000000000000000000000000000000000000000000000000000000000000000000000000000000000000000000000N 00000000000NCONT   00    00000000000          00000000000000000000000000000000000000000000 000000000000000A000000000000000000000000000000000000000000000 000000000000000000000000000000000000000     00000000                                                                                                                        000000000000000000
F0010000009115400004000080019113900023658300000000000000000201609120002001COMERCIAL NOVAPEL LTDA                            C000000000126400000000000000000000100010010000000000000000000000F0010000009115400420160912000101 00000000000000000000000000000000000000000000000000000000000000000000000000000000000000000000000000000000000000000N 00000000000NCONT   00    00000000000          00000000000000000000000000000000000000000000 000000000000000A000000000000000000000000000000000000000000000 000000000000000000000000000000000000000     00000000                                                                                                                        000000000000000000
F0010000009115400005000080019113900013552100000000000000000201609120002001COMERCIAL NOVAPEL LTDA                            D000000000126400000000000000000000100010010000000000000000000000F0010000009115400520160912000101 00000000000000000000000000000000000000000000000000000000000000000000000000000000000000000000000000000000000000000N 00000000000NCONT   00    00000000000          00000000000000000000000000000000000000000000 000000000000000A000000000000000000000000000000000000000000000 000000000000000000000000000000000000000     00000000                                                                                                                        000000000000000000
F0010000009115500001000083007900600013050500000000000000000201609120002001EXPRESO ANDINO DE CARGA SA                        D000000020800000000000000000000000100010010000000000000000000000F0010000009115500120160912000101 00000000000000000000000000000000000000000000000000000000000000000000000000000000000000000000000000000000000000000N 00000000000NCONT   00    00000000000          00000000000000000000000000000000000000000000 000000000000000A000000000000000000000000000000000000000000000 000000000000000000000000000000000000000     00000000                                                                                                                        000000000000000000
F0010000009115500002000083007900600041450500000000000000000201609120002001EXPRESO ANDINO DE CARGA SA                        C000000020400000000000000000000000100010010000000000000000000000F0010000009115500220160912000101 00000000000000000000000000000000000000000000000000000000000000000000000000000000000000000000000000000000000000000N 00000000000NCONT   00    00000000000          00000000000000000000000000000000000000000000 000000000000000A000000000000000000000000000000000000000000000 000000000000000000000000000000000000000     00000000                                                                                                                        000000000000000000
F0010000009115500003000083007900600042505000000000000000000201609120002001EXPRESO ANDINO DE CARGA SA                        C000000000400000000000000000000000100010010000000000000000000000F0010000009115500320160912000101 00000000000000000000000000000000000000000000000000000000000000000000000000000000000000000000000000000000000000000N 00000000000NCONT   00    00000000000          00000000000000000000000000000000000000000000 000000000000000A000000000000000000000000000000000000000000000 000000000000000000000000000000000000000     00000000                                                                                                                        000000000000000000
F0010000009115500004000083007900600023658300000000000000000201609120002001EXPRESO ANDINO DE CARGA SA                        C000000000163200000000000000000000100010010000000000000000000000F0010000009115500420160912000101 00000000000000000000000000000000000000000000000000000000000000000000000000000000000000000000000000000000000000000N 00000000000NCONT   00    00000000000          00000000000000000000000000000000000000000000 000000000000000A000000000000000000000000000000000000000000000 000000000000000000000000000000000000000     00000000                                                                                                                        000000000000000000
F0010000009115500005000083007900600013552100000000000000000201609120002001EXPRESO ANDINO DE CARGA SA                        D000000000163200000000000000000000100010010000000000000000000000F0010000009115500520160912000101 00000000000000000000000000000000000000000000000000000000000000000000000000000000000000000000000000000000000000000N 00000000000NCONT   00    00000000000          00000000000000000000000000000000000000000000 000000000000000A000000000000000000000000000000000000000000000 000000000000000000000000000000000000000     00000000                                                                                                                        000000000000000000
F0010000009115600001000083007900600013050500000000000000000201609120002001EXPRESO ANDINO DE CARGA SA                        D000000017500000000000000000000000100010010000000000000000000000F0010000009115600120160912000101 00000000000000000000000000000000000000000000000000000000000000000000000000000000000000000000000000000000000000000N 00000000000NCONT   00    00000000000          00000000000000000000000000000000000000000000 000000000000000A000000000000000000000000000000000000000000000 000000000000000000000000000000000000000     00000000                                                                                                                        000000000000000000
F0010000009115600002000083007900600041450500000000000000000201609120002001EXPRESO ANDINO DE CARGA SA                        C000000017400000000000000000000000100010010000000000000000000000F0010000009115600220160912000101 00000000000000000000000000000000000000000000000000000000000000000000000000000000000000000000000000000000000000000N 00000000000NCONT   00    00000000000          00000000000000000000000000000000000000000000 000000000000000A000000000000000000000000000000000000000000000 000000000000000000000000000000000000000     00000000                                                                                                                        000000000000000000
F0010000009115600003000083007900600042505000000000000000000201609120002001EXPRESO ANDINO DE CARGA SA                        C000000000100000000000000000000000100010010000000000000000000000F0010000009115600320160912000101 00000000000000000000000000000000000000000000000000000000000000000000000000000000000000000000000000000000000000000N 00000000000NCONT   00    00000000000          00000000000000000000000000000000000000000000 000000000000000A000000000000000000000000000000000000000000000 000000000000000000000000000000000000000     00000000                                                                                                                        000000000000000000
F0010000009115600004000083007900600023658300000000000000000201609120002001EXPRESO ANDINO DE CARGA SA                        C000000000139200000000000000000000100010010000000000000000000000F0010000009115600420160912000101 00000000000000000000000000000000000000000000000000000000000000000000000000000000000000000000000000000000000000000N 00000000000NCONT   00    00000000000          00000000000000000000000000000000000000000000 000000000000000A000000000000000000000000000000000000000000000 000000000000000000000000000000000000000     00000000                                                                                                                        000000000000000000
F0010000009115600005000083007900600013552100000000000000000201609120002001EXPRESO ANDINO DE CARGA SA                        D000000000139200000000000000000000100010010000000000000000000000F0010000009115600520160912000101 00000000000000000000000000000000000000000000000000000000000000000000000000000000000000000000000000000000000000000N 00000000000NCONT   00    00000000000          00000000000000000000000000000000000000000000 000000000000000A000000000000000000000000000000000000000000000 000000000000000000000000000000000000000     00000000                                                                                                                        000000000000000000
F0010000009115700001000080016664500013050500000000000000000201609120002001TELAPLAS PANCER SAS                               D000000044077000000000000000000000100010010000000000000000000000F0010000009115700120160912000101 00000000000000000000000000000000000000000000000000000000000000000000000000000000000000000000000000000000000000000N 00000000000NCONT   00    00000000000          00000000000000000000000000000000000000000000 000000000000000A000000000000000000000000000000000000000000000 000000000000000000000000000000000000000     00000000                                                                                                                        000000000000000000
F0010000009115700002000080016664500041450500000000000000000201609120002001TELAPLAS PANCER SAS                               C000000035490000000000000000000000100010010000000000000000000000F0010000009115700220160912000101 00000000000000000000000000000000000000000000000000000000000000000000000000000000000000000000000000000000000000000N 00000000000NCONT   00    00000000000          00000000000000000000000000000000000000000000 000000000000000A000000000000000000000000000000000000000000000 000000000000000000000000000000000000000     00000000                                                                                                                        000000000000000000
F0010000009115700003000080016664500042505000000000000000000201609120002001TELAPLAS PANCER SAS                               C000000008587000000000000000000000100010010000000000000000000000F0010000009115700320160912000101 00000000000000000000000000000000000000000000000000000000000000000000000000000000000000000000000000000000000000000N 00000000000NCONT   00    00000000000          00000000000000000000000000000000000000000000 000000000000000A000000000000000000000000000000000000000000000 000000000000000000000000000000000000000     00000000                                                                                                                        000000000000000000
F0010000009115700004000080016664500023658300000000000000000201609120002001TELAPLAS PANCER SAS                               C000000000283900000000000000000000100010010000000000000000000000F0010000009115700420160912000101 00000000000000000000000000000000000000000000000000000000000000000000000000000000000000000000000000000000000000000N 00000000000NCONT   00    00000000000          00000000000000000000000000000000000000000000 000000000000000A000000000000000000000000000000000000000000000 000000000000000000000000000000000000000     00000000                                                                                                                        000000000000000000
F0010000009115700005000080016664500013552100000000000000000201609120002001TELAPLAS PANCER SAS                               D000000000283900000000000000000000100010010000000000000000000000F0010000009115700520160912000101 00000000000000000000000000000000000000000000000000000000000000000000000000000000000000000000000000000000000000000N 00000000000NCONT   00    00000000000          00000000000000000000000000000000000000000000 000000000000000A000000000000000000000000000000000000000000000 000000000000000000000000000000000000000     00000000                                                                                                                        000000000000000000
F0010000009115800001000083001155300013050500000000000000000201609120002001COMERCIALIZADORA RUBEN S LTDA                     D000000027814700000000000000000000100010010000000000000000000000F0010000009115800120160912000101 00000000000000000000000000000000000000000000000000000000000000000000000000000000000000000000000000000000000000000N 00000000000NCONT   00    00000000000          00000000000000000000000000000000000000000000 000000000000000A000000000000000000000000000000000000000000000 000000000000000000000000000000000000000     00000000                                                                                                                        000000000000000000
F0010000009115800002000083001155300041450500000000000000000201609120002001COMERCIALIZADORA RUBEN S LTDA                     C000000024895600000000000000000000100010010000000000000000000000F0010000009115800220160912000101 00000000000000000000000000000000000000000000000000000000000000000000000000000000000000000000000000000000000000000N 00000000000NCONT   00    00000000000          00000000000000000000000000000000000000000000 000000000000000A000000000000000000000000000000000000000000000 000000000000000000000000000000000000000     00000000                                                                                                                        000000000000000000
F0010000009115800003000083001155300042505000000000000000000201609120002001COMERCIALIZADORA RUBEN S LTDA                     C000000002919100000000000000000000100010010000000000000000000000F0010000009115800320160912000101 00000000000000000000000000000000000000000000000000000000000000000000000000000000000000000000000000000000000000000N 00000000000NCONT   00    00000000000          00000000000000000000000000000000000000000000 000000000000000A000000000000000000000000000000000000000000000 000000000000000000000000000000000000000     00000000                                                                                                                        000000000000000000
F0010000009115800004000083001155300023658300000000000000000201609120002001COMERCIALIZADORA RUBEN S LTDA                     C000000000199200000000000000000000100010010000000000000000000000F0010000009115800420160912000101 00000000000000000000000000000000000000000000000000000000000000000000000000000000000000000000000000000000000000000N 00000000000NCONT   00    00000000000          00000000000000000000000000000000000000000000 000000000000000A000000000000000000000000000000000000000000000 000000000000000000000000000000000000000     00000000                                                                                                                        000000000000000000
F0010000009115800005000083001155300013552100000000000000000201609120002001COMERCIALIZADORA RUBEN S LTDA                     D000000000199200000000000000000000100010010000000000000000000000F0010000009115800520160912000101 00000000000000000000000000000000000000000000000000000000000000000000000000000000000000000000000000000000000000000N 00000000000NCONT   00    00000000000          00000000000000000000000000000000000000000000 000000000000000A000000000000000000000000000000000000000000000 000000000000000000000000000000000000000     00000000                                                                                                                        000000000000000000
F0010000009115900001000090044443800013050500000000000000000201609120002001DISTRIBUCIONES UFRE S.A.S.                        D000000008920400000000000000000000100010010000000000000000000000F0010000009115900120160912000101 00000000000000000000000000000000000000000000000000000000000000000000000000000000000000000000000000000000000000000N 00000000000NCONT   00    00000000000          00000000000000000000000000000000000000000000 000000000000000A000000000000000000000000000000000000000000000 000000000000000000000000000000000000000     00000000                                                                                                                        000000000000000000
F0010000009115900002000090044443800041450500000000000000000201609120002001DISTRIBUCIONES UFRE S.A.S.                        C000000007430000000000000000000000100010010000000000000000000000F0010000009115900220160912000101 00000000000000000000000000000000000000000000000000000000000000000000000000000000000000000000000000000000000000000N 00000000000NCONT   00    00000000000          00000000000000000000000000000000000000000000 000000000000000A000000000000000000000000000000000000000000000 000000000000000000000000000000000000000     00000000                                                                                                                        000000000000000000
F0010000009115900003000090044443800042505000000000000000000201609120002001DISTRIBUCIONES UFRE S.A.S.                        C000000001490400000000000000000000100010010000000000000000000000F0010000009115900320160912000101 00000000000000000000000000000000000000000000000000000000000000000000000000000000000000000000000000000000000000000N 00000000000NCONT   00    00000000000          00000000000000000000000000000000000000000000 000000000000000A000000000000000000000000000000000000000000000 000000000000000000000000000000000000000     00000000                                                                                                                        000000000000000000
F0010000009115900004000090044443800023658300000000000000000201609120002001DISTRIBUCIONES UFRE S.A.S.                        C000000000059400000000000000000000100010010000000000000000000000F0010000009115900420160912000101 00000000000000000000000000000000000000000000000000000000000000000000000000000000000000000000000000000000000000000N 00000000000NCONT   00    00000000000          00000000000000000000000000000000000000000000 000000000000000A000000000000000000000000000000000000000000000 000000000000000000000000000000000000000     00000000                                                                                                                        000000000000000000
F0010000009115900005000090044443800013552100000000000000000201609120002001DISTRIBUCIONES UFRE S.A.S.                        D000000000059400000000000000000000100010010000000000000000000000F0010000009115900520160912000101 00000000000000000000000000000000000000000000000000000000000000000000000000000000000000000000000000000000000000000N 00000000000NCONT   00    00000000000          00000000000000000000000000000000000000000000 000000000000000A000000000000000000000000000000000000000000000 000000000000000000000000000000000000000     00000000                                                                                                                        000000000000000000
F0010000009116000001000080202094000013050500000000000000000201609120002001DISTRIB. OMAR ORREGO S.A.                         D000000066419500000000000000000000100010010000000000000000000000F0010000009116000120160912000101 00000000000000000000000000000000000000000000000000000000000000000000000000000000000000000000000000000000000000000N 00000000000NCONT   00    00000000000          00000000000000000000000000000000000000000000 000000000000000A000000000000000000000000000000000000000000000 000000000000000000000000000000000000000     00000000                                                                                                                        000000000000000000
F0010000009116000002000080202094000041450500000000000000000201609120002001DISTRIB. OMAR ORREGO S.A.                         C000000041930000000000000000000000100010010000000000000000000000F0010000009116000220160912000101 00000000000000000000000000000000000000000000000000000000000000000000000000000000000000000000000000000000000000000N 00000000000NCONT   00    00000000000          00000000000000000000000000000000000000000000 000000000000000A000000000000000000000000000000000000000000000 000000000000000000000000000000000000000     00000000                                                                                                                        000000000000000000
F0010000009116000003000080202094000042505000000000000000000201609120002001DISTRIB. OMAR ORREGO S.A.                         C000000024489500000000000000000000100010010000000000000000000000F0010000009116000320160912000101 00000000000000000000000000000000000000000000000000000000000000000000000000000000000000000000000000000000000000000N 00000000000NCONT   00    00000000000          00000000000000000000000000000000000000000000 000000000000000A000000000000000000000000000000000000000000000 000000000000000000000000000000000000000     00000000                                                                                                                        000000000000000000
F0010000009116000004000080202094000023658300000000000000000201609120002001DISTRIB. OMAR ORREGO S.A.                         C000000000335400000000000000000000100010010000000000000000000000F0010000009116000420160912000101 00000000000000000000000000000000000000000000000000000000000000000000000000000000000000000000000000000000000000000N 00000000000NCONT   00    00000000000          00000000000000000000000000000000000000000000 000000000000000A000000000000000000000000000000000000000000000 000000000000000000000000000000000000000     00000000                                                                                                                        000000000000000000
F0010000009116000005000080202094000013552100000000000000000201609120002001DISTRIB. OMAR ORREGO S.A.                         D000000000335400000000000000000000100010010000000000000000000000F0010000009116000520160912000101 00000000000000000000000000000000000000000000000000000000000000000000000000000000000000000000000000000000000000000N 00000000000NCONT   00    00000000000          00000000000000000000000000000000000000000000 000000000000000A000000000000000000000000000000000000000000000 000000000000000000000000000000000000000     00000000                                                                                                                        000000000000000000
F0010000009116100001000086003979400013050500000000000000000201609120002001CALYPSO BARRANQUILLA LTDA                         D000000033423300000000000000000000100010010000000000000000000000F0010000009116100120160912000101 00000000000000000000000000000000000000000000000000000000000000000000000000000000000000000000000000000000000000000N 00000000000NCONT   00    00000000000          00000000000000000000000000000000000000000000 000000000000000A000000000000000000000000000000000000000000000 000000000000000000000000000000000000000     00000000                                                                                                                        000000000000000000
F0010000009116100002000086003979400041450500000000000000000201609120002001CALYPSO BARRANQUILLA LTDA                         C000000031020000000000000000000000100010010000000000000000000000F0010000009116100220160912000101 00000000000000000000000000000000000000000000000000000000000000000000000000000000000000000000000000000000000000000N 00000000000NCONT   00    00000000000          00000000000000000000000000000000000000000000 000000000000000A000000000000000000000000000000000000000000000 000000000000000000000000000000000000000     00000000                                                                                                                        000000000000000000
F0010000009116100003000086003979400042505000000000000000000201609120002001CALYPSO BARRANQUILLA LTDA                         C000000002403300000000000000000000100010010000000000000000000000F0010000009116100320160912000101 00000000000000000000000000000000000000000000000000000000000000000000000000000000000000000000000000000000000000000N 00000000000NCONT   00    00000000000          00000000000000000000000000000000000000000000 000000000000000A000000000000000000000000000000000000000000000 000000000000000000000000000000000000000     00000000                                                                                                                        000000000000000000
F0010000009116100004000086003979400023658300000000000000000201609120002001CALYPSO BARRANQUILLA LTDA                         C000000000248200000000000000000000100010010000000000000000000000F0010000009116100420160912000101 00000000000000000000000000000000000000000000000000000000000000000000000000000000000000000000000000000000000000000N 00000000000NCONT   00    00000000000          00000000000000000000000000000000000000000000 000000000000000A000000000000000000000000000000000000000000000 000000000000000000000000000000000000000     00000000                                                                                                                        000000000000000000
F0010000009116100005000086003979400013552100000000000000000201609120002001CALYPSO BARRANQUILLA LTDA                         D000000000248200000000000000000000100010010000000000000000000000F0010000009116100520160912000101 00000000000000000000000000000000000000000000000000000000000000000000000000000000000000000000000000000000000000000N 00000000000NCONT   00    00000000000          00000000000000000000000000000000000000000000 000000000000000A000000000000000000000000000000000000000000000 000000000000000000000000000000000000000     00000000                                                                                                                        000000000000000000
F0010000009116200001000090000859400013050500000000000000000201609120002001COMERCIAL JOTACE LTDA                             D000000058046100000000000000000000100010010000000000000000000000F0010000009116200120160912000101 00000000000000000000000000000000000000000000000000000000000000000000000000000000000000000000000000000000000000000N 00000000000NCONT   00    00000000000          00000000000000000000000000000000000000000000 000000000000000A000000000000000000000000000000000000000000000 000000000000000000000000000000000000000     00000000                                                                                                                        000000000000000000
F0010000009116200002000090000859400041450500000000000000000201609120002001COMERCIAL JOTACE LTDA                             C000000048400000000000000000000000100010010000000000000000000000F0010000009116200220160912000101 00000000000000000000000000000000000000000000000000000000000000000000000000000000000000000000000000000000000000000N 00000000000NCONT   00    00000000000          00000000000000000000000000000000000000000000 000000000000000A000000000000000000000000000000000000000000000 000000000000000000000000000000000000000     00000000                                                                                                                        000000000000000000
F0010000009116200003000090000859400042505000000000000000000201609120002001COMERCIAL JOTACE LTDA                             C000000009646100000000000000000000100010010000000000000000000000F0010000009116200320160912000101 00000000000000000000000000000000000000000000000000000000000000000000000000000000000000000000000000000000000000000N 00000000000NCONT   00    00000000000          00000000000000000000000000000000000000000000 000000000000000A000000000000000000000000000000000000000000000 000000000000000000000000000000000000000     00000000                                                                                                                        000000000000000000
F0010000009116200004000090000859400023658300000000000000000201609120002001COMERCIAL JOTACE LTDA                             C000000000387200000000000000000000100010010000000000000000000000F0010000009116200420160912000101 00000000000000000000000000000000000000000000000000000000000000000000000000000000000000000000000000000000000000000N 00000000000NCONT   00    00000000000          00000000000000000000000000000000000000000000 000000000000000A000000000000000000000000000000000000000000000 000000000000000000000000000000000000000     00000000                                                                                                                        000000000000000000
F0010000009116200005000090000859400013552100000000000000000201609120002001COMERCIAL JOTACE LTDA                             D000000000387200000000000000000000100010010000000000000000000000F0010000009116200520160912000101 00000000000000000000000000000000000000000000000000000000000000000000000000000000000000000000000000000000000000000N 00000000000NCONT   00    00000000000          00000000000000000000000000000000000000000000 000000000000000A000000000000000000000000000000000000000000000 000000000000000000000000000000000000000     00000000                                                                                                                        000000000000000000
F0010000009116300001000003265780700011050500000000000000000201609120002001ZUNILDA GUERRERO                                  D000000001800000000000000000000000100010010000000000000000000000F0010000009116300120160912000101 00000000000000000000000000000000000000000000000000000000000000000000000000000000000000000000000000000000000000000N 00000000000NCONT   00    00000000000          00000000000000000000000000000000000000000000 000000000000000A000000000000000000000000000000000000000000000 000000000000000000000000000000000000000     00000000                                                                                                                        000000000000000000
F0010000009116300002000003265780700041450500000000000000000201609120002001ZUNILDA GUERRERO                                  C000000001400000000000000000000000100010010000000000000000000000F0010000009116300220160912000101 00000000000000000000000000000000000000000000000000000000000000000000000000000000000000000000000000000000000000000N 00000000000NCONT   00    00000000000          00000000000000000000000000000000000000000000 000000000000000A000000000000000000000000000000000000000000000 000000000000000000000000000000000000000     00000000                                                                                                                        000000000000000000
F0010000009116300003000003265780700042505000000000000000000201609120002001ZUNILDA GUERRERO                                  C000000000400000000000000000000000100010010000000000000000000000F0010000009116300320160912000101 00000000000000000000000000000000000000000000000000000000000000000000000000000000000000000000000000000000000000000N 00000000000NCONT   00    00000000000          00000000000000000000000000000000000000000000 000000000000000A000000000000000000000000000000000000000000000 000000000000000000000000000000000000000     00000000                                                                                                                        000000000000000000
F0010000009116300004000003265780700023658300000000000000000201609120002001ZUNILDA GUERRERO                                  C000000000011200000000000000000000100010010000000000000000000000F0010000009116300420160912000101 00000000000000000000000000000000000000000000000000000000000000000000000000000000000000000000000000000000000000000N 00000000000NCONT   00    00000000000          00000000000000000000000000000000000000000000 000000000000000A000000000000000000000000000000000000000000000 000000000000000000000000000000000000000     00000000                                                                                                                        000000000000000000
F0010000009116300005000003265780700013552100000000000000000201609120002001ZUNILDA GUERRERO                                  D000000000011200000000000000000000100010010000000000000000000000F0010000009116300520160912000101 00000000000000000000000000000000000000000000000000000000000000000000000000000000000000000000000000000000000000000N 00000000000NCONT   00    00000000000          00000000000000000000000000000000000000000000 000000000000000A000000000000000000000000000000000000000000000 000000000000000000000000000000000000000     00000000                                                                                                                        000000000000000000
F0010000009116400001000090036646700013050500000000000000000201609120002001FERREPROYECTOS S.A.S                              D000000004000000000000000000000000100010010000000000000000000000F0010000009116400120160912000101 00000000000000000000000000000000000000000000000000000000000000000000000000000000000000000000000000000000000000000N 00000000000NCONT   00    00000000000          00000000000000000000000000000000000000000000 000000000000000A000000000000000000000000000000000000000000000 000000000000000000000000000000000000000     00000000                                                                                                                        000000000000000000
F0010000009116400002000090036646700041450500000000000000000201609120002001FERREPROYECTOS S.A.S                              C000000003900000000000000000000000100010010000000000000000000000F0010000009116400220160912000101 00000000000000000000000000000000000000000000000000000000000000000000000000000000000000000000000000000000000000000N 00000000000NCONT   00    00000000000          00000000000000000000000000000000000000000000 000000000000000A000000000000000000000000000000000000000000000 000000000000000000000000000000000000000     00000000                                                                                                                        000000000000000000
F0010000009116400003000090036646700042505000000000000000000201609120002001FERREPROYECTOS S.A.S                              C000000000100000000000000000000000100010010000000000000000000000F0010000009116400320160912000101 00000000000000000000000000000000000000000000000000000000000000000000000000000000000000000000000000000000000000000N 00000000000NCONT   00    00000000000          00000000000000000000000000000000000000000000 000000000000000A000000000000000000000000000000000000000000000 000000000000000000000000000000000000000     00000000                                                                                                                        000000000000000000
F0010000009116400004000090036646700023658300000000000000000201609120002001FERREPROYECTOS S.A.S                              C000000000031200000000000000000000100010010000000000000000000000F0010000009116400420160912000101 00000000000000000000000000000000000000000000000000000000000000000000000000000000000000000000000000000000000000000N 00000000000NCONT   00    00000000000          00000000000000000000000000000000000000000000 000000000000000A000000000000000000000000000000000000000000000 000000000000000000000000000000000000000     00000000                                                                                                                        000000000000000000
F0010000009116400005000090036646700013552100000000000000000201609120002001FERREPROYECTOS S.A.S                              D000000000031200000000000000000000100010010000000000000000000000F0010000009116400520160912000101 00000000000000000000000000000000000000000000000000000000000000000000000000000000000000000000000000000000000000000N 00000000000NCONT   00    00000000000          00000000000000000000000000000000000000000000 000000000000000A000000000000000000000000000000000000000000000 000000000000000000000000000000000000000     00000000                                                                                                                        000000000000000000
F0010000009116500001000089010952800013050500000000000000000201609120002001IND. LITOGRAF. BOSTON S.A.S.                      D000000045850000000000000000000000100010010000000000000000000000F0010000009116500120160912000101 00000000000000000000000000000000000000000000000000000000000000000000000000000000000000000000000000000000000000000N 00000000000NCONT   00    00000000000          00000000000000000000000000000000000000000000 000000000000000A000000000000000000000000000000000000000000000 000000000000000000000000000000000000000     00000000                                                                                                                        000000000000000000
F0010000009116500002000089010952800041450500000000000000000201609120002001IND. LITOGRAF. BOSTON S.A.S.                      C000000039410000000000000000000000100010010000000000000000000000F0010000009116500220160912000101 00000000000000000000000000000000000000000000000000000000000000000000000000000000000000000000000000000000000000000N 00000000000NCONT   00    00000000000          00000000000000000000000000000000000000000000 000000000000000A000000000000000000000000000000000000000000000 000000000000000000000000000000000000000     00000000                                                                                                                        000000000000000000
F0010000009116500003000089010952800042505000000000000000000201609120002001IND. LITOGRAF. BOSTON S.A.S.                      C000000006440000000000000000000000100010010000000000000000000000F0010000009116500320160912000101 00000000000000000000000000000000000000000000000000000000000000000000000000000000000000000000000000000000000000000N 00000000000NCONT   00    00000000000          00000000000000000000000000000000000000000000 000000000000000A000000000000000000000000000000000000000000000 000000000000000000000000000000000000000     00000000                                                                                                                        000000000000000000
F0010000009116500004000089010952800023658300000000000000000201609120002001IND. LITOGRAF. BOSTON S.A.S.                      C000000000315300000000000000000000100010010000000000000000000000F0010000009116500420160912000101 00000000000000000000000000000000000000000000000000000000000000000000000000000000000000000000000000000000000000000N 00000000000NCONT   00    00000000000          00000000000000000000000000000000000000000000 000000000000000A000000000000000000000000000000000000000000000 000000000000000000000000000000000000000     00000000                                                                                                                        000000000000000000
F0010000009116500005000089010952800013552100000000000000000201609120002001IND. LITOGRAF. BOSTON S.A.S.                      D000000000315300000000000000000000100010010000000000000000000000F0010000009116500520160912000101 00000000000000000000000000000000000000000000000000000000000000000000000000000000000000000000000000000000000000000N 00000000000NCONT   00    00000000000          00000000000000000000000000000000000000000000 000000000000000A000000000000000000000000000000000000000000000 000000000000000000000000000000000000000     00000000                                                                                                                        000000000000000000
F0010000009116600001000080010983700013050500000000000000000201609120002001OHM LTDA                                          D000000035965000000000000000000000100010010000000000000000000000F0010000009116600120160912000101 00000000000000000000000000000000000000000000000000000000000000000000000000000000000000000000000000000000000000000N 00000000000NCONT   00    00000000000          00000000000000000000000000000000000000000000 000000000000000A000000000000000000000000000000000000000000000 000000000000000000000000000000000000000     00000000                                                                                                                        000000000000000000
F0010000009116600002000080010983700041450500000000000000000201609120002001OHM LTDA                                          C000000035590000000000000000000000100010010000000000000000000000F0010000009116600220160912000101 00000000000000000000000000000000000000000000000000000000000000000000000000000000000000000000000000000000000000000N 00000000000NCONT   00    00000000000          00000000000000000000000000000000000000000000 000000000000000A000000000000000000000000000000000000000000000 000000000000000000000000000000000000000     00000000                                                                                                                        000000000000000000
