F0010000006379700001000000872487800011050500000000000000000201410120002001CALIXTO CORREA PINTO                              D000000008500000000000000000000000100010010000000000000000000000F0010000006379700120141012000101 00000000000000000000000000000000000000000000000000000000000000000000000000000000000000000000000000000000000000000N 00000000000NCONT   00    00000000000          00000000000000000000000000000000000000000000 000000000000000A000000000000000000000000000000000000000000000 000000000000000000000000000000000000000     00000000                                                                                                                        000000000000000000
F0010000006379700002000000872487800041450500000000000000000201410120002001CALIXTO CORREA PINTO                              C000000008000000000000000000000000100010010000000000000000000000F0010000006379700220141012000101 00000000000000000000000000000000000000000000000000000000000000000000000000000000000000000000000000000000000000000N 00000000000NCONT   00    00000000000          00000000000000000000000000000000000000000000 000000000000000A000000000000000000000000000000000000000000000 000000000000000000000000000000000000000     00000000                                                                                                                        000000000000000000
F0010000006379700003000000872487800042505000000000000000000201410120002001CALIXTO CORREA PINTO                              C000000000500000000000000000000000100010010000000000000000000000F0010000006379700320141012000101 00000000000000000000000000000000000000000000000000000000000000000000000000000000000000000000000000000000000000000N 00000000000NCONT   00    00000000000          00000000000000000000000000000000000000000000 000000000000000A000000000000000000000000000000000000000000000 000000000000000000000000000000000000000     00000000                                                                                                                        000000000000000000
F0010000006379700004000000872487800023658300000000000000000201410120002001CALIXTO CORREA PINTO                              C000000000064000000000000000000000100010010000000000000000000000F0010000006379700420141012000101 00000000000000000000000000000000000000000000000000000000000000000000000000000000000000000000000000000000000000000N 00000000000NCONT   00    00000000000          00000000000000000000000000000000000000000000 000000000000000A000000000000000000000000000000000000000000000 000000000000000000000000000000000000000     00000000                                                                                                                        000000000000000000
F0010000006379700005000000872487800013552100000000000000000201410120002001CALIXTO CORREA PINTO                              D000000000064000000000000000000000100010010000000000000000000000F0010000006379700520141012000101 00000000000000000000000000000000000000000000000000000000000000000000000000000000000000000000000000000000000000000N 00000000000NCONT   00    00000000000          00000000000000000000000000000000000000000000 000000000000000A000000000000000000000000000000000000000000000 000000000000000000000000000000000000000     00000000                                                                                                                        000000000000000000
