F0010000009514900001000080200863700013050500000000000000000201612050002001COPIN S.A.S                                       D000000179132700000000000000000000100010010000000000000000000000F0010000009514900120161205000101 00000000000000000000000000000000000000000000000000000000000000000000000000000000000000000000000000000000000000000N 00000000000NCONT   00    00000000000          00000000000000000000000000000000000000000000 000000000000000A000000000000000000000000000000000000000000000 000000000000000000000000000000000000000     00000000                                                                                                                        000000000000000000
F0010000009514900002000080200863700041450500000000000000000201612050002001COPIN S.A.S                                       C000000164053200000000000000000000100010010000000000000000000000F0010000009514900220161205000101 00000000000000000000000000000000000000000000000000000000000000000000000000000000000000000000000000000000000000000N 00000000000NCONT   00    00000000000          00000000000000000000000000000000000000000000 000000000000000A000000000000000000000000000000000000000000000 000000000000000000000000000000000000000     00000000                                                                                                                        000000000000000000
F0010000009514900003000080200863700042505000000000000000000201612050002001COPIN S.A.S                                       C000000015079500000000000000000000100010010000000000000000000000F0010000009514900320161205000101 00000000000000000000000000000000000000000000000000000000000000000000000000000000000000000000000000000000000000000N 00000000000NCONT   00    00000000000          00000000000000000000000000000000000000000000 000000000000000A000000000000000000000000000000000000000000000 000000000000000000000000000000000000000     00000000                                                                                                                        000000000000000000
F0010000009514900004000080200863700023658300000000000000000201612050002001COPIN S.A.S                                       C000000001312400000000000000000000100010010000000000000000000000F0010000009514900420161205000101 00000000000000000000000000000000000000000000000000000000000000000000000000000000000000000000000000000000000000000N 00000000000NCONT   00    00000000000          00000000000000000000000000000000000000000000 000000000000000A000000000000000000000000000000000000000000000 000000000000000000000000000000000000000     00000000                                                                                                                        000000000000000000
F0010000009514900005000080200863700013552100000000000000000201612050002001COPIN S.A.S                                       D000000001312400000000000000000000100010010000000000000000000000F0010000009514900520161205000101 00000000000000000000000000000000000000000000000000000000000000000000000000000000000000000000000000000000000000000N 00000000000NCONT   00    00000000000          00000000000000000000000000000000000000000000 000000000000000A000000000000000000000000000000000000000000000 000000000000000000000000000000000000000     00000000                                                                                                                        000000000000000000
F0010000009515000001000007213847800011050500000000000000000201612050002001ALEJANDRO MEZA ALVAREZ                            D000000006000000000000000000000000100010010000000000000000000000F0010000009515000120161205000101 00000000000000000000000000000000000000000000000000000000000000000000000000000000000000000000000000000000000000000N 00000000000NCONT   00    00000000000          00000000000000000000000000000000000000000000 000000000000000A000000000000000000000000000000000000000000000 000000000000000000000000000000000000000     00000000                                                                                                                        000000000000000000
F0010000009515000002000007213847800041450500000000000000000201612050002001ALEJANDRO MEZA ALVAREZ                            C000000005000000000000000000000000100010010000000000000000000000F0010000009515000220161205000101 00000000000000000000000000000000000000000000000000000000000000000000000000000000000000000000000000000000000000000N 00000000000NCONT   00    00000000000          00000000000000000000000000000000000000000000 000000000000000A000000000000000000000000000000000000000000000 000000000000000000000000000000000000000     00000000                                                                                                                        000000000000000000
F0010000009515000003000007213847800042505000000000000000000201612050002001ALEJANDRO MEZA ALVAREZ                            C000000001000000000000000000000000100010010000000000000000000000F0010000009515000320161205000101 00000000000000000000000000000000000000000000000000000000000000000000000000000000000000000000000000000000000000000N 00000000000NCONT   00    00000000000          00000000000000000000000000000000000000000000 000000000000000A000000000000000000000000000000000000000000000 000000000000000000000000000000000000000     00000000                                                                                                                        000000000000000000
F0010000009515000004000007213847800023658300000000000000000201612050002001ALEJANDRO MEZA ALVAREZ                            C000000000040000000000000000000000100010010000000000000000000000F0010000009515000420161205000101 00000000000000000000000000000000000000000000000000000000000000000000000000000000000000000000000000000000000000000N 00000000000NCONT   00    00000000000          00000000000000000000000000000000000000000000 000000000000000A000000000000000000000000000000000000000000000 000000000000000000000000000000000000000     00000000                                                                                                                        000000000000000000
F0010000009515000005000007213847800013552100000000000000000201612050002001ALEJANDRO MEZA ALVAREZ                            D000000000040000000000000000000000100010010000000000000000000000F0010000009515000520161205000101 00000000000000000000000000000000000000000000000000000000000000000000000000000000000000000000000000000000000000000N 00000000000NCONT   00    00000000000          00000000000000000000000000000000000000000000 000000000000000A000000000000000000000000000000000000000000000 000000000000000000000000000000000000000     00000000                                                                                                                        000000000000000000
F0010000009515100001000003265780700011050500000000000000000201612050002001ZUNILDA GUERRERO                                  D000000001300000000000000000000000100010010000000000000000000000F0010000009515100120161205000101 00000000000000000000000000000000000000000000000000000000000000000000000000000000000000000000000000000000000000000N 00000000000NCONT   00    00000000000          00000000000000000000000000000000000000000000 000000000000000A000000000000000000000000000000000000000000000 000000000000000000000000000000000000000     00000000                                                                                                                        000000000000000000
F0010000009515100002000003265780700041450500000000000000000201612050002001ZUNILDA GUERRERO                                  C000000001000000000000000000000000100010010000000000000000000000F0010000009515100220161205000101 00000000000000000000000000000000000000000000000000000000000000000000000000000000000000000000000000000000000000000N 00000000000NCONT   00    00000000000          00000000000000000000000000000000000000000000 000000000000000A000000000000000000000000000000000000000000000 000000000000000000000000000000000000000     00000000                                                                                                                        000000000000000000
F0010000009515100003000003265780700042505000000000000000000201612050002001ZUNILDA GUERRERO                                  C000000000300000000000000000000000100010010000000000000000000000F0010000009515100320161205000101 00000000000000000000000000000000000000000000000000000000000000000000000000000000000000000000000000000000000000000N 00000000000NCONT   00    00000000000          00000000000000000000000000000000000000000000 000000000000000A000000000000000000000000000000000000000000000 000000000000000000000000000000000000000     00000000                                                                                                                        000000000000000000
F0010000009515100004000003265780700023658300000000000000000201612050002001ZUNILDA GUERRERO                                  C000000000008000000000000000000000100010010000000000000000000000F0010000009515100420161205000101 00000000000000000000000000000000000000000000000000000000000000000000000000000000000000000000000000000000000000000N 00000000000NCONT   00    00000000000          00000000000000000000000000000000000000000000 000000000000000A000000000000000000000000000000000000000000000 000000000000000000000000000000000000000     00000000                                                                                                                        000000000000000000
F0010000009515100005000003265780700013552100000000000000000201612050002001ZUNILDA GUERRERO                                  D000000000008000000000000000000000100010010000000000000000000000F0010000009515100520161205000101 00000000000000000000000000000000000000000000000000000000000000000000000000000000000000000000000000000000000000000N 00000000000NCONT   00    00000000000          00000000000000000000000000000000000000000000 000000000000000A000000000000000000000000000000000000000000000 000000000000000000000000000000000000000     00000000                                                                                                                        000000000000000000
F0010000009515200001000003265780700011050500000000000000000201612050002001ZUNILDA GUERRERO                                  D000000001300000000000000000000000100010010000000000000000000000F0010000009515200120161205000101 00000000000000000000000000000000000000000000000000000000000000000000000000000000000000000000000000000000000000000N 00000000000NCONT   00    00000000000          00000000000000000000000000000000000000000000 000000000000000A000000000000000000000000000000000000000000000 000000000000000000000000000000000000000     00000000                                                                                                                        000000000000000000
F0010000009515200002000003265780700041450500000000000000000201612050002001ZUNILDA GUERRERO                                  C000000001000000000000000000000000100010010000000000000000000000F0010000009515200220161205000101 00000000000000000000000000000000000000000000000000000000000000000000000000000000000000000000000000000000000000000N 00000000000NCONT   00    00000000000          00000000000000000000000000000000000000000000 000000000000000A000000000000000000000000000000000000000000000 000000000000000000000000000000000000000     00000000                                                                                                                        000000000000000000
F0010000009515200003000003265780700042505000000000000000000201612050002001ZUNILDA GUERRERO                                  C000000000300000000000000000000000100010010000000000000000000000F0010000009515200320161205000101 00000000000000000000000000000000000000000000000000000000000000000000000000000000000000000000000000000000000000000N 00000000000NCONT   00    00000000000          00000000000000000000000000000000000000000000 000000000000000A000000000000000000000000000000000000000000000 000000000000000000000000000000000000000     00000000                                                                                                                        000000000000000000
F0010000009515200004000003265780700023658300000000000000000201612050002001ZUNILDA GUERRERO                                  C000000000008000000000000000000000100010010000000000000000000000F0010000009515200420161205000101 00000000000000000000000000000000000000000000000000000000000000000000000000000000000000000000000000000000000000000N 00000000000NCONT   00    00000000000          00000000000000000000000000000000000000000000 000000000000000A000000000000000000000000000000000000000000000 000000000000000000000000000000000000000     00000000                                                                                                                        000000000000000000
F0010000009515200005000003265780700013552100000000000000000201612050002001ZUNILDA GUERRERO                                  D000000000008000000000000000000000100010010000000000000000000000F0010000009515200520161205000101 00000000000000000000000000000000000000000000000000000000000000000000000000000000000000000000000000000000000000000N 00000000000NCONT   00    00000000000          00000000000000000000000000000000000000000000 000000000000000A000000000000000000000000000000000000000000000 000000000000000000000000000000000000000     00000000                                                                                                                        000000000000000000
F0010000009515300001000003265780700011050500000000000000000201612050002001ZUNILDA GUERRERO                                  D000000001300000000000000000000000100010010000000000000000000000F0010000009515300120161205000101 00000000000000000000000000000000000000000000000000000000000000000000000000000000000000000000000000000000000000000N 00000000000NCONT   00    00000000000          00000000000000000000000000000000000000000000 000000000000000A000000000000000000000000000000000000000000000 000000000000000000000000000000000000000     00000000                                                                                                                        000000000000000000
F0010000009515300002000003265780700041450500000000000000000201612050002001ZUNILDA GUERRERO                                  C000000001000000000000000000000000100010010000000000000000000000F0010000009515300220161205000101 00000000000000000000000000000000000000000000000000000000000000000000000000000000000000000000000000000000000000000N 00000000000NCONT   00    00000000000          00000000000000000000000000000000000000000000 000000000000000A000000000000000000000000000000000000000000000 000000000000000000000000000000000000000     00000000                                                                                                                        000000000000000000
F0010000009515300003000003265780700042505000000000000000000201612050002001ZUNILDA GUERRERO                                  C000000000300000000000000000000000100010010000000000000000000000F0010000009515300320161205000101 00000000000000000000000000000000000000000000000000000000000000000000000000000000000000000000000000000000000000000N 00000000000NCONT   00    00000000000          00000000000000000000000000000000000000000000 000000000000000A000000000000000000000000000000000000000000000 000000000000000000000000000000000000000     00000000                                                                                                                        000000000000000000
F0010000009515300004000003265780700023658300000000000000000201612050002001ZUNILDA GUERRERO                                  C000000000008000000000000000000000100010010000000000000000000000F0010000009515300420161205000101 00000000000000000000000000000000000000000000000000000000000000000000000000000000000000000000000000000000000000000N 00000000000NCONT   00    00000000000          00000000000000000000000000000000000000000000 000000000000000A000000000000000000000000000000000000000000000 000000000000000000000000000000000000000     00000000                                                                                                                        000000000000000000
F0010000009515300005000003265780700013552100000000000000000201612050002001ZUNILDA GUERRERO                                  D000000000008000000000000000000000100010010000000000000000000000F0010000009515300520161205000101 00000000000000000000000000000000000000000000000000000000000000000000000000000000000000000000000000000000000000000N 00000000000NCONT   00    00000000000          00000000000000000000000000000000000000000000 000000000000000A000000000000000000000000000000000000000000000 000000000000000000000000000000000000000     00000000                                                                                                                        000000000000000000
F0010000009515400001000089011492400013050500000000000000000201612050002001AGE. CAUCHO SOL DE LA COSTA  SAS                  D000000016910400000000000000000000100010010000000000000000000000F0010000009515400120161205000101 00000000000000000000000000000000000000000000000000000000000000000000000000000000000000000000000000000000000000000N 00000000000NCONT   00    00000000000          00000000000000000000000000000000000000000000 000000000000000A000000000000000000000000000000000000000000000 000000000000000000000000000000000000000     00000000                                                                                                                        000000000000000000
F0010000009515400002000089011492400041450500000000000000000201612050002001AGE. CAUCHO SOL DE LA COSTA  SAS                  C000000013710000000000000000000000100010010000000000000000000000F0010000009515400220161205000101 00000000000000000000000000000000000000000000000000000000000000000000000000000000000000000000000000000000000000000N 00000000000NCONT   00    00000000000          00000000000000000000000000000000000000000000 000000000000000A000000000000000000000000000000000000000000000 000000000000000000000000000000000000000     00000000                                                                                                                        000000000000000000
F0010000009515400003000089011492400042505000000000000000000201612050002001AGE. CAUCHO SOL DE LA COSTA  SAS                  C000000003200400000000000000000000100010010000000000000000000000F0010000009515400320161205000101 00000000000000000000000000000000000000000000000000000000000000000000000000000000000000000000000000000000000000000N 00000000000NCONT   00    00000000000          00000000000000000000000000000000000000000000 000000000000000A000000000000000000000000000000000000000000000 000000000000000000000000000000000000000     00000000                                                                                                                        000000000000000000
F0010000009515400004000089011492400023658300000000000000000201612050002001AGE. CAUCHO SOL DE LA COSTA  SAS                  C000000000109700000000000000000000100010010000000000000000000000F0010000009515400420161205000101 00000000000000000000000000000000000000000000000000000000000000000000000000000000000000000000000000000000000000000N 00000000000NCONT   00    00000000000          00000000000000000000000000000000000000000000 000000000000000A000000000000000000000000000000000000000000000 000000000000000000000000000000000000000     00000000                                                                                                                        000000000000000000
F0010000009515400005000089011492400013552100000000000000000201612050002001AGE. CAUCHO SOL DE LA COSTA  SAS                  D000000000109700000000000000000000100010010000000000000000000000F0010000009515400520161205000101 00000000000000000000000000000000000000000000000000000000000000000000000000000000000000000000000000000000000000000N 00000000000NCONT   00    00000000000          00000000000000000000000000000000000000000000 000000000000000A000000000000000000000000000000000000000000000 000000000000000000000000000000000000000     00000000                                                                                                                        000000000000000000
F0010000009515500001000090049854300013050500000000000000000201612050002001TRAPOS INDUSTRIALES DE COLOMBIA SAS               D000000026691300000000000000000000100010010000000000000000000000F0010000009515500120161205000101 00000000000000000000000000000000000000000000000000000000000000000000000000000000000000000000000000000000000000000N 00000000000NCONT   00    00000000000          00000000000000000000000000000000000000000000 000000000000000A000000000000000000000000000000000000000000000 000000000000000000000000000000000000000     00000000                                                                                                                        000000000000000000
F0010000009515500002000090049854300041450500000000000000000201612050002001TRAPOS INDUSTRIALES DE COLOMBIA SAS               C000000024000000000000000000000000100010010000000000000000000000F0010000009515500220161205000101 00000000000000000000000000000000000000000000000000000000000000000000000000000000000000000000000000000000000000000N 00000000000NCONT   00    00000000000          00000000000000000000000000000000000000000000 000000000000000A000000000000000000000000000000000000000000000 000000000000000000000000000000000000000     00000000                                                                                                                        000000000000000000
F0010000009515500003000090049854300042505000000000000000000201612050002001TRAPOS INDUSTRIALES DE COLOMBIA SAS               C000000002691300000000000000000000100010010000000000000000000000F0010000009515500320161205000101 00000000000000000000000000000000000000000000000000000000000000000000000000000000000000000000000000000000000000000N 00000000000NCONT   00    00000000000          00000000000000000000000000000000000000000000 000000000000000A000000000000000000000000000000000000000000000 000000000000000000000000000000000000000     00000000                                                                                                                        000000000000000000
F0010000009515500004000090049854300023658300000000000000000201612050002001TRAPOS INDUSTRIALES DE COLOMBIA SAS               C000000000192000000000000000000000100010010000000000000000000000F0010000009515500420161205000101 00000000000000000000000000000000000000000000000000000000000000000000000000000000000000000000000000000000000000000N 00000000000NCONT   00    00000000000          00000000000000000000000000000000000000000000 000000000000000A000000000000000000000000000000000000000000000 000000000000000000000000000000000000000     00000000                                                                                                                        000000000000000000
F0010000009515500005000090049854300013552100000000000000000201612050002001TRAPOS INDUSTRIALES DE COLOMBIA SAS               D000000000192000000000000000000000100010010000000000000000000000F0010000009515500520161205000101 00000000000000000000000000000000000000000000000000000000000000000000000000000000000000000000000000000000000000000N 00000000000NCONT   00    00000000000          00000000000000000000000000000000000000000000 000000000000000A000000000000000000000000000000000000000000000 000000000000000000000000000000000000000     00000000                                                                                                                        000000000000000000
F0010000009515600001000080016665600013050500000000000000000201612050002001SUMICAL DE ANTIOQUIA S.A.S                        D000000022575200000000000000000000100010010000000000000000000000F0010000009515600120161205000101 00000000000000000000000000000000000000000000000000000000000000000000000000000000000000000000000000000000000000000N 00000000000NCONT   00    00000000000          00000000000000000000000000000000000000000000 000000000000000A000000000000000000000000000000000000000000000 000000000000000000000000000000000000000     00000000                                                                                                                        000000000000000000
F0010000009515600002000080016665600041450500000000000000000201612050002001SUMICAL DE ANTIOQUIA S.A.S                        C000000016710000000000000000000000100010010000000000000000000000F0010000009515600220161205000101 00000000000000000000000000000000000000000000000000000000000000000000000000000000000000000000000000000000000000000N 00000000000NCONT   00    00000000000          00000000000000000000000000000000000000000000 000000000000000A000000000000000000000000000000000000000000000 000000000000000000000000000000000000000     00000000                                                                                                                        000000000000000000
F0010000009515600003000080016665600042505000000000000000000201612050002001SUMICAL DE ANTIOQUIA S.A.S                        C000000005865200000000000000000000100010010000000000000000000000F0010000009515600320161205000101 00000000000000000000000000000000000000000000000000000000000000000000000000000000000000000000000000000000000000000N 00000000000NCONT   00    00000000000          00000000000000000000000000000000000000000000 000000000000000A000000000000000000000000000000000000000000000 000000000000000000000000000000000000000     00000000                                                                                                                        000000000000000000
F0010000009515600004000080016665600023658300000000000000000201612050002001SUMICAL DE ANTIOQUIA S.A.S                        C000000000133700000000000000000000100010010000000000000000000000F0010000009515600420161205000101 00000000000000000000000000000000000000000000000000000000000000000000000000000000000000000000000000000000000000000N 00000000000NCONT   00    00000000000          00000000000000000000000000000000000000000000 000000000000000A000000000000000000000000000000000000000000000 000000000000000000000000000000000000000     00000000                                                                                                                        000000000000000000
F0010000009515600005000080016665600013552100000000000000000201612050002001SUMICAL DE ANTIOQUIA S.A.S                        D000000000133700000000000000000000100010010000000000000000000000F0010000009515600520161205000101 00000000000000000000000000000000000000000000000000000000000000000000000000000000000000000000000000000000000000000N 00000000000NCONT   00    00000000000          00000000000000000000000000000000000000000000 000000000000000A000000000000000000000000000000000000000000000 000000000000000000000000000000000000000     00000000                                                                                                                        000000000000000000
F0010000009515700001000080016664500013050500000000000000000201612050002001TELAPLAS PANCER SAS                               D000000028564000000000000000000000100010010000000000000000000000F0010000009515700120161205000101 00000000000000000000000000000000000000000000000000000000000000000000000000000000000000000000000000000000000000000N 00000000000NCONT   00    00000000000          00000000000000000000000000000000000000000000 000000000000000A000000000000000000000000000000000000000000000 000000000000000000000000000000000000000     00000000                                                                                                                        000000000000000000
F0010000009515700002000080016664500041450500000000000000000201612050002001TELAPLAS PANCER SAS                               C000000023340000000000000000000000100010010000000000000000000000F0010000009515700220161205000101 00000000000000000000000000000000000000000000000000000000000000000000000000000000000000000000000000000000000000000N 00000000000NCONT   00    00000000000          00000000000000000000000000000000000000000000 000000000000000A000000000000000000000000000000000000000000000 000000000000000000000000000000000000000     00000000                                                                                                                        000000000000000000
F0010000009515700003000080016664500042505000000000000000000201612050002001TELAPLAS PANCER SAS                               C000000005224000000000000000000000100010010000000000000000000000F0010000009515700320161205000101 00000000000000000000000000000000000000000000000000000000000000000000000000000000000000000000000000000000000000000N 00000000000NCONT   00    00000000000          00000000000000000000000000000000000000000000 000000000000000A000000000000000000000000000000000000000000000 000000000000000000000000000000000000000     00000000                                                                                                                        000000000000000000
F0010000009515700004000080016664500023658300000000000000000201612050002001TELAPLAS PANCER SAS                               C000000000186700000000000000000000100010010000000000000000000000F0010000009515700420161205000101 00000000000000000000000000000000000000000000000000000000000000000000000000000000000000000000000000000000000000000N 00000000000NCONT   00    00000000000          00000000000000000000000000000000000000000000 000000000000000A000000000000000000000000000000000000000000000 000000000000000000000000000000000000000     00000000                                                                                                                        000000000000000000
F0010000009515700005000080016664500013552100000000000000000201612050002001TELAPLAS PANCER SAS                               D000000000186700000000000000000000100010010000000000000000000000F0010000009515700520161205000101 00000000000000000000000000000000000000000000000000000000000000000000000000000000000000000000000000000000000000000N 00000000000NCONT   00    00000000000          00000000000000000000000000000000000000000000 000000000000000A000000000000000000000000000000000000000000000 000000000000000000000000000000000000000     00000000                                                                                                                        000000000000000000
F0010000009515800001000090035510100013050500000000000000000201612050002001GRAINGER COLOMBIA S.A.S.                          D000000086150300000000000000000000100010010000000000000000000000F0010000009515800120161205000101 00000000000000000000000000000000000000000000000000000000000000000000000000000000000000000000000000000000000000000N 00000000000NCONT   00    00000000000          00000000000000000000000000000000000000000000 000000000000000A000000000000000000000000000000000000000000000 000000000000000000000000000000000000000     00000000                                                                                                                        000000000000000000
F0010000009515800002000090035510100041450500000000000000000201612050002001GRAINGER COLOMBIA S.A.S.                          C000000072104000000000000000000000100010010000000000000000000000F0010000009515800220161205000101 00000000000000000000000000000000000000000000000000000000000000000000000000000000000000000000000000000000000000000N 00000000000NCONT   00    00000000000          00000000000000000000000000000000000000000000 000000000000000A000000000000000000000000000000000000000000000 000000000000000000000000000000000000000     00000000                                                                                                                        000000000000000000
F0010000009515800003000090035510100042505000000000000000000201612050002001GRAINGER COLOMBIA S.A.S.                          C000000014046300000000000000000000100010010000000000000000000000F0010000009515800320161205000101 00000000000000000000000000000000000000000000000000000000000000000000000000000000000000000000000000000000000000000N 00000000000NCONT   00    00000000000          00000000000000000000000000000000000000000000 000000000000000A000000000000000000000000000000000000000000000 000000000000000000000000000000000000000     00000000                                                                                                                        000000000000000000
F0010000009515800004000090035510100023658300000000000000000201612050002001GRAINGER COLOMBIA S.A.S.                          C000000000576800000000000000000000100010010000000000000000000000F0010000009515800420161205000101 00000000000000000000000000000000000000000000000000000000000000000000000000000000000000000000000000000000000000000N 00000000000NCONT   00    00000000000          00000000000000000000000000000000000000000000 000000000000000A000000000000000000000000000000000000000000000 000000000000000000000000000000000000000     00000000                                                                                                                        000000000000000000
F0010000009515800005000090035510100013552100000000000000000201612050002001GRAINGER COLOMBIA S.A.S.                          D000000000576800000000000000000000100010010000000000000000000000F0010000009515800520161205000101 00000000000000000000000000000000000000000000000000000000000000000000000000000000000000000000000000000000000000000N 00000000000NCONT   00    00000000000          00000000000000000000000000000000000000000000 000000000000000A000000000000000000000000000000000000000000000 000000000000000000000000000000000000000     00000000                                                                                                                        000000000000000000
F0010000009515900001000089070997800013050500000000000000000201612050002001CENTRAL DE TORNILLOS                              D000000009920000000000000000000000100010010000000000000000000000F0010000009515900120161205000101 00000000000000000000000000000000000000000000000000000000000000000000000000000000000000000000000000000000000000000N 00000000000NCONT   00    00000000000          00000000000000000000000000000000000000000000 000000000000000A000000000000000000000000000000000000000000000 000000000000000000000000000000000000000     00000000                                                                                                                        000000000000000000
F0010000009515900002000089070997800041450500000000000000000201612050002001CENTRAL DE TORNILLOS                              C000000008920000000000000000000000100010010000000000000000000000F0010000009515900220161205000101 00000000000000000000000000000000000000000000000000000000000000000000000000000000000000000000000000000000000000000N 00000000000NCONT   00    00000000000          00000000000000000000000000000000000000000000 000000000000000A000000000000000000000000000000000000000000000 000000000000000000000000000000000000000     00000000                                                                                                                        000000000000000000
F0010000009515900003000089070997800042505000000000000000000201612050002001CENTRAL DE TORNILLOS                              C000000001000000000000000000000000100010010000000000000000000000F0010000009515900320161205000101 00000000000000000000000000000000000000000000000000000000000000000000000000000000000000000000000000000000000000000N 00000000000NCONT   00    00000000000          00000000000000000000000000000000000000000000 000000000000000A000000000000000000000000000000000000000000000 000000000000000000000000000000000000000     00000000                                                                                                                        000000000000000000
F0010000009515900004000089070997800023658300000000000000000201612050002001CENTRAL DE TORNILLOS                              C000000000071400000000000000000000100010010000000000000000000000F0010000009515900420161205000101 00000000000000000000000000000000000000000000000000000000000000000000000000000000000000000000000000000000000000000N 00000000000NCONT   00    00000000000          00000000000000000000000000000000000000000000 000000000000000A000000000000000000000000000000000000000000000 000000000000000000000000000000000000000     00000000                                                                                                                        000000000000000000
F0010000009515900005000089070997800013552100000000000000000201612050002001CENTRAL DE TORNILLOS                              D000000000071400000000000000000000100010010000000000000000000000F0010000009515900520161205000101 00000000000000000000000000000000000000000000000000000000000000000000000000000000000000000000000000000000000000000N 00000000000NCONT   00    00000000000          00000000000000000000000000000000000000000000 000000000000000A000000000000000000000000000000000000000000000 000000000000000000000000000000000000000     00000000                                                                                                                        000000000000000000
F0010000009516000001000090064982900013050500000000000000000201612050002001DISDIES S.A.S                                     D000000064697000000000000000000000100010010000000000000000000000F0010000009516000120161205000101 00000000000000000000000000000000000000000000000000000000000000000000000000000000000000000000000000000000000000000N 00000000000NCONT   00    00000000000          00000000000000000000000000000000000000000000 000000000000000A000000000000000000000000000000000000000000000 000000000000000000000000000000000000000     00000000                                                                                                                        000000000000000000
F0010000009516000002000090064982900041450500000000000000000201612050002001DISDIES S.A.S                                     C000000057785900000000000000000000100010010000000000000000000000F0010000009516000220161205000101 00000000000000000000000000000000000000000000000000000000000000000000000000000000000000000000000000000000000000000N 00000000000NCONT   00    00000000000          00000000000000000000000000000000000000000000 000000000000000A000000000000000000000000000000000000000000000 000000000000000000000000000000000000000     00000000                                                                                                                        000000000000000000
F0010000009516000003000090064982900042505000000000000000000201612050002001DISDIES S.A.S                                     C000000006911100000000000000000000100010010000000000000000000000F0010000009516000320161205000101 00000000000000000000000000000000000000000000000000000000000000000000000000000000000000000000000000000000000000000N 00000000000NCONT   00    00000000000          00000000000000000000000000000000000000000000 000000000000000A000000000000000000000000000000000000000000000 000000000000000000000000000000000000000     00000000                                                                                                                        000000000000000000
F0010000009516000004000090064982900023658300000000000000000201612050002001DISDIES S.A.S                                     C000000000462300000000000000000000100010010000000000000000000000F0010000009516000420161205000101 00000000000000000000000000000000000000000000000000000000000000000000000000000000000000000000000000000000000000000N 00000000000NCONT   00    00000000000          00000000000000000000000000000000000000000000 000000000000000A000000000000000000000000000000000000000000000 000000000000000000000000000000000000000     00000000                                                                                                                        000000000000000000
F0010000009516000005000090064982900013552100000000000000000201612050002001DISDIES S.A.S                                     D000000000462300000000000000000000100010010000000000000000000000F0010000009516000520161205000101 00000000000000000000000000000000000000000000000000000000000000000000000000000000000000000000000000000000000000000N 00000000000NCONT   00    00000000000          00000000000000000000000000000000000000000000 000000000000000A000000000000000000000000000000000000000000000 000000000000000000000000000000000000000     00000000                                                                                                                        000000000000000000
F0010000009516100001000080019113900013050500000000000000000201612050002001COMERCIAL NOVAPEL LTDA                            D000000055870000000000000000000000100010010000000000000000000000F0010000009516100120161205000101 00000000000000000000000000000000000000000000000000000000000000000000000000000000000000000000000000000000000000000N 00000000000NCONT   00    00000000000          00000000000000000000000000000000000000000000 000000000000000A000000000000000000000000000000000000000000000 000000000000000000000000000000000000000     00000000                                                                                                                        000000000000000000
F0010000009516100002000080019113900041450500000000000000000201612050002001COMERCIAL NOVAPEL LTDA                            C000000051000000000000000000000000100010010000000000000000000000F0010000009516100220161205000101 00000000000000000000000000000000000000000000000000000000000000000000000000000000000000000000000000000000000000000N 00000000000NCONT   00    00000000000          00000000000000000000000000000000000000000000 000000000000000A000000000000000000000000000000000000000000000 000000000000000000000000000000000000000     00000000                                                                                                                        000000000000000000
F0010000009516100003000080019113900042505000000000000000000201612050002001COMERCIAL NOVAPEL LTDA                            C000000004870000000000000000000000100010010000000000000000000000F0010000009516100320161205000101 00000000000000000000000000000000000000000000000000000000000000000000000000000000000000000000000000000000000000000N 00000000000NCONT   00    00000000000          00000000000000000000000000000000000000000000 000000000000000A000000000000000000000000000000000000000000000 000000000000000000000000000000000000000     00000000                                                                                                                        000000000000000000
F0010000009516100004000080019113900023658300000000000000000201612050002001COMERCIAL NOVAPEL LTDA                            C000000000408000000000000000000000100010010000000000000000000000F0010000009516100420161205000101 00000000000000000000000000000000000000000000000000000000000000000000000000000000000000000000000000000000000000000N 00000000000NCONT   00    00000000000          00000000000000000000000000000000000000000000 000000000000000A000000000000000000000000000000000000000000000 000000000000000000000000000000000000000     00000000                                                                                                                        000000000000000000
F0010000009516100005000080019113900013552100000000000000000201612050002001COMERCIAL NOVAPEL LTDA                            D000000000408000000000000000000000100010010000000000000000000000F0010000009516100520161205000101 00000000000000000000000000000000000000000000000000000000000000000000000000000000000000000000000000000000000000000N 00000000000NCONT   00    00000000000          00000000000000000000000000000000000000000000 000000000000000A000000000000000000000000000000000000000000000 000000000000000000000000000000000000000     00000000                                                                                                                        000000000000000000
F0010000009516200001000089010260300013050500000000000000000201612050002001FEDERICO OSORIO A. S.A.                           D000000095172700000000000000000000100010010000000000000000000000F0010000009516200120161205000101 00000000000000000000000000000000000000000000000000000000000000000000000000000000000000000000000000000000000000000N 00000000000NCONT   00    00000000000          00000000000000000000000000000000000000000000 000000000000000A000000000000000000000000000000000000000000000 000000000000000000000000000000000000000     00000000                                                                                                                        000000000000000000
F0010000009516200002000089010260300041450500000000000000000201612050002001FEDERICO OSORIO A. S.A.                           C000000089340000000000000000000000100010010000000000000000000000F0010000009516200220161205000101 00000000000000000000000000000000000000000000000000000000000000000000000000000000000000000000000000000000000000000N 00000000000NCONT   00    00000000000          00000000000000000000000000000000000000000000 000000000000000A000000000000000000000000000000000000000000000 000000000000000000000000000000000000000     00000000                                                                                                                        000000000000000000
F0010000009516200003000089010260300042505000000000000000000201612050002001FEDERICO OSORIO A. S.A.                           C000000005832700000000000000000000100010010000000000000000000000F0010000009516200320161205000101 00000000000000000000000000000000000000000000000000000000000000000000000000000000000000000000000000000000000000000N 00000000000NCONT   00    00000000000          00000000000000000000000000000000000000000000 000000000000000A000000000000000000000000000000000000000000000 000000000000000000000000000000000000000     00000000                                                                                                                        000000000000000000
F0010000009516200004000089010260300023658300000000000000000201612050002001FEDERICO OSORIO A. S.A.                           C000000000714700000000000000000000100010010000000000000000000000F0010000009516200420161205000101 00000000000000000000000000000000000000000000000000000000000000000000000000000000000000000000000000000000000000000N 00000000000NCONT   00    00000000000          00000000000000000000000000000000000000000000 000000000000000A000000000000000000000000000000000000000000000 000000000000000000000000000000000000000     00000000                                                                                                                        000000000000000000
F0010000009516200005000089010260300013552100000000000000000201612050002001FEDERICO OSORIO A. S.A.                           D000000000714700000000000000000000100010010000000000000000000000F0010000009516200520161205000101 00000000000000000000000000000000000000000000000000000000000000000000000000000000000000000000000000000000000000000N 00000000000NCONT   00    00000000000          00000000000000000000000000000000000000000000 000000000000000A000000000000000000000000000000000000000000000 000000000000000000000000000000000000000     00000000                                                                                                                        000000000000000000
F0010000009516300001000080201127600013050500000000000000000201612050002001ELECTRICOS DEL RUIZ S.A.S.                        D000000049663500000000000000000000100010010000000000000000000000F0010000009516300120161205000101 00000000000000000000000000000000000000000000000000000000000000000000000000000000000000000000000000000000000000000N 00000000000NCONT   00    00000000000          00000000000000000000000000000000000000000000 000000000000000A000000000000000000000000000000000000000000000 000000000000000000000000000000000000000     00000000                                                                                                                        000000000000000000
F0010000009516300002000080201127600041450500000000000000000201612050002001ELECTRICOS DEL RUIZ S.A.S.                        C000000038350000000000000000000000100010010000000000000000000000F0010000009516300220161205000101 00000000000000000000000000000000000000000000000000000000000000000000000000000000000000000000000000000000000000000N 00000000000NCONT   00    00000000000          00000000000000000000000000000000000000000000 000000000000000A000000000000000000000000000000000000000000000 000000000000000000000000000000000000000     00000000                                                                                                                        000000000000000000
F0010000009516300003000080201127600042505000000000000000000201612050002001ELECTRICOS DEL RUIZ S.A.S.                        C000000011313500000000000000000000100010010000000000000000000000F0010000009516300320161205000101 00000000000000000000000000000000000000000000000000000000000000000000000000000000000000000000000000000000000000000N 00000000000NCONT   00    00000000000          00000000000000000000000000000000000000000000 000000000000000A000000000000000000000000000000000000000000000 000000000000000000000000000000000000000     00000000                                                                                                                        000000000000000000
F0010000009516300004000080201127600023658300000000000000000201612050002001ELECTRICOS DEL RUIZ S.A.S.                        C000000000306800000000000000000000100010010000000000000000000000F0010000009516300420161205000101 00000000000000000000000000000000000000000000000000000000000000000000000000000000000000000000000000000000000000000N 00000000000NCONT   00    00000000000          00000000000000000000000000000000000000000000 000000000000000A000000000000000000000000000000000000000000000 000000000000000000000000000000000000000     00000000                                                                                                                        000000000000000000
F0010000009516300005000080201127600013552100000000000000000201612050002001ELECTRICOS DEL RUIZ S.A.S.                        D000000000306800000000000000000000100010010000000000000000000000F0010000009516300520161205000101 00000000000000000000000000000000000000000000000000000000000000000000000000000000000000000000000000000000000000000N 00000000000NCONT   00    00000000000          00000000000000000000000000000000000000000000 000000000000000A000000000000000000000000000000000000000000000 000000000000000000000000000000000000000     00000000                                                                                                                        000000000000000000
F0010000009516400001000080022903500013050500000000000000000201612050002001TECNOGLASS S.A                                    D000000052668600000000000000000000100010010000000000000000000000F0010000009516400120161205000101 00000000000000000000000000000000000000000000000000000000000000000000000000000000000000000000000000000000000000000N 00000000000NCONT   00    00000000000          00000000000000000000000000000000000000000000 000000000000000A000000000000000000000000000000000000000000000 000000000000000000000000000000000000000     00000000                                                                                                                        000000000000000000
F0010000009516400002000080022903500041450500000000000000000201612050002001TECNOGLASS S.A                                    C000000046000000000000000000000000100010010000000000000000000000F0010000009516400220161205000101 00000000000000000000000000000000000000000000000000000000000000000000000000000000000000000000000000000000000000000N 00000000000NCONT   00    00000000000          00000000000000000000000000000000000000000000 000000000000000A000000000000000000000000000000000000000000000 000000000000000000000000000000000000000     00000000                                                                                                                        000000000000000000
F0010000009516400003000080022903500042505000000000000000000201612050002001TECNOGLASS S.A                                    C000000006668600000000000000000000100010010000000000000000000000F0010000009516400320161205000101 00000000000000000000000000000000000000000000000000000000000000000000000000000000000000000000000000000000000000000N 00000000000NCONT   00    00000000000          00000000000000000000000000000000000000000000 000000000000000A000000000000000000000000000000000000000000000 000000000000000000000000000000000000000     00000000                                                                                                                        000000000000000000
F0010000009516400004000080022903500023658300000000000000000201612050002001TECNOGLASS S.A                                    C000000000368000000000000000000000100010010000000000000000000000F0010000009516400420161205000101 00000000000000000000000000000000000000000000000000000000000000000000000000000000000000000000000000000000000000000N 00000000000NCONT   00    00000000000          00000000000000000000000000000000000000000000 000000000000000A000000000000000000000000000000000000000000000 000000000000000000000000000000000000000     00000000                                                                                                                        000000000000000000
F0010000009516400005000080022903500013552100000000000000000201612050002001TECNOGLASS S.A                                    D000000000368000000000000000000000100010010000000000000000000000F0010000009516400520161205000101 00000000000000000000000000000000000000000000000000000000000000000000000000000000000000000000000000000000000000000N 00000000000NCONT   00    00000000000          00000000000000000000000000000000000000000000 000000000000000A000000000000000000000000000000000000000000000 000000000000000000000000000000000000000     00000000                                                                                                                        000000000000000000
F0010000009516500001000080004943800013050500000000000000000201612050002001PAPELERIA EL CID S.A.                             D000000041947700000000000000000000100010010000000000000000000000F0010000009516500120161205000101 00000000000000000000000000000000000000000000000000000000000000000000000000000000000000000000000000000000000000000N 00000000000NCONT   00    00000000000          00000000000000000000000000000000000000000000 000000000000000A000000000000000000000000000000000000000000000 000000000000000000000000000000000000000     00000000                                                                                                                        000000000000000000
F0010000009516500002000080004943800041450500000000000000000201612050002001PAPELERIA EL CID S.A.                             C000000034920000000000000000000000100010010000000000000000000000F0010000009516500220161205000101 00000000000000000000000000000000000000000000000000000000000000000000000000000000000000000000000000000000000000000N 00000000000NCONT   00    00000000000          00000000000000000000000000000000000000000000 000000000000000A000000000000000000000000000000000000000000000 000000000000000000000000000000000000000     00000000                                                                                                                        000000000000000000
F0010000009516500003000080004943800042505000000000000000000201612050002001PAPELERIA EL CID S.A.                             C000000007027700000000000000000000100010010000000000000000000000F0010000009516500320161205000101 00000000000000000000000000000000000000000000000000000000000000000000000000000000000000000000000000000000000000000N 00000000000NCONT   00    00000000000          00000000000000000000000000000000000000000000 000000000000000A000000000000000000000000000000000000000000000 000000000000000000000000000000000000000     00000000                                                                                                                        000000000000000000
F0010000009516500004000080004943800023658300000000000000000201612050002001PAPELERIA EL CID S.A.                             C000000000279400000000000000000000100010010000000000000000000000F0010000009516500420161205000101 00000000000000000000000000000000000000000000000000000000000000000000000000000000000000000000000000000000000000000N 00000000000NCONT   00    00000000000          00000000000000000000000000000000000000000000 000000000000000A000000000000000000000000000000000000000000000 000000000000000000000000000000000000000     00000000                                                                                                                        000000000000000000
F0010000009516500005000080004943800013552100000000000000000201612050002001PAPELERIA EL CID S.A.                             D000000000279400000000000000000000100010010000000000000000000000F0010000009516500520161205000101 00000000000000000000000000000000000000000000000000000000000000000000000000000000000000000000000000000000000000000N 00000000000NCONT   00    00000000000          00000000000000000000000000000000000000000000 000000000000000A000000000000000000000000000000000000000000000 000000000000000000000000000000000000000     00000000                                                                                                                        000000000000000000
F0010000009516600001000080201112800013050500000000000000000201612050002001CANGURO INTERNATIONAL S.A.                        D000000113077700000000000000000000100010010000000000000000000000F0010000009516600120161205000101 00000000000000000000000000000000000000000000000000000000000000000000000000000000000000000000000000000000000000000N 00000000000NCONT   00    00000000000          00000000000000000000000000000000000000000000 000000000000000A000000000000000000000000000000000000000000000 000000000000000000000000000000000000000     00000000                                                                                                                        000000000000000000
F0010000009516600002000080201112800041450500000000000000000201612050002001CANGURO INTERNATIONAL S.A.                        C000000111824700000000000000000000100010010000000000000000000000F0010000009516600220161205000101 00000000000000000000000000000000000000000000000000000000000000000000000000000000000000000000000000000000000000000N 00000000000NCONT   00    00000000000          00000000000000000000000000000000000000000000 000000000000000A000000000000000000000000000000000000000000000 000000000000000000000000000000000000000     00000000                                                                                                                        000000000000000000
F0010000009516600003000080201112800042505000000000000000000201612050002001CANGURO INTERNATIONAL S.A.                        C000000001253000000000000000000000100010010000000000000000000000F0010000009516600320161205000101 00000000000000000000000000000000000000000000000000000000000000000000000000000000000000000000000000000000000000000N 00000000000NCONT   00    00000000000          00000000000000000000000000000000000000000000 000000000000000A000000000000000000000000000000000000000000000 000000000000000000000000000000000000000     00000000                                                                                                                        000000000000000000
F0010000009516600004000080201112800023658300000000000000000201612050002001CANGURO INTERNATIONAL S.A.                        C000000000894600000000000000000000100010010000000000000000000000F0010000009516600420161205000101 00000000000000000000000000000000000000000000000000000000000000000000000000000000000000000000000000000000000000000N 00000000000NCONT   00    00000000000          00000000000000000000000000000000000000000000 000000000000000A000000000000000000000000000000000000000000000 000000000000000000000000000000000000000     00000000                                                                                                                        000000000000000000
F0010000009516600005000080201112800013552100000000000000000201612050002001CANGURO INTERNATIONAL S.A.                        D000000000894600000000000000000000100010010000000000000000000000F0010000009516600520161205000101 00000000000000000000000000000000000000000000000000000000000000000000000000000000000000000000000000000000000000000N 00000000000NCONT   00    00000000000          00000000000000000000000000000000000000000000 000000000000000A000000000000000000000000000000000000000000000 000000000000000000000000000000000000000     00000000                                                                                                                        000000000000000000
F0010000009516700001000080201112800013050500000000000000000201612050002001CANGURO INTERNATIONAL S.A.                        D000000104878600000000000000000000100010010000000000000000000000F0010000009516700120161205000101 00000000000000000000000000000000000000000000000000000000000000000000000000000000000000000000000000000000000000000N 00000000000NCONT   00    00000000000          00000000000000000000000000000000000000000000 000000000000000A000000000000000000000000000000000000000000000 000000000000000000000000000000000000000     00000000                                                                                                                        000000000000000000
F0010000009516700002000080201112800041450500000000000000000201612050002001CANGURO INTERNATIONAL S.A.                        C000000104878600000000000000000000100010010000000000000000000000F0010000009516700220161205000101 00000000000000000000000000000000000000000000000000000000000000000000000000000000000000000000000000000000000000000N 00000000000NCONT   00    00000000000          00000000000000000000000000000000000000000000 000000000000000A000000000000000000000000000000000000000000000 000000000000000000000000000000000000000     00000000                                                                                                                        000000000000000000
F0010000009516700003000080201112800042505000000000000000000201612050002001CANGURO INTERNATIONAL S.A.                        C000000000000000000000000000000000100010010000000000000000000000F0010000009516700320161205000101 00000000000000000000000000000000000000000000000000000000000000000000000000000000000000000000000000000000000000000N 00000000000NCONT   00    00000000000          00000000000000000000000000000000000000000000 000000000000000A000000000000000000000000000000000000000000000 000000000000000000000000000000000000000     00000000                                                                                                                        000000000000000000
F0010000009516700004000080201112800023658300000000000000000201612050002001CANGURO INTERNATIONAL S.A.                        C000000000839000000000000000000000100010010000000000000000000000F0010000009516700420161205000101 00000000000000000000000000000000000000000000000000000000000000000000000000000000000000000000000000000000000000000N 00000000000NCONT   00    00000000000          00000000000000000000000000000000000000000000 000000000000000A000000000000000000000000000000000000000000000 000000000000000000000000000000000000000     00000000                                                                                                                        000000000000000000
F0010000009516700005000080201112800013552100000000000000000201612050002001CANGURO INTERNATIONAL S.A.                        D000000000839000000000000000000000100010010000000000000000000000F0010000009516700520161205000101 00000000000000000000000000000000000000000000000000000000000000000000000000000000000000000000000000000000000000000N 00000000000NCONT   00    00000000000          00000000000000000000000000000000000000000000 000000000000000A000000000000000000000000000000000000000000000 000000000000000000000000000000000000000     00000000                                                                                                                        000000000000000000
F0010000009516800001000080201112800013050500000000000000000201612050002001CANGURO INTERNATIONAL S.A.                        D000000072557000000000000000000000100010010000000000000000000000F0010000009516800120161205000101 00000000000000000000000000000000000000000000000000000000000000000000000000000000000000000000000000000000000000000N 00000000000NCONT   00    00000000000          00000000000000000000000000000000000000000000 000000000000000A000000000000000000000000000000000000000000000 000000000000000000000000000000000000000     00000000                                                                                                                        000000000000000000
F0010000009516800002000080201112800041450500000000000000000201612050002001CANGURO INTERNATIONAL S.A.                        C000000072353500000000000000000000100010010000000000000000000000F0010000009516800220161205000101 00000000000000000000000000000000000000000000000000000000000000000000000000000000000000000000000000000000000000000N 00000000000NCONT   00    00000000000          00000000000000000000000000000000000000000000 000000000000000A000000000000000000000000000000000000000000000 000000000000000000000000000000000000000     00000000                                                                                                                        000000000000000000
F0010000009516800003000080201112800042505000000000000000000201612050002001CANGURO INTERNATIONAL S.A.                        C000000000203500000000000000000000100010010000000000000000000000F0010000009516800320161205000101 00000000000000000000000000000000000000000000000000000000000000000000000000000000000000000000000000000000000000000N 00000000000NCONT   00    00000000000          00000000000000000000000000000000000000000000 000000000000000A000000000000000000000000000000000000000000000 000000000000000000000000000000000000000     00000000                                                                                                                        000000000000000000
F0010000009516800004000080201112800023658300000000000000000201612050002001CANGURO INTERNATIONAL S.A.                        C000000000578800000000000000000000100010010000000000000000000000F0010000009516800420161205000101 00000000000000000000000000000000000000000000000000000000000000000000000000000000000000000000000000000000000000000N 00000000000NCONT   00    00000000000          00000000000000000000000000000000000000000000 000000000000000A000000000000000000000000000000000000000000000 000000000000000000000000000000000000000     00000000                                                                                                                        000000000000000000
F0010000009516800005000080201112800013552100000000000000000201612050002001CANGURO INTERNATIONAL S.A.                        D000000000578800000000000000000000100010010000000000000000000000F0010000009516800520161205000101 00000000000000000000000000000000000000000000000000000000000000000000000000000000000000000000000000000000000000000N 00000000000NCONT   00    00000000000          00000000000000000000000000000000000000000000 000000000000000A000000000000000000000000000000000000000000000 000000000000000000000000000000000000000     00000000                                                                                                                        000000000000000000
F0010000009516900001000089080176300013050500000000000000000201612050002001SEGAR S.A.                                        D000000155871300000000000000000000100010010000000000000000000000F0010000009516900120161205000101 00000000000000000000000000000000000000000000000000000000000000000000000000000000000000000000000000000000000000000N 00000000000NCONT   00    00000000000          00000000000000000000000000000000000000000000 000000000000000A000000000000000000000000000000000000000000000 000000000000000000000000000000000000000     00000000                                                                                                                        000000000000000000
F0010000009516900002000089080176300041450500000000000000000201612050002001SEGAR S.A.                                        C000000141030000000000000000000000100010010000000000000000000000F0010000009516900220161205000101 00000000000000000000000000000000000000000000000000000000000000000000000000000000000000000000000000000000000000000N 00000000000NCONT   00    00000000000          00000000000000000000000000000000000000000000 000000000000000A000000000000000000000000000000000000000000000 000000000000000000000000000000000000000     00000000                                                                                                                        000000000000000000
F0010000009516900003000089080176300042505000000000000000000201612050002001SEGAR S.A.                                        C000000014841300000000000000000000100010010000000000000000000000F0010000009516900320161205000101 00000000000000000000000000000000000000000000000000000000000000000000000000000000000000000000000000000000000000000N 00000000000NCONT   00    00000000000          00000000000000000000000000000000000000000000 000000000000000A000000000000000000000000000000000000000000000 000000000000000000000000000000000000000     00000000                                                                                                                        000000000000000000
F0010000009516900004000089080176300023658300000000000000000201612050002001SEGAR S.A.                                        C000000001128200000000000000000000100010010000000000000000000000F0010000009516900420161205000101 00000000000000000000000000000000000000000000000000000000000000000000000000000000000000000000000000000000000000000N 00000000000NCONT   00    00000000000          00000000000000000000000000000000000000000000 000000000000000A000000000000000000000000000000000000000000000 000000000000000000000000000000000000000     00000000                                                                                                                        000000000000000000
F0010000009516900005000089080176300013552100000000000000000201612050002001SEGAR S.A.                                        D000000001128200000000000000000000100010010000000000000000000000F0010000009516900520161205000101 00000000000000000000000000000000000000000000000000000000000000000000000000000000000000000000000000000000000000000N 00000000000NCONT   00    00000000000          00000000000000000000000000000000000000000000 000000000000000A000000000000000000000000000000000000000000000 000000000000000000000000000000000000000     00000000                                                                                                                        000000000000000000
F0010000009517000001000089080176300013050500000000000000000201612050002001SEGAR S.A.                                        D000000155413600000000000000000000100010010000000000000000000000F0010000009517000120161205000101 00000000000000000000000000000000000000000000000000000000000000000000000000000000000000000000000000000000000000000N 00000000000NCONT   00    00000000000          00000000000000000000000000000000000000000000 000000000000000A000000000000000000000000000000000000000000000 000000000000000000000000000000000000000     00000000                                                                                                                        000000000000000000
F0010000009517000002000089080176300041450500000000000000000201612050002001SEGAR S.A.                                        C000000138060000000000000000000000100010010000000000000000000000F0010000009517000220161205000101 00000000000000000000000000000000000000000000000000000000000000000000000000000000000000000000000000000000000000000N 00000000000NCONT   00    00000000000          00000000000000000000000000000000000000000000 000000000000000A000000000000000000000000000000000000000000000 000000000000000000000000000000000000000     00000000                                                                                                                        000000000000000000
F0010000009517000003000089080176300042505000000000000000000201612050002001SEGAR S.A.                                        C000000017353600000000000000000000100010010000000000000000000000F0010000009517000320161205000101 00000000000000000000000000000000000000000000000000000000000000000000000000000000000000000000000000000000000000000N 00000000000NCONT   00    00000000000          00000000000000000000000000000000000000000000 000000000000000A000000000000000000000000000000000000000000000 000000000000000000000000000000000000000     00000000                                                                                                                        000000000000000000
F0010000009517000004000089080176300023658300000000000000000201612050002001SEGAR S.A.                                        C000000001104500000000000000000000100010010000000000000000000000F0010000009517000420161205000101 00000000000000000000000000000000000000000000000000000000000000000000000000000000000000000000000000000000000000000N 00000000000NCONT   00    00000000000          00000000000000000000000000000000000000000000 000000000000000A000000000000000000000000000000000000000000000 000000000000000000000000000000000000000     00000000                                                                                                                        000000000000000000
F0010000009517000005000089080176300013552100000000000000000201612050002001SEGAR S.A.                                        D000000001104500000000000000000000100010010000000000000000000000F0010000009517000520161205000101 00000000000000000000000000000000000000000000000000000000000000000000000000000000000000000000000000000000000000000N 00000000000NCONT   00    00000000000          00000000000000000000000000000000000000000000 000000000000000A000000000000000000000000000000000000000000000 000000000000000000000000000000000000000     00000000                                                                                                                        000000000000000000
F0010000009517100001000089080176300013050500000000000000000201612050002001SEGAR S.A.                                        D000000167564700000000000000000000100010010000000000000000000000F0010000009517100120161205000101 00000000000000000000000000000000000000000000000000000000000000000000000000000000000000000000000000000000000000000N 00000000000NCONT   00    00000000000          00000000000000000000000000000000000000000000 000000000000000A000000000000000000000000000000000000000000000 000000000000000000000000000000000000000     00000000                                                                                                                        000000000000000000
F0010000009517100002000089080176300041450500000000000000000201612050002001SEGAR S.A.                                        C000000153195500000000000000000000100010010000000000000000000000F0010000009517100220161205000101 00000000000000000000000000000000000000000000000000000000000000000000000000000000000000000000000000000000000000000N 00000000000NCONT   00    00000000000          00000000000000000000000000000000000000000000 000000000000000A000000000000000000000000000000000000000000000 000000000000000000000000000000000000000     00000000                                                                                                                        000000000000000000
F0010000009517100003000089080176300042505000000000000000000201612050002001SEGAR S.A.                                        C000000014369200000000000000000000100010010000000000000000000000F0010000009517100320161205000101 00000000000000000000000000000000000000000000000000000000000000000000000000000000000000000000000000000000000000000N 00000000000NCONT   00    00000000000          00000000000000000000000000000000000000000000 000000000000000A000000000000000000000000000000000000000000000 000000000000000000000000000000000000000     00000000                                                                                                                        000000000000000000
F0010000009517100004000089080176300023658300000000000000000201612050002001SEGAR S.A.                                        C000000001225600000000000000000000100010010000000000000000000000F0010000009517100420161205000101 00000000000000000000000000000000000000000000000000000000000000000000000000000000000000000000000000000000000000000N 00000000000NCONT   00    00000000000          00000000000000000000000000000000000000000000 000000000000000A000000000000000000000000000000000000000000000 000000000000000000000000000000000000000     00000000                                                                                                                        000000000000000000
F0010000009517100005000089080176300013552100000000000000000201612050002001SEGAR S.A.                                        D000000001225600000000000000000000100010010000000000000000000000F0010000009517100520161205000101 00000000000000000000000000000000000000000000000000000000000000000000000000000000000000000000000000000000000000000N 00000000000NCONT   00    00000000000          00000000000000000000000000000000000000000000 000000000000000A000000000000000000000000000000000000000000000 000000000000000000000000000000000000000     00000000                                                                                                                        000000000000000000
F0010000009517200001000007225583900011050500000000000000000201612050002001JORGE LUIS NIO BLANCO                           D000000002500000000000000000000000100010010000000000000000000000F0010000009517200120161205000101 00000000000000000000000000000000000000000000000000000000000000000000000000000000000000000000000000000000000000000N 00000000000NCONT   00    00000000000          00000000000000000000000000000000000000000000 000000000000000A000000000000000000000000000000000000000000000 000000000000000000000000000000000000000     00000000                                                                                                                        000000000000000000
F0010000009517200002000007225583900041450500000000000000000201612050002001JORGE LUIS NIO BLANCO                           C000000002300000000000000000000000100010010000000000000000000000F0010000009517200220161205000101 00000000000000000000000000000000000000000000000000000000000000000000000000000000000000000000000000000000000000000N 00000000000NCONT   00    00000000000          00000000000000000000000000000000000000000000 000000000000000A000000000000000000000000000000000000000000000 000000000000000000000000000000000000000     00000000                                                                                                                        000000000000000000
F0010000009517200003000007225583900042505000000000000000000201612050002001JORGE LUIS NIO BLANCO                           C000000000200000000000000000000000100010010000000000000000000000F0010000009517200320161205000101 00000000000000000000000000000000000000000000000000000000000000000000000000000000000000000000000000000000000000000N 00000000000NCONT   00    00000000000          00000000000000000000000000000000000000000000 000000000000000A000000000000000000000000000000000000000000000 000000000000000000000000000000000000000     00000000                                                                                                                        000000000000000000
F0010000009517200004000007225583900023658300000000000000000201612050002001JORGE LUIS NIO BLANCO                           C000000000018400000000000000000000100010010000000000000000000000F0010000009517200420161205000101 00000000000000000000000000000000000000000000000000000000000000000000000000000000000000000000000000000000000000000N 00000000000NCONT   00    00000000000          00000000000000000000000000000000000000000000 000000000000000A000000000000000000000000000000000000000000000 000000000000000000000000000000000000000     00000000                                                                                                                        000000000000000000
F0010000009517200005000007225583900013552100000000000000000201612050002001JORGE LUIS NIO BLANCO                           D000000000018400000000000000000000100010010000000000000000000000F0010000009517200520161205000101 00000000000000000000000000000000000000000000000000000000000000000000000000000000000000000000000000000000000000000N 00000000000NCONT   00    00000000000          00000000000000000000000000000000000000000000 000000000000000A000000000000000000000000000000000000000000000 000000000000000000000000000000000000000     00000000                                                                                                                        000000000000000000
F0010000009517300001000090051494400011050500000000000000000201612050002001MUNDINOX SAS                                      D000000003020000000000000000000000100010010000000000000000000000F0010000009517300120161205000101 00000000000000000000000000000000000000000000000000000000000000000000000000000000000000000000000000000000000000000N 00000000000NCONT   00    00000000000          00000000000000000000000000000000000000000000 000000000000000A000000000000000000000000000000000000000000000 000000000000000000000000000000000000000     00000000                                                                                                                        000000000000000000
F0010000009517300002000090051494400041450500000000000000000201612050002001MUNDINOX SAS                                      C000000002820000000000000000000000100010010000000000000000000000F0010000009517300220161205000101 00000000000000000000000000000000000000000000000000000000000000000000000000000000000000000000000000000000000000000N 00000000000NCONT   00    00000000000          00000000000000000000000000000000000000000000 000000000000000A000000000000000000000000000000000000000000000 000000000000000000000000000000000000000     00000000                                                                                                                        000000000000000000
F0010000009517300003000090051494400042505000000000000000000201612050002001MUNDINOX SAS                                      C000000000200000000000000000000000100010010000000000000000000000F0010000009517300320161205000101 00000000000000000000000000000000000000000000000000000000000000000000000000000000000000000000000000000000000000000N 00000000000NCONT   00    00000000000          00000000000000000000000000000000000000000000 000000000000000A000000000000000000000000000000000000000000000 000000000000000000000000000000000000000     00000000                                                                                                                        000000000000000000
F0010000009517300004000090051494400023658300000000000000000201612050002001MUNDINOX SAS                                      C000000000022600000000000000000000100010010000000000000000000000F0010000009517300420161205000101 00000000000000000000000000000000000000000000000000000000000000000000000000000000000000000000000000000000000000000N 00000000000NCONT   00    00000000000          00000000000000000000000000000000000000000000 000000000000000A000000000000000000000000000000000000000000000 000000000000000000000000000000000000000     00000000                                                                                                                        000000000000000000
F0010000009517300005000090051494400013552100000000000000000201612050002001MUNDINOX SAS                                      D000000000022600000000000000000000100010010000000000000000000000F0010000009517300520161205000101 00000000000000000000000000000000000000000000000000000000000000000000000000000000000000000000000000000000000000000N 00000000000NCONT   00    00000000000          00000000000000000000000000000000000000000000 000000000000000A000000000000000000000000000000000000000000000 000000000000000000000000000000000000000     00000000                                                                                                                        000000000000000000
F0010000009517400001000114084725100011050500000000000000000201612050002001COMERCIALIZADORA KONAR .. ..                      D000000010400000000000000000000000100010010000000000000000000000F0010000009517400120161205000101 00000000000000000000000000000000000000000000000000000000000000000000000000000000000000000000000000000000000000000N 00000000000NCONT   00    00000000000          00000000000000000000000000000000000000000000 000000000000000A000000000000000000000000000000000000000000000 000000000000000000000000000000000000000     00000000                                                                                                                        000000000000000000
F0010000009517400002000114084725100041450500000000000000000201612050002001COMERCIALIZADORA KONAR .. ..                      C000000009000000000000000000000000100010010000000000000000000000F0010000009517400220161205000101 00000000000000000000000000000000000000000000000000000000000000000000000000000000000000000000000000000000000000000N 00000000000NCONT   00    00000000000          00000000000000000000000000000000000000000000 000000000000000A000000000000000000000000000000000000000000000 000000000000000000000000000000000000000     00000000                                                                                                                        000000000000000000
F0010000009517400003000114084725100042505000000000000000000201612050002001COMERCIALIZADORA KONAR .. ..                      C000000001400000000000000000000000100010010000000000000000000000F0010000009517400320161205000101 00000000000000000000000000000000000000000000000000000000000000000000000000000000000000000000000000000000000000000N 00000000000NCONT   00    00000000000          00000000000000000000000000000000000000000000 000000000000000A000000000000000000000000000000000000000000000 000000000000000000000000000000000000000     00000000                                                                                                                        000000000000000000
F0010000009517400004000114084725100023658300000000000000000201612050002001COMERCIALIZADORA KONAR .. ..                      C000000000072000000000000000000000100010010000000000000000000000F0010000009517400420161205000101 00000000000000000000000000000000000000000000000000000000000000000000000000000000000000000000000000000000000000000N 00000000000NCONT   00    00000000000          00000000000000000000000000000000000000000000 000000000000000A000000000000000000000000000000000000000000000 000000000000000000000000000000000000000     00000000                                                                                                                        000000000000000000
F0010000009517400005000114084725100013552100000000000000000201612050002001COMERCIALIZADORA KONAR .. ..                      D000000000072000000000000000000000100010010000000000000000000000F0010000009517400520161205000101 00000000000000000000000000000000000000000000000000000000000000000000000000000000000000000000000000000000000000000N 00000000000NCONT   00    00000000000          00000000000000000000000000000000000000000000 000000000000000A000000000000000000000000000000000000000000000 000000000000000000000000000000000000000     00000000                                                                                                                        000000000000000000
F0010000009517500001000090020872300011050500000000000000000201612050002001INTERSOLES SAS                                    D000000002900000000000000000000000100010010000000000000000000000F0010000009517500120161205000101 00000000000000000000000000000000000000000000000000000000000000000000000000000000000000000000000000000000000000000N 00000000000NCONT   00    00000000000          00000000000000000000000000000000000000000000 000000000000000A000000000000000000000000000000000000000000000 000000000000000000000000000000000000000     00000000                                                                                                                        000000000000000000
F0010000009517500002000090020872300041450500000000000000000201612050002001INTERSOLES SAS                                    C000000002700000000000000000000000100010010000000000000000000000F0010000009517500220161205000101 00000000000000000000000000000000000000000000000000000000000000000000000000000000000000000000000000000000000000000N 00000000000NCONT   00    00000000000          00000000000000000000000000000000000000000000 000000000000000A000000000000000000000000000000000000000000000 000000000000000000000000000000000000000     00000000                                                                                                                        000000000000000000
F0010000009517500003000090020872300042505000000000000000000201612050002001INTERSOLES SAS                                    C000000000200000000000000000000000100010010000000000000000000000F0010000009517500320161205000101 00000000000000000000000000000000000000000000000000000000000000000000000000000000000000000000000000000000000000000N 00000000000NCONT   00    00000000000          00000000000000000000000000000000000000000000 000000000000000A000000000000000000000000000000000000000000000 000000000000000000000000000000000000000     00000000                                                                                                                        000000000000000000
F0010000009517500004000090020872300023658300000000000000000201612050002001INTERSOLES SAS                                    C000000000021600000000000000000000100010010000000000000000000000F0010000009517500420161205000101 00000000000000000000000000000000000000000000000000000000000000000000000000000000000000000000000000000000000000000N 00000000000NCONT   00    00000000000          00000000000000000000000000000000000000000000 000000000000000A000000000000000000000000000000000000000000000 000000000000000000000000000000000000000     00000000                                                                                                                        000000000000000000
F0010000009517500005000090020872300013552100000000000000000201612050002001INTERSOLES SAS                                    D000000000021600000000000000000000100010010000000000000000000000F0010000009517500520161205000101 00000000000000000000000000000000000000000000000000000000000000000000000000000000000000000000000000000000000000000N 00000000000NCONT   00    00000000000          00000000000000000000000000000000000000000000 000000000000000A000000000000000000000000000000000000000000000 000000000000000000000000000000000000000     00000000                                                                                                                        000000000000000000
F0010000009517600001000000866840800011050500000000000000000201612050002001CACHARRERIA MARTIN                                D000000003900000000000000000000000100010010000000000000000000000F0010000009517600120161205000101 00000000000000000000000000000000000000000000000000000000000000000000000000000000000000000000000000000000000000000N 00000000000NCONT   00    00000000000          00000000000000000000000000000000000000000000 000000000000000A000000000000000000000000000000000000000000000 000000000000000000000000000000000000000     00000000                                                                                                                        000000000000000000
F0010000009517600002000000866840800041450500000000000000000201612050002001CACHARRERIA MARTIN                                C000000002000000000000000000000000100010010000000000000000000000F0010000009517600220161205000101 00000000000000000000000000000000000000000000000000000000000000000000000000000000000000000000000000000000000000000N 00000000000NCONT   00    00000000000          00000000000000000000000000000000000000000000 000000000000000A000000000000000000000000000000000000000000000 000000000000000000000000000000000000000     00000000                                                                                                                        000000000000000000
F0010000009517600003000000866840800042505000000000000000000201612050002001CACHARRERIA MARTIN                                C000000001900000000000000000000000100010010000000000000000000000F0010000009517600320161205000101 00000000000000000000000000000000000000000000000000000000000000000000000000000000000000000000000000000000000000000N 00000000000NCONT   00    00000000000          00000000000000000000000000000000000000000000 000000000000000A000000000000000000000000000000000000000000000 000000000000000000000000000000000000000     00000000                                                                                                                        000000000000000000
F0010000009517600004000000866840800023658300000000000000000201612050002001CACHARRERIA MARTIN                                C000000000016000000000000000000000100010010000000000000000000000F0010000009517600420161205000101 00000000000000000000000000000000000000000000000000000000000000000000000000000000000000000000000000000000000000000N 00000000000NCONT   00    00000000000          00000000000000000000000000000000000000000000 000000000000000A000000000000000000000000000000000000000000000 000000000000000000000000000000000000000     00000000                                                                                                                        000000000000000000
F0010000009517600005000000866840800013552100000000000000000201612050002001CACHARRERIA MARTIN                                D000000000016000000000000000000000100010010000000000000000000000F0010000009517600520161205000101 00000000000000000000000000000000000000000000000000000000000000000000000000000000000000000000000000000000000000000N 00000000000NCONT   00    00000000000          00000000000000000000000000000000000000000000 000000000000000A000000000000000000000000000000000000000000000 000000000000000000000000000000000000000     00000000                                                                                                                        000000000000000000
F0010000009517700001000000742399700011050500000000000000000201612050002001CACHARRERIA EL NUEVO CHADID                       D000000002300000000000000000000000100010010000000000000000000000F0010000009517700120161205000101 00000000000000000000000000000000000000000000000000000000000000000000000000000000000000000000000000000000000000000N 00000000000NCONT   00    00000000000          00000000000000000000000000000000000000000000 000000000000000A000000000000000000000000000000000000000000000 000000000000000000000000000000000000000     00000000                                                                                                                        000000000000000000
F0010000009517700002000000742399700041450500000000000000000201612050002001CACHARRERIA EL NUEVO CHADID                       C000000001300000000000000000000000100010010000000000000000000000F0010000009517700220161205000101 00000000000000000000000000000000000000000000000000000000000000000000000000000000000000000000000000000000000000000N 00000000000NCONT   00    00000000000          00000000000000000000000000000000000000000000 000000000000000A000000000000000000000000000000000000000000000 000000000000000000000000000000000000000     00000000                                                                                                                        000000000000000000
F0010000009517700003000000742399700042505000000000000000000201612050002001CACHARRERIA EL NUEVO CHADID                       C000000001000000000000000000000000100010010000000000000000000000F0010000009517700320161205000101 00000000000000000000000000000000000000000000000000000000000000000000000000000000000000000000000000000000000000000N 00000000000NCONT   00    00000000000          00000000000000000000000000000000000000000000 000000000000000A000000000000000000000000000000000000000000000 000000000000000000000000000000000000000     00000000                                                                                                                        000000000000000000
F0010000009517700004000000742399700023658300000000000000000201612050002001CACHARRERIA EL NUEVO CHADID                       C000000000010400000000000000000000100010010000000000000000000000F0010000009517700420161205000101 00000000000000000000000000000000000000000000000000000000000000000000000000000000000000000000000000000000000000000N 00000000000NCONT   00    00000000000          00000000000000000000000000000000000000000000 000000000000000A000000000000000000000000000000000000000000000 000000000000000000000000000000000000000     00000000                                                                                                                        000000000000000000
F0010000009517700005000000742399700013552100000000000000000201612050002001CACHARRERIA EL NUEVO CHADID                       D000000000010400000000000000000000100010010000000000000000000000F0010000009517700520161205000101 00000000000000000000000000000000000000000000000000000000000000000000000000000000000000000000000000000000000000000N 00000000000NCONT   00    00000000000          00000000000000000000000000000000000000000000 000000000000000A000000000000000000000000000000000000000000000 000000000000000000000000000000000000000     00000000                                                                                                                        000000000000000000
F0010000009517800001000108224145000011050500000000000000000201612050002001ARMANDO AROCA                                     D000000006200000000000000000000000100010010000000000000000000000F0010000009517800120161205000101 00000000000000000000000000000000000000000000000000000000000000000000000000000000000000000000000000000000000000000N 00000000000NCONT   00    00000000000          00000000000000000000000000000000000000000000 000000000000000A000000000000000000000000000000000000000000000 000000000000000000000000000000000000000     00000000                                                                                                                        000000000000000000
F0010000009517800002000108224145000041450500000000000000000201612050002001ARMANDO AROCA                                     C000000005200000000000000000000000100010010000000000000000000000F0010000009517800220161205000101 00000000000000000000000000000000000000000000000000000000000000000000000000000000000000000000000000000000000000000N 00000000000NCONT   00    00000000000          00000000000000000000000000000000000000000000 000000000000000A000000000000000000000000000000000000000000000 000000000000000000000000000000000000000     00000000                                                                                                                        000000000000000000
