F0010000006366500001000083050133900011050500000000000000000201410080002001VALTAC DEL CARIBE LTDA                            D000000006000000000000000000000000100010010000000000000000000000F0010000006366500120141008000101 00000000000000000000000000000000000000000000000000000000000000000000000000000000000000000000000000000000000000000N 00000000000NCONT   00    00000000000          00000000000000000000000000000000000000000000 000000000000000A000000000000000000000000000000000000000000000 000000000000000000000000000000000000000     00000000                                                                                                                        000000000000000000
F0010000006366500002000083050133900041450500000000000000000201410080002001VALTAC DEL CARIBE LTDA                            C000000005500000000000000000000000100010010000000000000000000000F0010000006366500220141008000101 00000000000000000000000000000000000000000000000000000000000000000000000000000000000000000000000000000000000000000N 00000000000NCONT   00    00000000000          00000000000000000000000000000000000000000000 000000000000000A000000000000000000000000000000000000000000000 000000000000000000000000000000000000000     00000000                                                                                                                        000000000000000000
F0010000006366500003000083050133900042505000000000000000000201410080002001VALTAC DEL CARIBE LTDA                            C000000000500000000000000000000000100010010000000000000000000000F0010000006366500320141008000101 00000000000000000000000000000000000000000000000000000000000000000000000000000000000000000000000000000000000000000N 00000000000NCONT   00    00000000000          00000000000000000000000000000000000000000000 000000000000000A000000000000000000000000000000000000000000000 000000000000000000000000000000000000000     00000000                                                                                                                        000000000000000000
F0010000006366500004000083050133900023658300000000000000000201410080002001VALTAC DEL CARIBE LTDA                            C000000000044000000000000000000000100010010000000000000000000000F0010000006366500420141008000101 00000000000000000000000000000000000000000000000000000000000000000000000000000000000000000000000000000000000000000N 00000000000NCONT   00    00000000000          00000000000000000000000000000000000000000000 000000000000000A000000000000000000000000000000000000000000000 000000000000000000000000000000000000000     00000000                                                                                                                        000000000000000000
F0010000006366500005000083050133900013552100000000000000000201410080002001VALTAC DEL CARIBE LTDA                            D000000000044000000000000000000000100010010000000000000000000000F0010000006366500520141008000101 00000000000000000000000000000000000000000000000000000000000000000000000000000000000000000000000000000000000000000N 00000000000NCONT   00    00000000000          00000000000000000000000000000000000000000000 000000000000000A000000000000000000000000000000000000000000000 000000000000000000000000000000000000000     00000000                                                                                                                        000000000000000000
F0010000006366600001000080001060100011050500000000000000000201410080002001DROGUERIA INDUSTRIAL INQUICOSTA LTDA              D000000001400000000000000000000000100010010000000000000000000000F0010000006366600120141008000101 00000000000000000000000000000000000000000000000000000000000000000000000000000000000000000000000000000000000000000N 00000000000NCONT   00    00000000000          00000000000000000000000000000000000000000000 000000000000000A000000000000000000000000000000000000000000000 000000000000000000000000000000000000000     00000000                                                                                                                        000000000000000000
F0010000006366600002000080001060100041450500000000000000000201410080002001DROGUERIA INDUSTRIAL INQUICOSTA LTDA              C000000001000000000000000000000000100010010000000000000000000000F0010000006366600220141008000101 00000000000000000000000000000000000000000000000000000000000000000000000000000000000000000000000000000000000000000N 00000000000NCONT   00    00000000000          00000000000000000000000000000000000000000000 000000000000000A000000000000000000000000000000000000000000000 000000000000000000000000000000000000000     00000000                                                                                                                        000000000000000000
F0010000006366600003000080001060100042505000000000000000000201410080002001DROGUERIA INDUSTRIAL INQUICOSTA LTDA              C000000000400000000000000000000000100010010000000000000000000000F0010000006366600320141008000101 00000000000000000000000000000000000000000000000000000000000000000000000000000000000000000000000000000000000000000N 00000000000NCONT   00    00000000000          00000000000000000000000000000000000000000000 000000000000000A000000000000000000000000000000000000000000000 000000000000000000000000000000000000000     00000000                                                                                                                        000000000000000000
F0010000006366600004000080001060100023658300000000000000000201410080002001DROGUERIA INDUSTRIAL INQUICOSTA LTDA              C000000000008000000000000000000000100010010000000000000000000000F0010000006366600420141008000101 00000000000000000000000000000000000000000000000000000000000000000000000000000000000000000000000000000000000000000N 00000000000NCONT   00    00000000000          00000000000000000000000000000000000000000000 000000000000000A000000000000000000000000000000000000000000000 000000000000000000000000000000000000000     00000000                                                                                                                        000000000000000000
F0010000006366600005000080001060100013552100000000000000000201410080002001DROGUERIA INDUSTRIAL INQUICOSTA LTDA              D000000000008000000000000000000000100010010000000000000000000000F0010000006366600520141008000101 00000000000000000000000000000000000000000000000000000000000000000000000000000000000000000000000000000000000000000N 00000000000NCONT   00    00000000000          00000000000000000000000000000000000000000000 000000000000000A000000000000000000000000000000000000000000000 000000000000000000000000000000000000000     00000000                                                                                                                        000000000000000000
F0010000006366700001000086053108300011050500000000000000000201410080002001EL PALACIO DEL ALUMINIO  LTDA                     D000000007800000000000000000000000100010010000000000000000000000F0010000006366700120141008000101 00000000000000000000000000000000000000000000000000000000000000000000000000000000000000000000000000000000000000000N 00000000000NCONT   00    00000000000          00000000000000000000000000000000000000000000 000000000000000A000000000000000000000000000000000000000000000 000000000000000000000000000000000000000     00000000                                                                                                                        000000000000000000
F0010000006366700002000086053108300041450500000000000000000201410080002001EL PALACIO DEL ALUMINIO  LTDA                     C000000007300000000000000000000000100010010000000000000000000000F0010000006366700220141008000101 00000000000000000000000000000000000000000000000000000000000000000000000000000000000000000000000000000000000000000N 00000000000NCONT   00    00000000000          00000000000000000000000000000000000000000000 000000000000000A000000000000000000000000000000000000000000000 000000000000000000000000000000000000000     00000000                                                                                                                        000000000000000000
F0010000006366700003000086053108300042505000000000000000000201410080002001EL PALACIO DEL ALUMINIO  LTDA                     C000000000500000000000000000000000100010010000000000000000000000F0010000006366700320141008000101 00000000000000000000000000000000000000000000000000000000000000000000000000000000000000000000000000000000000000000N 00000000000NCONT   00    00000000000          00000000000000000000000000000000000000000000 000000000000000A000000000000000000000000000000000000000000000 000000000000000000000000000000000000000     00000000                                                                                                                        000000000000000000
F0010000006366700004000086053108300023658300000000000000000201410080002001EL PALACIO DEL ALUMINIO  LTDA                     C000000000058400000000000000000000100010010000000000000000000000F0010000006366700420141008000101 00000000000000000000000000000000000000000000000000000000000000000000000000000000000000000000000000000000000000000N 00000000000NCONT   00    00000000000          00000000000000000000000000000000000000000000 000000000000000A000000000000000000000000000000000000000000000 000000000000000000000000000000000000000     00000000                                                                                                                        000000000000000000
F0010000006366700005000086053108300013552100000000000000000201410080002001EL PALACIO DEL ALUMINIO  LTDA                     D000000000058400000000000000000000100010010000000000000000000000F0010000006366700520141008000101 00000000000000000000000000000000000000000000000000000000000000000000000000000000000000000000000000000000000000000N 00000000000NCONT   00    00000000000          00000000000000000000000000000000000000000000 000000000000000A000000000000000000000000000000000000000000000 000000000000000000000000000000000000000     00000000                                                                                                                        000000000000000000
F0010000006366800001000003900336900011050500000000000000000201410080002001LUISA FERNANDA BOLAñOS                           D000000006500000000000000000000000100010010000000000000000000000F0010000006366800120141008000101 00000000000000000000000000000000000000000000000000000000000000000000000000000000000000000000000000000000000000000N 00000000000NCONT   00    00000000000          00000000000000000000000000000000000000000000 000000000000000A000000000000000000000000000000000000000000000 000000000000000000000000000000000000000     00000000                                                                                                                        000000000000000000
F0010000006366800002000003900336900041450500000000000000000201410080002001LUISA FERNANDA BOLAñOS                           C000000006400000000000000000000000100010010000000000000000000000F0010000006366800220141008000101 00000000000000000000000000000000000000000000000000000000000000000000000000000000000000000000000000000000000000000N 00000000000NCONT   00    00000000000          00000000000000000000000000000000000000000000 000000000000000A000000000000000000000000000000000000000000000 000000000000000000000000000000000000000     00000000                                                                                                                        000000000000000000
F0010000006366800003000003900336900042505000000000000000000201410080002001LUISA FERNANDA BOLAñOS                           C000000000100000000000000000000000100010010000000000000000000000F0010000006366800320141008000101 00000000000000000000000000000000000000000000000000000000000000000000000000000000000000000000000000000000000000000N 00000000000NCONT   00    00000000000          00000000000000000000000000000000000000000000 000000000000000A000000000000000000000000000000000000000000000 000000000000000000000000000000000000000     00000000                                                                                                                        000000000000000000
F0010000006366800004000003900336900023658300000000000000000201410080002001LUISA FERNANDA BOLAñOS                           C000000000051200000000000000000000100010010000000000000000000000F0010000006366800420141008000101 00000000000000000000000000000000000000000000000000000000000000000000000000000000000000000000000000000000000000000N 00000000000NCONT   00    00000000000          00000000000000000000000000000000000000000000 000000000000000A000000000000000000000000000000000000000000000 000000000000000000000000000000000000000     00000000                                                                                                                        000000000000000000
F0010000006366800005000003900336900013552100000000000000000201410080002001LUISA FERNANDA BOLAñOS                           D000000000051200000000000000000000100010010000000000000000000000F0010000006366800520141008000101 00000000000000000000000000000000000000000000000000000000000000000000000000000000000000000000000000000000000000000N 00000000000NCONT   00    00000000000          00000000000000000000000000000000000000000000 000000000000000A000000000000000000000000000000000000000000000 000000000000000000000000000000000000000     00000000                                                                                                                        000000000000000000
F0010000006366900001000090034602400011050500000000000000000201410080002001LA CUSTODIA                                       D000000002000000000000000000000000100010010000000000000000000000F0010000006366900120141008000101 00000000000000000000000000000000000000000000000000000000000000000000000000000000000000000000000000000000000000000N 00000000000NCONT   00    00000000000          00000000000000000000000000000000000000000000 000000000000000A000000000000000000000000000000000000000000000 000000000000000000000000000000000000000     00000000                                                                                                                        000000000000000000
F0010000006366900002000090034602400041450500000000000000000201410080002001LA CUSTODIA                                       C000000001800000000000000000000000100010010000000000000000000000F0010000006366900220141008000101 00000000000000000000000000000000000000000000000000000000000000000000000000000000000000000000000000000000000000000N 00000000000NCONT   00    00000000000          00000000000000000000000000000000000000000000 000000000000000A000000000000000000000000000000000000000000000 000000000000000000000000000000000000000     00000000                                                                                                                        000000000000000000
F0010000006366900003000090034602400042505000000000000000000201410080002001LA CUSTODIA                                       C000000000200000000000000000000000100010010000000000000000000000F0010000006366900320141008000101 00000000000000000000000000000000000000000000000000000000000000000000000000000000000000000000000000000000000000000N 00000000000NCONT   00    00000000000          00000000000000000000000000000000000000000000 000000000000000A000000000000000000000000000000000000000000000 000000000000000000000000000000000000000     00000000                                                                                                                        000000000000000000
F0010000006366900004000090034602400023658300000000000000000201410080002001LA CUSTODIA                                       C000000000014400000000000000000000100010010000000000000000000000F0010000006366900420141008000101 00000000000000000000000000000000000000000000000000000000000000000000000000000000000000000000000000000000000000000N 00000000000NCONT   00    00000000000          00000000000000000000000000000000000000000000 000000000000000A000000000000000000000000000000000000000000000 000000000000000000000000000000000000000     00000000                                                                                                                        000000000000000000
F0010000006366900005000090034602400013552100000000000000000201410080002001LA CUSTODIA                                       D000000000014400000000000000000000100010010000000000000000000000F0010000006366900520141008000101 00000000000000000000000000000000000000000000000000000000000000000000000000000000000000000000000000000000000000000N 00000000000NCONT   00    00000000000          00000000000000000000000000000000000000000000 000000000000000A000000000000000000000000000000000000000000000 000000000000000000000000000000000000000     00000000                                                                                                                        000000000000000000
F0010000006367000001000080202350700011050500000000000000000201410080002001CONNY DE LA COSTA SAS                             D000000003100000000000000000000000100010010000000000000000000000F0010000006367000120141008000101 00000000000000000000000000000000000000000000000000000000000000000000000000000000000000000000000000000000000000000N 00000000000NCONT   00    00000000000          00000000000000000000000000000000000000000000 000000000000000A000000000000000000000000000000000000000000000 000000000000000000000000000000000000000     00000000                                                                                                                        000000000000000000
F0010000006367000002000080202350700041450500000000000000000201410080002001CONNY DE LA COSTA SAS                             C000000002400000000000000000000000100010010000000000000000000000F0010000006367000220141008000101 00000000000000000000000000000000000000000000000000000000000000000000000000000000000000000000000000000000000000000N 00000000000NCONT   00    00000000000          00000000000000000000000000000000000000000000 000000000000000A000000000000000000000000000000000000000000000 000000000000000000000000000000000000000     00000000                                                                                                                        000000000000000000
F0010000006367000003000080202350700042505000000000000000000201410080002001CONNY DE LA COSTA SAS                             C000000000700000000000000000000000100010010000000000000000000000F0010000006367000320141008000101 00000000000000000000000000000000000000000000000000000000000000000000000000000000000000000000000000000000000000000N 00000000000NCONT   00    00000000000          00000000000000000000000000000000000000000000 000000000000000A000000000000000000000000000000000000000000000 000000000000000000000000000000000000000     00000000                                                                                                                        000000000000000000
F0010000006367000004000080202350700023658300000000000000000201410080002001CONNY DE LA COSTA SAS                             C000000000019200000000000000000000100010010000000000000000000000F0010000006367000420141008000101 00000000000000000000000000000000000000000000000000000000000000000000000000000000000000000000000000000000000000000N 00000000000NCONT   00    00000000000          00000000000000000000000000000000000000000000 000000000000000A000000000000000000000000000000000000000000000 000000000000000000000000000000000000000     00000000                                                                                                                        000000000000000000
F0010000006367000005000080202350700013552100000000000000000201410080002001CONNY DE LA COSTA SAS                             D000000000019200000000000000000000100010010000000000000000000000F0010000006367000520141008000101 00000000000000000000000000000000000000000000000000000000000000000000000000000000000000000000000000000000000000000N 00000000000NCONT   00    00000000000          00000000000000000000000000000000000000000000 000000000000000A000000000000000000000000000000000000000000000 000000000000000000000000000000000000000     00000000                                                                                                                        000000000000000000
F0010000006367100001000080202350700011050500000000000000000201410080002001CONNY DE LA COSTA SAS                             D000000004400000000000000000000000100010010000000000000000000000F0010000006367100120141008000101 00000000000000000000000000000000000000000000000000000000000000000000000000000000000000000000000000000000000000000N 00000000000NCONT   00    00000000000          00000000000000000000000000000000000000000000 000000000000000A000000000000000000000000000000000000000000000 000000000000000000000000000000000000000     00000000                                                                                                                        000000000000000000
F0010000006367100002000080202350700041450500000000000000000201410080002001CONNY DE LA COSTA SAS                             C000000003600000000000000000000000100010010000000000000000000000F0010000006367100220141008000101 00000000000000000000000000000000000000000000000000000000000000000000000000000000000000000000000000000000000000000N 00000000000NCONT   00    00000000000          00000000000000000000000000000000000000000000 000000000000000A000000000000000000000000000000000000000000000 000000000000000000000000000000000000000     00000000                                                                                                                        000000000000000000
F0010000006367100003000080202350700042505000000000000000000201410080002001CONNY DE LA COSTA SAS                             C000000000800000000000000000000000100010010000000000000000000000F0010000006367100320141008000101 00000000000000000000000000000000000000000000000000000000000000000000000000000000000000000000000000000000000000000N 00000000000NCONT   00    00000000000          00000000000000000000000000000000000000000000 000000000000000A000000000000000000000000000000000000000000000 000000000000000000000000000000000000000     00000000                                                                                                                        000000000000000000
F0010000006367100004000080202350700023658300000000000000000201410080002001CONNY DE LA COSTA SAS                             C000000000028800000000000000000000100010010000000000000000000000F0010000006367100420141008000101 00000000000000000000000000000000000000000000000000000000000000000000000000000000000000000000000000000000000000000N 00000000000NCONT   00    00000000000          00000000000000000000000000000000000000000000 000000000000000A000000000000000000000000000000000000000000000 000000000000000000000000000000000000000     00000000                                                                                                                        000000000000000000
F0010000006367100005000080202350700013552100000000000000000201410080002001CONNY DE LA COSTA SAS                             D000000000028800000000000000000000100010010000000000000000000000F0010000006367100520141008000101 00000000000000000000000000000000000000000000000000000000000000000000000000000000000000000000000000000000000000000N 00000000000NCONT   00    00000000000          00000000000000000000000000000000000000000000 000000000000000A000000000000000000000000000000000000000000000 000000000000000000000000000000000000000     00000000                                                                                                                        000000000000000000
F0010000006367200001000000000000000011050500000000000000000201410080002001LA GALERIA DEL BEBE                               D000000003800000000000000000000000100010010000000000000000000000F0010000006367200120141008000101 00000000000000000000000000000000000000000000000000000000000000000000000000000000000000000000000000000000000000000N 00000000000NCONT   00    00000000000          00000000000000000000000000000000000000000000 000000000000000A000000000000000000000000000000000000000000000 000000000000000000000000000000000000000     00000000                                                                                                                        000000000000000000
F0010000006367200002000000000000000041450500000000000000000201410080002001LA GALERIA DEL BEBE                               C000000003300000000000000000000000100010010000000000000000000000F0010000006367200220141008000101 00000000000000000000000000000000000000000000000000000000000000000000000000000000000000000000000000000000000000000N 00000000000NCONT   00    00000000000          00000000000000000000000000000000000000000000 000000000000000A000000000000000000000000000000000000000000000 000000000000000000000000000000000000000     00000000                                                                                                                        000000000000000000
F0010000006367200003000000000000000042505000000000000000000201410080002001LA GALERIA DEL BEBE                               C000000000500000000000000000000000100010010000000000000000000000F0010000006367200320141008000101 00000000000000000000000000000000000000000000000000000000000000000000000000000000000000000000000000000000000000000N 00000000000NCONT   00    00000000000          00000000000000000000000000000000000000000000 000000000000000A000000000000000000000000000000000000000000000 000000000000000000000000000000000000000     00000000                                                                                                                        000000000000000000
F0010000006367200004000000000000000023658300000000000000000201410080002001LA GALERIA DEL BEBE                               C000000000026400000000000000000000100010010000000000000000000000F0010000006367200420141008000101 00000000000000000000000000000000000000000000000000000000000000000000000000000000000000000000000000000000000000000N 00000000000NCONT   00    00000000000          00000000000000000000000000000000000000000000 000000000000000A000000000000000000000000000000000000000000000 000000000000000000000000000000000000000     00000000                                                                                                                        000000000000000000
F0010000006367200005000000000000000013552100000000000000000201410080002001LA GALERIA DEL BEBE                               D000000000026400000000000000000000100010010000000000000000000000F0010000006367200520141008000101 00000000000000000000000000000000000000000000000000000000000000000000000000000000000000000000000000000000000000000N 00000000000NCONT   00    00000000000          00000000000000000000000000000000000000000000 000000000000000A000000000000000000000000000000000000000000000 000000000000000000000000000000000000000     00000000                                                                                                                        000000000000000000
F0010000006367300001000089011492400011050500000000000000000201410080002001AGE. CAUCHO SOL DE LA COSTA  SAS                  D000000008127400000000000000000000100010010000000000000000000000F0010000006367300120141008000101 00000000000000000000000000000000000000000000000000000000000000000000000000000000000000000000000000000000000000000N 00000000000NCONT   00    00000000000          00000000000000000000000000000000000000000000 000000000000000A000000000000000000000000000000000000000000000 000000000000000000000000000000000000000     00000000                                                                                                                        000000000000000000
F0010000006367300002000089011492400041450500000000000000000201410080002001AGE. CAUCHO SOL DE LA COSTA  SAS                  C000000007480000000000000000000000100010010000000000000000000000F0010000006367300220141008000101 00000000000000000000000000000000000000000000000000000000000000000000000000000000000000000000000000000000000000000N 00000000000NCONT   00    00000000000          00000000000000000000000000000000000000000000 000000000000000A000000000000000000000000000000000000000000000 000000000000000000000000000000000000000     00000000                                                                                                                        000000000000000000
F0010000006367300003000089011492400042505000000000000000000201410080002001AGE. CAUCHO SOL DE LA COSTA  SAS                  C000000000647400000000000000000000100010010000000000000000000000F0010000006367300320141008000101 00000000000000000000000000000000000000000000000000000000000000000000000000000000000000000000000000000000000000000N 00000000000NCONT   00    00000000000          00000000000000000000000000000000000000000000 000000000000000A000000000000000000000000000000000000000000000 000000000000000000000000000000000000000     00000000                                                                                                                        000000000000000000
F0010000006367300004000089011492400023658300000000000000000201410080002001AGE. CAUCHO SOL DE LA COSTA  SAS                  C000000000059800000000000000000000100010010000000000000000000000F0010000006367300420141008000101 00000000000000000000000000000000000000000000000000000000000000000000000000000000000000000000000000000000000000000N 00000000000NCONT   00    00000000000          00000000000000000000000000000000000000000000 000000000000000A000000000000000000000000000000000000000000000 000000000000000000000000000000000000000     00000000                                                                                                                        000000000000000000
F0010000006367300005000089011492400013552100000000000000000201410080002001AGE. CAUCHO SOL DE LA COSTA  SAS                  D000000000059800000000000000000000100010010000000000000000000000F0010000006367300520141008000101 00000000000000000000000000000000000000000000000000000000000000000000000000000000000000000000000000000000000000000N 00000000000NCONT   00    00000000000          00000000000000000000000000000000000000000000 000000000000000A000000000000000000000000000000000000000000000 000000000000000000000000000000000000000     00000000                                                                                                                        000000000000000000
F0010000006367400001000000742399700011050500000000000000000201410080002001CACHARRERIA EL NUEVO CHADID                       D000000002400000000000000000000000100010010000000000000000000000F0010000006367400120141008000101 00000000000000000000000000000000000000000000000000000000000000000000000000000000000000000000000000000000000000000N 00000000000NCONT   00    00000000000          00000000000000000000000000000000000000000000 000000000000000A000000000000000000000000000000000000000000000 000000000000000000000000000000000000000     00000000                                                                                                                        000000000000000000
F0010000006367400002000000742399700041450500000000000000000201410080002001CACHARRERIA EL NUEVO CHADID                       C000000002000000000000000000000000100010010000000000000000000000F0010000006367400220141008000101 00000000000000000000000000000000000000000000000000000000000000000000000000000000000000000000000000000000000000000N 00000000000NCONT   00    00000000000          00000000000000000000000000000000000000000000 000000000000000A000000000000000000000000000000000000000000000 000000000000000000000000000000000000000     00000000                                                                                                                        000000000000000000
F0010000006367400003000000742399700042505000000000000000000201410080002001CACHARRERIA EL NUEVO CHADID                       C000000000400000000000000000000000100010010000000000000000000000F0010000006367400320141008000101 00000000000000000000000000000000000000000000000000000000000000000000000000000000000000000000000000000000000000000N 00000000000NCONT   00    00000000000          00000000000000000000000000000000000000000000 000000000000000A000000000000000000000000000000000000000000000 000000000000000000000000000000000000000     00000000                                                                                                                        000000000000000000
F0010000006367400004000000742399700023658300000000000000000201410080002001CACHARRERIA EL NUEVO CHADID                       C000000000016000000000000000000000100010010000000000000000000000F0010000006367400420141008000101 00000000000000000000000000000000000000000000000000000000000000000000000000000000000000000000000000000000000000000N 00000000000NCONT   00    00000000000          00000000000000000000000000000000000000000000 000000000000000A000000000000000000000000000000000000000000000 000000000000000000000000000000000000000     00000000                                                                                                                        000000000000000000
F0010000006367400005000000742399700013552100000000000000000201410080002001CACHARRERIA EL NUEVO CHADID                       D000000000016000000000000000000000100010010000000000000000000000F0010000006367400520141008000101 00000000000000000000000000000000000000000000000000000000000000000000000000000000000000000000000000000000000000000N 00000000000NCONT   00    00000000000          00000000000000000000000000000000000000000000 000000000000000A000000000000000000000000000000000000000000000 000000000000000000000000000000000000000     00000000                                                                                                                        000000000000000000
F0010000006367500001000107225647100011050500000000000000000201410080002001JHON BYRON DUQUE DONADO (BODEGA JHONIFER)         D000000001100000000000000000000000100010010000000000000000000000F0010000006367500120141008000101 00000000000000000000000000000000000000000000000000000000000000000000000000000000000000000000000000000000000000000N 00000000000NCONT   00    00000000000          00000000000000000000000000000000000000000000 000000000000000A000000000000000000000000000000000000000000000 000000000000000000000000000000000000000     00000000                                                                                                                        000000000000000000
F0010000006367500002000107225647100041450500000000000000000201410080002001JHON BYRON DUQUE DONADO (BODEGA JHONIFER)         C000000000900000000000000000000000100010010000000000000000000000F0010000006367500220141008000101 00000000000000000000000000000000000000000000000000000000000000000000000000000000000000000000000000000000000000000N 00000000000NCONT   00    00000000000          00000000000000000000000000000000000000000000 000000000000000A000000000000000000000000000000000000000000000 000000000000000000000000000000000000000     00000000                                                                                                                        000000000000000000
F0010000006367500003000107225647100042505000000000000000000201410080002001JHON BYRON DUQUE DONADO (BODEGA JHONIFER)         C000000000200000000000000000000000100010010000000000000000000000F0010000006367500320141008000101 00000000000000000000000000000000000000000000000000000000000000000000000000000000000000000000000000000000000000000N 00000000000NCONT   00    00000000000          00000000000000000000000000000000000000000000 000000000000000A000000000000000000000000000000000000000000000 000000000000000000000000000000000000000     00000000                                                                                                                        000000000000000000
F0010000006367500004000107225647100023658300000000000000000201410080002001JHON BYRON DUQUE DONADO (BODEGA JHONIFER)         C000000000007200000000000000000000100010010000000000000000000000F0010000006367500420141008000101 00000000000000000000000000000000000000000000000000000000000000000000000000000000000000000000000000000000000000000N 00000000000NCONT   00    00000000000          00000000000000000000000000000000000000000000 000000000000000A000000000000000000000000000000000000000000000 000000000000000000000000000000000000000     00000000                                                                                                                        000000000000000000
F0010000006367500005000107225647100013552100000000000000000201410080002001JHON BYRON DUQUE DONADO (BODEGA JHONIFER)         D000000000007200000000000000000000100010010000000000000000000000F0010000006367500520141008000101 00000000000000000000000000000000000000000000000000000000000000000000000000000000000000000000000000000000000000000N 00000000000NCONT   00    00000000000          00000000000000000000000000000000000000000000 000000000000000A000000000000000000000000000000000000000000000 000000000000000000000000000000000000000     00000000                                                                                                                        000000000000000000
F0010000006367600001000090055180500011050500000000000000000201410080002001LAMINAS Y SUELAS DE COLOMBIA S.A.S                D000000002823300000000000000000000100010010000000000000000000000F0010000006367600120141008000101 00000000000000000000000000000000000000000000000000000000000000000000000000000000000000000000000000000000000000000N 00000000000NCONT   00    00000000000          00000000000000000000000000000000000000000000 000000000000000A000000000000000000000000000000000000000000000 000000000000000000000000000000000000000     00000000                                                                                                                        000000000000000000
F0010000006367600002000090055180500041450500000000000000000201410080002001LAMINAS Y SUELAS DE COLOMBIA S.A.S                C000000002500000000000000000000000100010010000000000000000000000F0010000006367600220141008000101 00000000000000000000000000000000000000000000000000000000000000000000000000000000000000000000000000000000000000000N 00000000000NCONT   00    00000000000          00000000000000000000000000000000000000000000 000000000000000A000000000000000000000000000000000000000000000 000000000000000000000000000000000000000     00000000                                                                                                                        000000000000000000
F0010000006367600003000090055180500042505000000000000000000201410080002001LAMINAS Y SUELAS DE COLOMBIA S.A.S                C000000000323300000000000000000000100010010000000000000000000000F0010000006367600320141008000101 00000000000000000000000000000000000000000000000000000000000000000000000000000000000000000000000000000000000000000N 00000000000NCONT   00    00000000000          00000000000000000000000000000000000000000000 000000000000000A000000000000000000000000000000000000000000000 000000000000000000000000000000000000000     00000000                                                                                                                        000000000000000000
F0010000006367600004000090055180500023658300000000000000000201410080002001LAMINAS Y SUELAS DE COLOMBIA S.A.S                C000000000020000000000000000000000100010010000000000000000000000F0010000006367600420141008000101 00000000000000000000000000000000000000000000000000000000000000000000000000000000000000000000000000000000000000000N 00000000000NCONT   00    00000000000          00000000000000000000000000000000000000000000 000000000000000A000000000000000000000000000000000000000000000 000000000000000000000000000000000000000     00000000                                                                                                                        000000000000000000
F0010000006367600005000090055180500013552100000000000000000201410080002001LAMINAS Y SUELAS DE COLOMBIA S.A.S                D000000000020000000000000000000000100010010000000000000000000000F0010000006367600520141008000101 00000000000000000000000000000000000000000000000000000000000000000000000000000000000000000000000000000000000000000N 00000000000NCONT   00    00000000000          00000000000000000000000000000000000000000000 000000000000000A000000000000000000000000000000000000000000000 000000000000000000000000000000000000000     00000000                                                                                                                        000000000000000000
F0010000006367700001000090040527000011050500000000000000000201410080002001MIL TORNILLOS SAS                                 D000000004600000000000000000000000100010010000000000000000000000F0010000006367700120141008000101 00000000000000000000000000000000000000000000000000000000000000000000000000000000000000000000000000000000000000000N 00000000000NCONT   00    00000000000          00000000000000000000000000000000000000000000 000000000000000A000000000000000000000000000000000000000000000 000000000000000000000000000000000000000     00000000                                                                                                                        000000000000000000
F0010000006367700002000090040527000041450500000000000000000201410080002001MIL TORNILLOS SAS                                 C000000004500000000000000000000000100010010000000000000000000000F0010000006367700220141008000101 00000000000000000000000000000000000000000000000000000000000000000000000000000000000000000000000000000000000000000N 00000000000NCONT   00    00000000000          00000000000000000000000000000000000000000000 000000000000000A000000000000000000000000000000000000000000000 000000000000000000000000000000000000000     00000000                                                                                                                        000000000000000000
F0010000006367700003000090040527000042505000000000000000000201410080002001MIL TORNILLOS SAS                                 C000000000100000000000000000000000100010010000000000000000000000F0010000006367700320141008000101 00000000000000000000000000000000000000000000000000000000000000000000000000000000000000000000000000000000000000000N 00000000000NCONT   00    00000000000          00000000000000000000000000000000000000000000 000000000000000A000000000000000000000000000000000000000000000 000000000000000000000000000000000000000     00000000                                                                                                                        000000000000000000
F0010000006367700004000090040527000023658300000000000000000201410080002001MIL TORNILLOS SAS                                 C000000000036000000000000000000000100010010000000000000000000000F0010000006367700420141008000101 00000000000000000000000000000000000000000000000000000000000000000000000000000000000000000000000000000000000000000N 00000000000NCONT   00    00000000000          00000000000000000000000000000000000000000000 000000000000000A000000000000000000000000000000000000000000000 000000000000000000000000000000000000000     00000000                                                                                                                        000000000000000000
F0010000006367700005000090040527000013552100000000000000000201410080002001MIL TORNILLOS SAS                                 D000000000036000000000000000000000100010010000000000000000000000F0010000006367700520141008000101 00000000000000000000000000000000000000000000000000000000000000000000000000000000000000000000000000000000000000000N 00000000000NCONT   00    00000000000          00000000000000000000000000000000000000000000 000000000000000A000000000000000000000000000000000000000000000 000000000000000000000000000000000000000     00000000                                                                                                                        000000000000000000
F0010000006367800001000090040527000011050500000000000000000201410080002001MIL TORNILLOS SAS                                 D000000001300000000000000000000000100010010000000000000000000000F0010000006367800120141008000101 00000000000000000000000000000000000000000000000000000000000000000000000000000000000000000000000000000000000000000N 00000000000NCONT   00    00000000000          00000000000000000000000000000000000000000000 000000000000000A000000000000000000000000000000000000000000000 000000000000000000000000000000000000000     00000000                                                                                                                        000000000000000000
F0010000006367800002000090040527000041450500000000000000000201410080002001MIL TORNILLOS SAS                                 C000000001200000000000000000000000100010010000000000000000000000F0010000006367800220141008000101 00000000000000000000000000000000000000000000000000000000000000000000000000000000000000000000000000000000000000000N 00000000000NCONT   00    00000000000          00000000000000000000000000000000000000000000 000000000000000A000000000000000000000000000000000000000000000 000000000000000000000000000000000000000     00000000                                                                                                                        000000000000000000
F0010000006367800003000090040527000042505000000000000000000201410080002001MIL TORNILLOS SAS                                 C000000000100000000000000000000000100010010000000000000000000000F0010000006367800320141008000101 00000000000000000000000000000000000000000000000000000000000000000000000000000000000000000000000000000000000000000N 00000000000NCONT   00    00000000000          00000000000000000000000000000000000000000000 000000000000000A000000000000000000000000000000000000000000000 000000000000000000000000000000000000000     00000000                                                                                                                        000000000000000000
F0010000006367800004000090040527000023658300000000000000000201410080002001MIL TORNILLOS SAS                                 C000000000009600000000000000000000100010010000000000000000000000F0010000006367800420141008000101 00000000000000000000000000000000000000000000000000000000000000000000000000000000000000000000000000000000000000000N 00000000000NCONT   00    00000000000          00000000000000000000000000000000000000000000 000000000000000A000000000000000000000000000000000000000000000 000000000000000000000000000000000000000     00000000                                                                                                                        000000000000000000
F0010000006367800005000090040527000013552100000000000000000201410080002001MIL TORNILLOS SAS                                 D000000000009600000000000000000000100010010000000000000000000000F0010000006367800520141008000101 00000000000000000000000000000000000000000000000000000000000000000000000000000000000000000000000000000000000000000N 00000000000NCONT   00    00000000000          00000000000000000000000000000000000000000000 000000000000000A000000000000000000000000000000000000000000000 000000000000000000000000000000000000000     00000000                                                                                                                        000000000000000000
F0010000006367900001000007214782600011050500000000000000000201410080002001OSCAR JOSE LIAN ROCHA                             D000000001400000000000000000000000100010010000000000000000000000F0010000006367900120141008000101 00000000000000000000000000000000000000000000000000000000000000000000000000000000000000000000000000000000000000000N 00000000000NCONT   00    00000000000          00000000000000000000000000000000000000000000 000000000000000A000000000000000000000000000000000000000000000 000000000000000000000000000000000000000     00000000                                                                                                                        000000000000000000
F0010000006367900002000007214782600041450500000000000000000201410080002001OSCAR JOSE LIAN ROCHA                             C000000001200000000000000000000000100010010000000000000000000000F0010000006367900220141008000101 00000000000000000000000000000000000000000000000000000000000000000000000000000000000000000000000000000000000000000N 00000000000NCONT   00    00000000000          00000000000000000000000000000000000000000000 000000000000000A000000000000000000000000000000000000000000000 000000000000000000000000000000000000000     00000000                                                                                                                        000000000000000000
F0010000006367900003000007214782600042505000000000000000000201410080002001OSCAR JOSE LIAN ROCHA                             C000000000200000000000000000000000100010010000000000000000000000F0010000006367900320141008000101 00000000000000000000000000000000000000000000000000000000000000000000000000000000000000000000000000000000000000000N 00000000000NCONT   00    00000000000          00000000000000000000000000000000000000000000 000000000000000A000000000000000000000000000000000000000000000 000000000000000000000000000000000000000     00000000                                                                                                                        000000000000000000
F0010000006367900004000007214782600023658300000000000000000201410080002001OSCAR JOSE LIAN ROCHA                             C000000000009600000000000000000000100010010000000000000000000000F0010000006367900420141008000101 00000000000000000000000000000000000000000000000000000000000000000000000000000000000000000000000000000000000000000N 00000000000NCONT   00    00000000000          00000000000000000000000000000000000000000000 000000000000000A000000000000000000000000000000000000000000000 000000000000000000000000000000000000000     00000000                                                                                                                        000000000000000000
F0010000006367900005000007214782600013552100000000000000000201410080002001OSCAR JOSE LIAN ROCHA                             D000000000009600000000000000000000100010010000000000000000000000F0010000006367900520141008000101 00000000000000000000000000000000000000000000000000000000000000000000000000000000000000000000000000000000000000000N 00000000000NCONT   00    00000000000          00000000000000000000000000000000000000000000 000000000000000A000000000000000000000000000000000000000000000 000000000000000000000000000000000000000     00000000                                                                                                                        000000000000000000
F0010000006368000001000086003979400011050500000000000000000201410080002001CALYPSO BARRANQUILLA LTDA                         D000000000790000000000000000000000100010010000000000000000000000F0010000006368000120141008000101 00000000000000000000000000000000000000000000000000000000000000000000000000000000000000000000000000000000000000000N 00000000000NCONT   00    00000000000          00000000000000000000000000000000000000000000 000000000000000A000000000000000000000000000000000000000000000 000000000000000000000000000000000000000     00000000                                                                                                                        000000000000000000
F0010000006368000002000086003979400041450500000000000000000201410080002001CALYPSO BARRANQUILLA LTDA                         C000000000700000000000000000000000100010010000000000000000000000F0010000006368000220141008000101 00000000000000000000000000000000000000000000000000000000000000000000000000000000000000000000000000000000000000000N 00000000000NCONT   00    00000000000          00000000000000000000000000000000000000000000 000000000000000A000000000000000000000000000000000000000000000 000000000000000000000000000000000000000     00000000                                                                                                                        000000000000000000
F0010000006368000003000086003979400042505000000000000000000201410080002001CALYPSO BARRANQUILLA LTDA                         C000000000090000000000000000000000100010010000000000000000000000F0010000006368000320141008000101 00000000000000000000000000000000000000000000000000000000000000000000000000000000000000000000000000000000000000000N 00000000000NCONT   00    00000000000          00000000000000000000000000000000000000000000 000000000000000A000000000000000000000000000000000000000000000 000000000000000000000000000000000000000     00000000                                                                                                                        000000000000000000
F0010000006368000004000086003979400023658300000000000000000201410080002001CALYPSO BARRANQUILLA LTDA                         C000000000005600000000000000000000100010010000000000000000000000F0010000006368000420141008000101 00000000000000000000000000000000000000000000000000000000000000000000000000000000000000000000000000000000000000000N 00000000000NCONT   00    00000000000          00000000000000000000000000000000000000000000 000000000000000A000000000000000000000000000000000000000000000 000000000000000000000000000000000000000     00000000                                                                                                                        000000000000000000
F0010000006368000005000086003979400013552100000000000000000201410080002001CALYPSO BARRANQUILLA LTDA                         D000000000005600000000000000000000100010010000000000000000000000F0010000006368000520141008000101 00000000000000000000000000000000000000000000000000000000000000000000000000000000000000000000000000000000000000000N 00000000000NCONT   00    00000000000          00000000000000000000000000000000000000000000 000000000000000A000000000000000000000000000000000000000000000 000000000000000000000000000000000000000     00000000                                                                                                                        000000000000000000
F0010000006368100001000000866840800011050500000000000000000201410080002001CACHARRERIA MARTIN                                D000000006000000000000000000000000100010010000000000000000000000F0010000006368100120141008000101 00000000000000000000000000000000000000000000000000000000000000000000000000000000000000000000000000000000000000000N 00000000000NCONT   00    00000000000          00000000000000000000000000000000000000000000 000000000000000A000000000000000000000000000000000000000000000 000000000000000000000000000000000000000     00000000                                                                                                                        000000000000000000
F0010000006368100002000000866840800041450500000000000000000201410080002001CACHARRERIA MARTIN                                C000000004500000000000000000000000100010010000000000000000000000F0010000006368100220141008000101 00000000000000000000000000000000000000000000000000000000000000000000000000000000000000000000000000000000000000000N 00000000000NCONT   00    00000000000          00000000000000000000000000000000000000000000 000000000000000A000000000000000000000000000000000000000000000 000000000000000000000000000000000000000     00000000                                                                                                                        000000000000000000
F0010000006368100003000000866840800042505000000000000000000201410080002001CACHARRERIA MARTIN                                C000000001500000000000000000000000100010010000000000000000000000F0010000006368100320141008000101 00000000000000000000000000000000000000000000000000000000000000000000000000000000000000000000000000000000000000000N 00000000000NCONT   00    00000000000          00000000000000000000000000000000000000000000 000000000000000A000000000000000000000000000000000000000000000 000000000000000000000000000000000000000     00000000                                                                                                                        000000000000000000
F0010000006368100004000000866840800023658300000000000000000201410080002001CACHARRERIA MARTIN                                C000000000036000000000000000000000100010010000000000000000000000F0010000006368100420141008000101 00000000000000000000000000000000000000000000000000000000000000000000000000000000000000000000000000000000000000000N 00000000000NCONT   00    00000000000          00000000000000000000000000000000000000000000 000000000000000A000000000000000000000000000000000000000000000 000000000000000000000000000000000000000     00000000                                                                                                                        000000000000000000
F0010000006368100005000000866840800013552100000000000000000201410080002001CACHARRERIA MARTIN                                D000000000036000000000000000000000100010010000000000000000000000F0010000006368100520141008000101 00000000000000000000000000000000000000000000000000000000000000000000000000000000000000000000000000000000000000000N 00000000000NCONT   00    00000000000          00000000000000000000000000000000000000000000 000000000000000A000000000000000000000000000000000000000000000 000000000000000000000000000000000000000     00000000                                                                                                                        000000000000000000
F0010000006368200001000080202350700011050500000000000000000201410080002001CONNY DE LA COSTA SAS                             D000000005600000000000000000000000100010010000000000000000000000F0010000006368200120141008000101 00000000000000000000000000000000000000000000000000000000000000000000000000000000000000000000000000000000000000000N 00000000000NCONT   00    00000000000          00000000000000000000000000000000000000000000 000000000000000A000000000000000000000000000000000000000000000 000000000000000000000000000000000000000     00000000                                                                                                                        000000000000000000
F0010000006368200002000080202350700041450500000000000000000201410080002001CONNY DE LA COSTA SAS                             C000000004800000000000000000000000100010010000000000000000000000F0010000006368200220141008000101 00000000000000000000000000000000000000000000000000000000000000000000000000000000000000000000000000000000000000000N 00000000000NCONT   00    00000000000          00000000000000000000000000000000000000000000 000000000000000A000000000000000000000000000000000000000000000 000000000000000000000000000000000000000     00000000                                                                                                                        000000000000000000
F0010000006368200003000080202350700042505000000000000000000201410080002001CONNY DE LA COSTA SAS                             C000000000800000000000000000000000100010010000000000000000000000F0010000006368200320141008000101 00000000000000000000000000000000000000000000000000000000000000000000000000000000000000000000000000000000000000000N 00000000000NCONT   00    00000000000          00000000000000000000000000000000000000000000 000000000000000A000000000000000000000000000000000000000000000 000000000000000000000000000000000000000     00000000                                                                                                                        000000000000000000
F0010000006368200004000080202350700023658300000000000000000201410080002001CONNY DE LA COSTA SAS                             C000000000038400000000000000000000100010010000000000000000000000F0010000006368200420141008000101 00000000000000000000000000000000000000000000000000000000000000000000000000000000000000000000000000000000000000000N 00000000000NCONT   00    00000000000          00000000000000000000000000000000000000000000 000000000000000A000000000000000000000000000000000000000000000 000000000000000000000000000000000000000     00000000                                                                                                                        000000000000000000
F0010000006368200005000080202350700013552100000000000000000201410080002001CONNY DE LA COSTA SAS                             D000000000038400000000000000000000100010010000000000000000000000F0010000006368200520141008000101 00000000000000000000000000000000000000000000000000000000000000000000000000000000000000000000000000000000000000000N 00000000000NCONT   00    00000000000          00000000000000000000000000000000000000000000 000000000000000A000000000000000000000000000000000000000000000 000000000000000000000000000000000000000     00000000                                                                                                                        000000000000000000
F0010000006368300001000000000000000011050500000000000000000201410080002001DISPROCOL LTDA                                    D000000001950000000000000000000000100010010000000000000000000000F0010000006368300120141008000101 00000000000000000000000000000000000000000000000000000000000000000000000000000000000000000000000000000000000000000N 00000000000NCONT   00    00000000000          00000000000000000000000000000000000000000000 000000000000000A000000000000000000000000000000000000000000000 000000000000000000000000000000000000000     00000000                                                                                                                        000000000000000000
F0010000006368300002000000000000000041450500000000000000000201410080002001DISPROCOL LTDA                                    C000000001700000000000000000000000100010010000000000000000000000F0010000006368300220141008000101 00000000000000000000000000000000000000000000000000000000000000000000000000000000000000000000000000000000000000000N 00000000000NCONT   00    00000000000          00000000000000000000000000000000000000000000 000000000000000A000000000000000000000000000000000000000000000 000000000000000000000000000000000000000     00000000                                                                                                                        000000000000000000
F0010000006368300003000000000000000042505000000000000000000201410080002001DISPROCOL LTDA                                    C000000000250000000000000000000000100010010000000000000000000000F0010000006368300320141008000101 00000000000000000000000000000000000000000000000000000000000000000000000000000000000000000000000000000000000000000N 00000000000NCONT   00    00000000000          00000000000000000000000000000000000000000000 000000000000000A000000000000000000000000000000000000000000000 000000000000000000000000000000000000000     00000000                                                                                                                        000000000000000000
F0010000006368300004000000000000000023658300000000000000000201410080002001DISPROCOL LTDA                                    C000000000013600000000000000000000100010010000000000000000000000F0010000006368300420141008000101 00000000000000000000000000000000000000000000000000000000000000000000000000000000000000000000000000000000000000000N 00000000000NCONT   00    00000000000          00000000000000000000000000000000000000000000 000000000000000A000000000000000000000000000000000000000000000 000000000000000000000000000000000000000     00000000                                                                                                                        000000000000000000
F0010000006368300005000000000000000013552100000000000000000201410080002001DISPROCOL LTDA                                    D000000000013600000000000000000000100010010000000000000000000000F0010000006368300520141008000101 00000000000000000000000000000000000000000000000000000000000000000000000000000000000000000000000000000000000000000N 00000000000NCONT   00    00000000000          00000000000000000000000000000000000000000000 000000000000000A000000000000000000000000000000000000000000000 000000000000000000000000000000000000000     00000000                                                                                                                        000000000000000000
F0010000006368400001000080202350700011050500000000000000000201410080002001CONNY DE LA COSTA SAS                             D000000003500000000000000000000000100010010000000000000000000000F0010000006368400120141008000101 00000000000000000000000000000000000000000000000000000000000000000000000000000000000000000000000000000000000000000N 00000000000NCONT   00    00000000000          00000000000000000000000000000000000000000000 000000000000000A000000000000000000000000000000000000000000000 000000000000000000000000000000000000000     00000000                                                                                                                        000000000000000000
F0010000006368400002000080202350700041450500000000000000000201410080002001CONNY DE LA COSTA SAS                             C000000002600000000000000000000000100010010000000000000000000000F0010000006368400220141008000101 00000000000000000000000000000000000000000000000000000000000000000000000000000000000000000000000000000000000000000N 00000000000NCONT   00    00000000000          00000000000000000000000000000000000000000000 000000000000000A000000000000000000000000000000000000000000000 000000000000000000000000000000000000000     00000000                                                                                                                        000000000000000000
F0010000006368400003000080202350700042505000000000000000000201410080002001CONNY DE LA COSTA SAS                             C000000000900000000000000000000000100010010000000000000000000000F0010000006368400320141008000101 00000000000000000000000000000000000000000000000000000000000000000000000000000000000000000000000000000000000000000N 00000000000NCONT   00    00000000000          00000000000000000000000000000000000000000000 000000000000000A000000000000000000000000000000000000000000000 000000000000000000000000000000000000000     00000000                                                                                                                        000000000000000000
F0010000006368400004000080202350700023658300000000000000000201410080002001CONNY DE LA COSTA SAS                             C000000000020800000000000000000000100010010000000000000000000000F0010000006368400420141008000101 00000000000000000000000000000000000000000000000000000000000000000000000000000000000000000000000000000000000000000N 00000000000NCONT   00    00000000000          00000000000000000000000000000000000000000000 000000000000000A000000000000000000000000000000000000000000000 000000000000000000000000000000000000000     00000000                                                                                                                        000000000000000000
F0010000006368400005000080202350700013552100000000000000000201410080002001CONNY DE LA COSTA SAS                             D000000000020800000000000000000000100010010000000000000000000000F0010000006368400520141008000101 00000000000000000000000000000000000000000000000000000000000000000000000000000000000000000000000000000000000000000N 00000000000NCONT   00    00000000000          00000000000000000000000000000000000000000000 000000000000000A000000000000000000000000000000000000000000000 000000000000000000000000000000000000000     00000000                                                                                                                        000000000000000000
F0010000006368500001000080202350700011050500000000000000000201410080002001CONNY DE LA COSTA SAS                             D000000004400000000000000000000000100010010000000000000000000000F0010000006368500120141008000101 00000000000000000000000000000000000000000000000000000000000000000000000000000000000000000000000000000000000000000N 00000000000NCONT   00    00000000000          00000000000000000000000000000000000000000000 000000000000000A000000000000000000000000000000000000000000000 000000000000000000000000000000000000000     00000000                                                                                                                        000000000000000000
F0010000006368500002000080202350700041450500000000000000000201410080002001CONNY DE LA COSTA SAS                             C000000003600000000000000000000000100010010000000000000000000000F0010000006368500220141008000101 00000000000000000000000000000000000000000000000000000000000000000000000000000000000000000000000000000000000000000N 00000000000NCONT   00    00000000000          00000000000000000000000000000000000000000000 000000000000000A000000000000000000000000000000000000000000000 000000000000000000000000000000000000000     00000000                                                                                                                        000000000000000000
F0010000006368500003000080202350700042505000000000000000000201410080002001CONNY DE LA COSTA SAS                             C000000000800000000000000000000000100010010000000000000000000000F0010000006368500320141008000101 00000000000000000000000000000000000000000000000000000000000000000000000000000000000000000000000000000000000000000N 00000000000NCONT   00    00000000000          00000000000000000000000000000000000000000000 000000000000000A000000000000000000000000000000000000000000000 000000000000000000000000000000000000000     00000000                                                                                                                        000000000000000000
F0010000006368500004000080202350700023658300000000000000000201410080002001CONNY DE LA COSTA SAS                             C000000000028800000000000000000000100010010000000000000000000000F0010000006368500420141008000101 00000000000000000000000000000000000000000000000000000000000000000000000000000000000000000000000000000000000000000N 00000000000NCONT   00    00000000000          00000000000000000000000000000000000000000000 000000000000000A000000000000000000000000000000000000000000000 000000000000000000000000000000000000000     00000000                                                                                                                        000000000000000000
F0010000006368500005000080202350700013552100000000000000000201410080002001CONNY DE LA COSTA SAS                             D000000000028800000000000000000000100010010000000000000000000000F0010000006368500520141008000101 00000000000000000000000000000000000000000000000000000000000000000000000000000000000000000000000000000000000000000N 00000000000NCONT   00    00000000000          00000000000000000000000000000000000000000000 000000000000000A000000000000000000000000000000000000000000000 000000000000000000000000000000000000000     00000000                                                                                                                        000000000000000000
F0010000006368600001000080202350700011050500000000000000000201410080002001CONNY DE LA COSTA SAS                             D000000013000000000000000000000000100010010000000000000000000000F0010000006368600120141008000101 00000000000000000000000000000000000000000000000000000000000000000000000000000000000000000000000000000000000000000N 00000000000NCONT   00    00000000000          00000000000000000000000000000000000000000000 000000000000000A000000000000000000000000000000000000000000000 000000000000000000000000000000000000000     00000000                                                                                                                        000000000000000000
F0010000006368600002000080202350700041450500000000000000000201410080002001CONNY DE LA COSTA SAS                             C000000012000000000000000000000000100010010000000000000000000000F0010000006368600220141008000101 00000000000000000000000000000000000000000000000000000000000000000000000000000000000000000000000000000000000000000N 00000000000NCONT   00    00000000000          00000000000000000000000000000000000000000000 000000000000000A000000000000000000000000000000000000000000000 000000000000000000000000000000000000000     00000000                                                                                                                        000000000000000000
F0010000006368600003000080202350700042505000000000000000000201410080002001CONNY DE LA COSTA SAS                             C000000001000000000000000000000000100010010000000000000000000000F0010000006368600320141008000101 00000000000000000000000000000000000000000000000000000000000000000000000000000000000000000000000000000000000000000N 00000000000NCONT   00    00000000000          00000000000000000000000000000000000000000000 000000000000000A000000000000000000000000000000000000000000000 000000000000000000000000000000000000000     00000000                                                                                                                        000000000000000000
F0010000006368600004000080202350700023658300000000000000000201410080002001CONNY DE LA COSTA SAS                             C000000000096000000000000000000000100010010000000000000000000000F0010000006368600420141008000101 00000000000000000000000000000000000000000000000000000000000000000000000000000000000000000000000000000000000000000N 00000000000NCONT   00    00000000000          00000000000000000000000000000000000000000000 000000000000000A000000000000000000000000000000000000000000000 000000000000000000000000000000000000000     00000000                                                                                                                        000000000000000000
F0010000006368600005000080202350700013552100000000000000000201410080002001CONNY DE LA COSTA SAS                             D000000000096000000000000000000000100010010000000000000000000000F0010000006368600520141008000101 00000000000000000000000000000000000000000000000000000000000000000000000000000000000000000000000000000000000000000N 00000000000NCONT   00    00000000000          00000000000000000000000000000000000000000000 000000000000000A000000000000000000000000000000000000000000000 000000000000000000000000000000000000000     00000000                                                                                                                        000000000000000000
F0010000006368700001000003918375500011050500000000000000000201410080002001GLORIA PEREZ R.                                   D000000002000000000000000000000000100010010000000000000000000000F0010000006368700120141008000101 00000000000000000000000000000000000000000000000000000000000000000000000000000000000000000000000000000000000000000N 00000000000NCONT   00    00000000000          00000000000000000000000000000000000000000000 000000000000000A000000000000000000000000000000000000000000000 000000000000000000000000000000000000000     00000000                                                                                                                        000000000000000000
F0010000006368700002000003918375500041450500000000000000000201410080002001GLORIA PEREZ R.                                   C000000001000000000000000000000000100010010000000000000000000000F0010000006368700220141008000101 00000000000000000000000000000000000000000000000000000000000000000000000000000000000000000000000000000000000000000N 00000000000NCONT   00    00000000000          00000000000000000000000000000000000000000000 000000000000000A000000000000000000000000000000000000000000000 000000000000000000000000000000000000000     00000000                                                                                                                        000000000000000000
F0010000006368700003000003918375500042505000000000000000000201410080002001GLORIA PEREZ R.                                   C000000001000000000000000000000000100010010000000000000000000000F0010000006368700320141008000101 00000000000000000000000000000000000000000000000000000000000000000000000000000000000000000000000000000000000000000N 00000000000NCONT   00    00000000000          00000000000000000000000000000000000000000000 000000000000000A000000000000000000000000000000000000000000000 000000000000000000000000000000000000000     00000000                                                                                                                        000000000000000000
F0010000006368700004000003918375500023658300000000000000000201410080002001GLORIA PEREZ R.                                   C000000000008000000000000000000000100010010000000000000000000000F0010000006368700420141008000101 00000000000000000000000000000000000000000000000000000000000000000000000000000000000000000000000000000000000000000N 00000000000NCONT   00    00000000000          00000000000000000000000000000000000000000000 000000000000000A000000000000000000000000000000000000000000000 000000000000000000000000000000000000000     00000000                                                                                                                        000000000000000000
F0010000006368700005000003918375500013552100000000000000000201410080002001GLORIA PEREZ R.                                   D000000000008000000000000000000000100010010000000000000000000000F0010000006368700520141008000101 00000000000000000000000000000000000000000000000000000000000000000000000000000000000000000000000000000000000000000N 00000000000NCONT   00    00000000000          00000000000000000000000000000000000000000000 000000000000000A000000000000000000000000000000000000000000000 000000000000000000000000000000000000000     00000000                                                                                                                        000000000000000000
F0010000006368800001000000872671800011050500000000000000000201410080002001RUBEN ARENAS PARRA                                D000000001500000000000000000000000100010010000000000000000000000F0010000006368800120141008000101 00000000000000000000000000000000000000000000000000000000000000000000000000000000000000000000000000000000000000000N 00000000000NCONT   00    00000000000          00000000000000000000000000000000000000000000 000000000000000A000000000000000000000000000000000000000000000 000000000000000000000000000000000000000     00000000                                                                                                                        000000000000000000
F0010000006368800002000000872671800041450500000000000000000201410080002001RUBEN ARENAS PARRA                                C000000001000000000000000000000000100010010000000000000000000000F0010000006368800220141008000101 00000000000000000000000000000000000000000000000000000000000000000000000000000000000000000000000000000000000000000N 00000000000NCONT   00    00000000000          00000000000000000000000000000000000000000000 000000000000000A000000000000000000000000000000000000000000000 000000000000000000000000000000000000000     00000000                                                                                                                        000000000000000000
F0010000006368800003000000872671800042505000000000000000000201410080002001RUBEN ARENAS PARRA                                C000000000500000000000000000000000100010010000000000000000000000F0010000006368800320141008000101 00000000000000000000000000000000000000000000000000000000000000000000000000000000000000000000000000000000000000000N 00000000000NCONT   00    00000000000          00000000000000000000000000000000000000000000 000000000000000A000000000000000000000000000000000000000000000 000000000000000000000000000000000000000     00000000                                                                                                                        000000000000000000
F0010000006368800004000000872671800023658300000000000000000201410080002001RUBEN ARENAS PARRA                                C000000000008000000000000000000000100010010000000000000000000000F0010000006368800420141008000101 00000000000000000000000000000000000000000000000000000000000000000000000000000000000000000000000000000000000000000N 00000000000NCONT   00    00000000000          00000000000000000000000000000000000000000000 000000000000000A000000000000000000000000000000000000000000000 000000000000000000000000000000000000000     00000000                                                                                                                        000000000000000000
F0010000006368800005000000872671800013552100000000000000000201410080002001RUBEN ARENAS PARRA                                D000000000008000000000000000000000100010010000000000000000000000F0010000006368800520141008000101 00000000000000000000000000000000000000000000000000000000000000000000000000000000000000000000000000000000000000000N 00000000000NCONT   00    00000000000          00000000000000000000000000000000000000000000 000000000000000A000000000000000000000000000000000000000000000 000000000000000000000000000000000000000     00000000                                                                                                                        000000000000000000
F0010000006368900001000000872671800011050500000000000000000201410080002001RUBEN ARENAS PARRA                                D000000001400000000000000000000000100010010000000000000000000000F0010000006368900120141008000101 00000000000000000000000000000000000000000000000000000000000000000000000000000000000000000000000000000000000000000N 00000000000NCONT   00    00000000000          00000000000000000000000000000000000000000000 000000000000000A000000000000000000000000000000000000000000000 000000000000000000000000000000000000000     00000000                                                                                                                        000000000000000000
F0010000006368900002000000872671800041450500000000000000000201410080002001RUBEN ARENAS PARRA                                C000000001000000000000000000000000100010010000000000000000000000F0010000006368900220141008000101 00000000000000000000000000000000000000000000000000000000000000000000000000000000000000000000000000000000000000000N 00000000000NCONT   00    00000000000          00000000000000000000000000000000000000000000 000000000000000A000000000000000000000000000000000000000000000 000000000000000000000000000000000000000     00000000                                                                                                                        000000000000000000
F0010000006368900003000000872671800042505000000000000000000201410080002001RUBEN ARENAS PARRA                                C000000000400000000000000000000000100010010000000000000000000000F0010000006368900320141008000101 00000000000000000000000000000000000000000000000000000000000000000000000000000000000000000000000000000000000000000N 00000000000NCONT   00    00000000000          00000000000000000000000000000000000000000000 000000000000000A000000000000000000000000000000000000000000000 000000000000000000000000000000000000000     00000000                                                                                                                        000000000000000000
F0010000006368900004000000872671800023658300000000000000000201410080002001RUBEN ARENAS PARRA                                C000000000008000000000000000000000100010010000000000000000000000F0010000006368900420141008000101 00000000000000000000000000000000000000000000000000000000000000000000000000000000000000000000000000000000000000000N 00000000000NCONT   00    00000000000          00000000000000000000000000000000000000000000 000000000000000A000000000000000000000000000000000000000000000 000000000000000000000000000000000000000     00000000                                                                                                                        000000000000000000
F0010000006368900005000000872671800013552100000000000000000201410080002001RUBEN ARENAS PARRA                                D000000000008000000000000000000000100010010000000000000000000000F0010000006368900520141008000101 00000000000000000000000000000000000000000000000000000000000000000000000000000000000000000000000000000000000000000N 00000000000NCONT   00    00000000000          00000000000000000000000000000000000000000000 000000000000000A000000000000000000000000000000000000000000000 000000000000000000000000000000000000000     00000000                                                                                                                        000000000000000000
F0010000006369000001000000872671800011050500000000000000000201410080002001RUBEN ARENAS PARRA                                D000000002900000000000000000000000100010010000000000000000000000F0010000006369000120141008000101 00000000000000000000000000000000000000000000000000000000000000000000000000000000000000000000000000000000000000000N 00000000000NCONT   00    00000000000          00000000000000000000000000000000000000000000 000000000000000A000000000000000000000000000000000000000000000 000000000000000000000000000000000000000     00000000                                                                                                                        000000000000000000
F0010000006369000002000000872671800041450500000000000000000201410080002001RUBEN ARENAS PARRA                                C000000002000000000000000000000000100010010000000000000000000000F0010000006369000220141008000101 00000000000000000000000000000000000000000000000000000000000000000000000000000000000000000000000000000000000000000N 00000000000NCONT   00    00000000000          00000000000000000000000000000000000000000000 000000000000000A000000000000000000000000000000000000000000000 000000000000000000000000000000000000000     00000000                                                                                                                        000000000000000000
F0010000006369000003000000872671800042505000000000000000000201410080002001RUBEN ARENAS PARRA                                C000000000900000000000000000000000100010010000000000000000000000F0010000006369000320141008000101 00000000000000000000000000000000000000000000000000000000000000000000000000000000000000000000000000000000000000000N 00000000000NCONT   00    00000000000          00000000000000000000000000000000000000000000 000000000000000A000000000000000000000000000000000000000000000 000000000000000000000000000000000000000     00000000                                                                                                                        000000000000000000
F0010000006369000004000000872671800023658300000000000000000201410080002001RUBEN ARENAS PARRA                                C000000000016000000000000000000000100010010000000000000000000000F0010000006369000420141008000101 00000000000000000000000000000000000000000000000000000000000000000000000000000000000000000000000000000000000000000N 00000000000NCONT   00    00000000000          00000000000000000000000000000000000000000000 000000000000000A000000000000000000000000000000000000000000000 000000000000000000000000000000000000000     00000000                                                                                                                        000000000000000000
F0010000006369000005000000872671800013552100000000000000000201410080002001RUBEN ARENAS PARRA                                D000000000016000000000000000000000100010010000000000000000000000F0010000006369000520141008000101 00000000000000000000000000000000000000000000000000000000000000000000000000000000000000000000000000000000000000000N 00000000000NCONT   00    00000000000          00000000000000000000000000000000000000000000 000000000000000A000000000000000000000000000000000000000000000 000000000000000000000000000000000000000     00000000                                                                                                                        000000000000000000
F0010000006369100001000000876579700011050500000000000000000201410080002001JOSE LUIS MUÑOZ                                  D000000006000000000000000000000000100010010000000000000000000000F0010000006369100120141008000101 00000000000000000000000000000000000000000000000000000000000000000000000000000000000000000000000000000000000000000N 00000000000NCONT   00    00000000000          00000000000000000000000000000000000000000000 000000000000000A000000000000000000000000000000000000000000000 000000000000000000000000000000000000000     00000000                                                                                                                        000000000000000000
F0010000006369100002000000876579700041450500000000000000000201410080002001JOSE LUIS MUÑOZ                                  C000000005600000000000000000000000100010010000000000000000000000F0010000006369100220141008000101 00000000000000000000000000000000000000000000000000000000000000000000000000000000000000000000000000000000000000000N 00000000000NCONT   00    00000000000          00000000000000000000000000000000000000000000 000000000000000A000000000000000000000000000000000000000000000 000000000000000000000000000000000000000     00000000                                                                                                                        000000000000000000
F0010000006369100003000000876579700042505000000000000000000201410080002001JOSE LUIS MUÑOZ                                  C000000000400000000000000000000000100010010000000000000000000000F0010000006369100320141008000101 00000000000000000000000000000000000000000000000000000000000000000000000000000000000000000000000000000000000000000N 00000000000NCONT   00    00000000000          00000000000000000000000000000000000000000000 000000000000000A000000000000000000000000000000000000000000000 000000000000000000000000000000000000000     00000000                                                                                                                        000000000000000000
F0010000006369100004000000876579700023658300000000000000000201410080002001JOSE LUIS MUÑOZ                                  C000000000044800000000000000000000100010010000000000000000000000F0010000006369100420141008000101 00000000000000000000000000000000000000000000000000000000000000000000000000000000000000000000000000000000000000000N 00000000000NCONT   00    00000000000          00000000000000000000000000000000000000000000 000000000000000A000000000000000000000000000000000000000000000 000000000000000000000000000000000000000     00000000                                                                                                                        000000000000000000
F0010000006369100005000000876579700013552100000000000000000201410080002001JOSE LUIS MUÑOZ                                  D000000000044800000000000000000000100010010000000000000000000000F0010000006369100520141008000101 00000000000000000000000000000000000000000000000000000000000000000000000000000000000000000000000000000000000000000N 00000000000NCONT   00    00000000000          00000000000000000000000000000000000000000000 000000000000000A000000000000000000000000000000000000000000000 000000000000000000000000000000000000000     00000000                                                                                                                        000000000000000000
F0010000006369200001000000876579700011050500000000000000000201410080002001JOSE LUIS MUÑOZ                                  D000000002000000000000000000000000100010010000000000000000000000F0010000006369200120141008000101 00000000000000000000000000000000000000000000000000000000000000000000000000000000000000000000000000000000000000000N 00000000000NCONT   00    00000000000          00000000000000000000000000000000000000000000 000000000000000A000000000000000000000000000000000000000000000 000000000000000000000000000000000000000     00000000                                                                                                                        000000000000000000
F0010000006369200002000000876579700041450500000000000000000201410080002001JOSE LUIS MUÑOZ                                  C000000001800000000000000000000000100010010000000000000000000000F0010000006369200220141008000101 00000000000000000000000000000000000000000000000000000000000000000000000000000000000000000000000000000000000000000N 00000000000NCONT   00    00000000000          00000000000000000000000000000000000000000000 000000000000000A000000000000000000000000000000000000000000000 000000000000000000000000000000000000000     00000000                                                                                                                        000000000000000000
F0010000006369200003000000876579700042505000000000000000000201410080002001JOSE LUIS MUÑOZ                                  C000000000200000000000000000000000100010010000000000000000000000F0010000006369200320141008000101 00000000000000000000000000000000000000000000000000000000000000000000000000000000000000000000000000000000000000000N 00000000000NCONT   00    00000000000          00000000000000000000000000000000000000000000 000000000000000A000000000000000000000000000000000000000000000 000000000000000000000000000000000000000     00000000                                                                                                                        000000000000000000
F0010000006369200004000000876579700023658300000000000000000201410080002001JOSE LUIS MUÑOZ                                  C000000000014400000000000000000000100010010000000000000000000000F0010000006369200420141008000101 00000000000000000000000000000000000000000000000000000000000000000000000000000000000000000000000000000000000000000N 00000000000NCONT   00    00000000000          00000000000000000000000000000000000000000000 000000000000000A000000000000000000000000000000000000000000000 000000000000000000000000000000000000000     00000000                                                                                                                        000000000000000000
F0010000006369200005000000876579700013552100000000000000000201410080002001JOSE LUIS MUÑOZ                                  D000000000014400000000000000000000100010010000000000000000000000F0010000006369200520141008000101 00000000000000000000000000000000000000000000000000000000000000000000000000000000000000000000000000000000000000000N 00000000000NCONT   00    00000000000          00000000000000000000000000000000000000000000 000000000000000A000000000000000000000000000000000000000000000 000000000000000000000000000000000000000     00000000                                                                                                                        000000000000000000
