F0010000007051500001000007016511700011050500000000000000000201504220002001YEISON CASTAÑO                                   D000000001600000000000000000000000100010010000000000000000000000F0010000007051500120150422000101 00000000000000000000000000000000000000000000000000000000000000000000000000000000000000000000000000000000000000000N 00000000000NCONT   00    00000000000          00000000000000000000000000000000000000000000 000000000000000A000000000000000000000000000000000000000000000 000000000000000000000000000000000000000     00000000                                                                                                                        000000000000000000
F0010000007051500002000007016511700041450500000000000000000201504220002001YEISON CASTAÑO                                   C000000001500000000000000000000000100010010000000000000000000000F0010000007051500220150422000101 00000000000000000000000000000000000000000000000000000000000000000000000000000000000000000000000000000000000000000N 00000000000NCONT   00    00000000000          00000000000000000000000000000000000000000000 000000000000000A000000000000000000000000000000000000000000000 000000000000000000000000000000000000000     00000000                                                                                                                        000000000000000000
F0010000007051500003000007016511700042505000000000000000000201504220002001YEISON CASTAÑO                                   C000000000100000000000000000000000100010010000000000000000000000F0010000007051500320150422000101 00000000000000000000000000000000000000000000000000000000000000000000000000000000000000000000000000000000000000000N 00000000000NCONT   00    00000000000          00000000000000000000000000000000000000000000 000000000000000A000000000000000000000000000000000000000000000 000000000000000000000000000000000000000     00000000                                                                                                                        000000000000000000
F0010000007051500004000007016511700023658300000000000000000201504220002001YEISON CASTAÑO                                   C000000000012000000000000000000000100010010000000000000000000000F0010000007051500420150422000101 00000000000000000000000000000000000000000000000000000000000000000000000000000000000000000000000000000000000000000N 00000000000NCONT   00    00000000000          00000000000000000000000000000000000000000000 000000000000000A000000000000000000000000000000000000000000000 000000000000000000000000000000000000000     00000000                                                                                                                        000000000000000000
F0010000007051500005000007016511700013552100000000000000000201504220002001YEISON CASTAÑO                                   D000000000012000000000000000000000100010010000000000000000000000F0010000007051500520150422000101 00000000000000000000000000000000000000000000000000000000000000000000000000000000000000000000000000000000000000000N 00000000000NCONT   00    00000000000          00000000000000000000000000000000000000000000 000000000000000A000000000000000000000000000000000000000000000 000000000000000000000000000000000000000     00000000                                                                                                                        000000000000000000
F0010000007051600001000090020547900011050500000000000000000201504220002001DAC DEL CARIBE S.A.S.                             D000000003500000000000000000000000100010010000000000000000000000F0010000007051600120150422000101 00000000000000000000000000000000000000000000000000000000000000000000000000000000000000000000000000000000000000000N 00000000000NCONT   00    00000000000          00000000000000000000000000000000000000000000 000000000000000A000000000000000000000000000000000000000000000 000000000000000000000000000000000000000     00000000                                                                                                                        000000000000000000
F0010000007051600002000090020547900041450500000000000000000201504220002001DAC DEL CARIBE S.A.S.                             C000000002500000000000000000000000100010010000000000000000000000F0010000007051600220150422000101 00000000000000000000000000000000000000000000000000000000000000000000000000000000000000000000000000000000000000000N 00000000000NCONT   00    00000000000          00000000000000000000000000000000000000000000 000000000000000A000000000000000000000000000000000000000000000 000000000000000000000000000000000000000     00000000                                                                                                                        000000000000000000
F0010000007051600003000090020547900042505000000000000000000201504220002001DAC DEL CARIBE S.A.S.                             C000000001000000000000000000000000100010010000000000000000000000F0010000007051600320150422000101 00000000000000000000000000000000000000000000000000000000000000000000000000000000000000000000000000000000000000000N 00000000000NCONT   00    00000000000          00000000000000000000000000000000000000000000 000000000000000A000000000000000000000000000000000000000000000 000000000000000000000000000000000000000     00000000                                                                                                                        000000000000000000
F0010000007051600004000090020547900023658300000000000000000201504220002001DAC DEL CARIBE S.A.S.                             C000000000020000000000000000000000100010010000000000000000000000F0010000007051600420150422000101 00000000000000000000000000000000000000000000000000000000000000000000000000000000000000000000000000000000000000000N 00000000000NCONT   00    00000000000          00000000000000000000000000000000000000000000 000000000000000A000000000000000000000000000000000000000000000 000000000000000000000000000000000000000     00000000                                                                                                                        000000000000000000
F0010000007051600005000090020547900013552100000000000000000201504220002001DAC DEL CARIBE S.A.S.                             D000000000020000000000000000000000100010010000000000000000000000F0010000007051600520150422000101 00000000000000000000000000000000000000000000000000000000000000000000000000000000000000000000000000000000000000000N 00000000000NCONT   00    00000000000          00000000000000000000000000000000000000000000 000000000000000A000000000000000000000000000000000000000000000 000000000000000000000000000000000000000     00000000                                                                                                                        000000000000000000
F0010000007051700001000090020547900011050500000000000000000201504220002001DAC DEL CARIBE S.A.S.                             D000000001450000000000000000000000100010010000000000000000000000F0010000007051700120150422000101 00000000000000000000000000000000000000000000000000000000000000000000000000000000000000000000000000000000000000000N 00000000000NCONT   00    00000000000          00000000000000000000000000000000000000000000 000000000000000A000000000000000000000000000000000000000000000 000000000000000000000000000000000000000     00000000                                                                                                                        000000000000000000
F0010000007051700002000090020547900041450500000000000000000201504220002001DAC DEL CARIBE S.A.S.                             C000000000920000000000000000000000100010010000000000000000000000F0010000007051700220150422000101 00000000000000000000000000000000000000000000000000000000000000000000000000000000000000000000000000000000000000000N 00000000000NCONT   00    00000000000          00000000000000000000000000000000000000000000 000000000000000A000000000000000000000000000000000000000000000 000000000000000000000000000000000000000     00000000                                                                                                                        000000000000000000
F0010000007051700003000090020547900042505000000000000000000201504220002001DAC DEL CARIBE S.A.S.                             C000000000530000000000000000000000100010010000000000000000000000F0010000007051700320150422000101 00000000000000000000000000000000000000000000000000000000000000000000000000000000000000000000000000000000000000000N 00000000000NCONT   00    00000000000          00000000000000000000000000000000000000000000 000000000000000A000000000000000000000000000000000000000000000 000000000000000000000000000000000000000     00000000                                                                                                                        000000000000000000
F0010000007051700004000090020547900023658300000000000000000201504220002001DAC DEL CARIBE S.A.S.                             C000000000007400000000000000000000100010010000000000000000000000F0010000007051700420150422000101 00000000000000000000000000000000000000000000000000000000000000000000000000000000000000000000000000000000000000000N 00000000000NCONT   00    00000000000          00000000000000000000000000000000000000000000 000000000000000A000000000000000000000000000000000000000000000 000000000000000000000000000000000000000     00000000                                                                                                                        000000000000000000
F0010000007051700005000090020547900013552100000000000000000201504220002001DAC DEL CARIBE S.A.S.                             D000000000007400000000000000000000100010010000000000000000000000F0010000007051700520150422000101 00000000000000000000000000000000000000000000000000000000000000000000000000000000000000000000000000000000000000000N 00000000000NCONT   00    00000000000          00000000000000000000000000000000000000000000 000000000000000A000000000000000000000000000000000000000000000 000000000000000000000000000000000000000     00000000                                                                                                                        000000000000000000
F0010000007051800001000090020547900011050500000000000000000201504220002001DAC DEL CARIBE S.A.S.                             D000000001650000000000000000000000100010010000000000000000000000F0010000007051800120150422000101 00000000000000000000000000000000000000000000000000000000000000000000000000000000000000000000000000000000000000000N 00000000000NCONT   00    00000000000          00000000000000000000000000000000000000000000 000000000000000A000000000000000000000000000000000000000000000 000000000000000000000000000000000000000     00000000                                                                                                                        000000000000000000
F0010000007051800002000090020547900041450500000000000000000201504220002001DAC DEL CARIBE S.A.S.                             C000000000920000000000000000000000100010010000000000000000000000F0010000007051800220150422000101 00000000000000000000000000000000000000000000000000000000000000000000000000000000000000000000000000000000000000000N 00000000000NCONT   00    00000000000          00000000000000000000000000000000000000000000 000000000000000A000000000000000000000000000000000000000000000 000000000000000000000000000000000000000     00000000                                                                                                                        000000000000000000
F0010000007051800003000090020547900042505000000000000000000201504220002001DAC DEL CARIBE S.A.S.                             C000000000730000000000000000000000100010010000000000000000000000F0010000007051800320150422000101 00000000000000000000000000000000000000000000000000000000000000000000000000000000000000000000000000000000000000000N 00000000000NCONT   00    00000000000          00000000000000000000000000000000000000000000 000000000000000A000000000000000000000000000000000000000000000 000000000000000000000000000000000000000     00000000                                                                                                                        000000000000000000
F0010000007051800004000090020547900023658300000000000000000201504220002001DAC DEL CARIBE S.A.S.                             C000000000007400000000000000000000100010010000000000000000000000F0010000007051800420150422000101 00000000000000000000000000000000000000000000000000000000000000000000000000000000000000000000000000000000000000000N 00000000000NCONT   00    00000000000          00000000000000000000000000000000000000000000 000000000000000A000000000000000000000000000000000000000000000 000000000000000000000000000000000000000     00000000                                                                                                                        000000000000000000
F0010000007051800005000090020547900013552100000000000000000201504220002001DAC DEL CARIBE S.A.S.                             D000000000007400000000000000000000100010010000000000000000000000F0010000007051800520150422000101 00000000000000000000000000000000000000000000000000000000000000000000000000000000000000000000000000000000000000000N 00000000000NCONT   00    00000000000          00000000000000000000000000000000000000000000 000000000000000A000000000000000000000000000000000000000000000 000000000000000000000000000000000000000     00000000                                                                                                                        000000000000000000
F0010000007051900001000086003979400013050500000000000000000201504220002001CALYPSO BARRANQUILLA LTDA                         D000000059057700000000000000000000100010010000000000000000000000F0010000007051900120150422000101 00000000000000000000000000000000000000000000000000000000000000000000000000000000000000000000000000000000000000000N 00000000000NCONT   00    00000000000          00000000000000000000000000000000000000000000 000000000000000A000000000000000000000000000000000000000000000 000000000000000000000000000000000000000     00000000                                                                                                                        000000000000000000
F0010000007051900002000086003979400041450500000000000000000201504220002001CALYPSO BARRANQUILLA LTDA                         C000000057060000000000000000000000100010010000000000000000000000F0010000007051900220150422000101 00000000000000000000000000000000000000000000000000000000000000000000000000000000000000000000000000000000000000000N 00000000000NCONT   00    00000000000          00000000000000000000000000000000000000000000 000000000000000A000000000000000000000000000000000000000000000 000000000000000000000000000000000000000     00000000                                                                                                                        000000000000000000
F0010000007051900003000086003979400042505000000000000000000201504220002001CALYPSO BARRANQUILLA LTDA                         C000000001997700000000000000000000100010010000000000000000000000F0010000007051900320150422000101 00000000000000000000000000000000000000000000000000000000000000000000000000000000000000000000000000000000000000000N 00000000000NCONT   00    00000000000          00000000000000000000000000000000000000000000 000000000000000A000000000000000000000000000000000000000000000 000000000000000000000000000000000000000     00000000                                                                                                                        000000000000000000
F0010000007051900004000086003979400023658300000000000000000201504220002001CALYPSO BARRANQUILLA LTDA                         C000000000456500000000000000000000100010010000000000000000000000F0010000007051900420150422000101 00000000000000000000000000000000000000000000000000000000000000000000000000000000000000000000000000000000000000000N 00000000000NCONT   00    00000000000          00000000000000000000000000000000000000000000 000000000000000A000000000000000000000000000000000000000000000 000000000000000000000000000000000000000     00000000                                                                                                                        000000000000000000
F0010000007051900005000086003979400013552100000000000000000201504220002001CALYPSO BARRANQUILLA LTDA                         D000000000456500000000000000000000100010010000000000000000000000F0010000007051900520150422000101 00000000000000000000000000000000000000000000000000000000000000000000000000000000000000000000000000000000000000000N 00000000000NCONT   00    00000000000          00000000000000000000000000000000000000000000 000000000000000A000000000000000000000000000000000000000000000 000000000000000000000000000000000000000     00000000                                                                                                                        000000000000000000
F0010000007052000001000081102758700013050500000000000000000201504220002001C.I. ABRACOL S.A EMA                              D000000080545000000000000000000000100010010000000000000000000000F0010000007052000120150422000101 00000000000000000000000000000000000000000000000000000000000000000000000000000000000000000000000000000000000000000N 00000000000NCONT   00    00000000000          00000000000000000000000000000000000000000000 000000000000000A000000000000000000000000000000000000000000000 000000000000000000000000000000000000000     00000000                                                                                                                        000000000000000000
F0010000007052000002000081102758700041450500000000000000000201504220002001C.I. ABRACOL S.A EMA                              C000000055540000000000000000000000100010010000000000000000000000F0010000007052000220150422000101 00000000000000000000000000000000000000000000000000000000000000000000000000000000000000000000000000000000000000000N 00000000000NCONT   00    00000000000          00000000000000000000000000000000000000000000 000000000000000A000000000000000000000000000000000000000000000 000000000000000000000000000000000000000     00000000                                                                                                                        000000000000000000
F0010000007052000003000081102758700041750100000000000000000201504220002001C.I. ABRACOL S.A EMA                              D000000001666200000000000000000000100010010000000000000000000000F0010000007052000320150422000101 00000000000000000000000000000000000000000000000000000000000000000000000000000000000000000000000000000000000000000N 00000000000NCONT   00    00000000000          00000000000000000000000000000000000000000000 000000000000000A000000000000000000000000000000000000000000000 000000000000000000000000000000000000000     00000000                                                                                                                        000000000000000000
F0010000007052000004000081102758700042505000000000000000000201504220002001C.I. ABRACOL S.A EMA                              C000000026671200000000000000000000100010010000000000000000000000F0010000007052000420150422000101 00000000000000000000000000000000000000000000000000000000000000000000000000000000000000000000000000000000000000000N 00000000000NCONT   00    00000000000          00000000000000000000000000000000000000000000 000000000000000A000000000000000000000000000000000000000000000 000000000000000000000000000000000000000     00000000                                                                                                                        000000000000000000
F0010000007052000005000081102758700023658300000000000000000201504220002001C.I. ABRACOL S.A EMA                              C000000000444300000000000000000000100010010000000000000000000000F0010000007052000520150422000101 00000000000000000000000000000000000000000000000000000000000000000000000000000000000000000000000000000000000000000N 00000000000NCONT   00    00000000000          00000000000000000000000000000000000000000000 000000000000000A000000000000000000000000000000000000000000000 000000000000000000000000000000000000000     00000000                                                                                                                        000000000000000000
F0010000007052000006000081102758700013552100000000000000000201504220002001C.I. ABRACOL S.A EMA                              D000000000444300000000000000000000100010010000000000000000000000F0010000007052000620150422000101 00000000000000000000000000000000000000000000000000000000000000000000000000000000000000000000000000000000000000000N 00000000000NCONT   00    00000000000          00000000000000000000000000000000000000000000 000000000000000A000000000000000000000000000000000000000000000 000000000000000000000000000000000000000     00000000                                                                                                                        000000000000000000
F0010000007052100001000081102758700013050500000000000000000201504220002001C.I. ABRACOL S.A EMA                              D000000011100300000000000000000000100010010000000000000000000000F0010000007052100120150422000101 00000000000000000000000000000000000000000000000000000000000000000000000000000000000000000000000000000000000000000N 00000000000NCONT   00    00000000000          00000000000000000000000000000000000000000000 000000000000000A000000000000000000000000000000000000000000000 000000000000000000000000000000000000000     00000000                                                                                                                        000000000000000000
F0010000007052100002000081102758700041450500000000000000000201504220002001C.I. ABRACOL S.A EMA                              C000000006670000000000000000000000100010010000000000000000000000F0010000007052100220150422000101 00000000000000000000000000000000000000000000000000000000000000000000000000000000000000000000000000000000000000000N 00000000000NCONT   00    00000000000          00000000000000000000000000000000000000000000 000000000000000A000000000000000000000000000000000000000000000 000000000000000000000000000000000000000     00000000                                                                                                                        000000000000000000
F0010000007052100003000081102758700041750100000000000000000201504220002001C.I. ABRACOL S.A EMA                              D000000000200100000000000000000000100010010000000000000000000000F0010000007052100320150422000101 00000000000000000000000000000000000000000000000000000000000000000000000000000000000000000000000000000000000000000N 00000000000NCONT   00    00000000000          00000000000000000000000000000000000000000000 000000000000000A000000000000000000000000000000000000000000000 000000000000000000000000000000000000000     00000000                                                                                                                        000000000000000000
F0010000007052100004000081102758700042505000000000000000000201504220002001C.I. ABRACOL S.A EMA                              C000000004630400000000000000000000100010010000000000000000000000F0010000007052100420150422000101 00000000000000000000000000000000000000000000000000000000000000000000000000000000000000000000000000000000000000000N 00000000000NCONT   00    00000000000          00000000000000000000000000000000000000000000 000000000000000A000000000000000000000000000000000000000000000 000000000000000000000000000000000000000     00000000                                                                                                                        000000000000000000
F0010000007052100005000081102758700023658300000000000000000201504220002001C.I. ABRACOL S.A EMA                              C000000000053400000000000000000000100010010000000000000000000000F0010000007052100520150422000101 00000000000000000000000000000000000000000000000000000000000000000000000000000000000000000000000000000000000000000N 00000000000NCONT   00    00000000000          00000000000000000000000000000000000000000000 000000000000000A000000000000000000000000000000000000000000000 000000000000000000000000000000000000000     00000000                                                                                                                        000000000000000000
F0010000007052100006000081102758700013552100000000000000000201504220002001C.I. ABRACOL S.A EMA                              D000000000053400000000000000000000100010010000000000000000000000F0010000007052100620150422000101 00000000000000000000000000000000000000000000000000000000000000000000000000000000000000000000000000000000000000000N 00000000000NCONT   00    00000000000          00000000000000000000000000000000000000000000 000000000000000A000000000000000000000000000000000000000000000 000000000000000000000000000000000000000     00000000                                                                                                                        000000000000000000
F0010000007052200001000089190114700013050500000000000000000201504220002001SUPAPEL S.A.S                                     D000000003602600000000000000000000100010010000000000000000000000F0010000007052200120150422000101 00000000000000000000000000000000000000000000000000000000000000000000000000000000000000000000000000000000000000000N 00000000000NCONT   00    00000000000          00000000000000000000000000000000000000000000 000000000000000A000000000000000000000000000000000000000000000 000000000000000000000000000000000000000     00000000                                                                                                                        000000000000000000
F0010000007052200002000089190114700041450500000000000000000201504220002001SUPAPEL S.A.S                                     C000000003027000000000000000000000100010010000000000000000000000F0010000007052200220150422000101 00000000000000000000000000000000000000000000000000000000000000000000000000000000000000000000000000000000000000000N 00000000000NCONT   00    00000000000          00000000000000000000000000000000000000000000 000000000000000A000000000000000000000000000000000000000000000 000000000000000000000000000000000000000     00000000                                                                                                                        000000000000000000
F0010000007052200003000089190114700042505000000000000000000201504220002001SUPAPEL S.A.S                                     C000000000575600000000000000000000100010010000000000000000000000F0010000007052200320150422000101 00000000000000000000000000000000000000000000000000000000000000000000000000000000000000000000000000000000000000000N 00000000000NCONT   00    00000000000          00000000000000000000000000000000000000000000 000000000000000A000000000000000000000000000000000000000000000 000000000000000000000000000000000000000     00000000                                                                                                                        000000000000000000
F0010000007052200004000089190114700023658300000000000000000201504220002001SUPAPEL S.A.S                                     C000000000024200000000000000000000100010010000000000000000000000F0010000007052200420150422000101 00000000000000000000000000000000000000000000000000000000000000000000000000000000000000000000000000000000000000000N 00000000000NCONT   00    00000000000          00000000000000000000000000000000000000000000 000000000000000A000000000000000000000000000000000000000000000 000000000000000000000000000000000000000     00000000                                                                                                                        000000000000000000
F0010000007052200005000089190114700013552100000000000000000201504220002001SUPAPEL S.A.S                                     D000000000024200000000000000000000100010010000000000000000000000F0010000007052200520150422000101 00000000000000000000000000000000000000000000000000000000000000000000000000000000000000000000000000000000000000000N 00000000000NCONT   00    00000000000          00000000000000000000000000000000000000000000 000000000000000A000000000000000000000000000000000000000000000 000000000000000000000000000000000000000     00000000                                                                                                                        000000000000000000
F0010000007052300001000080200250700013050500000000000000000201504220002001ETICOL SAS                                        D000000050350000000000000000000000100010010000000000000000000000F0010000007052300120150422000101 00000000000000000000000000000000000000000000000000000000000000000000000000000000000000000000000000000000000000000N 00000000000NCONT   00    00000000000          00000000000000000000000000000000000000000000 000000000000000A000000000000000000000000000000000000000000000 000000000000000000000000000000000000000     00000000                                                                                                                        000000000000000000
F0010000007052300002000080200250700041450500000000000000000201504220002001ETICOL SAS                                        C000000049750000000000000000000000100010010000000000000000000000F0010000007052300220150422000101 00000000000000000000000000000000000000000000000000000000000000000000000000000000000000000000000000000000000000000N 00000000000NCONT   00    00000000000          00000000000000000000000000000000000000000000 000000000000000A000000000000000000000000000000000000000000000 000000000000000000000000000000000000000     00000000                                                                                                                        000000000000000000
F0010000007052300003000080200250700042505000000000000000000201504220002001ETICOL SAS                                        C000000000600000000000000000000000100010010000000000000000000000F0010000007052300320150422000101 00000000000000000000000000000000000000000000000000000000000000000000000000000000000000000000000000000000000000000N 00000000000NCONT   00    00000000000          00000000000000000000000000000000000000000000 000000000000000A000000000000000000000000000000000000000000000 000000000000000000000000000000000000000     00000000                                                                                                                        000000000000000000
F0010000007052300004000080200250700023658300000000000000000201504220002001ETICOL SAS                                        C000000000398000000000000000000000100010010000000000000000000000F0010000007052300420150422000101 00000000000000000000000000000000000000000000000000000000000000000000000000000000000000000000000000000000000000000N 00000000000NCONT   00    00000000000          00000000000000000000000000000000000000000000 000000000000000A000000000000000000000000000000000000000000000 000000000000000000000000000000000000000     00000000                                                                                                                        000000000000000000
F0010000007052300005000080200250700013552100000000000000000201504220002001ETICOL SAS                                        D000000000398000000000000000000000100010010000000000000000000000F0010000007052300520150422000101 00000000000000000000000000000000000000000000000000000000000000000000000000000000000000000000000000000000000000000N 00000000000NCONT   00    00000000000          00000000000000000000000000000000000000000000 000000000000000A000000000000000000000000000000000000000000000 000000000000000000000000000000000000000     00000000                                                                                                                        000000000000000000
F0010000007052400001000007225219800011050500000000000000000201504220002001MAURICIO ALVAREZ VARELO                           D000000002200000000000000000000000100010010000000000000000000000F0010000007052400120150422000101 00000000000000000000000000000000000000000000000000000000000000000000000000000000000000000000000000000000000000000N 00000000000NCONT   00    00000000000          00000000000000000000000000000000000000000000 000000000000000A000000000000000000000000000000000000000000000 000000000000000000000000000000000000000     00000000                                                                                                                        000000000000000000
F0010000007052400002000007225219800041450500000000000000000201504220002001MAURICIO ALVAREZ VARELO                           C000000001800000000000000000000000100010010000000000000000000000F0010000007052400220150422000101 00000000000000000000000000000000000000000000000000000000000000000000000000000000000000000000000000000000000000000N 00000000000NCONT   00    00000000000          00000000000000000000000000000000000000000000 000000000000000A000000000000000000000000000000000000000000000 000000000000000000000000000000000000000     00000000                                                                                                                        000000000000000000
F0010000007052400003000007225219800042505000000000000000000201504220002001MAURICIO ALVAREZ VARELO                           C000000000400000000000000000000000100010010000000000000000000000F0010000007052400320150422000101 00000000000000000000000000000000000000000000000000000000000000000000000000000000000000000000000000000000000000000N 00000000000NCONT   00    00000000000          00000000000000000000000000000000000000000000 000000000000000A000000000000000000000000000000000000000000000 000000000000000000000000000000000000000     00000000                                                                                                                        000000000000000000
F0010000007052400004000007225219800023658300000000000000000201504220002001MAURICIO ALVAREZ VARELO                           C000000000014400000000000000000000100010010000000000000000000000F0010000007052400420150422000101 00000000000000000000000000000000000000000000000000000000000000000000000000000000000000000000000000000000000000000N 00000000000NCONT   00    00000000000          00000000000000000000000000000000000000000000 000000000000000A000000000000000000000000000000000000000000000 000000000000000000000000000000000000000     00000000                                                                                                                        000000000000000000
F0010000007052400005000007225219800013552100000000000000000201504220002001MAURICIO ALVAREZ VARELO                           D000000000014400000000000000000000100010010000000000000000000000F0010000007052400520150422000101 00000000000000000000000000000000000000000000000000000000000000000000000000000000000000000000000000000000000000000N 00000000000NCONT   00    00000000000          00000000000000000000000000000000000000000000 000000000000000A000000000000000000000000000000000000000000000 000000000000000000000000000000000000000     00000000                                                                                                                        000000000000000000
F0010000007052500001000000869805000011050500000000000000000201504220002001WILMAN RAMBAL LARA                                D000000005000000000000000000000000100010010000000000000000000000F0010000007052500120150422000101 00000000000000000000000000000000000000000000000000000000000000000000000000000000000000000000000000000000000000000N 00000000000NCONT   00    00000000000          00000000000000000000000000000000000000000000 000000000000000A000000000000000000000000000000000000000000000 000000000000000000000000000000000000000     00000000                                                                                                                        000000000000000000
F0010000007052500002000000869805000041450500000000000000000201504220002001WILMAN RAMBAL LARA                                C000000004800000000000000000000000100010010000000000000000000000F0010000007052500220150422000101 00000000000000000000000000000000000000000000000000000000000000000000000000000000000000000000000000000000000000000N 00000000000NCONT   00    00000000000          00000000000000000000000000000000000000000000 000000000000000A000000000000000000000000000000000000000000000 000000000000000000000000000000000000000     00000000                                                                                                                        000000000000000000
F0010000007052500003000000869805000042505000000000000000000201504220002001WILMAN RAMBAL LARA                                C000000000200000000000000000000000100010010000000000000000000000F0010000007052500320150422000101 00000000000000000000000000000000000000000000000000000000000000000000000000000000000000000000000000000000000000000N 00000000000NCONT   00    00000000000          00000000000000000000000000000000000000000000 000000000000000A000000000000000000000000000000000000000000000 000000000000000000000000000000000000000     00000000                                                                                                                        000000000000000000
F0010000007052500004000000869805000023658300000000000000000201504220002001WILMAN RAMBAL LARA                                C000000000038400000000000000000000100010010000000000000000000000F0010000007052500420150422000101 00000000000000000000000000000000000000000000000000000000000000000000000000000000000000000000000000000000000000000N 00000000000NCONT   00    00000000000          00000000000000000000000000000000000000000000 000000000000000A000000000000000000000000000000000000000000000 000000000000000000000000000000000000000     00000000                                                                                                                        000000000000000000
F0010000007052500005000000869805000013552100000000000000000201504220002001WILMAN RAMBAL LARA                                D000000000038400000000000000000000100010010000000000000000000000F0010000007052500520150422000101 00000000000000000000000000000000000000000000000000000000000000000000000000000000000000000000000000000000000000000N 00000000000NCONT   00    00000000000          00000000000000000000000000000000000000000000 000000000000000A000000000000000000000000000000000000000000000 000000000000000000000000000000000000000     00000000                                                                                                                        000000000000000000
F0010000007052600001000000870907300011050500000000000000000201504220002001SURTIDOR FERRETERO                                D000000001300000000000000000000000100010010000000000000000000000F0010000007052600120150422000101 00000000000000000000000000000000000000000000000000000000000000000000000000000000000000000000000000000000000000000N 00000000000NCONT   00    00000000000          00000000000000000000000000000000000000000000 000000000000000A000000000000000000000000000000000000000000000 000000000000000000000000000000000000000     00000000                                                                                                                        000000000000000000
F0010000007052600002000000870907300041450500000000000000000201504220002001SURTIDOR FERRETERO                                C000000000800000000000000000000000100010010000000000000000000000F0010000007052600220150422000101 00000000000000000000000000000000000000000000000000000000000000000000000000000000000000000000000000000000000000000N 00000000000NCONT   00    00000000000          00000000000000000000000000000000000000000000 000000000000000A000000000000000000000000000000000000000000000 000000000000000000000000000000000000000     00000000                                                                                                                        000000000000000000
F0010000007052600003000000870907300042505000000000000000000201504220002001SURTIDOR FERRETERO                                C000000000500000000000000000000000100010010000000000000000000000F0010000007052600320150422000101 00000000000000000000000000000000000000000000000000000000000000000000000000000000000000000000000000000000000000000N 00000000000NCONT   00    00000000000          00000000000000000000000000000000000000000000 000000000000000A000000000000000000000000000000000000000000000 000000000000000000000000000000000000000     00000000                                                                                                                        000000000000000000
F0010000007052600004000000870907300023658300000000000000000201504220002001SURTIDOR FERRETERO                                C000000000006400000000000000000000100010010000000000000000000000F0010000007052600420150422000101 00000000000000000000000000000000000000000000000000000000000000000000000000000000000000000000000000000000000000000N 00000000000NCONT   00    00000000000          00000000000000000000000000000000000000000000 000000000000000A000000000000000000000000000000000000000000000 000000000000000000000000000000000000000     00000000                                                                                                                        000000000000000000
F0010000007052600005000000870907300013552100000000000000000201504220002001SURTIDOR FERRETERO                                D000000000006400000000000000000000100010010000000000000000000000F0010000007052600520150422000101 00000000000000000000000000000000000000000000000000000000000000000000000000000000000000000000000000000000000000000N 00000000000NCONT   00    00000000000          00000000000000000000000000000000000000000000 000000000000000A000000000000000000000000000000000000000000000 000000000000000000000000000000000000000     00000000                                                                                                                        000000000000000000
F0010000007052700001000090020872300011050500000000000000000201504220002001INTERSOLES SAS                                    D000000001700000000000000000000000100010010000000000000000000000F0010000007052700120150422000101 00000000000000000000000000000000000000000000000000000000000000000000000000000000000000000000000000000000000000000N 00000000000NCONT   00    00000000000          00000000000000000000000000000000000000000000 000000000000000A000000000000000000000000000000000000000000000 000000000000000000000000000000000000000     00000000                                                                                                                        000000000000000000
F0010000007052700002000090020872300041450500000000000000000201504220002001INTERSOLES SAS                                    C000000001400000000000000000000000100010010000000000000000000000F0010000007052700220150422000101 00000000000000000000000000000000000000000000000000000000000000000000000000000000000000000000000000000000000000000N 00000000000NCONT   00    00000000000          00000000000000000000000000000000000000000000 000000000000000A000000000000000000000000000000000000000000000 000000000000000000000000000000000000000     00000000                                                                                                                        000000000000000000
F0010000007052700003000090020872300042505000000000000000000201504220002001INTERSOLES SAS                                    C000000000300000000000000000000000100010010000000000000000000000F0010000007052700320150422000101 00000000000000000000000000000000000000000000000000000000000000000000000000000000000000000000000000000000000000000N 00000000000NCONT   00    00000000000          00000000000000000000000000000000000000000000 000000000000000A000000000000000000000000000000000000000000000 000000000000000000000000000000000000000     00000000                                                                                                                        000000000000000000
F0010000007052700004000090020872300023658300000000000000000201504220002001INTERSOLES SAS                                    C000000000011200000000000000000000100010010000000000000000000000F0010000007052700420150422000101 00000000000000000000000000000000000000000000000000000000000000000000000000000000000000000000000000000000000000000N 00000000000NCONT   00    00000000000          00000000000000000000000000000000000000000000 000000000000000A000000000000000000000000000000000000000000000 000000000000000000000000000000000000000     00000000                                                                                                                        000000000000000000
F0010000007052700005000090020872300013552100000000000000000201504220002001INTERSOLES SAS                                    D000000000011200000000000000000000100010010000000000000000000000F0010000007052700520150422000101 00000000000000000000000000000000000000000000000000000000000000000000000000000000000000000000000000000000000000000N 00000000000NCONT   00    00000000000          00000000000000000000000000000000000000000000 000000000000000A000000000000000000000000000000000000000000000 000000000000000000000000000000000000000     00000000                                                                                                                        000000000000000000
F0010000007052800001000007204054700011050500000000000000000201504220002001LEOBILDALDO GUERRERO CONTRERAS                    D000000002600000000000000000000000100010010000000000000000000000F0010000007052800120150422000101 00000000000000000000000000000000000000000000000000000000000000000000000000000000000000000000000000000000000000000N 00000000000NCONT   00    00000000000          00000000000000000000000000000000000000000000 000000000000000A000000000000000000000000000000000000000000000 000000000000000000000000000000000000000     00000000                                                                                                                        000000000000000000
F0010000007052800002000007204054700041450500000000000000000201504220002001LEOBILDALDO GUERRERO CONTRERAS                    C000000002400000000000000000000000100010010000000000000000000000F0010000007052800220150422000101 00000000000000000000000000000000000000000000000000000000000000000000000000000000000000000000000000000000000000000N 00000000000NCONT   00    00000000000          00000000000000000000000000000000000000000000 000000000000000A000000000000000000000000000000000000000000000 000000000000000000000000000000000000000     00000000                                                                                                                        000000000000000000
F0010000007052800003000007204054700042505000000000000000000201504220002001LEOBILDALDO GUERRERO CONTRERAS                    C000000000200000000000000000000000100010010000000000000000000000F0010000007052800320150422000101 00000000000000000000000000000000000000000000000000000000000000000000000000000000000000000000000000000000000000000N 00000000000NCONT   00    00000000000          00000000000000000000000000000000000000000000 000000000000000A000000000000000000000000000000000000000000000 000000000000000000000000000000000000000     00000000                                                                                                                        000000000000000000
F0010000007052800004000007204054700023658300000000000000000201504220002001LEOBILDALDO GUERRERO CONTRERAS                    C000000000019200000000000000000000100010010000000000000000000000F0010000007052800420150422000101 00000000000000000000000000000000000000000000000000000000000000000000000000000000000000000000000000000000000000000N 00000000000NCONT   00    00000000000          00000000000000000000000000000000000000000000 000000000000000A000000000000000000000000000000000000000000000 000000000000000000000000000000000000000     00000000                                                                                                                        000000000000000000
F0010000007052800005000007204054700013552100000000000000000201504220002001LEOBILDALDO GUERRERO CONTRERAS                    D000000000019200000000000000000000100010010000000000000000000000F0010000007052800520150422000101 00000000000000000000000000000000000000000000000000000000000000000000000000000000000000000000000000000000000000000N 00000000000NCONT   00    00000000000          00000000000000000000000000000000000000000000 000000000000000A000000000000000000000000000000000000000000000 000000000000000000000000000000000000000     00000000                                                                                                                        000000000000000000
F0010000007052900001000003263906900011050500000000000000000201504220002001LUZ MARINA ARIAS AMADOR                           D000000004300000000000000000000000100010010000000000000000000000F0010000007052900120150422000101 00000000000000000000000000000000000000000000000000000000000000000000000000000000000000000000000000000000000000000N 00000000000NCONT   00    00000000000          00000000000000000000000000000000000000000000 000000000000000A000000000000000000000000000000000000000000000 000000000000000000000000000000000000000     00000000                                                                                                                        000000000000000000
F0010000007052900002000003263906900041450500000000000000000201504220002001LUZ MARINA ARIAS AMADOR                           C000000003600000000000000000000000100010010000000000000000000000F0010000007052900220150422000101 00000000000000000000000000000000000000000000000000000000000000000000000000000000000000000000000000000000000000000N 00000000000NCONT   00    00000000000          00000000000000000000000000000000000000000000 000000000000000A000000000000000000000000000000000000000000000 000000000000000000000000000000000000000     00000000                                                                                                                        000000000000000000
F0010000007052900003000003263906900042505000000000000000000201504220002001LUZ MARINA ARIAS AMADOR                           C000000000700000000000000000000000100010010000000000000000000000F0010000007052900320150422000101 00000000000000000000000000000000000000000000000000000000000000000000000000000000000000000000000000000000000000000N 00000000000NCONT   00    00000000000          00000000000000000000000000000000000000000000 000000000000000A000000000000000000000000000000000000000000000 000000000000000000000000000000000000000     00000000                                                                                                                        000000000000000000
F0010000007052900004000003263906900023658300000000000000000201504220002001LUZ MARINA ARIAS AMADOR                           C000000000028800000000000000000000100010010000000000000000000000F0010000007052900420150422000101 00000000000000000000000000000000000000000000000000000000000000000000000000000000000000000000000000000000000000000N 00000000000NCONT   00    00000000000          00000000000000000000000000000000000000000000 000000000000000A000000000000000000000000000000000000000000000 000000000000000000000000000000000000000     00000000                                                                                                                        000000000000000000
F0010000007052900005000003263906900013552100000000000000000201504220002001LUZ MARINA ARIAS AMADOR                           D000000000028800000000000000000000100010010000000000000000000000F0010000007052900520150422000101 00000000000000000000000000000000000000000000000000000000000000000000000000000000000000000000000000000000000000000N 00000000000NCONT   00    00000000000          00000000000000000000000000000000000000000000 000000000000000A000000000000000000000000000000000000000000000 000000000000000000000000000000000000000     00000000                                                                                                                        000000000000000000
F0010000007053000001000007200023300011050500000000000000000201504220002001WILLIAM ORTEGA                                    D000000002800000000000000000000000100010010000000000000000000000F0010000007053000120150422000101 00000000000000000000000000000000000000000000000000000000000000000000000000000000000000000000000000000000000000000N 00000000000NCONT   00    00000000000          00000000000000000000000000000000000000000000 000000000000000A000000000000000000000000000000000000000000000 000000000000000000000000000000000000000     00000000                                                                                                                        000000000000000000
F0010000007053000002000007200023300041450500000000000000000201504220002001WILLIAM ORTEGA                                    C000000002400000000000000000000000100010010000000000000000000000F0010000007053000220150422000101 00000000000000000000000000000000000000000000000000000000000000000000000000000000000000000000000000000000000000000N 00000000000NCONT   00    00000000000          00000000000000000000000000000000000000000000 000000000000000A000000000000000000000000000000000000000000000 000000000000000000000000000000000000000     00000000                                                                                                                        000000000000000000
F0010000007053000003000007200023300042505000000000000000000201504220002001WILLIAM ORTEGA                                    C000000000400000000000000000000000100010010000000000000000000000F0010000007053000320150422000101 00000000000000000000000000000000000000000000000000000000000000000000000000000000000000000000000000000000000000000N 00000000000NCONT   00    00000000000          00000000000000000000000000000000000000000000 000000000000000A000000000000000000000000000000000000000000000 000000000000000000000000000000000000000     00000000                                                                                                                        000000000000000000
F0010000007053000004000007200023300023658300000000000000000201504220002001WILLIAM ORTEGA                                    C000000000019200000000000000000000100010010000000000000000000000F0010000007053000420150422000101 00000000000000000000000000000000000000000000000000000000000000000000000000000000000000000000000000000000000000000N 00000000000NCONT   00    00000000000          00000000000000000000000000000000000000000000 000000000000000A000000000000000000000000000000000000000000000 000000000000000000000000000000000000000     00000000                                                                                                                        000000000000000000
F0010000007053000005000007200023300013552100000000000000000201504220002001WILLIAM ORTEGA                                    D000000000019200000000000000000000100010010000000000000000000000F0010000007053000520150422000101 00000000000000000000000000000000000000000000000000000000000000000000000000000000000000000000000000000000000000000N 00000000000NCONT   00    00000000000          00000000000000000000000000000000000000000000 000000000000000A000000000000000000000000000000000000000000000 000000000000000000000000000000000000000     00000000                                                                                                                        000000000000000000
F0010000007053100001000007200023300011050500000000000000000201504220002001WILLIAM ORTEGA                                    D000000002700000000000000000000000100010010000000000000000000000F0010000007053100120150422000101 00000000000000000000000000000000000000000000000000000000000000000000000000000000000000000000000000000000000000000N 00000000000NCONT   00    00000000000          00000000000000000000000000000000000000000000 000000000000000A000000000000000000000000000000000000000000000 000000000000000000000000000000000000000     00000000                                                                                                                        000000000000000000
F0010000007053100002000007200023300041450500000000000000000201504220002001WILLIAM ORTEGA                                    C000000002400000000000000000000000100010010000000000000000000000F0010000007053100220150422000101 00000000000000000000000000000000000000000000000000000000000000000000000000000000000000000000000000000000000000000N 00000000000NCONT   00    00000000000          00000000000000000000000000000000000000000000 000000000000000A000000000000000000000000000000000000000000000 000000000000000000000000000000000000000     00000000                                                                                                                        000000000000000000
F0010000007053100003000007200023300042505000000000000000000201504220002001WILLIAM ORTEGA                                    C000000000300000000000000000000000100010010000000000000000000000F0010000007053100320150422000101 00000000000000000000000000000000000000000000000000000000000000000000000000000000000000000000000000000000000000000N 00000000000NCONT   00    00000000000          00000000000000000000000000000000000000000000 000000000000000A000000000000000000000000000000000000000000000 000000000000000000000000000000000000000     00000000                                                                                                                        000000000000000000
F0010000007053100004000007200023300023658300000000000000000201504220002001WILLIAM ORTEGA                                    C000000000019200000000000000000000100010010000000000000000000000F0010000007053100420150422000101 00000000000000000000000000000000000000000000000000000000000000000000000000000000000000000000000000000000000000000N 00000000000NCONT   00    00000000000          00000000000000000000000000000000000000000000 000000000000000A000000000000000000000000000000000000000000000 000000000000000000000000000000000000000     00000000                                                                                                                        000000000000000000
F0010000007053100005000007200023300013552100000000000000000201504220002001WILLIAM ORTEGA                                    D000000000019200000000000000000000100010010000000000000000000000F0010000007053100520150422000101 00000000000000000000000000000000000000000000000000000000000000000000000000000000000000000000000000000000000000000N 00000000000NCONT   00    00000000000          00000000000000000000000000000000000000000000 000000000000000A000000000000000000000000000000000000000000000 000000000000000000000000000000000000000     00000000                                                                                                                        000000000000000000
F0010000007053200001000000431178400011050500000000000000000201504220002001EFRAIN ALVAREZ                                    D000000002730000000000000000000000100010010000000000000000000000F0010000007053200120150422000101 00000000000000000000000000000000000000000000000000000000000000000000000000000000000000000000000000000000000000000N 00000000000NCONT   00    00000000000          00000000000000000000000000000000000000000000 000000000000000A000000000000000000000000000000000000000000000 000000000000000000000000000000000000000     00000000                                                                                                                        000000000000000000
F0010000007053200002000000431178400041450500000000000000000201504220002001EFRAIN ALVAREZ                                    C000000002580000000000000000000000100010010000000000000000000000F0010000007053200220150422000101 00000000000000000000000000000000000000000000000000000000000000000000000000000000000000000000000000000000000000000N 00000000000NCONT   00    00000000000          00000000000000000000000000000000000000000000 000000000000000A000000000000000000000000000000000000000000000 000000000000000000000000000000000000000     00000000                                                                                                                        000000000000000000
F0010000007053200003000000431178400042505000000000000000000201504220002001EFRAIN ALVAREZ                                    C000000000150000000000000000000000100010010000000000000000000000F0010000007053200320150422000101 00000000000000000000000000000000000000000000000000000000000000000000000000000000000000000000000000000000000000000N 00000000000NCONT   00    00000000000          00000000000000000000000000000000000000000000 000000000000000A000000000000000000000000000000000000000000000 000000000000000000000000000000000000000     00000000                                                                                                                        000000000000000000
F0010000007053200004000000431178400023658300000000000000000201504220002001EFRAIN ALVAREZ                                    C000000000020600000000000000000000100010010000000000000000000000F0010000007053200420150422000101 00000000000000000000000000000000000000000000000000000000000000000000000000000000000000000000000000000000000000000N 00000000000NCONT   00    00000000000          00000000000000000000000000000000000000000000 000000000000000A000000000000000000000000000000000000000000000 000000000000000000000000000000000000000     00000000                                                                                                                        000000000000000000
F0010000007053200005000000431178400013552100000000000000000201504220002001EFRAIN ALVAREZ                                    D000000000020600000000000000000000100010010000000000000000000000F0010000007053200520150422000101 00000000000000000000000000000000000000000000000000000000000000000000000000000000000000000000000000000000000000000N 00000000000NCONT   00    00000000000          00000000000000000000000000000000000000000000 000000000000000A000000000000000000000000000000000000000000000 000000000000000000000000000000000000000     00000000                                                                                                                        000000000000000000
F0010000007053300001000000431178400011050500000000000000000201504220002001EFRAIN ALVAREZ                                    D000000001010000000000000000000000100010010000000000000000000000F0010000007053300120150422000101 00000000000000000000000000000000000000000000000000000000000000000000000000000000000000000000000000000000000000000N 00000000000NCONT   00    00000000000          00000000000000000000000000000000000000000000 000000000000000A000000000000000000000000000000000000000000000 000000000000000000000000000000000000000     00000000                                                                                                                        000000000000000000
F0010000007053300002000000431178400041450500000000000000000201504220002001EFRAIN ALVAREZ                                    C000000000860000000000000000000000100010010000000000000000000000F0010000007053300220150422000101 00000000000000000000000000000000000000000000000000000000000000000000000000000000000000000000000000000000000000000N 00000000000NCONT   00    00000000000          00000000000000000000000000000000000000000000 000000000000000A000000000000000000000000000000000000000000000 000000000000000000000000000000000000000     00000000                                                                                                                        000000000000000000
F0010000007053300003000000431178400042505000000000000000000201504220002001EFRAIN ALVAREZ                                    C000000000150000000000000000000000100010010000000000000000000000F0010000007053300320150422000101 00000000000000000000000000000000000000000000000000000000000000000000000000000000000000000000000000000000000000000N 00000000000NCONT   00    00000000000          00000000000000000000000000000000000000000000 000000000000000A000000000000000000000000000000000000000000000 000000000000000000000000000000000000000     00000000                                                                                                                        000000000000000000
F0010000007053300004000000431178400023658300000000000000000201504220002001EFRAIN ALVAREZ                                    C000000000006900000000000000000000100010010000000000000000000000F0010000007053300420150422000101 00000000000000000000000000000000000000000000000000000000000000000000000000000000000000000000000000000000000000000N 00000000000NCONT   00    00000000000          00000000000000000000000000000000000000000000 000000000000000A000000000000000000000000000000000000000000000 000000000000000000000000000000000000000     00000000                                                                                                                        000000000000000000
F0010000007053300005000000431178400013552100000000000000000201504220002001EFRAIN ALVAREZ                                    D000000000006900000000000000000000100010010000000000000000000000F0010000007053300520150422000101 00000000000000000000000000000000000000000000000000000000000000000000000000000000000000000000000000000000000000000N 00000000000NCONT   00    00000000000          00000000000000000000000000000000000000000000 000000000000000A000000000000000000000000000000000000000000000 000000000000000000000000000000000000000     00000000                                                                                                                        000000000000000000
F0010000007053400001000000431178400011050500000000000000000201504220002001EFRAIN ALVAREZ                                    D000000001340000000000000000000000100010010000000000000000000000F0010000007053400120150422000101 00000000000000000000000000000000000000000000000000000000000000000000000000000000000000000000000000000000000000000N 00000000000NCONT   00    00000000000          00000000000000000000000000000000000000000000 000000000000000A000000000000000000000000000000000000000000000 000000000000000000000000000000000000000     00000000                                                                                                                        000000000000000000
F0010000007053400002000000431178400041450500000000000000000201504220002001EFRAIN ALVAREZ                                    C000000001190000000000000000000000100010010000000000000000000000F0010000007053400220150422000101 00000000000000000000000000000000000000000000000000000000000000000000000000000000000000000000000000000000000000000N 00000000000NCONT   00    00000000000          00000000000000000000000000000000000000000000 000000000000000A000000000000000000000000000000000000000000000 000000000000000000000000000000000000000     00000000                                                                                                                        000000000000000000
F0010000007053400003000000431178400042505000000000000000000201504220002001EFRAIN ALVAREZ                                    C000000000150000000000000000000000100010010000000000000000000000F0010000007053400320150422000101 00000000000000000000000000000000000000000000000000000000000000000000000000000000000000000000000000000000000000000N 00000000000NCONT   00    00000000000          00000000000000000000000000000000000000000000 000000000000000A000000000000000000000000000000000000000000000 000000000000000000000000000000000000000     00000000                                                                                                                        000000000000000000
F0010000007053400004000000431178400023658300000000000000000201504220002001EFRAIN ALVAREZ                                    C000000000009500000000000000000000100010010000000000000000000000F0010000007053400420150422000101 00000000000000000000000000000000000000000000000000000000000000000000000000000000000000000000000000000000000000000N 00000000000NCONT   00    00000000000          00000000000000000000000000000000000000000000 000000000000000A000000000000000000000000000000000000000000000 000000000000000000000000000000000000000     00000000                                                                                                                        000000000000000000
F0010000007053400005000000431178400013552100000000000000000201504220002001EFRAIN ALVAREZ                                    D000000000009500000000000000000000100010010000000000000000000000F0010000007053400520150422000101 00000000000000000000000000000000000000000000000000000000000000000000000000000000000000000000000000000000000000000N 00000000000NCONT   00    00000000000          00000000000000000000000000000000000000000000 000000000000000A000000000000000000000000000000000000000000000 000000000000000000000000000000000000000     00000000                                                                                                                        000000000000000000
F0010000007053500001000001022529300011050500000000000000000201504220002001ALBERTO ALVAREZ ISAZA                             D000000001770000000000000000000000100010010000000000000000000000F0010000007053500120150422000101 00000000000000000000000000000000000000000000000000000000000000000000000000000000000000000000000000000000000000000N 00000000000NCONT   00    00000000000          00000000000000000000000000000000000000000000 000000000000000A000000000000000000000000000000000000000000000 000000000000000000000000000000000000000     00000000                                                                                                                        000000000000000000
F0010000007053500002000001022529300041450500000000000000000201504220002001ALBERTO ALVAREZ ISAZA                             C000000001720000000000000000000000100010010000000000000000000000F0010000007053500220150422000101 00000000000000000000000000000000000000000000000000000000000000000000000000000000000000000000000000000000000000000N 00000000000NCONT   00    00000000000          00000000000000000000000000000000000000000000 000000000000000A000000000000000000000000000000000000000000000 000000000000000000000000000000000000000     00000000                                                                                                                        000000000000000000
F0010000007053500003000001022529300042505000000000000000000201504220002001ALBERTO ALVAREZ ISAZA                             C000000000050000000000000000000000100010010000000000000000000000F0010000007053500320150422000101 00000000000000000000000000000000000000000000000000000000000000000000000000000000000000000000000000000000000000000N 00000000000NCONT   00    00000000000          00000000000000000000000000000000000000000000 000000000000000A000000000000000000000000000000000000000000000 000000000000000000000000000000000000000     00000000                                                                                                                        000000000000000000
F0010000007053500004000001022529300023658300000000000000000201504220002001ALBERTO ALVAREZ ISAZA                             C000000000013800000000000000000000100010010000000000000000000000F0010000007053500420150422000101 00000000000000000000000000000000000000000000000000000000000000000000000000000000000000000000000000000000000000000N 00000000000NCONT   00    00000000000          00000000000000000000000000000000000000000000 000000000000000A000000000000000000000000000000000000000000000 000000000000000000000000000000000000000     00000000                                                                                                                        000000000000000000
F0010000007053500005000001022529300013552100000000000000000201504220002001ALBERTO ALVAREZ ISAZA                             D000000000013800000000000000000000100010010000000000000000000000F0010000007053500520150422000101 00000000000000000000000000000000000000000000000000000000000000000000000000000000000000000000000000000000000000000N 00000000000NCONT   00    00000000000          00000000000000000000000000000000000000000000 000000000000000A000000000000000000000000000000000000000000000 000000000000000000000000000000000000000     00000000                                                                                                                        000000000000000000
F0010000007053600001000001022529300011050500000000000000000201504220002001ALBERTO ALVAREZ ISAZA                             D000000001315000000000000000000000100010010000000000000000000000F0010000007053600120150422000101 00000000000000000000000000000000000000000000000000000000000000000000000000000000000000000000000000000000000000000N 00000000000NCONT   00    00000000000          00000000000000000000000000000000000000000000 000000000000000A000000000000000000000000000000000000000000000 000000000000000000000000000000000000000     00000000                                                                                                                        000000000000000000
F0010000007053600002000001022529300041450500000000000000000201504220002001ALBERTO ALVAREZ ISAZA                             C000000001190000000000000000000000100010010000000000000000000000F0010000007053600220150422000101 00000000000000000000000000000000000000000000000000000000000000000000000000000000000000000000000000000000000000000N 00000000000NCONT   00    00000000000          00000000000000000000000000000000000000000000 000000000000000A000000000000000000000000000000000000000000000 000000000000000000000000000000000000000     00000000                                                                                                                        000000000000000000
F0010000007053600003000001022529300042505000000000000000000201504220002001ALBERTO ALVAREZ ISAZA                             C000000000125000000000000000000000100010010000000000000000000000F0010000007053600320150422000101 00000000000000000000000000000000000000000000000000000000000000000000000000000000000000000000000000000000000000000N 00000000000NCONT   00    00000000000          00000000000000000000000000000000000000000000 000000000000000A000000000000000000000000000000000000000000000 000000000000000000000000000000000000000     00000000                                                                                                                        000000000000000000
F0010000007053600004000001022529300023658300000000000000000201504220002001ALBERTO ALVAREZ ISAZA                             C000000000009500000000000000000000100010010000000000000000000000F0010000007053600420150422000101 00000000000000000000000000000000000000000000000000000000000000000000000000000000000000000000000000000000000000000N 00000000000NCONT   00    00000000000          00000000000000000000000000000000000000000000 000000000000000A000000000000000000000000000000000000000000000 000000000000000000000000000000000000000     00000000                                                                                                                        000000000000000000
F0010000007053600005000001022529300013552100000000000000000201504220002001ALBERTO ALVAREZ ISAZA                             D000000000009500000000000000000000100010010000000000000000000000F0010000007053600520150422000101 00000000000000000000000000000000000000000000000000000000000000000000000000000000000000000000000000000000000000000N 00000000000NCONT   00    00000000000          00000000000000000000000000000000000000000000 000000000000000A000000000000000000000000000000000000000000000 000000000000000000000000000000000000000     00000000                                                                                                                        000000000000000000
F0010000007053700001000000871693500011050500000000000000000201504220002001ALBERTO MUÑOZ ALTAMIRANDA                        D000000002000000000000000000000000100010010000000000000000000000F0010000007053700120150422000101 00000000000000000000000000000000000000000000000000000000000000000000000000000000000000000000000000000000000000000N 00000000000NCONT   00    00000000000          00000000000000000000000000000000000000000000 000000000000000A000000000000000000000000000000000000000000000 000000000000000000000000000000000000000     00000000                                                                                                                        000000000000000000
F0010000007053700002000000871693500041450500000000000000000201504220002001ALBERTO MUÑOZ ALTAMIRANDA                        C000000001900000000000000000000000100010010000000000000000000000F0010000007053700220150422000101 00000000000000000000000000000000000000000000000000000000000000000000000000000000000000000000000000000000000000000N 00000000000NCONT   00    00000000000          00000000000000000000000000000000000000000000 000000000000000A000000000000000000000000000000000000000000000 000000000000000000000000000000000000000     00000000                                                                                                                        000000000000000000
F0010000007053700003000000871693500042505000000000000000000201504220002001ALBERTO MUÑOZ ALTAMIRANDA                        C000000000100000000000000000000000100010010000000000000000000000F0010000007053700320150422000101 00000000000000000000000000000000000000000000000000000000000000000000000000000000000000000000000000000000000000000N 00000000000NCONT   00    00000000000          00000000000000000000000000000000000000000000 000000000000000A000000000000000000000000000000000000000000000 000000000000000000000000000000000000000     00000000                                                                                                                        000000000000000000
F0010000007053700004000000871693500023658300000000000000000201504220002001ALBERTO MUÑOZ ALTAMIRANDA                        C000000000015200000000000000000000100010010000000000000000000000F0010000007053700420150422000101 00000000000000000000000000000000000000000000000000000000000000000000000000000000000000000000000000000000000000000N 00000000000NCONT   00    00000000000          00000000000000000000000000000000000000000000 000000000000000A000000000000000000000000000000000000000000000 000000000000000000000000000000000000000     00000000                                                                                                                        000000000000000000
F0010000007053700005000000871693500013552100000000000000000201504220002001ALBERTO MUÑOZ ALTAMIRANDA                        D000000000015200000000000000000000100010010000000000000000000000F0010000007053700520150422000101 00000000000000000000000000000000000000000000000000000000000000000000000000000000000000000000000000000000000000000N 00000000000NCONT   00    00000000000          00000000000000000000000000000000000000000000 000000000000000A000000000000000000000000000000000000000000000 000000000000000000000000000000000000000     00000000                                                                                                                        000000000000000000
F0010000007053800001000090015687900011050500000000000000000201504220002001GOMEZ NARANJO & CIA LTDA                          D000000006000000000000000000000000100010010000000000000000000000F0010000007053800120150422000101 00000000000000000000000000000000000000000000000000000000000000000000000000000000000000000000000000000000000000000N 00000000000NCONT   00    00000000000          00000000000000000000000000000000000000000000 000000000000000A000000000000000000000000000000000000000000000 000000000000000000000000000000000000000     00000000                                                                                                                        000000000000000000
F0010000007053800002000090015687900041450500000000000000000201504220002001GOMEZ NARANJO & CIA LTDA                          C000000004500000000000000000000000100010010000000000000000000000F0010000007053800220150422000101 00000000000000000000000000000000000000000000000000000000000000000000000000000000000000000000000000000000000000000N 00000000000NCONT   00    00000000000          00000000000000000000000000000000000000000000 000000000000000A000000000000000000000000000000000000000000000 000000000000000000000000000000000000000     00000000                                                                                                                        000000000000000000
F0010000007053800003000090015687900042505000000000000000000201504220002001GOMEZ NARANJO & CIA LTDA                          C000000001500000000000000000000000100010010000000000000000000000F0010000007053800320150422000101 00000000000000000000000000000000000000000000000000000000000000000000000000000000000000000000000000000000000000000N 00000000000NCONT   00    00000000000          00000000000000000000000000000000000000000000 000000000000000A000000000000000000000000000000000000000000000 000000000000000000000000000000000000000     00000000                                                                                                                        000000000000000000
F0010000007053800004000090015687900023658300000000000000000201504220002001GOMEZ NARANJO & CIA LTDA                          C000000000036000000000000000000000100010010000000000000000000000F0010000007053800420150422000101 00000000000000000000000000000000000000000000000000000000000000000000000000000000000000000000000000000000000000000N 00000000000NCONT   00    00000000000          00000000000000000000000000000000000000000000 000000000000000A000000000000000000000000000000000000000000000 000000000000000000000000000000000000000     00000000                                                                                                                        000000000000000000
F0010000007053800005000090015687900013552100000000000000000201504220002001GOMEZ NARANJO & CIA LTDA                          D000000000036000000000000000000000100010010000000000000000000000F0010000007053800520150422000101 00000000000000000000000000000000000000000000000000000000000000000000000000000000000000000000000000000000000000000N 00000000000NCONT   00    00000000000          00000000000000000000000000000000000000000000 000000000000000A000000000000000000000000000000000000000000000 000000000000000000000000000000000000000     00000000                                                                                                                        000000000000000000
F0010000007053900001000080200594400011050500000000000000000201504220002001NOVEDADES JOTA JOTA                               D000000001500000000000000000000000100010010000000000000000000000F0010000007053900120150422000101 00000000000000000000000000000000000000000000000000000000000000000000000000000000000000000000000000000000000000000N 00000000000NCONT   00    00000000000          00000000000000000000000000000000000000000000 000000000000000A000000000000000000000000000000000000000000000 000000000000000000000000000000000000000     00000000                                                                                                                        000000000000000000
F0010000007053900002000080200594400041450500000000000000000201504220002001NOVEDADES JOTA JOTA                               C000000001000000000000000000000000100010010000000000000000000000F0010000007053900220150422000101 00000000000000000000000000000000000000000000000000000000000000000000000000000000000000000000000000000000000000000N 00000000000NCONT   00    00000000000          00000000000000000000000000000000000000000000 000000000000000A000000000000000000000000000000000000000000000 000000000000000000000000000000000000000     00000000                                                                                                                        000000000000000000
F0010000007053900003000080200594400042505000000000000000000201504220002001NOVEDADES JOTA JOTA                               C000000000500000000000000000000000100010010000000000000000000000F0010000007053900320150422000101 00000000000000000000000000000000000000000000000000000000000000000000000000000000000000000000000000000000000000000N 00000000000NCONT   00    00000000000          00000000000000000000000000000000000000000000 000000000000000A000000000000000000000000000000000000000000000 000000000000000000000000000000000000000     00000000                                                                                                                        000000000000000000
F0010000007053900004000080200594400023658300000000000000000201504220002001NOVEDADES JOTA JOTA                               C000000000008000000000000000000000100010010000000000000000000000F0010000007053900420150422000101 00000000000000000000000000000000000000000000000000000000000000000000000000000000000000000000000000000000000000000N 00000000000NCONT   00    00000000000          00000000000000000000000000000000000000000000 000000000000000A000000000000000000000000000000000000000000000 000000000000000000000000000000000000000     00000000                                                                                                                        000000000000000000
F0010000007053900005000080200594400013552100000000000000000201504220002001NOVEDADES JOTA JOTA                               D000000000008000000000000000000000100010010000000000000000000000F0010000007053900520150422000101 00000000000000000000000000000000000000000000000000000000000000000000000000000000000000000000000000000000000000000N 00000000000NCONT   00    00000000000          00000000000000000000000000000000000000000000 000000000000000A000000000000000000000000000000000000000000000 000000000000000000000000000000000000000     00000000                                                                                                                        000000000000000000
F0010000007054000001000080202350700011050500000000000000000201504220002001CONNY DE LA COSTA SAS                             D000000001200000000000000000000000100010010000000000000000000000F0010000007054000120150422000101 00000000000000000000000000000000000000000000000000000000000000000000000000000000000000000000000000000000000000000N 00000000000NCONT   00    00000000000          00000000000000000000000000000000000000000000 000000000000000A000000000000000000000000000000000000000000000 000000000000000000000000000000000000000     00000000                                                                                                                        000000000000000000
F0010000007054000002000080202350700041450500000000000000000201504220002001CONNY DE LA COSTA SAS                             C000000000900000000000000000000000100010010000000000000000000000F0010000007054000220150422000101 00000000000000000000000000000000000000000000000000000000000000000000000000000000000000000000000000000000000000000N 00000000000NCONT   00    00000000000          00000000000000000000000000000000000000000000 000000000000000A000000000000000000000000000000000000000000000 000000000000000000000000000000000000000     00000000                                                                                                                        000000000000000000
F0010000007054000003000080202350700042505000000000000000000201504220002001CONNY DE LA COSTA SAS                             C000000000300000000000000000000000100010010000000000000000000000F0010000007054000320150422000101 00000000000000000000000000000000000000000000000000000000000000000000000000000000000000000000000000000000000000000N 00000000000NCONT   00    00000000000          00000000000000000000000000000000000000000000 000000000000000A000000000000000000000000000000000000000000000 000000000000000000000000000000000000000     00000000                                                                                                                        000000000000000000
F0010000007054000004000080202350700023658300000000000000000201504220002001CONNY DE LA COSTA SAS                             C000000000007200000000000000000000100010010000000000000000000000F0010000007054000420150422000101 00000000000000000000000000000000000000000000000000000000000000000000000000000000000000000000000000000000000000000N 00000000000NCONT   00    00000000000          00000000000000000000000000000000000000000000 000000000000000A000000000000000000000000000000000000000000000 000000000000000000000000000000000000000     00000000                                                                                                                        000000000000000000
F0010000007054000005000080202350700013552100000000000000000201504220002001CONNY DE LA COSTA SAS                             D000000000007200000000000000000000100010010000000000000000000000F0010000007054000520150422000101 00000000000000000000000000000000000000000000000000000000000000000000000000000000000000000000000000000000000000000N 00000000000NCONT   00    00000000000          00000000000000000000000000000000000000000000 000000000000000A000000000000000000000000000000000000000000000 000000000000000000000000000000000000000     00000000                                                                                                                        000000000000000000
F0010000007054100001000080202350700011050500000000000000000201504220002001CONNY DE LA COSTA SAS                             D000000006000000000000000000000000100010010000000000000000000000F0010000007054100120150422000101 00000000000000000000000000000000000000000000000000000000000000000000000000000000000000000000000000000000000000000N 00000000000NCONT   00    00000000000          00000000000000000000000000000000000000000000 000000000000000A000000000000000000000000000000000000000000000 000000000000000000000000000000000000000     00000000                                                                                                                        000000000000000000
F0010000007054100002000080202350700041450500000000000000000201504220002001CONNY DE LA COSTA SAS                             C000000004500000000000000000000000100010010000000000000000000000F0010000007054100220150422000101 00000000000000000000000000000000000000000000000000000000000000000000000000000000000000000000000000000000000000000N 00000000000NCONT   00    00000000000          00000000000000000000000000000000000000000000 000000000000000A000000000000000000000000000000000000000000000 000000000000000000000000000000000000000     00000000                                                                                                                        000000000000000000
F0010000007054100003000080202350700042505000000000000000000201504220002001CONNY DE LA COSTA SAS                             C000000001500000000000000000000000100010010000000000000000000000F0010000007054100320150422000101 00000000000000000000000000000000000000000000000000000000000000000000000000000000000000000000000000000000000000000N 00000000000NCONT   00    00000000000          00000000000000000000000000000000000000000000 000000000000000A000000000000000000000000000000000000000000000 000000000000000000000000000000000000000     00000000                                                                                                                        000000000000000000
F0010000007054100004000080202350700023658300000000000000000201504220002001CONNY DE LA COSTA SAS                             C000000000036000000000000000000000100010010000000000000000000000F0010000007054100420150422000101 00000000000000000000000000000000000000000000000000000000000000000000000000000000000000000000000000000000000000000N 00000000000NCONT   00    00000000000          00000000000000000000000000000000000000000000 000000000000000A000000000000000000000000000000000000000000000 000000000000000000000000000000000000000     00000000                                                                                                                        000000000000000000
F0010000007054100005000080202350700013552100000000000000000201504220002001CONNY DE LA COSTA SAS                             D000000000036000000000000000000000100010010000000000000000000000F0010000007054100520150422000101 00000000000000000000000000000000000000000000000000000000000000000000000000000000000000000000000000000000000000000N 00000000000NCONT   00    00000000000          00000000000000000000000000000000000000000000 000000000000000A000000000000000000000000000000000000000000000 000000000000000000000000000000000000000     00000000                                                                                                                        000000000000000000
F0010000007054200001000080202350700011050500000000000000000201504220002001CONNY DE LA COSTA SAS                             D000000005000000000000000000000000100010010000000000000000000000F0010000007054200120150422000101 00000000000000000000000000000000000000000000000000000000000000000000000000000000000000000000000000000000000000000N 00000000000NCONT   00    00000000000          00000000000000000000000000000000000000000000 000000000000000A000000000000000000000000000000000000000000000 000000000000000000000000000000000000000     00000000                                                                                                                        000000000000000000
F0010000007054200002000080202350700041450500000000000000000201504220002001CONNY DE LA COSTA SAS                             C000000003600000000000000000000000100010010000000000000000000000F0010000007054200220150422000101 00000000000000000000000000000000000000000000000000000000000000000000000000000000000000000000000000000000000000000N 00000000000NCONT   00    00000000000          00000000000000000000000000000000000000000000 000000000000000A000000000000000000000000000000000000000000000 000000000000000000000000000000000000000     00000000                                                                                                                        000000000000000000
F0010000007054200003000080202350700042505000000000000000000201504220002001CONNY DE LA COSTA SAS                             C000000001400000000000000000000000100010010000000000000000000000F0010000007054200320150422000101 00000000000000000000000000000000000000000000000000000000000000000000000000000000000000000000000000000000000000000N 00000000000NCONT   00    00000000000          00000000000000000000000000000000000000000000 000000000000000A000000000000000000000000000000000000000000000 000000000000000000000000000000000000000     00000000                                                                                                                        000000000000000000
F0010000007054200004000080202350700023658300000000000000000201504220002001CONNY DE LA COSTA SAS                             C000000000028800000000000000000000100010010000000000000000000000F0010000007054200420150422000101 00000000000000000000000000000000000000000000000000000000000000000000000000000000000000000000000000000000000000000N 00000000000NCONT   00    00000000000          00000000000000000000000000000000000000000000 000000000000000A000000000000000000000000000000000000000000000 000000000000000000000000000000000000000     00000000                                                                                                                        000000000000000000
F0010000007054200005000080202350700013552100000000000000000201504220002001CONNY DE LA COSTA SAS                             D000000000028800000000000000000000100010010000000000000000000000F0010000007054200520150422000101 00000000000000000000000000000000000000000000000000000000000000000000000000000000000000000000000000000000000000000N 00000000000NCONT   00    00000000000          00000000000000000000000000000000000000000000 000000000000000A000000000000000000000000000000000000000000000 000000000000000000000000000000000000000     00000000                                                                                                                        000000000000000000
F0010000007054300001000007934219000011050500000000000000000201504220002001CANDELEC ILUMINACIONE                             D000000001300000000000000000000000100010010000000000000000000000F0010000007054300120150422000101 00000000000000000000000000000000000000000000000000000000000000000000000000000000000000000000000000000000000000000N 00000000000NCONT   00    00000000000          00000000000000000000000000000000000000000000 000000000000000A000000000000000000000000000000000000000000000 000000000000000000000000000000000000000     00000000                                                                                                                        000000000000000000
F0010000007054300002000007934219000041450500000000000000000201504220002001CANDELEC ILUMINACIONE                             C000000001200000000000000000000000100010010000000000000000000000F0010000007054300220150422000101 00000000000000000000000000000000000000000000000000000000000000000000000000000000000000000000000000000000000000000N 00000000000NCONT   00    00000000000          00000000000000000000000000000000000000000000 000000000000000A000000000000000000000000000000000000000000000 000000000000000000000000000000000000000     00000000                                                                                                                        000000000000000000
F0010000007054300003000007934219000042505000000000000000000201504220002001CANDELEC ILUMINACIONE                             C000000000100000000000000000000000100010010000000000000000000000F0010000007054300320150422000101 00000000000000000000000000000000000000000000000000000000000000000000000000000000000000000000000000000000000000000N 00000000000NCONT   00    00000000000          00000000000000000000000000000000000000000000 000000000000000A000000000000000000000000000000000000000000000 000000000000000000000000000000000000000     00000000                                                                                                                        000000000000000000
F0010000007054300004000007934219000023658300000000000000000201504220002001CANDELEC ILUMINACIONE                             C000000000009600000000000000000000100010010000000000000000000000F0010000007054300420150422000101 00000000000000000000000000000000000000000000000000000000000000000000000000000000000000000000000000000000000000000N 00000000000NCONT   00    00000000000          00000000000000000000000000000000000000000000 000000000000000A000000000000000000000000000000000000000000000 000000000000000000000000000000000000000     00000000                                                                                                                        000000000000000000
F0010000007054300005000007934219000013552100000000000000000201504220002001CANDELEC ILUMINACIONE                             D000000000009600000000000000000000100010010000000000000000000000F0010000007054300520150422000101 00000000000000000000000000000000000000000000000000000000000000000000000000000000000000000000000000000000000000000N 00000000000NCONT   00    00000000000          00000000000000000000000000000000000000000000 000000000000000A000000000000000000000000000000000000000000000 000000000000000000000000000000000000000     00000000                                                                                                                        000000000000000000
