F0010000008350400001000081102758700013050500000000000000000201603070002001C.I. ABRACOL S.A EMA                              D000000105234400000000000000000000100010010000000000000000000000F0010000008350400120160307000101 00000000000000000000000000000000000000000000000000000000000000000000000000000000000000000000000000000000000000000N 00000000000NCONT   00    00000000000          00000000000000000000000000000000000000000000 000000000000000A000000000000000000000000000000000000000000000 000000000000000000000000000000000000000     00000000                                                                                                                        000000000000000000
F0010000008350400002000081102758700041450500000000000000000201603070002001C.I. ABRACOL S.A EMA                              C000000061780000000000000000000000100010010000000000000000000000F0010000008350400220160307000101 00000000000000000000000000000000000000000000000000000000000000000000000000000000000000000000000000000000000000000N 00000000000NCONT   00    00000000000          00000000000000000000000000000000000000000000 000000000000000A000000000000000000000000000000000000000000000 000000000000000000000000000000000000000     00000000                                                                                                                        000000000000000000
F0010000008350400003000081102758700041750100000000000000000201603070002001C.I. ABRACOL S.A EMA                              D000000001853400000000000000000000100010010000000000000000000000F0010000008350400320160307000101 00000000000000000000000000000000000000000000000000000000000000000000000000000000000000000000000000000000000000000N 00000000000NCONT   00    00000000000          00000000000000000000000000000000000000000000 000000000000000A000000000000000000000000000000000000000000000 000000000000000000000000000000000000000     00000000                                                                                                                        000000000000000000
F0010000008350400004000081102758700042505000000000000000000201603070002001C.I. ABRACOL S.A EMA                              C000000045307800000000000000000000100010010000000000000000000000F0010000008350400420160307000101 00000000000000000000000000000000000000000000000000000000000000000000000000000000000000000000000000000000000000000N 00000000000NCONT   00    00000000000          00000000000000000000000000000000000000000000 000000000000000A000000000000000000000000000000000000000000000 000000000000000000000000000000000000000     00000000                                                                                                                        000000000000000000
F0010000008350400005000081102758700023658300000000000000000201603070002001C.I. ABRACOL S.A EMA                              C000000000494200000000000000000000100010010000000000000000000000F0010000008350400520160307000101 00000000000000000000000000000000000000000000000000000000000000000000000000000000000000000000000000000000000000000N 00000000000NCONT   00    00000000000          00000000000000000000000000000000000000000000 000000000000000A000000000000000000000000000000000000000000000 000000000000000000000000000000000000000     00000000                                                                                                                        000000000000000000
F0010000008350400006000081102758700013552100000000000000000201603070002001C.I. ABRACOL S.A EMA                              D000000000494200000000000000000000100010010000000000000000000000F0010000008350400620160307000101 00000000000000000000000000000000000000000000000000000000000000000000000000000000000000000000000000000000000000000N 00000000000NCONT   00    00000000000          00000000000000000000000000000000000000000000 000000000000000A000000000000000000000000000000000000000000000 000000000000000000000000000000000000000     00000000                                                                                                                        000000000000000000
F0010000008350500001000081102758700013050500000000000000000201603070002001C.I. ABRACOL S.A EMA                              D000000023500200000000000000000000100010010000000000000000000000F0010000008350500120160307000101 00000000000000000000000000000000000000000000000000000000000000000000000000000000000000000000000000000000000000000N 00000000000NCONT   00    00000000000          00000000000000000000000000000000000000000000 000000000000000A000000000000000000000000000000000000000000000 000000000000000000000000000000000000000     00000000                                                                                                                        000000000000000000
F0010000008350500002000081102758700041450500000000000000000201603070002001C.I. ABRACOL S.A EMA                              C000000013970000000000000000000000100010010000000000000000000000F0010000008350500220160307000101 00000000000000000000000000000000000000000000000000000000000000000000000000000000000000000000000000000000000000000N 00000000000NCONT   00    00000000000          00000000000000000000000000000000000000000000 000000000000000A000000000000000000000000000000000000000000000 000000000000000000000000000000000000000     00000000                                                                                                                        000000000000000000
F0010000008350500003000081102758700041750100000000000000000201603070002001C.I. ABRACOL S.A EMA                              D000000000419100000000000000000000100010010000000000000000000000F0010000008350500320160307000101 00000000000000000000000000000000000000000000000000000000000000000000000000000000000000000000000000000000000000000N 00000000000NCONT   00    00000000000          00000000000000000000000000000000000000000000 000000000000000A000000000000000000000000000000000000000000000 000000000000000000000000000000000000000     00000000                                                                                                                        000000000000000000
F0010000008350500004000081102758700042505000000000000000000201603070002001C.I. ABRACOL S.A EMA                              C000000009949300000000000000000000100010010000000000000000000000F0010000008350500420160307000101 00000000000000000000000000000000000000000000000000000000000000000000000000000000000000000000000000000000000000000N 00000000000NCONT   00    00000000000          00000000000000000000000000000000000000000000 000000000000000A000000000000000000000000000000000000000000000 000000000000000000000000000000000000000     00000000                                                                                                                        000000000000000000
F0010000008350500005000081102758700023658300000000000000000201603070002001C.I. ABRACOL S.A EMA                              C000000000111800000000000000000000100010010000000000000000000000F0010000008350500520160307000101 00000000000000000000000000000000000000000000000000000000000000000000000000000000000000000000000000000000000000000N 00000000000NCONT   00    00000000000          00000000000000000000000000000000000000000000 000000000000000A000000000000000000000000000000000000000000000 000000000000000000000000000000000000000     00000000                                                                                                                        000000000000000000
F0010000008350500006000081102758700013552100000000000000000201603070002001C.I. ABRACOL S.A EMA                              D000000000111800000000000000000000100010010000000000000000000000F0010000008350500620160307000101 00000000000000000000000000000000000000000000000000000000000000000000000000000000000000000000000000000000000000000N 00000000000NCONT   00    00000000000          00000000000000000000000000000000000000000000 000000000000000A000000000000000000000000000000000000000000000 000000000000000000000000000000000000000     00000000                                                                                                                        000000000000000000
F0010000008350600001000089010952800013050500000000000000000201603070002001IND. LITOGRAF. BOSTON S.A.S.                      D000000109060000000000000000000000100010010000000000000000000000F0010000008350600120160307000101 00000000000000000000000000000000000000000000000000000000000000000000000000000000000000000000000000000000000000000N 00000000000NCONT   00    00000000000          00000000000000000000000000000000000000000000 000000000000000A000000000000000000000000000000000000000000000 000000000000000000000000000000000000000     00000000                                                                                                                        000000000000000000
F0010000008350600002000089010952800041450500000000000000000201603070002001IND. LITOGRAF. BOSTON S.A.S.                      C000000098480000000000000000000000100010010000000000000000000000F0010000008350600220160307000101 00000000000000000000000000000000000000000000000000000000000000000000000000000000000000000000000000000000000000000N 00000000000NCONT   00    00000000000          00000000000000000000000000000000000000000000 000000000000000A000000000000000000000000000000000000000000000 000000000000000000000000000000000000000     00000000                                                                                                                        000000000000000000
F0010000008350600003000089010952800042505000000000000000000201603070002001IND. LITOGRAF. BOSTON S.A.S.                      C000000010580000000000000000000000100010010000000000000000000000F0010000008350600320160307000101 00000000000000000000000000000000000000000000000000000000000000000000000000000000000000000000000000000000000000000N 00000000000NCONT   00    00000000000          00000000000000000000000000000000000000000000 000000000000000A000000000000000000000000000000000000000000000 000000000000000000000000000000000000000     00000000                                                                                                                        000000000000000000
F0010000008350600004000089010952800023658300000000000000000201603070002001IND. LITOGRAF. BOSTON S.A.S.                      C000000000787800000000000000000000100010010000000000000000000000F0010000008350600420160307000101 00000000000000000000000000000000000000000000000000000000000000000000000000000000000000000000000000000000000000000N 00000000000NCONT   00    00000000000          00000000000000000000000000000000000000000000 000000000000000A000000000000000000000000000000000000000000000 000000000000000000000000000000000000000     00000000                                                                                                                        000000000000000000
F0010000008350600005000089010952800013552100000000000000000201603070002001IND. LITOGRAF. BOSTON S.A.S.                      D000000000787800000000000000000000100010010000000000000000000000F0010000008350600520160307000101 00000000000000000000000000000000000000000000000000000000000000000000000000000000000000000000000000000000000000000N 00000000000NCONT   00    00000000000          00000000000000000000000000000000000000000000 000000000000000A000000000000000000000000000000000000000000000 000000000000000000000000000000000000000     00000000                                                                                                                        000000000000000000
F0010000008350700001000089010272700013050500000000000000000201603070002001ALFONSOEME S.A.                                   D000000027684900000000000000000000100010010000000000000000000000F0010000008350700120160307000101 00000000000000000000000000000000000000000000000000000000000000000000000000000000000000000000000000000000000000000N 00000000000NCONT   00    00000000000          00000000000000000000000000000000000000000000 000000000000000A000000000000000000000000000000000000000000000 000000000000000000000000000000000000000     00000000                                                                                                                        000000000000000000
F0010000008350700002000089010272700041450500000000000000000201603070002001ALFONSOEME S.A.                                   C000000027649900000000000000000000100010010000000000000000000000F0010000008350700220160307000101 00000000000000000000000000000000000000000000000000000000000000000000000000000000000000000000000000000000000000000N 00000000000NCONT   00    00000000000          00000000000000000000000000000000000000000000 000000000000000A000000000000000000000000000000000000000000000 000000000000000000000000000000000000000     00000000                                                                                                                        000000000000000000
F0010000008350700003000089010272700041750100000000000000000201603070002001ALFONSOEME S.A.                                   D000000002765000000000000000000000100010010000000000000000000000F0010000008350700320160307000101 00000000000000000000000000000000000000000000000000000000000000000000000000000000000000000000000000000000000000000N 00000000000NCONT   00    00000000000          00000000000000000000000000000000000000000000 000000000000000A000000000000000000000000000000000000000000000 000000000000000000000000000000000000000     00000000                                                                                                                        000000000000000000
F0010000008350700004000089010272700042505000000000000000000201603070002001ALFONSOEME S.A.                                   C000000002800000000000000000000000100010010000000000000000000000F0010000008350700420160307000101 00000000000000000000000000000000000000000000000000000000000000000000000000000000000000000000000000000000000000000N 00000000000NCONT   00    00000000000          00000000000000000000000000000000000000000000 000000000000000A000000000000000000000000000000000000000000000 000000000000000000000000000000000000000     00000000                                                                                                                        000000000000000000
F0010000008350700005000089010272700023658300000000000000000201603070002001ALFONSOEME S.A.                                   C000000000221200000000000000000000100010010000000000000000000000F0010000008350700520160307000101 00000000000000000000000000000000000000000000000000000000000000000000000000000000000000000000000000000000000000000N 00000000000NCONT   00    00000000000          00000000000000000000000000000000000000000000 000000000000000A000000000000000000000000000000000000000000000 000000000000000000000000000000000000000     00000000                                                                                                                        000000000000000000
F0010000008350700006000089010272700013552100000000000000000201603070002001ALFONSOEME S.A.                                   D000000000221200000000000000000000100010010000000000000000000000F0010000008350700620160307000101 00000000000000000000000000000000000000000000000000000000000000000000000000000000000000000000000000000000000000000N 00000000000NCONT   00    00000000000          00000000000000000000000000000000000000000000 000000000000000A000000000000000000000000000000000000000000000 000000000000000000000000000000000000000     00000000                                                                                                                        000000000000000000
F0010000008350800001000089010272700013050500000000000000000201603070002001ALFONSOEME S.A.                                   D000000020896300000000000000000000100010010000000000000000000000F0010000008350800120160307000101 00000000000000000000000000000000000000000000000000000000000000000000000000000000000000000000000000000000000000000N 00000000000NCONT   00    00000000000          00000000000000000000000000000000000000000000 000000000000000A000000000000000000000000000000000000000000000 000000000000000000000000000000000000000     00000000                                                                                                                        000000000000000000
F0010000008350800002000089010272700041450500000000000000000201603070002001ALFONSOEME S.A.                                   C000000021707000000000000000000000100010010000000000000000000000F0010000008350800220160307000101 00000000000000000000000000000000000000000000000000000000000000000000000000000000000000000000000000000000000000000N 00000000000NCONT   00    00000000000          00000000000000000000000000000000000000000000 000000000000000A000000000000000000000000000000000000000000000 000000000000000000000000000000000000000     00000000                                                                                                                        000000000000000000
F0010000008350800003000089010272700041750100000000000000000201603070002001ALFONSOEME S.A.                                   D000000002170700000000000000000000100010010000000000000000000000F0010000008350800320160307000101 00000000000000000000000000000000000000000000000000000000000000000000000000000000000000000000000000000000000000000N 00000000000NCONT   00    00000000000          00000000000000000000000000000000000000000000 000000000000000A000000000000000000000000000000000000000000000 000000000000000000000000000000000000000     00000000                                                                                                                        000000000000000000
F0010000008350800004000089010272700042505000000000000000000201603070002001ALFONSOEME S.A.                                   C000000001360000000000000000000000100010010000000000000000000000F0010000008350800420160307000101 00000000000000000000000000000000000000000000000000000000000000000000000000000000000000000000000000000000000000000N 00000000000NCONT   00    00000000000          00000000000000000000000000000000000000000000 000000000000000A000000000000000000000000000000000000000000000 000000000000000000000000000000000000000     00000000                                                                                                                        000000000000000000
F0010000008350800005000089010272700023658300000000000000000201603070002001ALFONSOEME S.A.                                   C000000000173700000000000000000000100010010000000000000000000000F0010000008350800520160307000101 00000000000000000000000000000000000000000000000000000000000000000000000000000000000000000000000000000000000000000N 00000000000NCONT   00    00000000000          00000000000000000000000000000000000000000000 000000000000000A000000000000000000000000000000000000000000000 000000000000000000000000000000000000000     00000000                                                                                                                        000000000000000000
F0010000008350800006000089010272700013552100000000000000000201603070002001ALFONSOEME S.A.                                   D000000000173700000000000000000000100010010000000000000000000000F0010000008350800620160307000101 00000000000000000000000000000000000000000000000000000000000000000000000000000000000000000000000000000000000000000N 00000000000NCONT   00    00000000000          00000000000000000000000000000000000000000000 000000000000000A000000000000000000000000000000000000000000000 000000000000000000000000000000000000000     00000000                                                                                                                        000000000000000000
F0010000008350900001000090052543100013050500000000000000000201603070002001SECRET COLOR SAS                                  D000000006230000000000000000000000100010010000000000000000000000F0010000008350900120160307000101 00000000000000000000000000000000000000000000000000000000000000000000000000000000000000000000000000000000000000000N 00000000000NCONT   00    00000000000          00000000000000000000000000000000000000000000 000000000000000A000000000000000000000000000000000000000000000 000000000000000000000000000000000000000     00000000                                                                                                                        000000000000000000
F0010000008350900002000090052543100041450500000000000000000201603070002001SECRET COLOR SAS                                  C000000006230000000000000000000000100010010000000000000000000000F0010000008350900220160307000101 00000000000000000000000000000000000000000000000000000000000000000000000000000000000000000000000000000000000000000N 00000000000NCONT   00    00000000000          00000000000000000000000000000000000000000000 000000000000000A000000000000000000000000000000000000000000000 000000000000000000000000000000000000000     00000000                                                                                                                        000000000000000000
F0010000008350900003000090052543100042505000000000000000000201603070002001SECRET COLOR SAS                                  C000000000000000000000000000000000100010010000000000000000000000F0010000008350900320160307000101 00000000000000000000000000000000000000000000000000000000000000000000000000000000000000000000000000000000000000000N 00000000000NCONT   00    00000000000          00000000000000000000000000000000000000000000 000000000000000A000000000000000000000000000000000000000000000 000000000000000000000000000000000000000     00000000                                                                                                                        000000000000000000
F0010000008350900004000090052543100023658300000000000000000201603070002001SECRET COLOR SAS                                  C000000000049800000000000000000000100010010000000000000000000000F0010000008350900420160307000101 00000000000000000000000000000000000000000000000000000000000000000000000000000000000000000000000000000000000000000N 00000000000NCONT   00    00000000000          00000000000000000000000000000000000000000000 000000000000000A000000000000000000000000000000000000000000000 000000000000000000000000000000000000000     00000000                                                                                                                        000000000000000000
F0010000008350900005000090052543100013552100000000000000000201603070002001SECRET COLOR SAS                                  D000000000049800000000000000000000100010010000000000000000000000F0010000008350900520160307000101 00000000000000000000000000000000000000000000000000000000000000000000000000000000000000000000000000000000000000000N 00000000000NCONT   00    00000000000          00000000000000000000000000000000000000000000 000000000000000A000000000000000000000000000000000000000000000 000000000000000000000000000000000000000     00000000                                                                                                                        000000000000000000
F0010000008351000001000089070997800013050500000000000000000201603070002001CENTRAL DE TORNILLOS                              D000000018020000000000000000000000100010010000000000000000000000F0010000008351000120160307000101 00000000000000000000000000000000000000000000000000000000000000000000000000000000000000000000000000000000000000000N 00000000000NCONT   00    00000000000          00000000000000000000000000000000000000000000 000000000000000A000000000000000000000000000000000000000000000 000000000000000000000000000000000000000     00000000                                                                                                                        000000000000000000
F0010000008351000002000089070997800041450500000000000000000201603070002001CENTRAL DE TORNILLOS                              C000000016020000000000000000000000100010010000000000000000000000F0010000008351000220160307000101 00000000000000000000000000000000000000000000000000000000000000000000000000000000000000000000000000000000000000000N 00000000000NCONT   00    00000000000          00000000000000000000000000000000000000000000 000000000000000A000000000000000000000000000000000000000000000 000000000000000000000000000000000000000     00000000                                                                                                                        000000000000000000
F0010000008351000003000089070997800042505000000000000000000201603070002001CENTRAL DE TORNILLOS                              C000000002000000000000000000000000100010010000000000000000000000F0010000008351000320160307000101 00000000000000000000000000000000000000000000000000000000000000000000000000000000000000000000000000000000000000000N 00000000000NCONT   00    00000000000          00000000000000000000000000000000000000000000 000000000000000A000000000000000000000000000000000000000000000 000000000000000000000000000000000000000     00000000                                                                                                                        000000000000000000
F0010000008351000004000089070997800023658300000000000000000201603070002001CENTRAL DE TORNILLOS                              C000000000128200000000000000000000100010010000000000000000000000F0010000008351000420160307000101 00000000000000000000000000000000000000000000000000000000000000000000000000000000000000000000000000000000000000000N 00000000000NCONT   00    00000000000          00000000000000000000000000000000000000000000 000000000000000A000000000000000000000000000000000000000000000 000000000000000000000000000000000000000     00000000                                                                                                                        000000000000000000
F0010000008351000005000089070997800013552100000000000000000201603070002001CENTRAL DE TORNILLOS                              D000000000128200000000000000000000100010010000000000000000000000F0010000008351000520160307000101 00000000000000000000000000000000000000000000000000000000000000000000000000000000000000000000000000000000000000000N 00000000000NCONT   00    00000000000          00000000000000000000000000000000000000000000 000000000000000A000000000000000000000000000000000000000000000 000000000000000000000000000000000000000     00000000                                                                                                                        000000000000000000
F0010000008351100001000080200962900013050500000000000000000201603070002001ACERO & MALLAS S.A.S.                             D000000004346000000000000000000000100010010000000000000000000000F0010000008351100120160307000101 00000000000000000000000000000000000000000000000000000000000000000000000000000000000000000000000000000000000000000N 00000000000NCONT   00    00000000000          00000000000000000000000000000000000000000000 000000000000000A000000000000000000000000000000000000000000000 000000000000000000000000000000000000000     00000000                                                                                                                        000000000000000000
F0010000008351100002000080200962900041450500000000000000000201603070002001ACERO & MALLAS S.A.S.                             C000000002660000000000000000000000100010010000000000000000000000F0010000008351100220160307000101 00000000000000000000000000000000000000000000000000000000000000000000000000000000000000000000000000000000000000000N 00000000000NCONT   00    00000000000          00000000000000000000000000000000000000000000 000000000000000A000000000000000000000000000000000000000000000 000000000000000000000000000000000000000     00000000                                                                                                                        000000000000000000
F0010000008351100003000080200962900042505000000000000000000201603070002001ACERO & MALLAS S.A.S.                             C000000001686000000000000000000000100010010000000000000000000000F0010000008351100320160307000101 00000000000000000000000000000000000000000000000000000000000000000000000000000000000000000000000000000000000000000N 00000000000NCONT   00    00000000000          00000000000000000000000000000000000000000000 000000000000000A000000000000000000000000000000000000000000000 000000000000000000000000000000000000000     00000000                                                                                                                        000000000000000000
F0010000008351100004000080200962900023658300000000000000000201603070002001ACERO & MALLAS S.A.S.                             C000000000021300000000000000000000100010010000000000000000000000F0010000008351100420160307000101 00000000000000000000000000000000000000000000000000000000000000000000000000000000000000000000000000000000000000000N 00000000000NCONT   00    00000000000          00000000000000000000000000000000000000000000 000000000000000A000000000000000000000000000000000000000000000 000000000000000000000000000000000000000     00000000                                                                                                                        000000000000000000
F0010000008351100005000080200962900013552100000000000000000201603070002001ACERO & MALLAS S.A.S.                             D000000000021300000000000000000000100010010000000000000000000000F0010000008351100520160307000101 00000000000000000000000000000000000000000000000000000000000000000000000000000000000000000000000000000000000000000N 00000000000NCONT   00    00000000000          00000000000000000000000000000000000000000000 000000000000000A000000000000000000000000000000000000000000000 000000000000000000000000000000000000000     00000000                                                                                                                        000000000000000000
F0010000008351200001000090060531100013050500000000000000000201603070002001RECUBRIMIENTOS ESENCIALES SAS                     D000000022000000000000000000000000100010010000000000000000000000F0010000008351200120160307000101 00000000000000000000000000000000000000000000000000000000000000000000000000000000000000000000000000000000000000000N 00000000000NCONT   00    00000000000          00000000000000000000000000000000000000000000 000000000000000A000000000000000000000000000000000000000000000 000000000000000000000000000000000000000     00000000                                                                                                                        000000000000000000
F0010000008351200002000090060531100041450500000000000000000201603070002001RECUBRIMIENTOS ESENCIALES SAS                     C000000021000000000000000000000000100010010000000000000000000000F0010000008351200220160307000101 00000000000000000000000000000000000000000000000000000000000000000000000000000000000000000000000000000000000000000N 00000000000NCONT   00    00000000000          00000000000000000000000000000000000000000000 000000000000000A000000000000000000000000000000000000000000000 000000000000000000000000000000000000000     00000000                                                                                                                        000000000000000000
F0010000008351200003000090060531100042505000000000000000000201603070002001RECUBRIMIENTOS ESENCIALES SAS                     C000000001000000000000000000000000100010010000000000000000000000F0010000008351200320160307000101 00000000000000000000000000000000000000000000000000000000000000000000000000000000000000000000000000000000000000000N 00000000000NCONT   00    00000000000          00000000000000000000000000000000000000000000 000000000000000A000000000000000000000000000000000000000000000 000000000000000000000000000000000000000     00000000                                                                                                                        000000000000000000
F0010000008351200004000090060531100023658300000000000000000201603070002001RECUBRIMIENTOS ESENCIALES SAS                     C000000000168000000000000000000000100010010000000000000000000000F0010000008351200420160307000101 00000000000000000000000000000000000000000000000000000000000000000000000000000000000000000000000000000000000000000N 00000000000NCONT   00    00000000000          00000000000000000000000000000000000000000000 000000000000000A000000000000000000000000000000000000000000000 000000000000000000000000000000000000000     00000000                                                                                                                        000000000000000000
F0010000008351200005000090060531100013552100000000000000000201603070002001RECUBRIMIENTOS ESENCIALES SAS                     D000000000168000000000000000000000100010010000000000000000000000F0010000008351200520160307000101 00000000000000000000000000000000000000000000000000000000000000000000000000000000000000000000000000000000000000000N 00000000000NCONT   00    00000000000          00000000000000000000000000000000000000000000 000000000000000A000000000000000000000000000000000000000000000 000000000000000000000000000000000000000     00000000                                                                                                                        000000000000000000
F0010000008351300001000002258669400013050500000000000000000201603070002001YURY PAOLA  SANTAMARIA ..                         D000000005740000000000000000000000100010010000000000000000000000F0010000008351300120160307000101 00000000000000000000000000000000000000000000000000000000000000000000000000000000000000000000000000000000000000000N 00000000000NCONT   00    00000000000          00000000000000000000000000000000000000000000 000000000000000A000000000000000000000000000000000000000000000 000000000000000000000000000000000000000     00000000                                                                                                                        000000000000000000
F0010000008351300002000002258669400041450500000000000000000201603070002001YURY PAOLA  SANTAMARIA ..                         C000000004890000000000000000000000100010010000000000000000000000F0010000008351300220160307000101 00000000000000000000000000000000000000000000000000000000000000000000000000000000000000000000000000000000000000000N 00000000000NCONT   00    00000000000          00000000000000000000000000000000000000000000 000000000000000A000000000000000000000000000000000000000000000 000000000000000000000000000000000000000     00000000                                                                                                                        000000000000000000
F0010000008351300003000002258669400042505000000000000000000201603070002001YURY PAOLA  SANTAMARIA ..                         C000000000850000000000000000000000100010010000000000000000000000F0010000008351300320160307000101 00000000000000000000000000000000000000000000000000000000000000000000000000000000000000000000000000000000000000000N 00000000000NCONT   00    00000000000          00000000000000000000000000000000000000000000 000000000000000A000000000000000000000000000000000000000000000 000000000000000000000000000000000000000     00000000                                                                                                                        000000000000000000
F0010000008351300004000002258669400023658300000000000000000201603070002001YURY PAOLA  SANTAMARIA ..                         C000000000039100000000000000000000100010010000000000000000000000F0010000008351300420160307000101 00000000000000000000000000000000000000000000000000000000000000000000000000000000000000000000000000000000000000000N 00000000000NCONT   00    00000000000          00000000000000000000000000000000000000000000 000000000000000A000000000000000000000000000000000000000000000 000000000000000000000000000000000000000     00000000                                                                                                                        000000000000000000
F0010000008351300005000002258669400013552100000000000000000201603070002001YURY PAOLA  SANTAMARIA ..                         D000000000039100000000000000000000100010010000000000000000000000F0010000008351300520160307000101 00000000000000000000000000000000000000000000000000000000000000000000000000000000000000000000000000000000000000000N 00000000000NCONT   00    00000000000          00000000000000000000000000000000000000000000 000000000000000A000000000000000000000000000000000000000000000 000000000000000000000000000000000000000     00000000                                                                                                                        000000000000000000
F0010000008351500001000090008711200013050500000000000000000201603070002001PACKAGING SUPPLIERS S.A.                          D000000053575600000000000000000000100010010000000000000000000000F0010000008351500120160307000101 00000000000000000000000000000000000000000000000000000000000000000000000000000000000000000000000000000000000000000N 00000000000NCONT   00    00000000000          00000000000000000000000000000000000000000000 000000000000000A000000000000000000000000000000000000000000000 000000000000000000000000000000000000000     00000000                                                                                                                        000000000000000000
F0010000008351500002000090008711200041450500000000000000000201603070002001PACKAGING SUPPLIERS S.A.                          C000000048830600000000000000000000100010010000000000000000000000F0010000008351500220160307000101 00000000000000000000000000000000000000000000000000000000000000000000000000000000000000000000000000000000000000000N 00000000000NCONT   00    00000000000          00000000000000000000000000000000000000000000 000000000000000A000000000000000000000000000000000000000000000 000000000000000000000000000000000000000     00000000                                                                                                                        000000000000000000
F0010000008351500003000090008711200042505000000000000000000201603070002001PACKAGING SUPPLIERS S.A.                          C000000004745000000000000000000000100010010000000000000000000000F0010000008351500320160307000101 00000000000000000000000000000000000000000000000000000000000000000000000000000000000000000000000000000000000000000N 00000000000NCONT   00    00000000000          00000000000000000000000000000000000000000000 000000000000000A000000000000000000000000000000000000000000000 000000000000000000000000000000000000000     00000000                                                                                                                        000000000000000000
F0010000008351500004000090008711200023658300000000000000000201603070002001PACKAGING SUPPLIERS S.A.                          C000000000390600000000000000000000100010010000000000000000000000F0010000008351500420160307000101 00000000000000000000000000000000000000000000000000000000000000000000000000000000000000000000000000000000000000000N 00000000000NCONT   00    00000000000          00000000000000000000000000000000000000000000 000000000000000A000000000000000000000000000000000000000000000 000000000000000000000000000000000000000     00000000                                                                                                                        000000000000000000
F0010000008351500005000090008711200013552100000000000000000201603070002001PACKAGING SUPPLIERS S.A.                          D000000000390600000000000000000000100010010000000000000000000000F0010000008351500520160307000101 00000000000000000000000000000000000000000000000000000000000000000000000000000000000000000000000000000000000000000N 00000000000NCONT   00    00000000000          00000000000000000000000000000000000000000000 000000000000000A000000000000000000000000000000000000000000000 000000000000000000000000000000000000000     00000000                                                                                                                        000000000000000000
F0010000008351600001000000748239700013050500000000000000000201603070002001RAFAEL NAVARRO URIBE                              D000000022330600000000000000000000100010010000000000000000000000F0010000008351600120160307000101 00000000000000000000000000000000000000000000000000000000000000000000000000000000000000000000000000000000000000000N 00000000000NCONT   00    00000000000          00000000000000000000000000000000000000000000 000000000000000A000000000000000000000000000000000000000000000 000000000000000000000000000000000000000     00000000                                                                                                                        000000000000000000
F0010000008351600002000000748239700041450500000000000000000201603070002001RAFAEL NAVARRO URIBE                              C000000015570000000000000000000000100010010000000000000000000000F0010000008351600220160307000101 00000000000000000000000000000000000000000000000000000000000000000000000000000000000000000000000000000000000000000N 00000000000NCONT   00    00000000000          00000000000000000000000000000000000000000000 000000000000000A000000000000000000000000000000000000000000000 000000000000000000000000000000000000000     00000000                                                                                                                        000000000000000000
F0010000008351600003000000748239700042505000000000000000000201603070002001RAFAEL NAVARRO URIBE                              C000000006760600000000000000000000100010010000000000000000000000F0010000008351600320160307000101 00000000000000000000000000000000000000000000000000000000000000000000000000000000000000000000000000000000000000000N 00000000000NCONT   00    00000000000          00000000000000000000000000000000000000000000 000000000000000A000000000000000000000000000000000000000000000 000000000000000000000000000000000000000     00000000                                                                                                                        000000000000000000
F0010000008351600004000000748239700023658300000000000000000201603070002001RAFAEL NAVARRO URIBE                              C000000000124600000000000000000000100010010000000000000000000000F0010000008351600420160307000101 00000000000000000000000000000000000000000000000000000000000000000000000000000000000000000000000000000000000000000N 00000000000NCONT   00    00000000000          00000000000000000000000000000000000000000000 000000000000000A000000000000000000000000000000000000000000000 000000000000000000000000000000000000000     00000000                                                                                                                        000000000000000000
F0010000008351600005000000748239700013552100000000000000000201603070002001RAFAEL NAVARRO URIBE                              D000000000124600000000000000000000100010010000000000000000000000F0010000008351600520160307000101 00000000000000000000000000000000000000000000000000000000000000000000000000000000000000000000000000000000000000000N 00000000000NCONT   00    00000000000          00000000000000000000000000000000000000000000 000000000000000A000000000000000000000000000000000000000000000 000000000000000000000000000000000000000     00000000                                                                                                                        000000000000000000
F0010000008351700001000083007900600013050500000000000000000201603070002001EXPRESO ANDINO DE CARGA SA                        D000000039400000000000000000000000100010010000000000000000000000F0010000008351700120160307000101 00000000000000000000000000000000000000000000000000000000000000000000000000000000000000000000000000000000000000000N 00000000000NCONT   00    00000000000          00000000000000000000000000000000000000000000 000000000000000A000000000000000000000000000000000000000000000 000000000000000000000000000000000000000     00000000                                                                                                                        000000000000000000
F0010000008351700002000083007900600041450500000000000000000201603070002001EXPRESO ANDINO DE CARGA SA                        C000000039200000000000000000000000100010010000000000000000000000F0010000008351700220160307000101 00000000000000000000000000000000000000000000000000000000000000000000000000000000000000000000000000000000000000000N 00000000000NCONT   00    00000000000          00000000000000000000000000000000000000000000 000000000000000A000000000000000000000000000000000000000000000 000000000000000000000000000000000000000     00000000                                                                                                                        000000000000000000
F0010000008351700003000083007900600042505000000000000000000201603070002001EXPRESO ANDINO DE CARGA SA                        C000000000200000000000000000000000100010010000000000000000000000F0010000008351700320160307000101 00000000000000000000000000000000000000000000000000000000000000000000000000000000000000000000000000000000000000000N 00000000000NCONT   00    00000000000          00000000000000000000000000000000000000000000 000000000000000A000000000000000000000000000000000000000000000 000000000000000000000000000000000000000     00000000                                                                                                                        000000000000000000
F0010000008351700004000083007900600023658300000000000000000201603070002001EXPRESO ANDINO DE CARGA SA                        C000000000313600000000000000000000100010010000000000000000000000F0010000008351700420160307000101 00000000000000000000000000000000000000000000000000000000000000000000000000000000000000000000000000000000000000000N 00000000000NCONT   00    00000000000          00000000000000000000000000000000000000000000 000000000000000A000000000000000000000000000000000000000000000 000000000000000000000000000000000000000     00000000                                                                                                                        000000000000000000
F0010000008351700005000083007900600013552100000000000000000201603070002001EXPRESO ANDINO DE CARGA SA                        D000000000313600000000000000000000100010010000000000000000000000F0010000008351700520160307000101 00000000000000000000000000000000000000000000000000000000000000000000000000000000000000000000000000000000000000000N 00000000000NCONT   00    00000000000          00000000000000000000000000000000000000000000 000000000000000A000000000000000000000000000000000000000000000 000000000000000000000000000000000000000     00000000                                                                                                                        000000000000000000
F0010000008351800001000090009800500013050500000000000000000201603070002001GLORIANT CHEMICAL DE COLOMBIA LTDA                D000000022876000000000000000000000100010010000000000000000000000F0010000008351800120160307000101 00000000000000000000000000000000000000000000000000000000000000000000000000000000000000000000000000000000000000000N 00000000000NCONT   00    00000000000          00000000000000000000000000000000000000000000 000000000000000A000000000000000000000000000000000000000000000 000000000000000000000000000000000000000     00000000                                                                                                                        000000000000000000
F0010000008351800002000090009800500041450500000000000000000201603070002001GLORIANT CHEMICAL DE COLOMBIA LTDA                C000000020070000000000000000000000100010010000000000000000000000F0010000008351800220160307000101 00000000000000000000000000000000000000000000000000000000000000000000000000000000000000000000000000000000000000000N 00000000000NCONT   00    00000000000          00000000000000000000000000000000000000000000 000000000000000A000000000000000000000000000000000000000000000 000000000000000000000000000000000000000     00000000                                                                                                                        000000000000000000
F0010000008351800003000090009800500042505000000000000000000201603070002001GLORIANT CHEMICAL DE COLOMBIA LTDA                C000000002806000000000000000000000100010010000000000000000000000F0010000008351800320160307000101 00000000000000000000000000000000000000000000000000000000000000000000000000000000000000000000000000000000000000000N 00000000000NCONT   00    00000000000          00000000000000000000000000000000000000000000 000000000000000A000000000000000000000000000000000000000000000 000000000000000000000000000000000000000     00000000                                                                                                                        000000000000000000
F0010000008351800004000090009800500023658300000000000000000201603070002001GLORIANT CHEMICAL DE COLOMBIA LTDA                C000000000160600000000000000000000100010010000000000000000000000F0010000008351800420160307000101 00000000000000000000000000000000000000000000000000000000000000000000000000000000000000000000000000000000000000000N 00000000000NCONT   00    00000000000          00000000000000000000000000000000000000000000 000000000000000A000000000000000000000000000000000000000000000 000000000000000000000000000000000000000     00000000                                                                                                                        000000000000000000
F0010000008351800005000090009800500013552100000000000000000201603070002001GLORIANT CHEMICAL DE COLOMBIA LTDA                D000000000160600000000000000000000100010010000000000000000000000F0010000008351800520160307000101 00000000000000000000000000000000000000000000000000000000000000000000000000000000000000000000000000000000000000000N 00000000000NCONT   00    00000000000          00000000000000000000000000000000000000000000 000000000000000A000000000000000000000000000000000000000000000 000000000000000000000000000000000000000     00000000                                                                                                                        000000000000000000
F0010000008351900001000080014190300013050500000000000000000201603070002001QUIMINSA LTDA                                     D000000017244100000000000000000000100010010000000000000000000000F0010000008351900120160307000101 00000000000000000000000000000000000000000000000000000000000000000000000000000000000000000000000000000000000000000N 00000000000NCONT   00    00000000000          00000000000000000000000000000000000000000000 000000000000000A000000000000000000000000000000000000000000000 000000000000000000000000000000000000000     00000000                                                                                                                        000000000000000000
F0010000008351900002000080014190300041450500000000000000000201603070002001QUIMINSA LTDA                                     C000000015565000000000000000000000100010010000000000000000000000F0010000008351900220160307000101 00000000000000000000000000000000000000000000000000000000000000000000000000000000000000000000000000000000000000000N 00000000000NCONT   00    00000000000          00000000000000000000000000000000000000000000 000000000000000A000000000000000000000000000000000000000000000 000000000000000000000000000000000000000     00000000                                                                                                                        000000000000000000
F0010000008351900003000080014190300042505000000000000000000201603070002001QUIMINSA LTDA                                     C000000001679100000000000000000000100010010000000000000000000000F0010000008351900320160307000101 00000000000000000000000000000000000000000000000000000000000000000000000000000000000000000000000000000000000000000N 00000000000NCONT   00    00000000000          00000000000000000000000000000000000000000000 000000000000000A000000000000000000000000000000000000000000000 000000000000000000000000000000000000000     00000000                                                                                                                        000000000000000000
F0010000008351900004000080014190300023658300000000000000000201603070002001QUIMINSA LTDA                                     C000000000124500000000000000000000100010010000000000000000000000F0010000008351900420160307000101 00000000000000000000000000000000000000000000000000000000000000000000000000000000000000000000000000000000000000000N 00000000000NCONT   00    00000000000          00000000000000000000000000000000000000000000 000000000000000A000000000000000000000000000000000000000000000 000000000000000000000000000000000000000     00000000                                                                                                                        000000000000000000
F0010000008351900005000080014190300013552100000000000000000201603070002001QUIMINSA LTDA                                     D000000000124500000000000000000000100010010000000000000000000000F0010000008351900520160307000101 00000000000000000000000000000000000000000000000000000000000000000000000000000000000000000000000000000000000000000N 00000000000NCONT   00    00000000000          00000000000000000000000000000000000000000000 000000000000000A000000000000000000000000000000000000000000000 000000000000000000000000000000000000000     00000000                                                                                                                        000000000000000000
F0010000008352000001000086000490200013050500000000000000000201603070002001PROV. DE PAPELES ANDINA S.A.                      D000000032686800000000000000000000100010010000000000000000000000F0010000008352000120160307000101 00000000000000000000000000000000000000000000000000000000000000000000000000000000000000000000000000000000000000000N 00000000000NCONT   00    00000000000          00000000000000000000000000000000000000000000 000000000000000A000000000000000000000000000000000000000000000 000000000000000000000000000000000000000     00000000                                                                                                                        000000000000000000
F0010000008352000002000086000490200041450500000000000000000201603070002001PROV. DE PAPELES ANDINA S.A.                      C000000030599000000000000000000000100010010000000000000000000000F0010000008352000220160307000101 00000000000000000000000000000000000000000000000000000000000000000000000000000000000000000000000000000000000000000N 00000000000NCONT   00    00000000000          00000000000000000000000000000000000000000000 000000000000000A000000000000000000000000000000000000000000000 000000000000000000000000000000000000000     00000000                                                                                                                        000000000000000000
F0010000008352000003000086000490200042505000000000000000000201603070002001PROV. DE PAPELES ANDINA S.A.                      C000000002087800000000000000000000100010010000000000000000000000F0010000008352000320160307000101 00000000000000000000000000000000000000000000000000000000000000000000000000000000000000000000000000000000000000000N 00000000000NCONT   00    00000000000          00000000000000000000000000000000000000000000 000000000000000A000000000000000000000000000000000000000000000 000000000000000000000000000000000000000     00000000                                                                                                                        000000000000000000
F0010000008352000004000086000490200023658300000000000000000201603070002001PROV. DE PAPELES ANDINA S.A.                      C000000000244800000000000000000000100010010000000000000000000000F0010000008352000420160307000101 00000000000000000000000000000000000000000000000000000000000000000000000000000000000000000000000000000000000000000N 00000000000NCONT   00    00000000000          00000000000000000000000000000000000000000000 000000000000000A000000000000000000000000000000000000000000000 000000000000000000000000000000000000000     00000000                                                                                                                        000000000000000000
F0010000008352000005000086000490200013552100000000000000000201603070002001PROV. DE PAPELES ANDINA S.A.                      D000000000244800000000000000000000100010010000000000000000000000F0010000008352000520160307000101 00000000000000000000000000000000000000000000000000000000000000000000000000000000000000000000000000000000000000000N 00000000000NCONT   00    00000000000          00000000000000000000000000000000000000000000 000000000000000A000000000000000000000000000000000000000000000 000000000000000000000000000000000000000     00000000                                                                                                                        000000000000000000
F0010000008352100001000089010526900013050500000000000000000201603070002001DISTRIBUCIONES CANAL Y CIA S.A.S                  D000000026204500000000000000000000100010010000000000000000000000F0010000008352100120160307000101 00000000000000000000000000000000000000000000000000000000000000000000000000000000000000000000000000000000000000000N 00000000000NCONT   00    00000000000          00000000000000000000000000000000000000000000 000000000000000A000000000000000000000000000000000000000000000 000000000000000000000000000000000000000     00000000                                                                                                                        000000000000000000
F0010000008352100002000089010526900041450500000000000000000201603070002001DISTRIBUCIONES CANAL Y CIA S.A.S                  C000000018670000000000000000000000100010010000000000000000000000F0010000008352100220160307000101 00000000000000000000000000000000000000000000000000000000000000000000000000000000000000000000000000000000000000000N 00000000000NCONT   00    00000000000          00000000000000000000000000000000000000000000 000000000000000A000000000000000000000000000000000000000000000 000000000000000000000000000000000000000     00000000                                                                                                                        000000000000000000
F0010000008352100003000089010526900042505000000000000000000201603070002001DISTRIBUCIONES CANAL Y CIA S.A.S                  C000000007534500000000000000000000100010010000000000000000000000F0010000008352100320160307000101 00000000000000000000000000000000000000000000000000000000000000000000000000000000000000000000000000000000000000000N 00000000000NCONT   00    00000000000          00000000000000000000000000000000000000000000 000000000000000A000000000000000000000000000000000000000000000 000000000000000000000000000000000000000     00000000                                                                                                                        000000000000000000
F0010000008352100004000089010526900023658300000000000000000201603070002001DISTRIBUCIONES CANAL Y CIA S.A.S                  C000000000149400000000000000000000100010010000000000000000000000F0010000008352100420160307000101 00000000000000000000000000000000000000000000000000000000000000000000000000000000000000000000000000000000000000000N 00000000000NCONT   00    00000000000          00000000000000000000000000000000000000000000 000000000000000A000000000000000000000000000000000000000000000 000000000000000000000000000000000000000     00000000                                                                                                                        000000000000000000
F0010000008352100005000089010526900013552100000000000000000201603070002001DISTRIBUCIONES CANAL Y CIA S.A.S                  D000000000149400000000000000000000100010010000000000000000000000F0010000008352100520160307000101 00000000000000000000000000000000000000000000000000000000000000000000000000000000000000000000000000000000000000000N 00000000000NCONT   00    00000000000          00000000000000000000000000000000000000000000 000000000000000A000000000000000000000000000000000000000000000 000000000000000000000000000000000000000     00000000                                                                                                                        000000000000000000
F0010000008352200001000080002300200013050500000000000000000201603070002001DISREL S.A.                                       D000000022220000000000000000000000100010010000000000000000000000F0010000008352200120160307000101 00000000000000000000000000000000000000000000000000000000000000000000000000000000000000000000000000000000000000000N 00000000000NCONT   00    00000000000          00000000000000000000000000000000000000000000 000000000000000A000000000000000000000000000000000000000000000 000000000000000000000000000000000000000     00000000                                                                                                                        000000000000000000
F0010000008352200002000080002300200041450500000000000000000201603070002001DISREL S.A.                                       C000000020200000000000000000000000100010010000000000000000000000F0010000008352200220160307000101 00000000000000000000000000000000000000000000000000000000000000000000000000000000000000000000000000000000000000000N 00000000000NCONT   00    00000000000          00000000000000000000000000000000000000000000 000000000000000A000000000000000000000000000000000000000000000 000000000000000000000000000000000000000     00000000                                                                                                                        000000000000000000
F0010000008352200003000080002300200042505000000000000000000201603070002001DISREL S.A.                                       C000000002020000000000000000000000100010010000000000000000000000F0010000008352200320160307000101 00000000000000000000000000000000000000000000000000000000000000000000000000000000000000000000000000000000000000000N 00000000000NCONT   00    00000000000          00000000000000000000000000000000000000000000 000000000000000A000000000000000000000000000000000000000000000 000000000000000000000000000000000000000     00000000                                                                                                                        000000000000000000
F0010000008352200004000080002300200023658300000000000000000201603070002001DISREL S.A.                                       C000000000161600000000000000000000100010010000000000000000000000F0010000008352200420160307000101 00000000000000000000000000000000000000000000000000000000000000000000000000000000000000000000000000000000000000000N 00000000000NCONT   00    00000000000          00000000000000000000000000000000000000000000 000000000000000A000000000000000000000000000000000000000000000 000000000000000000000000000000000000000     00000000                                                                                                                        000000000000000000
F0010000008352200005000080002300200013552100000000000000000201603070002001DISREL S.A.                                       D000000000161600000000000000000000100010010000000000000000000000F0010000008352200520160307000101 00000000000000000000000000000000000000000000000000000000000000000000000000000000000000000000000000000000000000000N 00000000000NCONT   00    00000000000          00000000000000000000000000000000000000000000 000000000000000A000000000000000000000000000000000000000000000 000000000000000000000000000000000000000     00000000                                                                                                                        000000000000000000
F0010000008352300001000090064982900013050500000000000000000201603070002001DISDIES S.A.S                                     D000000067016800000000000000000000100010010000000000000000000000F0010000008352300120160307000101 00000000000000000000000000000000000000000000000000000000000000000000000000000000000000000000000000000000000000000N 00000000000NCONT   00    00000000000          00000000000000000000000000000000000000000000 000000000000000A000000000000000000000000000000000000000000000 000000000000000000000000000000000000000     00000000                                                                                                                        000000000000000000
F0010000008352300002000090064982900041450500000000000000000201603070002001DISDIES S.A.S                                     C000000060860300000000000000000000100010010000000000000000000000F0010000008352300220160307000101 00000000000000000000000000000000000000000000000000000000000000000000000000000000000000000000000000000000000000000N 00000000000NCONT   00    00000000000          00000000000000000000000000000000000000000000 000000000000000A000000000000000000000000000000000000000000000 000000000000000000000000000000000000000     00000000                                                                                                                        000000000000000000
F0010000008352300003000090064982900042505000000000000000000201603070002001DISDIES S.A.S                                     C000000006156500000000000000000000100010010000000000000000000000F0010000008352300320160307000101 00000000000000000000000000000000000000000000000000000000000000000000000000000000000000000000000000000000000000000N 00000000000NCONT   00    00000000000          00000000000000000000000000000000000000000000 000000000000000A000000000000000000000000000000000000000000000 000000000000000000000000000000000000000     00000000                                                                                                                        000000000000000000
F0010000008352300004000090064982900023658300000000000000000201603070002001DISDIES S.A.S                                     C000000000486900000000000000000000100010010000000000000000000000F0010000008352300420160307000101 00000000000000000000000000000000000000000000000000000000000000000000000000000000000000000000000000000000000000000N 00000000000NCONT   00    00000000000          00000000000000000000000000000000000000000000 000000000000000A000000000000000000000000000000000000000000000 000000000000000000000000000000000000000     00000000                                                                                                                        000000000000000000
F0010000008352300005000090064982900013552100000000000000000201603070002001DISDIES S.A.S                                     D000000000486900000000000000000000100010010000000000000000000000F0010000008352300520160307000101 00000000000000000000000000000000000000000000000000000000000000000000000000000000000000000000000000000000000000000N 00000000000NCONT   00    00000000000          00000000000000000000000000000000000000000000 000000000000000A000000000000000000000000000000000000000000000 000000000000000000000000000000000000000     00000000                                                                                                                        000000000000000000
F0010000008352400001000080016664500013050500000000000000000201603070002001TELAPLAS PANCER SAS                               D000000056522000000000000000000000100010010000000000000000000000F0010000008352400120160307000101 00000000000000000000000000000000000000000000000000000000000000000000000000000000000000000000000000000000000000000N 00000000000NCONT   00    00000000000          00000000000000000000000000000000000000000000 000000000000000A000000000000000000000000000000000000000000000 000000000000000000000000000000000000000     00000000                                                                                                                        000000000000000000
F0010000008352400002000080016664500041450500000000000000000201603070002001TELAPLAS PANCER SAS                               C000000046200000000000000000000000100010010000000000000000000000F0010000008352400220160307000101 00000000000000000000000000000000000000000000000000000000000000000000000000000000000000000000000000000000000000000N 00000000000NCONT   00    00000000000          00000000000000000000000000000000000000000000 000000000000000A000000000000000000000000000000000000000000000 000000000000000000000000000000000000000     00000000                                                                                                                        000000000000000000
F0010000008352400003000080016664500042505000000000000000000201603070002001TELAPLAS PANCER SAS                               C000000010322000000000000000000000100010010000000000000000000000F0010000008352400320160307000101 00000000000000000000000000000000000000000000000000000000000000000000000000000000000000000000000000000000000000000N 00000000000NCONT   00    00000000000          00000000000000000000000000000000000000000000 000000000000000A000000000000000000000000000000000000000000000 000000000000000000000000000000000000000     00000000                                                                                                                        000000000000000000
F0010000008352400004000080016664500023658300000000000000000201603070002001TELAPLAS PANCER SAS                               C000000000369600000000000000000000100010010000000000000000000000F0010000008352400420160307000101 00000000000000000000000000000000000000000000000000000000000000000000000000000000000000000000000000000000000000000N 00000000000NCONT   00    00000000000          00000000000000000000000000000000000000000000 000000000000000A000000000000000000000000000000000000000000000 000000000000000000000000000000000000000     00000000                                                                                                                        000000000000000000
F0010000008352400005000080016664500013552100000000000000000201603070002001TELAPLAS PANCER SAS                               D000000000369600000000000000000000100010010000000000000000000000F0010000008352400520160307000101 00000000000000000000000000000000000000000000000000000000000000000000000000000000000000000000000000000000000000000N 00000000000NCONT   00    00000000000          00000000000000000000000000000000000000000000 000000000000000A000000000000000000000000000000000000000000000 000000000000000000000000000000000000000     00000000                                                                                                                        000000000000000000
F0010000008352500001000080022903500013050500000000000000000201603070002001TECNOGLASS S.A                                    D000000045200800000000000000000000100010010000000000000000000000F0010000008352500120160307000101 00000000000000000000000000000000000000000000000000000000000000000000000000000000000000000000000000000000000000000N 00000000000NCONT   00    00000000000          00000000000000000000000000000000000000000000 000000000000000A000000000000000000000000000000000000000000000 000000000000000000000000000000000000000     00000000                                                                                                                        000000000000000000
F0010000008352500002000080022903500041450500000000000000000201603070002001TECNOGLASS S.A                                    C000000039000000000000000000000000100010010000000000000000000000F0010000008352500220160307000101 00000000000000000000000000000000000000000000000000000000000000000000000000000000000000000000000000000000000000000N 00000000000NCONT   00    00000000000          00000000000000000000000000000000000000000000 000000000000000A000000000000000000000000000000000000000000000 000000000000000000000000000000000000000     00000000                                                                                                                        000000000000000000
F0010000008352500003000080022903500042505000000000000000000201603070002001TECNOGLASS S.A                                    C000000006200800000000000000000000100010010000000000000000000000F0010000008352500320160307000101 00000000000000000000000000000000000000000000000000000000000000000000000000000000000000000000000000000000000000000N 00000000000NCONT   00    00000000000          00000000000000000000000000000000000000000000 000000000000000A000000000000000000000000000000000000000000000 000000000000000000000000000000000000000     00000000                                                                                                                        000000000000000000
F0010000008352500004000080022903500023658300000000000000000201603070002001TECNOGLASS S.A                                    C000000000312000000000000000000000100010010000000000000000000000F0010000008352500420160307000101 00000000000000000000000000000000000000000000000000000000000000000000000000000000000000000000000000000000000000000N 00000000000NCONT   00    00000000000          00000000000000000000000000000000000000000000 000000000000000A000000000000000000000000000000000000000000000 000000000000000000000000000000000000000     00000000                                                                                                                        000000000000000000
F0010000008352500005000080022903500013552100000000000000000201603070002001TECNOGLASS S.A                                    D000000000312000000000000000000000100010010000000000000000000000F0010000008352500520160307000101 00000000000000000000000000000000000000000000000000000000000000000000000000000000000000000000000000000000000000000N 00000000000NCONT   00    00000000000          00000000000000000000000000000000000000000000 000000000000000A000000000000000000000000000000000000000000000 000000000000000000000000000000000000000     00000000                                                                                                                        000000000000000000
F0010000008352600001000080004943800013050500000000000000000201603070002001PAPELERIA EL CID S.A.                             D000000031665000000000000000000000100010010000000000000000000000F0010000008352600120160307000101 00000000000000000000000000000000000000000000000000000000000000000000000000000000000000000000000000000000000000000N 00000000000NCONT   00    00000000000          00000000000000000000000000000000000000000000 000000000000000A000000000000000000000000000000000000000000000 000000000000000000000000000000000000000     00000000                                                                                                                        000000000000000000
F0010000008352600002000080004943800041450500000000000000000201603070002001PAPELERIA EL CID S.A.                             C000000024140000000000000000000000100010010000000000000000000000F0010000008352600220160307000101 00000000000000000000000000000000000000000000000000000000000000000000000000000000000000000000000000000000000000000N 00000000000NCONT   00    00000000000          00000000000000000000000000000000000000000000 000000000000000A000000000000000000000000000000000000000000000 000000000000000000000000000000000000000     00000000                                                                                                                        000000000000000000
F0010000008352600003000080004943800042505000000000000000000201603070002001PAPELERIA EL CID S.A.                             C000000007525000000000000000000000100010010000000000000000000000F0010000008352600320160307000101 00000000000000000000000000000000000000000000000000000000000000000000000000000000000000000000000000000000000000000N 00000000000NCONT   00    00000000000          00000000000000000000000000000000000000000000 000000000000000A000000000000000000000000000000000000000000000 000000000000000000000000000000000000000     00000000                                                                                                                        000000000000000000
F0010000008352600004000080004943800023658300000000000000000201603070002001PAPELERIA EL CID S.A.                             C000000000193100000000000000000000100010010000000000000000000000F0010000008352600420160307000101 00000000000000000000000000000000000000000000000000000000000000000000000000000000000000000000000000000000000000000N 00000000000NCONT   00    00000000000          00000000000000000000000000000000000000000000 000000000000000A000000000000000000000000000000000000000000000 000000000000000000000000000000000000000     00000000                                                                                                                        000000000000000000
F0010000008352600005000080004943800013552100000000000000000201603070002001PAPELERIA EL CID S.A.                             D000000000193100000000000000000000100010010000000000000000000000F0010000008352600520160307000101 00000000000000000000000000000000000000000000000000000000000000000000000000000000000000000000000000000000000000000N 00000000000NCONT   00    00000000000          00000000000000000000000000000000000000000000 000000000000000A000000000000000000000000000000000000000000000 000000000000000000000000000000000000000     00000000                                                                                                                        000000000000000000
F0010000008352700001000090057676900011050500000000000000000201603070002001MEGA CARGA                                        D000000004500000000000000000000000100010010000000000000000000000F0010000008352700120160307000101 00000000000000000000000000000000000000000000000000000000000000000000000000000000000000000000000000000000000000000N 00000000000NCONT   00    00000000000          00000000000000000000000000000000000000000000 000000000000000A000000000000000000000000000000000000000000000 000000000000000000000000000000000000000     00000000                                                                                                                        000000000000000000
F0010000008352700002000090057676900041450500000000000000000201603070002001MEGA CARGA                                        C000000003000000000000000000000000100010010000000000000000000000F0010000008352700220160307000101 00000000000000000000000000000000000000000000000000000000000000000000000000000000000000000000000000000000000000000N 00000000000NCONT   00    00000000000          00000000000000000000000000000000000000000000 000000000000000A000000000000000000000000000000000000000000000 000000000000000000000000000000000000000     00000000                                                                                                                        000000000000000000
F0010000008352700003000090057676900042505000000000000000000201603070002001MEGA CARGA                                        C000000001500000000000000000000000100010010000000000000000000000F0010000008352700320160307000101 00000000000000000000000000000000000000000000000000000000000000000000000000000000000000000000000000000000000000000N 00000000000NCONT   00    00000000000          00000000000000000000000000000000000000000000 000000000000000A000000000000000000000000000000000000000000000 000000000000000000000000000000000000000     00000000                                                                                                                        000000000000000000
F0010000008352700004000090057676900023658300000000000000000201603070002001MEGA CARGA                                        C000000000024000000000000000000000100010010000000000000000000000F0010000008352700420160307000101 00000000000000000000000000000000000000000000000000000000000000000000000000000000000000000000000000000000000000000N 00000000000NCONT   00    00000000000          00000000000000000000000000000000000000000000 000000000000000A000000000000000000000000000000000000000000000 000000000000000000000000000000000000000     00000000                                                                                                                        000000000000000000
F0010000008352700005000090057676900013552100000000000000000201603070002001MEGA CARGA                                        D000000000024000000000000000000000100010010000000000000000000000F0010000008352700520160307000101 00000000000000000000000000000000000000000000000000000000000000000000000000000000000000000000000000000000000000000N 00000000000NCONT   00    00000000000          00000000000000000000000000000000000000000000 000000000000000A000000000000000000000000000000000000000000000 000000000000000000000000000000000000000     00000000                                                                                                                        000000000000000000
F0010000008352800001000089010260300013050500000000000000000201603070002001FEDERICO OSORIO A. S.A.                           D000000126595000000000000000000000100010010000000000000000000000F0010000008352800120160307000101 00000000000000000000000000000000000000000000000000000000000000000000000000000000000000000000000000000000000000000N 00000000000NCONT   00    00000000000          00000000000000000000000000000000000000000000 000000000000000A000000000000000000000000000000000000000000000 000000000000000000000000000000000000000     00000000                                                                                                                        000000000000000000
F0010000008352800002000089010260300041450500000000000000000201603070002001FEDERICO OSORIO A. S.A.                           C000000114466000000000000000000000100010010000000000000000000000F0010000008352800220160307000101 00000000000000000000000000000000000000000000000000000000000000000000000000000000000000000000000000000000000000000N 00000000000NCONT   00    00000000000          00000000000000000000000000000000000000000000 000000000000000A000000000000000000000000000000000000000000000 000000000000000000000000000000000000000     00000000                                                                                                                        000000000000000000
F0010000008352800003000089010260300042505000000000000000000201603070002001FEDERICO OSORIO A. S.A.                           C000000012129000000000000000000000100010010000000000000000000000F0010000008352800320160307000101 00000000000000000000000000000000000000000000000000000000000000000000000000000000000000000000000000000000000000000N 00000000000NCONT   00    00000000000          00000000000000000000000000000000000000000000 000000000000000A000000000000000000000000000000000000000000000 000000000000000000000000000000000000000     00000000                                                                                                                        000000000000000000
F0010000008352800004000089010260300023658300000000000000000201603070002001FEDERICO OSORIO A. S.A.                           C000000000915700000000000000000000100010010000000000000000000000F0010000008352800420160307000101 00000000000000000000000000000000000000000000000000000000000000000000000000000000000000000000000000000000000000000N 00000000000NCONT   00    00000000000          00000000000000000000000000000000000000000000 000000000000000A000000000000000000000000000000000000000000000 000000000000000000000000000000000000000     00000000                                                                                                                        000000000000000000
F0010000008352800005000089010260300013552100000000000000000201603070002001FEDERICO OSORIO A. S.A.                           D000000000915700000000000000000000100010010000000000000000000000F0010000008352800520160307000101 00000000000000000000000000000000000000000000000000000000000000000000000000000000000000000000000000000000000000000N 00000000000NCONT   00    00000000000          00000000000000000000000000000000000000000000 000000000000000A000000000000000000000000000000000000000000000 000000000000000000000000000000000000000     00000000                                                                                                                        000000000000000000
F0010000008352900001000089010260300013050500000000000000000201603070002001FEDERICO OSORIO A. S.A.                           D000000006152800000000000000000000100010010000000000000000000000F0010000008352900120160307000101 00000000000000000000000000000000000000000000000000000000000000000000000000000000000000000000000000000000000000000N 00000000000NCONT   00    00000000000          00000000000000000000000000000000000000000000 000000000000000A000000000000000000000000000000000000000000000 000000000000000000000000000000000000000     00000000                                                                                                                        000000000000000000
F0010000008352900002000089010260300041450500000000000000000201603070002001FEDERICO OSORIO A. S.A.                           C000000005400000000000000000000000100010010000000000000000000000F0010000008352900220160307000101 00000000000000000000000000000000000000000000000000000000000000000000000000000000000000000000000000000000000000000N 00000000000NCONT   00    00000000000          00000000000000000000000000000000000000000000 000000000000000A000000000000000000000000000000000000000000000 000000000000000000000000000000000000000     00000000                                                                                                                        000000000000000000
F0010000008352900003000089010260300042505000000000000000000201603070002001FEDERICO OSORIO A. S.A.                           C000000000752800000000000000000000100010010000000000000000000000F0010000008352900320160307000101 00000000000000000000000000000000000000000000000000000000000000000000000000000000000000000000000000000000000000000N 00000000000NCONT   00    00000000000          00000000000000000000000000000000000000000000 000000000000000A000000000000000000000000000000000000000000000 000000000000000000000000000000000000000     00000000                                                                                                                        000000000000000000
F0010000008352900004000089010260300023658300000000000000000201603070002001FEDERICO OSORIO A. S.A.                           C000000000043200000000000000000000100010010000000000000000000000F0010000008352900420160307000101 00000000000000000000000000000000000000000000000000000000000000000000000000000000000000000000000000000000000000000N 00000000000NCONT   00    00000000000          00000000000000000000000000000000000000000000 000000000000000A000000000000000000000000000000000000000000000 000000000000000000000000000000000000000     00000000                                                                                                                        000000000000000000
F0010000008352900005000089010260300013552100000000000000000201603070002001FEDERICO OSORIO A. S.A.                           D000000000043200000000000000000000100010010000000000000000000000F0010000008352900520160307000101 00000000000000000000000000000000000000000000000000000000000000000000000000000000000000000000000000000000000000000N 00000000000NCONT   00    00000000000          00000000000000000000000000000000000000000000 000000000000000A000000000000000000000000000000000000000000000 000000000000000000000000000000000000000     00000000                                                                                                                        000000000000000000
F0010000008353000001000080201112800013050500000000000000000201603070002001CANGURO INTERNATIONAL S.A.                        D000000308798000000000000000000000100010010000000000000000000000F0010000008353000120160307000101 00000000000000000000000000000000000000000000000000000000000000000000000000000000000000000000000000000000000000000N 00000000000NCONT   00    00000000000          00000000000000000000000000000000000000000000 000000000000000A000000000000000000000000000000000000000000000 000000000000000000000000000000000000000     00000000                                                                                                                        000000000000000000
F0010000008353000002000080201112800041450500000000000000000201603070002001CANGURO INTERNATIONAL S.A.                        C000000308798000000000000000000000100010010000000000000000000000F0010000008353000220160307000101 00000000000000000000000000000000000000000000000000000000000000000000000000000000000000000000000000000000000000000N 00000000000NCONT   00    00000000000          00000000000000000000000000000000000000000000 000000000000000A000000000000000000000000000000000000000000000 000000000000000000000000000000000000000     00000000                                                                                                                        000000000000000000
F0010000008353000003000080201112800042505000000000000000000201603070002001CANGURO INTERNATIONAL S.A.                        C000000000000000000000000000000000100010010000000000000000000000F0010000008353000320160307000101 00000000000000000000000000000000000000000000000000000000000000000000000000000000000000000000000000000000000000000N 00000000000NCONT   00    00000000000          00000000000000000000000000000000000000000000 000000000000000A000000000000000000000000000000000000000000000 000000000000000000000000000000000000000     00000000                                                                                                                        000000000000000000
F0010000008353000004000080201112800023658300000000000000000201603070002001CANGURO INTERNATIONAL S.A.                        C000000002470400000000000000000000100010010000000000000000000000F0010000008353000420160307000101 00000000000000000000000000000000000000000000000000000000000000000000000000000000000000000000000000000000000000000N 00000000000NCONT   00    00000000000          00000000000000000000000000000000000000000000 000000000000000A000000000000000000000000000000000000000000000 000000000000000000000000000000000000000     00000000                                                                                                                        000000000000000000
F0010000008353000005000080201112800013552100000000000000000201603070002001CANGURO INTERNATIONAL S.A.                        D000000002470400000000000000000000100010010000000000000000000000F0010000008353000520160307000101 00000000000000000000000000000000000000000000000000000000000000000000000000000000000000000000000000000000000000000N 00000000000NCONT   00    00000000000          00000000000000000000000000000000000000000000 000000000000000A000000000000000000000000000000000000000000000 000000000000000000000000000000000000000     00000000                                                                                                                        000000000000000000
F0010000008353100001000080000083500013050500000000000000000201603070002001ALIPAR Y CIA LTDA                                 D000000015013600000000000000000000100010010000000000000000000000F0010000008353100120160307000101 00000000000000000000000000000000000000000000000000000000000000000000000000000000000000000000000000000000000000000N 00000000000NCONT   00    00000000000          00000000000000000000000000000000000000000000 000000000000000A000000000000000000000000000000000000000000000 000000000000000000000000000000000000000     00000000                                                                                                                        000000000000000000
F0010000008353100002000080000083500041450500000000000000000201603070002001ALIPAR Y CIA LTDA                                 C000000012600000000000000000000000100010010000000000000000000000F0010000008353100220160307000101 00000000000000000000000000000000000000000000000000000000000000000000000000000000000000000000000000000000000000000N 00000000000NCONT   00    00000000000          00000000000000000000000000000000000000000000 000000000000000A000000000000000000000000000000000000000000000 000000000000000000000000000000000000000     00000000                                                                                                                        000000000000000000
F0010000008353100003000080000083500042505000000000000000000201603070002001ALIPAR Y CIA LTDA                                 C000000002413600000000000000000000100010010000000000000000000000F0010000008353100320160307000101 00000000000000000000000000000000000000000000000000000000000000000000000000000000000000000000000000000000000000000N 00000000000NCONT   00    00000000000          00000000000000000000000000000000000000000000 000000000000000A000000000000000000000000000000000000000000000 000000000000000000000000000000000000000     00000000                                                                                                                        000000000000000000
F0010000008353100004000080000083500023658300000000000000000201603070002001ALIPAR Y CIA LTDA                                 C000000000100800000000000000000000100010010000000000000000000000F0010000008353100420160307000101 00000000000000000000000000000000000000000000000000000000000000000000000000000000000000000000000000000000000000000N 00000000000NCONT   00    00000000000          00000000000000000000000000000000000000000000 000000000000000A000000000000000000000000000000000000000000000 000000000000000000000000000000000000000     00000000                                                                                                                        000000000000000000
F0010000008353100005000080000083500013552100000000000000000201603070002001ALIPAR Y CIA LTDA                                 D000000000100800000000000000000000100010010000000000000000000000F0010000008353100520160307000101 00000000000000000000000000000000000000000000000000000000000000000000000000000000000000000000000000000000000000000N 00000000000NCONT   00    00000000000          00000000000000000000000000000000000000000000 000000000000000A000000000000000000000000000000000000000000000 000000000000000000000000000000000000000     00000000                                                                                                                        000000000000000000
F0010000008353200001000007215896800013050500000000000000000201603070002001EDDIER CIRO                                       D000000026316900000000000000000000100010010000000000000000000000F0010000008353200120160307000101 00000000000000000000000000000000000000000000000000000000000000000000000000000000000000000000000000000000000000000N 00000000000NCONT   00    00000000000          00000000000000000000000000000000000000000000 000000000000000A000000000000000000000000000000000000000000000 000000000000000000000000000000000000000     00000000                                                                                                                        000000000000000000
F0010000008353200002000007215896800041450500000000000000000201603070002001EDDIER CIRO                                       C000000020880000000000000000000000100010010000000000000000000000F0010000008353200220160307000101 00000000000000000000000000000000000000000000000000000000000000000000000000000000000000000000000000000000000000000N 00000000000NCONT   00    00000000000          00000000000000000000000000000000000000000000 000000000000000A000000000000000000000000000000000000000000000 000000000000000000000000000000000000000     00000000                                                                                                                        000000000000000000
F0010000008353200003000007215896800042505000000000000000000201603070002001EDDIER CIRO                                       C000000005436900000000000000000000100010010000000000000000000000F0010000008353200320160307000101 00000000000000000000000000000000000000000000000000000000000000000000000000000000000000000000000000000000000000000N 00000000000NCONT   00    00000000000          00000000000000000000000000000000000000000000 000000000000000A000000000000000000000000000000000000000000000 000000000000000000000000000000000000000     00000000                                                                                                                        000000000000000000
F0010000008353200004000007215896800023658300000000000000000201603070002001EDDIER CIRO                                       C000000000167000000000000000000000100010010000000000000000000000F0010000008353200420160307000101 00000000000000000000000000000000000000000000000000000000000000000000000000000000000000000000000000000000000000000N 00000000000NCONT   00    00000000000          00000000000000000000000000000000000000000000 000000000000000A000000000000000000000000000000000000000000000 000000000000000000000000000000000000000     00000000                                                                                                                        000000000000000000
F0010000008353200005000007215896800013552100000000000000000201603070002001EDDIER CIRO                                       D000000000167000000000000000000000100010010000000000000000000000F0010000008353200520160307000101 00000000000000000000000000000000000000000000000000000000000000000000000000000000000000000000000000000000000000000N 00000000000NCONT   00    00000000000          00000000000000000000000000000000000000000000 000000000000000A000000000000000000000000000000000000000000000 000000000000000000000000000000000000000     00000000                                                                                                                        000000000000000000
F0010000008353300001000080001063400013050500000000000000000201603070002001PRODUCTOS JULIAO SAS                              D000000040956400000000000000000000100010010000000000000000000000F0010000008353300120160307000101 00000000000000000000000000000000000000000000000000000000000000000000000000000000000000000000000000000000000000000N 00000000000NCONT   00    00000000000          00000000000000000000000000000000000000000000 000000000000000A000000000000000000000000000000000000000000000 000000000000000000000000000000000000000     00000000                                                                                                                        000000000000000000
F0010000008353300002000080001063400041450500000000000000000201603070002001PRODUCTOS JULIAO SAS                              C000000039270000000000000000000000100010010000000000000000000000F0010000008353300220160307000101 00000000000000000000000000000000000000000000000000000000000000000000000000000000000000000000000000000000000000000N 00000000000NCONT   00    00000000000          00000000000000000000000000000000000000000000 000000000000000A000000000000000000000000000000000000000000000 000000000000000000000000000000000000000     00000000                                                                                                                        000000000000000000
F0010000008353300003000080001063400042505000000000000000000201603070002001PRODUCTOS JULIAO SAS                              C000000001686400000000000000000000100010010000000000000000000000F0010000008353300320160307000101 00000000000000000000000000000000000000000000000000000000000000000000000000000000000000000000000000000000000000000N 00000000000NCONT   00    00000000000          00000000000000000000000000000000000000000000 000000000000000A000000000000000000000000000000000000000000000 000000000000000000000000000000000000000     00000000                                                                                                                        000000000000000000
