F0010000005866300001000007225219800011050500000000000000000201405300002001MAURICIO ALVAREZ VARELO                           D000000010500000000000000000000000100010010000000000000000000000F0010000005866300120140530000101 00000000000000000000000000000000000000000000000000000000000000000000000000000000000000000000000000000000000000000N 00000000000NCONT   00    00000000000          00000000000000000000000000000000000000000000 000000000000000A000000000000000000000000000000000000000000000 000000000000000000000000000000000000000     00000000                                                                                                                        000000000000000000
F0010000005866300002000007225219800041450500000000000000000201405300002001MAURICIO ALVAREZ VARELO                           C000000008150000000000000000000000100010010000000000000000000000F0010000005866300220140530000101 00000000000000000000000000000000000000000000000000000000000000000000000000000000000000000000000000000000000000000N 00000000000NCONT   00    00000000000          00000000000000000000000000000000000000000000 000000000000000A000000000000000000000000000000000000000000000 000000000000000000000000000000000000000     00000000                                                                                                                        000000000000000000
F0010000005866300003000007225219800042505000000000000000000201405300002001MAURICIO ALVAREZ VARELO                           C000000002350000000000000000000000100010010000000000000000000000F0010000005866300320140530000101 00000000000000000000000000000000000000000000000000000000000000000000000000000000000000000000000000000000000000000N 00000000000NCONT   00    00000000000          00000000000000000000000000000000000000000000 000000000000000A000000000000000000000000000000000000000000000 000000000000000000000000000000000000000     00000000                                                                                                                        000000000000000000
F0010000005866300004000007225219800023658300000000000000000201405300002001MAURICIO ALVAREZ VARELO                           C000000000065200000000000000000000100010010000000000000000000000F0010000005866300420140530000101 00000000000000000000000000000000000000000000000000000000000000000000000000000000000000000000000000000000000000000N 00000000000NCONT   00    00000000000          00000000000000000000000000000000000000000000 000000000000000A000000000000000000000000000000000000000000000 000000000000000000000000000000000000000     00000000                                                                                                                        000000000000000000
F0010000005866300005000007225219800013552100000000000000000201405300002001MAURICIO ALVAREZ VARELO                           D000000000065200000000000000000000100010010000000000000000000000F0010000005866300520140530000101 00000000000000000000000000000000000000000000000000000000000000000000000000000000000000000000000000000000000000000N 00000000000NCONT   00    00000000000          00000000000000000000000000000000000000000000 000000000000000A000000000000000000000000000000000000000000000 000000000000000000000000000000000000000     00000000                                                                                                                        000000000000000000
F0010000005866400001000007219786800011050500000000000000000201405300002001GERMAN GUTIERREZ CHAPARRO                         D000000006000000000000000000000000100010010000000000000000000000F0010000005866400120140530000101 00000000000000000000000000000000000000000000000000000000000000000000000000000000000000000000000000000000000000000N 00000000000NCONT   00    00000000000          00000000000000000000000000000000000000000000 000000000000000A000000000000000000000000000000000000000000000 000000000000000000000000000000000000000     00000000                                                                                                                        000000000000000000
F0010000005866400002000007219786800041450500000000000000000201405300002001GERMAN GUTIERREZ CHAPARRO                         C000000005900000000000000000000000100010010000000000000000000000F0010000005866400220140530000101 00000000000000000000000000000000000000000000000000000000000000000000000000000000000000000000000000000000000000000N 00000000000NCONT   00    00000000000          00000000000000000000000000000000000000000000 000000000000000A000000000000000000000000000000000000000000000 000000000000000000000000000000000000000     00000000                                                                                                                        000000000000000000
F0010000005866400003000007219786800042505000000000000000000201405300002001GERMAN GUTIERREZ CHAPARRO                         C000000000100000000000000000000000100010010000000000000000000000F0010000005866400320140530000101 00000000000000000000000000000000000000000000000000000000000000000000000000000000000000000000000000000000000000000N 00000000000NCONT   00    00000000000          00000000000000000000000000000000000000000000 000000000000000A000000000000000000000000000000000000000000000 000000000000000000000000000000000000000     00000000                                                                                                                        000000000000000000
F0010000005866400004000007219786800023658300000000000000000201405300002001GERMAN GUTIERREZ CHAPARRO                         C000000000047200000000000000000000100010010000000000000000000000F0010000005866400420140530000101 00000000000000000000000000000000000000000000000000000000000000000000000000000000000000000000000000000000000000000N 00000000000NCONT   00    00000000000          00000000000000000000000000000000000000000000 000000000000000A000000000000000000000000000000000000000000000 000000000000000000000000000000000000000     00000000                                                                                                                        000000000000000000
F0010000005866400005000007219786800013552100000000000000000201405300002001GERMAN GUTIERREZ CHAPARRO                         D000000000047200000000000000000000100010010000000000000000000000F0010000005866400520140530000101 00000000000000000000000000000000000000000000000000000000000000000000000000000000000000000000000000000000000000000N 00000000000NCONT   00    00000000000          00000000000000000000000000000000000000000000 000000000000000A000000000000000000000000000000000000000000000 000000000000000000000000000000000000000     00000000                                                                                                                        000000000000000000
F0010000005866500001000007221007700011050500000000000000000201405300002001LEANDRO POLO                                      D000000001300000000000000000000000100010010000000000000000000000F0010000005866500120140530000101 00000000000000000000000000000000000000000000000000000000000000000000000000000000000000000000000000000000000000000N 00000000000NCONT   00    00000000000          00000000000000000000000000000000000000000000 000000000000000A000000000000000000000000000000000000000000000 000000000000000000000000000000000000000     00000000                                                                                                                        000000000000000000
F0010000005866500002000007221007700041450500000000000000000201405300002001LEANDRO POLO                                      C000000001200000000000000000000000100010010000000000000000000000F0010000005866500220140530000101 00000000000000000000000000000000000000000000000000000000000000000000000000000000000000000000000000000000000000000N 00000000000NCONT   00    00000000000          00000000000000000000000000000000000000000000 000000000000000A000000000000000000000000000000000000000000000 000000000000000000000000000000000000000     00000000                                                                                                                        000000000000000000
F0010000005866500003000007221007700042505000000000000000000201405300002001LEANDRO POLO                                      C000000000100000000000000000000000100010010000000000000000000000F0010000005866500320140530000101 00000000000000000000000000000000000000000000000000000000000000000000000000000000000000000000000000000000000000000N 00000000000NCONT   00    00000000000          00000000000000000000000000000000000000000000 000000000000000A000000000000000000000000000000000000000000000 000000000000000000000000000000000000000     00000000                                                                                                                        000000000000000000
F0010000005866500004000007221007700023658300000000000000000201405300002001LEANDRO POLO                                      C000000000009600000000000000000000100010010000000000000000000000F0010000005866500420140530000101 00000000000000000000000000000000000000000000000000000000000000000000000000000000000000000000000000000000000000000N 00000000000NCONT   00    00000000000          00000000000000000000000000000000000000000000 000000000000000A000000000000000000000000000000000000000000000 000000000000000000000000000000000000000     00000000                                                                                                                        000000000000000000
F0010000005866500005000007221007700013552100000000000000000201405300002001LEANDRO POLO                                      D000000000009600000000000000000000100010010000000000000000000000F0010000005866500520140530000101 00000000000000000000000000000000000000000000000000000000000000000000000000000000000000000000000000000000000000000N 00000000000NCONT   00    00000000000          00000000000000000000000000000000000000000000 000000000000000A000000000000000000000000000000000000000000000 000000000000000000000000000000000000000     00000000                                                                                                                        000000000000000000
F0010000005866600001000090007142100011050500000000000000000201405300002001TODO BELLEZA Y MAX S.A.S                          D000000001600000000000000000000000100010010000000000000000000000F0010000005866600120140530000101 00000000000000000000000000000000000000000000000000000000000000000000000000000000000000000000000000000000000000000N 00000000000NCONT   00    00000000000          00000000000000000000000000000000000000000000 000000000000000A000000000000000000000000000000000000000000000 000000000000000000000000000000000000000     00000000                                                                                                                        000000000000000000
F0010000005866600002000090007142100041450500000000000000000201405300002001TODO BELLEZA Y MAX S.A.S                          C000000001500000000000000000000000100010010000000000000000000000F0010000005866600220140530000101 00000000000000000000000000000000000000000000000000000000000000000000000000000000000000000000000000000000000000000N 00000000000NCONT   00    00000000000          00000000000000000000000000000000000000000000 000000000000000A000000000000000000000000000000000000000000000 000000000000000000000000000000000000000     00000000                                                                                                                        000000000000000000
F0010000005866600003000090007142100042505000000000000000000201405300002001TODO BELLEZA Y MAX S.A.S                          C000000000100000000000000000000000100010010000000000000000000000F0010000005866600320140530000101 00000000000000000000000000000000000000000000000000000000000000000000000000000000000000000000000000000000000000000N 00000000000NCONT   00    00000000000          00000000000000000000000000000000000000000000 000000000000000A000000000000000000000000000000000000000000000 000000000000000000000000000000000000000     00000000                                                                                                                        000000000000000000
F0010000005866600004000090007142100023658300000000000000000201405300002001TODO BELLEZA Y MAX S.A.S                          C000000000012000000000000000000000100010010000000000000000000000F0010000005866600420140530000101 00000000000000000000000000000000000000000000000000000000000000000000000000000000000000000000000000000000000000000N 00000000000NCONT   00    00000000000          00000000000000000000000000000000000000000000 000000000000000A000000000000000000000000000000000000000000000 000000000000000000000000000000000000000     00000000                                                                                                                        000000000000000000
F0010000005866600005000090007142100013552100000000000000000201405300002001TODO BELLEZA Y MAX S.A.S                          D000000000012000000000000000000000100010010000000000000000000000F0010000005866600520140530000101 00000000000000000000000000000000000000000000000000000000000000000000000000000000000000000000000000000000000000000N 00000000000NCONT   00    00000000000          00000000000000000000000000000000000000000000 000000000000000A000000000000000000000000000000000000000000000 000000000000000000000000000000000000000     00000000                                                                                                                        000000000000000000
F0010000005866700001000080000084600011050500000000000000000201405300002001ALUMINIOS Y ACCESORIOS DEL ATLANTICO LTDA         D000000002400000000000000000000000100010010000000000000000000000F0010000005866700120140530000101 00000000000000000000000000000000000000000000000000000000000000000000000000000000000000000000000000000000000000000N 00000000000NCONT   00    00000000000          00000000000000000000000000000000000000000000 000000000000000A000000000000000000000000000000000000000000000 000000000000000000000000000000000000000     00000000                                                                                                                        000000000000000000
F0010000005866700002000080000084600041450500000000000000000201405300002001ALUMINIOS Y ACCESORIOS DEL ATLANTICO LTDA         C000000002100000000000000000000000100010010000000000000000000000F0010000005866700220140530000101 00000000000000000000000000000000000000000000000000000000000000000000000000000000000000000000000000000000000000000N 00000000000NCONT   00    00000000000          00000000000000000000000000000000000000000000 000000000000000A000000000000000000000000000000000000000000000 000000000000000000000000000000000000000     00000000                                                                                                                        000000000000000000
F0010000005866700003000080000084600042505000000000000000000201405300002001ALUMINIOS Y ACCESORIOS DEL ATLANTICO LTDA         C000000000300000000000000000000000100010010000000000000000000000F0010000005866700320140530000101 00000000000000000000000000000000000000000000000000000000000000000000000000000000000000000000000000000000000000000N 00000000000NCONT   00    00000000000          00000000000000000000000000000000000000000000 000000000000000A000000000000000000000000000000000000000000000 000000000000000000000000000000000000000     00000000                                                                                                                        000000000000000000
F0010000005866700004000080000084600023658300000000000000000201405300002001ALUMINIOS Y ACCESORIOS DEL ATLANTICO LTDA         C000000000016800000000000000000000100010010000000000000000000000F0010000005866700420140530000101 00000000000000000000000000000000000000000000000000000000000000000000000000000000000000000000000000000000000000000N 00000000000NCONT   00    00000000000          00000000000000000000000000000000000000000000 000000000000000A000000000000000000000000000000000000000000000 000000000000000000000000000000000000000     00000000                                                                                                                        000000000000000000
F0010000005866700005000080000084600013552100000000000000000201405300002001ALUMINIOS Y ACCESORIOS DEL ATLANTICO LTDA         D000000000016800000000000000000000100010010000000000000000000000F0010000005866700520140530000101 00000000000000000000000000000000000000000000000000000000000000000000000000000000000000000000000000000000000000000N 00000000000NCONT   00    00000000000          00000000000000000000000000000000000000000000 000000000000000A000000000000000000000000000000000000000000000 000000000000000000000000000000000000000     00000000                                                                                                                        000000000000000000
F0010000005866800001000086000061500011050500000000000000000201405300002001DISTRIBUIDORA CORDOBA                             D000000003000000000000000000000000100010010000000000000000000000F0010000005866800120140530000101 00000000000000000000000000000000000000000000000000000000000000000000000000000000000000000000000000000000000000000N 00000000000NCONT   00    00000000000          00000000000000000000000000000000000000000000 000000000000000A000000000000000000000000000000000000000000000 000000000000000000000000000000000000000     00000000                                                                                                                        000000000000000000
F0010000005866800002000086000061500041450500000000000000000201405300002001DISTRIBUIDORA CORDOBA                             C000000002600000000000000000000000100010010000000000000000000000F0010000005866800220140530000101 00000000000000000000000000000000000000000000000000000000000000000000000000000000000000000000000000000000000000000N 00000000000NCONT   00    00000000000          00000000000000000000000000000000000000000000 000000000000000A000000000000000000000000000000000000000000000 000000000000000000000000000000000000000     00000000                                                                                                                        000000000000000000
F0010000005866800003000086000061500042505000000000000000000201405300002001DISTRIBUIDORA CORDOBA                             C000000000400000000000000000000000100010010000000000000000000000F0010000005866800320140530000101 00000000000000000000000000000000000000000000000000000000000000000000000000000000000000000000000000000000000000000N 00000000000NCONT   00    00000000000          00000000000000000000000000000000000000000000 000000000000000A000000000000000000000000000000000000000000000 000000000000000000000000000000000000000     00000000                                                                                                                        000000000000000000
F0010000005866800004000086000061500023658300000000000000000201405300002001DISTRIBUIDORA CORDOBA                             C000000000020800000000000000000000100010010000000000000000000000F0010000005866800420140530000101 00000000000000000000000000000000000000000000000000000000000000000000000000000000000000000000000000000000000000000N 00000000000NCONT   00    00000000000          00000000000000000000000000000000000000000000 000000000000000A000000000000000000000000000000000000000000000 000000000000000000000000000000000000000     00000000                                                                                                                        000000000000000000
F0010000005866800005000086000061500013552100000000000000000201405300002001DISTRIBUIDORA CORDOBA                             D000000000020800000000000000000000100010010000000000000000000000F0010000005866800520140530000101 00000000000000000000000000000000000000000000000000000000000000000000000000000000000000000000000000000000000000000N 00000000000NCONT   00    00000000000          00000000000000000000000000000000000000000000 000000000000000A000000000000000000000000000000000000000000000 000000000000000000000000000000000000000     00000000                                                                                                                        000000000000000000
F0010000005866900001000086053108300011050500000000000000000201405300002001EL PALACIO DEL ALUMINIO  LTDA                     D000000007500000000000000000000000100010010000000000000000000000F0010000005866900120140530000101 00000000000000000000000000000000000000000000000000000000000000000000000000000000000000000000000000000000000000000N 00000000000NCONT   00    00000000000          00000000000000000000000000000000000000000000 000000000000000A000000000000000000000000000000000000000000000 000000000000000000000000000000000000000     00000000                                                                                                                        000000000000000000
F0010000005866900002000086053108300041450500000000000000000201405300002001EL PALACIO DEL ALUMINIO  LTDA                     C000000007000000000000000000000000100010010000000000000000000000F0010000005866900220140530000101 00000000000000000000000000000000000000000000000000000000000000000000000000000000000000000000000000000000000000000N 00000000000NCONT   00    00000000000          00000000000000000000000000000000000000000000 000000000000000A000000000000000000000000000000000000000000000 000000000000000000000000000000000000000     00000000                                                                                                                        000000000000000000
F0010000005866900003000086053108300042505000000000000000000201405300002001EL PALACIO DEL ALUMINIO  LTDA                     C000000000500000000000000000000000100010010000000000000000000000F0010000005866900320140530000101 00000000000000000000000000000000000000000000000000000000000000000000000000000000000000000000000000000000000000000N 00000000000NCONT   00    00000000000          00000000000000000000000000000000000000000000 000000000000000A000000000000000000000000000000000000000000000 000000000000000000000000000000000000000     00000000                                                                                                                        000000000000000000
F0010000005866900004000086053108300023658300000000000000000201405300002001EL PALACIO DEL ALUMINIO  LTDA                     C000000000056000000000000000000000100010010000000000000000000000F0010000005866900420140530000101 00000000000000000000000000000000000000000000000000000000000000000000000000000000000000000000000000000000000000000N 00000000000NCONT   00    00000000000          00000000000000000000000000000000000000000000 000000000000000A000000000000000000000000000000000000000000000 000000000000000000000000000000000000000     00000000                                                                                                                        000000000000000000
F0010000005866900005000086053108300013552100000000000000000201405300002001EL PALACIO DEL ALUMINIO  LTDA                     D000000000056000000000000000000000100010010000000000000000000000F0010000005866900520140530000101 00000000000000000000000000000000000000000000000000000000000000000000000000000000000000000000000000000000000000000N 00000000000NCONT   00    00000000000          00000000000000000000000000000000000000000000 000000000000000A000000000000000000000000000000000000000000000 000000000000000000000000000000000000000     00000000                                                                                                                        000000000000000000
F0010000005867000001000007016511700011050500000000000000000201405300002001YEISON CASTAÑO                                   D000000002200000000000000000000000100010010000000000000000000000F0010000005867000120140530000101 00000000000000000000000000000000000000000000000000000000000000000000000000000000000000000000000000000000000000000N 00000000000NCONT   00    00000000000          00000000000000000000000000000000000000000000 000000000000000A000000000000000000000000000000000000000000000 000000000000000000000000000000000000000     00000000                                                                                                                        000000000000000000
F0010000005867000002000007016511700041450500000000000000000201405300002001YEISON CASTAÑO                                   C000000001000000000000000000000000100010010000000000000000000000F0010000005867000220140530000101 00000000000000000000000000000000000000000000000000000000000000000000000000000000000000000000000000000000000000000N 00000000000NCONT   00    00000000000          00000000000000000000000000000000000000000000 000000000000000A000000000000000000000000000000000000000000000 000000000000000000000000000000000000000     00000000                                                                                                                        000000000000000000
F0010000005867000003000007016511700042505000000000000000000201405300002001YEISON CASTAÑO                                   C000000001200000000000000000000000100010010000000000000000000000F0010000005867000320140530000101 00000000000000000000000000000000000000000000000000000000000000000000000000000000000000000000000000000000000000000N 00000000000NCONT   00    00000000000          00000000000000000000000000000000000000000000 000000000000000A000000000000000000000000000000000000000000000 000000000000000000000000000000000000000     00000000                                                                                                                        000000000000000000
F0010000005867000004000007016511700023658300000000000000000201405300002001YEISON CASTAÑO                                   C000000000008000000000000000000000100010010000000000000000000000F0010000005867000420140530000101 00000000000000000000000000000000000000000000000000000000000000000000000000000000000000000000000000000000000000000N 00000000000NCONT   00    00000000000          00000000000000000000000000000000000000000000 000000000000000A000000000000000000000000000000000000000000000 000000000000000000000000000000000000000     00000000                                                                                                                        000000000000000000
F0010000005867000005000007016511700013552100000000000000000201405300002001YEISON CASTAÑO                                   D000000000008000000000000000000000100010010000000000000000000000F0010000005867000520140530000101 00000000000000000000000000000000000000000000000000000000000000000000000000000000000000000000000000000000000000000N 00000000000NCONT   00    00000000000          00000000000000000000000000000000000000000000 000000000000000A000000000000000000000000000000000000000000000 000000000000000000000000000000000000000     00000000                                                                                                                        000000000000000000
F0010000005867100001000001502923600011050500000000000000000201405300002001ALCIDES MARTINEZ                                  D000000002200000000000000000000000100010010000000000000000000000F0010000005867100120140530000101 00000000000000000000000000000000000000000000000000000000000000000000000000000000000000000000000000000000000000000N 00000000000NCONT   00    00000000000          00000000000000000000000000000000000000000000 000000000000000A000000000000000000000000000000000000000000000 000000000000000000000000000000000000000     00000000                                                                                                                        000000000000000000
F0010000005867100002000001502923600041450500000000000000000201405300002001ALCIDES MARTINEZ                                  C000000001600000000000000000000000100010010000000000000000000000F0010000005867100220140530000101 00000000000000000000000000000000000000000000000000000000000000000000000000000000000000000000000000000000000000000N 00000000000NCONT   00    00000000000          00000000000000000000000000000000000000000000 000000000000000A000000000000000000000000000000000000000000000 000000000000000000000000000000000000000     00000000                                                                                                                        000000000000000000
F0010000005867100003000001502923600042505000000000000000000201405300002001ALCIDES MARTINEZ                                  C000000000600000000000000000000000100010010000000000000000000000F0010000005867100320140530000101 00000000000000000000000000000000000000000000000000000000000000000000000000000000000000000000000000000000000000000N 00000000000NCONT   00    00000000000          00000000000000000000000000000000000000000000 000000000000000A000000000000000000000000000000000000000000000 000000000000000000000000000000000000000     00000000                                                                                                                        000000000000000000
F0010000005867100004000001502923600023658300000000000000000201405300002001ALCIDES MARTINEZ                                  C000000000012800000000000000000000100010010000000000000000000000F0010000005867100420140530000101 00000000000000000000000000000000000000000000000000000000000000000000000000000000000000000000000000000000000000000N 00000000000NCONT   00    00000000000          00000000000000000000000000000000000000000000 000000000000000A000000000000000000000000000000000000000000000 000000000000000000000000000000000000000     00000000                                                                                                                        000000000000000000
F0010000005867100005000001502923600013552100000000000000000201405300002001ALCIDES MARTINEZ                                  D000000000012800000000000000000000100010010000000000000000000000F0010000005867100520140530000101 00000000000000000000000000000000000000000000000000000000000000000000000000000000000000000000000000000000000000000N 00000000000NCONT   00    00000000000          00000000000000000000000000000000000000000000 000000000000000A000000000000000000000000000000000000000000000 000000000000000000000000000000000000000     00000000                                                                                                                        000000000000000000
F0010000005867200001000004175790100011050500000000000000000201405300002001ROSIRIS FERIA HOYOS  (COSM. SHILLER)              D000000001200000000000000000000000100010010000000000000000000000F0010000005867200120140530000101 00000000000000000000000000000000000000000000000000000000000000000000000000000000000000000000000000000000000000000N 00000000000NCONT   00    00000000000          00000000000000000000000000000000000000000000 000000000000000A000000000000000000000000000000000000000000000 000000000000000000000000000000000000000     00000000                                                                                                                        000000000000000000
F0010000005867200002000004175790100041450500000000000000000201405300002001ROSIRIS FERIA HOYOS  (COSM. SHILLER)              C000000001100000000000000000000000100010010000000000000000000000F0010000005867200220140530000101 00000000000000000000000000000000000000000000000000000000000000000000000000000000000000000000000000000000000000000N 00000000000NCONT   00    00000000000          00000000000000000000000000000000000000000000 000000000000000A000000000000000000000000000000000000000000000 000000000000000000000000000000000000000     00000000                                                                                                                        000000000000000000
F0010000005867200003000004175790100042505000000000000000000201405300002001ROSIRIS FERIA HOYOS  (COSM. SHILLER)              C000000000100000000000000000000000100010010000000000000000000000F0010000005867200320140530000101 00000000000000000000000000000000000000000000000000000000000000000000000000000000000000000000000000000000000000000N 00000000000NCONT   00    00000000000          00000000000000000000000000000000000000000000 000000000000000A000000000000000000000000000000000000000000000 000000000000000000000000000000000000000     00000000                                                                                                                        000000000000000000
F0010000005867200004000004175790100023658300000000000000000201405300002001ROSIRIS FERIA HOYOS  (COSM. SHILLER)              C000000000008800000000000000000000100010010000000000000000000000F0010000005867200420140530000101 00000000000000000000000000000000000000000000000000000000000000000000000000000000000000000000000000000000000000000N 00000000000NCONT   00    00000000000          00000000000000000000000000000000000000000000 000000000000000A000000000000000000000000000000000000000000000 000000000000000000000000000000000000000     00000000                                                                                                                        000000000000000000
F0010000005867200005000004175790100013552100000000000000000201405300002001ROSIRIS FERIA HOYOS  (COSM. SHILLER)              D000000000008800000000000000000000100010010000000000000000000000F0010000005867200520140530000101 00000000000000000000000000000000000000000000000000000000000000000000000000000000000000000000000000000000000000000N 00000000000NCONT   00    00000000000          00000000000000000000000000000000000000000000 000000000000000A000000000000000000000000000000000000000000000 000000000000000000000000000000000000000     00000000                                                                                                                        000000000000000000
F0010000005867300001000004175790100011050500000000000000000201405300002001ROSIRIS FERIA HOYOS  (COSM. SHILLER)              D000000000900000000000000000000000100010010000000000000000000000F0010000005867300120140530000101 00000000000000000000000000000000000000000000000000000000000000000000000000000000000000000000000000000000000000000N 00000000000NCONT   00    00000000000          00000000000000000000000000000000000000000000 000000000000000A000000000000000000000000000000000000000000000 000000000000000000000000000000000000000     00000000                                                                                                                        000000000000000000
F0010000005867300002000004175790100041450500000000000000000201405300002001ROSIRIS FERIA HOYOS  (COSM. SHILLER)              C000000000800000000000000000000000100010010000000000000000000000F0010000005867300220140530000101 00000000000000000000000000000000000000000000000000000000000000000000000000000000000000000000000000000000000000000N 00000000000NCONT   00    00000000000          00000000000000000000000000000000000000000000 000000000000000A000000000000000000000000000000000000000000000 000000000000000000000000000000000000000     00000000                                                                                                                        000000000000000000
F0010000005867300003000004175790100042505000000000000000000201405300002001ROSIRIS FERIA HOYOS  (COSM. SHILLER)              C000000000100000000000000000000000100010010000000000000000000000F0010000005867300320140530000101 00000000000000000000000000000000000000000000000000000000000000000000000000000000000000000000000000000000000000000N 00000000000NCONT   00    00000000000          00000000000000000000000000000000000000000000 000000000000000A000000000000000000000000000000000000000000000 000000000000000000000000000000000000000     00000000                                                                                                                        000000000000000000
F0010000005867300004000004175790100023658300000000000000000201405300002001ROSIRIS FERIA HOYOS  (COSM. SHILLER)              C000000000006400000000000000000000100010010000000000000000000000F0010000005867300420140530000101 00000000000000000000000000000000000000000000000000000000000000000000000000000000000000000000000000000000000000000N 00000000000NCONT   00    00000000000          00000000000000000000000000000000000000000000 000000000000000A000000000000000000000000000000000000000000000 000000000000000000000000000000000000000     00000000                                                                                                                        000000000000000000
F0010000005867300005000004175790100013552100000000000000000201405300002001ROSIRIS FERIA HOYOS  (COSM. SHILLER)              D000000000006400000000000000000000100010010000000000000000000000F0010000005867300520140530000101 00000000000000000000000000000000000000000000000000000000000000000000000000000000000000000000000000000000000000000N 00000000000NCONT   00    00000000000          00000000000000000000000000000000000000000000 000000000000000A000000000000000000000000000000000000000000000 000000000000000000000000000000000000000     00000000                                                                                                                        000000000000000000
F0010000005867400001000004175790100011050500000000000000000201405300002001ROSIRIS FERIA HOYOS  (COSM. SHILLER)              D000000001300000000000000000000000100010010000000000000000000000F0010000005867400120140530000101 00000000000000000000000000000000000000000000000000000000000000000000000000000000000000000000000000000000000000000N 00000000000NCONT   00    00000000000          00000000000000000000000000000000000000000000 000000000000000A000000000000000000000000000000000000000000000 000000000000000000000000000000000000000     00000000                                                                                                                        000000000000000000
F0010000005867400002000004175790100041450500000000000000000201405300002001ROSIRIS FERIA HOYOS  (COSM. SHILLER)              C000000001200000000000000000000000100010010000000000000000000000F0010000005867400220140530000101 00000000000000000000000000000000000000000000000000000000000000000000000000000000000000000000000000000000000000000N 00000000000NCONT   00    00000000000          00000000000000000000000000000000000000000000 000000000000000A000000000000000000000000000000000000000000000 000000000000000000000000000000000000000     00000000                                                                                                                        000000000000000000
F0010000005867400003000004175790100042505000000000000000000201405300002001ROSIRIS FERIA HOYOS  (COSM. SHILLER)              C000000000100000000000000000000000100010010000000000000000000000F0010000005867400320140530000101 00000000000000000000000000000000000000000000000000000000000000000000000000000000000000000000000000000000000000000N 00000000000NCONT   00    00000000000          00000000000000000000000000000000000000000000 000000000000000A000000000000000000000000000000000000000000000 000000000000000000000000000000000000000     00000000                                                                                                                        000000000000000000
F0010000005867400004000004175790100023658300000000000000000201405300002001ROSIRIS FERIA HOYOS  (COSM. SHILLER)              C000000000009600000000000000000000100010010000000000000000000000F0010000005867400420140530000101 00000000000000000000000000000000000000000000000000000000000000000000000000000000000000000000000000000000000000000N 00000000000NCONT   00    00000000000          00000000000000000000000000000000000000000000 000000000000000A000000000000000000000000000000000000000000000 000000000000000000000000000000000000000     00000000                                                                                                                        000000000000000000
F0010000005867400005000004175790100013552100000000000000000201405300002001ROSIRIS FERIA HOYOS  (COSM. SHILLER)              D000000000009600000000000000000000100010010000000000000000000000F0010000005867400520140530000101 00000000000000000000000000000000000000000000000000000000000000000000000000000000000000000000000000000000000000000N 00000000000NCONT   00    00000000000          00000000000000000000000000000000000000000000 000000000000000A000000000000000000000000000000000000000000000 000000000000000000000000000000000000000     00000000                                                                                                                        000000000000000000
F0010000005867500001000090050144800011050500000000000000000201405300002001PLASTICOS JR ASOCIADOS SAS                        D000000003100000000000000000000000100010010000000000000000000000F0010000005867500120140530000101 00000000000000000000000000000000000000000000000000000000000000000000000000000000000000000000000000000000000000000N 00000000000NCONT   00    00000000000          00000000000000000000000000000000000000000000 000000000000000A000000000000000000000000000000000000000000000 000000000000000000000000000000000000000     00000000                                                                                                                        000000000000000000
F0010000005867500002000090050144800041450500000000000000000201405300002001PLASTICOS JR ASOCIADOS SAS                        C000000002600000000000000000000000100010010000000000000000000000F0010000005867500220140530000101 00000000000000000000000000000000000000000000000000000000000000000000000000000000000000000000000000000000000000000N 00000000000NCONT   00    00000000000          00000000000000000000000000000000000000000000 000000000000000A000000000000000000000000000000000000000000000 000000000000000000000000000000000000000     00000000                                                                                                                        000000000000000000
F0010000005867500003000090050144800042505000000000000000000201405300002001PLASTICOS JR ASOCIADOS SAS                        C000000000500000000000000000000000100010010000000000000000000000F0010000005867500320140530000101 00000000000000000000000000000000000000000000000000000000000000000000000000000000000000000000000000000000000000000N 00000000000NCONT   00    00000000000          00000000000000000000000000000000000000000000 000000000000000A000000000000000000000000000000000000000000000 000000000000000000000000000000000000000     00000000                                                                                                                        000000000000000000
F0010000005867500004000090050144800023658300000000000000000201405300002001PLASTICOS JR ASOCIADOS SAS                        C000000000020800000000000000000000100010010000000000000000000000F0010000005867500420140530000101 00000000000000000000000000000000000000000000000000000000000000000000000000000000000000000000000000000000000000000N 00000000000NCONT   00    00000000000          00000000000000000000000000000000000000000000 000000000000000A000000000000000000000000000000000000000000000 000000000000000000000000000000000000000     00000000                                                                                                                        000000000000000000
F0010000005867500005000090050144800013552100000000000000000201405300002001PLASTICOS JR ASOCIADOS SAS                        D000000000020800000000000000000000100010010000000000000000000000F0010000005867500520140530000101 00000000000000000000000000000000000000000000000000000000000000000000000000000000000000000000000000000000000000000N 00000000000NCONT   00    00000000000          00000000000000000000000000000000000000000000 000000000000000A000000000000000000000000000000000000000000000 000000000000000000000000000000000000000     00000000                                                                                                                        000000000000000000
F0010000005867600001000000431178400011050500000000000000000201405300002001EFRAIN ALVAREZ                                    D000000001250000000000000000000000100010010000000000000000000000F0010000005867600120140530000101 00000000000000000000000000000000000000000000000000000000000000000000000000000000000000000000000000000000000000000N 00000000000NCONT   00    00000000000          00000000000000000000000000000000000000000000 000000000000000A000000000000000000000000000000000000000000000 000000000000000000000000000000000000000     00000000                                                                                                                        000000000000000000
F0010000005867600002000000431178400041450500000000000000000201405300002001EFRAIN ALVAREZ                                    C000000001200000000000000000000000100010010000000000000000000000F0010000005867600220140530000101 00000000000000000000000000000000000000000000000000000000000000000000000000000000000000000000000000000000000000000N 00000000000NCONT   00    00000000000          00000000000000000000000000000000000000000000 000000000000000A000000000000000000000000000000000000000000000 000000000000000000000000000000000000000     00000000                                                                                                                        000000000000000000
F0010000005867600003000000431178400042505000000000000000000201405300002001EFRAIN ALVAREZ                                    C000000000050000000000000000000000100010010000000000000000000000F0010000005867600320140530000101 00000000000000000000000000000000000000000000000000000000000000000000000000000000000000000000000000000000000000000N 00000000000NCONT   00    00000000000          00000000000000000000000000000000000000000000 000000000000000A000000000000000000000000000000000000000000000 000000000000000000000000000000000000000     00000000                                                                                                                        000000000000000000
F0010000005867600004000000431178400023658300000000000000000201405300002001EFRAIN ALVAREZ                                    C000000000009600000000000000000000100010010000000000000000000000F0010000005867600420140530000101 00000000000000000000000000000000000000000000000000000000000000000000000000000000000000000000000000000000000000000N 00000000000NCONT   00    00000000000          00000000000000000000000000000000000000000000 000000000000000A000000000000000000000000000000000000000000000 000000000000000000000000000000000000000     00000000                                                                                                                        000000000000000000
F0010000005867600005000000431178400013552100000000000000000201405300002001EFRAIN ALVAREZ                                    D000000000009600000000000000000000100010010000000000000000000000F0010000005867600520140530000101 00000000000000000000000000000000000000000000000000000000000000000000000000000000000000000000000000000000000000000N 00000000000NCONT   00    00000000000          00000000000000000000000000000000000000000000 000000000000000A000000000000000000000000000000000000000000000 000000000000000000000000000000000000000     00000000                                                                                                                        000000000000000000
F0010000005867700001000000431178400011050500000000000000000201405300002001EFRAIN ALVAREZ                                    D000000001300000000000000000000000100010010000000000000000000000F0010000005867700120140530000101 00000000000000000000000000000000000000000000000000000000000000000000000000000000000000000000000000000000000000000N 00000000000NCONT   00    00000000000          00000000000000000000000000000000000000000000 000000000000000A000000000000000000000000000000000000000000000 000000000000000000000000000000000000000     00000000                                                                                                                        000000000000000000
F0010000005867700002000000431178400041450500000000000000000201405300002001EFRAIN ALVAREZ                                    C000000001200000000000000000000000100010010000000000000000000000F0010000005867700220140530000101 00000000000000000000000000000000000000000000000000000000000000000000000000000000000000000000000000000000000000000N 00000000000NCONT   00    00000000000          00000000000000000000000000000000000000000000 000000000000000A000000000000000000000000000000000000000000000 000000000000000000000000000000000000000     00000000                                                                                                                        000000000000000000
F0010000005867700003000000431178400042505000000000000000000201405300002001EFRAIN ALVAREZ                                    C000000000100000000000000000000000100010010000000000000000000000F0010000005867700320140530000101 00000000000000000000000000000000000000000000000000000000000000000000000000000000000000000000000000000000000000000N 00000000000NCONT   00    00000000000          00000000000000000000000000000000000000000000 000000000000000A000000000000000000000000000000000000000000000 000000000000000000000000000000000000000     00000000                                                                                                                        000000000000000000
F0010000005867700004000000431178400023658300000000000000000201405300002001EFRAIN ALVAREZ                                    C000000000009600000000000000000000100010010000000000000000000000F0010000005867700420140530000101 00000000000000000000000000000000000000000000000000000000000000000000000000000000000000000000000000000000000000000N 00000000000NCONT   00    00000000000          00000000000000000000000000000000000000000000 000000000000000A000000000000000000000000000000000000000000000 000000000000000000000000000000000000000     00000000                                                                                                                        000000000000000000
F0010000005867700005000000431178400013552100000000000000000201405300002001EFRAIN ALVAREZ                                    D000000000009600000000000000000000100010010000000000000000000000F0010000005867700520140530000101 00000000000000000000000000000000000000000000000000000000000000000000000000000000000000000000000000000000000000000N 00000000000NCONT   00    00000000000          00000000000000000000000000000000000000000000 000000000000000A000000000000000000000000000000000000000000000 000000000000000000000000000000000000000     00000000                                                                                                                        000000000000000000
F0010000005867800001000000808409100011050500000000000000000201405300002001JOSE LUIS TRILLOS BAYONA                          D000000001800000000000000000000000100010010000000000000000000000F0010000005867800120140530000101 00000000000000000000000000000000000000000000000000000000000000000000000000000000000000000000000000000000000000000N 00000000000NCONT   00    00000000000          00000000000000000000000000000000000000000000 000000000000000A000000000000000000000000000000000000000000000 000000000000000000000000000000000000000     00000000                                                                                                                        000000000000000000
F0010000005867800002000000808409100041450500000000000000000201405300002001JOSE LUIS TRILLOS BAYONA                          C000000001700000000000000000000000100010010000000000000000000000F0010000005867800220140530000101 00000000000000000000000000000000000000000000000000000000000000000000000000000000000000000000000000000000000000000N 00000000000NCONT   00    00000000000          00000000000000000000000000000000000000000000 000000000000000A000000000000000000000000000000000000000000000 000000000000000000000000000000000000000     00000000                                                                                                                        000000000000000000
F0010000005867800003000000808409100042505000000000000000000201405300002001JOSE LUIS TRILLOS BAYONA                          C000000000100000000000000000000000100010010000000000000000000000F0010000005867800320140530000101 00000000000000000000000000000000000000000000000000000000000000000000000000000000000000000000000000000000000000000N 00000000000NCONT   00    00000000000          00000000000000000000000000000000000000000000 000000000000000A000000000000000000000000000000000000000000000 000000000000000000000000000000000000000     00000000                                                                                                                        000000000000000000
F0010000005867800004000000808409100023658300000000000000000201405300002001JOSE LUIS TRILLOS BAYONA                          C000000000013600000000000000000000100010010000000000000000000000F0010000005867800420140530000101 00000000000000000000000000000000000000000000000000000000000000000000000000000000000000000000000000000000000000000N 00000000000NCONT   00    00000000000          00000000000000000000000000000000000000000000 000000000000000A000000000000000000000000000000000000000000000 000000000000000000000000000000000000000     00000000                                                                                                                        000000000000000000
F0010000005867800005000000808409100013552100000000000000000201405300002001JOSE LUIS TRILLOS BAYONA                          D000000000013600000000000000000000100010010000000000000000000000F0010000005867800520140530000101 00000000000000000000000000000000000000000000000000000000000000000000000000000000000000000000000000000000000000000N 00000000000NCONT   00    00000000000          00000000000000000000000000000000000000000000 000000000000000A000000000000000000000000000000000000000000000 000000000000000000000000000000000000000     00000000                                                                                                                        000000000000000000
F0010000005867900001000000869238600011050500000000000000000201405300002001EDUARDO MERIÑO ALMANZA                           D000000003100000000000000000000000100010010000000000000000000000F0010000005867900120140530000101 00000000000000000000000000000000000000000000000000000000000000000000000000000000000000000000000000000000000000000N 00000000000NCONT   00    00000000000          00000000000000000000000000000000000000000000 000000000000000A000000000000000000000000000000000000000000000 000000000000000000000000000000000000000     00000000                                                                                                                        000000000000000000
F0010000005867900002000000869238600041450500000000000000000201405300002001EDUARDO MERIÑO ALMANZA                           C000000003000000000000000000000000100010010000000000000000000000F0010000005867900220140530000101 00000000000000000000000000000000000000000000000000000000000000000000000000000000000000000000000000000000000000000N 00000000000NCONT   00    00000000000          00000000000000000000000000000000000000000000 000000000000000A000000000000000000000000000000000000000000000 000000000000000000000000000000000000000     00000000                                                                                                                        000000000000000000
F0010000005867900003000000869238600042505000000000000000000201405300002001EDUARDO MERIÑO ALMANZA                           C000000000100000000000000000000000100010010000000000000000000000F0010000005867900320140530000101 00000000000000000000000000000000000000000000000000000000000000000000000000000000000000000000000000000000000000000N 00000000000NCONT   00    00000000000          00000000000000000000000000000000000000000000 000000000000000A000000000000000000000000000000000000000000000 000000000000000000000000000000000000000     00000000                                                                                                                        000000000000000000
F0010000005867900004000000869238600023658300000000000000000201405300002001EDUARDO MERIÑO ALMANZA                           C000000000024000000000000000000000100010010000000000000000000000F0010000005867900420140530000101 00000000000000000000000000000000000000000000000000000000000000000000000000000000000000000000000000000000000000000N 00000000000NCONT   00    00000000000          00000000000000000000000000000000000000000000 000000000000000A000000000000000000000000000000000000000000000 000000000000000000000000000000000000000     00000000                                                                                                                        000000000000000000
F0010000005867900005000000869238600013552100000000000000000201405300002001EDUARDO MERIÑO ALMANZA                           D000000000024000000000000000000000100010010000000000000000000000F0010000005867900520140530000101 00000000000000000000000000000000000000000000000000000000000000000000000000000000000000000000000000000000000000000N 00000000000NCONT   00    00000000000          00000000000000000000000000000000000000000000 000000000000000A000000000000000000000000000000000000000000000 000000000000000000000000000000000000000     00000000                                                                                                                        000000000000000000
F0010000005868000001000080201489400011050500000000000000000201405300002001MOLDURAS DIAPIN                                   D000000001200000000000000000000000100010010000000000000000000000F0010000005868000120140530000101 00000000000000000000000000000000000000000000000000000000000000000000000000000000000000000000000000000000000000000N 00000000000NCONT   00    00000000000          00000000000000000000000000000000000000000000 000000000000000A000000000000000000000000000000000000000000000 000000000000000000000000000000000000000     00000000                                                                                                                        000000000000000000
F0010000005868000002000080201489400041450500000000000000000201405300002001MOLDURAS DIAPIN                                   C000000001000000000000000000000000100010010000000000000000000000F0010000005868000220140530000101 00000000000000000000000000000000000000000000000000000000000000000000000000000000000000000000000000000000000000000N 00000000000NCONT   00    00000000000          00000000000000000000000000000000000000000000 000000000000000A000000000000000000000000000000000000000000000 000000000000000000000000000000000000000     00000000                                                                                                                        000000000000000000
F0010000005868000003000080201489400042505000000000000000000201405300002001MOLDURAS DIAPIN                                   C000000000200000000000000000000000100010010000000000000000000000F0010000005868000320140530000101 00000000000000000000000000000000000000000000000000000000000000000000000000000000000000000000000000000000000000000N 00000000000NCONT   00    00000000000          00000000000000000000000000000000000000000000 000000000000000A000000000000000000000000000000000000000000000 000000000000000000000000000000000000000     00000000                                                                                                                        000000000000000000
F0010000005868000004000080201489400023658300000000000000000201405300002001MOLDURAS DIAPIN                                   C000000000008000000000000000000000100010010000000000000000000000F0010000005868000420140530000101 00000000000000000000000000000000000000000000000000000000000000000000000000000000000000000000000000000000000000000N 00000000000NCONT   00    00000000000          00000000000000000000000000000000000000000000 000000000000000A000000000000000000000000000000000000000000000 000000000000000000000000000000000000000     00000000                                                                                                                        000000000000000000
F0010000005868000005000080201489400013552100000000000000000201405300002001MOLDURAS DIAPIN                                   D000000000008000000000000000000000100010010000000000000000000000F0010000005868000520140530000101 00000000000000000000000000000000000000000000000000000000000000000000000000000000000000000000000000000000000000000N 00000000000NCONT   00    00000000000          00000000000000000000000000000000000000000000 000000000000000A000000000000000000000000000000000000000000000 000000000000000000000000000000000000000     00000000                                                                                                                        000000000000000000
F0010000005868100001000080023327700011050500000000000000000201405300002001DISINCO LTDA                                      D000000002000000000000000000000000100010010000000000000000000000F0010000005868100120140530000101 00000000000000000000000000000000000000000000000000000000000000000000000000000000000000000000000000000000000000000N 00000000000NCONT   00    00000000000          00000000000000000000000000000000000000000000 000000000000000A000000000000000000000000000000000000000000000 000000000000000000000000000000000000000     00000000                                                                                                                        000000000000000000
F0010000005868100002000080023327700041450500000000000000000201405300002001DISINCO LTDA                                      C000000001900000000000000000000000100010010000000000000000000000F0010000005868100220140530000101 00000000000000000000000000000000000000000000000000000000000000000000000000000000000000000000000000000000000000000N 00000000000NCONT   00    00000000000          00000000000000000000000000000000000000000000 000000000000000A000000000000000000000000000000000000000000000 000000000000000000000000000000000000000     00000000                                                                                                                        000000000000000000
F0010000005868100003000080023327700042505000000000000000000201405300002001DISINCO LTDA                                      C000000000100000000000000000000000100010010000000000000000000000F0010000005868100320140530000101 00000000000000000000000000000000000000000000000000000000000000000000000000000000000000000000000000000000000000000N 00000000000NCONT   00    00000000000          00000000000000000000000000000000000000000000 000000000000000A000000000000000000000000000000000000000000000 000000000000000000000000000000000000000     00000000                                                                                                                        000000000000000000
F0010000005868100004000080023327700023658300000000000000000201405300002001DISINCO LTDA                                      C000000000015200000000000000000000100010010000000000000000000000F0010000005868100420140530000101 00000000000000000000000000000000000000000000000000000000000000000000000000000000000000000000000000000000000000000N 00000000000NCONT   00    00000000000          00000000000000000000000000000000000000000000 000000000000000A000000000000000000000000000000000000000000000 000000000000000000000000000000000000000     00000000                                                                                                                        000000000000000000
F0010000005868100005000080023327700013552100000000000000000201405300002001DISINCO LTDA                                      D000000000015200000000000000000000100010010000000000000000000000F0010000005868100520140530000101 00000000000000000000000000000000000000000000000000000000000000000000000000000000000000000000000000000000000000000N 00000000000NCONT   00    00000000000          00000000000000000000000000000000000000000000 000000000000000A000000000000000000000000000000000000000000000 000000000000000000000000000000000000000     00000000                                                                                                                        000000000000000000
F0010000005868200001000000744496800011050500000000000000000201405300002001TOMAS SANCHEZ                                     D000000001000000000000000000000000100010010000000000000000000000F0010000005868200120140530000101 00000000000000000000000000000000000000000000000000000000000000000000000000000000000000000000000000000000000000000N 00000000000NCONT   00    00000000000          00000000000000000000000000000000000000000000 000000000000000A000000000000000000000000000000000000000000000 000000000000000000000000000000000000000     00000000                                                                                                                        000000000000000000
F0010000005868200002000000744496800041450500000000000000000201405300002001TOMAS SANCHEZ                                     C000000000900000000000000000000000100010010000000000000000000000F0010000005868200220140530000101 00000000000000000000000000000000000000000000000000000000000000000000000000000000000000000000000000000000000000000N 00000000000NCONT   00    00000000000          00000000000000000000000000000000000000000000 000000000000000A000000000000000000000000000000000000000000000 000000000000000000000000000000000000000     00000000                                                                                                                        000000000000000000
F0010000005868200003000000744496800042505000000000000000000201405300002001TOMAS SANCHEZ                                     C000000000100000000000000000000000100010010000000000000000000000F0010000005868200320140530000101 00000000000000000000000000000000000000000000000000000000000000000000000000000000000000000000000000000000000000000N 00000000000NCONT   00    00000000000          00000000000000000000000000000000000000000000 000000000000000A000000000000000000000000000000000000000000000 000000000000000000000000000000000000000     00000000                                                                                                                        000000000000000000
F0010000005868200004000000744496800023658300000000000000000201405300002001TOMAS SANCHEZ                                     C000000000007200000000000000000000100010010000000000000000000000F0010000005868200420140530000101 00000000000000000000000000000000000000000000000000000000000000000000000000000000000000000000000000000000000000000N 00000000000NCONT   00    00000000000          00000000000000000000000000000000000000000000 000000000000000A000000000000000000000000000000000000000000000 000000000000000000000000000000000000000     00000000                                                                                                                        000000000000000000
F0010000005868200005000000744496800013552100000000000000000201405300002001TOMAS SANCHEZ                                     D000000000007200000000000000000000100010010000000000000000000000F0010000005868200520140530000101 00000000000000000000000000000000000000000000000000000000000000000000000000000000000000000000000000000000000000000N 00000000000NCONT   00    00000000000          00000000000000000000000000000000000000000000 000000000000000A000000000000000000000000000000000000000000000 000000000000000000000000000000000000000     00000000                                                                                                                        000000000000000000
F0010000005868300001000000870907300011050500000000000000000201405300002001SURTIDOR FERRETERO                                D000000002500000000000000000000000100010010000000000000000000000F0010000005868300120140530000101 00000000000000000000000000000000000000000000000000000000000000000000000000000000000000000000000000000000000000000N 00000000000NCONT   00    00000000000          00000000000000000000000000000000000000000000 000000000000000A000000000000000000000000000000000000000000000 000000000000000000000000000000000000000     00000000                                                                                                                        000000000000000000
F0010000005868300002000000870907300041450500000000000000000201405300002001SURTIDOR FERRETERO                                C000000001500000000000000000000000100010010000000000000000000000F0010000005868300220140530000101 00000000000000000000000000000000000000000000000000000000000000000000000000000000000000000000000000000000000000000N 00000000000NCONT   00    00000000000          00000000000000000000000000000000000000000000 000000000000000A000000000000000000000000000000000000000000000 000000000000000000000000000000000000000     00000000                                                                                                                        000000000000000000
F0010000005868300003000000870907300042505000000000000000000201405300002001SURTIDOR FERRETERO                                C000000001000000000000000000000000100010010000000000000000000000F0010000005868300320140530000101 00000000000000000000000000000000000000000000000000000000000000000000000000000000000000000000000000000000000000000N 00000000000NCONT   00    00000000000          00000000000000000000000000000000000000000000 000000000000000A000000000000000000000000000000000000000000000 000000000000000000000000000000000000000     00000000                                                                                                                        000000000000000000
F0010000005868300004000000870907300023658300000000000000000201405300002001SURTIDOR FERRETERO                                C000000000012000000000000000000000100010010000000000000000000000F0010000005868300420140530000101 00000000000000000000000000000000000000000000000000000000000000000000000000000000000000000000000000000000000000000N 00000000000NCONT   00    00000000000          00000000000000000000000000000000000000000000 000000000000000A000000000000000000000000000000000000000000000 000000000000000000000000000000000000000     00000000                                                                                                                        000000000000000000
F0010000005868300005000000870907300013552100000000000000000201405300002001SURTIDOR FERRETERO                                D000000000012000000000000000000000100010010000000000000000000000F0010000005868300520140530000101 00000000000000000000000000000000000000000000000000000000000000000000000000000000000000000000000000000000000000000N 00000000000NCONT   00    00000000000          00000000000000000000000000000000000000000000 000000000000000A000000000000000000000000000000000000000000000 000000000000000000000000000000000000000     00000000                                                                                                                        000000000000000000
F0010000005868400001000000870907300011050500000000000000000201405300002001SURTIDOR FERRETERO                                D000000005400000000000000000000000100010010000000000000000000000F0010000005868400120140530000101 00000000000000000000000000000000000000000000000000000000000000000000000000000000000000000000000000000000000000000N 00000000000NCONT   00    00000000000          00000000000000000000000000000000000000000000 000000000000000A000000000000000000000000000000000000000000000 000000000000000000000000000000000000000     00000000                                                                                                                        000000000000000000
F0010000005868400002000000870907300041450500000000000000000201405300002001SURTIDOR FERRETERO                                C000000003000000000000000000000000100010010000000000000000000000F0010000005868400220140530000101 00000000000000000000000000000000000000000000000000000000000000000000000000000000000000000000000000000000000000000N 00000000000NCONT   00    00000000000          00000000000000000000000000000000000000000000 000000000000000A000000000000000000000000000000000000000000000 000000000000000000000000000000000000000     00000000                                                                                                                        000000000000000000
F0010000005868400003000000870907300042505000000000000000000201405300002001SURTIDOR FERRETERO                                C000000002400000000000000000000000100010010000000000000000000000F0010000005868400320140530000101 00000000000000000000000000000000000000000000000000000000000000000000000000000000000000000000000000000000000000000N 00000000000NCONT   00    00000000000          00000000000000000000000000000000000000000000 000000000000000A000000000000000000000000000000000000000000000 000000000000000000000000000000000000000     00000000                                                                                                                        000000000000000000
F0010000005868400004000000870907300023658300000000000000000201405300002001SURTIDOR FERRETERO                                C000000000024000000000000000000000100010010000000000000000000000F0010000005868400420140530000101 00000000000000000000000000000000000000000000000000000000000000000000000000000000000000000000000000000000000000000N 00000000000NCONT   00    00000000000          00000000000000000000000000000000000000000000 000000000000000A000000000000000000000000000000000000000000000 000000000000000000000000000000000000000     00000000                                                                                                                        000000000000000000
F0010000005868400005000000870907300013552100000000000000000201405300002001SURTIDOR FERRETERO                                D000000000024000000000000000000000100010010000000000000000000000F0010000005868400520140530000101 00000000000000000000000000000000000000000000000000000000000000000000000000000000000000000000000000000000000000000N 00000000000NCONT   00    00000000000          00000000000000000000000000000000000000000000 000000000000000A000000000000000000000000000000000000000000000 000000000000000000000000000000000000000     00000000                                                                                                                        000000000000000000
F0010000005868500001000000870907300011050500000000000000000201405300002001SURTIDOR FERRETERO                                D000000001410000000000000000000000100010010000000000000000000000F0010000005868500120140530000101 00000000000000000000000000000000000000000000000000000000000000000000000000000000000000000000000000000000000000000N 00000000000NCONT   00    00000000000          00000000000000000000000000000000000000000000 000000000000000A000000000000000000000000000000000000000000000 000000000000000000000000000000000000000     00000000                                                                                                                        000000000000000000
F0010000005868500002000000870907300041450500000000000000000201405300002001SURTIDOR FERRETERO                                C000000000750000000000000000000000100010010000000000000000000000F0010000005868500220140530000101 00000000000000000000000000000000000000000000000000000000000000000000000000000000000000000000000000000000000000000N 00000000000NCONT   00    00000000000          00000000000000000000000000000000000000000000 000000000000000A000000000000000000000000000000000000000000000 000000000000000000000000000000000000000     00000000                                                                                                                        000000000000000000
F0010000005868500003000000870907300042505000000000000000000201405300002001SURTIDOR FERRETERO                                C000000000660000000000000000000000100010010000000000000000000000F0010000005868500320140530000101 00000000000000000000000000000000000000000000000000000000000000000000000000000000000000000000000000000000000000000N 00000000000NCONT   00    00000000000          00000000000000000000000000000000000000000000 000000000000000A000000000000000000000000000000000000000000000 000000000000000000000000000000000000000     00000000                                                                                                                        000000000000000000
F0010000005868500004000000870907300023658300000000000000000201405300002001SURTIDOR FERRETERO                                C000000000006000000000000000000000100010010000000000000000000000F0010000005868500420140530000101 00000000000000000000000000000000000000000000000000000000000000000000000000000000000000000000000000000000000000000N 00000000000NCONT   00    00000000000          00000000000000000000000000000000000000000000 000000000000000A000000000000000000000000000000000000000000000 000000000000000000000000000000000000000     00000000                                                                                                                        000000000000000000
F0010000005868500005000000870907300013552100000000000000000201405300002001SURTIDOR FERRETERO                                D000000000006000000000000000000000100010010000000000000000000000F0010000005868500520140530000101 00000000000000000000000000000000000000000000000000000000000000000000000000000000000000000000000000000000000000000N 00000000000NCONT   00    00000000000          00000000000000000000000000000000000000000000 000000000000000A000000000000000000000000000000000000000000000 000000000000000000000000000000000000000     00000000                                                                                                                        000000000000000000
F0010000005868600001000083007900600011050500000000000000000201405300002001EXPRESO ANDINO DE CARGA SA                        D000000003700000000000000000000000100010010000000000000000000000F0010000005868600120140530000101 00000000000000000000000000000000000000000000000000000000000000000000000000000000000000000000000000000000000000000N 00000000000NCONT   00    00000000000          00000000000000000000000000000000000000000000 000000000000000A000000000000000000000000000000000000000000000 000000000000000000000000000000000000000     00000000                                                                                                                        000000000000000000
F0010000005868600002000083007900600041450500000000000000000201405300002001EXPRESO ANDINO DE CARGA SA                        C000000003600000000000000000000000100010010000000000000000000000F0010000005868600220140530000101 00000000000000000000000000000000000000000000000000000000000000000000000000000000000000000000000000000000000000000N 00000000000NCONT   00    00000000000          00000000000000000000000000000000000000000000 000000000000000A000000000000000000000000000000000000000000000 000000000000000000000000000000000000000     00000000                                                                                                                        000000000000000000
F0010000005868600003000083007900600042505000000000000000000201405300002001EXPRESO ANDINO DE CARGA SA                        C000000000100000000000000000000000100010010000000000000000000000F0010000005868600320140530000101 00000000000000000000000000000000000000000000000000000000000000000000000000000000000000000000000000000000000000000N 00000000000NCONT   00    00000000000          00000000000000000000000000000000000000000000 000000000000000A000000000000000000000000000000000000000000000 000000000000000000000000000000000000000     00000000                                                                                                                        000000000000000000
F0010000005868600004000083007900600023658300000000000000000201405300002001EXPRESO ANDINO DE CARGA SA                        C000000000028800000000000000000000100010010000000000000000000000F0010000005868600420140530000101 00000000000000000000000000000000000000000000000000000000000000000000000000000000000000000000000000000000000000000N 00000000000NCONT   00    00000000000          00000000000000000000000000000000000000000000 000000000000000A000000000000000000000000000000000000000000000 000000000000000000000000000000000000000     00000000                                                                                                                        000000000000000000
F0010000005868600005000083007900600013552100000000000000000201405300002001EXPRESO ANDINO DE CARGA SA                        D000000000028800000000000000000000100010010000000000000000000000F0010000005868600520140530000101 00000000000000000000000000000000000000000000000000000000000000000000000000000000000000000000000000000000000000000N 00000000000NCONT   00    00000000000          00000000000000000000000000000000000000000000 000000000000000A000000000000000000000000000000000000000000000 000000000000000000000000000000000000000     00000000                                                                                                                        000000000000000000
F0010000005868700001000005525050200011050500000000000000000201405300002001PLASTICOS  DE LA COSTA                            D000000002102000000000000000000000100010010000000000000000000000F0010000005868700120140530000101 00000000000000000000000000000000000000000000000000000000000000000000000000000000000000000000000000000000000000000N 00000000000NCONT   00    00000000000          00000000000000000000000000000000000000000000 000000000000000A000000000000000000000000000000000000000000000 000000000000000000000000000000000000000     00000000                                                                                                                        000000000000000000
F0010000005868700002000005525050200041450500000000000000000201405300002001PLASTICOS  DE LA COSTA                            C000000002002000000000000000000000100010010000000000000000000000F0010000005868700220140530000101 00000000000000000000000000000000000000000000000000000000000000000000000000000000000000000000000000000000000000000N 00000000000NCONT   00    00000000000          00000000000000000000000000000000000000000000 000000000000000A000000000000000000000000000000000000000000000 000000000000000000000000000000000000000     00000000                                                                                                                        000000000000000000
F0010000005868700003000005525050200042505000000000000000000201405300002001PLASTICOS  DE LA COSTA                            C000000000100000000000000000000000100010010000000000000000000000F0010000005868700320140530000101 00000000000000000000000000000000000000000000000000000000000000000000000000000000000000000000000000000000000000000N 00000000000NCONT   00    00000000000          00000000000000000000000000000000000000000000 000000000000000A000000000000000000000000000000000000000000000 000000000000000000000000000000000000000     00000000                                                                                                                        000000000000000000
F0010000005868700004000005525050200023658300000000000000000201405300002001PLASTICOS  DE LA COSTA                            C000000000016000000000000000000000100010010000000000000000000000F0010000005868700420140530000101 00000000000000000000000000000000000000000000000000000000000000000000000000000000000000000000000000000000000000000N 00000000000NCONT   00    00000000000          00000000000000000000000000000000000000000000 000000000000000A000000000000000000000000000000000000000000000 000000000000000000000000000000000000000     00000000                                                                                                                        000000000000000000
F0010000005868700005000005525050200013552100000000000000000201405300002001PLASTICOS  DE LA COSTA                            D000000000016000000000000000000000100010010000000000000000000000F0010000005868700520140530000101 00000000000000000000000000000000000000000000000000000000000000000000000000000000000000000000000000000000000000000N 00000000000NCONT   00    00000000000          00000000000000000000000000000000000000000000 000000000000000A000000000000000000000000000000000000000000000 000000000000000000000000000000000000000     00000000                                                                                                                        000000000000000000
F0010000005868800001000080006627500011050500000000000000000201405300002001COMERCIAL J.F.I LTDA                              D000000003800000000000000000000000100010010000000000000000000000F0010000005868800120140530000101 00000000000000000000000000000000000000000000000000000000000000000000000000000000000000000000000000000000000000000N 00000000000NCONT   00    00000000000          00000000000000000000000000000000000000000000 000000000000000A000000000000000000000000000000000000000000000 000000000000000000000000000000000000000     00000000                                                                                                                        000000000000000000
F0010000005868800002000080006627500041450500000000000000000201405300002001COMERCIAL J.F.I LTDA                              C000000003000000000000000000000000100010010000000000000000000000F0010000005868800220140530000101 00000000000000000000000000000000000000000000000000000000000000000000000000000000000000000000000000000000000000000N 00000000000NCONT   00    00000000000          00000000000000000000000000000000000000000000 000000000000000A000000000000000000000000000000000000000000000 000000000000000000000000000000000000000     00000000                                                                                                                        000000000000000000
F0010000005868800003000080006627500042505000000000000000000201405300002001COMERCIAL J.F.I LTDA                              C000000000800000000000000000000000100010010000000000000000000000F0010000005868800320140530000101 00000000000000000000000000000000000000000000000000000000000000000000000000000000000000000000000000000000000000000N 00000000000NCONT   00    00000000000          00000000000000000000000000000000000000000000 000000000000000A000000000000000000000000000000000000000000000 000000000000000000000000000000000000000     00000000                                                                                                                        000000000000000000
F0010000005868800004000080006627500023658300000000000000000201405300002001COMERCIAL J.F.I LTDA                              C000000000024000000000000000000000100010010000000000000000000000F0010000005868800420140530000101 00000000000000000000000000000000000000000000000000000000000000000000000000000000000000000000000000000000000000000N 00000000000NCONT   00    00000000000          00000000000000000000000000000000000000000000 000000000000000A000000000000000000000000000000000000000000000 000000000000000000000000000000000000000     00000000                                                                                                                        000000000000000000
F0010000005868800005000080006627500013552100000000000000000201405300002001COMERCIAL J.F.I LTDA                              D000000000024000000000000000000000100010010000000000000000000000F0010000005868800520140530000101 00000000000000000000000000000000000000000000000000000000000000000000000000000000000000000000000000000000000000000N 00000000000NCONT   00    00000000000          00000000000000000000000000000000000000000000 000000000000000A000000000000000000000000000000000000000000000 000000000000000000000000000000000000000     00000000                                                                                                                        000000000000000000
F0010000005868900001000080006627500011050500000000000000000201405300002001COMERCIAL J.F.I LTDA                              D000000005800000000000000000000000100010010000000000000000000000F0010000005868900120140530000101 00000000000000000000000000000000000000000000000000000000000000000000000000000000000000000000000000000000000000000N 00000000000NCONT   00    00000000000          00000000000000000000000000000000000000000000 000000000000000A000000000000000000000000000000000000000000000 000000000000000000000000000000000000000     00000000                                                                                                                        000000000000000000
F0010000005868900002000080006627500041450500000000000000000201405300002001COMERCIAL J.F.I LTDA                              C000000005000000000000000000000000100010010000000000000000000000F0010000005868900220140530000101 00000000000000000000000000000000000000000000000000000000000000000000000000000000000000000000000000000000000000000N 00000000000NCONT   00    00000000000          00000000000000000000000000000000000000000000 000000000000000A000000000000000000000000000000000000000000000 000000000000000000000000000000000000000     00000000                                                                                                                        000000000000000000
F0010000005868900003000080006627500042505000000000000000000201405300002001COMERCIAL J.F.I LTDA                              C000000000800000000000000000000000100010010000000000000000000000F0010000005868900320140530000101 00000000000000000000000000000000000000000000000000000000000000000000000000000000000000000000000000000000000000000N 00000000000NCONT   00    00000000000          00000000000000000000000000000000000000000000 000000000000000A000000000000000000000000000000000000000000000 000000000000000000000000000000000000000     00000000                                                                                                                        000000000000000000
F0010000005868900004000080006627500023658300000000000000000201405300002001COMERCIAL J.F.I LTDA                              C000000000040000000000000000000000100010010000000000000000000000F0010000005868900420140530000101 00000000000000000000000000000000000000000000000000000000000000000000000000000000000000000000000000000000000000000N 00000000000NCONT   00    00000000000          00000000000000000000000000000000000000000000 000000000000000A000000000000000000000000000000000000000000000 000000000000000000000000000000000000000     00000000                                                                                                                        000000000000000000
F0010000005868900005000080006627500013552100000000000000000201405300002001COMERCIAL J.F.I LTDA                              D000000000040000000000000000000000100010010000000000000000000000F0010000005868900520140530000101 00000000000000000000000000000000000000000000000000000000000000000000000000000000000000000000000000000000000000000N 00000000000NCONT   00    00000000000          00000000000000000000000000000000000000000000 000000000000000A000000000000000000000000000000000000000000000 000000000000000000000000000000000000000     00000000                                                                                                                        000000000000000000
F0010000005869000001000090015305700011050500000000000000000201405300002001PLASTICOS Y SERVICIOS BARRANQUILLA EU             D000000002000000000000000000000000100010010000000000000000000000F0010000005869000120140530000101 00000000000000000000000000000000000000000000000000000000000000000000000000000000000000000000000000000000000000000N 00000000000NCONT   00    00000000000          00000000000000000000000000000000000000000000 000000000000000A000000000000000000000000000000000000000000000 000000000000000000000000000000000000000     00000000                                                                                                                        000000000000000000
F0010000005869000002000090015305700041450500000000000000000201405300002001PLASTICOS Y SERVICIOS BARRANQUILLA EU             C000000001700000000000000000000000100010010000000000000000000000F0010000005869000220140530000101 00000000000000000000000000000000000000000000000000000000000000000000000000000000000000000000000000000000000000000N 00000000000NCONT   00    00000000000          00000000000000000000000000000000000000000000 000000000000000A000000000000000000000000000000000000000000000 000000000000000000000000000000000000000     00000000                                                                                                                        000000000000000000
F0010000005869000003000090015305700042505000000000000000000201405300002001PLASTICOS Y SERVICIOS BARRANQUILLA EU             C000000000300000000000000000000000100010010000000000000000000000F0010000005869000320140530000101 00000000000000000000000000000000000000000000000000000000000000000000000000000000000000000000000000000000000000000N 00000000000NCONT   00    00000000000          00000000000000000000000000000000000000000000 000000000000000A000000000000000000000000000000000000000000000 000000000000000000000000000000000000000     00000000                                                                                                                        000000000000000000
F0010000005869000004000090015305700023658300000000000000000201405300002001PLASTICOS Y SERVICIOS BARRANQUILLA EU             C000000000013600000000000000000000100010010000000000000000000000F0010000005869000420140530000101 00000000000000000000000000000000000000000000000000000000000000000000000000000000000000000000000000000000000000000N 00000000000NCONT   00    00000000000          00000000000000000000000000000000000000000000 000000000000000A000000000000000000000000000000000000000000000 000000000000000000000000000000000000000     00000000                                                                                                                        000000000000000000
F0010000005869000005000090015305700013552100000000000000000201405300002001PLASTICOS Y SERVICIOS BARRANQUILLA EU             D000000000013600000000000000000000100010010000000000000000000000F0010000005869000520140530000101 00000000000000000000000000000000000000000000000000000000000000000000000000000000000000000000000000000000000000000N 00000000000NCONT   00    00000000000          00000000000000000000000000000000000000000000 000000000000000A000000000000000000000000000000000000000000000 000000000000000000000000000000000000000     00000000                                                                                                                        000000000000000000
F0010000005869100001000080201411900011050500000000000000000201405300002001PLASTISERVICIOS S DE H                            D000000002200000000000000000000000100010010000000000000000000000F0010000005869100120140530000101 00000000000000000000000000000000000000000000000000000000000000000000000000000000000000000000000000000000000000000N 00000000000NCONT   00    00000000000          00000000000000000000000000000000000000000000 000000000000000A000000000000000000000000000000000000000000000 000000000000000000000000000000000000000     00000000                                                                                                                        000000000000000000
F0010000005869100002000080201411900041450500000000000000000201405300002001PLASTISERVICIOS S DE H                            C000000001700000000000000000000000100010010000000000000000000000F0010000005869100220140530000101 00000000000000000000000000000000000000000000000000000000000000000000000000000000000000000000000000000000000000000N 00000000000NCONT   00    00000000000          00000000000000000000000000000000000000000000 000000000000000A000000000000000000000000000000000000000000000 000000000000000000000000000000000000000     00000000                                                                                                                        000000000000000000
F0010000005869100003000080201411900042505000000000000000000201405300002001PLASTISERVICIOS S DE H                            C000000000500000000000000000000000100010010000000000000000000000F0010000005869100320140530000101 00000000000000000000000000000000000000000000000000000000000000000000000000000000000000000000000000000000000000000N 00000000000NCONT   00    00000000000          00000000000000000000000000000000000000000000 000000000000000A000000000000000000000000000000000000000000000 000000000000000000000000000000000000000     00000000                                                                                                                        000000000000000000
F0010000005869100004000080201411900023658300000000000000000201405300002001PLASTISERVICIOS S DE H                            C000000000013600000000000000000000100010010000000000000000000000F0010000005869100420140530000101 00000000000000000000000000000000000000000000000000000000000000000000000000000000000000000000000000000000000000000N 00000000000NCONT   00    00000000000          00000000000000000000000000000000000000000000 000000000000000A000000000000000000000000000000000000000000000 000000000000000000000000000000000000000     00000000                                                                                                                        000000000000000000
F0010000005869100005000080201411900013552100000000000000000201405300002001PLASTISERVICIOS S DE H                            D000000000013600000000000000000000100010010000000000000000000000F0010000005869100520140530000101 00000000000000000000000000000000000000000000000000000000000000000000000000000000000000000000000000000000000000000N 00000000000NCONT   00    00000000000          00000000000000000000000000000000000000000000 000000000000000A000000000000000000000000000000000000000000000 000000000000000000000000000000000000000     00000000                                                                                                                        000000000000000000
F0010000005869200001000080013087700011050500000000000000000201405300002001MUNDIAL DE METALES LTDA                           D000000003300000000000000000000000100010010000000000000000000000F0010000005869200120140530000101 00000000000000000000000000000000000000000000000000000000000000000000000000000000000000000000000000000000000000000N 00000000000NCONT   00    00000000000          00000000000000000000000000000000000000000000 000000000000000A000000000000000000000000000000000000000000000 000000000000000000000000000000000000000     00000000                                                                                                                        000000000000000000
F0010000005869200002000080013087700041450500000000000000000201405300002001MUNDIAL DE METALES LTDA                           C000000002500000000000000000000000100010010000000000000000000000F0010000005869200220140530000101 00000000000000000000000000000000000000000000000000000000000000000000000000000000000000000000000000000000000000000N 00000000000NCONT   00    00000000000          00000000000000000000000000000000000000000000 000000000000000A000000000000000000000000000000000000000000000 000000000000000000000000000000000000000     00000000                                                                                                                        000000000000000000
