F0010000008549700001000090050780200011050500000000000000000201604300002001CONSUELO JARAMILLO                                D000000001200000000000000000000000100010010000000000000000000000F0010000008549700120160430000101 00000000000000000000000000000000000000000000000000000000000000000000000000000000000000000000000000000000000000000N 00000000000NCONT   00    00000000000          00000000000000000000000000000000000000000000 000000000000000A000000000000000000000000000000000000000000000 000000000000000000000000000000000000000     00000000                                                                                                                        000000000000000000
F0010000008549700002000090050780200041450500000000000000000201604300002001CONSUELO JARAMILLO                                C000000001100000000000000000000000100010010000000000000000000000F0010000008549700220160430000101 00000000000000000000000000000000000000000000000000000000000000000000000000000000000000000000000000000000000000000N 00000000000NCONT   00    00000000000          00000000000000000000000000000000000000000000 000000000000000A000000000000000000000000000000000000000000000 000000000000000000000000000000000000000     00000000                                                                                                                        000000000000000000
F0010000008549700003000090050780200042505000000000000000000201604300002001CONSUELO JARAMILLO                                C000000000100000000000000000000000100010010000000000000000000000F0010000008549700320160430000101 00000000000000000000000000000000000000000000000000000000000000000000000000000000000000000000000000000000000000000N 00000000000NCONT   00    00000000000          00000000000000000000000000000000000000000000 000000000000000A000000000000000000000000000000000000000000000 000000000000000000000000000000000000000     00000000                                                                                                                        000000000000000000
F0010000008549700004000090050780200023658300000000000000000201604300002001CONSUELO JARAMILLO                                C000000000008800000000000000000000100010010000000000000000000000F0010000008549700420160430000101 00000000000000000000000000000000000000000000000000000000000000000000000000000000000000000000000000000000000000000N 00000000000NCONT   00    00000000000          00000000000000000000000000000000000000000000 000000000000000A000000000000000000000000000000000000000000000 000000000000000000000000000000000000000     00000000                                                                                                                        000000000000000000
F0010000008549700005000090050780200013552100000000000000000201604300002001CONSUELO JARAMILLO                                D000000000008800000000000000000000100010010000000000000000000000F0010000008549700520160430000101 00000000000000000000000000000000000000000000000000000000000000000000000000000000000000000000000000000000000000000N 00000000000NCONT   00    00000000000          00000000000000000000000000000000000000000000 000000000000000A000000000000000000000000000000000000000000000 000000000000000000000000000000000000000     00000000                                                                                                                        000000000000000000
F0010000008549800001000090029584600011050500000000000000000201604300002001TQM DISTRIBUCIONES SAS                            D000000001800000000000000000000000100010010000000000000000000000F0010000008549800120160430000101 00000000000000000000000000000000000000000000000000000000000000000000000000000000000000000000000000000000000000000N 00000000000NCONT   00    00000000000          00000000000000000000000000000000000000000000 000000000000000A000000000000000000000000000000000000000000000 000000000000000000000000000000000000000     00000000                                                                                                                        000000000000000000
F0010000008549800002000090029584600041450500000000000000000201604300002001TQM DISTRIBUCIONES SAS                            C000000001500000000000000000000000100010010000000000000000000000F0010000008549800220160430000101 00000000000000000000000000000000000000000000000000000000000000000000000000000000000000000000000000000000000000000N 00000000000NCONT   00    00000000000          00000000000000000000000000000000000000000000 000000000000000A000000000000000000000000000000000000000000000 000000000000000000000000000000000000000     00000000                                                                                                                        000000000000000000
F0010000008549800003000090029584600042505000000000000000000201604300002001TQM DISTRIBUCIONES SAS                            C000000000300000000000000000000000100010010000000000000000000000F0010000008549800320160430000101 00000000000000000000000000000000000000000000000000000000000000000000000000000000000000000000000000000000000000000N 00000000000NCONT   00    00000000000          00000000000000000000000000000000000000000000 000000000000000A000000000000000000000000000000000000000000000 000000000000000000000000000000000000000     00000000                                                                                                                        000000000000000000
F0010000008549800004000090029584600023658300000000000000000201604300002001TQM DISTRIBUCIONES SAS                            C000000000012000000000000000000000100010010000000000000000000000F0010000008549800420160430000101 00000000000000000000000000000000000000000000000000000000000000000000000000000000000000000000000000000000000000000N 00000000000NCONT   00    00000000000          00000000000000000000000000000000000000000000 000000000000000A000000000000000000000000000000000000000000000 000000000000000000000000000000000000000     00000000                                                                                                                        000000000000000000
F0010000008549800005000090029584600013552100000000000000000201604300002001TQM DISTRIBUCIONES SAS                            D000000000012000000000000000000000100010010000000000000000000000F0010000008549800520160430000101 00000000000000000000000000000000000000000000000000000000000000000000000000000000000000000000000000000000000000000N 00000000000NCONT   00    00000000000          00000000000000000000000000000000000000000000 000000000000000A000000000000000000000000000000000000000000000 000000000000000000000000000000000000000     00000000                                                                                                                        000000000000000000
F0010000008549900001000080019113900011050500000000000000000201604300002001COMERCIAL NOVAPEL LTDA                            D000000003750000000000000000000000100010010000000000000000000000F0010000008549900120160430000101 00000000000000000000000000000000000000000000000000000000000000000000000000000000000000000000000000000000000000000N 00000000000NCONT   00    00000000000          00000000000000000000000000000000000000000000 000000000000000A000000000000000000000000000000000000000000000 000000000000000000000000000000000000000     00000000                                                                                                                        000000000000000000
F0010000008549900002000080019113900041450500000000000000000201604300002001COMERCIAL NOVAPEL LTDA                            C000000003000000000000000000000000100010010000000000000000000000F0010000008549900220160430000101 00000000000000000000000000000000000000000000000000000000000000000000000000000000000000000000000000000000000000000N 00000000000NCONT   00    00000000000          00000000000000000000000000000000000000000000 000000000000000A000000000000000000000000000000000000000000000 000000000000000000000000000000000000000     00000000                                                                                                                        000000000000000000
F0010000008549900003000080019113900042505000000000000000000201604300002001COMERCIAL NOVAPEL LTDA                            C000000000750000000000000000000000100010010000000000000000000000F0010000008549900320160430000101 00000000000000000000000000000000000000000000000000000000000000000000000000000000000000000000000000000000000000000N 00000000000NCONT   00    00000000000          00000000000000000000000000000000000000000000 000000000000000A000000000000000000000000000000000000000000000 000000000000000000000000000000000000000     00000000                                                                                                                        000000000000000000
F0010000008549900004000080019113900023658300000000000000000201604300002001COMERCIAL NOVAPEL LTDA                            C000000000024000000000000000000000100010010000000000000000000000F0010000008549900420160430000101 00000000000000000000000000000000000000000000000000000000000000000000000000000000000000000000000000000000000000000N 00000000000NCONT   00    00000000000          00000000000000000000000000000000000000000000 000000000000000A000000000000000000000000000000000000000000000 000000000000000000000000000000000000000     00000000                                                                                                                        000000000000000000
F0010000008549900005000080019113900013552100000000000000000201604300002001COMERCIAL NOVAPEL LTDA                            D000000000024000000000000000000000100010010000000000000000000000F0010000008549900520160430000101 00000000000000000000000000000000000000000000000000000000000000000000000000000000000000000000000000000000000000000N 00000000000NCONT   00    00000000000          00000000000000000000000000000000000000000000 000000000000000A000000000000000000000000000000000000000000000 000000000000000000000000000000000000000     00000000                                                                                                                        000000000000000000
F0010000008550000001000080019113900011050500000000000000000201604300002001COMERCIAL NOVAPEL LTDA                            D000000000710000000000000000000000100010010000000000000000000000F0010000008550000120160430000101 00000000000000000000000000000000000000000000000000000000000000000000000000000000000000000000000000000000000000000N 00000000000NCONT   00    00000000000          00000000000000000000000000000000000000000000 000000000000000A000000000000000000000000000000000000000000000 000000000000000000000000000000000000000     00000000                                                                                                                        000000000000000000
F0010000008550000002000080019113900041450500000000000000000201604300002001COMERCIAL NOVAPEL LTDA                            C000000000600000000000000000000000100010010000000000000000000000F0010000008550000220160430000101 00000000000000000000000000000000000000000000000000000000000000000000000000000000000000000000000000000000000000000N 00000000000NCONT   00    00000000000          00000000000000000000000000000000000000000000 000000000000000A000000000000000000000000000000000000000000000 000000000000000000000000000000000000000     00000000                                                                                                                        000000000000000000
F0010000008550000003000080019113900042505000000000000000000201604300002001COMERCIAL NOVAPEL LTDA                            C000000000110000000000000000000000100010010000000000000000000000F0010000008550000320160430000101 00000000000000000000000000000000000000000000000000000000000000000000000000000000000000000000000000000000000000000N 00000000000NCONT   00    00000000000          00000000000000000000000000000000000000000000 000000000000000A000000000000000000000000000000000000000000000 000000000000000000000000000000000000000     00000000                                                                                                                        000000000000000000
F0010000008550000004000080019113900023658300000000000000000201604300002001COMERCIAL NOVAPEL LTDA                            C000000000004800000000000000000000100010010000000000000000000000F0010000008550000420160430000101 00000000000000000000000000000000000000000000000000000000000000000000000000000000000000000000000000000000000000000N 00000000000NCONT   00    00000000000          00000000000000000000000000000000000000000000 000000000000000A000000000000000000000000000000000000000000000 000000000000000000000000000000000000000     00000000                                                                                                                        000000000000000000
F0010000008550000005000080019113900013552100000000000000000201604300002001COMERCIAL NOVAPEL LTDA                            D000000000004800000000000000000000100010010000000000000000000000F0010000008550000520160430000101 00000000000000000000000000000000000000000000000000000000000000000000000000000000000000000000000000000000000000000N 00000000000NCONT   00    00000000000          00000000000000000000000000000000000000000000 000000000000000A000000000000000000000000000000000000000000000 000000000000000000000000000000000000000     00000000                                                                                                                        000000000000000000
F0010000008550100001000080019113900011050500000000000000000201604300002001COMERCIAL NOVAPEL LTDA                            D000000001400000000000000000000000100010010000000000000000000000F0010000008550100120160430000101 00000000000000000000000000000000000000000000000000000000000000000000000000000000000000000000000000000000000000000N 00000000000NCONT   00    00000000000          00000000000000000000000000000000000000000000 000000000000000A000000000000000000000000000000000000000000000 000000000000000000000000000000000000000     00000000                                                                                                                        000000000000000000
F0010000008550100002000080019113900041450500000000000000000201604300002001COMERCIAL NOVAPEL LTDA                            C000000001200000000000000000000000100010010000000000000000000000F0010000008550100220160430000101 00000000000000000000000000000000000000000000000000000000000000000000000000000000000000000000000000000000000000000N 00000000000NCONT   00    00000000000          00000000000000000000000000000000000000000000 000000000000000A000000000000000000000000000000000000000000000 000000000000000000000000000000000000000     00000000                                                                                                                        000000000000000000
F0010000008550100003000080019113900042505000000000000000000201604300002001COMERCIAL NOVAPEL LTDA                            C000000000200000000000000000000000100010010000000000000000000000F0010000008550100320160430000101 00000000000000000000000000000000000000000000000000000000000000000000000000000000000000000000000000000000000000000N 00000000000NCONT   00    00000000000          00000000000000000000000000000000000000000000 000000000000000A000000000000000000000000000000000000000000000 000000000000000000000000000000000000000     00000000                                                                                                                        000000000000000000
F0010000008550100004000080019113900023658300000000000000000201604300002001COMERCIAL NOVAPEL LTDA                            C000000000009600000000000000000000100010010000000000000000000000F0010000008550100420160430000101 00000000000000000000000000000000000000000000000000000000000000000000000000000000000000000000000000000000000000000N 00000000000NCONT   00    00000000000          00000000000000000000000000000000000000000000 000000000000000A000000000000000000000000000000000000000000000 000000000000000000000000000000000000000     00000000                                                                                                                        000000000000000000
F0010000008550100005000080019113900013552100000000000000000201604300002001COMERCIAL NOVAPEL LTDA                            D000000000009600000000000000000000100010010000000000000000000000F0010000008550100520160430000101 00000000000000000000000000000000000000000000000000000000000000000000000000000000000000000000000000000000000000000N 00000000000NCONT   00    00000000000          00000000000000000000000000000000000000000000 000000000000000A000000000000000000000000000000000000000000000 000000000000000000000000000000000000000     00000000                                                                                                                        000000000000000000
F0010000008550200001000080019113900011050500000000000000000201604300002001COMERCIAL NOVAPEL LTDA                            D000000002950000000000000000000000100010010000000000000000000000F0010000008550200120160430000101 00000000000000000000000000000000000000000000000000000000000000000000000000000000000000000000000000000000000000000N 00000000000NCONT   00    00000000000          00000000000000000000000000000000000000000000 000000000000000A000000000000000000000000000000000000000000000 000000000000000000000000000000000000000     00000000                                                                                                                        000000000000000000
F0010000008550200002000080019113900041450500000000000000000201604300002001COMERCIAL NOVAPEL LTDA                            C000000002400000000000000000000000100010010000000000000000000000F0010000008550200220160430000101 00000000000000000000000000000000000000000000000000000000000000000000000000000000000000000000000000000000000000000N 00000000000NCONT   00    00000000000          00000000000000000000000000000000000000000000 000000000000000A000000000000000000000000000000000000000000000 000000000000000000000000000000000000000     00000000                                                                                                                        000000000000000000
F0010000008550200003000080019113900042505000000000000000000201604300002001COMERCIAL NOVAPEL LTDA                            C000000000550000000000000000000000100010010000000000000000000000F0010000008550200320160430000101 00000000000000000000000000000000000000000000000000000000000000000000000000000000000000000000000000000000000000000N 00000000000NCONT   00    00000000000          00000000000000000000000000000000000000000000 000000000000000A000000000000000000000000000000000000000000000 000000000000000000000000000000000000000     00000000                                                                                                                        000000000000000000
F0010000008550200004000080019113900023658300000000000000000201604300002001COMERCIAL NOVAPEL LTDA                            C000000000019200000000000000000000100010010000000000000000000000F0010000008550200420160430000101 00000000000000000000000000000000000000000000000000000000000000000000000000000000000000000000000000000000000000000N 00000000000NCONT   00    00000000000          00000000000000000000000000000000000000000000 000000000000000A000000000000000000000000000000000000000000000 000000000000000000000000000000000000000     00000000                                                                                                                        000000000000000000
F0010000008550200005000080019113900013552100000000000000000201604300002001COMERCIAL NOVAPEL LTDA                            D000000000019200000000000000000000100010010000000000000000000000F0010000008550200520160430000101 00000000000000000000000000000000000000000000000000000000000000000000000000000000000000000000000000000000000000000N 00000000000NCONT   00    00000000000          00000000000000000000000000000000000000000000 000000000000000A000000000000000000000000000000000000000000000 000000000000000000000000000000000000000     00000000                                                                                                                        000000000000000000
F0010000008550300001000002243853600011050500000000000000000201604300002001LUZ MARINA CORREA CHACON                          D000000010000000000000000000000000100010010000000000000000000000F0010000008550300120160430000101 00000000000000000000000000000000000000000000000000000000000000000000000000000000000000000000000000000000000000000N 00000000000NCONT   00    00000000000          00000000000000000000000000000000000000000000 000000000000000A000000000000000000000000000000000000000000000 000000000000000000000000000000000000000     00000000                                                                                                                        000000000000000000
F0010000008550300002000002243853600041450500000000000000000201604300002001LUZ MARINA CORREA CHACON                          C000000009300000000000000000000000100010010000000000000000000000F0010000008550300220160430000101 00000000000000000000000000000000000000000000000000000000000000000000000000000000000000000000000000000000000000000N 00000000000NCONT   00    00000000000          00000000000000000000000000000000000000000000 000000000000000A000000000000000000000000000000000000000000000 000000000000000000000000000000000000000     00000000                                                                                                                        000000000000000000
F0010000008550300003000002243853600042505000000000000000000201604300002001LUZ MARINA CORREA CHACON                          C000000000700000000000000000000000100010010000000000000000000000F0010000008550300320160430000101 00000000000000000000000000000000000000000000000000000000000000000000000000000000000000000000000000000000000000000N 00000000000NCONT   00    00000000000          00000000000000000000000000000000000000000000 000000000000000A000000000000000000000000000000000000000000000 000000000000000000000000000000000000000     00000000                                                                                                                        000000000000000000
F0010000008550300004000002243853600023658300000000000000000201604300002001LUZ MARINA CORREA CHACON                          C000000000074400000000000000000000100010010000000000000000000000F0010000008550300420160430000101 00000000000000000000000000000000000000000000000000000000000000000000000000000000000000000000000000000000000000000N 00000000000NCONT   00    00000000000          00000000000000000000000000000000000000000000 000000000000000A000000000000000000000000000000000000000000000 000000000000000000000000000000000000000     00000000                                                                                                                        000000000000000000
F0010000008550300005000002243853600013552100000000000000000201604300002001LUZ MARINA CORREA CHACON                          D000000000074400000000000000000000100010010000000000000000000000F0010000008550300520160430000101 00000000000000000000000000000000000000000000000000000000000000000000000000000000000000000000000000000000000000000N 00000000000NCONT   00    00000000000          00000000000000000000000000000000000000000000 000000000000000A000000000000000000000000000000000000000000000 000000000000000000000000000000000000000     00000000                                                                                                                        000000000000000000
F0010000008550400001000080014190300011050500000000000000000201604300002001QUIMINSA LTDA                                     D000000002338200000000000000000000100010010000000000000000000000F0010000008550400120160430000101 00000000000000000000000000000000000000000000000000000000000000000000000000000000000000000000000000000000000000000N 00000000000NCONT   00    00000000000          00000000000000000000000000000000000000000000 000000000000000A000000000000000000000000000000000000000000000 000000000000000000000000000000000000000     00000000                                                                                                                        000000000000000000
F0010000008550400002000080014190300041450500000000000000000201604300002001QUIMINSA LTDA                                     C000000001800000000000000000000000100010010000000000000000000000F0010000008550400220160430000101 00000000000000000000000000000000000000000000000000000000000000000000000000000000000000000000000000000000000000000N 00000000000NCONT   00    00000000000          00000000000000000000000000000000000000000000 000000000000000A000000000000000000000000000000000000000000000 000000000000000000000000000000000000000     00000000                                                                                                                        000000000000000000
F0010000008550400003000080014190300042505000000000000000000201604300002001QUIMINSA LTDA                                     C000000000538200000000000000000000100010010000000000000000000000F0010000008550400320160430000101 00000000000000000000000000000000000000000000000000000000000000000000000000000000000000000000000000000000000000000N 00000000000NCONT   00    00000000000          00000000000000000000000000000000000000000000 000000000000000A000000000000000000000000000000000000000000000 000000000000000000000000000000000000000     00000000                                                                                                                        000000000000000000
F0010000008550400004000080014190300023658300000000000000000201604300002001QUIMINSA LTDA                                     C000000000014400000000000000000000100010010000000000000000000000F0010000008550400420160430000101 00000000000000000000000000000000000000000000000000000000000000000000000000000000000000000000000000000000000000000N 00000000000NCONT   00    00000000000          00000000000000000000000000000000000000000000 000000000000000A000000000000000000000000000000000000000000000 000000000000000000000000000000000000000     00000000                                                                                                                        000000000000000000
F0010000008550400005000080014190300013552100000000000000000201604300002001QUIMINSA LTDA                                     D000000000014400000000000000000000100010010000000000000000000000F0010000008550400520160430000101 00000000000000000000000000000000000000000000000000000000000000000000000000000000000000000000000000000000000000000N 00000000000NCONT   00    00000000000          00000000000000000000000000000000000000000000 000000000000000A000000000000000000000000000000000000000000000 000000000000000000000000000000000000000     00000000                                                                                                                        000000000000000000
F0010000008550500001000000860054200011050500000000000000000201604300002001HENRY DE LA HOZ                                   D000000004350000000000000000000000100010010000000000000000000000F0010000008550500120160430000101 00000000000000000000000000000000000000000000000000000000000000000000000000000000000000000000000000000000000000000N 00000000000NCONT   00    00000000000          00000000000000000000000000000000000000000000 000000000000000A000000000000000000000000000000000000000000000 000000000000000000000000000000000000000     00000000                                                                                                                        000000000000000000
F0010000008550500002000000860054200041450500000000000000000201604300002001HENRY DE LA HOZ                                   C000000003900000000000000000000000100010010000000000000000000000F0010000008550500220160430000101 00000000000000000000000000000000000000000000000000000000000000000000000000000000000000000000000000000000000000000N 00000000000NCONT   00    00000000000          00000000000000000000000000000000000000000000 000000000000000A000000000000000000000000000000000000000000000 000000000000000000000000000000000000000     00000000                                                                                                                        000000000000000000
F0010000008550500003000000860054200042505000000000000000000201604300002001HENRY DE LA HOZ                                   C000000000450000000000000000000000100010010000000000000000000000F0010000008550500320160430000101 00000000000000000000000000000000000000000000000000000000000000000000000000000000000000000000000000000000000000000N 00000000000NCONT   00    00000000000          00000000000000000000000000000000000000000000 000000000000000A000000000000000000000000000000000000000000000 000000000000000000000000000000000000000     00000000                                                                                                                        000000000000000000
F0010000008550500004000000860054200023658300000000000000000201604300002001HENRY DE LA HOZ                                   C000000000031200000000000000000000100010010000000000000000000000F0010000008550500420160430000101 00000000000000000000000000000000000000000000000000000000000000000000000000000000000000000000000000000000000000000N 00000000000NCONT   00    00000000000          00000000000000000000000000000000000000000000 000000000000000A000000000000000000000000000000000000000000000 000000000000000000000000000000000000000     00000000                                                                                                                        000000000000000000
F0010000008550500005000000860054200013552100000000000000000201604300002001HENRY DE LA HOZ                                   D000000000031200000000000000000000100010010000000000000000000000F0010000008550500520160430000101 00000000000000000000000000000000000000000000000000000000000000000000000000000000000000000000000000000000000000000N 00000000000NCONT   00    00000000000          00000000000000000000000000000000000000000000 000000000000000A000000000000000000000000000000000000000000000 000000000000000000000000000000000000000     00000000                                                                                                                        000000000000000000
F0010000008550600001000004175790100011050500000000000000000201604300002001ROSIRIS FERIA HOYOS  (COSM. SHILLER)              D000000001000000000000000000000000100010010000000000000000000000F0010000008550600120160430000101 00000000000000000000000000000000000000000000000000000000000000000000000000000000000000000000000000000000000000000N 00000000000NCONT   00    00000000000          00000000000000000000000000000000000000000000 000000000000000A000000000000000000000000000000000000000000000 000000000000000000000000000000000000000     00000000                                                                                                                        000000000000000000
F0010000008550600002000004175790100041450500000000000000000201604300002001ROSIRIS FERIA HOYOS  (COSM. SHILLER)              C000000000900000000000000000000000100010010000000000000000000000F0010000008550600220160430000101 00000000000000000000000000000000000000000000000000000000000000000000000000000000000000000000000000000000000000000N 00000000000NCONT   00    00000000000          00000000000000000000000000000000000000000000 000000000000000A000000000000000000000000000000000000000000000 000000000000000000000000000000000000000     00000000                                                                                                                        000000000000000000
F0010000008550600003000004175790100042505000000000000000000201604300002001ROSIRIS FERIA HOYOS  (COSM. SHILLER)              C000000000100000000000000000000000100010010000000000000000000000F0010000008550600320160430000101 00000000000000000000000000000000000000000000000000000000000000000000000000000000000000000000000000000000000000000N 00000000000NCONT   00    00000000000          00000000000000000000000000000000000000000000 000000000000000A000000000000000000000000000000000000000000000 000000000000000000000000000000000000000     00000000                                                                                                                        000000000000000000
F0010000008550600004000004175790100023658300000000000000000201604300002001ROSIRIS FERIA HOYOS  (COSM. SHILLER)              C000000000007200000000000000000000100010010000000000000000000000F0010000008550600420160430000101 00000000000000000000000000000000000000000000000000000000000000000000000000000000000000000000000000000000000000000N 00000000000NCONT   00    00000000000          00000000000000000000000000000000000000000000 000000000000000A000000000000000000000000000000000000000000000 000000000000000000000000000000000000000     00000000                                                                                                                        000000000000000000
F0010000008550600005000004175790100013552100000000000000000201604300002001ROSIRIS FERIA HOYOS  (COSM. SHILLER)              D000000000007200000000000000000000100010010000000000000000000000F0010000008550600520160430000101 00000000000000000000000000000000000000000000000000000000000000000000000000000000000000000000000000000000000000000N 00000000000NCONT   00    00000000000          00000000000000000000000000000000000000000000 000000000000000A000000000000000000000000000000000000000000000 000000000000000000000000000000000000000     00000000                                                                                                                        000000000000000000
F0010000008550700001000000431178400011050500000000000000000201604300002001EFRAIN ALVAREZ                                    D000000007220000000000000000000000100010010000000000000000000000F0010000008550700120160430000101 00000000000000000000000000000000000000000000000000000000000000000000000000000000000000000000000000000000000000000N 00000000000NCONT   00    00000000000          00000000000000000000000000000000000000000000 000000000000000A000000000000000000000000000000000000000000000 000000000000000000000000000000000000000     00000000                                                                                                                        000000000000000000
F0010000008550700002000000431178400041450500000000000000000201604300002001EFRAIN ALVAREZ                                    C000000006920000000000000000000000100010010000000000000000000000F0010000008550700220160430000101 00000000000000000000000000000000000000000000000000000000000000000000000000000000000000000000000000000000000000000N 00000000000NCONT   00    00000000000          00000000000000000000000000000000000000000000 000000000000000A000000000000000000000000000000000000000000000 000000000000000000000000000000000000000     00000000                                                                                                                        000000000000000000
F0010000008550700003000000431178400042505000000000000000000201604300002001EFRAIN ALVAREZ                                    C000000000300000000000000000000000100010010000000000000000000000F0010000008550700320160430000101 00000000000000000000000000000000000000000000000000000000000000000000000000000000000000000000000000000000000000000N 00000000000NCONT   00    00000000000          00000000000000000000000000000000000000000000 000000000000000A000000000000000000000000000000000000000000000 000000000000000000000000000000000000000     00000000                                                                                                                        000000000000000000
F0010000008550700004000000431178400023658300000000000000000201604300002001EFRAIN ALVAREZ                                    C000000000055400000000000000000000100010010000000000000000000000F0010000008550700420160430000101 00000000000000000000000000000000000000000000000000000000000000000000000000000000000000000000000000000000000000000N 00000000000NCONT   00    00000000000          00000000000000000000000000000000000000000000 000000000000000A000000000000000000000000000000000000000000000 000000000000000000000000000000000000000     00000000                                                                                                                        000000000000000000
F0010000008550700005000000431178400013552100000000000000000201604300002001EFRAIN ALVAREZ                                    D000000000055400000000000000000000100010010000000000000000000000F0010000008550700520160430000101 00000000000000000000000000000000000000000000000000000000000000000000000000000000000000000000000000000000000000000N 00000000000NCONT   00    00000000000          00000000000000000000000000000000000000000000 000000000000000A000000000000000000000000000000000000000000000 000000000000000000000000000000000000000     00000000                                                                                                                        000000000000000000
F0010000008550800001000001022529300011050500000000000000000201604300002001ALBERTO ALVAREZ ISAZA                             D000000004048700000000000000000000100010010000000000000000000000F0010000008550800120160430000101 00000000000000000000000000000000000000000000000000000000000000000000000000000000000000000000000000000000000000000N 00000000000NCONT   00    00000000000          00000000000000000000000000000000000000000000 000000000000000A000000000000000000000000000000000000000000000 000000000000000000000000000000000000000     00000000                                                                                                                        000000000000000000
F0010000008550800002000001022529300041450500000000000000000201604300002001ALBERTO ALVAREZ ISAZA                             C000000003460000000000000000000000100010010000000000000000000000F0010000008550800220160430000101 00000000000000000000000000000000000000000000000000000000000000000000000000000000000000000000000000000000000000000N 00000000000NCONT   00    00000000000          00000000000000000000000000000000000000000000 000000000000000A000000000000000000000000000000000000000000000 000000000000000000000000000000000000000     00000000                                                                                                                        000000000000000000
F0010000008550800003000001022529300042505000000000000000000201604300002001ALBERTO ALVAREZ ISAZA                             C000000000588700000000000000000000100010010000000000000000000000F0010000008550800320160430000101 00000000000000000000000000000000000000000000000000000000000000000000000000000000000000000000000000000000000000000N 00000000000NCONT   00    00000000000          00000000000000000000000000000000000000000000 000000000000000A000000000000000000000000000000000000000000000 000000000000000000000000000000000000000     00000000                                                                                                                        000000000000000000
F0010000008550800004000001022529300023658300000000000000000201604300002001ALBERTO ALVAREZ ISAZA                             C000000000027700000000000000000000100010010000000000000000000000F0010000008550800420160430000101 00000000000000000000000000000000000000000000000000000000000000000000000000000000000000000000000000000000000000000N 00000000000NCONT   00    00000000000          00000000000000000000000000000000000000000000 000000000000000A000000000000000000000000000000000000000000000 000000000000000000000000000000000000000     00000000                                                                                                                        000000000000000000
F0010000008550800005000001022529300013552100000000000000000201604300002001ALBERTO ALVAREZ ISAZA                             D000000000027700000000000000000000100010010000000000000000000000F0010000008550800520160430000101 00000000000000000000000000000000000000000000000000000000000000000000000000000000000000000000000000000000000000000N 00000000000NCONT   00    00000000000          00000000000000000000000000000000000000000000 000000000000000A000000000000000000000000000000000000000000000 000000000000000000000000000000000000000     00000000                                                                                                                        000000000000000000
F0010000008550900001000001022529300011050500000000000000000201604300002001ALBERTO ALVAREZ ISAZA                             D000000008385100000000000000000000100010010000000000000000000000F0010000008550900120160430000101 00000000000000000000000000000000000000000000000000000000000000000000000000000000000000000000000000000000000000000N 00000000000NCONT   00    00000000000          00000000000000000000000000000000000000000000 000000000000000A000000000000000000000000000000000000000000000 000000000000000000000000000000000000000     00000000                                                                                                                        000000000000000000
F0010000008550900002000001022529300041450500000000000000000201604300002001ALBERTO ALVAREZ ISAZA                             C000000007880000000000000000000000100010010000000000000000000000F0010000008550900220160430000101 00000000000000000000000000000000000000000000000000000000000000000000000000000000000000000000000000000000000000000N 00000000000NCONT   00    00000000000          00000000000000000000000000000000000000000000 000000000000000A000000000000000000000000000000000000000000000 000000000000000000000000000000000000000     00000000                                                                                                                        000000000000000000
F0010000008550900003000001022529300042505000000000000000000201604300002001ALBERTO ALVAREZ ISAZA                             C000000000505100000000000000000000100010010000000000000000000000F0010000008550900320160430000101 00000000000000000000000000000000000000000000000000000000000000000000000000000000000000000000000000000000000000000N 00000000000NCONT   00    00000000000          00000000000000000000000000000000000000000000 000000000000000A000000000000000000000000000000000000000000000 000000000000000000000000000000000000000     00000000                                                                                                                        000000000000000000
F0010000008550900004000001022529300023658300000000000000000201604300002001ALBERTO ALVAREZ ISAZA                             C000000000063000000000000000000000100010010000000000000000000000F0010000008550900420160430000101 00000000000000000000000000000000000000000000000000000000000000000000000000000000000000000000000000000000000000000N 00000000000NCONT   00    00000000000          00000000000000000000000000000000000000000000 000000000000000A000000000000000000000000000000000000000000000 000000000000000000000000000000000000000     00000000                                                                                                                        000000000000000000
F0010000008550900005000001022529300013552100000000000000000201604300002001ALBERTO ALVAREZ ISAZA                             D000000000063000000000000000000000100010010000000000000000000000F0010000008550900520160430000101 00000000000000000000000000000000000000000000000000000000000000000000000000000000000000000000000000000000000000000N 00000000000NCONT   00    00000000000          00000000000000000000000000000000000000000000 000000000000000A000000000000000000000000000000000000000000000 000000000000000000000000000000000000000     00000000                                                                                                                        000000000000000000
F0010000008551000001000004175790100011050500000000000000000201604300002001ROSIRIS FERIA HOYOS  (COSM. SHILLER)              D000000001300000000000000000000000100010010000000000000000000000F0010000008551000120160430000101 00000000000000000000000000000000000000000000000000000000000000000000000000000000000000000000000000000000000000000N 00000000000NCONT   00    00000000000          00000000000000000000000000000000000000000000 000000000000000A000000000000000000000000000000000000000000000 000000000000000000000000000000000000000     00000000                                                                                                                        000000000000000000
F0010000008551000002000004175790100041450500000000000000000201604300002001ROSIRIS FERIA HOYOS  (COSM. SHILLER)              C000000001200000000000000000000000100010010000000000000000000000F0010000008551000220160430000101 00000000000000000000000000000000000000000000000000000000000000000000000000000000000000000000000000000000000000000N 00000000000NCONT   00    00000000000          00000000000000000000000000000000000000000000 000000000000000A000000000000000000000000000000000000000000000 000000000000000000000000000000000000000     00000000                                                                                                                        000000000000000000
F0010000008551000003000004175790100042505000000000000000000201604300002001ROSIRIS FERIA HOYOS  (COSM. SHILLER)              C000000000100000000000000000000000100010010000000000000000000000F0010000008551000320160430000101 00000000000000000000000000000000000000000000000000000000000000000000000000000000000000000000000000000000000000000N 00000000000NCONT   00    00000000000          00000000000000000000000000000000000000000000 000000000000000A000000000000000000000000000000000000000000000 000000000000000000000000000000000000000     00000000                                                                                                                        000000000000000000
F0010000008551000004000004175790100023658300000000000000000201604300002001ROSIRIS FERIA HOYOS  (COSM. SHILLER)              C000000000009600000000000000000000100010010000000000000000000000F0010000008551000420160430000101 00000000000000000000000000000000000000000000000000000000000000000000000000000000000000000000000000000000000000000N 00000000000NCONT   00    00000000000          00000000000000000000000000000000000000000000 000000000000000A000000000000000000000000000000000000000000000 000000000000000000000000000000000000000     00000000                                                                                                                        000000000000000000
F0010000008551000005000004175790100013552100000000000000000201604300002001ROSIRIS FERIA HOYOS  (COSM. SHILLER)              D000000000009600000000000000000000100010010000000000000000000000F0010000008551000520160430000101 00000000000000000000000000000000000000000000000000000000000000000000000000000000000000000000000000000000000000000N 00000000000NCONT   00    00000000000          00000000000000000000000000000000000000000000 000000000000000A000000000000000000000000000000000000000000000 000000000000000000000000000000000000000     00000000                                                                                                                        000000000000000000
F0010000008551100001000000860054200011050500000000000000000201604300002001HENRY DE LA HOZ                                   D000000013500000000000000000000000100010010000000000000000000000F0010000008551100120160430000101 00000000000000000000000000000000000000000000000000000000000000000000000000000000000000000000000000000000000000000N 00000000000NCONT   00    00000000000          00000000000000000000000000000000000000000000 000000000000000A000000000000000000000000000000000000000000000 000000000000000000000000000000000000000     00000000                                                                                                                        000000000000000000
F0010000008551100002000000860054200041450500000000000000000201604300002001HENRY DE LA HOZ                                   C000000012000000000000000000000000100010010000000000000000000000F0010000008551100220160430000101 00000000000000000000000000000000000000000000000000000000000000000000000000000000000000000000000000000000000000000N 00000000000NCONT   00    00000000000          00000000000000000000000000000000000000000000 000000000000000A000000000000000000000000000000000000000000000 000000000000000000000000000000000000000     00000000                                                                                                                        000000000000000000
F0010000008551100003000000860054200042505000000000000000000201604300002001HENRY DE LA HOZ                                   C000000001500000000000000000000000100010010000000000000000000000F0010000008551100320160430000101 00000000000000000000000000000000000000000000000000000000000000000000000000000000000000000000000000000000000000000N 00000000000NCONT   00    00000000000          00000000000000000000000000000000000000000000 000000000000000A000000000000000000000000000000000000000000000 000000000000000000000000000000000000000     00000000                                                                                                                        000000000000000000
F0010000008551100004000000860054200023658300000000000000000201604300002001HENRY DE LA HOZ                                   C000000000096000000000000000000000100010010000000000000000000000F0010000008551100420160430000101 00000000000000000000000000000000000000000000000000000000000000000000000000000000000000000000000000000000000000000N 00000000000NCONT   00    00000000000          00000000000000000000000000000000000000000000 000000000000000A000000000000000000000000000000000000000000000 000000000000000000000000000000000000000     00000000                                                                                                                        000000000000000000
F0010000008551100005000000860054200013552100000000000000000201604300002001HENRY DE LA HOZ                                   D000000000096000000000000000000000100010010000000000000000000000F0010000008551100520160430000101 00000000000000000000000000000000000000000000000000000000000000000000000000000000000000000000000000000000000000000N 00000000000NCONT   00    00000000000          00000000000000000000000000000000000000000000 000000000000000A000000000000000000000000000000000000000000000 000000000000000000000000000000000000000     00000000                                                                                                                        000000000000000000
F0010000008551200001000004175790100011050500000000000000000201604300002001ROSIRIS FERIA HOYOS  (COSM. SHILLER)              D000000001100000000000000000000000100010010000000000000000000000F0010000008551200120160430000101 00000000000000000000000000000000000000000000000000000000000000000000000000000000000000000000000000000000000000000N 00000000000NCONT   00    00000000000          00000000000000000000000000000000000000000000 000000000000000A000000000000000000000000000000000000000000000 000000000000000000000000000000000000000     00000000                                                                                                                        000000000000000000
F0010000008551200002000004175790100041450500000000000000000201604300002001ROSIRIS FERIA HOYOS  (COSM. SHILLER)              C000000001000000000000000000000000100010010000000000000000000000F0010000008551200220160430000101 00000000000000000000000000000000000000000000000000000000000000000000000000000000000000000000000000000000000000000N 00000000000NCONT   00    00000000000          00000000000000000000000000000000000000000000 000000000000000A000000000000000000000000000000000000000000000 000000000000000000000000000000000000000     00000000                                                                                                                        000000000000000000
F0010000008551200003000004175790100042505000000000000000000201604300002001ROSIRIS FERIA HOYOS  (COSM. SHILLER)              C000000000100000000000000000000000100010010000000000000000000000F0010000008551200320160430000101 00000000000000000000000000000000000000000000000000000000000000000000000000000000000000000000000000000000000000000N 00000000000NCONT   00    00000000000          00000000000000000000000000000000000000000000 000000000000000A000000000000000000000000000000000000000000000 000000000000000000000000000000000000000     00000000                                                                                                                        000000000000000000
F0010000008551200004000004175790100023658300000000000000000201604300002001ROSIRIS FERIA HOYOS  (COSM. SHILLER)              C000000000008000000000000000000000100010010000000000000000000000F0010000008551200420160430000101 00000000000000000000000000000000000000000000000000000000000000000000000000000000000000000000000000000000000000000N 00000000000NCONT   00    00000000000          00000000000000000000000000000000000000000000 000000000000000A000000000000000000000000000000000000000000000 000000000000000000000000000000000000000     00000000                                                                                                                        000000000000000000
F0010000008551200005000004175790100013552100000000000000000201604300002001ROSIRIS FERIA HOYOS  (COSM. SHILLER)              D000000000008000000000000000000000100010010000000000000000000000F0010000008551200520160430000101 00000000000000000000000000000000000000000000000000000000000000000000000000000000000000000000000000000000000000000N 00000000000NCONT   00    00000000000          00000000000000000000000000000000000000000000 000000000000000A000000000000000000000000000000000000000000000 000000000000000000000000000000000000000     00000000                                                                                                                        000000000000000000
F0010000008551300001000000860054200011050500000000000000000201604300002001HENRY DE LA HOZ                                   D000000001300000000000000000000000100010010000000000000000000000F0010000008551300120160430000101 00000000000000000000000000000000000000000000000000000000000000000000000000000000000000000000000000000000000000000N 00000000000NCONT   00    00000000000          00000000000000000000000000000000000000000000 000000000000000A000000000000000000000000000000000000000000000 000000000000000000000000000000000000000     00000000                                                                                                                        000000000000000000
F0010000008551300002000000860054200041450500000000000000000201604300002001HENRY DE LA HOZ                                   C000000001200000000000000000000000100010010000000000000000000000F0010000008551300220160430000101 00000000000000000000000000000000000000000000000000000000000000000000000000000000000000000000000000000000000000000N 00000000000NCONT   00    00000000000          00000000000000000000000000000000000000000000 000000000000000A000000000000000000000000000000000000000000000 000000000000000000000000000000000000000     00000000                                                                                                                        000000000000000000
F0010000008551300003000000860054200042505000000000000000000201604300002001HENRY DE LA HOZ                                   C000000000100000000000000000000000100010010000000000000000000000F0010000008551300320160430000101 00000000000000000000000000000000000000000000000000000000000000000000000000000000000000000000000000000000000000000N 00000000000NCONT   00    00000000000          00000000000000000000000000000000000000000000 000000000000000A000000000000000000000000000000000000000000000 000000000000000000000000000000000000000     00000000                                                                                                                        000000000000000000
F0010000008551300004000000860054200023658300000000000000000201604300002001HENRY DE LA HOZ                                   C000000000009600000000000000000000100010010000000000000000000000F0010000008551300420160430000101 00000000000000000000000000000000000000000000000000000000000000000000000000000000000000000000000000000000000000000N 00000000000NCONT   00    00000000000          00000000000000000000000000000000000000000000 000000000000000A000000000000000000000000000000000000000000000 000000000000000000000000000000000000000     00000000                                                                                                                        000000000000000000
F0010000008551300005000000860054200013552100000000000000000201604300002001HENRY DE LA HOZ                                   D000000000009600000000000000000000100010010000000000000000000000F0010000008551300520160430000101 00000000000000000000000000000000000000000000000000000000000000000000000000000000000000000000000000000000000000000N 00000000000NCONT   00    00000000000          00000000000000000000000000000000000000000000 000000000000000A000000000000000000000000000000000000000000000 000000000000000000000000000000000000000     00000000                                                                                                                        000000000000000000
F0010000008551400001000083008772100011050500000000000000000201604300002001ILUMEC SAS                                        D000000001005000000000000000000000100010010000000000000000000000F0010000008551400120160430000101 00000000000000000000000000000000000000000000000000000000000000000000000000000000000000000000000000000000000000000N 00000000000NCONT   00    00000000000          00000000000000000000000000000000000000000000 000000000000000A000000000000000000000000000000000000000000000 000000000000000000000000000000000000000     00000000                                                                                                                        000000000000000000
F0010000008551400002000083008772100041450500000000000000000201604300002001ILUMEC SAS                                        C000000000880000000000000000000000100010010000000000000000000000F0010000008551400220160430000101 00000000000000000000000000000000000000000000000000000000000000000000000000000000000000000000000000000000000000000N 00000000000NCONT   00    00000000000          00000000000000000000000000000000000000000000 000000000000000A000000000000000000000000000000000000000000000 000000000000000000000000000000000000000     00000000                                                                                                                        000000000000000000
F0010000008551400003000083008772100042505000000000000000000201604300002001ILUMEC SAS                                        C000000000125000000000000000000000100010010000000000000000000000F0010000008551400320160430000101 00000000000000000000000000000000000000000000000000000000000000000000000000000000000000000000000000000000000000000N 00000000000NCONT   00    00000000000          00000000000000000000000000000000000000000000 000000000000000A000000000000000000000000000000000000000000000 000000000000000000000000000000000000000     00000000                                                                                                                        000000000000000000
F0010000008551400004000083008772100023658300000000000000000201604300002001ILUMEC SAS                                        C000000000007000000000000000000000100010010000000000000000000000F0010000008551400420160430000101 00000000000000000000000000000000000000000000000000000000000000000000000000000000000000000000000000000000000000000N 00000000000NCONT   00    00000000000          00000000000000000000000000000000000000000000 000000000000000A000000000000000000000000000000000000000000000 000000000000000000000000000000000000000     00000000                                                                                                                        000000000000000000
F0010000008551400005000083008772100013552100000000000000000201604300002001ILUMEC SAS                                        D000000000007000000000000000000000100010010000000000000000000000F0010000008551400520160430000101 00000000000000000000000000000000000000000000000000000000000000000000000000000000000000000000000000000000000000000N 00000000000NCONT   00    00000000000          00000000000000000000000000000000000000000000 000000000000000A000000000000000000000000000000000000000000000 000000000000000000000000000000000000000     00000000                                                                                                                        000000000000000000
F0010000008551500001000090050144800011050500000000000000000201604300002001PLASTICOS JR ASOCIADOS SAS                        D000000008600000000000000000000000100010010000000000000000000000F0010000008551500120160430000101 00000000000000000000000000000000000000000000000000000000000000000000000000000000000000000000000000000000000000000N 00000000000NCONT   00    00000000000          00000000000000000000000000000000000000000000 000000000000000A000000000000000000000000000000000000000000000 000000000000000000000000000000000000000     00000000                                                                                                                        000000000000000000
F0010000008551500002000090050144800041450500000000000000000201604300002001PLASTICOS JR ASOCIADOS SAS                        C000000007600000000000000000000000100010010000000000000000000000F0010000008551500220160430000101 00000000000000000000000000000000000000000000000000000000000000000000000000000000000000000000000000000000000000000N 00000000000NCONT   00    00000000000          00000000000000000000000000000000000000000000 000000000000000A000000000000000000000000000000000000000000000 000000000000000000000000000000000000000     00000000                                                                                                                        000000000000000000
F0010000008551500003000090050144800042505000000000000000000201604300002001PLASTICOS JR ASOCIADOS SAS                        C000000001000000000000000000000000100010010000000000000000000000F0010000008551500320160430000101 00000000000000000000000000000000000000000000000000000000000000000000000000000000000000000000000000000000000000000N 00000000000NCONT   00    00000000000          00000000000000000000000000000000000000000000 000000000000000A000000000000000000000000000000000000000000000 000000000000000000000000000000000000000     00000000                                                                                                                        000000000000000000
F0010000008551500004000090050144800023658300000000000000000201604300002001PLASTICOS JR ASOCIADOS SAS                        C000000000060800000000000000000000100010010000000000000000000000F0010000008551500420160430000101 00000000000000000000000000000000000000000000000000000000000000000000000000000000000000000000000000000000000000000N 00000000000NCONT   00    00000000000          00000000000000000000000000000000000000000000 000000000000000A000000000000000000000000000000000000000000000 000000000000000000000000000000000000000     00000000                                                                                                                        000000000000000000
F0010000008551500005000090050144800013552100000000000000000201604300002001PLASTICOS JR ASOCIADOS SAS                        D000000000060800000000000000000000100010010000000000000000000000F0010000008551500520160430000101 00000000000000000000000000000000000000000000000000000000000000000000000000000000000000000000000000000000000000000N 00000000000NCONT   00    00000000000          00000000000000000000000000000000000000000000 000000000000000A000000000000000000000000000000000000000000000 000000000000000000000000000000000000000     00000000                                                                                                                        000000000000000000
